{
	"data": {
		"bytecode": {
			"linkReferences": {},
			"object": "608060405234801561000f575f80fd5b506040516142e03803806142e0833981810160405281019061003191906101c7565b815f806101000a81548173ffffffffffffffffffffffffffffffffffffffff021916908373ffffffffffffffffffffffffffffffffffffffff1602179055508060015f6101000a81548173ffffffffffffffffffffffffffffffffffffffff021916908373ffffffffffffffffffffffffffffffffffffffff1602179055506040516100bc9061015c565b604051809103905ff0801580156100d5573d5f803e3d5ffd5b5060025f6101000a81548173ffffffffffffffffffffffffffffffffffffffff021916908373ffffffffffffffffffffffffffffffffffffffff1602179055503360075f6101000a81548173ffffffffffffffffffffffffffffffffffffffff021916908373ffffffffffffffffffffffffffffffffffffffff1602179055505050610205565b61157f80612d6183390190565b5f80fd5b5f73ffffffffffffffffffffffffffffffffffffffff82169050919050565b5f6101968261016d565b9050919050565b6101a68161018c565b81146101b0575f80fd5b50565b5f815190506101c18161019d565b92915050565b5f80604083850312156101dd576101dc610169565b5b5f6101ea858286016101b3565b92505060206101fb858286016101b3565b9150509250929050565b612b4f806102125f395ff3fe608060405234801561000f575f80fd5b5060043610610171575f3560e01c80638da5cb5b116100dc578063b9c8c4ba11610095578063c4604b331161006f578063c4604b331461043e578063c9e57aa61461046e578063dc5fa6c51461048c578063f0b456e9146104aa57610171565b8063b9c8c4ba146103d4578063bae38d58146103f0578063be8e89fc1461042057610171565b80638da5cb5b1461031257806398d5fdca146103305780639c8f9f231461034e5780639cd441da1461036a578063a001ecdd1461039a578063ae06c1b7146103b857610171565b80634242ec521161012e5780634242ec521461023c578063476343ee1461026c5780635f64b55b146102765780635fcbd28514610294578063670053c8146102b25780637a88266a146102e257610171565b806306ebcc6d146101755780630902f1ac146101a55780630db8b192146101c45780630fc63d10146101e257806319e36f3b1461020057806325781cf41461021e575b5f80fd5b61018f600480360381019061018a9190611e9d565b6104da565b60405161019c9190611ee0565b60405180910390f35b6101ad61057b565b6040516101bb929190611ef9565b60405180910390f35b6101cc61058b565b6040516101d99190611ee0565b60405180910390f35b6101ea610591565b6040516101f79190611f7b565b60405180910390f35b6102086105b4565b6040516102159190611ee0565b60405180910390f35b6102266105ba565b6040516102339190611ee0565b60405180910390f35b61025660048036038101906102519190611fbe565b6105c0565b6040516102639190611ee0565b60405180910390f35b6102746108ec565b005b61027e610b9b565b60405161028b9190611f7b565b60405180910390f35b61029c610bc0565b6040516102a9919061201c565b60405180910390f35b6102cc60048036038101906102c79190612035565b610be5565b6040516102d99190611ee0565b60405180910390f35b6102fc60048036038101906102f79190612035565b610cad565b6040516103099190611ee0565b60405180910390f35b61031a610d81565b604051610327919061206f565b60405180910390f35b610338610da6565b6040516103459190611ee0565b60405180910390f35b61036860048036038101906103639190612035565b610e13565b005b610384600480360381019061037f9190611fbe565b6112b9565b6040516103919190611ee0565b60405180910390f35b6103a26116f6565b6040516103af9190611ee0565b60405180910390f35b6103d260048036038101906103cd9190612035565b6116fc565b005b6103ee60048036038101906103e99190612035565b6117d9565b005b61040a60048036038101906104059190612035565b6118b4565b6040516104179190611ee0565b60405180910390f35b610428611988565b6040516104359190611ee0565b60405180910390f35b61045860048036038101906104539190612035565b61198e565b6040516104659190611ee0565b60405180910390f35b610476611a56565b604051610483919061206f565b60405180910390f35b610494611a7e565b6040516104a19190611ee0565b60405180910390f35b6104c460048036038101906104bf9190611fbe565b611a84565b6040516104d19190611ee0565b60405180910390f35b5f60025f9054906101000a900473ffffffffffffffffffffffffffffffffffffffff1673ffffffffffffffffffffffffffffffffffffffff166370a08231836040518263ffffffff1660e01b8152600401610535919061206f565b602060405180830381865afa158015610550573d5f803e3d5ffd5b505050506040513d601f19601f82011682018060405250810190610574919061209c565b9050919050565b5f80600354600454915091509091565b60095481565b5f8054906101000a900473ffffffffffffffffffffffffffffffffffffffff1681565b60045481565b60085481565b5f808311610603576040517f08c379a00000000000000000000000000000000000000000000000000000000081526004016105fa90612121565b60405180910390fd5b5f60055411610647576040517f08c379a000000000000000000000000000000000000000000000000000000000815260040161063e90612189565b60405180910390fd5b5f60646006548561065891906121d4565b6106629190612242565b90505f81856106719190612272565b905061067c8161198e565b84116106bd576040517f08c379a00000000000000000000000000000000000000000000000000000000081526004016106b4906122ef565b60405180910390fd5b5f816004546106cc919061230d565b90505f6004546003546106df91906121d4565b90505f82826106ee9190612242565b90505f816003546106ff9190612272565b905060015f9054906101000a900473ffffffffffffffffffffffffffffffffffffffff1673ffffffffffffffffffffffffffffffffffffffff166323b872dd33308c6040518463ffffffff1660e01b815260040161075f93929190612340565b6020604051808303815f875af115801561077b573d5f803e3d5ffd5b505050506040513d601f19601f8201168201806040525081019061079f91906123aa565b6107de576040517f08c379a00000000000000000000000000000000000000000000000000000000081526004016107d59061241f565b60405180910390fd5b5f8054906101000a900473ffffffffffffffffffffffffffffffffffffffff1673ffffffffffffffffffffffffffffffffffffffff1663a9059cbb33836040518363ffffffff1660e01b815260040161083892919061243d565b6020604051808303815f875af1158015610854573d5f803e3d5ffd5b505050506040513d601f19601f8201168201806040525081019061087891906123aa565b6108b7576040517f08c379a00000000000000000000000000000000000000000000000000000000081526004016108ae906124ae565b60405180910390fd5b8560095f8282546108c8919061230d565b92505081905550816003819055508360048190555080965050505050505092915050565b60075f9054906101000a900473ffffffffffffffffffffffffffffffffffffffff1673ffffffffffffffffffffffffffffffffffffffff163373ffffffffffffffffffffffffffffffffffffffff161461097b576040517f08c379a000000000000000000000000000000000000000000000000000000000815260040161097290612516565b60405180910390fd5b5f6008541115610a89575f8054906101000a900473ffffffffffffffffffffffffffffffffffffffff1673ffffffffffffffffffffffffffffffffffffffff1663a9059cbb60075f9054906101000a900473ffffffffffffffffffffffffffffffffffffffff166008546040518363ffffffff1660e01b8152600401610a0292919061243d565b6020604051808303815f875af1158015610a1e573d5f803e3d5ffd5b505050506040513d601f19601f82011682018060405250810190610a4291906123aa565b610a81576040517f08c379a0000000000000000000000000000000000000000000000000000000008152600401610a789061257e565b60405180910390fd5b5f6008819055505b5f6009541115610b995760015f9054906101000a900473ffffffffffffffffffffffffffffffffffffffff1673ffffffffffffffffffffffffffffffffffffffff1663a9059cbb60075f9054906101000a900473ffffffffffffffffffffffffffffffffffffffff166009546040518363ffffffff1660e01b8152600401610b1292919061243d565b6020604051808303815f875af1158015610b2e573d5f803e3d5ffd5b505050506040513d601f19601f82011682018060405250810190610b5291906123aa565b610b91576040517f08c379a0000000000000000000000000000000000000000000000000000000008152600401610b88906125e6565b60405180910390fd5b5f6009819055505b565b60015f9054906101000a900473ffffffffffffffffffffffffffffffffffffffff1681565b60025f9054906101000a900473ffffffffffffffffffffffffffffffffffffffff1681565b5f808211610c28576040517f08c379a0000000000000000000000000000000000000000000000000000000008152600401610c1f9061264e565b60405180910390fd5b5f610c3283610cad565b90505f83600354610c43919061230d565b90505f600454600354610c5691906121d4565b90505f8282610c659190612242565b90505f81600454610c769190612272565b90505f85606483610c8791906121d4565b610c919190612242565b6064610c9d9190612272565b9050809650505050505050919050565b5f808211610cf0576040517f08c379a0000000000000000000000000000000000000000000000000000000008152600401610ce7906126b6565b60405180910390fd5b5f60045411610d34576040517f08c379a0000000000000000000000000000000000000000000000000000000008152600401610d2b9061271e565b60405180910390fd5b5f600454670de0b6b3a7640000600354610d4e91906121d4565b610d589190612242565b905080670de0b6b3a764000084610d6f91906121d4565b610d799190612242565b915050919050565b60075f9054906101000a900473ffffffffffffffffffffffffffffffffffffffff1681565b5f8060045411610deb576040517f08c379a0000000000000000000000000000000000000000000000000000000008152600401610de290612786565b60405180910390fd5b600454670de0b6b3a7640000600354610e0491906121d4565b610e0e9190612242565b905090565b5f8111610e55576040517f08c379a0000000000000000000000000000000000000000000000000000000008152600401610e4c906127ee565b60405180910390fd5b8060025f9054906101000a900473ffffffffffffffffffffffffffffffffffffffff1673ffffffffffffffffffffffffffffffffffffffff166370a08231336040518263ffffffff1660e01b8152600401610eb0919061206f565b602060405180830381865afa158015610ecb573d5f803e3d5ffd5b505050506040513d601f19601f82011682018060405250810190610eef919061209c565b1015610f30576040517f08c379a0000000000000000000000000000000000000000000000000000000008152600401610f2790612856565b60405180910390fd5b5f60025f9054906101000a900473ffffffffffffffffffffffffffffffffffffffff1673ffffffffffffffffffffffffffffffffffffffff166318160ddd6040518163ffffffff1660e01b8152600401602060405180830381865afa158015610f9b573d5f803e3d5ffd5b505050506040513d601f19601f82011682018060405250810190610fbf919061209c565b90505f8160035484610fd191906121d4565b610fdb9190612242565b90505f8260045485610fed91906121d4565b610ff79190612242565b90505f8211801561100757505f81115b611046576040517f08c379a000000000000000000000000000000000000000000000000000000000815260040161103d906128be565b60405180910390fd5b60025f9054906101000a900473ffffffffffffffffffffffffffffffffffffffff1673ffffffffffffffffffffffffffffffffffffffff16639dc29fac33866040518363ffffffff1660e01b81526004016110a292919061243d565b5f604051808303815f87803b1580156110b9575f80fd5b505af11580156110cb573d5f803e3d5ffd5b505050508160035f8282546110e09190612272565b925050819055508060045f8282546110f89190612272565b925050819055505f8054906101000a900473ffffffffffffffffffffffffffffffffffffffff1673ffffffffffffffffffffffffffffffffffffffff1663a9059cbb33846040518363ffffffff1660e01b815260040161115992919061243d565b6020604051808303815f875af1158015611175573d5f803e3d5ffd5b505050506040513d601f19601f8201168201806040525081019061119991906123aa565b6111d8576040517f08c379a00000000000000000000000000000000000000000000000000000000081526004016111cf906124ae565b60405180910390fd5b60015f9054906101000a900473ffffffffffffffffffffffffffffffffffffffff1673ffffffffffffffffffffffffffffffffffffffff1663a9059cbb33836040518363ffffffff1660e01b815260040161123492919061243d565b6020604051808303815f875af1158015611250573d5f803e3d5ffd5b505050506040513d601f19601f8201168201806040525081019061127491906123aa565b6112b3576040517f08c379a00000000000000000000000000000000000000000000000000000000081526004016112aa9061241f565b60405180910390fd5b50505050565b5f80831180156112c857505f82115b611307576040517f08c379a00000000000000000000000000000000000000000000000000000000081526004016112fe90612926565b60405180910390fd5b5f8054906101000a900473ffffffffffffffffffffffffffffffffffffffff1673ffffffffffffffffffffffffffffffffffffffff166323b872dd3330866040518463ffffffff1660e01b815260040161136393929190612340565b6020604051808303815f875af115801561137f573d5f803e3d5ffd5b505050506040513d601f19601f820116820180604052508101906113a391906123aa565b6113e2576040517f08c379a00000000000000000000000000000000000000000000000000000000081526004016113d99061298e565b60405180910390fd5b60015f9054906101000a900473ffffffffffffffffffffffffffffffffffffffff1673ffffffffffffffffffffffffffffffffffffffff166323b872dd3330856040518463ffffffff1660e01b815260040161144093929190612340565b6020604051808303815f875af115801561145c573d5f803e3d5ffd5b505050506040513d601f19601f8201168201806040525081019061148091906123aa565b6114bf576040517f08c379a00000000000000000000000000000000000000000000000000000000081526004016114b6906129f6565b60405180910390fd5b5f60025f9054906101000a900473ffffffffffffffffffffffffffffffffffffffff1673ffffffffffffffffffffffffffffffffffffffff166318160ddd6040518163ffffffff1660e01b8152600401602060405180830381865afa15801561152a573d5f803e3d5ffd5b505050506040513d601f19601f8201168201806040525081019061154e919061209c565b90505f81036115725761156b838561156691906121d4565b611db0565b91506115b9565b5f600354828661158291906121d4565b61158c9190612242565b90505f600454838661159e91906121d4565b6115a89190612242565b90506115b48282611e27565b935050505b5f82116115fb576040517f08c379a00000000000000000000000000000000000000000000000000000000081526004016115f29061271e565b60405180910390fd5b60025f9054906101000a900473ffffffffffffffffffffffffffffffffffffffff1673ffffffffffffffffffffffffffffffffffffffff166340c10f1933846040518363ffffffff1660e01b815260040161165792919061243d565b5f604051808303815f87803b15801561166e575f80fd5b505af1158015611680573d5f803e3d5ffd5b505050508360035f828254611695919061230d565b925050819055508260045f8282546116ad919061230d565b925050819055507fcc9839e29d34e3a8b9f929d42c01123094009b880aa7b700b7c35102169409708484336040516116e793929190612a14565b60405180910390a15092915050565b60065481565b60075f9054906101000a900473ffffffffffffffffffffffffffffffffffffffff1673ffffffffffffffffffffffffffffffffffffffff163373ffffffffffffffffffffffffffffffffffffffff161461178b576040517f08c379a000000000000000000000000000000000000000000000000000000000815260040161178290612516565b60405180910390fd5b60648111156117cf576040517f08c379a00000000000000000000000000000000000000000000000000000000081526004016117c690612a93565b60405180910390fd5b8060068190555050565b60075f9054906101000a900473ffffffffffffffffffffffffffffffffffffffff1673ffffffffffffffffffffffffffffffffffffffff163373ffffffffffffffffffffffffffffffffffffffff1614611868576040517f08c379a000000000000000000000000000000000000000000000000000000000815260040161185f90612516565b60405180910390fd5b5f81116118aa576040517f08c379a00000000000000000000000000000000000000000000000000000000081526004016118a190612afb565b60405180910390fd5b8060058190555050565b5f8082116118f7576040517f08c379a00000000000000000000000000000000000000000000000000000000081526004016118ee906126b6565b60405180910390fd5b5f6003541161193b576040517f08c379a00000000000000000000000000000000000000000000000000000000081526004016119329061271e565b60405180910390fd5b5f600354670de0b6b3a764000060045461195591906121d4565b61195f9190612242565b905080670de0b6b3a76400008461197691906121d4565b6119809190612242565b915050919050565b60055481565b5f8082116119d1576040517f08c379a00000000000000000000000000000000000000000000000000000000081526004016119c89061264e565b60405180910390fd5b5f6119db836118b4565b90505f836004546119ec919061230d565b90505f6004546003546119ff91906121d4565b90505f8282611a0e9190612242565b90505f81600354611a1f9190612272565b90505f85606483611a3091906121d4565b611a3a9190612242565b6064611a469190612272565b9050809650505050505050919050565b5f60025f9054906101000a900473ffffffffffffffffffffffffffffffffffffffff16905090565b60035481565b5f808311611ac7576040517f08c379a0000000000000000000000000000000000000000000000000000000008152600401611abe90612121565b60405180910390fd5b5f60055411611b0b576040517f08c379a0000000000000000000000000000000000000000000000000000000008152600401611b0290612189565b60405180910390fd5b5f606460065485611b1c91906121d4565b611b269190612242565b90505f8185611b359190612272565b9050611b4081610be5565b8411611b81576040517f08c379a0000000000000000000000000000000000000000000000000000000008152600401611b78906122ef565b60405180910390fd5b5f81600354611b90919061230d565b90505f600454600354611ba391906121d4565b90505f8282611bb29190612242565b90505f81600454611bc39190612272565b90505f8054906101000a900473ffffffffffffffffffffffffffffffffffffffff1673ffffffffffffffffffffffffffffffffffffffff166323b872dd33308c6040518463ffffffff1660e01b8152600401611c2193929190612340565b6020604051808303815f875af1158015611c3d573d5f803e3d5ffd5b505050506040513d601f19601f82011682018060405250810190611c6191906123aa565b611ca0576040517f08c379a0000000000000000000000000000000000000000000000000000000008152600401611c97906124ae565b60405180910390fd5b60015f9054906101000a900473ffffffffffffffffffffffffffffffffffffffff1673ffffffffffffffffffffffffffffffffffffffff1663a9059cbb33836040518363ffffffff1660e01b8152600401611cfc92919061243d565b6020604051808303815f875af1158015611d18573d5f803e3d5ffd5b505050506040513d601f19601f82011682018060405250810190611d3c91906123aa565b611d7b576040517f08c379a0000000000000000000000000000000000000000000000000000000008152600401611d729061241f565b60405180910390fd5b8560085f828254611d8c919061230d565b92505081905550836003819055508160048190555080965050505050505092915050565b5f6003821115611e15578190505f6001600284611dcd9190612242565b611dd7919061230d565b90505b81811015611e0f578091506002818285611df49190612242565b611dfe919061230d565b611e089190612242565b9050611dda565b50611e22565b5f8214611e2157600190505b5b919050565b5f818310611e355781611e37565b825b905092915050565b5f80fd5b5f73ffffffffffffffffffffffffffffffffffffffff82169050919050565b5f611e6c82611e43565b9050919050565b611e7c81611e62565b8114611e86575f80fd5b50565b5f81359050611e9781611e73565b92915050565b5f60208284031215611eb257611eb1611e3f565b5b5f611ebf84828501611e89565b91505092915050565b5f819050919050565b611eda81611ec8565b82525050565b5f602082019050611ef35f830184611ed1565b92915050565b5f604082019050611f0c5f830185611ed1565b611f196020830184611ed1565b9392505050565b5f819050919050565b5f611f43611f3e611f3984611e43565b611f20565b611e43565b9050919050565b5f611f5482611f29565b9050919050565b5f611f6582611f4a565b9050919050565b611f7581611f5b565b82525050565b5f602082019050611f8e5f830184611f6c565b92915050565b611f9d81611ec8565b8114611fa7575f80fd5b50565b5f81359050611fb881611f94565b92915050565b5f8060408385031215611fd457611fd3611e3f565b5b5f611fe185828601611faa565b9250506020611ff285828601611faa565b9150509250929050565b5f61200682611f4a565b9050919050565b61201681611ffc565b82525050565b5f60208201905061202f5f83018461200d565b92915050565b5f6020828403121561204a57612049611e3f565b5b5f61205784828501611faa565b91505092915050565b61206981611e62565b82525050565b5f6020820190506120825f830184612060565b92915050565b5f8151905061209681611f94565b92915050565b5f602082840312156120b1576120b0611e3f565b5b5f6120be84828501612088565b91505092915050565b5f82825260208201905092915050565b7f496e76616c696420696e70757420616d6f756e740000000000000000000000005f82015250565b5f61210b6014836120c7565b9150612116826120d7565b602082019050919050565b5f6020820190508181035f830152612138816120ff565b9050919050565b7f457870656374656420736c697070616765206e6f7420736574000000000000005f82015250565b5f6121736019836120c7565b915061217e8261213f565b602082019050919050565b5f6020820190508181035f8301526121a081612167565b9050919050565b7f4e487b71000000000000000000000000000000000000000000000000000000005f52601160045260245ffd5b5f6121de82611ec8565b91506121e983611ec8565b92508282026121f781611ec8565b9150828204841483151761220e5761220d6121a7565b5b5092915050565b7f4e487b71000000000000000000000000000000000000000000000000000000005f52601260045260245ffd5b5f61224c82611ec8565b915061225783611ec8565b92508261226757612266612215565b5b828204905092915050565b5f61227c82611ec8565b915061228783611ec8565b925082820390508181111561229f5761229e6121a7565b5b92915050565b7f61637475616c20736c69707061676520697320746f6f206869676800000000005f82015250565b5f6122d9601b836120c7565b91506122e4826122a5565b602082019050919050565b5f6020820190508181035f830152612306816122cd565b9050919050565b5f61231782611ec8565b915061232283611ec8565b925082820190508082111561233a576123396121a7565b5b92915050565b5f6060820190506123535f830186612060565b6123606020830185612060565b61236d6040830184611ed1565b949350505050565b5f8115159050919050565b61238981612375565b8114612393575f80fd5b50565b5f815190506123a481612380565b92915050565b5f602082840312156123bf576123be611e3f565b5b5f6123cc84828501612396565b91505092915050565b7f546f6b656e2042207472616e73666572206661696c65640000000000000000005f82015250565b5f6124096017836120c7565b9150612414826123d5565b602082019050919050565b5f6020820190508181035f830152612436816123fd565b9050919050565b5f6040820190506124505f830185612060565b61245d6020830184611ed1565b9392505050565b7f546f6b656e2041207472616e73666572206661696c65640000000000000000005f82015250565b5f6124986017836120c7565b91506124a382612464565b602082019050919050565b5f6020820190508181035f8301526124c58161248c565b9050919050565b7f4e6f7420617574686f72697a65640000000000000000000000000000000000005f82015250565b5f612500600e836120c7565b915061250b826124cc565b602082019050919050565b5f6020820190508181035f83015261252d816124f4565b9050919050565b7f6661696c656400000000000000000000000000000000000000000000000000005f82015250565b5f6125686006836120c7565b915061257382612534565b602082019050919050565b5f6020820190508181035f8301526125958161255c565b9050919050565b7f206661696c6564000000000000000000000000000000000000000000000000005f82015250565b5f6125d06007836120c7565b91506125db8261259c565b602082019050919050565b5f6020820190508181035f8301526125fd816125c4565b9050919050565b7f6769766520636f72726563742076616c756500000000000000000000000000005f82015250565b5f6126386012836120c7565b915061264382612604565b602082019050919050565b5f6020820190508181035f8301526126658161262c565b9050919050565b7f496e76616c696420616d6f756e740000000000000000000000000000000000005f82015250565b5f6126a0600e836120c7565b91506126ab8261266c565b602082019050919050565b5f6020820190508181035f8301526126cd81612694565b9050919050565b7f496e73756666696369656e74206c6971756964697479000000000000000000005f82015250565b5f6127086016836120c7565b9150612713826126d4565b602082019050919050565b5f6020820190508181035f830152612735816126fc565b9050919050565b7f4e6f206c697175696469747900000000000000000000000000000000000000005f82015250565b5f612770600c836120c7565b915061277b8261273c565b602082019050919050565b5f6020820190508181035f83015261279d81612764565b9050919050565b7f496e76616c6964206c697175696469747920616d6f756e7400000000000000005f82015250565b5f6127d86018836120c7565b91506127e3826127a4565b602082019050919050565b5f6020820190508181035f830152612805816127cc565b9050919050565b7f4e6f7420656e6f756768204c5020746f6b656e730000000000000000000000005f82015250565b5f6128406014836120c7565b915061284b8261280c565b602082019050919050565b5f6020820190508181035f83015261286d81612834565b9050919050565b7f496e73756666696369656e7420616d6f756e7420746f207769746864726177005f82015250565b5f6128a8601f836120c7565b91506128b382612874565b602082019050919050565b5f6020820190508181035f8301526128d58161289c565b9050919050565b7f496e76616c696420616d6f756e747300000000000000000000000000000000005f82015250565b5f612910600f836120c7565b915061291b826128dc565b602082019050919050565b5f6020820190508181035f83015261293d81612904565b9050919050565b7f546f6b656e41207472616e73666572206661696c6564000000000000000000005f82015250565b5f6129786016836120c7565b915061298382612944565b602082019050919050565b5f6020820190508181035f8301526129a58161296c565b9050919050565b7f546f6b656e42207472616e73666572206661696c6564000000000000000000005f82015250565b5f6129e06016836120c7565b91506129eb826129ac565b602082019050919050565b5f6020820190508181035f830152612a0d816129d4565b9050919050565b5f606082019050612a275f830186611ed1565b612a346020830185611ed1565b612a416040830184612060565b949350505050565b7f46656520746f6f206869676800000000000000000000000000000000000000005f82015250565b5f612a7d600c836120c7565b9150612a8882612a49565b602082019050919050565b5f6020820190508181035f830152612aaa81612a71565b9050919050565b7f696e76616c696420736c697070616765000000000000000000000000000000005f82015250565b5f612ae56010836120c7565b9150612af082612ab1565b602082019050919050565b5f6020820190508181035f830152612b1281612ad9565b905091905056fea2646970667358221220d647f05e664ef96e393ee0e2be9d4b78009c7f4bf42acc0e214090d4699d39b664736f6c634300081a0033608060405234801561000f575f80fd5b506040518060400160405280601881526020017f4c69717569646974792050726f766964657220546f6b656e00000000000000008152506040518060400160405280600381526020017f4c50540000000000000000000000000000000000000000000000000000000000815250816003908161008b919061031d565b50806004908161009b919061031d565b5050503360055f6101000a81548173ffffffffffffffffffffffffffffffffffffffff021916908373ffffffffffffffffffffffffffffffffffffffff1602179055506103ec565b5f81519050919050565b7f4e487b71000000000000000000000000000000000000000000000000000000005f52604160045260245ffd5b7f4e487b71000000000000000000000000000000000000000000000000000000005f52602260045260245ffd5b5f600282049050600182168061015e57607f821691505b6020821081036101715761017061011a565b5b50919050565b5f819050815f5260205f209050919050565b5f6020601f8301049050919050565b5f82821b905092915050565b5f600883026101d37fffffffffffffffffffffffffffffffffffffffffffffffffffffffffffffffff82610198565b6101dd8683610198565b95508019841693508086168417925050509392505050565b5f819050919050565b5f819050919050565b5f61022161021c610217846101f5565b6101fe565b6101f5565b9050919050565b5f819050919050565b61023a83610207565b61024e61024682610228565b8484546101a4565b825550505050565b5f90565b610262610256565b61026d818484610231565b505050565b5b81811015610290576102855f8261025a565b600181019050610273565b5050565b601f8211156102d5576102a681610177565b6102af84610189565b810160208510156102be578190505b6102d26102ca85610189565b830182610272565b50505b505050565b5f82821c905092915050565b5f6102f55f19846008026102da565b1980831691505092915050565b5f61030d83836102e6565b9150826002028217905092915050565b610326826100e3565b67ffffffffffffffff81111561033f5761033e6100ed565b5b6103498254610147565b610354828285610294565b5f60209050601f831160018114610385575f8415610373578287015190505b61037d8582610302565b8655506103e4565b601f19841661039386610177565b5f5b828110156103ba57848901518255600182019150602085019450602081019050610395565b868310156103d757848901516103d3601f8916826102e6565b8355505b6001600288020188555050505b505050505050565b611186806103f95f395ff3fe608060405234801561000f575f80fd5b50600436106100b2575f3560e01c806340c10f191161006f57806340c10f191461018e57806370a08231146101aa57806395d89b41146101da5780639dc29fac146101f8578063a9059cbb14610214578063dd62ed3e14610244576100b2565b806306fdde03146100b6578063095ea7b3146100d457806316f0115b1461010457806318160ddd1461012257806323b872dd14610140578063313ce56714610170575b5f80fd5b6100be610274565b6040516100cb9190610d2f565b60405180910390f35b6100ee60048036038101906100e99190610de0565b610304565b6040516100fb9190610e38565b60405180910390f35b61010c610326565b6040516101199190610e60565b60405180910390f35b61012a61034b565b6040516101379190610e88565b60405180910390f35b61015a60048036038101906101559190610ea1565b610354565b6040516101679190610e38565b60405180910390f35b610178610382565b6040516101859190610f0c565b60405180910390f35b6101a860048036038101906101a39190610de0565b61038a565b005b6101c460048036038101906101bf9190610f25565b610427565b6040516101d19190610e88565b60405180910390f35b6101e261046c565b6040516101ef9190610d2f565b60405180910390f35b610212600480360381019061020d9190610de0565b6104fc565b005b61022e60048036038101906102299190610de0565b610599565b60405161023b9190610e38565b60405180910390f35b61025e60048036038101906102599190610f50565b6105bb565b60405161026b9190610e88565b60405180910390f35b60606003805461028390610fbb565b80601f01602080910402602001604051908101604052809291908181526020018280546102af90610fbb565b80156102fa5780601f106102d1576101008083540402835291602001916102fa565b820191905f5260205f20905b8154815290600101906020018083116102dd57829003601f168201915b5050505050905090565b5f8061030e61063d565b905061031b818585610644565b600191505092915050565b60055f9054906101000a900473ffffffffffffffffffffffffffffffffffffffff1681565b5f600254905090565b5f8061035e61063d565b905061036b858285610656565b6103768585856106e9565b60019150509392505050565b5f6012905090565b60055f9054906101000a900473ffffffffffffffffffffffffffffffffffffffff1673ffffffffffffffffffffffffffffffffffffffff163373ffffffffffffffffffffffffffffffffffffffff1614610419576040517f08c379a000000000000000000000000000000000000000000000000000000000815260040161041090611035565b60405180910390fd5b61042382826107d9565b5050565b5f805f8373ffffffffffffffffffffffffffffffffffffffff1673ffffffffffffffffffffffffffffffffffffffff1681526020019081526020015f20549050919050565b60606004805461047b90610fbb565b80601f01602080910402602001604051908101604052809291908181526020018280546104a790610fbb565b80156104f25780601f106104c9576101008083540402835291602001916104f2565b820191905f5260205f20905b8154815290600101906020018083116104d557829003601f168201915b5050505050905090565b60055f9054906101000a900473ffffffffffffffffffffffffffffffffffffffff1673ffffffffffffffffffffffffffffffffffffffff163373ffffffffffffffffffffffffffffffffffffffff161461058b576040517f08c379a00000000000000000000000000000000000000000000000000000000081526004016105829061109d565b60405180910390fd5b6105958282610858565b5050565b5f806105a361063d565b90506105b08185856106e9565b600191505092915050565b5f60015f8473ffffffffffffffffffffffffffffffffffffffff1673ffffffffffffffffffffffffffffffffffffffff1681526020019081526020015f205f8373ffffffffffffffffffffffffffffffffffffffff1673ffffffffffffffffffffffffffffffffffffffff1681526020019081526020015f2054905092915050565b5f33905090565b61065183838360016108d7565b505050565b5f61066184846105bb565b90507fffffffffffffffffffffffffffffffffffffffffffffffffffffffffffffffff8110156106e357818110156106d4578281836040517ffb8f41b20000000000000000000000000000000000000000000000000000000081526004016106cb939291906110bb565b60405180910390fd5b6106e284848484035f6108d7565b5b50505050565b5f73ffffffffffffffffffffffffffffffffffffffff168373ffffffffffffffffffffffffffffffffffffffff1603610759575f6040517f96c6fd1e0000000000000000000000000000000000000000000000000000000081526004016107509190610e60565b60405180910390fd5b5f73ffffffffffffffffffffffffffffffffffffffff168273ffffffffffffffffffffffffffffffffffffffff16036107c9575f6040517fec442f050000000000000000000000000000000000000000000000000000000081526004016107c09190610e60565b60405180910390fd5b6107d4838383610aa6565b505050565b5f73ffffffffffffffffffffffffffffffffffffffff168273ffffffffffffffffffffffffffffffffffffffff1603610849575f6040517fec442f050000000000000000000000000000000000000000000000000000000081526004016108409190610e60565b60405180910390fd5b6108545f8383610aa6565b5050565b5f73ffffffffffffffffffffffffffffffffffffffff168273ffffffffffffffffffffffffffffffffffffffff16036108c8575f6040517f96c6fd1e0000000000000000000000000000000000000000000000000000000081526004016108bf9190610e60565b60405180910390fd5b6108d3825f83610aa6565b5050565b5f73ffffffffffffffffffffffffffffffffffffffff168473ffffffffffffffffffffffffffffffffffffffff1603610947575f6040517fe602df0500000000000000000000000000000000000000000000000000000000815260040161093e9190610e60565b60405180910390fd5b5f73ffffffffffffffffffffffffffffffffffffffff168373ffffffffffffffffffffffffffffffffffffffff16036109b7575f6040517f94280d620000000000000000000000000000000000000000000000000000000081526004016109ae9190610e60565b60405180910390fd5b8160015f8673ffffffffffffffffffffffffffffffffffffffff1673ffffffffffffffffffffffffffffffffffffffff1681526020019081526020015f205f8573ffffffffffffffffffffffffffffffffffffffff1673ffffffffffffffffffffffffffffffffffffffff1681526020019081526020015f20819055508015610aa0578273ffffffffffffffffffffffffffffffffffffffff168473ffffffffffffffffffffffffffffffffffffffff167f8c5be1e5ebec7d5bd14f71427d1e84f3dd0314c0f7b2291e5b200ac8c7c3b92584604051610a979190610e88565b60405180910390a35b50505050565b5f73ffffffffffffffffffffffffffffffffffffffff168373ffffffffffffffffffffffffffffffffffffffff1603610af6578060025f828254610aea919061111d565b92505081905550610bc4565b5f805f8573ffffffffffffffffffffffffffffffffffffffff1673ffffffffffffffffffffffffffffffffffffffff1681526020019081526020015f2054905081811015610b7f578381836040517fe450d38c000000000000000000000000000000000000000000000000000000008152600401610b76939291906110bb565b60405180910390fd5b8181035f808673ffffffffffffffffffffffffffffffffffffffff1673ffffffffffffffffffffffffffffffffffffffff1681526020019081526020015f2081905550505b5f73ffffffffffffffffffffffffffffffffffffffff168273ffffffffffffffffffffffffffffffffffffffff1603610c0b578060025f8282540392505081905550610c55565b805f808473ffffffffffffffffffffffffffffffffffffffff1673ffffffffffffffffffffffffffffffffffffffff1681526020019081526020015f205f82825401925050819055505b8173ffffffffffffffffffffffffffffffffffffffff168373ffffffffffffffffffffffffffffffffffffffff167fddf252ad1be2c89b69c2b068fc378daa952ba7f163c4a11628f55a4df523b3ef83604051610cb29190610e88565b60405180910390a3505050565b5f81519050919050565b5f82825260208201905092915050565b8281835e5f83830152505050565b5f601f19601f8301169050919050565b5f610d0182610cbf565b610d0b8185610cc9565b9350610d1b818560208601610cd9565b610d2481610ce7565b840191505092915050565b5f6020820190508181035f830152610d478184610cf7565b905092915050565b5f80fd5b5f73ffffffffffffffffffffffffffffffffffffffff82169050919050565b5f610d7c82610d53565b9050919050565b610d8c81610d72565b8114610d96575f80fd5b50565b5f81359050610da781610d83565b92915050565b5f819050919050565b610dbf81610dad565b8114610dc9575f80fd5b50565b5f81359050610dda81610db6565b92915050565b5f8060408385031215610df657610df5610d4f565b5b5f610e0385828601610d99565b9250506020610e1485828601610dcc565b9150509250929050565b5f8115159050919050565b610e3281610e1e565b82525050565b5f602082019050610e4b5f830184610e29565b92915050565b610e5a81610d72565b82525050565b5f602082019050610e735f830184610e51565b92915050565b610e8281610dad565b82525050565b5f602082019050610e9b5f830184610e79565b92915050565b5f805f60608486031215610eb857610eb7610d4f565b5b5f610ec586828701610d99565b9350506020610ed686828701610d99565b9250506040610ee786828701610dcc565b9150509250925092565b5f60ff82169050919050565b610f0681610ef1565b82525050565b5f602082019050610f1f5f830184610efd565b92915050565b5f60208284031215610f3a57610f39610d4f565b5b5f610f4784828501610d99565b91505092915050565b5f8060408385031215610f6657610f65610d4f565b5b5f610f7385828601610d99565b9250506020610f8485828601610d99565b9150509250929050565b7f4e487b71000000000000000000000000000000000000000000000000000000005f52602260045260245ffd5b5f6002820490506001821680610fd257607f821691505b602082108103610fe557610fe4610f8e565b5b50919050565b7f4f6e6c7920706f6f6c2063616e206d696e7400000000000000000000000000005f82015250565b5f61101f601283610cc9565b915061102a82610feb565b602082019050919050565b5f6020820190508181035f83015261104c81611013565b9050919050565b7f4f6e6c7920706f6f6c2063616e206275726e00000000000000000000000000005f82015250565b5f611087601283610cc9565b915061109282611053565b602082019050919050565b5f6020820190508181035f8301526110b48161107b565b9050919050565b5f6060820190506110ce5f830186610e51565b6110db6020830185610e79565b6110e86040830184610e79565b949350505050565b7f4e487b71000000000000000000000000000000000000000000000000000000005f52601160045260245ffd5b5f61112782610dad565b915061113283610dad565b925082820190508082111561114a576111496110f0565b5b9291505056fea2646970667358221220a7aef6d938236d30b607c647c9912e7f80c61177ca2c86b4dbe32bc9c21f20b464736f6c634300081a0033",
			"opcodes": "PUSH1 0x80 PUSH1 0x40 MSTORE CALLVALUE DUP1 ISZERO PUSH2 0xF JUMPI PUSH0 DUP1 REVERT JUMPDEST POP PUSH1 0x40 MLOAD PUSH2 0x42E0 CODESIZE SUB DUP1 PUSH2 0x42E0 DUP4 CODECOPY DUP2 DUP2 ADD PUSH1 0x40 MSTORE DUP2 ADD SWAP1 PUSH2 0x31 SWAP2 SWAP1 PUSH2 0x1C7 JUMP JUMPDEST DUP2 PUSH0 DUP1 PUSH2 0x100 EXP DUP2 SLOAD DUP2 PUSH20 0xFFFFFFFFFFFFFFFFFFFFFFFFFFFFFFFFFFFFFFFF MUL NOT AND SWAP1 DUP4 PUSH20 0xFFFFFFFFFFFFFFFFFFFFFFFFFFFFFFFFFFFFFFFF AND MUL OR SWAP1 SSTORE POP DUP1 PUSH1 0x1 PUSH0 PUSH2 0x100 EXP DUP2 SLOAD DUP2 PUSH20 0xFFFFFFFFFFFFFFFFFFFFFFFFFFFFFFFFFFFFFFFF MUL NOT AND SWAP1 DUP4 PUSH20 0xFFFFFFFFFFFFFFFFFFFFFFFFFFFFFFFFFFFFFFFF AND MUL OR SWAP1 SSTORE POP PUSH1 0x40 MLOAD PUSH2 0xBC SWAP1 PUSH2 0x15C JUMP JUMPDEST PUSH1 0x40 MLOAD DUP1 SWAP2 SUB SWAP1 PUSH0 CREATE DUP1 ISZERO DUP1 ISZERO PUSH2 0xD5 JUMPI RETURNDATASIZE PUSH0 DUP1 RETURNDATACOPY RETURNDATASIZE PUSH0 REVERT JUMPDEST POP PUSH1 0x2 PUSH0 PUSH2 0x100 EXP DUP2 SLOAD DUP2 PUSH20 0xFFFFFFFFFFFFFFFFFFFFFFFFFFFFFFFFFFFFFFFF MUL NOT AND SWAP1 DUP4 PUSH20 0xFFFFFFFFFFFFFFFFFFFFFFFFFFFFFFFFFFFFFFFF AND MUL OR SWAP1 SSTORE POP CALLER PUSH1 0x7 PUSH0 PUSH2 0x100 EXP DUP2 SLOAD DUP2 PUSH20 0xFFFFFFFFFFFFFFFFFFFFFFFFFFFFFFFFFFFFFFFF MUL NOT AND SWAP1 DUP4 PUSH20 0xFFFFFFFFFFFFFFFFFFFFFFFFFFFFFFFFFFFFFFFF AND MUL OR SWAP1 SSTORE POP POP POP PUSH2 0x205 JUMP JUMPDEST PUSH2 0x157F DUP1 PUSH2 0x2D61 DUP4 CODECOPY ADD SWAP1 JUMP JUMPDEST PUSH0 DUP1 REVERT JUMPDEST PUSH0 PUSH20 0xFFFFFFFFFFFFFFFFFFFFFFFFFFFFFFFFFFFFFFFF DUP3 AND SWAP1 POP SWAP2 SWAP1 POP JUMP JUMPDEST PUSH0 PUSH2 0x196 DUP3 PUSH2 0x16D JUMP JUMPDEST SWAP1 POP SWAP2 SWAP1 POP JUMP JUMPDEST PUSH2 0x1A6 DUP2 PUSH2 0x18C JUMP JUMPDEST DUP2 EQ PUSH2 0x1B0 JUMPI PUSH0 DUP1 REVERT JUMPDEST POP JUMP JUMPDEST PUSH0 DUP2 MLOAD SWAP1 POP PUSH2 0x1C1 DUP2 PUSH2 0x19D JUMP JUMPDEST SWAP3 SWAP2 POP POP JUMP JUMPDEST PUSH0 DUP1 PUSH1 0x40 DUP4 DUP6 SUB SLT ISZERO PUSH2 0x1DD JUMPI PUSH2 0x1DC PUSH2 0x169 JUMP JUMPDEST JUMPDEST PUSH0 PUSH2 0x1EA DUP6 DUP3 DUP7 ADD PUSH2 0x1B3 JUMP JUMPDEST SWAP3 POP POP PUSH1 0x20 PUSH2 0x1FB DUP6 DUP3 DUP7 ADD PUSH2 0x1B3 JUMP JUMPDEST SWAP2 POP POP SWAP3 POP SWAP3 SWAP1 POP JUMP JUMPDEST PUSH2 0x2B4F DUP1 PUSH2 0x212 PUSH0 CODECOPY PUSH0 RETURN INVALID PUSH1 0x80 PUSH1 0x40 MSTORE CALLVALUE DUP1 ISZERO PUSH2 0xF JUMPI PUSH0 DUP1 REVERT JUMPDEST POP PUSH1 0x4 CALLDATASIZE LT PUSH2 0x171 JUMPI PUSH0 CALLDATALOAD PUSH1 0xE0 SHR DUP1 PUSH4 0x8DA5CB5B GT PUSH2 0xDC JUMPI DUP1 PUSH4 0xB9C8C4BA GT PUSH2 0x95 JUMPI DUP1 PUSH4 0xC4604B33 GT PUSH2 0x6F JUMPI DUP1 PUSH4 0xC4604B33 EQ PUSH2 0x43E JUMPI DUP1 PUSH4 0xC9E57AA6 EQ PUSH2 0x46E JUMPI DUP1 PUSH4 0xDC5FA6C5 EQ PUSH2 0x48C JUMPI DUP1 PUSH4 0xF0B456E9 EQ PUSH2 0x4AA JUMPI PUSH2 0x171 JUMP JUMPDEST DUP1 PUSH4 0xB9C8C4BA EQ PUSH2 0x3D4 JUMPI DUP1 PUSH4 0xBAE38D58 EQ PUSH2 0x3F0 JUMPI DUP1 PUSH4 0xBE8E89FC EQ PUSH2 0x420 JUMPI PUSH2 0x171 JUMP JUMPDEST DUP1 PUSH4 0x8DA5CB5B EQ PUSH2 0x312 JUMPI DUP1 PUSH4 0x98D5FDCA EQ PUSH2 0x330 JUMPI DUP1 PUSH4 0x9C8F9F23 EQ PUSH2 0x34E JUMPI DUP1 PUSH4 0x9CD441DA EQ PUSH2 0x36A JUMPI DUP1 PUSH4 0xA001ECDD EQ PUSH2 0x39A JUMPI DUP1 PUSH4 0xAE06C1B7 EQ PUSH2 0x3B8 JUMPI PUSH2 0x171 JUMP JUMPDEST DUP1 PUSH4 0x4242EC52 GT PUSH2 0x12E JUMPI DUP1 PUSH4 0x4242EC52 EQ PUSH2 0x23C JUMPI DUP1 PUSH4 0x476343EE EQ PUSH2 0x26C JUMPI DUP1 PUSH4 0x5F64B55B EQ PUSH2 0x276 JUMPI DUP1 PUSH4 0x5FCBD285 EQ PUSH2 0x294 JUMPI DUP1 PUSH4 0x670053C8 EQ PUSH2 0x2B2 JUMPI DUP1 PUSH4 0x7A88266A EQ PUSH2 0x2E2 JUMPI PUSH2 0x171 JUMP JUMPDEST DUP1 PUSH4 0x6EBCC6D EQ PUSH2 0x175 JUMPI DUP1 PUSH4 0x902F1AC EQ PUSH2 0x1A5 JUMPI DUP1 PUSH4 0xDB8B192 EQ PUSH2 0x1C4 JUMPI DUP1 PUSH4 0xFC63D10 EQ PUSH2 0x1E2 JUMPI DUP1 PUSH4 0x19E36F3B EQ PUSH2 0x200 JUMPI DUP1 PUSH4 0x25781CF4 EQ PUSH2 0x21E JUMPI JUMPDEST PUSH0 DUP1 REVERT JUMPDEST PUSH2 0x18F PUSH1 0x4 DUP1 CALLDATASIZE SUB DUP2 ADD SWAP1 PUSH2 0x18A SWAP2 SWAP1 PUSH2 0x1E9D JUMP JUMPDEST PUSH2 0x4DA JUMP JUMPDEST PUSH1 0x40 MLOAD PUSH2 0x19C SWAP2 SWAP1 PUSH2 0x1EE0 JUMP JUMPDEST PUSH1 0x40 MLOAD DUP1 SWAP2 SUB SWAP1 RETURN JUMPDEST PUSH2 0x1AD PUSH2 0x57B JUMP JUMPDEST PUSH1 0x40 MLOAD PUSH2 0x1BB SWAP3 SWAP2 SWAP1 PUSH2 0x1EF9 JUMP JUMPDEST PUSH1 0x40 MLOAD DUP1 SWAP2 SUB SWAP1 RETURN JUMPDEST PUSH2 0x1CC PUSH2 0x58B JUMP JUMPDEST PUSH1 0x40 MLOAD PUSH2 0x1D9 SWAP2 SWAP1 PUSH2 0x1EE0 JUMP JUMPDEST PUSH1 0x40 MLOAD DUP1 SWAP2 SUB SWAP1 RETURN JUMPDEST PUSH2 0x1EA PUSH2 0x591 JUMP JUMPDEST PUSH1 0x40 MLOAD PUSH2 0x1F7 SWAP2 SWAP1 PUSH2 0x1F7B JUMP JUMPDEST PUSH1 0x40 MLOAD DUP1 SWAP2 SUB SWAP1 RETURN JUMPDEST PUSH2 0x208 PUSH2 0x5B4 JUMP JUMPDEST PUSH1 0x40 MLOAD PUSH2 0x215 SWAP2 SWAP1 PUSH2 0x1EE0 JUMP JUMPDEST PUSH1 0x40 MLOAD DUP1 SWAP2 SUB SWAP1 RETURN JUMPDEST PUSH2 0x226 PUSH2 0x5BA JUMP JUMPDEST PUSH1 0x40 MLOAD PUSH2 0x233 SWAP2 SWAP1 PUSH2 0x1EE0 JUMP JUMPDEST PUSH1 0x40 MLOAD DUP1 SWAP2 SUB SWAP1 RETURN JUMPDEST PUSH2 0x256 PUSH1 0x4 DUP1 CALLDATASIZE SUB DUP2 ADD SWAP1 PUSH2 0x251 SWAP2 SWAP1 PUSH2 0x1FBE JUMP JUMPDEST PUSH2 0x5C0 JUMP JUMPDEST PUSH1 0x40 MLOAD PUSH2 0x263 SWAP2 SWAP1 PUSH2 0x1EE0 JUMP JUMPDEST PUSH1 0x40 MLOAD DUP1 SWAP2 SUB SWAP1 RETURN JUMPDEST PUSH2 0x274 PUSH2 0x8EC JUMP JUMPDEST STOP JUMPDEST PUSH2 0x27E PUSH2 0xB9B JUMP JUMPDEST PUSH1 0x40 MLOAD PUSH2 0x28B SWAP2 SWAP1 PUSH2 0x1F7B JUMP JUMPDEST PUSH1 0x40 MLOAD DUP1 SWAP2 SUB SWAP1 RETURN JUMPDEST PUSH2 0x29C PUSH2 0xBC0 JUMP JUMPDEST PUSH1 0x40 MLOAD PUSH2 0x2A9 SWAP2 SWAP1 PUSH2 0x201C JUMP JUMPDEST PUSH1 0x40 MLOAD DUP1 SWAP2 SUB SWAP1 RETURN JUMPDEST PUSH2 0x2CC PUSH1 0x4 DUP1 CALLDATASIZE SUB DUP2 ADD SWAP1 PUSH2 0x2C7 SWAP2 SWAP1 PUSH2 0x2035 JUMP JUMPDEST PUSH2 0xBE5 JUMP JUMPDEST PUSH1 0x40 MLOAD PUSH2 0x2D9 SWAP2 SWAP1 PUSH2 0x1EE0 JUMP JUMPDEST PUSH1 0x40 MLOAD DUP1 SWAP2 SUB SWAP1 RETURN JUMPDEST PUSH2 0x2FC PUSH1 0x4 DUP1 CALLDATASIZE SUB DUP2 ADD SWAP1 PUSH2 0x2F7 SWAP2 SWAP1 PUSH2 0x2035 JUMP JUMPDEST PUSH2 0xCAD JUMP JUMPDEST PUSH1 0x40 MLOAD PUSH2 0x309 SWAP2 SWAP1 PUSH2 0x1EE0 JUMP JUMPDEST PUSH1 0x40 MLOAD DUP1 SWAP2 SUB SWAP1 RETURN JUMPDEST PUSH2 0x31A PUSH2 0xD81 JUMP JUMPDEST PUSH1 0x40 MLOAD PUSH2 0x327 SWAP2 SWAP1 PUSH2 0x206F JUMP JUMPDEST PUSH1 0x40 MLOAD DUP1 SWAP2 SUB SWAP1 RETURN JUMPDEST PUSH2 0x338 PUSH2 0xDA6 JUMP JUMPDEST PUSH1 0x40 MLOAD PUSH2 0x345 SWAP2 SWAP1 PUSH2 0x1EE0 JUMP JUMPDEST PUSH1 0x40 MLOAD DUP1 SWAP2 SUB SWAP1 RETURN JUMPDEST PUSH2 0x368 PUSH1 0x4 DUP1 CALLDATASIZE SUB DUP2 ADD SWAP1 PUSH2 0x363 SWAP2 SWAP1 PUSH2 0x2035 JUMP JUMPDEST PUSH2 0xE13 JUMP JUMPDEST STOP JUMPDEST PUSH2 0x384 PUSH1 0x4 DUP1 CALLDATASIZE SUB DUP2 ADD SWAP1 PUSH2 0x37F SWAP2 SWAP1 PUSH2 0x1FBE JUMP JUMPDEST PUSH2 0x12B9 JUMP JUMPDEST PUSH1 0x40 MLOAD PUSH2 0x391 SWAP2 SWAP1 PUSH2 0x1EE0 JUMP JUMPDEST PUSH1 0x40 MLOAD DUP1 SWAP2 SUB SWAP1 RETURN JUMPDEST PUSH2 0x3A2 PUSH2 0x16F6 JUMP JUMPDEST PUSH1 0x40 MLOAD PUSH2 0x3AF SWAP2 SWAP1 PUSH2 0x1EE0 JUMP JUMPDEST PUSH1 0x40 MLOAD DUP1 SWAP2 SUB SWAP1 RETURN JUMPDEST PUSH2 0x3D2 PUSH1 0x4 DUP1 CALLDATASIZE SUB DUP2 ADD SWAP1 PUSH2 0x3CD SWAP2 SWAP1 PUSH2 0x2035 JUMP JUMPDEST PUSH2 0x16FC JUMP JUMPDEST STOP JUMPDEST PUSH2 0x3EE PUSH1 0x4 DUP1 CALLDATASIZE SUB DUP2 ADD SWAP1 PUSH2 0x3E9 SWAP2 SWAP1 PUSH2 0x2035 JUMP JUMPDEST PUSH2 0x17D9 JUMP JUMPDEST STOP JUMPDEST PUSH2 0x40A PUSH1 0x4 DUP1 CALLDATASIZE SUB DUP2 ADD SWAP1 PUSH2 0x405 SWAP2 SWAP1 PUSH2 0x2035 JUMP JUMPDEST PUSH2 0x18B4 JUMP JUMPDEST PUSH1 0x40 MLOAD PUSH2 0x417 SWAP2 SWAP1 PUSH2 0x1EE0 JUMP JUMPDEST PUSH1 0x40 MLOAD DUP1 SWAP2 SUB SWAP1 RETURN JUMPDEST PUSH2 0x428 PUSH2 0x1988 JUMP JUMPDEST PUSH1 0x40 MLOAD PUSH2 0x435 SWAP2 SWAP1 PUSH2 0x1EE0 JUMP JUMPDEST PUSH1 0x40 MLOAD DUP1 SWAP2 SUB SWAP1 RETURN JUMPDEST PUSH2 0x458 PUSH1 0x4 DUP1 CALLDATASIZE SUB DUP2 ADD SWAP1 PUSH2 0x453 SWAP2 SWAP1 PUSH2 0x2035 JUMP JUMPDEST PUSH2 0x198E JUMP JUMPDEST PUSH1 0x40 MLOAD PUSH2 0x465 SWAP2 SWAP1 PUSH2 0x1EE0 JUMP JUMPDEST PUSH1 0x40 MLOAD DUP1 SWAP2 SUB SWAP1 RETURN JUMPDEST PUSH2 0x476 PUSH2 0x1A56 JUMP JUMPDEST PUSH1 0x40 MLOAD PUSH2 0x483 SWAP2 SWAP1 PUSH2 0x206F JUMP JUMPDEST PUSH1 0x40 MLOAD DUP1 SWAP2 SUB SWAP1 RETURN JUMPDEST PUSH2 0x494 PUSH2 0x1A7E JUMP JUMPDEST PUSH1 0x40 MLOAD PUSH2 0x4A1 SWAP2 SWAP1 PUSH2 0x1EE0 JUMP JUMPDEST PUSH1 0x40 MLOAD DUP1 SWAP2 SUB SWAP1 RETURN JUMPDEST PUSH2 0x4C4 PUSH1 0x4 DUP1 CALLDATASIZE SUB DUP2 ADD SWAP1 PUSH2 0x4BF SWAP2 SWAP1 PUSH2 0x1FBE JUMP JUMPDEST PUSH2 0x1A84 JUMP JUMPDEST PUSH1 0x40 MLOAD PUSH2 0x4D1 SWAP2 SWAP1 PUSH2 0x1EE0 JUMP JUMPDEST PUSH1 0x40 MLOAD DUP1 SWAP2 SUB SWAP1 RETURN JUMPDEST PUSH0 PUSH1 0x2 PUSH0 SWAP1 SLOAD SWAP1 PUSH2 0x100 EXP SWAP1 DIV PUSH20 0xFFFFFFFFFFFFFFFFFFFFFFFFFFFFFFFFFFFFFFFF AND PUSH20 0xFFFFFFFFFFFFFFFFFFFFFFFFFFFFFFFFFFFFFFFF AND PUSH4 0x70A08231 DUP4 PUSH1 0x40 MLOAD DUP3 PUSH4 0xFFFFFFFF AND PUSH1 0xE0 SHL DUP2 MSTORE PUSH1 0x4 ADD PUSH2 0x535 SWAP2 SWAP1 PUSH2 0x206F JUMP JUMPDEST PUSH1 0x20 PUSH1 0x40 MLOAD DUP1 DUP4 SUB DUP2 DUP7 GAS STATICCALL ISZERO DUP1 ISZERO PUSH2 0x550 JUMPI RETURNDATASIZE PUSH0 DUP1 RETURNDATACOPY RETURNDATASIZE PUSH0 REVERT JUMPDEST POP POP POP POP PUSH1 0x40 MLOAD RETURNDATASIZE PUSH1 0x1F NOT PUSH1 0x1F DUP3 ADD AND DUP3 ADD DUP1 PUSH1 0x40 MSTORE POP DUP2 ADD SWAP1 PUSH2 0x574 SWAP2 SWAP1 PUSH2 0x209C JUMP JUMPDEST SWAP1 POP SWAP2 SWAP1 POP JUMP JUMPDEST PUSH0 DUP1 PUSH1 0x3 SLOAD PUSH1 0x4 SLOAD SWAP2 POP SWAP2 POP SWAP1 SWAP2 JUMP JUMPDEST PUSH1 0x9 SLOAD DUP2 JUMP JUMPDEST PUSH0 DUP1 SLOAD SWAP1 PUSH2 0x100 EXP SWAP1 DIV PUSH20 0xFFFFFFFFFFFFFFFFFFFFFFFFFFFFFFFFFFFFFFFF AND DUP2 JUMP JUMPDEST PUSH1 0x4 SLOAD DUP2 JUMP JUMPDEST PUSH1 0x8 SLOAD DUP2 JUMP JUMPDEST PUSH0 DUP1 DUP4 GT PUSH2 0x603 JUMPI PUSH1 0x40 MLOAD PUSH32 0x8C379A000000000000000000000000000000000000000000000000000000000 DUP2 MSTORE PUSH1 0x4 ADD PUSH2 0x5FA SWAP1 PUSH2 0x2121 JUMP JUMPDEST PUSH1 0x40 MLOAD DUP1 SWAP2 SUB SWAP1 REVERT JUMPDEST PUSH0 PUSH1 0x5 SLOAD GT PUSH2 0x647 JUMPI PUSH1 0x40 MLOAD PUSH32 0x8C379A000000000000000000000000000000000000000000000000000000000 DUP2 MSTORE PUSH1 0x4 ADD PUSH2 0x63E SWAP1 PUSH2 0x2189 JUMP JUMPDEST PUSH1 0x40 MLOAD DUP1 SWAP2 SUB SWAP1 REVERT JUMPDEST PUSH0 PUSH1 0x64 PUSH1 0x6 SLOAD DUP6 PUSH2 0x658 SWAP2 SWAP1 PUSH2 0x21D4 JUMP JUMPDEST PUSH2 0x662 SWAP2 SWAP1 PUSH2 0x2242 JUMP JUMPDEST SWAP1 POP PUSH0 DUP2 DUP6 PUSH2 0x671 SWAP2 SWAP1 PUSH2 0x2272 JUMP JUMPDEST SWAP1 POP PUSH2 0x67C DUP2 PUSH2 0x198E JUMP JUMPDEST DUP5 GT PUSH2 0x6BD JUMPI PUSH1 0x40 MLOAD PUSH32 0x8C379A000000000000000000000000000000000000000000000000000000000 DUP2 MSTORE PUSH1 0x4 ADD PUSH2 0x6B4 SWAP1 PUSH2 0x22EF JUMP JUMPDEST PUSH1 0x40 MLOAD DUP1 SWAP2 SUB SWAP1 REVERT JUMPDEST PUSH0 DUP2 PUSH1 0x4 SLOAD PUSH2 0x6CC SWAP2 SWAP1 PUSH2 0x230D JUMP JUMPDEST SWAP1 POP PUSH0 PUSH1 0x4 SLOAD PUSH1 0x3 SLOAD PUSH2 0x6DF SWAP2 SWAP1 PUSH2 0x21D4 JUMP JUMPDEST SWAP1 POP PUSH0 DUP3 DUP3 PUSH2 0x6EE SWAP2 SWAP1 PUSH2 0x2242 JUMP JUMPDEST SWAP1 POP PUSH0 DUP2 PUSH1 0x3 SLOAD PUSH2 0x6FF SWAP2 SWAP1 PUSH2 0x2272 JUMP JUMPDEST SWAP1 POP PUSH1 0x1 PUSH0 SWAP1 SLOAD SWAP1 PUSH2 0x100 EXP SWAP1 DIV PUSH20 0xFFFFFFFFFFFFFFFFFFFFFFFFFFFFFFFFFFFFFFFF AND PUSH20 0xFFFFFFFFFFFFFFFFFFFFFFFFFFFFFFFFFFFFFFFF AND PUSH4 0x23B872DD CALLER ADDRESS DUP13 PUSH1 0x40 MLOAD DUP5 PUSH4 0xFFFFFFFF AND PUSH1 0xE0 SHL DUP2 MSTORE PUSH1 0x4 ADD PUSH2 0x75F SWAP4 SWAP3 SWAP2 SWAP1 PUSH2 0x2340 JUMP JUMPDEST PUSH1 0x20 PUSH1 0x40 MLOAD DUP1 DUP4 SUB DUP2 PUSH0 DUP8 GAS CALL ISZERO DUP1 ISZERO PUSH2 0x77B JUMPI RETURNDATASIZE PUSH0 DUP1 RETURNDATACOPY RETURNDATASIZE PUSH0 REVERT JUMPDEST POP POP POP POP PUSH1 0x40 MLOAD RETURNDATASIZE PUSH1 0x1F NOT PUSH1 0x1F DUP3 ADD AND DUP3 ADD DUP1 PUSH1 0x40 MSTORE POP DUP2 ADD SWAP1 PUSH2 0x79F SWAP2 SWAP1 PUSH2 0x23AA JUMP JUMPDEST PUSH2 0x7DE JUMPI PUSH1 0x40 MLOAD PUSH32 0x8C379A000000000000000000000000000000000000000000000000000000000 DUP2 MSTORE PUSH1 0x4 ADD PUSH2 0x7D5 SWAP1 PUSH2 0x241F JUMP JUMPDEST PUSH1 0x40 MLOAD DUP1 SWAP2 SUB SWAP1 REVERT JUMPDEST PUSH0 DUP1 SLOAD SWAP1 PUSH2 0x100 EXP SWAP1 DIV PUSH20 0xFFFFFFFFFFFFFFFFFFFFFFFFFFFFFFFFFFFFFFFF AND PUSH20 0xFFFFFFFFFFFFFFFFFFFFFFFFFFFFFFFFFFFFFFFF AND PUSH4 0xA9059CBB CALLER DUP4 PUSH1 0x40 MLOAD DUP4 PUSH4 0xFFFFFFFF AND PUSH1 0xE0 SHL DUP2 MSTORE PUSH1 0x4 ADD PUSH2 0x838 SWAP3 SWAP2 SWAP1 PUSH2 0x243D JUMP JUMPDEST PUSH1 0x20 PUSH1 0x40 MLOAD DUP1 DUP4 SUB DUP2 PUSH0 DUP8 GAS CALL ISZERO DUP1 ISZERO PUSH2 0x854 JUMPI RETURNDATASIZE PUSH0 DUP1 RETURNDATACOPY RETURNDATASIZE PUSH0 REVERT JUMPDEST POP POP POP POP PUSH1 0x40 MLOAD RETURNDATASIZE PUSH1 0x1F NOT PUSH1 0x1F DUP3 ADD AND DUP3 ADD DUP1 PUSH1 0x40 MSTORE POP DUP2 ADD SWAP1 PUSH2 0x878 SWAP2 SWAP1 PUSH2 0x23AA JUMP JUMPDEST PUSH2 0x8B7 JUMPI PUSH1 0x40 MLOAD PUSH32 0x8C379A000000000000000000000000000000000000000000000000000000000 DUP2 MSTORE PUSH1 0x4 ADD PUSH2 0x8AE SWAP1 PUSH2 0x24AE JUMP JUMPDEST PUSH1 0x40 MLOAD DUP1 SWAP2 SUB SWAP1 REVERT JUMPDEST DUP6 PUSH1 0x9 PUSH0 DUP3 DUP3 SLOAD PUSH2 0x8C8 SWAP2 SWAP1 PUSH2 0x230D JUMP JUMPDEST SWAP3 POP POP DUP2 SWAP1 SSTORE POP DUP2 PUSH1 0x3 DUP2 SWAP1 SSTORE POP DUP4 PUSH1 0x4 DUP2 SWAP1 SSTORE POP DUP1 SWAP7 POP POP POP POP POP POP POP SWAP3 SWAP2 POP POP JUMP JUMPDEST PUSH1 0x7 PUSH0 SWAP1 SLOAD SWAP1 PUSH2 0x100 EXP SWAP1 DIV PUSH20 0xFFFFFFFFFFFFFFFFFFFFFFFFFFFFFFFFFFFFFFFF AND PUSH20 0xFFFFFFFFFFFFFFFFFFFFFFFFFFFFFFFFFFFFFFFF AND CALLER PUSH20 0xFFFFFFFFFFFFFFFFFFFFFFFFFFFFFFFFFFFFFFFF AND EQ PUSH2 0x97B JUMPI PUSH1 0x40 MLOAD PUSH32 0x8C379A000000000000000000000000000000000000000000000000000000000 DUP2 MSTORE PUSH1 0x4 ADD PUSH2 0x972 SWAP1 PUSH2 0x2516 JUMP JUMPDEST PUSH1 0x40 MLOAD DUP1 SWAP2 SUB SWAP1 REVERT JUMPDEST PUSH0 PUSH1 0x8 SLOAD GT ISZERO PUSH2 0xA89 JUMPI PUSH0 DUP1 SLOAD SWAP1 PUSH2 0x100 EXP SWAP1 DIV PUSH20 0xFFFFFFFFFFFFFFFFFFFFFFFFFFFFFFFFFFFFFFFF AND PUSH20 0xFFFFFFFFFFFFFFFFFFFFFFFFFFFFFFFFFFFFFFFF AND PUSH4 0xA9059CBB PUSH1 0x7 PUSH0 SWAP1 SLOAD SWAP1 PUSH2 0x100 EXP SWAP1 DIV PUSH20 0xFFFFFFFFFFFFFFFFFFFFFFFFFFFFFFFFFFFFFFFF AND PUSH1 0x8 SLOAD PUSH1 0x40 MLOAD DUP4 PUSH4 0xFFFFFFFF AND PUSH1 0xE0 SHL DUP2 MSTORE PUSH1 0x4 ADD PUSH2 0xA02 SWAP3 SWAP2 SWAP1 PUSH2 0x243D JUMP JUMPDEST PUSH1 0x20 PUSH1 0x40 MLOAD DUP1 DUP4 SUB DUP2 PUSH0 DUP8 GAS CALL ISZERO DUP1 ISZERO PUSH2 0xA1E JUMPI RETURNDATASIZE PUSH0 DUP1 RETURNDATACOPY RETURNDATASIZE PUSH0 REVERT JUMPDEST POP POP POP POP PUSH1 0x40 MLOAD RETURNDATASIZE PUSH1 0x1F NOT PUSH1 0x1F DUP3 ADD AND DUP3 ADD DUP1 PUSH1 0x40 MSTORE POP DUP2 ADD SWAP1 PUSH2 0xA42 SWAP2 SWAP1 PUSH2 0x23AA JUMP JUMPDEST PUSH2 0xA81 JUMPI PUSH1 0x40 MLOAD PUSH32 0x8C379A000000000000000000000000000000000000000000000000000000000 DUP2 MSTORE PUSH1 0x4 ADD PUSH2 0xA78 SWAP1 PUSH2 0x257E JUMP JUMPDEST PUSH1 0x40 MLOAD DUP1 SWAP2 SUB SWAP1 REVERT JUMPDEST PUSH0 PUSH1 0x8 DUP2 SWAP1 SSTORE POP JUMPDEST PUSH0 PUSH1 0x9 SLOAD GT ISZERO PUSH2 0xB99 JUMPI PUSH1 0x1 PUSH0 SWAP1 SLOAD SWAP1 PUSH2 0x100 EXP SWAP1 DIV PUSH20 0xFFFFFFFFFFFFFFFFFFFFFFFFFFFFFFFFFFFFFFFF AND PUSH20 0xFFFFFFFFFFFFFFFFFFFFFFFFFFFFFFFFFFFFFFFF AND PUSH4 0xA9059CBB PUSH1 0x7 PUSH0 SWAP1 SLOAD SWAP1 PUSH2 0x100 EXP SWAP1 DIV PUSH20 0xFFFFFFFFFFFFFFFFFFFFFFFFFFFFFFFFFFFFFFFF AND PUSH1 0x9 SLOAD PUSH1 0x40 MLOAD DUP4 PUSH4 0xFFFFFFFF AND PUSH1 0xE0 SHL DUP2 MSTORE PUSH1 0x4 ADD PUSH2 0xB12 SWAP3 SWAP2 SWAP1 PUSH2 0x243D JUMP JUMPDEST PUSH1 0x20 PUSH1 0x40 MLOAD DUP1 DUP4 SUB DUP2 PUSH0 DUP8 GAS CALL ISZERO DUP1 ISZERO PUSH2 0xB2E JUMPI RETURNDATASIZE PUSH0 DUP1 RETURNDATACOPY RETURNDATASIZE PUSH0 REVERT JUMPDEST POP POP POP POP PUSH1 0x40 MLOAD RETURNDATASIZE PUSH1 0x1F NOT PUSH1 0x1F DUP3 ADD AND DUP3 ADD DUP1 PUSH1 0x40 MSTORE POP DUP2 ADD SWAP1 PUSH2 0xB52 SWAP2 SWAP1 PUSH2 0x23AA JUMP JUMPDEST PUSH2 0xB91 JUMPI PUSH1 0x40 MLOAD PUSH32 0x8C379A000000000000000000000000000000000000000000000000000000000 DUP2 MSTORE PUSH1 0x4 ADD PUSH2 0xB88 SWAP1 PUSH2 0x25E6 JUMP JUMPDEST PUSH1 0x40 MLOAD DUP1 SWAP2 SUB SWAP1 REVERT JUMPDEST PUSH0 PUSH1 0x9 DUP2 SWAP1 SSTORE POP JUMPDEST JUMP JUMPDEST PUSH1 0x1 PUSH0 SWAP1 SLOAD SWAP1 PUSH2 0x100 EXP SWAP1 DIV PUSH20 0xFFFFFFFFFFFFFFFFFFFFFFFFFFFFFFFFFFFFFFFF AND DUP2 JUMP JUMPDEST PUSH1 0x2 PUSH0 SWAP1 SLOAD SWAP1 PUSH2 0x100 EXP SWAP1 DIV PUSH20 0xFFFFFFFFFFFFFFFFFFFFFFFFFFFFFFFFFFFFFFFF AND DUP2 JUMP JUMPDEST PUSH0 DUP1 DUP3 GT PUSH2 0xC28 JUMPI PUSH1 0x40 MLOAD PUSH32 0x8C379A000000000000000000000000000000000000000000000000000000000 DUP2 MSTORE PUSH1 0x4 ADD PUSH2 0xC1F SWAP1 PUSH2 0x264E JUMP JUMPDEST PUSH1 0x40 MLOAD DUP1 SWAP2 SUB SWAP1 REVERT JUMPDEST PUSH0 PUSH2 0xC32 DUP4 PUSH2 0xCAD JUMP JUMPDEST SWAP1 POP PUSH0 DUP4 PUSH1 0x3 SLOAD PUSH2 0xC43 SWAP2 SWAP1 PUSH2 0x230D JUMP JUMPDEST SWAP1 POP PUSH0 PUSH1 0x4 SLOAD PUSH1 0x3 SLOAD PUSH2 0xC56 SWAP2 SWAP1 PUSH2 0x21D4 JUMP JUMPDEST SWAP1 POP PUSH0 DUP3 DUP3 PUSH2 0xC65 SWAP2 SWAP1 PUSH2 0x2242 JUMP JUMPDEST SWAP1 POP PUSH0 DUP2 PUSH1 0x4 SLOAD PUSH2 0xC76 SWAP2 SWAP1 PUSH2 0x2272 JUMP JUMPDEST SWAP1 POP PUSH0 DUP6 PUSH1 0x64 DUP4 PUSH2 0xC87 SWAP2 SWAP1 PUSH2 0x21D4 JUMP JUMPDEST PUSH2 0xC91 SWAP2 SWAP1 PUSH2 0x2242 JUMP JUMPDEST PUSH1 0x64 PUSH2 0xC9D SWAP2 SWAP1 PUSH2 0x2272 JUMP JUMPDEST SWAP1 POP DUP1 SWAP7 POP POP POP POP POP POP POP SWAP2 SWAP1 POP JUMP JUMPDEST PUSH0 DUP1 DUP3 GT PUSH2 0xCF0 JUMPI PUSH1 0x40 MLOAD PUSH32 0x8C379A000000000000000000000000000000000000000000000000000000000 DUP2 MSTORE PUSH1 0x4 ADD PUSH2 0xCE7 SWAP1 PUSH2 0x26B6 JUMP JUMPDEST PUSH1 0x40 MLOAD DUP1 SWAP2 SUB SWAP1 REVERT JUMPDEST PUSH0 PUSH1 0x4 SLOAD GT PUSH2 0xD34 JUMPI PUSH1 0x40 MLOAD PUSH32 0x8C379A000000000000000000000000000000000000000000000000000000000 DUP2 MSTORE PUSH1 0x4 ADD PUSH2 0xD2B SWAP1 PUSH2 0x271E JUMP JUMPDEST PUSH1 0x40 MLOAD DUP1 SWAP2 SUB SWAP1 REVERT JUMPDEST PUSH0 PUSH1 0x4 SLOAD PUSH8 0xDE0B6B3A7640000 PUSH1 0x3 SLOAD PUSH2 0xD4E SWAP2 SWAP1 PUSH2 0x21D4 JUMP JUMPDEST PUSH2 0xD58 SWAP2 SWAP1 PUSH2 0x2242 JUMP JUMPDEST SWAP1 POP DUP1 PUSH8 0xDE0B6B3A7640000 DUP5 PUSH2 0xD6F SWAP2 SWAP1 PUSH2 0x21D4 JUMP JUMPDEST PUSH2 0xD79 SWAP2 SWAP1 PUSH2 0x2242 JUMP JUMPDEST SWAP2 POP POP SWAP2 SWAP1 POP JUMP JUMPDEST PUSH1 0x7 PUSH0 SWAP1 SLOAD SWAP1 PUSH2 0x100 EXP SWAP1 DIV PUSH20 0xFFFFFFFFFFFFFFFFFFFFFFFFFFFFFFFFFFFFFFFF AND DUP2 JUMP JUMPDEST PUSH0 DUP1 PUSH1 0x4 SLOAD GT PUSH2 0xDEB JUMPI PUSH1 0x40 MLOAD PUSH32 0x8C379A000000000000000000000000000000000000000000000000000000000 DUP2 MSTORE PUSH1 0x4 ADD PUSH2 0xDE2 SWAP1 PUSH2 0x2786 JUMP JUMPDEST PUSH1 0x40 MLOAD DUP1 SWAP2 SUB SWAP1 REVERT JUMPDEST PUSH1 0x4 SLOAD PUSH8 0xDE0B6B3A7640000 PUSH1 0x3 SLOAD PUSH2 0xE04 SWAP2 SWAP1 PUSH2 0x21D4 JUMP JUMPDEST PUSH2 0xE0E SWAP2 SWAP1 PUSH2 0x2242 JUMP JUMPDEST SWAP1 POP SWAP1 JUMP JUMPDEST PUSH0 DUP2 GT PUSH2 0xE55 JUMPI PUSH1 0x40 MLOAD PUSH32 0x8C379A000000000000000000000000000000000000000000000000000000000 DUP2 MSTORE PUSH1 0x4 ADD PUSH2 0xE4C SWAP1 PUSH2 0x27EE JUMP JUMPDEST PUSH1 0x40 MLOAD DUP1 SWAP2 SUB SWAP1 REVERT JUMPDEST DUP1 PUSH1 0x2 PUSH0 SWAP1 SLOAD SWAP1 PUSH2 0x100 EXP SWAP1 DIV PUSH20 0xFFFFFFFFFFFFFFFFFFFFFFFFFFFFFFFFFFFFFFFF AND PUSH20 0xFFFFFFFFFFFFFFFFFFFFFFFFFFFFFFFFFFFFFFFF AND PUSH4 0x70A08231 CALLER PUSH1 0x40 MLOAD DUP3 PUSH4 0xFFFFFFFF AND PUSH1 0xE0 SHL DUP2 MSTORE PUSH1 0x4 ADD PUSH2 0xEB0 SWAP2 SWAP1 PUSH2 0x206F JUMP JUMPDEST PUSH1 0x20 PUSH1 0x40 MLOAD DUP1 DUP4 SUB DUP2 DUP7 GAS STATICCALL ISZERO DUP1 ISZERO PUSH2 0xECB JUMPI RETURNDATASIZE PUSH0 DUP1 RETURNDATACOPY RETURNDATASIZE PUSH0 REVERT JUMPDEST POP POP POP POP PUSH1 0x40 MLOAD RETURNDATASIZE PUSH1 0x1F NOT PUSH1 0x1F DUP3 ADD AND DUP3 ADD DUP1 PUSH1 0x40 MSTORE POP DUP2 ADD SWAP1 PUSH2 0xEEF SWAP2 SWAP1 PUSH2 0x209C JUMP JUMPDEST LT ISZERO PUSH2 0xF30 JUMPI PUSH1 0x40 MLOAD PUSH32 0x8C379A000000000000000000000000000000000000000000000000000000000 DUP2 MSTORE PUSH1 0x4 ADD PUSH2 0xF27 SWAP1 PUSH2 0x2856 JUMP JUMPDEST PUSH1 0x40 MLOAD DUP1 SWAP2 SUB SWAP1 REVERT JUMPDEST PUSH0 PUSH1 0x2 PUSH0 SWAP1 SLOAD SWAP1 PUSH2 0x100 EXP SWAP1 DIV PUSH20 0xFFFFFFFFFFFFFFFFFFFFFFFFFFFFFFFFFFFFFFFF AND PUSH20 0xFFFFFFFFFFFFFFFFFFFFFFFFFFFFFFFFFFFFFFFF AND PUSH4 0x18160DDD PUSH1 0x40 MLOAD DUP2 PUSH4 0xFFFFFFFF AND PUSH1 0xE0 SHL DUP2 MSTORE PUSH1 0x4 ADD PUSH1 0x20 PUSH1 0x40 MLOAD DUP1 DUP4 SUB DUP2 DUP7 GAS STATICCALL ISZERO DUP1 ISZERO PUSH2 0xF9B JUMPI RETURNDATASIZE PUSH0 DUP1 RETURNDATACOPY RETURNDATASIZE PUSH0 REVERT JUMPDEST POP POP POP POP PUSH1 0x40 MLOAD RETURNDATASIZE PUSH1 0x1F NOT PUSH1 0x1F DUP3 ADD AND DUP3 ADD DUP1 PUSH1 0x40 MSTORE POP DUP2 ADD SWAP1 PUSH2 0xFBF SWAP2 SWAP1 PUSH2 0x209C JUMP JUMPDEST SWAP1 POP PUSH0 DUP2 PUSH1 0x3 SLOAD DUP5 PUSH2 0xFD1 SWAP2 SWAP1 PUSH2 0x21D4 JUMP JUMPDEST PUSH2 0xFDB SWAP2 SWAP1 PUSH2 0x2242 JUMP JUMPDEST SWAP1 POP PUSH0 DUP3 PUSH1 0x4 SLOAD DUP6 PUSH2 0xFED SWAP2 SWAP1 PUSH2 0x21D4 JUMP JUMPDEST PUSH2 0xFF7 SWAP2 SWAP1 PUSH2 0x2242 JUMP JUMPDEST SWAP1 POP PUSH0 DUP3 GT DUP1 ISZERO PUSH2 0x1007 JUMPI POP PUSH0 DUP2 GT JUMPDEST PUSH2 0x1046 JUMPI PUSH1 0x40 MLOAD PUSH32 0x8C379A000000000000000000000000000000000000000000000000000000000 DUP2 MSTORE PUSH1 0x4 ADD PUSH2 0x103D SWAP1 PUSH2 0x28BE JUMP JUMPDEST PUSH1 0x40 MLOAD DUP1 SWAP2 SUB SWAP1 REVERT JUMPDEST PUSH1 0x2 PUSH0 SWAP1 SLOAD SWAP1 PUSH2 0x100 EXP SWAP1 DIV PUSH20 0xFFFFFFFFFFFFFFFFFFFFFFFFFFFFFFFFFFFFFFFF AND PUSH20 0xFFFFFFFFFFFFFFFFFFFFFFFFFFFFFFFFFFFFFFFF AND PUSH4 0x9DC29FAC CALLER DUP7 PUSH1 0x40 MLOAD DUP4 PUSH4 0xFFFFFFFF AND PUSH1 0xE0 SHL DUP2 MSTORE PUSH1 0x4 ADD PUSH2 0x10A2 SWAP3 SWAP2 SWAP1 PUSH2 0x243D JUMP JUMPDEST PUSH0 PUSH1 0x40 MLOAD DUP1 DUP4 SUB DUP2 PUSH0 DUP8 DUP1 EXTCODESIZE ISZERO DUP1 ISZERO PUSH2 0x10B9 JUMPI PUSH0 DUP1 REVERT JUMPDEST POP GAS CALL ISZERO DUP1 ISZERO PUSH2 0x10CB JUMPI RETURNDATASIZE PUSH0 DUP1 RETURNDATACOPY RETURNDATASIZE PUSH0 REVERT JUMPDEST POP POP POP POP DUP2 PUSH1 0x3 PUSH0 DUP3 DUP3 SLOAD PUSH2 0x10E0 SWAP2 SWAP1 PUSH2 0x2272 JUMP JUMPDEST SWAP3 POP POP DUP2 SWAP1 SSTORE POP DUP1 PUSH1 0x4 PUSH0 DUP3 DUP3 SLOAD PUSH2 0x10F8 SWAP2 SWAP1 PUSH2 0x2272 JUMP JUMPDEST SWAP3 POP POP DUP2 SWAP1 SSTORE POP PUSH0 DUP1 SLOAD SWAP1 PUSH2 0x100 EXP SWAP1 DIV PUSH20 0xFFFFFFFFFFFFFFFFFFFFFFFFFFFFFFFFFFFFFFFF AND PUSH20 0xFFFFFFFFFFFFFFFFFFFFFFFFFFFFFFFFFFFFFFFF AND PUSH4 0xA9059CBB CALLER DUP5 PUSH1 0x40 MLOAD DUP4 PUSH4 0xFFFFFFFF AND PUSH1 0xE0 SHL DUP2 MSTORE PUSH1 0x4 ADD PUSH2 0x1159 SWAP3 SWAP2 SWAP1 PUSH2 0x243D JUMP JUMPDEST PUSH1 0x20 PUSH1 0x40 MLOAD DUP1 DUP4 SUB DUP2 PUSH0 DUP8 GAS CALL ISZERO DUP1 ISZERO PUSH2 0x1175 JUMPI RETURNDATASIZE PUSH0 DUP1 RETURNDATACOPY RETURNDATASIZE PUSH0 REVERT JUMPDEST POP POP POP POP PUSH1 0x40 MLOAD RETURNDATASIZE PUSH1 0x1F NOT PUSH1 0x1F DUP3 ADD AND DUP3 ADD DUP1 PUSH1 0x40 MSTORE POP DUP2 ADD SWAP1 PUSH2 0x1199 SWAP2 SWAP1 PUSH2 0x23AA JUMP JUMPDEST PUSH2 0x11D8 JUMPI PUSH1 0x40 MLOAD PUSH32 0x8C379A000000000000000000000000000000000000000000000000000000000 DUP2 MSTORE PUSH1 0x4 ADD PUSH2 0x11CF SWAP1 PUSH2 0x24AE JUMP JUMPDEST PUSH1 0x40 MLOAD DUP1 SWAP2 SUB SWAP1 REVERT JUMPDEST PUSH1 0x1 PUSH0 SWAP1 SLOAD SWAP1 PUSH2 0x100 EXP SWAP1 DIV PUSH20 0xFFFFFFFFFFFFFFFFFFFFFFFFFFFFFFFFFFFFFFFF AND PUSH20 0xFFFFFFFFFFFFFFFFFFFFFFFFFFFFFFFFFFFFFFFF AND PUSH4 0xA9059CBB CALLER DUP4 PUSH1 0x40 MLOAD DUP4 PUSH4 0xFFFFFFFF AND PUSH1 0xE0 SHL DUP2 MSTORE PUSH1 0x4 ADD PUSH2 0x1234 SWAP3 SWAP2 SWAP1 PUSH2 0x243D JUMP JUMPDEST PUSH1 0x20 PUSH1 0x40 MLOAD DUP1 DUP4 SUB DUP2 PUSH0 DUP8 GAS CALL ISZERO DUP1 ISZERO PUSH2 0x1250 JUMPI RETURNDATASIZE PUSH0 DUP1 RETURNDATACOPY RETURNDATASIZE PUSH0 REVERT JUMPDEST POP POP POP POP PUSH1 0x40 MLOAD RETURNDATASIZE PUSH1 0x1F NOT PUSH1 0x1F DUP3 ADD AND DUP3 ADD DUP1 PUSH1 0x40 MSTORE POP DUP2 ADD SWAP1 PUSH2 0x1274 SWAP2 SWAP1 PUSH2 0x23AA JUMP JUMPDEST PUSH2 0x12B3 JUMPI PUSH1 0x40 MLOAD PUSH32 0x8C379A000000000000000000000000000000000000000000000000000000000 DUP2 MSTORE PUSH1 0x4 ADD PUSH2 0x12AA SWAP1 PUSH2 0x241F JUMP JUMPDEST PUSH1 0x40 MLOAD DUP1 SWAP2 SUB SWAP1 REVERT JUMPDEST POP POP POP POP JUMP JUMPDEST PUSH0 DUP1 DUP4 GT DUP1 ISZERO PUSH2 0x12C8 JUMPI POP PUSH0 DUP3 GT JUMPDEST PUSH2 0x1307 JUMPI PUSH1 0x40 MLOAD PUSH32 0x8C379A000000000000000000000000000000000000000000000000000000000 DUP2 MSTORE PUSH1 0x4 ADD PUSH2 0x12FE SWAP1 PUSH2 0x2926 JUMP JUMPDEST PUSH1 0x40 MLOAD DUP1 SWAP2 SUB SWAP1 REVERT JUMPDEST PUSH0 DUP1 SLOAD SWAP1 PUSH2 0x100 EXP SWAP1 DIV PUSH20 0xFFFFFFFFFFFFFFFFFFFFFFFFFFFFFFFFFFFFFFFF AND PUSH20 0xFFFFFFFFFFFFFFFFFFFFFFFFFFFFFFFFFFFFFFFF AND PUSH4 0x23B872DD CALLER ADDRESS DUP7 PUSH1 0x40 MLOAD DUP5 PUSH4 0xFFFFFFFF AND PUSH1 0xE0 SHL DUP2 MSTORE PUSH1 0x4 ADD PUSH2 0x1363 SWAP4 SWAP3 SWAP2 SWAP1 PUSH2 0x2340 JUMP JUMPDEST PUSH1 0x20 PUSH1 0x40 MLOAD DUP1 DUP4 SUB DUP2 PUSH0 DUP8 GAS CALL ISZERO DUP1 ISZERO PUSH2 0x137F JUMPI RETURNDATASIZE PUSH0 DUP1 RETURNDATACOPY RETURNDATASIZE PUSH0 REVERT JUMPDEST POP POP POP POP PUSH1 0x40 MLOAD RETURNDATASIZE PUSH1 0x1F NOT PUSH1 0x1F DUP3 ADD AND DUP3 ADD DUP1 PUSH1 0x40 MSTORE POP DUP2 ADD SWAP1 PUSH2 0x13A3 SWAP2 SWAP1 PUSH2 0x23AA JUMP JUMPDEST PUSH2 0x13E2 JUMPI PUSH1 0x40 MLOAD PUSH32 0x8C379A000000000000000000000000000000000000000000000000000000000 DUP2 MSTORE PUSH1 0x4 ADD PUSH2 0x13D9 SWAP1 PUSH2 0x298E JUMP JUMPDEST PUSH1 0x40 MLOAD DUP1 SWAP2 SUB SWAP1 REVERT JUMPDEST PUSH1 0x1 PUSH0 SWAP1 SLOAD SWAP1 PUSH2 0x100 EXP SWAP1 DIV PUSH20 0xFFFFFFFFFFFFFFFFFFFFFFFFFFFFFFFFFFFFFFFF AND PUSH20 0xFFFFFFFFFFFFFFFFFFFFFFFFFFFFFFFFFFFFFFFF AND PUSH4 0x23B872DD CALLER ADDRESS DUP6 PUSH1 0x40 MLOAD DUP5 PUSH4 0xFFFFFFFF AND PUSH1 0xE0 SHL DUP2 MSTORE PUSH1 0x4 ADD PUSH2 0x1440 SWAP4 SWAP3 SWAP2 SWAP1 PUSH2 0x2340 JUMP JUMPDEST PUSH1 0x20 PUSH1 0x40 MLOAD DUP1 DUP4 SUB DUP2 PUSH0 DUP8 GAS CALL ISZERO DUP1 ISZERO PUSH2 0x145C JUMPI RETURNDATASIZE PUSH0 DUP1 RETURNDATACOPY RETURNDATASIZE PUSH0 REVERT JUMPDEST POP POP POP POP PUSH1 0x40 MLOAD RETURNDATASIZE PUSH1 0x1F NOT PUSH1 0x1F DUP3 ADD AND DUP3 ADD DUP1 PUSH1 0x40 MSTORE POP DUP2 ADD SWAP1 PUSH2 0x1480 SWAP2 SWAP1 PUSH2 0x23AA JUMP JUMPDEST PUSH2 0x14BF JUMPI PUSH1 0x40 MLOAD PUSH32 0x8C379A000000000000000000000000000000000000000000000000000000000 DUP2 MSTORE PUSH1 0x4 ADD PUSH2 0x14B6 SWAP1 PUSH2 0x29F6 JUMP JUMPDEST PUSH1 0x40 MLOAD DUP1 SWAP2 SUB SWAP1 REVERT JUMPDEST PUSH0 PUSH1 0x2 PUSH0 SWAP1 SLOAD SWAP1 PUSH2 0x100 EXP SWAP1 DIV PUSH20 0xFFFFFFFFFFFFFFFFFFFFFFFFFFFFFFFFFFFFFFFF AND PUSH20 0xFFFFFFFFFFFFFFFFFFFFFFFFFFFFFFFFFFFFFFFF AND PUSH4 0x18160DDD PUSH1 0x40 MLOAD DUP2 PUSH4 0xFFFFFFFF AND PUSH1 0xE0 SHL DUP2 MSTORE PUSH1 0x4 ADD PUSH1 0x20 PUSH1 0x40 MLOAD DUP1 DUP4 SUB DUP2 DUP7 GAS STATICCALL ISZERO DUP1 ISZERO PUSH2 0x152A JUMPI RETURNDATASIZE PUSH0 DUP1 RETURNDATACOPY RETURNDATASIZE PUSH0 REVERT JUMPDEST POP POP POP POP PUSH1 0x40 MLOAD RETURNDATASIZE PUSH1 0x1F NOT PUSH1 0x1F DUP3 ADD AND DUP3 ADD DUP1 PUSH1 0x40 MSTORE POP DUP2 ADD SWAP1 PUSH2 0x154E SWAP2 SWAP1 PUSH2 0x209C JUMP JUMPDEST SWAP1 POP PUSH0 DUP2 SUB PUSH2 0x1572 JUMPI PUSH2 0x156B DUP4 DUP6 PUSH2 0x1566 SWAP2 SWAP1 PUSH2 0x21D4 JUMP JUMPDEST PUSH2 0x1DB0 JUMP JUMPDEST SWAP2 POP PUSH2 0x15B9 JUMP JUMPDEST PUSH0 PUSH1 0x3 SLOAD DUP3 DUP7 PUSH2 0x1582 SWAP2 SWAP1 PUSH2 0x21D4 JUMP JUMPDEST PUSH2 0x158C SWAP2 SWAP1 PUSH2 0x2242 JUMP JUMPDEST SWAP1 POP PUSH0 PUSH1 0x4 SLOAD DUP4 DUP7 PUSH2 0x159E SWAP2 SWAP1 PUSH2 0x21D4 JUMP JUMPDEST PUSH2 0x15A8 SWAP2 SWAP1 PUSH2 0x2242 JUMP JUMPDEST SWAP1 POP PUSH2 0x15B4 DUP3 DUP3 PUSH2 0x1E27 JUMP JUMPDEST SWAP4 POP POP POP JUMPDEST PUSH0 DUP3 GT PUSH2 0x15FB JUMPI PUSH1 0x40 MLOAD PUSH32 0x8C379A000000000000000000000000000000000000000000000000000000000 DUP2 MSTORE PUSH1 0x4 ADD PUSH2 0x15F2 SWAP1 PUSH2 0x271E JUMP JUMPDEST PUSH1 0x40 MLOAD DUP1 SWAP2 SUB SWAP1 REVERT JUMPDEST PUSH1 0x2 PUSH0 SWAP1 SLOAD SWAP1 PUSH2 0x100 EXP SWAP1 DIV PUSH20 0xFFFFFFFFFFFFFFFFFFFFFFFFFFFFFFFFFFFFFFFF AND PUSH20 0xFFFFFFFFFFFFFFFFFFFFFFFFFFFFFFFFFFFFFFFF AND PUSH4 0x40C10F19 CALLER DUP5 PUSH1 0x40 MLOAD DUP4 PUSH4 0xFFFFFFFF AND PUSH1 0xE0 SHL DUP2 MSTORE PUSH1 0x4 ADD PUSH2 0x1657 SWAP3 SWAP2 SWAP1 PUSH2 0x243D JUMP JUMPDEST PUSH0 PUSH1 0x40 MLOAD DUP1 DUP4 SUB DUP2 PUSH0 DUP8 DUP1 EXTCODESIZE ISZERO DUP1 ISZERO PUSH2 0x166E JUMPI PUSH0 DUP1 REVERT JUMPDEST POP GAS CALL ISZERO DUP1 ISZERO PUSH2 0x1680 JUMPI RETURNDATASIZE PUSH0 DUP1 RETURNDATACOPY RETURNDATASIZE PUSH0 REVERT JUMPDEST POP POP POP POP DUP4 PUSH1 0x3 PUSH0 DUP3 DUP3 SLOAD PUSH2 0x1695 SWAP2 SWAP1 PUSH2 0x230D JUMP JUMPDEST SWAP3 POP POP DUP2 SWAP1 SSTORE POP DUP3 PUSH1 0x4 PUSH0 DUP3 DUP3 SLOAD PUSH2 0x16AD SWAP2 SWAP1 PUSH2 0x230D JUMP JUMPDEST SWAP3 POP POP DUP2 SWAP1 SSTORE POP PUSH32 0xCC9839E29D34E3A8B9F929D42C01123094009B880AA7B700B7C3510216940970 DUP5 DUP5 CALLER PUSH1 0x40 MLOAD PUSH2 0x16E7 SWAP4 SWAP3 SWAP2 SWAP1 PUSH2 0x2A14 JUMP JUMPDEST PUSH1 0x40 MLOAD DUP1 SWAP2 SUB SWAP1 LOG1 POP SWAP3 SWAP2 POP POP JUMP JUMPDEST PUSH1 0x6 SLOAD DUP2 JUMP JUMPDEST PUSH1 0x7 PUSH0 SWAP1 SLOAD SWAP1 PUSH2 0x100 EXP SWAP1 DIV PUSH20 0xFFFFFFFFFFFFFFFFFFFFFFFFFFFFFFFFFFFFFFFF AND PUSH20 0xFFFFFFFFFFFFFFFFFFFFFFFFFFFFFFFFFFFFFFFF AND CALLER PUSH20 0xFFFFFFFFFFFFFFFFFFFFFFFFFFFFFFFFFFFFFFFF AND EQ PUSH2 0x178B JUMPI PUSH1 0x40 MLOAD PUSH32 0x8C379A000000000000000000000000000000000000000000000000000000000 DUP2 MSTORE PUSH1 0x4 ADD PUSH2 0x1782 SWAP1 PUSH2 0x2516 JUMP JUMPDEST PUSH1 0x40 MLOAD DUP1 SWAP2 SUB SWAP1 REVERT JUMPDEST PUSH1 0x64 DUP2 GT ISZERO PUSH2 0x17CF JUMPI PUSH1 0x40 MLOAD PUSH32 0x8C379A000000000000000000000000000000000000000000000000000000000 DUP2 MSTORE PUSH1 0x4 ADD PUSH2 0x17C6 SWAP1 PUSH2 0x2A93 JUMP JUMPDEST PUSH1 0x40 MLOAD DUP1 SWAP2 SUB SWAP1 REVERT JUMPDEST DUP1 PUSH1 0x6 DUP2 SWAP1 SSTORE POP POP JUMP JUMPDEST PUSH1 0x7 PUSH0 SWAP1 SLOAD SWAP1 PUSH2 0x100 EXP SWAP1 DIV PUSH20 0xFFFFFFFFFFFFFFFFFFFFFFFFFFFFFFFFFFFFFFFF AND PUSH20 0xFFFFFFFFFFFFFFFFFFFFFFFFFFFFFFFFFFFFFFFF AND CALLER PUSH20 0xFFFFFFFFFFFFFFFFFFFFFFFFFFFFFFFFFFFFFFFF AND EQ PUSH2 0x1868 JUMPI PUSH1 0x40 MLOAD PUSH32 0x8C379A000000000000000000000000000000000000000000000000000000000 DUP2 MSTORE PUSH1 0x4 ADD PUSH2 0x185F SWAP1 PUSH2 0x2516 JUMP JUMPDEST PUSH1 0x40 MLOAD DUP1 SWAP2 SUB SWAP1 REVERT JUMPDEST PUSH0 DUP2 GT PUSH2 0x18AA JUMPI PUSH1 0x40 MLOAD PUSH32 0x8C379A000000000000000000000000000000000000000000000000000000000 DUP2 MSTORE PUSH1 0x4 ADD PUSH2 0x18A1 SWAP1 PUSH2 0x2AFB JUMP JUMPDEST PUSH1 0x40 MLOAD DUP1 SWAP2 SUB SWAP1 REVERT JUMPDEST DUP1 PUSH1 0x5 DUP2 SWAP1 SSTORE POP POP JUMP JUMPDEST PUSH0 DUP1 DUP3 GT PUSH2 0x18F7 JUMPI PUSH1 0x40 MLOAD PUSH32 0x8C379A000000000000000000000000000000000000000000000000000000000 DUP2 MSTORE PUSH1 0x4 ADD PUSH2 0x18EE SWAP1 PUSH2 0x26B6 JUMP JUMPDEST PUSH1 0x40 MLOAD DUP1 SWAP2 SUB SWAP1 REVERT JUMPDEST PUSH0 PUSH1 0x3 SLOAD GT PUSH2 0x193B JUMPI PUSH1 0x40 MLOAD PUSH32 0x8C379A000000000000000000000000000000000000000000000000000000000 DUP2 MSTORE PUSH1 0x4 ADD PUSH2 0x1932 SWAP1 PUSH2 0x271E JUMP JUMPDEST PUSH1 0x40 MLOAD DUP1 SWAP2 SUB SWAP1 REVERT JUMPDEST PUSH0 PUSH1 0x3 SLOAD PUSH8 0xDE0B6B3A7640000 PUSH1 0x4 SLOAD PUSH2 0x1955 SWAP2 SWAP1 PUSH2 0x21D4 JUMP JUMPDEST PUSH2 0x195F SWAP2 SWAP1 PUSH2 0x2242 JUMP JUMPDEST SWAP1 POP DUP1 PUSH8 0xDE0B6B3A7640000 DUP5 PUSH2 0x1976 SWAP2 SWAP1 PUSH2 0x21D4 JUMP JUMPDEST PUSH2 0x1980 SWAP2 SWAP1 PUSH2 0x2242 JUMP JUMPDEST SWAP2 POP POP SWAP2 SWAP1 POP JUMP JUMPDEST PUSH1 0x5 SLOAD DUP2 JUMP JUMPDEST PUSH0 DUP1 DUP3 GT PUSH2 0x19D1 JUMPI PUSH1 0x40 MLOAD PUSH32 0x8C379A000000000000000000000000000000000000000000000000000000000 DUP2 MSTORE PUSH1 0x4 ADD PUSH2 0x19C8 SWAP1 PUSH2 0x264E JUMP JUMPDEST PUSH1 0x40 MLOAD DUP1 SWAP2 SUB SWAP1 REVERT JUMPDEST PUSH0 PUSH2 0x19DB DUP4 PUSH2 0x18B4 JUMP JUMPDEST SWAP1 POP PUSH0 DUP4 PUSH1 0x4 SLOAD PUSH2 0x19EC SWAP2 SWAP1 PUSH2 0x230D JUMP JUMPDEST SWAP1 POP PUSH0 PUSH1 0x4 SLOAD PUSH1 0x3 SLOAD PUSH2 0x19FF SWAP2 SWAP1 PUSH2 0x21D4 JUMP JUMPDEST SWAP1 POP PUSH0 DUP3 DUP3 PUSH2 0x1A0E SWAP2 SWAP1 PUSH2 0x2242 JUMP JUMPDEST SWAP1 POP PUSH0 DUP2 PUSH1 0x3 SLOAD PUSH2 0x1A1F SWAP2 SWAP1 PUSH2 0x2272 JUMP JUMPDEST SWAP1 POP PUSH0 DUP6 PUSH1 0x64 DUP4 PUSH2 0x1A30 SWAP2 SWAP1 PUSH2 0x21D4 JUMP JUMPDEST PUSH2 0x1A3A SWAP2 SWAP1 PUSH2 0x2242 JUMP JUMPDEST PUSH1 0x64 PUSH2 0x1A46 SWAP2 SWAP1 PUSH2 0x2272 JUMP JUMPDEST SWAP1 POP DUP1 SWAP7 POP POP POP POP POP POP POP SWAP2 SWAP1 POP JUMP JUMPDEST PUSH0 PUSH1 0x2 PUSH0 SWAP1 SLOAD SWAP1 PUSH2 0x100 EXP SWAP1 DIV PUSH20 0xFFFFFFFFFFFFFFFFFFFFFFFFFFFFFFFFFFFFFFFF AND SWAP1 POP SWAP1 JUMP JUMPDEST PUSH1 0x3 SLOAD DUP2 JUMP JUMPDEST PUSH0 DUP1 DUP4 GT PUSH2 0x1AC7 JUMPI PUSH1 0x40 MLOAD PUSH32 0x8C379A000000000000000000000000000000000000000000000000000000000 DUP2 MSTORE PUSH1 0x4 ADD PUSH2 0x1ABE SWAP1 PUSH2 0x2121 JUMP JUMPDEST PUSH1 0x40 MLOAD DUP1 SWAP2 SUB SWAP1 REVERT JUMPDEST PUSH0 PUSH1 0x5 SLOAD GT PUSH2 0x1B0B JUMPI PUSH1 0x40 MLOAD PUSH32 0x8C379A000000000000000000000000000000000000000000000000000000000 DUP2 MSTORE PUSH1 0x4 ADD PUSH2 0x1B02 SWAP1 PUSH2 0x2189 JUMP JUMPDEST PUSH1 0x40 MLOAD DUP1 SWAP2 SUB SWAP1 REVERT JUMPDEST PUSH0 PUSH1 0x64 PUSH1 0x6 SLOAD DUP6 PUSH2 0x1B1C SWAP2 SWAP1 PUSH2 0x21D4 JUMP JUMPDEST PUSH2 0x1B26 SWAP2 SWAP1 PUSH2 0x2242 JUMP JUMPDEST SWAP1 POP PUSH0 DUP2 DUP6 PUSH2 0x1B35 SWAP2 SWAP1 PUSH2 0x2272 JUMP JUMPDEST SWAP1 POP PUSH2 0x1B40 DUP2 PUSH2 0xBE5 JUMP JUMPDEST DUP5 GT PUSH2 0x1B81 JUMPI PUSH1 0x40 MLOAD PUSH32 0x8C379A000000000000000000000000000000000000000000000000000000000 DUP2 MSTORE PUSH1 0x4 ADD PUSH2 0x1B78 SWAP1 PUSH2 0x22EF JUMP JUMPDEST PUSH1 0x40 MLOAD DUP1 SWAP2 SUB SWAP1 REVERT JUMPDEST PUSH0 DUP2 PUSH1 0x3 SLOAD PUSH2 0x1B90 SWAP2 SWAP1 PUSH2 0x230D JUMP JUMPDEST SWAP1 POP PUSH0 PUSH1 0x4 SLOAD PUSH1 0x3 SLOAD PUSH2 0x1BA3 SWAP2 SWAP1 PUSH2 0x21D4 JUMP JUMPDEST SWAP1 POP PUSH0 DUP3 DUP3 PUSH2 0x1BB2 SWAP2 SWAP1 PUSH2 0x2242 JUMP JUMPDEST SWAP1 POP PUSH0 DUP2 PUSH1 0x4 SLOAD PUSH2 0x1BC3 SWAP2 SWAP1 PUSH2 0x2272 JUMP JUMPDEST SWAP1 POP PUSH0 DUP1 SLOAD SWAP1 PUSH2 0x100 EXP SWAP1 DIV PUSH20 0xFFFFFFFFFFFFFFFFFFFFFFFFFFFFFFFFFFFFFFFF AND PUSH20 0xFFFFFFFFFFFFFFFFFFFFFFFFFFFFFFFFFFFFFFFF AND PUSH4 0x23B872DD CALLER ADDRESS DUP13 PUSH1 0x40 MLOAD DUP5 PUSH4 0xFFFFFFFF AND PUSH1 0xE0 SHL DUP2 MSTORE PUSH1 0x4 ADD PUSH2 0x1C21 SWAP4 SWAP3 SWAP2 SWAP1 PUSH2 0x2340 JUMP JUMPDEST PUSH1 0x20 PUSH1 0x40 MLOAD DUP1 DUP4 SUB DUP2 PUSH0 DUP8 GAS CALL ISZERO DUP1 ISZERO PUSH2 0x1C3D JUMPI RETURNDATASIZE PUSH0 DUP1 RETURNDATACOPY RETURNDATASIZE PUSH0 REVERT JUMPDEST POP POP POP POP PUSH1 0x40 MLOAD RETURNDATASIZE PUSH1 0x1F NOT PUSH1 0x1F DUP3 ADD AND DUP3 ADD DUP1 PUSH1 0x40 MSTORE POP DUP2 ADD SWAP1 PUSH2 0x1C61 SWAP2 SWAP1 PUSH2 0x23AA JUMP JUMPDEST PUSH2 0x1CA0 JUMPI PUSH1 0x40 MLOAD PUSH32 0x8C379A000000000000000000000000000000000000000000000000000000000 DUP2 MSTORE PUSH1 0x4 ADD PUSH2 0x1C97 SWAP1 PUSH2 0x24AE JUMP JUMPDEST PUSH1 0x40 MLOAD DUP1 SWAP2 SUB SWAP1 REVERT JUMPDEST PUSH1 0x1 PUSH0 SWAP1 SLOAD SWAP1 PUSH2 0x100 EXP SWAP1 DIV PUSH20 0xFFFFFFFFFFFFFFFFFFFFFFFFFFFFFFFFFFFFFFFF AND PUSH20 0xFFFFFFFFFFFFFFFFFFFFFFFFFFFFFFFFFFFFFFFF AND PUSH4 0xA9059CBB CALLER DUP4 PUSH1 0x40 MLOAD DUP4 PUSH4 0xFFFFFFFF AND PUSH1 0xE0 SHL DUP2 MSTORE PUSH1 0x4 ADD PUSH2 0x1CFC SWAP3 SWAP2 SWAP1 PUSH2 0x243D JUMP JUMPDEST PUSH1 0x20 PUSH1 0x40 MLOAD DUP1 DUP4 SUB DUP2 PUSH0 DUP8 GAS CALL ISZERO DUP1 ISZERO PUSH2 0x1D18 JUMPI RETURNDATASIZE PUSH0 DUP1 RETURNDATACOPY RETURNDATASIZE PUSH0 REVERT JUMPDEST POP POP POP POP PUSH1 0x40 MLOAD RETURNDATASIZE PUSH1 0x1F NOT PUSH1 0x1F DUP3 ADD AND DUP3 ADD DUP1 PUSH1 0x40 MSTORE POP DUP2 ADD SWAP1 PUSH2 0x1D3C SWAP2 SWAP1 PUSH2 0x23AA JUMP JUMPDEST PUSH2 0x1D7B JUMPI PUSH1 0x40 MLOAD PUSH32 0x8C379A000000000000000000000000000000000000000000000000000000000 DUP2 MSTORE PUSH1 0x4 ADD PUSH2 0x1D72 SWAP1 PUSH2 0x241F JUMP JUMPDEST PUSH1 0x40 MLOAD DUP1 SWAP2 SUB SWAP1 REVERT JUMPDEST DUP6 PUSH1 0x8 PUSH0 DUP3 DUP3 SLOAD PUSH2 0x1D8C SWAP2 SWAP1 PUSH2 0x230D JUMP JUMPDEST SWAP3 POP POP DUP2 SWAP1 SSTORE POP DUP4 PUSH1 0x3 DUP2 SWAP1 SSTORE POP DUP2 PUSH1 0x4 DUP2 SWAP1 SSTORE POP DUP1 SWAP7 POP POP POP POP POP POP POP SWAP3 SWAP2 POP POP JUMP JUMPDEST PUSH0 PUSH1 0x3 DUP3 GT ISZERO PUSH2 0x1E15 JUMPI DUP2 SWAP1 POP PUSH0 PUSH1 0x1 PUSH1 0x2 DUP5 PUSH2 0x1DCD SWAP2 SWAP1 PUSH2 0x2242 JUMP JUMPDEST PUSH2 0x1DD7 SWAP2 SWAP1 PUSH2 0x230D JUMP JUMPDEST SWAP1 POP JUMPDEST DUP2 DUP2 LT ISZERO PUSH2 0x1E0F JUMPI DUP1 SWAP2 POP PUSH1 0x2 DUP2 DUP3 DUP6 PUSH2 0x1DF4 SWAP2 SWAP1 PUSH2 0x2242 JUMP JUMPDEST PUSH2 0x1DFE SWAP2 SWAP1 PUSH2 0x230D JUMP JUMPDEST PUSH2 0x1E08 SWAP2 SWAP1 PUSH2 0x2242 JUMP JUMPDEST SWAP1 POP PUSH2 0x1DDA JUMP JUMPDEST POP PUSH2 0x1E22 JUMP JUMPDEST PUSH0 DUP3 EQ PUSH2 0x1E21 JUMPI PUSH1 0x1 SWAP1 POP JUMPDEST JUMPDEST SWAP2 SWAP1 POP JUMP JUMPDEST PUSH0 DUP2 DUP4 LT PUSH2 0x1E35 JUMPI DUP2 PUSH2 0x1E37 JUMP JUMPDEST DUP3 JUMPDEST SWAP1 POP SWAP3 SWAP2 POP POP JUMP JUMPDEST PUSH0 DUP1 REVERT JUMPDEST PUSH0 PUSH20 0xFFFFFFFFFFFFFFFFFFFFFFFFFFFFFFFFFFFFFFFF DUP3 AND SWAP1 POP SWAP2 SWAP1 POP JUMP JUMPDEST PUSH0 PUSH2 0x1E6C DUP3 PUSH2 0x1E43 JUMP JUMPDEST SWAP1 POP SWAP2 SWAP1 POP JUMP JUMPDEST PUSH2 0x1E7C DUP2 PUSH2 0x1E62 JUMP JUMPDEST DUP2 EQ PUSH2 0x1E86 JUMPI PUSH0 DUP1 REVERT JUMPDEST POP JUMP JUMPDEST PUSH0 DUP2 CALLDATALOAD SWAP1 POP PUSH2 0x1E97 DUP2 PUSH2 0x1E73 JUMP JUMPDEST SWAP3 SWAP2 POP POP JUMP JUMPDEST PUSH0 PUSH1 0x20 DUP3 DUP5 SUB SLT ISZERO PUSH2 0x1EB2 JUMPI PUSH2 0x1EB1 PUSH2 0x1E3F JUMP JUMPDEST JUMPDEST PUSH0 PUSH2 0x1EBF DUP5 DUP3 DUP6 ADD PUSH2 0x1E89 JUMP JUMPDEST SWAP2 POP POP SWAP3 SWAP2 POP POP JUMP JUMPDEST PUSH0 DUP2 SWAP1 POP SWAP2 SWAP1 POP JUMP JUMPDEST PUSH2 0x1EDA DUP2 PUSH2 0x1EC8 JUMP JUMPDEST DUP3 MSTORE POP POP JUMP JUMPDEST PUSH0 PUSH1 0x20 DUP3 ADD SWAP1 POP PUSH2 0x1EF3 PUSH0 DUP4 ADD DUP5 PUSH2 0x1ED1 JUMP JUMPDEST SWAP3 SWAP2 POP POP JUMP JUMPDEST PUSH0 PUSH1 0x40 DUP3 ADD SWAP1 POP PUSH2 0x1F0C PUSH0 DUP4 ADD DUP6 PUSH2 0x1ED1 JUMP JUMPDEST PUSH2 0x1F19 PUSH1 0x20 DUP4 ADD DUP5 PUSH2 0x1ED1 JUMP JUMPDEST SWAP4 SWAP3 POP POP POP JUMP JUMPDEST PUSH0 DUP2 SWAP1 POP SWAP2 SWAP1 POP JUMP JUMPDEST PUSH0 PUSH2 0x1F43 PUSH2 0x1F3E PUSH2 0x1F39 DUP5 PUSH2 0x1E43 JUMP JUMPDEST PUSH2 0x1F20 JUMP JUMPDEST PUSH2 0x1E43 JUMP JUMPDEST SWAP1 POP SWAP2 SWAP1 POP JUMP JUMPDEST PUSH0 PUSH2 0x1F54 DUP3 PUSH2 0x1F29 JUMP JUMPDEST SWAP1 POP SWAP2 SWAP1 POP JUMP JUMPDEST PUSH0 PUSH2 0x1F65 DUP3 PUSH2 0x1F4A JUMP JUMPDEST SWAP1 POP SWAP2 SWAP1 POP JUMP JUMPDEST PUSH2 0x1F75 DUP2 PUSH2 0x1F5B JUMP JUMPDEST DUP3 MSTORE POP POP JUMP JUMPDEST PUSH0 PUSH1 0x20 DUP3 ADD SWAP1 POP PUSH2 0x1F8E PUSH0 DUP4 ADD DUP5 PUSH2 0x1F6C JUMP JUMPDEST SWAP3 SWAP2 POP POP JUMP JUMPDEST PUSH2 0x1F9D DUP2 PUSH2 0x1EC8 JUMP JUMPDEST DUP2 EQ PUSH2 0x1FA7 JUMPI PUSH0 DUP1 REVERT JUMPDEST POP JUMP JUMPDEST PUSH0 DUP2 CALLDATALOAD SWAP1 POP PUSH2 0x1FB8 DUP2 PUSH2 0x1F94 JUMP JUMPDEST SWAP3 SWAP2 POP POP JUMP JUMPDEST PUSH0 DUP1 PUSH1 0x40 DUP4 DUP6 SUB SLT ISZERO PUSH2 0x1FD4 JUMPI PUSH2 0x1FD3 PUSH2 0x1E3F JUMP JUMPDEST JUMPDEST PUSH0 PUSH2 0x1FE1 DUP6 DUP3 DUP7 ADD PUSH2 0x1FAA JUMP JUMPDEST SWAP3 POP POP PUSH1 0x20 PUSH2 0x1FF2 DUP6 DUP3 DUP7 ADD PUSH2 0x1FAA JUMP JUMPDEST SWAP2 POP POP SWAP3 POP SWAP3 SWAP1 POP JUMP JUMPDEST PUSH0 PUSH2 0x2006 DUP3 PUSH2 0x1F4A JUMP JUMPDEST SWAP1 POP SWAP2 SWAP1 POP JUMP JUMPDEST PUSH2 0x2016 DUP2 PUSH2 0x1FFC JUMP JUMPDEST DUP3 MSTORE POP POP JUMP JUMPDEST PUSH0 PUSH1 0x20 DUP3 ADD SWAP1 POP PUSH2 0x202F PUSH0 DUP4 ADD DUP5 PUSH2 0x200D JUMP JUMPDEST SWAP3 SWAP2 POP POP JUMP JUMPDEST PUSH0 PUSH1 0x20 DUP3 DUP5 SUB SLT ISZERO PUSH2 0x204A JUMPI PUSH2 0x2049 PUSH2 0x1E3F JUMP JUMPDEST JUMPDEST PUSH0 PUSH2 0x2057 DUP5 DUP3 DUP6 ADD PUSH2 0x1FAA JUMP JUMPDEST SWAP2 POP POP SWAP3 SWAP2 POP POP JUMP JUMPDEST PUSH2 0x2069 DUP2 PUSH2 0x1E62 JUMP JUMPDEST DUP3 MSTORE POP POP JUMP JUMPDEST PUSH0 PUSH1 0x20 DUP3 ADD SWAP1 POP PUSH2 0x2082 PUSH0 DUP4 ADD DUP5 PUSH2 0x2060 JUMP JUMPDEST SWAP3 SWAP2 POP POP JUMP JUMPDEST PUSH0 DUP2 MLOAD SWAP1 POP PUSH2 0x2096 DUP2 PUSH2 0x1F94 JUMP JUMPDEST SWAP3 SWAP2 POP POP JUMP JUMPDEST PUSH0 PUSH1 0x20 DUP3 DUP5 SUB SLT ISZERO PUSH2 0x20B1 JUMPI PUSH2 0x20B0 PUSH2 0x1E3F JUMP JUMPDEST JUMPDEST PUSH0 PUSH2 0x20BE DUP5 DUP3 DUP6 ADD PUSH2 0x2088 JUMP JUMPDEST SWAP2 POP POP SWAP3 SWAP2 POP POP JUMP JUMPDEST PUSH0 DUP3 DUP3 MSTORE PUSH1 0x20 DUP3 ADD SWAP1 POP SWAP3 SWAP2 POP POP JUMP JUMPDEST PUSH32 0x496E76616C696420696E70757420616D6F756E74000000000000000000000000 PUSH0 DUP3 ADD MSTORE POP JUMP JUMPDEST PUSH0 PUSH2 0x210B PUSH1 0x14 DUP4 PUSH2 0x20C7 JUMP JUMPDEST SWAP2 POP PUSH2 0x2116 DUP3 PUSH2 0x20D7 JUMP JUMPDEST PUSH1 0x20 DUP3 ADD SWAP1 POP SWAP2 SWAP1 POP JUMP JUMPDEST PUSH0 PUSH1 0x20 DUP3 ADD SWAP1 POP DUP2 DUP2 SUB PUSH0 DUP4 ADD MSTORE PUSH2 0x2138 DUP2 PUSH2 0x20FF JUMP JUMPDEST SWAP1 POP SWAP2 SWAP1 POP JUMP JUMPDEST PUSH32 0x457870656374656420736C697070616765206E6F742073657400000000000000 PUSH0 DUP3 ADD MSTORE POP JUMP JUMPDEST PUSH0 PUSH2 0x2173 PUSH1 0x19 DUP4 PUSH2 0x20C7 JUMP JUMPDEST SWAP2 POP PUSH2 0x217E DUP3 PUSH2 0x213F JUMP JUMPDEST PUSH1 0x20 DUP3 ADD SWAP1 POP SWAP2 SWAP1 POP JUMP JUMPDEST PUSH0 PUSH1 0x20 DUP3 ADD SWAP1 POP DUP2 DUP2 SUB PUSH0 DUP4 ADD MSTORE PUSH2 0x21A0 DUP2 PUSH2 0x2167 JUMP JUMPDEST SWAP1 POP SWAP2 SWAP1 POP JUMP JUMPDEST PUSH32 0x4E487B7100000000000000000000000000000000000000000000000000000000 PUSH0 MSTORE PUSH1 0x11 PUSH1 0x4 MSTORE PUSH1 0x24 PUSH0 REVERT JUMPDEST PUSH0 PUSH2 0x21DE DUP3 PUSH2 0x1EC8 JUMP JUMPDEST SWAP2 POP PUSH2 0x21E9 DUP4 PUSH2 0x1EC8 JUMP JUMPDEST SWAP3 POP DUP3 DUP3 MUL PUSH2 0x21F7 DUP2 PUSH2 0x1EC8 JUMP JUMPDEST SWAP2 POP DUP3 DUP3 DIV DUP5 EQ DUP4 ISZERO OR PUSH2 0x220E JUMPI PUSH2 0x220D PUSH2 0x21A7 JUMP JUMPDEST JUMPDEST POP SWAP3 SWAP2 POP POP JUMP JUMPDEST PUSH32 0x4E487B7100000000000000000000000000000000000000000000000000000000 PUSH0 MSTORE PUSH1 0x12 PUSH1 0x4 MSTORE PUSH1 0x24 PUSH0 REVERT JUMPDEST PUSH0 PUSH2 0x224C DUP3 PUSH2 0x1EC8 JUMP JUMPDEST SWAP2 POP PUSH2 0x2257 DUP4 PUSH2 0x1EC8 JUMP JUMPDEST SWAP3 POP DUP3 PUSH2 0x2267 JUMPI PUSH2 0x2266 PUSH2 0x2215 JUMP JUMPDEST JUMPDEST DUP3 DUP3 DIV SWAP1 POP SWAP3 SWAP2 POP POP JUMP JUMPDEST PUSH0 PUSH2 0x227C DUP3 PUSH2 0x1EC8 JUMP JUMPDEST SWAP2 POP PUSH2 0x2287 DUP4 PUSH2 0x1EC8 JUMP JUMPDEST SWAP3 POP DUP3 DUP3 SUB SWAP1 POP DUP2 DUP2 GT ISZERO PUSH2 0x229F JUMPI PUSH2 0x229E PUSH2 0x21A7 JUMP JUMPDEST JUMPDEST SWAP3 SWAP2 POP POP JUMP JUMPDEST PUSH32 0x61637475616C20736C69707061676520697320746F6F20686967680000000000 PUSH0 DUP3 ADD MSTORE POP JUMP JUMPDEST PUSH0 PUSH2 0x22D9 PUSH1 0x1B DUP4 PUSH2 0x20C7 JUMP JUMPDEST SWAP2 POP PUSH2 0x22E4 DUP3 PUSH2 0x22A5 JUMP JUMPDEST PUSH1 0x20 DUP3 ADD SWAP1 POP SWAP2 SWAP1 POP JUMP JUMPDEST PUSH0 PUSH1 0x20 DUP3 ADD SWAP1 POP DUP2 DUP2 SUB PUSH0 DUP4 ADD MSTORE PUSH2 0x2306 DUP2 PUSH2 0x22CD JUMP JUMPDEST SWAP1 POP SWAP2 SWAP1 POP JUMP JUMPDEST PUSH0 PUSH2 0x2317 DUP3 PUSH2 0x1EC8 JUMP JUMPDEST SWAP2 POP PUSH2 0x2322 DUP4 PUSH2 0x1EC8 JUMP JUMPDEST SWAP3 POP DUP3 DUP3 ADD SWAP1 POP DUP1 DUP3 GT ISZERO PUSH2 0x233A JUMPI PUSH2 0x2339 PUSH2 0x21A7 JUMP JUMPDEST JUMPDEST SWAP3 SWAP2 POP POP JUMP JUMPDEST PUSH0 PUSH1 0x60 DUP3 ADD SWAP1 POP PUSH2 0x2353 PUSH0 DUP4 ADD DUP7 PUSH2 0x2060 JUMP JUMPDEST PUSH2 0x2360 PUSH1 0x20 DUP4 ADD DUP6 PUSH2 0x2060 JUMP JUMPDEST PUSH2 0x236D PUSH1 0x40 DUP4 ADD DUP5 PUSH2 0x1ED1 JUMP JUMPDEST SWAP5 SWAP4 POP POP POP POP JUMP JUMPDEST PUSH0 DUP2 ISZERO ISZERO SWAP1 POP SWAP2 SWAP1 POP JUMP JUMPDEST PUSH2 0x2389 DUP2 PUSH2 0x2375 JUMP JUMPDEST DUP2 EQ PUSH2 0x2393 JUMPI PUSH0 DUP1 REVERT JUMPDEST POP JUMP JUMPDEST PUSH0 DUP2 MLOAD SWAP1 POP PUSH2 0x23A4 DUP2 PUSH2 0x2380 JUMP JUMPDEST SWAP3 SWAP2 POP POP JUMP JUMPDEST PUSH0 PUSH1 0x20 DUP3 DUP5 SUB SLT ISZERO PUSH2 0x23BF JUMPI PUSH2 0x23BE PUSH2 0x1E3F JUMP JUMPDEST JUMPDEST PUSH0 PUSH2 0x23CC DUP5 DUP3 DUP6 ADD PUSH2 0x2396 JUMP JUMPDEST SWAP2 POP POP SWAP3 SWAP2 POP POP JUMP JUMPDEST PUSH32 0x546F6B656E2042207472616E73666572206661696C6564000000000000000000 PUSH0 DUP3 ADD MSTORE POP JUMP JUMPDEST PUSH0 PUSH2 0x2409 PUSH1 0x17 DUP4 PUSH2 0x20C7 JUMP JUMPDEST SWAP2 POP PUSH2 0x2414 DUP3 PUSH2 0x23D5 JUMP JUMPDEST PUSH1 0x20 DUP3 ADD SWAP1 POP SWAP2 SWAP1 POP JUMP JUMPDEST PUSH0 PUSH1 0x20 DUP3 ADD SWAP1 POP DUP2 DUP2 SUB PUSH0 DUP4 ADD MSTORE PUSH2 0x2436 DUP2 PUSH2 0x23FD JUMP JUMPDEST SWAP1 POP SWAP2 SWAP1 POP JUMP JUMPDEST PUSH0 PUSH1 0x40 DUP3 ADD SWAP1 POP PUSH2 0x2450 PUSH0 DUP4 ADD DUP6 PUSH2 0x2060 JUMP JUMPDEST PUSH2 0x245D PUSH1 0x20 DUP4 ADD DUP5 PUSH2 0x1ED1 JUMP JUMPDEST SWAP4 SWAP3 POP POP POP JUMP JUMPDEST PUSH32 0x546F6B656E2041207472616E73666572206661696C6564000000000000000000 PUSH0 DUP3 ADD MSTORE POP JUMP JUMPDEST PUSH0 PUSH2 0x2498 PUSH1 0x17 DUP4 PUSH2 0x20C7 JUMP JUMPDEST SWAP2 POP PUSH2 0x24A3 DUP3 PUSH2 0x2464 JUMP JUMPDEST PUSH1 0x20 DUP3 ADD SWAP1 POP SWAP2 SWAP1 POP JUMP JUMPDEST PUSH0 PUSH1 0x20 DUP3 ADD SWAP1 POP DUP2 DUP2 SUB PUSH0 DUP4 ADD MSTORE PUSH2 0x24C5 DUP2 PUSH2 0x248C JUMP JUMPDEST SWAP1 POP SWAP2 SWAP1 POP JUMP JUMPDEST PUSH32 0x4E6F7420617574686F72697A6564000000000000000000000000000000000000 PUSH0 DUP3 ADD MSTORE POP JUMP JUMPDEST PUSH0 PUSH2 0x2500 PUSH1 0xE DUP4 PUSH2 0x20C7 JUMP JUMPDEST SWAP2 POP PUSH2 0x250B DUP3 PUSH2 0x24CC JUMP JUMPDEST PUSH1 0x20 DUP3 ADD SWAP1 POP SWAP2 SWAP1 POP JUMP JUMPDEST PUSH0 PUSH1 0x20 DUP3 ADD SWAP1 POP DUP2 DUP2 SUB PUSH0 DUP4 ADD MSTORE PUSH2 0x252D DUP2 PUSH2 0x24F4 JUMP JUMPDEST SWAP1 POP SWAP2 SWAP1 POP JUMP JUMPDEST PUSH32 0x6661696C65640000000000000000000000000000000000000000000000000000 PUSH0 DUP3 ADD MSTORE POP JUMP JUMPDEST PUSH0 PUSH2 0x2568 PUSH1 0x6 DUP4 PUSH2 0x20C7 JUMP JUMPDEST SWAP2 POP PUSH2 0x2573 DUP3 PUSH2 0x2534 JUMP JUMPDEST PUSH1 0x20 DUP3 ADD SWAP1 POP SWAP2 SWAP1 POP JUMP JUMPDEST PUSH0 PUSH1 0x20 DUP3 ADD SWAP1 POP DUP2 DUP2 SUB PUSH0 DUP4 ADD MSTORE PUSH2 0x2595 DUP2 PUSH2 0x255C JUMP JUMPDEST SWAP1 POP SWAP2 SWAP1 POP JUMP JUMPDEST PUSH32 0x206661696C656400000000000000000000000000000000000000000000000000 PUSH0 DUP3 ADD MSTORE POP JUMP JUMPDEST PUSH0 PUSH2 0x25D0 PUSH1 0x7 DUP4 PUSH2 0x20C7 JUMP JUMPDEST SWAP2 POP PUSH2 0x25DB DUP3 PUSH2 0x259C JUMP JUMPDEST PUSH1 0x20 DUP3 ADD SWAP1 POP SWAP2 SWAP1 POP JUMP JUMPDEST PUSH0 PUSH1 0x20 DUP3 ADD SWAP1 POP DUP2 DUP2 SUB PUSH0 DUP4 ADD MSTORE PUSH2 0x25FD DUP2 PUSH2 0x25C4 JUMP JUMPDEST SWAP1 POP SWAP2 SWAP1 POP JUMP JUMPDEST PUSH32 0x6769766520636F72726563742076616C75650000000000000000000000000000 PUSH0 DUP3 ADD MSTORE POP JUMP JUMPDEST PUSH0 PUSH2 0x2638 PUSH1 0x12 DUP4 PUSH2 0x20C7 JUMP JUMPDEST SWAP2 POP PUSH2 0x2643 DUP3 PUSH2 0x2604 JUMP JUMPDEST PUSH1 0x20 DUP3 ADD SWAP1 POP SWAP2 SWAP1 POP JUMP JUMPDEST PUSH0 PUSH1 0x20 DUP3 ADD SWAP1 POP DUP2 DUP2 SUB PUSH0 DUP4 ADD MSTORE PUSH2 0x2665 DUP2 PUSH2 0x262C JUMP JUMPDEST SWAP1 POP SWAP2 SWAP1 POP JUMP JUMPDEST PUSH32 0x496E76616C696420616D6F756E74000000000000000000000000000000000000 PUSH0 DUP3 ADD MSTORE POP JUMP JUMPDEST PUSH0 PUSH2 0x26A0 PUSH1 0xE DUP4 PUSH2 0x20C7 JUMP JUMPDEST SWAP2 POP PUSH2 0x26AB DUP3 PUSH2 0x266C JUMP JUMPDEST PUSH1 0x20 DUP3 ADD SWAP1 POP SWAP2 SWAP1 POP JUMP JUMPDEST PUSH0 PUSH1 0x20 DUP3 ADD SWAP1 POP DUP2 DUP2 SUB PUSH0 DUP4 ADD MSTORE PUSH2 0x26CD DUP2 PUSH2 0x2694 JUMP JUMPDEST SWAP1 POP SWAP2 SWAP1 POP JUMP JUMPDEST PUSH32 0x496E73756666696369656E74206C697175696469747900000000000000000000 PUSH0 DUP3 ADD MSTORE POP JUMP JUMPDEST PUSH0 PUSH2 0x2708 PUSH1 0x16 DUP4 PUSH2 0x20C7 JUMP JUMPDEST SWAP2 POP PUSH2 0x2713 DUP3 PUSH2 0x26D4 JUMP JUMPDEST PUSH1 0x20 DUP3 ADD SWAP1 POP SWAP2 SWAP1 POP JUMP JUMPDEST PUSH0 PUSH1 0x20 DUP3 ADD SWAP1 POP DUP2 DUP2 SUB PUSH0 DUP4 ADD MSTORE PUSH2 0x2735 DUP2 PUSH2 0x26FC JUMP JUMPDEST SWAP1 POP SWAP2 SWAP1 POP JUMP JUMPDEST PUSH32 0x4E6F206C69717569646974790000000000000000000000000000000000000000 PUSH0 DUP3 ADD MSTORE POP JUMP JUMPDEST PUSH0 PUSH2 0x2770 PUSH1 0xC DUP4 PUSH2 0x20C7 JUMP JUMPDEST SWAP2 POP PUSH2 0x277B DUP3 PUSH2 0x273C JUMP JUMPDEST PUSH1 0x20 DUP3 ADD SWAP1 POP SWAP2 SWAP1 POP JUMP JUMPDEST PUSH0 PUSH1 0x20 DUP3 ADD SWAP1 POP DUP2 DUP2 SUB PUSH0 DUP4 ADD MSTORE PUSH2 0x279D DUP2 PUSH2 0x2764 JUMP JUMPDEST SWAP1 POP SWAP2 SWAP1 POP JUMP JUMPDEST PUSH32 0x496E76616C6964206C697175696469747920616D6F756E740000000000000000 PUSH0 DUP3 ADD MSTORE POP JUMP JUMPDEST PUSH0 PUSH2 0x27D8 PUSH1 0x18 DUP4 PUSH2 0x20C7 JUMP JUMPDEST SWAP2 POP PUSH2 0x27E3 DUP3 PUSH2 0x27A4 JUMP JUMPDEST PUSH1 0x20 DUP3 ADD SWAP1 POP SWAP2 SWAP1 POP JUMP JUMPDEST PUSH0 PUSH1 0x20 DUP3 ADD SWAP1 POP DUP2 DUP2 SUB PUSH0 DUP4 ADD MSTORE PUSH2 0x2805 DUP2 PUSH2 0x27CC JUMP JUMPDEST SWAP1 POP SWAP2 SWAP1 POP JUMP JUMPDEST PUSH32 0x4E6F7420656E6F756768204C5020746F6B656E73000000000000000000000000 PUSH0 DUP3 ADD MSTORE POP JUMP JUMPDEST PUSH0 PUSH2 0x2840 PUSH1 0x14 DUP4 PUSH2 0x20C7 JUMP JUMPDEST SWAP2 POP PUSH2 0x284B DUP3 PUSH2 0x280C JUMP JUMPDEST PUSH1 0x20 DUP3 ADD SWAP1 POP SWAP2 SWAP1 POP JUMP JUMPDEST PUSH0 PUSH1 0x20 DUP3 ADD SWAP1 POP DUP2 DUP2 SUB PUSH0 DUP4 ADD MSTORE PUSH2 0x286D DUP2 PUSH2 0x2834 JUMP JUMPDEST SWAP1 POP SWAP2 SWAP1 POP JUMP JUMPDEST PUSH32 0x496E73756666696369656E7420616D6F756E7420746F20776974686472617700 PUSH0 DUP3 ADD MSTORE POP JUMP JUMPDEST PUSH0 PUSH2 0x28A8 PUSH1 0x1F DUP4 PUSH2 0x20C7 JUMP JUMPDEST SWAP2 POP PUSH2 0x28B3 DUP3 PUSH2 0x2874 JUMP JUMPDEST PUSH1 0x20 DUP3 ADD SWAP1 POP SWAP2 SWAP1 POP JUMP JUMPDEST PUSH0 PUSH1 0x20 DUP3 ADD SWAP1 POP DUP2 DUP2 SUB PUSH0 DUP4 ADD MSTORE PUSH2 0x28D5 DUP2 PUSH2 0x289C JUMP JUMPDEST SWAP1 POP SWAP2 SWAP1 POP JUMP JUMPDEST PUSH32 0x496E76616C696420616D6F756E74730000000000000000000000000000000000 PUSH0 DUP3 ADD MSTORE POP JUMP JUMPDEST PUSH0 PUSH2 0x2910 PUSH1 0xF DUP4 PUSH2 0x20C7 JUMP JUMPDEST SWAP2 POP PUSH2 0x291B DUP3 PUSH2 0x28DC JUMP JUMPDEST PUSH1 0x20 DUP3 ADD SWAP1 POP SWAP2 SWAP1 POP JUMP JUMPDEST PUSH0 PUSH1 0x20 DUP3 ADD SWAP1 POP DUP2 DUP2 SUB PUSH0 DUP4 ADD MSTORE PUSH2 0x293D DUP2 PUSH2 0x2904 JUMP JUMPDEST SWAP1 POP SWAP2 SWAP1 POP JUMP JUMPDEST PUSH32 0x546F6B656E41207472616E73666572206661696C656400000000000000000000 PUSH0 DUP3 ADD MSTORE POP JUMP JUMPDEST PUSH0 PUSH2 0x2978 PUSH1 0x16 DUP4 PUSH2 0x20C7 JUMP JUMPDEST SWAP2 POP PUSH2 0x2983 DUP3 PUSH2 0x2944 JUMP JUMPDEST PUSH1 0x20 DUP3 ADD SWAP1 POP SWAP2 SWAP1 POP JUMP JUMPDEST PUSH0 PUSH1 0x20 DUP3 ADD SWAP1 POP DUP2 DUP2 SUB PUSH0 DUP4 ADD MSTORE PUSH2 0x29A5 DUP2 PUSH2 0x296C JUMP JUMPDEST SWAP1 POP SWAP2 SWAP1 POP JUMP JUMPDEST PUSH32 0x546F6B656E42207472616E73666572206661696C656400000000000000000000 PUSH0 DUP3 ADD MSTORE POP JUMP JUMPDEST PUSH0 PUSH2 0x29E0 PUSH1 0x16 DUP4 PUSH2 0x20C7 JUMP JUMPDEST SWAP2 POP PUSH2 0x29EB DUP3 PUSH2 0x29AC JUMP JUMPDEST PUSH1 0x20 DUP3 ADD SWAP1 POP SWAP2 SWAP1 POP JUMP JUMPDEST PUSH0 PUSH1 0x20 DUP3 ADD SWAP1 POP DUP2 DUP2 SUB PUSH0 DUP4 ADD MSTORE PUSH2 0x2A0D DUP2 PUSH2 0x29D4 JUMP JUMPDEST SWAP1 POP SWAP2 SWAP1 POP JUMP JUMPDEST PUSH0 PUSH1 0x60 DUP3 ADD SWAP1 POP PUSH2 0x2A27 PUSH0 DUP4 ADD DUP7 PUSH2 0x1ED1 JUMP JUMPDEST PUSH2 0x2A34 PUSH1 0x20 DUP4 ADD DUP6 PUSH2 0x1ED1 JUMP JUMPDEST PUSH2 0x2A41 PUSH1 0x40 DUP4 ADD DUP5 PUSH2 0x2060 JUMP JUMPDEST SWAP5 SWAP4 POP POP POP POP JUMP JUMPDEST PUSH32 0x46656520746F6F20686967680000000000000000000000000000000000000000 PUSH0 DUP3 ADD MSTORE POP JUMP JUMPDEST PUSH0 PUSH2 0x2A7D PUSH1 0xC DUP4 PUSH2 0x20C7 JUMP JUMPDEST SWAP2 POP PUSH2 0x2A88 DUP3 PUSH2 0x2A49 JUMP JUMPDEST PUSH1 0x20 DUP3 ADD SWAP1 POP SWAP2 SWAP1 POP JUMP JUMPDEST PUSH0 PUSH1 0x20 DUP3 ADD SWAP1 POP DUP2 DUP2 SUB PUSH0 DUP4 ADD MSTORE PUSH2 0x2AAA DUP2 PUSH2 0x2A71 JUMP JUMPDEST SWAP1 POP SWAP2 SWAP1 POP JUMP JUMPDEST PUSH32 0x696E76616C696420736C69707061676500000000000000000000000000000000 PUSH0 DUP3 ADD MSTORE POP JUMP JUMPDEST PUSH0 PUSH2 0x2AE5 PUSH1 0x10 DUP4 PUSH2 0x20C7 JUMP JUMPDEST SWAP2 POP PUSH2 0x2AF0 DUP3 PUSH2 0x2AB1 JUMP JUMPDEST PUSH1 0x20 DUP3 ADD SWAP1 POP SWAP2 SWAP1 POP JUMP JUMPDEST PUSH0 PUSH1 0x20 DUP3 ADD SWAP1 POP DUP2 DUP2 SUB PUSH0 DUP4 ADD MSTORE PUSH2 0x2B12 DUP2 PUSH2 0x2AD9 JUMP JUMPDEST SWAP1 POP SWAP2 SWAP1 POP JUMP INVALID LOG2 PUSH5 0x6970667358 0x22 SLT KECCAK256 0xD6 SELFBALANCE CREATE MCOPY PUSH7 0x4EF96E393EE0E2 0xBE SWAP14 0x4B PUSH25 0x9C7F4BF42ACC0E214090D4699D39B664736F6C634300081A STOP CALLER PUSH1 0x80 PUSH1 0x40 MSTORE CALLVALUE DUP1 ISZERO PUSH2 0xF JUMPI PUSH0 DUP1 REVERT JUMPDEST POP PUSH1 0x40 MLOAD DUP1 PUSH1 0x40 ADD PUSH1 0x40 MSTORE DUP1 PUSH1 0x18 DUP2 MSTORE PUSH1 0x20 ADD PUSH32 0x4C69717569646974792050726F766964657220546F6B656E0000000000000000 DUP2 MSTORE POP PUSH1 0x40 MLOAD DUP1 PUSH1 0x40 ADD PUSH1 0x40 MSTORE DUP1 PUSH1 0x3 DUP2 MSTORE PUSH1 0x20 ADD PUSH32 0x4C50540000000000000000000000000000000000000000000000000000000000 DUP2 MSTORE POP DUP2 PUSH1 0x3 SWAP1 DUP2 PUSH2 0x8B SWAP2 SWAP1 PUSH2 0x31D JUMP JUMPDEST POP DUP1 PUSH1 0x4 SWAP1 DUP2 PUSH2 0x9B SWAP2 SWAP1 PUSH2 0x31D JUMP JUMPDEST POP POP POP CALLER PUSH1 0x5 PUSH0 PUSH2 0x100 EXP DUP2 SLOAD DUP2 PUSH20 0xFFFFFFFFFFFFFFFFFFFFFFFFFFFFFFFFFFFFFFFF MUL NOT AND SWAP1 DUP4 PUSH20 0xFFFFFFFFFFFFFFFFFFFFFFFFFFFFFFFFFFFFFFFF AND MUL OR SWAP1 SSTORE POP PUSH2 0x3EC JUMP JUMPDEST PUSH0 DUP2 MLOAD SWAP1 POP SWAP2 SWAP1 POP JUMP JUMPDEST PUSH32 0x4E487B7100000000000000000000000000000000000000000000000000000000 PUSH0 MSTORE PUSH1 0x41 PUSH1 0x4 MSTORE PUSH1 0x24 PUSH0 REVERT JUMPDEST PUSH32 0x4E487B7100000000000000000000000000000000000000000000000000000000 PUSH0 MSTORE PUSH1 0x22 PUSH1 0x4 MSTORE PUSH1 0x24 PUSH0 REVERT JUMPDEST PUSH0 PUSH1 0x2 DUP3 DIV SWAP1 POP PUSH1 0x1 DUP3 AND DUP1 PUSH2 0x15E JUMPI PUSH1 0x7F DUP3 AND SWAP2 POP JUMPDEST PUSH1 0x20 DUP3 LT DUP2 SUB PUSH2 0x171 JUMPI PUSH2 0x170 PUSH2 0x11A JUMP JUMPDEST JUMPDEST POP SWAP2 SWAP1 POP JUMP JUMPDEST PUSH0 DUP2 SWAP1 POP DUP2 PUSH0 MSTORE PUSH1 0x20 PUSH0 KECCAK256 SWAP1 POP SWAP2 SWAP1 POP JUMP JUMPDEST PUSH0 PUSH1 0x20 PUSH1 0x1F DUP4 ADD DIV SWAP1 POP SWAP2 SWAP1 POP JUMP JUMPDEST PUSH0 DUP3 DUP3 SHL SWAP1 POP SWAP3 SWAP2 POP POP JUMP JUMPDEST PUSH0 PUSH1 0x8 DUP4 MUL PUSH2 0x1D3 PUSH32 0xFFFFFFFFFFFFFFFFFFFFFFFFFFFFFFFFFFFFFFFFFFFFFFFFFFFFFFFFFFFFFFFF DUP3 PUSH2 0x198 JUMP JUMPDEST PUSH2 0x1DD DUP7 DUP4 PUSH2 0x198 JUMP JUMPDEST SWAP6 POP DUP1 NOT DUP5 AND SWAP4 POP DUP1 DUP7 AND DUP5 OR SWAP3 POP POP POP SWAP4 SWAP3 POP POP POP JUMP JUMPDEST PUSH0 DUP2 SWAP1 POP SWAP2 SWAP1 POP JUMP JUMPDEST PUSH0 DUP2 SWAP1 POP SWAP2 SWAP1 POP JUMP JUMPDEST PUSH0 PUSH2 0x221 PUSH2 0x21C PUSH2 0x217 DUP5 PUSH2 0x1F5 JUMP JUMPDEST PUSH2 0x1FE JUMP JUMPDEST PUSH2 0x1F5 JUMP JUMPDEST SWAP1 POP SWAP2 SWAP1 POP JUMP JUMPDEST PUSH0 DUP2 SWAP1 POP SWAP2 SWAP1 POP JUMP JUMPDEST PUSH2 0x23A DUP4 PUSH2 0x207 JUMP JUMPDEST PUSH2 0x24E PUSH2 0x246 DUP3 PUSH2 0x228 JUMP JUMPDEST DUP5 DUP5 SLOAD PUSH2 0x1A4 JUMP JUMPDEST DUP3 SSTORE POP POP POP POP JUMP JUMPDEST PUSH0 SWAP1 JUMP JUMPDEST PUSH2 0x262 PUSH2 0x256 JUMP JUMPDEST PUSH2 0x26D DUP2 DUP5 DUP5 PUSH2 0x231 JUMP JUMPDEST POP POP POP JUMP JUMPDEST JUMPDEST DUP2 DUP2 LT ISZERO PUSH2 0x290 JUMPI PUSH2 0x285 PUSH0 DUP3 PUSH2 0x25A JUMP JUMPDEST PUSH1 0x1 DUP2 ADD SWAP1 POP PUSH2 0x273 JUMP JUMPDEST POP POP JUMP JUMPDEST PUSH1 0x1F DUP3 GT ISZERO PUSH2 0x2D5 JUMPI PUSH2 0x2A6 DUP2 PUSH2 0x177 JUMP JUMPDEST PUSH2 0x2AF DUP5 PUSH2 0x189 JUMP JUMPDEST DUP2 ADD PUSH1 0x20 DUP6 LT ISZERO PUSH2 0x2BE JUMPI DUP2 SWAP1 POP JUMPDEST PUSH2 0x2D2 PUSH2 0x2CA DUP6 PUSH2 0x189 JUMP JUMPDEST DUP4 ADD DUP3 PUSH2 0x272 JUMP JUMPDEST POP POP JUMPDEST POP POP POP JUMP JUMPDEST PUSH0 DUP3 DUP3 SHR SWAP1 POP SWAP3 SWAP2 POP POP JUMP JUMPDEST PUSH0 PUSH2 0x2F5 PUSH0 NOT DUP5 PUSH1 0x8 MUL PUSH2 0x2DA JUMP JUMPDEST NOT DUP1 DUP4 AND SWAP2 POP POP SWAP3 SWAP2 POP POP JUMP JUMPDEST PUSH0 PUSH2 0x30D DUP4 DUP4 PUSH2 0x2E6 JUMP JUMPDEST SWAP2 POP DUP3 PUSH1 0x2 MUL DUP3 OR SWAP1 POP SWAP3 SWAP2 POP POP JUMP JUMPDEST PUSH2 0x326 DUP3 PUSH2 0xE3 JUMP JUMPDEST PUSH8 0xFFFFFFFFFFFFFFFF DUP2 GT ISZERO PUSH2 0x33F JUMPI PUSH2 0x33E PUSH2 0xED JUMP JUMPDEST JUMPDEST PUSH2 0x349 DUP3 SLOAD PUSH2 0x147 JUMP JUMPDEST PUSH2 0x354 DUP3 DUP3 DUP6 PUSH2 0x294 JUMP JUMPDEST PUSH0 PUSH1 0x20 SWAP1 POP PUSH1 0x1F DUP4 GT PUSH1 0x1 DUP2 EQ PUSH2 0x385 JUMPI PUSH0 DUP5 ISZERO PUSH2 0x373 JUMPI DUP3 DUP8 ADD MLOAD SWAP1 POP JUMPDEST PUSH2 0x37D DUP6 DUP3 PUSH2 0x302 JUMP JUMPDEST DUP7 SSTORE POP PUSH2 0x3E4 JUMP JUMPDEST PUSH1 0x1F NOT DUP5 AND PUSH2 0x393 DUP7 PUSH2 0x177 JUMP JUMPDEST PUSH0 JUMPDEST DUP3 DUP2 LT ISZERO PUSH2 0x3BA JUMPI DUP5 DUP10 ADD MLOAD DUP3 SSTORE PUSH1 0x1 DUP3 ADD SWAP2 POP PUSH1 0x20 DUP6 ADD SWAP5 POP PUSH1 0x20 DUP2 ADD SWAP1 POP PUSH2 0x395 JUMP JUMPDEST DUP7 DUP4 LT ISZERO PUSH2 0x3D7 JUMPI DUP5 DUP10 ADD MLOAD PUSH2 0x3D3 PUSH1 0x1F DUP10 AND DUP3 PUSH2 0x2E6 JUMP JUMPDEST DUP4 SSTORE POP JUMPDEST PUSH1 0x1 PUSH1 0x2 DUP9 MUL ADD DUP9 SSTORE POP POP POP JUMPDEST POP POP POP POP POP POP JUMP JUMPDEST PUSH2 0x1186 DUP1 PUSH2 0x3F9 PUSH0 CODECOPY PUSH0 RETURN INVALID PUSH1 0x80 PUSH1 0x40 MSTORE CALLVALUE DUP1 ISZERO PUSH2 0xF JUMPI PUSH0 DUP1 REVERT JUMPDEST POP PUSH1 0x4 CALLDATASIZE LT PUSH2 0xB2 JUMPI PUSH0 CALLDATALOAD PUSH1 0xE0 SHR DUP1 PUSH4 0x40C10F19 GT PUSH2 0x6F JUMPI DUP1 PUSH4 0x40C10F19 EQ PUSH2 0x18E JUMPI DUP1 PUSH4 0x70A08231 EQ PUSH2 0x1AA JUMPI DUP1 PUSH4 0x95D89B41 EQ PUSH2 0x1DA JUMPI DUP1 PUSH4 0x9DC29FAC EQ PUSH2 0x1F8 JUMPI DUP1 PUSH4 0xA9059CBB EQ PUSH2 0x214 JUMPI DUP1 PUSH4 0xDD62ED3E EQ PUSH2 0x244 JUMPI PUSH2 0xB2 JUMP JUMPDEST DUP1 PUSH4 0x6FDDE03 EQ PUSH2 0xB6 JUMPI DUP1 PUSH4 0x95EA7B3 EQ PUSH2 0xD4 JUMPI DUP1 PUSH4 0x16F0115B EQ PUSH2 0x104 JUMPI DUP1 PUSH4 0x18160DDD EQ PUSH2 0x122 JUMPI DUP1 PUSH4 0x23B872DD EQ PUSH2 0x140 JUMPI DUP1 PUSH4 0x313CE567 EQ PUSH2 0x170 JUMPI JUMPDEST PUSH0 DUP1 REVERT JUMPDEST PUSH2 0xBE PUSH2 0x274 JUMP JUMPDEST PUSH1 0x40 MLOAD PUSH2 0xCB SWAP2 SWAP1 PUSH2 0xD2F JUMP JUMPDEST PUSH1 0x40 MLOAD DUP1 SWAP2 SUB SWAP1 RETURN JUMPDEST PUSH2 0xEE PUSH1 0x4 DUP1 CALLDATASIZE SUB DUP2 ADD SWAP1 PUSH2 0xE9 SWAP2 SWAP1 PUSH2 0xDE0 JUMP JUMPDEST PUSH2 0x304 JUMP JUMPDEST PUSH1 0x40 MLOAD PUSH2 0xFB SWAP2 SWAP1 PUSH2 0xE38 JUMP JUMPDEST PUSH1 0x40 MLOAD DUP1 SWAP2 SUB SWAP1 RETURN JUMPDEST PUSH2 0x10C PUSH2 0x326 JUMP JUMPDEST PUSH1 0x40 MLOAD PUSH2 0x119 SWAP2 SWAP1 PUSH2 0xE60 JUMP JUMPDEST PUSH1 0x40 MLOAD DUP1 SWAP2 SUB SWAP1 RETURN JUMPDEST PUSH2 0x12A PUSH2 0x34B JUMP JUMPDEST PUSH1 0x40 MLOAD PUSH2 0x137 SWAP2 SWAP1 PUSH2 0xE88 JUMP JUMPDEST PUSH1 0x40 MLOAD DUP1 SWAP2 SUB SWAP1 RETURN JUMPDEST PUSH2 0x15A PUSH1 0x4 DUP1 CALLDATASIZE SUB DUP2 ADD SWAP1 PUSH2 0x155 SWAP2 SWAP1 PUSH2 0xEA1 JUMP JUMPDEST PUSH2 0x354 JUMP JUMPDEST PUSH1 0x40 MLOAD PUSH2 0x167 SWAP2 SWAP1 PUSH2 0xE38 JUMP JUMPDEST PUSH1 0x40 MLOAD DUP1 SWAP2 SUB SWAP1 RETURN JUMPDEST PUSH2 0x178 PUSH2 0x382 JUMP JUMPDEST PUSH1 0x40 MLOAD PUSH2 0x185 SWAP2 SWAP1 PUSH2 0xF0C JUMP JUMPDEST PUSH1 0x40 MLOAD DUP1 SWAP2 SUB SWAP1 RETURN JUMPDEST PUSH2 0x1A8 PUSH1 0x4 DUP1 CALLDATASIZE SUB DUP2 ADD SWAP1 PUSH2 0x1A3 SWAP2 SWAP1 PUSH2 0xDE0 JUMP JUMPDEST PUSH2 0x38A JUMP JUMPDEST STOP JUMPDEST PUSH2 0x1C4 PUSH1 0x4 DUP1 CALLDATASIZE SUB DUP2 ADD SWAP1 PUSH2 0x1BF SWAP2 SWAP1 PUSH2 0xF25 JUMP JUMPDEST PUSH2 0x427 JUMP JUMPDEST PUSH1 0x40 MLOAD PUSH2 0x1D1 SWAP2 SWAP1 PUSH2 0xE88 JUMP JUMPDEST PUSH1 0x40 MLOAD DUP1 SWAP2 SUB SWAP1 RETURN JUMPDEST PUSH2 0x1E2 PUSH2 0x46C JUMP JUMPDEST PUSH1 0x40 MLOAD PUSH2 0x1EF SWAP2 SWAP1 PUSH2 0xD2F JUMP JUMPDEST PUSH1 0x40 MLOAD DUP1 SWAP2 SUB SWAP1 RETURN JUMPDEST PUSH2 0x212 PUSH1 0x4 DUP1 CALLDATASIZE SUB DUP2 ADD SWAP1 PUSH2 0x20D SWAP2 SWAP1 PUSH2 0xDE0 JUMP JUMPDEST PUSH2 0x4FC JUMP JUMPDEST STOP JUMPDEST PUSH2 0x22E PUSH1 0x4 DUP1 CALLDATASIZE SUB DUP2 ADD SWAP1 PUSH2 0x229 SWAP2 SWAP1 PUSH2 0xDE0 JUMP JUMPDEST PUSH2 0x599 JUMP JUMPDEST PUSH1 0x40 MLOAD PUSH2 0x23B SWAP2 SWAP1 PUSH2 0xE38 JUMP JUMPDEST PUSH1 0x40 MLOAD DUP1 SWAP2 SUB SWAP1 RETURN JUMPDEST PUSH2 0x25E PUSH1 0x4 DUP1 CALLDATASIZE SUB DUP2 ADD SWAP1 PUSH2 0x259 SWAP2 SWAP1 PUSH2 0xF50 JUMP JUMPDEST PUSH2 0x5BB JUMP JUMPDEST PUSH1 0x40 MLOAD PUSH2 0x26B SWAP2 SWAP1 PUSH2 0xE88 JUMP JUMPDEST PUSH1 0x40 MLOAD DUP1 SWAP2 SUB SWAP1 RETURN JUMPDEST PUSH1 0x60 PUSH1 0x3 DUP1 SLOAD PUSH2 0x283 SWAP1 PUSH2 0xFBB JUMP JUMPDEST DUP1 PUSH1 0x1F ADD PUSH1 0x20 DUP1 SWAP2 DIV MUL PUSH1 0x20 ADD PUSH1 0x40 MLOAD SWAP1 DUP2 ADD PUSH1 0x40 MSTORE DUP1 SWAP3 SWAP2 SWAP1 DUP2 DUP2 MSTORE PUSH1 0x20 ADD DUP3 DUP1 SLOAD PUSH2 0x2AF SWAP1 PUSH2 0xFBB JUMP JUMPDEST DUP1 ISZERO PUSH2 0x2FA JUMPI DUP1 PUSH1 0x1F LT PUSH2 0x2D1 JUMPI PUSH2 0x100 DUP1 DUP4 SLOAD DIV MUL DUP4 MSTORE SWAP2 PUSH1 0x20 ADD SWAP2 PUSH2 0x2FA JUMP JUMPDEST DUP3 ADD SWAP2 SWAP1 PUSH0 MSTORE PUSH1 0x20 PUSH0 KECCAK256 SWAP1 JUMPDEST DUP2 SLOAD DUP2 MSTORE SWAP1 PUSH1 0x1 ADD SWAP1 PUSH1 0x20 ADD DUP1 DUP4 GT PUSH2 0x2DD JUMPI DUP3 SWAP1 SUB PUSH1 0x1F AND DUP3 ADD SWAP2 JUMPDEST POP POP POP POP POP SWAP1 POP SWAP1 JUMP JUMPDEST PUSH0 DUP1 PUSH2 0x30E PUSH2 0x63D JUMP JUMPDEST SWAP1 POP PUSH2 0x31B DUP2 DUP6 DUP6 PUSH2 0x644 JUMP JUMPDEST PUSH1 0x1 SWAP2 POP POP SWAP3 SWAP2 POP POP JUMP JUMPDEST PUSH1 0x5 PUSH0 SWAP1 SLOAD SWAP1 PUSH2 0x100 EXP SWAP1 DIV PUSH20 0xFFFFFFFFFFFFFFFFFFFFFFFFFFFFFFFFFFFFFFFF AND DUP2 JUMP JUMPDEST PUSH0 PUSH1 0x2 SLOAD SWAP1 POP SWAP1 JUMP JUMPDEST PUSH0 DUP1 PUSH2 0x35E PUSH2 0x63D JUMP JUMPDEST SWAP1 POP PUSH2 0x36B DUP6 DUP3 DUP6 PUSH2 0x656 JUMP JUMPDEST PUSH2 0x376 DUP6 DUP6 DUP6 PUSH2 0x6E9 JUMP JUMPDEST PUSH1 0x1 SWAP2 POP POP SWAP4 SWAP3 POP POP POP JUMP JUMPDEST PUSH0 PUSH1 0x12 SWAP1 POP SWAP1 JUMP JUMPDEST PUSH1 0x5 PUSH0 SWAP1 SLOAD SWAP1 PUSH2 0x100 EXP SWAP1 DIV PUSH20 0xFFFFFFFFFFFFFFFFFFFFFFFFFFFFFFFFFFFFFFFF AND PUSH20 0xFFFFFFFFFFFFFFFFFFFFFFFFFFFFFFFFFFFFFFFF AND CALLER PUSH20 0xFFFFFFFFFFFFFFFFFFFFFFFFFFFFFFFFFFFFFFFF AND EQ PUSH2 0x419 JUMPI PUSH1 0x40 MLOAD PUSH32 0x8C379A000000000000000000000000000000000000000000000000000000000 DUP2 MSTORE PUSH1 0x4 ADD PUSH2 0x410 SWAP1 PUSH2 0x1035 JUMP JUMPDEST PUSH1 0x40 MLOAD DUP1 SWAP2 SUB SWAP1 REVERT JUMPDEST PUSH2 0x423 DUP3 DUP3 PUSH2 0x7D9 JUMP JUMPDEST POP POP JUMP JUMPDEST PUSH0 DUP1 PUSH0 DUP4 PUSH20 0xFFFFFFFFFFFFFFFFFFFFFFFFFFFFFFFFFFFFFFFF AND PUSH20 0xFFFFFFFFFFFFFFFFFFFFFFFFFFFFFFFFFFFFFFFF AND DUP2 MSTORE PUSH1 0x20 ADD SWAP1 DUP2 MSTORE PUSH1 0x20 ADD PUSH0 KECCAK256 SLOAD SWAP1 POP SWAP2 SWAP1 POP JUMP JUMPDEST PUSH1 0x60 PUSH1 0x4 DUP1 SLOAD PUSH2 0x47B SWAP1 PUSH2 0xFBB JUMP JUMPDEST DUP1 PUSH1 0x1F ADD PUSH1 0x20 DUP1 SWAP2 DIV MUL PUSH1 0x20 ADD PUSH1 0x40 MLOAD SWAP1 DUP2 ADD PUSH1 0x40 MSTORE DUP1 SWAP3 SWAP2 SWAP1 DUP2 DUP2 MSTORE PUSH1 0x20 ADD DUP3 DUP1 SLOAD PUSH2 0x4A7 SWAP1 PUSH2 0xFBB JUMP JUMPDEST DUP1 ISZERO PUSH2 0x4F2 JUMPI DUP1 PUSH1 0x1F LT PUSH2 0x4C9 JUMPI PUSH2 0x100 DUP1 DUP4 SLOAD DIV MUL DUP4 MSTORE SWAP2 PUSH1 0x20 ADD SWAP2 PUSH2 0x4F2 JUMP JUMPDEST DUP3 ADD SWAP2 SWAP1 PUSH0 MSTORE PUSH1 0x20 PUSH0 KECCAK256 SWAP1 JUMPDEST DUP2 SLOAD DUP2 MSTORE SWAP1 PUSH1 0x1 ADD SWAP1 PUSH1 0x20 ADD DUP1 DUP4 GT PUSH2 0x4D5 JUMPI DUP3 SWAP1 SUB PUSH1 0x1F AND DUP3 ADD SWAP2 JUMPDEST POP POP POP POP POP SWAP1 POP SWAP1 JUMP JUMPDEST PUSH1 0x5 PUSH0 SWAP1 SLOAD SWAP1 PUSH2 0x100 EXP SWAP1 DIV PUSH20 0xFFFFFFFFFFFFFFFFFFFFFFFFFFFFFFFFFFFFFFFF AND PUSH20 0xFFFFFFFFFFFFFFFFFFFFFFFFFFFFFFFFFFFFFFFF AND CALLER PUSH20 0xFFFFFFFFFFFFFFFFFFFFFFFFFFFFFFFFFFFFFFFF AND EQ PUSH2 0x58B JUMPI PUSH1 0x40 MLOAD PUSH32 0x8C379A000000000000000000000000000000000000000000000000000000000 DUP2 MSTORE PUSH1 0x4 ADD PUSH2 0x582 SWAP1 PUSH2 0x109D JUMP JUMPDEST PUSH1 0x40 MLOAD DUP1 SWAP2 SUB SWAP1 REVERT JUMPDEST PUSH2 0x595 DUP3 DUP3 PUSH2 0x858 JUMP JUMPDEST POP POP JUMP JUMPDEST PUSH0 DUP1 PUSH2 0x5A3 PUSH2 0x63D JUMP JUMPDEST SWAP1 POP PUSH2 0x5B0 DUP2 DUP6 DUP6 PUSH2 0x6E9 JUMP JUMPDEST PUSH1 0x1 SWAP2 POP POP SWAP3 SWAP2 POP POP JUMP JUMPDEST PUSH0 PUSH1 0x1 PUSH0 DUP5 PUSH20 0xFFFFFFFFFFFFFFFFFFFFFFFFFFFFFFFFFFFFFFFF AND PUSH20 0xFFFFFFFFFFFFFFFFFFFFFFFFFFFFFFFFFFFFFFFF AND DUP2 MSTORE PUSH1 0x20 ADD SWAP1 DUP2 MSTORE PUSH1 0x20 ADD PUSH0 KECCAK256 PUSH0 DUP4 PUSH20 0xFFFFFFFFFFFFFFFFFFFFFFFFFFFFFFFFFFFFFFFF AND PUSH20 0xFFFFFFFFFFFFFFFFFFFFFFFFFFFFFFFFFFFFFFFF AND DUP2 MSTORE PUSH1 0x20 ADD SWAP1 DUP2 MSTORE PUSH1 0x20 ADD PUSH0 KECCAK256 SLOAD SWAP1 POP SWAP3 SWAP2 POP POP JUMP JUMPDEST PUSH0 CALLER SWAP1 POP SWAP1 JUMP JUMPDEST PUSH2 0x651 DUP4 DUP4 DUP4 PUSH1 0x1 PUSH2 0x8D7 JUMP JUMPDEST POP POP POP JUMP JUMPDEST PUSH0 PUSH2 0x661 DUP5 DUP5 PUSH2 0x5BB JUMP JUMPDEST SWAP1 POP PUSH32 0xFFFFFFFFFFFFFFFFFFFFFFFFFFFFFFFFFFFFFFFFFFFFFFFFFFFFFFFFFFFFFFFF DUP2 LT ISZERO PUSH2 0x6E3 JUMPI DUP2 DUP2 LT ISZERO PUSH2 0x6D4 JUMPI DUP3 DUP2 DUP4 PUSH1 0x40 MLOAD PUSH32 0xFB8F41B200000000000000000000000000000000000000000000000000000000 DUP2 MSTORE PUSH1 0x4 ADD PUSH2 0x6CB SWAP4 SWAP3 SWAP2 SWAP1 PUSH2 0x10BB JUMP JUMPDEST PUSH1 0x40 MLOAD DUP1 SWAP2 SUB SWAP1 REVERT JUMPDEST PUSH2 0x6E2 DUP5 DUP5 DUP5 DUP5 SUB PUSH0 PUSH2 0x8D7 JUMP JUMPDEST JUMPDEST POP POP POP POP JUMP JUMPDEST PUSH0 PUSH20 0xFFFFFFFFFFFFFFFFFFFFFFFFFFFFFFFFFFFFFFFF AND DUP4 PUSH20 0xFFFFFFFFFFFFFFFFFFFFFFFFFFFFFFFFFFFFFFFF AND SUB PUSH2 0x759 JUMPI PUSH0 PUSH1 0x40 MLOAD PUSH32 0x96C6FD1E00000000000000000000000000000000000000000000000000000000 DUP2 MSTORE PUSH1 0x4 ADD PUSH2 0x750 SWAP2 SWAP1 PUSH2 0xE60 JUMP JUMPDEST PUSH1 0x40 MLOAD DUP1 SWAP2 SUB SWAP1 REVERT JUMPDEST PUSH0 PUSH20 0xFFFFFFFFFFFFFFFFFFFFFFFFFFFFFFFFFFFFFFFF AND DUP3 PUSH20 0xFFFFFFFFFFFFFFFFFFFFFFFFFFFFFFFFFFFFFFFF AND SUB PUSH2 0x7C9 JUMPI PUSH0 PUSH1 0x40 MLOAD PUSH32 0xEC442F0500000000000000000000000000000000000000000000000000000000 DUP2 MSTORE PUSH1 0x4 ADD PUSH2 0x7C0 SWAP2 SWAP1 PUSH2 0xE60 JUMP JUMPDEST PUSH1 0x40 MLOAD DUP1 SWAP2 SUB SWAP1 REVERT JUMPDEST PUSH2 0x7D4 DUP4 DUP4 DUP4 PUSH2 0xAA6 JUMP JUMPDEST POP POP POP JUMP JUMPDEST PUSH0 PUSH20 0xFFFFFFFFFFFFFFFFFFFFFFFFFFFFFFFFFFFFFFFF AND DUP3 PUSH20 0xFFFFFFFFFFFFFFFFFFFFFFFFFFFFFFFFFFFFFFFF AND SUB PUSH2 0x849 JUMPI PUSH0 PUSH1 0x40 MLOAD PUSH32 0xEC442F0500000000000000000000000000000000000000000000000000000000 DUP2 MSTORE PUSH1 0x4 ADD PUSH2 0x840 SWAP2 SWAP1 PUSH2 0xE60 JUMP JUMPDEST PUSH1 0x40 MLOAD DUP1 SWAP2 SUB SWAP1 REVERT JUMPDEST PUSH2 0x854 PUSH0 DUP4 DUP4 PUSH2 0xAA6 JUMP JUMPDEST POP POP JUMP JUMPDEST PUSH0 PUSH20 0xFFFFFFFFFFFFFFFFFFFFFFFFFFFFFFFFFFFFFFFF AND DUP3 PUSH20 0xFFFFFFFFFFFFFFFFFFFFFFFFFFFFFFFFFFFFFFFF AND SUB PUSH2 0x8C8 JUMPI PUSH0 PUSH1 0x40 MLOAD PUSH32 0x96C6FD1E00000000000000000000000000000000000000000000000000000000 DUP2 MSTORE PUSH1 0x4 ADD PUSH2 0x8BF SWAP2 SWAP1 PUSH2 0xE60 JUMP JUMPDEST PUSH1 0x40 MLOAD DUP1 SWAP2 SUB SWAP1 REVERT JUMPDEST PUSH2 0x8D3 DUP3 PUSH0 DUP4 PUSH2 0xAA6 JUMP JUMPDEST POP POP JUMP JUMPDEST PUSH0 PUSH20 0xFFFFFFFFFFFFFFFFFFFFFFFFFFFFFFFFFFFFFFFF AND DUP5 PUSH20 0xFFFFFFFFFFFFFFFFFFFFFFFFFFFFFFFFFFFFFFFF AND SUB PUSH2 0x947 JUMPI PUSH0 PUSH1 0x40 MLOAD PUSH32 0xE602DF0500000000000000000000000000000000000000000000000000000000 DUP2 MSTORE PUSH1 0x4 ADD PUSH2 0x93E SWAP2 SWAP1 PUSH2 0xE60 JUMP JUMPDEST PUSH1 0x40 MLOAD DUP1 SWAP2 SUB SWAP1 REVERT JUMPDEST PUSH0 PUSH20 0xFFFFFFFFFFFFFFFFFFFFFFFFFFFFFFFFFFFFFFFF AND DUP4 PUSH20 0xFFFFFFFFFFFFFFFFFFFFFFFFFFFFFFFFFFFFFFFF AND SUB PUSH2 0x9B7 JUMPI PUSH0 PUSH1 0x40 MLOAD PUSH32 0x94280D6200000000000000000000000000000000000000000000000000000000 DUP2 MSTORE PUSH1 0x4 ADD PUSH2 0x9AE SWAP2 SWAP1 PUSH2 0xE60 JUMP JUMPDEST PUSH1 0x40 MLOAD DUP1 SWAP2 SUB SWAP1 REVERT JUMPDEST DUP2 PUSH1 0x1 PUSH0 DUP7 PUSH20 0xFFFFFFFFFFFFFFFFFFFFFFFFFFFFFFFFFFFFFFFF AND PUSH20 0xFFFFFFFFFFFFFFFFFFFFFFFFFFFFFFFFFFFFFFFF AND DUP2 MSTORE PUSH1 0x20 ADD SWAP1 DUP2 MSTORE PUSH1 0x20 ADD PUSH0 KECCAK256 PUSH0 DUP6 PUSH20 0xFFFFFFFFFFFFFFFFFFFFFFFFFFFFFFFFFFFFFFFF AND PUSH20 0xFFFFFFFFFFFFFFFFFFFFFFFFFFFFFFFFFFFFFFFF AND DUP2 MSTORE PUSH1 0x20 ADD SWAP1 DUP2 MSTORE PUSH1 0x20 ADD PUSH0 KECCAK256 DUP2 SWAP1 SSTORE POP DUP1 ISZERO PUSH2 0xAA0 JUMPI DUP3 PUSH20 0xFFFFFFFFFFFFFFFFFFFFFFFFFFFFFFFFFFFFFFFF AND DUP5 PUSH20 0xFFFFFFFFFFFFFFFFFFFFFFFFFFFFFFFFFFFFFFFF AND PUSH32 0x8C5BE1E5EBEC7D5BD14F71427D1E84F3DD0314C0F7B2291E5B200AC8C7C3B925 DUP5 PUSH1 0x40 MLOAD PUSH2 0xA97 SWAP2 SWAP1 PUSH2 0xE88 JUMP JUMPDEST PUSH1 0x40 MLOAD DUP1 SWAP2 SUB SWAP1 LOG3 JUMPDEST POP POP POP POP JUMP JUMPDEST PUSH0 PUSH20 0xFFFFFFFFFFFFFFFFFFFFFFFFFFFFFFFFFFFFFFFF AND DUP4 PUSH20 0xFFFFFFFFFFFFFFFFFFFFFFFFFFFFFFFFFFFFFFFF AND SUB PUSH2 0xAF6 JUMPI DUP1 PUSH1 0x2 PUSH0 DUP3 DUP3 SLOAD PUSH2 0xAEA SWAP2 SWAP1 PUSH2 0x111D JUMP JUMPDEST SWAP3 POP POP DUP2 SWAP1 SSTORE POP PUSH2 0xBC4 JUMP JUMPDEST PUSH0 DUP1 PUSH0 DUP6 PUSH20 0xFFFFFFFFFFFFFFFFFFFFFFFFFFFFFFFFFFFFFFFF AND PUSH20 0xFFFFFFFFFFFFFFFFFFFFFFFFFFFFFFFFFFFFFFFF AND DUP2 MSTORE PUSH1 0x20 ADD SWAP1 DUP2 MSTORE PUSH1 0x20 ADD PUSH0 KECCAK256 SLOAD SWAP1 POP DUP2 DUP2 LT ISZERO PUSH2 0xB7F JUMPI DUP4 DUP2 DUP4 PUSH1 0x40 MLOAD PUSH32 0xE450D38C00000000000000000000000000000000000000000000000000000000 DUP2 MSTORE PUSH1 0x4 ADD PUSH2 0xB76 SWAP4 SWAP3 SWAP2 SWAP1 PUSH2 0x10BB JUMP JUMPDEST PUSH1 0x40 MLOAD DUP1 SWAP2 SUB SWAP1 REVERT JUMPDEST DUP2 DUP2 SUB PUSH0 DUP1 DUP7 PUSH20 0xFFFFFFFFFFFFFFFFFFFFFFFFFFFFFFFFFFFFFFFF AND PUSH20 0xFFFFFFFFFFFFFFFFFFFFFFFFFFFFFFFFFFFFFFFF AND DUP2 MSTORE PUSH1 0x20 ADD SWAP1 DUP2 MSTORE PUSH1 0x20 ADD PUSH0 KECCAK256 DUP2 SWAP1 SSTORE POP POP JUMPDEST PUSH0 PUSH20 0xFFFFFFFFFFFFFFFFFFFFFFFFFFFFFFFFFFFFFFFF AND DUP3 PUSH20 0xFFFFFFFFFFFFFFFFFFFFFFFFFFFFFFFFFFFFFFFF AND SUB PUSH2 0xC0B JUMPI DUP1 PUSH1 0x2 PUSH0 DUP3 DUP3 SLOAD SUB SWAP3 POP POP DUP2 SWAP1 SSTORE POP PUSH2 0xC55 JUMP JUMPDEST DUP1 PUSH0 DUP1 DUP5 PUSH20 0xFFFFFFFFFFFFFFFFFFFFFFFFFFFFFFFFFFFFFFFF AND PUSH20 0xFFFFFFFFFFFFFFFFFFFFFFFFFFFFFFFFFFFFFFFF AND DUP2 MSTORE PUSH1 0x20 ADD SWAP1 DUP2 MSTORE PUSH1 0x20 ADD PUSH0 KECCAK256 PUSH0 DUP3 DUP3 SLOAD ADD SWAP3 POP POP DUP2 SWAP1 SSTORE POP JUMPDEST DUP2 PUSH20 0xFFFFFFFFFFFFFFFFFFFFFFFFFFFFFFFFFFFFFFFF AND DUP4 PUSH20 0xFFFFFFFFFFFFFFFFFFFFFFFFFFFFFFFFFFFFFFFF AND PUSH32 0xDDF252AD1BE2C89B69C2B068FC378DAA952BA7F163C4A11628F55A4DF523B3EF DUP4 PUSH1 0x40 MLOAD PUSH2 0xCB2 SWAP2 SWAP1 PUSH2 0xE88 JUMP JUMPDEST PUSH1 0x40 MLOAD DUP1 SWAP2 SUB SWAP1 LOG3 POP POP POP JUMP JUMPDEST PUSH0 DUP2 MLOAD SWAP1 POP SWAP2 SWAP1 POP JUMP JUMPDEST PUSH0 DUP3 DUP3 MSTORE PUSH1 0x20 DUP3 ADD SWAP1 POP SWAP3 SWAP2 POP POP JUMP JUMPDEST DUP3 DUP2 DUP4 MCOPY PUSH0 DUP4 DUP4 ADD MSTORE POP POP POP JUMP JUMPDEST PUSH0 PUSH1 0x1F NOT PUSH1 0x1F DUP4 ADD AND SWAP1 POP SWAP2 SWAP1 POP JUMP JUMPDEST PUSH0 PUSH2 0xD01 DUP3 PUSH2 0xCBF JUMP JUMPDEST PUSH2 0xD0B DUP2 DUP6 PUSH2 0xCC9 JUMP JUMPDEST SWAP4 POP PUSH2 0xD1B DUP2 DUP6 PUSH1 0x20 DUP7 ADD PUSH2 0xCD9 JUMP JUMPDEST PUSH2 0xD24 DUP2 PUSH2 0xCE7 JUMP JUMPDEST DUP5 ADD SWAP2 POP POP SWAP3 SWAP2 POP POP JUMP JUMPDEST PUSH0 PUSH1 0x20 DUP3 ADD SWAP1 POP DUP2 DUP2 SUB PUSH0 DUP4 ADD MSTORE PUSH2 0xD47 DUP2 DUP5 PUSH2 0xCF7 JUMP JUMPDEST SWAP1 POP SWAP3 SWAP2 POP POP JUMP JUMPDEST PUSH0 DUP1 REVERT JUMPDEST PUSH0 PUSH20 0xFFFFFFFFFFFFFFFFFFFFFFFFFFFFFFFFFFFFFFFF DUP3 AND SWAP1 POP SWAP2 SWAP1 POP JUMP JUMPDEST PUSH0 PUSH2 0xD7C DUP3 PUSH2 0xD53 JUMP JUMPDEST SWAP1 POP SWAP2 SWAP1 POP JUMP JUMPDEST PUSH2 0xD8C DUP2 PUSH2 0xD72 JUMP JUMPDEST DUP2 EQ PUSH2 0xD96 JUMPI PUSH0 DUP1 REVERT JUMPDEST POP JUMP JUMPDEST PUSH0 DUP2 CALLDATALOAD SWAP1 POP PUSH2 0xDA7 DUP2 PUSH2 0xD83 JUMP JUMPDEST SWAP3 SWAP2 POP POP JUMP JUMPDEST PUSH0 DUP2 SWAP1 POP SWAP2 SWAP1 POP JUMP JUMPDEST PUSH2 0xDBF DUP2 PUSH2 0xDAD JUMP JUMPDEST DUP2 EQ PUSH2 0xDC9 JUMPI PUSH0 DUP1 REVERT JUMPDEST POP JUMP JUMPDEST PUSH0 DUP2 CALLDATALOAD SWAP1 POP PUSH2 0xDDA DUP2 PUSH2 0xDB6 JUMP JUMPDEST SWAP3 SWAP2 POP POP JUMP JUMPDEST PUSH0 DUP1 PUSH1 0x40 DUP4 DUP6 SUB SLT ISZERO PUSH2 0xDF6 JUMPI PUSH2 0xDF5 PUSH2 0xD4F JUMP JUMPDEST JUMPDEST PUSH0 PUSH2 0xE03 DUP6 DUP3 DUP7 ADD PUSH2 0xD99 JUMP JUMPDEST SWAP3 POP POP PUSH1 0x20 PUSH2 0xE14 DUP6 DUP3 DUP7 ADD PUSH2 0xDCC JUMP JUMPDEST SWAP2 POP POP SWAP3 POP SWAP3 SWAP1 POP JUMP JUMPDEST PUSH0 DUP2 ISZERO ISZERO SWAP1 POP SWAP2 SWAP1 POP JUMP JUMPDEST PUSH2 0xE32 DUP2 PUSH2 0xE1E JUMP JUMPDEST DUP3 MSTORE POP POP JUMP JUMPDEST PUSH0 PUSH1 0x20 DUP3 ADD SWAP1 POP PUSH2 0xE4B PUSH0 DUP4 ADD DUP5 PUSH2 0xE29 JUMP JUMPDEST SWAP3 SWAP2 POP POP JUMP JUMPDEST PUSH2 0xE5A DUP2 PUSH2 0xD72 JUMP JUMPDEST DUP3 MSTORE POP POP JUMP JUMPDEST PUSH0 PUSH1 0x20 DUP3 ADD SWAP1 POP PUSH2 0xE73 PUSH0 DUP4 ADD DUP5 PUSH2 0xE51 JUMP JUMPDEST SWAP3 SWAP2 POP POP JUMP JUMPDEST PUSH2 0xE82 DUP2 PUSH2 0xDAD JUMP JUMPDEST DUP3 MSTORE POP POP JUMP JUMPDEST PUSH0 PUSH1 0x20 DUP3 ADD SWAP1 POP PUSH2 0xE9B PUSH0 DUP4 ADD DUP5 PUSH2 0xE79 JUMP JUMPDEST SWAP3 SWAP2 POP POP JUMP JUMPDEST PUSH0 DUP1 PUSH0 PUSH1 0x60 DUP5 DUP7 SUB SLT ISZERO PUSH2 0xEB8 JUMPI PUSH2 0xEB7 PUSH2 0xD4F JUMP JUMPDEST JUMPDEST PUSH0 PUSH2 0xEC5 DUP7 DUP3 DUP8 ADD PUSH2 0xD99 JUMP JUMPDEST SWAP4 POP POP PUSH1 0x20 PUSH2 0xED6 DUP7 DUP3 DUP8 ADD PUSH2 0xD99 JUMP JUMPDEST SWAP3 POP POP PUSH1 0x40 PUSH2 0xEE7 DUP7 DUP3 DUP8 ADD PUSH2 0xDCC JUMP JUMPDEST SWAP2 POP POP SWAP3 POP SWAP3 POP SWAP3 JUMP JUMPDEST PUSH0 PUSH1 0xFF DUP3 AND SWAP1 POP SWAP2 SWAP1 POP JUMP JUMPDEST PUSH2 0xF06 DUP2 PUSH2 0xEF1 JUMP JUMPDEST DUP3 MSTORE POP POP JUMP JUMPDEST PUSH0 PUSH1 0x20 DUP3 ADD SWAP1 POP PUSH2 0xF1F PUSH0 DUP4 ADD DUP5 PUSH2 0xEFD JUMP JUMPDEST SWAP3 SWAP2 POP POP JUMP JUMPDEST PUSH0 PUSH1 0x20 DUP3 DUP5 SUB SLT ISZERO PUSH2 0xF3A JUMPI PUSH2 0xF39 PUSH2 0xD4F JUMP JUMPDEST JUMPDEST PUSH0 PUSH2 0xF47 DUP5 DUP3 DUP6 ADD PUSH2 0xD99 JUMP JUMPDEST SWAP2 POP POP SWAP3 SWAP2 POP POP JUMP JUMPDEST PUSH0 DUP1 PUSH1 0x40 DUP4 DUP6 SUB SLT ISZERO PUSH2 0xF66 JUMPI PUSH2 0xF65 PUSH2 0xD4F JUMP JUMPDEST JUMPDEST PUSH0 PUSH2 0xF73 DUP6 DUP3 DUP7 ADD PUSH2 0xD99 JUMP JUMPDEST SWAP3 POP POP PUSH1 0x20 PUSH2 0xF84 DUP6 DUP3 DUP7 ADD PUSH2 0xD99 JUMP JUMPDEST SWAP2 POP POP SWAP3 POP SWAP3 SWAP1 POP JUMP JUMPDEST PUSH32 0x4E487B7100000000000000000000000000000000000000000000000000000000 PUSH0 MSTORE PUSH1 0x22 PUSH1 0x4 MSTORE PUSH1 0x24 PUSH0 REVERT JUMPDEST PUSH0 PUSH1 0x2 DUP3 DIV SWAP1 POP PUSH1 0x1 DUP3 AND DUP1 PUSH2 0xFD2 JUMPI PUSH1 0x7F DUP3 AND SWAP2 POP JUMPDEST PUSH1 0x20 DUP3 LT DUP2 SUB PUSH2 0xFE5 JUMPI PUSH2 0xFE4 PUSH2 0xF8E JUMP JUMPDEST JUMPDEST POP SWAP2 SWAP1 POP JUMP JUMPDEST PUSH32 0x4F6E6C7920706F6F6C2063616E206D696E740000000000000000000000000000 PUSH0 DUP3 ADD MSTORE POP JUMP JUMPDEST PUSH0 PUSH2 0x101F PUSH1 0x12 DUP4 PUSH2 0xCC9 JUMP JUMPDEST SWAP2 POP PUSH2 0x102A DUP3 PUSH2 0xFEB JUMP JUMPDEST PUSH1 0x20 DUP3 ADD SWAP1 POP SWAP2 SWAP1 POP JUMP JUMPDEST PUSH0 PUSH1 0x20 DUP3 ADD SWAP1 POP DUP2 DUP2 SUB PUSH0 DUP4 ADD MSTORE PUSH2 0x104C DUP2 PUSH2 0x1013 JUMP JUMPDEST SWAP1 POP SWAP2 SWAP1 POP JUMP JUMPDEST PUSH32 0x4F6E6C7920706F6F6C2063616E206275726E0000000000000000000000000000 PUSH0 DUP3 ADD MSTORE POP JUMP JUMPDEST PUSH0 PUSH2 0x1087 PUSH1 0x12 DUP4 PUSH2 0xCC9 JUMP JUMPDEST SWAP2 POP PUSH2 0x1092 DUP3 PUSH2 0x1053 JUMP JUMPDEST PUSH1 0x20 DUP3 ADD SWAP1 POP SWAP2 SWAP1 POP JUMP JUMPDEST PUSH0 PUSH1 0x20 DUP3 ADD SWAP1 POP DUP2 DUP2 SUB PUSH0 DUP4 ADD MSTORE PUSH2 0x10B4 DUP2 PUSH2 0x107B JUMP JUMPDEST SWAP1 POP SWAP2 SWAP1 POP JUMP JUMPDEST PUSH0 PUSH1 0x60 DUP3 ADD SWAP1 POP PUSH2 0x10CE PUSH0 DUP4 ADD DUP7 PUSH2 0xE51 JUMP JUMPDEST PUSH2 0x10DB PUSH1 0x20 DUP4 ADD DUP6 PUSH2 0xE79 JUMP JUMPDEST PUSH2 0x10E8 PUSH1 0x40 DUP4 ADD DUP5 PUSH2 0xE79 JUMP JUMPDEST SWAP5 SWAP4 POP POP POP POP JUMP JUMPDEST PUSH32 0x4E487B7100000000000000000000000000000000000000000000000000000000 PUSH0 MSTORE PUSH1 0x11 PUSH1 0x4 MSTORE PUSH1 0x24 PUSH0 REVERT JUMPDEST PUSH0 PUSH2 0x1127 DUP3 PUSH2 0xDAD JUMP JUMPDEST SWAP2 POP PUSH2 0x1132 DUP4 PUSH2 0xDAD JUMP JUMPDEST SWAP3 POP DUP3 DUP3 ADD SWAP1 POP DUP1 DUP3 GT ISZERO PUSH2 0x114A JUMPI PUSH2 0x1149 PUSH2 0x10F0 JUMP JUMPDEST JUMPDEST SWAP3 SWAP2 POP POP JUMP INVALID LOG2 PUSH5 0x6970667358 0x22 SLT KECCAK256 0xA7 0xAE 0xF6 0xD9 CODESIZE 0x23 PUSH14 0x30B607C647C9912E7F80C61177CA 0x2C DUP7 0xB4 0xDB 0xE3 0x2B 0xC9 0xC2 0x1F KECCAK256 0xB4 PUSH5 0x736F6C6343 STOP ADDMOD BYTE STOP CALLER "
		},
		"gasEstimates": {
			"creation": {
				"codeDepositCost": "2217400",
				"executionCost": "infinite",
				"totalCost": "infinite"
			},
			"external": {
				"addLiquidity(uint256,uint256)": "infinite",
				"checkSlippage(uint256)": "infinite",
				"checkSlippageB(uint256)": "infinite",
				"collectedFeesA()": "2559",
				"collectedFeesB()": "2493",
				"expextedSlippage()": "2514",
				"feePercentage()": "2536",
				"getExpectedTokenA(uint256)": "infinite",
				"getExpectedTokenB(uint256)": "infinite",
				"getLPTokenAddress()": "2581",
				"getPrice()": "infinite",
				"getReserves()": "infinite",
				"getUserLPBalance(address)": "infinite",
				"lpToken()": "infinite",
				"owner()": "2531",
				"removeLiquidity(uint256)": "infinite",
				"reserveA()": "2513",
				"reserveB()": "2537",
				"setFeePercentage(uint256)": "24843",
				"setSlipage(uint256)": "24751",
				"swapAtoB(uint256,uint256)": "infinite",
				"swapBtoA(uint256,uint256)": "infinite",
				"tokenA()": "infinite",
				"tokenB()": "infinite",
				"withdrawFees()": "infinite"
			},
			"internal": {
				"min(uint256,uint256)": "63",
				"sqrt(uint256)": "infinite"
			}
		},
		"methodIdentifiers": {
			"addLiquidity(uint256,uint256)": "9cd441da",
			"checkSlippage(uint256)": "670053c8",
			"checkSlippageB(uint256)": "c4604b33",
			"collectedFeesA()": "25781cf4",
			"collectedFeesB()": "0db8b192",
			"expextedSlippage()": "be8e89fc",
			"feePercentage()": "a001ecdd",
			"getExpectedTokenA(uint256)": "bae38d58",
			"getExpectedTokenB(uint256)": "7a88266a",
			"getLPTokenAddress()": "c9e57aa6",
			"getPrice()": "98d5fdca",
			"getReserves()": "0902f1ac",
			"getUserLPBalance(address)": "06ebcc6d",
			"lpToken()": "5fcbd285",
			"owner()": "8da5cb5b",
			"removeLiquidity(uint256)": "9c8f9f23",
			"reserveA()": "dc5fa6c5",
			"reserveB()": "19e36f3b",
			"setFeePercentage(uint256)": "ae06c1b7",
			"setSlipage(uint256)": "b9c8c4ba",
			"swapAtoB(uint256,uint256)": "f0b456e9",
			"swapBtoA(uint256,uint256)": "4242ec52",
			"tokenA()": "0fc63d10",
			"tokenB()": "5f64b55b",
			"withdrawFees()": "476343ee"
		}
	},
	"abi": [
		{
			"inputs": [
				{
					"internalType": "address",
					"name": "_tokenA",
					"type": "address"
				},
				{
					"internalType": "address",
					"name": "_tokenB",
					"type": "address"
				}
			],
			"stateMutability": "nonpayable",
			"type": "constructor"
		},
		{
			"anonymous": false,
			"inputs": [
				{
					"indexed": false,
					"internalType": "uint256",
					"name": "amountA",
					"type": "uint256"
				},
				{
					"indexed": false,
					"internalType": "uint256",
					"name": "amountB",
					"type": "uint256"
				},
				{
					"indexed": false,
					"internalType": "address",
					"name": "poolProvider",
					"type": "address"
				}
			],
			"name": "addLiquidityEvent",
			"type": "event"
		},
		{
			"inputs": [
				{
					"internalType": "uint256",
					"name": "amountA",
					"type": "uint256"
				},
				{
					"internalType": "uint256",
					"name": "amountB",
					"type": "uint256"
				}
			],
			"name": "addLiquidity",
			"outputs": [
				{
					"internalType": "uint256",
					"name": "liquidity",
					"type": "uint256"
				}
			],
			"stateMutability": "nonpayable",
			"type": "function"
		},
		{
			"inputs": [
				{
					"internalType": "uint256",
					"name": "amountIn",
					"type": "uint256"
				}
			],
			"name": "checkSlippage",
			"outputs": [
				{
					"internalType": "uint256",
					"name": "",
					"type": "uint256"
				}
			],
			"stateMutability": "view",
			"type": "function"
		},
		{
			"inputs": [
				{
					"internalType": "uint256",
					"name": "amountIn",
					"type": "uint256"
				}
			],
			"name": "checkSlippageB",
			"outputs": [
				{
					"internalType": "uint256",
					"name": "",
					"type": "uint256"
				}
			],
			"stateMutability": "view",
			"type": "function"
		},
		{
			"inputs": [],
			"name": "collectedFeesA",
			"outputs": [
				{
					"internalType": "uint256",
					"name": "",
					"type": "uint256"
				}
			],
			"stateMutability": "view",
			"type": "function"
		},
		{
			"inputs": [],
			"name": "collectedFeesB",
			"outputs": [
				{
					"internalType": "uint256",
					"name": "",
					"type": "uint256"
				}
			],
			"stateMutability": "view",
			"type": "function"
		},
		{
			"inputs": [],
			"name": "expextedSlippage",
			"outputs": [
				{
					"internalType": "uint256",
					"name": "",
					"type": "uint256"
				}
			],
			"stateMutability": "view",
			"type": "function"
		},
		{
			"inputs": [],
			"name": "feePercentage",
			"outputs": [
				{
					"internalType": "uint256",
					"name": "",
					"type": "uint256"
				}
			],
			"stateMutability": "view",
			"type": "function"
		},
		{
			"inputs": [
				{
					"internalType": "uint256",
					"name": "amountIn",
					"type": "uint256"
				}
			],
			"name": "getExpectedTokenA",
			"outputs": [
				{
					"internalType": "uint256",
					"name": "expectedOut",
					"type": "uint256"
				}
			],
			"stateMutability": "view",
			"type": "function"
		},
		{
			"inputs": [
				{
					"internalType": "uint256",
					"name": "amountIn",
					"type": "uint256"
				}
			],
			"name": "getExpectedTokenB",
			"outputs": [
				{
					"internalType": "uint256",
					"name": "expectedOut",
					"type": "uint256"
				}
			],
			"stateMutability": "view",
			"type": "function"
		},
		{
			"inputs": [],
			"name": "getLPTokenAddress",
			"outputs": [
				{
					"internalType": "address",
					"name": "",
					"type": "address"
				}
			],
			"stateMutability": "view",
			"type": "function"
		},
		{
			"inputs": [],
			"name": "getPrice",
			"outputs": [
				{
					"internalType": "uint256",
					"name": "",
					"type": "uint256"
				}
			],
			"stateMutability": "view",
			"type": "function"
		},
		{
			"inputs": [],
			"name": "getReserves",
			"outputs": [
				{
					"internalType": "uint256",
					"name": "",
					"type": "uint256"
				},
				{
					"internalType": "uint256",
					"name": "",
					"type": "uint256"
				}
			],
			"stateMutability": "view",
			"type": "function"
		},
		{
			"inputs": [
				{
					"internalType": "address",
					"name": "user",
					"type": "address"
				}
			],
			"name": "getUserLPBalance",
			"outputs": [
				{
					"internalType": "uint256",
					"name": "",
					"type": "uint256"
				}
			],
			"stateMutability": "view",
			"type": "function"
		},
		{
			"inputs": [],
			"name": "lpToken",
			"outputs": [
				{
					"internalType": "contract LPToken",
					"name": "",
					"type": "address"
				}
			],
			"stateMutability": "view",
			"type": "function"
		},
		{
			"inputs": [],
			"name": "owner",
			"outputs": [
				{
					"internalType": "address",
					"name": "",
					"type": "address"
				}
			],
			"stateMutability": "view",
			"type": "function"
		},
		{
			"inputs": [
				{
					"internalType": "uint256",
					"name": "liquidity",
					"type": "uint256"
				}
			],
			"name": "removeLiquidity",
			"outputs": [],
			"stateMutability": "nonpayable",
			"type": "function"
		},
		{
			"inputs": [],
			"name": "reserveA",
			"outputs": [
				{
					"internalType": "uint256",
					"name": "",
					"type": "uint256"
				}
			],
			"stateMutability": "view",
			"type": "function"
		},
		{
			"inputs": [],
			"name": "reserveB",
			"outputs": [
				{
					"internalType": "uint256",
					"name": "",
					"type": "uint256"
				}
			],
			"stateMutability": "view",
			"type": "function"
		},
		{
			"inputs": [
				{
					"internalType": "uint256",
					"name": "newFee",
					"type": "uint256"
				}
			],
			"name": "setFeePercentage",
			"outputs": [],
			"stateMutability": "nonpayable",
			"type": "function"
		},
		{
			"inputs": [
				{
					"internalType": "uint256",
					"name": "_expectedSlipage",
					"type": "uint256"
				}
			],
			"name": "setSlipage",
			"outputs": [],
			"stateMutability": "nonpayable",
			"type": "function"
		},
		{
			"inputs": [
				{
					"internalType": "uint256",
					"name": "amountIn",
					"type": "uint256"
				},
				{
					"internalType": "uint256",
					"name": "expectSlippage",
					"type": "uint256"
				}
			],
			"name": "swapAtoB",
			"outputs": [
				{
					"internalType": "uint256",
					"name": "",
					"type": "uint256"
				}
			],
			"stateMutability": "nonpayable",
			"type": "function"
		},
		{
			"inputs": [
				{
					"internalType": "uint256",
					"name": "amountIn",
					"type": "uint256"
				},
				{
					"internalType": "uint256",
					"name": "expectSlippage",
					"type": "uint256"
				}
			],
			"name": "swapBtoA",
			"outputs": [
				{
					"internalType": "uint256",
					"name": "",
					"type": "uint256"
				}
			],
			"stateMutability": "nonpayable",
			"type": "function"
		},
		{
			"inputs": [],
			"name": "tokenA",
			"outputs": [
				{
					"internalType": "contract IERC20",
					"name": "",
					"type": "address"
				}
			],
			"stateMutability": "view",
			"type": "function"
		},
		{
			"inputs": [],
			"name": "tokenB",
			"outputs": [
				{
					"internalType": "contract IERC20",
					"name": "",
					"type": "address"
				}
			],
			"stateMutability": "view",
			"type": "function"
		},
		{
			"inputs": [],
			"name": "withdrawFees",
			"outputs": [],
			"stateMutability": "nonpayable",
			"type": "function"
		}
	]
}