{
	"MLM/2-level MLM/LevelLink.sol": {
		"LevelLink": {
			"abi": [
				{
					"inputs": [
						{
							"internalType": "address",
							"name": "_lltAddress",
							"type": "address"
						}
					],
					"stateMutability": "nonpayable",
					"type": "constructor"
				},
				{
					"inputs": [],
					"name": "LLT",
					"outputs": [
						{
							"internalType": "contract IERC20",
							"name": "",
							"type": "address"
						}
					],
					"stateMutability": "view",
					"type": "function"
				},
				{
					"inputs": [],
					"name": "REGISTRATION_FEE",
					"outputs": [
						{
							"internalType": "uint256",
							"name": "",
							"type": "uint256"
						}
					],
					"stateMutability": "view",
					"type": "function"
				},
				{
					"inputs": [
						{
							"internalType": "uint256",
							"name": "_percentage",
							"type": "uint256"
						}
					],
					"name": "changeRegsiterationFee",
					"outputs": [],
					"stateMutability": "nonpayable",
					"type": "function"
				},
				{
					"inputs": [
						{
							"internalType": "address",
							"name": "user",
							"type": "address"
						}
					],
					"name": "getBasicInfoUser",
					"outputs": [
						{
							"internalType": "address",
							"name": "referrer",
							"type": "address"
						},
						{
							"internalType": "uint256",
							"name": "referralIncome",
							"type": "uint256"
						},
						{
							"internalType": "bool",
							"name": "isRegistered",
							"type": "bool"
						},
						{
							"internalType": "uint256",
							"name": "referralCount",
							"type": "uint256"
						},
						{
							"internalType": "uint256",
							"name": "registrationTime",
							"type": "uint256"
						},
						{
							"internalType": "uint256",
							"name": "teamIncome",
							"type": "uint256"
						},
						{
							"internalType": "uint256",
							"name": "teamSize",
							"type": "uint256"
						}
					],
					"stateMutability": "view",
					"type": "function"
				},
				{
					"inputs": [
						{
							"internalType": "address",
							"name": "_user",
							"type": "address"
						}
					],
					"name": "getDirectReferrals",
					"outputs": [
						{
							"internalType": "address[]",
							"name": "",
							"type": "address[]"
						}
					],
					"stateMutability": "view",
					"type": "function"
				},
				{
					"inputs": [
						{
							"internalType": "address",
							"name": "_user",
							"type": "address"
						}
					],
					"name": "getIndirectReferrals",
					"outputs": [
						{
							"internalType": "address[]",
							"name": "",
							"type": "address[]"
						}
					],
					"stateMutability": "view",
					"type": "function"
				},
				{
					"inputs": [
						{
							"internalType": "address",
							"name": "_user",
							"type": "address"
						}
					],
					"name": "getTotalIncome",
					"outputs": [
						{
							"internalType": "uint256",
							"name": "",
							"type": "uint256"
						}
					],
					"stateMutability": "view",
					"type": "function"
				},
				{
					"inputs": [
						{
							"internalType": "address",
							"name": "_user",
							"type": "address"
						}
					],
					"name": "getTotalTeamSize",
					"outputs": [
						{
							"internalType": "uint256",
							"name": "",
							"type": "uint256"
						}
					],
					"stateMutability": "view",
					"type": "function"
				},
				{
					"inputs": [],
					"name": "owner",
					"outputs": [
						{
							"internalType": "address",
							"name": "",
							"type": "address"
						}
					],
					"stateMutability": "view",
					"type": "function"
				},
				{
					"inputs": [],
					"name": "pause",
					"outputs": [
						{
							"internalType": "bool",
							"name": "",
							"type": "bool"
						}
					],
					"stateMutability": "view",
					"type": "function"
				},
				{
					"inputs": [],
					"name": "paused",
					"outputs": [],
					"stateMutability": "nonpayable",
					"type": "function"
				},
				{
					"inputs": [
						{
							"internalType": "address",
							"name": "_referrer",
							"type": "address"
						}
					],
					"name": "registration",
					"outputs": [],
					"stateMutability": "nonpayable",
					"type": "function"
				},
				{
					"inputs": [
						{
							"internalType": "address",
							"name": "_newOwner",
							"type": "address"
						}
					],
					"name": "transferOwnership",
					"outputs": [],
					"stateMutability": "nonpayable",
					"type": "function"
				},
				{
					"inputs": [],
					"name": "unpaused",
					"outputs": [],
					"stateMutability": "nonpayable",
					"type": "function"
				},
				{
					"inputs": [
						{
							"internalType": "address",
							"name": "_token",
							"type": "address"
						}
					],
					"name": "updateLLTAddress",
					"outputs": [],
					"stateMutability": "nonpayable",
					"type": "function"
				},
				{
					"inputs": [
						{
							"internalType": "address",
							"name": "",
							"type": "address"
						}
					],
					"name": "users",
					"outputs": [
						{
							"internalType": "address",
							"name": "referrer",
							"type": "address"
						},
						{
							"internalType": "uint256",
							"name": "directReferralIncome",
							"type": "uint256"
						},
						{
							"internalType": "bool",
							"name": "isRegistered",
							"type": "bool"
						},
						{
							"internalType": "uint256",
							"name": "referralCount",
							"type": "uint256"
						},
						{
							"internalType": "uint256",
							"name": "registrationTime",
							"type": "uint256"
						},
						{
							"internalType": "uint256",
							"name": "teamIncome",
							"type": "uint256"
						},
						{
							"internalType": "uint256",
							"name": "teamSize",
							"type": "uint256"
						}
					],
					"stateMutability": "view",
					"type": "function"
				},
				{
					"inputs": [
						{
							"internalType": "uint256",
							"name": "amount",
							"type": "uint256"
						}
					],
					"name": "withdraw",
					"outputs": [],
					"stateMutability": "nonpayable",
					"type": "function"
				}
			],
			"devdoc": {
				"kind": "dev",
				"methods": {},
				"version": 1
			},
			"evm": {
				"assembly": "    /* \"MLM/2-level MLM/LevelLink.sol\":765:6584  contract LevelLink is ReentrancyGuard {... */\n  mstore(0x40, 0x80)\n    /* \"MLM/2-level MLM/LevelLink.sol\":915:926  10 * 10**18 */\n  0x8ac7230489e80000\n    /* \"MLM/2-level MLM/LevelLink.sol\":881:926  uint256 public REGISTRATION_FEE = 10 * 10**18 */\n  0x03\n  sstore\n    /* \"MLM/2-level MLM/LevelLink.sol\":933:1036  constructor(address _lltAddress) {... */\n  callvalue\n  dup1\n  iszero\n  tag_1\n  jumpi\n  0x00\n  dup1\n  revert\ntag_1:\n  pop\n  mload(0x40)\n  sub(codesize, bytecodeSize)\n  dup1\n  bytecodeSize\n  dup4\n  codecopy\n  dup2\n  dup2\n  add\n  0x40\n  mstore\n  dup2\n  add\n  swap1\n  tag_2\n  swap2\n  swap1\n  tag_3\n  jump\t// in\ntag_2:\n    /* \"@openzeppelin/contracts/security/ReentrancyGuard.sol\":1716:1717  1 */\n  0x01\n    /* \"@openzeppelin/contracts/security/ReentrancyGuard.sol\":1821:1828  _status */\n  0x00\n    /* \"@openzeppelin/contracts/security/ReentrancyGuard.sol\":1821:1843  _status = _NOT_ENTERED */\n  dup2\n  swap1\n  sstore\n  pop\n    /* \"MLM/2-level MLM/LevelLink.sol\":989:1000  _lltAddress */\n  dup1\n    /* \"MLM/2-level MLM/LevelLink.sol\":976:979  LLT */\n  0x01\n  0x00\n    /* \"MLM/2-level MLM/LevelLink.sol\":976:1001  LLT = IERC20(_lltAddress) */\n  0x0100\n  exp\n  dup2\n  sload\n  dup2\n  0xffffffffffffffffffffffffffffffffffffffff\n  mul\n  not\n  and\n  swap1\n  dup4\n  0xffffffffffffffffffffffffffffffffffffffff\n  and\n  mul\n  or\n  swap1\n  sstore\n  pop\n    /* \"MLM/2-level MLM/LevelLink.sol\":1019:1029  msg.sender */\n  caller\n    /* \"MLM/2-level MLM/LevelLink.sol\":1011:1016  owner */\n  0x02\n  0x00\n    /* \"MLM/2-level MLM/LevelLink.sol\":1011:1029  owner = msg.sender */\n  0x0100\n  exp\n  dup2\n  sload\n  dup2\n  0xffffffffffffffffffffffffffffffffffffffff\n  mul\n  not\n  and\n  swap1\n  dup4\n  0xffffffffffffffffffffffffffffffffffffffff\n  and\n  mul\n  or\n  swap1\n  sstore\n  pop\n    /* \"MLM/2-level MLM/LevelLink.sol\":933:1036  constructor(address _lltAddress) {... */\n  pop\n    /* \"MLM/2-level MLM/LevelLink.sol\":765:6584  contract LevelLink is ReentrancyGuard {... */\n  jump(tag_8)\n    /* \"#utility.yul\":88:205   */\ntag_10:\n    /* \"#utility.yul\":197:198   */\n  0x00\n    /* \"#utility.yul\":194:195   */\n  dup1\n    /* \"#utility.yul\":187:199   */\n  revert\n    /* \"#utility.yul\":334:460   */\ntag_12:\n    /* \"#utility.yul\":371:378   */\n  0x00\n    /* \"#utility.yul\":411:453   */\n  0xffffffffffffffffffffffffffffffffffffffff\n    /* \"#utility.yul\":404:409   */\n  dup3\n    /* \"#utility.yul\":400:454   */\n  and\n    /* \"#utility.yul\":389:454   */\n  swap1\n  pop\n    /* \"#utility.yul\":334:460   */\n  swap2\n  swap1\n  pop\n  jump\t// out\n    /* \"#utility.yul\":466:562   */\ntag_13:\n    /* \"#utility.yul\":503:510   */\n  0x00\n    /* \"#utility.yul\":532:556   */\n  tag_22\n    /* \"#utility.yul\":550:555   */\n  dup3\n    /* \"#utility.yul\":532:556   */\n  tag_12\n  jump\t// in\ntag_22:\n    /* \"#utility.yul\":521:556   */\n  swap1\n  pop\n    /* \"#utility.yul\":466:562   */\n  swap2\n  swap1\n  pop\n  jump\t// out\n    /* \"#utility.yul\":568:690   */\ntag_14:\n    /* \"#utility.yul\":641:665   */\n  tag_24\n    /* \"#utility.yul\":659:664   */\n  dup2\n    /* \"#utility.yul\":641:665   */\n  tag_13\n  jump\t// in\ntag_24:\n    /* \"#utility.yul\":634:639   */\n  dup2\n    /* \"#utility.yul\":631:666   */\n  eq\n    /* \"#utility.yul\":621:684   */\n  tag_25\n  jumpi\n    /* \"#utility.yul\":680:681   */\n  0x00\n    /* \"#utility.yul\":677:678   */\n  dup1\n    /* \"#utility.yul\":670:682   */\n  revert\n    /* \"#utility.yul\":621:684   */\ntag_25:\n    /* \"#utility.yul\":568:690   */\n  pop\n  jump\t// out\n    /* \"#utility.yul\":696:839   */\ntag_15:\n    /* \"#utility.yul\":753:758   */\n  0x00\n    /* \"#utility.yul\":784:790   */\n  dup2\n    /* \"#utility.yul\":778:791   */\n  mload\n    /* \"#utility.yul\":769:791   */\n  swap1\n  pop\n    /* \"#utility.yul\":800:833   */\n  tag_27\n    /* \"#utility.yul\":827:832   */\n  dup2\n    /* \"#utility.yul\":800:833   */\n  tag_14\n  jump\t// in\ntag_27:\n    /* \"#utility.yul\":696:839   */\n  swap3\n  swap2\n  pop\n  pop\n  jump\t// out\n    /* \"#utility.yul\":845:1196   */\ntag_3:\n    /* \"#utility.yul\":915:921   */\n  0x00\n    /* \"#utility.yul\":964:966   */\n  0x20\n    /* \"#utility.yul\":952:961   */\n  dup3\n    /* \"#utility.yul\":943:950   */\n  dup5\n    /* \"#utility.yul\":939:962   */\n  sub\n    /* \"#utility.yul\":935:967   */\n  slt\n    /* \"#utility.yul\":932:1051   */\n  iszero\n  tag_29\n  jumpi\n    /* \"#utility.yul\":970:1049   */\n  tag_30\n  tag_10\n  jump\t// in\ntag_30:\n    /* \"#utility.yul\":932:1051   */\ntag_29:\n    /* \"#utility.yul\":1090:1091   */\n  0x00\n    /* \"#utility.yul\":1115:1179   */\n  tag_31\n    /* \"#utility.yul\":1171:1178   */\n  dup5\n    /* \"#utility.yul\":1162:1168   */\n  dup3\n    /* \"#utility.yul\":1151:1160   */\n  dup6\n    /* \"#utility.yul\":1147:1169   */\n  add\n    /* \"#utility.yul\":1115:1179   */\n  tag_15\n  jump\t// in\ntag_31:\n    /* \"#utility.yul\":1105:1179   */\n  swap2\n  pop\n    /* \"#utility.yul\":1061:1189   */\n  pop\n    /* \"#utility.yul\":845:1196   */\n  swap3\n  swap2\n  pop\n  pop\n  jump\t// out\n    /* \"MLM/2-level MLM/LevelLink.sol\":765:6584  contract LevelLink is ReentrancyGuard {... */\ntag_8:\n  dataSize(sub_0)\n  dup1\n  dataOffset(sub_0)\n  0x00\n  codecopy\n  0x00\n  return\nstop\n\nsub_0: assembly {\n        /* \"MLM/2-level MLM/LevelLink.sol\":765:6584  contract LevelLink is ReentrancyGuard {... */\n      mstore(0x40, 0x80)\n      callvalue\n      dup1\n      iszero\n      tag_1\n      jumpi\n      0x00\n      dup1\n      revert\n    tag_1:\n      pop\n      jumpi(tag_2, lt(calldatasize, 0x04))\n      shr(0xe0, calldataload(0x00))\n      dup1\n      0x8da5cb5b\n      gt\n      tag_20\n      jumpi\n      dup1\n      0xb0b62f5a\n      gt\n      tag_21\n      jumpi\n      dup1\n      0xb0b62f5a\n      eq\n      tag_15\n      jumpi\n      dup1\n      0xc2d3c677\n      eq\n      tag_16\n      jumpi\n      dup1\n      0xd2c8e0e5\n      eq\n      tag_17\n      jumpi\n      dup1\n      0xf2fde38b\n      eq\n      tag_18\n      jumpi\n      dup1\n      0xf643ffbb\n      eq\n      tag_19\n      jumpi\n      jump(tag_2)\n    tag_21:\n      dup1\n      0x8da5cb5b\n      eq\n      tag_11\n      jumpi\n      dup1\n      0xa80f7e66\n      eq\n      tag_12\n      jumpi\n      dup1\n      0xa87430ba\n      eq\n      tag_13\n      jumpi\n      dup1\n      0xacc77dd7\n      eq\n      tag_14\n      jumpi\n      jump(tag_2)\n    tag_20:\n      dup1\n      0x5c975abb\n      gt\n      tag_22\n      jumpi\n      dup1\n      0x5c975abb\n      eq\n      tag_7\n      jumpi\n      dup1\n      0x64b4f751\n      eq\n      tag_8\n      jumpi\n      dup1\n      0x7e4c0e32\n      eq\n      tag_9\n      jumpi\n      dup1\n      0x8456cb59\n      eq\n      tag_10\n      jumpi\n      jump(tag_2)\n    tag_22:\n      dup1\n      0x0840605a\n      eq\n      tag_3\n      jumpi\n      dup1\n      0x2e1a7d4d\n      eq\n      tag_4\n      jumpi\n      dup1\n      0x4f404243\n      eq\n      tag_5\n      jumpi\n      dup1\n      0x5953942b\n      eq\n      tag_6\n      jumpi\n    tag_2:\n      0x00\n      dup1\n      revert\n        /* \"MLM/2-level MLM/LevelLink.sol\":1768:3710  function registration(address _referrer) external nonReentrant  whenNotPaused {... */\n    tag_3:\n      tag_23\n      0x04\n      dup1\n      calldatasize\n      sub\n      dup2\n      add\n      swap1\n      tag_24\n      swap2\n      swap1\n      tag_25\n      jump\t// in\n    tag_24:\n      tag_26\n      jump\t// in\n    tag_23:\n      stop\n        /* \"MLM/2-level MLM/LevelLink.sol\":4732:4843  function withdraw(uint256 amount) external nonReentrant  onlyOwner {... */\n    tag_4:\n      tag_27\n      0x04\n      dup1\n      calldatasize\n      sub\n      dup2\n      add\n      swap1\n      tag_28\n      swap2\n      swap1\n      tag_29\n      jump\t// in\n    tag_28:\n      tag_30\n      jump\t// in\n    tag_27:\n      stop\n        /* \"MLM/2-level MLM/LevelLink.sol\":6187:6355  function getIndirectReferrals(address _user)... */\n    tag_5:\n      tag_31\n      0x04\n      dup1\n      calldatasize\n      sub\n      dup2\n      add\n      swap1\n      tag_32\n      swap2\n      swap1\n      tag_25\n      jump\t// in\n    tag_32:\n      tag_33\n      jump\t// in\n    tag_31:\n      mload(0x40)\n      tag_34\n      swap2\n      swap1\n      tag_35\n      jump\t// in\n    tag_34:\n      mload(0x40)\n      dup1\n      swap2\n      sub\n      swap1\n      return\n        /* \"MLM/2-level MLM/LevelLink.sol\":6426:6582  function updateLLTAddress(address _token) external onlyOwner {... */\n    tag_6:\n      tag_36\n      0x04\n      dup1\n      calldatasize\n      sub\n      dup2\n      add\n      swap1\n      tag_37\n      swap2\n      swap1\n      tag_25\n      jump\t// in\n    tag_37:\n      tag_38\n      jump\t// in\n    tag_36:\n      stop\n        /* \"MLM/2-level MLM/LevelLink.sol\":4555:4621  function paused() external onlyOwner {... */\n    tag_7:\n      tag_39\n      tag_40\n      jump\t// in\n    tag_39:\n      stop\n        /* \"MLM/2-level MLM/LevelLink.sol\":881:926  uint256 public REGISTRATION_FEE = 10 * 10**18 */\n    tag_8:\n      tag_41\n      tag_42\n      jump\t// in\n    tag_41:\n      mload(0x40)\n      tag_43\n      swap2\n      swap1\n      tag_44\n      jump\t// in\n    tag_43:\n      mload(0x40)\n      dup1\n      swap2\n      sub\n      swap1\n      return\n        /* \"MLM/2-level MLM/LevelLink.sol\":4364:4549  function changeRegsiterationFee(uint256 _percentage) external onlyOwner {... */\n    tag_9:\n      tag_45\n      0x04\n      dup1\n      calldatasize\n      sub\n      dup2\n      add\n      swap1\n      tag_46\n      swap2\n      swap1\n      tag_29\n      jump\t// in\n    tag_46:\n      tag_47\n      jump\t// in\n    tag_45:\n      stop\n        /* \"MLM/2-level MLM/LevelLink.sol\":858:875  bool public pause */\n    tag_10:\n      tag_48\n      tag_49\n      jump\t// in\n    tag_48:\n      mload(0x40)\n      tag_50\n      swap2\n      swap1\n      tag_51\n      jump\t// in\n    tag_50:\n      mload(0x40)\n      dup1\n      swap2\n      sub\n      swap1\n      return\n        /* \"MLM/2-level MLM/LevelLink.sol\":832:852  address public owner */\n    tag_11:\n      tag_52\n      tag_53\n      jump\t// in\n    tag_52:\n      mload(0x40)\n      tag_54\n      swap2\n      swap1\n      tag_55\n      jump\t// in\n    tag_54:\n      mload(0x40)\n      dup1\n      swap2\n      sub\n      swap1\n      return\n        /* \"MLM/2-level MLM/LevelLink.sol\":809:826  IERC20 public LLT */\n    tag_12:\n      tag_56\n      tag_57\n      jump\t// in\n    tag_56:\n      mload(0x40)\n      tag_58\n      swap2\n      swap1\n      tag_59\n      jump\t// in\n    tag_58:\n      mload(0x40)\n      dup1\n      swap2\n      sub\n      swap1\n      return\n        /* \"MLM/2-level MLM/LevelLink.sol\":1724:1761  mapping(address => User) public users */\n    tag_13:\n      tag_60\n      0x04\n      dup1\n      calldatasize\n      sub\n      dup2\n      add\n      swap1\n      tag_61\n      swap2\n      swap1\n      tag_25\n      jump\t// in\n    tag_61:\n      tag_62\n      jump\t// in\n    tag_60:\n      mload(0x40)\n      tag_63\n      swap8\n      swap7\n      swap6\n      swap5\n      swap4\n      swap3\n      swap2\n      swap1\n      tag_64\n      jump\t// in\n    tag_63:\n      mload(0x40)\n      dup1\n      swap2\n      sub\n      swap1\n      return\n        /* \"MLM/2-level MLM/LevelLink.sol\":5289:5893  function getBasicInfoUser(address user)... */\n    tag_14:\n      tag_65\n      0x04\n      dup1\n      calldatasize\n      sub\n      dup2\n      add\n      swap1\n      tag_66\n      swap2\n      swap1\n      tag_25\n      jump\t// in\n    tag_66:\n      tag_67\n      jump\t// in\n    tag_65:\n      mload(0x40)\n      tag_68\n      swap8\n      swap7\n      swap6\n      swap5\n      swap4\n      swap3\n      swap2\n      swap1\n      tag_64\n      jump\t// in\n    tag_68:\n      mload(0x40)\n      dup1\n      swap2\n      sub\n      swap1\n      return\n        /* \"MLM/2-level MLM/LevelLink.sol\":4627:4696  function unpaused() external onlyOwner {... */\n    tag_15:\n      tag_69\n      tag_70\n      jump\t// in\n    tag_69:\n      stop\n        /* \"MLM/2-level MLM/LevelLink.sol\":4189:4358  function getTotalIncome(address _user) public view returns (uint256) {... */\n    tag_16:\n      tag_71\n      0x04\n      dup1\n      calldatasize\n      sub\n      dup2\n      add\n      swap1\n      tag_72\n      swap2\n      swap1\n      tag_25\n      jump\t// in\n    tag_72:\n      tag_73\n      jump\t// in\n    tag_71:\n      mload(0x40)\n      tag_74\n      swap2\n      swap1\n      tag_44\n      jump\t// in\n    tag_74:\n      mload(0x40)\n      dup1\n      swap2\n      sub\n      swap1\n      return\n        /* \"MLM/2-level MLM/LevelLink.sol\":5086:5250  function getDirectReferrals(address _user)... */\n    tag_17:\n      tag_75\n      0x04\n      dup1\n      calldatasize\n      sub\n      dup2\n      add\n      swap1\n      tag_76\n      swap2\n      swap1\n      tag_25\n      jump\t// in\n    tag_76:\n      tag_77\n      jump\t// in\n    tag_75:\n      mload(0x40)\n      tag_78\n      swap2\n      swap1\n      tag_35\n      jump\t// in\n    tag_78:\n      mload(0x40)\n      dup1\n      swap2\n      sub\n      swap1\n      return\n        /* \"MLM/2-level MLM/LevelLink.sol\":4875:5037  function transferOwnership(address _newOwner) external onlyOwner {... */\n    tag_18:\n      tag_79\n      0x04\n      dup1\n      calldatasize\n      sub\n      dup2\n      add\n      swap1\n      tag_80\n      swap2\n      swap1\n      tag_25\n      jump\t// in\n    tag_80:\n      tag_81\n      jump\t// in\n    tag_79:\n      stop\n        /* \"MLM/2-level MLM/LevelLink.sol\":5951:6140  function getTotalTeamSize(address _user) external view returns (uint256) {... */\n    tag_19:\n      tag_82\n      0x04\n      dup1\n      calldatasize\n      sub\n      dup2\n      add\n      swap1\n      tag_83\n      swap2\n      swap1\n      tag_25\n      jump\t// in\n    tag_83:\n      tag_84\n      jump\t// in\n    tag_82:\n      mload(0x40)\n      tag_85\n      swap2\n      swap1\n      tag_44\n      jump\t// in\n    tag_85:\n      mload(0x40)\n      dup1\n      swap2\n      sub\n      swap1\n      return\n        /* \"MLM/2-level MLM/LevelLink.sol\":1768:3710  function registration(address _referrer) external nonReentrant  whenNotPaused {... */\n    tag_26:\n        /* \"@openzeppelin/contracts/security/ReentrancyGuard.sol\":2261:2282  _nonReentrantBefore() */\n      tag_87\n        /* \"@openzeppelin/contracts/security/ReentrancyGuard.sol\":2261:2280  _nonReentrantBefore */\n      tag_88\n        /* \"@openzeppelin/contracts/security/ReentrancyGuard.sol\":2261:2282  _nonReentrantBefore() */\n      jump\t// in\n    tag_87:\n        /* \"MLM/2-level MLM/LevelLink.sol\":1182:1187  pause */\n      0x02\n      0x14\n      swap1\n      sload\n      swap1\n      0x0100\n      exp\n      swap1\n      div\n      0xff\n      and\n        /* \"MLM/2-level MLM/LevelLink.sol\":1181:1187  !pause */\n      iszero\n        /* \"MLM/2-level MLM/LevelLink.sol\":1173:1212  require(!pause, \"ChainBoost is Paused\") */\n      tag_90\n      jumpi\n      mload(0x40)\n      0x08c379a000000000000000000000000000000000000000000000000000000000\n      dup2\n      mstore\n      0x04\n      add\n      tag_91\n      swap1\n      tag_92\n      jump\t// in\n    tag_91:\n      mload(0x40)\n      dup1\n      swap2\n      sub\n      swap1\n      revert\n    tag_90:\n        /* \"MLM/2-level MLM/LevelLink.sol\":1877:1887  msg.sender */\n      caller\n        /* \"MLM/2-level MLM/LevelLink.sol\":1864:1887  _referrer != msg.sender */\n      0xffffffffffffffffffffffffffffffffffffffff\n      and\n        /* \"MLM/2-level MLM/LevelLink.sol\":1864:1873  _referrer */\n      dup2\n        /* \"MLM/2-level MLM/LevelLink.sol\":1864:1887  _referrer != msg.sender */\n      0xffffffffffffffffffffffffffffffffffffffff\n      and\n      sub\n        /* \"MLM/2-level MLM/LevelLink.sol\":1856:1913  require(_referrer != msg.sender, \"Cannot refer yourself\") */\n      tag_94\n      jumpi\n      mload(0x40)\n      0x08c379a000000000000000000000000000000000000000000000000000000000\n      dup2\n      mstore\n      0x04\n      add\n      tag_95\n      swap1\n      tag_96\n      jump\t// in\n    tag_95:\n      mload(0x40)\n      dup1\n      swap2\n      sub\n      swap1\n      revert\n    tag_94:\n        /* \"MLM/2-level MLM/LevelLink.sol\":1933:1938  users */\n      0x04\n        /* \"MLM/2-level MLM/LevelLink.sol\":1933:1950  users[msg.sender] */\n      0x00\n        /* \"MLM/2-level MLM/LevelLink.sol\":1939:1949  msg.sender */\n      caller\n        /* \"MLM/2-level MLM/LevelLink.sol\":1933:1950  users[msg.sender] */\n      0xffffffffffffffffffffffffffffffffffffffff\n      and\n      0xffffffffffffffffffffffffffffffffffffffff\n      and\n      dup2\n      mstore\n      0x20\n      add\n      swap1\n      dup2\n      mstore\n      0x20\n      add\n      0x00\n      keccak256\n        /* \"MLM/2-level MLM/LevelLink.sol\":1933:1963  users[msg.sender].isRegistered */\n      0x02\n      add\n      0x00\n      swap1\n      sload\n      swap1\n      0x0100\n      exp\n      swap1\n      div\n      0xff\n      and\n        /* \"MLM/2-level MLM/LevelLink.sol\":1932:1963  !users[msg.sender].isRegistered */\n      iszero\n        /* \"MLM/2-level MLM/LevelLink.sol\":1924:1986  require(!users[msg.sender].isRegistered, \"Already registered\") */\n      tag_97\n      jumpi\n      mload(0x40)\n      0x08c379a000000000000000000000000000000000000000000000000000000000\n      dup2\n      mstore\n      0x04\n      add\n      tag_98\n      swap1\n      tag_99\n      jump\t// in\n    tag_98:\n      mload(0x40)\n      dup1\n      swap2\n      sub\n      swap1\n      revert\n    tag_97:\n        /* \"MLM/2-level MLM/LevelLink.sol\":2025:2026  0 */\n      0x00\n        /* \"MLM/2-level MLM/LevelLink.sol\":2004:2027  _referrer != address(0) */\n      0xffffffffffffffffffffffffffffffffffffffff\n      and\n        /* \"MLM/2-level MLM/LevelLink.sol\":2004:2013  _referrer */\n      dup2\n        /* \"MLM/2-level MLM/LevelLink.sol\":2004:2027  _referrer != address(0) */\n      0xffffffffffffffffffffffffffffffffffffffff\n      and\n      sub\n        /* \"MLM/2-level MLM/LevelLink.sol\":1996:2048  require(_referrer != address(0), \"invalid referral\") */\n      tag_100\n      jumpi\n      mload(0x40)\n      0x08c379a000000000000000000000000000000000000000000000000000000000\n      dup2\n      mstore\n      0x04\n      add\n      tag_101\n      swap1\n      tag_102\n      jump\t// in\n    tag_101:\n      mload(0x40)\n      dup1\n      swap2\n      sub\n      swap1\n      revert\n    tag_100:\n        /* \"MLM/2-level MLM/LevelLink.sol\":2080:2085  users */\n      0x04\n        /* \"MLM/2-level MLM/LevelLink.sol\":2080:2096  users[_referrer] */\n      0x00\n        /* \"MLM/2-level MLM/LevelLink.sol\":2086:2095  _referrer */\n      dup3\n        /* \"MLM/2-level MLM/LevelLink.sol\":2080:2096  users[_referrer] */\n      0xffffffffffffffffffffffffffffffffffffffff\n      and\n      0xffffffffffffffffffffffffffffffffffffffff\n      and\n      dup2\n      mstore\n      0x20\n      add\n      swap1\n      dup2\n      mstore\n      0x20\n      add\n      0x00\n      keccak256\n        /* \"MLM/2-level MLM/LevelLink.sol\":2080:2109  users[_referrer].isRegistered */\n      0x02\n      add\n      0x00\n      swap1\n      sload\n      swap1\n      0x0100\n      exp\n      swap1\n      div\n      0xff\n      and\n        /* \"MLM/2-level MLM/LevelLink.sol\":2059:2183  require(... */\n      tag_103\n      jumpi\n      mload(0x40)\n      0x08c379a000000000000000000000000000000000000000000000000000000000\n      dup2\n      mstore\n      0x04\n      add\n      tag_104\n      swap1\n      tag_105\n      jump\t// in\n    tag_104:\n      mload(0x40)\n      dup1\n      swap2\n      sub\n      swap1\n      revert\n    tag_103:\n        /* \"MLM/2-level MLM/LevelLink.sol\":2215:2218  LLT */\n      0x01\n      0x00\n      swap1\n      sload\n      swap1\n      0x0100\n      exp\n      swap1\n      div\n      0xffffffffffffffffffffffffffffffffffffffff\n      and\n        /* \"MLM/2-level MLM/LevelLink.sol\":2215:2231  LLT.transferFrom */\n      0xffffffffffffffffffffffffffffffffffffffff\n      and\n      0x23b872dd\n        /* \"MLM/2-level MLM/LevelLink.sol\":2232:2242  msg.sender */\n      caller\n        /* \"MLM/2-level MLM/LevelLink.sol\":2252:2256  this */\n      address\n        /* \"MLM/2-level MLM/LevelLink.sol\":2259:2275  REGISTRATION_FEE */\n      sload(0x03)\n        /* \"MLM/2-level MLM/LevelLink.sol\":2215:2276  LLT.transferFrom(msg.sender, address(this), REGISTRATION_FEE) */\n      mload(0x40)\n      dup5\n      0xffffffff\n      and\n      0xe0\n      shl\n      dup2\n      mstore\n      0x04\n      add\n      tag_106\n      swap4\n      swap3\n      swap2\n      swap1\n      tag_107\n      jump\t// in\n    tag_106:\n      0x20\n      mload(0x40)\n      dup1\n      dup4\n      sub\n      dup2\n      0x00\n      dup8\n      gas\n      call\n      iszero\n      dup1\n      iszero\n      tag_109\n      jumpi\n      returndatasize\n      0x00\n      dup1\n      returndatacopy\n      revert(0x00, returndatasize)\n    tag_109:\n      pop\n      pop\n      pop\n      pop\n      mload(0x40)\n      returndatasize\n      not(0x1f)\n      0x1f\n      dup3\n      add\n      and\n      dup3\n      add\n      dup1\n      0x40\n      mstore\n      pop\n      dup2\n      add\n      swap1\n      tag_110\n      swap2\n      swap1\n      tag_111\n      jump\t// in\n    tag_110:\n        /* \"MLM/2-level MLM/LevelLink.sol\":2194:2321  require(... */\n      tag_112\n      jumpi\n      mload(0x40)\n      0x08c379a000000000000000000000000000000000000000000000000000000000\n      dup2\n      mstore\n      0x04\n      add\n      tag_113\n      swap1\n      tag_114\n      jump\t// in\n    tag_113:\n      mload(0x40)\n      dup1\n      swap2\n      sub\n      swap1\n      revert\n    tag_112:\n        /* \"MLM/2-level MLM/LevelLink.sol\":2331:2359  User storage currentReferrer */\n      0x00\n        /* \"MLM/2-level MLM/LevelLink.sol\":2362:2367  users */\n      0x04\n        /* \"MLM/2-level MLM/LevelLink.sol\":2362:2378  users[_referrer] */\n      0x00\n        /* \"MLM/2-level MLM/LevelLink.sol\":2368:2377  _referrer */\n      dup4\n        /* \"MLM/2-level MLM/LevelLink.sol\":2362:2378  users[_referrer] */\n      0xffffffffffffffffffffffffffffffffffffffff\n      and\n      0xffffffffffffffffffffffffffffffffffffffff\n      and\n      dup2\n      mstore\n      0x20\n      add\n      swap1\n      dup2\n      mstore\n      0x20\n      add\n      0x00\n      keccak256\n        /* \"MLM/2-level MLM/LevelLink.sol\":2331:2378  User storage currentReferrer = users[_referrer] */\n      swap1\n      pop\n        /* \"MLM/2-level MLM/LevelLink.sol\":2491:2505  uint256 reward */\n      0x00\n        /* \"MLM/2-level MLM/LevelLink.sol\":2508:2555  calculateDirectReferralReward(REGISTRATION_FEE) */\n      tag_115\n        /* \"MLM/2-level MLM/LevelLink.sol\":2538:2554  REGISTRATION_FEE */\n      sload(0x03)\n        /* \"MLM/2-level MLM/LevelLink.sol\":2508:2537  calculateDirectReferralReward */\n      tag_116\n        /* \"MLM/2-level MLM/LevelLink.sol\":2508:2555  calculateDirectReferralReward(REGISTRATION_FEE) */\n      jump\t// in\n    tag_115:\n        /* \"MLM/2-level MLM/LevelLink.sol\":2491:2555  uint256 reward = calculateDirectReferralReward(REGISTRATION_FEE) */\n      swap1\n      pop\n        /* \"MLM/2-level MLM/LevelLink.sol\":2565:2568  LLT */\n      0x01\n      0x00\n      swap1\n      sload\n      swap1\n      0x0100\n      exp\n      swap1\n      div\n      0xffffffffffffffffffffffffffffffffffffffff\n      and\n        /* \"MLM/2-level MLM/LevelLink.sol\":2565:2577  LLT.transfer */\n      0xffffffffffffffffffffffffffffffffffffffff\n      and\n      0xa9059cbb\n        /* \"MLM/2-level MLM/LevelLink.sol\":2578:2587  _referrer */\n      dup5\n        /* \"MLM/2-level MLM/LevelLink.sol\":2589:2595  reward */\n      dup4\n        /* \"MLM/2-level MLM/LevelLink.sol\":2565:2596  LLT.transfer(_referrer, reward) */\n      mload(0x40)\n      dup4\n      0xffffffff\n      and\n      0xe0\n      shl\n      dup2\n      mstore\n      0x04\n      add\n      tag_117\n      swap3\n      swap2\n      swap1\n      tag_118\n      jump\t// in\n    tag_117:\n      0x20\n      mload(0x40)\n      dup1\n      dup4\n      sub\n      dup2\n      0x00\n      dup8\n      gas\n      call\n      iszero\n      dup1\n      iszero\n      tag_120\n      jumpi\n      returndatasize\n      0x00\n      dup1\n      returndatacopy\n      revert(0x00, returndatasize)\n    tag_120:\n      pop\n      pop\n      pop\n      pop\n      mload(0x40)\n      returndatasize\n      not(0x1f)\n      0x1f\n      dup3\n      add\n      and\n      dup3\n      add\n      dup1\n      0x40\n      mstore\n      pop\n      dup2\n      add\n      swap1\n      tag_121\n      swap2\n      swap1\n      tag_111\n      jump\t// in\n    tag_121:\n      pop\n        /* \"MLM/2-level MLM/LevelLink.sol\":2767:2768  0 */\n      0x00\n        /* \"MLM/2-level MLM/LevelLink.sol\":2731:2769  currentReferrer.referrer != address(0) */\n      0xffffffffffffffffffffffffffffffffffffffff\n      and\n        /* \"MLM/2-level MLM/LevelLink.sol\":2731:2746  currentReferrer */\n      dup3\n        /* \"MLM/2-level MLM/LevelLink.sol\":2731:2755  currentReferrer.referrer */\n      0x00\n      add\n      0x00\n      swap1\n      sload\n      swap1\n      0x0100\n      exp\n      swap1\n      div\n      0xffffffffffffffffffffffffffffffffffffffff\n      and\n        /* \"MLM/2-level MLM/LevelLink.sol\":2731:2769  currentReferrer.referrer != address(0) */\n      0xffffffffffffffffffffffffffffffffffffffff\n      and\n      eq\n        /* \"MLM/2-level MLM/LevelLink.sol\":2727:3266  if (currentReferrer.referrer != address(0)) {... */\n      tag_122\n      jumpi\n        /* \"MLM/2-level MLM/LevelLink.sol\":2785:2805  uint256 level2Reward */\n      0x00\n        /* \"MLM/2-level MLM/LevelLink.sol\":2808:2885  calculateLevel2ReferralReward(... */\n      tag_123\n        /* \"MLM/2-level MLM/LevelLink.sol\":2855:2871  REGISTRATION_FEE */\n      sload(0x03)\n        /* \"MLM/2-level MLM/LevelLink.sol\":2808:2837  calculateLevel2ReferralReward */\n      tag_124\n        /* \"MLM/2-level MLM/LevelLink.sol\":2808:2885  calculateLevel2ReferralReward(... */\n      jump\t// in\n    tag_123:\n        /* \"MLM/2-level MLM/LevelLink.sol\":2785:2885  uint256 level2Reward = calculateLevel2ReferralReward(... */\n      swap1\n      pop\n        /* \"MLM/2-level MLM/LevelLink.sol\":2899:2902  LLT */\n      0x01\n      0x00\n      swap1\n      sload\n      swap1\n      0x0100\n      exp\n      swap1\n      div\n      0xffffffffffffffffffffffffffffffffffffffff\n      and\n        /* \"MLM/2-level MLM/LevelLink.sol\":2899:2911  LLT.transfer */\n      0xffffffffffffffffffffffffffffffffffffffff\n      and\n      0xa9059cbb\n        /* \"MLM/2-level MLM/LevelLink.sol\":2912:2927  currentReferrer */\n      dup5\n        /* \"MLM/2-level MLM/LevelLink.sol\":2912:2936  currentReferrer.referrer */\n      0x00\n      add\n      0x00\n      swap1\n      sload\n      swap1\n      0x0100\n      exp\n      swap1\n      div\n      0xffffffffffffffffffffffffffffffffffffffff\n      and\n        /* \"MLM/2-level MLM/LevelLink.sol\":2938:2950  level2Reward */\n      dup4\n        /* \"MLM/2-level MLM/LevelLink.sol\":2899:2951  LLT.transfer(currentReferrer.referrer, level2Reward) */\n      mload(0x40)\n      dup4\n      0xffffffff\n      and\n      0xe0\n      shl\n      dup2\n      mstore\n      0x04\n      add\n      tag_125\n      swap3\n      swap2\n      swap1\n      tag_118\n      jump\t// in\n    tag_125:\n      0x20\n      mload(0x40)\n      dup1\n      dup4\n      sub\n      dup2\n      0x00\n      dup8\n      gas\n      call\n      iszero\n      dup1\n      iszero\n      tag_127\n      jumpi\n      returndatasize\n      0x00\n      dup1\n      returndatacopy\n      revert(0x00, returndatasize)\n    tag_127:\n      pop\n      pop\n      pop\n      pop\n      mload(0x40)\n      returndatasize\n      not(0x1f)\n      0x1f\n      dup3\n      add\n      and\n      dup3\n      add\n      dup1\n      0x40\n      mstore\n      pop\n      dup2\n      add\n      swap1\n      tag_128\n      swap2\n      swap1\n      tag_111\n      jump\t// in\n    tag_128:\n      pop\n        /* \"MLM/2-level MLM/LevelLink.sol\":3038:3064  User storage grandReferrer */\n      0x00\n        /* \"MLM/2-level MLM/LevelLink.sol\":3067:3072  users */\n      0x04\n        /* \"MLM/2-level MLM/LevelLink.sol\":3067:3098  users[currentReferrer.referrer] */\n      0x00\n        /* \"MLM/2-level MLM/LevelLink.sol\":3073:3088  currentReferrer */\n      dup6\n        /* \"MLM/2-level MLM/LevelLink.sol\":3073:3097  currentReferrer.referrer */\n      0x00\n      add\n      0x00\n      swap1\n      sload\n      swap1\n      0x0100\n      exp\n      swap1\n      div\n      0xffffffffffffffffffffffffffffffffffffffff\n      and\n        /* \"MLM/2-level MLM/LevelLink.sol\":3067:3098  users[currentReferrer.referrer] */\n      0xffffffffffffffffffffffffffffffffffffffff\n      and\n      0xffffffffffffffffffffffffffffffffffffffff\n      and\n      dup2\n      mstore\n      0x20\n      add\n      swap1\n      dup2\n      mstore\n      0x20\n      add\n      0x00\n      keccak256\n        /* \"MLM/2-level MLM/LevelLink.sol\":3038:3098  User storage grandReferrer = users[currentReferrer.referrer] */\n      swap1\n      pop\n        /* \"MLM/2-level MLM/LevelLink.sol\":3112:3125  grandReferrer */\n      dup1\n        /* \"MLM/2-level MLM/LevelLink.sol\":3112:3143  grandReferrer.indirectReferrals */\n      0x08\n      add\n        /* \"MLM/2-level MLM/LevelLink.sol\":3149:3159  msg.sender */\n      caller\n        /* \"MLM/2-level MLM/LevelLink.sol\":3112:3160  grandReferrer.indirectReferrals.push(msg.sender) */\n      swap1\n      dup1\n      0x01\n      dup2\n      sload\n      add\n      dup1\n      dup3\n      sstore\n      dup1\n      swap2\n      pop\n      pop\n      0x01\n      swap1\n      sub\n      swap1\n      0x00\n      mstore\n      keccak256(0x00, 0x20)\n      add\n      0x00\n      swap1\n      swap2\n      swap1\n      swap2\n      swap1\n      swap2\n      0x0100\n      exp\n      dup2\n      sload\n      dup2\n      0xffffffffffffffffffffffffffffffffffffffff\n      mul\n      not\n      and\n      swap1\n      dup4\n      0xffffffffffffffffffffffffffffffffffffffff\n      and\n      mul\n      or\n      swap1\n      sstore\n      pop\n        /* \"MLM/2-level MLM/LevelLink.sol\":3200:3201  1 */\n      0x01\n        /* \"MLM/2-level MLM/LevelLink.sol\":3174:3187  grandReferrer */\n      dup2\n        /* \"MLM/2-level MLM/LevelLink.sol\":3174:3196  grandReferrer.teamSize */\n      0x07\n      add\n      0x00\n        /* \"MLM/2-level MLM/LevelLink.sol\":3174:3201  grandReferrer.teamSize += 1 */\n      dup3\n      dup3\n      sload\n      tag_130\n      swap2\n      swap1\n      tag_131\n      jump\t// in\n    tag_130:\n      swap3\n      pop\n      pop\n      dup2\n      swap1\n      sstore\n      pop\n        /* \"MLM/2-level MLM/LevelLink.sol\":3243:3255  level2Reward */\n      dup2\n        /* \"MLM/2-level MLM/LevelLink.sol\":3215:3228  grandReferrer */\n      dup2\n        /* \"MLM/2-level MLM/LevelLink.sol\":3215:3239  grandReferrer.teamIncome */\n      0x06\n      add\n      0x00\n        /* \"MLM/2-level MLM/LevelLink.sol\":3215:3255  grandReferrer.teamIncome += level2Reward */\n      dup3\n      dup3\n      sload\n      tag_132\n      swap2\n      swap1\n      tag_131\n      jump\t// in\n    tag_132:\n      swap3\n      pop\n      pop\n      dup2\n      swap1\n      sstore\n      pop\n        /* \"MLM/2-level MLM/LevelLink.sol\":2771:3266  {... */\n      pop\n      pop\n        /* \"MLM/2-level MLM/LevelLink.sol\":2727:3266  if (currentReferrer.referrer != address(0)) {... */\n    tag_122:\n        /* \"MLM/2-level MLM/LevelLink.sol\":3342:3348  reward */\n      dup1\n        /* \"MLM/2-level MLM/LevelLink.sol\":3301:3306  users */\n      0x04\n        /* \"MLM/2-level MLM/LevelLink.sol\":3301:3317  users[_referrer] */\n      0x00\n        /* \"MLM/2-level MLM/LevelLink.sol\":3307:3316  _referrer */\n      dup6\n        /* \"MLM/2-level MLM/LevelLink.sol\":3301:3317  users[_referrer] */\n      0xffffffffffffffffffffffffffffffffffffffff\n      and\n      0xffffffffffffffffffffffffffffffffffffffff\n      and\n      dup2\n      mstore\n      0x20\n      add\n      swap1\n      dup2\n      mstore\n      0x20\n      add\n      0x00\n      keccak256\n        /* \"MLM/2-level MLM/LevelLink.sol\":3301:3338  users[_referrer].directReferralIncome */\n      0x01\n      add\n      0x00\n        /* \"MLM/2-level MLM/LevelLink.sol\":3301:3348  users[_referrer].directReferralIncome += reward */\n      dup3\n      dup3\n      sload\n      tag_133\n      swap2\n      swap1\n      tag_131\n      jump\t// in\n    tag_133:\n      swap3\n      pop\n      pop\n      dup2\n      swap1\n      sstore\n      pop\n        /* \"MLM/2-level MLM/LevelLink.sol\":3392:3393  1 */\n      0x01\n        /* \"MLM/2-level MLM/LevelLink.sol\":3358:3363  users */\n      0x04\n        /* \"MLM/2-level MLM/LevelLink.sol\":3358:3374  users[_referrer] */\n      0x00\n        /* \"MLM/2-level MLM/LevelLink.sol\":3364:3373  _referrer */\n      dup6\n        /* \"MLM/2-level MLM/LevelLink.sol\":3358:3374  users[_referrer] */\n      0xffffffffffffffffffffffffffffffffffffffff\n      and\n      0xffffffffffffffffffffffffffffffffffffffff\n      and\n      dup2\n      mstore\n      0x20\n      add\n      swap1\n      dup2\n      mstore\n      0x20\n      add\n      0x00\n      keccak256\n        /* \"MLM/2-level MLM/LevelLink.sol\":3358:3388  users[_referrer].referralCount */\n      0x03\n      add\n      0x00\n        /* \"MLM/2-level MLM/LevelLink.sol\":3358:3393  users[_referrer].referralCount += 1 */\n      dup3\n      dup3\n      sload\n      tag_134\n      swap2\n      swap1\n      tag_131\n      jump\t// in\n    tag_134:\n      swap3\n      pop\n      pop\n      dup2\n      swap1\n      sstore\n      pop\n        /* \"MLM/2-level MLM/LevelLink.sol\":3432:3433  1 */\n      0x01\n        /* \"MLM/2-level MLM/LevelLink.sol\":3403:3408  users */\n      0x04\n        /* \"MLM/2-level MLM/LevelLink.sol\":3403:3419  users[_referrer] */\n      0x00\n        /* \"MLM/2-level MLM/LevelLink.sol\":3409:3418  _referrer */\n      dup6\n        /* \"MLM/2-level MLM/LevelLink.sol\":3403:3419  users[_referrer] */\n      0xffffffffffffffffffffffffffffffffffffffff\n      and\n      0xffffffffffffffffffffffffffffffffffffffff\n      and\n      dup2\n      mstore\n      0x20\n      add\n      swap1\n      dup2\n      mstore\n      0x20\n      add\n      0x00\n      keccak256\n        /* \"MLM/2-level MLM/LevelLink.sol\":3403:3428  users[_referrer].teamSize */\n      0x07\n      add\n      0x00\n        /* \"MLM/2-level MLM/LevelLink.sol\":3403:3433  users[_referrer].teamSize += 1 */\n      dup3\n      dup3\n      sload\n      tag_135\n      swap2\n      swap1\n      tag_131\n      jump\t// in\n    tag_135:\n      swap3\n      pop\n      pop\n      dup2\n      swap1\n      sstore\n      pop\n        /* \"MLM/2-level MLM/LevelLink.sol\":3443:3448  users */\n      0x04\n        /* \"MLM/2-level MLM/LevelLink.sol\":3443:3459  users[_referrer] */\n      0x00\n        /* \"MLM/2-level MLM/LevelLink.sol\":3449:3458  _referrer */\n      dup5\n        /* \"MLM/2-level MLM/LevelLink.sol\":3443:3459  users[_referrer] */\n      0xffffffffffffffffffffffffffffffffffffffff\n      and\n      0xffffffffffffffffffffffffffffffffffffffff\n      and\n      dup2\n      mstore\n      0x20\n      add\n      swap1\n      dup2\n      mstore\n      0x20\n      add\n      0x00\n      keccak256\n        /* \"MLM/2-level MLM/LevelLink.sol\":3443:3475  users[_referrer].directReferrals */\n      0x05\n      add\n        /* \"MLM/2-level MLM/LevelLink.sol\":3481:3491  msg.sender */\n      caller\n        /* \"MLM/2-level MLM/LevelLink.sol\":3443:3492  users[_referrer].directReferrals.push(msg.sender) */\n      swap1\n      dup1\n      0x01\n      dup2\n      sload\n      add\n      dup1\n      dup3\n      sstore\n      dup1\n      swap2\n      pop\n      pop\n      0x01\n      swap1\n      sub\n      swap1\n      0x00\n      mstore\n      keccak256(0x00, 0x20)\n      add\n      0x00\n      swap1\n      swap2\n      swap1\n      swap2\n      swap1\n      swap2\n      0x0100\n      exp\n      dup2\n      sload\n      dup2\n      0xffffffffffffffffffffffffffffffffffffffff\n      mul\n      not\n      and\n      swap1\n      dup4\n      0xffffffffffffffffffffffffffffffffffffffff\n      and\n      mul\n      or\n      swap1\n      sstore\n      pop\n        /* \"MLM/2-level MLM/LevelLink.sol\":3532:3541  _referrer */\n      dup3\n        /* \"MLM/2-level MLM/LevelLink.sol\":3503:3508  users */\n      0x04\n        /* \"MLM/2-level MLM/LevelLink.sol\":3503:3520  users[msg.sender] */\n      0x00\n        /* \"MLM/2-level MLM/LevelLink.sol\":3509:3519  msg.sender */\n      caller\n        /* \"MLM/2-level MLM/LevelLink.sol\":3503:3520  users[msg.sender] */\n      0xffffffffffffffffffffffffffffffffffffffff\n      and\n      0xffffffffffffffffffffffffffffffffffffffff\n      and\n      dup2\n      mstore\n      0x20\n      add\n      swap1\n      dup2\n      mstore\n      0x20\n      add\n      0x00\n      keccak256\n        /* \"MLM/2-level MLM/LevelLink.sol\":3503:3529  users[msg.sender].referrer */\n      0x00\n      add\n      0x00\n        /* \"MLM/2-level MLM/LevelLink.sol\":3503:3541  users[msg.sender].referrer = _referrer */\n      0x0100\n      exp\n      dup2\n      sload\n      dup2\n      0xffffffffffffffffffffffffffffffffffffffff\n      mul\n      not\n      and\n      swap1\n      dup4\n      0xffffffffffffffffffffffffffffffffffffffff\n      and\n      mul\n      or\n      swap1\n      sstore\n      pop\n        /* \"MLM/2-level MLM/LevelLink.sol\":3584:3588  true */\n      0x01\n        /* \"MLM/2-level MLM/LevelLink.sol\":3551:3556  users */\n      0x04\n        /* \"MLM/2-level MLM/LevelLink.sol\":3551:3568  users[msg.sender] */\n      0x00\n        /* \"MLM/2-level MLM/LevelLink.sol\":3557:3567  msg.sender */\n      caller\n        /* \"MLM/2-level MLM/LevelLink.sol\":3551:3568  users[msg.sender] */\n      0xffffffffffffffffffffffffffffffffffffffff\n      and\n      0xffffffffffffffffffffffffffffffffffffffff\n      and\n      dup2\n      mstore\n      0x20\n      add\n      swap1\n      dup2\n      mstore\n      0x20\n      add\n      0x00\n      keccak256\n        /* \"MLM/2-level MLM/LevelLink.sol\":3551:3581  users[msg.sender].isRegistered */\n      0x02\n      add\n      0x00\n        /* \"MLM/2-level MLM/LevelLink.sol\":3551:3588  users[msg.sender].isRegistered = true */\n      0x0100\n      exp\n      dup2\n      sload\n      dup2\n      0xff\n      mul\n      not\n      and\n      swap1\n      dup4\n      iszero\n      iszero\n      mul\n      or\n      swap1\n      sstore\n      pop\n        /* \"MLM/2-level MLM/LevelLink.sol\":3635:3650  block.timestamp */\n      timestamp\n        /* \"MLM/2-level MLM/LevelLink.sol\":3598:3603  users */\n      0x04\n        /* \"MLM/2-level MLM/LevelLink.sol\":3598:3615  users[msg.sender] */\n      0x00\n        /* \"MLM/2-level MLM/LevelLink.sol\":3604:3614  msg.sender */\n      caller\n        /* \"MLM/2-level MLM/LevelLink.sol\":3598:3615  users[msg.sender] */\n      0xffffffffffffffffffffffffffffffffffffffff\n      and\n      0xffffffffffffffffffffffffffffffffffffffff\n      and\n      dup2\n      mstore\n      0x20\n      add\n      swap1\n      dup2\n      mstore\n      0x20\n      add\n      0x00\n      keccak256\n        /* \"MLM/2-level MLM/LevelLink.sol\":3598:3632  users[msg.sender].registrationTime */\n      0x04\n      add\n        /* \"MLM/2-level MLM/LevelLink.sol\":3598:3650  users[msg.sender].registrationTime = block.timestamp */\n      dup2\n      swap1\n      sstore\n      pop\n        /* \"MLM/2-level MLM/LevelLink.sol\":1846:3710  {... */\n      pop\n      pop\n        /* \"@openzeppelin/contracts/security/ReentrancyGuard.sol\":2303:2323  _nonReentrantAfter() */\n      tag_137\n        /* \"@openzeppelin/contracts/security/ReentrancyGuard.sol\":2303:2321  _nonReentrantAfter */\n      tag_138\n        /* \"@openzeppelin/contracts/security/ReentrancyGuard.sol\":2303:2323  _nonReentrantAfter() */\n      jump\t// in\n    tag_137:\n        /* \"MLM/2-level MLM/LevelLink.sol\":1768:3710  function registration(address _referrer) external nonReentrant  whenNotPaused {... */\n      pop\n      jump\t// out\n        /* \"MLM/2-level MLM/LevelLink.sol\":4732:4843  function withdraw(uint256 amount) external nonReentrant  onlyOwner {... */\n    tag_30:\n        /* \"@openzeppelin/contracts/security/ReentrancyGuard.sol\":2261:2282  _nonReentrantBefore() */\n      tag_140\n        /* \"@openzeppelin/contracts/security/ReentrancyGuard.sol\":2261:2280  _nonReentrantBefore */\n      tag_88\n        /* \"@openzeppelin/contracts/security/ReentrancyGuard.sol\":2261:2282  _nonReentrantBefore() */\n      jump\t// in\n    tag_140:\n        /* \"MLM/2-level MLM/LevelLink.sol\":1095:1100  owner */\n      0x02\n      0x00\n      swap1\n      sload\n      swap1\n      0x0100\n      exp\n      swap1\n      div\n      0xffffffffffffffffffffffffffffffffffffffff\n      and\n        /* \"MLM/2-level MLM/LevelLink.sol\":1081:1100  msg.sender == owner */\n      0xffffffffffffffffffffffffffffffffffffffff\n      and\n        /* \"MLM/2-level MLM/LevelLink.sol\":1081:1091  msg.sender */\n      caller\n        /* \"MLM/2-level MLM/LevelLink.sol\":1081:1100  msg.sender == owner */\n      0xffffffffffffffffffffffffffffffffffffffff\n      and\n      eq\n        /* \"MLM/2-level MLM/LevelLink.sol\":1073:1115  require(msg.sender == owner, \"Only owner\") */\n      tag_142\n      jumpi\n      mload(0x40)\n      0x08c379a000000000000000000000000000000000000000000000000000000000\n      dup2\n      mstore\n      0x04\n      add\n      tag_143\n      swap1\n      tag_144\n      jump\t// in\n    tag_143:\n      mload(0x40)\n      dup1\n      swap2\n      sub\n      swap1\n      revert\n    tag_142:\n        /* \"MLM/2-level MLM/LevelLink.sol\":4809:4812  LLT */\n      0x01\n      0x00\n      swap1\n      sload\n      swap1\n      0x0100\n      exp\n      swap1\n      div\n      0xffffffffffffffffffffffffffffffffffffffff\n      and\n        /* \"MLM/2-level MLM/LevelLink.sol\":4809:4821  LLT.transfer */\n      0xffffffffffffffffffffffffffffffffffffffff\n      and\n      0xa9059cbb\n        /* \"MLM/2-level MLM/LevelLink.sol\":4822:4827  owner */\n      0x02\n      0x00\n      swap1\n      sload\n      swap1\n      0x0100\n      exp\n      swap1\n      div\n      0xffffffffffffffffffffffffffffffffffffffff\n      and\n        /* \"MLM/2-level MLM/LevelLink.sol\":4829:4835  amount */\n      dup4\n        /* \"MLM/2-level MLM/LevelLink.sol\":4809:4836  LLT.transfer(owner, amount) */\n      mload(0x40)\n      dup4\n      0xffffffff\n      and\n      0xe0\n      shl\n      dup2\n      mstore\n      0x04\n      add\n      tag_146\n      swap3\n      swap2\n      swap1\n      tag_118\n      jump\t// in\n    tag_146:\n      0x20\n      mload(0x40)\n      dup1\n      dup4\n      sub\n      dup2\n      0x00\n      dup8\n      gas\n      call\n      iszero\n      dup1\n      iszero\n      tag_148\n      jumpi\n      returndatasize\n      0x00\n      dup1\n      returndatacopy\n      revert(0x00, returndatasize)\n    tag_148:\n      pop\n      pop\n      pop\n      pop\n      mload(0x40)\n      returndatasize\n      not(0x1f)\n      0x1f\n      dup3\n      add\n      and\n      dup3\n      add\n      dup1\n      0x40\n      mstore\n      pop\n      dup2\n      add\n      swap1\n      tag_149\n      swap2\n      swap1\n      tag_111\n      jump\t// in\n    tag_149:\n      pop\n        /* \"@openzeppelin/contracts/security/ReentrancyGuard.sol\":2303:2323  _nonReentrantAfter() */\n      tag_150\n        /* \"@openzeppelin/contracts/security/ReentrancyGuard.sol\":2303:2321  _nonReentrantAfter */\n      tag_138\n        /* \"@openzeppelin/contracts/security/ReentrancyGuard.sol\":2303:2323  _nonReentrantAfter() */\n      jump\t// in\n    tag_150:\n        /* \"MLM/2-level MLM/LevelLink.sol\":4732:4843  function withdraw(uint256 amount) external nonReentrant  onlyOwner {... */\n      pop\n      jump\t// out\n        /* \"MLM/2-level MLM/LevelLink.sol\":6187:6355  function getIndirectReferrals(address _user)... */\n    tag_33:\n        /* \"MLM/2-level MLM/LevelLink.sol\":6279:6295  address[] memory */\n      0x60\n        /* \"MLM/2-level MLM/LevelLink.sol\":6318:6323  users */\n      0x04\n        /* \"MLM/2-level MLM/LevelLink.sol\":6318:6330  users[_user] */\n      0x00\n        /* \"MLM/2-level MLM/LevelLink.sol\":6324:6329  _user */\n      dup4\n        /* \"MLM/2-level MLM/LevelLink.sol\":6318:6330  users[_user] */\n      0xffffffffffffffffffffffffffffffffffffffff\n      and\n      0xffffffffffffffffffffffffffffffffffffffff\n      and\n      dup2\n      mstore\n      0x20\n      add\n      swap1\n      dup2\n      mstore\n      0x20\n      add\n      0x00\n      keccak256\n        /* \"MLM/2-level MLM/LevelLink.sol\":6318:6348  users[_user].indirectReferrals */\n      0x08\n      add\n        /* \"MLM/2-level MLM/LevelLink.sol\":6311:6348  return users[_user].indirectReferrals */\n      dup1\n      sload\n      dup1\n      0x20\n      mul\n      0x20\n      add\n      mload(0x40)\n      swap1\n      dup2\n      add\n      0x40\n      mstore\n      dup1\n      swap3\n      swap2\n      swap1\n      dup2\n      dup2\n      mstore\n      0x20\n      add\n      dup3\n      dup1\n      sload\n      dup1\n      iszero\n      tag_152\n      jumpi\n      0x20\n      mul\n      dup3\n      add\n      swap2\n      swap1\n      0x00\n      mstore\n      keccak256(0x00, 0x20)\n      swap1\n    tag_153:\n      dup2\n      0x00\n      swap1\n      sload\n      swap1\n      0x0100\n      exp\n      swap1\n      div\n      0xffffffffffffffffffffffffffffffffffffffff\n      and\n      0xffffffffffffffffffffffffffffffffffffffff\n      and\n      dup2\n      mstore\n      0x20\n      add\n      swap1\n      0x01\n      add\n      swap1\n      dup1\n      dup4\n      gt\n      tag_153\n      jumpi\n    tag_152:\n      pop\n      pop\n      pop\n      pop\n      pop\n      swap1\n      pop\n        /* \"MLM/2-level MLM/LevelLink.sol\":6187:6355  function getIndirectReferrals(address _user)... */\n      swap2\n      swap1\n      pop\n      jump\t// out\n        /* \"MLM/2-level MLM/LevelLink.sol\":6426:6582  function updateLLTAddress(address _token) external onlyOwner {... */\n    tag_38:\n        /* \"MLM/2-level MLM/LevelLink.sol\":1095:1100  owner */\n      0x02\n      0x00\n      swap1\n      sload\n      swap1\n      0x0100\n      exp\n      swap1\n      div\n      0xffffffffffffffffffffffffffffffffffffffff\n      and\n        /* \"MLM/2-level MLM/LevelLink.sol\":1081:1100  msg.sender == owner */\n      0xffffffffffffffffffffffffffffffffffffffff\n      and\n        /* \"MLM/2-level MLM/LevelLink.sol\":1081:1091  msg.sender */\n      caller\n        /* \"MLM/2-level MLM/LevelLink.sol\":1081:1100  msg.sender == owner */\n      0xffffffffffffffffffffffffffffffffffffffff\n      and\n      eq\n        /* \"MLM/2-level MLM/LevelLink.sol\":1073:1115  require(msg.sender == owner, \"Only owner\") */\n      tag_155\n      jumpi\n      mload(0x40)\n      0x08c379a000000000000000000000000000000000000000000000000000000000\n      dup2\n      mstore\n      0x04\n      add\n      tag_156\n      swap1\n      tag_144\n      jump\t// in\n    tag_156:\n      mload(0x40)\n      dup1\n      swap2\n      sub\n      swap1\n      revert\n    tag_155:\n        /* \"MLM/2-level MLM/LevelLink.sol\":6523:6524  0 */\n      0x00\n        /* \"MLM/2-level MLM/LevelLink.sol\":6505:6525  _token != address(0) */\n      0xffffffffffffffffffffffffffffffffffffffff\n      and\n        /* \"MLM/2-level MLM/LevelLink.sol\":6505:6511  _token */\n      dup2\n        /* \"MLM/2-level MLM/LevelLink.sol\":6505:6525  _token != address(0) */\n      0xffffffffffffffffffffffffffffffffffffffff\n      and\n      sub\n        /* \"MLM/2-level MLM/LevelLink.sol\":6497:6545  require(_token != address(0), \"invalid new bst\") */\n      tag_158\n      jumpi\n      mload(0x40)\n      0x08c379a000000000000000000000000000000000000000000000000000000000\n      dup2\n      mstore\n      0x04\n      add\n      tag_159\n      swap1\n      tag_160\n      jump\t// in\n    tag_159:\n      mload(0x40)\n      dup1\n      swap2\n      sub\n      swap1\n      revert\n    tag_158:\n        /* \"MLM/2-level MLM/LevelLink.sol\":6568:6574  _token */\n      dup1\n        /* \"MLM/2-level MLM/LevelLink.sol\":6555:6558  LLT */\n      0x01\n      0x00\n        /* \"MLM/2-level MLM/LevelLink.sol\":6555:6575  LLT = IERC20(_token) */\n      0x0100\n      exp\n      dup2\n      sload\n      dup2\n      0xffffffffffffffffffffffffffffffffffffffff\n      mul\n      not\n      and\n      swap1\n      dup4\n      0xffffffffffffffffffffffffffffffffffffffff\n      and\n      mul\n      or\n      swap1\n      sstore\n      pop\n        /* \"MLM/2-level MLM/LevelLink.sol\":6426:6582  function updateLLTAddress(address _token) external onlyOwner {... */\n      pop\n      jump\t// out\n        /* \"MLM/2-level MLM/LevelLink.sol\":4555:4621  function paused() external onlyOwner {... */\n    tag_40:\n        /* \"MLM/2-level MLM/LevelLink.sol\":1095:1100  owner */\n      0x02\n      0x00\n      swap1\n      sload\n      swap1\n      0x0100\n      exp\n      swap1\n      div\n      0xffffffffffffffffffffffffffffffffffffffff\n      and\n        /* \"MLM/2-level MLM/LevelLink.sol\":1081:1100  msg.sender == owner */\n      0xffffffffffffffffffffffffffffffffffffffff\n      and\n        /* \"MLM/2-level MLM/LevelLink.sol\":1081:1091  msg.sender */\n      caller\n        /* \"MLM/2-level MLM/LevelLink.sol\":1081:1100  msg.sender == owner */\n      0xffffffffffffffffffffffffffffffffffffffff\n      and\n      eq\n        /* \"MLM/2-level MLM/LevelLink.sol\":1073:1115  require(msg.sender == owner, \"Only owner\") */\n      tag_162\n      jumpi\n      mload(0x40)\n      0x08c379a000000000000000000000000000000000000000000000000000000000\n      dup2\n      mstore\n      0x04\n      add\n      tag_163\n      swap1\n      tag_144\n      jump\t// in\n    tag_163:\n      mload(0x40)\n      dup1\n      swap2\n      sub\n      swap1\n      revert\n    tag_162:\n        /* \"MLM/2-level MLM/LevelLink.sol\":4610:4614  true */\n      0x01\n        /* \"MLM/2-level MLM/LevelLink.sol\":4602:4607  pause */\n      0x02\n      0x14\n        /* \"MLM/2-level MLM/LevelLink.sol\":4602:4614  pause = true */\n      0x0100\n      exp\n      dup2\n      sload\n      dup2\n      0xff\n      mul\n      not\n      and\n      swap1\n      dup4\n      iszero\n      iszero\n      mul\n      or\n      swap1\n      sstore\n      pop\n        /* \"MLM/2-level MLM/LevelLink.sol\":4555:4621  function paused() external onlyOwner {... */\n      jump\t// out\n        /* \"MLM/2-level MLM/LevelLink.sol\":881:926  uint256 public REGISTRATION_FEE = 10 * 10**18 */\n    tag_42:\n      sload(0x03)\n      dup2\n      jump\t// out\n        /* \"MLM/2-level MLM/LevelLink.sol\":4364:4549  function changeRegsiterationFee(uint256 _percentage) external onlyOwner {... */\n    tag_47:\n        /* \"MLM/2-level MLM/LevelLink.sol\":1095:1100  owner */\n      0x02\n      0x00\n      swap1\n      sload\n      swap1\n      0x0100\n      exp\n      swap1\n      div\n      0xffffffffffffffffffffffffffffffffffffffff\n      and\n        /* \"MLM/2-level MLM/LevelLink.sol\":1081:1100  msg.sender == owner */\n      0xffffffffffffffffffffffffffffffffffffffff\n      and\n        /* \"MLM/2-level MLM/LevelLink.sol\":1081:1091  msg.sender */\n      caller\n        /* \"MLM/2-level MLM/LevelLink.sol\":1081:1100  msg.sender == owner */\n      0xffffffffffffffffffffffffffffffffffffffff\n      and\n      eq\n        /* \"MLM/2-level MLM/LevelLink.sol\":1073:1115  require(msg.sender == owner, \"Only owner\") */\n      tag_166\n      jumpi\n      mload(0x40)\n      0x08c379a000000000000000000000000000000000000000000000000000000000\n      dup2\n      mstore\n      0x04\n      add\n      tag_167\n      swap1\n      tag_144\n      jump\t// in\n    tag_167:\n      mload(0x40)\n      dup1\n      swap2\n      sub\n      swap1\n      revert\n    tag_166:\n        /* \"MLM/2-level MLM/LevelLink.sol\":4468:4470  99 */\n      0x63\n        /* \"MLM/2-level MLM/LevelLink.sol\":4454:4465  _percentage */\n      dup2\n        /* \"MLM/2-level MLM/LevelLink.sol\":4454:4470  _percentage < 99 */\n      lt\n        /* \"MLM/2-level MLM/LevelLink.sol\":4446:4493  require(_percentage < 99, \"invalid percentage\") */\n      tag_169\n      jumpi\n      mload(0x40)\n      0x08c379a000000000000000000000000000000000000000000000000000000000\n      dup2\n      mstore\n      0x04\n      add\n      tag_170\n      swap1\n      tag_171\n      jump\t// in\n    tag_170:\n      mload(0x40)\n      dup1\n      swap2\n      sub\n      swap1\n      revert\n    tag_169:\n        /* \"MLM/2-level MLM/LevelLink.sol\":4536:4542  10**18 */\n      0x0de0b6b3a7640000\n        /* \"MLM/2-level MLM/LevelLink.sol\":4522:4533  _percentage */\n      dup2\n        /* \"MLM/2-level MLM/LevelLink.sol\":4522:4542  _percentage * 10**18 */\n      tag_172\n      swap2\n      swap1\n      tag_173\n      jump\t// in\n    tag_172:\n        /* \"MLM/2-level MLM/LevelLink.sol\":4503:4519  REGISTRATION_FEE */\n      0x03\n        /* \"MLM/2-level MLM/LevelLink.sol\":4503:4542  REGISTRATION_FEE = _percentage * 10**18 */\n      dup2\n      swap1\n      sstore\n      pop\n        /* \"MLM/2-level MLM/LevelLink.sol\":4364:4549  function changeRegsiterationFee(uint256 _percentage) external onlyOwner {... */\n      pop\n      jump\t// out\n        /* \"MLM/2-level MLM/LevelLink.sol\":858:875  bool public pause */\n    tag_49:\n      0x02\n      0x14\n      swap1\n      sload\n      swap1\n      0x0100\n      exp\n      swap1\n      div\n      0xff\n      and\n      dup2\n      jump\t// out\n        /* \"MLM/2-level MLM/LevelLink.sol\":832:852  address public owner */\n    tag_53:\n      0x02\n      0x00\n      swap1\n      sload\n      swap1\n      0x0100\n      exp\n      swap1\n      div\n      0xffffffffffffffffffffffffffffffffffffffff\n      and\n      dup2\n      jump\t// out\n        /* \"MLM/2-level MLM/LevelLink.sol\":809:826  IERC20 public LLT */\n    tag_57:\n      0x01\n      0x00\n      swap1\n      sload\n      swap1\n      0x0100\n      exp\n      swap1\n      div\n      0xffffffffffffffffffffffffffffffffffffffff\n      and\n      dup2\n      jump\t// out\n        /* \"MLM/2-level MLM/LevelLink.sol\":1724:1761  mapping(address => User) public users */\n    tag_62:\n      mstore(0x20, 0x04)\n      dup1\n      0x00\n      mstore\n      keccak256(0x00, 0x40)\n      0x00\n      swap2\n      pop\n      swap1\n      pop\n      dup1\n      0x00\n      add\n      0x00\n      swap1\n      sload\n      swap1\n      0x0100\n      exp\n      swap1\n      div\n      0xffffffffffffffffffffffffffffffffffffffff\n      and\n      swap1\n      dup1\n      0x01\n      add\n      sload\n      swap1\n      dup1\n      0x02\n      add\n      0x00\n      swap1\n      sload\n      swap1\n      0x0100\n      exp\n      swap1\n      div\n      0xff\n      and\n      swap1\n      dup1\n      0x03\n      add\n      sload\n      swap1\n      dup1\n      0x04\n      add\n      sload\n      swap1\n      dup1\n      0x06\n      add\n      sload\n      swap1\n      dup1\n      0x07\n      add\n      sload\n      swap1\n      pop\n      dup8\n      jump\t// out\n        /* \"MLM/2-level MLM/LevelLink.sol\":5289:5893  function getBasicInfoUser(address user)... */\n    tag_67:\n        /* \"MLM/2-level MLM/LevelLink.sol\":5389:5405  address referrer */\n      0x00\n        /* \"MLM/2-level MLM/LevelLink.sol\":5419:5441  uint256 referralIncome */\n      dup1\n        /* \"MLM/2-level MLM/LevelLink.sol\":5455:5472  bool isRegistered */\n      0x00\n        /* \"MLM/2-level MLM/LevelLink.sol\":5486:5507  uint256 referralCount */\n      dup1\n        /* \"MLM/2-level MLM/LevelLink.sol\":5521:5545  uint256 registrationTime */\n      0x00\n        /* \"MLM/2-level MLM/LevelLink.sol\":5559:5577  uint256 teamIncome */\n      dup1\n        /* \"MLM/2-level MLM/LevelLink.sol\":5591:5607  uint256 teamSize */\n      0x00\n        /* \"MLM/2-level MLM/LevelLink.sol\":5632:5646  User storage u */\n      dup1\n        /* \"MLM/2-level MLM/LevelLink.sol\":5649:5654  users */\n      0x04\n        /* \"MLM/2-level MLM/LevelLink.sol\":5649:5660  users[user] */\n      0x00\n        /* \"MLM/2-level MLM/LevelLink.sol\":5655:5659  user */\n      dup11\n        /* \"MLM/2-level MLM/LevelLink.sol\":5649:5660  users[user] */\n      0xffffffffffffffffffffffffffffffffffffffff\n      and\n      0xffffffffffffffffffffffffffffffffffffffff\n      and\n      dup2\n      mstore\n      0x20\n      add\n      swap1\n      dup2\n      mstore\n      0x20\n      add\n      0x00\n      keccak256\n        /* \"MLM/2-level MLM/LevelLink.sol\":5632:5660  User storage u = users[user] */\n      swap1\n      pop\n        /* \"MLM/2-level MLM/LevelLink.sol\":5691:5692  u */\n      dup1\n        /* \"MLM/2-level MLM/LevelLink.sol\":5691:5701  u.referrer */\n      0x00\n      add\n      0x00\n      swap1\n      sload\n      swap1\n      0x0100\n      exp\n      swap1\n      div\n      0xffffffffffffffffffffffffffffffffffffffff\n      and\n        /* \"MLM/2-level MLM/LevelLink.sol\":5715:5716  u */\n      dup2\n        /* \"MLM/2-level MLM/LevelLink.sol\":5715:5737  u.directReferralIncome */\n      0x01\n      add\n      sload\n        /* \"MLM/2-level MLM/LevelLink.sol\":5751:5752  u */\n      dup3\n        /* \"MLM/2-level MLM/LevelLink.sol\":5751:5765  u.isRegistered */\n      0x02\n      add\n      0x00\n      swap1\n      sload\n      swap1\n      0x0100\n      exp\n      swap1\n      div\n      0xff\n      and\n        /* \"MLM/2-level MLM/LevelLink.sol\":5779:5780  u */\n      dup4\n        /* \"MLM/2-level MLM/LevelLink.sol\":5779:5794  u.referralCount */\n      0x03\n      add\n      sload\n        /* \"MLM/2-level MLM/LevelLink.sol\":5808:5809  u */\n      dup5\n        /* \"MLM/2-level MLM/LevelLink.sol\":5808:5826  u.registrationTime */\n      0x04\n      add\n      sload\n        /* \"MLM/2-level MLM/LevelLink.sol\":5840:5841  u */\n      dup6\n        /* \"MLM/2-level MLM/LevelLink.sol\":5840:5852  u.teamIncome */\n      0x06\n      add\n      sload\n        /* \"MLM/2-level MLM/LevelLink.sol\":5866:5867  u */\n      dup7\n        /* \"MLM/2-level MLM/LevelLink.sol\":5866:5876  u.teamSize */\n      0x07\n      add\n      sload\n        /* \"MLM/2-level MLM/LevelLink.sol\":5670:5886  return (... */\n      swap8\n      pop\n      swap8\n      pop\n      swap8\n      pop\n      swap8\n      pop\n      swap8\n      pop\n      swap8\n      pop\n      swap8\n      pop\n      pop\n        /* \"MLM/2-level MLM/LevelLink.sol\":5289:5893  function getBasicInfoUser(address user)... */\n      swap2\n      swap4\n      swap6\n      swap8\n      swap1\n      swap3\n      swap5\n      swap7\n      pop\n      jump\t// out\n        /* \"MLM/2-level MLM/LevelLink.sol\":4627:4696  function unpaused() external onlyOwner {... */\n    tag_70:\n        /* \"MLM/2-level MLM/LevelLink.sol\":1095:1100  owner */\n      0x02\n      0x00\n      swap1\n      sload\n      swap1\n      0x0100\n      exp\n      swap1\n      div\n      0xffffffffffffffffffffffffffffffffffffffff\n      and\n        /* \"MLM/2-level MLM/LevelLink.sol\":1081:1100  msg.sender == owner */\n      0xffffffffffffffffffffffffffffffffffffffff\n      and\n        /* \"MLM/2-level MLM/LevelLink.sol\":1081:1091  msg.sender */\n      caller\n        /* \"MLM/2-level MLM/LevelLink.sol\":1081:1100  msg.sender == owner */\n      0xffffffffffffffffffffffffffffffffffffffff\n      and\n      eq\n        /* \"MLM/2-level MLM/LevelLink.sol\":1073:1115  require(msg.sender == owner, \"Only owner\") */\n      tag_176\n      jumpi\n      mload(0x40)\n      0x08c379a000000000000000000000000000000000000000000000000000000000\n      dup2\n      mstore\n      0x04\n      add\n      tag_177\n      swap1\n      tag_144\n      jump\t// in\n    tag_177:\n      mload(0x40)\n      dup1\n      swap2\n      sub\n      swap1\n      revert\n    tag_176:\n        /* \"MLM/2-level MLM/LevelLink.sol\":4684:4689  false */\n      0x00\n        /* \"MLM/2-level MLM/LevelLink.sol\":4676:4681  pause */\n      0x02\n      0x14\n        /* \"MLM/2-level MLM/LevelLink.sol\":4676:4689  pause = false */\n      0x0100\n      exp\n      dup2\n      sload\n      dup2\n      0xff\n      mul\n      not\n      and\n      swap1\n      dup4\n      iszero\n      iszero\n      mul\n      or\n      swap1\n      sstore\n      pop\n        /* \"MLM/2-level MLM/LevelLink.sol\":4627:4696  function unpaused() external onlyOwner {... */\n      jump\t// out\n        /* \"MLM/2-level MLM/LevelLink.sol\":4189:4358  function getTotalIncome(address _user) public view returns (uint256) {... */\n    tag_73:\n        /* \"MLM/2-level MLM/LevelLink.sol\":4249:4256  uint256 */\n      0x00\n        /* \"MLM/2-level MLM/LevelLink.sol\":4268:4282  User storage u */\n      dup1\n        /* \"MLM/2-level MLM/LevelLink.sol\":4285:4290  users */\n      0x04\n        /* \"MLM/2-level MLM/LevelLink.sol\":4285:4297  users[_user] */\n      0x00\n        /* \"MLM/2-level MLM/LevelLink.sol\":4291:4296  _user */\n      dup5\n        /* \"MLM/2-level MLM/LevelLink.sol\":4285:4297  users[_user] */\n      0xffffffffffffffffffffffffffffffffffffffff\n      and\n      0xffffffffffffffffffffffffffffffffffffffff\n      and\n      dup2\n      mstore\n      0x20\n      add\n      swap1\n      dup2\n      mstore\n      0x20\n      add\n      0x00\n      keccak256\n        /* \"MLM/2-level MLM/LevelLink.sol\":4268:4297  User storage u = users[_user] */\n      swap1\n      pop\n        /* \"MLM/2-level MLM/LevelLink.sol\":4339:4340  u */\n      dup1\n        /* \"MLM/2-level MLM/LevelLink.sol\":4339:4351  u.teamIncome */\n      0x06\n      add\n      sload\n        /* \"MLM/2-level MLM/LevelLink.sol\":4314:4315  u */\n      dup2\n        /* \"MLM/2-level MLM/LevelLink.sol\":4314:4336  u.directReferralIncome */\n      0x01\n      add\n      sload\n        /* \"MLM/2-level MLM/LevelLink.sol\":4314:4351  u.directReferralIncome + u.teamIncome */\n      tag_180\n      swap2\n      swap1\n      tag_131\n      jump\t// in\n    tag_180:\n        /* \"MLM/2-level MLM/LevelLink.sol\":4307:4351  return u.directReferralIncome + u.teamIncome */\n      swap2\n      pop\n      pop\n        /* \"MLM/2-level MLM/LevelLink.sol\":4189:4358  function getTotalIncome(address _user) public view returns (uint256) {... */\n      swap2\n      swap1\n      pop\n      jump\t// out\n        /* \"MLM/2-level MLM/LevelLink.sol\":5086:5250  function getDirectReferrals(address _user)... */\n    tag_77:\n        /* \"MLM/2-level MLM/LevelLink.sol\":5176:5192  address[] memory */\n      0x60\n        /* \"MLM/2-level MLM/LevelLink.sol\":5215:5220  users */\n      0x04\n        /* \"MLM/2-level MLM/LevelLink.sol\":5215:5227  users[_user] */\n      0x00\n        /* \"MLM/2-level MLM/LevelLink.sol\":5221:5226  _user */\n      dup4\n        /* \"MLM/2-level MLM/LevelLink.sol\":5215:5227  users[_user] */\n      0xffffffffffffffffffffffffffffffffffffffff\n      and\n      0xffffffffffffffffffffffffffffffffffffffff\n      and\n      dup2\n      mstore\n      0x20\n      add\n      swap1\n      dup2\n      mstore\n      0x20\n      add\n      0x00\n      keccak256\n        /* \"MLM/2-level MLM/LevelLink.sol\":5215:5243  users[_user].directReferrals */\n      0x05\n      add\n        /* \"MLM/2-level MLM/LevelLink.sol\":5208:5243  return users[_user].directReferrals */\n      dup1\n      sload\n      dup1\n      0x20\n      mul\n      0x20\n      add\n      mload(0x40)\n      swap1\n      dup2\n      add\n      0x40\n      mstore\n      dup1\n      swap3\n      swap2\n      swap1\n      dup2\n      dup2\n      mstore\n      0x20\n      add\n      dup3\n      dup1\n      sload\n      dup1\n      iszero\n      tag_182\n      jumpi\n      0x20\n      mul\n      dup3\n      add\n      swap2\n      swap1\n      0x00\n      mstore\n      keccak256(0x00, 0x20)\n      swap1\n    tag_183:\n      dup2\n      0x00\n      swap1\n      sload\n      swap1\n      0x0100\n      exp\n      swap1\n      div\n      0xffffffffffffffffffffffffffffffffffffffff\n      and\n      0xffffffffffffffffffffffffffffffffffffffff\n      and\n      dup2\n      mstore\n      0x20\n      add\n      swap1\n      0x01\n      add\n      swap1\n      dup1\n      dup4\n      gt\n      tag_183\n      jumpi\n    tag_182:\n      pop\n      pop\n      pop\n      pop\n      pop\n      swap1\n      pop\n        /* \"MLM/2-level MLM/LevelLink.sol\":5086:5250  function getDirectReferrals(address _user)... */\n      swap2\n      swap1\n      pop\n      jump\t// out\n        /* \"MLM/2-level MLM/LevelLink.sol\":4875:5037  function transferOwnership(address _newOwner) external onlyOwner {... */\n    tag_81:\n        /* \"MLM/2-level MLM/LevelLink.sol\":1095:1100  owner */\n      0x02\n      0x00\n      swap1\n      sload\n      swap1\n      0x0100\n      exp\n      swap1\n      div\n      0xffffffffffffffffffffffffffffffffffffffff\n      and\n        /* \"MLM/2-level MLM/LevelLink.sol\":1081:1100  msg.sender == owner */\n      0xffffffffffffffffffffffffffffffffffffffff\n      and\n        /* \"MLM/2-level MLM/LevelLink.sol\":1081:1091  msg.sender */\n      caller\n        /* \"MLM/2-level MLM/LevelLink.sol\":1081:1100  msg.sender == owner */\n      0xffffffffffffffffffffffffffffffffffffffff\n      and\n      eq\n        /* \"MLM/2-level MLM/LevelLink.sol\":1073:1115  require(msg.sender == owner, \"Only owner\") */\n      tag_185\n      jumpi\n      mload(0x40)\n      0x08c379a000000000000000000000000000000000000000000000000000000000\n      dup2\n      mstore\n      0x04\n      add\n      tag_186\n      swap1\n      tag_144\n      jump\t// in\n    tag_186:\n      mload(0x40)\n      dup1\n      swap2\n      sub\n      swap1\n      revert\n    tag_185:\n        /* \"MLM/2-level MLM/LevelLink.sol\":4979:4980  0 */\n      0x00\n        /* \"MLM/2-level MLM/LevelLink.sol\":4958:4981  _newOwner != address(0) */\n      0xffffffffffffffffffffffffffffffffffffffff\n      and\n        /* \"MLM/2-level MLM/LevelLink.sol\":4958:4967  _newOwner */\n      dup2\n        /* \"MLM/2-level MLM/LevelLink.sol\":4958:4981  _newOwner != address(0) */\n      0xffffffffffffffffffffffffffffffffffffffff\n      and\n      sub\n        /* \"MLM/2-level MLM/LevelLink.sol\":4950:5003  require(_newOwner != address(0), \"Invalid new owner\") */\n      tag_188\n      jumpi\n      mload(0x40)\n      0x08c379a000000000000000000000000000000000000000000000000000000000\n      dup2\n      mstore\n      0x04\n      add\n      tag_189\n      swap1\n      tag_190\n      jump\t// in\n    tag_189:\n      mload(0x40)\n      dup1\n      swap2\n      sub\n      swap1\n      revert\n    tag_188:\n        /* \"MLM/2-level MLM/LevelLink.sol\":5021:5030  _newOwner */\n      dup1\n        /* \"MLM/2-level MLM/LevelLink.sol\":5013:5018  owner */\n      0x02\n      0x00\n        /* \"MLM/2-level MLM/LevelLink.sol\":5013:5030  owner = _newOwner */\n      0x0100\n      exp\n      dup2\n      sload\n      dup2\n      0xffffffffffffffffffffffffffffffffffffffff\n      mul\n      not\n      and\n      swap1\n      dup4\n      0xffffffffffffffffffffffffffffffffffffffff\n      and\n      mul\n      or\n      swap1\n      sstore\n      pop\n        /* \"MLM/2-level MLM/LevelLink.sol\":4875:5037  function transferOwnership(address _newOwner) external onlyOwner {... */\n      pop\n      jump\t// out\n        /* \"MLM/2-level MLM/LevelLink.sol\":5951:6140  function getTotalTeamSize(address _user) external view returns (uint256) {... */\n    tag_84:\n        /* \"MLM/2-level MLM/LevelLink.sol\":6015:6022  uint256 */\n      0x00\n        /* \"MLM/2-level MLM/LevelLink.sol\":6034:6048  User storage u */\n      dup1\n        /* \"MLM/2-level MLM/LevelLink.sol\":6051:6056  users */\n      0x04\n        /* \"MLM/2-level MLM/LevelLink.sol\":6051:6063  users[_user] */\n      0x00\n        /* \"MLM/2-level MLM/LevelLink.sol\":6057:6062  _user */\n      dup5\n        /* \"MLM/2-level MLM/LevelLink.sol\":6051:6063  users[_user] */\n      0xffffffffffffffffffffffffffffffffffffffff\n      and\n      0xffffffffffffffffffffffffffffffffffffffff\n      and\n      dup2\n      mstore\n      0x20\n      add\n      swap1\n      dup2\n      mstore\n      0x20\n      add\n      0x00\n      keccak256\n        /* \"MLM/2-level MLM/LevelLink.sol\":6034:6063  User storage u = users[_user] */\n      swap1\n      pop\n        /* \"MLM/2-level MLM/LevelLink.sol\":6107:6108  u */\n      dup1\n        /* \"MLM/2-level MLM/LevelLink.sol\":6107:6126  u.indirectReferrals */\n      0x08\n      add\n        /* \"MLM/2-level MLM/LevelLink.sol\":6107:6133  u.indirectReferrals.length */\n      dup1\n      sload\n      swap1\n      pop\n        /* \"MLM/2-level MLM/LevelLink.sol\":6080:6081  u */\n      dup2\n        /* \"MLM/2-level MLM/LevelLink.sol\":6080:6097  u.directReferrals */\n      0x05\n      add\n        /* \"MLM/2-level MLM/LevelLink.sol\":6080:6104  u.directReferrals.length */\n      dup1\n      sload\n      swap1\n      pop\n        /* \"MLM/2-level MLM/LevelLink.sol\":6080:6133  u.directReferrals.length + u.indirectReferrals.length */\n      tag_192\n      swap2\n      swap1\n      tag_131\n      jump\t// in\n    tag_192:\n        /* \"MLM/2-level MLM/LevelLink.sol\":6073:6133  return u.directReferrals.length + u.indirectReferrals.length */\n      swap2\n      pop\n      pop\n        /* \"MLM/2-level MLM/LevelLink.sol\":5951:6140  function getTotalTeamSize(address _user) external view returns (uint256) {... */\n      swap2\n      swap1\n      pop\n      jump\t// out\n        /* \"@openzeppelin/contracts/security/ReentrancyGuard.sol\":2336:2623  function _nonReentrantBefore() private {... */\n    tag_88:\n        /* \"@openzeppelin/contracts/security/ReentrancyGuard.sol\":1759:1760  2 */\n      0x02\n        /* \"@openzeppelin/contracts/security/ReentrancyGuard.sol\":2468:2475  _status */\n      sload(0x00)\n        /* \"@openzeppelin/contracts/security/ReentrancyGuard.sol\":2468:2487  _status != _ENTERED */\n      sub\n        /* \"@openzeppelin/contracts/security/ReentrancyGuard.sol\":2460:2523  require(_status != _ENTERED, \"ReentrancyGuard: reentrant call\") */\n      tag_194\n      jumpi\n      mload(0x40)\n      0x08c379a000000000000000000000000000000000000000000000000000000000\n      dup2\n      mstore\n      0x04\n      add\n      tag_195\n      swap1\n      tag_196\n      jump\t// in\n    tag_195:\n      mload(0x40)\n      dup1\n      swap2\n      sub\n      swap1\n      revert\n    tag_194:\n        /* \"@openzeppelin/contracts/security/ReentrancyGuard.sol\":1759:1760  2 */\n      0x02\n        /* \"@openzeppelin/contracts/security/ReentrancyGuard.sol\":2598:2605  _status */\n      0x00\n        /* \"@openzeppelin/contracts/security/ReentrancyGuard.sol\":2598:2616  _status = _ENTERED */\n      dup2\n      swap1\n      sstore\n      pop\n        /* \"@openzeppelin/contracts/security/ReentrancyGuard.sol\":2336:2623  function _nonReentrantBefore() private {... */\n      jump\t// out\n        /* \"MLM/2-level MLM/LevelLink.sol\":3930:4088  function calculateDirectReferralReward(uint256 amount)... */\n    tag_116:\n        /* \"MLM/2-level MLM/LevelLink.sol\":4032:4039  uint256 */\n      0x00\n        /* \"MLM/2-level MLM/LevelLink.sol\":4078:4081  100 */\n      0x64\n        /* \"MLM/2-level MLM/LevelLink.sol\":4072:4074  40 */\n      0x28\n        /* \"MLM/2-level MLM/LevelLink.sol\":4063:4069  amount */\n      dup4\n        /* \"MLM/2-level MLM/LevelLink.sol\":4063:4074  amount * 40 */\n      tag_198\n      swap2\n      swap1\n      tag_173\n      jump\t// in\n    tag_198:\n        /* \"MLM/2-level MLM/LevelLink.sol\":4062:4081  (amount * 40) / 100 */\n      tag_199\n      swap2\n      swap1\n      tag_200\n      jump\t// in\n    tag_199:\n        /* \"MLM/2-level MLM/LevelLink.sol\":4055:4081  return (amount * 40) / 100 */\n      swap1\n      pop\n        /* \"MLM/2-level MLM/LevelLink.sol\":3930:4088  function calculateDirectReferralReward(uint256 amount)... */\n      swap2\n      swap1\n      pop\n      jump\t// out\n        /* \"MLM/2-level MLM/LevelLink.sol\":3750:3924  function calculateLevel2ReferralReward(uint256 _amount)... */\n    tag_124:\n        /* \"MLM/2-level MLM/LevelLink.sol\":3853:3874  uint256 _amountReward */\n      0x00\n        /* \"MLM/2-level MLM/LevelLink.sol\":3914:3917  100 */\n      0x64\n        /* \"MLM/2-level MLM/LevelLink.sol\":3908:3910  20 */\n      0x14\n        /* \"MLM/2-level MLM/LevelLink.sol\":3898:3905  _amount */\n      dup4\n        /* \"MLM/2-level MLM/LevelLink.sol\":3898:3910  _amount * 20 */\n      tag_202\n      swap2\n      swap1\n      tag_173\n      jump\t// in\n    tag_202:\n        /* \"MLM/2-level MLM/LevelLink.sol\":3897:3917  (_amount * 20) / 100 */\n      tag_203\n      swap2\n      swap1\n      tag_200\n      jump\t// in\n    tag_203:\n        /* \"MLM/2-level MLM/LevelLink.sol\":3890:3917  return (_amount * 20) / 100 */\n      swap1\n      pop\n        /* \"MLM/2-level MLM/LevelLink.sol\":3750:3924  function calculateLevel2ReferralReward(uint256 _amount)... */\n      swap2\n      swap1\n      pop\n      jump\t// out\n        /* \"@openzeppelin/contracts/security/ReentrancyGuard.sol\":2629:2838  function _nonReentrantAfter() private {... */\n    tag_138:\n        /* \"@openzeppelin/contracts/security/ReentrancyGuard.sol\":1716:1717  1 */\n      0x01\n        /* \"@openzeppelin/contracts/security/ReentrancyGuard.sol\":2809:2816  _status */\n      0x00\n        /* \"@openzeppelin/contracts/security/ReentrancyGuard.sol\":2809:2831  _status = _NOT_ENTERED */\n      dup2\n      swap1\n      sstore\n      pop\n        /* \"@openzeppelin/contracts/security/ReentrancyGuard.sol\":2629:2838  function _nonReentrantAfter() private {... */\n      jump\t// out\n        /* \"#utility.yul\":88:205   */\n    tag_206:\n        /* \"#utility.yul\":197:198   */\n      0x00\n        /* \"#utility.yul\":194:195   */\n      dup1\n        /* \"#utility.yul\":187:199   */\n      revert\n        /* \"#utility.yul\":334:460   */\n    tag_208:\n        /* \"#utility.yul\":371:378   */\n      0x00\n        /* \"#utility.yul\":411:453   */\n      0xffffffffffffffffffffffffffffffffffffffff\n        /* \"#utility.yul\":404:409   */\n      dup3\n        /* \"#utility.yul\":400:454   */\n      and\n        /* \"#utility.yul\":389:454   */\n      swap1\n      pop\n        /* \"#utility.yul\":334:460   */\n      swap2\n      swap1\n      pop\n      jump\t// out\n        /* \"#utility.yul\":466:562   */\n    tag_209:\n        /* \"#utility.yul\":503:510   */\n      0x00\n        /* \"#utility.yul\":532:556   */\n      tag_264\n        /* \"#utility.yul\":550:555   */\n      dup3\n        /* \"#utility.yul\":532:556   */\n      tag_208\n      jump\t// in\n    tag_264:\n        /* \"#utility.yul\":521:556   */\n      swap1\n      pop\n        /* \"#utility.yul\":466:562   */\n      swap2\n      swap1\n      pop\n      jump\t// out\n        /* \"#utility.yul\":568:690   */\n    tag_210:\n        /* \"#utility.yul\":641:665   */\n      tag_266\n        /* \"#utility.yul\":659:664   */\n      dup2\n        /* \"#utility.yul\":641:665   */\n      tag_209\n      jump\t// in\n    tag_266:\n        /* \"#utility.yul\":634:639   */\n      dup2\n        /* \"#utility.yul\":631:666   */\n      eq\n        /* \"#utility.yul\":621:684   */\n      tag_267\n      jumpi\n        /* \"#utility.yul\":680:681   */\n      0x00\n        /* \"#utility.yul\":677:678   */\n      dup1\n        /* \"#utility.yul\":670:682   */\n      revert\n        /* \"#utility.yul\":621:684   */\n    tag_267:\n        /* \"#utility.yul\":568:690   */\n      pop\n      jump\t// out\n        /* \"#utility.yul\":696:835   */\n    tag_211:\n        /* \"#utility.yul\":742:747   */\n      0x00\n        /* \"#utility.yul\":780:786   */\n      dup2\n        /* \"#utility.yul\":767:787   */\n      calldataload\n        /* \"#utility.yul\":758:787   */\n      swap1\n      pop\n        /* \"#utility.yul\":796:829   */\n      tag_269\n        /* \"#utility.yul\":823:828   */\n      dup2\n        /* \"#utility.yul\":796:829   */\n      tag_210\n      jump\t// in\n    tag_269:\n        /* \"#utility.yul\":696:835   */\n      swap3\n      swap2\n      pop\n      pop\n      jump\t// out\n        /* \"#utility.yul\":841:1170   */\n    tag_25:\n        /* \"#utility.yul\":900:906   */\n      0x00\n        /* \"#utility.yul\":949:951   */\n      0x20\n        /* \"#utility.yul\":937:946   */\n      dup3\n        /* \"#utility.yul\":928:935   */\n      dup5\n        /* \"#utility.yul\":924:947   */\n      sub\n        /* \"#utility.yul\":920:952   */\n      slt\n        /* \"#utility.yul\":917:1036   */\n      iszero\n      tag_271\n      jumpi\n        /* \"#utility.yul\":955:1034   */\n      tag_272\n      tag_206\n      jump\t// in\n    tag_272:\n        /* \"#utility.yul\":917:1036   */\n    tag_271:\n        /* \"#utility.yul\":1075:1076   */\n      0x00\n        /* \"#utility.yul\":1100:1153   */\n      tag_273\n        /* \"#utility.yul\":1145:1152   */\n      dup5\n        /* \"#utility.yul\":1136:1142   */\n      dup3\n        /* \"#utility.yul\":1125:1134   */\n      dup6\n        /* \"#utility.yul\":1121:1143   */\n      add\n        /* \"#utility.yul\":1100:1153   */\n      tag_211\n      jump\t// in\n    tag_273:\n        /* \"#utility.yul\":1090:1153   */\n      swap2\n      pop\n        /* \"#utility.yul\":1046:1163   */\n      pop\n        /* \"#utility.yul\":841:1170   */\n      swap3\n      swap2\n      pop\n      pop\n      jump\t// out\n        /* \"#utility.yul\":1176:1253   */\n    tag_212:\n        /* \"#utility.yul\":1213:1220   */\n      0x00\n        /* \"#utility.yul\":1242:1247   */\n      dup2\n        /* \"#utility.yul\":1231:1247   */\n      swap1\n      pop\n        /* \"#utility.yul\":1176:1253   */\n      swap2\n      swap1\n      pop\n      jump\t// out\n        /* \"#utility.yul\":1259:1381   */\n    tag_213:\n        /* \"#utility.yul\":1332:1356   */\n      tag_276\n        /* \"#utility.yul\":1350:1355   */\n      dup2\n        /* \"#utility.yul\":1332:1356   */\n      tag_212\n      jump\t// in\n    tag_276:\n        /* \"#utility.yul\":1325:1330   */\n      dup2\n        /* \"#utility.yul\":1322:1357   */\n      eq\n        /* \"#utility.yul\":1312:1375   */\n      tag_277\n      jumpi\n        /* \"#utility.yul\":1371:1372   */\n      0x00\n        /* \"#utility.yul\":1368:1369   */\n      dup1\n        /* \"#utility.yul\":1361:1373   */\n      revert\n        /* \"#utility.yul\":1312:1375   */\n    tag_277:\n        /* \"#utility.yul\":1259:1381   */\n      pop\n      jump\t// out\n        /* \"#utility.yul\":1387:1526   */\n    tag_214:\n        /* \"#utility.yul\":1433:1438   */\n      0x00\n        /* \"#utility.yul\":1471:1477   */\n      dup2\n        /* \"#utility.yul\":1458:1478   */\n      calldataload\n        /* \"#utility.yul\":1449:1478   */\n      swap1\n      pop\n        /* \"#utility.yul\":1487:1520   */\n      tag_279\n        /* \"#utility.yul\":1514:1519   */\n      dup2\n        /* \"#utility.yul\":1487:1520   */\n      tag_213\n      jump\t// in\n    tag_279:\n        /* \"#utility.yul\":1387:1526   */\n      swap3\n      swap2\n      pop\n      pop\n      jump\t// out\n        /* \"#utility.yul\":1532:1861   */\n    tag_29:\n        /* \"#utility.yul\":1591:1597   */\n      0x00\n        /* \"#utility.yul\":1640:1642   */\n      0x20\n        /* \"#utility.yul\":1628:1637   */\n      dup3\n        /* \"#utility.yul\":1619:1626   */\n      dup5\n        /* \"#utility.yul\":1615:1638   */\n      sub\n        /* \"#utility.yul\":1611:1643   */\n      slt\n        /* \"#utility.yul\":1608:1727   */\n      iszero\n      tag_281\n      jumpi\n        /* \"#utility.yul\":1646:1725   */\n      tag_282\n      tag_206\n      jump\t// in\n    tag_282:\n        /* \"#utility.yul\":1608:1727   */\n    tag_281:\n        /* \"#utility.yul\":1766:1767   */\n      0x00\n        /* \"#utility.yul\":1791:1844   */\n      tag_283\n        /* \"#utility.yul\":1836:1843   */\n      dup5\n        /* \"#utility.yul\":1827:1833   */\n      dup3\n        /* \"#utility.yul\":1816:1825   */\n      dup6\n        /* \"#utility.yul\":1812:1834   */\n      add\n        /* \"#utility.yul\":1791:1844   */\n      tag_214\n      jump\t// in\n    tag_283:\n        /* \"#utility.yul\":1781:1844   */\n      swap2\n      pop\n        /* \"#utility.yul\":1737:1854   */\n      pop\n        /* \"#utility.yul\":1532:1861   */\n      swap3\n      swap2\n      pop\n      pop\n      jump\t// out\n        /* \"#utility.yul\":1867:1981   */\n    tag_215:\n        /* \"#utility.yul\":1934:1940   */\n      0x00\n        /* \"#utility.yul\":1968:1973   */\n      dup2\n        /* \"#utility.yul\":1962:1974   */\n      mload\n        /* \"#utility.yul\":1952:1974   */\n      swap1\n      pop\n        /* \"#utility.yul\":1867:1981   */\n      swap2\n      swap1\n      pop\n      jump\t// out\n        /* \"#utility.yul\":1987:2171   */\n    tag_216:\n        /* \"#utility.yul\":2086:2097   */\n      0x00\n        /* \"#utility.yul\":2120:2126   */\n      dup3\n        /* \"#utility.yul\":2115:2118   */\n      dup3\n        /* \"#utility.yul\":2108:2127   */\n      mstore\n        /* \"#utility.yul\":2160:2164   */\n      0x20\n        /* \"#utility.yul\":2155:2158   */\n      dup3\n        /* \"#utility.yul\":2151:2165   */\n      add\n        /* \"#utility.yul\":2136:2165   */\n      swap1\n      pop\n        /* \"#utility.yul\":1987:2171   */\n      swap3\n      swap2\n      pop\n      pop\n      jump\t// out\n        /* \"#utility.yul\":2177:2309   */\n    tag_217:\n        /* \"#utility.yul\":2244:2248   */\n      0x00\n        /* \"#utility.yul\":2267:2270   */\n      dup2\n        /* \"#utility.yul\":2259:2270   */\n      swap1\n      pop\n        /* \"#utility.yul\":2297:2301   */\n      0x20\n        /* \"#utility.yul\":2292:2295   */\n      dup3\n        /* \"#utility.yul\":2288:2302   */\n      add\n        /* \"#utility.yul\":2280:2302   */\n      swap1\n      pop\n        /* \"#utility.yul\":2177:2309   */\n      swap2\n      swap1\n      pop\n      jump\t// out\n        /* \"#utility.yul\":2315:2423   */\n    tag_218:\n        /* \"#utility.yul\":2392:2416   */\n      tag_288\n        /* \"#utility.yul\":2410:2415   */\n      dup2\n        /* \"#utility.yul\":2392:2416   */\n      tag_209\n      jump\t// in\n    tag_288:\n        /* \"#utility.yul\":2387:2390   */\n      dup3\n        /* \"#utility.yul\":2380:2417   */\n      mstore\n        /* \"#utility.yul\":2315:2423   */\n      pop\n      pop\n      jump\t// out\n        /* \"#utility.yul\":2429:2608   */\n    tag_219:\n        /* \"#utility.yul\":2498:2508   */\n      0x00\n        /* \"#utility.yul\":2519:2565   */\n      tag_290\n        /* \"#utility.yul\":2561:2564   */\n      dup4\n        /* \"#utility.yul\":2553:2559   */\n      dup4\n        /* \"#utility.yul\":2519:2565   */\n      tag_218\n      jump\t// in\n    tag_290:\n        /* \"#utility.yul\":2597:2601   */\n      0x20\n        /* \"#utility.yul\":2592:2595   */\n      dup4\n        /* \"#utility.yul\":2588:2602   */\n      add\n        /* \"#utility.yul\":2574:2602   */\n      swap1\n      pop\n        /* \"#utility.yul\":2429:2608   */\n      swap3\n      swap2\n      pop\n      pop\n      jump\t// out\n        /* \"#utility.yul\":2614:2727   */\n    tag_220:\n        /* \"#utility.yul\":2684:2688   */\n      0x00\n        /* \"#utility.yul\":2716:2720   */\n      0x20\n        /* \"#utility.yul\":2711:2714   */\n      dup3\n        /* \"#utility.yul\":2707:2721   */\n      add\n        /* \"#utility.yul\":2699:2721   */\n      swap1\n      pop\n        /* \"#utility.yul\":2614:2727   */\n      swap2\n      swap1\n      pop\n      jump\t// out\n        /* \"#utility.yul\":2763:3495   */\n    tag_221:\n        /* \"#utility.yul\":2882:2885   */\n      0x00\n        /* \"#utility.yul\":2911:2965   */\n      tag_293\n        /* \"#utility.yul\":2959:2964   */\n      dup3\n        /* \"#utility.yul\":2911:2965   */\n      tag_215\n      jump\t// in\n    tag_293:\n        /* \"#utility.yul\":2981:3067   */\n      tag_294\n        /* \"#utility.yul\":3060:3066   */\n      dup2\n        /* \"#utility.yul\":3055:3058   */\n      dup6\n        /* \"#utility.yul\":2981:3067   */\n      tag_216\n      jump\t// in\n    tag_294:\n        /* \"#utility.yul\":2974:3067   */\n      swap4\n      pop\n        /* \"#utility.yul\":3091:3147   */\n      tag_295\n        /* \"#utility.yul\":3141:3146   */\n      dup4\n        /* \"#utility.yul\":3091:3147   */\n      tag_217\n      jump\t// in\n    tag_295:\n        /* \"#utility.yul\":3170:3177   */\n      dup1\n        /* \"#utility.yul\":3201:3202   */\n      0x00\n        /* \"#utility.yul\":3186:3470   */\n    tag_296:\n        /* \"#utility.yul\":3211:3217   */\n      dup4\n        /* \"#utility.yul\":3208:3209   */\n      dup2\n        /* \"#utility.yul\":3205:3218   */\n      lt\n        /* \"#utility.yul\":3186:3470   */\n      iszero\n      tag_298\n      jumpi\n        /* \"#utility.yul\":3287:3293   */\n      dup2\n        /* \"#utility.yul\":3281:3294   */\n      mload\n        /* \"#utility.yul\":3314:3377   */\n      tag_299\n        /* \"#utility.yul\":3373:3376   */\n      dup9\n        /* \"#utility.yul\":3358:3371   */\n      dup3\n        /* \"#utility.yul\":3314:3377   */\n      tag_219\n      jump\t// in\n    tag_299:\n        /* \"#utility.yul\":3307:3377   */\n      swap8\n      pop\n        /* \"#utility.yul\":3400:3460   */\n      tag_300\n        /* \"#utility.yul\":3453:3459   */\n      dup4\n        /* \"#utility.yul\":3400:3460   */\n      tag_220\n      jump\t// in\n    tag_300:\n        /* \"#utility.yul\":3390:3460   */\n      swap3\n      pop\n        /* \"#utility.yul\":3246:3470   */\n      pop\n        /* \"#utility.yul\":3233:3234   */\n      0x01\n        /* \"#utility.yul\":3230:3231   */\n      dup2\n        /* \"#utility.yul\":3226:3235   */\n      add\n        /* \"#utility.yul\":3221:3235   */\n      swap1\n      pop\n        /* \"#utility.yul\":3186:3470   */\n      jump(tag_296)\n    tag_298:\n        /* \"#utility.yul\":3190:3204   */\n      pop\n        /* \"#utility.yul\":3486:3489   */\n      dup6\n        /* \"#utility.yul\":3479:3489   */\n      swap4\n      pop\n        /* \"#utility.yul\":2887:3495   */\n      pop\n      pop\n      pop\n        /* \"#utility.yul\":2763:3495   */\n      swap3\n      swap2\n      pop\n      pop\n      jump\t// out\n        /* \"#utility.yul\":3501:3874   */\n    tag_35:\n        /* \"#utility.yul\":3644:3648   */\n      0x00\n        /* \"#utility.yul\":3682:3684   */\n      0x20\n        /* \"#utility.yul\":3671:3680   */\n      dup3\n        /* \"#utility.yul\":3667:3685   */\n      add\n        /* \"#utility.yul\":3659:3685   */\n      swap1\n      pop\n        /* \"#utility.yul\":3731:3740   */\n      dup2\n        /* \"#utility.yul\":3725:3729   */\n      dup2\n        /* \"#utility.yul\":3721:3741   */\n      sub\n        /* \"#utility.yul\":3717:3718   */\n      0x00\n        /* \"#utility.yul\":3706:3715   */\n      dup4\n        /* \"#utility.yul\":3702:3719   */\n      add\n        /* \"#utility.yul\":3695:3742   */\n      mstore\n        /* \"#utility.yul\":3759:3867   */\n      tag_302\n        /* \"#utility.yul\":3862:3866   */\n      dup2\n        /* \"#utility.yul\":3853:3859   */\n      dup5\n        /* \"#utility.yul\":3759:3867   */\n      tag_221\n      jump\t// in\n    tag_302:\n        /* \"#utility.yul\":3751:3867   */\n      swap1\n      pop\n        /* \"#utility.yul\":3501:3874   */\n      swap3\n      swap2\n      pop\n      pop\n      jump\t// out\n        /* \"#utility.yul\":3880:3998   */\n    tag_222:\n        /* \"#utility.yul\":3967:3991   */\n      tag_304\n        /* \"#utility.yul\":3985:3990   */\n      dup2\n        /* \"#utility.yul\":3967:3991   */\n      tag_212\n      jump\t// in\n    tag_304:\n        /* \"#utility.yul\":3962:3965   */\n      dup3\n        /* \"#utility.yul\":3955:3992   */\n      mstore\n        /* \"#utility.yul\":3880:3998   */\n      pop\n      pop\n      jump\t// out\n        /* \"#utility.yul\":4004:4226   */\n    tag_44:\n        /* \"#utility.yul\":4097:4101   */\n      0x00\n        /* \"#utility.yul\":4135:4137   */\n      0x20\n        /* \"#utility.yul\":4124:4133   */\n      dup3\n        /* \"#utility.yul\":4120:4138   */\n      add\n        /* \"#utility.yul\":4112:4138   */\n      swap1\n      pop\n        /* \"#utility.yul\":4148:4219   */\n      tag_306\n        /* \"#utility.yul\":4216:4217   */\n      0x00\n        /* \"#utility.yul\":4205:4214   */\n      dup4\n        /* \"#utility.yul\":4201:4218   */\n      add\n        /* \"#utility.yul\":4192:4198   */\n      dup5\n        /* \"#utility.yul\":4148:4219   */\n      tag_222\n      jump\t// in\n    tag_306:\n        /* \"#utility.yul\":4004:4226   */\n      swap3\n      swap2\n      pop\n      pop\n      jump\t// out\n        /* \"#utility.yul\":4232:4322   */\n    tag_223:\n        /* \"#utility.yul\":4266:4273   */\n      0x00\n        /* \"#utility.yul\":4309:4314   */\n      dup2\n        /* \"#utility.yul\":4302:4315   */\n      iszero\n        /* \"#utility.yul\":4295:4316   */\n      iszero\n        /* \"#utility.yul\":4284:4316   */\n      swap1\n      pop\n        /* \"#utility.yul\":4232:4322   */\n      swap2\n      swap1\n      pop\n      jump\t// out\n        /* \"#utility.yul\":4328:4437   */\n    tag_224:\n        /* \"#utility.yul\":4409:4430   */\n      tag_309\n        /* \"#utility.yul\":4424:4429   */\n      dup2\n        /* \"#utility.yul\":4409:4430   */\n      tag_223\n      jump\t// in\n    tag_309:\n        /* \"#utility.yul\":4404:4407   */\n      dup3\n        /* \"#utility.yul\":4397:4431   */\n      mstore\n        /* \"#utility.yul\":4328:4437   */\n      pop\n      pop\n      jump\t// out\n        /* \"#utility.yul\":4443:4653   */\n    tag_51:\n        /* \"#utility.yul\":4530:4534   */\n      0x00\n        /* \"#utility.yul\":4568:4570   */\n      0x20\n        /* \"#utility.yul\":4557:4566   */\n      dup3\n        /* \"#utility.yul\":4553:4571   */\n      add\n        /* \"#utility.yul\":4545:4571   */\n      swap1\n      pop\n        /* \"#utility.yul\":4581:4646   */\n      tag_311\n        /* \"#utility.yul\":4643:4644   */\n      0x00\n        /* \"#utility.yul\":4632:4641   */\n      dup4\n        /* \"#utility.yul\":4628:4645   */\n      add\n        /* \"#utility.yul\":4619:4625   */\n      dup5\n        /* \"#utility.yul\":4581:4646   */\n      tag_224\n      jump\t// in\n    tag_311:\n        /* \"#utility.yul\":4443:4653   */\n      swap3\n      swap2\n      pop\n      pop\n      jump\t// out\n        /* \"#utility.yul\":4659:4777   */\n    tag_225:\n        /* \"#utility.yul\":4746:4770   */\n      tag_313\n        /* \"#utility.yul\":4764:4769   */\n      dup2\n        /* \"#utility.yul\":4746:4770   */\n      tag_209\n      jump\t// in\n    tag_313:\n        /* \"#utility.yul\":4741:4744   */\n      dup3\n        /* \"#utility.yul\":4734:4771   */\n      mstore\n        /* \"#utility.yul\":4659:4777   */\n      pop\n      pop\n      jump\t// out\n        /* \"#utility.yul\":4783:5005   */\n    tag_55:\n        /* \"#utility.yul\":4876:4880   */\n      0x00\n        /* \"#utility.yul\":4914:4916   */\n      0x20\n        /* \"#utility.yul\":4903:4912   */\n      dup3\n        /* \"#utility.yul\":4899:4917   */\n      add\n        /* \"#utility.yul\":4891:4917   */\n      swap1\n      pop\n        /* \"#utility.yul\":4927:4998   */\n      tag_315\n        /* \"#utility.yul\":4995:4996   */\n      0x00\n        /* \"#utility.yul\":4984:4993   */\n      dup4\n        /* \"#utility.yul\":4980:4997   */\n      add\n        /* \"#utility.yul\":4971:4977   */\n      dup5\n        /* \"#utility.yul\":4927:4998   */\n      tag_225\n      jump\t// in\n    tag_315:\n        /* \"#utility.yul\":4783:5005   */\n      swap3\n      swap2\n      pop\n      pop\n      jump\t// out\n        /* \"#utility.yul\":5011:5071   */\n    tag_226:\n        /* \"#utility.yul\":5039:5042   */\n      0x00\n        /* \"#utility.yul\":5060:5065   */\n      dup2\n        /* \"#utility.yul\":5053:5065   */\n      swap1\n      pop\n        /* \"#utility.yul\":5011:5071   */\n      swap2\n      swap1\n      pop\n      jump\t// out\n        /* \"#utility.yul\":5077:5219   */\n    tag_227:\n        /* \"#utility.yul\":5127:5136   */\n      0x00\n        /* \"#utility.yul\":5160:5213   */\n      tag_318\n        /* \"#utility.yul\":5178:5212   */\n      tag_319\n        /* \"#utility.yul\":5187:5211   */\n      tag_320\n        /* \"#utility.yul\":5205:5210   */\n      dup5\n        /* \"#utility.yul\":5187:5211   */\n      tag_208\n      jump\t// in\n    tag_320:\n        /* \"#utility.yul\":5178:5212   */\n      tag_226\n      jump\t// in\n    tag_319:\n        /* \"#utility.yul\":5160:5213   */\n      tag_208\n      jump\t// in\n    tag_318:\n        /* \"#utility.yul\":5147:5213   */\n      swap1\n      pop\n        /* \"#utility.yul\":5077:5219   */\n      swap2\n      swap1\n      pop\n      jump\t// out\n        /* \"#utility.yul\":5225:5351   */\n    tag_228:\n        /* \"#utility.yul\":5275:5284   */\n      0x00\n        /* \"#utility.yul\":5308:5345   */\n      tag_322\n        /* \"#utility.yul\":5339:5344   */\n      dup3\n        /* \"#utility.yul\":5308:5345   */\n      tag_227\n      jump\t// in\n    tag_322:\n        /* \"#utility.yul\":5295:5345   */\n      swap1\n      pop\n        /* \"#utility.yul\":5225:5351   */\n      swap2\n      swap1\n      pop\n      jump\t// out\n        /* \"#utility.yul\":5357:5496   */\n    tag_229:\n        /* \"#utility.yul\":5420:5429   */\n      0x00\n        /* \"#utility.yul\":5453:5490   */\n      tag_324\n        /* \"#utility.yul\":5484:5489   */\n      dup3\n        /* \"#utility.yul\":5453:5490   */\n      tag_228\n      jump\t// in\n    tag_324:\n        /* \"#utility.yul\":5440:5490   */\n      swap1\n      pop\n        /* \"#utility.yul\":5357:5496   */\n      swap2\n      swap1\n      pop\n      jump\t// out\n        /* \"#utility.yul\":5502:5659   */\n    tag_230:\n        /* \"#utility.yul\":5602:5652   */\n      tag_326\n        /* \"#utility.yul\":5646:5651   */\n      dup2\n        /* \"#utility.yul\":5602:5652   */\n      tag_229\n      jump\t// in\n    tag_326:\n        /* \"#utility.yul\":5597:5600   */\n      dup3\n        /* \"#utility.yul\":5590:5653   */\n      mstore\n        /* \"#utility.yul\":5502:5659   */\n      pop\n      pop\n      jump\t// out\n        /* \"#utility.yul\":5665:5913   */\n    tag_59:\n        /* \"#utility.yul\":5771:5775   */\n      0x00\n        /* \"#utility.yul\":5809:5811   */\n      0x20\n        /* \"#utility.yul\":5798:5807   */\n      dup3\n        /* \"#utility.yul\":5794:5812   */\n      add\n        /* \"#utility.yul\":5786:5812   */\n      swap1\n      pop\n        /* \"#utility.yul\":5822:5906   */\n      tag_328\n        /* \"#utility.yul\":5903:5904   */\n      0x00\n        /* \"#utility.yul\":5892:5901   */\n      dup4\n        /* \"#utility.yul\":5888:5905   */\n      add\n        /* \"#utility.yul\":5879:5885   */\n      dup5\n        /* \"#utility.yul\":5822:5906   */\n      tag_230\n      jump\t// in\n    tag_328:\n        /* \"#utility.yul\":5665:5913   */\n      swap3\n      swap2\n      pop\n      pop\n      jump\t// out\n        /* \"#utility.yul\":5919:6793   */\n    tag_64:\n        /* \"#utility.yul\":6174:6178   */\n      0x00\n        /* \"#utility.yul\":6212:6215   */\n      0xe0\n        /* \"#utility.yul\":6201:6210   */\n      dup3\n        /* \"#utility.yul\":6197:6216   */\n      add\n        /* \"#utility.yul\":6189:6216   */\n      swap1\n      pop\n        /* \"#utility.yul\":6226:6297   */\n      tag_330\n        /* \"#utility.yul\":6294:6295   */\n      0x00\n        /* \"#utility.yul\":6283:6292   */\n      dup4\n        /* \"#utility.yul\":6279:6296   */\n      add\n        /* \"#utility.yul\":6270:6276   */\n      dup11\n        /* \"#utility.yul\":6226:6297   */\n      tag_225\n      jump\t// in\n    tag_330:\n        /* \"#utility.yul\":6307:6379   */\n      tag_331\n        /* \"#utility.yul\":6375:6377   */\n      0x20\n        /* \"#utility.yul\":6364:6373   */\n      dup4\n        /* \"#utility.yul\":6360:6378   */\n      add\n        /* \"#utility.yul\":6351:6357   */\n      dup10\n        /* \"#utility.yul\":6307:6379   */\n      tag_222\n      jump\t// in\n    tag_331:\n        /* \"#utility.yul\":6389:6455   */\n      tag_332\n        /* \"#utility.yul\":6451:6453   */\n      0x40\n        /* \"#utility.yul\":6440:6449   */\n      dup4\n        /* \"#utility.yul\":6436:6454   */\n      add\n        /* \"#utility.yul\":6427:6433   */\n      dup9\n        /* \"#utility.yul\":6389:6455   */\n      tag_224\n      jump\t// in\n    tag_332:\n        /* \"#utility.yul\":6465:6537   */\n      tag_333\n        /* \"#utility.yul\":6533:6535   */\n      0x60\n        /* \"#utility.yul\":6522:6531   */\n      dup4\n        /* \"#utility.yul\":6518:6536   */\n      add\n        /* \"#utility.yul\":6509:6515   */\n      dup8\n        /* \"#utility.yul\":6465:6537   */\n      tag_222\n      jump\t// in\n    tag_333:\n        /* \"#utility.yul\":6547:6620   */\n      tag_334\n        /* \"#utility.yul\":6615:6618   */\n      0x80\n        /* \"#utility.yul\":6604:6613   */\n      dup4\n        /* \"#utility.yul\":6600:6619   */\n      add\n        /* \"#utility.yul\":6591:6597   */\n      dup7\n        /* \"#utility.yul\":6547:6620   */\n      tag_222\n      jump\t// in\n    tag_334:\n        /* \"#utility.yul\":6630:6703   */\n      tag_335\n        /* \"#utility.yul\":6698:6701   */\n      0xa0\n        /* \"#utility.yul\":6687:6696   */\n      dup4\n        /* \"#utility.yul\":6683:6702   */\n      add\n        /* \"#utility.yul\":6674:6680   */\n      dup6\n        /* \"#utility.yul\":6630:6703   */\n      tag_222\n      jump\t// in\n    tag_335:\n        /* \"#utility.yul\":6713:6786   */\n      tag_336\n        /* \"#utility.yul\":6781:6784   */\n      0xc0\n        /* \"#utility.yul\":6770:6779   */\n      dup4\n        /* \"#utility.yul\":6766:6785   */\n      add\n        /* \"#utility.yul\":6757:6763   */\n      dup5\n        /* \"#utility.yul\":6713:6786   */\n      tag_222\n      jump\t// in\n    tag_336:\n        /* \"#utility.yul\":5919:6793   */\n      swap9\n      swap8\n      pop\n      pop\n      pop\n      pop\n      pop\n      pop\n      pop\n      pop\n      jump\t// out\n        /* \"#utility.yul\":6799:6968   */\n    tag_231:\n        /* \"#utility.yul\":6883:6894   */\n      0x00\n        /* \"#utility.yul\":6917:6923   */\n      dup3\n        /* \"#utility.yul\":6912:6915   */\n      dup3\n        /* \"#utility.yul\":6905:6924   */\n      mstore\n        /* \"#utility.yul\":6957:6961   */\n      0x20\n        /* \"#utility.yul\":6952:6955   */\n      dup3\n        /* \"#utility.yul\":6948:6962   */\n      add\n        /* \"#utility.yul\":6933:6962   */\n      swap1\n      pop\n        /* \"#utility.yul\":6799:6968   */\n      swap3\n      swap2\n      pop\n      pop\n      jump\t// out\n        /* \"#utility.yul\":6974:7144   */\n    tag_232:\n        /* \"#utility.yul\":7114:7136   */\n      0x436861696e426f6f737420697320506175736564000000000000000000000000\n        /* \"#utility.yul\":7110:7111   */\n      0x00\n        /* \"#utility.yul\":7102:7108   */\n      dup3\n        /* \"#utility.yul\":7098:7112   */\n      add\n        /* \"#utility.yul\":7091:7137   */\n      mstore\n        /* \"#utility.yul\":6974:7144   */\n      pop\n      jump\t// out\n        /* \"#utility.yul\":7150:7516   */\n    tag_233:\n        /* \"#utility.yul\":7292:7295   */\n      0x00\n        /* \"#utility.yul\":7313:7380   */\n      tag_340\n        /* \"#utility.yul\":7377:7379   */\n      0x14\n        /* \"#utility.yul\":7372:7375   */\n      dup4\n        /* \"#utility.yul\":7313:7380   */\n      tag_231\n      jump\t// in\n    tag_340:\n        /* \"#utility.yul\":7306:7380   */\n      swap2\n      pop\n        /* \"#utility.yul\":7389:7482   */\n      tag_341\n        /* \"#utility.yul\":7478:7481   */\n      dup3\n        /* \"#utility.yul\":7389:7482   */\n      tag_232\n      jump\t// in\n    tag_341:\n        /* \"#utility.yul\":7507:7509   */\n      0x20\n        /* \"#utility.yul\":7502:7505   */\n      dup3\n        /* \"#utility.yul\":7498:7510   */\n      add\n        /* \"#utility.yul\":7491:7510   */\n      swap1\n      pop\n        /* \"#utility.yul\":7150:7516   */\n      swap2\n      swap1\n      pop\n      jump\t// out\n        /* \"#utility.yul\":7522:7941   */\n    tag_92:\n        /* \"#utility.yul\":7688:7692   */\n      0x00\n        /* \"#utility.yul\":7726:7728   */\n      0x20\n        /* \"#utility.yul\":7715:7724   */\n      dup3\n        /* \"#utility.yul\":7711:7729   */\n      add\n        /* \"#utility.yul\":7703:7729   */\n      swap1\n      pop\n        /* \"#utility.yul\":7775:7784   */\n      dup2\n        /* \"#utility.yul\":7769:7773   */\n      dup2\n        /* \"#utility.yul\":7765:7785   */\n      sub\n        /* \"#utility.yul\":7761:7762   */\n      0x00\n        /* \"#utility.yul\":7750:7759   */\n      dup4\n        /* \"#utility.yul\":7746:7763   */\n      add\n        /* \"#utility.yul\":7739:7786   */\n      mstore\n        /* \"#utility.yul\":7803:7934   */\n      tag_343\n        /* \"#utility.yul\":7929:7933   */\n      dup2\n        /* \"#utility.yul\":7803:7934   */\n      tag_233\n      jump\t// in\n    tag_343:\n        /* \"#utility.yul\":7795:7934   */\n      swap1\n      pop\n        /* \"#utility.yul\":7522:7941   */\n      swap2\n      swap1\n      pop\n      jump\t// out\n        /* \"#utility.yul\":7947:8118   */\n    tag_234:\n        /* \"#utility.yul\":8087:8110   */\n      0x43616e6e6f7420726566657220796f757273656c660000000000000000000000\n        /* \"#utility.yul\":8083:8084   */\n      0x00\n        /* \"#utility.yul\":8075:8081   */\n      dup3\n        /* \"#utility.yul\":8071:8085   */\n      add\n        /* \"#utility.yul\":8064:8111   */\n      mstore\n        /* \"#utility.yul\":7947:8118   */\n      pop\n      jump\t// out\n        /* \"#utility.yul\":8124:8490   */\n    tag_235:\n        /* \"#utility.yul\":8266:8269   */\n      0x00\n        /* \"#utility.yul\":8287:8354   */\n      tag_346\n        /* \"#utility.yul\":8351:8353   */\n      0x15\n        /* \"#utility.yul\":8346:8349   */\n      dup4\n        /* \"#utility.yul\":8287:8354   */\n      tag_231\n      jump\t// in\n    tag_346:\n        /* \"#utility.yul\":8280:8354   */\n      swap2\n      pop\n        /* \"#utility.yul\":8363:8456   */\n      tag_347\n        /* \"#utility.yul\":8452:8455   */\n      dup3\n        /* \"#utility.yul\":8363:8456   */\n      tag_234\n      jump\t// in\n    tag_347:\n        /* \"#utility.yul\":8481:8483   */\n      0x20\n        /* \"#utility.yul\":8476:8479   */\n      dup3\n        /* \"#utility.yul\":8472:8484   */\n      add\n        /* \"#utility.yul\":8465:8484   */\n      swap1\n      pop\n        /* \"#utility.yul\":8124:8490   */\n      swap2\n      swap1\n      pop\n      jump\t// out\n        /* \"#utility.yul\":8496:8915   */\n    tag_96:\n        /* \"#utility.yul\":8662:8666   */\n      0x00\n        /* \"#utility.yul\":8700:8702   */\n      0x20\n        /* \"#utility.yul\":8689:8698   */\n      dup3\n        /* \"#utility.yul\":8685:8703   */\n      add\n        /* \"#utility.yul\":8677:8703   */\n      swap1\n      pop\n        /* \"#utility.yul\":8749:8758   */\n      dup2\n        /* \"#utility.yul\":8743:8747   */\n      dup2\n        /* \"#utility.yul\":8739:8759   */\n      sub\n        /* \"#utility.yul\":8735:8736   */\n      0x00\n        /* \"#utility.yul\":8724:8733   */\n      dup4\n        /* \"#utility.yul\":8720:8737   */\n      add\n        /* \"#utility.yul\":8713:8760   */\n      mstore\n        /* \"#utility.yul\":8777:8908   */\n      tag_349\n        /* \"#utility.yul\":8903:8907   */\n      dup2\n        /* \"#utility.yul\":8777:8908   */\n      tag_235\n      jump\t// in\n    tag_349:\n        /* \"#utility.yul\":8769:8908   */\n      swap1\n      pop\n        /* \"#utility.yul\":8496:8915   */\n      swap2\n      swap1\n      pop\n      jump\t// out\n        /* \"#utility.yul\":8921:9089   */\n    tag_236:\n        /* \"#utility.yul\":9061:9081   */\n      0x416c726561647920726567697374657265640000000000000000000000000000\n        /* \"#utility.yul\":9057:9058   */\n      0x00\n        /* \"#utility.yul\":9049:9055   */\n      dup3\n        /* \"#utility.yul\":9045:9059   */\n      add\n        /* \"#utility.yul\":9038:9082   */\n      mstore\n        /* \"#utility.yul\":8921:9089   */\n      pop\n      jump\t// out\n        /* \"#utility.yul\":9095:9461   */\n    tag_237:\n        /* \"#utility.yul\":9237:9240   */\n      0x00\n        /* \"#utility.yul\":9258:9325   */\n      tag_352\n        /* \"#utility.yul\":9322:9324   */\n      0x12\n        /* \"#utility.yul\":9317:9320   */\n      dup4\n        /* \"#utility.yul\":9258:9325   */\n      tag_231\n      jump\t// in\n    tag_352:\n        /* \"#utility.yul\":9251:9325   */\n      swap2\n      pop\n        /* \"#utility.yul\":9334:9427   */\n      tag_353\n        /* \"#utility.yul\":9423:9426   */\n      dup3\n        /* \"#utility.yul\":9334:9427   */\n      tag_236\n      jump\t// in\n    tag_353:\n        /* \"#utility.yul\":9452:9454   */\n      0x20\n        /* \"#utility.yul\":9447:9450   */\n      dup3\n        /* \"#utility.yul\":9443:9455   */\n      add\n        /* \"#utility.yul\":9436:9455   */\n      swap1\n      pop\n        /* \"#utility.yul\":9095:9461   */\n      swap2\n      swap1\n      pop\n      jump\t// out\n        /* \"#utility.yul\":9467:9886   */\n    tag_99:\n        /* \"#utility.yul\":9633:9637   */\n      0x00\n        /* \"#utility.yul\":9671:9673   */\n      0x20\n        /* \"#utility.yul\":9660:9669   */\n      dup3\n        /* \"#utility.yul\":9656:9674   */\n      add\n        /* \"#utility.yul\":9648:9674   */\n      swap1\n      pop\n        /* \"#utility.yul\":9720:9729   */\n      dup2\n        /* \"#utility.yul\":9714:9718   */\n      dup2\n        /* \"#utility.yul\":9710:9730   */\n      sub\n        /* \"#utility.yul\":9706:9707   */\n      0x00\n        /* \"#utility.yul\":9695:9704   */\n      dup4\n        /* \"#utility.yul\":9691:9708   */\n      add\n        /* \"#utility.yul\":9684:9731   */\n      mstore\n        /* \"#utility.yul\":9748:9879   */\n      tag_355\n        /* \"#utility.yul\":9874:9878   */\n      dup2\n        /* \"#utility.yul\":9748:9879   */\n      tag_237\n      jump\t// in\n    tag_355:\n        /* \"#utility.yul\":9740:9879   */\n      swap1\n      pop\n        /* \"#utility.yul\":9467:9886   */\n      swap2\n      swap1\n      pop\n      jump\t// out\n        /* \"#utility.yul\":9892:10058   */\n    tag_238:\n        /* \"#utility.yul\":10032:10050   */\n      0x696e76616c696420726566657272616c00000000000000000000000000000000\n        /* \"#utility.yul\":10028:10029   */\n      0x00\n        /* \"#utility.yul\":10020:10026   */\n      dup3\n        /* \"#utility.yul\":10016:10030   */\n      add\n        /* \"#utility.yul\":10009:10051   */\n      mstore\n        /* \"#utility.yul\":9892:10058   */\n      pop\n      jump\t// out\n        /* \"#utility.yul\":10064:10430   */\n    tag_239:\n        /* \"#utility.yul\":10206:10209   */\n      0x00\n        /* \"#utility.yul\":10227:10294   */\n      tag_358\n        /* \"#utility.yul\":10291:10293   */\n      0x10\n        /* \"#utility.yul\":10286:10289   */\n      dup4\n        /* \"#utility.yul\":10227:10294   */\n      tag_231\n      jump\t// in\n    tag_358:\n        /* \"#utility.yul\":10220:10294   */\n      swap2\n      pop\n        /* \"#utility.yul\":10303:10396   */\n      tag_359\n        /* \"#utility.yul\":10392:10395   */\n      dup3\n        /* \"#utility.yul\":10303:10396   */\n      tag_238\n      jump\t// in\n    tag_359:\n        /* \"#utility.yul\":10421:10423   */\n      0x20\n        /* \"#utility.yul\":10416:10419   */\n      dup3\n        /* \"#utility.yul\":10412:10424   */\n      add\n        /* \"#utility.yul\":10405:10424   */\n      swap1\n      pop\n        /* \"#utility.yul\":10064:10430   */\n      swap2\n      swap1\n      pop\n      jump\t// out\n        /* \"#utility.yul\":10436:10855   */\n    tag_102:\n        /* \"#utility.yul\":10602:10606   */\n      0x00\n        /* \"#utility.yul\":10640:10642   */\n      0x20\n        /* \"#utility.yul\":10629:10638   */\n      dup3\n        /* \"#utility.yul\":10625:10643   */\n      add\n        /* \"#utility.yul\":10617:10643   */\n      swap1\n      pop\n        /* \"#utility.yul\":10689:10698   */\n      dup2\n        /* \"#utility.yul\":10683:10687   */\n      dup2\n        /* \"#utility.yul\":10679:10699   */\n      sub\n        /* \"#utility.yul\":10675:10676   */\n      0x00\n        /* \"#utility.yul\":10664:10673   */\n      dup4\n        /* \"#utility.yul\":10660:10677   */\n      add\n        /* \"#utility.yul\":10653:10700   */\n      mstore\n        /* \"#utility.yul\":10717:10848   */\n      tag_361\n        /* \"#utility.yul\":10843:10847   */\n      dup2\n        /* \"#utility.yul\":10717:10848   */\n      tag_239\n      jump\t// in\n    tag_361:\n        /* \"#utility.yul\":10709:10848   */\n      swap1\n      pop\n        /* \"#utility.yul\":10436:10855   */\n      swap2\n      swap1\n      pop\n      jump\t// out\n        /* \"#utility.yul\":10861:11096   */\n    tag_240:\n        /* \"#utility.yul\":11001:11035   */\n      0x526566657272616c207573657220646964206e6f7420636f6d706c6574652061\n        /* \"#utility.yul\":10997:10998   */\n      0x00\n        /* \"#utility.yul\":10989:10995   */\n      dup3\n        /* \"#utility.yul\":10985:10999   */\n      add\n        /* \"#utility.yul\":10978:11036   */\n      mstore\n        /* \"#utility.yul\":11070:11088   */\n      0x6e7920726567697374726174696f6e2000000000000000000000000000000000\n        /* \"#utility.yul\":11065:11067   */\n      0x20\n        /* \"#utility.yul\":11057:11063   */\n      dup3\n        /* \"#utility.yul\":11053:11068   */\n      add\n        /* \"#utility.yul\":11046:11089   */\n      mstore\n        /* \"#utility.yul\":10861:11096   */\n      pop\n      jump\t// out\n        /* \"#utility.yul\":11102:11468   */\n    tag_241:\n        /* \"#utility.yul\":11244:11247   */\n      0x00\n        /* \"#utility.yul\":11265:11332   */\n      tag_364\n        /* \"#utility.yul\":11329:11331   */\n      0x30\n        /* \"#utility.yul\":11324:11327   */\n      dup4\n        /* \"#utility.yul\":11265:11332   */\n      tag_231\n      jump\t// in\n    tag_364:\n        /* \"#utility.yul\":11258:11332   */\n      swap2\n      pop\n        /* \"#utility.yul\":11341:11434   */\n      tag_365\n        /* \"#utility.yul\":11430:11433   */\n      dup3\n        /* \"#utility.yul\":11341:11434   */\n      tag_240\n      jump\t// in\n    tag_365:\n        /* \"#utility.yul\":11459:11461   */\n      0x40\n        /* \"#utility.yul\":11454:11457   */\n      dup3\n        /* \"#utility.yul\":11450:11462   */\n      add\n        /* \"#utility.yul\":11443:11462   */\n      swap1\n      pop\n        /* \"#utility.yul\":11102:11468   */\n      swap2\n      swap1\n      pop\n      jump\t// out\n        /* \"#utility.yul\":11474:11893   */\n    tag_105:\n        /* \"#utility.yul\":11640:11644   */\n      0x00\n        /* \"#utility.yul\":11678:11680   */\n      0x20\n        /* \"#utility.yul\":11667:11676   */\n      dup3\n        /* \"#utility.yul\":11663:11681   */\n      add\n        /* \"#utility.yul\":11655:11681   */\n      swap1\n      pop\n        /* \"#utility.yul\":11727:11736   */\n      dup2\n        /* \"#utility.yul\":11721:11725   */\n      dup2\n        /* \"#utility.yul\":11717:11737   */\n      sub\n        /* \"#utility.yul\":11713:11714   */\n      0x00\n        /* \"#utility.yul\":11702:11711   */\n      dup4\n        /* \"#utility.yul\":11698:11715   */\n      add\n        /* \"#utility.yul\":11691:11738   */\n      mstore\n        /* \"#utility.yul\":11755:11886   */\n      tag_367\n        /* \"#utility.yul\":11881:11885   */\n      dup2\n        /* \"#utility.yul\":11755:11886   */\n      tag_241\n      jump\t// in\n    tag_367:\n        /* \"#utility.yul\":11747:11886   */\n      swap1\n      pop\n        /* \"#utility.yul\":11474:11893   */\n      swap2\n      swap1\n      pop\n      jump\t// out\n        /* \"#utility.yul\":11899:12341   */\n    tag_107:\n        /* \"#utility.yul\":12048:12052   */\n      0x00\n        /* \"#utility.yul\":12086:12088   */\n      0x60\n        /* \"#utility.yul\":12075:12084   */\n      dup3\n        /* \"#utility.yul\":12071:12089   */\n      add\n        /* \"#utility.yul\":12063:12089   */\n      swap1\n      pop\n        /* \"#utility.yul\":12099:12170   */\n      tag_369\n        /* \"#utility.yul\":12167:12168   */\n      0x00\n        /* \"#utility.yul\":12156:12165   */\n      dup4\n        /* \"#utility.yul\":12152:12169   */\n      add\n        /* \"#utility.yul\":12143:12149   */\n      dup7\n        /* \"#utility.yul\":12099:12170   */\n      tag_225\n      jump\t// in\n    tag_369:\n        /* \"#utility.yul\":12180:12252   */\n      tag_370\n        /* \"#utility.yul\":12248:12250   */\n      0x20\n        /* \"#utility.yul\":12237:12246   */\n      dup4\n        /* \"#utility.yul\":12233:12251   */\n      add\n        /* \"#utility.yul\":12224:12230   */\n      dup6\n        /* \"#utility.yul\":12180:12252   */\n      tag_225\n      jump\t// in\n    tag_370:\n        /* \"#utility.yul\":12262:12334   */\n      tag_371\n        /* \"#utility.yul\":12330:12332   */\n      0x40\n        /* \"#utility.yul\":12319:12328   */\n      dup4\n        /* \"#utility.yul\":12315:12333   */\n      add\n        /* \"#utility.yul\":12306:12312   */\n      dup5\n        /* \"#utility.yul\":12262:12334   */\n      tag_222\n      jump\t// in\n    tag_371:\n        /* \"#utility.yul\":11899:12341   */\n      swap5\n      swap4\n      pop\n      pop\n      pop\n      pop\n      jump\t// out\n        /* \"#utility.yul\":12347:12463   */\n    tag_242:\n        /* \"#utility.yul\":12417:12438   */\n      tag_373\n        /* \"#utility.yul\":12432:12437   */\n      dup2\n        /* \"#utility.yul\":12417:12438   */\n      tag_223\n      jump\t// in\n    tag_373:\n        /* \"#utility.yul\":12410:12415   */\n      dup2\n        /* \"#utility.yul\":12407:12439   */\n      eq\n        /* \"#utility.yul\":12397:12457   */\n      tag_374\n      jumpi\n        /* \"#utility.yul\":12453:12454   */\n      0x00\n        /* \"#utility.yul\":12450:12451   */\n      dup1\n        /* \"#utility.yul\":12443:12455   */\n      revert\n        /* \"#utility.yul\":12397:12457   */\n    tag_374:\n        /* \"#utility.yul\":12347:12463   */\n      pop\n      jump\t// out\n        /* \"#utility.yul\":12469:12606   */\n    tag_243:\n        /* \"#utility.yul\":12523:12528   */\n      0x00\n        /* \"#utility.yul\":12554:12560   */\n      dup2\n        /* \"#utility.yul\":12548:12561   */\n      mload\n        /* \"#utility.yul\":12539:12561   */\n      swap1\n      pop\n        /* \"#utility.yul\":12570:12600   */\n      tag_376\n        /* \"#utility.yul\":12594:12599   */\n      dup2\n        /* \"#utility.yul\":12570:12600   */\n      tag_242\n      jump\t// in\n    tag_376:\n        /* \"#utility.yul\":12469:12606   */\n      swap3\n      swap2\n      pop\n      pop\n      jump\t// out\n        /* \"#utility.yul\":12612:12957   */\n    tag_111:\n        /* \"#utility.yul\":12679:12685   */\n      0x00\n        /* \"#utility.yul\":12728:12730   */\n      0x20\n        /* \"#utility.yul\":12716:12725   */\n      dup3\n        /* \"#utility.yul\":12707:12714   */\n      dup5\n        /* \"#utility.yul\":12703:12726   */\n      sub\n        /* \"#utility.yul\":12699:12731   */\n      slt\n        /* \"#utility.yul\":12696:12815   */\n      iszero\n      tag_378\n      jumpi\n        /* \"#utility.yul\":12734:12813   */\n      tag_379\n      tag_206\n      jump\t// in\n    tag_379:\n        /* \"#utility.yul\":12696:12815   */\n    tag_378:\n        /* \"#utility.yul\":12854:12855   */\n      0x00\n        /* \"#utility.yul\":12879:12940   */\n      tag_380\n        /* \"#utility.yul\":12932:12939   */\n      dup5\n        /* \"#utility.yul\":12923:12929   */\n      dup3\n        /* \"#utility.yul\":12912:12921   */\n      dup6\n        /* \"#utility.yul\":12908:12930   */\n      add\n        /* \"#utility.yul\":12879:12940   */\n      tag_243\n      jump\t// in\n    tag_380:\n        /* \"#utility.yul\":12869:12940   */\n      swap2\n      pop\n        /* \"#utility.yul\":12825:12950   */\n      pop\n        /* \"#utility.yul\":12612:12957   */\n      swap3\n      swap2\n      pop\n      pop\n      jump\t// out\n        /* \"#utility.yul\":12963:13132   */\n    tag_244:\n        /* \"#utility.yul\":13103:13124   */\n      0x726567697374726174696f6e206661696c656400000000000000000000000000\n        /* \"#utility.yul\":13099:13100   */\n      0x00\n        /* \"#utility.yul\":13091:13097   */\n      dup3\n        /* \"#utility.yul\":13087:13101   */\n      add\n        /* \"#utility.yul\":13080:13125   */\n      mstore\n        /* \"#utility.yul\":12963:13132   */\n      pop\n      jump\t// out\n        /* \"#utility.yul\":13138:13504   */\n    tag_245:\n        /* \"#utility.yul\":13280:13283   */\n      0x00\n        /* \"#utility.yul\":13301:13368   */\n      tag_383\n        /* \"#utility.yul\":13365:13367   */\n      0x13\n        /* \"#utility.yul\":13360:13363   */\n      dup4\n        /* \"#utility.yul\":13301:13368   */\n      tag_231\n      jump\t// in\n    tag_383:\n        /* \"#utility.yul\":13294:13368   */\n      swap2\n      pop\n        /* \"#utility.yul\":13377:13470   */\n      tag_384\n        /* \"#utility.yul\":13466:13469   */\n      dup3\n        /* \"#utility.yul\":13377:13470   */\n      tag_244\n      jump\t// in\n    tag_384:\n        /* \"#utility.yul\":13495:13497   */\n      0x20\n        /* \"#utility.yul\":13490:13493   */\n      dup3\n        /* \"#utility.yul\":13486:13498   */\n      add\n        /* \"#utility.yul\":13479:13498   */\n      swap1\n      pop\n        /* \"#utility.yul\":13138:13504   */\n      swap2\n      swap1\n      pop\n      jump\t// out\n        /* \"#utility.yul\":13510:13929   */\n    tag_114:\n        /* \"#utility.yul\":13676:13680   */\n      0x00\n        /* \"#utility.yul\":13714:13716   */\n      0x20\n        /* \"#utility.yul\":13703:13712   */\n      dup3\n        /* \"#utility.yul\":13699:13717   */\n      add\n        /* \"#utility.yul\":13691:13717   */\n      swap1\n      pop\n        /* \"#utility.yul\":13763:13772   */\n      dup2\n        /* \"#utility.yul\":13757:13761   */\n      dup2\n        /* \"#utility.yul\":13753:13773   */\n      sub\n        /* \"#utility.yul\":13749:13750   */\n      0x00\n        /* \"#utility.yul\":13738:13747   */\n      dup4\n        /* \"#utility.yul\":13734:13751   */\n      add\n        /* \"#utility.yul\":13727:13774   */\n      mstore\n        /* \"#utility.yul\":13791:13922   */\n      tag_386\n        /* \"#utility.yul\":13917:13921   */\n      dup2\n        /* \"#utility.yul\":13791:13922   */\n      tag_245\n      jump\t// in\n    tag_386:\n        /* \"#utility.yul\":13783:13922   */\n      swap1\n      pop\n        /* \"#utility.yul\":13510:13929   */\n      swap2\n      swap1\n      pop\n      jump\t// out\n        /* \"#utility.yul\":13935:14267   */\n    tag_118:\n        /* \"#utility.yul\":14056:14060   */\n      0x00\n        /* \"#utility.yul\":14094:14096   */\n      0x40\n        /* \"#utility.yul\":14083:14092   */\n      dup3\n        /* \"#utility.yul\":14079:14097   */\n      add\n        /* \"#utility.yul\":14071:14097   */\n      swap1\n      pop\n        /* \"#utility.yul\":14107:14178   */\n      tag_388\n        /* \"#utility.yul\":14175:14176   */\n      0x00\n        /* \"#utility.yul\":14164:14173   */\n      dup4\n        /* \"#utility.yul\":14160:14177   */\n      add\n        /* \"#utility.yul\":14151:14157   */\n      dup6\n        /* \"#utility.yul\":14107:14178   */\n      tag_225\n      jump\t// in\n    tag_388:\n        /* \"#utility.yul\":14188:14260   */\n      tag_389\n        /* \"#utility.yul\":14256:14258   */\n      0x20\n        /* \"#utility.yul\":14245:14254   */\n      dup4\n        /* \"#utility.yul\":14241:14259   */\n      add\n        /* \"#utility.yul\":14232:14238   */\n      dup5\n        /* \"#utility.yul\":14188:14260   */\n      tag_222\n      jump\t// in\n    tag_389:\n        /* \"#utility.yul\":13935:14267   */\n      swap4\n      swap3\n      pop\n      pop\n      pop\n      jump\t// out\n        /* \"#utility.yul\":14273:14453   */\n    tag_246:\n        /* \"#utility.yul\":14321:14398   */\n      0x4e487b7100000000000000000000000000000000000000000000000000000000\n        /* \"#utility.yul\":14318:14319   */\n      0x00\n        /* \"#utility.yul\":14311:14399   */\n      mstore\n        /* \"#utility.yul\":14418:14422   */\n      0x11\n        /* \"#utility.yul\":14415:14416   */\n      0x04\n        /* \"#utility.yul\":14408:14423   */\n      mstore\n        /* \"#utility.yul\":14442:14446   */\n      0x24\n        /* \"#utility.yul\":14439:14440   */\n      0x00\n        /* \"#utility.yul\":14432:14447   */\n      revert\n        /* \"#utility.yul\":14459:14650   */\n    tag_131:\n        /* \"#utility.yul\":14499:14502   */\n      0x00\n        /* \"#utility.yul\":14518:14538   */\n      tag_392\n        /* \"#utility.yul\":14536:14537   */\n      dup3\n        /* \"#utility.yul\":14518:14538   */\n      tag_212\n      jump\t// in\n    tag_392:\n        /* \"#utility.yul\":14513:14538   */\n      swap2\n      pop\n        /* \"#utility.yul\":14552:14572   */\n      tag_393\n        /* \"#utility.yul\":14570:14571   */\n      dup4\n        /* \"#utility.yul\":14552:14572   */\n      tag_212\n      jump\t// in\n    tag_393:\n        /* \"#utility.yul\":14547:14572   */\n      swap3\n      pop\n        /* \"#utility.yul\":14595:14596   */\n      dup3\n        /* \"#utility.yul\":14592:14593   */\n      dup3\n        /* \"#utility.yul\":14588:14597   */\n      add\n        /* \"#utility.yul\":14581:14597   */\n      swap1\n      pop\n        /* \"#utility.yul\":14616:14619   */\n      dup1\n        /* \"#utility.yul\":14613:14614   */\n      dup3\n        /* \"#utility.yul\":14610:14620   */\n      gt\n        /* \"#utility.yul\":14607:14643   */\n      iszero\n      tag_394\n      jumpi\n        /* \"#utility.yul\":14623:14641   */\n      tag_395\n      tag_246\n      jump\t// in\n    tag_395:\n        /* \"#utility.yul\":14607:14643   */\n    tag_394:\n        /* \"#utility.yul\":14459:14650   */\n      swap3\n      swap2\n      pop\n      pop\n      jump\t// out\n        /* \"#utility.yul\":14656:14816   */\n    tag_247:\n        /* \"#utility.yul\":14796:14808   */\n      0x4f6e6c79206f776e657200000000000000000000000000000000000000000000\n        /* \"#utility.yul\":14792:14793   */\n      0x00\n        /* \"#utility.yul\":14784:14790   */\n      dup3\n        /* \"#utility.yul\":14780:14794   */\n      add\n        /* \"#utility.yul\":14773:14809   */\n      mstore\n        /* \"#utility.yul\":14656:14816   */\n      pop\n      jump\t// out\n        /* \"#utility.yul\":14822:15188   */\n    tag_248:\n        /* \"#utility.yul\":14964:14967   */\n      0x00\n        /* \"#utility.yul\":14985:15052   */\n      tag_398\n        /* \"#utility.yul\":15049:15051   */\n      0x0a\n        /* \"#utility.yul\":15044:15047   */\n      dup4\n        /* \"#utility.yul\":14985:15052   */\n      tag_231\n      jump\t// in\n    tag_398:\n        /* \"#utility.yul\":14978:15052   */\n      swap2\n      pop\n        /* \"#utility.yul\":15061:15154   */\n      tag_399\n        /* \"#utility.yul\":15150:15153   */\n      dup3\n        /* \"#utility.yul\":15061:15154   */\n      tag_247\n      jump\t// in\n    tag_399:\n        /* \"#utility.yul\":15179:15181   */\n      0x20\n        /* \"#utility.yul\":15174:15177   */\n      dup3\n        /* \"#utility.yul\":15170:15182   */\n      add\n        /* \"#utility.yul\":15163:15182   */\n      swap1\n      pop\n        /* \"#utility.yul\":14822:15188   */\n      swap2\n      swap1\n      pop\n      jump\t// out\n        /* \"#utility.yul\":15194:15613   */\n    tag_144:\n        /* \"#utility.yul\":15360:15364   */\n      0x00\n        /* \"#utility.yul\":15398:15400   */\n      0x20\n        /* \"#utility.yul\":15387:15396   */\n      dup3\n        /* \"#utility.yul\":15383:15401   */\n      add\n        /* \"#utility.yul\":15375:15401   */\n      swap1\n      pop\n        /* \"#utility.yul\":15447:15456   */\n      dup2\n        /* \"#utility.yul\":15441:15445   */\n      dup2\n        /* \"#utility.yul\":15437:15457   */\n      sub\n        /* \"#utility.yul\":15433:15434   */\n      0x00\n        /* \"#utility.yul\":15422:15431   */\n      dup4\n        /* \"#utility.yul\":15418:15435   */\n      add\n        /* \"#utility.yul\":15411:15458   */\n      mstore\n        /* \"#utility.yul\":15475:15606   */\n      tag_401\n        /* \"#utility.yul\":15601:15605   */\n      dup2\n        /* \"#utility.yul\":15475:15606   */\n      tag_248\n      jump\t// in\n    tag_401:\n        /* \"#utility.yul\":15467:15606   */\n      swap1\n      pop\n        /* \"#utility.yul\":15194:15613   */\n      swap2\n      swap1\n      pop\n      jump\t// out\n        /* \"#utility.yul\":15619:15784   */\n    tag_249:\n        /* \"#utility.yul\":15759:15776   */\n      0x696e76616c6964206e6577206273740000000000000000000000000000000000\n        /* \"#utility.yul\":15755:15756   */\n      0x00\n        /* \"#utility.yul\":15747:15753   */\n      dup3\n        /* \"#utility.yul\":15743:15757   */\n      add\n        /* \"#utility.yul\":15736:15777   */\n      mstore\n        /* \"#utility.yul\":15619:15784   */\n      pop\n      jump\t// out\n        /* \"#utility.yul\":15790:16156   */\n    tag_250:\n        /* \"#utility.yul\":15932:15935   */\n      0x00\n        /* \"#utility.yul\":15953:16020   */\n      tag_404\n        /* \"#utility.yul\":16017:16019   */\n      0x0f\n        /* \"#utility.yul\":16012:16015   */\n      dup4\n        /* \"#utility.yul\":15953:16020   */\n      tag_231\n      jump\t// in\n    tag_404:\n        /* \"#utility.yul\":15946:16020   */\n      swap2\n      pop\n        /* \"#utility.yul\":16029:16122   */\n      tag_405\n        /* \"#utility.yul\":16118:16121   */\n      dup3\n        /* \"#utility.yul\":16029:16122   */\n      tag_249\n      jump\t// in\n    tag_405:\n        /* \"#utility.yul\":16147:16149   */\n      0x20\n        /* \"#utility.yul\":16142:16145   */\n      dup3\n        /* \"#utility.yul\":16138:16150   */\n      add\n        /* \"#utility.yul\":16131:16150   */\n      swap1\n      pop\n        /* \"#utility.yul\":15790:16156   */\n      swap2\n      swap1\n      pop\n      jump\t// out\n        /* \"#utility.yul\":16162:16581   */\n    tag_160:\n        /* \"#utility.yul\":16328:16332   */\n      0x00\n        /* \"#utility.yul\":16366:16368   */\n      0x20\n        /* \"#utility.yul\":16355:16364   */\n      dup3\n        /* \"#utility.yul\":16351:16369   */\n      add\n        /* \"#utility.yul\":16343:16369   */\n      swap1\n      pop\n        /* \"#utility.yul\":16415:16424   */\n      dup2\n        /* \"#utility.yul\":16409:16413   */\n      dup2\n        /* \"#utility.yul\":16405:16425   */\n      sub\n        /* \"#utility.yul\":16401:16402   */\n      0x00\n        /* \"#utility.yul\":16390:16399   */\n      dup4\n        /* \"#utility.yul\":16386:16403   */\n      add\n        /* \"#utility.yul\":16379:16426   */\n      mstore\n        /* \"#utility.yul\":16443:16574   */\n      tag_407\n        /* \"#utility.yul\":16569:16573   */\n      dup2\n        /* \"#utility.yul\":16443:16574   */\n      tag_250\n      jump\t// in\n    tag_407:\n        /* \"#utility.yul\":16435:16574   */\n      swap1\n      pop\n        /* \"#utility.yul\":16162:16581   */\n      swap2\n      swap1\n      pop\n      jump\t// out\n        /* \"#utility.yul\":16587:16755   */\n    tag_251:\n        /* \"#utility.yul\":16727:16747   */\n      0x696e76616c69642070657263656e746167650000000000000000000000000000\n        /* \"#utility.yul\":16723:16724   */\n      0x00\n        /* \"#utility.yul\":16715:16721   */\n      dup3\n        /* \"#utility.yul\":16711:16725   */\n      add\n        /* \"#utility.yul\":16704:16748   */\n      mstore\n        /* \"#utility.yul\":16587:16755   */\n      pop\n      jump\t// out\n        /* \"#utility.yul\":16761:17127   */\n    tag_252:\n        /* \"#utility.yul\":16903:16906   */\n      0x00\n        /* \"#utility.yul\":16924:16991   */\n      tag_410\n        /* \"#utility.yul\":16988:16990   */\n      0x12\n        /* \"#utility.yul\":16983:16986   */\n      dup4\n        /* \"#utility.yul\":16924:16991   */\n      tag_231\n      jump\t// in\n    tag_410:\n        /* \"#utility.yul\":16917:16991   */\n      swap2\n      pop\n        /* \"#utility.yul\":17000:17093   */\n      tag_411\n        /* \"#utility.yul\":17089:17092   */\n      dup3\n        /* \"#utility.yul\":17000:17093   */\n      tag_251\n      jump\t// in\n    tag_411:\n        /* \"#utility.yul\":17118:17120   */\n      0x20\n        /* \"#utility.yul\":17113:17116   */\n      dup3\n        /* \"#utility.yul\":17109:17121   */\n      add\n        /* \"#utility.yul\":17102:17121   */\n      swap1\n      pop\n        /* \"#utility.yul\":16761:17127   */\n      swap2\n      swap1\n      pop\n      jump\t// out\n        /* \"#utility.yul\":17133:17552   */\n    tag_171:\n        /* \"#utility.yul\":17299:17303   */\n      0x00\n        /* \"#utility.yul\":17337:17339   */\n      0x20\n        /* \"#utility.yul\":17326:17335   */\n      dup3\n        /* \"#utility.yul\":17322:17340   */\n      add\n        /* \"#utility.yul\":17314:17340   */\n      swap1\n      pop\n        /* \"#utility.yul\":17386:17395   */\n      dup2\n        /* \"#utility.yul\":17380:17384   */\n      dup2\n        /* \"#utility.yul\":17376:17396   */\n      sub\n        /* \"#utility.yul\":17372:17373   */\n      0x00\n        /* \"#utility.yul\":17361:17370   */\n      dup4\n        /* \"#utility.yul\":17357:17374   */\n      add\n        /* \"#utility.yul\":17350:17397   */\n      mstore\n        /* \"#utility.yul\":17414:17545   */\n      tag_413\n        /* \"#utility.yul\":17540:17544   */\n      dup2\n        /* \"#utility.yul\":17414:17545   */\n      tag_252\n      jump\t// in\n    tag_413:\n        /* \"#utility.yul\":17406:17545   */\n      swap1\n      pop\n        /* \"#utility.yul\":17133:17552   */\n      swap2\n      swap1\n      pop\n      jump\t// out\n        /* \"#utility.yul\":17558:17968   */\n    tag_173:\n        /* \"#utility.yul\":17598:17605   */\n      0x00\n        /* \"#utility.yul\":17621:17641   */\n      tag_415\n        /* \"#utility.yul\":17639:17640   */\n      dup3\n        /* \"#utility.yul\":17621:17641   */\n      tag_212\n      jump\t// in\n    tag_415:\n        /* \"#utility.yul\":17616:17641   */\n      swap2\n      pop\n        /* \"#utility.yul\":17655:17675   */\n      tag_416\n        /* \"#utility.yul\":17673:17674   */\n      dup4\n        /* \"#utility.yul\":17655:17675   */\n      tag_212\n      jump\t// in\n    tag_416:\n        /* \"#utility.yul\":17650:17675   */\n      swap3\n      pop\n        /* \"#utility.yul\":17710:17711   */\n      dup3\n        /* \"#utility.yul\":17707:17708   */\n      dup3\n        /* \"#utility.yul\":17703:17712   */\n      mul\n        /* \"#utility.yul\":17732:17762   */\n      tag_417\n        /* \"#utility.yul\":17750:17761   */\n      dup2\n        /* \"#utility.yul\":17732:17762   */\n      tag_212\n      jump\t// in\n    tag_417:\n        /* \"#utility.yul\":17721:17762   */\n      swap2\n      pop\n        /* \"#utility.yul\":17911:17912   */\n      dup3\n        /* \"#utility.yul\":17902:17909   */\n      dup3\n        /* \"#utility.yul\":17898:17913   */\n      div\n        /* \"#utility.yul\":17895:17896   */\n      dup5\n        /* \"#utility.yul\":17892:17914   */\n      eq\n        /* \"#utility.yul\":17872:17873   */\n      dup4\n        /* \"#utility.yul\":17865:17874   */\n      iszero\n        /* \"#utility.yul\":17845:17928   */\n      or\n        /* \"#utility.yul\":17822:17961   */\n      tag_418\n      jumpi\n        /* \"#utility.yul\":17941:17959   */\n      tag_419\n      tag_246\n      jump\t// in\n    tag_419:\n        /* \"#utility.yul\":17822:17961   */\n    tag_418:\n        /* \"#utility.yul\":17606:17968   */\n      pop\n        /* \"#utility.yul\":17558:17968   */\n      swap3\n      swap2\n      pop\n      pop\n      jump\t// out\n        /* \"#utility.yul\":17974:18141   */\n    tag_253:\n        /* \"#utility.yul\":18114:18133   */\n      0x496e76616c6964206e6577206f776e6572000000000000000000000000000000\n        /* \"#utility.yul\":18110:18111   */\n      0x00\n        /* \"#utility.yul\":18102:18108   */\n      dup3\n        /* \"#utility.yul\":18098:18112   */\n      add\n        /* \"#utility.yul\":18091:18134   */\n      mstore\n        /* \"#utility.yul\":17974:18141   */\n      pop\n      jump\t// out\n        /* \"#utility.yul\":18147:18513   */\n    tag_254:\n        /* \"#utility.yul\":18289:18292   */\n      0x00\n        /* \"#utility.yul\":18310:18377   */\n      tag_422\n        /* \"#utility.yul\":18374:18376   */\n      0x11\n        /* \"#utility.yul\":18369:18372   */\n      dup4\n        /* \"#utility.yul\":18310:18377   */\n      tag_231\n      jump\t// in\n    tag_422:\n        /* \"#utility.yul\":18303:18377   */\n      swap2\n      pop\n        /* \"#utility.yul\":18386:18479   */\n      tag_423\n        /* \"#utility.yul\":18475:18478   */\n      dup3\n        /* \"#utility.yul\":18386:18479   */\n      tag_253\n      jump\t// in\n    tag_423:\n        /* \"#utility.yul\":18504:18506   */\n      0x20\n        /* \"#utility.yul\":18499:18502   */\n      dup3\n        /* \"#utility.yul\":18495:18507   */\n      add\n        /* \"#utility.yul\":18488:18507   */\n      swap1\n      pop\n        /* \"#utility.yul\":18147:18513   */\n      swap2\n      swap1\n      pop\n      jump\t// out\n        /* \"#utility.yul\":18519:18938   */\n    tag_190:\n        /* \"#utility.yul\":18685:18689   */\n      0x00\n        /* \"#utility.yul\":18723:18725   */\n      0x20\n        /* \"#utility.yul\":18712:18721   */\n      dup3\n        /* \"#utility.yul\":18708:18726   */\n      add\n        /* \"#utility.yul\":18700:18726   */\n      swap1\n      pop\n        /* \"#utility.yul\":18772:18781   */\n      dup2\n        /* \"#utility.yul\":18766:18770   */\n      dup2\n        /* \"#utility.yul\":18762:18782   */\n      sub\n        /* \"#utility.yul\":18758:18759   */\n      0x00\n        /* \"#utility.yul\":18747:18756   */\n      dup4\n        /* \"#utility.yul\":18743:18760   */\n      add\n        /* \"#utility.yul\":18736:18783   */\n      mstore\n        /* \"#utility.yul\":18800:18931   */\n      tag_425\n        /* \"#utility.yul\":18926:18930   */\n      dup2\n        /* \"#utility.yul\":18800:18931   */\n      tag_254\n      jump\t// in\n    tag_425:\n        /* \"#utility.yul\":18792:18931   */\n      swap1\n      pop\n        /* \"#utility.yul\":18519:18938   */\n      swap2\n      swap1\n      pop\n      jump\t// out\n        /* \"#utility.yul\":18944:19125   */\n    tag_255:\n        /* \"#utility.yul\":19084:19117   */\n      0x5265656e7472616e637947756172643a207265656e7472616e742063616c6c00\n        /* \"#utility.yul\":19080:19081   */\n      0x00\n        /* \"#utility.yul\":19072:19078   */\n      dup3\n        /* \"#utility.yul\":19068:19082   */\n      add\n        /* \"#utility.yul\":19061:19118   */\n      mstore\n        /* \"#utility.yul\":18944:19125   */\n      pop\n      jump\t// out\n        /* \"#utility.yul\":19131:19497   */\n    tag_256:\n        /* \"#utility.yul\":19273:19276   */\n      0x00\n        /* \"#utility.yul\":19294:19361   */\n      tag_428\n        /* \"#utility.yul\":19358:19360   */\n      0x1f\n        /* \"#utility.yul\":19353:19356   */\n      dup4\n        /* \"#utility.yul\":19294:19361   */\n      tag_231\n      jump\t// in\n    tag_428:\n        /* \"#utility.yul\":19287:19361   */\n      swap2\n      pop\n        /* \"#utility.yul\":19370:19463   */\n      tag_429\n        /* \"#utility.yul\":19459:19462   */\n      dup3\n        /* \"#utility.yul\":19370:19463   */\n      tag_255\n      jump\t// in\n    tag_429:\n        /* \"#utility.yul\":19488:19490   */\n      0x20\n        /* \"#utility.yul\":19483:19486   */\n      dup3\n        /* \"#utility.yul\":19479:19491   */\n      add\n        /* \"#utility.yul\":19472:19491   */\n      swap1\n      pop\n        /* \"#utility.yul\":19131:19497   */\n      swap2\n      swap1\n      pop\n      jump\t// out\n        /* \"#utility.yul\":19503:19922   */\n    tag_196:\n        /* \"#utility.yul\":19669:19673   */\n      0x00\n        /* \"#utility.yul\":19707:19709   */\n      0x20\n        /* \"#utility.yul\":19696:19705   */\n      dup3\n        /* \"#utility.yul\":19692:19710   */\n      add\n        /* \"#utility.yul\":19684:19710   */\n      swap1\n      pop\n        /* \"#utility.yul\":19756:19765   */\n      dup2\n        /* \"#utility.yul\":19750:19754   */\n      dup2\n        /* \"#utility.yul\":19746:19766   */\n      sub\n        /* \"#utility.yul\":19742:19743   */\n      0x00\n        /* \"#utility.yul\":19731:19740   */\n      dup4\n        /* \"#utility.yul\":19727:19744   */\n      add\n        /* \"#utility.yul\":19720:19767   */\n      mstore\n        /* \"#utility.yul\":19784:19915   */\n      tag_431\n        /* \"#utility.yul\":19910:19914   */\n      dup2\n        /* \"#utility.yul\":19784:19915   */\n      tag_256\n      jump\t// in\n    tag_431:\n        /* \"#utility.yul\":19776:19915   */\n      swap1\n      pop\n        /* \"#utility.yul\":19503:19922   */\n      swap2\n      swap1\n      pop\n      jump\t// out\n        /* \"#utility.yul\":19928:20108   */\n    tag_257:\n        /* \"#utility.yul\":19976:20053   */\n      0x4e487b7100000000000000000000000000000000000000000000000000000000\n        /* \"#utility.yul\":19973:19974   */\n      0x00\n        /* \"#utility.yul\":19966:20054   */\n      mstore\n        /* \"#utility.yul\":20073:20077   */\n      0x12\n        /* \"#utility.yul\":20070:20071   */\n      0x04\n        /* \"#utility.yul\":20063:20078   */\n      mstore\n        /* \"#utility.yul\":20097:20101   */\n      0x24\n        /* \"#utility.yul\":20094:20095   */\n      0x00\n        /* \"#utility.yul\":20087:20102   */\n      revert\n        /* \"#utility.yul\":20114:20299   */\n    tag_200:\n        /* \"#utility.yul\":20154:20155   */\n      0x00\n        /* \"#utility.yul\":20171:20191   */\n      tag_434\n        /* \"#utility.yul\":20189:20190   */\n      dup3\n        /* \"#utility.yul\":20171:20191   */\n      tag_212\n      jump\t// in\n    tag_434:\n        /* \"#utility.yul\":20166:20191   */\n      swap2\n      pop\n        /* \"#utility.yul\":20205:20225   */\n      tag_435\n        /* \"#utility.yul\":20223:20224   */\n      dup4\n        /* \"#utility.yul\":20205:20225   */\n      tag_212\n      jump\t// in\n    tag_435:\n        /* \"#utility.yul\":20200:20225   */\n      swap3\n      pop\n        /* \"#utility.yul\":20244:20245   */\n      dup3\n        /* \"#utility.yul\":20234:20269   */\n      tag_436\n      jumpi\n        /* \"#utility.yul\":20249:20267   */\n      tag_437\n      tag_257\n      jump\t// in\n    tag_437:\n        /* \"#utility.yul\":20234:20269   */\n    tag_436:\n        /* \"#utility.yul\":20291:20292   */\n      dup3\n        /* \"#utility.yul\":20288:20289   */\n      dup3\n        /* \"#utility.yul\":20284:20293   */\n      div\n        /* \"#utility.yul\":20279:20293   */\n      swap1\n      pop\n        /* \"#utility.yul\":20114:20299   */\n      swap3\n      swap2\n      pop\n      pop\n      jump\t// out\n\n    auxdata: 0xa2646970667358221220de75cb0490895c87a9056c978b287ac56deff7cbde6399c057c85b03f5bf843064736f6c634300081a0033\n}\n",
				"bytecode": {
					"linkReferences": {},
					"object": "6080604052678ac7230489e8000060035534801561001b575f80fd5b506040516121f23803806121f2833981810160405281019061003d9190610128565b60015f819055508060015f6101000a81548173ffffffffffffffffffffffffffffffffffffffff021916908373ffffffffffffffffffffffffffffffffffffffff1602179055503360025f6101000a81548173ffffffffffffffffffffffffffffffffffffffff021916908373ffffffffffffffffffffffffffffffffffffffff16021790555050610153565b5f80fd5b5f73ffffffffffffffffffffffffffffffffffffffff82169050919050565b5f6100f7826100ce565b9050919050565b610107816100ed565b8114610111575f80fd5b50565b5f81519050610122816100fe565b92915050565b5f6020828403121561013d5761013c6100ca565b5b5f61014a84828501610114565b91505092915050565b612092806101605f395ff3fe608060405234801561000f575f80fd5b5060043610610109575f3560e01c80638da5cb5b116100a0578063b0b62f5a1161006f578063b0b62f5a1461029b578063c2d3c677146102a5578063d2c8e0e5146102d5578063f2fde38b14610305578063f643ffbb1461032157610109565b80638da5cb5b146101f3578063a80f7e6614610211578063a87430ba1461022f578063acc77dd71461026557610109565b80635c975abb116100dc5780635c975abb1461019157806364b4f7511461019b5780637e4c0e32146101b95780638456cb59146101d557610109565b80630840605a1461010d5780632e1a7d4d146101295780634f404243146101455780635953942b14610175575b5f80fd5b6101276004803603810190610122919061173b565b610351565b005b610143600480360381019061013e9190611799565b610c4f565b005b61015f600480360381019061015a919061173b565b610daf565b60405161016c919061187b565b60405180910390f35b61018f600480360381019061018a919061173b565b610e7a565b005b610199610fba565b005b6101a3611066565b6040516101b091906118aa565b60405180910390f35b6101d360048036038101906101ce9190611799565b61106c565b005b6101dd61115b565b6040516101ea91906118dd565b60405180910390f35b6101fb61116e565b6040516102089190611905565b60405180910390f35b610219611193565b6040516102269190611979565b60405180910390f35b6102496004803603810190610244919061173b565b6111b8565b60405161025c9796959493929190611992565b60405180910390f35b61027f600480360381019061027a919061173b565b611221565b6040516102929796959493929190611992565b60405180910390f35b6102a36112cf565b005b6102bf60048036038101906102ba919061173b565b61137a565b6040516102cc91906118aa565b60405180910390f35b6102ef60048036038101906102ea919061173b565b6113d7565b6040516102fc919061187b565b60405180910390f35b61031f600480360381019061031a919061173b565b6114a2565b005b61033b6004803603810190610336919061173b565b6115e2565b60405161034891906118aa565b60405180910390f35b610359611645565b600260149054906101000a900460ff16156103a9576040517f08c379a00000000000000000000000000000000000000000000000000000000081526004016103a090611a59565b60405180910390fd5b3373ffffffffffffffffffffffffffffffffffffffff168173ffffffffffffffffffffffffffffffffffffffff1603610417576040517f08c379a000000000000000000000000000000000000000000000000000000000815260040161040e90611ac1565b60405180910390fd5b60045f3373ffffffffffffffffffffffffffffffffffffffff1673ffffffffffffffffffffffffffffffffffffffff1681526020019081526020015f206002015f9054906101000a900460ff16156104a4576040517f08c379a000000000000000000000000000000000000000000000000000000000815260040161049b90611b29565b60405180910390fd5b5f73ffffffffffffffffffffffffffffffffffffffff168173ffffffffffffffffffffffffffffffffffffffff1603610512576040517f08c379a000000000000000000000000000000000000000000000000000000000815260040161050990611b91565b60405180910390fd5b60045f8273ffffffffffffffffffffffffffffffffffffffff1673ffffffffffffffffffffffffffffffffffffffff1681526020019081526020015f206002015f9054906101000a900460ff1661059e576040517f08c379a000000000000000000000000000000000000000000000000000000000815260040161059590611c1f565b60405180910390fd5b60015f9054906101000a900473ffffffffffffffffffffffffffffffffffffffff1673ffffffffffffffffffffffffffffffffffffffff166323b872dd33306003546040518463ffffffff1660e01b81526004016105fe93929190611c3d565b6020604051808303815f875af115801561061a573d5f803e3d5ffd5b505050506040513d601f19601f8201168201806040525081019061063e9190611c9c565b61067d576040517f08c379a000000000000000000000000000000000000000000000000000000000815260040161067490611d11565b60405180910390fd5b5f60045f8373ffffffffffffffffffffffffffffffffffffffff1673ffffffffffffffffffffffffffffffffffffffff1681526020019081526020015f2090505f6106c9600354611692565b905060015f9054906101000a900473ffffffffffffffffffffffffffffffffffffffff1673ffffffffffffffffffffffffffffffffffffffff1663a9059cbb84836040518363ffffffff1660e01b8152600401610727929190611d2f565b6020604051808303815f875af1158015610743573d5f803e3d5ffd5b505050506040513d601f19601f820116820180604052508101906107679190611c9c565b505f73ffffffffffffffffffffffffffffffffffffffff16825f015f9054906101000a900473ffffffffffffffffffffffffffffffffffffffff1673ffffffffffffffffffffffffffffffffffffffff1614610986575f6107c96003546116b3565b905060015f9054906101000a900473ffffffffffffffffffffffffffffffffffffffff1673ffffffffffffffffffffffffffffffffffffffff1663a9059cbb845f015f9054906101000a900473ffffffffffffffffffffffffffffffffffffffff16836040518363ffffffff1660e01b8152600401610849929190611d2f565b6020604051808303815f875af1158015610865573d5f803e3d5ffd5b505050506040513d601f19601f820116820180604052508101906108899190611c9c565b505f60045f855f015f9054906101000a900473ffffffffffffffffffffffffffffffffffffffff1673ffffffffffffffffffffffffffffffffffffffff1673ffffffffffffffffffffffffffffffffffffffff1681526020019081526020015f2090508060080133908060018154018082558091505060019003905f5260205f20015f9091909190916101000a81548173ffffffffffffffffffffffffffffffffffffffff021916908373ffffffffffffffffffffffffffffffffffffffff1602179055506001816007015f8282546109629190611d83565b9250508190555081816006015f82825461097c9190611d83565b9250508190555050505b8060045f8573ffffffffffffffffffffffffffffffffffffffff1673ffffffffffffffffffffffffffffffffffffffff1681526020019081526020015f206001015f8282546109d59190611d83565b92505081905550600160045f8573ffffffffffffffffffffffffffffffffffffffff1673ffffffffffffffffffffffffffffffffffffffff1681526020019081526020015f206003015f828254610a2c9190611d83565b92505081905550600160045f8573ffffffffffffffffffffffffffffffffffffffff1673ffffffffffffffffffffffffffffffffffffffff1681526020019081526020015f206007015f828254610a839190611d83565b9250508190555060045f8473ffffffffffffffffffffffffffffffffffffffff1673ffffffffffffffffffffffffffffffffffffffff1681526020019081526020015f2060050133908060018154018082558091505060019003905f5260205f20015f9091909190916101000a81548173ffffffffffffffffffffffffffffffffffffffff021916908373ffffffffffffffffffffffffffffffffffffffff1602179055508260045f3373ffffffffffffffffffffffffffffffffffffffff1673ffffffffffffffffffffffffffffffffffffffff1681526020019081526020015f205f015f6101000a81548173ffffffffffffffffffffffffffffffffffffffff021916908373ffffffffffffffffffffffffffffffffffffffff160217905550600160045f3373ffffffffffffffffffffffffffffffffffffffff1673ffffffffffffffffffffffffffffffffffffffff1681526020019081526020015f206002015f6101000a81548160ff0219169083151502179055504260045f3373ffffffffffffffffffffffffffffffffffffffff1673ffffffffffffffffffffffffffffffffffffffff1681526020019081526020015f20600401819055505050610c4c6116d4565b50565b610c57611645565b60025f9054906101000a900473ffffffffffffffffffffffffffffffffffffffff1673ffffffffffffffffffffffffffffffffffffffff163373ffffffffffffffffffffffffffffffffffffffff1614610ce6576040517f08c379a0000000000000000000000000000000000000000000000000000000008152600401610cdd90611e00565b60405180910390fd5b60015f9054906101000a900473ffffffffffffffffffffffffffffffffffffffff1673ffffffffffffffffffffffffffffffffffffffff1663a9059cbb60025f9054906101000a900473ffffffffffffffffffffffffffffffffffffffff16836040518363ffffffff1660e01b8152600401610d63929190611d2f565b6020604051808303815f875af1158015610d7f573d5f803e3d5ffd5b505050506040513d601f19601f82011682018060405250810190610da39190611c9c565b50610dac6116d4565b50565b606060045f8373ffffffffffffffffffffffffffffffffffffffff1673ffffffffffffffffffffffffffffffffffffffff1681526020019081526020015f20600801805480602002602001604051908101604052809291908181526020018280548015610e6e57602002820191905f5260205f20905b815f9054906101000a900473ffffffffffffffffffffffffffffffffffffffff1673ffffffffffffffffffffffffffffffffffffffff1681526020019060010190808311610e25575b50505050509050919050565b60025f9054906101000a900473ffffffffffffffffffffffffffffffffffffffff1673ffffffffffffffffffffffffffffffffffffffff163373ffffffffffffffffffffffffffffffffffffffff1614610f09576040517f08c379a0000000000000000000000000000000000000000000000000000000008152600401610f0090611e00565b60405180910390fd5b5f73ffffffffffffffffffffffffffffffffffffffff168173ffffffffffffffffffffffffffffffffffffffff1603610f77576040517f08c379a0000000000000000000000000000000000000000000000000000000008152600401610f6e90611e68565b60405180910390fd5b8060015f6101000a81548173ffffffffffffffffffffffffffffffffffffffff021916908373ffffffffffffffffffffffffffffffffffffffff16021790555050565b60025f9054906101000a900473ffffffffffffffffffffffffffffffffffffffff1673ffffffffffffffffffffffffffffffffffffffff163373ffffffffffffffffffffffffffffffffffffffff1614611049576040517f08c379a000000000000000000000000000000000000000000000000000000000815260040161104090611e00565b60405180910390fd5b6001600260146101000a81548160ff021916908315150217905550565b60035481565b60025f9054906101000a900473ffffffffffffffffffffffffffffffffffffffff1673ffffffffffffffffffffffffffffffffffffffff163373ffffffffffffffffffffffffffffffffffffffff16146110fb576040517f08c379a00000000000000000000000000000000000000000000000000000000081526004016110f290611e00565b60405180910390fd5b6063811061113e576040517f08c379a000000000000000000000000000000000000000000000000000000000815260040161113590611ed0565b60405180910390fd5b670de0b6b3a7640000816111529190611eee565b60038190555050565b600260149054906101000a900460ff1681565b60025f9054906101000a900473ffffffffffffffffffffffffffffffffffffffff1681565b60015f9054906101000a900473ffffffffffffffffffffffffffffffffffffffff1681565b6004602052805f5260405f205f91509050805f015f9054906101000a900473ffffffffffffffffffffffffffffffffffffffff1690806001015490806002015f9054906101000a900460ff16908060030154908060040154908060060154908060070154905087565b5f805f805f805f8060045f8a73ffffffffffffffffffffffffffffffffffffffff1673ffffffffffffffffffffffffffffffffffffffff1681526020019081526020015f209050805f015f9054906101000a900473ffffffffffffffffffffffffffffffffffffffff168160010154826002015f9054906101000a900460ff168360030154846004015485600601548660070154975097509750975097509750975050919395979092949650565b60025f9054906101000a900473ffffffffffffffffffffffffffffffffffffffff1673ffffffffffffffffffffffffffffffffffffffff163373ffffffffffffffffffffffffffffffffffffffff161461135e576040517f08c379a000000000000000000000000000000000000000000000000000000000815260040161135590611e00565b60405180910390fd5b5f600260146101000a81548160ff021916908315150217905550565b5f8060045f8473ffffffffffffffffffffffffffffffffffffffff1673ffffffffffffffffffffffffffffffffffffffff1681526020019081526020015f209050806006015481600101546113cf9190611d83565b915050919050565b606060045f8373ffffffffffffffffffffffffffffffffffffffff1673ffffffffffffffffffffffffffffffffffffffff1681526020019081526020015f2060050180548060200260200160405190810160405280929190818152602001828054801561149657602002820191905f5260205f20905b815f9054906101000a900473ffffffffffffffffffffffffffffffffffffffff1673ffffffffffffffffffffffffffffffffffffffff168152602001906001019080831161144d575b50505050509050919050565b60025f9054906101000a900473ffffffffffffffffffffffffffffffffffffffff1673ffffffffffffffffffffffffffffffffffffffff163373ffffffffffffffffffffffffffffffffffffffff1614611531576040517f08c379a000000000000000000000000000000000000000000000000000000000815260040161152890611e00565b60405180910390fd5b5f73ffffffffffffffffffffffffffffffffffffffff168173ffffffffffffffffffffffffffffffffffffffff160361159f576040517f08c379a000000000000000000000000000000000000000000000000000000000815260040161159690611f79565b60405180910390fd5b8060025f6101000a81548173ffffffffffffffffffffffffffffffffffffffff021916908373ffffffffffffffffffffffffffffffffffffffff16021790555050565b5f8060045f8473ffffffffffffffffffffffffffffffffffffffff1673ffffffffffffffffffffffffffffffffffffffff1681526020019081526020015f2090508060080180549050816005018054905061163d9190611d83565b915050919050565b60025f5403611689576040517f08c379a000000000000000000000000000000000000000000000000000000000815260040161168090611fe1565b60405180910390fd5b60025f81905550565b5f60646028836116a29190611eee565b6116ac919061202c565b9050919050565b5f60646014836116c39190611eee565b6116cd919061202c565b9050919050565b60015f81905550565b5f80fd5b5f73ffffffffffffffffffffffffffffffffffffffff82169050919050565b5f61170a826116e1565b9050919050565b61171a81611700565b8114611724575f80fd5b50565b5f8135905061173581611711565b92915050565b5f602082840312156117505761174f6116dd565b5b5f61175d84828501611727565b91505092915050565b5f819050919050565b61177881611766565b8114611782575f80fd5b50565b5f813590506117938161176f565b92915050565b5f602082840312156117ae576117ad6116dd565b5b5f6117bb84828501611785565b91505092915050565b5f81519050919050565b5f82825260208201905092915050565b5f819050602082019050919050565b6117f681611700565b82525050565b5f61180783836117ed565b60208301905092915050565b5f602082019050919050565b5f611829826117c4565b61183381856117ce565b935061183e836117de565b805f5b8381101561186e57815161185588826117fc565b975061186083611813565b925050600181019050611841565b5085935050505092915050565b5f6020820190508181035f830152611893818461181f565b905092915050565b6118a481611766565b82525050565b5f6020820190506118bd5f83018461189b565b92915050565b5f8115159050919050565b6118d7816118c3565b82525050565b5f6020820190506118f05f8301846118ce565b92915050565b6118ff81611700565b82525050565b5f6020820190506119185f8301846118f6565b92915050565b5f819050919050565b5f61194161193c611937846116e1565b61191e565b6116e1565b9050919050565b5f61195282611927565b9050919050565b5f61196382611948565b9050919050565b61197381611959565b82525050565b5f60208201905061198c5f83018461196a565b92915050565b5f60e0820190506119a55f83018a6118f6565b6119b2602083018961189b565b6119bf60408301886118ce565b6119cc606083018761189b565b6119d9608083018661189b565b6119e660a083018561189b565b6119f360c083018461189b565b98975050505050505050565b5f82825260208201905092915050565b7f436861696e426f6f7374206973205061757365640000000000000000000000005f82015250565b5f611a436014836119ff565b9150611a4e82611a0f565b602082019050919050565b5f6020820190508181035f830152611a7081611a37565b9050919050565b7f43616e6e6f7420726566657220796f757273656c6600000000000000000000005f82015250565b5f611aab6015836119ff565b9150611ab682611a77565b602082019050919050565b5f6020820190508181035f830152611ad881611a9f565b9050919050565b7f416c7265616479207265676973746572656400000000000000000000000000005f82015250565b5f611b136012836119ff565b9150611b1e82611adf565b602082019050919050565b5f6020820190508181035f830152611b4081611b07565b9050919050565b7f696e76616c696420726566657272616c000000000000000000000000000000005f82015250565b5f611b7b6010836119ff565b9150611b8682611b47565b602082019050919050565b5f6020820190508181035f830152611ba881611b6f565b9050919050565b7f526566657272616c207573657220646964206e6f7420636f6d706c65746520615f8201527f6e7920726567697374726174696f6e2000000000000000000000000000000000602082015250565b5f611c096030836119ff565b9150611c1482611baf565b604082019050919050565b5f6020820190508181035f830152611c3681611bfd565b9050919050565b5f606082019050611c505f8301866118f6565b611c5d60208301856118f6565b611c6a604083018461189b565b949350505050565b611c7b816118c3565b8114611c85575f80fd5b50565b5f81519050611c9681611c72565b92915050565b5f60208284031215611cb157611cb06116dd565b5b5f611cbe84828501611c88565b91505092915050565b7f726567697374726174696f6e206661696c6564000000000000000000000000005f82015250565b5f611cfb6013836119ff565b9150611d0682611cc7565b602082019050919050565b5f6020820190508181035f830152611d2881611cef565b9050919050565b5f604082019050611d425f8301856118f6565b611d4f602083018461189b565b9392505050565b7f4e487b71000000000000000000000000000000000000000000000000000000005f52601160045260245ffd5b5f611d8d82611766565b9150611d9883611766565b9250828201905080821115611db057611daf611d56565b5b92915050565b7f4f6e6c79206f776e6572000000000000000000000000000000000000000000005f82015250565b5f611dea600a836119ff565b9150611df582611db6565b602082019050919050565b5f6020820190508181035f830152611e1781611dde565b9050919050565b7f696e76616c6964206e65772062737400000000000000000000000000000000005f82015250565b5f611e52600f836119ff565b9150611e5d82611e1e565b602082019050919050565b5f6020820190508181035f830152611e7f81611e46565b9050919050565b7f696e76616c69642070657263656e7461676500000000000000000000000000005f82015250565b5f611eba6012836119ff565b9150611ec582611e86565b602082019050919050565b5f6020820190508181035f830152611ee781611eae565b9050919050565b5f611ef882611766565b9150611f0383611766565b9250828202611f1181611766565b91508282048414831517611f2857611f27611d56565b5b5092915050565b7f496e76616c6964206e6577206f776e65720000000000000000000000000000005f82015250565b5f611f636011836119ff565b9150611f6e82611f2f565b602082019050919050565b5f6020820190508181035f830152611f9081611f57565b9050919050565b7f5265656e7472616e637947756172643a207265656e7472616e742063616c6c005f82015250565b5f611fcb601f836119ff565b9150611fd682611f97565b602082019050919050565b5f6020820190508181035f830152611ff881611fbf565b9050919050565b7f4e487b71000000000000000000000000000000000000000000000000000000005f52601260045260245ffd5b5f61203682611766565b915061204183611766565b92508261205157612050611fff565b5b82820490509291505056fea2646970667358221220de75cb0490895c87a9056c978b287ac56deff7cbde6399c057c85b03f5bf843064736f6c634300081a0033",
					"opcodes": "PUSH1 0x80 PUSH1 0x40 MSTORE PUSH8 0x8AC7230489E80000 PUSH1 0x3 SSTORE CALLVALUE DUP1 ISZERO PUSH2 0x1B JUMPI PUSH0 DUP1 REVERT JUMPDEST POP PUSH1 0x40 MLOAD PUSH2 0x21F2 CODESIZE SUB DUP1 PUSH2 0x21F2 DUP4 CODECOPY DUP2 DUP2 ADD PUSH1 0x40 MSTORE DUP2 ADD SWAP1 PUSH2 0x3D SWAP2 SWAP1 PUSH2 0x128 JUMP JUMPDEST PUSH1 0x1 PUSH0 DUP2 SWAP1 SSTORE POP DUP1 PUSH1 0x1 PUSH0 PUSH2 0x100 EXP DUP2 SLOAD DUP2 PUSH20 0xFFFFFFFFFFFFFFFFFFFFFFFFFFFFFFFFFFFFFFFF MUL NOT AND SWAP1 DUP4 PUSH20 0xFFFFFFFFFFFFFFFFFFFFFFFFFFFFFFFFFFFFFFFF AND MUL OR SWAP1 SSTORE POP CALLER PUSH1 0x2 PUSH0 PUSH2 0x100 EXP DUP2 SLOAD DUP2 PUSH20 0xFFFFFFFFFFFFFFFFFFFFFFFFFFFFFFFFFFFFFFFF MUL NOT AND SWAP1 DUP4 PUSH20 0xFFFFFFFFFFFFFFFFFFFFFFFFFFFFFFFFFFFFFFFF AND MUL OR SWAP1 SSTORE POP POP PUSH2 0x153 JUMP JUMPDEST PUSH0 DUP1 REVERT JUMPDEST PUSH0 PUSH20 0xFFFFFFFFFFFFFFFFFFFFFFFFFFFFFFFFFFFFFFFF DUP3 AND SWAP1 POP SWAP2 SWAP1 POP JUMP JUMPDEST PUSH0 PUSH2 0xF7 DUP3 PUSH2 0xCE JUMP JUMPDEST SWAP1 POP SWAP2 SWAP1 POP JUMP JUMPDEST PUSH2 0x107 DUP2 PUSH2 0xED JUMP JUMPDEST DUP2 EQ PUSH2 0x111 JUMPI PUSH0 DUP1 REVERT JUMPDEST POP JUMP JUMPDEST PUSH0 DUP2 MLOAD SWAP1 POP PUSH2 0x122 DUP2 PUSH2 0xFE JUMP JUMPDEST SWAP3 SWAP2 POP POP JUMP JUMPDEST PUSH0 PUSH1 0x20 DUP3 DUP5 SUB SLT ISZERO PUSH2 0x13D JUMPI PUSH2 0x13C PUSH2 0xCA JUMP JUMPDEST JUMPDEST PUSH0 PUSH2 0x14A DUP5 DUP3 DUP6 ADD PUSH2 0x114 JUMP JUMPDEST SWAP2 POP POP SWAP3 SWAP2 POP POP JUMP JUMPDEST PUSH2 0x2092 DUP1 PUSH2 0x160 PUSH0 CODECOPY PUSH0 RETURN INVALID PUSH1 0x80 PUSH1 0x40 MSTORE CALLVALUE DUP1 ISZERO PUSH2 0xF JUMPI PUSH0 DUP1 REVERT JUMPDEST POP PUSH1 0x4 CALLDATASIZE LT PUSH2 0x109 JUMPI PUSH0 CALLDATALOAD PUSH1 0xE0 SHR DUP1 PUSH4 0x8DA5CB5B GT PUSH2 0xA0 JUMPI DUP1 PUSH4 0xB0B62F5A GT PUSH2 0x6F JUMPI DUP1 PUSH4 0xB0B62F5A EQ PUSH2 0x29B JUMPI DUP1 PUSH4 0xC2D3C677 EQ PUSH2 0x2A5 JUMPI DUP1 PUSH4 0xD2C8E0E5 EQ PUSH2 0x2D5 JUMPI DUP1 PUSH4 0xF2FDE38B EQ PUSH2 0x305 JUMPI DUP1 PUSH4 0xF643FFBB EQ PUSH2 0x321 JUMPI PUSH2 0x109 JUMP JUMPDEST DUP1 PUSH4 0x8DA5CB5B EQ PUSH2 0x1F3 JUMPI DUP1 PUSH4 0xA80F7E66 EQ PUSH2 0x211 JUMPI DUP1 PUSH4 0xA87430BA EQ PUSH2 0x22F JUMPI DUP1 PUSH4 0xACC77DD7 EQ PUSH2 0x265 JUMPI PUSH2 0x109 JUMP JUMPDEST DUP1 PUSH4 0x5C975ABB GT PUSH2 0xDC JUMPI DUP1 PUSH4 0x5C975ABB EQ PUSH2 0x191 JUMPI DUP1 PUSH4 0x64B4F751 EQ PUSH2 0x19B JUMPI DUP1 PUSH4 0x7E4C0E32 EQ PUSH2 0x1B9 JUMPI DUP1 PUSH4 0x8456CB59 EQ PUSH2 0x1D5 JUMPI PUSH2 0x109 JUMP JUMPDEST DUP1 PUSH4 0x840605A EQ PUSH2 0x10D JUMPI DUP1 PUSH4 0x2E1A7D4D EQ PUSH2 0x129 JUMPI DUP1 PUSH4 0x4F404243 EQ PUSH2 0x145 JUMPI DUP1 PUSH4 0x5953942B EQ PUSH2 0x175 JUMPI JUMPDEST PUSH0 DUP1 REVERT JUMPDEST PUSH2 0x127 PUSH1 0x4 DUP1 CALLDATASIZE SUB DUP2 ADD SWAP1 PUSH2 0x122 SWAP2 SWAP1 PUSH2 0x173B JUMP JUMPDEST PUSH2 0x351 JUMP JUMPDEST STOP JUMPDEST PUSH2 0x143 PUSH1 0x4 DUP1 CALLDATASIZE SUB DUP2 ADD SWAP1 PUSH2 0x13E SWAP2 SWAP1 PUSH2 0x1799 JUMP JUMPDEST PUSH2 0xC4F JUMP JUMPDEST STOP JUMPDEST PUSH2 0x15F PUSH1 0x4 DUP1 CALLDATASIZE SUB DUP2 ADD SWAP1 PUSH2 0x15A SWAP2 SWAP1 PUSH2 0x173B JUMP JUMPDEST PUSH2 0xDAF JUMP JUMPDEST PUSH1 0x40 MLOAD PUSH2 0x16C SWAP2 SWAP1 PUSH2 0x187B JUMP JUMPDEST PUSH1 0x40 MLOAD DUP1 SWAP2 SUB SWAP1 RETURN JUMPDEST PUSH2 0x18F PUSH1 0x4 DUP1 CALLDATASIZE SUB DUP2 ADD SWAP1 PUSH2 0x18A SWAP2 SWAP1 PUSH2 0x173B JUMP JUMPDEST PUSH2 0xE7A JUMP JUMPDEST STOP JUMPDEST PUSH2 0x199 PUSH2 0xFBA JUMP JUMPDEST STOP JUMPDEST PUSH2 0x1A3 PUSH2 0x1066 JUMP JUMPDEST PUSH1 0x40 MLOAD PUSH2 0x1B0 SWAP2 SWAP1 PUSH2 0x18AA JUMP JUMPDEST PUSH1 0x40 MLOAD DUP1 SWAP2 SUB SWAP1 RETURN JUMPDEST PUSH2 0x1D3 PUSH1 0x4 DUP1 CALLDATASIZE SUB DUP2 ADD SWAP1 PUSH2 0x1CE SWAP2 SWAP1 PUSH2 0x1799 JUMP JUMPDEST PUSH2 0x106C JUMP JUMPDEST STOP JUMPDEST PUSH2 0x1DD PUSH2 0x115B JUMP JUMPDEST PUSH1 0x40 MLOAD PUSH2 0x1EA SWAP2 SWAP1 PUSH2 0x18DD JUMP JUMPDEST PUSH1 0x40 MLOAD DUP1 SWAP2 SUB SWAP1 RETURN JUMPDEST PUSH2 0x1FB PUSH2 0x116E JUMP JUMPDEST PUSH1 0x40 MLOAD PUSH2 0x208 SWAP2 SWAP1 PUSH2 0x1905 JUMP JUMPDEST PUSH1 0x40 MLOAD DUP1 SWAP2 SUB SWAP1 RETURN JUMPDEST PUSH2 0x219 PUSH2 0x1193 JUMP JUMPDEST PUSH1 0x40 MLOAD PUSH2 0x226 SWAP2 SWAP1 PUSH2 0x1979 JUMP JUMPDEST PUSH1 0x40 MLOAD DUP1 SWAP2 SUB SWAP1 RETURN JUMPDEST PUSH2 0x249 PUSH1 0x4 DUP1 CALLDATASIZE SUB DUP2 ADD SWAP1 PUSH2 0x244 SWAP2 SWAP1 PUSH2 0x173B JUMP JUMPDEST PUSH2 0x11B8 JUMP JUMPDEST PUSH1 0x40 MLOAD PUSH2 0x25C SWAP8 SWAP7 SWAP6 SWAP5 SWAP4 SWAP3 SWAP2 SWAP1 PUSH2 0x1992 JUMP JUMPDEST PUSH1 0x40 MLOAD DUP1 SWAP2 SUB SWAP1 RETURN JUMPDEST PUSH2 0x27F PUSH1 0x4 DUP1 CALLDATASIZE SUB DUP2 ADD SWAP1 PUSH2 0x27A SWAP2 SWAP1 PUSH2 0x173B JUMP JUMPDEST PUSH2 0x1221 JUMP JUMPDEST PUSH1 0x40 MLOAD PUSH2 0x292 SWAP8 SWAP7 SWAP6 SWAP5 SWAP4 SWAP3 SWAP2 SWAP1 PUSH2 0x1992 JUMP JUMPDEST PUSH1 0x40 MLOAD DUP1 SWAP2 SUB SWAP1 RETURN JUMPDEST PUSH2 0x2A3 PUSH2 0x12CF JUMP JUMPDEST STOP JUMPDEST PUSH2 0x2BF PUSH1 0x4 DUP1 CALLDATASIZE SUB DUP2 ADD SWAP1 PUSH2 0x2BA SWAP2 SWAP1 PUSH2 0x173B JUMP JUMPDEST PUSH2 0x137A JUMP JUMPDEST PUSH1 0x40 MLOAD PUSH2 0x2CC SWAP2 SWAP1 PUSH2 0x18AA JUMP JUMPDEST PUSH1 0x40 MLOAD DUP1 SWAP2 SUB SWAP1 RETURN JUMPDEST PUSH2 0x2EF PUSH1 0x4 DUP1 CALLDATASIZE SUB DUP2 ADD SWAP1 PUSH2 0x2EA SWAP2 SWAP1 PUSH2 0x173B JUMP JUMPDEST PUSH2 0x13D7 JUMP JUMPDEST PUSH1 0x40 MLOAD PUSH2 0x2FC SWAP2 SWAP1 PUSH2 0x187B JUMP JUMPDEST PUSH1 0x40 MLOAD DUP1 SWAP2 SUB SWAP1 RETURN JUMPDEST PUSH2 0x31F PUSH1 0x4 DUP1 CALLDATASIZE SUB DUP2 ADD SWAP1 PUSH2 0x31A SWAP2 SWAP1 PUSH2 0x173B JUMP JUMPDEST PUSH2 0x14A2 JUMP JUMPDEST STOP JUMPDEST PUSH2 0x33B PUSH1 0x4 DUP1 CALLDATASIZE SUB DUP2 ADD SWAP1 PUSH2 0x336 SWAP2 SWAP1 PUSH2 0x173B JUMP JUMPDEST PUSH2 0x15E2 JUMP JUMPDEST PUSH1 0x40 MLOAD PUSH2 0x348 SWAP2 SWAP1 PUSH2 0x18AA JUMP JUMPDEST PUSH1 0x40 MLOAD DUP1 SWAP2 SUB SWAP1 RETURN JUMPDEST PUSH2 0x359 PUSH2 0x1645 JUMP JUMPDEST PUSH1 0x2 PUSH1 0x14 SWAP1 SLOAD SWAP1 PUSH2 0x100 EXP SWAP1 DIV PUSH1 0xFF AND ISZERO PUSH2 0x3A9 JUMPI PUSH1 0x40 MLOAD PUSH32 0x8C379A000000000000000000000000000000000000000000000000000000000 DUP2 MSTORE PUSH1 0x4 ADD PUSH2 0x3A0 SWAP1 PUSH2 0x1A59 JUMP JUMPDEST PUSH1 0x40 MLOAD DUP1 SWAP2 SUB SWAP1 REVERT JUMPDEST CALLER PUSH20 0xFFFFFFFFFFFFFFFFFFFFFFFFFFFFFFFFFFFFFFFF AND DUP2 PUSH20 0xFFFFFFFFFFFFFFFFFFFFFFFFFFFFFFFFFFFFFFFF AND SUB PUSH2 0x417 JUMPI PUSH1 0x40 MLOAD PUSH32 0x8C379A000000000000000000000000000000000000000000000000000000000 DUP2 MSTORE PUSH1 0x4 ADD PUSH2 0x40E SWAP1 PUSH2 0x1AC1 JUMP JUMPDEST PUSH1 0x40 MLOAD DUP1 SWAP2 SUB SWAP1 REVERT JUMPDEST PUSH1 0x4 PUSH0 CALLER PUSH20 0xFFFFFFFFFFFFFFFFFFFFFFFFFFFFFFFFFFFFFFFF AND PUSH20 0xFFFFFFFFFFFFFFFFFFFFFFFFFFFFFFFFFFFFFFFF AND DUP2 MSTORE PUSH1 0x20 ADD SWAP1 DUP2 MSTORE PUSH1 0x20 ADD PUSH0 KECCAK256 PUSH1 0x2 ADD PUSH0 SWAP1 SLOAD SWAP1 PUSH2 0x100 EXP SWAP1 DIV PUSH1 0xFF AND ISZERO PUSH2 0x4A4 JUMPI PUSH1 0x40 MLOAD PUSH32 0x8C379A000000000000000000000000000000000000000000000000000000000 DUP2 MSTORE PUSH1 0x4 ADD PUSH2 0x49B SWAP1 PUSH2 0x1B29 JUMP JUMPDEST PUSH1 0x40 MLOAD DUP1 SWAP2 SUB SWAP1 REVERT JUMPDEST PUSH0 PUSH20 0xFFFFFFFFFFFFFFFFFFFFFFFFFFFFFFFFFFFFFFFF AND DUP2 PUSH20 0xFFFFFFFFFFFFFFFFFFFFFFFFFFFFFFFFFFFFFFFF AND SUB PUSH2 0x512 JUMPI PUSH1 0x40 MLOAD PUSH32 0x8C379A000000000000000000000000000000000000000000000000000000000 DUP2 MSTORE PUSH1 0x4 ADD PUSH2 0x509 SWAP1 PUSH2 0x1B91 JUMP JUMPDEST PUSH1 0x40 MLOAD DUP1 SWAP2 SUB SWAP1 REVERT JUMPDEST PUSH1 0x4 PUSH0 DUP3 PUSH20 0xFFFFFFFFFFFFFFFFFFFFFFFFFFFFFFFFFFFFFFFF AND PUSH20 0xFFFFFFFFFFFFFFFFFFFFFFFFFFFFFFFFFFFFFFFF AND DUP2 MSTORE PUSH1 0x20 ADD SWAP1 DUP2 MSTORE PUSH1 0x20 ADD PUSH0 KECCAK256 PUSH1 0x2 ADD PUSH0 SWAP1 SLOAD SWAP1 PUSH2 0x100 EXP SWAP1 DIV PUSH1 0xFF AND PUSH2 0x59E JUMPI PUSH1 0x40 MLOAD PUSH32 0x8C379A000000000000000000000000000000000000000000000000000000000 DUP2 MSTORE PUSH1 0x4 ADD PUSH2 0x595 SWAP1 PUSH2 0x1C1F JUMP JUMPDEST PUSH1 0x40 MLOAD DUP1 SWAP2 SUB SWAP1 REVERT JUMPDEST PUSH1 0x1 PUSH0 SWAP1 SLOAD SWAP1 PUSH2 0x100 EXP SWAP1 DIV PUSH20 0xFFFFFFFFFFFFFFFFFFFFFFFFFFFFFFFFFFFFFFFF AND PUSH20 0xFFFFFFFFFFFFFFFFFFFFFFFFFFFFFFFFFFFFFFFF AND PUSH4 0x23B872DD CALLER ADDRESS PUSH1 0x3 SLOAD PUSH1 0x40 MLOAD DUP5 PUSH4 0xFFFFFFFF AND PUSH1 0xE0 SHL DUP2 MSTORE PUSH1 0x4 ADD PUSH2 0x5FE SWAP4 SWAP3 SWAP2 SWAP1 PUSH2 0x1C3D JUMP JUMPDEST PUSH1 0x20 PUSH1 0x40 MLOAD DUP1 DUP4 SUB DUP2 PUSH0 DUP8 GAS CALL ISZERO DUP1 ISZERO PUSH2 0x61A JUMPI RETURNDATASIZE PUSH0 DUP1 RETURNDATACOPY RETURNDATASIZE PUSH0 REVERT JUMPDEST POP POP POP POP PUSH1 0x40 MLOAD RETURNDATASIZE PUSH1 0x1F NOT PUSH1 0x1F DUP3 ADD AND DUP3 ADD DUP1 PUSH1 0x40 MSTORE POP DUP2 ADD SWAP1 PUSH2 0x63E SWAP2 SWAP1 PUSH2 0x1C9C JUMP JUMPDEST PUSH2 0x67D JUMPI PUSH1 0x40 MLOAD PUSH32 0x8C379A000000000000000000000000000000000000000000000000000000000 DUP2 MSTORE PUSH1 0x4 ADD PUSH2 0x674 SWAP1 PUSH2 0x1D11 JUMP JUMPDEST PUSH1 0x40 MLOAD DUP1 SWAP2 SUB SWAP1 REVERT JUMPDEST PUSH0 PUSH1 0x4 PUSH0 DUP4 PUSH20 0xFFFFFFFFFFFFFFFFFFFFFFFFFFFFFFFFFFFFFFFF AND PUSH20 0xFFFFFFFFFFFFFFFFFFFFFFFFFFFFFFFFFFFFFFFF AND DUP2 MSTORE PUSH1 0x20 ADD SWAP1 DUP2 MSTORE PUSH1 0x20 ADD PUSH0 KECCAK256 SWAP1 POP PUSH0 PUSH2 0x6C9 PUSH1 0x3 SLOAD PUSH2 0x1692 JUMP JUMPDEST SWAP1 POP PUSH1 0x1 PUSH0 SWAP1 SLOAD SWAP1 PUSH2 0x100 EXP SWAP1 DIV PUSH20 0xFFFFFFFFFFFFFFFFFFFFFFFFFFFFFFFFFFFFFFFF AND PUSH20 0xFFFFFFFFFFFFFFFFFFFFFFFFFFFFFFFFFFFFFFFF AND PUSH4 0xA9059CBB DUP5 DUP4 PUSH1 0x40 MLOAD DUP4 PUSH4 0xFFFFFFFF AND PUSH1 0xE0 SHL DUP2 MSTORE PUSH1 0x4 ADD PUSH2 0x727 SWAP3 SWAP2 SWAP1 PUSH2 0x1D2F JUMP JUMPDEST PUSH1 0x20 PUSH1 0x40 MLOAD DUP1 DUP4 SUB DUP2 PUSH0 DUP8 GAS CALL ISZERO DUP1 ISZERO PUSH2 0x743 JUMPI RETURNDATASIZE PUSH0 DUP1 RETURNDATACOPY RETURNDATASIZE PUSH0 REVERT JUMPDEST POP POP POP POP PUSH1 0x40 MLOAD RETURNDATASIZE PUSH1 0x1F NOT PUSH1 0x1F DUP3 ADD AND DUP3 ADD DUP1 PUSH1 0x40 MSTORE POP DUP2 ADD SWAP1 PUSH2 0x767 SWAP2 SWAP1 PUSH2 0x1C9C JUMP JUMPDEST POP PUSH0 PUSH20 0xFFFFFFFFFFFFFFFFFFFFFFFFFFFFFFFFFFFFFFFF AND DUP3 PUSH0 ADD PUSH0 SWAP1 SLOAD SWAP1 PUSH2 0x100 EXP SWAP1 DIV PUSH20 0xFFFFFFFFFFFFFFFFFFFFFFFFFFFFFFFFFFFFFFFF AND PUSH20 0xFFFFFFFFFFFFFFFFFFFFFFFFFFFFFFFFFFFFFFFF AND EQ PUSH2 0x986 JUMPI PUSH0 PUSH2 0x7C9 PUSH1 0x3 SLOAD PUSH2 0x16B3 JUMP JUMPDEST SWAP1 POP PUSH1 0x1 PUSH0 SWAP1 SLOAD SWAP1 PUSH2 0x100 EXP SWAP1 DIV PUSH20 0xFFFFFFFFFFFFFFFFFFFFFFFFFFFFFFFFFFFFFFFF AND PUSH20 0xFFFFFFFFFFFFFFFFFFFFFFFFFFFFFFFFFFFFFFFF AND PUSH4 0xA9059CBB DUP5 PUSH0 ADD PUSH0 SWAP1 SLOAD SWAP1 PUSH2 0x100 EXP SWAP1 DIV PUSH20 0xFFFFFFFFFFFFFFFFFFFFFFFFFFFFFFFFFFFFFFFF AND DUP4 PUSH1 0x40 MLOAD DUP4 PUSH4 0xFFFFFFFF AND PUSH1 0xE0 SHL DUP2 MSTORE PUSH1 0x4 ADD PUSH2 0x849 SWAP3 SWAP2 SWAP1 PUSH2 0x1D2F JUMP JUMPDEST PUSH1 0x20 PUSH1 0x40 MLOAD DUP1 DUP4 SUB DUP2 PUSH0 DUP8 GAS CALL ISZERO DUP1 ISZERO PUSH2 0x865 JUMPI RETURNDATASIZE PUSH0 DUP1 RETURNDATACOPY RETURNDATASIZE PUSH0 REVERT JUMPDEST POP POP POP POP PUSH1 0x40 MLOAD RETURNDATASIZE PUSH1 0x1F NOT PUSH1 0x1F DUP3 ADD AND DUP3 ADD DUP1 PUSH1 0x40 MSTORE POP DUP2 ADD SWAP1 PUSH2 0x889 SWAP2 SWAP1 PUSH2 0x1C9C JUMP JUMPDEST POP PUSH0 PUSH1 0x4 PUSH0 DUP6 PUSH0 ADD PUSH0 SWAP1 SLOAD SWAP1 PUSH2 0x100 EXP SWAP1 DIV PUSH20 0xFFFFFFFFFFFFFFFFFFFFFFFFFFFFFFFFFFFFFFFF AND PUSH20 0xFFFFFFFFFFFFFFFFFFFFFFFFFFFFFFFFFFFFFFFF AND PUSH20 0xFFFFFFFFFFFFFFFFFFFFFFFFFFFFFFFFFFFFFFFF AND DUP2 MSTORE PUSH1 0x20 ADD SWAP1 DUP2 MSTORE PUSH1 0x20 ADD PUSH0 KECCAK256 SWAP1 POP DUP1 PUSH1 0x8 ADD CALLER SWAP1 DUP1 PUSH1 0x1 DUP2 SLOAD ADD DUP1 DUP3 SSTORE DUP1 SWAP2 POP POP PUSH1 0x1 SWAP1 SUB SWAP1 PUSH0 MSTORE PUSH1 0x20 PUSH0 KECCAK256 ADD PUSH0 SWAP1 SWAP2 SWAP1 SWAP2 SWAP1 SWAP2 PUSH2 0x100 EXP DUP2 SLOAD DUP2 PUSH20 0xFFFFFFFFFFFFFFFFFFFFFFFFFFFFFFFFFFFFFFFF MUL NOT AND SWAP1 DUP4 PUSH20 0xFFFFFFFFFFFFFFFFFFFFFFFFFFFFFFFFFFFFFFFF AND MUL OR SWAP1 SSTORE POP PUSH1 0x1 DUP2 PUSH1 0x7 ADD PUSH0 DUP3 DUP3 SLOAD PUSH2 0x962 SWAP2 SWAP1 PUSH2 0x1D83 JUMP JUMPDEST SWAP3 POP POP DUP2 SWAP1 SSTORE POP DUP2 DUP2 PUSH1 0x6 ADD PUSH0 DUP3 DUP3 SLOAD PUSH2 0x97C SWAP2 SWAP1 PUSH2 0x1D83 JUMP JUMPDEST SWAP3 POP POP DUP2 SWAP1 SSTORE POP POP POP JUMPDEST DUP1 PUSH1 0x4 PUSH0 DUP6 PUSH20 0xFFFFFFFFFFFFFFFFFFFFFFFFFFFFFFFFFFFFFFFF AND PUSH20 0xFFFFFFFFFFFFFFFFFFFFFFFFFFFFFFFFFFFFFFFF AND DUP2 MSTORE PUSH1 0x20 ADD SWAP1 DUP2 MSTORE PUSH1 0x20 ADD PUSH0 KECCAK256 PUSH1 0x1 ADD PUSH0 DUP3 DUP3 SLOAD PUSH2 0x9D5 SWAP2 SWAP1 PUSH2 0x1D83 JUMP JUMPDEST SWAP3 POP POP DUP2 SWAP1 SSTORE POP PUSH1 0x1 PUSH1 0x4 PUSH0 DUP6 PUSH20 0xFFFFFFFFFFFFFFFFFFFFFFFFFFFFFFFFFFFFFFFF AND PUSH20 0xFFFFFFFFFFFFFFFFFFFFFFFFFFFFFFFFFFFFFFFF AND DUP2 MSTORE PUSH1 0x20 ADD SWAP1 DUP2 MSTORE PUSH1 0x20 ADD PUSH0 KECCAK256 PUSH1 0x3 ADD PUSH0 DUP3 DUP3 SLOAD PUSH2 0xA2C SWAP2 SWAP1 PUSH2 0x1D83 JUMP JUMPDEST SWAP3 POP POP DUP2 SWAP1 SSTORE POP PUSH1 0x1 PUSH1 0x4 PUSH0 DUP6 PUSH20 0xFFFFFFFFFFFFFFFFFFFFFFFFFFFFFFFFFFFFFFFF AND PUSH20 0xFFFFFFFFFFFFFFFFFFFFFFFFFFFFFFFFFFFFFFFF AND DUP2 MSTORE PUSH1 0x20 ADD SWAP1 DUP2 MSTORE PUSH1 0x20 ADD PUSH0 KECCAK256 PUSH1 0x7 ADD PUSH0 DUP3 DUP3 SLOAD PUSH2 0xA83 SWAP2 SWAP1 PUSH2 0x1D83 JUMP JUMPDEST SWAP3 POP POP DUP2 SWAP1 SSTORE POP PUSH1 0x4 PUSH0 DUP5 PUSH20 0xFFFFFFFFFFFFFFFFFFFFFFFFFFFFFFFFFFFFFFFF AND PUSH20 0xFFFFFFFFFFFFFFFFFFFFFFFFFFFFFFFFFFFFFFFF AND DUP2 MSTORE PUSH1 0x20 ADD SWAP1 DUP2 MSTORE PUSH1 0x20 ADD PUSH0 KECCAK256 PUSH1 0x5 ADD CALLER SWAP1 DUP1 PUSH1 0x1 DUP2 SLOAD ADD DUP1 DUP3 SSTORE DUP1 SWAP2 POP POP PUSH1 0x1 SWAP1 SUB SWAP1 PUSH0 MSTORE PUSH1 0x20 PUSH0 KECCAK256 ADD PUSH0 SWAP1 SWAP2 SWAP1 SWAP2 SWAP1 SWAP2 PUSH2 0x100 EXP DUP2 SLOAD DUP2 PUSH20 0xFFFFFFFFFFFFFFFFFFFFFFFFFFFFFFFFFFFFFFFF MUL NOT AND SWAP1 DUP4 PUSH20 0xFFFFFFFFFFFFFFFFFFFFFFFFFFFFFFFFFFFFFFFF AND MUL OR SWAP1 SSTORE POP DUP3 PUSH1 0x4 PUSH0 CALLER PUSH20 0xFFFFFFFFFFFFFFFFFFFFFFFFFFFFFFFFFFFFFFFF AND PUSH20 0xFFFFFFFFFFFFFFFFFFFFFFFFFFFFFFFFFFFFFFFF AND DUP2 MSTORE PUSH1 0x20 ADD SWAP1 DUP2 MSTORE PUSH1 0x20 ADD PUSH0 KECCAK256 PUSH0 ADD PUSH0 PUSH2 0x100 EXP DUP2 SLOAD DUP2 PUSH20 0xFFFFFFFFFFFFFFFFFFFFFFFFFFFFFFFFFFFFFFFF MUL NOT AND SWAP1 DUP4 PUSH20 0xFFFFFFFFFFFFFFFFFFFFFFFFFFFFFFFFFFFFFFFF AND MUL OR SWAP1 SSTORE POP PUSH1 0x1 PUSH1 0x4 PUSH0 CALLER PUSH20 0xFFFFFFFFFFFFFFFFFFFFFFFFFFFFFFFFFFFFFFFF AND PUSH20 0xFFFFFFFFFFFFFFFFFFFFFFFFFFFFFFFFFFFFFFFF AND DUP2 MSTORE PUSH1 0x20 ADD SWAP1 DUP2 MSTORE PUSH1 0x20 ADD PUSH0 KECCAK256 PUSH1 0x2 ADD PUSH0 PUSH2 0x100 EXP DUP2 SLOAD DUP2 PUSH1 0xFF MUL NOT AND SWAP1 DUP4 ISZERO ISZERO MUL OR SWAP1 SSTORE POP TIMESTAMP PUSH1 0x4 PUSH0 CALLER PUSH20 0xFFFFFFFFFFFFFFFFFFFFFFFFFFFFFFFFFFFFFFFF AND PUSH20 0xFFFFFFFFFFFFFFFFFFFFFFFFFFFFFFFFFFFFFFFF AND DUP2 MSTORE PUSH1 0x20 ADD SWAP1 DUP2 MSTORE PUSH1 0x20 ADD PUSH0 KECCAK256 PUSH1 0x4 ADD DUP2 SWAP1 SSTORE POP POP POP PUSH2 0xC4C PUSH2 0x16D4 JUMP JUMPDEST POP JUMP JUMPDEST PUSH2 0xC57 PUSH2 0x1645 JUMP JUMPDEST PUSH1 0x2 PUSH0 SWAP1 SLOAD SWAP1 PUSH2 0x100 EXP SWAP1 DIV PUSH20 0xFFFFFFFFFFFFFFFFFFFFFFFFFFFFFFFFFFFFFFFF AND PUSH20 0xFFFFFFFFFFFFFFFFFFFFFFFFFFFFFFFFFFFFFFFF AND CALLER PUSH20 0xFFFFFFFFFFFFFFFFFFFFFFFFFFFFFFFFFFFFFFFF AND EQ PUSH2 0xCE6 JUMPI PUSH1 0x40 MLOAD PUSH32 0x8C379A000000000000000000000000000000000000000000000000000000000 DUP2 MSTORE PUSH1 0x4 ADD PUSH2 0xCDD SWAP1 PUSH2 0x1E00 JUMP JUMPDEST PUSH1 0x40 MLOAD DUP1 SWAP2 SUB SWAP1 REVERT JUMPDEST PUSH1 0x1 PUSH0 SWAP1 SLOAD SWAP1 PUSH2 0x100 EXP SWAP1 DIV PUSH20 0xFFFFFFFFFFFFFFFFFFFFFFFFFFFFFFFFFFFFFFFF AND PUSH20 0xFFFFFFFFFFFFFFFFFFFFFFFFFFFFFFFFFFFFFFFF AND PUSH4 0xA9059CBB PUSH1 0x2 PUSH0 SWAP1 SLOAD SWAP1 PUSH2 0x100 EXP SWAP1 DIV PUSH20 0xFFFFFFFFFFFFFFFFFFFFFFFFFFFFFFFFFFFFFFFF AND DUP4 PUSH1 0x40 MLOAD DUP4 PUSH4 0xFFFFFFFF AND PUSH1 0xE0 SHL DUP2 MSTORE PUSH1 0x4 ADD PUSH2 0xD63 SWAP3 SWAP2 SWAP1 PUSH2 0x1D2F JUMP JUMPDEST PUSH1 0x20 PUSH1 0x40 MLOAD DUP1 DUP4 SUB DUP2 PUSH0 DUP8 GAS CALL ISZERO DUP1 ISZERO PUSH2 0xD7F JUMPI RETURNDATASIZE PUSH0 DUP1 RETURNDATACOPY RETURNDATASIZE PUSH0 REVERT JUMPDEST POP POP POP POP PUSH1 0x40 MLOAD RETURNDATASIZE PUSH1 0x1F NOT PUSH1 0x1F DUP3 ADD AND DUP3 ADD DUP1 PUSH1 0x40 MSTORE POP DUP2 ADD SWAP1 PUSH2 0xDA3 SWAP2 SWAP1 PUSH2 0x1C9C JUMP JUMPDEST POP PUSH2 0xDAC PUSH2 0x16D4 JUMP JUMPDEST POP JUMP JUMPDEST PUSH1 0x60 PUSH1 0x4 PUSH0 DUP4 PUSH20 0xFFFFFFFFFFFFFFFFFFFFFFFFFFFFFFFFFFFFFFFF AND PUSH20 0xFFFFFFFFFFFFFFFFFFFFFFFFFFFFFFFFFFFFFFFF AND DUP2 MSTORE PUSH1 0x20 ADD SWAP1 DUP2 MSTORE PUSH1 0x20 ADD PUSH0 KECCAK256 PUSH1 0x8 ADD DUP1 SLOAD DUP1 PUSH1 0x20 MUL PUSH1 0x20 ADD PUSH1 0x40 MLOAD SWAP1 DUP2 ADD PUSH1 0x40 MSTORE DUP1 SWAP3 SWAP2 SWAP1 DUP2 DUP2 MSTORE PUSH1 0x20 ADD DUP3 DUP1 SLOAD DUP1 ISZERO PUSH2 0xE6E JUMPI PUSH1 0x20 MUL DUP3 ADD SWAP2 SWAP1 PUSH0 MSTORE PUSH1 0x20 PUSH0 KECCAK256 SWAP1 JUMPDEST DUP2 PUSH0 SWAP1 SLOAD SWAP1 PUSH2 0x100 EXP SWAP1 DIV PUSH20 0xFFFFFFFFFFFFFFFFFFFFFFFFFFFFFFFFFFFFFFFF AND PUSH20 0xFFFFFFFFFFFFFFFFFFFFFFFFFFFFFFFFFFFFFFFF AND DUP2 MSTORE PUSH1 0x20 ADD SWAP1 PUSH1 0x1 ADD SWAP1 DUP1 DUP4 GT PUSH2 0xE25 JUMPI JUMPDEST POP POP POP POP POP SWAP1 POP SWAP2 SWAP1 POP JUMP JUMPDEST PUSH1 0x2 PUSH0 SWAP1 SLOAD SWAP1 PUSH2 0x100 EXP SWAP1 DIV PUSH20 0xFFFFFFFFFFFFFFFFFFFFFFFFFFFFFFFFFFFFFFFF AND PUSH20 0xFFFFFFFFFFFFFFFFFFFFFFFFFFFFFFFFFFFFFFFF AND CALLER PUSH20 0xFFFFFFFFFFFFFFFFFFFFFFFFFFFFFFFFFFFFFFFF AND EQ PUSH2 0xF09 JUMPI PUSH1 0x40 MLOAD PUSH32 0x8C379A000000000000000000000000000000000000000000000000000000000 DUP2 MSTORE PUSH1 0x4 ADD PUSH2 0xF00 SWAP1 PUSH2 0x1E00 JUMP JUMPDEST PUSH1 0x40 MLOAD DUP1 SWAP2 SUB SWAP1 REVERT JUMPDEST PUSH0 PUSH20 0xFFFFFFFFFFFFFFFFFFFFFFFFFFFFFFFFFFFFFFFF AND DUP2 PUSH20 0xFFFFFFFFFFFFFFFFFFFFFFFFFFFFFFFFFFFFFFFF AND SUB PUSH2 0xF77 JUMPI PUSH1 0x40 MLOAD PUSH32 0x8C379A000000000000000000000000000000000000000000000000000000000 DUP2 MSTORE PUSH1 0x4 ADD PUSH2 0xF6E SWAP1 PUSH2 0x1E68 JUMP JUMPDEST PUSH1 0x40 MLOAD DUP1 SWAP2 SUB SWAP1 REVERT JUMPDEST DUP1 PUSH1 0x1 PUSH0 PUSH2 0x100 EXP DUP2 SLOAD DUP2 PUSH20 0xFFFFFFFFFFFFFFFFFFFFFFFFFFFFFFFFFFFFFFFF MUL NOT AND SWAP1 DUP4 PUSH20 0xFFFFFFFFFFFFFFFFFFFFFFFFFFFFFFFFFFFFFFFF AND MUL OR SWAP1 SSTORE POP POP JUMP JUMPDEST PUSH1 0x2 PUSH0 SWAP1 SLOAD SWAP1 PUSH2 0x100 EXP SWAP1 DIV PUSH20 0xFFFFFFFFFFFFFFFFFFFFFFFFFFFFFFFFFFFFFFFF AND PUSH20 0xFFFFFFFFFFFFFFFFFFFFFFFFFFFFFFFFFFFFFFFF AND CALLER PUSH20 0xFFFFFFFFFFFFFFFFFFFFFFFFFFFFFFFFFFFFFFFF AND EQ PUSH2 0x1049 JUMPI PUSH1 0x40 MLOAD PUSH32 0x8C379A000000000000000000000000000000000000000000000000000000000 DUP2 MSTORE PUSH1 0x4 ADD PUSH2 0x1040 SWAP1 PUSH2 0x1E00 JUMP JUMPDEST PUSH1 0x40 MLOAD DUP1 SWAP2 SUB SWAP1 REVERT JUMPDEST PUSH1 0x1 PUSH1 0x2 PUSH1 0x14 PUSH2 0x100 EXP DUP2 SLOAD DUP2 PUSH1 0xFF MUL NOT AND SWAP1 DUP4 ISZERO ISZERO MUL OR SWAP1 SSTORE POP JUMP JUMPDEST PUSH1 0x3 SLOAD DUP2 JUMP JUMPDEST PUSH1 0x2 PUSH0 SWAP1 SLOAD SWAP1 PUSH2 0x100 EXP SWAP1 DIV PUSH20 0xFFFFFFFFFFFFFFFFFFFFFFFFFFFFFFFFFFFFFFFF AND PUSH20 0xFFFFFFFFFFFFFFFFFFFFFFFFFFFFFFFFFFFFFFFF AND CALLER PUSH20 0xFFFFFFFFFFFFFFFFFFFFFFFFFFFFFFFFFFFFFFFF AND EQ PUSH2 0x10FB JUMPI PUSH1 0x40 MLOAD PUSH32 0x8C379A000000000000000000000000000000000000000000000000000000000 DUP2 MSTORE PUSH1 0x4 ADD PUSH2 0x10F2 SWAP1 PUSH2 0x1E00 JUMP JUMPDEST PUSH1 0x40 MLOAD DUP1 SWAP2 SUB SWAP1 REVERT JUMPDEST PUSH1 0x63 DUP2 LT PUSH2 0x113E JUMPI PUSH1 0x40 MLOAD PUSH32 0x8C379A000000000000000000000000000000000000000000000000000000000 DUP2 MSTORE PUSH1 0x4 ADD PUSH2 0x1135 SWAP1 PUSH2 0x1ED0 JUMP JUMPDEST PUSH1 0x40 MLOAD DUP1 SWAP2 SUB SWAP1 REVERT JUMPDEST PUSH8 0xDE0B6B3A7640000 DUP2 PUSH2 0x1152 SWAP2 SWAP1 PUSH2 0x1EEE JUMP JUMPDEST PUSH1 0x3 DUP2 SWAP1 SSTORE POP POP JUMP JUMPDEST PUSH1 0x2 PUSH1 0x14 SWAP1 SLOAD SWAP1 PUSH2 0x100 EXP SWAP1 DIV PUSH1 0xFF AND DUP2 JUMP JUMPDEST PUSH1 0x2 PUSH0 SWAP1 SLOAD SWAP1 PUSH2 0x100 EXP SWAP1 DIV PUSH20 0xFFFFFFFFFFFFFFFFFFFFFFFFFFFFFFFFFFFFFFFF AND DUP2 JUMP JUMPDEST PUSH1 0x1 PUSH0 SWAP1 SLOAD SWAP1 PUSH2 0x100 EXP SWAP1 DIV PUSH20 0xFFFFFFFFFFFFFFFFFFFFFFFFFFFFFFFFFFFFFFFF AND DUP2 JUMP JUMPDEST PUSH1 0x4 PUSH1 0x20 MSTORE DUP1 PUSH0 MSTORE PUSH1 0x40 PUSH0 KECCAK256 PUSH0 SWAP2 POP SWAP1 POP DUP1 PUSH0 ADD PUSH0 SWAP1 SLOAD SWAP1 PUSH2 0x100 EXP SWAP1 DIV PUSH20 0xFFFFFFFFFFFFFFFFFFFFFFFFFFFFFFFFFFFFFFFF AND SWAP1 DUP1 PUSH1 0x1 ADD SLOAD SWAP1 DUP1 PUSH1 0x2 ADD PUSH0 SWAP1 SLOAD SWAP1 PUSH2 0x100 EXP SWAP1 DIV PUSH1 0xFF AND SWAP1 DUP1 PUSH1 0x3 ADD SLOAD SWAP1 DUP1 PUSH1 0x4 ADD SLOAD SWAP1 DUP1 PUSH1 0x6 ADD SLOAD SWAP1 DUP1 PUSH1 0x7 ADD SLOAD SWAP1 POP DUP8 JUMP JUMPDEST PUSH0 DUP1 PUSH0 DUP1 PUSH0 DUP1 PUSH0 DUP1 PUSH1 0x4 PUSH0 DUP11 PUSH20 0xFFFFFFFFFFFFFFFFFFFFFFFFFFFFFFFFFFFFFFFF AND PUSH20 0xFFFFFFFFFFFFFFFFFFFFFFFFFFFFFFFFFFFFFFFF AND DUP2 MSTORE PUSH1 0x20 ADD SWAP1 DUP2 MSTORE PUSH1 0x20 ADD PUSH0 KECCAK256 SWAP1 POP DUP1 PUSH0 ADD PUSH0 SWAP1 SLOAD SWAP1 PUSH2 0x100 EXP SWAP1 DIV PUSH20 0xFFFFFFFFFFFFFFFFFFFFFFFFFFFFFFFFFFFFFFFF AND DUP2 PUSH1 0x1 ADD SLOAD DUP3 PUSH1 0x2 ADD PUSH0 SWAP1 SLOAD SWAP1 PUSH2 0x100 EXP SWAP1 DIV PUSH1 0xFF AND DUP4 PUSH1 0x3 ADD SLOAD DUP5 PUSH1 0x4 ADD SLOAD DUP6 PUSH1 0x6 ADD SLOAD DUP7 PUSH1 0x7 ADD SLOAD SWAP8 POP SWAP8 POP SWAP8 POP SWAP8 POP SWAP8 POP SWAP8 POP SWAP8 POP POP SWAP2 SWAP4 SWAP6 SWAP8 SWAP1 SWAP3 SWAP5 SWAP7 POP JUMP JUMPDEST PUSH1 0x2 PUSH0 SWAP1 SLOAD SWAP1 PUSH2 0x100 EXP SWAP1 DIV PUSH20 0xFFFFFFFFFFFFFFFFFFFFFFFFFFFFFFFFFFFFFFFF AND PUSH20 0xFFFFFFFFFFFFFFFFFFFFFFFFFFFFFFFFFFFFFFFF AND CALLER PUSH20 0xFFFFFFFFFFFFFFFFFFFFFFFFFFFFFFFFFFFFFFFF AND EQ PUSH2 0x135E JUMPI PUSH1 0x40 MLOAD PUSH32 0x8C379A000000000000000000000000000000000000000000000000000000000 DUP2 MSTORE PUSH1 0x4 ADD PUSH2 0x1355 SWAP1 PUSH2 0x1E00 JUMP JUMPDEST PUSH1 0x40 MLOAD DUP1 SWAP2 SUB SWAP1 REVERT JUMPDEST PUSH0 PUSH1 0x2 PUSH1 0x14 PUSH2 0x100 EXP DUP2 SLOAD DUP2 PUSH1 0xFF MUL NOT AND SWAP1 DUP4 ISZERO ISZERO MUL OR SWAP1 SSTORE POP JUMP JUMPDEST PUSH0 DUP1 PUSH1 0x4 PUSH0 DUP5 PUSH20 0xFFFFFFFFFFFFFFFFFFFFFFFFFFFFFFFFFFFFFFFF AND PUSH20 0xFFFFFFFFFFFFFFFFFFFFFFFFFFFFFFFFFFFFFFFF AND DUP2 MSTORE PUSH1 0x20 ADD SWAP1 DUP2 MSTORE PUSH1 0x20 ADD PUSH0 KECCAK256 SWAP1 POP DUP1 PUSH1 0x6 ADD SLOAD DUP2 PUSH1 0x1 ADD SLOAD PUSH2 0x13CF SWAP2 SWAP1 PUSH2 0x1D83 JUMP JUMPDEST SWAP2 POP POP SWAP2 SWAP1 POP JUMP JUMPDEST PUSH1 0x60 PUSH1 0x4 PUSH0 DUP4 PUSH20 0xFFFFFFFFFFFFFFFFFFFFFFFFFFFFFFFFFFFFFFFF AND PUSH20 0xFFFFFFFFFFFFFFFFFFFFFFFFFFFFFFFFFFFFFFFF AND DUP2 MSTORE PUSH1 0x20 ADD SWAP1 DUP2 MSTORE PUSH1 0x20 ADD PUSH0 KECCAK256 PUSH1 0x5 ADD DUP1 SLOAD DUP1 PUSH1 0x20 MUL PUSH1 0x20 ADD PUSH1 0x40 MLOAD SWAP1 DUP2 ADD PUSH1 0x40 MSTORE DUP1 SWAP3 SWAP2 SWAP1 DUP2 DUP2 MSTORE PUSH1 0x20 ADD DUP3 DUP1 SLOAD DUP1 ISZERO PUSH2 0x1496 JUMPI PUSH1 0x20 MUL DUP3 ADD SWAP2 SWAP1 PUSH0 MSTORE PUSH1 0x20 PUSH0 KECCAK256 SWAP1 JUMPDEST DUP2 PUSH0 SWAP1 SLOAD SWAP1 PUSH2 0x100 EXP SWAP1 DIV PUSH20 0xFFFFFFFFFFFFFFFFFFFFFFFFFFFFFFFFFFFFFFFF AND PUSH20 0xFFFFFFFFFFFFFFFFFFFFFFFFFFFFFFFFFFFFFFFF AND DUP2 MSTORE PUSH1 0x20 ADD SWAP1 PUSH1 0x1 ADD SWAP1 DUP1 DUP4 GT PUSH2 0x144D JUMPI JUMPDEST POP POP POP POP POP SWAP1 POP SWAP2 SWAP1 POP JUMP JUMPDEST PUSH1 0x2 PUSH0 SWAP1 SLOAD SWAP1 PUSH2 0x100 EXP SWAP1 DIV PUSH20 0xFFFFFFFFFFFFFFFFFFFFFFFFFFFFFFFFFFFFFFFF AND PUSH20 0xFFFFFFFFFFFFFFFFFFFFFFFFFFFFFFFFFFFFFFFF AND CALLER PUSH20 0xFFFFFFFFFFFFFFFFFFFFFFFFFFFFFFFFFFFFFFFF AND EQ PUSH2 0x1531 JUMPI PUSH1 0x40 MLOAD PUSH32 0x8C379A000000000000000000000000000000000000000000000000000000000 DUP2 MSTORE PUSH1 0x4 ADD PUSH2 0x1528 SWAP1 PUSH2 0x1E00 JUMP JUMPDEST PUSH1 0x40 MLOAD DUP1 SWAP2 SUB SWAP1 REVERT JUMPDEST PUSH0 PUSH20 0xFFFFFFFFFFFFFFFFFFFFFFFFFFFFFFFFFFFFFFFF AND DUP2 PUSH20 0xFFFFFFFFFFFFFFFFFFFFFFFFFFFFFFFFFFFFFFFF AND SUB PUSH2 0x159F JUMPI PUSH1 0x40 MLOAD PUSH32 0x8C379A000000000000000000000000000000000000000000000000000000000 DUP2 MSTORE PUSH1 0x4 ADD PUSH2 0x1596 SWAP1 PUSH2 0x1F79 JUMP JUMPDEST PUSH1 0x40 MLOAD DUP1 SWAP2 SUB SWAP1 REVERT JUMPDEST DUP1 PUSH1 0x2 PUSH0 PUSH2 0x100 EXP DUP2 SLOAD DUP2 PUSH20 0xFFFFFFFFFFFFFFFFFFFFFFFFFFFFFFFFFFFFFFFF MUL NOT AND SWAP1 DUP4 PUSH20 0xFFFFFFFFFFFFFFFFFFFFFFFFFFFFFFFFFFFFFFFF AND MUL OR SWAP1 SSTORE POP POP JUMP JUMPDEST PUSH0 DUP1 PUSH1 0x4 PUSH0 DUP5 PUSH20 0xFFFFFFFFFFFFFFFFFFFFFFFFFFFFFFFFFFFFFFFF AND PUSH20 0xFFFFFFFFFFFFFFFFFFFFFFFFFFFFFFFFFFFFFFFF AND DUP2 MSTORE PUSH1 0x20 ADD SWAP1 DUP2 MSTORE PUSH1 0x20 ADD PUSH0 KECCAK256 SWAP1 POP DUP1 PUSH1 0x8 ADD DUP1 SLOAD SWAP1 POP DUP2 PUSH1 0x5 ADD DUP1 SLOAD SWAP1 POP PUSH2 0x163D SWAP2 SWAP1 PUSH2 0x1D83 JUMP JUMPDEST SWAP2 POP POP SWAP2 SWAP1 POP JUMP JUMPDEST PUSH1 0x2 PUSH0 SLOAD SUB PUSH2 0x1689 JUMPI PUSH1 0x40 MLOAD PUSH32 0x8C379A000000000000000000000000000000000000000000000000000000000 DUP2 MSTORE PUSH1 0x4 ADD PUSH2 0x1680 SWAP1 PUSH2 0x1FE1 JUMP JUMPDEST PUSH1 0x40 MLOAD DUP1 SWAP2 SUB SWAP1 REVERT JUMPDEST PUSH1 0x2 PUSH0 DUP2 SWAP1 SSTORE POP JUMP JUMPDEST PUSH0 PUSH1 0x64 PUSH1 0x28 DUP4 PUSH2 0x16A2 SWAP2 SWAP1 PUSH2 0x1EEE JUMP JUMPDEST PUSH2 0x16AC SWAP2 SWAP1 PUSH2 0x202C JUMP JUMPDEST SWAP1 POP SWAP2 SWAP1 POP JUMP JUMPDEST PUSH0 PUSH1 0x64 PUSH1 0x14 DUP4 PUSH2 0x16C3 SWAP2 SWAP1 PUSH2 0x1EEE JUMP JUMPDEST PUSH2 0x16CD SWAP2 SWAP1 PUSH2 0x202C JUMP JUMPDEST SWAP1 POP SWAP2 SWAP1 POP JUMP JUMPDEST PUSH1 0x1 PUSH0 DUP2 SWAP1 SSTORE POP JUMP JUMPDEST PUSH0 DUP1 REVERT JUMPDEST PUSH0 PUSH20 0xFFFFFFFFFFFFFFFFFFFFFFFFFFFFFFFFFFFFFFFF DUP3 AND SWAP1 POP SWAP2 SWAP1 POP JUMP JUMPDEST PUSH0 PUSH2 0x170A DUP3 PUSH2 0x16E1 JUMP JUMPDEST SWAP1 POP SWAP2 SWAP1 POP JUMP JUMPDEST PUSH2 0x171A DUP2 PUSH2 0x1700 JUMP JUMPDEST DUP2 EQ PUSH2 0x1724 JUMPI PUSH0 DUP1 REVERT JUMPDEST POP JUMP JUMPDEST PUSH0 DUP2 CALLDATALOAD SWAP1 POP PUSH2 0x1735 DUP2 PUSH2 0x1711 JUMP JUMPDEST SWAP3 SWAP2 POP POP JUMP JUMPDEST PUSH0 PUSH1 0x20 DUP3 DUP5 SUB SLT ISZERO PUSH2 0x1750 JUMPI PUSH2 0x174F PUSH2 0x16DD JUMP JUMPDEST JUMPDEST PUSH0 PUSH2 0x175D DUP5 DUP3 DUP6 ADD PUSH2 0x1727 JUMP JUMPDEST SWAP2 POP POP SWAP3 SWAP2 POP POP JUMP JUMPDEST PUSH0 DUP2 SWAP1 POP SWAP2 SWAP1 POP JUMP JUMPDEST PUSH2 0x1778 DUP2 PUSH2 0x1766 JUMP JUMPDEST DUP2 EQ PUSH2 0x1782 JUMPI PUSH0 DUP1 REVERT JUMPDEST POP JUMP JUMPDEST PUSH0 DUP2 CALLDATALOAD SWAP1 POP PUSH2 0x1793 DUP2 PUSH2 0x176F JUMP JUMPDEST SWAP3 SWAP2 POP POP JUMP JUMPDEST PUSH0 PUSH1 0x20 DUP3 DUP5 SUB SLT ISZERO PUSH2 0x17AE JUMPI PUSH2 0x17AD PUSH2 0x16DD JUMP JUMPDEST JUMPDEST PUSH0 PUSH2 0x17BB DUP5 DUP3 DUP6 ADD PUSH2 0x1785 JUMP JUMPDEST SWAP2 POP POP SWAP3 SWAP2 POP POP JUMP JUMPDEST PUSH0 DUP2 MLOAD SWAP1 POP SWAP2 SWAP1 POP JUMP JUMPDEST PUSH0 DUP3 DUP3 MSTORE PUSH1 0x20 DUP3 ADD SWAP1 POP SWAP3 SWAP2 POP POP JUMP JUMPDEST PUSH0 DUP2 SWAP1 POP PUSH1 0x20 DUP3 ADD SWAP1 POP SWAP2 SWAP1 POP JUMP JUMPDEST PUSH2 0x17F6 DUP2 PUSH2 0x1700 JUMP JUMPDEST DUP3 MSTORE POP POP JUMP JUMPDEST PUSH0 PUSH2 0x1807 DUP4 DUP4 PUSH2 0x17ED JUMP JUMPDEST PUSH1 0x20 DUP4 ADD SWAP1 POP SWAP3 SWAP2 POP POP JUMP JUMPDEST PUSH0 PUSH1 0x20 DUP3 ADD SWAP1 POP SWAP2 SWAP1 POP JUMP JUMPDEST PUSH0 PUSH2 0x1829 DUP3 PUSH2 0x17C4 JUMP JUMPDEST PUSH2 0x1833 DUP2 DUP6 PUSH2 0x17CE JUMP JUMPDEST SWAP4 POP PUSH2 0x183E DUP4 PUSH2 0x17DE JUMP JUMPDEST DUP1 PUSH0 JUMPDEST DUP4 DUP2 LT ISZERO PUSH2 0x186E JUMPI DUP2 MLOAD PUSH2 0x1855 DUP9 DUP3 PUSH2 0x17FC JUMP JUMPDEST SWAP8 POP PUSH2 0x1860 DUP4 PUSH2 0x1813 JUMP JUMPDEST SWAP3 POP POP PUSH1 0x1 DUP2 ADD SWAP1 POP PUSH2 0x1841 JUMP JUMPDEST POP DUP6 SWAP4 POP POP POP POP SWAP3 SWAP2 POP POP JUMP JUMPDEST PUSH0 PUSH1 0x20 DUP3 ADD SWAP1 POP DUP2 DUP2 SUB PUSH0 DUP4 ADD MSTORE PUSH2 0x1893 DUP2 DUP5 PUSH2 0x181F JUMP JUMPDEST SWAP1 POP SWAP3 SWAP2 POP POP JUMP JUMPDEST PUSH2 0x18A4 DUP2 PUSH2 0x1766 JUMP JUMPDEST DUP3 MSTORE POP POP JUMP JUMPDEST PUSH0 PUSH1 0x20 DUP3 ADD SWAP1 POP PUSH2 0x18BD PUSH0 DUP4 ADD DUP5 PUSH2 0x189B JUMP JUMPDEST SWAP3 SWAP2 POP POP JUMP JUMPDEST PUSH0 DUP2 ISZERO ISZERO SWAP1 POP SWAP2 SWAP1 POP JUMP JUMPDEST PUSH2 0x18D7 DUP2 PUSH2 0x18C3 JUMP JUMPDEST DUP3 MSTORE POP POP JUMP JUMPDEST PUSH0 PUSH1 0x20 DUP3 ADD SWAP1 POP PUSH2 0x18F0 PUSH0 DUP4 ADD DUP5 PUSH2 0x18CE JUMP JUMPDEST SWAP3 SWAP2 POP POP JUMP JUMPDEST PUSH2 0x18FF DUP2 PUSH2 0x1700 JUMP JUMPDEST DUP3 MSTORE POP POP JUMP JUMPDEST PUSH0 PUSH1 0x20 DUP3 ADD SWAP1 POP PUSH2 0x1918 PUSH0 DUP4 ADD DUP5 PUSH2 0x18F6 JUMP JUMPDEST SWAP3 SWAP2 POP POP JUMP JUMPDEST PUSH0 DUP2 SWAP1 POP SWAP2 SWAP1 POP JUMP JUMPDEST PUSH0 PUSH2 0x1941 PUSH2 0x193C PUSH2 0x1937 DUP5 PUSH2 0x16E1 JUMP JUMPDEST PUSH2 0x191E JUMP JUMPDEST PUSH2 0x16E1 JUMP JUMPDEST SWAP1 POP SWAP2 SWAP1 POP JUMP JUMPDEST PUSH0 PUSH2 0x1952 DUP3 PUSH2 0x1927 JUMP JUMPDEST SWAP1 POP SWAP2 SWAP1 POP JUMP JUMPDEST PUSH0 PUSH2 0x1963 DUP3 PUSH2 0x1948 JUMP JUMPDEST SWAP1 POP SWAP2 SWAP1 POP JUMP JUMPDEST PUSH2 0x1973 DUP2 PUSH2 0x1959 JUMP JUMPDEST DUP3 MSTORE POP POP JUMP JUMPDEST PUSH0 PUSH1 0x20 DUP3 ADD SWAP1 POP PUSH2 0x198C PUSH0 DUP4 ADD DUP5 PUSH2 0x196A JUMP JUMPDEST SWAP3 SWAP2 POP POP JUMP JUMPDEST PUSH0 PUSH1 0xE0 DUP3 ADD SWAP1 POP PUSH2 0x19A5 PUSH0 DUP4 ADD DUP11 PUSH2 0x18F6 JUMP JUMPDEST PUSH2 0x19B2 PUSH1 0x20 DUP4 ADD DUP10 PUSH2 0x189B JUMP JUMPDEST PUSH2 0x19BF PUSH1 0x40 DUP4 ADD DUP9 PUSH2 0x18CE JUMP JUMPDEST PUSH2 0x19CC PUSH1 0x60 DUP4 ADD DUP8 PUSH2 0x189B JUMP JUMPDEST PUSH2 0x19D9 PUSH1 0x80 DUP4 ADD DUP7 PUSH2 0x189B JUMP JUMPDEST PUSH2 0x19E6 PUSH1 0xA0 DUP4 ADD DUP6 PUSH2 0x189B JUMP JUMPDEST PUSH2 0x19F3 PUSH1 0xC0 DUP4 ADD DUP5 PUSH2 0x189B JUMP JUMPDEST SWAP9 SWAP8 POP POP POP POP POP POP POP POP JUMP JUMPDEST PUSH0 DUP3 DUP3 MSTORE PUSH1 0x20 DUP3 ADD SWAP1 POP SWAP3 SWAP2 POP POP JUMP JUMPDEST PUSH32 0x436861696E426F6F737420697320506175736564000000000000000000000000 PUSH0 DUP3 ADD MSTORE POP JUMP JUMPDEST PUSH0 PUSH2 0x1A43 PUSH1 0x14 DUP4 PUSH2 0x19FF JUMP JUMPDEST SWAP2 POP PUSH2 0x1A4E DUP3 PUSH2 0x1A0F JUMP JUMPDEST PUSH1 0x20 DUP3 ADD SWAP1 POP SWAP2 SWAP1 POP JUMP JUMPDEST PUSH0 PUSH1 0x20 DUP3 ADD SWAP1 POP DUP2 DUP2 SUB PUSH0 DUP4 ADD MSTORE PUSH2 0x1A70 DUP2 PUSH2 0x1A37 JUMP JUMPDEST SWAP1 POP SWAP2 SWAP1 POP JUMP JUMPDEST PUSH32 0x43616E6E6F7420726566657220796F757273656C660000000000000000000000 PUSH0 DUP3 ADD MSTORE POP JUMP JUMPDEST PUSH0 PUSH2 0x1AAB PUSH1 0x15 DUP4 PUSH2 0x19FF JUMP JUMPDEST SWAP2 POP PUSH2 0x1AB6 DUP3 PUSH2 0x1A77 JUMP JUMPDEST PUSH1 0x20 DUP3 ADD SWAP1 POP SWAP2 SWAP1 POP JUMP JUMPDEST PUSH0 PUSH1 0x20 DUP3 ADD SWAP1 POP DUP2 DUP2 SUB PUSH0 DUP4 ADD MSTORE PUSH2 0x1AD8 DUP2 PUSH2 0x1A9F JUMP JUMPDEST SWAP1 POP SWAP2 SWAP1 POP JUMP JUMPDEST PUSH32 0x416C726561647920726567697374657265640000000000000000000000000000 PUSH0 DUP3 ADD MSTORE POP JUMP JUMPDEST PUSH0 PUSH2 0x1B13 PUSH1 0x12 DUP4 PUSH2 0x19FF JUMP JUMPDEST SWAP2 POP PUSH2 0x1B1E DUP3 PUSH2 0x1ADF JUMP JUMPDEST PUSH1 0x20 DUP3 ADD SWAP1 POP SWAP2 SWAP1 POP JUMP JUMPDEST PUSH0 PUSH1 0x20 DUP3 ADD SWAP1 POP DUP2 DUP2 SUB PUSH0 DUP4 ADD MSTORE PUSH2 0x1B40 DUP2 PUSH2 0x1B07 JUMP JUMPDEST SWAP1 POP SWAP2 SWAP1 POP JUMP JUMPDEST PUSH32 0x696E76616C696420726566657272616C00000000000000000000000000000000 PUSH0 DUP3 ADD MSTORE POP JUMP JUMPDEST PUSH0 PUSH2 0x1B7B PUSH1 0x10 DUP4 PUSH2 0x19FF JUMP JUMPDEST SWAP2 POP PUSH2 0x1B86 DUP3 PUSH2 0x1B47 JUMP JUMPDEST PUSH1 0x20 DUP3 ADD SWAP1 POP SWAP2 SWAP1 POP JUMP JUMPDEST PUSH0 PUSH1 0x20 DUP3 ADD SWAP1 POP DUP2 DUP2 SUB PUSH0 DUP4 ADD MSTORE PUSH2 0x1BA8 DUP2 PUSH2 0x1B6F JUMP JUMPDEST SWAP1 POP SWAP2 SWAP1 POP JUMP JUMPDEST PUSH32 0x526566657272616C207573657220646964206E6F7420636F6D706C6574652061 PUSH0 DUP3 ADD MSTORE PUSH32 0x6E7920726567697374726174696F6E2000000000000000000000000000000000 PUSH1 0x20 DUP3 ADD MSTORE POP JUMP JUMPDEST PUSH0 PUSH2 0x1C09 PUSH1 0x30 DUP4 PUSH2 0x19FF JUMP JUMPDEST SWAP2 POP PUSH2 0x1C14 DUP3 PUSH2 0x1BAF JUMP JUMPDEST PUSH1 0x40 DUP3 ADD SWAP1 POP SWAP2 SWAP1 POP JUMP JUMPDEST PUSH0 PUSH1 0x20 DUP3 ADD SWAP1 POP DUP2 DUP2 SUB PUSH0 DUP4 ADD MSTORE PUSH2 0x1C36 DUP2 PUSH2 0x1BFD JUMP JUMPDEST SWAP1 POP SWAP2 SWAP1 POP JUMP JUMPDEST PUSH0 PUSH1 0x60 DUP3 ADD SWAP1 POP PUSH2 0x1C50 PUSH0 DUP4 ADD DUP7 PUSH2 0x18F6 JUMP JUMPDEST PUSH2 0x1C5D PUSH1 0x20 DUP4 ADD DUP6 PUSH2 0x18F6 JUMP JUMPDEST PUSH2 0x1C6A PUSH1 0x40 DUP4 ADD DUP5 PUSH2 0x189B JUMP JUMPDEST SWAP5 SWAP4 POP POP POP POP JUMP JUMPDEST PUSH2 0x1C7B DUP2 PUSH2 0x18C3 JUMP JUMPDEST DUP2 EQ PUSH2 0x1C85 JUMPI PUSH0 DUP1 REVERT JUMPDEST POP JUMP JUMPDEST PUSH0 DUP2 MLOAD SWAP1 POP PUSH2 0x1C96 DUP2 PUSH2 0x1C72 JUMP JUMPDEST SWAP3 SWAP2 POP POP JUMP JUMPDEST PUSH0 PUSH1 0x20 DUP3 DUP5 SUB SLT ISZERO PUSH2 0x1CB1 JUMPI PUSH2 0x1CB0 PUSH2 0x16DD JUMP JUMPDEST JUMPDEST PUSH0 PUSH2 0x1CBE DUP5 DUP3 DUP6 ADD PUSH2 0x1C88 JUMP JUMPDEST SWAP2 POP POP SWAP3 SWAP2 POP POP JUMP JUMPDEST PUSH32 0x726567697374726174696F6E206661696C656400000000000000000000000000 PUSH0 DUP3 ADD MSTORE POP JUMP JUMPDEST PUSH0 PUSH2 0x1CFB PUSH1 0x13 DUP4 PUSH2 0x19FF JUMP JUMPDEST SWAP2 POP PUSH2 0x1D06 DUP3 PUSH2 0x1CC7 JUMP JUMPDEST PUSH1 0x20 DUP3 ADD SWAP1 POP SWAP2 SWAP1 POP JUMP JUMPDEST PUSH0 PUSH1 0x20 DUP3 ADD SWAP1 POP DUP2 DUP2 SUB PUSH0 DUP4 ADD MSTORE PUSH2 0x1D28 DUP2 PUSH2 0x1CEF JUMP JUMPDEST SWAP1 POP SWAP2 SWAP1 POP JUMP JUMPDEST PUSH0 PUSH1 0x40 DUP3 ADD SWAP1 POP PUSH2 0x1D42 PUSH0 DUP4 ADD DUP6 PUSH2 0x18F6 JUMP JUMPDEST PUSH2 0x1D4F PUSH1 0x20 DUP4 ADD DUP5 PUSH2 0x189B JUMP JUMPDEST SWAP4 SWAP3 POP POP POP JUMP JUMPDEST PUSH32 0x4E487B7100000000000000000000000000000000000000000000000000000000 PUSH0 MSTORE PUSH1 0x11 PUSH1 0x4 MSTORE PUSH1 0x24 PUSH0 REVERT JUMPDEST PUSH0 PUSH2 0x1D8D DUP3 PUSH2 0x1766 JUMP JUMPDEST SWAP2 POP PUSH2 0x1D98 DUP4 PUSH2 0x1766 JUMP JUMPDEST SWAP3 POP DUP3 DUP3 ADD SWAP1 POP DUP1 DUP3 GT ISZERO PUSH2 0x1DB0 JUMPI PUSH2 0x1DAF PUSH2 0x1D56 JUMP JUMPDEST JUMPDEST SWAP3 SWAP2 POP POP JUMP JUMPDEST PUSH32 0x4F6E6C79206F776E657200000000000000000000000000000000000000000000 PUSH0 DUP3 ADD MSTORE POP JUMP JUMPDEST PUSH0 PUSH2 0x1DEA PUSH1 0xA DUP4 PUSH2 0x19FF JUMP JUMPDEST SWAP2 POP PUSH2 0x1DF5 DUP3 PUSH2 0x1DB6 JUMP JUMPDEST PUSH1 0x20 DUP3 ADD SWAP1 POP SWAP2 SWAP1 POP JUMP JUMPDEST PUSH0 PUSH1 0x20 DUP3 ADD SWAP1 POP DUP2 DUP2 SUB PUSH0 DUP4 ADD MSTORE PUSH2 0x1E17 DUP2 PUSH2 0x1DDE JUMP JUMPDEST SWAP1 POP SWAP2 SWAP1 POP JUMP JUMPDEST PUSH32 0x696E76616C6964206E6577206273740000000000000000000000000000000000 PUSH0 DUP3 ADD MSTORE POP JUMP JUMPDEST PUSH0 PUSH2 0x1E52 PUSH1 0xF DUP4 PUSH2 0x19FF JUMP JUMPDEST SWAP2 POP PUSH2 0x1E5D DUP3 PUSH2 0x1E1E JUMP JUMPDEST PUSH1 0x20 DUP3 ADD SWAP1 POP SWAP2 SWAP1 POP JUMP JUMPDEST PUSH0 PUSH1 0x20 DUP3 ADD SWAP1 POP DUP2 DUP2 SUB PUSH0 DUP4 ADD MSTORE PUSH2 0x1E7F DUP2 PUSH2 0x1E46 JUMP JUMPDEST SWAP1 POP SWAP2 SWAP1 POP JUMP JUMPDEST PUSH32 0x696E76616C69642070657263656E746167650000000000000000000000000000 PUSH0 DUP3 ADD MSTORE POP JUMP JUMPDEST PUSH0 PUSH2 0x1EBA PUSH1 0x12 DUP4 PUSH2 0x19FF JUMP JUMPDEST SWAP2 POP PUSH2 0x1EC5 DUP3 PUSH2 0x1E86 JUMP JUMPDEST PUSH1 0x20 DUP3 ADD SWAP1 POP SWAP2 SWAP1 POP JUMP JUMPDEST PUSH0 PUSH1 0x20 DUP3 ADD SWAP1 POP DUP2 DUP2 SUB PUSH0 DUP4 ADD MSTORE PUSH2 0x1EE7 DUP2 PUSH2 0x1EAE JUMP JUMPDEST SWAP1 POP SWAP2 SWAP1 POP JUMP JUMPDEST PUSH0 PUSH2 0x1EF8 DUP3 PUSH2 0x1766 JUMP JUMPDEST SWAP2 POP PUSH2 0x1F03 DUP4 PUSH2 0x1766 JUMP JUMPDEST SWAP3 POP DUP3 DUP3 MUL PUSH2 0x1F11 DUP2 PUSH2 0x1766 JUMP JUMPDEST SWAP2 POP DUP3 DUP3 DIV DUP5 EQ DUP4 ISZERO OR PUSH2 0x1F28 JUMPI PUSH2 0x1F27 PUSH2 0x1D56 JUMP JUMPDEST JUMPDEST POP SWAP3 SWAP2 POP POP JUMP JUMPDEST PUSH32 0x496E76616C6964206E6577206F776E6572000000000000000000000000000000 PUSH0 DUP3 ADD MSTORE POP JUMP JUMPDEST PUSH0 PUSH2 0x1F63 PUSH1 0x11 DUP4 PUSH2 0x19FF JUMP JUMPDEST SWAP2 POP PUSH2 0x1F6E DUP3 PUSH2 0x1F2F JUMP JUMPDEST PUSH1 0x20 DUP3 ADD SWAP1 POP SWAP2 SWAP1 POP JUMP JUMPDEST PUSH0 PUSH1 0x20 DUP3 ADD SWAP1 POP DUP2 DUP2 SUB PUSH0 DUP4 ADD MSTORE PUSH2 0x1F90 DUP2 PUSH2 0x1F57 JUMP JUMPDEST SWAP1 POP SWAP2 SWAP1 POP JUMP JUMPDEST PUSH32 0x5265656E7472616E637947756172643A207265656E7472616E742063616C6C00 PUSH0 DUP3 ADD MSTORE POP JUMP JUMPDEST PUSH0 PUSH2 0x1FCB PUSH1 0x1F DUP4 PUSH2 0x19FF JUMP JUMPDEST SWAP2 POP PUSH2 0x1FD6 DUP3 PUSH2 0x1F97 JUMP JUMPDEST PUSH1 0x20 DUP3 ADD SWAP1 POP SWAP2 SWAP1 POP JUMP JUMPDEST PUSH0 PUSH1 0x20 DUP3 ADD SWAP1 POP DUP2 DUP2 SUB PUSH0 DUP4 ADD MSTORE PUSH2 0x1FF8 DUP2 PUSH2 0x1FBF JUMP JUMPDEST SWAP1 POP SWAP2 SWAP1 POP JUMP JUMPDEST PUSH32 0x4E487B7100000000000000000000000000000000000000000000000000000000 PUSH0 MSTORE PUSH1 0x12 PUSH1 0x4 MSTORE PUSH1 0x24 PUSH0 REVERT JUMPDEST PUSH0 PUSH2 0x2036 DUP3 PUSH2 0x1766 JUMP JUMPDEST SWAP2 POP PUSH2 0x2041 DUP4 PUSH2 0x1766 JUMP JUMPDEST SWAP3 POP DUP3 PUSH2 0x2051 JUMPI PUSH2 0x2050 PUSH2 0x1FFF JUMP JUMPDEST JUMPDEST DUP3 DUP3 DIV SWAP1 POP SWAP3 SWAP2 POP POP JUMP INVALID LOG2 PUSH5 0x6970667358 0x22 SLT KECCAK256 0xDE PUSH22 0xCB0490895C87A9056C978B287AC56DEFF7CBDE6399C0 JUMPI 0xC8 JUMPDEST SUB CREATE2 0xBF DUP5 ADDRESS PUSH5 0x736F6C6343 STOP ADDMOD BYTE STOP CALLER "
				},
				"gasEstimates": {
					"creation": {
						"codeDepositCost": "1667600",
						"executionCost": "infinite",
						"totalCost": "infinite"
					},
					"external": {
						"LLT()": "infinite",
						"REGISTRATION_FEE()": "2470",
						"changeRegsiterationFee(uint256)": "infinite",
						"getBasicInfoUser(address)": "infinite",
						"getDirectReferrals(address)": "infinite",
						"getIndirectReferrals(address)": "infinite",
						"getTotalIncome(address)": "infinite",
						"getTotalTeamSize(address)": "infinite",
						"owner()": "2531",
						"pause()": "2606",
						"paused()": "26652",
						"registration(address)": "infinite",
						"transferOwnership(address)": "27006",
						"unpaused()": "26650",
						"updateLLTAddress(address)": "27008",
						"users(address)": "infinite",
						"withdraw(uint256)": "infinite"
					},
					"internal": {
						"calculateDirectReferralReward(uint256)": "infinite",
						"calculateLevel2ReferralReward(uint256)": "infinite"
					}
				},
				"methodIdentifiers": {
					"LLT()": "a80f7e66",
					"REGISTRATION_FEE()": "64b4f751",
					"changeRegsiterationFee(uint256)": "7e4c0e32",
					"getBasicInfoUser(address)": "acc77dd7",
					"getDirectReferrals(address)": "d2c8e0e5",
					"getIndirectReferrals(address)": "4f404243",
					"getTotalIncome(address)": "c2d3c677",
					"getTotalTeamSize(address)": "f643ffbb",
					"owner()": "8da5cb5b",
					"pause()": "8456cb59",
					"paused()": "5c975abb",
					"registration(address)": "0840605a",
					"transferOwnership(address)": "f2fde38b",
					"unpaused()": "b0b62f5a",
					"updateLLTAddress(address)": "5953942b",
					"users(address)": "a87430ba",
					"withdraw(uint256)": "2e1a7d4d"
				}
			},
			"storageLayout": {
				"storage": [
					{
						"astId": 10,
						"contract": "MLM/2-level MLM/LevelLink.sol:LevelLink",
						"label": "_status",
						"offset": 0,
						"slot": "0",
						"type": "t_uint256"
					},
					{
						"astId": 93,
						"contract": "MLM/2-level MLM/LevelLink.sol:LevelLink",
						"label": "LLT",
						"offset": 0,
						"slot": "1",
						"type": "t_contract(IERC20)88"
					},
					{
						"astId": 95,
						"contract": "MLM/2-level MLM/LevelLink.sol:LevelLink",
						"label": "owner",
						"offset": 0,
						"slot": "2",
						"type": "t_address"
					},
					{
						"astId": 97,
						"contract": "MLM/2-level MLM/LevelLink.sol:LevelLink",
						"label": "pause",
						"offset": 20,
						"slot": "2",
						"type": "t_bool"
					},
					{
						"astId": 104,
						"contract": "MLM/2-level MLM/LevelLink.sol:LevelLink",
						"label": "REGISTRATION_FEE",
						"offset": 0,
						"slot": "3",
						"type": "t_uint256"
					},
					{
						"astId": 169,
						"contract": "MLM/2-level MLM/LevelLink.sol:LevelLink",
						"label": "users",
						"offset": 0,
						"slot": "4",
						"type": "t_mapping(t_address,t_struct(User)164_storage)"
					}
				],
				"types": {
					"t_address": {
						"encoding": "inplace",
						"label": "address",
						"numberOfBytes": "20"
					},
					"t_array(t_address)dyn_storage": {
						"base": "t_address",
						"encoding": "dynamic_array",
						"label": "address[]",
						"numberOfBytes": "32"
					},
					"t_bool": {
						"encoding": "inplace",
						"label": "bool",
						"numberOfBytes": "1"
					},
					"t_contract(IERC20)88": {
						"encoding": "inplace",
						"label": "contract IERC20",
						"numberOfBytes": "20"
					},
					"t_mapping(t_address,t_struct(User)164_storage)": {
						"encoding": "mapping",
						"key": "t_address",
						"label": "mapping(address => struct LevelLink.User)",
						"numberOfBytes": "32",
						"value": "t_struct(User)164_storage"
					},
					"t_struct(User)164_storage": {
						"encoding": "inplace",
						"label": "struct LevelLink.User",
						"members": [
							{
								"astId": 145,
								"contract": "MLM/2-level MLM/LevelLink.sol:LevelLink",
								"label": "referrer",
								"offset": 0,
								"slot": "0",
								"type": "t_address"
							},
							{
								"astId": 147,
								"contract": "MLM/2-level MLM/LevelLink.sol:LevelLink",
								"label": "directReferralIncome",
								"offset": 0,
								"slot": "1",
								"type": "t_uint256"
							},
							{
								"astId": 149,
								"contract": "MLM/2-level MLM/LevelLink.sol:LevelLink",
								"label": "isRegistered",
								"offset": 0,
								"slot": "2",
								"type": "t_bool"
							},
							{
								"astId": 151,
								"contract": "MLM/2-level MLM/LevelLink.sol:LevelLink",
								"label": "referralCount",
								"offset": 0,
								"slot": "3",
								"type": "t_uint256"
							},
							{
								"astId": 153,
								"contract": "MLM/2-level MLM/LevelLink.sol:LevelLink",
								"label": "registrationTime",
								"offset": 0,
								"slot": "4",
								"type": "t_uint256"
							},
							{
								"astId": 156,
								"contract": "MLM/2-level MLM/LevelLink.sol:LevelLink",
								"label": "directReferrals",
								"offset": 0,
								"slot": "5",
								"type": "t_array(t_address)dyn_storage"
							},
							{
								"astId": 158,
								"contract": "MLM/2-level MLM/LevelLink.sol:LevelLink",
								"label": "teamIncome",
								"offset": 0,
								"slot": "6",
								"type": "t_uint256"
							},
							{
								"astId": 160,
								"contract": "MLM/2-level MLM/LevelLink.sol:LevelLink",
								"label": "teamSize",
								"offset": 0,
								"slot": "7",
								"type": "t_uint256"
							},
							{
								"astId": 163,
								"contract": "MLM/2-level MLM/LevelLink.sol:LevelLink",
								"label": "indirectReferrals",
								"offset": 0,
								"slot": "8",
								"type": "t_array(t_address)dyn_storage"
							}
						],
						"numberOfBytes": "288"
					},
					"t_uint256": {
						"encoding": "inplace",
						"label": "uint256",
						"numberOfBytes": "32"
					}
				}
			},
			"userdoc": {
				"kind": "user",
				"methods": {},
				"version": 1
			}
		}
	}
}