{
	"LiquidityPool.sol": {
		"LiquidityPool": {
			"abi": [
				{
					"inputs": [
						{
							"internalType": "address",
							"name": "_tokenA",
							"type": "address"
						},
						{
							"internalType": "address",
							"name": "_tokenB",
							"type": "address"
						}
					],
					"stateMutability": "nonpayable",
					"type": "constructor"
				},
				{
					"inputs": [
						{
							"internalType": "uint256",
							"name": "amountA",
							"type": "uint256"
						},
						{
							"internalType": "uint256",
							"name": "amountB",
							"type": "uint256"
						}
					],
					"name": "addLiquidity",
					"outputs": [
						{
							"internalType": "uint256",
							"name": "liquidity",
							"type": "uint256"
						}
					],
					"stateMutability": "nonpayable",
					"type": "function"
				},
				{
					"inputs": [
						{
							"internalType": "uint256",
							"name": "amountIn",
							"type": "uint256"
						}
					],
					"name": "checkSlippage",
					"outputs": [
						{
							"internalType": "uint256",
							"name": "",
							"type": "uint256"
						}
					],
					"stateMutability": "view",
					"type": "function"
				},
				{
					"inputs": [
						{
							"internalType": "uint256",
							"name": "amountIn",
							"type": "uint256"
						}
					],
					"name": "checkSlippageB",
					"outputs": [
						{
							"internalType": "uint256",
							"name": "",
							"type": "uint256"
						}
					],
					"stateMutability": "view",
					"type": "function"
				},
				{
					"inputs": [],
					"name": "expextedSlippage",
					"outputs": [
						{
							"internalType": "uint256",
							"name": "",
							"type": "uint256"
						}
					],
					"stateMutability": "view",
					"type": "function"
				},
				{
					"inputs": [],
					"name": "feePercentage",
					"outputs": [
						{
							"internalType": "uint256",
							"name": "",
							"type": "uint256"
						}
					],
					"stateMutability": "view",
					"type": "function"
				},
				{
					"inputs": [
						{
							"internalType": "uint256",
							"name": "amountIn",
							"type": "uint256"
						}
					],
					"name": "getExpectedTokenA",
					"outputs": [
						{
							"internalType": "uint256",
							"name": "expectedOut",
							"type": "uint256"
						}
					],
					"stateMutability": "view",
					"type": "function"
				},
				{
					"inputs": [
						{
							"internalType": "uint256",
							"name": "amountIn",
							"type": "uint256"
						}
					],
					"name": "getExpectedTokenB",
					"outputs": [
						{
							"internalType": "uint256",
							"name": "expectedOut",
							"type": "uint256"
						}
					],
					"stateMutability": "view",
					"type": "function"
				},
				{
					"inputs": [],
					"name": "getLPTokenAddress",
					"outputs": [
						{
							"internalType": "address",
							"name": "",
							"type": "address"
						}
					],
					"stateMutability": "view",
					"type": "function"
				},
				{
					"inputs": [],
					"name": "getPrice",
					"outputs": [
						{
							"internalType": "uint256",
							"name": "",
							"type": "uint256"
						}
					],
					"stateMutability": "view",
					"type": "function"
				},
				{
					"inputs": [],
					"name": "getReserves",
					"outputs": [
						{
							"internalType": "uint256",
							"name": "",
							"type": "uint256"
						},
						{
							"internalType": "uint256",
							"name": "",
							"type": "uint256"
						}
					],
					"stateMutability": "view",
					"type": "function"
				},
				{
					"inputs": [
						{
							"internalType": "address",
							"name": "user",
							"type": "address"
						}
					],
					"name": "getUserLPBalance",
					"outputs": [
						{
							"internalType": "uint256",
							"name": "",
							"type": "uint256"
						}
					],
					"stateMutability": "view",
					"type": "function"
				},
				{
					"inputs": [],
					"name": "lpToken",
					"outputs": [
						{
							"internalType": "contract LPToken",
							"name": "",
							"type": "address"
						}
					],
					"stateMutability": "view",
					"type": "function"
				},
				{
					"inputs": [],
					"name": "owner",
					"outputs": [
						{
							"internalType": "address",
							"name": "",
							"type": "address"
						}
					],
					"stateMutability": "view",
					"type": "function"
				},
				{
					"inputs": [
						{
							"internalType": "uint256",
							"name": "liquidity",
							"type": "uint256"
						}
					],
					"name": "removeLiquidity",
					"outputs": [],
					"stateMutability": "nonpayable",
					"type": "function"
				},
				{
					"inputs": [],
					"name": "reserveA",
					"outputs": [
						{
							"internalType": "uint256",
							"name": "",
							"type": "uint256"
						}
					],
					"stateMutability": "view",
					"type": "function"
				},
				{
					"inputs": [],
					"name": "reserveB",
					"outputs": [
						{
							"internalType": "uint256",
							"name": "",
							"type": "uint256"
						}
					],
					"stateMutability": "view",
					"type": "function"
				},
				{
					"inputs": [
						{
							"internalType": "uint256",
							"name": "_expectedSlipage",
							"type": "uint256"
						}
					],
					"name": "setSlipage",
					"outputs": [],
					"stateMutability": "nonpayable",
					"type": "function"
				},
				{
					"inputs": [
						{
							"internalType": "uint256",
							"name": "amountIn",
							"type": "uint256"
						},
						{
							"internalType": "uint256",
							"name": "expectSlippage",
							"type": "uint256"
						}
					],
					"name": "swapAtoB",
					"outputs": [
						{
							"internalType": "uint256",
							"name": "",
							"type": "uint256"
						}
					],
					"stateMutability": "nonpayable",
					"type": "function"
				},
				{
					"inputs": [
						{
							"internalType": "uint256",
							"name": "amountIn",
							"type": "uint256"
						},
						{
							"internalType": "uint256",
							"name": "expectSlippage",
							"type": "uint256"
						}
					],
					"name": "swapBtoA",
					"outputs": [
						{
							"internalType": "uint256",
							"name": "",
							"type": "uint256"
						}
					],
					"stateMutability": "nonpayable",
					"type": "function"
				},
				{
					"inputs": [],
					"name": "tokenA",
					"outputs": [
						{
							"internalType": "contract IERC20",
							"name": "",
							"type": "address"
						}
					],
					"stateMutability": "view",
					"type": "function"
				},
				{
					"inputs": [],
					"name": "tokenB",
					"outputs": [
						{
							"internalType": "contract IERC20",
							"name": "",
							"type": "address"
						}
					],
					"stateMutability": "view",
					"type": "function"
				}
			],
			"devdoc": {
				"kind": "dev",
				"methods": {},
				"version": 1
			},
			"evm": {
				"assembly": "    /* \"LiquidityPool.sol\":722:8295  contract LiquidityPool {... */\n  mstore(0x40, 0x80)\n    /* \"LiquidityPool.sol\":962:963  3 */\n  0x03\n    /* \"LiquidityPool.sol\":935:963  uint public  feePercentage=3 */\n  0x06\n  sstore\n    /* \"LiquidityPool.sol\":1109:1315  constructor(address _tokenA, address _tokenB) {... */\n  callvalue\n  dup1\n  iszero\n  tag_1\n  jumpi\n  0x00\n  dup1\n  revert\ntag_1:\n  pop\n  mload(0x40)\n  sub(codesize, bytecodeSize)\n  dup1\n  bytecodeSize\n  dup4\n  codecopy\n  dup2\n  dup2\n  add\n  0x40\n  mstore\n  dup2\n  add\n  swap1\n  tag_2\n  swap2\n  swap1\n  tag_3\n  jump\t// in\ntag_2:\n    /* \"LiquidityPool.sol\":1182:1189  _tokenA */\n  dup2\n    /* \"LiquidityPool.sol\":1166:1172  tokenA */\n  0x00\n  dup1\n    /* \"LiquidityPool.sol\":1166:1190  tokenA = IERC20(_tokenA) */\n  0x0100\n  exp\n  dup2\n  sload\n  dup2\n  0xffffffffffffffffffffffffffffffffffffffff\n  mul\n  not\n  and\n  swap1\n  dup4\n  0xffffffffffffffffffffffffffffffffffffffff\n  and\n  mul\n  or\n  swap1\n  sstore\n  pop\n    /* \"LiquidityPool.sol\":1217:1224  _tokenB */\n  dup1\n    /* \"LiquidityPool.sol\":1201:1207  tokenB */\n  0x01\n  0x00\n    /* \"LiquidityPool.sol\":1201:1225  tokenB = IERC20(_tokenB) */\n  0x0100\n  exp\n  dup2\n  sload\n  dup2\n  0xffffffffffffffffffffffffffffffffffffffff\n  mul\n  not\n  and\n  swap1\n  dup4\n  0xffffffffffffffffffffffffffffffffffffffff\n  and\n  mul\n  or\n  swap1\n  sstore\n  pop\n    /* \"LiquidityPool.sol\":1246:1259  new LPToken() */\n  mload(0x40)\n  tag_6\n  swap1\n  tag_7\n  jump\t// in\ntag_6:\n  mload(0x40)\n  dup1\n  swap2\n  sub\n  swap1\n  0x00\n  create\n  dup1\n  iszero\n  dup1\n  iszero\n  tag_8\n  jumpi\n  returndatasize\n  0x00\n  dup1\n  returndatacopy\n  revert(0x00, returndatasize)\ntag_8:\n  pop\n    /* \"LiquidityPool.sol\":1236:1243  lpToken */\n  0x02\n  0x00\n    /* \"LiquidityPool.sol\":1236:1259  lpToken = new LPToken() */\n  0x0100\n  exp\n  dup2\n  sload\n  dup2\n  0xffffffffffffffffffffffffffffffffffffffff\n  mul\n  not\n  and\n  swap1\n  dup4\n  0xffffffffffffffffffffffffffffffffffffffff\n  and\n  mul\n  or\n  swap1\n  sstore\n  pop\n    /* \"LiquidityPool.sol\":1297:1307  msg.sender */\n  caller\n    /* \"LiquidityPool.sol\":1289:1294  owner */\n  0x07\n  0x00\n    /* \"LiquidityPool.sol\":1289:1307  owner = msg.sender */\n  0x0100\n  exp\n  dup2\n  sload\n  dup2\n  0xffffffffffffffffffffffffffffffffffffffff\n  mul\n  not\n  and\n  swap1\n  dup4\n  0xffffffffffffffffffffffffffffffffffffffff\n  and\n  mul\n  or\n  swap1\n  sstore\n  pop\n    /* \"LiquidityPool.sol\":1109:1315  constructor(address _tokenA, address _tokenB) {... */\n  pop\n  pop\n    /* \"LiquidityPool.sol\":722:8295  contract LiquidityPool {... */\n  jump(tag_9)\ntag_7:\n  dataSize(sub_1)\n  dup1\n  dataOffset(sub_1)\n  dup4\n  codecopy\n  add\n  swap1\n  jump\t// out\n    /* \"#utility.yul\":88:205   */\ntag_11:\n    /* \"#utility.yul\":197:198   */\n  0x00\n    /* \"#utility.yul\":194:195   */\n  dup1\n    /* \"#utility.yul\":187:199   */\n  revert\n    /* \"#utility.yul\":334:460   */\ntag_13:\n    /* \"#utility.yul\":371:378   */\n  0x00\n    /* \"#utility.yul\":411:453   */\n  0xffffffffffffffffffffffffffffffffffffffff\n    /* \"#utility.yul\":404:409   */\n  dup3\n    /* \"#utility.yul\":400:454   */\n  and\n    /* \"#utility.yul\":389:454   */\n  swap1\n  pop\n    /* \"#utility.yul\":334:460   */\n  swap2\n  swap1\n  pop\n  jump\t// out\n    /* \"#utility.yul\":466:562   */\ntag_14:\n    /* \"#utility.yul\":503:510   */\n  0x00\n    /* \"#utility.yul\":532:556   */\n  tag_23\n    /* \"#utility.yul\":550:555   */\n  dup3\n    /* \"#utility.yul\":532:556   */\n  tag_13\n  jump\t// in\ntag_23:\n    /* \"#utility.yul\":521:556   */\n  swap1\n  pop\n    /* \"#utility.yul\":466:562   */\n  swap2\n  swap1\n  pop\n  jump\t// out\n    /* \"#utility.yul\":568:690   */\ntag_15:\n    /* \"#utility.yul\":641:665   */\n  tag_25\n    /* \"#utility.yul\":659:664   */\n  dup2\n    /* \"#utility.yul\":641:665   */\n  tag_14\n  jump\t// in\ntag_25:\n    /* \"#utility.yul\":634:639   */\n  dup2\n    /* \"#utility.yul\":631:666   */\n  eq\n    /* \"#utility.yul\":621:684   */\n  tag_26\n  jumpi\n    /* \"#utility.yul\":680:681   */\n  0x00\n    /* \"#utility.yul\":677:678   */\n  dup1\n    /* \"#utility.yul\":670:682   */\n  revert\n    /* \"#utility.yul\":621:684   */\ntag_26:\n    /* \"#utility.yul\":568:690   */\n  pop\n  jump\t// out\n    /* \"#utility.yul\":696:839   */\ntag_16:\n    /* \"#utility.yul\":753:758   */\n  0x00\n    /* \"#utility.yul\":784:790   */\n  dup2\n    /* \"#utility.yul\":778:791   */\n  mload\n    /* \"#utility.yul\":769:791   */\n  swap1\n  pop\n    /* \"#utility.yul\":800:833   */\n  tag_28\n    /* \"#utility.yul\":827:832   */\n  dup2\n    /* \"#utility.yul\":800:833   */\n  tag_15\n  jump\t// in\ntag_28:\n    /* \"#utility.yul\":696:839   */\n  swap3\n  swap2\n  pop\n  pop\n  jump\t// out\n    /* \"#utility.yul\":845:1352   */\ntag_3:\n    /* \"#utility.yul\":924:930   */\n  0x00\n    /* \"#utility.yul\":932:938   */\n  dup1\n    /* \"#utility.yul\":981:983   */\n  0x40\n    /* \"#utility.yul\":969:978   */\n  dup4\n    /* \"#utility.yul\":960:967   */\n  dup6\n    /* \"#utility.yul\":956:979   */\n  sub\n    /* \"#utility.yul\":952:984   */\n  slt\n    /* \"#utility.yul\":949:1068   */\n  iszero\n  tag_30\n  jumpi\n    /* \"#utility.yul\":987:1066   */\n  tag_31\n  tag_11\n  jump\t// in\ntag_31:\n    /* \"#utility.yul\":949:1068   */\ntag_30:\n    /* \"#utility.yul\":1107:1108   */\n  0x00\n    /* \"#utility.yul\":1132:1196   */\n  tag_32\n    /* \"#utility.yul\":1188:1195   */\n  dup6\n    /* \"#utility.yul\":1179:1185   */\n  dup3\n    /* \"#utility.yul\":1168:1177   */\n  dup7\n    /* \"#utility.yul\":1164:1186   */\n  add\n    /* \"#utility.yul\":1132:1196   */\n  tag_16\n  jump\t// in\ntag_32:\n    /* \"#utility.yul\":1122:1196   */\n  swap3\n  pop\n    /* \"#utility.yul\":1078:1206   */\n  pop\n    /* \"#utility.yul\":1245:1247   */\n  0x20\n    /* \"#utility.yul\":1271:1335   */\n  tag_33\n    /* \"#utility.yul\":1327:1334   */\n  dup6\n    /* \"#utility.yul\":1318:1324   */\n  dup3\n    /* \"#utility.yul\":1307:1316   */\n  dup7\n    /* \"#utility.yul\":1303:1325   */\n  add\n    /* \"#utility.yul\":1271:1335   */\n  tag_16\n  jump\t// in\ntag_33:\n    /* \"#utility.yul\":1261:1335   */\n  swap2\n  pop\n    /* \"#utility.yul\":1216:1345   */\n  pop\n    /* \"#utility.yul\":845:1352   */\n  swap3\n  pop\n  swap3\n  swap1\n  pop\n  jump\t// out\n    /* \"LiquidityPool.sol\":722:8295  contract LiquidityPool {... */\ntag_9:\n  dataSize(sub_0)\n  dup1\n  dataOffset(sub_0)\n  0x00\n  codecopy\n  0x00\n  return\nstop\n\nsub_0: assembly {\n        /* \"LiquidityPool.sol\":722:8295  contract LiquidityPool {... */\n      mstore(0x40, 0x80)\n      callvalue\n      dup1\n      iszero\n      tag_1\n      jumpi\n      0x00\n      dup1\n      revert\n    tag_1:\n      pop\n      jumpi(tag_2, lt(calldatasize, 0x04))\n      shr(0xe0, calldataload(0x00))\n      dup1\n      0x98d5fdca\n      gt\n      tag_24\n      jumpi\n      dup1\n      0xbae38d58\n      gt\n      tag_25\n      jumpi\n      dup1\n      0xbae38d58\n      eq\n      tag_18\n      jumpi\n      dup1\n      0xbe8e89fc\n      eq\n      tag_19\n      jumpi\n      dup1\n      0xc4604b33\n      eq\n      tag_20\n      jumpi\n      dup1\n      0xc9e57aa6\n      eq\n      tag_21\n      jumpi\n      dup1\n      0xdc5fa6c5\n      eq\n      tag_22\n      jumpi\n      dup1\n      0xf0b456e9\n      eq\n      tag_23\n      jumpi\n      jump(tag_2)\n    tag_25:\n      dup1\n      0x98d5fdca\n      eq\n      tag_13\n      jumpi\n      dup1\n      0x9c8f9f23\n      eq\n      tag_14\n      jumpi\n      dup1\n      0x9cd441da\n      eq\n      tag_15\n      jumpi\n      dup1\n      0xa001ecdd\n      eq\n      tag_16\n      jumpi\n      dup1\n      0xb9c8c4ba\n      eq\n      tag_17\n      jumpi\n      jump(tag_2)\n    tag_24:\n      dup1\n      0x5f64b55b\n      gt\n      tag_26\n      jumpi\n      dup1\n      0x5f64b55b\n      eq\n      tag_8\n      jumpi\n      dup1\n      0x5fcbd285\n      eq\n      tag_9\n      jumpi\n      dup1\n      0x670053c8\n      eq\n      tag_10\n      jumpi\n      dup1\n      0x7a88266a\n      eq\n      tag_11\n      jumpi\n      dup1\n      0x8da5cb5b\n      eq\n      tag_12\n      jumpi\n      jump(tag_2)\n    tag_26:\n      dup1\n      0x06ebcc6d\n      eq\n      tag_3\n      jumpi\n      dup1\n      0x0902f1ac\n      eq\n      tag_4\n      jumpi\n      dup1\n      0x0fc63d10\n      eq\n      tag_5\n      jumpi\n      dup1\n      0x19e36f3b\n      eq\n      tag_6\n      jumpi\n      dup1\n      0x4242ec52\n      eq\n      tag_7\n      jumpi\n    tag_2:\n      0x00\n      dup1\n      revert\n        /* \"LiquidityPool.sol\":8082:8193  function getUserLPBalance(address user) public view returns (uint256) {... */\n    tag_3:\n      tag_27\n      0x04\n      dup1\n      calldatasize\n      sub\n      dup2\n      add\n      swap1\n      tag_28\n      swap2\n      swap1\n      tag_29\n      jump\t// in\n    tag_28:\n      tag_30\n      jump\t// in\n    tag_27:\n      mload(0x40)\n      tag_31\n      swap2\n      swap1\n      tag_32\n      jump\t// in\n    tag_31:\n      mload(0x40)\n      dup1\n      swap2\n      sub\n      swap1\n      return\n        /* \"LiquidityPool.sol\":6202:6302  function getReserves() public view returns (uint256, uint256) {... */\n    tag_4:\n      tag_33\n      tag_34\n      jump\t// in\n    tag_33:\n      mload(0x40)\n      tag_35\n      swap3\n      swap2\n      swap1\n      tag_36\n      jump\t// in\n    tag_35:\n      mload(0x40)\n      dup1\n      swap2\n      sub\n      swap1\n      return\n        /* \"LiquidityPool.sol\":752:772  IERC20 public tokenA */\n    tag_5:\n      tag_37\n      tag_38\n      jump\t// in\n    tag_37:\n      mload(0x40)\n      tag_39\n      swap2\n      swap1\n      tag_40\n      jump\t// in\n    tag_39:\n      mload(0x40)\n      dup1\n      swap2\n      sub\n      swap1\n      return\n        /* \"LiquidityPool.sol\":867:890  uint256 public reserveB */\n    tag_6:\n      tag_41\n      tag_42\n      jump\t// in\n    tag_41:\n      mload(0x40)\n      tag_43\n      swap2\n      swap1\n      tag_32\n      jump\t// in\n    tag_43:\n      mload(0x40)\n      dup1\n      swap2\n      sub\n      swap1\n      return\n        /* \"LiquidityPool.sol\":4180:5101  function swapBtoA(uint256 amountIn, uint256 expectSlippage) public returns (uint256) {... */\n    tag_7:\n      tag_44\n      0x04\n      dup1\n      calldatasize\n      sub\n      dup2\n      add\n      swap1\n      tag_45\n      swap2\n      swap1\n      tag_46\n      jump\t// in\n    tag_45:\n      tag_47\n      jump\t// in\n    tag_44:\n      mload(0x40)\n      tag_48\n      swap2\n      swap1\n      tag_32\n      jump\t// in\n    tag_48:\n      mload(0x40)\n      dup1\n      swap2\n      sub\n      swap1\n      return\n        /* \"LiquidityPool.sol\":779:799  IERC20 public tokenB */\n    tag_8:\n      tag_49\n      tag_50\n      jump\t// in\n    tag_49:\n      mload(0x40)\n      tag_51\n      swap2\n      swap1\n      tag_40\n      jump\t// in\n    tag_51:\n      mload(0x40)\n      dup1\n      swap2\n      sub\n      swap1\n      return\n        /* \"LiquidityPool.sol\":806:828  LPToken public lpToken */\n    tag_9:\n      tag_52\n      tag_53\n      jump\t// in\n    tag_52:\n      mload(0x40)\n      tag_54\n      swap2\n      swap1\n      tag_55\n      jump\t// in\n    tag_54:\n      mload(0x40)\n      dup1\n      swap2\n      sub\n      swap1\n      return\n        /* \"LiquidityPool.sol\":5143:5648  function checkSlippage(uint256 amountIn) public view returns (uint256) {... */\n    tag_10:\n      tag_56\n      0x04\n      dup1\n      calldatasize\n      sub\n      dup2\n      add\n      swap1\n      tag_57\n      swap2\n      swap1\n      tag_58\n      jump\t// in\n    tag_57:\n      tag_59\n      jump\t// in\n    tag_56:\n      mload(0x40)\n      tag_60\n      swap2\n      swap1\n      tag_32\n      jump\t// in\n    tag_60:\n      mload(0x40)\n      dup1\n      swap2\n      sub\n      swap1\n      return\n        /* \"LiquidityPool.sol\":6312:6653  function getExpectedTokenB(uint256 amountIn) public view returns (uint256 expectedOut) {... */\n    tag_11:\n      tag_61\n      0x04\n      dup1\n      calldatasize\n      sub\n      dup2\n      add\n      swap1\n      tag_62\n      swap2\n      swap1\n      tag_58\n      jump\t// in\n    tag_62:\n      tag_63\n      jump\t// in\n    tag_61:\n      mload(0x40)\n      tag_64\n      swap2\n      swap1\n      tag_32\n      jump\t// in\n    tag_64:\n      mload(0x40)\n      dup1\n      swap2\n      sub\n      swap1\n      return\n        /* \"LiquidityPool.sol\":970:990  address public owner */\n    tag_12:\n      tag_65\n      tag_66\n      jump\t// in\n    tag_65:\n      mload(0x40)\n      tag_67\n      swap2\n      swap1\n      tag_68\n      jump\t// in\n    tag_67:\n      mload(0x40)\n      dup1\n      swap2\n      sub\n      swap1\n      return\n        /* \"LiquidityPool.sol\":3052:3204  function getPrice() public view returns (uint256) {... */\n    tag_13:\n      tag_69\n      tag_70\n      jump\t// in\n    tag_69:\n      mload(0x40)\n      tag_71\n      swap2\n      swap1\n      tag_32\n      jump\t// in\n    tag_71:\n      mload(0x40)\n      dup1\n      swap2\n      sub\n      swap1\n      return\n        /* \"LiquidityPool.sol\":7037:8074  function removeLiquidity(uint256 liquidity) public {... */\n    tag_14:\n      tag_72\n      0x04\n      dup1\n      calldatasize\n      sub\n      dup2\n      add\n      swap1\n      tag_73\n      swap2\n      swap1\n      tag_58\n      jump\t// in\n    tag_73:\n      tag_74\n      jump\t// in\n    tag_72:\n      stop\n        /* \"LiquidityPool.sol\":1547:2619  function addLiquidity(uint256 amountA, uint256 amountB) public returns (uint256 liquidity) {... */\n    tag_15:\n      tag_75\n      0x04\n      dup1\n      calldatasize\n      sub\n      dup2\n      add\n      swap1\n      tag_76\n      swap2\n      swap1\n      tag_46\n      jump\t// in\n    tag_76:\n      tag_77\n      jump\t// in\n    tag_75:\n      mload(0x40)\n      tag_78\n      swap2\n      swap1\n      tag_32\n      jump\t// in\n    tag_78:\n      mload(0x40)\n      dup1\n      swap2\n      sub\n      swap1\n      return\n        /* \"LiquidityPool.sol\":935:963  uint public  feePercentage=3 */\n    tag_16:\n      tag_79\n      tag_80\n      jump\t// in\n    tag_79:\n      mload(0x40)\n      tag_81\n      swap2\n      swap1\n      tag_32\n      jump\t// in\n    tag_81:\n      mload(0x40)\n      dup1\n      swap2\n      sub\n      swap1\n      return\n        /* \"LiquidityPool.sol\":1360:1537  function setSlipage(uint256 _expectedSlipage) public onlyOwner {... */\n    tag_17:\n      tag_82\n      0x04\n      dup1\n      calldatasize\n      sub\n      dup2\n      add\n      swap1\n      tag_83\n      swap2\n      swap1\n      tag_58\n      jump\t// in\n    tag_83:\n      tag_84\n      jump\t// in\n    tag_82:\n      stop\n        /* \"LiquidityPool.sol\":6661:7002  function getExpectedTokenA(uint256 amountIn) public view returns (uint256 expectedOut) {... */\n    tag_18:\n      tag_85\n      0x04\n      dup1\n      calldatasize\n      sub\n      dup2\n      add\n      swap1\n      tag_86\n      swap2\n      swap1\n      tag_58\n      jump\t// in\n    tag_86:\n      tag_87\n      jump\t// in\n    tag_85:\n      mload(0x40)\n      tag_88\n      swap2\n      swap1\n      tag_32\n      jump\t// in\n    tag_88:\n      mload(0x40)\n      dup1\n      swap2\n      sub\n      swap1\n      return\n        /* \"LiquidityPool.sol\":897:928  uint256 public expextedSlippage */\n    tag_19:\n      tag_89\n      tag_90\n      jump\t// in\n    tag_89:\n      mload(0x40)\n      tag_91\n      swap2\n      swap1\n      tag_32\n      jump\t// in\n    tag_91:\n      mload(0x40)\n      dup1\n      swap2\n      sub\n      swap1\n      return\n        /* \"LiquidityPool.sol\":5690:6196  function checkSlippageB(uint256 amountIn) public view returns (uint256) {... */\n    tag_20:\n      tag_92\n      0x04\n      dup1\n      calldatasize\n      sub\n      dup2\n      add\n      swap1\n      tag_93\n      swap2\n      swap1\n      tag_58\n      jump\t// in\n    tag_93:\n      tag_94\n      jump\t// in\n    tag_92:\n      mload(0x40)\n      tag_95\n      swap2\n      swap1\n      tag_32\n      jump\t// in\n    tag_95:\n      mload(0x40)\n      dup1\n      swap2\n      sub\n      swap1\n      return\n        /* \"LiquidityPool.sol\":8195:8288  function getLPTokenAddress() public view returns (address) {... */\n    tag_21:\n      tag_96\n      tag_97\n      jump\t// in\n    tag_96:\n      mload(0x40)\n      tag_98\n      swap2\n      swap1\n      tag_68\n      jump\t// in\n    tag_98:\n      mload(0x40)\n      dup1\n      swap2\n      sub\n      swap1\n      return\n        /* \"LiquidityPool.sol\":837:860  uint256 public reserveA */\n    tag_22:\n      tag_99\n      tag_100\n      jump\t// in\n    tag_99:\n      mload(0x40)\n      tag_101\n      swap2\n      swap1\n      tag_32\n      jump\t// in\n    tag_101:\n      mload(0x40)\n      dup1\n      swap2\n      sub\n      swap1\n      return\n        /* \"LiquidityPool.sol\":3232:4152  function swapAtoB(uint256 amountIn, uint256 expectSlippage) public returns (uint256) {... */\n    tag_23:\n      tag_102\n      0x04\n      dup1\n      calldatasize\n      sub\n      dup2\n      add\n      swap1\n      tag_103\n      swap2\n      swap1\n      tag_46\n      jump\t// in\n    tag_103:\n      tag_104\n      jump\t// in\n    tag_102:\n      mload(0x40)\n      tag_105\n      swap2\n      swap1\n      tag_32\n      jump\t// in\n    tag_105:\n      mload(0x40)\n      dup1\n      swap2\n      sub\n      swap1\n      return\n        /* \"LiquidityPool.sol\":8082:8193  function getUserLPBalance(address user) public view returns (uint256) {... */\n    tag_30:\n        /* \"LiquidityPool.sol\":8143:8150  uint256 */\n      0x00\n        /* \"LiquidityPool.sol\":8166:8173  lpToken */\n      0x02\n      0x00\n      swap1\n      sload\n      swap1\n      0x0100\n      exp\n      swap1\n      div\n      0xffffffffffffffffffffffffffffffffffffffff\n      and\n        /* \"LiquidityPool.sol\":8166:8183  lpToken.balanceOf */\n      0xffffffffffffffffffffffffffffffffffffffff\n      and\n      0x70a08231\n        /* \"LiquidityPool.sol\":8184:8188  user */\n      dup4\n        /* \"LiquidityPool.sol\":8166:8189  lpToken.balanceOf(user) */\n      mload(0x40)\n      dup3\n      0xffffffff\n      and\n      0xe0\n      shl\n      dup2\n      mstore\n      0x04\n      add\n      tag_107\n      swap2\n      swap1\n      tag_68\n      jump\t// in\n    tag_107:\n      0x20\n      mload(0x40)\n      dup1\n      dup4\n      sub\n      dup2\n      dup7\n      gas\n      staticcall\n      iszero\n      dup1\n      iszero\n      tag_109\n      jumpi\n      returndatasize\n      0x00\n      dup1\n      returndatacopy\n      revert(0x00, returndatasize)\n    tag_109:\n      pop\n      pop\n      pop\n      pop\n      mload(0x40)\n      returndatasize\n      not(0x1f)\n      0x1f\n      dup3\n      add\n      and\n      dup3\n      add\n      dup1\n      0x40\n      mstore\n      pop\n      dup2\n      add\n      swap1\n      tag_110\n      swap2\n      swap1\n      tag_111\n      jump\t// in\n    tag_110:\n        /* \"LiquidityPool.sol\":8159:8189  return lpToken.balanceOf(user) */\n      swap1\n      pop\n        /* \"LiquidityPool.sol\":8082:8193  function getUserLPBalance(address user) public view returns (uint256) {... */\n      swap2\n      swap1\n      pop\n      jump\t// out\n        /* \"LiquidityPool.sol\":6202:6302  function getReserves() public view returns (uint256, uint256) {... */\n    tag_34:\n        /* \"LiquidityPool.sol\":6246:6253  uint256 */\n      0x00\n        /* \"LiquidityPool.sol\":6255:6262  uint256 */\n      dup1\n        /* \"LiquidityPool.sol\":6279:6287  reserveA */\n      sload(0x03)\n        /* \"LiquidityPool.sol\":6289:6297  reserveB */\n      sload(0x04)\n        /* \"LiquidityPool.sol\":6271:6298  return (reserveA, reserveB) */\n      swap2\n      pop\n      swap2\n      pop\n        /* \"LiquidityPool.sol\":6202:6302  function getReserves() public view returns (uint256, uint256) {... */\n      swap1\n      swap2\n      jump\t// out\n        /* \"LiquidityPool.sol\":752:772  IERC20 public tokenA */\n    tag_38:\n      0x00\n      dup1\n      sload\n      swap1\n      0x0100\n      exp\n      swap1\n      div\n      0xffffffffffffffffffffffffffffffffffffffff\n      and\n      dup2\n      jump\t// out\n        /* \"LiquidityPool.sol\":867:890  uint256 public reserveB */\n    tag_42:\n      sload(0x04)\n      dup2\n      jump\t// out\n        /* \"LiquidityPool.sol\":4180:5101  function swapBtoA(uint256 amountIn, uint256 expectSlippage) public returns (uint256) {... */\n    tag_47:\n        /* \"LiquidityPool.sol\":4256:4263  uint256 */\n      0x00\n        /* \"LiquidityPool.sol\":4295:4296  0 */\n      dup1\n        /* \"LiquidityPool.sol\":4284:4292  amountIn */\n      dup4\n        /* \"LiquidityPool.sol\":4284:4296  amountIn > 0 */\n      gt\n        /* \"LiquidityPool.sol\":4276:4321  require(amountIn > 0, \"Invalid input amount\") */\n      tag_114\n      jumpi\n      mload(0x40)\n      0x08c379a000000000000000000000000000000000000000000000000000000000\n      dup2\n      mstore\n      0x04\n      add\n      tag_115\n      swap1\n      tag_116\n      jump\t// in\n    tag_115:\n      mload(0x40)\n      dup1\n      swap2\n      sub\n      swap1\n      revert\n    tag_114:\n        /* \"LiquidityPool.sol\":4359:4360  0 */\n      0x00\n        /* \"LiquidityPool.sol\":4340:4356  expextedSlippage */\n      sload(0x05)\n        /* \"LiquidityPool.sol\":4340:4360  expextedSlippage > 0 */\n      gt\n        /* \"LiquidityPool.sol\":4332:4390  require(expextedSlippage > 0, \"Expected slippage not set\") */\n      tag_117\n      jumpi\n      mload(0x40)\n      0x08c379a000000000000000000000000000000000000000000000000000000000\n      dup2\n      mstore\n      0x04\n      add\n      tag_118\n      swap1\n      tag_119\n      jump\t// in\n    tag_118:\n      mload(0x40)\n      dup1\n      swap2\n      sub\n      swap1\n      revert\n    tag_117:\n        /* \"LiquidityPool.sol\":4401:4412  uint256 fee */\n      0x00\n        /* \"LiquidityPool.sol\":4444:4447  100 */\n      0x64\n        /* \"LiquidityPool.sol\":4427:4440  feePercentage */\n      sload(0x06)\n        /* \"LiquidityPool.sol\":4416:4424  amountIn */\n      dup6\n        /* \"LiquidityPool.sol\":4416:4440  amountIn * feePercentage */\n      tag_120\n      swap2\n      swap1\n      tag_121\n      jump\t// in\n    tag_120:\n        /* \"LiquidityPool.sol\":4415:4447  (amountIn * feePercentage) / 100 */\n      tag_122\n      swap2\n      swap1\n      tag_123\n      jump\t// in\n    tag_122:\n        /* \"LiquidityPool.sol\":4401:4447  uint256 fee = (amountIn * feePercentage) / 100 */\n      swap1\n      pop\n        /* \"LiquidityPool.sol\":4458:4482  uint256 amountInAfterFee */\n      0x00\n        /* \"LiquidityPool.sol\":4496:4499  fee */\n      dup2\n        /* \"LiquidityPool.sol\":4485:4493  amountIn */\n      dup6\n        /* \"LiquidityPool.sol\":4485:4499  amountIn - fee */\n      tag_124\n      swap2\n      swap1\n      tag_125\n      jump\t// in\n    tag_124:\n        /* \"LiquidityPool.sol\":4458:4499  uint256 amountInAfterFee = amountIn - fee */\n      swap1\n      pop\n        /* \"LiquidityPool.sol\":4535:4567  checkSlippageB(amountInAfterFee) */\n      tag_126\n        /* \"LiquidityPool.sol\":4550:4566  amountInAfterFee */\n      dup2\n        /* \"LiquidityPool.sol\":4535:4549  checkSlippageB */\n      tag_94\n        /* \"LiquidityPool.sol\":4535:4567  checkSlippageB(amountInAfterFee) */\n      jump\t// in\n    tag_126:\n        /* \"LiquidityPool.sol\":4518:4532  expectSlippage */\n      dup5\n        /* \"LiquidityPool.sol\":4518:4567  expectSlippage > checkSlippageB(amountInAfterFee) */\n      gt\n        /* \"LiquidityPool.sol\":4510:4599  require(expectSlippage > checkSlippageB(amountInAfterFee), \"actual slippage is too high\") */\n      tag_127\n      jumpi\n      mload(0x40)\n      0x08c379a000000000000000000000000000000000000000000000000000000000\n      dup2\n      mstore\n      0x04\n      add\n      tag_128\n      swap1\n      tag_129\n      jump\t// in\n    tag_128:\n      mload(0x40)\n      dup1\n      swap2\n      sub\n      swap1\n      revert\n    tag_127:\n        /* \"LiquidityPool.sol\":4614:4633  uint256 newReserveB */\n      0x00\n        /* \"LiquidityPool.sol\":4647:4663  amountInAfterFee */\n      dup2\n        /* \"LiquidityPool.sol\":4636:4644  reserveB */\n      sload(0x04)\n        /* \"LiquidityPool.sol\":4636:4663  reserveB + amountInAfterFee */\n      tag_130\n      swap2\n      swap1\n      tag_131\n      jump\t// in\n    tag_130:\n        /* \"LiquidityPool.sol\":4614:4663  uint256 newReserveB = reserveB + amountInAfterFee */\n      swap1\n      pop\n        /* \"LiquidityPool.sol\":4674:4683  uint256 k */\n      0x00\n        /* \"LiquidityPool.sol\":4697:4705  reserveB */\n      sload(0x04)\n        /* \"LiquidityPool.sol\":4686:4694  reserveA */\n      sload(0x03)\n        /* \"LiquidityPool.sol\":4686:4705  reserveA * reserveB */\n      tag_132\n      swap2\n      swap1\n      tag_121\n      jump\t// in\n    tag_132:\n        /* \"LiquidityPool.sol\":4674:4705  uint256 k = reserveA * reserveB */\n      swap1\n      pop\n        /* \"LiquidityPool.sol\":4716:4735  uint256 newReserveA */\n      0x00\n        /* \"LiquidityPool.sol\":4742:4753  newReserveB */\n      dup3\n        /* \"LiquidityPool.sol\":4738:4739  k */\n      dup3\n        /* \"LiquidityPool.sol\":4738:4753  k / newReserveB */\n      tag_133\n      swap2\n      swap1\n      tag_123\n      jump\t// in\n    tag_133:\n        /* \"LiquidityPool.sol\":4716:4753  uint256 newReserveA = k / newReserveB */\n      swap1\n      pop\n        /* \"LiquidityPool.sol\":4764:4781  uint256 amountOut */\n      0x00\n        /* \"LiquidityPool.sol\":4795:4806  newReserveA */\n      dup2\n        /* \"LiquidityPool.sol\":4784:4792  reserveA */\n      sload(0x03)\n        /* \"LiquidityPool.sol\":4784:4806  reserveA - newReserveA */\n      tag_134\n      swap2\n      swap1\n      tag_125\n      jump\t// in\n    tag_134:\n        /* \"LiquidityPool.sol\":4764:4806  uint256 amountOut = reserveA - newReserveA */\n      swap1\n      pop\n        /* \"LiquidityPool.sol\":4827:4833  tokenB */\n      0x01\n      0x00\n      swap1\n      sload\n      swap1\n      0x0100\n      exp\n      swap1\n      div\n      0xffffffffffffffffffffffffffffffffffffffff\n      and\n        /* \"LiquidityPool.sol\":4827:4846  tokenB.transferFrom */\n      0xffffffffffffffffffffffffffffffffffffffff\n      and\n      0x23b872dd\n        /* \"LiquidityPool.sol\":4847:4857  msg.sender */\n      caller\n        /* \"LiquidityPool.sol\":4867:4871  this */\n      address\n        /* \"LiquidityPool.sol\":4874:4882  amountIn */\n      dup13\n        /* \"LiquidityPool.sol\":4827:4883  tokenB.transferFrom(msg.sender, address(this), amountIn) */\n      mload(0x40)\n      dup5\n      0xffffffff\n      and\n      0xe0\n      shl\n      dup2\n      mstore\n      0x04\n      add\n      tag_135\n      swap4\n      swap3\n      swap2\n      swap1\n      tag_136\n      jump\t// in\n    tag_135:\n      0x20\n      mload(0x40)\n      dup1\n      dup4\n      sub\n      dup2\n      0x00\n      dup8\n      gas\n      call\n      iszero\n      dup1\n      iszero\n      tag_138\n      jumpi\n      returndatasize\n      0x00\n      dup1\n      returndatacopy\n      revert(0x00, returndatasize)\n    tag_138:\n      pop\n      pop\n      pop\n      pop\n      mload(0x40)\n      returndatasize\n      not(0x1f)\n      0x1f\n      dup3\n      add\n      and\n      dup3\n      add\n      dup1\n      0x40\n      mstore\n      pop\n      dup2\n      add\n      swap1\n      tag_139\n      swap2\n      swap1\n      tag_140\n      jump\t// in\n    tag_139:\n        /* \"LiquidityPool.sol\":4819:4911  require(tokenB.transferFrom(msg.sender, address(this), amountIn), \"Token B transfer failed\") */\n      tag_141\n      jumpi\n      mload(0x40)\n      0x08c379a000000000000000000000000000000000000000000000000000000000\n      dup2\n      mstore\n      0x04\n      add\n      tag_142\n      swap1\n      tag_143\n      jump\t// in\n    tag_142:\n      mload(0x40)\n      dup1\n      swap2\n      sub\n      swap1\n      revert\n    tag_141:\n        /* \"LiquidityPool.sol\":4930:4936  tokenA */\n      0x00\n      dup1\n      sload\n      swap1\n      0x0100\n      exp\n      swap1\n      div\n      0xffffffffffffffffffffffffffffffffffffffff\n      and\n        /* \"LiquidityPool.sol\":4930:4945  tokenA.transfer */\n      0xffffffffffffffffffffffffffffffffffffffff\n      and\n      0xa9059cbb\n        /* \"LiquidityPool.sol\":4946:4956  msg.sender */\n      caller\n        /* \"LiquidityPool.sol\":4958:4967  amountOut */\n      dup4\n        /* \"LiquidityPool.sol\":4930:4968  tokenA.transfer(msg.sender, amountOut) */\n      mload(0x40)\n      dup4\n      0xffffffff\n      and\n      0xe0\n      shl\n      dup2\n      mstore\n      0x04\n      add\n      tag_144\n      swap3\n      swap2\n      swap1\n      tag_145\n      jump\t// in\n    tag_144:\n      0x20\n      mload(0x40)\n      dup1\n      dup4\n      sub\n      dup2\n      0x00\n      dup8\n      gas\n      call\n      iszero\n      dup1\n      iszero\n      tag_147\n      jumpi\n      returndatasize\n      0x00\n      dup1\n      returndatacopy\n      revert(0x00, returndatasize)\n    tag_147:\n      pop\n      pop\n      pop\n      pop\n      mload(0x40)\n      returndatasize\n      not(0x1f)\n      0x1f\n      dup3\n      add\n      and\n      dup3\n      add\n      dup1\n      0x40\n      mstore\n      pop\n      dup2\n      add\n      swap1\n      tag_148\n      swap2\n      swap1\n      tag_140\n      jump\t// in\n    tag_148:\n        /* \"LiquidityPool.sol\":4922:4996  require(tokenA.transfer(msg.sender, amountOut), \"Token A transfer failed\") */\n      tag_149\n      jumpi\n      mload(0x40)\n      0x08c379a000000000000000000000000000000000000000000000000000000000\n      dup2\n      mstore\n      0x04\n      add\n      tag_150\n      swap1\n      tag_151\n      jump\t// in\n    tag_150:\n      mload(0x40)\n      dup1\n      swap2\n      sub\n      swap1\n      revert\n    tag_149:\n        /* \"LiquidityPool.sol\":5020:5031  newReserveA */\n      dup2\n        /* \"LiquidityPool.sol\":5009:5017  reserveA */\n      0x03\n        /* \"LiquidityPool.sol\":5009:5031  reserveA = newReserveA */\n      dup2\n      swap1\n      sstore\n      pop\n        /* \"LiquidityPool.sol\":5053:5064  newReserveB */\n      dup4\n        /* \"LiquidityPool.sol\":5042:5050  reserveB */\n      0x04\n        /* \"LiquidityPool.sol\":5042:5064  reserveB = newReserveB */\n      dup2\n      swap1\n      sstore\n      pop\n        /* \"LiquidityPool.sol\":5084:5093  amountOut */\n      dup1\n        /* \"LiquidityPool.sol\":5077:5093  return amountOut */\n      swap7\n      pop\n      pop\n      pop\n      pop\n      pop\n      pop\n      pop\n        /* \"LiquidityPool.sol\":4180:5101  function swapBtoA(uint256 amountIn, uint256 expectSlippage) public returns (uint256) {... */\n      swap3\n      swap2\n      pop\n      pop\n      jump\t// out\n        /* \"LiquidityPool.sol\":779:799  IERC20 public tokenB */\n    tag_50:\n      0x01\n      0x00\n      swap1\n      sload\n      swap1\n      0x0100\n      exp\n      swap1\n      div\n      0xffffffffffffffffffffffffffffffffffffffff\n      and\n      dup2\n      jump\t// out\n        /* \"LiquidityPool.sol\":806:828  LPToken public lpToken */\n    tag_53:\n      0x02\n      0x00\n      swap1\n      sload\n      swap1\n      0x0100\n      exp\n      swap1\n      div\n      0xffffffffffffffffffffffffffffffffffffffff\n      and\n      dup2\n      jump\t// out\n        /* \"LiquidityPool.sol\":5143:5648  function checkSlippage(uint256 amountIn) public view returns (uint256) {... */\n    tag_59:\n        /* \"LiquidityPool.sol\":5205:5212  uint256 */\n      0x00\n        /* \"LiquidityPool.sol\":5244:5245  0 */\n      dup1\n        /* \"LiquidityPool.sol\":5233:5241  amountIn */\n      dup3\n        /* \"LiquidityPool.sol\":5233:5245  amountIn > 0 */\n      gt\n        /* \"LiquidityPool.sol\":5225:5268  require(amountIn > 0, \"give correct value\") */\n      tag_153\n      jumpi\n      mload(0x40)\n      0x08c379a000000000000000000000000000000000000000000000000000000000\n      dup2\n      mstore\n      0x04\n      add\n      tag_154\n      swap1\n      tag_155\n      jump\t// in\n    tag_154:\n      mload(0x40)\n      dup1\n      swap2\n      sub\n      swap1\n      revert\n    tag_153:\n        /* \"LiquidityPool.sol\":5281:5301  uint256 expectAmount */\n      0x00\n        /* \"LiquidityPool.sol\":5304:5331  getExpectedTokenB(amountIn) */\n      tag_156\n        /* \"LiquidityPool.sol\":5322:5330  amountIn */\n      dup4\n        /* \"LiquidityPool.sol\":5304:5321  getExpectedTokenB */\n      tag_63\n        /* \"LiquidityPool.sol\":5304:5331  getExpectedTokenB(amountIn) */\n      jump\t// in\n    tag_156:\n        /* \"LiquidityPool.sol\":5281:5331  uint256 expectAmount = getExpectedTokenB(amountIn) */\n      swap1\n      pop\n        /* \"LiquidityPool.sol\":5344:5363  uint256 newReserveA */\n      0x00\n        /* \"LiquidityPool.sol\":5377:5385  amountIn */\n      dup4\n        /* \"LiquidityPool.sol\":5366:5374  reserveA */\n      sload(0x03)\n        /* \"LiquidityPool.sol\":5366:5385  reserveA + amountIn */\n      tag_157\n      swap2\n      swap1\n      tag_131\n      jump\t// in\n    tag_157:\n        /* \"LiquidityPool.sol\":5344:5385  uint256 newReserveA = reserveA + amountIn */\n      swap1\n      pop\n        /* \"LiquidityPool.sol\":5396:5405  uint256 k */\n      0x00\n        /* \"LiquidityPool.sol\":5419:5427  reserveB */\n      sload(0x04)\n        /* \"LiquidityPool.sol\":5408:5416  reserveA */\n      sload(0x03)\n        /* \"LiquidityPool.sol\":5408:5427  reserveA * reserveB */\n      tag_158\n      swap2\n      swap1\n      tag_121\n      jump\t// in\n    tag_158:\n        /* \"LiquidityPool.sol\":5396:5427  uint256 k = reserveA * reserveB */\n      swap1\n      pop\n        /* \"LiquidityPool.sol\":5438:5457  uint256 newReserveB */\n      0x00\n        /* \"LiquidityPool.sol\":5464:5475  newReserveA */\n      dup3\n        /* \"LiquidityPool.sol\":5460:5461  k */\n      dup3\n        /* \"LiquidityPool.sol\":5460:5475  k / newReserveA */\n      tag_159\n      swap2\n      swap1\n      tag_123\n      jump\t// in\n    tag_159:\n        /* \"LiquidityPool.sol\":5438:5475  uint256 newReserveB = k / newReserveA */\n      swap1\n      pop\n        /* \"LiquidityPool.sol\":5486:5503  uint256 amountOut */\n      0x00\n        /* \"LiquidityPool.sol\":5517:5528  newReserveB */\n      dup2\n        /* \"LiquidityPool.sol\":5506:5514  reserveB */\n      sload(0x04)\n        /* \"LiquidityPool.sol\":5506:5528  reserveB - newReserveB */\n      tag_160\n      swap2\n      swap1\n      tag_125\n      jump\t// in\n    tag_160:\n        /* \"LiquidityPool.sol\":5486:5528  uint256 amountOut = reserveB - newReserveB */\n      swap1\n      pop\n        /* \"LiquidityPool.sol\":5541:5564  uint256 slippagePercent */\n      0x00\n        /* \"LiquidityPool.sol\":5594:5606  expectAmount */\n      dup6\n        /* \"LiquidityPool.sol\":5587:5590  100 */\n      0x64\n        /* \"LiquidityPool.sol\":5575:5584  amountOut */\n      dup4\n        /* \"LiquidityPool.sol\":5575:5590  amountOut * 100 */\n      tag_161\n      swap2\n      swap1\n      tag_121\n      jump\t// in\n    tag_161:\n        /* \"LiquidityPool.sol\":5574:5606  (amountOut * 100) / expectAmount */\n      tag_162\n      swap2\n      swap1\n      tag_123\n      jump\t// in\n    tag_162:\n        /* \"LiquidityPool.sol\":5567:5570  100 */\n      0x64\n        /* \"LiquidityPool.sol\":5567:5607  100 - ((amountOut * 100) / expectAmount) */\n      tag_163\n      swap2\n      swap1\n      tag_125\n      jump\t// in\n    tag_163:\n        /* \"LiquidityPool.sol\":5541:5607  uint256 slippagePercent = 100 - ((amountOut * 100) / expectAmount) */\n      swap1\n      pop\n        /* \"LiquidityPool.sol\":5625:5640  slippagePercent */\n      dup1\n        /* \"LiquidityPool.sol\":5618:5640  return slippagePercent */\n      swap7\n      pop\n      pop\n      pop\n      pop\n      pop\n      pop\n      pop\n        /* \"LiquidityPool.sol\":5143:5648  function checkSlippage(uint256 amountIn) public view returns (uint256) {... */\n      swap2\n      swap1\n      pop\n      jump\t// out\n        /* \"LiquidityPool.sol\":6312:6653  function getExpectedTokenB(uint256 amountIn) public view returns (uint256 expectedOut) {... */\n    tag_63:\n        /* \"LiquidityPool.sol\":6378:6397  uint256 expectedOut */\n      0x00\n        /* \"LiquidityPool.sol\":6429:6430  0 */\n      dup1\n        /* \"LiquidityPool.sol\":6418:6426  amountIn */\n      dup3\n        /* \"LiquidityPool.sol\":6418:6430  amountIn > 0 */\n      gt\n        /* \"LiquidityPool.sol\":6410:6449  require(amountIn > 0, \"Invalid amount\") */\n      tag_165\n      jumpi\n      mload(0x40)\n      0x08c379a000000000000000000000000000000000000000000000000000000000\n      dup2\n      mstore\n      0x04\n      add\n      tag_166\n      swap1\n      tag_167\n      jump\t// in\n    tag_166:\n      mload(0x40)\n      dup1\n      swap2\n      sub\n      swap1\n      revert\n    tag_165:\n        /* \"LiquidityPool.sol\":6481:6482  0 */\n      0x00\n        /* \"LiquidityPool.sol\":6470:6478  reserveB */\n      sload(0x04)\n        /* \"LiquidityPool.sol\":6470:6482  reserveB > 0 */\n      gt\n        /* \"LiquidityPool.sol\":6462:6509  require(reserveB > 0, \"Insufficient liquidity\") */\n      tag_168\n      jumpi\n      mload(0x40)\n      0x08c379a000000000000000000000000000000000000000000000000000000000\n      dup2\n      mstore\n      0x04\n      add\n      tag_169\n      swap1\n      tag_170\n      jump\t// in\n    tag_169:\n      mload(0x40)\n      dup1\n      swap2\n      sub\n      swap1\n      revert\n    tag_168:\n        /* \"LiquidityPool.sol\":6520:6533  uint256 ratio */\n      0x00\n        /* \"LiquidityPool.sol\":6556:6564  reserveB */\n      sload(0x04)\n        /* \"LiquidityPool.sol\":6548:6552  1e18 */\n      0x0de0b6b3a7640000\n        /* \"LiquidityPool.sol\":6537:6545  reserveA */\n      sload(0x03)\n        /* \"LiquidityPool.sol\":6537:6552  reserveA * 1e18 */\n      tag_171\n      swap2\n      swap1\n      tag_121\n      jump\t// in\n    tag_171:\n        /* \"LiquidityPool.sol\":6536:6564  (reserveA * 1e18) / reserveB */\n      tag_172\n      swap2\n      swap1\n      tag_123\n      jump\t// in\n    tag_172:\n        /* \"LiquidityPool.sol\":6520:6564  uint256 ratio = (reserveA * 1e18) / reserveB */\n      swap1\n      pop\n        /* \"LiquidityPool.sol\":6611:6616  ratio */\n      dup1\n        /* \"LiquidityPool.sol\":6603:6607  1e18 */\n      0x0de0b6b3a7640000\n        /* \"LiquidityPool.sol\":6592:6600  amountIn */\n      dup5\n        /* \"LiquidityPool.sol\":6592:6607  amountIn * 1e18 */\n      tag_173\n      swap2\n      swap1\n      tag_121\n      jump\t// in\n    tag_173:\n        /* \"LiquidityPool.sol\":6591:6616  (amountIn * 1e18) / ratio */\n      tag_174\n      swap2\n      swap1\n      tag_123\n      jump\t// in\n    tag_174:\n        /* \"LiquidityPool.sol\":6577:6616  expectedOut = (amountIn * 1e18) / ratio */\n      swap2\n      pop\n        /* \"LiquidityPool.sol\":6627:6645  return expectedOut */\n      pop\n        /* \"LiquidityPool.sol\":6312:6653  function getExpectedTokenB(uint256 amountIn) public view returns (uint256 expectedOut) {... */\n      swap2\n      swap1\n      pop\n      jump\t// out\n        /* \"LiquidityPool.sol\":970:990  address public owner */\n    tag_66:\n      0x07\n      0x00\n      swap1\n      sload\n      swap1\n      0x0100\n      exp\n      swap1\n      div\n      0xffffffffffffffffffffffffffffffffffffffff\n      and\n      dup2\n      jump\t// out\n        /* \"LiquidityPool.sol\":3052:3204  function getPrice() public view returns (uint256) {... */\n    tag_70:\n        /* \"LiquidityPool.sol\":3093:3100  uint256 */\n      0x00\n        /* \"LiquidityPool.sol\":3132:3133  0 */\n      dup1\n        /* \"LiquidityPool.sol\":3121:3129  reserveB */\n      sload(0x04)\n        /* \"LiquidityPool.sol\":3121:3133  reserveB > 0 */\n      gt\n        /* \"LiquidityPool.sol\":3113:3150  require(reserveB > 0, \"No liquidity\") */\n      tag_176\n      jumpi\n      mload(0x40)\n      0x08c379a000000000000000000000000000000000000000000000000000000000\n      dup2\n      mstore\n      0x04\n      add\n      tag_177\n      swap1\n      tag_178\n      jump\t// in\n    tag_177:\n      mload(0x40)\n      dup1\n      swap2\n      sub\n      swap1\n      revert\n    tag_176:\n        /* \"LiquidityPool.sol\":3188:3196  reserveB */\n      sload(0x04)\n        /* \"LiquidityPool.sol\":3180:3184  1e18 */\n      0x0de0b6b3a7640000\n        /* \"LiquidityPool.sol\":3169:3177  reserveA */\n      sload(0x03)\n        /* \"LiquidityPool.sol\":3169:3184  reserveA * 1e18 */\n      tag_179\n      swap2\n      swap1\n      tag_121\n      jump\t// in\n    tag_179:\n        /* \"LiquidityPool.sol\":3168:3196  (reserveA * 1e18) / reserveB */\n      tag_180\n      swap2\n      swap1\n      tag_123\n      jump\t// in\n    tag_180:\n        /* \"LiquidityPool.sol\":3161:3196  return (reserveA * 1e18) / reserveB */\n      swap1\n      pop\n        /* \"LiquidityPool.sol\":3052:3204  function getPrice() public view returns (uint256) {... */\n      swap1\n      jump\t// out\n        /* \"LiquidityPool.sol\":7037:8074  function removeLiquidity(uint256 liquidity) public {... */\n    tag_74:\n        /* \"LiquidityPool.sol\":7115:7116  0 */\n      0x00\n        /* \"LiquidityPool.sol\":7103:7112  liquidity */\n      dup2\n        /* \"LiquidityPool.sol\":7103:7116  liquidity > 0 */\n      gt\n        /* \"LiquidityPool.sol\":7095:7145  require(liquidity > 0, \"Invalid liquidity amount\") */\n      tag_182\n      jumpi\n      mload(0x40)\n      0x08c379a000000000000000000000000000000000000000000000000000000000\n      dup2\n      mstore\n      0x04\n      add\n      tag_183\n      swap1\n      tag_184\n      jump\t// in\n    tag_183:\n      mload(0x40)\n      dup1\n      swap2\n      sub\n      swap1\n      revert\n    tag_182:\n        /* \"LiquidityPool.sol\":7193:7202  liquidity */\n      dup1\n        /* \"LiquidityPool.sol\":7160:7167  lpToken */\n      0x02\n      0x00\n      swap1\n      sload\n      swap1\n      0x0100\n      exp\n      swap1\n      div\n      0xffffffffffffffffffffffffffffffffffffffff\n      and\n        /* \"LiquidityPool.sol\":7160:7177  lpToken.balanceOf */\n      0xffffffffffffffffffffffffffffffffffffffff\n      and\n      0x70a08231\n        /* \"LiquidityPool.sol\":7178:7188  msg.sender */\n      caller\n        /* \"LiquidityPool.sol\":7160:7189  lpToken.balanceOf(msg.sender) */\n      mload(0x40)\n      dup3\n      0xffffffff\n      and\n      0xe0\n      shl\n      dup2\n      mstore\n      0x04\n      add\n      tag_185\n      swap2\n      swap1\n      tag_68\n      jump\t// in\n    tag_185:\n      0x20\n      mload(0x40)\n      dup1\n      dup4\n      sub\n      dup2\n      dup7\n      gas\n      staticcall\n      iszero\n      dup1\n      iszero\n      tag_187\n      jumpi\n      returndatasize\n      0x00\n      dup1\n      returndatacopy\n      revert(0x00, returndatasize)\n    tag_187:\n      pop\n      pop\n      pop\n      pop\n      mload(0x40)\n      returndatasize\n      not(0x1f)\n      0x1f\n      dup3\n      add\n      and\n      dup3\n      add\n      dup1\n      0x40\n      mstore\n      pop\n      dup2\n      add\n      swap1\n      tag_188\n      swap2\n      swap1\n      tag_111\n      jump\t// in\n    tag_188:\n        /* \"LiquidityPool.sol\":7160:7202  lpToken.balanceOf(msg.sender) >= liquidity */\n      lt\n      iszero\n        /* \"LiquidityPool.sol\":7152:7227  require(lpToken.balanceOf(msg.sender) >= liquidity, \"Not enough LP tokens\") */\n      tag_189\n      jumpi\n      mload(0x40)\n      0x08c379a000000000000000000000000000000000000000000000000000000000\n      dup2\n      mstore\n      0x04\n      add\n      tag_190\n      swap1\n      tag_191\n      jump\t// in\n    tag_190:\n      mload(0x40)\n      dup1\n      swap2\n      sub\n      swap1\n      revert\n    tag_189:\n        /* \"LiquidityPool.sol\":7236:7255  uint256 totalSupply */\n      0x00\n        /* \"LiquidityPool.sol\":7258:7265  lpToken */\n      0x02\n      0x00\n      swap1\n      sload\n      swap1\n      0x0100\n      exp\n      swap1\n      div\n      0xffffffffffffffffffffffffffffffffffffffff\n      and\n        /* \"LiquidityPool.sol\":7258:7277  lpToken.totalSupply */\n      0xffffffffffffffffffffffffffffffffffffffff\n      and\n      0x18160ddd\n        /* \"LiquidityPool.sol\":7258:7279  lpToken.totalSupply() */\n      mload(0x40)\n      dup2\n      0xffffffff\n      and\n      0xe0\n      shl\n      dup2\n      mstore\n      0x04\n      add\n      0x20\n      mload(0x40)\n      dup1\n      dup4\n      sub\n      dup2\n      dup7\n      gas\n      staticcall\n      iszero\n      dup1\n      iszero\n      tag_193\n      jumpi\n      returndatasize\n      0x00\n      dup1\n      returndatacopy\n      revert(0x00, returndatasize)\n    tag_193:\n      pop\n      pop\n      pop\n      pop\n      mload(0x40)\n      returndatasize\n      not(0x1f)\n      0x1f\n      dup3\n      add\n      and\n      dup3\n      add\n      dup1\n      0x40\n      mstore\n      pop\n      dup2\n      add\n      swap1\n      tag_194\n      swap2\n      swap1\n      tag_111\n      jump\t// in\n    tag_194:\n        /* \"LiquidityPool.sol\":7236:7279  uint256 totalSupply = lpToken.totalSupply() */\n      swap1\n      pop\n        /* \"LiquidityPool.sol\":7350:7365  uint256 amountA */\n      0x00\n        /* \"LiquidityPool.sol\":7393:7404  totalSupply */\n      dup2\n        /* \"LiquidityPool.sol\":7381:7389  reserveA */\n      sload(0x03)\n        /* \"LiquidityPool.sol\":7369:7378  liquidity */\n      dup5\n        /* \"LiquidityPool.sol\":7369:7389  liquidity * reserveA */\n      tag_195\n      swap2\n      swap1\n      tag_121\n      jump\t// in\n    tag_195:\n        /* \"LiquidityPool.sol\":7368:7404  (liquidity * reserveA) / totalSupply */\n      tag_196\n      swap2\n      swap1\n      tag_123\n      jump\t// in\n    tag_196:\n        /* \"LiquidityPool.sol\":7350:7404  uint256 amountA = (liquidity * reserveA) / totalSupply */\n      swap1\n      pop\n        /* \"LiquidityPool.sol\":7411:7426  uint256 amountB */\n      0x00\n        /* \"LiquidityPool.sol\":7454:7465  totalSupply */\n      dup3\n        /* \"LiquidityPool.sol\":7442:7450  reserveB */\n      sload(0x04)\n        /* \"LiquidityPool.sol\":7430:7439  liquidity */\n      dup6\n        /* \"LiquidityPool.sol\":7430:7450  liquidity * reserveB */\n      tag_197\n      swap2\n      swap1\n      tag_121\n      jump\t// in\n    tag_197:\n        /* \"LiquidityPool.sol\":7429:7465  (liquidity * reserveB) / totalSupply */\n      tag_198\n      swap2\n      swap1\n      tag_123\n      jump\t// in\n    tag_198:\n        /* \"LiquidityPool.sol\":7411:7465  uint256 amountB = (liquidity * reserveB) / totalSupply */\n      swap1\n      pop\n        /* \"LiquidityPool.sol\":7492:7493  0 */\n      0x00\n        /* \"LiquidityPool.sol\":7482:7489  amountA */\n      dup3\n        /* \"LiquidityPool.sol\":7482:7493  amountA > 0 */\n      gt\n        /* \"LiquidityPool.sol\":7482:7508  amountA > 0 && amountB > 0 */\n      dup1\n      iszero\n      tag_199\n      jumpi\n      pop\n        /* \"LiquidityPool.sol\":7507:7508  0 */\n      0x00\n        /* \"LiquidityPool.sol\":7497:7504  amountB */\n      dup2\n        /* \"LiquidityPool.sol\":7497:7508  amountB > 0 */\n      gt\n        /* \"LiquidityPool.sol\":7482:7508  amountA > 0 && amountB > 0 */\n    tag_199:\n        /* \"LiquidityPool.sol\":7474:7544  require(amountA > 0 && amountB > 0, \"Insufficient amount to withdraw\") */\n      tag_200\n      jumpi\n      mload(0x40)\n      0x08c379a000000000000000000000000000000000000000000000000000000000\n      dup2\n      mstore\n      0x04\n      add\n      tag_201\n      swap1\n      tag_202\n      jump\t// in\n    tag_201:\n      mload(0x40)\n      dup1\n      swap2\n      sub\n      swap1\n      revert\n    tag_200:\n        /* \"LiquidityPool.sol\":7748:7755  lpToken */\n      0x02\n      0x00\n      swap1\n      sload\n      swap1\n      0x0100\n      exp\n      swap1\n      div\n      0xffffffffffffffffffffffffffffffffffffffff\n      and\n        /* \"LiquidityPool.sol\":7748:7760  lpToken.burn */\n      0xffffffffffffffffffffffffffffffffffffffff\n      and\n      0x9dc29fac\n        /* \"LiquidityPool.sol\":7761:7771  msg.sender */\n      caller\n        /* \"LiquidityPool.sol\":7773:7782  liquidity */\n      dup7\n        /* \"LiquidityPool.sol\":7748:7783  lpToken.burn(msg.sender, liquidity) */\n      mload(0x40)\n      dup4\n      0xffffffff\n      and\n      0xe0\n      shl\n      dup2\n      mstore\n      0x04\n      add\n      tag_203\n      swap3\n      swap2\n      swap1\n      tag_145\n      jump\t// in\n    tag_203:\n      0x00\n      mload(0x40)\n      dup1\n      dup4\n      sub\n      dup2\n      0x00\n      dup8\n      dup1\n      extcodesize\n      iszero\n      dup1\n      iszero\n      tag_204\n      jumpi\n      0x00\n      dup1\n      revert\n    tag_204:\n      pop\n      gas\n      call\n      iszero\n      dup1\n      iszero\n      tag_206\n      jumpi\n      returndatasize\n      0x00\n      dup1\n      returndatacopy\n      revert(0x00, returndatasize)\n    tag_206:\n      pop\n      pop\n      pop\n      pop\n        /* \"LiquidityPool.sol\":7836:7843  amountA */\n      dup2\n        /* \"LiquidityPool.sol\":7824:7832  reserveA */\n      0x03\n      0x00\n        /* \"LiquidityPool.sol\":7824:7843  reserveA -= amountA */\n      dup3\n      dup3\n      sload\n      tag_207\n      swap2\n      swap1\n      tag_125\n      jump\t// in\n    tag_207:\n      swap3\n      pop\n      pop\n      dup2\n      swap1\n      sstore\n      pop\n        /* \"LiquidityPool.sol\":7862:7869  amountB */\n      dup1\n        /* \"LiquidityPool.sol\":7850:7858  reserveB */\n      0x04\n      0x00\n        /* \"LiquidityPool.sol\":7850:7869  reserveB -= amountB */\n      dup3\n      dup3\n      sload\n      tag_208\n      swap2\n      swap1\n      tag_125\n      jump\t// in\n    tag_208:\n      swap3\n      pop\n      pop\n      dup2\n      swap1\n      sstore\n      pop\n        /* \"LiquidityPool.sol\":7927:7933  tokenA */\n      0x00\n      dup1\n      sload\n      swap1\n      0x0100\n      exp\n      swap1\n      div\n      0xffffffffffffffffffffffffffffffffffffffff\n      and\n        /* \"LiquidityPool.sol\":7927:7942  tokenA.transfer */\n      0xffffffffffffffffffffffffffffffffffffffff\n      and\n      0xa9059cbb\n        /* \"LiquidityPool.sol\":7943:7953  msg.sender */\n      caller\n        /* \"LiquidityPool.sol\":7955:7962  amountA */\n      dup5\n        /* \"LiquidityPool.sol\":7927:7963  tokenA.transfer(msg.sender, amountA) */\n      mload(0x40)\n      dup4\n      0xffffffff\n      and\n      0xe0\n      shl\n      dup2\n      mstore\n      0x04\n      add\n      tag_209\n      swap3\n      swap2\n      swap1\n      tag_145\n      jump\t// in\n    tag_209:\n      0x20\n      mload(0x40)\n      dup1\n      dup4\n      sub\n      dup2\n      0x00\n      dup8\n      gas\n      call\n      iszero\n      dup1\n      iszero\n      tag_211\n      jumpi\n      returndatasize\n      0x00\n      dup1\n      returndatacopy\n      revert(0x00, returndatasize)\n    tag_211:\n      pop\n      pop\n      pop\n      pop\n      mload(0x40)\n      returndatasize\n      not(0x1f)\n      0x1f\n      dup3\n      add\n      and\n      dup3\n      add\n      dup1\n      0x40\n      mstore\n      pop\n      dup2\n      add\n      swap1\n      tag_212\n      swap2\n      swap1\n      tag_140\n      jump\t// in\n    tag_212:\n        /* \"LiquidityPool.sol\":7919:7991  require(tokenA.transfer(msg.sender, amountA), \"Token A transfer failed\") */\n      tag_213\n      jumpi\n      mload(0x40)\n      0x08c379a000000000000000000000000000000000000000000000000000000000\n      dup2\n      mstore\n      0x04\n      add\n      tag_214\n      swap1\n      tag_151\n      jump\t// in\n    tag_214:\n      mload(0x40)\n      dup1\n      swap2\n      sub\n      swap1\n      revert\n    tag_213:\n        /* \"LiquidityPool.sol\":8006:8012  tokenB */\n      0x01\n      0x00\n      swap1\n      sload\n      swap1\n      0x0100\n      exp\n      swap1\n      div\n      0xffffffffffffffffffffffffffffffffffffffff\n      and\n        /* \"LiquidityPool.sol\":8006:8021  tokenB.transfer */\n      0xffffffffffffffffffffffffffffffffffffffff\n      and\n      0xa9059cbb\n        /* \"LiquidityPool.sol\":8022:8032  msg.sender */\n      caller\n        /* \"LiquidityPool.sol\":8034:8041  amountB */\n      dup4\n        /* \"LiquidityPool.sol\":8006:8042  tokenB.transfer(msg.sender, amountB) */\n      mload(0x40)\n      dup4\n      0xffffffff\n      and\n      0xe0\n      shl\n      dup2\n      mstore\n      0x04\n      add\n      tag_215\n      swap3\n      swap2\n      swap1\n      tag_145\n      jump\t// in\n    tag_215:\n      0x20\n      mload(0x40)\n      dup1\n      dup4\n      sub\n      dup2\n      0x00\n      dup8\n      gas\n      call\n      iszero\n      dup1\n      iszero\n      tag_217\n      jumpi\n      returndatasize\n      0x00\n      dup1\n      returndatacopy\n      revert(0x00, returndatasize)\n    tag_217:\n      pop\n      pop\n      pop\n      pop\n      mload(0x40)\n      returndatasize\n      not(0x1f)\n      0x1f\n      dup3\n      add\n      and\n      dup3\n      add\n      dup1\n      0x40\n      mstore\n      pop\n      dup2\n      add\n      swap1\n      tag_218\n      swap2\n      swap1\n      tag_140\n      jump\t// in\n    tag_218:\n        /* \"LiquidityPool.sol\":7998:8070  require(tokenB.transfer(msg.sender, amountB), \"Token B transfer failed\") */\n      tag_219\n      jumpi\n      mload(0x40)\n      0x08c379a000000000000000000000000000000000000000000000000000000000\n      dup2\n      mstore\n      0x04\n      add\n      tag_220\n      swap1\n      tag_143\n      jump\t// in\n    tag_220:\n      mload(0x40)\n      dup1\n      swap2\n      sub\n      swap1\n      revert\n    tag_219:\n        /* \"LiquidityPool.sol\":7088:8074  {... */\n      pop\n      pop\n      pop\n        /* \"LiquidityPool.sol\":7037:8074  function removeLiquidity(uint256 liquidity) public {... */\n      pop\n      jump\t// out\n        /* \"LiquidityPool.sol\":1547:2619  function addLiquidity(uint256 amountA, uint256 amountB) public returns (uint256 liquidity) {... */\n    tag_77:\n        /* \"LiquidityPool.sol\":1619:1636  uint256 liquidity */\n      0x00\n        /* \"LiquidityPool.sol\":1667:1668  0 */\n      dup1\n        /* \"LiquidityPool.sol\":1657:1664  amountA */\n      dup4\n        /* \"LiquidityPool.sol\":1657:1668  amountA > 0 */\n      gt\n        /* \"LiquidityPool.sol\":1657:1683  amountA > 0 && amountB > 0 */\n      dup1\n      iszero\n      tag_222\n      jumpi\n      pop\n        /* \"LiquidityPool.sol\":1682:1683  0 */\n      0x00\n        /* \"LiquidityPool.sol\":1672:1679  amountB */\n      dup3\n        /* \"LiquidityPool.sol\":1672:1683  amountB > 0 */\n      gt\n        /* \"LiquidityPool.sol\":1657:1683  amountA > 0 && amountB > 0 */\n    tag_222:\n        /* \"LiquidityPool.sol\":1649:1703  require(amountA > 0 && amountB > 0, \"Invalid amounts\") */\n      tag_223\n      jumpi\n      mload(0x40)\n      0x08c379a000000000000000000000000000000000000000000000000000000000\n      dup2\n      mstore\n      0x04\n      add\n      tag_224\n      swap1\n      tag_225\n      jump\t// in\n    tag_224:\n      mload(0x40)\n      dup1\n      swap2\n      sub\n      swap1\n      revert\n    tag_223:\n        /* \"LiquidityPool.sol\":1779:1785  tokenA */\n      0x00\n      dup1\n      sload\n      swap1\n      0x0100\n      exp\n      swap1\n      div\n      0xffffffffffffffffffffffffffffffffffffffff\n      and\n        /* \"LiquidityPool.sol\":1779:1798  tokenA.transferFrom */\n      0xffffffffffffffffffffffffffffffffffffffff\n      and\n      0x23b872dd\n        /* \"LiquidityPool.sol\":1799:1809  msg.sender */\n      caller\n        /* \"LiquidityPool.sol\":1819:1823  this */\n      address\n        /* \"LiquidityPool.sol\":1826:1833  amountA */\n      dup7\n        /* \"LiquidityPool.sol\":1779:1834  tokenA.transferFrom(msg.sender, address(this), amountA) */\n      mload(0x40)\n      dup5\n      0xffffffff\n      and\n      0xe0\n      shl\n      dup2\n      mstore\n      0x04\n      add\n      tag_226\n      swap4\n      swap3\n      swap2\n      swap1\n      tag_136\n      jump\t// in\n    tag_226:\n      0x20\n      mload(0x40)\n      dup1\n      dup4\n      sub\n      dup2\n      0x00\n      dup8\n      gas\n      call\n      iszero\n      dup1\n      iszero\n      tag_228\n      jumpi\n      returndatasize\n      0x00\n      dup1\n      returndatacopy\n      revert(0x00, returndatasize)\n    tag_228:\n      pop\n      pop\n      pop\n      pop\n      mload(0x40)\n      returndatasize\n      not(0x1f)\n      0x1f\n      dup3\n      add\n      and\n      dup3\n      add\n      dup1\n      0x40\n      mstore\n      pop\n      dup2\n      add\n      swap1\n      tag_229\n      swap2\n      swap1\n      tag_140\n      jump\t// in\n    tag_229:\n        /* \"LiquidityPool.sol\":1771:1861  require(tokenA.transferFrom(msg.sender, address(this), amountA), \"TokenA transfer failed\") */\n      tag_230\n      jumpi\n      mload(0x40)\n      0x08c379a000000000000000000000000000000000000000000000000000000000\n      dup2\n      mstore\n      0x04\n      add\n      tag_231\n      swap1\n      tag_232\n      jump\t// in\n    tag_231:\n      mload(0x40)\n      dup1\n      swap2\n      sub\n      swap1\n      revert\n    tag_230:\n        /* \"LiquidityPool.sol\":1880:1886  tokenB */\n      0x01\n      0x00\n      swap1\n      sload\n      swap1\n      0x0100\n      exp\n      swap1\n      div\n      0xffffffffffffffffffffffffffffffffffffffff\n      and\n        /* \"LiquidityPool.sol\":1880:1899  tokenB.transferFrom */\n      0xffffffffffffffffffffffffffffffffffffffff\n      and\n      0x23b872dd\n        /* \"LiquidityPool.sol\":1900:1910  msg.sender */\n      caller\n        /* \"LiquidityPool.sol\":1920:1924  this */\n      address\n        /* \"LiquidityPool.sol\":1927:1934  amountB */\n      dup6\n        /* \"LiquidityPool.sol\":1880:1935  tokenB.transferFrom(msg.sender, address(this), amountB) */\n      mload(0x40)\n      dup5\n      0xffffffff\n      and\n      0xe0\n      shl\n      dup2\n      mstore\n      0x04\n      add\n      tag_233\n      swap4\n      swap3\n      swap2\n      swap1\n      tag_136\n      jump\t// in\n    tag_233:\n      0x20\n      mload(0x40)\n      dup1\n      dup4\n      sub\n      dup2\n      0x00\n      dup8\n      gas\n      call\n      iszero\n      dup1\n      iszero\n      tag_235\n      jumpi\n      returndatasize\n      0x00\n      dup1\n      returndatacopy\n      revert(0x00, returndatasize)\n    tag_235:\n      pop\n      pop\n      pop\n      pop\n      mload(0x40)\n      returndatasize\n      not(0x1f)\n      0x1f\n      dup3\n      add\n      and\n      dup3\n      add\n      dup1\n      0x40\n      mstore\n      pop\n      dup2\n      add\n      swap1\n      tag_236\n      swap2\n      swap1\n      tag_140\n      jump\t// in\n    tag_236:\n        /* \"LiquidityPool.sol\":1872:1962  require(tokenB.transferFrom(msg.sender, address(this), amountB), \"TokenB transfer failed\") */\n      tag_237\n      jumpi\n      mload(0x40)\n      0x08c379a000000000000000000000000000000000000000000000000000000000\n      dup2\n      mstore\n      0x04\n      add\n      tag_238\n      swap1\n      tag_239\n      jump\t// in\n    tag_238:\n      mload(0x40)\n      dup1\n      swap2\n      sub\n      swap1\n      revert\n    tag_237:\n        /* \"LiquidityPool.sol\":1975:1994  uint256 totalSupply */\n      0x00\n        /* \"LiquidityPool.sol\":1997:2004  lpToken */\n      0x02\n      0x00\n      swap1\n      sload\n      swap1\n      0x0100\n      exp\n      swap1\n      div\n      0xffffffffffffffffffffffffffffffffffffffff\n      and\n        /* \"LiquidityPool.sol\":1997:2016  lpToken.totalSupply */\n      0xffffffffffffffffffffffffffffffffffffffff\n      and\n      0x18160ddd\n        /* \"LiquidityPool.sol\":1997:2018  lpToken.totalSupply() */\n      mload(0x40)\n      dup2\n      0xffffffff\n      and\n      0xe0\n      shl\n      dup2\n      mstore\n      0x04\n      add\n      0x20\n      mload(0x40)\n      dup1\n      dup4\n      sub\n      dup2\n      dup7\n      gas\n      staticcall\n      iszero\n      dup1\n      iszero\n      tag_241\n      jumpi\n      returndatasize\n      0x00\n      dup1\n      returndatacopy\n      revert(0x00, returndatasize)\n    tag_241:\n      pop\n      pop\n      pop\n      pop\n      mload(0x40)\n      returndatasize\n      not(0x1f)\n      0x1f\n      dup3\n      add\n      and\n      dup3\n      add\n      dup1\n      0x40\n      mstore\n      pop\n      dup2\n      add\n      swap1\n      tag_242\n      swap2\n      swap1\n      tag_111\n      jump\t// in\n    tag_242:\n        /* \"LiquidityPool.sol\":1975:2018  uint256 totalSupply = lpToken.totalSupply() */\n      swap1\n      pop\n        /* \"LiquidityPool.sol\":2050:2051  0 */\n      0x00\n        /* \"LiquidityPool.sol\":2035:2046  totalSupply */\n      dup2\n        /* \"LiquidityPool.sol\":2035:2051  totalSupply == 0 */\n      sub\n        /* \"LiquidityPool.sol\":2031:2378  if (totalSupply == 0) {... */\n      tag_243\n      jumpi\n        /* \"LiquidityPool.sol\":2105:2128  sqrt(amountA * amountB) */\n      tag_244\n        /* \"LiquidityPool.sol\":2120:2127  amountB */\n      dup4\n        /* \"LiquidityPool.sol\":2110:2117  amountA */\n      dup6\n        /* \"LiquidityPool.sol\":2110:2127  amountA * amountB */\n      tag_245\n      swap2\n      swap1\n      tag_121\n      jump\t// in\n    tag_245:\n        /* \"LiquidityPool.sol\":2105:2109  sqrt */\n      tag_246\n        /* \"LiquidityPool.sol\":2105:2128  sqrt(amountA * amountB) */\n      jump\t// in\n    tag_244:\n        /* \"LiquidityPool.sol\":2093:2128  liquidity = sqrt(amountA * amountB) */\n      swap2\n      pop\n        /* \"LiquidityPool.sol\":2031:2378  if (totalSupply == 0) {... */\n      jump(tag_247)\n    tag_243:\n        /* \"LiquidityPool.sol\":2171:2193  uint256 liquidityFromA */\n      0x00\n        /* \"LiquidityPool.sol\":2222:2230  reserveA */\n      sload(0x03)\n        /* \"LiquidityPool.sol\":2207:2218  totalSupply */\n      dup3\n        /* \"LiquidityPool.sol\":2197:2204  amountA */\n      dup7\n        /* \"LiquidityPool.sol\":2197:2218  amountA * totalSupply */\n      tag_248\n      swap2\n      swap1\n      tag_121\n      jump\t// in\n    tag_248:\n        /* \"LiquidityPool.sol\":2196:2230  (amountA * totalSupply) / reserveA */\n      tag_249\n      swap2\n      swap1\n      tag_123\n      jump\t// in\n    tag_249:\n        /* \"LiquidityPool.sol\":2171:2230  uint256 liquidityFromA = (amountA * totalSupply) / reserveA */\n      swap1\n      pop\n        /* \"LiquidityPool.sol\":2245:2267  uint256 liquidityFromB */\n      0x00\n        /* \"LiquidityPool.sol\":2296:2304  reserveB */\n      sload(0x04)\n        /* \"LiquidityPool.sol\":2281:2292  totalSupply */\n      dup4\n        /* \"LiquidityPool.sol\":2271:2278  amountB */\n      dup7\n        /* \"LiquidityPool.sol\":2271:2292  amountB * totalSupply */\n      tag_250\n      swap2\n      swap1\n      tag_121\n      jump\t// in\n    tag_250:\n        /* \"LiquidityPool.sol\":2270:2304  (amountB * totalSupply) / reserveB */\n      tag_251\n      swap2\n      swap1\n      tag_123\n      jump\t// in\n    tag_251:\n        /* \"LiquidityPool.sol\":2245:2304  uint256 liquidityFromB = (amountB * totalSupply) / reserveB */\n      swap1\n      pop\n        /* \"LiquidityPool.sol\":2331:2366  min(liquidityFromA, liquidityFromB) */\n      tag_252\n        /* \"LiquidityPool.sol\":2335:2349  liquidityFromA */\n      dup3\n        /* \"LiquidityPool.sol\":2351:2365  liquidityFromB */\n      dup3\n        /* \"LiquidityPool.sol\":2331:2334  min */\n      tag_253\n        /* \"LiquidityPool.sol\":2331:2366  min(liquidityFromA, liquidityFromB) */\n      jump\t// in\n    tag_252:\n        /* \"LiquidityPool.sol\":2319:2366  liquidity = min(liquidityFromA, liquidityFromB) */\n      swap4\n      pop\n        /* \"LiquidityPool.sol\":2146:2378  {... */\n      pop\n      pop\n        /* \"LiquidityPool.sol\":2031:2378  if (totalSupply == 0) {... */\n    tag_247:\n        /* \"LiquidityPool.sol\":2410:2411  0 */\n      0x00\n        /* \"LiquidityPool.sol\":2398:2407  liquidity */\n      dup3\n        /* \"LiquidityPool.sol\":2398:2411  liquidity > 0 */\n      gt\n        /* \"LiquidityPool.sol\":2390:2438  require(liquidity > 0, \"Insufficient liquidity\") */\n      tag_254\n      jumpi\n      mload(0x40)\n      0x08c379a000000000000000000000000000000000000000000000000000000000\n      dup2\n      mstore\n      0x04\n      add\n      tag_255\n      swap1\n      tag_170\n      jump\t// in\n    tag_255:\n      mload(0x40)\n      dup1\n      swap2\n      sub\n      swap1\n      revert\n    tag_254:\n        /* \"LiquidityPool.sol\":2486:2493  lpToken */\n      0x02\n      0x00\n      swap1\n      sload\n      swap1\n      0x0100\n      exp\n      swap1\n      div\n      0xffffffffffffffffffffffffffffffffffffffff\n      and\n        /* \"LiquidityPool.sol\":2486:2498  lpToken.mint */\n      0xffffffffffffffffffffffffffffffffffffffff\n      and\n      0x40c10f19\n        /* \"LiquidityPool.sol\":2499:2509  msg.sender */\n      caller\n        /* \"LiquidityPool.sol\":2511:2520  liquidity */\n      dup5\n        /* \"LiquidityPool.sol\":2486:2521  lpToken.mint(msg.sender, liquidity) */\n      mload(0x40)\n      dup4\n      0xffffffff\n      and\n      0xe0\n      shl\n      dup2\n      mstore\n      0x04\n      add\n      tag_256\n      swap3\n      swap2\n      swap1\n      tag_145\n      jump\t// in\n    tag_256:\n      0x00\n      mload(0x40)\n      dup1\n      dup4\n      sub\n      dup2\n      0x00\n      dup8\n      dup1\n      extcodesize\n      iszero\n      dup1\n      iszero\n      tag_257\n      jumpi\n      0x00\n      dup1\n      revert\n    tag_257:\n      pop\n      gas\n      call\n      iszero\n      dup1\n      iszero\n      tag_259\n      jumpi\n      returndatasize\n      0x00\n      dup1\n      returndatacopy\n      revert(0x00, returndatasize)\n    tag_259:\n      pop\n      pop\n      pop\n      pop\n        /* \"LiquidityPool.sol\":2574:2581  amountA */\n      dup4\n        /* \"LiquidityPool.sol\":2562:2570  reserveA */\n      0x03\n      0x00\n        /* \"LiquidityPool.sol\":2562:2581  reserveA += amountA */\n      dup3\n      dup3\n      sload\n      tag_260\n      swap2\n      swap1\n      tag_131\n      jump\t// in\n    tag_260:\n      swap3\n      pop\n      pop\n      dup2\n      swap1\n      sstore\n      pop\n        /* \"LiquidityPool.sol\":2604:2611  amountB */\n      dup3\n        /* \"LiquidityPool.sol\":2592:2600  reserveB */\n      0x04\n      0x00\n        /* \"LiquidityPool.sol\":2592:2611  reserveB += amountB */\n      dup3\n      dup3\n      sload\n      tag_261\n      swap2\n      swap1\n      tag_131\n      jump\t// in\n    tag_261:\n      swap3\n      pop\n      pop\n      dup2\n      swap1\n      sstore\n      pop\n        /* \"LiquidityPool.sol\":1638:2619  {... */\n      pop\n        /* \"LiquidityPool.sol\":1547:2619  function addLiquidity(uint256 amountA, uint256 amountB) public returns (uint256 liquidity) {... */\n      swap3\n      swap2\n      pop\n      pop\n      jump\t// out\n        /* \"LiquidityPool.sol\":935:963  uint public  feePercentage=3 */\n    tag_80:\n      sload(0x06)\n      dup2\n      jump\t// out\n        /* \"LiquidityPool.sol\":1360:1537  function setSlipage(uint256 _expectedSlipage) public onlyOwner {... */\n    tag_84:\n        /* \"LiquidityPool.sol\":1053:1058  owner */\n      0x07\n      0x00\n      swap1\n      sload\n      swap1\n      0x0100\n      exp\n      swap1\n      div\n      0xffffffffffffffffffffffffffffffffffffffff\n      and\n        /* \"LiquidityPool.sol\":1039:1058  msg.sender == owner */\n      0xffffffffffffffffffffffffffffffffffffffff\n      and\n        /* \"LiquidityPool.sol\":1039:1049  msg.sender */\n      caller\n        /* \"LiquidityPool.sol\":1039:1058  msg.sender == owner */\n      0xffffffffffffffffffffffffffffffffffffffff\n      and\n      eq\n        /* \"LiquidityPool.sol\":1031:1077  require(msg.sender == owner, \"Not authorized\") */\n      tag_263\n      jumpi\n      mload(0x40)\n      0x08c379a000000000000000000000000000000000000000000000000000000000\n      dup2\n      mstore\n      0x04\n      add\n      tag_264\n      swap1\n      tag_265\n      jump\t// in\n    tag_264:\n      mload(0x40)\n      dup1\n      swap2\n      sub\n      swap1\n      revert\n    tag_263:\n        /* \"LiquidityPool.sol\":1461:1462  0 */\n      0x00\n        /* \"LiquidityPool.sol\":1442:1458  _expectedSlipage */\n      dup2\n        /* \"LiquidityPool.sol\":1442:1462  _expectedSlipage > 0 */\n      gt\n        /* \"LiquidityPool.sol\":1434:1483  require(_expectedSlipage > 0, \"invalid slippage\") */\n      tag_267\n      jumpi\n      mload(0x40)\n      0x08c379a000000000000000000000000000000000000000000000000000000000\n      dup2\n      mstore\n      0x04\n      add\n      tag_268\n      swap1\n      tag_269\n      jump\t// in\n    tag_268:\n      mload(0x40)\n      dup1\n      swap2\n      sub\n      swap1\n      revert\n    tag_267:\n        /* \"LiquidityPool.sol\":1513:1529  _expectedSlipage */\n      dup1\n        /* \"LiquidityPool.sol\":1494:1510  expextedSlippage */\n      0x05\n        /* \"LiquidityPool.sol\":1494:1529  expextedSlippage = _expectedSlipage */\n      dup2\n      swap1\n      sstore\n      pop\n        /* \"LiquidityPool.sol\":1360:1537  function setSlipage(uint256 _expectedSlipage) public onlyOwner {... */\n      pop\n      jump\t// out\n        /* \"LiquidityPool.sol\":6661:7002  function getExpectedTokenA(uint256 amountIn) public view returns (uint256 expectedOut) {... */\n    tag_87:\n        /* \"LiquidityPool.sol\":6727:6746  uint256 expectedOut */\n      0x00\n        /* \"LiquidityPool.sol\":6778:6779  0 */\n      dup1\n        /* \"LiquidityPool.sol\":6767:6775  amountIn */\n      dup3\n        /* \"LiquidityPool.sol\":6767:6779  amountIn > 0 */\n      gt\n        /* \"LiquidityPool.sol\":6759:6798  require(amountIn > 0, \"Invalid amount\") */\n      tag_271\n      jumpi\n      mload(0x40)\n      0x08c379a000000000000000000000000000000000000000000000000000000000\n      dup2\n      mstore\n      0x04\n      add\n      tag_272\n      swap1\n      tag_167\n      jump\t// in\n    tag_272:\n      mload(0x40)\n      dup1\n      swap2\n      sub\n      swap1\n      revert\n    tag_271:\n        /* \"LiquidityPool.sol\":6830:6831  0 */\n      0x00\n        /* \"LiquidityPool.sol\":6819:6827  reserveA */\n      sload(0x03)\n        /* \"LiquidityPool.sol\":6819:6831  reserveA > 0 */\n      gt\n        /* \"LiquidityPool.sol\":6811:6858  require(reserveA > 0, \"Insufficient liquidity\") */\n      tag_273\n      jumpi\n      mload(0x40)\n      0x08c379a000000000000000000000000000000000000000000000000000000000\n      dup2\n      mstore\n      0x04\n      add\n      tag_274\n      swap1\n      tag_170\n      jump\t// in\n    tag_274:\n      mload(0x40)\n      dup1\n      swap2\n      sub\n      swap1\n      revert\n    tag_273:\n        /* \"LiquidityPool.sol\":6869:6882  uint256 ratio */\n      0x00\n        /* \"LiquidityPool.sol\":6905:6913  reserveA */\n      sload(0x03)\n        /* \"LiquidityPool.sol\":6897:6901  1e18 */\n      0x0de0b6b3a7640000\n        /* \"LiquidityPool.sol\":6886:6894  reserveB */\n      sload(0x04)\n        /* \"LiquidityPool.sol\":6886:6901  reserveB * 1e18 */\n      tag_275\n      swap2\n      swap1\n      tag_121\n      jump\t// in\n    tag_275:\n        /* \"LiquidityPool.sol\":6885:6913  (reserveB * 1e18) / reserveA */\n      tag_276\n      swap2\n      swap1\n      tag_123\n      jump\t// in\n    tag_276:\n        /* \"LiquidityPool.sol\":6869:6913  uint256 ratio = (reserveB * 1e18) / reserveA */\n      swap1\n      pop\n        /* \"LiquidityPool.sol\":6960:6965  ratio */\n      dup1\n        /* \"LiquidityPool.sol\":6952:6956  1e18 */\n      0x0de0b6b3a7640000\n        /* \"LiquidityPool.sol\":6941:6949  amountIn */\n      dup5\n        /* \"LiquidityPool.sol\":6941:6956  amountIn * 1e18 */\n      tag_277\n      swap2\n      swap1\n      tag_121\n      jump\t// in\n    tag_277:\n        /* \"LiquidityPool.sol\":6940:6965  (amountIn * 1e18) / ratio */\n      tag_278\n      swap2\n      swap1\n      tag_123\n      jump\t// in\n    tag_278:\n        /* \"LiquidityPool.sol\":6926:6965  expectedOut = (amountIn * 1e18) / ratio */\n      swap2\n      pop\n        /* \"LiquidityPool.sol\":6976:6994  return expectedOut */\n      pop\n        /* \"LiquidityPool.sol\":6661:7002  function getExpectedTokenA(uint256 amountIn) public view returns (uint256 expectedOut) {... */\n      swap2\n      swap1\n      pop\n      jump\t// out\n        /* \"LiquidityPool.sol\":897:928  uint256 public expextedSlippage */\n    tag_90:\n      sload(0x05)\n      dup2\n      jump\t// out\n        /* \"LiquidityPool.sol\":5690:6196  function checkSlippageB(uint256 amountIn) public view returns (uint256) {... */\n    tag_94:\n        /* \"LiquidityPool.sol\":5753:5760  uint256 */\n      0x00\n        /* \"LiquidityPool.sol\":5792:5793  0 */\n      dup1\n        /* \"LiquidityPool.sol\":5781:5789  amountIn */\n      dup3\n        /* \"LiquidityPool.sol\":5781:5793  amountIn > 0 */\n      gt\n        /* \"LiquidityPool.sol\":5773:5816  require(amountIn > 0, \"give correct value\") */\n      tag_280\n      jumpi\n      mload(0x40)\n      0x08c379a000000000000000000000000000000000000000000000000000000000\n      dup2\n      mstore\n      0x04\n      add\n      tag_281\n      swap1\n      tag_155\n      jump\t// in\n    tag_281:\n      mload(0x40)\n      dup1\n      swap2\n      sub\n      swap1\n      revert\n    tag_280:\n        /* \"LiquidityPool.sol\":5829:5849  uint256 expectAmount */\n      0x00\n        /* \"LiquidityPool.sol\":5852:5879  getExpectedTokenA(amountIn) */\n      tag_282\n        /* \"LiquidityPool.sol\":5870:5878  amountIn */\n      dup4\n        /* \"LiquidityPool.sol\":5852:5869  getExpectedTokenA */\n      tag_87\n        /* \"LiquidityPool.sol\":5852:5879  getExpectedTokenA(amountIn) */\n      jump\t// in\n    tag_282:\n        /* \"LiquidityPool.sol\":5829:5879  uint256 expectAmount = getExpectedTokenA(amountIn) */\n      swap1\n      pop\n        /* \"LiquidityPool.sol\":5892:5911  uint256 newReserveB */\n      0x00\n        /* \"LiquidityPool.sol\":5925:5933  amountIn */\n      dup4\n        /* \"LiquidityPool.sol\":5914:5922  reserveB */\n      sload(0x04)\n        /* \"LiquidityPool.sol\":5914:5933  reserveB + amountIn */\n      tag_283\n      swap2\n      swap1\n      tag_131\n      jump\t// in\n    tag_283:\n        /* \"LiquidityPool.sol\":5892:5933  uint256 newReserveB = reserveB + amountIn */\n      swap1\n      pop\n        /* \"LiquidityPool.sol\":5944:5953  uint256 k */\n      0x00\n        /* \"LiquidityPool.sol\":5967:5975  reserveB */\n      sload(0x04)\n        /* \"LiquidityPool.sol\":5956:5964  reserveA */\n      sload(0x03)\n        /* \"LiquidityPool.sol\":5956:5975  reserveA * reserveB */\n      tag_284\n      swap2\n      swap1\n      tag_121\n      jump\t// in\n    tag_284:\n        /* \"LiquidityPool.sol\":5944:5975  uint256 k = reserveA * reserveB */\n      swap1\n      pop\n        /* \"LiquidityPool.sol\":5986:6005  uint256 newReserveA */\n      0x00\n        /* \"LiquidityPool.sol\":6012:6023  newReserveB */\n      dup3\n        /* \"LiquidityPool.sol\":6008:6009  k */\n      dup3\n        /* \"LiquidityPool.sol\":6008:6023  k / newReserveB */\n      tag_285\n      swap2\n      swap1\n      tag_123\n      jump\t// in\n    tag_285:\n        /* \"LiquidityPool.sol\":5986:6023  uint256 newReserveA = k / newReserveB */\n      swap1\n      pop\n        /* \"LiquidityPool.sol\":6034:6051  uint256 amountOut */\n      0x00\n        /* \"LiquidityPool.sol\":6065:6076  newReserveA */\n      dup2\n        /* \"LiquidityPool.sol\":6054:6062  reserveA */\n      sload(0x03)\n        /* \"LiquidityPool.sol\":6054:6076  reserveA - newReserveA */\n      tag_286\n      swap2\n      swap1\n      tag_125\n      jump\t// in\n    tag_286:\n        /* \"LiquidityPool.sol\":6034:6076  uint256 amountOut = reserveA - newReserveA */\n      swap1\n      pop\n        /* \"LiquidityPool.sol\":6089:6112  uint256 slippagePercent */\n      0x00\n        /* \"LiquidityPool.sol\":6142:6154  expectAmount */\n      dup6\n        /* \"LiquidityPool.sol\":6135:6138  100 */\n      0x64\n        /* \"LiquidityPool.sol\":6123:6132  amountOut */\n      dup4\n        /* \"LiquidityPool.sol\":6123:6138  amountOut * 100 */\n      tag_287\n      swap2\n      swap1\n      tag_121\n      jump\t// in\n    tag_287:\n        /* \"LiquidityPool.sol\":6122:6154  (amountOut * 100) / expectAmount */\n      tag_288\n      swap2\n      swap1\n      tag_123\n      jump\t// in\n    tag_288:\n        /* \"LiquidityPool.sol\":6115:6118  100 */\n      0x64\n        /* \"LiquidityPool.sol\":6115:6155  100 - ((amountOut * 100) / expectAmount) */\n      tag_289\n      swap2\n      swap1\n      tag_125\n      jump\t// in\n    tag_289:\n        /* \"LiquidityPool.sol\":6089:6155  uint256 slippagePercent = 100 - ((amountOut * 100) / expectAmount) */\n      swap1\n      pop\n        /* \"LiquidityPool.sol\":6173:6188  slippagePercent */\n      dup1\n        /* \"LiquidityPool.sol\":6166:6188  return slippagePercent */\n      swap7\n      pop\n      pop\n      pop\n      pop\n      pop\n      pop\n      pop\n        /* \"LiquidityPool.sol\":5690:6196  function checkSlippageB(uint256 amountIn) public view returns (uint256) {... */\n      swap2\n      swap1\n      pop\n      jump\t// out\n        /* \"LiquidityPool.sol\":8195:8288  function getLPTokenAddress() public view returns (address) {... */\n    tag_97:\n        /* \"LiquidityPool.sol\":8245:8252  address */\n      0x00\n        /* \"LiquidityPool.sol\":8276:8283  lpToken */\n      0x02\n      0x00\n      swap1\n      sload\n      swap1\n      0x0100\n      exp\n      swap1\n      div\n      0xffffffffffffffffffffffffffffffffffffffff\n      and\n        /* \"LiquidityPool.sol\":8261:8284  return address(lpToken) */\n      swap1\n      pop\n        /* \"LiquidityPool.sol\":8195:8288  function getLPTokenAddress() public view returns (address) {... */\n      swap1\n      jump\t// out\n        /* \"LiquidityPool.sol\":837:860  uint256 public reserveA */\n    tag_100:\n      sload(0x03)\n      dup2\n      jump\t// out\n        /* \"LiquidityPool.sol\":3232:4152  function swapAtoB(uint256 amountIn, uint256 expectSlippage) public returns (uint256) {... */\n    tag_104:\n        /* \"LiquidityPool.sol\":3308:3315  uint256 */\n      0x00\n        /* \"LiquidityPool.sol\":3347:3348  0 */\n      dup1\n        /* \"LiquidityPool.sol\":3336:3344  amountIn */\n      dup4\n        /* \"LiquidityPool.sol\":3336:3348  amountIn > 0 */\n      gt\n        /* \"LiquidityPool.sol\":3328:3373  require(amountIn > 0, \"Invalid input amount\") */\n      tag_292\n      jumpi\n      mload(0x40)\n      0x08c379a000000000000000000000000000000000000000000000000000000000\n      dup2\n      mstore\n      0x04\n      add\n      tag_293\n      swap1\n      tag_116\n      jump\t// in\n    tag_293:\n      mload(0x40)\n      dup1\n      swap2\n      sub\n      swap1\n      revert\n    tag_292:\n        /* \"LiquidityPool.sol\":3411:3412  0 */\n      0x00\n        /* \"LiquidityPool.sol\":3392:3408  expextedSlippage */\n      sload(0x05)\n        /* \"LiquidityPool.sol\":3392:3412  expextedSlippage > 0 */\n      gt\n        /* \"LiquidityPool.sol\":3384:3442  require(expextedSlippage > 0, \"Expected slippage not set\") */\n      tag_294\n      jumpi\n      mload(0x40)\n      0x08c379a000000000000000000000000000000000000000000000000000000000\n      dup2\n      mstore\n      0x04\n      add\n      tag_295\n      swap1\n      tag_119\n      jump\t// in\n    tag_295:\n      mload(0x40)\n      dup1\n      swap2\n      sub\n      swap1\n      revert\n    tag_294:\n        /* \"LiquidityPool.sol\":3453:3464  uint256 fee */\n      0x00\n        /* \"LiquidityPool.sol\":3496:3499  100 */\n      0x64\n        /* \"LiquidityPool.sol\":3479:3492  feePercentage */\n      sload(0x06)\n        /* \"LiquidityPool.sol\":3468:3476  amountIn */\n      dup6\n        /* \"LiquidityPool.sol\":3468:3492  amountIn * feePercentage */\n      tag_296\n      swap2\n      swap1\n      tag_121\n      jump\t// in\n    tag_296:\n        /* \"LiquidityPool.sol\":3467:3499  (amountIn * feePercentage) / 100 */\n      tag_297\n      swap2\n      swap1\n      tag_123\n      jump\t// in\n    tag_297:\n        /* \"LiquidityPool.sol\":3453:3499  uint256 fee = (amountIn * feePercentage) / 100 */\n      swap1\n      pop\n        /* \"LiquidityPool.sol\":3510:3534  uint256 amountInAfterFee */\n      0x00\n        /* \"LiquidityPool.sol\":3548:3551  fee */\n      dup2\n        /* \"LiquidityPool.sol\":3537:3545  amountIn */\n      dup6\n        /* \"LiquidityPool.sol\":3537:3551  amountIn - fee */\n      tag_298\n      swap2\n      swap1\n      tag_125\n      jump\t// in\n    tag_298:\n        /* \"LiquidityPool.sol\":3510:3551  uint256 amountInAfterFee = amountIn - fee */\n      swap1\n      pop\n        /* \"LiquidityPool.sol\":3587:3618  checkSlippage(amountInAfterFee) */\n      tag_299\n        /* \"LiquidityPool.sol\":3601:3617  amountInAfterFee */\n      dup2\n        /* \"LiquidityPool.sol\":3587:3600  checkSlippage */\n      tag_59\n        /* \"LiquidityPool.sol\":3587:3618  checkSlippage(amountInAfterFee) */\n      jump\t// in\n    tag_299:\n        /* \"LiquidityPool.sol\":3570:3584  expectSlippage */\n      dup5\n        /* \"LiquidityPool.sol\":3570:3618  expectSlippage > checkSlippage(amountInAfterFee) */\n      gt\n        /* \"LiquidityPool.sol\":3562:3650  require(expectSlippage > checkSlippage(amountInAfterFee), \"actual slippage is too high\") */\n      tag_300\n      jumpi\n      mload(0x40)\n      0x08c379a000000000000000000000000000000000000000000000000000000000\n      dup2\n      mstore\n      0x04\n      add\n      tag_301\n      swap1\n      tag_129\n      jump\t// in\n    tag_301:\n      mload(0x40)\n      dup1\n      swap2\n      sub\n      swap1\n      revert\n    tag_300:\n        /* \"LiquidityPool.sol\":3665:3684  uint256 newReserveA */\n      0x00\n        /* \"LiquidityPool.sol\":3698:3714  amountInAfterFee */\n      dup2\n        /* \"LiquidityPool.sol\":3687:3695  reserveA */\n      sload(0x03)\n        /* \"LiquidityPool.sol\":3687:3714  reserveA + amountInAfterFee */\n      tag_302\n      swap2\n      swap1\n      tag_131\n      jump\t// in\n    tag_302:\n        /* \"LiquidityPool.sol\":3665:3714  uint256 newReserveA = reserveA + amountInAfterFee */\n      swap1\n      pop\n        /* \"LiquidityPool.sol\":3725:3734  uint256 k */\n      0x00\n        /* \"LiquidityPool.sol\":3748:3756  reserveB */\n      sload(0x04)\n        /* \"LiquidityPool.sol\":3737:3745  reserveA */\n      sload(0x03)\n        /* \"LiquidityPool.sol\":3737:3756  reserveA * reserveB */\n      tag_303\n      swap2\n      swap1\n      tag_121\n      jump\t// in\n    tag_303:\n        /* \"LiquidityPool.sol\":3725:3756  uint256 k = reserveA * reserveB */\n      swap1\n      pop\n        /* \"LiquidityPool.sol\":3767:3786  uint256 newReserveB */\n      0x00\n        /* \"LiquidityPool.sol\":3793:3804  newReserveA */\n      dup3\n        /* \"LiquidityPool.sol\":3789:3790  k */\n      dup3\n        /* \"LiquidityPool.sol\":3789:3804  k / newReserveA */\n      tag_304\n      swap2\n      swap1\n      tag_123\n      jump\t// in\n    tag_304:\n        /* \"LiquidityPool.sol\":3767:3804  uint256 newReserveB = k / newReserveA */\n      swap1\n      pop\n        /* \"LiquidityPool.sol\":3815:3832  uint256 amountOut */\n      0x00\n        /* \"LiquidityPool.sol\":3846:3857  newReserveB */\n      dup2\n        /* \"LiquidityPool.sol\":3835:3843  reserveB */\n      sload(0x04)\n        /* \"LiquidityPool.sol\":3835:3857  reserveB - newReserveB */\n      tag_305\n      swap2\n      swap1\n      tag_125\n      jump\t// in\n    tag_305:\n        /* \"LiquidityPool.sol\":3815:3857  uint256 amountOut = reserveB - newReserveB */\n      swap1\n      pop\n        /* \"LiquidityPool.sol\":3878:3884  tokenA */\n      0x00\n      dup1\n      sload\n      swap1\n      0x0100\n      exp\n      swap1\n      div\n      0xffffffffffffffffffffffffffffffffffffffff\n      and\n        /* \"LiquidityPool.sol\":3878:3897  tokenA.transferFrom */\n      0xffffffffffffffffffffffffffffffffffffffff\n      and\n      0x23b872dd\n        /* \"LiquidityPool.sol\":3898:3908  msg.sender */\n      caller\n        /* \"LiquidityPool.sol\":3918:3922  this */\n      address\n        /* \"LiquidityPool.sol\":3925:3933  amountIn */\n      dup13\n        /* \"LiquidityPool.sol\":3878:3934  tokenA.transferFrom(msg.sender, address(this), amountIn) */\n      mload(0x40)\n      dup5\n      0xffffffff\n      and\n      0xe0\n      shl\n      dup2\n      mstore\n      0x04\n      add\n      tag_306\n      swap4\n      swap3\n      swap2\n      swap1\n      tag_136\n      jump\t// in\n    tag_306:\n      0x20\n      mload(0x40)\n      dup1\n      dup4\n      sub\n      dup2\n      0x00\n      dup8\n      gas\n      call\n      iszero\n      dup1\n      iszero\n      tag_308\n      jumpi\n      returndatasize\n      0x00\n      dup1\n      returndatacopy\n      revert(0x00, returndatasize)\n    tag_308:\n      pop\n      pop\n      pop\n      pop\n      mload(0x40)\n      returndatasize\n      not(0x1f)\n      0x1f\n      dup3\n      add\n      and\n      dup3\n      add\n      dup1\n      0x40\n      mstore\n      pop\n      dup2\n      add\n      swap1\n      tag_309\n      swap2\n      swap1\n      tag_140\n      jump\t// in\n    tag_309:\n        /* \"LiquidityPool.sol\":3870:3962  require(tokenA.transferFrom(msg.sender, address(this), amountIn), \"Token A transfer failed\") */\n      tag_310\n      jumpi\n      mload(0x40)\n      0x08c379a000000000000000000000000000000000000000000000000000000000\n      dup2\n      mstore\n      0x04\n      add\n      tag_311\n      swap1\n      tag_151\n      jump\t// in\n    tag_311:\n      mload(0x40)\n      dup1\n      swap2\n      sub\n      swap1\n      revert\n    tag_310:\n        /* \"LiquidityPool.sol\":3981:3987  tokenB */\n      0x01\n      0x00\n      swap1\n      sload\n      swap1\n      0x0100\n      exp\n      swap1\n      div\n      0xffffffffffffffffffffffffffffffffffffffff\n      and\n        /* \"LiquidityPool.sol\":3981:3996  tokenB.transfer */\n      0xffffffffffffffffffffffffffffffffffffffff\n      and\n      0xa9059cbb\n        /* \"LiquidityPool.sol\":3997:4007  msg.sender */\n      caller\n        /* \"LiquidityPool.sol\":4009:4018  amountOut */\n      dup4\n        /* \"LiquidityPool.sol\":3981:4019  tokenB.transfer(msg.sender, amountOut) */\n      mload(0x40)\n      dup4\n      0xffffffff\n      and\n      0xe0\n      shl\n      dup2\n      mstore\n      0x04\n      add\n      tag_312\n      swap3\n      swap2\n      swap1\n      tag_145\n      jump\t// in\n    tag_312:\n      0x20\n      mload(0x40)\n      dup1\n      dup4\n      sub\n      dup2\n      0x00\n      dup8\n      gas\n      call\n      iszero\n      dup1\n      iszero\n      tag_314\n      jumpi\n      returndatasize\n      0x00\n      dup1\n      returndatacopy\n      revert(0x00, returndatasize)\n    tag_314:\n      pop\n      pop\n      pop\n      pop\n      mload(0x40)\n      returndatasize\n      not(0x1f)\n      0x1f\n      dup3\n      add\n      and\n      dup3\n      add\n      dup1\n      0x40\n      mstore\n      pop\n      dup2\n      add\n      swap1\n      tag_315\n      swap2\n      swap1\n      tag_140\n      jump\t// in\n    tag_315:\n        /* \"LiquidityPool.sol\":3973:4047  require(tokenB.transfer(msg.sender, amountOut), \"Token B transfer failed\") */\n      tag_316\n      jumpi\n      mload(0x40)\n      0x08c379a000000000000000000000000000000000000000000000000000000000\n      dup2\n      mstore\n      0x04\n      add\n      tag_317\n      swap1\n      tag_143\n      jump\t// in\n    tag_317:\n      mload(0x40)\n      dup1\n      swap2\n      sub\n      swap1\n      revert\n    tag_316:\n        /* \"LiquidityPool.sol\":4071:4082  newReserveA */\n      dup4\n        /* \"LiquidityPool.sol\":4060:4068  reserveA */\n      0x03\n        /* \"LiquidityPool.sol\":4060:4082  reserveA = newReserveA */\n      dup2\n      swap1\n      sstore\n      pop\n        /* \"LiquidityPool.sol\":4104:4115  newReserveB */\n      dup2\n        /* \"LiquidityPool.sol\":4093:4101  reserveB */\n      0x04\n        /* \"LiquidityPool.sol\":4093:4115  reserveB = newReserveB */\n      dup2\n      swap1\n      sstore\n      pop\n        /* \"LiquidityPool.sol\":4135:4144  amountOut */\n      dup1\n        /* \"LiquidityPool.sol\":4128:4144  return amountOut */\n      swap7\n      pop\n      pop\n      pop\n      pop\n      pop\n      pop\n      pop\n        /* \"LiquidityPool.sol\":3232:4152  function swapAtoB(uint256 amountIn, uint256 expectSlippage) public returns (uint256) {... */\n      swap3\n      swap2\n      pop\n      pop\n      jump\t// out\n        /* \"LiquidityPool.sol\":2741:3044  function sqrt(uint y) internal pure returns (uint z) {... */\n    tag_246:\n        /* \"LiquidityPool.sol\":2786:2792  uint z */\n      0x00\n        /* \"LiquidityPool.sol\":2813:2814  3 */\n      0x03\n        /* \"LiquidityPool.sol\":2809:2810  y */\n      dup3\n        /* \"LiquidityPool.sol\":2809:2814  y > 3 */\n      gt\n        /* \"LiquidityPool.sol\":2805:3037  if (y > 3) {... */\n      iszero\n      tag_319\n      jumpi\n        /* \"LiquidityPool.sol\":2835:2836  y */\n      dup2\n        /* \"LiquidityPool.sol\":2831:2836  z = y */\n      swap1\n      pop\n        /* \"LiquidityPool.sol\":2851:2857  uint x */\n      0x00\n        /* \"LiquidityPool.sol\":2868:2869  1 */\n      0x01\n        /* \"LiquidityPool.sol\":2864:2865  2 */\n      0x02\n        /* \"LiquidityPool.sol\":2860:2861  y */\n      dup5\n        /* \"LiquidityPool.sol\":2860:2865  y / 2 */\n      tag_320\n      swap2\n      swap1\n      tag_123\n      jump\t// in\n    tag_320:\n        /* \"LiquidityPool.sol\":2860:2869  y / 2 + 1 */\n      tag_321\n      swap2\n      swap1\n      tag_131\n      jump\t// in\n    tag_321:\n        /* \"LiquidityPool.sol\":2851:2869  uint x = y / 2 + 1 */\n      swap1\n      pop\n        /* \"LiquidityPool.sol\":2884:2976  while (x < z) {... */\n    tag_322:\n        /* \"LiquidityPool.sol\":2895:2896  z */\n      dup2\n        /* \"LiquidityPool.sol\":2891:2892  x */\n      dup2\n        /* \"LiquidityPool.sol\":2891:2896  x < z */\n      lt\n        /* \"LiquidityPool.sol\":2884:2976  while (x < z) {... */\n      iszero\n      tag_323\n      jumpi\n        /* \"LiquidityPool.sol\":2921:2922  x */\n      dup1\n        /* \"LiquidityPool.sol\":2917:2922  z = x */\n      swap2\n      pop\n        /* \"LiquidityPool.sol\":2959:2960  2 */\n      0x02\n        /* \"LiquidityPool.sol\":2954:2955  x */\n      dup2\n        /* \"LiquidityPool.sol\":2950:2951  x */\n      dup3\n        /* \"LiquidityPool.sol\":2946:2947  y */\n      dup6\n        /* \"LiquidityPool.sol\":2946:2951  y / x */\n      tag_324\n      swap2\n      swap1\n      tag_123\n      jump\t// in\n    tag_324:\n        /* \"LiquidityPool.sol\":2946:2955  y / x + x */\n      tag_325\n      swap2\n      swap1\n      tag_131\n      jump\t// in\n    tag_325:\n        /* \"LiquidityPool.sol\":2945:2960  (y / x + x) / 2 */\n      tag_326\n      swap2\n      swap1\n      tag_123\n      jump\t// in\n    tag_326:\n        /* \"LiquidityPool.sol\":2941:2960  x = (y / x + x) / 2 */\n      swap1\n      pop\n        /* \"LiquidityPool.sol\":2884:2976  while (x < z) {... */\n      jump(tag_322)\n    tag_323:\n        /* \"LiquidityPool.sol\":2816:2987  {... */\n      pop\n        /* \"LiquidityPool.sol\":2805:3037  if (y > 3) {... */\n      jump(tag_327)\n    tag_319:\n        /* \"LiquidityPool.sol\":3002:3003  0 */\n      0x00\n        /* \"LiquidityPool.sol\":2997:2998  y */\n      dup3\n        /* \"LiquidityPool.sol\":2997:3003  y != 0 */\n      eq\n        /* \"LiquidityPool.sol\":2993:3037  if (y != 0) {... */\n      tag_328\n      jumpi\n        /* \"LiquidityPool.sol\":3024:3025  1 */\n      0x01\n        /* \"LiquidityPool.sol\":3020:3025  z = 1 */\n      swap1\n      pop\n        /* \"LiquidityPool.sol\":2993:3037  if (y != 0) {... */\n    tag_328:\n        /* \"LiquidityPool.sol\":2805:3037  if (y > 3) {... */\n    tag_327:\n        /* \"LiquidityPool.sol\":2741:3044  function sqrt(uint y) internal pure returns (uint z) {... */\n      swap2\n      swap1\n      pop\n      jump\t// out\n        /* \"LiquidityPool.sol\":2627:2733  function min(uint256 x, uint256 y) internal pure returns (uint256) {... */\n    tag_253:\n        /* \"LiquidityPool.sol\":2685:2692  uint256 */\n      0x00\n        /* \"LiquidityPool.sol\":2716:2717  y */\n      dup2\n        /* \"LiquidityPool.sol\":2712:2713  x */\n      dup4\n        /* \"LiquidityPool.sol\":2712:2717  x < y */\n      lt\n        /* \"LiquidityPool.sol\":2712:2725  x < y ? x : y */\n      tag_330\n      jumpi\n        /* \"LiquidityPool.sol\":2724:2725  y */\n      dup2\n        /* \"LiquidityPool.sol\":2712:2725  x < y ? x : y */\n      jump(tag_331)\n    tag_330:\n        /* \"LiquidityPool.sol\":2720:2721  x */\n      dup3\n        /* \"LiquidityPool.sol\":2712:2725  x < y ? x : y */\n    tag_331:\n        /* \"LiquidityPool.sol\":2705:2725  return x < y ? x : y */\n      swap1\n      pop\n        /* \"LiquidityPool.sol\":2627:2733  function min(uint256 x, uint256 y) internal pure returns (uint256) {... */\n      swap3\n      swap2\n      pop\n      pop\n      jump\t// out\n        /* \"#utility.yul\":88:205   */\n    tag_333:\n        /* \"#utility.yul\":197:198   */\n      0x00\n        /* \"#utility.yul\":194:195   */\n      dup1\n        /* \"#utility.yul\":187:199   */\n      revert\n        /* \"#utility.yul\":334:460   */\n    tag_335:\n        /* \"#utility.yul\":371:378   */\n      0x00\n        /* \"#utility.yul\":411:453   */\n      0xffffffffffffffffffffffffffffffffffffffff\n        /* \"#utility.yul\":404:409   */\n      dup3\n        /* \"#utility.yul\":400:454   */\n      and\n        /* \"#utility.yul\":389:454   */\n      swap1\n      pop\n        /* \"#utility.yul\":334:460   */\n      swap2\n      swap1\n      pop\n      jump\t// out\n        /* \"#utility.yul\":466:562   */\n    tag_336:\n        /* \"#utility.yul\":503:510   */\n      0x00\n        /* \"#utility.yul\":532:556   */\n      tag_398\n        /* \"#utility.yul\":550:555   */\n      dup3\n        /* \"#utility.yul\":532:556   */\n      tag_335\n      jump\t// in\n    tag_398:\n        /* \"#utility.yul\":521:556   */\n      swap1\n      pop\n        /* \"#utility.yul\":466:562   */\n      swap2\n      swap1\n      pop\n      jump\t// out\n        /* \"#utility.yul\":568:690   */\n    tag_337:\n        /* \"#utility.yul\":641:665   */\n      tag_400\n        /* \"#utility.yul\":659:664   */\n      dup2\n        /* \"#utility.yul\":641:665   */\n      tag_336\n      jump\t// in\n    tag_400:\n        /* \"#utility.yul\":634:639   */\n      dup2\n        /* \"#utility.yul\":631:666   */\n      eq\n        /* \"#utility.yul\":621:684   */\n      tag_401\n      jumpi\n        /* \"#utility.yul\":680:681   */\n      0x00\n        /* \"#utility.yul\":677:678   */\n      dup1\n        /* \"#utility.yul\":670:682   */\n      revert\n        /* \"#utility.yul\":621:684   */\n    tag_401:\n        /* \"#utility.yul\":568:690   */\n      pop\n      jump\t// out\n        /* \"#utility.yul\":696:835   */\n    tag_338:\n        /* \"#utility.yul\":742:747   */\n      0x00\n        /* \"#utility.yul\":780:786   */\n      dup2\n        /* \"#utility.yul\":767:787   */\n      calldataload\n        /* \"#utility.yul\":758:787   */\n      swap1\n      pop\n        /* \"#utility.yul\":796:829   */\n      tag_403\n        /* \"#utility.yul\":823:828   */\n      dup2\n        /* \"#utility.yul\":796:829   */\n      tag_337\n      jump\t// in\n    tag_403:\n        /* \"#utility.yul\":696:835   */\n      swap3\n      swap2\n      pop\n      pop\n      jump\t// out\n        /* \"#utility.yul\":841:1170   */\n    tag_29:\n        /* \"#utility.yul\":900:906   */\n      0x00\n        /* \"#utility.yul\":949:951   */\n      0x20\n        /* \"#utility.yul\":937:946   */\n      dup3\n        /* \"#utility.yul\":928:935   */\n      dup5\n        /* \"#utility.yul\":924:947   */\n      sub\n        /* \"#utility.yul\":920:952   */\n      slt\n        /* \"#utility.yul\":917:1036   */\n      iszero\n      tag_405\n      jumpi\n        /* \"#utility.yul\":955:1034   */\n      tag_406\n      tag_333\n      jump\t// in\n    tag_406:\n        /* \"#utility.yul\":917:1036   */\n    tag_405:\n        /* \"#utility.yul\":1075:1076   */\n      0x00\n        /* \"#utility.yul\":1100:1153   */\n      tag_407\n        /* \"#utility.yul\":1145:1152   */\n      dup5\n        /* \"#utility.yul\":1136:1142   */\n      dup3\n        /* \"#utility.yul\":1125:1134   */\n      dup6\n        /* \"#utility.yul\":1121:1143   */\n      add\n        /* \"#utility.yul\":1100:1153   */\n      tag_338\n      jump\t// in\n    tag_407:\n        /* \"#utility.yul\":1090:1153   */\n      swap2\n      pop\n        /* \"#utility.yul\":1046:1163   */\n      pop\n        /* \"#utility.yul\":841:1170   */\n      swap3\n      swap2\n      pop\n      pop\n      jump\t// out\n        /* \"#utility.yul\":1176:1253   */\n    tag_339:\n        /* \"#utility.yul\":1213:1220   */\n      0x00\n        /* \"#utility.yul\":1242:1247   */\n      dup2\n        /* \"#utility.yul\":1231:1247   */\n      swap1\n      pop\n        /* \"#utility.yul\":1176:1253   */\n      swap2\n      swap1\n      pop\n      jump\t// out\n        /* \"#utility.yul\":1259:1377   */\n    tag_340:\n        /* \"#utility.yul\":1346:1370   */\n      tag_410\n        /* \"#utility.yul\":1364:1369   */\n      dup2\n        /* \"#utility.yul\":1346:1370   */\n      tag_339\n      jump\t// in\n    tag_410:\n        /* \"#utility.yul\":1341:1344   */\n      dup3\n        /* \"#utility.yul\":1334:1371   */\n      mstore\n        /* \"#utility.yul\":1259:1377   */\n      pop\n      pop\n      jump\t// out\n        /* \"#utility.yul\":1383:1605   */\n    tag_32:\n        /* \"#utility.yul\":1476:1480   */\n      0x00\n        /* \"#utility.yul\":1514:1516   */\n      0x20\n        /* \"#utility.yul\":1503:1512   */\n      dup3\n        /* \"#utility.yul\":1499:1517   */\n      add\n        /* \"#utility.yul\":1491:1517   */\n      swap1\n      pop\n        /* \"#utility.yul\":1527:1598   */\n      tag_412\n        /* \"#utility.yul\":1595:1596   */\n      0x00\n        /* \"#utility.yul\":1584:1593   */\n      dup4\n        /* \"#utility.yul\":1580:1597   */\n      add\n        /* \"#utility.yul\":1571:1577   */\n      dup5\n        /* \"#utility.yul\":1527:1598   */\n      tag_340\n      jump\t// in\n    tag_412:\n        /* \"#utility.yul\":1383:1605   */\n      swap3\n      swap2\n      pop\n      pop\n      jump\t// out\n        /* \"#utility.yul\":1611:1943   */\n    tag_36:\n        /* \"#utility.yul\":1732:1736   */\n      0x00\n        /* \"#utility.yul\":1770:1772   */\n      0x40\n        /* \"#utility.yul\":1759:1768   */\n      dup3\n        /* \"#utility.yul\":1755:1773   */\n      add\n        /* \"#utility.yul\":1747:1773   */\n      swap1\n      pop\n        /* \"#utility.yul\":1783:1854   */\n      tag_414\n        /* \"#utility.yul\":1851:1852   */\n      0x00\n        /* \"#utility.yul\":1840:1849   */\n      dup4\n        /* \"#utility.yul\":1836:1853   */\n      add\n        /* \"#utility.yul\":1827:1833   */\n      dup6\n        /* \"#utility.yul\":1783:1854   */\n      tag_340\n      jump\t// in\n    tag_414:\n        /* \"#utility.yul\":1864:1936   */\n      tag_415\n        /* \"#utility.yul\":1932:1934   */\n      0x20\n        /* \"#utility.yul\":1921:1930   */\n      dup4\n        /* \"#utility.yul\":1917:1935   */\n      add\n        /* \"#utility.yul\":1908:1914   */\n      dup5\n        /* \"#utility.yul\":1864:1936   */\n      tag_340\n      jump\t// in\n    tag_415:\n        /* \"#utility.yul\":1611:1943   */\n      swap4\n      swap3\n      pop\n      pop\n      pop\n      jump\t// out\n        /* \"#utility.yul\":1949:2009   */\n    tag_341:\n        /* \"#utility.yul\":1977:1980   */\n      0x00\n        /* \"#utility.yul\":1998:2003   */\n      dup2\n        /* \"#utility.yul\":1991:2003   */\n      swap1\n      pop\n        /* \"#utility.yul\":1949:2009   */\n      swap2\n      swap1\n      pop\n      jump\t// out\n        /* \"#utility.yul\":2015:2157   */\n    tag_342:\n        /* \"#utility.yul\":2065:2074   */\n      0x00\n        /* \"#utility.yul\":2098:2151   */\n      tag_418\n        /* \"#utility.yul\":2116:2150   */\n      tag_419\n        /* \"#utility.yul\":2125:2149   */\n      tag_420\n        /* \"#utility.yul\":2143:2148   */\n      dup5\n        /* \"#utility.yul\":2125:2149   */\n      tag_335\n      jump\t// in\n    tag_420:\n        /* \"#utility.yul\":2116:2150   */\n      tag_341\n      jump\t// in\n    tag_419:\n        /* \"#utility.yul\":2098:2151   */\n      tag_335\n      jump\t// in\n    tag_418:\n        /* \"#utility.yul\":2085:2151   */\n      swap1\n      pop\n        /* \"#utility.yul\":2015:2157   */\n      swap2\n      swap1\n      pop\n      jump\t// out\n        /* \"#utility.yul\":2163:2289   */\n    tag_343:\n        /* \"#utility.yul\":2213:2222   */\n      0x00\n        /* \"#utility.yul\":2246:2283   */\n      tag_422\n        /* \"#utility.yul\":2277:2282   */\n      dup3\n        /* \"#utility.yul\":2246:2283   */\n      tag_342\n      jump\t// in\n    tag_422:\n        /* \"#utility.yul\":2233:2283   */\n      swap1\n      pop\n        /* \"#utility.yul\":2163:2289   */\n      swap2\n      swap1\n      pop\n      jump\t// out\n        /* \"#utility.yul\":2295:2435   */\n    tag_344:\n        /* \"#utility.yul\":2359:2368   */\n      0x00\n        /* \"#utility.yul\":2392:2429   */\n      tag_424\n        /* \"#utility.yul\":2423:2428   */\n      dup3\n        /* \"#utility.yul\":2392:2429   */\n      tag_343\n      jump\t// in\n    tag_424:\n        /* \"#utility.yul\":2379:2429   */\n      swap1\n      pop\n        /* \"#utility.yul\":2295:2435   */\n      swap2\n      swap1\n      pop\n      jump\t// out\n        /* \"#utility.yul\":2441:2600   */\n    tag_345:\n        /* \"#utility.yul\":2542:2593   */\n      tag_426\n        /* \"#utility.yul\":2587:2592   */\n      dup2\n        /* \"#utility.yul\":2542:2593   */\n      tag_344\n      jump\t// in\n    tag_426:\n        /* \"#utility.yul\":2537:2540   */\n      dup3\n        /* \"#utility.yul\":2530:2594   */\n      mstore\n        /* \"#utility.yul\":2441:2600   */\n      pop\n      pop\n      jump\t// out\n        /* \"#utility.yul\":2606:2856   */\n    tag_40:\n        /* \"#utility.yul\":2713:2717   */\n      0x00\n        /* \"#utility.yul\":2751:2753   */\n      0x20\n        /* \"#utility.yul\":2740:2749   */\n      dup3\n        /* \"#utility.yul\":2736:2754   */\n      add\n        /* \"#utility.yul\":2728:2754   */\n      swap1\n      pop\n        /* \"#utility.yul\":2764:2849   */\n      tag_428\n        /* \"#utility.yul\":2846:2847   */\n      0x00\n        /* \"#utility.yul\":2835:2844   */\n      dup4\n        /* \"#utility.yul\":2831:2848   */\n      add\n        /* \"#utility.yul\":2822:2828   */\n      dup5\n        /* \"#utility.yul\":2764:2849   */\n      tag_345\n      jump\t// in\n    tag_428:\n        /* \"#utility.yul\":2606:2856   */\n      swap3\n      swap2\n      pop\n      pop\n      jump\t// out\n        /* \"#utility.yul\":2862:2984   */\n    tag_346:\n        /* \"#utility.yul\":2935:2959   */\n      tag_430\n        /* \"#utility.yul\":2953:2958   */\n      dup2\n        /* \"#utility.yul\":2935:2959   */\n      tag_339\n      jump\t// in\n    tag_430:\n        /* \"#utility.yul\":2928:2933   */\n      dup2\n        /* \"#utility.yul\":2925:2960   */\n      eq\n        /* \"#utility.yul\":2915:2978   */\n      tag_431\n      jumpi\n        /* \"#utility.yul\":2974:2975   */\n      0x00\n        /* \"#utility.yul\":2971:2972   */\n      dup1\n        /* \"#utility.yul\":2964:2976   */\n      revert\n        /* \"#utility.yul\":2915:2978   */\n    tag_431:\n        /* \"#utility.yul\":2862:2984   */\n      pop\n      jump\t// out\n        /* \"#utility.yul\":2990:3129   */\n    tag_347:\n        /* \"#utility.yul\":3036:3041   */\n      0x00\n        /* \"#utility.yul\":3074:3080   */\n      dup2\n        /* \"#utility.yul\":3061:3081   */\n      calldataload\n        /* \"#utility.yul\":3052:3081   */\n      swap1\n      pop\n        /* \"#utility.yul\":3090:3123   */\n      tag_433\n        /* \"#utility.yul\":3117:3122   */\n      dup2\n        /* \"#utility.yul\":3090:3123   */\n      tag_346\n      jump\t// in\n    tag_433:\n        /* \"#utility.yul\":2990:3129   */\n      swap3\n      swap2\n      pop\n      pop\n      jump\t// out\n        /* \"#utility.yul\":3135:3609   */\n    tag_46:\n        /* \"#utility.yul\":3203:3209   */\n      0x00\n        /* \"#utility.yul\":3211:3217   */\n      dup1\n        /* \"#utility.yul\":3260:3262   */\n      0x40\n        /* \"#utility.yul\":3248:3257   */\n      dup4\n        /* \"#utility.yul\":3239:3246   */\n      dup6\n        /* \"#utility.yul\":3235:3258   */\n      sub\n        /* \"#utility.yul\":3231:3263   */\n      slt\n        /* \"#utility.yul\":3228:3347   */\n      iszero\n      tag_435\n      jumpi\n        /* \"#utility.yul\":3266:3345   */\n      tag_436\n      tag_333\n      jump\t// in\n    tag_436:\n        /* \"#utility.yul\":3228:3347   */\n    tag_435:\n        /* \"#utility.yul\":3386:3387   */\n      0x00\n        /* \"#utility.yul\":3411:3464   */\n      tag_437\n        /* \"#utility.yul\":3456:3463   */\n      dup6\n        /* \"#utility.yul\":3447:3453   */\n      dup3\n        /* \"#utility.yul\":3436:3445   */\n      dup7\n        /* \"#utility.yul\":3432:3454   */\n      add\n        /* \"#utility.yul\":3411:3464   */\n      tag_347\n      jump\t// in\n    tag_437:\n        /* \"#utility.yul\":3401:3464   */\n      swap3\n      pop\n        /* \"#utility.yul\":3357:3474   */\n      pop\n        /* \"#utility.yul\":3513:3515   */\n      0x20\n        /* \"#utility.yul\":3539:3592   */\n      tag_438\n        /* \"#utility.yul\":3584:3591   */\n      dup6\n        /* \"#utility.yul\":3575:3581   */\n      dup3\n        /* \"#utility.yul\":3564:3573   */\n      dup7\n        /* \"#utility.yul\":3560:3582   */\n      add\n        /* \"#utility.yul\":3539:3592   */\n      tag_347\n      jump\t// in\n    tag_438:\n        /* \"#utility.yul\":3529:3592   */\n      swap2\n      pop\n        /* \"#utility.yul\":3484:3602   */\n      pop\n        /* \"#utility.yul\":3135:3609   */\n      swap3\n      pop\n      swap3\n      swap1\n      pop\n      jump\t// out\n        /* \"#utility.yul\":3615:3756   */\n    tag_348:\n        /* \"#utility.yul\":3680:3689   */\n      0x00\n        /* \"#utility.yul\":3713:3750   */\n      tag_440\n        /* \"#utility.yul\":3744:3749   */\n      dup3\n        /* \"#utility.yul\":3713:3750   */\n      tag_343\n      jump\t// in\n    tag_440:\n        /* \"#utility.yul\":3700:3750   */\n      swap1\n      pop\n        /* \"#utility.yul\":3615:3756   */\n      swap2\n      swap1\n      pop\n      jump\t// out\n        /* \"#utility.yul\":3762:3923   */\n    tag_349:\n        /* \"#utility.yul\":3864:3916   */\n      tag_442\n        /* \"#utility.yul\":3910:3915   */\n      dup2\n        /* \"#utility.yul\":3864:3916   */\n      tag_348\n      jump\t// in\n    tag_442:\n        /* \"#utility.yul\":3859:3862   */\n      dup3\n        /* \"#utility.yul\":3852:3917   */\n      mstore\n        /* \"#utility.yul\":3762:3923   */\n      pop\n      pop\n      jump\t// out\n        /* \"#utility.yul\":3929:4181   */\n    tag_55:\n        /* \"#utility.yul\":4037:4041   */\n      0x00\n        /* \"#utility.yul\":4075:4077   */\n      0x20\n        /* \"#utility.yul\":4064:4073   */\n      dup3\n        /* \"#utility.yul\":4060:4078   */\n      add\n        /* \"#utility.yul\":4052:4078   */\n      swap1\n      pop\n        /* \"#utility.yul\":4088:4174   */\n      tag_444\n        /* \"#utility.yul\":4171:4172   */\n      0x00\n        /* \"#utility.yul\":4160:4169   */\n      dup4\n        /* \"#utility.yul\":4156:4173   */\n      add\n        /* \"#utility.yul\":4147:4153   */\n      dup5\n        /* \"#utility.yul\":4088:4174   */\n      tag_349\n      jump\t// in\n    tag_444:\n        /* \"#utility.yul\":3929:4181   */\n      swap3\n      swap2\n      pop\n      pop\n      jump\t// out\n        /* \"#utility.yul\":4187:4516   */\n    tag_58:\n        /* \"#utility.yul\":4246:4252   */\n      0x00\n        /* \"#utility.yul\":4295:4297   */\n      0x20\n        /* \"#utility.yul\":4283:4292   */\n      dup3\n        /* \"#utility.yul\":4274:4281   */\n      dup5\n        /* \"#utility.yul\":4270:4293   */\n      sub\n        /* \"#utility.yul\":4266:4298   */\n      slt\n        /* \"#utility.yul\":4263:4382   */\n      iszero\n      tag_446\n      jumpi\n        /* \"#utility.yul\":4301:4380   */\n      tag_447\n      tag_333\n      jump\t// in\n    tag_447:\n        /* \"#utility.yul\":4263:4382   */\n    tag_446:\n        /* \"#utility.yul\":4421:4422   */\n      0x00\n        /* \"#utility.yul\":4446:4499   */\n      tag_448\n        /* \"#utility.yul\":4491:4498   */\n      dup5\n        /* \"#utility.yul\":4482:4488   */\n      dup3\n        /* \"#utility.yul\":4471:4480   */\n      dup6\n        /* \"#utility.yul\":4467:4489   */\n      add\n        /* \"#utility.yul\":4446:4499   */\n      tag_347\n      jump\t// in\n    tag_448:\n        /* \"#utility.yul\":4436:4499   */\n      swap2\n      pop\n        /* \"#utility.yul\":4392:4509   */\n      pop\n        /* \"#utility.yul\":4187:4516   */\n      swap3\n      swap2\n      pop\n      pop\n      jump\t// out\n        /* \"#utility.yul\":4522:4640   */\n    tag_350:\n        /* \"#utility.yul\":4609:4633   */\n      tag_450\n        /* \"#utility.yul\":4627:4632   */\n      dup2\n        /* \"#utility.yul\":4609:4633   */\n      tag_336\n      jump\t// in\n    tag_450:\n        /* \"#utility.yul\":4604:4607   */\n      dup3\n        /* \"#utility.yul\":4597:4634   */\n      mstore\n        /* \"#utility.yul\":4522:4640   */\n      pop\n      pop\n      jump\t// out\n        /* \"#utility.yul\":4646:4868   */\n    tag_68:\n        /* \"#utility.yul\":4739:4743   */\n      0x00\n        /* \"#utility.yul\":4777:4779   */\n      0x20\n        /* \"#utility.yul\":4766:4775   */\n      dup3\n        /* \"#utility.yul\":4762:4780   */\n      add\n        /* \"#utility.yul\":4754:4780   */\n      swap1\n      pop\n        /* \"#utility.yul\":4790:4861   */\n      tag_452\n        /* \"#utility.yul\":4858:4859   */\n      0x00\n        /* \"#utility.yul\":4847:4856   */\n      dup4\n        /* \"#utility.yul\":4843:4860   */\n      add\n        /* \"#utility.yul\":4834:4840   */\n      dup5\n        /* \"#utility.yul\":4790:4861   */\n      tag_350\n      jump\t// in\n    tag_452:\n        /* \"#utility.yul\":4646:4868   */\n      swap3\n      swap2\n      pop\n      pop\n      jump\t// out\n        /* \"#utility.yul\":4874:5017   */\n    tag_351:\n        /* \"#utility.yul\":4931:4936   */\n      0x00\n        /* \"#utility.yul\":4962:4968   */\n      dup2\n        /* \"#utility.yul\":4956:4969   */\n      mload\n        /* \"#utility.yul\":4947:4969   */\n      swap1\n      pop\n        /* \"#utility.yul\":4978:5011   */\n      tag_454\n        /* \"#utility.yul\":5005:5010   */\n      dup2\n        /* \"#utility.yul\":4978:5011   */\n      tag_346\n      jump\t// in\n    tag_454:\n        /* \"#utility.yul\":4874:5017   */\n      swap3\n      swap2\n      pop\n      pop\n      jump\t// out\n        /* \"#utility.yul\":5023:5374   */\n    tag_111:\n        /* \"#utility.yul\":5093:5099   */\n      0x00\n        /* \"#utility.yul\":5142:5144   */\n      0x20\n        /* \"#utility.yul\":5130:5139   */\n      dup3\n        /* \"#utility.yul\":5121:5128   */\n      dup5\n        /* \"#utility.yul\":5117:5140   */\n      sub\n        /* \"#utility.yul\":5113:5145   */\n      slt\n        /* \"#utility.yul\":5110:5229   */\n      iszero\n      tag_456\n      jumpi\n        /* \"#utility.yul\":5148:5227   */\n      tag_457\n      tag_333\n      jump\t// in\n    tag_457:\n        /* \"#utility.yul\":5110:5229   */\n    tag_456:\n        /* \"#utility.yul\":5268:5269   */\n      0x00\n        /* \"#utility.yul\":5293:5357   */\n      tag_458\n        /* \"#utility.yul\":5349:5356   */\n      dup5\n        /* \"#utility.yul\":5340:5346   */\n      dup3\n        /* \"#utility.yul\":5329:5338   */\n      dup6\n        /* \"#utility.yul\":5325:5347   */\n      add\n        /* \"#utility.yul\":5293:5357   */\n      tag_351\n      jump\t// in\n    tag_458:\n        /* \"#utility.yul\":5283:5357   */\n      swap2\n      pop\n        /* \"#utility.yul\":5239:5367   */\n      pop\n        /* \"#utility.yul\":5023:5374   */\n      swap3\n      swap2\n      pop\n      pop\n      jump\t// out\n        /* \"#utility.yul\":5380:5549   */\n    tag_352:\n        /* \"#utility.yul\":5464:5475   */\n      0x00\n        /* \"#utility.yul\":5498:5504   */\n      dup3\n        /* \"#utility.yul\":5493:5496   */\n      dup3\n        /* \"#utility.yul\":5486:5505   */\n      mstore\n        /* \"#utility.yul\":5538:5542   */\n      0x20\n        /* \"#utility.yul\":5533:5536   */\n      dup3\n        /* \"#utility.yul\":5529:5543   */\n      add\n        /* \"#utility.yul\":5514:5543   */\n      swap1\n      pop\n        /* \"#utility.yul\":5380:5549   */\n      swap3\n      swap2\n      pop\n      pop\n      jump\t// out\n        /* \"#utility.yul\":5555:5725   */\n    tag_353:\n        /* \"#utility.yul\":5695:5717   */\n      0x496e76616c696420696e70757420616d6f756e74000000000000000000000000\n        /* \"#utility.yul\":5691:5692   */\n      0x00\n        /* \"#utility.yul\":5683:5689   */\n      dup3\n        /* \"#utility.yul\":5679:5693   */\n      add\n        /* \"#utility.yul\":5672:5718   */\n      mstore\n        /* \"#utility.yul\":5555:5725   */\n      pop\n      jump\t// out\n        /* \"#utility.yul\":5731:6097   */\n    tag_354:\n        /* \"#utility.yul\":5873:5876   */\n      0x00\n        /* \"#utility.yul\":5894:5961   */\n      tag_462\n        /* \"#utility.yul\":5958:5960   */\n      0x14\n        /* \"#utility.yul\":5953:5956   */\n      dup4\n        /* \"#utility.yul\":5894:5961   */\n      tag_352\n      jump\t// in\n    tag_462:\n        /* \"#utility.yul\":5887:5961   */\n      swap2\n      pop\n        /* \"#utility.yul\":5970:6063   */\n      tag_463\n        /* \"#utility.yul\":6059:6062   */\n      dup3\n        /* \"#utility.yul\":5970:6063   */\n      tag_353\n      jump\t// in\n    tag_463:\n        /* \"#utility.yul\":6088:6090   */\n      0x20\n        /* \"#utility.yul\":6083:6086   */\n      dup3\n        /* \"#utility.yul\":6079:6091   */\n      add\n        /* \"#utility.yul\":6072:6091   */\n      swap1\n      pop\n        /* \"#utility.yul\":5731:6097   */\n      swap2\n      swap1\n      pop\n      jump\t// out\n        /* \"#utility.yul\":6103:6522   */\n    tag_116:\n        /* \"#utility.yul\":6269:6273   */\n      0x00\n        /* \"#utility.yul\":6307:6309   */\n      0x20\n        /* \"#utility.yul\":6296:6305   */\n      dup3\n        /* \"#utility.yul\":6292:6310   */\n      add\n        /* \"#utility.yul\":6284:6310   */\n      swap1\n      pop\n        /* \"#utility.yul\":6356:6365   */\n      dup2\n        /* \"#utility.yul\":6350:6354   */\n      dup2\n        /* \"#utility.yul\":6346:6366   */\n      sub\n        /* \"#utility.yul\":6342:6343   */\n      0x00\n        /* \"#utility.yul\":6331:6340   */\n      dup4\n        /* \"#utility.yul\":6327:6344   */\n      add\n        /* \"#utility.yul\":6320:6367   */\n      mstore\n        /* \"#utility.yul\":6384:6515   */\n      tag_465\n        /* \"#utility.yul\":6510:6514   */\n      dup2\n        /* \"#utility.yul\":6384:6515   */\n      tag_354\n      jump\t// in\n    tag_465:\n        /* \"#utility.yul\":6376:6515   */\n      swap1\n      pop\n        /* \"#utility.yul\":6103:6522   */\n      swap2\n      swap1\n      pop\n      jump\t// out\n        /* \"#utility.yul\":6528:6703   */\n    tag_355:\n        /* \"#utility.yul\":6668:6695   */\n      0x457870656374656420736c697070616765206e6f742073657400000000000000\n        /* \"#utility.yul\":6664:6665   */\n      0x00\n        /* \"#utility.yul\":6656:6662   */\n      dup3\n        /* \"#utility.yul\":6652:6666   */\n      add\n        /* \"#utility.yul\":6645:6696   */\n      mstore\n        /* \"#utility.yul\":6528:6703   */\n      pop\n      jump\t// out\n        /* \"#utility.yul\":6709:7075   */\n    tag_356:\n        /* \"#utility.yul\":6851:6854   */\n      0x00\n        /* \"#utility.yul\":6872:6939   */\n      tag_468\n        /* \"#utility.yul\":6936:6938   */\n      0x19\n        /* \"#utility.yul\":6931:6934   */\n      dup4\n        /* \"#utility.yul\":6872:6939   */\n      tag_352\n      jump\t// in\n    tag_468:\n        /* \"#utility.yul\":6865:6939   */\n      swap2\n      pop\n        /* \"#utility.yul\":6948:7041   */\n      tag_469\n        /* \"#utility.yul\":7037:7040   */\n      dup3\n        /* \"#utility.yul\":6948:7041   */\n      tag_355\n      jump\t// in\n    tag_469:\n        /* \"#utility.yul\":7066:7068   */\n      0x20\n        /* \"#utility.yul\":7061:7064   */\n      dup3\n        /* \"#utility.yul\":7057:7069   */\n      add\n        /* \"#utility.yul\":7050:7069   */\n      swap1\n      pop\n        /* \"#utility.yul\":6709:7075   */\n      swap2\n      swap1\n      pop\n      jump\t// out\n        /* \"#utility.yul\":7081:7500   */\n    tag_119:\n        /* \"#utility.yul\":7247:7251   */\n      0x00\n        /* \"#utility.yul\":7285:7287   */\n      0x20\n        /* \"#utility.yul\":7274:7283   */\n      dup3\n        /* \"#utility.yul\":7270:7288   */\n      add\n        /* \"#utility.yul\":7262:7288   */\n      swap1\n      pop\n        /* \"#utility.yul\":7334:7343   */\n      dup2\n        /* \"#utility.yul\":7328:7332   */\n      dup2\n        /* \"#utility.yul\":7324:7344   */\n      sub\n        /* \"#utility.yul\":7320:7321   */\n      0x00\n        /* \"#utility.yul\":7309:7318   */\n      dup4\n        /* \"#utility.yul\":7305:7322   */\n      add\n        /* \"#utility.yul\":7298:7345   */\n      mstore\n        /* \"#utility.yul\":7362:7493   */\n      tag_471\n        /* \"#utility.yul\":7488:7492   */\n      dup2\n        /* \"#utility.yul\":7362:7493   */\n      tag_356\n      jump\t// in\n    tag_471:\n        /* \"#utility.yul\":7354:7493   */\n      swap1\n      pop\n        /* \"#utility.yul\":7081:7500   */\n      swap2\n      swap1\n      pop\n      jump\t// out\n        /* \"#utility.yul\":7506:7686   */\n    tag_357:\n        /* \"#utility.yul\":7554:7631   */\n      0x4e487b7100000000000000000000000000000000000000000000000000000000\n        /* \"#utility.yul\":7551:7552   */\n      0x00\n        /* \"#utility.yul\":7544:7632   */\n      mstore\n        /* \"#utility.yul\":7651:7655   */\n      0x11\n        /* \"#utility.yul\":7648:7649   */\n      0x04\n        /* \"#utility.yul\":7641:7656   */\n      mstore\n        /* \"#utility.yul\":7675:7679   */\n      0x24\n        /* \"#utility.yul\":7672:7673   */\n      0x00\n        /* \"#utility.yul\":7665:7680   */\n      revert\n        /* \"#utility.yul\":7692:8102   */\n    tag_121:\n        /* \"#utility.yul\":7732:7739   */\n      0x00\n        /* \"#utility.yul\":7755:7775   */\n      tag_474\n        /* \"#utility.yul\":7773:7774   */\n      dup3\n        /* \"#utility.yul\":7755:7775   */\n      tag_339\n      jump\t// in\n    tag_474:\n        /* \"#utility.yul\":7750:7775   */\n      swap2\n      pop\n        /* \"#utility.yul\":7789:7809   */\n      tag_475\n        /* \"#utility.yul\":7807:7808   */\n      dup4\n        /* \"#utility.yul\":7789:7809   */\n      tag_339\n      jump\t// in\n    tag_475:\n        /* \"#utility.yul\":7784:7809   */\n      swap3\n      pop\n        /* \"#utility.yul\":7844:7845   */\n      dup3\n        /* \"#utility.yul\":7841:7842   */\n      dup3\n        /* \"#utility.yul\":7837:7846   */\n      mul\n        /* \"#utility.yul\":7866:7896   */\n      tag_476\n        /* \"#utility.yul\":7884:7895   */\n      dup2\n        /* \"#utility.yul\":7866:7896   */\n      tag_339\n      jump\t// in\n    tag_476:\n        /* \"#utility.yul\":7855:7896   */\n      swap2\n      pop\n        /* \"#utility.yul\":8045:8046   */\n      dup3\n        /* \"#utility.yul\":8036:8043   */\n      dup3\n        /* \"#utility.yul\":8032:8047   */\n      div\n        /* \"#utility.yul\":8029:8030   */\n      dup5\n        /* \"#utility.yul\":8026:8048   */\n      eq\n        /* \"#utility.yul\":8006:8007   */\n      dup4\n        /* \"#utility.yul\":7999:8008   */\n      iszero\n        /* \"#utility.yul\":7979:8062   */\n      or\n        /* \"#utility.yul\":7956:8095   */\n      tag_477\n      jumpi\n        /* \"#utility.yul\":8075:8093   */\n      tag_478\n      tag_357\n      jump\t// in\n    tag_478:\n        /* \"#utility.yul\":7956:8095   */\n    tag_477:\n        /* \"#utility.yul\":7740:8102   */\n      pop\n        /* \"#utility.yul\":7692:8102   */\n      swap3\n      swap2\n      pop\n      pop\n      jump\t// out\n        /* \"#utility.yul\":8108:8288   */\n    tag_358:\n        /* \"#utility.yul\":8156:8233   */\n      0x4e487b7100000000000000000000000000000000000000000000000000000000\n        /* \"#utility.yul\":8153:8154   */\n      0x00\n        /* \"#utility.yul\":8146:8234   */\n      mstore\n        /* \"#utility.yul\":8253:8257   */\n      0x12\n        /* \"#utility.yul\":8250:8251   */\n      0x04\n        /* \"#utility.yul\":8243:8258   */\n      mstore\n        /* \"#utility.yul\":8277:8281   */\n      0x24\n        /* \"#utility.yul\":8274:8275   */\n      0x00\n        /* \"#utility.yul\":8267:8282   */\n      revert\n        /* \"#utility.yul\":8294:8479   */\n    tag_123:\n        /* \"#utility.yul\":8334:8335   */\n      0x00\n        /* \"#utility.yul\":8351:8371   */\n      tag_481\n        /* \"#utility.yul\":8369:8370   */\n      dup3\n        /* \"#utility.yul\":8351:8371   */\n      tag_339\n      jump\t// in\n    tag_481:\n        /* \"#utility.yul\":8346:8371   */\n      swap2\n      pop\n        /* \"#utility.yul\":8385:8405   */\n      tag_482\n        /* \"#utility.yul\":8403:8404   */\n      dup4\n        /* \"#utility.yul\":8385:8405   */\n      tag_339\n      jump\t// in\n    tag_482:\n        /* \"#utility.yul\":8380:8405   */\n      swap3\n      pop\n        /* \"#utility.yul\":8424:8425   */\n      dup3\n        /* \"#utility.yul\":8414:8449   */\n      tag_483\n      jumpi\n        /* \"#utility.yul\":8429:8447   */\n      tag_484\n      tag_358\n      jump\t// in\n    tag_484:\n        /* \"#utility.yul\":8414:8449   */\n    tag_483:\n        /* \"#utility.yul\":8471:8472   */\n      dup3\n        /* \"#utility.yul\":8468:8469   */\n      dup3\n        /* \"#utility.yul\":8464:8473   */\n      div\n        /* \"#utility.yul\":8459:8473   */\n      swap1\n      pop\n        /* \"#utility.yul\":8294:8479   */\n      swap3\n      swap2\n      pop\n      pop\n      jump\t// out\n        /* \"#utility.yul\":8485:8679   */\n    tag_125:\n        /* \"#utility.yul\":8525:8529   */\n      0x00\n        /* \"#utility.yul\":8545:8565   */\n      tag_486\n        /* \"#utility.yul\":8563:8564   */\n      dup3\n        /* \"#utility.yul\":8545:8565   */\n      tag_339\n      jump\t// in\n    tag_486:\n        /* \"#utility.yul\":8540:8565   */\n      swap2\n      pop\n        /* \"#utility.yul\":8579:8599   */\n      tag_487\n        /* \"#utility.yul\":8597:8598   */\n      dup4\n        /* \"#utility.yul\":8579:8599   */\n      tag_339\n      jump\t// in\n    tag_487:\n        /* \"#utility.yul\":8574:8599   */\n      swap3\n      pop\n        /* \"#utility.yul\":8623:8624   */\n      dup3\n        /* \"#utility.yul\":8620:8621   */\n      dup3\n        /* \"#utility.yul\":8616:8625   */\n      sub\n        /* \"#utility.yul\":8608:8625   */\n      swap1\n      pop\n        /* \"#utility.yul\":8647:8648   */\n      dup2\n        /* \"#utility.yul\":8641:8645   */\n      dup2\n        /* \"#utility.yul\":8638:8649   */\n      gt\n        /* \"#utility.yul\":8635:8672   */\n      iszero\n      tag_488\n      jumpi\n        /* \"#utility.yul\":8652:8670   */\n      tag_489\n      tag_357\n      jump\t// in\n    tag_489:\n        /* \"#utility.yul\":8635:8672   */\n    tag_488:\n        /* \"#utility.yul\":8485:8679   */\n      swap3\n      swap2\n      pop\n      pop\n      jump\t// out\n        /* \"#utility.yul\":8685:8862   */\n    tag_359:\n        /* \"#utility.yul\":8825:8854   */\n      0x61637475616c20736c69707061676520697320746f6f20686967680000000000\n        /* \"#utility.yul\":8821:8822   */\n      0x00\n        /* \"#utility.yul\":8813:8819   */\n      dup3\n        /* \"#utility.yul\":8809:8823   */\n      add\n        /* \"#utility.yul\":8802:8855   */\n      mstore\n        /* \"#utility.yul\":8685:8862   */\n      pop\n      jump\t// out\n        /* \"#utility.yul\":8868:9234   */\n    tag_360:\n        /* \"#utility.yul\":9010:9013   */\n      0x00\n        /* \"#utility.yul\":9031:9098   */\n      tag_492\n        /* \"#utility.yul\":9095:9097   */\n      0x1b\n        /* \"#utility.yul\":9090:9093   */\n      dup4\n        /* \"#utility.yul\":9031:9098   */\n      tag_352\n      jump\t// in\n    tag_492:\n        /* \"#utility.yul\":9024:9098   */\n      swap2\n      pop\n        /* \"#utility.yul\":9107:9200   */\n      tag_493\n        /* \"#utility.yul\":9196:9199   */\n      dup3\n        /* \"#utility.yul\":9107:9200   */\n      tag_359\n      jump\t// in\n    tag_493:\n        /* \"#utility.yul\":9225:9227   */\n      0x20\n        /* \"#utility.yul\":9220:9223   */\n      dup3\n        /* \"#utility.yul\":9216:9228   */\n      add\n        /* \"#utility.yul\":9209:9228   */\n      swap1\n      pop\n        /* \"#utility.yul\":8868:9234   */\n      swap2\n      swap1\n      pop\n      jump\t// out\n        /* \"#utility.yul\":9240:9659   */\n    tag_129:\n        /* \"#utility.yul\":9406:9410   */\n      0x00\n        /* \"#utility.yul\":9444:9446   */\n      0x20\n        /* \"#utility.yul\":9433:9442   */\n      dup3\n        /* \"#utility.yul\":9429:9447   */\n      add\n        /* \"#utility.yul\":9421:9447   */\n      swap1\n      pop\n        /* \"#utility.yul\":9493:9502   */\n      dup2\n        /* \"#utility.yul\":9487:9491   */\n      dup2\n        /* \"#utility.yul\":9483:9503   */\n      sub\n        /* \"#utility.yul\":9479:9480   */\n      0x00\n        /* \"#utility.yul\":9468:9477   */\n      dup4\n        /* \"#utility.yul\":9464:9481   */\n      add\n        /* \"#utility.yul\":9457:9504   */\n      mstore\n        /* \"#utility.yul\":9521:9652   */\n      tag_495\n        /* \"#utility.yul\":9647:9651   */\n      dup2\n        /* \"#utility.yul\":9521:9652   */\n      tag_360\n      jump\t// in\n    tag_495:\n        /* \"#utility.yul\":9513:9652   */\n      swap1\n      pop\n        /* \"#utility.yul\":9240:9659   */\n      swap2\n      swap1\n      pop\n      jump\t// out\n        /* \"#utility.yul\":9665:9856   */\n    tag_131:\n        /* \"#utility.yul\":9705:9708   */\n      0x00\n        /* \"#utility.yul\":9724:9744   */\n      tag_497\n        /* \"#utility.yul\":9742:9743   */\n      dup3\n        /* \"#utility.yul\":9724:9744   */\n      tag_339\n      jump\t// in\n    tag_497:\n        /* \"#utility.yul\":9719:9744   */\n      swap2\n      pop\n        /* \"#utility.yul\":9758:9778   */\n      tag_498\n        /* \"#utility.yul\":9776:9777   */\n      dup4\n        /* \"#utility.yul\":9758:9778   */\n      tag_339\n      jump\t// in\n    tag_498:\n        /* \"#utility.yul\":9753:9778   */\n      swap3\n      pop\n        /* \"#utility.yul\":9801:9802   */\n      dup3\n        /* \"#utility.yul\":9798:9799   */\n      dup3\n        /* \"#utility.yul\":9794:9803   */\n      add\n        /* \"#utility.yul\":9787:9803   */\n      swap1\n      pop\n        /* \"#utility.yul\":9822:9825   */\n      dup1\n        /* \"#utility.yul\":9819:9820   */\n      dup3\n        /* \"#utility.yul\":9816:9826   */\n      gt\n        /* \"#utility.yul\":9813:9849   */\n      iszero\n      tag_499\n      jumpi\n        /* \"#utility.yul\":9829:9847   */\n      tag_500\n      tag_357\n      jump\t// in\n    tag_500:\n        /* \"#utility.yul\":9813:9849   */\n    tag_499:\n        /* \"#utility.yul\":9665:9856   */\n      swap3\n      swap2\n      pop\n      pop\n      jump\t// out\n        /* \"#utility.yul\":9862:10304   */\n    tag_136:\n        /* \"#utility.yul\":10011:10015   */\n      0x00\n        /* \"#utility.yul\":10049:10051   */\n      0x60\n        /* \"#utility.yul\":10038:10047   */\n      dup3\n        /* \"#utility.yul\":10034:10052   */\n      add\n        /* \"#utility.yul\":10026:10052   */\n      swap1\n      pop\n        /* \"#utility.yul\":10062:10133   */\n      tag_502\n        /* \"#utility.yul\":10130:10131   */\n      0x00\n        /* \"#utility.yul\":10119:10128   */\n      dup4\n        /* \"#utility.yul\":10115:10132   */\n      add\n        /* \"#utility.yul\":10106:10112   */\n      dup7\n        /* \"#utility.yul\":10062:10133   */\n      tag_350\n      jump\t// in\n    tag_502:\n        /* \"#utility.yul\":10143:10215   */\n      tag_503\n        /* \"#utility.yul\":10211:10213   */\n      0x20\n        /* \"#utility.yul\":10200:10209   */\n      dup4\n        /* \"#utility.yul\":10196:10214   */\n      add\n        /* \"#utility.yul\":10187:10193   */\n      dup6\n        /* \"#utility.yul\":10143:10215   */\n      tag_350\n      jump\t// in\n    tag_503:\n        /* \"#utility.yul\":10225:10297   */\n      tag_504\n        /* \"#utility.yul\":10293:10295   */\n      0x40\n        /* \"#utility.yul\":10282:10291   */\n      dup4\n        /* \"#utility.yul\":10278:10296   */\n      add\n        /* \"#utility.yul\":10269:10275   */\n      dup5\n        /* \"#utility.yul\":10225:10297   */\n      tag_340\n      jump\t// in\n    tag_504:\n        /* \"#utility.yul\":9862:10304   */\n      swap5\n      swap4\n      pop\n      pop\n      pop\n      pop\n      jump\t// out\n        /* \"#utility.yul\":10310:10400   */\n    tag_361:\n        /* \"#utility.yul\":10344:10351   */\n      0x00\n        /* \"#utility.yul\":10387:10392   */\n      dup2\n        /* \"#utility.yul\":10380:10393   */\n      iszero\n        /* \"#utility.yul\":10373:10394   */\n      iszero\n        /* \"#utility.yul\":10362:10394   */\n      swap1\n      pop\n        /* \"#utility.yul\":10310:10400   */\n      swap2\n      swap1\n      pop\n      jump\t// out\n        /* \"#utility.yul\":10406:10522   */\n    tag_362:\n        /* \"#utility.yul\":10476:10497   */\n      tag_507\n        /* \"#utility.yul\":10491:10496   */\n      dup2\n        /* \"#utility.yul\":10476:10497   */\n      tag_361\n      jump\t// in\n    tag_507:\n        /* \"#utility.yul\":10469:10474   */\n      dup2\n        /* \"#utility.yul\":10466:10498   */\n      eq\n        /* \"#utility.yul\":10456:10516   */\n      tag_508\n      jumpi\n        /* \"#utility.yul\":10512:10513   */\n      0x00\n        /* \"#utility.yul\":10509:10510   */\n      dup1\n        /* \"#utility.yul\":10502:10514   */\n      revert\n        /* \"#utility.yul\":10456:10516   */\n    tag_508:\n        /* \"#utility.yul\":10406:10522   */\n      pop\n      jump\t// out\n        /* \"#utility.yul\":10528:10665   */\n    tag_363:\n        /* \"#utility.yul\":10582:10587   */\n      0x00\n        /* \"#utility.yul\":10613:10619   */\n      dup2\n        /* \"#utility.yul\":10607:10620   */\n      mload\n        /* \"#utility.yul\":10598:10620   */\n      swap1\n      pop\n        /* \"#utility.yul\":10629:10659   */\n      tag_510\n        /* \"#utility.yul\":10653:10658   */\n      dup2\n        /* \"#utility.yul\":10629:10659   */\n      tag_362\n      jump\t// in\n    tag_510:\n        /* \"#utility.yul\":10528:10665   */\n      swap3\n      swap2\n      pop\n      pop\n      jump\t// out\n        /* \"#utility.yul\":10671:11016   */\n    tag_140:\n        /* \"#utility.yul\":10738:10744   */\n      0x00\n        /* \"#utility.yul\":10787:10789   */\n      0x20\n        /* \"#utility.yul\":10775:10784   */\n      dup3\n        /* \"#utility.yul\":10766:10773   */\n      dup5\n        /* \"#utility.yul\":10762:10785   */\n      sub\n        /* \"#utility.yul\":10758:10790   */\n      slt\n        /* \"#utility.yul\":10755:10874   */\n      iszero\n      tag_512\n      jumpi\n        /* \"#utility.yul\":10793:10872   */\n      tag_513\n      tag_333\n      jump\t// in\n    tag_513:\n        /* \"#utility.yul\":10755:10874   */\n    tag_512:\n        /* \"#utility.yul\":10913:10914   */\n      0x00\n        /* \"#utility.yul\":10938:10999   */\n      tag_514\n        /* \"#utility.yul\":10991:10998   */\n      dup5\n        /* \"#utility.yul\":10982:10988   */\n      dup3\n        /* \"#utility.yul\":10971:10980   */\n      dup6\n        /* \"#utility.yul\":10967:10989   */\n      add\n        /* \"#utility.yul\":10938:10999   */\n      tag_363\n      jump\t// in\n    tag_514:\n        /* \"#utility.yul\":10928:10999   */\n      swap2\n      pop\n        /* \"#utility.yul\":10884:11009   */\n      pop\n        /* \"#utility.yul\":10671:11016   */\n      swap3\n      swap2\n      pop\n      pop\n      jump\t// out\n        /* \"#utility.yul\":11022:11195   */\n    tag_364:\n        /* \"#utility.yul\":11162:11187   */\n      0x546f6b656e2042207472616e73666572206661696c6564000000000000000000\n        /* \"#utility.yul\":11158:11159   */\n      0x00\n        /* \"#utility.yul\":11150:11156   */\n      dup3\n        /* \"#utility.yul\":11146:11160   */\n      add\n        /* \"#utility.yul\":11139:11188   */\n      mstore\n        /* \"#utility.yul\":11022:11195   */\n      pop\n      jump\t// out\n        /* \"#utility.yul\":11201:11567   */\n    tag_365:\n        /* \"#utility.yul\":11343:11346   */\n      0x00\n        /* \"#utility.yul\":11364:11431   */\n      tag_517\n        /* \"#utility.yul\":11428:11430   */\n      0x17\n        /* \"#utility.yul\":11423:11426   */\n      dup4\n        /* \"#utility.yul\":11364:11431   */\n      tag_352\n      jump\t// in\n    tag_517:\n        /* \"#utility.yul\":11357:11431   */\n      swap2\n      pop\n        /* \"#utility.yul\":11440:11533   */\n      tag_518\n        /* \"#utility.yul\":11529:11532   */\n      dup3\n        /* \"#utility.yul\":11440:11533   */\n      tag_364\n      jump\t// in\n    tag_518:\n        /* \"#utility.yul\":11558:11560   */\n      0x20\n        /* \"#utility.yul\":11553:11556   */\n      dup3\n        /* \"#utility.yul\":11549:11561   */\n      add\n        /* \"#utility.yul\":11542:11561   */\n      swap1\n      pop\n        /* \"#utility.yul\":11201:11567   */\n      swap2\n      swap1\n      pop\n      jump\t// out\n        /* \"#utility.yul\":11573:11992   */\n    tag_143:\n        /* \"#utility.yul\":11739:11743   */\n      0x00\n        /* \"#utility.yul\":11777:11779   */\n      0x20\n        /* \"#utility.yul\":11766:11775   */\n      dup3\n        /* \"#utility.yul\":11762:11780   */\n      add\n        /* \"#utility.yul\":11754:11780   */\n      swap1\n      pop\n        /* \"#utility.yul\":11826:11835   */\n      dup2\n        /* \"#utility.yul\":11820:11824   */\n      dup2\n        /* \"#utility.yul\":11816:11836   */\n      sub\n        /* \"#utility.yul\":11812:11813   */\n      0x00\n        /* \"#utility.yul\":11801:11810   */\n      dup4\n        /* \"#utility.yul\":11797:11814   */\n      add\n        /* \"#utility.yul\":11790:11837   */\n      mstore\n        /* \"#utility.yul\":11854:11985   */\n      tag_520\n        /* \"#utility.yul\":11980:11984   */\n      dup2\n        /* \"#utility.yul\":11854:11985   */\n      tag_365\n      jump\t// in\n    tag_520:\n        /* \"#utility.yul\":11846:11985   */\n      swap1\n      pop\n        /* \"#utility.yul\":11573:11992   */\n      swap2\n      swap1\n      pop\n      jump\t// out\n        /* \"#utility.yul\":11998:12330   */\n    tag_145:\n        /* \"#utility.yul\":12119:12123   */\n      0x00\n        /* \"#utility.yul\":12157:12159   */\n      0x40\n        /* \"#utility.yul\":12146:12155   */\n      dup3\n        /* \"#utility.yul\":12142:12160   */\n      add\n        /* \"#utility.yul\":12134:12160   */\n      swap1\n      pop\n        /* \"#utility.yul\":12170:12241   */\n      tag_522\n        /* \"#utility.yul\":12238:12239   */\n      0x00\n        /* \"#utility.yul\":12227:12236   */\n      dup4\n        /* \"#utility.yul\":12223:12240   */\n      add\n        /* \"#utility.yul\":12214:12220   */\n      dup6\n        /* \"#utility.yul\":12170:12241   */\n      tag_350\n      jump\t// in\n    tag_522:\n        /* \"#utility.yul\":12251:12323   */\n      tag_523\n        /* \"#utility.yul\":12319:12321   */\n      0x20\n        /* \"#utility.yul\":12308:12317   */\n      dup4\n        /* \"#utility.yul\":12304:12322   */\n      add\n        /* \"#utility.yul\":12295:12301   */\n      dup5\n        /* \"#utility.yul\":12251:12323   */\n      tag_340\n      jump\t// in\n    tag_523:\n        /* \"#utility.yul\":11998:12330   */\n      swap4\n      swap3\n      pop\n      pop\n      pop\n      jump\t// out\n        /* \"#utility.yul\":12336:12509   */\n    tag_366:\n        /* \"#utility.yul\":12476:12501   */\n      0x546f6b656e2041207472616e73666572206661696c6564000000000000000000\n        /* \"#utility.yul\":12472:12473   */\n      0x00\n        /* \"#utility.yul\":12464:12470   */\n      dup3\n        /* \"#utility.yul\":12460:12474   */\n      add\n        /* \"#utility.yul\":12453:12502   */\n      mstore\n        /* \"#utility.yul\":12336:12509   */\n      pop\n      jump\t// out\n        /* \"#utility.yul\":12515:12881   */\n    tag_367:\n        /* \"#utility.yul\":12657:12660   */\n      0x00\n        /* \"#utility.yul\":12678:12745   */\n      tag_526\n        /* \"#utility.yul\":12742:12744   */\n      0x17\n        /* \"#utility.yul\":12737:12740   */\n      dup4\n        /* \"#utility.yul\":12678:12745   */\n      tag_352\n      jump\t// in\n    tag_526:\n        /* \"#utility.yul\":12671:12745   */\n      swap2\n      pop\n        /* \"#utility.yul\":12754:12847   */\n      tag_527\n        /* \"#utility.yul\":12843:12846   */\n      dup3\n        /* \"#utility.yul\":12754:12847   */\n      tag_366\n      jump\t// in\n    tag_527:\n        /* \"#utility.yul\":12872:12874   */\n      0x20\n        /* \"#utility.yul\":12867:12870   */\n      dup3\n        /* \"#utility.yul\":12863:12875   */\n      add\n        /* \"#utility.yul\":12856:12875   */\n      swap1\n      pop\n        /* \"#utility.yul\":12515:12881   */\n      swap2\n      swap1\n      pop\n      jump\t// out\n        /* \"#utility.yul\":12887:13306   */\n    tag_151:\n        /* \"#utility.yul\":13053:13057   */\n      0x00\n        /* \"#utility.yul\":13091:13093   */\n      0x20\n        /* \"#utility.yul\":13080:13089   */\n      dup3\n        /* \"#utility.yul\":13076:13094   */\n      add\n        /* \"#utility.yul\":13068:13094   */\n      swap1\n      pop\n        /* \"#utility.yul\":13140:13149   */\n      dup2\n        /* \"#utility.yul\":13134:13138   */\n      dup2\n        /* \"#utility.yul\":13130:13150   */\n      sub\n        /* \"#utility.yul\":13126:13127   */\n      0x00\n        /* \"#utility.yul\":13115:13124   */\n      dup4\n        /* \"#utility.yul\":13111:13128   */\n      add\n        /* \"#utility.yul\":13104:13151   */\n      mstore\n        /* \"#utility.yul\":13168:13299   */\n      tag_529\n        /* \"#utility.yul\":13294:13298   */\n      dup2\n        /* \"#utility.yul\":13168:13299   */\n      tag_367\n      jump\t// in\n    tag_529:\n        /* \"#utility.yul\":13160:13299   */\n      swap1\n      pop\n        /* \"#utility.yul\":12887:13306   */\n      swap2\n      swap1\n      pop\n      jump\t// out\n        /* \"#utility.yul\":13312:13480   */\n    tag_368:\n        /* \"#utility.yul\":13452:13472   */\n      0x6769766520636f72726563742076616c75650000000000000000000000000000\n        /* \"#utility.yul\":13448:13449   */\n      0x00\n        /* \"#utility.yul\":13440:13446   */\n      dup3\n        /* \"#utility.yul\":13436:13450   */\n      add\n        /* \"#utility.yul\":13429:13473   */\n      mstore\n        /* \"#utility.yul\":13312:13480   */\n      pop\n      jump\t// out\n        /* \"#utility.yul\":13486:13852   */\n    tag_369:\n        /* \"#utility.yul\":13628:13631   */\n      0x00\n        /* \"#utility.yul\":13649:13716   */\n      tag_532\n        /* \"#utility.yul\":13713:13715   */\n      0x12\n        /* \"#utility.yul\":13708:13711   */\n      dup4\n        /* \"#utility.yul\":13649:13716   */\n      tag_352\n      jump\t// in\n    tag_532:\n        /* \"#utility.yul\":13642:13716   */\n      swap2\n      pop\n        /* \"#utility.yul\":13725:13818   */\n      tag_533\n        /* \"#utility.yul\":13814:13817   */\n      dup3\n        /* \"#utility.yul\":13725:13818   */\n      tag_368\n      jump\t// in\n    tag_533:\n        /* \"#utility.yul\":13843:13845   */\n      0x20\n        /* \"#utility.yul\":13838:13841   */\n      dup3\n        /* \"#utility.yul\":13834:13846   */\n      add\n        /* \"#utility.yul\":13827:13846   */\n      swap1\n      pop\n        /* \"#utility.yul\":13486:13852   */\n      swap2\n      swap1\n      pop\n      jump\t// out\n        /* \"#utility.yul\":13858:14277   */\n    tag_155:\n        /* \"#utility.yul\":14024:14028   */\n      0x00\n        /* \"#utility.yul\":14062:14064   */\n      0x20\n        /* \"#utility.yul\":14051:14060   */\n      dup3\n        /* \"#utility.yul\":14047:14065   */\n      add\n        /* \"#utility.yul\":14039:14065   */\n      swap1\n      pop\n        /* \"#utility.yul\":14111:14120   */\n      dup2\n        /* \"#utility.yul\":14105:14109   */\n      dup2\n        /* \"#utility.yul\":14101:14121   */\n      sub\n        /* \"#utility.yul\":14097:14098   */\n      0x00\n        /* \"#utility.yul\":14086:14095   */\n      dup4\n        /* \"#utility.yul\":14082:14099   */\n      add\n        /* \"#utility.yul\":14075:14122   */\n      mstore\n        /* \"#utility.yul\":14139:14270   */\n      tag_535\n        /* \"#utility.yul\":14265:14269   */\n      dup2\n        /* \"#utility.yul\":14139:14270   */\n      tag_369\n      jump\t// in\n    tag_535:\n        /* \"#utility.yul\":14131:14270   */\n      swap1\n      pop\n        /* \"#utility.yul\":13858:14277   */\n      swap2\n      swap1\n      pop\n      jump\t// out\n        /* \"#utility.yul\":14283:14447   */\n    tag_370:\n        /* \"#utility.yul\":14423:14439   */\n      0x496e76616c696420616d6f756e74000000000000000000000000000000000000\n        /* \"#utility.yul\":14419:14420   */\n      0x00\n        /* \"#utility.yul\":14411:14417   */\n      dup3\n        /* \"#utility.yul\":14407:14421   */\n      add\n        /* \"#utility.yul\":14400:14440   */\n      mstore\n        /* \"#utility.yul\":14283:14447   */\n      pop\n      jump\t// out\n        /* \"#utility.yul\":14453:14819   */\n    tag_371:\n        /* \"#utility.yul\":14595:14598   */\n      0x00\n        /* \"#utility.yul\":14616:14683   */\n      tag_538\n        /* \"#utility.yul\":14680:14682   */\n      0x0e\n        /* \"#utility.yul\":14675:14678   */\n      dup4\n        /* \"#utility.yul\":14616:14683   */\n      tag_352\n      jump\t// in\n    tag_538:\n        /* \"#utility.yul\":14609:14683   */\n      swap2\n      pop\n        /* \"#utility.yul\":14692:14785   */\n      tag_539\n        /* \"#utility.yul\":14781:14784   */\n      dup3\n        /* \"#utility.yul\":14692:14785   */\n      tag_370\n      jump\t// in\n    tag_539:\n        /* \"#utility.yul\":14810:14812   */\n      0x20\n        /* \"#utility.yul\":14805:14808   */\n      dup3\n        /* \"#utility.yul\":14801:14813   */\n      add\n        /* \"#utility.yul\":14794:14813   */\n      swap1\n      pop\n        /* \"#utility.yul\":14453:14819   */\n      swap2\n      swap1\n      pop\n      jump\t// out\n        /* \"#utility.yul\":14825:15244   */\n    tag_167:\n        /* \"#utility.yul\":14991:14995   */\n      0x00\n        /* \"#utility.yul\":15029:15031   */\n      0x20\n        /* \"#utility.yul\":15018:15027   */\n      dup3\n        /* \"#utility.yul\":15014:15032   */\n      add\n        /* \"#utility.yul\":15006:15032   */\n      swap1\n      pop\n        /* \"#utility.yul\":15078:15087   */\n      dup2\n        /* \"#utility.yul\":15072:15076   */\n      dup2\n        /* \"#utility.yul\":15068:15088   */\n      sub\n        /* \"#utility.yul\":15064:15065   */\n      0x00\n        /* \"#utility.yul\":15053:15062   */\n      dup4\n        /* \"#utility.yul\":15049:15066   */\n      add\n        /* \"#utility.yul\":15042:15089   */\n      mstore\n        /* \"#utility.yul\":15106:15237   */\n      tag_541\n        /* \"#utility.yul\":15232:15236   */\n      dup2\n        /* \"#utility.yul\":15106:15237   */\n      tag_371\n      jump\t// in\n    tag_541:\n        /* \"#utility.yul\":15098:15237   */\n      swap1\n      pop\n        /* \"#utility.yul\":14825:15244   */\n      swap2\n      swap1\n      pop\n      jump\t// out\n        /* \"#utility.yul\":15250:15422   */\n    tag_372:\n        /* \"#utility.yul\":15390:15414   */\n      0x496e73756666696369656e74206c697175696469747900000000000000000000\n        /* \"#utility.yul\":15386:15387   */\n      0x00\n        /* \"#utility.yul\":15378:15384   */\n      dup3\n        /* \"#utility.yul\":15374:15388   */\n      add\n        /* \"#utility.yul\":15367:15415   */\n      mstore\n        /* \"#utility.yul\":15250:15422   */\n      pop\n      jump\t// out\n        /* \"#utility.yul\":15428:15794   */\n    tag_373:\n        /* \"#utility.yul\":15570:15573   */\n      0x00\n        /* \"#utility.yul\":15591:15658   */\n      tag_544\n        /* \"#utility.yul\":15655:15657   */\n      0x16\n        /* \"#utility.yul\":15650:15653   */\n      dup4\n        /* \"#utility.yul\":15591:15658   */\n      tag_352\n      jump\t// in\n    tag_544:\n        /* \"#utility.yul\":15584:15658   */\n      swap2\n      pop\n        /* \"#utility.yul\":15667:15760   */\n      tag_545\n        /* \"#utility.yul\":15756:15759   */\n      dup3\n        /* \"#utility.yul\":15667:15760   */\n      tag_372\n      jump\t// in\n    tag_545:\n        /* \"#utility.yul\":15785:15787   */\n      0x20\n        /* \"#utility.yul\":15780:15783   */\n      dup3\n        /* \"#utility.yul\":15776:15788   */\n      add\n        /* \"#utility.yul\":15769:15788   */\n      swap1\n      pop\n        /* \"#utility.yul\":15428:15794   */\n      swap2\n      swap1\n      pop\n      jump\t// out\n        /* \"#utility.yul\":15800:16219   */\n    tag_170:\n        /* \"#utility.yul\":15966:15970   */\n      0x00\n        /* \"#utility.yul\":16004:16006   */\n      0x20\n        /* \"#utility.yul\":15993:16002   */\n      dup3\n        /* \"#utility.yul\":15989:16007   */\n      add\n        /* \"#utility.yul\":15981:16007   */\n      swap1\n      pop\n        /* \"#utility.yul\":16053:16062   */\n      dup2\n        /* \"#utility.yul\":16047:16051   */\n      dup2\n        /* \"#utility.yul\":16043:16063   */\n      sub\n        /* \"#utility.yul\":16039:16040   */\n      0x00\n        /* \"#utility.yul\":16028:16037   */\n      dup4\n        /* \"#utility.yul\":16024:16041   */\n      add\n        /* \"#utility.yul\":16017:16064   */\n      mstore\n        /* \"#utility.yul\":16081:16212   */\n      tag_547\n        /* \"#utility.yul\":16207:16211   */\n      dup2\n        /* \"#utility.yul\":16081:16212   */\n      tag_373\n      jump\t// in\n    tag_547:\n        /* \"#utility.yul\":16073:16212   */\n      swap1\n      pop\n        /* \"#utility.yul\":15800:16219   */\n      swap2\n      swap1\n      pop\n      jump\t// out\n        /* \"#utility.yul\":16225:16387   */\n    tag_374:\n        /* \"#utility.yul\":16365:16379   */\n      0x4e6f206c69717569646974790000000000000000000000000000000000000000\n        /* \"#utility.yul\":16361:16362   */\n      0x00\n        /* \"#utility.yul\":16353:16359   */\n      dup3\n        /* \"#utility.yul\":16349:16363   */\n      add\n        /* \"#utility.yul\":16342:16380   */\n      mstore\n        /* \"#utility.yul\":16225:16387   */\n      pop\n      jump\t// out\n        /* \"#utility.yul\":16393:16759   */\n    tag_375:\n        /* \"#utility.yul\":16535:16538   */\n      0x00\n        /* \"#utility.yul\":16556:16623   */\n      tag_550\n        /* \"#utility.yul\":16620:16622   */\n      0x0c\n        /* \"#utility.yul\":16615:16618   */\n      dup4\n        /* \"#utility.yul\":16556:16623   */\n      tag_352\n      jump\t// in\n    tag_550:\n        /* \"#utility.yul\":16549:16623   */\n      swap2\n      pop\n        /* \"#utility.yul\":16632:16725   */\n      tag_551\n        /* \"#utility.yul\":16721:16724   */\n      dup3\n        /* \"#utility.yul\":16632:16725   */\n      tag_374\n      jump\t// in\n    tag_551:\n        /* \"#utility.yul\":16750:16752   */\n      0x20\n        /* \"#utility.yul\":16745:16748   */\n      dup3\n        /* \"#utility.yul\":16741:16753   */\n      add\n        /* \"#utility.yul\":16734:16753   */\n      swap1\n      pop\n        /* \"#utility.yul\":16393:16759   */\n      swap2\n      swap1\n      pop\n      jump\t// out\n        /* \"#utility.yul\":16765:17184   */\n    tag_178:\n        /* \"#utility.yul\":16931:16935   */\n      0x00\n        /* \"#utility.yul\":16969:16971   */\n      0x20\n        /* \"#utility.yul\":16958:16967   */\n      dup3\n        /* \"#utility.yul\":16954:16972   */\n      add\n        /* \"#utility.yul\":16946:16972   */\n      swap1\n      pop\n        /* \"#utility.yul\":17018:17027   */\n      dup2\n        /* \"#utility.yul\":17012:17016   */\n      dup2\n        /* \"#utility.yul\":17008:17028   */\n      sub\n        /* \"#utility.yul\":17004:17005   */\n      0x00\n        /* \"#utility.yul\":16993:17002   */\n      dup4\n        /* \"#utility.yul\":16989:17006   */\n      add\n        /* \"#utility.yul\":16982:17029   */\n      mstore\n        /* \"#utility.yul\":17046:17177   */\n      tag_553\n        /* \"#utility.yul\":17172:17176   */\n      dup2\n        /* \"#utility.yul\":17046:17177   */\n      tag_375\n      jump\t// in\n    tag_553:\n        /* \"#utility.yul\":17038:17177   */\n      swap1\n      pop\n        /* \"#utility.yul\":16765:17184   */\n      swap2\n      swap1\n      pop\n      jump\t// out\n        /* \"#utility.yul\":17190:17364   */\n    tag_376:\n        /* \"#utility.yul\":17330:17356   */\n      0x496e76616c6964206c697175696469747920616d6f756e740000000000000000\n        /* \"#utility.yul\":17326:17327   */\n      0x00\n        /* \"#utility.yul\":17318:17324   */\n      dup3\n        /* \"#utility.yul\":17314:17328   */\n      add\n        /* \"#utility.yul\":17307:17357   */\n      mstore\n        /* \"#utility.yul\":17190:17364   */\n      pop\n      jump\t// out\n        /* \"#utility.yul\":17370:17736   */\n    tag_377:\n        /* \"#utility.yul\":17512:17515   */\n      0x00\n        /* \"#utility.yul\":17533:17600   */\n      tag_556\n        /* \"#utility.yul\":17597:17599   */\n      0x18\n        /* \"#utility.yul\":17592:17595   */\n      dup4\n        /* \"#utility.yul\":17533:17600   */\n      tag_352\n      jump\t// in\n    tag_556:\n        /* \"#utility.yul\":17526:17600   */\n      swap2\n      pop\n        /* \"#utility.yul\":17609:17702   */\n      tag_557\n        /* \"#utility.yul\":17698:17701   */\n      dup3\n        /* \"#utility.yul\":17609:17702   */\n      tag_376\n      jump\t// in\n    tag_557:\n        /* \"#utility.yul\":17727:17729   */\n      0x20\n        /* \"#utility.yul\":17722:17725   */\n      dup3\n        /* \"#utility.yul\":17718:17730   */\n      add\n        /* \"#utility.yul\":17711:17730   */\n      swap1\n      pop\n        /* \"#utility.yul\":17370:17736   */\n      swap2\n      swap1\n      pop\n      jump\t// out\n        /* \"#utility.yul\":17742:18161   */\n    tag_184:\n        /* \"#utility.yul\":17908:17912   */\n      0x00\n        /* \"#utility.yul\":17946:17948   */\n      0x20\n        /* \"#utility.yul\":17935:17944   */\n      dup3\n        /* \"#utility.yul\":17931:17949   */\n      add\n        /* \"#utility.yul\":17923:17949   */\n      swap1\n      pop\n        /* \"#utility.yul\":17995:18004   */\n      dup2\n        /* \"#utility.yul\":17989:17993   */\n      dup2\n        /* \"#utility.yul\":17985:18005   */\n      sub\n        /* \"#utility.yul\":17981:17982   */\n      0x00\n        /* \"#utility.yul\":17970:17979   */\n      dup4\n        /* \"#utility.yul\":17966:17983   */\n      add\n        /* \"#utility.yul\":17959:18006   */\n      mstore\n        /* \"#utility.yul\":18023:18154   */\n      tag_559\n        /* \"#utility.yul\":18149:18153   */\n      dup2\n        /* \"#utility.yul\":18023:18154   */\n      tag_377\n      jump\t// in\n    tag_559:\n        /* \"#utility.yul\":18015:18154   */\n      swap1\n      pop\n        /* \"#utility.yul\":17742:18161   */\n      swap2\n      swap1\n      pop\n      jump\t// out\n        /* \"#utility.yul\":18167:18337   */\n    tag_378:\n        /* \"#utility.yul\":18307:18329   */\n      0x4e6f7420656e6f756768204c5020746f6b656e73000000000000000000000000\n        /* \"#utility.yul\":18303:18304   */\n      0x00\n        /* \"#utility.yul\":18295:18301   */\n      dup3\n        /* \"#utility.yul\":18291:18305   */\n      add\n        /* \"#utility.yul\":18284:18330   */\n      mstore\n        /* \"#utility.yul\":18167:18337   */\n      pop\n      jump\t// out\n        /* \"#utility.yul\":18343:18709   */\n    tag_379:\n        /* \"#utility.yul\":18485:18488   */\n      0x00\n        /* \"#utility.yul\":18506:18573   */\n      tag_562\n        /* \"#utility.yul\":18570:18572   */\n      0x14\n        /* \"#utility.yul\":18565:18568   */\n      dup4\n        /* \"#utility.yul\":18506:18573   */\n      tag_352\n      jump\t// in\n    tag_562:\n        /* \"#utility.yul\":18499:18573   */\n      swap2\n      pop\n        /* \"#utility.yul\":18582:18675   */\n      tag_563\n        /* \"#utility.yul\":18671:18674   */\n      dup3\n        /* \"#utility.yul\":18582:18675   */\n      tag_378\n      jump\t// in\n    tag_563:\n        /* \"#utility.yul\":18700:18702   */\n      0x20\n        /* \"#utility.yul\":18695:18698   */\n      dup3\n        /* \"#utility.yul\":18691:18703   */\n      add\n        /* \"#utility.yul\":18684:18703   */\n      swap1\n      pop\n        /* \"#utility.yul\":18343:18709   */\n      swap2\n      swap1\n      pop\n      jump\t// out\n        /* \"#utility.yul\":18715:19134   */\n    tag_191:\n        /* \"#utility.yul\":18881:18885   */\n      0x00\n        /* \"#utility.yul\":18919:18921   */\n      0x20\n        /* \"#utility.yul\":18908:18917   */\n      dup3\n        /* \"#utility.yul\":18904:18922   */\n      add\n        /* \"#utility.yul\":18896:18922   */\n      swap1\n      pop\n        /* \"#utility.yul\":18968:18977   */\n      dup2\n        /* \"#utility.yul\":18962:18966   */\n      dup2\n        /* \"#utility.yul\":18958:18978   */\n      sub\n        /* \"#utility.yul\":18954:18955   */\n      0x00\n        /* \"#utility.yul\":18943:18952   */\n      dup4\n        /* \"#utility.yul\":18939:18956   */\n      add\n        /* \"#utility.yul\":18932:18979   */\n      mstore\n        /* \"#utility.yul\":18996:19127   */\n      tag_565\n        /* \"#utility.yul\":19122:19126   */\n      dup2\n        /* \"#utility.yul\":18996:19127   */\n      tag_379\n      jump\t// in\n    tag_565:\n        /* \"#utility.yul\":18988:19127   */\n      swap1\n      pop\n        /* \"#utility.yul\":18715:19134   */\n      swap2\n      swap1\n      pop\n      jump\t// out\n        /* \"#utility.yul\":19140:19321   */\n    tag_380:\n        /* \"#utility.yul\":19280:19313   */\n      0x496e73756666696369656e7420616d6f756e7420746f20776974686472617700\n        /* \"#utility.yul\":19276:19277   */\n      0x00\n        /* \"#utility.yul\":19268:19274   */\n      dup3\n        /* \"#utility.yul\":19264:19278   */\n      add\n        /* \"#utility.yul\":19257:19314   */\n      mstore\n        /* \"#utility.yul\":19140:19321   */\n      pop\n      jump\t// out\n        /* \"#utility.yul\":19327:19693   */\n    tag_381:\n        /* \"#utility.yul\":19469:19472   */\n      0x00\n        /* \"#utility.yul\":19490:19557   */\n      tag_568\n        /* \"#utility.yul\":19554:19556   */\n      0x1f\n        /* \"#utility.yul\":19549:19552   */\n      dup4\n        /* \"#utility.yul\":19490:19557   */\n      tag_352\n      jump\t// in\n    tag_568:\n        /* \"#utility.yul\":19483:19557   */\n      swap2\n      pop\n        /* \"#utility.yul\":19566:19659   */\n      tag_569\n        /* \"#utility.yul\":19655:19658   */\n      dup3\n        /* \"#utility.yul\":19566:19659   */\n      tag_380\n      jump\t// in\n    tag_569:\n        /* \"#utility.yul\":19684:19686   */\n      0x20\n        /* \"#utility.yul\":19679:19682   */\n      dup3\n        /* \"#utility.yul\":19675:19687   */\n      add\n        /* \"#utility.yul\":19668:19687   */\n      swap1\n      pop\n        /* \"#utility.yul\":19327:19693   */\n      swap2\n      swap1\n      pop\n      jump\t// out\n        /* \"#utility.yul\":19699:20118   */\n    tag_202:\n        /* \"#utility.yul\":19865:19869   */\n      0x00\n        /* \"#utility.yul\":19903:19905   */\n      0x20\n        /* \"#utility.yul\":19892:19901   */\n      dup3\n        /* \"#utility.yul\":19888:19906   */\n      add\n        /* \"#utility.yul\":19880:19906   */\n      swap1\n      pop\n        /* \"#utility.yul\":19952:19961   */\n      dup2\n        /* \"#utility.yul\":19946:19950   */\n      dup2\n        /* \"#utility.yul\":19942:19962   */\n      sub\n        /* \"#utility.yul\":19938:19939   */\n      0x00\n        /* \"#utility.yul\":19927:19936   */\n      dup4\n        /* \"#utility.yul\":19923:19940   */\n      add\n        /* \"#utility.yul\":19916:19963   */\n      mstore\n        /* \"#utility.yul\":19980:20111   */\n      tag_571\n        /* \"#utility.yul\":20106:20110   */\n      dup2\n        /* \"#utility.yul\":19980:20111   */\n      tag_381\n      jump\t// in\n    tag_571:\n        /* \"#utility.yul\":19972:20111   */\n      swap1\n      pop\n        /* \"#utility.yul\":19699:20118   */\n      swap2\n      swap1\n      pop\n      jump\t// out\n        /* \"#utility.yul\":20124:20289   */\n    tag_382:\n        /* \"#utility.yul\":20264:20281   */\n      0x496e76616c696420616d6f756e74730000000000000000000000000000000000\n        /* \"#utility.yul\":20260:20261   */\n      0x00\n        /* \"#utility.yul\":20252:20258   */\n      dup3\n        /* \"#utility.yul\":20248:20262   */\n      add\n        /* \"#utility.yul\":20241:20282   */\n      mstore\n        /* \"#utility.yul\":20124:20289   */\n      pop\n      jump\t// out\n        /* \"#utility.yul\":20295:20661   */\n    tag_383:\n        /* \"#utility.yul\":20437:20440   */\n      0x00\n        /* \"#utility.yul\":20458:20525   */\n      tag_574\n        /* \"#utility.yul\":20522:20524   */\n      0x0f\n        /* \"#utility.yul\":20517:20520   */\n      dup4\n        /* \"#utility.yul\":20458:20525   */\n      tag_352\n      jump\t// in\n    tag_574:\n        /* \"#utility.yul\":20451:20525   */\n      swap2\n      pop\n        /* \"#utility.yul\":20534:20627   */\n      tag_575\n        /* \"#utility.yul\":20623:20626   */\n      dup3\n        /* \"#utility.yul\":20534:20627   */\n      tag_382\n      jump\t// in\n    tag_575:\n        /* \"#utility.yul\":20652:20654   */\n      0x20\n        /* \"#utility.yul\":20647:20650   */\n      dup3\n        /* \"#utility.yul\":20643:20655   */\n      add\n        /* \"#utility.yul\":20636:20655   */\n      swap1\n      pop\n        /* \"#utility.yul\":20295:20661   */\n      swap2\n      swap1\n      pop\n      jump\t// out\n        /* \"#utility.yul\":20667:21086   */\n    tag_225:\n        /* \"#utility.yul\":20833:20837   */\n      0x00\n        /* \"#utility.yul\":20871:20873   */\n      0x20\n        /* \"#utility.yul\":20860:20869   */\n      dup3\n        /* \"#utility.yul\":20856:20874   */\n      add\n        /* \"#utility.yul\":20848:20874   */\n      swap1\n      pop\n        /* \"#utility.yul\":20920:20929   */\n      dup2\n        /* \"#utility.yul\":20914:20918   */\n      dup2\n        /* \"#utility.yul\":20910:20930   */\n      sub\n        /* \"#utility.yul\":20906:20907   */\n      0x00\n        /* \"#utility.yul\":20895:20904   */\n      dup4\n        /* \"#utility.yul\":20891:20908   */\n      add\n        /* \"#utility.yul\":20884:20931   */\n      mstore\n        /* \"#utility.yul\":20948:21079   */\n      tag_577\n        /* \"#utility.yul\":21074:21078   */\n      dup2\n        /* \"#utility.yul\":20948:21079   */\n      tag_383\n      jump\t// in\n    tag_577:\n        /* \"#utility.yul\":20940:21079   */\n      swap1\n      pop\n        /* \"#utility.yul\":20667:21086   */\n      swap2\n      swap1\n      pop\n      jump\t// out\n        /* \"#utility.yul\":21092:21264   */\n    tag_384:\n        /* \"#utility.yul\":21232:21256   */\n      0x546f6b656e41207472616e73666572206661696c656400000000000000000000\n        /* \"#utility.yul\":21228:21229   */\n      0x00\n        /* \"#utility.yul\":21220:21226   */\n      dup3\n        /* \"#utility.yul\":21216:21230   */\n      add\n        /* \"#utility.yul\":21209:21257   */\n      mstore\n        /* \"#utility.yul\":21092:21264   */\n      pop\n      jump\t// out\n        /* \"#utility.yul\":21270:21636   */\n    tag_385:\n        /* \"#utility.yul\":21412:21415   */\n      0x00\n        /* \"#utility.yul\":21433:21500   */\n      tag_580\n        /* \"#utility.yul\":21497:21499   */\n      0x16\n        /* \"#utility.yul\":21492:21495   */\n      dup4\n        /* \"#utility.yul\":21433:21500   */\n      tag_352\n      jump\t// in\n    tag_580:\n        /* \"#utility.yul\":21426:21500   */\n      swap2\n      pop\n        /* \"#utility.yul\":21509:21602   */\n      tag_581\n        /* \"#utility.yul\":21598:21601   */\n      dup3\n        /* \"#utility.yul\":21509:21602   */\n      tag_384\n      jump\t// in\n    tag_581:\n        /* \"#utility.yul\":21627:21629   */\n      0x20\n        /* \"#utility.yul\":21622:21625   */\n      dup3\n        /* \"#utility.yul\":21618:21630   */\n      add\n        /* \"#utility.yul\":21611:21630   */\n      swap1\n      pop\n        /* \"#utility.yul\":21270:21636   */\n      swap2\n      swap1\n      pop\n      jump\t// out\n        /* \"#utility.yul\":21642:22061   */\n    tag_232:\n        /* \"#utility.yul\":21808:21812   */\n      0x00\n        /* \"#utility.yul\":21846:21848   */\n      0x20\n        /* \"#utility.yul\":21835:21844   */\n      dup3\n        /* \"#utility.yul\":21831:21849   */\n      add\n        /* \"#utility.yul\":21823:21849   */\n      swap1\n      pop\n        /* \"#utility.yul\":21895:21904   */\n      dup2\n        /* \"#utility.yul\":21889:21893   */\n      dup2\n        /* \"#utility.yul\":21885:21905   */\n      sub\n        /* \"#utility.yul\":21881:21882   */\n      0x00\n        /* \"#utility.yul\":21870:21879   */\n      dup4\n        /* \"#utility.yul\":21866:21883   */\n      add\n        /* \"#utility.yul\":21859:21906   */\n      mstore\n        /* \"#utility.yul\":21923:22054   */\n      tag_583\n        /* \"#utility.yul\":22049:22053   */\n      dup2\n        /* \"#utility.yul\":21923:22054   */\n      tag_385\n      jump\t// in\n    tag_583:\n        /* \"#utility.yul\":21915:22054   */\n      swap1\n      pop\n        /* \"#utility.yul\":21642:22061   */\n      swap2\n      swap1\n      pop\n      jump\t// out\n        /* \"#utility.yul\":22067:22239   */\n    tag_386:\n        /* \"#utility.yul\":22207:22231   */\n      0x546f6b656e42207472616e73666572206661696c656400000000000000000000\n        /* \"#utility.yul\":22203:22204   */\n      0x00\n        /* \"#utility.yul\":22195:22201   */\n      dup3\n        /* \"#utility.yul\":22191:22205   */\n      add\n        /* \"#utility.yul\":22184:22232   */\n      mstore\n        /* \"#utility.yul\":22067:22239   */\n      pop\n      jump\t// out\n        /* \"#utility.yul\":22245:22611   */\n    tag_387:\n        /* \"#utility.yul\":22387:22390   */\n      0x00\n        /* \"#utility.yul\":22408:22475   */\n      tag_586\n        /* \"#utility.yul\":22472:22474   */\n      0x16\n        /* \"#utility.yul\":22467:22470   */\n      dup4\n        /* \"#utility.yul\":22408:22475   */\n      tag_352\n      jump\t// in\n    tag_586:\n        /* \"#utility.yul\":22401:22475   */\n      swap2\n      pop\n        /* \"#utility.yul\":22484:22577   */\n      tag_587\n        /* \"#utility.yul\":22573:22576   */\n      dup3\n        /* \"#utility.yul\":22484:22577   */\n      tag_386\n      jump\t// in\n    tag_587:\n        /* \"#utility.yul\":22602:22604   */\n      0x20\n        /* \"#utility.yul\":22597:22600   */\n      dup3\n        /* \"#utility.yul\":22593:22605   */\n      add\n        /* \"#utility.yul\":22586:22605   */\n      swap1\n      pop\n        /* \"#utility.yul\":22245:22611   */\n      swap2\n      swap1\n      pop\n      jump\t// out\n        /* \"#utility.yul\":22617:23036   */\n    tag_239:\n        /* \"#utility.yul\":22783:22787   */\n      0x00\n        /* \"#utility.yul\":22821:22823   */\n      0x20\n        /* \"#utility.yul\":22810:22819   */\n      dup3\n        /* \"#utility.yul\":22806:22824   */\n      add\n        /* \"#utility.yul\":22798:22824   */\n      swap1\n      pop\n        /* \"#utility.yul\":22870:22879   */\n      dup2\n        /* \"#utility.yul\":22864:22868   */\n      dup2\n        /* \"#utility.yul\":22860:22880   */\n      sub\n        /* \"#utility.yul\":22856:22857   */\n      0x00\n        /* \"#utility.yul\":22845:22854   */\n      dup4\n        /* \"#utility.yul\":22841:22858   */\n      add\n        /* \"#utility.yul\":22834:22881   */\n      mstore\n        /* \"#utility.yul\":22898:23029   */\n      tag_589\n        /* \"#utility.yul\":23024:23028   */\n      dup2\n        /* \"#utility.yul\":22898:23029   */\n      tag_387\n      jump\t// in\n    tag_589:\n        /* \"#utility.yul\":22890:23029   */\n      swap1\n      pop\n        /* \"#utility.yul\":22617:23036   */\n      swap2\n      swap1\n      pop\n      jump\t// out\n        /* \"#utility.yul\":23042:23206   */\n    tag_388:\n        /* \"#utility.yul\":23182:23198   */\n      0x4e6f7420617574686f72697a6564000000000000000000000000000000000000\n        /* \"#utility.yul\":23178:23179   */\n      0x00\n        /* \"#utility.yul\":23170:23176   */\n      dup3\n        /* \"#utility.yul\":23166:23180   */\n      add\n        /* \"#utility.yul\":23159:23199   */\n      mstore\n        /* \"#utility.yul\":23042:23206   */\n      pop\n      jump\t// out\n        /* \"#utility.yul\":23212:23578   */\n    tag_389:\n        /* \"#utility.yul\":23354:23357   */\n      0x00\n        /* \"#utility.yul\":23375:23442   */\n      tag_592\n        /* \"#utility.yul\":23439:23441   */\n      0x0e\n        /* \"#utility.yul\":23434:23437   */\n      dup4\n        /* \"#utility.yul\":23375:23442   */\n      tag_352\n      jump\t// in\n    tag_592:\n        /* \"#utility.yul\":23368:23442   */\n      swap2\n      pop\n        /* \"#utility.yul\":23451:23544   */\n      tag_593\n        /* \"#utility.yul\":23540:23543   */\n      dup3\n        /* \"#utility.yul\":23451:23544   */\n      tag_388\n      jump\t// in\n    tag_593:\n        /* \"#utility.yul\":23569:23571   */\n      0x20\n        /* \"#utility.yul\":23564:23567   */\n      dup3\n        /* \"#utility.yul\":23560:23572   */\n      add\n        /* \"#utility.yul\":23553:23572   */\n      swap1\n      pop\n        /* \"#utility.yul\":23212:23578   */\n      swap2\n      swap1\n      pop\n      jump\t// out\n        /* \"#utility.yul\":23584:24003   */\n    tag_265:\n        /* \"#utility.yul\":23750:23754   */\n      0x00\n        /* \"#utility.yul\":23788:23790   */\n      0x20\n        /* \"#utility.yul\":23777:23786   */\n      dup3\n        /* \"#utility.yul\":23773:23791   */\n      add\n        /* \"#utility.yul\":23765:23791   */\n      swap1\n      pop\n        /* \"#utility.yul\":23837:23846   */\n      dup2\n        /* \"#utility.yul\":23831:23835   */\n      dup2\n        /* \"#utility.yul\":23827:23847   */\n      sub\n        /* \"#utility.yul\":23823:23824   */\n      0x00\n        /* \"#utility.yul\":23812:23821   */\n      dup4\n        /* \"#utility.yul\":23808:23825   */\n      add\n        /* \"#utility.yul\":23801:23848   */\n      mstore\n        /* \"#utility.yul\":23865:23996   */\n      tag_595\n        /* \"#utility.yul\":23991:23995   */\n      dup2\n        /* \"#utility.yul\":23865:23996   */\n      tag_389\n      jump\t// in\n    tag_595:\n        /* \"#utility.yul\":23857:23996   */\n      swap1\n      pop\n        /* \"#utility.yul\":23584:24003   */\n      swap2\n      swap1\n      pop\n      jump\t// out\n        /* \"#utility.yul\":24009:24175   */\n    tag_390:\n        /* \"#utility.yul\":24149:24167   */\n      0x696e76616c696420736c69707061676500000000000000000000000000000000\n        /* \"#utility.yul\":24145:24146   */\n      0x00\n        /* \"#utility.yul\":24137:24143   */\n      dup3\n        /* \"#utility.yul\":24133:24147   */\n      add\n        /* \"#utility.yul\":24126:24168   */\n      mstore\n        /* \"#utility.yul\":24009:24175   */\n      pop\n      jump\t// out\n        /* \"#utility.yul\":24181:24547   */\n    tag_391:\n        /* \"#utility.yul\":24323:24326   */\n      0x00\n        /* \"#utility.yul\":24344:24411   */\n      tag_598\n        /* \"#utility.yul\":24408:24410   */\n      0x10\n        /* \"#utility.yul\":24403:24406   */\n      dup4\n        /* \"#utility.yul\":24344:24411   */\n      tag_352\n      jump\t// in\n    tag_598:\n        /* \"#utility.yul\":24337:24411   */\n      swap2\n      pop\n        /* \"#utility.yul\":24420:24513   */\n      tag_599\n        /* \"#utility.yul\":24509:24512   */\n      dup3\n        /* \"#utility.yul\":24420:24513   */\n      tag_390\n      jump\t// in\n    tag_599:\n        /* \"#utility.yul\":24538:24540   */\n      0x20\n        /* \"#utility.yul\":24533:24536   */\n      dup3\n        /* \"#utility.yul\":24529:24541   */\n      add\n        /* \"#utility.yul\":24522:24541   */\n      swap1\n      pop\n        /* \"#utility.yul\":24181:24547   */\n      swap2\n      swap1\n      pop\n      jump\t// out\n        /* \"#utility.yul\":24553:24972   */\n    tag_269:\n        /* \"#utility.yul\":24719:24723   */\n      0x00\n        /* \"#utility.yul\":24757:24759   */\n      0x20\n        /* \"#utility.yul\":24746:24755   */\n      dup3\n        /* \"#utility.yul\":24742:24760   */\n      add\n        /* \"#utility.yul\":24734:24760   */\n      swap1\n      pop\n        /* \"#utility.yul\":24806:24815   */\n      dup2\n        /* \"#utility.yul\":24800:24804   */\n      dup2\n        /* \"#utility.yul\":24796:24816   */\n      sub\n        /* \"#utility.yul\":24792:24793   */\n      0x00\n        /* \"#utility.yul\":24781:24790   */\n      dup4\n        /* \"#utility.yul\":24777:24794   */\n      add\n        /* \"#utility.yul\":24770:24817   */\n      mstore\n        /* \"#utility.yul\":24834:24965   */\n      tag_601\n        /* \"#utility.yul\":24960:24964   */\n      dup2\n        /* \"#utility.yul\":24834:24965   */\n      tag_391\n      jump\t// in\n    tag_601:\n        /* \"#utility.yul\":24826:24965   */\n      swap1\n      pop\n        /* \"#utility.yul\":24553:24972   */\n      swap2\n      swap1\n      pop\n      jump\t// out\n\n    auxdata: 0xa26469706673582212201b60abc1c94d38280a9fda8218a13e79229f8b3d19bc521922ffd7edd514b2b464736f6c634300081a0033\n}\n\nsub_1: assembly {\n        /* \"LiquidityPool.sol\":199:690  contract LPToken is ERC20 {... */\n      mstore(0x40, 0x80)\n        /* \"LiquidityPool.sol\":260:383  constructor() ERC20(\"Liquidity Provider Token\", \"LPT\") {... */\n      callvalue\n      dup1\n      iszero\n      tag_1\n      jumpi\n      0x00\n      dup1\n      revert\n    tag_1:\n      pop\n        /* \"@openzeppelin/contracts/token/ERC20/ERC20.sol\":1582:1695  constructor(string memory name_, string memory symbol_) {... */\n      mload(0x40)\n      dup1\n      0x40\n      add\n      0x40\n      mstore\n      dup1\n      0x18\n      dup2\n      mstore\n      0x20\n      add\n      0x4c69717569646974792050726f766964657220546f6b656e0000000000000000\n      dup2\n      mstore\n      pop\n      mload(0x40)\n      dup1\n      0x40\n      add\n      0x40\n      mstore\n      dup1\n      0x03\n      dup2\n      mstore\n      0x20\n      add\n      0x4c50540000000000000000000000000000000000000000000000000000000000\n      dup2\n      mstore\n      pop\n        /* \"@openzeppelin/contracts/token/ERC20/ERC20.sol\":1656:1661  name_ */\n      dup2\n        /* \"@openzeppelin/contracts/token/ERC20/ERC20.sol\":1648:1653  _name */\n      0x03\n        /* \"@openzeppelin/contracts/token/ERC20/ERC20.sol\":1648:1661  _name = name_ */\n      swap1\n      dup2\n      tag_5\n      swap2\n      swap1\n      tag_6\n      jump\t// in\n    tag_5:\n      pop\n        /* \"@openzeppelin/contracts/token/ERC20/ERC20.sol\":1681:1688  symbol_ */\n      dup1\n        /* \"@openzeppelin/contracts/token/ERC20/ERC20.sol\":1671:1678  _symbol */\n      0x04\n        /* \"@openzeppelin/contracts/token/ERC20/ERC20.sol\":1671:1688  _symbol = symbol_ */\n      swap1\n      dup2\n      tag_7\n      swap2\n      swap1\n      tag_6\n      jump\t// in\n    tag_7:\n      pop\n        /* \"@openzeppelin/contracts/token/ERC20/ERC20.sol\":1582:1695  constructor(string memory name_, string memory symbol_) {... */\n      pop\n      pop\n        /* \"LiquidityPool.sol\":333:343  msg.sender */\n      caller\n        /* \"LiquidityPool.sol\":326:330  pool */\n      0x05\n      0x00\n        /* \"LiquidityPool.sol\":326:343  pool = msg.sender */\n      0x0100\n      exp\n      dup2\n      sload\n      dup2\n      0xffffffffffffffffffffffffffffffffffffffff\n      mul\n      not\n      and\n      swap1\n      dup4\n      0xffffffffffffffffffffffffffffffffffffffff\n      and\n      mul\n      or\n      swap1\n      sstore\n      pop\n        /* \"LiquidityPool.sol\":199:690  contract LPToken is ERC20 {... */\n      jump(tag_9)\n        /* \"#utility.yul\":7:106   */\n    tag_10:\n        /* \"#utility.yul\":59:65   */\n      0x00\n        /* \"#utility.yul\":93:98   */\n      dup2\n        /* \"#utility.yul\":87:99   */\n      mload\n        /* \"#utility.yul\":77:99   */\n      swap1\n      pop\n        /* \"#utility.yul\":7:106   */\n      swap2\n      swap1\n      pop\n      jump\t// out\n        /* \"#utility.yul\":112:292   */\n    tag_11:\n        /* \"#utility.yul\":160:237   */\n      0x4e487b7100000000000000000000000000000000000000000000000000000000\n        /* \"#utility.yul\":157:158   */\n      0x00\n        /* \"#utility.yul\":150:238   */\n      mstore\n        /* \"#utility.yul\":257:261   */\n      0x41\n        /* \"#utility.yul\":254:255   */\n      0x04\n        /* \"#utility.yul\":247:262   */\n      mstore\n        /* \"#utility.yul\":281:285   */\n      0x24\n        /* \"#utility.yul\":278:279   */\n      0x00\n        /* \"#utility.yul\":271:286   */\n      revert\n        /* \"#utility.yul\":298:478   */\n    tag_12:\n        /* \"#utility.yul\":346:423   */\n      0x4e487b7100000000000000000000000000000000000000000000000000000000\n        /* \"#utility.yul\":343:344   */\n      0x00\n        /* \"#utility.yul\":336:424   */\n      mstore\n        /* \"#utility.yul\":443:447   */\n      0x22\n        /* \"#utility.yul\":440:441   */\n      0x04\n        /* \"#utility.yul\":433:448   */\n      mstore\n        /* \"#utility.yul\":467:471   */\n      0x24\n        /* \"#utility.yul\":464:465   */\n      0x00\n        /* \"#utility.yul\":457:472   */\n      revert\n        /* \"#utility.yul\":484:804   */\n    tag_13:\n        /* \"#utility.yul\":528:534   */\n      0x00\n        /* \"#utility.yul\":565:566   */\n      0x02\n        /* \"#utility.yul\":559:563   */\n      dup3\n        /* \"#utility.yul\":555:567   */\n      div\n        /* \"#utility.yul\":545:567   */\n      swap1\n      pop\n        /* \"#utility.yul\":612:613   */\n      0x01\n        /* \"#utility.yul\":606:610   */\n      dup3\n        /* \"#utility.yul\":602:614   */\n      and\n        /* \"#utility.yul\":633:651   */\n      dup1\n        /* \"#utility.yul\":623:704   */\n      tag_35\n      jumpi\n        /* \"#utility.yul\":689:693   */\n      0x7f\n        /* \"#utility.yul\":681:687   */\n      dup3\n        /* \"#utility.yul\":677:694   */\n      and\n        /* \"#utility.yul\":667:694   */\n      swap2\n      pop\n        /* \"#utility.yul\":623:704   */\n    tag_35:\n        /* \"#utility.yul\":751:753   */\n      0x20\n        /* \"#utility.yul\":743:749   */\n      dup3\n        /* \"#utility.yul\":740:754   */\n      lt\n        /* \"#utility.yul\":720:738   */\n      dup2\n        /* \"#utility.yul\":717:755   */\n      sub\n        /* \"#utility.yul\":714:798   */\n      tag_36\n      jumpi\n        /* \"#utility.yul\":770:788   */\n      tag_37\n      tag_12\n      jump\t// in\n    tag_37:\n        /* \"#utility.yul\":714:798   */\n    tag_36:\n        /* \"#utility.yul\":535:804   */\n      pop\n        /* \"#utility.yul\":484:804   */\n      swap2\n      swap1\n      pop\n      jump\t// out\n        /* \"#utility.yul\":810:951   */\n    tag_14:\n        /* \"#utility.yul\":859:863   */\n      0x00\n        /* \"#utility.yul\":882:885   */\n      dup2\n        /* \"#utility.yul\":874:885   */\n      swap1\n      pop\n        /* \"#utility.yul\":905:908   */\n      dup2\n        /* \"#utility.yul\":902:903   */\n      0x00\n        /* \"#utility.yul\":895:909   */\n      mstore\n        /* \"#utility.yul\":939:943   */\n      0x20\n        /* \"#utility.yul\":936:937   */\n      0x00\n        /* \"#utility.yul\":926:944   */\n      keccak256\n        /* \"#utility.yul\":918:944   */\n      swap1\n      pop\n        /* \"#utility.yul\":810:951   */\n      swap2\n      swap1\n      pop\n      jump\t// out\n        /* \"#utility.yul\":957:1050   */\n    tag_15:\n        /* \"#utility.yul\":994:1000   */\n      0x00\n        /* \"#utility.yul\":1041:1043   */\n      0x20\n        /* \"#utility.yul\":1036:1038   */\n      0x1f\n        /* \"#utility.yul\":1029:1034   */\n      dup4\n        /* \"#utility.yul\":1025:1039   */\n      add\n        /* \"#utility.yul\":1021:1044   */\n      div\n        /* \"#utility.yul\":1011:1044   */\n      swap1\n      pop\n        /* \"#utility.yul\":957:1050   */\n      swap2\n      swap1\n      pop\n      jump\t// out\n        /* \"#utility.yul\":1056:1163   */\n    tag_16:\n        /* \"#utility.yul\":1100:1108   */\n      0x00\n        /* \"#utility.yul\":1150:1155   */\n      dup3\n        /* \"#utility.yul\":1144:1148   */\n      dup3\n        /* \"#utility.yul\":1140:1156   */\n      shl\n        /* \"#utility.yul\":1119:1156   */\n      swap1\n      pop\n        /* \"#utility.yul\":1056:1163   */\n      swap3\n      swap2\n      pop\n      pop\n      jump\t// out\n        /* \"#utility.yul\":1169:1562   */\n    tag_17:\n        /* \"#utility.yul\":1238:1244   */\n      0x00\n        /* \"#utility.yul\":1288:1289   */\n      0x08\n        /* \"#utility.yul\":1276:1286   */\n      dup4\n        /* \"#utility.yul\":1272:1290   */\n      mul\n        /* \"#utility.yul\":1311:1408   */\n      tag_42\n        /* \"#utility.yul\":1341:1407   */\n      0xffffffffffffffffffffffffffffffffffffffffffffffffffffffffffffffff\n        /* \"#utility.yul\":1330:1339   */\n      dup3\n        /* \"#utility.yul\":1311:1408   */\n      tag_16\n      jump\t// in\n    tag_42:\n        /* \"#utility.yul\":1429:1468   */\n      tag_43\n        /* \"#utility.yul\":1459:1467   */\n      dup7\n        /* \"#utility.yul\":1448:1457   */\n      dup4\n        /* \"#utility.yul\":1429:1468   */\n      tag_16\n      jump\t// in\n    tag_43:\n        /* \"#utility.yul\":1417:1468   */\n      swap6\n      pop\n        /* \"#utility.yul\":1501:1505   */\n      dup1\n        /* \"#utility.yul\":1497:1506   */\n      not\n        /* \"#utility.yul\":1490:1495   */\n      dup5\n        /* \"#utility.yul\":1486:1507   */\n      and\n        /* \"#utility.yul\":1477:1507   */\n      swap4\n      pop\n        /* \"#utility.yul\":1550:1554   */\n      dup1\n        /* \"#utility.yul\":1540:1548   */\n      dup7\n        /* \"#utility.yul\":1536:1555   */\n      and\n        /* \"#utility.yul\":1529:1534   */\n      dup5\n        /* \"#utility.yul\":1526:1556   */\n      or\n        /* \"#utility.yul\":1516:1556   */\n      swap3\n      pop\n        /* \"#utility.yul\":1245:1562   */\n      pop\n      pop\n        /* \"#utility.yul\":1169:1562   */\n      swap4\n      swap3\n      pop\n      pop\n      pop\n      jump\t// out\n        /* \"#utility.yul\":1568:1645   */\n    tag_18:\n        /* \"#utility.yul\":1605:1612   */\n      0x00\n        /* \"#utility.yul\":1634:1639   */\n      dup2\n        /* \"#utility.yul\":1623:1639   */\n      swap1\n      pop\n        /* \"#utility.yul\":1568:1645   */\n      swap2\n      swap1\n      pop\n      jump\t// out\n        /* \"#utility.yul\":1651:1711   */\n    tag_19:\n        /* \"#utility.yul\":1679:1682   */\n      0x00\n        /* \"#utility.yul\":1700:1705   */\n      dup2\n        /* \"#utility.yul\":1693:1705   */\n      swap1\n      pop\n        /* \"#utility.yul\":1651:1711   */\n      swap2\n      swap1\n      pop\n      jump\t// out\n        /* \"#utility.yul\":1717:1859   */\n    tag_20:\n        /* \"#utility.yul\":1767:1776   */\n      0x00\n        /* \"#utility.yul\":1800:1853   */\n      tag_47\n        /* \"#utility.yul\":1818:1852   */\n      tag_48\n        /* \"#utility.yul\":1827:1851   */\n      tag_49\n        /* \"#utility.yul\":1845:1850   */\n      dup5\n        /* \"#utility.yul\":1827:1851   */\n      tag_18\n      jump\t// in\n    tag_49:\n        /* \"#utility.yul\":1818:1852   */\n      tag_19\n      jump\t// in\n    tag_48:\n        /* \"#utility.yul\":1800:1853   */\n      tag_18\n      jump\t// in\n    tag_47:\n        /* \"#utility.yul\":1787:1853   */\n      swap1\n      pop\n        /* \"#utility.yul\":1717:1859   */\n      swap2\n      swap1\n      pop\n      jump\t// out\n        /* \"#utility.yul\":1865:1940   */\n    tag_21:\n        /* \"#utility.yul\":1908:1911   */\n      0x00\n        /* \"#utility.yul\":1929:1934   */\n      dup2\n        /* \"#utility.yul\":1922:1934   */\n      swap1\n      pop\n        /* \"#utility.yul\":1865:1940   */\n      swap2\n      swap1\n      pop\n      jump\t// out\n        /* \"#utility.yul\":1946:2215   */\n    tag_22:\n        /* \"#utility.yul\":2056:2095   */\n      tag_52\n        /* \"#utility.yul\":2087:2094   */\n      dup4\n        /* \"#utility.yul\":2056:2095   */\n      tag_20\n      jump\t// in\n    tag_52:\n        /* \"#utility.yul\":2117:2208   */\n      tag_53\n        /* \"#utility.yul\":2166:2207   */\n      tag_54\n        /* \"#utility.yul\":2190:2206   */\n      dup3\n        /* \"#utility.yul\":2166:2207   */\n      tag_21\n      jump\t// in\n    tag_54:\n        /* \"#utility.yul\":2158:2164   */\n      dup5\n        /* \"#utility.yul\":2151:2155   */\n      dup5\n        /* \"#utility.yul\":2145:2156   */\n      sload\n        /* \"#utility.yul\":2117:2208   */\n      tag_17\n      jump\t// in\n    tag_53:\n        /* \"#utility.yul\":2111:2115   */\n      dup3\n        /* \"#utility.yul\":2104:2209   */\n      sstore\n        /* \"#utility.yul\":2022:2215   */\n      pop\n        /* \"#utility.yul\":1946:2215   */\n      pop\n      pop\n      pop\n      jump\t// out\n        /* \"#utility.yul\":2221:2294   */\n    tag_23:\n        /* \"#utility.yul\":2266:2269   */\n      0x00\n        /* \"#utility.yul\":2221:2294   */\n      swap1\n      jump\t// out\n        /* \"#utility.yul\":2300:2489   */\n    tag_24:\n        /* \"#utility.yul\":2377:2409   */\n      tag_57\n      tag_23\n      jump\t// in\n    tag_57:\n        /* \"#utility.yul\":2418:2483   */\n      tag_58\n        /* \"#utility.yul\":2476:2482   */\n      dup2\n        /* \"#utility.yul\":2468:2474   */\n      dup5\n        /* \"#utility.yul\":2462:2466   */\n      dup5\n        /* \"#utility.yul\":2418:2483   */\n      tag_22\n      jump\t// in\n    tag_58:\n        /* \"#utility.yul\":2353:2489   */\n      pop\n        /* \"#utility.yul\":2300:2489   */\n      pop\n      pop\n      jump\t// out\n        /* \"#utility.yul\":2495:2681   */\n    tag_25:\n        /* \"#utility.yul\":2555:2675   */\n    tag_60:\n        /* \"#utility.yul\":2572:2575   */\n      dup2\n        /* \"#utility.yul\":2565:2570   */\n      dup2\n        /* \"#utility.yul\":2562:2576   */\n      lt\n        /* \"#utility.yul\":2555:2675   */\n      iszero\n      tag_62\n      jumpi\n        /* \"#utility.yul\":2626:2665   */\n      tag_63\n        /* \"#utility.yul\":2663:2664   */\n      0x00\n        /* \"#utility.yul\":2656:2661   */\n      dup3\n        /* \"#utility.yul\":2626:2665   */\n      tag_24\n      jump\t// in\n    tag_63:\n        /* \"#utility.yul\":2599:2600   */\n      0x01\n        /* \"#utility.yul\":2592:2597   */\n      dup2\n        /* \"#utility.yul\":2588:2601   */\n      add\n        /* \"#utility.yul\":2579:2601   */\n      swap1\n      pop\n        /* \"#utility.yul\":2555:2675   */\n      jump(tag_60)\n    tag_62:\n        /* \"#utility.yul\":2495:2681   */\n      pop\n      pop\n      jump\t// out\n        /* \"#utility.yul\":2687:3230   */\n    tag_26:\n        /* \"#utility.yul\":2788:2790   */\n      0x1f\n        /* \"#utility.yul\":2783:2786   */\n      dup3\n        /* \"#utility.yul\":2780:2791   */\n      gt\n        /* \"#utility.yul\":2777:3223   */\n      iszero\n      tag_65\n      jumpi\n        /* \"#utility.yul\":2822:2860   */\n      tag_66\n        /* \"#utility.yul\":2854:2859   */\n      dup2\n        /* \"#utility.yul\":2822:2860   */\n      tag_14\n      jump\t// in\n    tag_66:\n        /* \"#utility.yul\":2906:2935   */\n      tag_67\n        /* \"#utility.yul\":2924:2934   */\n      dup5\n        /* \"#utility.yul\":2906:2935   */\n      tag_15\n      jump\t// in\n    tag_67:\n        /* \"#utility.yul\":2896:2904   */\n      dup2\n        /* \"#utility.yul\":2892:2936   */\n      add\n        /* \"#utility.yul\":3089:3091   */\n      0x20\n        /* \"#utility.yul\":3077:3087   */\n      dup6\n        /* \"#utility.yul\":3074:3092   */\n      lt\n        /* \"#utility.yul\":3071:3120   */\n      iszero\n      tag_68\n      jumpi\n        /* \"#utility.yul\":3110:3118   */\n      dup2\n        /* \"#utility.yul\":3095:3118   */\n      swap1\n      pop\n        /* \"#utility.yul\":3071:3120   */\n    tag_68:\n        /* \"#utility.yul\":3133:3213   */\n      tag_69\n        /* \"#utility.yul\":3189:3211   */\n      tag_70\n        /* \"#utility.yul\":3207:3210   */\n      dup6\n        /* \"#utility.yul\":3189:3211   */\n      tag_15\n      jump\t// in\n    tag_70:\n        /* \"#utility.yul\":3179:3187   */\n      dup4\n        /* \"#utility.yul\":3175:3212   */\n      add\n        /* \"#utility.yul\":3162:3173   */\n      dup3\n        /* \"#utility.yul\":3133:3213   */\n      tag_25\n      jump\t// in\n    tag_69:\n        /* \"#utility.yul\":2792:3223   */\n      pop\n      pop\n        /* \"#utility.yul\":2777:3223   */\n    tag_65:\n        /* \"#utility.yul\":2687:3230   */\n      pop\n      pop\n      pop\n      jump\t// out\n        /* \"#utility.yul\":3236:3353   */\n    tag_27:\n        /* \"#utility.yul\":3290:3298   */\n      0x00\n        /* \"#utility.yul\":3340:3345   */\n      dup3\n        /* \"#utility.yul\":3334:3338   */\n      dup3\n        /* \"#utility.yul\":3330:3346   */\n      shr\n        /* \"#utility.yul\":3309:3346   */\n      swap1\n      pop\n        /* \"#utility.yul\":3236:3353   */\n      swap3\n      swap2\n      pop\n      pop\n      jump\t// out\n        /* \"#utility.yul\":3359:3528   */\n    tag_28:\n        /* \"#utility.yul\":3403:3409   */\n      0x00\n        /* \"#utility.yul\":3436:3487   */\n      tag_73\n        /* \"#utility.yul\":3484:3485   */\n      0x00\n        /* \"#utility.yul\":3480:3486   */\n      not\n        /* \"#utility.yul\":3472:3477   */\n      dup5\n        /* \"#utility.yul\":3469:3470   */\n      0x08\n        /* \"#utility.yul\":3465:3478   */\n      mul\n        /* \"#utility.yul\":3436:3487   */\n      tag_27\n      jump\t// in\n    tag_73:\n        /* \"#utility.yul\":3432:3488   */\n      not\n        /* \"#utility.yul\":3517:3521   */\n      dup1\n        /* \"#utility.yul\":3511:3515   */\n      dup4\n        /* \"#utility.yul\":3507:3522   */\n      and\n        /* \"#utility.yul\":3497:3522   */\n      swap2\n      pop\n        /* \"#utility.yul\":3410:3528   */\n      pop\n        /* \"#utility.yul\":3359:3528   */\n      swap3\n      swap2\n      pop\n      pop\n      jump\t// out\n        /* \"#utility.yul\":3533:3828   */\n    tag_29:\n        /* \"#utility.yul\":3609:3613   */\n      0x00\n        /* \"#utility.yul\":3755:3784   */\n      tag_75\n        /* \"#utility.yul\":3780:3783   */\n      dup4\n        /* \"#utility.yul\":3774:3778   */\n      dup4\n        /* \"#utility.yul\":3755:3784   */\n      tag_28\n      jump\t// in\n    tag_75:\n        /* \"#utility.yul\":3747:3784   */\n      swap2\n      pop\n        /* \"#utility.yul\":3817:3820   */\n      dup3\n        /* \"#utility.yul\":3814:3815   */\n      0x02\n        /* \"#utility.yul\":3810:3821   */\n      mul\n        /* \"#utility.yul\":3804:3808   */\n      dup3\n        /* \"#utility.yul\":3801:3822   */\n      or\n        /* \"#utility.yul\":3793:3822   */\n      swap1\n      pop\n        /* \"#utility.yul\":3533:3828   */\n      swap3\n      swap2\n      pop\n      pop\n      jump\t// out\n        /* \"#utility.yul\":3833:5228   */\n    tag_6:\n        /* \"#utility.yul\":3950:3987   */\n      tag_77\n        /* \"#utility.yul\":3983:3986   */\n      dup3\n        /* \"#utility.yul\":3950:3987   */\n      tag_10\n      jump\t// in\n    tag_77:\n        /* \"#utility.yul\":4052:4070   */\n      0xffffffffffffffff\n        /* \"#utility.yul\":4044:4050   */\n      dup2\n        /* \"#utility.yul\":4041:4071   */\n      gt\n        /* \"#utility.yul\":4038:4094   */\n      iszero\n      tag_78\n      jumpi\n        /* \"#utility.yul\":4074:4092   */\n      tag_79\n      tag_11\n      jump\t// in\n    tag_79:\n        /* \"#utility.yul\":4038:4094   */\n    tag_78:\n        /* \"#utility.yul\":4118:4156   */\n      tag_80\n        /* \"#utility.yul\":4150:4154   */\n      dup3\n        /* \"#utility.yul\":4144:4155   */\n      sload\n        /* \"#utility.yul\":4118:4156   */\n      tag_13\n      jump\t// in\n    tag_80:\n        /* \"#utility.yul\":4203:4270   */\n      tag_81\n        /* \"#utility.yul\":4263:4269   */\n      dup3\n        /* \"#utility.yul\":4255:4261   */\n      dup3\n        /* \"#utility.yul\":4249:4253   */\n      dup6\n        /* \"#utility.yul\":4203:4270   */\n      tag_26\n      jump\t// in\n    tag_81:\n        /* \"#utility.yul\":4297:4298   */\n      0x00\n        /* \"#utility.yul\":4321:4325   */\n      0x20\n        /* \"#utility.yul\":4308:4325   */\n      swap1\n      pop\n        /* \"#utility.yul\":4353:4355   */\n      0x1f\n        /* \"#utility.yul\":4345:4351   */\n      dup4\n        /* \"#utility.yul\":4342:4356   */\n      gt\n        /* \"#utility.yul\":4370:4371   */\n      0x01\n        /* \"#utility.yul\":4365:4983   */\n      dup2\n      eq\n      tag_83\n      jumpi\n        /* \"#utility.yul\":5027:5028   */\n      0x00\n        /* \"#utility.yul\":5044:5050   */\n      dup5\n        /* \"#utility.yul\":5041:5118   */\n      iszero\n      tag_84\n      jumpi\n        /* \"#utility.yul\":5093:5102   */\n      dup3\n        /* \"#utility.yul\":5088:5091   */\n      dup8\n        /* \"#utility.yul\":5084:5103   */\n      add\n        /* \"#utility.yul\":5078:5104   */\n      mload\n        /* \"#utility.yul\":5069:5104   */\n      swap1\n      pop\n        /* \"#utility.yul\":5041:5118   */\n    tag_84:\n        /* \"#utility.yul\":5144:5211   */\n      tag_85\n        /* \"#utility.yul\":5204:5210   */\n      dup6\n        /* \"#utility.yul\":5197:5202   */\n      dup3\n        /* \"#utility.yul\":5144:5211   */\n      tag_29\n      jump\t// in\n    tag_85:\n        /* \"#utility.yul\":5138:5142   */\n      dup7\n        /* \"#utility.yul\":5131:5212   */\n      sstore\n        /* \"#utility.yul\":5000:5222   */\n      pop\n        /* \"#utility.yul\":4335:5222   */\n      jump(tag_82)\n        /* \"#utility.yul\":4365:4983   */\n    tag_83:\n        /* \"#utility.yul\":4417:4421   */\n      0x1f\n        /* \"#utility.yul\":4413:4422   */\n      not\n        /* \"#utility.yul\":4405:4411   */\n      dup5\n        /* \"#utility.yul\":4401:4423   */\n      and\n        /* \"#utility.yul\":4451:4488   */\n      tag_86\n        /* \"#utility.yul\":4483:4487   */\n      dup7\n        /* \"#utility.yul\":4451:4488   */\n      tag_14\n      jump\t// in\n    tag_86:\n        /* \"#utility.yul\":4510:4511   */\n      0x00\n        /* \"#utility.yul\":4524:4732   */\n    tag_87:\n        /* \"#utility.yul\":4538:4545   */\n      dup3\n        /* \"#utility.yul\":4535:4536   */\n      dup2\n        /* \"#utility.yul\":4532:4546   */\n      lt\n        /* \"#utility.yul\":4524:4732   */\n      iszero\n      tag_89\n      jumpi\n        /* \"#utility.yul\":4617:4626   */\n      dup5\n        /* \"#utility.yul\":4612:4615   */\n      dup10\n        /* \"#utility.yul\":4608:4627   */\n      add\n        /* \"#utility.yul\":4602:4628   */\n      mload\n        /* \"#utility.yul\":4594:4600   */\n      dup3\n        /* \"#utility.yul\":4587:4629   */\n      sstore\n        /* \"#utility.yul\":4668:4669   */\n      0x01\n        /* \"#utility.yul\":4660:4666   */\n      dup3\n        /* \"#utility.yul\":4656:4670   */\n      add\n        /* \"#utility.yul\":4646:4670   */\n      swap2\n      pop\n        /* \"#utility.yul\":4715:4717   */\n      0x20\n        /* \"#utility.yul\":4704:4713   */\n      dup6\n        /* \"#utility.yul\":4700:4718   */\n      add\n        /* \"#utility.yul\":4687:4718   */\n      swap5\n      pop\n        /* \"#utility.yul\":4561:4565   */\n      0x20\n        /* \"#utility.yul\":4558:4559   */\n      dup2\n        /* \"#utility.yul\":4554:4566   */\n      add\n        /* \"#utility.yul\":4549:4566   */\n      swap1\n      pop\n        /* \"#utility.yul\":4524:4732   */\n      jump(tag_87)\n    tag_89:\n        /* \"#utility.yul\":4760:4766   */\n      dup7\n        /* \"#utility.yul\":4751:4758   */\n      dup4\n        /* \"#utility.yul\":4748:4767   */\n      lt\n        /* \"#utility.yul\":4745:4924   */\n      iszero\n      tag_90\n      jumpi\n        /* \"#utility.yul\":4818:4827   */\n      dup5\n        /* \"#utility.yul\":4813:4816   */\n      dup10\n        /* \"#utility.yul\":4809:4828   */\n      add\n        /* \"#utility.yul\":4803:4829   */\n      mload\n        /* \"#utility.yul\":4861:4909   */\n      tag_91\n        /* \"#utility.yul\":4903:4907   */\n      0x1f\n        /* \"#utility.yul\":4895:4901   */\n      dup10\n        /* \"#utility.yul\":4891:4908   */\n      and\n        /* \"#utility.yul\":4880:4889   */\n      dup3\n        /* \"#utility.yul\":4861:4909   */\n      tag_28\n      jump\t// in\n    tag_91:\n        /* \"#utility.yul\":4853:4859   */\n      dup4\n        /* \"#utility.yul\":4846:4910   */\n      sstore\n        /* \"#utility.yul\":4768:4924   */\n      pop\n        /* \"#utility.yul\":4745:4924   */\n    tag_90:\n        /* \"#utility.yul\":4970:4971   */\n      0x01\n        /* \"#utility.yul\":4966:4967   */\n      0x02\n        /* \"#utility.yul\":4958:4964   */\n      dup9\n        /* \"#utility.yul\":4954:4968   */\n      mul\n        /* \"#utility.yul\":4950:4972   */\n      add\n        /* \"#utility.yul\":4944:4948   */\n      dup9\n        /* \"#utility.yul\":4937:4973   */\n      sstore\n        /* \"#utility.yul\":4372:4983   */\n      pop\n      pop\n      pop\n        /* \"#utility.yul\":4335:5222   */\n    tag_82:\n      pop\n        /* \"#utility.yul\":3925:5228   */\n      pop\n      pop\n      pop\n        /* \"#utility.yul\":3833:5228   */\n      pop\n      pop\n      jump\t// out\n        /* \"LiquidityPool.sol\":199:690  contract LPToken is ERC20 {... */\n    tag_9:\n      dataSize(sub_0)\n      dup1\n      dataOffset(sub_0)\n      0x00\n      codecopy\n      0x00\n      return\n    stop\n\n    sub_0: assembly {\n            /* \"LiquidityPool.sol\":199:690  contract LPToken is ERC20 {... */\n          mstore(0x40, 0x80)\n          callvalue\n          dup1\n          iszero\n          tag_1\n          jumpi\n          0x00\n          dup1\n          revert\n        tag_1:\n          pop\n          jumpi(tag_2, lt(calldatasize, 0x04))\n          shr(0xe0, calldataload(0x00))\n          dup1\n          0x40c10f19\n          gt\n          tag_15\n          jumpi\n          dup1\n          0x40c10f19\n          eq\n          tag_9\n          jumpi\n          dup1\n          0x70a08231\n          eq\n          tag_10\n          jumpi\n          dup1\n          0x95d89b41\n          eq\n          tag_11\n          jumpi\n          dup1\n          0x9dc29fac\n          eq\n          tag_12\n          jumpi\n          dup1\n          0xa9059cbb\n          eq\n          tag_13\n          jumpi\n          dup1\n          0xdd62ed3e\n          eq\n          tag_14\n          jumpi\n          jump(tag_2)\n        tag_15:\n          dup1\n          0x06fdde03\n          eq\n          tag_3\n          jumpi\n          dup1\n          0x095ea7b3\n          eq\n          tag_4\n          jumpi\n          dup1\n          0x16f0115b\n          eq\n          tag_5\n          jumpi\n          dup1\n          0x18160ddd\n          eq\n          tag_6\n          jumpi\n          dup1\n          0x23b872dd\n          eq\n          tag_7\n          jumpi\n          dup1\n          0x313ce567\n          eq\n          tag_8\n          jumpi\n        tag_2:\n          0x00\n          dup1\n          revert\n            /* \"@openzeppelin/contracts/token/ERC20/ERC20.sol\":1760:1849  function name() public view virtual returns (string memory) {... */\n        tag_3:\n          tag_16\n          tag_17\n          jump\t// in\n        tag_16:\n          mload(0x40)\n          tag_18\n          swap2\n          swap1\n          tag_19\n          jump\t// in\n        tag_18:\n          mload(0x40)\n          dup1\n          swap2\n          sub\n          swap1\n          return\n            /* \"@openzeppelin/contracts/token/ERC20/ERC20.sol\":3979:4165  function approve(address spender, uint256 value) public virtual returns (bool) {... */\n        tag_4:\n          tag_20\n          0x04\n          dup1\n          calldatasize\n          sub\n          dup2\n          add\n          swap1\n          tag_21\n          swap2\n          swap1\n          tag_22\n          jump\t// in\n        tag_21:\n          tag_23\n          jump\t// in\n        tag_20:\n          mload(0x40)\n          tag_24\n          swap2\n          swap1\n          tag_25\n          jump\t// in\n        tag_24:\n          mload(0x40)\n          dup1\n          swap2\n          sub\n          swap1\n          return\n            /* \"LiquidityPool.sol\":232:251  address public pool */\n        tag_5:\n          tag_26\n          tag_27\n          jump\t// in\n        tag_26:\n          mload(0x40)\n          tag_28\n          swap2\n          swap1\n          tag_29\n          jump\t// in\n        tag_28:\n          mload(0x40)\n          dup1\n          swap2\n          sub\n          swap1\n          return\n            /* \"@openzeppelin/contracts/token/ERC20/ERC20.sol\":2830:2927  function totalSupply() public view virtual returns (uint256) {... */\n        tag_6:\n          tag_30\n          tag_31\n          jump\t// in\n        tag_30:\n          mload(0x40)\n          tag_32\n          swap2\n          swap1\n          tag_33\n          jump\t// in\n        tag_32:\n          mload(0x40)\n          dup1\n          swap2\n          sub\n          swap1\n          return\n            /* \"@openzeppelin/contracts/token/ERC20/ERC20.sol\":4757:5001  function transferFrom(address from, address to, uint256 value) public virtual returns (bool) {... */\n        tag_7:\n          tag_34\n          0x04\n          dup1\n          calldatasize\n          sub\n          dup2\n          add\n          swap1\n          tag_35\n          swap2\n          swap1\n          tag_36\n          jump\t// in\n        tag_35:\n          tag_37\n          jump\t// in\n        tag_34:\n          mload(0x40)\n          tag_38\n          swap2\n          swap1\n          tag_25\n          jump\t// in\n        tag_38:\n          mload(0x40)\n          dup1\n          swap2\n          sub\n          swap1\n          return\n            /* \"@openzeppelin/contracts/token/ERC20/ERC20.sol\":2688:2770  function decimals() public view virtual returns (uint8) {... */\n        tag_8:\n          tag_39\n          tag_40\n          jump\t// in\n        tag_39:\n          mload(0x40)\n          tag_41\n          swap2\n          swap1\n          tag_42\n          jump\t// in\n        tag_41:\n          mload(0x40)\n          dup1\n          swap2\n          sub\n          swap1\n          return\n            /* \"LiquidityPool.sol\":391:538  function mint(address to, uint256 amount) external {... */\n        tag_9:\n          tag_43\n          0x04\n          dup1\n          calldatasize\n          sub\n          dup2\n          add\n          swap1\n          tag_44\n          swap2\n          swap1\n          tag_22\n          jump\t// in\n        tag_44:\n          tag_45\n          jump\t// in\n        tag_43:\n          stop\n            /* \"@openzeppelin/contracts/token/ERC20/ERC20.sol\":2985:3101  function balanceOf(address account) public view virtual returns (uint256) {... */\n        tag_10:\n          tag_46\n          0x04\n          dup1\n          calldatasize\n          sub\n          dup2\n          add\n          swap1\n          tag_47\n          swap2\n          swap1\n          tag_48\n          jump\t// in\n        tag_47:\n          tag_49\n          jump\t// in\n        tag_46:\n          mload(0x40)\n          tag_50\n          swap2\n          swap1\n          tag_33\n          jump\t// in\n        tag_50:\n          mload(0x40)\n          dup1\n          swap2\n          sub\n          swap1\n          return\n            /* \"@openzeppelin/contracts/token/ERC20/ERC20.sol\":1962:2055  function symbol() public view virtual returns (string memory) {... */\n        tag_11:\n          tag_51\n          tag_52\n          jump\t// in\n        tag_51:\n          mload(0x40)\n          tag_53\n          swap2\n          swap1\n          tag_19\n          jump\t// in\n        tag_53:\n          mload(0x40)\n          dup1\n          swap2\n          sub\n          swap1\n          return\n            /* \"LiquidityPool.sol\":546:685  function burn(address from, uint256 amount) external {... */\n        tag_12:\n          tag_54\n          0x04\n          dup1\n          calldatasize\n          sub\n          dup2\n          add\n          swap1\n          tag_55\n          swap2\n          swap1\n          tag_22\n          jump\t// in\n        tag_55:\n          tag_56\n          jump\t// in\n        tag_54:\n          stop\n            /* \"@openzeppelin/contracts/token/ERC20/ERC20.sol\":3296:3474  function transfer(address to, uint256 value) public virtual returns (bool) {... */\n        tag_13:\n          tag_57\n          0x04\n          dup1\n          calldatasize\n          sub\n          dup2\n          add\n          swap1\n          tag_58\n          swap2\n          swap1\n          tag_22\n          jump\t// in\n        tag_58:\n          tag_59\n          jump\t// in\n        tag_57:\n          mload(0x40)\n          tag_60\n          swap2\n          swap1\n          tag_25\n          jump\t// in\n        tag_60:\n          mload(0x40)\n          dup1\n          swap2\n          sub\n          swap1\n          return\n            /* \"@openzeppelin/contracts/token/ERC20/ERC20.sol\":3532:3672  function allowance(address owner, address spender) public view virtual returns (uint256) {... */\n        tag_14:\n          tag_61\n          0x04\n          dup1\n          calldatasize\n          sub\n          dup2\n          add\n          swap1\n          tag_62\n          swap2\n          swap1\n          tag_63\n          jump\t// in\n        tag_62:\n          tag_64\n          jump\t// in\n        tag_61:\n          mload(0x40)\n          tag_65\n          swap2\n          swap1\n          tag_33\n          jump\t// in\n        tag_65:\n          mload(0x40)\n          dup1\n          swap2\n          sub\n          swap1\n          return\n            /* \"@openzeppelin/contracts/token/ERC20/ERC20.sol\":1760:1849  function name() public view virtual returns (string memory) {... */\n        tag_17:\n            /* \"@openzeppelin/contracts/token/ERC20/ERC20.sol\":1805:1818  string memory */\n          0x60\n            /* \"@openzeppelin/contracts/token/ERC20/ERC20.sol\":1837:1842  _name */\n          0x03\n            /* \"@openzeppelin/contracts/token/ERC20/ERC20.sol\":1830:1842  return _name */\n          dup1\n          sload\n          tag_67\n          swap1\n          tag_68\n          jump\t// in\n        tag_67:\n          dup1\n          0x1f\n          add\n          0x20\n          dup1\n          swap2\n          div\n          mul\n          0x20\n          add\n          mload(0x40)\n          swap1\n          dup2\n          add\n          0x40\n          mstore\n          dup1\n          swap3\n          swap2\n          swap1\n          dup2\n          dup2\n          mstore\n          0x20\n          add\n          dup3\n          dup1\n          sload\n          tag_69\n          swap1\n          tag_68\n          jump\t// in\n        tag_69:\n          dup1\n          iszero\n          tag_70\n          jumpi\n          dup1\n          0x1f\n          lt\n          tag_71\n          jumpi\n          0x0100\n          dup1\n          dup4\n          sload\n          div\n          mul\n          dup4\n          mstore\n          swap2\n          0x20\n          add\n          swap2\n          jump(tag_70)\n        tag_71:\n          dup3\n          add\n          swap2\n          swap1\n          0x00\n          mstore\n          keccak256(0x00, 0x20)\n          swap1\n        tag_72:\n          dup2\n          sload\n          dup2\n          mstore\n          swap1\n          0x01\n          add\n          swap1\n          0x20\n          add\n          dup1\n          dup4\n          gt\n          tag_72\n          jumpi\n          dup3\n          swap1\n          sub\n          0x1f\n          and\n          dup3\n          add\n          swap2\n        tag_70:\n          pop\n          pop\n          pop\n          pop\n          pop\n          swap1\n          pop\n            /* \"@openzeppelin/contracts/token/ERC20/ERC20.sol\":1760:1849  function name() public view virtual returns (string memory) {... */\n          swap1\n          jump\t// out\n            /* \"@openzeppelin/contracts/token/ERC20/ERC20.sol\":3979:4165  function approve(address spender, uint256 value) public virtual returns (bool) {... */\n        tag_23:\n            /* \"@openzeppelin/contracts/token/ERC20/ERC20.sol\":4052:4056  bool */\n          0x00\n            /* \"@openzeppelin/contracts/token/ERC20/ERC20.sol\":4068:4081  address owner */\n          dup1\n            /* \"@openzeppelin/contracts/token/ERC20/ERC20.sol\":4084:4096  _msgSender() */\n          tag_74\n            /* \"@openzeppelin/contracts/token/ERC20/ERC20.sol\":4084:4094  _msgSender */\n          tag_75\n            /* \"@openzeppelin/contracts/token/ERC20/ERC20.sol\":4084:4096  _msgSender() */\n          jump\t// in\n        tag_74:\n            /* \"@openzeppelin/contracts/token/ERC20/ERC20.sol\":4068:4096  address owner = _msgSender() */\n          swap1\n          pop\n            /* \"@openzeppelin/contracts/token/ERC20/ERC20.sol\":4106:4137  _approve(owner, spender, value) */\n          tag_76\n            /* \"@openzeppelin/contracts/token/ERC20/ERC20.sol\":4115:4120  owner */\n          dup2\n            /* \"@openzeppelin/contracts/token/ERC20/ERC20.sol\":4122:4129  spender */\n          dup6\n            /* \"@openzeppelin/contracts/token/ERC20/ERC20.sol\":4131:4136  value */\n          dup6\n            /* \"@openzeppelin/contracts/token/ERC20/ERC20.sol\":4106:4114  _approve */\n          tag_77\n            /* \"@openzeppelin/contracts/token/ERC20/ERC20.sol\":4106:4137  _approve(owner, spender, value) */\n          jump\t// in\n        tag_76:\n            /* \"@openzeppelin/contracts/token/ERC20/ERC20.sol\":4154:4158  true */\n          0x01\n            /* \"@openzeppelin/contracts/token/ERC20/ERC20.sol\":4147:4158  return true */\n          swap2\n          pop\n          pop\n            /* \"@openzeppelin/contracts/token/ERC20/ERC20.sol\":3979:4165  function approve(address spender, uint256 value) public virtual returns (bool) {... */\n          swap3\n          swap2\n          pop\n          pop\n          jump\t// out\n            /* \"LiquidityPool.sol\":232:251  address public pool */\n        tag_27:\n          0x05\n          0x00\n          swap1\n          sload\n          swap1\n          0x0100\n          exp\n          swap1\n          div\n          0xffffffffffffffffffffffffffffffffffffffff\n          and\n          dup2\n          jump\t// out\n            /* \"@openzeppelin/contracts/token/ERC20/ERC20.sol\":2830:2927  function totalSupply() public view virtual returns (uint256) {... */\n        tag_31:\n            /* \"@openzeppelin/contracts/token/ERC20/ERC20.sol\":2882:2889  uint256 */\n          0x00\n            /* \"@openzeppelin/contracts/token/ERC20/ERC20.sol\":2908:2920  _totalSupply */\n          sload(0x02)\n            /* \"@openzeppelin/contracts/token/ERC20/ERC20.sol\":2901:2920  return _totalSupply */\n          swap1\n          pop\n            /* \"@openzeppelin/contracts/token/ERC20/ERC20.sol\":2830:2927  function totalSupply() public view virtual returns (uint256) {... */\n          swap1\n          jump\t// out\n            /* \"@openzeppelin/contracts/token/ERC20/ERC20.sol\":4757:5001  function transferFrom(address from, address to, uint256 value) public virtual returns (bool) {... */\n        tag_37:\n            /* \"@openzeppelin/contracts/token/ERC20/ERC20.sol\":4844:4848  bool */\n          0x00\n            /* \"@openzeppelin/contracts/token/ERC20/ERC20.sol\":4860:4875  address spender */\n          dup1\n            /* \"@openzeppelin/contracts/token/ERC20/ERC20.sol\":4878:4890  _msgSender() */\n          tag_80\n            /* \"@openzeppelin/contracts/token/ERC20/ERC20.sol\":4878:4888  _msgSender */\n          tag_75\n            /* \"@openzeppelin/contracts/token/ERC20/ERC20.sol\":4878:4890  _msgSender() */\n          jump\t// in\n        tag_80:\n            /* \"@openzeppelin/contracts/token/ERC20/ERC20.sol\":4860:4890  address spender = _msgSender() */\n          swap1\n          pop\n            /* \"@openzeppelin/contracts/token/ERC20/ERC20.sol\":4900:4937  _spendAllowance(from, spender, value) */\n          tag_81\n            /* \"@openzeppelin/contracts/token/ERC20/ERC20.sol\":4916:4920  from */\n          dup6\n            /* \"@openzeppelin/contracts/token/ERC20/ERC20.sol\":4922:4929  spender */\n          dup3\n            /* \"@openzeppelin/contracts/token/ERC20/ERC20.sol\":4931:4936  value */\n          dup6\n            /* \"@openzeppelin/contracts/token/ERC20/ERC20.sol\":4900:4915  _spendAllowance */\n          tag_82\n            /* \"@openzeppelin/contracts/token/ERC20/ERC20.sol\":4900:4937  _spendAllowance(from, spender, value) */\n          jump\t// in\n        tag_81:\n            /* \"@openzeppelin/contracts/token/ERC20/ERC20.sol\":4947:4973  _transfer(from, to, value) */\n          tag_83\n            /* \"@openzeppelin/contracts/token/ERC20/ERC20.sol\":4957:4961  from */\n          dup6\n            /* \"@openzeppelin/contracts/token/ERC20/ERC20.sol\":4963:4965  to */\n          dup6\n            /* \"@openzeppelin/contracts/token/ERC20/ERC20.sol\":4967:4972  value */\n          dup6\n            /* \"@openzeppelin/contracts/token/ERC20/ERC20.sol\":4947:4956  _transfer */\n          tag_84\n            /* \"@openzeppelin/contracts/token/ERC20/ERC20.sol\":4947:4973  _transfer(from, to, value) */\n          jump\t// in\n        tag_83:\n            /* \"@openzeppelin/contracts/token/ERC20/ERC20.sol\":4990:4994  true */\n          0x01\n            /* \"@openzeppelin/contracts/token/ERC20/ERC20.sol\":4983:4994  return true */\n          swap2\n          pop\n          pop\n            /* \"@openzeppelin/contracts/token/ERC20/ERC20.sol\":4757:5001  function transferFrom(address from, address to, uint256 value) public virtual returns (bool) {... */\n          swap4\n          swap3\n          pop\n          pop\n          pop\n          jump\t// out\n            /* \"@openzeppelin/contracts/token/ERC20/ERC20.sol\":2688:2770  function decimals() public view virtual returns (uint8) {... */\n        tag_40:\n            /* \"@openzeppelin/contracts/token/ERC20/ERC20.sol\":2737:2742  uint8 */\n          0x00\n            /* \"@openzeppelin/contracts/token/ERC20/ERC20.sol\":2761:2763  18 */\n          0x12\n            /* \"@openzeppelin/contracts/token/ERC20/ERC20.sol\":2754:2763  return 18 */\n          swap1\n          pop\n            /* \"@openzeppelin/contracts/token/ERC20/ERC20.sol\":2688:2770  function decimals() public view virtual returns (uint8) {... */\n          swap1\n          jump\t// out\n            /* \"LiquidityPool.sol\":391:538  function mint(address to, uint256 amount) external {... */\n        tag_45:\n            /* \"LiquidityPool.sol\":475:479  pool */\n          0x05\n          0x00\n          swap1\n          sload\n          swap1\n          0x0100\n          exp\n          swap1\n          div\n          0xffffffffffffffffffffffffffffffffffffffff\n          and\n            /* \"LiquidityPool.sol\":461:479  msg.sender == pool */\n          0xffffffffffffffffffffffffffffffffffffffff\n          and\n            /* \"LiquidityPool.sol\":461:471  msg.sender */\n          caller\n            /* \"LiquidityPool.sol\":461:479  msg.sender == pool */\n          0xffffffffffffffffffffffffffffffffffffffff\n          and\n          eq\n            /* \"LiquidityPool.sol\":453:502  require(msg.sender == pool, \"Only pool can mint\") */\n          tag_87\n          jumpi\n          mload(0x40)\n          0x08c379a000000000000000000000000000000000000000000000000000000000\n          dup2\n          mstore\n          0x04\n          add\n          tag_88\n          swap1\n          tag_89\n          jump\t// in\n        tag_88:\n          mload(0x40)\n          dup1\n          swap2\n          sub\n          swap1\n          revert\n        tag_87:\n            /* \"LiquidityPool.sol\":513:530  _mint(to, amount) */\n          tag_90\n            /* \"LiquidityPool.sol\":519:521  to */\n          dup3\n            /* \"LiquidityPool.sol\":523:529  amount */\n          dup3\n            /* \"LiquidityPool.sol\":513:518  _mint */\n          tag_91\n            /* \"LiquidityPool.sol\":513:530  _mint(to, amount) */\n          jump\t// in\n        tag_90:\n            /* \"LiquidityPool.sol\":391:538  function mint(address to, uint256 amount) external {... */\n          pop\n          pop\n          jump\t// out\n            /* \"@openzeppelin/contracts/token/ERC20/ERC20.sol\":2985:3101  function balanceOf(address account) public view virtual returns (uint256) {... */\n        tag_49:\n            /* \"@openzeppelin/contracts/token/ERC20/ERC20.sol\":3050:3057  uint256 */\n          0x00\n            /* \"@openzeppelin/contracts/token/ERC20/ERC20.sol\":3076:3085  _balances */\n          dup1\n            /* \"@openzeppelin/contracts/token/ERC20/ERC20.sol\":3076:3094  _balances[account] */\n          0x00\n            /* \"@openzeppelin/contracts/token/ERC20/ERC20.sol\":3086:3093  account */\n          dup4\n            /* \"@openzeppelin/contracts/token/ERC20/ERC20.sol\":3076:3094  _balances[account] */\n          0xffffffffffffffffffffffffffffffffffffffff\n          and\n          0xffffffffffffffffffffffffffffffffffffffff\n          and\n          dup2\n          mstore\n          0x20\n          add\n          swap1\n          dup2\n          mstore\n          0x20\n          add\n          0x00\n          keccak256\n          sload\n            /* \"@openzeppelin/contracts/token/ERC20/ERC20.sol\":3069:3094  return _balances[account] */\n          swap1\n          pop\n            /* \"@openzeppelin/contracts/token/ERC20/ERC20.sol\":2985:3101  function balanceOf(address account) public view virtual returns (uint256) {... */\n          swap2\n          swap1\n          pop\n          jump\t// out\n            /* \"@openzeppelin/contracts/token/ERC20/ERC20.sol\":1962:2055  function symbol() public view virtual returns (string memory) {... */\n        tag_52:\n            /* \"@openzeppelin/contracts/token/ERC20/ERC20.sol\":2009:2022  string memory */\n          0x60\n            /* \"@openzeppelin/contracts/token/ERC20/ERC20.sol\":2041:2048  _symbol */\n          0x04\n            /* \"@openzeppelin/contracts/token/ERC20/ERC20.sol\":2034:2048  return _symbol */\n          dup1\n          sload\n          tag_94\n          swap1\n          tag_68\n          jump\t// in\n        tag_94:\n          dup1\n          0x1f\n          add\n          0x20\n          dup1\n          swap2\n          div\n          mul\n          0x20\n          add\n          mload(0x40)\n          swap1\n          dup2\n          add\n          0x40\n          mstore\n          dup1\n          swap3\n          swap2\n          swap1\n          dup2\n          dup2\n          mstore\n          0x20\n          add\n          dup3\n          dup1\n          sload\n          tag_95\n          swap1\n          tag_68\n          jump\t// in\n        tag_95:\n          dup1\n          iszero\n          tag_96\n          jumpi\n          dup1\n          0x1f\n          lt\n          tag_97\n          jumpi\n          0x0100\n          dup1\n          dup4\n          sload\n          div\n          mul\n          dup4\n          mstore\n          swap2\n          0x20\n          add\n          swap2\n          jump(tag_96)\n        tag_97:\n          dup3\n          add\n          swap2\n          swap1\n          0x00\n          mstore\n          keccak256(0x00, 0x20)\n          swap1\n        tag_98:\n          dup2\n          sload\n          dup2\n          mstore\n          swap1\n          0x01\n          add\n          swap1\n          0x20\n          add\n          dup1\n          dup4\n          gt\n          tag_98\n          jumpi\n          dup3\n          swap1\n          sub\n          0x1f\n          and\n          dup3\n          add\n          swap2\n        tag_96:\n          pop\n          pop\n          pop\n          pop\n          pop\n          swap1\n          pop\n            /* \"@openzeppelin/contracts/token/ERC20/ERC20.sol\":1962:2055  function symbol() public view virtual returns (string memory) {... */\n          swap1\n          jump\t// out\n            /* \"LiquidityPool.sol\":546:685  function burn(address from, uint256 amount) external {... */\n        tag_56:\n            /* \"LiquidityPool.sol\":628:632  pool */\n          0x05\n          0x00\n          swap1\n          sload\n          swap1\n          0x0100\n          exp\n          swap1\n          div\n          0xffffffffffffffffffffffffffffffffffffffff\n          and\n            /* \"LiquidityPool.sol\":614:632  msg.sender == pool */\n          0xffffffffffffffffffffffffffffffffffffffff\n          and\n            /* \"LiquidityPool.sol\":614:624  msg.sender */\n          caller\n            /* \"LiquidityPool.sol\":614:632  msg.sender == pool */\n          0xffffffffffffffffffffffffffffffffffffffff\n          and\n          eq\n            /* \"LiquidityPool.sol\":606:655  require(msg.sender == pool, \"Only pool can burn\") */\n          tag_100\n          jumpi\n          mload(0x40)\n          0x08c379a000000000000000000000000000000000000000000000000000000000\n          dup2\n          mstore\n          0x04\n          add\n          tag_101\n          swap1\n          tag_102\n          jump\t// in\n        tag_101:\n          mload(0x40)\n          dup1\n          swap2\n          sub\n          swap1\n          revert\n        tag_100:\n            /* \"LiquidityPool.sol\":662:681  _burn(from, amount) */\n          tag_103\n            /* \"LiquidityPool.sol\":668:672  from */\n          dup3\n            /* \"LiquidityPool.sol\":674:680  amount */\n          dup3\n            /* \"LiquidityPool.sol\":662:667  _burn */\n          tag_104\n            /* \"LiquidityPool.sol\":662:681  _burn(from, amount) */\n          jump\t// in\n        tag_103:\n            /* \"LiquidityPool.sol\":546:685  function burn(address from, uint256 amount) external {... */\n          pop\n          pop\n          jump\t// out\n            /* \"@openzeppelin/contracts/token/ERC20/ERC20.sol\":3296:3474  function transfer(address to, uint256 value) public virtual returns (bool) {... */\n        tag_59:\n            /* \"@openzeppelin/contracts/token/ERC20/ERC20.sol\":3365:3369  bool */\n          0x00\n            /* \"@openzeppelin/contracts/token/ERC20/ERC20.sol\":3381:3394  address owner */\n          dup1\n            /* \"@openzeppelin/contracts/token/ERC20/ERC20.sol\":3397:3409  _msgSender() */\n          tag_106\n            /* \"@openzeppelin/contracts/token/ERC20/ERC20.sol\":3397:3407  _msgSender */\n          tag_75\n            /* \"@openzeppelin/contracts/token/ERC20/ERC20.sol\":3397:3409  _msgSender() */\n          jump\t// in\n        tag_106:\n            /* \"@openzeppelin/contracts/token/ERC20/ERC20.sol\":3381:3409  address owner = _msgSender() */\n          swap1\n          pop\n            /* \"@openzeppelin/contracts/token/ERC20/ERC20.sol\":3419:3446  _transfer(owner, to, value) */\n          tag_107\n            /* \"@openzeppelin/contracts/token/ERC20/ERC20.sol\":3429:3434  owner */\n          dup2\n            /* \"@openzeppelin/contracts/token/ERC20/ERC20.sol\":3436:3438  to */\n          dup6\n            /* \"@openzeppelin/contracts/token/ERC20/ERC20.sol\":3440:3445  value */\n          dup6\n            /* \"@openzeppelin/contracts/token/ERC20/ERC20.sol\":3419:3428  _transfer */\n          tag_84\n            /* \"@openzeppelin/contracts/token/ERC20/ERC20.sol\":3419:3446  _transfer(owner, to, value) */\n          jump\t// in\n        tag_107:\n            /* \"@openzeppelin/contracts/token/ERC20/ERC20.sol\":3463:3467  true */\n          0x01\n            /* \"@openzeppelin/contracts/token/ERC20/ERC20.sol\":3456:3467  return true */\n          swap2\n          pop\n          pop\n            /* \"@openzeppelin/contracts/token/ERC20/ERC20.sol\":3296:3474  function transfer(address to, uint256 value) public virtual returns (bool) {... */\n          swap3\n          swap2\n          pop\n          pop\n          jump\t// out\n            /* \"@openzeppelin/contracts/token/ERC20/ERC20.sol\":3532:3672  function allowance(address owner, address spender) public view virtual returns (uint256) {... */\n        tag_64:\n            /* \"@openzeppelin/contracts/token/ERC20/ERC20.sol\":3612:3619  uint256 */\n          0x00\n            /* \"@openzeppelin/contracts/token/ERC20/ERC20.sol\":3638:3649  _allowances */\n          0x01\n            /* \"@openzeppelin/contracts/token/ERC20/ERC20.sol\":3638:3656  _allowances[owner] */\n          0x00\n            /* \"@openzeppelin/contracts/token/ERC20/ERC20.sol\":3650:3655  owner */\n          dup5\n            /* \"@openzeppelin/contracts/token/ERC20/ERC20.sol\":3638:3656  _allowances[owner] */\n          0xffffffffffffffffffffffffffffffffffffffff\n          and\n          0xffffffffffffffffffffffffffffffffffffffff\n          and\n          dup2\n          mstore\n          0x20\n          add\n          swap1\n          dup2\n          mstore\n          0x20\n          add\n          0x00\n          keccak256\n            /* \"@openzeppelin/contracts/token/ERC20/ERC20.sol\":3638:3665  _allowances[owner][spender] */\n          0x00\n            /* \"@openzeppelin/contracts/token/ERC20/ERC20.sol\":3657:3664  spender */\n          dup4\n            /* \"@openzeppelin/contracts/token/ERC20/ERC20.sol\":3638:3665  _allowances[owner][spender] */\n          0xffffffffffffffffffffffffffffffffffffffff\n          and\n          0xffffffffffffffffffffffffffffffffffffffff\n          and\n          dup2\n          mstore\n          0x20\n          add\n          swap1\n          dup2\n          mstore\n          0x20\n          add\n          0x00\n          keccak256\n          sload\n            /* \"@openzeppelin/contracts/token/ERC20/ERC20.sol\":3631:3665  return _allowances[owner][spender] */\n          swap1\n          pop\n            /* \"@openzeppelin/contracts/token/ERC20/ERC20.sol\":3532:3672  function allowance(address owner, address spender) public view virtual returns (uint256) {... */\n          swap3\n          swap2\n          pop\n          pop\n          jump\t// out\n            /* \"@openzeppelin/contracts/utils/Context.sol\":656:752  function _msgSender() internal view virtual returns (address) {... */\n        tag_75:\n            /* \"@openzeppelin/contracts/utils/Context.sol\":709:716  address */\n          0x00\n            /* \"@openzeppelin/contracts/utils/Context.sol\":735:745  msg.sender */\n          caller\n            /* \"@openzeppelin/contracts/utils/Context.sol\":728:745  return msg.sender */\n          swap1\n          pop\n            /* \"@openzeppelin/contracts/utils/Context.sol\":656:752  function _msgSender() internal view virtual returns (address) {... */\n          swap1\n          jump\t// out\n            /* \"@openzeppelin/contracts/token/ERC20/ERC20.sol\":8707:8835  function _approve(address owner, address spender, uint256 value) internal {... */\n        tag_77:\n            /* \"@openzeppelin/contracts/token/ERC20/ERC20.sol\":8791:8828  _approve(owner, spender, value, true) */\n          tag_111\n            /* \"@openzeppelin/contracts/token/ERC20/ERC20.sol\":8800:8805  owner */\n          dup4\n            /* \"@openzeppelin/contracts/token/ERC20/ERC20.sol\":8807:8814  spender */\n          dup4\n            /* \"@openzeppelin/contracts/token/ERC20/ERC20.sol\":8816:8821  value */\n          dup4\n            /* \"@openzeppelin/contracts/token/ERC20/ERC20.sol\":8823:8827  true */\n          0x01\n            /* \"@openzeppelin/contracts/token/ERC20/ERC20.sol\":8791:8799  _approve */\n          tag_112\n            /* \"@openzeppelin/contracts/token/ERC20/ERC20.sol\":8791:8828  _approve(owner, spender, value, true) */\n          jump\t// in\n        tag_111:\n            /* \"@openzeppelin/contracts/token/ERC20/ERC20.sol\":8707:8835  function _approve(address owner, address spender, uint256 value) internal {... */\n          pop\n          pop\n          pop\n          jump\t// out\n            /* \"@openzeppelin/contracts/token/ERC20/ERC20.sol\":10396:10872  function _spendAllowance(address owner, address spender, uint256 value) internal virtual {... */\n        tag_82:\n            /* \"@openzeppelin/contracts/token/ERC20/ERC20.sol\":10495:10519  uint256 currentAllowance */\n          0x00\n            /* \"@openzeppelin/contracts/token/ERC20/ERC20.sol\":10522:10547  allowance(owner, spender) */\n          tag_114\n            /* \"@openzeppelin/contracts/token/ERC20/ERC20.sol\":10532:10537  owner */\n          dup5\n            /* \"@openzeppelin/contracts/token/ERC20/ERC20.sol\":10539:10546  spender */\n          dup5\n            /* \"@openzeppelin/contracts/token/ERC20/ERC20.sol\":10522:10531  allowance */\n          tag_64\n            /* \"@openzeppelin/contracts/token/ERC20/ERC20.sol\":10522:10547  allowance(owner, spender) */\n          jump\t// in\n        tag_114:\n            /* \"@openzeppelin/contracts/token/ERC20/ERC20.sol\":10495:10547  uint256 currentAllowance = allowance(owner, spender) */\n          swap1\n          pop\n            /* \"@openzeppelin/contracts/token/ERC20/ERC20.sol\":10580:10597  type(uint256).max */\n          0xffffffffffffffffffffffffffffffffffffffffffffffffffffffffffffffff\n            /* \"@openzeppelin/contracts/token/ERC20/ERC20.sol\":10561:10577  currentAllowance */\n          dup2\n            /* \"@openzeppelin/contracts/token/ERC20/ERC20.sol\":10561:10597  currentAllowance < type(uint256).max */\n          lt\n            /* \"@openzeppelin/contracts/token/ERC20/ERC20.sol\":10557:10866  if (currentAllowance < type(uint256).max) {... */\n          iszero\n          tag_115\n          jumpi\n            /* \"@openzeppelin/contracts/token/ERC20/ERC20.sol\":10636:10641  value */\n          dup2\n            /* \"@openzeppelin/contracts/token/ERC20/ERC20.sol\":10617:10633  currentAllowance */\n          dup2\n            /* \"@openzeppelin/contracts/token/ERC20/ERC20.sol\":10617:10641  currentAllowance < value */\n          lt\n            /* \"@openzeppelin/contracts/token/ERC20/ERC20.sol\":10613:10743  if (currentAllowance < value) {... */\n          iszero\n          tag_116\n          jumpi\n            /* \"@openzeppelin/contracts/token/ERC20/ERC20.sol\":10695:10702  spender */\n          dup3\n            /* \"@openzeppelin/contracts/token/ERC20/ERC20.sol\":10704:10720  currentAllowance */\n          dup2\n            /* \"@openzeppelin/contracts/token/ERC20/ERC20.sol\":10722:10727  value */\n          dup4\n            /* \"@openzeppelin/contracts/token/ERC20/ERC20.sol\":10668:10728  ERC20InsufficientAllowance(spender, currentAllowance, value) */\n          mload(0x40)\n          0xfb8f41b200000000000000000000000000000000000000000000000000000000\n          dup2\n          mstore\n          0x04\n          add\n          tag_117\n          swap4\n          swap3\n          swap2\n          swap1\n          tag_118\n          jump\t// in\n        tag_117:\n          mload(0x40)\n          dup1\n          swap2\n          sub\n          swap1\n          revert\n            /* \"@openzeppelin/contracts/token/ERC20/ERC20.sol\":10613:10743  if (currentAllowance < value) {... */\n        tag_116:\n            /* \"@openzeppelin/contracts/token/ERC20/ERC20.sol\":10784:10841  _approve(owner, spender, currentAllowance - value, false) */\n          tag_119\n            /* \"@openzeppelin/contracts/token/ERC20/ERC20.sol\":10793:10798  owner */\n          dup5\n            /* \"@openzeppelin/contracts/token/ERC20/ERC20.sol\":10800:10807  spender */\n          dup5\n            /* \"@openzeppelin/contracts/token/ERC20/ERC20.sol\":10828:10833  value */\n          dup5\n            /* \"@openzeppelin/contracts/token/ERC20/ERC20.sol\":10809:10825  currentAllowance */\n          dup5\n            /* \"@openzeppelin/contracts/token/ERC20/ERC20.sol\":10809:10833  currentAllowance - value */\n          sub\n            /* \"@openzeppelin/contracts/token/ERC20/ERC20.sol\":10835:10840  false */\n          0x00\n            /* \"@openzeppelin/contracts/token/ERC20/ERC20.sol\":10784:10792  _approve */\n          tag_112\n            /* \"@openzeppelin/contracts/token/ERC20/ERC20.sol\":10784:10841  _approve(owner, spender, currentAllowance - value, false) */\n          jump\t// in\n        tag_119:\n            /* \"@openzeppelin/contracts/token/ERC20/ERC20.sol\":10557:10866  if (currentAllowance < type(uint256).max) {... */\n        tag_115:\n            /* \"@openzeppelin/contracts/token/ERC20/ERC20.sol\":10485:10872  {... */\n          pop\n            /* \"@openzeppelin/contracts/token/ERC20/ERC20.sol\":10396:10872  function _spendAllowance(address owner, address spender, uint256 value) internal virtual {... */\n          pop\n          pop\n          pop\n          jump\t// out\n            /* \"@openzeppelin/contracts/token/ERC20/ERC20.sol\":5374:5674  function _transfer(address from, address to, uint256 value) internal {... */\n        tag_84:\n            /* \"@openzeppelin/contracts/token/ERC20/ERC20.sol\":5473:5474  0 */\n          0x00\n            /* \"@openzeppelin/contracts/token/ERC20/ERC20.sol\":5457:5475  from == address(0) */\n          0xffffffffffffffffffffffffffffffffffffffff\n          and\n            /* \"@openzeppelin/contracts/token/ERC20/ERC20.sol\":5457:5461  from */\n          dup4\n            /* \"@openzeppelin/contracts/token/ERC20/ERC20.sol\":5457:5475  from == address(0) */\n          0xffffffffffffffffffffffffffffffffffffffff\n          and\n          sub\n            /* \"@openzeppelin/contracts/token/ERC20/ERC20.sol\":5453:5539  if (from == address(0)) {... */\n          tag_121\n          jumpi\n            /* \"@openzeppelin/contracts/token/ERC20/ERC20.sol\":5525:5526  0 */\n          0x00\n            /* \"@openzeppelin/contracts/token/ERC20/ERC20.sol\":5498:5528  ERC20InvalidSender(address(0)) */\n          mload(0x40)\n          0x96c6fd1e00000000000000000000000000000000000000000000000000000000\n          dup2\n          mstore\n          0x04\n          add\n          tag_122\n          swap2\n          swap1\n          tag_29\n          jump\t// in\n        tag_122:\n          mload(0x40)\n          dup1\n          swap2\n          sub\n          swap1\n          revert\n            /* \"@openzeppelin/contracts/token/ERC20/ERC20.sol\":5453:5539  if (from == address(0)) {... */\n        tag_121:\n            /* \"@openzeppelin/contracts/token/ERC20/ERC20.sol\":5566:5567  0 */\n          0x00\n            /* \"@openzeppelin/contracts/token/ERC20/ERC20.sol\":5552:5568  to == address(0) */\n          0xffffffffffffffffffffffffffffffffffffffff\n          and\n            /* \"@openzeppelin/contracts/token/ERC20/ERC20.sol\":5552:5554  to */\n          dup3\n            /* \"@openzeppelin/contracts/token/ERC20/ERC20.sol\":5552:5568  to == address(0) */\n          0xffffffffffffffffffffffffffffffffffffffff\n          and\n          sub\n            /* \"@openzeppelin/contracts/token/ERC20/ERC20.sol\":5548:5634  if (to == address(0)) {... */\n          tag_123\n          jumpi\n            /* \"@openzeppelin/contracts/token/ERC20/ERC20.sol\":5620:5621  0 */\n          0x00\n            /* \"@openzeppelin/contracts/token/ERC20/ERC20.sol\":5591:5623  ERC20InvalidReceiver(address(0)) */\n          mload(0x40)\n          0xec442f0500000000000000000000000000000000000000000000000000000000\n          dup2\n          mstore\n          0x04\n          add\n          tag_124\n          swap2\n          swap1\n          tag_29\n          jump\t// in\n        tag_124:\n          mload(0x40)\n          dup1\n          swap2\n          sub\n          swap1\n          revert\n            /* \"@openzeppelin/contracts/token/ERC20/ERC20.sol\":5548:5634  if (to == address(0)) {... */\n        tag_123:\n            /* \"@openzeppelin/contracts/token/ERC20/ERC20.sol\":5643:5667  _update(from, to, value) */\n          tag_125\n            /* \"@openzeppelin/contracts/token/ERC20/ERC20.sol\":5651:5655  from */\n          dup4\n            /* \"@openzeppelin/contracts/token/ERC20/ERC20.sol\":5657:5659  to */\n          dup4\n            /* \"@openzeppelin/contracts/token/ERC20/ERC20.sol\":5661:5666  value */\n          dup4\n            /* \"@openzeppelin/contracts/token/ERC20/ERC20.sol\":5643:5650  _update */\n          tag_126\n            /* \"@openzeppelin/contracts/token/ERC20/ERC20.sol\":5643:5667  _update(from, to, value) */\n          jump\t// in\n        tag_125:\n            /* \"@openzeppelin/contracts/token/ERC20/ERC20.sol\":5374:5674  function _transfer(address from, address to, uint256 value) internal {... */\n          pop\n          pop\n          pop\n          jump\t// out\n            /* \"@openzeppelin/contracts/token/ERC20/ERC20.sol\":7439:7647  function _mint(address account, uint256 value) internal {... */\n        tag_91:\n            /* \"@openzeppelin/contracts/token/ERC20/ERC20.sol\":7528:7529  0 */\n          0x00\n            /* \"@openzeppelin/contracts/token/ERC20/ERC20.sol\":7509:7530  account == address(0) */\n          0xffffffffffffffffffffffffffffffffffffffff\n          and\n            /* \"@openzeppelin/contracts/token/ERC20/ERC20.sol\":7509:7516  account */\n          dup3\n            /* \"@openzeppelin/contracts/token/ERC20/ERC20.sol\":7509:7530  account == address(0) */\n          0xffffffffffffffffffffffffffffffffffffffff\n          and\n          sub\n            /* \"@openzeppelin/contracts/token/ERC20/ERC20.sol\":7505:7596  if (account == address(0)) {... */\n          tag_128\n          jumpi\n            /* \"@openzeppelin/contracts/token/ERC20/ERC20.sol\":7582:7583  0 */\n          0x00\n            /* \"@openzeppelin/contracts/token/ERC20/ERC20.sol\":7553:7585  ERC20InvalidReceiver(address(0)) */\n          mload(0x40)\n          0xec442f0500000000000000000000000000000000000000000000000000000000\n          dup2\n          mstore\n          0x04\n          add\n          tag_129\n          swap2\n          swap1\n          tag_29\n          jump\t// in\n        tag_129:\n          mload(0x40)\n          dup1\n          swap2\n          sub\n          swap1\n          revert\n            /* \"@openzeppelin/contracts/token/ERC20/ERC20.sol\":7505:7596  if (account == address(0)) {... */\n        tag_128:\n            /* \"@openzeppelin/contracts/token/ERC20/ERC20.sol\":7605:7640  _update(address(0), account, value) */\n          tag_130\n            /* \"@openzeppelin/contracts/token/ERC20/ERC20.sol\":7621:7622  0 */\n          0x00\n            /* \"@openzeppelin/contracts/token/ERC20/ERC20.sol\":7625:7632  account */\n          dup4\n            /* \"@openzeppelin/contracts/token/ERC20/ERC20.sol\":7634:7639  value */\n          dup4\n            /* \"@openzeppelin/contracts/token/ERC20/ERC20.sol\":7605:7612  _update */\n          tag_126\n            /* \"@openzeppelin/contracts/token/ERC20/ERC20.sol\":7605:7640  _update(address(0), account, value) */\n          jump\t// in\n        tag_130:\n            /* \"@openzeppelin/contracts/token/ERC20/ERC20.sol\":7439:7647  function _mint(address account, uint256 value) internal {... */\n          pop\n          pop\n          jump\t// out\n            /* \"@openzeppelin/contracts/token/ERC20/ERC20.sol\":7965:8171  function _burn(address account, uint256 value) internal {... */\n        tag_104:\n            /* \"@openzeppelin/contracts/token/ERC20/ERC20.sol\":8054:8055  0 */\n          0x00\n            /* \"@openzeppelin/contracts/token/ERC20/ERC20.sol\":8035:8056  account == address(0) */\n          0xffffffffffffffffffffffffffffffffffffffff\n          and\n            /* \"@openzeppelin/contracts/token/ERC20/ERC20.sol\":8035:8042  account */\n          dup3\n            /* \"@openzeppelin/contracts/token/ERC20/ERC20.sol\":8035:8056  account == address(0) */\n          0xffffffffffffffffffffffffffffffffffffffff\n          and\n          sub\n            /* \"@openzeppelin/contracts/token/ERC20/ERC20.sol\":8031:8120  if (account == address(0)) {... */\n          tag_132\n          jumpi\n            /* \"@openzeppelin/contracts/token/ERC20/ERC20.sol\":8106:8107  0 */\n          0x00\n            /* \"@openzeppelin/contracts/token/ERC20/ERC20.sol\":8079:8109  ERC20InvalidSender(address(0)) */\n          mload(0x40)\n          0x96c6fd1e00000000000000000000000000000000000000000000000000000000\n          dup2\n          mstore\n          0x04\n          add\n          tag_133\n          swap2\n          swap1\n          tag_29\n          jump\t// in\n        tag_133:\n          mload(0x40)\n          dup1\n          swap2\n          sub\n          swap1\n          revert\n            /* \"@openzeppelin/contracts/token/ERC20/ERC20.sol\":8031:8120  if (account == address(0)) {... */\n        tag_132:\n            /* \"@openzeppelin/contracts/token/ERC20/ERC20.sol\":8129:8164  _update(account, address(0), value) */\n          tag_134\n            /* \"@openzeppelin/contracts/token/ERC20/ERC20.sol\":8137:8144  account */\n          dup3\n            /* \"@openzeppelin/contracts/token/ERC20/ERC20.sol\":8154:8155  0 */\n          0x00\n            /* \"@openzeppelin/contracts/token/ERC20/ERC20.sol\":8158:8163  value */\n          dup4\n            /* \"@openzeppelin/contracts/token/ERC20/ERC20.sol\":8129:8136  _update */\n          tag_126\n            /* \"@openzeppelin/contracts/token/ERC20/ERC20.sol\":8129:8164  _update(account, address(0), value) */\n          jump\t// in\n        tag_134:\n            /* \"@openzeppelin/contracts/token/ERC20/ERC20.sol\":7965:8171  function _burn(address account, uint256 value) internal {... */\n          pop\n          pop\n          jump\t// out\n            /* \"@openzeppelin/contracts/token/ERC20/ERC20.sol\":9682:10114  function _approve(address owner, address spender, uint256 value, bool emitEvent) internal virtual {... */\n        tag_112:\n            /* \"@openzeppelin/contracts/token/ERC20/ERC20.sol\":9811:9812  0 */\n          0x00\n            /* \"@openzeppelin/contracts/token/ERC20/ERC20.sol\":9794:9813  owner == address(0) */\n          0xffffffffffffffffffffffffffffffffffffffff\n          and\n            /* \"@openzeppelin/contracts/token/ERC20/ERC20.sol\":9794:9799  owner */\n          dup5\n            /* \"@openzeppelin/contracts/token/ERC20/ERC20.sol\":9794:9813  owner == address(0) */\n          0xffffffffffffffffffffffffffffffffffffffff\n          and\n          sub\n            /* \"@openzeppelin/contracts/token/ERC20/ERC20.sol\":9790:9879  if (owner == address(0)) {... */\n          tag_136\n          jumpi\n            /* \"@openzeppelin/contracts/token/ERC20/ERC20.sol\":9865:9866  0 */\n          0x00\n            /* \"@openzeppelin/contracts/token/ERC20/ERC20.sol\":9836:9868  ERC20InvalidApprover(address(0)) */\n          mload(0x40)\n          0xe602df0500000000000000000000000000000000000000000000000000000000\n          dup2\n          mstore\n          0x04\n          add\n          tag_137\n          swap2\n          swap1\n          tag_29\n          jump\t// in\n        tag_137:\n          mload(0x40)\n          dup1\n          swap2\n          sub\n          swap1\n          revert\n            /* \"@openzeppelin/contracts/token/ERC20/ERC20.sol\":9790:9879  if (owner == address(0)) {... */\n        tag_136:\n            /* \"@openzeppelin/contracts/token/ERC20/ERC20.sol\":9911:9912  0 */\n          0x00\n            /* \"@openzeppelin/contracts/token/ERC20/ERC20.sol\":9892:9913  spender == address(0) */\n          0xffffffffffffffffffffffffffffffffffffffff\n          and\n            /* \"@openzeppelin/contracts/token/ERC20/ERC20.sol\":9892:9899  spender */\n          dup4\n            /* \"@openzeppelin/contracts/token/ERC20/ERC20.sol\":9892:9913  spender == address(0) */\n          0xffffffffffffffffffffffffffffffffffffffff\n          and\n          sub\n            /* \"@openzeppelin/contracts/token/ERC20/ERC20.sol\":9888:9978  if (spender == address(0)) {... */\n          tag_138\n          jumpi\n            /* \"@openzeppelin/contracts/token/ERC20/ERC20.sol\":9964:9965  0 */\n          0x00\n            /* \"@openzeppelin/contracts/token/ERC20/ERC20.sol\":9936:9967  ERC20InvalidSpender(address(0)) */\n          mload(0x40)\n          0x94280d6200000000000000000000000000000000000000000000000000000000\n          dup2\n          mstore\n          0x04\n          add\n          tag_139\n          swap2\n          swap1\n          tag_29\n          jump\t// in\n        tag_139:\n          mload(0x40)\n          dup1\n          swap2\n          sub\n          swap1\n          revert\n            /* \"@openzeppelin/contracts/token/ERC20/ERC20.sol\":9888:9978  if (spender == address(0)) {... */\n        tag_138:\n            /* \"@openzeppelin/contracts/token/ERC20/ERC20.sol\":10017:10022  value */\n          dup2\n            /* \"@openzeppelin/contracts/token/ERC20/ERC20.sol\":9987:9998  _allowances */\n          0x01\n            /* \"@openzeppelin/contracts/token/ERC20/ERC20.sol\":9987:10005  _allowances[owner] */\n          0x00\n            /* \"@openzeppelin/contracts/token/ERC20/ERC20.sol\":9999:10004  owner */\n          dup7\n            /* \"@openzeppelin/contracts/token/ERC20/ERC20.sol\":9987:10005  _allowances[owner] */\n          0xffffffffffffffffffffffffffffffffffffffff\n          and\n          0xffffffffffffffffffffffffffffffffffffffff\n          and\n          dup2\n          mstore\n          0x20\n          add\n          swap1\n          dup2\n          mstore\n          0x20\n          add\n          0x00\n          keccak256\n            /* \"@openzeppelin/contracts/token/ERC20/ERC20.sol\":9987:10014  _allowances[owner][spender] */\n          0x00\n            /* \"@openzeppelin/contracts/token/ERC20/ERC20.sol\":10006:10013  spender */\n          dup6\n            /* \"@openzeppelin/contracts/token/ERC20/ERC20.sol\":9987:10014  _allowances[owner][spender] */\n          0xffffffffffffffffffffffffffffffffffffffff\n          and\n          0xffffffffffffffffffffffffffffffffffffffff\n          and\n          dup2\n          mstore\n          0x20\n          add\n          swap1\n          dup2\n          mstore\n          0x20\n          add\n          0x00\n          keccak256\n            /* \"@openzeppelin/contracts/token/ERC20/ERC20.sol\":9987:10022  _allowances[owner][spender] = value */\n          dup2\n          swap1\n          sstore\n          pop\n            /* \"@openzeppelin/contracts/token/ERC20/ERC20.sol\":10036:10045  emitEvent */\n          dup1\n            /* \"@openzeppelin/contracts/token/ERC20/ERC20.sol\":10032:10108  if (emitEvent) {... */\n          iszero\n          tag_140\n          jumpi\n            /* \"@openzeppelin/contracts/token/ERC20/ERC20.sol\":10082:10089  spender */\n          dup3\n            /* \"@openzeppelin/contracts/token/ERC20/ERC20.sol\":10066:10097  Approval(owner, spender, value) */\n          0xffffffffffffffffffffffffffffffffffffffff\n          and\n            /* \"@openzeppelin/contracts/token/ERC20/ERC20.sol\":10075:10080  owner */\n          dup5\n            /* \"@openzeppelin/contracts/token/ERC20/ERC20.sol\":10066:10097  Approval(owner, spender, value) */\n          0xffffffffffffffffffffffffffffffffffffffff\n          and\n          0x8c5be1e5ebec7d5bd14f71427d1e84f3dd0314c0f7b2291e5b200ac8c7c3b925\n            /* \"@openzeppelin/contracts/token/ERC20/ERC20.sol\":10091:10096  value */\n          dup5\n            /* \"@openzeppelin/contracts/token/ERC20/ERC20.sol\":10066:10097  Approval(owner, spender, value) */\n          mload(0x40)\n          tag_141\n          swap2\n          swap1\n          tag_33\n          jump\t// in\n        tag_141:\n          mload(0x40)\n          dup1\n          swap2\n          sub\n          swap1\n          log3\n            /* \"@openzeppelin/contracts/token/ERC20/ERC20.sol\":10032:10108  if (emitEvent) {... */\n        tag_140:\n            /* \"@openzeppelin/contracts/token/ERC20/ERC20.sol\":9682:10114  function _approve(address owner, address spender, uint256 value, bool emitEvent) internal virtual {... */\n          pop\n          pop\n          pop\n          pop\n          jump\t// out\n            /* \"@openzeppelin/contracts/token/ERC20/ERC20.sol\":5989:7096  function _update(address from, address to, uint256 value) internal virtual {... */\n        tag_126:\n            /* \"@openzeppelin/contracts/token/ERC20/ERC20.sol\":6094:6095  0 */\n          0x00\n            /* \"@openzeppelin/contracts/token/ERC20/ERC20.sol\":6078:6096  from == address(0) */\n          0xffffffffffffffffffffffffffffffffffffffff\n          and\n            /* \"@openzeppelin/contracts/token/ERC20/ERC20.sol\":6078:6082  from */\n          dup4\n            /* \"@openzeppelin/contracts/token/ERC20/ERC20.sol\":6078:6096  from == address(0) */\n          0xffffffffffffffffffffffffffffffffffffffff\n          and\n          sub\n            /* \"@openzeppelin/contracts/token/ERC20/ERC20.sol\":6074:6614  if (from == address(0)) {... */\n          tag_143\n          jumpi\n            /* \"@openzeppelin/contracts/token/ERC20/ERC20.sol\":6230:6235  value */\n          dup1\n            /* \"@openzeppelin/contracts/token/ERC20/ERC20.sol\":6214:6226  _totalSupply */\n          0x02\n          0x00\n            /* \"@openzeppelin/contracts/token/ERC20/ERC20.sol\":6214:6235  _totalSupply += value */\n          dup3\n          dup3\n          sload\n          tag_144\n          swap2\n          swap1\n          tag_145\n          jump\t// in\n        tag_144:\n          swap3\n          pop\n          pop\n          dup2\n          swap1\n          sstore\n          pop\n            /* \"@openzeppelin/contracts/token/ERC20/ERC20.sol\":6074:6614  if (from == address(0)) {... */\n          jump(tag_146)\n        tag_143:\n            /* \"@openzeppelin/contracts/token/ERC20/ERC20.sol\":6266:6285  uint256 fromBalance */\n          0x00\n            /* \"@openzeppelin/contracts/token/ERC20/ERC20.sol\":6288:6297  _balances */\n          dup1\n            /* \"@openzeppelin/contracts/token/ERC20/ERC20.sol\":6288:6303  _balances[from] */\n          0x00\n            /* \"@openzeppelin/contracts/token/ERC20/ERC20.sol\":6298:6302  from */\n          dup6\n            /* \"@openzeppelin/contracts/token/ERC20/ERC20.sol\":6288:6303  _balances[from] */\n          0xffffffffffffffffffffffffffffffffffffffff\n          and\n          0xffffffffffffffffffffffffffffffffffffffff\n          and\n          dup2\n          mstore\n          0x20\n          add\n          swap1\n          dup2\n          mstore\n          0x20\n          add\n          0x00\n          keccak256\n          sload\n            /* \"@openzeppelin/contracts/token/ERC20/ERC20.sol\":6266:6303  uint256 fromBalance = _balances[from] */\n          swap1\n          pop\n            /* \"@openzeppelin/contracts/token/ERC20/ERC20.sol\":6335:6340  value */\n          dup2\n            /* \"@openzeppelin/contracts/token/ERC20/ERC20.sol\":6321:6332  fromBalance */\n          dup2\n            /* \"@openzeppelin/contracts/token/ERC20/ERC20.sol\":6321:6340  fromBalance < value */\n          lt\n            /* \"@openzeppelin/contracts/token/ERC20/ERC20.sol\":6317:6432  if (fromBalance < value) {... */\n          iszero\n          tag_147\n          jumpi\n            /* \"@openzeppelin/contracts/token/ERC20/ERC20.sol\":6392:6396  from */\n          dup4\n            /* \"@openzeppelin/contracts/token/ERC20/ERC20.sol\":6398:6409  fromBalance */\n          dup2\n            /* \"@openzeppelin/contracts/token/ERC20/ERC20.sol\":6411:6416  value */\n          dup4\n            /* \"@openzeppelin/contracts/token/ERC20/ERC20.sol\":6367:6417  ERC20InsufficientBalance(from, fromBalance, value) */\n          mload(0x40)\n          0xe450d38c00000000000000000000000000000000000000000000000000000000\n          dup2\n          mstore\n          0x04\n          add\n          tag_148\n          swap4\n          swap3\n          swap2\n          swap1\n          tag_118\n          jump\t// in\n        tag_148:\n          mload(0x40)\n          dup1\n          swap2\n          sub\n          swap1\n          revert\n            /* \"@openzeppelin/contracts/token/ERC20/ERC20.sol\":6317:6432  if (fromBalance < value) {... */\n        tag_147:\n            /* \"@openzeppelin/contracts/token/ERC20/ERC20.sol\":6584:6589  value */\n          dup2\n            /* \"@openzeppelin/contracts/token/ERC20/ERC20.sol\":6570:6581  fromBalance */\n          dup2\n            /* \"@openzeppelin/contracts/token/ERC20/ERC20.sol\":6570:6589  fromBalance - value */\n          sub\n            /* \"@openzeppelin/contracts/token/ERC20/ERC20.sol\":6552:6561  _balances */\n          0x00\n            /* \"@openzeppelin/contracts/token/ERC20/ERC20.sol\":6552:6567  _balances[from] */\n          dup1\n            /* \"@openzeppelin/contracts/token/ERC20/ERC20.sol\":6562:6566  from */\n          dup7\n            /* \"@openzeppelin/contracts/token/ERC20/ERC20.sol\":6552:6567  _balances[from] */\n          0xffffffffffffffffffffffffffffffffffffffff\n          and\n          0xffffffffffffffffffffffffffffffffffffffff\n          and\n          dup2\n          mstore\n          0x20\n          add\n          swap1\n          dup2\n          mstore\n          0x20\n          add\n          0x00\n          keccak256\n            /* \"@openzeppelin/contracts/token/ERC20/ERC20.sol\":6552:6589  _balances[from] = fromBalance - value */\n          dup2\n          swap1\n          sstore\n          pop\n            /* \"@openzeppelin/contracts/token/ERC20/ERC20.sol\":6252:6614  {... */\n          pop\n            /* \"@openzeppelin/contracts/token/ERC20/ERC20.sol\":6074:6614  if (from == address(0)) {... */\n        tag_146:\n            /* \"@openzeppelin/contracts/token/ERC20/ERC20.sol\":6642:6643  0 */\n          0x00\n            /* \"@openzeppelin/contracts/token/ERC20/ERC20.sol\":6628:6644  to == address(0) */\n          0xffffffffffffffffffffffffffffffffffffffff\n          and\n            /* \"@openzeppelin/contracts/token/ERC20/ERC20.sol\":6628:6630  to */\n          dup3\n            /* \"@openzeppelin/contracts/token/ERC20/ERC20.sol\":6628:6644  to == address(0) */\n          0xffffffffffffffffffffffffffffffffffffffff\n          and\n          sub\n            /* \"@openzeppelin/contracts/token/ERC20/ERC20.sol\":6624:7049  if (to == address(0)) {... */\n          tag_149\n          jumpi\n            /* \"@openzeppelin/contracts/token/ERC20/ERC20.sol\":6807:6812  value */\n          dup1\n            /* \"@openzeppelin/contracts/token/ERC20/ERC20.sol\":6791:6803  _totalSupply */\n          0x02\n          0x00\n            /* \"@openzeppelin/contracts/token/ERC20/ERC20.sol\":6791:6812  _totalSupply -= value */\n          dup3\n          dup3\n          sload\n          sub\n          swap3\n          pop\n          pop\n          dup2\n          swap1\n          sstore\n          pop\n            /* \"@openzeppelin/contracts/token/ERC20/ERC20.sol\":6624:7049  if (to == address(0)) {... */\n          jump(tag_150)\n        tag_149:\n            /* \"@openzeppelin/contracts/token/ERC20/ERC20.sol\":7019:7024  value */\n          dup1\n            /* \"@openzeppelin/contracts/token/ERC20/ERC20.sol\":7002:7011  _balances */\n          0x00\n            /* \"@openzeppelin/contracts/token/ERC20/ERC20.sol\":7002:7015  _balances[to] */\n          dup1\n            /* \"@openzeppelin/contracts/token/ERC20/ERC20.sol\":7012:7014  to */\n          dup5\n            /* \"@openzeppelin/contracts/token/ERC20/ERC20.sol\":7002:7015  _balances[to] */\n          0xffffffffffffffffffffffffffffffffffffffff\n          and\n          0xffffffffffffffffffffffffffffffffffffffff\n          and\n          dup2\n          mstore\n          0x20\n          add\n          swap1\n          dup2\n          mstore\n          0x20\n          add\n          0x00\n          keccak256\n          0x00\n            /* \"@openzeppelin/contracts/token/ERC20/ERC20.sol\":7002:7024  _balances[to] += value */\n          dup3\n          dup3\n          sload\n          add\n          swap3\n          pop\n          pop\n          dup2\n          swap1\n          sstore\n          pop\n            /* \"@openzeppelin/contracts/token/ERC20/ERC20.sol\":6624:7049  if (to == address(0)) {... */\n        tag_150:\n            /* \"@openzeppelin/contracts/token/ERC20/ERC20.sol\":7079:7081  to */\n          dup2\n            /* \"@openzeppelin/contracts/token/ERC20/ERC20.sol\":7064:7089  Transfer(from, to, value) */\n          0xffffffffffffffffffffffffffffffffffffffff\n          and\n            /* \"@openzeppelin/contracts/token/ERC20/ERC20.sol\":7073:7077  from */\n          dup4\n            /* \"@openzeppelin/contracts/token/ERC20/ERC20.sol\":7064:7089  Transfer(from, to, value) */\n          0xffffffffffffffffffffffffffffffffffffffff\n          and\n          0xddf252ad1be2c89b69c2b068fc378daa952ba7f163c4a11628f55a4df523b3ef\n            /* \"@openzeppelin/contracts/token/ERC20/ERC20.sol\":7083:7088  value */\n          dup4\n            /* \"@openzeppelin/contracts/token/ERC20/ERC20.sol\":7064:7089  Transfer(from, to, value) */\n          mload(0x40)\n          tag_151\n          swap2\n          swap1\n          tag_33\n          jump\t// in\n        tag_151:\n          mload(0x40)\n          dup1\n          swap2\n          sub\n          swap1\n          log3\n            /* \"@openzeppelin/contracts/token/ERC20/ERC20.sol\":5989:7096  function _update(address from, address to, uint256 value) internal virtual {... */\n          pop\n          pop\n          pop\n          jump\t// out\n            /* \"#utility.yul\":7:106   */\n        tag_152:\n            /* \"#utility.yul\":59:65   */\n          0x00\n            /* \"#utility.yul\":93:98   */\n          dup2\n            /* \"#utility.yul\":87:99   */\n          mload\n            /* \"#utility.yul\":77:99   */\n          swap1\n          pop\n            /* \"#utility.yul\":7:106   */\n          swap2\n          swap1\n          pop\n          jump\t// out\n            /* \"#utility.yul\":112:281   */\n        tag_153:\n            /* \"#utility.yul\":196:207   */\n          0x00\n            /* \"#utility.yul\":230:236   */\n          dup3\n            /* \"#utility.yul\":225:228   */\n          dup3\n            /* \"#utility.yul\":218:237   */\n          mstore\n            /* \"#utility.yul\":270:274   */\n          0x20\n            /* \"#utility.yul\":265:268   */\n          dup3\n            /* \"#utility.yul\":261:275   */\n          add\n            /* \"#utility.yul\":246:275   */\n          swap1\n          pop\n            /* \"#utility.yul\":112:281   */\n          swap3\n          swap2\n          pop\n          pop\n          jump\t// out\n            /* \"#utility.yul\":287:426   */\n        tag_154:\n            /* \"#utility.yul\":376:382   */\n          dup3\n            /* \"#utility.yul\":371:374   */\n          dup2\n            /* \"#utility.yul\":366:369   */\n          dup4\n            /* \"#utility.yul\":360:383   */\n          mcopy\n            /* \"#utility.yul\":417:418   */\n          0x00\n            /* \"#utility.yul\":408:414   */\n          dup4\n            /* \"#utility.yul\":403:406   */\n          dup4\n            /* \"#utility.yul\":399:415   */\n          add\n            /* \"#utility.yul\":392:419   */\n          mstore\n            /* \"#utility.yul\":287:426   */\n          pop\n          pop\n          pop\n          jump\t// out\n            /* \"#utility.yul\":432:534   */\n        tag_155:\n            /* \"#utility.yul\":473:479   */\n          0x00\n            /* \"#utility.yul\":524:526   */\n          0x1f\n            /* \"#utility.yul\":520:527   */\n          not\n            /* \"#utility.yul\":515:517   */\n          0x1f\n            /* \"#utility.yul\":508:513   */\n          dup4\n            /* \"#utility.yul\":504:518   */\n          add\n            /* \"#utility.yul\":500:528   */\n          and\n            /* \"#utility.yul\":490:528   */\n          swap1\n          pop\n            /* \"#utility.yul\":432:534   */\n          swap2\n          swap1\n          pop\n          jump\t// out\n            /* \"#utility.yul\":540:917   */\n        tag_156:\n            /* \"#utility.yul\":628:631   */\n          0x00\n            /* \"#utility.yul\":656:695   */\n          tag_185\n            /* \"#utility.yul\":689:694   */\n          dup3\n            /* \"#utility.yul\":656:695   */\n          tag_152\n          jump\t// in\n        tag_185:\n            /* \"#utility.yul\":711:782   */\n          tag_186\n            /* \"#utility.yul\":775:781   */\n          dup2\n            /* \"#utility.yul\":770:773   */\n          dup6\n            /* \"#utility.yul\":711:782   */\n          tag_153\n          jump\t// in\n        tag_186:\n            /* \"#utility.yul\":704:782   */\n          swap4\n          pop\n            /* \"#utility.yul\":791:856   */\n          tag_187\n            /* \"#utility.yul\":849:855   */\n          dup2\n            /* \"#utility.yul\":844:847   */\n          dup6\n            /* \"#utility.yul\":837:841   */\n          0x20\n            /* \"#utility.yul\":830:835   */\n          dup7\n            /* \"#utility.yul\":826:842   */\n          add\n            /* \"#utility.yul\":791:856   */\n          tag_154\n          jump\t// in\n        tag_187:\n            /* \"#utility.yul\":881:910   */\n          tag_188\n            /* \"#utility.yul\":903:909   */\n          dup2\n            /* \"#utility.yul\":881:910   */\n          tag_155\n          jump\t// in\n        tag_188:\n            /* \"#utility.yul\":876:879   */\n          dup5\n            /* \"#utility.yul\":872:911   */\n          add\n            /* \"#utility.yul\":865:911   */\n          swap2\n          pop\n            /* \"#utility.yul\":632:917   */\n          pop\n            /* \"#utility.yul\":540:917   */\n          swap3\n          swap2\n          pop\n          pop\n          jump\t// out\n            /* \"#utility.yul\":923:1236   */\n        tag_19:\n            /* \"#utility.yul\":1036:1040   */\n          0x00\n            /* \"#utility.yul\":1074:1076   */\n          0x20\n            /* \"#utility.yul\":1063:1072   */\n          dup3\n            /* \"#utility.yul\":1059:1077   */\n          add\n            /* \"#utility.yul\":1051:1077   */\n          swap1\n          pop\n            /* \"#utility.yul\":1123:1132   */\n          dup2\n            /* \"#utility.yul\":1117:1121   */\n          dup2\n            /* \"#utility.yul\":1113:1133   */\n          sub\n            /* \"#utility.yul\":1109:1110   */\n          0x00\n            /* \"#utility.yul\":1098:1107   */\n          dup4\n            /* \"#utility.yul\":1094:1111   */\n          add\n            /* \"#utility.yul\":1087:1134   */\n          mstore\n            /* \"#utility.yul\":1151:1229   */\n          tag_190\n            /* \"#utility.yul\":1224:1228   */\n          dup2\n            /* \"#utility.yul\":1215:1221   */\n          dup5\n            /* \"#utility.yul\":1151:1229   */\n          tag_156\n          jump\t// in\n        tag_190:\n            /* \"#utility.yul\":1143:1229   */\n          swap1\n          pop\n            /* \"#utility.yul\":923:1236   */\n          swap3\n          swap2\n          pop\n          pop\n          jump\t// out\n            /* \"#utility.yul\":1323:1440   */\n        tag_158:\n            /* \"#utility.yul\":1432:1433   */\n          0x00\n            /* \"#utility.yul\":1429:1430   */\n          dup1\n            /* \"#utility.yul\":1422:1434   */\n          revert\n            /* \"#utility.yul\":1569:1695   */\n        tag_160:\n            /* \"#utility.yul\":1606:1613   */\n          0x00\n            /* \"#utility.yul\":1646:1688   */\n          0xffffffffffffffffffffffffffffffffffffffff\n            /* \"#utility.yul\":1639:1644   */\n          dup3\n            /* \"#utility.yul\":1635:1689   */\n          and\n            /* \"#utility.yul\":1624:1689   */\n          swap1\n          pop\n            /* \"#utility.yul\":1569:1695   */\n          swap2\n          swap1\n          pop\n          jump\t// out\n            /* \"#utility.yul\":1701:1797   */\n        tag_161:\n            /* \"#utility.yul\":1738:1745   */\n          0x00\n            /* \"#utility.yul\":1767:1791   */\n          tag_196\n            /* \"#utility.yul\":1785:1790   */\n          dup3\n            /* \"#utility.yul\":1767:1791   */\n          tag_160\n          jump\t// in\n        tag_196:\n            /* \"#utility.yul\":1756:1791   */\n          swap1\n          pop\n            /* \"#utility.yul\":1701:1797   */\n          swap2\n          swap1\n          pop\n          jump\t// out\n            /* \"#utility.yul\":1803:1925   */\n        tag_162:\n            /* \"#utility.yul\":1876:1900   */\n          tag_198\n            /* \"#utility.yul\":1894:1899   */\n          dup2\n            /* \"#utility.yul\":1876:1900   */\n          tag_161\n          jump\t// in\n        tag_198:\n            /* \"#utility.yul\":1869:1874   */\n          dup2\n            /* \"#utility.yul\":1866:1901   */\n          eq\n            /* \"#utility.yul\":1856:1919   */\n          tag_199\n          jumpi\n            /* \"#utility.yul\":1915:1916   */\n          0x00\n            /* \"#utility.yul\":1912:1913   */\n          dup1\n            /* \"#utility.yul\":1905:1917   */\n          revert\n            /* \"#utility.yul\":1856:1919   */\n        tag_199:\n            /* \"#utility.yul\":1803:1925   */\n          pop\n          jump\t// out\n            /* \"#utility.yul\":1931:2070   */\n        tag_163:\n            /* \"#utility.yul\":1977:1982   */\n          0x00\n            /* \"#utility.yul\":2015:2021   */\n          dup2\n            /* \"#utility.yul\":2002:2022   */\n          calldataload\n            /* \"#utility.yul\":1993:2022   */\n          swap1\n          pop\n            /* \"#utility.yul\":2031:2064   */\n          tag_201\n            /* \"#utility.yul\":2058:2063   */\n          dup2\n            /* \"#utility.yul\":2031:2064   */\n          tag_162\n          jump\t// in\n        tag_201:\n            /* \"#utility.yul\":1931:2070   */\n          swap3\n          swap2\n          pop\n          pop\n          jump\t// out\n            /* \"#utility.yul\":2076:2153   */\n        tag_164:\n            /* \"#utility.yul\":2113:2120   */\n          0x00\n            /* \"#utility.yul\":2142:2147   */\n          dup2\n            /* \"#utility.yul\":2131:2147   */\n          swap1\n          pop\n            /* \"#utility.yul\":2076:2153   */\n          swap2\n          swap1\n          pop\n          jump\t// out\n            /* \"#utility.yul\":2159:2281   */\n        tag_165:\n            /* \"#utility.yul\":2232:2256   */\n          tag_204\n            /* \"#utility.yul\":2250:2255   */\n          dup2\n            /* \"#utility.yul\":2232:2256   */\n          tag_164\n          jump\t// in\n        tag_204:\n            /* \"#utility.yul\":2225:2230   */\n          dup2\n            /* \"#utility.yul\":2222:2257   */\n          eq\n            /* \"#utility.yul\":2212:2275   */\n          tag_205\n          jumpi\n            /* \"#utility.yul\":2271:2272   */\n          0x00\n            /* \"#utility.yul\":2268:2269   */\n          dup1\n            /* \"#utility.yul\":2261:2273   */\n          revert\n            /* \"#utility.yul\":2212:2275   */\n        tag_205:\n            /* \"#utility.yul\":2159:2281   */\n          pop\n          jump\t// out\n            /* \"#utility.yul\":2287:2426   */\n        tag_166:\n            /* \"#utility.yul\":2333:2338   */\n          0x00\n            /* \"#utility.yul\":2371:2377   */\n          dup2\n            /* \"#utility.yul\":2358:2378   */\n          calldataload\n            /* \"#utility.yul\":2349:2378   */\n          swap1\n          pop\n            /* \"#utility.yul\":2387:2420   */\n          tag_207\n            /* \"#utility.yul\":2414:2419   */\n          dup2\n            /* \"#utility.yul\":2387:2420   */\n          tag_165\n          jump\t// in\n        tag_207:\n            /* \"#utility.yul\":2287:2426   */\n          swap3\n          swap2\n          pop\n          pop\n          jump\t// out\n            /* \"#utility.yul\":2432:2906   */\n        tag_22:\n            /* \"#utility.yul\":2500:2506   */\n          0x00\n            /* \"#utility.yul\":2508:2514   */\n          dup1\n            /* \"#utility.yul\":2557:2559   */\n          0x40\n            /* \"#utility.yul\":2545:2554   */\n          dup4\n            /* \"#utility.yul\":2536:2543   */\n          dup6\n            /* \"#utility.yul\":2532:2555   */\n          sub\n            /* \"#utility.yul\":2528:2560   */\n          slt\n            /* \"#utility.yul\":2525:2644   */\n          iszero\n          tag_209\n          jumpi\n            /* \"#utility.yul\":2563:2642   */\n          tag_210\n          tag_158\n          jump\t// in\n        tag_210:\n            /* \"#utility.yul\":2525:2644   */\n        tag_209:\n            /* \"#utility.yul\":2683:2684   */\n          0x00\n            /* \"#utility.yul\":2708:2761   */\n          tag_211\n            /* \"#utility.yul\":2753:2760   */\n          dup6\n            /* \"#utility.yul\":2744:2750   */\n          dup3\n            /* \"#utility.yul\":2733:2742   */\n          dup7\n            /* \"#utility.yul\":2729:2751   */\n          add\n            /* \"#utility.yul\":2708:2761   */\n          tag_163\n          jump\t// in\n        tag_211:\n            /* \"#utility.yul\":2698:2761   */\n          swap3\n          pop\n            /* \"#utility.yul\":2654:2771   */\n          pop\n            /* \"#utility.yul\":2810:2812   */\n          0x20\n            /* \"#utility.yul\":2836:2889   */\n          tag_212\n            /* \"#utility.yul\":2881:2888   */\n          dup6\n            /* \"#utility.yul\":2872:2878   */\n          dup3\n            /* \"#utility.yul\":2861:2870   */\n          dup7\n            /* \"#utility.yul\":2857:2879   */\n          add\n            /* \"#utility.yul\":2836:2889   */\n          tag_166\n          jump\t// in\n        tag_212:\n            /* \"#utility.yul\":2826:2889   */\n          swap2\n          pop\n            /* \"#utility.yul\":2781:2899   */\n          pop\n            /* \"#utility.yul\":2432:2906   */\n          swap3\n          pop\n          swap3\n          swap1\n          pop\n          jump\t// out\n            /* \"#utility.yul\":2912:3002   */\n        tag_167:\n            /* \"#utility.yul\":2946:2953   */\n          0x00\n            /* \"#utility.yul\":2989:2994   */\n          dup2\n            /* \"#utility.yul\":2982:2995   */\n          iszero\n            /* \"#utility.yul\":2975:2996   */\n          iszero\n            /* \"#utility.yul\":2964:2996   */\n          swap1\n          pop\n            /* \"#utility.yul\":2912:3002   */\n          swap2\n          swap1\n          pop\n          jump\t// out\n            /* \"#utility.yul\":3008:3117   */\n        tag_168:\n            /* \"#utility.yul\":3089:3110   */\n          tag_215\n            /* \"#utility.yul\":3104:3109   */\n          dup2\n            /* \"#utility.yul\":3089:3110   */\n          tag_167\n          jump\t// in\n        tag_215:\n            /* \"#utility.yul\":3084:3087   */\n          dup3\n            /* \"#utility.yul\":3077:3111   */\n          mstore\n            /* \"#utility.yul\":3008:3117   */\n          pop\n          pop\n          jump\t// out\n            /* \"#utility.yul\":3123:3333   */\n        tag_25:\n            /* \"#utility.yul\":3210:3214   */\n          0x00\n            /* \"#utility.yul\":3248:3250   */\n          0x20\n            /* \"#utility.yul\":3237:3246   */\n          dup3\n            /* \"#utility.yul\":3233:3251   */\n          add\n            /* \"#utility.yul\":3225:3251   */\n          swap1\n          pop\n            /* \"#utility.yul\":3261:3326   */\n          tag_217\n            /* \"#utility.yul\":3323:3324   */\n          0x00\n            /* \"#utility.yul\":3312:3321   */\n          dup4\n            /* \"#utility.yul\":3308:3325   */\n          add\n            /* \"#utility.yul\":3299:3305   */\n          dup5\n            /* \"#utility.yul\":3261:3326   */\n          tag_168\n          jump\t// in\n        tag_217:\n            /* \"#utility.yul\":3123:3333   */\n          swap3\n          swap2\n          pop\n          pop\n          jump\t// out\n            /* \"#utility.yul\":3339:3457   */\n        tag_169:\n            /* \"#utility.yul\":3426:3450   */\n          tag_219\n            /* \"#utility.yul\":3444:3449   */\n          dup2\n            /* \"#utility.yul\":3426:3450   */\n          tag_161\n          jump\t// in\n        tag_219:\n            /* \"#utility.yul\":3421:3424   */\n          dup3\n            /* \"#utility.yul\":3414:3451   */\n          mstore\n            /* \"#utility.yul\":3339:3457   */\n          pop\n          pop\n          jump\t// out\n            /* \"#utility.yul\":3463:3685   */\n        tag_29:\n            /* \"#utility.yul\":3556:3560   */\n          0x00\n            /* \"#utility.yul\":3594:3596   */\n          0x20\n            /* \"#utility.yul\":3583:3592   */\n          dup3\n            /* \"#utility.yul\":3579:3597   */\n          add\n            /* \"#utility.yul\":3571:3597   */\n          swap1\n          pop\n            /* \"#utility.yul\":3607:3678   */\n          tag_221\n            /* \"#utility.yul\":3675:3676   */\n          0x00\n            /* \"#utility.yul\":3664:3673   */\n          dup4\n            /* \"#utility.yul\":3660:3677   */\n          add\n            /* \"#utility.yul\":3651:3657   */\n          dup5\n            /* \"#utility.yul\":3607:3678   */\n          tag_169\n          jump\t// in\n        tag_221:\n            /* \"#utility.yul\":3463:3685   */\n          swap3\n          swap2\n          pop\n          pop\n          jump\t// out\n            /* \"#utility.yul\":3691:3809   */\n        tag_170:\n            /* \"#utility.yul\":3778:3802   */\n          tag_223\n            /* \"#utility.yul\":3796:3801   */\n          dup2\n            /* \"#utility.yul\":3778:3802   */\n          tag_164\n          jump\t// in\n        tag_223:\n            /* \"#utility.yul\":3773:3776   */\n          dup3\n            /* \"#utility.yul\":3766:3803   */\n          mstore\n            /* \"#utility.yul\":3691:3809   */\n          pop\n          pop\n          jump\t// out\n            /* \"#utility.yul\":3815:4037   */\n        tag_33:\n            /* \"#utility.yul\":3908:3912   */\n          0x00\n            /* \"#utility.yul\":3946:3948   */\n          0x20\n            /* \"#utility.yul\":3935:3944   */\n          dup3\n            /* \"#utility.yul\":3931:3949   */\n          add\n            /* \"#utility.yul\":3923:3949   */\n          swap1\n          pop\n            /* \"#utility.yul\":3959:4030   */\n          tag_225\n            /* \"#utility.yul\":4027:4028   */\n          0x00\n            /* \"#utility.yul\":4016:4025   */\n          dup4\n            /* \"#utility.yul\":4012:4029   */\n          add\n            /* \"#utility.yul\":4003:4009   */\n          dup5\n            /* \"#utility.yul\":3959:4030   */\n          tag_170\n          jump\t// in\n        tag_225:\n            /* \"#utility.yul\":3815:4037   */\n          swap3\n          swap2\n          pop\n          pop\n          jump\t// out\n            /* \"#utility.yul\":4043:4662   */\n        tag_36:\n            /* \"#utility.yul\":4120:4126   */\n          0x00\n            /* \"#utility.yul\":4128:4134   */\n          dup1\n            /* \"#utility.yul\":4136:4142   */\n          0x00\n            /* \"#utility.yul\":4185:4187   */\n          0x60\n            /* \"#utility.yul\":4173:4182   */\n          dup5\n            /* \"#utility.yul\":4164:4171   */\n          dup7\n            /* \"#utility.yul\":4160:4183   */\n          sub\n            /* \"#utility.yul\":4156:4188   */\n          slt\n            /* \"#utility.yul\":4153:4272   */\n          iszero\n          tag_227\n          jumpi\n            /* \"#utility.yul\":4191:4270   */\n          tag_228\n          tag_158\n          jump\t// in\n        tag_228:\n            /* \"#utility.yul\":4153:4272   */\n        tag_227:\n            /* \"#utility.yul\":4311:4312   */\n          0x00\n            /* \"#utility.yul\":4336:4389   */\n          tag_229\n            /* \"#utility.yul\":4381:4388   */\n          dup7\n            /* \"#utility.yul\":4372:4378   */\n          dup3\n            /* \"#utility.yul\":4361:4370   */\n          dup8\n            /* \"#utility.yul\":4357:4379   */\n          add\n            /* \"#utility.yul\":4336:4389   */\n          tag_163\n          jump\t// in\n        tag_229:\n            /* \"#utility.yul\":4326:4389   */\n          swap4\n          pop\n            /* \"#utility.yul\":4282:4399   */\n          pop\n            /* \"#utility.yul\":4438:4440   */\n          0x20\n            /* \"#utility.yul\":4464:4517   */\n          tag_230\n            /* \"#utility.yul\":4509:4516   */\n          dup7\n            /* \"#utility.yul\":4500:4506   */\n          dup3\n            /* \"#utility.yul\":4489:4498   */\n          dup8\n            /* \"#utility.yul\":4485:4507   */\n          add\n            /* \"#utility.yul\":4464:4517   */\n          tag_163\n          jump\t// in\n        tag_230:\n            /* \"#utility.yul\":4454:4517   */\n          swap3\n          pop\n            /* \"#utility.yul\":4409:4527   */\n          pop\n            /* \"#utility.yul\":4566:4568   */\n          0x40\n            /* \"#utility.yul\":4592:4645   */\n          tag_231\n            /* \"#utility.yul\":4637:4644   */\n          dup7\n            /* \"#utility.yul\":4628:4634   */\n          dup3\n            /* \"#utility.yul\":4617:4626   */\n          dup8\n            /* \"#utility.yul\":4613:4635   */\n          add\n            /* \"#utility.yul\":4592:4645   */\n          tag_166\n          jump\t// in\n        tag_231:\n            /* \"#utility.yul\":4582:4645   */\n          swap2\n          pop\n            /* \"#utility.yul\":4537:4655   */\n          pop\n            /* \"#utility.yul\":4043:4662   */\n          swap3\n          pop\n          swap3\n          pop\n          swap3\n          jump\t// out\n            /* \"#utility.yul\":4668:4754   */\n        tag_171:\n            /* \"#utility.yul\":4703:4710   */\n          0x00\n            /* \"#utility.yul\":4743:4747   */\n          0xff\n            /* \"#utility.yul\":4736:4741   */\n          dup3\n            /* \"#utility.yul\":4732:4748   */\n          and\n            /* \"#utility.yul\":4721:4748   */\n          swap1\n          pop\n            /* \"#utility.yul\":4668:4754   */\n          swap2\n          swap1\n          pop\n          jump\t// out\n            /* \"#utility.yul\":4760:4872   */\n        tag_172:\n            /* \"#utility.yul\":4843:4865   */\n          tag_234\n            /* \"#utility.yul\":4859:4864   */\n          dup2\n            /* \"#utility.yul\":4843:4865   */\n          tag_171\n          jump\t// in\n        tag_234:\n            /* \"#utility.yul\":4838:4841   */\n          dup3\n            /* \"#utility.yul\":4831:4866   */\n          mstore\n            /* \"#utility.yul\":4760:4872   */\n          pop\n          pop\n          jump\t// out\n            /* \"#utility.yul\":4878:5092   */\n        tag_42:\n            /* \"#utility.yul\":4967:4971   */\n          0x00\n            /* \"#utility.yul\":5005:5007   */\n          0x20\n            /* \"#utility.yul\":4994:5003   */\n          dup3\n            /* \"#utility.yul\":4990:5008   */\n          add\n            /* \"#utility.yul\":4982:5008   */\n          swap1\n          pop\n            /* \"#utility.yul\":5018:5085   */\n          tag_236\n            /* \"#utility.yul\":5082:5083   */\n          0x00\n            /* \"#utility.yul\":5071:5080   */\n          dup4\n            /* \"#utility.yul\":5067:5084   */\n          add\n            /* \"#utility.yul\":5058:5064   */\n          dup5\n            /* \"#utility.yul\":5018:5085   */\n          tag_172\n          jump\t// in\n        tag_236:\n            /* \"#utility.yul\":4878:5092   */\n          swap3\n          swap2\n          pop\n          pop\n          jump\t// out\n            /* \"#utility.yul\":5098:5427   */\n        tag_48:\n            /* \"#utility.yul\":5157:5163   */\n          0x00\n            /* \"#utility.yul\":5206:5208   */\n          0x20\n            /* \"#utility.yul\":5194:5203   */\n          dup3\n            /* \"#utility.yul\":5185:5192   */\n          dup5\n            /* \"#utility.yul\":5181:5204   */\n          sub\n            /* \"#utility.yul\":5177:5209   */\n          slt\n            /* \"#utility.yul\":5174:5293   */\n          iszero\n          tag_238\n          jumpi\n            /* \"#utility.yul\":5212:5291   */\n          tag_239\n          tag_158\n          jump\t// in\n        tag_239:\n            /* \"#utility.yul\":5174:5293   */\n        tag_238:\n            /* \"#utility.yul\":5332:5333   */\n          0x00\n            /* \"#utility.yul\":5357:5410   */\n          tag_240\n            /* \"#utility.yul\":5402:5409   */\n          dup5\n            /* \"#utility.yul\":5393:5399   */\n          dup3\n            /* \"#utility.yul\":5382:5391   */\n          dup6\n            /* \"#utility.yul\":5378:5400   */\n          add\n            /* \"#utility.yul\":5357:5410   */\n          tag_163\n          jump\t// in\n        tag_240:\n            /* \"#utility.yul\":5347:5410   */\n          swap2\n          pop\n            /* \"#utility.yul\":5303:5420   */\n          pop\n            /* \"#utility.yul\":5098:5427   */\n          swap3\n          swap2\n          pop\n          pop\n          jump\t// out\n            /* \"#utility.yul\":5433:5907   */\n        tag_63:\n            /* \"#utility.yul\":5501:5507   */\n          0x00\n            /* \"#utility.yul\":5509:5515   */\n          dup1\n            /* \"#utility.yul\":5558:5560   */\n          0x40\n            /* \"#utility.yul\":5546:5555   */\n          dup4\n            /* \"#utility.yul\":5537:5544   */\n          dup6\n            /* \"#utility.yul\":5533:5556   */\n          sub\n            /* \"#utility.yul\":5529:5561   */\n          slt\n            /* \"#utility.yul\":5526:5645   */\n          iszero\n          tag_242\n          jumpi\n            /* \"#utility.yul\":5564:5643   */\n          tag_243\n          tag_158\n          jump\t// in\n        tag_243:\n            /* \"#utility.yul\":5526:5645   */\n        tag_242:\n            /* \"#utility.yul\":5684:5685   */\n          0x00\n            /* \"#utility.yul\":5709:5762   */\n          tag_244\n            /* \"#utility.yul\":5754:5761   */\n          dup6\n            /* \"#utility.yul\":5745:5751   */\n          dup3\n            /* \"#utility.yul\":5734:5743   */\n          dup7\n            /* \"#utility.yul\":5730:5752   */\n          add\n            /* \"#utility.yul\":5709:5762   */\n          tag_163\n          jump\t// in\n        tag_244:\n            /* \"#utility.yul\":5699:5762   */\n          swap3\n          pop\n            /* \"#utility.yul\":5655:5772   */\n          pop\n            /* \"#utility.yul\":5811:5813   */\n          0x20\n            /* \"#utility.yul\":5837:5890   */\n          tag_245\n            /* \"#utility.yul\":5882:5889   */\n          dup6\n            /* \"#utility.yul\":5873:5879   */\n          dup3\n            /* \"#utility.yul\":5862:5871   */\n          dup7\n            /* \"#utility.yul\":5858:5880   */\n          add\n            /* \"#utility.yul\":5837:5890   */\n          tag_163\n          jump\t// in\n        tag_245:\n            /* \"#utility.yul\":5827:5890   */\n          swap2\n          pop\n            /* \"#utility.yul\":5782:5900   */\n          pop\n            /* \"#utility.yul\":5433:5907   */\n          swap3\n          pop\n          swap3\n          swap1\n          pop\n          jump\t// out\n            /* \"#utility.yul\":5913:6093   */\n        tag_173:\n            /* \"#utility.yul\":5961:6038   */\n          0x4e487b7100000000000000000000000000000000000000000000000000000000\n            /* \"#utility.yul\":5958:5959   */\n          0x00\n            /* \"#utility.yul\":5951:6039   */\n          mstore\n            /* \"#utility.yul\":6058:6062   */\n          0x22\n            /* \"#utility.yul\":6055:6056   */\n          0x04\n            /* \"#utility.yul\":6048:6063   */\n          mstore\n            /* \"#utility.yul\":6082:6086   */\n          0x24\n            /* \"#utility.yul\":6079:6080   */\n          0x00\n            /* \"#utility.yul\":6072:6087   */\n          revert\n            /* \"#utility.yul\":6099:6419   */\n        tag_68:\n            /* \"#utility.yul\":6143:6149   */\n          0x00\n            /* \"#utility.yul\":6180:6181   */\n          0x02\n            /* \"#utility.yul\":6174:6178   */\n          dup3\n            /* \"#utility.yul\":6170:6182   */\n          div\n            /* \"#utility.yul\":6160:6182   */\n          swap1\n          pop\n            /* \"#utility.yul\":6227:6228   */\n          0x01\n            /* \"#utility.yul\":6221:6225   */\n          dup3\n            /* \"#utility.yul\":6217:6229   */\n          and\n            /* \"#utility.yul\":6248:6266   */\n          dup1\n            /* \"#utility.yul\":6238:6319   */\n          tag_248\n          jumpi\n            /* \"#utility.yul\":6304:6308   */\n          0x7f\n            /* \"#utility.yul\":6296:6302   */\n          dup3\n            /* \"#utility.yul\":6292:6309   */\n          and\n            /* \"#utility.yul\":6282:6309   */\n          swap2\n          pop\n            /* \"#utility.yul\":6238:6319   */\n        tag_248:\n            /* \"#utility.yul\":6366:6368   */\n          0x20\n            /* \"#utility.yul\":6358:6364   */\n          dup3\n            /* \"#utility.yul\":6355:6369   */\n          lt\n            /* \"#utility.yul\":6335:6353   */\n          dup2\n            /* \"#utility.yul\":6332:6370   */\n          sub\n            /* \"#utility.yul\":6329:6413   */\n          tag_249\n          jumpi\n            /* \"#utility.yul\":6385:6403   */\n          tag_250\n          tag_173\n          jump\t// in\n        tag_250:\n            /* \"#utility.yul\":6329:6413   */\n        tag_249:\n            /* \"#utility.yul\":6150:6419   */\n          pop\n            /* \"#utility.yul\":6099:6419   */\n          swap2\n          swap1\n          pop\n          jump\t// out\n            /* \"#utility.yul\":6425:6593   */\n        tag_174:\n            /* \"#utility.yul\":6565:6585   */\n          0x4f6e6c7920706f6f6c2063616e206d696e740000000000000000000000000000\n            /* \"#utility.yul\":6561:6562   */\n          0x00\n            /* \"#utility.yul\":6553:6559   */\n          dup3\n            /* \"#utility.yul\":6549:6563   */\n          add\n            /* \"#utility.yul\":6542:6586   */\n          mstore\n            /* \"#utility.yul\":6425:6593   */\n          pop\n          jump\t// out\n            /* \"#utility.yul\":6599:6965   */\n        tag_175:\n            /* \"#utility.yul\":6741:6744   */\n          0x00\n            /* \"#utility.yul\":6762:6829   */\n          tag_253\n            /* \"#utility.yul\":6826:6828   */\n          0x12\n            /* \"#utility.yul\":6821:6824   */\n          dup4\n            /* \"#utility.yul\":6762:6829   */\n          tag_153\n          jump\t// in\n        tag_253:\n            /* \"#utility.yul\":6755:6829   */\n          swap2\n          pop\n            /* \"#utility.yul\":6838:6931   */\n          tag_254\n            /* \"#utility.yul\":6927:6930   */\n          dup3\n            /* \"#utility.yul\":6838:6931   */\n          tag_174\n          jump\t// in\n        tag_254:\n            /* \"#utility.yul\":6956:6958   */\n          0x20\n            /* \"#utility.yul\":6951:6954   */\n          dup3\n            /* \"#utility.yul\":6947:6959   */\n          add\n            /* \"#utility.yul\":6940:6959   */\n          swap1\n          pop\n            /* \"#utility.yul\":6599:6965   */\n          swap2\n          swap1\n          pop\n          jump\t// out\n            /* \"#utility.yul\":6971:7390   */\n        tag_89:\n            /* \"#utility.yul\":7137:7141   */\n          0x00\n            /* \"#utility.yul\":7175:7177   */\n          0x20\n            /* \"#utility.yul\":7164:7173   */\n          dup3\n            /* \"#utility.yul\":7160:7178   */\n          add\n            /* \"#utility.yul\":7152:7178   */\n          swap1\n          pop\n            /* \"#utility.yul\":7224:7233   */\n          dup2\n            /* \"#utility.yul\":7218:7222   */\n          dup2\n            /* \"#utility.yul\":7214:7234   */\n          sub\n            /* \"#utility.yul\":7210:7211   */\n          0x00\n            /* \"#utility.yul\":7199:7208   */\n          dup4\n            /* \"#utility.yul\":7195:7212   */\n          add\n            /* \"#utility.yul\":7188:7235   */\n          mstore\n            /* \"#utility.yul\":7252:7383   */\n          tag_256\n            /* \"#utility.yul\":7378:7382   */\n          dup2\n            /* \"#utility.yul\":7252:7383   */\n          tag_175\n          jump\t// in\n        tag_256:\n            /* \"#utility.yul\":7244:7383   */\n          swap1\n          pop\n            /* \"#utility.yul\":6971:7390   */\n          swap2\n          swap1\n          pop\n          jump\t// out\n            /* \"#utility.yul\":7396:7564   */\n        tag_176:\n            /* \"#utility.yul\":7536:7556   */\n          0x4f6e6c7920706f6f6c2063616e206275726e0000000000000000000000000000\n            /* \"#utility.yul\":7532:7533   */\n          0x00\n            /* \"#utility.yul\":7524:7530   */\n          dup3\n            /* \"#utility.yul\":7520:7534   */\n          add\n            /* \"#utility.yul\":7513:7557   */\n          mstore\n            /* \"#utility.yul\":7396:7564   */\n          pop\n          jump\t// out\n            /* \"#utility.yul\":7570:7936   */\n        tag_177:\n            /* \"#utility.yul\":7712:7715   */\n          0x00\n            /* \"#utility.yul\":7733:7800   */\n          tag_259\n            /* \"#utility.yul\":7797:7799   */\n          0x12\n            /* \"#utility.yul\":7792:7795   */\n          dup4\n            /* \"#utility.yul\":7733:7800   */\n          tag_153\n          jump\t// in\n        tag_259:\n            /* \"#utility.yul\":7726:7800   */\n          swap2\n          pop\n            /* \"#utility.yul\":7809:7902   */\n          tag_260\n            /* \"#utility.yul\":7898:7901   */\n          dup3\n            /* \"#utility.yul\":7809:7902   */\n          tag_176\n          jump\t// in\n        tag_260:\n            /* \"#utility.yul\":7927:7929   */\n          0x20\n            /* \"#utility.yul\":7922:7925   */\n          dup3\n            /* \"#utility.yul\":7918:7930   */\n          add\n            /* \"#utility.yul\":7911:7930   */\n          swap1\n          pop\n            /* \"#utility.yul\":7570:7936   */\n          swap2\n          swap1\n          pop\n          jump\t// out\n            /* \"#utility.yul\":7942:8361   */\n        tag_102:\n            /* \"#utility.yul\":8108:8112   */\n          0x00\n            /* \"#utility.yul\":8146:8148   */\n          0x20\n            /* \"#utility.yul\":8135:8144   */\n          dup3\n            /* \"#utility.yul\":8131:8149   */\n          add\n            /* \"#utility.yul\":8123:8149   */\n          swap1\n          pop\n            /* \"#utility.yul\":8195:8204   */\n          dup2\n            /* \"#utility.yul\":8189:8193   */\n          dup2\n            /* \"#utility.yul\":8185:8205   */\n          sub\n            /* \"#utility.yul\":8181:8182   */\n          0x00\n            /* \"#utility.yul\":8170:8179   */\n          dup4\n            /* \"#utility.yul\":8166:8183   */\n          add\n            /* \"#utility.yul\":8159:8206   */\n          mstore\n            /* \"#utility.yul\":8223:8354   */\n          tag_262\n            /* \"#utility.yul\":8349:8353   */\n          dup2\n            /* \"#utility.yul\":8223:8354   */\n          tag_177\n          jump\t// in\n        tag_262:\n            /* \"#utility.yul\":8215:8354   */\n          swap1\n          pop\n            /* \"#utility.yul\":7942:8361   */\n          swap2\n          swap1\n          pop\n          jump\t// out\n            /* \"#utility.yul\":8367:8809   */\n        tag_118:\n            /* \"#utility.yul\":8516:8520   */\n          0x00\n            /* \"#utility.yul\":8554:8556   */\n          0x60\n            /* \"#utility.yul\":8543:8552   */\n          dup3\n            /* \"#utility.yul\":8539:8557   */\n          add\n            /* \"#utility.yul\":8531:8557   */\n          swap1\n          pop\n            /* \"#utility.yul\":8567:8638   */\n          tag_264\n            /* \"#utility.yul\":8635:8636   */\n          0x00\n            /* \"#utility.yul\":8624:8633   */\n          dup4\n            /* \"#utility.yul\":8620:8637   */\n          add\n            /* \"#utility.yul\":8611:8617   */\n          dup7\n            /* \"#utility.yul\":8567:8638   */\n          tag_169\n          jump\t// in\n        tag_264:\n            /* \"#utility.yul\":8648:8720   */\n          tag_265\n            /* \"#utility.yul\":8716:8718   */\n          0x20\n            /* \"#utility.yul\":8705:8714   */\n          dup4\n            /* \"#utility.yul\":8701:8719   */\n          add\n            /* \"#utility.yul\":8692:8698   */\n          dup6\n            /* \"#utility.yul\":8648:8720   */\n          tag_170\n          jump\t// in\n        tag_265:\n            /* \"#utility.yul\":8730:8802   */\n          tag_266\n            /* \"#utility.yul\":8798:8800   */\n          0x40\n            /* \"#utility.yul\":8787:8796   */\n          dup4\n            /* \"#utility.yul\":8783:8801   */\n          add\n            /* \"#utility.yul\":8774:8780   */\n          dup5\n            /* \"#utility.yul\":8730:8802   */\n          tag_170\n          jump\t// in\n        tag_266:\n            /* \"#utility.yul\":8367:8809   */\n          swap5\n          swap4\n          pop\n          pop\n          pop\n          pop\n          jump\t// out\n            /* \"#utility.yul\":8815:8995   */\n        tag_178:\n            /* \"#utility.yul\":8863:8940   */\n          0x4e487b7100000000000000000000000000000000000000000000000000000000\n            /* \"#utility.yul\":8860:8861   */\n          0x00\n            /* \"#utility.yul\":8853:8941   */\n          mstore\n            /* \"#utility.yul\":8960:8964   */\n          0x11\n            /* \"#utility.yul\":8957:8958   */\n          0x04\n            /* \"#utility.yul\":8950:8965   */\n          mstore\n            /* \"#utility.yul\":8984:8988   */\n          0x24\n            /* \"#utility.yul\":8981:8982   */\n          0x00\n            /* \"#utility.yul\":8974:8989   */\n          revert\n            /* \"#utility.yul\":9001:9192   */\n        tag_145:\n            /* \"#utility.yul\":9041:9044   */\n          0x00\n            /* \"#utility.yul\":9060:9080   */\n          tag_269\n            /* \"#utility.yul\":9078:9079   */\n          dup3\n            /* \"#utility.yul\":9060:9080   */\n          tag_164\n          jump\t// in\n        tag_269:\n            /* \"#utility.yul\":9055:9080   */\n          swap2\n          pop\n            /* \"#utility.yul\":9094:9114   */\n          tag_270\n            /* \"#utility.yul\":9112:9113   */\n          dup4\n            /* \"#utility.yul\":9094:9114   */\n          tag_164\n          jump\t// in\n        tag_270:\n            /* \"#utility.yul\":9089:9114   */\n          swap3\n          pop\n            /* \"#utility.yul\":9137:9138   */\n          dup3\n            /* \"#utility.yul\":9134:9135   */\n          dup3\n            /* \"#utility.yul\":9130:9139   */\n          add\n            /* \"#utility.yul\":9123:9139   */\n          swap1\n          pop\n            /* \"#utility.yul\":9158:9161   */\n          dup1\n            /* \"#utility.yul\":9155:9156   */\n          dup3\n            /* \"#utility.yul\":9152:9162   */\n          gt\n            /* \"#utility.yul\":9149:9185   */\n          iszero\n          tag_271\n          jumpi\n            /* \"#utility.yul\":9165:9183   */\n          tag_272\n          tag_178\n          jump\t// in\n        tag_272:\n            /* \"#utility.yul\":9149:9185   */\n        tag_271:\n            /* \"#utility.yul\":9001:9192   */\n          swap3\n          swap2\n          pop\n          pop\n          jump\t// out\n\n        auxdata: 0xa26469706673582212208cad28cb0abe0bb55ab1656d6369bf05ceeb13f03f75127a2b68560cb49227b364736f6c634300081a0033\n    }\n}\n",
				"bytecode": {
					"linkReferences": {},
					"object": "60806040526003600655348015610014575f80fd5b50604051613cd7380380613cd7833981810160405281019061003691906101cc565b815f806101000a81548173ffffffffffffffffffffffffffffffffffffffff021916908373ffffffffffffffffffffffffffffffffffffffff1602179055508060015f6101000a81548173ffffffffffffffffffffffffffffffffffffffff021916908373ffffffffffffffffffffffffffffffffffffffff1602179055506040516100c190610161565b604051809103905ff0801580156100da573d5f803e3d5ffd5b5060025f6101000a81548173ffffffffffffffffffffffffffffffffffffffff021916908373ffffffffffffffffffffffffffffffffffffffff1602179055503360075f6101000a81548173ffffffffffffffffffffffffffffffffffffffff021916908373ffffffffffffffffffffffffffffffffffffffff160217905550505061020a565b61157f8061275883390190565b5f80fd5b5f73ffffffffffffffffffffffffffffffffffffffff82169050919050565b5f61019b82610172565b9050919050565b6101ab81610191565b81146101b5575f80fd5b50565b5f815190506101c6816101a2565b92915050565b5f80604083850312156101e2576101e161016e565b5b5f6101ef858286016101b8565b9250506020610200858286016101b8565b9150509250929050565b612541806102175f395ff3fe608060405234801561000f575f80fd5b5060043610610135575f3560e01c806398d5fdca116100b6578063bae38d581161007a578063bae38d5814610352578063be8e89fc14610382578063c4604b33146103a0578063c9e57aa6146103d0578063dc5fa6c5146103ee578063f0b456e91461040c57610135565b806398d5fdca146102ae5780639c8f9f23146102cc5780639cd441da146102e8578063a001ecdd14610318578063b9c8c4ba1461033657610135565b80635f64b55b116100fd5780635f64b55b146101f45780635fcbd28514610212578063670053c8146102305780637a88266a146102605780638da5cb5b1461029057610135565b806306ebcc6d146101395780630902f1ac146101695780630fc63d101461018857806319e36f3b146101a65780634242ec52146101c4575b5f80fd5b610153600480360381019061014e91906119fc565b61043c565b6040516101609190611a3f565b60405180910390f35b6101716104dd565b60405161017f929190611a58565b60405180910390f35b6101906104ed565b60405161019d9190611ada565b60405180910390f35b6101ae610510565b6040516101bb9190611a3f565b60405180910390f35b6101de60048036038101906101d99190611b1d565b610516565b6040516101eb9190611a3f565b60405180910390f35b6101fc61082a565b6040516102099190611ada565b60405180910390f35b61021a61084f565b6040516102279190611b7b565b60405180910390f35b61024a60048036038101906102459190611b94565b610874565b6040516102579190611a3f565b60405180910390f35b61027a60048036038101906102759190611b94565b61093c565b6040516102879190611a3f565b60405180910390f35b610298610a10565b6040516102a59190611bce565b60405180910390f35b6102b6610a35565b6040516102c39190611a3f565b60405180910390f35b6102e660048036038101906102e19190611b94565b610aa2565b005b61030260048036038101906102fd9190611b1d565b610f48565b60405161030f9190611a3f565b60405180910390f35b61032061134a565b60405161032d9190611a3f565b60405180910390f35b610350600480360381019061034b9190611b94565b611350565b005b61036c60048036038101906103679190611b94565b61142b565b6040516103799190611a3f565b60405180910390f35b61038a6114ff565b6040516103979190611a3f565b60405180910390f35b6103ba60048036038101906103b59190611b94565b611505565b6040516103c79190611a3f565b60405180910390f35b6103d86115cd565b6040516103e59190611bce565b60405180910390f35b6103f66115f5565b6040516104039190611a3f565b60405180910390f35b61042660048036038101906104219190611b1d565b6115fb565b6040516104339190611a3f565b60405180910390f35b5f60025f9054906101000a900473ffffffffffffffffffffffffffffffffffffffff1673ffffffffffffffffffffffffffffffffffffffff166370a08231836040518263ffffffff1660e01b81526004016104979190611bce565b602060405180830381865afa1580156104b2573d5f803e3d5ffd5b505050506040513d601f19601f820116820180604052508101906104d69190611bfb565b9050919050565b5f80600354600454915091509091565b5f8054906101000a900473ffffffffffffffffffffffffffffffffffffffff1681565b60045481565b5f808311610559576040517f08c379a000000000000000000000000000000000000000000000000000000000815260040161055090611c80565b60405180910390fd5b5f6005541161059d576040517f08c379a000000000000000000000000000000000000000000000000000000000815260040161059490611ce8565b60405180910390fd5b5f6064600654856105ae9190611d33565b6105b89190611da1565b90505f81856105c79190611dd1565b90506105d281611505565b8411610613576040517f08c379a000000000000000000000000000000000000000000000000000000000815260040161060a90611e4e565b60405180910390fd5b5f816004546106229190611e6c565b90505f6004546003546106359190611d33565b90505f82826106449190611da1565b90505f816003546106559190611dd1565b905060015f9054906101000a900473ffffffffffffffffffffffffffffffffffffffff1673ffffffffffffffffffffffffffffffffffffffff166323b872dd33308c6040518463ffffffff1660e01b81526004016106b593929190611e9f565b6020604051808303815f875af11580156106d1573d5f803e3d5ffd5b505050506040513d601f19601f820116820180604052508101906106f59190611f09565b610734576040517f08c379a000000000000000000000000000000000000000000000000000000000815260040161072b90611f7e565b60405180910390fd5b5f8054906101000a900473ffffffffffffffffffffffffffffffffffffffff1673ffffffffffffffffffffffffffffffffffffffff1663a9059cbb33836040518363ffffffff1660e01b815260040161078e929190611f9c565b6020604051808303815f875af11580156107aa573d5f803e3d5ffd5b505050506040513d601f19601f820116820180604052508101906107ce9190611f09565b61080d576040517f08c379a00000000000000000000000000000000000000000000000000000000081526004016108049061200d565b60405180910390fd5b816003819055508360048190555080965050505050505092915050565b60015f9054906101000a900473ffffffffffffffffffffffffffffffffffffffff1681565b60025f9054906101000a900473ffffffffffffffffffffffffffffffffffffffff1681565b5f8082116108b7576040517f08c379a00000000000000000000000000000000000000000000000000000000081526004016108ae90612075565b60405180910390fd5b5f6108c18361093c565b90505f836003546108d29190611e6c565b90505f6004546003546108e59190611d33565b90505f82826108f49190611da1565b90505f816004546109059190611dd1565b90505f856064836109169190611d33565b6109209190611da1565b606461092c9190611dd1565b9050809650505050505050919050565b5f80821161097f576040517f08c379a0000000000000000000000000000000000000000000000000000000008152600401610976906120dd565b60405180910390fd5b5f600454116109c3576040517f08c379a00000000000000000000000000000000000000000000000000000000081526004016109ba90612145565b60405180910390fd5b5f600454670de0b6b3a76400006003546109dd9190611d33565b6109e79190611da1565b905080670de0b6b3a7640000846109fe9190611d33565b610a089190611da1565b915050919050565b60075f9054906101000a900473ffffffffffffffffffffffffffffffffffffffff1681565b5f8060045411610a7a576040517f08c379a0000000000000000000000000000000000000000000000000000000008152600401610a71906121ad565b60405180910390fd5b600454670de0b6b3a7640000600354610a939190611d33565b610a9d9190611da1565b905090565b5f8111610ae4576040517f08c379a0000000000000000000000000000000000000000000000000000000008152600401610adb90612215565b60405180910390fd5b8060025f9054906101000a900473ffffffffffffffffffffffffffffffffffffffff1673ffffffffffffffffffffffffffffffffffffffff166370a08231336040518263ffffffff1660e01b8152600401610b3f9190611bce565b602060405180830381865afa158015610b5a573d5f803e3d5ffd5b505050506040513d601f19601f82011682018060405250810190610b7e9190611bfb565b1015610bbf576040517f08c379a0000000000000000000000000000000000000000000000000000000008152600401610bb69061227d565b60405180910390fd5b5f60025f9054906101000a900473ffffffffffffffffffffffffffffffffffffffff1673ffffffffffffffffffffffffffffffffffffffff166318160ddd6040518163ffffffff1660e01b8152600401602060405180830381865afa158015610c2a573d5f803e3d5ffd5b505050506040513d601f19601f82011682018060405250810190610c4e9190611bfb565b90505f8160035484610c609190611d33565b610c6a9190611da1565b90505f8260045485610c7c9190611d33565b610c869190611da1565b90505f82118015610c9657505f81115b610cd5576040517f08c379a0000000000000000000000000000000000000000000000000000000008152600401610ccc906122e5565b60405180910390fd5b60025f9054906101000a900473ffffffffffffffffffffffffffffffffffffffff1673ffffffffffffffffffffffffffffffffffffffff16639dc29fac33866040518363ffffffff1660e01b8152600401610d31929190611f9c565b5f604051808303815f87803b158015610d48575f80fd5b505af1158015610d5a573d5f803e3d5ffd5b505050508160035f828254610d6f9190611dd1565b925050819055508060045f828254610d879190611dd1565b925050819055505f8054906101000a900473ffffffffffffffffffffffffffffffffffffffff1673ffffffffffffffffffffffffffffffffffffffff1663a9059cbb33846040518363ffffffff1660e01b8152600401610de8929190611f9c565b6020604051808303815f875af1158015610e04573d5f803e3d5ffd5b505050506040513d601f19601f82011682018060405250810190610e289190611f09565b610e67576040517f08c379a0000000000000000000000000000000000000000000000000000000008152600401610e5e9061200d565b60405180910390fd5b60015f9054906101000a900473ffffffffffffffffffffffffffffffffffffffff1673ffffffffffffffffffffffffffffffffffffffff1663a9059cbb33836040518363ffffffff1660e01b8152600401610ec3929190611f9c565b6020604051808303815f875af1158015610edf573d5f803e3d5ffd5b505050506040513d601f19601f82011682018060405250810190610f039190611f09565b610f42576040517f08c379a0000000000000000000000000000000000000000000000000000000008152600401610f3990611f7e565b60405180910390fd5b50505050565b5f8083118015610f5757505f82115b610f96576040517f08c379a0000000000000000000000000000000000000000000000000000000008152600401610f8d9061234d565b60405180910390fd5b5f8054906101000a900473ffffffffffffffffffffffffffffffffffffffff1673ffffffffffffffffffffffffffffffffffffffff166323b872dd3330866040518463ffffffff1660e01b8152600401610ff293929190611e9f565b6020604051808303815f875af115801561100e573d5f803e3d5ffd5b505050506040513d601f19601f820116820180604052508101906110329190611f09565b611071576040517f08c379a0000000000000000000000000000000000000000000000000000000008152600401611068906123b5565b60405180910390fd5b60015f9054906101000a900473ffffffffffffffffffffffffffffffffffffffff1673ffffffffffffffffffffffffffffffffffffffff166323b872dd3330856040518463ffffffff1660e01b81526004016110cf93929190611e9f565b6020604051808303815f875af11580156110eb573d5f803e3d5ffd5b505050506040513d601f19601f8201168201806040525081019061110f9190611f09565b61114e576040517f08c379a00000000000000000000000000000000000000000000000000000000081526004016111459061241d565b60405180910390fd5b5f60025f9054906101000a900473ffffffffffffffffffffffffffffffffffffffff1673ffffffffffffffffffffffffffffffffffffffff166318160ddd6040518163ffffffff1660e01b8152600401602060405180830381865afa1580156111b9573d5f803e3d5ffd5b505050506040513d601f19601f820116820180604052508101906111dd9190611bfb565b90505f8103611201576111fa83856111f59190611d33565b61190f565b9150611248565b5f60035482866112119190611d33565b61121b9190611da1565b90505f600454838661122d9190611d33565b6112379190611da1565b90506112438282611986565b935050505b5f821161128a576040517f08c379a000000000000000000000000000000000000000000000000000000000815260040161128190612145565b60405180910390fd5b60025f9054906101000a900473ffffffffffffffffffffffffffffffffffffffff1673ffffffffffffffffffffffffffffffffffffffff166340c10f1933846040518363ffffffff1660e01b81526004016112e6929190611f9c565b5f604051808303815f87803b1580156112fd575f80fd5b505af115801561130f573d5f803e3d5ffd5b505050508360035f8282546113249190611e6c565b925050819055508260045f82825461133c9190611e6c565b925050819055505092915050565b60065481565b60075f9054906101000a900473ffffffffffffffffffffffffffffffffffffffff1673ffffffffffffffffffffffffffffffffffffffff163373ffffffffffffffffffffffffffffffffffffffff16146113df576040517f08c379a00000000000000000000000000000000000000000000000000000000081526004016113d690612485565b60405180910390fd5b5f8111611421576040517f08c379a0000000000000000000000000000000000000000000000000000000008152600401611418906124ed565b60405180910390fd5b8060058190555050565b5f80821161146e576040517f08c379a0000000000000000000000000000000000000000000000000000000008152600401611465906120dd565b60405180910390fd5b5f600354116114b2576040517f08c379a00000000000000000000000000000000000000000000000000000000081526004016114a990612145565b60405180910390fd5b5f600354670de0b6b3a76400006004546114cc9190611d33565b6114d69190611da1565b905080670de0b6b3a7640000846114ed9190611d33565b6114f79190611da1565b915050919050565b60055481565b5f808211611548576040517f08c379a000000000000000000000000000000000000000000000000000000000815260040161153f90612075565b60405180910390fd5b5f6115528361142b565b90505f836004546115639190611e6c565b90505f6004546003546115769190611d33565b90505f82826115859190611da1565b90505f816003546115969190611dd1565b90505f856064836115a79190611d33565b6115b19190611da1565b60646115bd9190611dd1565b9050809650505050505050919050565b5f60025f9054906101000a900473ffffffffffffffffffffffffffffffffffffffff16905090565b60035481565b5f80831161163e576040517f08c379a000000000000000000000000000000000000000000000000000000000815260040161163590611c80565b60405180910390fd5b5f60055411611682576040517f08c379a000000000000000000000000000000000000000000000000000000000815260040161167990611ce8565b60405180910390fd5b5f6064600654856116939190611d33565b61169d9190611da1565b90505f81856116ac9190611dd1565b90506116b781610874565b84116116f8576040517f08c379a00000000000000000000000000000000000000000000000000000000081526004016116ef90611e4e565b60405180910390fd5b5f816003546117079190611e6c565b90505f60045460035461171a9190611d33565b90505f82826117299190611da1565b90505f8160045461173a9190611dd1565b90505f8054906101000a900473ffffffffffffffffffffffffffffffffffffffff1673ffffffffffffffffffffffffffffffffffffffff166323b872dd33308c6040518463ffffffff1660e01b815260040161179893929190611e9f565b6020604051808303815f875af11580156117b4573d5f803e3d5ffd5b505050506040513d601f19601f820116820180604052508101906117d89190611f09565b611817576040517f08c379a000000000000000000000000000000000000000000000000000000000815260040161180e9061200d565b60405180910390fd5b60015f9054906101000a900473ffffffffffffffffffffffffffffffffffffffff1673ffffffffffffffffffffffffffffffffffffffff1663a9059cbb33836040518363ffffffff1660e01b8152600401611873929190611f9c565b6020604051808303815f875af115801561188f573d5f803e3d5ffd5b505050506040513d601f19601f820116820180604052508101906118b39190611f09565b6118f2576040517f08c379a00000000000000000000000000000000000000000000000000000000081526004016118e990611f7e565b60405180910390fd5b836003819055508160048190555080965050505050505092915050565b5f6003821115611974578190505f600160028461192c9190611da1565b6119369190611e6c565b90505b8181101561196e5780915060028182856119539190611da1565b61195d9190611e6c565b6119679190611da1565b9050611939565b50611981565b5f821461198057600190505b5b919050565b5f8183106119945781611996565b825b905092915050565b5f80fd5b5f73ffffffffffffffffffffffffffffffffffffffff82169050919050565b5f6119cb826119a2565b9050919050565b6119db816119c1565b81146119e5575f80fd5b50565b5f813590506119f6816119d2565b92915050565b5f60208284031215611a1157611a1061199e565b5b5f611a1e848285016119e8565b91505092915050565b5f819050919050565b611a3981611a27565b82525050565b5f602082019050611a525f830184611a30565b92915050565b5f604082019050611a6b5f830185611a30565b611a786020830184611a30565b9392505050565b5f819050919050565b5f611aa2611a9d611a98846119a2565b611a7f565b6119a2565b9050919050565b5f611ab382611a88565b9050919050565b5f611ac482611aa9565b9050919050565b611ad481611aba565b82525050565b5f602082019050611aed5f830184611acb565b92915050565b611afc81611a27565b8114611b06575f80fd5b50565b5f81359050611b1781611af3565b92915050565b5f8060408385031215611b3357611b3261199e565b5b5f611b4085828601611b09565b9250506020611b5185828601611b09565b9150509250929050565b5f611b6582611aa9565b9050919050565b611b7581611b5b565b82525050565b5f602082019050611b8e5f830184611b6c565b92915050565b5f60208284031215611ba957611ba861199e565b5b5f611bb684828501611b09565b91505092915050565b611bc8816119c1565b82525050565b5f602082019050611be15f830184611bbf565b92915050565b5f81519050611bf581611af3565b92915050565b5f60208284031215611c1057611c0f61199e565b5b5f611c1d84828501611be7565b91505092915050565b5f82825260208201905092915050565b7f496e76616c696420696e70757420616d6f756e740000000000000000000000005f82015250565b5f611c6a601483611c26565b9150611c7582611c36565b602082019050919050565b5f6020820190508181035f830152611c9781611c5e565b9050919050565b7f457870656374656420736c697070616765206e6f7420736574000000000000005f82015250565b5f611cd2601983611c26565b9150611cdd82611c9e565b602082019050919050565b5f6020820190508181035f830152611cff81611cc6565b9050919050565b7f4e487b71000000000000000000000000000000000000000000000000000000005f52601160045260245ffd5b5f611d3d82611a27565b9150611d4883611a27565b9250828202611d5681611a27565b91508282048414831517611d6d57611d6c611d06565b5b5092915050565b7f4e487b71000000000000000000000000000000000000000000000000000000005f52601260045260245ffd5b5f611dab82611a27565b9150611db683611a27565b925082611dc657611dc5611d74565b5b828204905092915050565b5f611ddb82611a27565b9150611de683611a27565b9250828203905081811115611dfe57611dfd611d06565b5b92915050565b7f61637475616c20736c69707061676520697320746f6f206869676800000000005f82015250565b5f611e38601b83611c26565b9150611e4382611e04565b602082019050919050565b5f6020820190508181035f830152611e6581611e2c565b9050919050565b5f611e7682611a27565b9150611e8183611a27565b9250828201905080821115611e9957611e98611d06565b5b92915050565b5f606082019050611eb25f830186611bbf565b611ebf6020830185611bbf565b611ecc6040830184611a30565b949350505050565b5f8115159050919050565b611ee881611ed4565b8114611ef2575f80fd5b50565b5f81519050611f0381611edf565b92915050565b5f60208284031215611f1e57611f1d61199e565b5b5f611f2b84828501611ef5565b91505092915050565b7f546f6b656e2042207472616e73666572206661696c65640000000000000000005f82015250565b5f611f68601783611c26565b9150611f7382611f34565b602082019050919050565b5f6020820190508181035f830152611f9581611f5c565b9050919050565b5f604082019050611faf5f830185611bbf565b611fbc6020830184611a30565b9392505050565b7f546f6b656e2041207472616e73666572206661696c65640000000000000000005f82015250565b5f611ff7601783611c26565b915061200282611fc3565b602082019050919050565b5f6020820190508181035f83015261202481611feb565b9050919050565b7f6769766520636f72726563742076616c756500000000000000000000000000005f82015250565b5f61205f601283611c26565b915061206a8261202b565b602082019050919050565b5f6020820190508181035f83015261208c81612053565b9050919050565b7f496e76616c696420616d6f756e740000000000000000000000000000000000005f82015250565b5f6120c7600e83611c26565b91506120d282612093565b602082019050919050565b5f6020820190508181035f8301526120f4816120bb565b9050919050565b7f496e73756666696369656e74206c6971756964697479000000000000000000005f82015250565b5f61212f601683611c26565b915061213a826120fb565b602082019050919050565b5f6020820190508181035f83015261215c81612123565b9050919050565b7f4e6f206c697175696469747900000000000000000000000000000000000000005f82015250565b5f612197600c83611c26565b91506121a282612163565b602082019050919050565b5f6020820190508181035f8301526121c48161218b565b9050919050565b7f496e76616c6964206c697175696469747920616d6f756e7400000000000000005f82015250565b5f6121ff601883611c26565b915061220a826121cb565b602082019050919050565b5f6020820190508181035f83015261222c816121f3565b9050919050565b7f4e6f7420656e6f756768204c5020746f6b656e730000000000000000000000005f82015250565b5f612267601483611c26565b915061227282612233565b602082019050919050565b5f6020820190508181035f8301526122948161225b565b9050919050565b7f496e73756666696369656e7420616d6f756e7420746f207769746864726177005f82015250565b5f6122cf601f83611c26565b91506122da8261229b565b602082019050919050565b5f6020820190508181035f8301526122fc816122c3565b9050919050565b7f496e76616c696420616d6f756e747300000000000000000000000000000000005f82015250565b5f612337600f83611c26565b915061234282612303565b602082019050919050565b5f6020820190508181035f8301526123648161232b565b9050919050565b7f546f6b656e41207472616e73666572206661696c6564000000000000000000005f82015250565b5f61239f601683611c26565b91506123aa8261236b565b602082019050919050565b5f6020820190508181035f8301526123cc81612393565b9050919050565b7f546f6b656e42207472616e73666572206661696c6564000000000000000000005f82015250565b5f612407601683611c26565b9150612412826123d3565b602082019050919050565b5f6020820190508181035f830152612434816123fb565b9050919050565b7f4e6f7420617574686f72697a65640000000000000000000000000000000000005f82015250565b5f61246f600e83611c26565b915061247a8261243b565b602082019050919050565b5f6020820190508181035f83015261249c81612463565b9050919050565b7f696e76616c696420736c697070616765000000000000000000000000000000005f82015250565b5f6124d7601083611c26565b91506124e2826124a3565b602082019050919050565b5f6020820190508181035f830152612504816124cb565b905091905056fea26469706673582212201b60abc1c94d38280a9fda8218a13e79229f8b3d19bc521922ffd7edd514b2b464736f6c634300081a0033608060405234801561000f575f80fd5b506040518060400160405280601881526020017f4c69717569646974792050726f766964657220546f6b656e00000000000000008152506040518060400160405280600381526020017f4c50540000000000000000000000000000000000000000000000000000000000815250816003908161008b919061031d565b50806004908161009b919061031d565b5050503360055f6101000a81548173ffffffffffffffffffffffffffffffffffffffff021916908373ffffffffffffffffffffffffffffffffffffffff1602179055506103ec565b5f81519050919050565b7f4e487b71000000000000000000000000000000000000000000000000000000005f52604160045260245ffd5b7f4e487b71000000000000000000000000000000000000000000000000000000005f52602260045260245ffd5b5f600282049050600182168061015e57607f821691505b6020821081036101715761017061011a565b5b50919050565b5f819050815f5260205f209050919050565b5f6020601f8301049050919050565b5f82821b905092915050565b5f600883026101d37fffffffffffffffffffffffffffffffffffffffffffffffffffffffffffffffff82610198565b6101dd8683610198565b95508019841693508086168417925050509392505050565b5f819050919050565b5f819050919050565b5f61022161021c610217846101f5565b6101fe565b6101f5565b9050919050565b5f819050919050565b61023a83610207565b61024e61024682610228565b8484546101a4565b825550505050565b5f90565b610262610256565b61026d818484610231565b505050565b5b81811015610290576102855f8261025a565b600181019050610273565b5050565b601f8211156102d5576102a681610177565b6102af84610189565b810160208510156102be578190505b6102d26102ca85610189565b830182610272565b50505b505050565b5f82821c905092915050565b5f6102f55f19846008026102da565b1980831691505092915050565b5f61030d83836102e6565b9150826002028217905092915050565b610326826100e3565b67ffffffffffffffff81111561033f5761033e6100ed565b5b6103498254610147565b610354828285610294565b5f60209050601f831160018114610385575f8415610373578287015190505b61037d8582610302565b8655506103e4565b601f19841661039386610177565b5f5b828110156103ba57848901518255600182019150602085019450602081019050610395565b868310156103d757848901516103d3601f8916826102e6565b8355505b6001600288020188555050505b505050505050565b611186806103f95f395ff3fe608060405234801561000f575f80fd5b50600436106100b2575f3560e01c806340c10f191161006f57806340c10f191461018e57806370a08231146101aa57806395d89b41146101da5780639dc29fac146101f8578063a9059cbb14610214578063dd62ed3e14610244576100b2565b806306fdde03146100b6578063095ea7b3146100d457806316f0115b1461010457806318160ddd1461012257806323b872dd14610140578063313ce56714610170575b5f80fd5b6100be610274565b6040516100cb9190610d2f565b60405180910390f35b6100ee60048036038101906100e99190610de0565b610304565b6040516100fb9190610e38565b60405180910390f35b61010c610326565b6040516101199190610e60565b60405180910390f35b61012a61034b565b6040516101379190610e88565b60405180910390f35b61015a60048036038101906101559190610ea1565b610354565b6040516101679190610e38565b60405180910390f35b610178610382565b6040516101859190610f0c565b60405180910390f35b6101a860048036038101906101a39190610de0565b61038a565b005b6101c460048036038101906101bf9190610f25565b610427565b6040516101d19190610e88565b60405180910390f35b6101e261046c565b6040516101ef9190610d2f565b60405180910390f35b610212600480360381019061020d9190610de0565b6104fc565b005b61022e60048036038101906102299190610de0565b610599565b60405161023b9190610e38565b60405180910390f35b61025e60048036038101906102599190610f50565b6105bb565b60405161026b9190610e88565b60405180910390f35b60606003805461028390610fbb565b80601f01602080910402602001604051908101604052809291908181526020018280546102af90610fbb565b80156102fa5780601f106102d1576101008083540402835291602001916102fa565b820191905f5260205f20905b8154815290600101906020018083116102dd57829003601f168201915b5050505050905090565b5f8061030e61063d565b905061031b818585610644565b600191505092915050565b60055f9054906101000a900473ffffffffffffffffffffffffffffffffffffffff1681565b5f600254905090565b5f8061035e61063d565b905061036b858285610656565b6103768585856106e9565b60019150509392505050565b5f6012905090565b60055f9054906101000a900473ffffffffffffffffffffffffffffffffffffffff1673ffffffffffffffffffffffffffffffffffffffff163373ffffffffffffffffffffffffffffffffffffffff1614610419576040517f08c379a000000000000000000000000000000000000000000000000000000000815260040161041090611035565b60405180910390fd5b61042382826107d9565b5050565b5f805f8373ffffffffffffffffffffffffffffffffffffffff1673ffffffffffffffffffffffffffffffffffffffff1681526020019081526020015f20549050919050565b60606004805461047b90610fbb565b80601f01602080910402602001604051908101604052809291908181526020018280546104a790610fbb565b80156104f25780601f106104c9576101008083540402835291602001916104f2565b820191905f5260205f20905b8154815290600101906020018083116104d557829003601f168201915b5050505050905090565b60055f9054906101000a900473ffffffffffffffffffffffffffffffffffffffff1673ffffffffffffffffffffffffffffffffffffffff163373ffffffffffffffffffffffffffffffffffffffff161461058b576040517f08c379a00000000000000000000000000000000000000000000000000000000081526004016105829061109d565b60405180910390fd5b6105958282610858565b5050565b5f806105a361063d565b90506105b08185856106e9565b600191505092915050565b5f60015f8473ffffffffffffffffffffffffffffffffffffffff1673ffffffffffffffffffffffffffffffffffffffff1681526020019081526020015f205f8373ffffffffffffffffffffffffffffffffffffffff1673ffffffffffffffffffffffffffffffffffffffff1681526020019081526020015f2054905092915050565b5f33905090565b61065183838360016108d7565b505050565b5f61066184846105bb565b90507fffffffffffffffffffffffffffffffffffffffffffffffffffffffffffffffff8110156106e357818110156106d4578281836040517ffb8f41b20000000000000000000000000000000000000000000000000000000081526004016106cb939291906110bb565b60405180910390fd5b6106e284848484035f6108d7565b5b50505050565b5f73ffffffffffffffffffffffffffffffffffffffff168373ffffffffffffffffffffffffffffffffffffffff1603610759575f6040517f96c6fd1e0000000000000000000000000000000000000000000000000000000081526004016107509190610e60565b60405180910390fd5b5f73ffffffffffffffffffffffffffffffffffffffff168273ffffffffffffffffffffffffffffffffffffffff16036107c9575f6040517fec442f050000000000000000000000000000000000000000000000000000000081526004016107c09190610e60565b60405180910390fd5b6107d4838383610aa6565b505050565b5f73ffffffffffffffffffffffffffffffffffffffff168273ffffffffffffffffffffffffffffffffffffffff1603610849575f6040517fec442f050000000000000000000000000000000000000000000000000000000081526004016108409190610e60565b60405180910390fd5b6108545f8383610aa6565b5050565b5f73ffffffffffffffffffffffffffffffffffffffff168273ffffffffffffffffffffffffffffffffffffffff16036108c8575f6040517f96c6fd1e0000000000000000000000000000000000000000000000000000000081526004016108bf9190610e60565b60405180910390fd5b6108d3825f83610aa6565b5050565b5f73ffffffffffffffffffffffffffffffffffffffff168473ffffffffffffffffffffffffffffffffffffffff1603610947575f6040517fe602df0500000000000000000000000000000000000000000000000000000000815260040161093e9190610e60565b60405180910390fd5b5f73ffffffffffffffffffffffffffffffffffffffff168373ffffffffffffffffffffffffffffffffffffffff16036109b7575f6040517f94280d620000000000000000000000000000000000000000000000000000000081526004016109ae9190610e60565b60405180910390fd5b8160015f8673ffffffffffffffffffffffffffffffffffffffff1673ffffffffffffffffffffffffffffffffffffffff1681526020019081526020015f205f8573ffffffffffffffffffffffffffffffffffffffff1673ffffffffffffffffffffffffffffffffffffffff1681526020019081526020015f20819055508015610aa0578273ffffffffffffffffffffffffffffffffffffffff168473ffffffffffffffffffffffffffffffffffffffff167f8c5be1e5ebec7d5bd14f71427d1e84f3dd0314c0f7b2291e5b200ac8c7c3b92584604051610a979190610e88565b60405180910390a35b50505050565b5f73ffffffffffffffffffffffffffffffffffffffff168373ffffffffffffffffffffffffffffffffffffffff1603610af6578060025f828254610aea919061111d565b92505081905550610bc4565b5f805f8573ffffffffffffffffffffffffffffffffffffffff1673ffffffffffffffffffffffffffffffffffffffff1681526020019081526020015f2054905081811015610b7f578381836040517fe450d38c000000000000000000000000000000000000000000000000000000008152600401610b76939291906110bb565b60405180910390fd5b8181035f808673ffffffffffffffffffffffffffffffffffffffff1673ffffffffffffffffffffffffffffffffffffffff1681526020019081526020015f2081905550505b5f73ffffffffffffffffffffffffffffffffffffffff168273ffffffffffffffffffffffffffffffffffffffff1603610c0b578060025f8282540392505081905550610c55565b805f808473ffffffffffffffffffffffffffffffffffffffff1673ffffffffffffffffffffffffffffffffffffffff1681526020019081526020015f205f82825401925050819055505b8173ffffffffffffffffffffffffffffffffffffffff168373ffffffffffffffffffffffffffffffffffffffff167fddf252ad1be2c89b69c2b068fc378daa952ba7f163c4a11628f55a4df523b3ef83604051610cb29190610e88565b60405180910390a3505050565b5f81519050919050565b5f82825260208201905092915050565b8281835e5f83830152505050565b5f601f19601f8301169050919050565b5f610d0182610cbf565b610d0b8185610cc9565b9350610d1b818560208601610cd9565b610d2481610ce7565b840191505092915050565b5f6020820190508181035f830152610d478184610cf7565b905092915050565b5f80fd5b5f73ffffffffffffffffffffffffffffffffffffffff82169050919050565b5f610d7c82610d53565b9050919050565b610d8c81610d72565b8114610d96575f80fd5b50565b5f81359050610da781610d83565b92915050565b5f819050919050565b610dbf81610dad565b8114610dc9575f80fd5b50565b5f81359050610dda81610db6565b92915050565b5f8060408385031215610df657610df5610d4f565b5b5f610e0385828601610d99565b9250506020610e1485828601610dcc565b9150509250929050565b5f8115159050919050565b610e3281610e1e565b82525050565b5f602082019050610e4b5f830184610e29565b92915050565b610e5a81610d72565b82525050565b5f602082019050610e735f830184610e51565b92915050565b610e8281610dad565b82525050565b5f602082019050610e9b5f830184610e79565b92915050565b5f805f60608486031215610eb857610eb7610d4f565b5b5f610ec586828701610d99565b9350506020610ed686828701610d99565b9250506040610ee786828701610dcc565b9150509250925092565b5f60ff82169050919050565b610f0681610ef1565b82525050565b5f602082019050610f1f5f830184610efd565b92915050565b5f60208284031215610f3a57610f39610d4f565b5b5f610f4784828501610d99565b91505092915050565b5f8060408385031215610f6657610f65610d4f565b5b5f610f7385828601610d99565b9250506020610f8485828601610d99565b9150509250929050565b7f4e487b71000000000000000000000000000000000000000000000000000000005f52602260045260245ffd5b5f6002820490506001821680610fd257607f821691505b602082108103610fe557610fe4610f8e565b5b50919050565b7f4f6e6c7920706f6f6c2063616e206d696e7400000000000000000000000000005f82015250565b5f61101f601283610cc9565b915061102a82610feb565b602082019050919050565b5f6020820190508181035f83015261104c81611013565b9050919050565b7f4f6e6c7920706f6f6c2063616e206275726e00000000000000000000000000005f82015250565b5f611087601283610cc9565b915061109282611053565b602082019050919050565b5f6020820190508181035f8301526110b48161107b565b9050919050565b5f6060820190506110ce5f830186610e51565b6110db6020830185610e79565b6110e86040830184610e79565b949350505050565b7f4e487b71000000000000000000000000000000000000000000000000000000005f52601160045260245ffd5b5f61112782610dad565b915061113283610dad565b925082820190508082111561114a576111496110f0565b5b9291505056fea26469706673582212208cad28cb0abe0bb55ab1656d6369bf05ceeb13f03f75127a2b68560cb49227b364736f6c634300081a0033",
					"opcodes": "PUSH1 0x80 PUSH1 0x40 MSTORE PUSH1 0x3 PUSH1 0x6 SSTORE CALLVALUE DUP1 ISZERO PUSH2 0x14 JUMPI PUSH0 DUP1 REVERT JUMPDEST POP PUSH1 0x40 MLOAD PUSH2 0x3CD7 CODESIZE SUB DUP1 PUSH2 0x3CD7 DUP4 CODECOPY DUP2 DUP2 ADD PUSH1 0x40 MSTORE DUP2 ADD SWAP1 PUSH2 0x36 SWAP2 SWAP1 PUSH2 0x1CC JUMP JUMPDEST DUP2 PUSH0 DUP1 PUSH2 0x100 EXP DUP2 SLOAD DUP2 PUSH20 0xFFFFFFFFFFFFFFFFFFFFFFFFFFFFFFFFFFFFFFFF MUL NOT AND SWAP1 DUP4 PUSH20 0xFFFFFFFFFFFFFFFFFFFFFFFFFFFFFFFFFFFFFFFF AND MUL OR SWAP1 SSTORE POP DUP1 PUSH1 0x1 PUSH0 PUSH2 0x100 EXP DUP2 SLOAD DUP2 PUSH20 0xFFFFFFFFFFFFFFFFFFFFFFFFFFFFFFFFFFFFFFFF MUL NOT AND SWAP1 DUP4 PUSH20 0xFFFFFFFFFFFFFFFFFFFFFFFFFFFFFFFFFFFFFFFF AND MUL OR SWAP1 SSTORE POP PUSH1 0x40 MLOAD PUSH2 0xC1 SWAP1 PUSH2 0x161 JUMP JUMPDEST PUSH1 0x40 MLOAD DUP1 SWAP2 SUB SWAP1 PUSH0 CREATE DUP1 ISZERO DUP1 ISZERO PUSH2 0xDA JUMPI RETURNDATASIZE PUSH0 DUP1 RETURNDATACOPY RETURNDATASIZE PUSH0 REVERT JUMPDEST POP PUSH1 0x2 PUSH0 PUSH2 0x100 EXP DUP2 SLOAD DUP2 PUSH20 0xFFFFFFFFFFFFFFFFFFFFFFFFFFFFFFFFFFFFFFFF MUL NOT AND SWAP1 DUP4 PUSH20 0xFFFFFFFFFFFFFFFFFFFFFFFFFFFFFFFFFFFFFFFF AND MUL OR SWAP1 SSTORE POP CALLER PUSH1 0x7 PUSH0 PUSH2 0x100 EXP DUP2 SLOAD DUP2 PUSH20 0xFFFFFFFFFFFFFFFFFFFFFFFFFFFFFFFFFFFFFFFF MUL NOT AND SWAP1 DUP4 PUSH20 0xFFFFFFFFFFFFFFFFFFFFFFFFFFFFFFFFFFFFFFFF AND MUL OR SWAP1 SSTORE POP POP POP PUSH2 0x20A JUMP JUMPDEST PUSH2 0x157F DUP1 PUSH2 0x2758 DUP4 CODECOPY ADD SWAP1 JUMP JUMPDEST PUSH0 DUP1 REVERT JUMPDEST PUSH0 PUSH20 0xFFFFFFFFFFFFFFFFFFFFFFFFFFFFFFFFFFFFFFFF DUP3 AND SWAP1 POP SWAP2 SWAP1 POP JUMP JUMPDEST PUSH0 PUSH2 0x19B DUP3 PUSH2 0x172 JUMP JUMPDEST SWAP1 POP SWAP2 SWAP1 POP JUMP JUMPDEST PUSH2 0x1AB DUP2 PUSH2 0x191 JUMP JUMPDEST DUP2 EQ PUSH2 0x1B5 JUMPI PUSH0 DUP1 REVERT JUMPDEST POP JUMP JUMPDEST PUSH0 DUP2 MLOAD SWAP1 POP PUSH2 0x1C6 DUP2 PUSH2 0x1A2 JUMP JUMPDEST SWAP3 SWAP2 POP POP JUMP JUMPDEST PUSH0 DUP1 PUSH1 0x40 DUP4 DUP6 SUB SLT ISZERO PUSH2 0x1E2 JUMPI PUSH2 0x1E1 PUSH2 0x16E JUMP JUMPDEST JUMPDEST PUSH0 PUSH2 0x1EF DUP6 DUP3 DUP7 ADD PUSH2 0x1B8 JUMP JUMPDEST SWAP3 POP POP PUSH1 0x20 PUSH2 0x200 DUP6 DUP3 DUP7 ADD PUSH2 0x1B8 JUMP JUMPDEST SWAP2 POP POP SWAP3 POP SWAP3 SWAP1 POP JUMP JUMPDEST PUSH2 0x2541 DUP1 PUSH2 0x217 PUSH0 CODECOPY PUSH0 RETURN INVALID PUSH1 0x80 PUSH1 0x40 MSTORE CALLVALUE DUP1 ISZERO PUSH2 0xF JUMPI PUSH0 DUP1 REVERT JUMPDEST POP PUSH1 0x4 CALLDATASIZE LT PUSH2 0x135 JUMPI PUSH0 CALLDATALOAD PUSH1 0xE0 SHR DUP1 PUSH4 0x98D5FDCA GT PUSH2 0xB6 JUMPI DUP1 PUSH4 0xBAE38D58 GT PUSH2 0x7A JUMPI DUP1 PUSH4 0xBAE38D58 EQ PUSH2 0x352 JUMPI DUP1 PUSH4 0xBE8E89FC EQ PUSH2 0x382 JUMPI DUP1 PUSH4 0xC4604B33 EQ PUSH2 0x3A0 JUMPI DUP1 PUSH4 0xC9E57AA6 EQ PUSH2 0x3D0 JUMPI DUP1 PUSH4 0xDC5FA6C5 EQ PUSH2 0x3EE JUMPI DUP1 PUSH4 0xF0B456E9 EQ PUSH2 0x40C JUMPI PUSH2 0x135 JUMP JUMPDEST DUP1 PUSH4 0x98D5FDCA EQ PUSH2 0x2AE JUMPI DUP1 PUSH4 0x9C8F9F23 EQ PUSH2 0x2CC JUMPI DUP1 PUSH4 0x9CD441DA EQ PUSH2 0x2E8 JUMPI DUP1 PUSH4 0xA001ECDD EQ PUSH2 0x318 JUMPI DUP1 PUSH4 0xB9C8C4BA EQ PUSH2 0x336 JUMPI PUSH2 0x135 JUMP JUMPDEST DUP1 PUSH4 0x5F64B55B GT PUSH2 0xFD JUMPI DUP1 PUSH4 0x5F64B55B EQ PUSH2 0x1F4 JUMPI DUP1 PUSH4 0x5FCBD285 EQ PUSH2 0x212 JUMPI DUP1 PUSH4 0x670053C8 EQ PUSH2 0x230 JUMPI DUP1 PUSH4 0x7A88266A EQ PUSH2 0x260 JUMPI DUP1 PUSH4 0x8DA5CB5B EQ PUSH2 0x290 JUMPI PUSH2 0x135 JUMP JUMPDEST DUP1 PUSH4 0x6EBCC6D EQ PUSH2 0x139 JUMPI DUP1 PUSH4 0x902F1AC EQ PUSH2 0x169 JUMPI DUP1 PUSH4 0xFC63D10 EQ PUSH2 0x188 JUMPI DUP1 PUSH4 0x19E36F3B EQ PUSH2 0x1A6 JUMPI DUP1 PUSH4 0x4242EC52 EQ PUSH2 0x1C4 JUMPI JUMPDEST PUSH0 DUP1 REVERT JUMPDEST PUSH2 0x153 PUSH1 0x4 DUP1 CALLDATASIZE SUB DUP2 ADD SWAP1 PUSH2 0x14E SWAP2 SWAP1 PUSH2 0x19FC JUMP JUMPDEST PUSH2 0x43C JUMP JUMPDEST PUSH1 0x40 MLOAD PUSH2 0x160 SWAP2 SWAP1 PUSH2 0x1A3F JUMP JUMPDEST PUSH1 0x40 MLOAD DUP1 SWAP2 SUB SWAP1 RETURN JUMPDEST PUSH2 0x171 PUSH2 0x4DD JUMP JUMPDEST PUSH1 0x40 MLOAD PUSH2 0x17F SWAP3 SWAP2 SWAP1 PUSH2 0x1A58 JUMP JUMPDEST PUSH1 0x40 MLOAD DUP1 SWAP2 SUB SWAP1 RETURN JUMPDEST PUSH2 0x190 PUSH2 0x4ED JUMP JUMPDEST PUSH1 0x40 MLOAD PUSH2 0x19D SWAP2 SWAP1 PUSH2 0x1ADA JUMP JUMPDEST PUSH1 0x40 MLOAD DUP1 SWAP2 SUB SWAP1 RETURN JUMPDEST PUSH2 0x1AE PUSH2 0x510 JUMP JUMPDEST PUSH1 0x40 MLOAD PUSH2 0x1BB SWAP2 SWAP1 PUSH2 0x1A3F JUMP JUMPDEST PUSH1 0x40 MLOAD DUP1 SWAP2 SUB SWAP1 RETURN JUMPDEST PUSH2 0x1DE PUSH1 0x4 DUP1 CALLDATASIZE SUB DUP2 ADD SWAP1 PUSH2 0x1D9 SWAP2 SWAP1 PUSH2 0x1B1D JUMP JUMPDEST PUSH2 0x516 JUMP JUMPDEST PUSH1 0x40 MLOAD PUSH2 0x1EB SWAP2 SWAP1 PUSH2 0x1A3F JUMP JUMPDEST PUSH1 0x40 MLOAD DUP1 SWAP2 SUB SWAP1 RETURN JUMPDEST PUSH2 0x1FC PUSH2 0x82A JUMP JUMPDEST PUSH1 0x40 MLOAD PUSH2 0x209 SWAP2 SWAP1 PUSH2 0x1ADA JUMP JUMPDEST PUSH1 0x40 MLOAD DUP1 SWAP2 SUB SWAP1 RETURN JUMPDEST PUSH2 0x21A PUSH2 0x84F JUMP JUMPDEST PUSH1 0x40 MLOAD PUSH2 0x227 SWAP2 SWAP1 PUSH2 0x1B7B JUMP JUMPDEST PUSH1 0x40 MLOAD DUP1 SWAP2 SUB SWAP1 RETURN JUMPDEST PUSH2 0x24A PUSH1 0x4 DUP1 CALLDATASIZE SUB DUP2 ADD SWAP1 PUSH2 0x245 SWAP2 SWAP1 PUSH2 0x1B94 JUMP JUMPDEST PUSH2 0x874 JUMP JUMPDEST PUSH1 0x40 MLOAD PUSH2 0x257 SWAP2 SWAP1 PUSH2 0x1A3F JUMP JUMPDEST PUSH1 0x40 MLOAD DUP1 SWAP2 SUB SWAP1 RETURN JUMPDEST PUSH2 0x27A PUSH1 0x4 DUP1 CALLDATASIZE SUB DUP2 ADD SWAP1 PUSH2 0x275 SWAP2 SWAP1 PUSH2 0x1B94 JUMP JUMPDEST PUSH2 0x93C JUMP JUMPDEST PUSH1 0x40 MLOAD PUSH2 0x287 SWAP2 SWAP1 PUSH2 0x1A3F JUMP JUMPDEST PUSH1 0x40 MLOAD DUP1 SWAP2 SUB SWAP1 RETURN JUMPDEST PUSH2 0x298 PUSH2 0xA10 JUMP JUMPDEST PUSH1 0x40 MLOAD PUSH2 0x2A5 SWAP2 SWAP1 PUSH2 0x1BCE JUMP JUMPDEST PUSH1 0x40 MLOAD DUP1 SWAP2 SUB SWAP1 RETURN JUMPDEST PUSH2 0x2B6 PUSH2 0xA35 JUMP JUMPDEST PUSH1 0x40 MLOAD PUSH2 0x2C3 SWAP2 SWAP1 PUSH2 0x1A3F JUMP JUMPDEST PUSH1 0x40 MLOAD DUP1 SWAP2 SUB SWAP1 RETURN JUMPDEST PUSH2 0x2E6 PUSH1 0x4 DUP1 CALLDATASIZE SUB DUP2 ADD SWAP1 PUSH2 0x2E1 SWAP2 SWAP1 PUSH2 0x1B94 JUMP JUMPDEST PUSH2 0xAA2 JUMP JUMPDEST STOP JUMPDEST PUSH2 0x302 PUSH1 0x4 DUP1 CALLDATASIZE SUB DUP2 ADD SWAP1 PUSH2 0x2FD SWAP2 SWAP1 PUSH2 0x1B1D JUMP JUMPDEST PUSH2 0xF48 JUMP JUMPDEST PUSH1 0x40 MLOAD PUSH2 0x30F SWAP2 SWAP1 PUSH2 0x1A3F JUMP JUMPDEST PUSH1 0x40 MLOAD DUP1 SWAP2 SUB SWAP1 RETURN JUMPDEST PUSH2 0x320 PUSH2 0x134A JUMP JUMPDEST PUSH1 0x40 MLOAD PUSH2 0x32D SWAP2 SWAP1 PUSH2 0x1A3F JUMP JUMPDEST PUSH1 0x40 MLOAD DUP1 SWAP2 SUB SWAP1 RETURN JUMPDEST PUSH2 0x350 PUSH1 0x4 DUP1 CALLDATASIZE SUB DUP2 ADD SWAP1 PUSH2 0x34B SWAP2 SWAP1 PUSH2 0x1B94 JUMP JUMPDEST PUSH2 0x1350 JUMP JUMPDEST STOP JUMPDEST PUSH2 0x36C PUSH1 0x4 DUP1 CALLDATASIZE SUB DUP2 ADD SWAP1 PUSH2 0x367 SWAP2 SWAP1 PUSH2 0x1B94 JUMP JUMPDEST PUSH2 0x142B JUMP JUMPDEST PUSH1 0x40 MLOAD PUSH2 0x379 SWAP2 SWAP1 PUSH2 0x1A3F JUMP JUMPDEST PUSH1 0x40 MLOAD DUP1 SWAP2 SUB SWAP1 RETURN JUMPDEST PUSH2 0x38A PUSH2 0x14FF JUMP JUMPDEST PUSH1 0x40 MLOAD PUSH2 0x397 SWAP2 SWAP1 PUSH2 0x1A3F JUMP JUMPDEST PUSH1 0x40 MLOAD DUP1 SWAP2 SUB SWAP1 RETURN JUMPDEST PUSH2 0x3BA PUSH1 0x4 DUP1 CALLDATASIZE SUB DUP2 ADD SWAP1 PUSH2 0x3B5 SWAP2 SWAP1 PUSH2 0x1B94 JUMP JUMPDEST PUSH2 0x1505 JUMP JUMPDEST PUSH1 0x40 MLOAD PUSH2 0x3C7 SWAP2 SWAP1 PUSH2 0x1A3F JUMP JUMPDEST PUSH1 0x40 MLOAD DUP1 SWAP2 SUB SWAP1 RETURN JUMPDEST PUSH2 0x3D8 PUSH2 0x15CD JUMP JUMPDEST PUSH1 0x40 MLOAD PUSH2 0x3E5 SWAP2 SWAP1 PUSH2 0x1BCE JUMP JUMPDEST PUSH1 0x40 MLOAD DUP1 SWAP2 SUB SWAP1 RETURN JUMPDEST PUSH2 0x3F6 PUSH2 0x15F5 JUMP JUMPDEST PUSH1 0x40 MLOAD PUSH2 0x403 SWAP2 SWAP1 PUSH2 0x1A3F JUMP JUMPDEST PUSH1 0x40 MLOAD DUP1 SWAP2 SUB SWAP1 RETURN JUMPDEST PUSH2 0x426 PUSH1 0x4 DUP1 CALLDATASIZE SUB DUP2 ADD SWAP1 PUSH2 0x421 SWAP2 SWAP1 PUSH2 0x1B1D JUMP JUMPDEST PUSH2 0x15FB JUMP JUMPDEST PUSH1 0x40 MLOAD PUSH2 0x433 SWAP2 SWAP1 PUSH2 0x1A3F JUMP JUMPDEST PUSH1 0x40 MLOAD DUP1 SWAP2 SUB SWAP1 RETURN JUMPDEST PUSH0 PUSH1 0x2 PUSH0 SWAP1 SLOAD SWAP1 PUSH2 0x100 EXP SWAP1 DIV PUSH20 0xFFFFFFFFFFFFFFFFFFFFFFFFFFFFFFFFFFFFFFFF AND PUSH20 0xFFFFFFFFFFFFFFFFFFFFFFFFFFFFFFFFFFFFFFFF AND PUSH4 0x70A08231 DUP4 PUSH1 0x40 MLOAD DUP3 PUSH4 0xFFFFFFFF AND PUSH1 0xE0 SHL DUP2 MSTORE PUSH1 0x4 ADD PUSH2 0x497 SWAP2 SWAP1 PUSH2 0x1BCE JUMP JUMPDEST PUSH1 0x20 PUSH1 0x40 MLOAD DUP1 DUP4 SUB DUP2 DUP7 GAS STATICCALL ISZERO DUP1 ISZERO PUSH2 0x4B2 JUMPI RETURNDATASIZE PUSH0 DUP1 RETURNDATACOPY RETURNDATASIZE PUSH0 REVERT JUMPDEST POP POP POP POP PUSH1 0x40 MLOAD RETURNDATASIZE PUSH1 0x1F NOT PUSH1 0x1F DUP3 ADD AND DUP3 ADD DUP1 PUSH1 0x40 MSTORE POP DUP2 ADD SWAP1 PUSH2 0x4D6 SWAP2 SWAP1 PUSH2 0x1BFB JUMP JUMPDEST SWAP1 POP SWAP2 SWAP1 POP JUMP JUMPDEST PUSH0 DUP1 PUSH1 0x3 SLOAD PUSH1 0x4 SLOAD SWAP2 POP SWAP2 POP SWAP1 SWAP2 JUMP JUMPDEST PUSH0 DUP1 SLOAD SWAP1 PUSH2 0x100 EXP SWAP1 DIV PUSH20 0xFFFFFFFFFFFFFFFFFFFFFFFFFFFFFFFFFFFFFFFF AND DUP2 JUMP JUMPDEST PUSH1 0x4 SLOAD DUP2 JUMP JUMPDEST PUSH0 DUP1 DUP4 GT PUSH2 0x559 JUMPI PUSH1 0x40 MLOAD PUSH32 0x8C379A000000000000000000000000000000000000000000000000000000000 DUP2 MSTORE PUSH1 0x4 ADD PUSH2 0x550 SWAP1 PUSH2 0x1C80 JUMP JUMPDEST PUSH1 0x40 MLOAD DUP1 SWAP2 SUB SWAP1 REVERT JUMPDEST PUSH0 PUSH1 0x5 SLOAD GT PUSH2 0x59D JUMPI PUSH1 0x40 MLOAD PUSH32 0x8C379A000000000000000000000000000000000000000000000000000000000 DUP2 MSTORE PUSH1 0x4 ADD PUSH2 0x594 SWAP1 PUSH2 0x1CE8 JUMP JUMPDEST PUSH1 0x40 MLOAD DUP1 SWAP2 SUB SWAP1 REVERT JUMPDEST PUSH0 PUSH1 0x64 PUSH1 0x6 SLOAD DUP6 PUSH2 0x5AE SWAP2 SWAP1 PUSH2 0x1D33 JUMP JUMPDEST PUSH2 0x5B8 SWAP2 SWAP1 PUSH2 0x1DA1 JUMP JUMPDEST SWAP1 POP PUSH0 DUP2 DUP6 PUSH2 0x5C7 SWAP2 SWAP1 PUSH2 0x1DD1 JUMP JUMPDEST SWAP1 POP PUSH2 0x5D2 DUP2 PUSH2 0x1505 JUMP JUMPDEST DUP5 GT PUSH2 0x613 JUMPI PUSH1 0x40 MLOAD PUSH32 0x8C379A000000000000000000000000000000000000000000000000000000000 DUP2 MSTORE PUSH1 0x4 ADD PUSH2 0x60A SWAP1 PUSH2 0x1E4E JUMP JUMPDEST PUSH1 0x40 MLOAD DUP1 SWAP2 SUB SWAP1 REVERT JUMPDEST PUSH0 DUP2 PUSH1 0x4 SLOAD PUSH2 0x622 SWAP2 SWAP1 PUSH2 0x1E6C JUMP JUMPDEST SWAP1 POP PUSH0 PUSH1 0x4 SLOAD PUSH1 0x3 SLOAD PUSH2 0x635 SWAP2 SWAP1 PUSH2 0x1D33 JUMP JUMPDEST SWAP1 POP PUSH0 DUP3 DUP3 PUSH2 0x644 SWAP2 SWAP1 PUSH2 0x1DA1 JUMP JUMPDEST SWAP1 POP PUSH0 DUP2 PUSH1 0x3 SLOAD PUSH2 0x655 SWAP2 SWAP1 PUSH2 0x1DD1 JUMP JUMPDEST SWAP1 POP PUSH1 0x1 PUSH0 SWAP1 SLOAD SWAP1 PUSH2 0x100 EXP SWAP1 DIV PUSH20 0xFFFFFFFFFFFFFFFFFFFFFFFFFFFFFFFFFFFFFFFF AND PUSH20 0xFFFFFFFFFFFFFFFFFFFFFFFFFFFFFFFFFFFFFFFF AND PUSH4 0x23B872DD CALLER ADDRESS DUP13 PUSH1 0x40 MLOAD DUP5 PUSH4 0xFFFFFFFF AND PUSH1 0xE0 SHL DUP2 MSTORE PUSH1 0x4 ADD PUSH2 0x6B5 SWAP4 SWAP3 SWAP2 SWAP1 PUSH2 0x1E9F JUMP JUMPDEST PUSH1 0x20 PUSH1 0x40 MLOAD DUP1 DUP4 SUB DUP2 PUSH0 DUP8 GAS CALL ISZERO DUP1 ISZERO PUSH2 0x6D1 JUMPI RETURNDATASIZE PUSH0 DUP1 RETURNDATACOPY RETURNDATASIZE PUSH0 REVERT JUMPDEST POP POP POP POP PUSH1 0x40 MLOAD RETURNDATASIZE PUSH1 0x1F NOT PUSH1 0x1F DUP3 ADD AND DUP3 ADD DUP1 PUSH1 0x40 MSTORE POP DUP2 ADD SWAP1 PUSH2 0x6F5 SWAP2 SWAP1 PUSH2 0x1F09 JUMP JUMPDEST PUSH2 0x734 JUMPI PUSH1 0x40 MLOAD PUSH32 0x8C379A000000000000000000000000000000000000000000000000000000000 DUP2 MSTORE PUSH1 0x4 ADD PUSH2 0x72B SWAP1 PUSH2 0x1F7E JUMP JUMPDEST PUSH1 0x40 MLOAD DUP1 SWAP2 SUB SWAP1 REVERT JUMPDEST PUSH0 DUP1 SLOAD SWAP1 PUSH2 0x100 EXP SWAP1 DIV PUSH20 0xFFFFFFFFFFFFFFFFFFFFFFFFFFFFFFFFFFFFFFFF AND PUSH20 0xFFFFFFFFFFFFFFFFFFFFFFFFFFFFFFFFFFFFFFFF AND PUSH4 0xA9059CBB CALLER DUP4 PUSH1 0x40 MLOAD DUP4 PUSH4 0xFFFFFFFF AND PUSH1 0xE0 SHL DUP2 MSTORE PUSH1 0x4 ADD PUSH2 0x78E SWAP3 SWAP2 SWAP1 PUSH2 0x1F9C JUMP JUMPDEST PUSH1 0x20 PUSH1 0x40 MLOAD DUP1 DUP4 SUB DUP2 PUSH0 DUP8 GAS CALL ISZERO DUP1 ISZERO PUSH2 0x7AA JUMPI RETURNDATASIZE PUSH0 DUP1 RETURNDATACOPY RETURNDATASIZE PUSH0 REVERT JUMPDEST POP POP POP POP PUSH1 0x40 MLOAD RETURNDATASIZE PUSH1 0x1F NOT PUSH1 0x1F DUP3 ADD AND DUP3 ADD DUP1 PUSH1 0x40 MSTORE POP DUP2 ADD SWAP1 PUSH2 0x7CE SWAP2 SWAP1 PUSH2 0x1F09 JUMP JUMPDEST PUSH2 0x80D JUMPI PUSH1 0x40 MLOAD PUSH32 0x8C379A000000000000000000000000000000000000000000000000000000000 DUP2 MSTORE PUSH1 0x4 ADD PUSH2 0x804 SWAP1 PUSH2 0x200D JUMP JUMPDEST PUSH1 0x40 MLOAD DUP1 SWAP2 SUB SWAP1 REVERT JUMPDEST DUP2 PUSH1 0x3 DUP2 SWAP1 SSTORE POP DUP4 PUSH1 0x4 DUP2 SWAP1 SSTORE POP DUP1 SWAP7 POP POP POP POP POP POP POP SWAP3 SWAP2 POP POP JUMP JUMPDEST PUSH1 0x1 PUSH0 SWAP1 SLOAD SWAP1 PUSH2 0x100 EXP SWAP1 DIV PUSH20 0xFFFFFFFFFFFFFFFFFFFFFFFFFFFFFFFFFFFFFFFF AND DUP2 JUMP JUMPDEST PUSH1 0x2 PUSH0 SWAP1 SLOAD SWAP1 PUSH2 0x100 EXP SWAP1 DIV PUSH20 0xFFFFFFFFFFFFFFFFFFFFFFFFFFFFFFFFFFFFFFFF AND DUP2 JUMP JUMPDEST PUSH0 DUP1 DUP3 GT PUSH2 0x8B7 JUMPI PUSH1 0x40 MLOAD PUSH32 0x8C379A000000000000000000000000000000000000000000000000000000000 DUP2 MSTORE PUSH1 0x4 ADD PUSH2 0x8AE SWAP1 PUSH2 0x2075 JUMP JUMPDEST PUSH1 0x40 MLOAD DUP1 SWAP2 SUB SWAP1 REVERT JUMPDEST PUSH0 PUSH2 0x8C1 DUP4 PUSH2 0x93C JUMP JUMPDEST SWAP1 POP PUSH0 DUP4 PUSH1 0x3 SLOAD PUSH2 0x8D2 SWAP2 SWAP1 PUSH2 0x1E6C JUMP JUMPDEST SWAP1 POP PUSH0 PUSH1 0x4 SLOAD PUSH1 0x3 SLOAD PUSH2 0x8E5 SWAP2 SWAP1 PUSH2 0x1D33 JUMP JUMPDEST SWAP1 POP PUSH0 DUP3 DUP3 PUSH2 0x8F4 SWAP2 SWAP1 PUSH2 0x1DA1 JUMP JUMPDEST SWAP1 POP PUSH0 DUP2 PUSH1 0x4 SLOAD PUSH2 0x905 SWAP2 SWAP1 PUSH2 0x1DD1 JUMP JUMPDEST SWAP1 POP PUSH0 DUP6 PUSH1 0x64 DUP4 PUSH2 0x916 SWAP2 SWAP1 PUSH2 0x1D33 JUMP JUMPDEST PUSH2 0x920 SWAP2 SWAP1 PUSH2 0x1DA1 JUMP JUMPDEST PUSH1 0x64 PUSH2 0x92C SWAP2 SWAP1 PUSH2 0x1DD1 JUMP JUMPDEST SWAP1 POP DUP1 SWAP7 POP POP POP POP POP POP POP SWAP2 SWAP1 POP JUMP JUMPDEST PUSH0 DUP1 DUP3 GT PUSH2 0x97F JUMPI PUSH1 0x40 MLOAD PUSH32 0x8C379A000000000000000000000000000000000000000000000000000000000 DUP2 MSTORE PUSH1 0x4 ADD PUSH2 0x976 SWAP1 PUSH2 0x20DD JUMP JUMPDEST PUSH1 0x40 MLOAD DUP1 SWAP2 SUB SWAP1 REVERT JUMPDEST PUSH0 PUSH1 0x4 SLOAD GT PUSH2 0x9C3 JUMPI PUSH1 0x40 MLOAD PUSH32 0x8C379A000000000000000000000000000000000000000000000000000000000 DUP2 MSTORE PUSH1 0x4 ADD PUSH2 0x9BA SWAP1 PUSH2 0x2145 JUMP JUMPDEST PUSH1 0x40 MLOAD DUP1 SWAP2 SUB SWAP1 REVERT JUMPDEST PUSH0 PUSH1 0x4 SLOAD PUSH8 0xDE0B6B3A7640000 PUSH1 0x3 SLOAD PUSH2 0x9DD SWAP2 SWAP1 PUSH2 0x1D33 JUMP JUMPDEST PUSH2 0x9E7 SWAP2 SWAP1 PUSH2 0x1DA1 JUMP JUMPDEST SWAP1 POP DUP1 PUSH8 0xDE0B6B3A7640000 DUP5 PUSH2 0x9FE SWAP2 SWAP1 PUSH2 0x1D33 JUMP JUMPDEST PUSH2 0xA08 SWAP2 SWAP1 PUSH2 0x1DA1 JUMP JUMPDEST SWAP2 POP POP SWAP2 SWAP1 POP JUMP JUMPDEST PUSH1 0x7 PUSH0 SWAP1 SLOAD SWAP1 PUSH2 0x100 EXP SWAP1 DIV PUSH20 0xFFFFFFFFFFFFFFFFFFFFFFFFFFFFFFFFFFFFFFFF AND DUP2 JUMP JUMPDEST PUSH0 DUP1 PUSH1 0x4 SLOAD GT PUSH2 0xA7A JUMPI PUSH1 0x40 MLOAD PUSH32 0x8C379A000000000000000000000000000000000000000000000000000000000 DUP2 MSTORE PUSH1 0x4 ADD PUSH2 0xA71 SWAP1 PUSH2 0x21AD JUMP JUMPDEST PUSH1 0x40 MLOAD DUP1 SWAP2 SUB SWAP1 REVERT JUMPDEST PUSH1 0x4 SLOAD PUSH8 0xDE0B6B3A7640000 PUSH1 0x3 SLOAD PUSH2 0xA93 SWAP2 SWAP1 PUSH2 0x1D33 JUMP JUMPDEST PUSH2 0xA9D SWAP2 SWAP1 PUSH2 0x1DA1 JUMP JUMPDEST SWAP1 POP SWAP1 JUMP JUMPDEST PUSH0 DUP2 GT PUSH2 0xAE4 JUMPI PUSH1 0x40 MLOAD PUSH32 0x8C379A000000000000000000000000000000000000000000000000000000000 DUP2 MSTORE PUSH1 0x4 ADD PUSH2 0xADB SWAP1 PUSH2 0x2215 JUMP JUMPDEST PUSH1 0x40 MLOAD DUP1 SWAP2 SUB SWAP1 REVERT JUMPDEST DUP1 PUSH1 0x2 PUSH0 SWAP1 SLOAD SWAP1 PUSH2 0x100 EXP SWAP1 DIV PUSH20 0xFFFFFFFFFFFFFFFFFFFFFFFFFFFFFFFFFFFFFFFF AND PUSH20 0xFFFFFFFFFFFFFFFFFFFFFFFFFFFFFFFFFFFFFFFF AND PUSH4 0x70A08231 CALLER PUSH1 0x40 MLOAD DUP3 PUSH4 0xFFFFFFFF AND PUSH1 0xE0 SHL DUP2 MSTORE PUSH1 0x4 ADD PUSH2 0xB3F SWAP2 SWAP1 PUSH2 0x1BCE JUMP JUMPDEST PUSH1 0x20 PUSH1 0x40 MLOAD DUP1 DUP4 SUB DUP2 DUP7 GAS STATICCALL ISZERO DUP1 ISZERO PUSH2 0xB5A JUMPI RETURNDATASIZE PUSH0 DUP1 RETURNDATACOPY RETURNDATASIZE PUSH0 REVERT JUMPDEST POP POP POP POP PUSH1 0x40 MLOAD RETURNDATASIZE PUSH1 0x1F NOT PUSH1 0x1F DUP3 ADD AND DUP3 ADD DUP1 PUSH1 0x40 MSTORE POP DUP2 ADD SWAP1 PUSH2 0xB7E SWAP2 SWAP1 PUSH2 0x1BFB JUMP JUMPDEST LT ISZERO PUSH2 0xBBF JUMPI PUSH1 0x40 MLOAD PUSH32 0x8C379A000000000000000000000000000000000000000000000000000000000 DUP2 MSTORE PUSH1 0x4 ADD PUSH2 0xBB6 SWAP1 PUSH2 0x227D JUMP JUMPDEST PUSH1 0x40 MLOAD DUP1 SWAP2 SUB SWAP1 REVERT JUMPDEST PUSH0 PUSH1 0x2 PUSH0 SWAP1 SLOAD SWAP1 PUSH2 0x100 EXP SWAP1 DIV PUSH20 0xFFFFFFFFFFFFFFFFFFFFFFFFFFFFFFFFFFFFFFFF AND PUSH20 0xFFFFFFFFFFFFFFFFFFFFFFFFFFFFFFFFFFFFFFFF AND PUSH4 0x18160DDD PUSH1 0x40 MLOAD DUP2 PUSH4 0xFFFFFFFF AND PUSH1 0xE0 SHL DUP2 MSTORE PUSH1 0x4 ADD PUSH1 0x20 PUSH1 0x40 MLOAD DUP1 DUP4 SUB DUP2 DUP7 GAS STATICCALL ISZERO DUP1 ISZERO PUSH2 0xC2A JUMPI RETURNDATASIZE PUSH0 DUP1 RETURNDATACOPY RETURNDATASIZE PUSH0 REVERT JUMPDEST POP POP POP POP PUSH1 0x40 MLOAD RETURNDATASIZE PUSH1 0x1F NOT PUSH1 0x1F DUP3 ADD AND DUP3 ADD DUP1 PUSH1 0x40 MSTORE POP DUP2 ADD SWAP1 PUSH2 0xC4E SWAP2 SWAP1 PUSH2 0x1BFB JUMP JUMPDEST SWAP1 POP PUSH0 DUP2 PUSH1 0x3 SLOAD DUP5 PUSH2 0xC60 SWAP2 SWAP1 PUSH2 0x1D33 JUMP JUMPDEST PUSH2 0xC6A SWAP2 SWAP1 PUSH2 0x1DA1 JUMP JUMPDEST SWAP1 POP PUSH0 DUP3 PUSH1 0x4 SLOAD DUP6 PUSH2 0xC7C SWAP2 SWAP1 PUSH2 0x1D33 JUMP JUMPDEST PUSH2 0xC86 SWAP2 SWAP1 PUSH2 0x1DA1 JUMP JUMPDEST SWAP1 POP PUSH0 DUP3 GT DUP1 ISZERO PUSH2 0xC96 JUMPI POP PUSH0 DUP2 GT JUMPDEST PUSH2 0xCD5 JUMPI PUSH1 0x40 MLOAD PUSH32 0x8C379A000000000000000000000000000000000000000000000000000000000 DUP2 MSTORE PUSH1 0x4 ADD PUSH2 0xCCC SWAP1 PUSH2 0x22E5 JUMP JUMPDEST PUSH1 0x40 MLOAD DUP1 SWAP2 SUB SWAP1 REVERT JUMPDEST PUSH1 0x2 PUSH0 SWAP1 SLOAD SWAP1 PUSH2 0x100 EXP SWAP1 DIV PUSH20 0xFFFFFFFFFFFFFFFFFFFFFFFFFFFFFFFFFFFFFFFF AND PUSH20 0xFFFFFFFFFFFFFFFFFFFFFFFFFFFFFFFFFFFFFFFF AND PUSH4 0x9DC29FAC CALLER DUP7 PUSH1 0x40 MLOAD DUP4 PUSH4 0xFFFFFFFF AND PUSH1 0xE0 SHL DUP2 MSTORE PUSH1 0x4 ADD PUSH2 0xD31 SWAP3 SWAP2 SWAP1 PUSH2 0x1F9C JUMP JUMPDEST PUSH0 PUSH1 0x40 MLOAD DUP1 DUP4 SUB DUP2 PUSH0 DUP8 DUP1 EXTCODESIZE ISZERO DUP1 ISZERO PUSH2 0xD48 JUMPI PUSH0 DUP1 REVERT JUMPDEST POP GAS CALL ISZERO DUP1 ISZERO PUSH2 0xD5A JUMPI RETURNDATASIZE PUSH0 DUP1 RETURNDATACOPY RETURNDATASIZE PUSH0 REVERT JUMPDEST POP POP POP POP DUP2 PUSH1 0x3 PUSH0 DUP3 DUP3 SLOAD PUSH2 0xD6F SWAP2 SWAP1 PUSH2 0x1DD1 JUMP JUMPDEST SWAP3 POP POP DUP2 SWAP1 SSTORE POP DUP1 PUSH1 0x4 PUSH0 DUP3 DUP3 SLOAD PUSH2 0xD87 SWAP2 SWAP1 PUSH2 0x1DD1 JUMP JUMPDEST SWAP3 POP POP DUP2 SWAP1 SSTORE POP PUSH0 DUP1 SLOAD SWAP1 PUSH2 0x100 EXP SWAP1 DIV PUSH20 0xFFFFFFFFFFFFFFFFFFFFFFFFFFFFFFFFFFFFFFFF AND PUSH20 0xFFFFFFFFFFFFFFFFFFFFFFFFFFFFFFFFFFFFFFFF AND PUSH4 0xA9059CBB CALLER DUP5 PUSH1 0x40 MLOAD DUP4 PUSH4 0xFFFFFFFF AND PUSH1 0xE0 SHL DUP2 MSTORE PUSH1 0x4 ADD PUSH2 0xDE8 SWAP3 SWAP2 SWAP1 PUSH2 0x1F9C JUMP JUMPDEST PUSH1 0x20 PUSH1 0x40 MLOAD DUP1 DUP4 SUB DUP2 PUSH0 DUP8 GAS CALL ISZERO DUP1 ISZERO PUSH2 0xE04 JUMPI RETURNDATASIZE PUSH0 DUP1 RETURNDATACOPY RETURNDATASIZE PUSH0 REVERT JUMPDEST POP POP POP POP PUSH1 0x40 MLOAD RETURNDATASIZE PUSH1 0x1F NOT PUSH1 0x1F DUP3 ADD AND DUP3 ADD DUP1 PUSH1 0x40 MSTORE POP DUP2 ADD SWAP1 PUSH2 0xE28 SWAP2 SWAP1 PUSH2 0x1F09 JUMP JUMPDEST PUSH2 0xE67 JUMPI PUSH1 0x40 MLOAD PUSH32 0x8C379A000000000000000000000000000000000000000000000000000000000 DUP2 MSTORE PUSH1 0x4 ADD PUSH2 0xE5E SWAP1 PUSH2 0x200D JUMP JUMPDEST PUSH1 0x40 MLOAD DUP1 SWAP2 SUB SWAP1 REVERT JUMPDEST PUSH1 0x1 PUSH0 SWAP1 SLOAD SWAP1 PUSH2 0x100 EXP SWAP1 DIV PUSH20 0xFFFFFFFFFFFFFFFFFFFFFFFFFFFFFFFFFFFFFFFF AND PUSH20 0xFFFFFFFFFFFFFFFFFFFFFFFFFFFFFFFFFFFFFFFF AND PUSH4 0xA9059CBB CALLER DUP4 PUSH1 0x40 MLOAD DUP4 PUSH4 0xFFFFFFFF AND PUSH1 0xE0 SHL DUP2 MSTORE PUSH1 0x4 ADD PUSH2 0xEC3 SWAP3 SWAP2 SWAP1 PUSH2 0x1F9C JUMP JUMPDEST PUSH1 0x20 PUSH1 0x40 MLOAD DUP1 DUP4 SUB DUP2 PUSH0 DUP8 GAS CALL ISZERO DUP1 ISZERO PUSH2 0xEDF JUMPI RETURNDATASIZE PUSH0 DUP1 RETURNDATACOPY RETURNDATASIZE PUSH0 REVERT JUMPDEST POP POP POP POP PUSH1 0x40 MLOAD RETURNDATASIZE PUSH1 0x1F NOT PUSH1 0x1F DUP3 ADD AND DUP3 ADD DUP1 PUSH1 0x40 MSTORE POP DUP2 ADD SWAP1 PUSH2 0xF03 SWAP2 SWAP1 PUSH2 0x1F09 JUMP JUMPDEST PUSH2 0xF42 JUMPI PUSH1 0x40 MLOAD PUSH32 0x8C379A000000000000000000000000000000000000000000000000000000000 DUP2 MSTORE PUSH1 0x4 ADD PUSH2 0xF39 SWAP1 PUSH2 0x1F7E JUMP JUMPDEST PUSH1 0x40 MLOAD DUP1 SWAP2 SUB SWAP1 REVERT JUMPDEST POP POP POP POP JUMP JUMPDEST PUSH0 DUP1 DUP4 GT DUP1 ISZERO PUSH2 0xF57 JUMPI POP PUSH0 DUP3 GT JUMPDEST PUSH2 0xF96 JUMPI PUSH1 0x40 MLOAD PUSH32 0x8C379A000000000000000000000000000000000000000000000000000000000 DUP2 MSTORE PUSH1 0x4 ADD PUSH2 0xF8D SWAP1 PUSH2 0x234D JUMP JUMPDEST PUSH1 0x40 MLOAD DUP1 SWAP2 SUB SWAP1 REVERT JUMPDEST PUSH0 DUP1 SLOAD SWAP1 PUSH2 0x100 EXP SWAP1 DIV PUSH20 0xFFFFFFFFFFFFFFFFFFFFFFFFFFFFFFFFFFFFFFFF AND PUSH20 0xFFFFFFFFFFFFFFFFFFFFFFFFFFFFFFFFFFFFFFFF AND PUSH4 0x23B872DD CALLER ADDRESS DUP7 PUSH1 0x40 MLOAD DUP5 PUSH4 0xFFFFFFFF AND PUSH1 0xE0 SHL DUP2 MSTORE PUSH1 0x4 ADD PUSH2 0xFF2 SWAP4 SWAP3 SWAP2 SWAP1 PUSH2 0x1E9F JUMP JUMPDEST PUSH1 0x20 PUSH1 0x40 MLOAD DUP1 DUP4 SUB DUP2 PUSH0 DUP8 GAS CALL ISZERO DUP1 ISZERO PUSH2 0x100E JUMPI RETURNDATASIZE PUSH0 DUP1 RETURNDATACOPY RETURNDATASIZE PUSH0 REVERT JUMPDEST POP POP POP POP PUSH1 0x40 MLOAD RETURNDATASIZE PUSH1 0x1F NOT PUSH1 0x1F DUP3 ADD AND DUP3 ADD DUP1 PUSH1 0x40 MSTORE POP DUP2 ADD SWAP1 PUSH2 0x1032 SWAP2 SWAP1 PUSH2 0x1F09 JUMP JUMPDEST PUSH2 0x1071 JUMPI PUSH1 0x40 MLOAD PUSH32 0x8C379A000000000000000000000000000000000000000000000000000000000 DUP2 MSTORE PUSH1 0x4 ADD PUSH2 0x1068 SWAP1 PUSH2 0x23B5 JUMP JUMPDEST PUSH1 0x40 MLOAD DUP1 SWAP2 SUB SWAP1 REVERT JUMPDEST PUSH1 0x1 PUSH0 SWAP1 SLOAD SWAP1 PUSH2 0x100 EXP SWAP1 DIV PUSH20 0xFFFFFFFFFFFFFFFFFFFFFFFFFFFFFFFFFFFFFFFF AND PUSH20 0xFFFFFFFFFFFFFFFFFFFFFFFFFFFFFFFFFFFFFFFF AND PUSH4 0x23B872DD CALLER ADDRESS DUP6 PUSH1 0x40 MLOAD DUP5 PUSH4 0xFFFFFFFF AND PUSH1 0xE0 SHL DUP2 MSTORE PUSH1 0x4 ADD PUSH2 0x10CF SWAP4 SWAP3 SWAP2 SWAP1 PUSH2 0x1E9F JUMP JUMPDEST PUSH1 0x20 PUSH1 0x40 MLOAD DUP1 DUP4 SUB DUP2 PUSH0 DUP8 GAS CALL ISZERO DUP1 ISZERO PUSH2 0x10EB JUMPI RETURNDATASIZE PUSH0 DUP1 RETURNDATACOPY RETURNDATASIZE PUSH0 REVERT JUMPDEST POP POP POP POP PUSH1 0x40 MLOAD RETURNDATASIZE PUSH1 0x1F NOT PUSH1 0x1F DUP3 ADD AND DUP3 ADD DUP1 PUSH1 0x40 MSTORE POP DUP2 ADD SWAP1 PUSH2 0x110F SWAP2 SWAP1 PUSH2 0x1F09 JUMP JUMPDEST PUSH2 0x114E JUMPI PUSH1 0x40 MLOAD PUSH32 0x8C379A000000000000000000000000000000000000000000000000000000000 DUP2 MSTORE PUSH1 0x4 ADD PUSH2 0x1145 SWAP1 PUSH2 0x241D JUMP JUMPDEST PUSH1 0x40 MLOAD DUP1 SWAP2 SUB SWAP1 REVERT JUMPDEST PUSH0 PUSH1 0x2 PUSH0 SWAP1 SLOAD SWAP1 PUSH2 0x100 EXP SWAP1 DIV PUSH20 0xFFFFFFFFFFFFFFFFFFFFFFFFFFFFFFFFFFFFFFFF AND PUSH20 0xFFFFFFFFFFFFFFFFFFFFFFFFFFFFFFFFFFFFFFFF AND PUSH4 0x18160DDD PUSH1 0x40 MLOAD DUP2 PUSH4 0xFFFFFFFF AND PUSH1 0xE0 SHL DUP2 MSTORE PUSH1 0x4 ADD PUSH1 0x20 PUSH1 0x40 MLOAD DUP1 DUP4 SUB DUP2 DUP7 GAS STATICCALL ISZERO DUP1 ISZERO PUSH2 0x11B9 JUMPI RETURNDATASIZE PUSH0 DUP1 RETURNDATACOPY RETURNDATASIZE PUSH0 REVERT JUMPDEST POP POP POP POP PUSH1 0x40 MLOAD RETURNDATASIZE PUSH1 0x1F NOT PUSH1 0x1F DUP3 ADD AND DUP3 ADD DUP1 PUSH1 0x40 MSTORE POP DUP2 ADD SWAP1 PUSH2 0x11DD SWAP2 SWAP1 PUSH2 0x1BFB JUMP JUMPDEST SWAP1 POP PUSH0 DUP2 SUB PUSH2 0x1201 JUMPI PUSH2 0x11FA DUP4 DUP6 PUSH2 0x11F5 SWAP2 SWAP1 PUSH2 0x1D33 JUMP JUMPDEST PUSH2 0x190F JUMP JUMPDEST SWAP2 POP PUSH2 0x1248 JUMP JUMPDEST PUSH0 PUSH1 0x3 SLOAD DUP3 DUP7 PUSH2 0x1211 SWAP2 SWAP1 PUSH2 0x1D33 JUMP JUMPDEST PUSH2 0x121B SWAP2 SWAP1 PUSH2 0x1DA1 JUMP JUMPDEST SWAP1 POP PUSH0 PUSH1 0x4 SLOAD DUP4 DUP7 PUSH2 0x122D SWAP2 SWAP1 PUSH2 0x1D33 JUMP JUMPDEST PUSH2 0x1237 SWAP2 SWAP1 PUSH2 0x1DA1 JUMP JUMPDEST SWAP1 POP PUSH2 0x1243 DUP3 DUP3 PUSH2 0x1986 JUMP JUMPDEST SWAP4 POP POP POP JUMPDEST PUSH0 DUP3 GT PUSH2 0x128A JUMPI PUSH1 0x40 MLOAD PUSH32 0x8C379A000000000000000000000000000000000000000000000000000000000 DUP2 MSTORE PUSH1 0x4 ADD PUSH2 0x1281 SWAP1 PUSH2 0x2145 JUMP JUMPDEST PUSH1 0x40 MLOAD DUP1 SWAP2 SUB SWAP1 REVERT JUMPDEST PUSH1 0x2 PUSH0 SWAP1 SLOAD SWAP1 PUSH2 0x100 EXP SWAP1 DIV PUSH20 0xFFFFFFFFFFFFFFFFFFFFFFFFFFFFFFFFFFFFFFFF AND PUSH20 0xFFFFFFFFFFFFFFFFFFFFFFFFFFFFFFFFFFFFFFFF AND PUSH4 0x40C10F19 CALLER DUP5 PUSH1 0x40 MLOAD DUP4 PUSH4 0xFFFFFFFF AND PUSH1 0xE0 SHL DUP2 MSTORE PUSH1 0x4 ADD PUSH2 0x12E6 SWAP3 SWAP2 SWAP1 PUSH2 0x1F9C JUMP JUMPDEST PUSH0 PUSH1 0x40 MLOAD DUP1 DUP4 SUB DUP2 PUSH0 DUP8 DUP1 EXTCODESIZE ISZERO DUP1 ISZERO PUSH2 0x12FD JUMPI PUSH0 DUP1 REVERT JUMPDEST POP GAS CALL ISZERO DUP1 ISZERO PUSH2 0x130F JUMPI RETURNDATASIZE PUSH0 DUP1 RETURNDATACOPY RETURNDATASIZE PUSH0 REVERT JUMPDEST POP POP POP POP DUP4 PUSH1 0x3 PUSH0 DUP3 DUP3 SLOAD PUSH2 0x1324 SWAP2 SWAP1 PUSH2 0x1E6C JUMP JUMPDEST SWAP3 POP POP DUP2 SWAP1 SSTORE POP DUP3 PUSH1 0x4 PUSH0 DUP3 DUP3 SLOAD PUSH2 0x133C SWAP2 SWAP1 PUSH2 0x1E6C JUMP JUMPDEST SWAP3 POP POP DUP2 SWAP1 SSTORE POP POP SWAP3 SWAP2 POP POP JUMP JUMPDEST PUSH1 0x6 SLOAD DUP2 JUMP JUMPDEST PUSH1 0x7 PUSH0 SWAP1 SLOAD SWAP1 PUSH2 0x100 EXP SWAP1 DIV PUSH20 0xFFFFFFFFFFFFFFFFFFFFFFFFFFFFFFFFFFFFFFFF AND PUSH20 0xFFFFFFFFFFFFFFFFFFFFFFFFFFFFFFFFFFFFFFFF AND CALLER PUSH20 0xFFFFFFFFFFFFFFFFFFFFFFFFFFFFFFFFFFFFFFFF AND EQ PUSH2 0x13DF JUMPI PUSH1 0x40 MLOAD PUSH32 0x8C379A000000000000000000000000000000000000000000000000000000000 DUP2 MSTORE PUSH1 0x4 ADD PUSH2 0x13D6 SWAP1 PUSH2 0x2485 JUMP JUMPDEST PUSH1 0x40 MLOAD DUP1 SWAP2 SUB SWAP1 REVERT JUMPDEST PUSH0 DUP2 GT PUSH2 0x1421 JUMPI PUSH1 0x40 MLOAD PUSH32 0x8C379A000000000000000000000000000000000000000000000000000000000 DUP2 MSTORE PUSH1 0x4 ADD PUSH2 0x1418 SWAP1 PUSH2 0x24ED JUMP JUMPDEST PUSH1 0x40 MLOAD DUP1 SWAP2 SUB SWAP1 REVERT JUMPDEST DUP1 PUSH1 0x5 DUP2 SWAP1 SSTORE POP POP JUMP JUMPDEST PUSH0 DUP1 DUP3 GT PUSH2 0x146E JUMPI PUSH1 0x40 MLOAD PUSH32 0x8C379A000000000000000000000000000000000000000000000000000000000 DUP2 MSTORE PUSH1 0x4 ADD PUSH2 0x1465 SWAP1 PUSH2 0x20DD JUMP JUMPDEST PUSH1 0x40 MLOAD DUP1 SWAP2 SUB SWAP1 REVERT JUMPDEST PUSH0 PUSH1 0x3 SLOAD GT PUSH2 0x14B2 JUMPI PUSH1 0x40 MLOAD PUSH32 0x8C379A000000000000000000000000000000000000000000000000000000000 DUP2 MSTORE PUSH1 0x4 ADD PUSH2 0x14A9 SWAP1 PUSH2 0x2145 JUMP JUMPDEST PUSH1 0x40 MLOAD DUP1 SWAP2 SUB SWAP1 REVERT JUMPDEST PUSH0 PUSH1 0x3 SLOAD PUSH8 0xDE0B6B3A7640000 PUSH1 0x4 SLOAD PUSH2 0x14CC SWAP2 SWAP1 PUSH2 0x1D33 JUMP JUMPDEST PUSH2 0x14D6 SWAP2 SWAP1 PUSH2 0x1DA1 JUMP JUMPDEST SWAP1 POP DUP1 PUSH8 0xDE0B6B3A7640000 DUP5 PUSH2 0x14ED SWAP2 SWAP1 PUSH2 0x1D33 JUMP JUMPDEST PUSH2 0x14F7 SWAP2 SWAP1 PUSH2 0x1DA1 JUMP JUMPDEST SWAP2 POP POP SWAP2 SWAP1 POP JUMP JUMPDEST PUSH1 0x5 SLOAD DUP2 JUMP JUMPDEST PUSH0 DUP1 DUP3 GT PUSH2 0x1548 JUMPI PUSH1 0x40 MLOAD PUSH32 0x8C379A000000000000000000000000000000000000000000000000000000000 DUP2 MSTORE PUSH1 0x4 ADD PUSH2 0x153F SWAP1 PUSH2 0x2075 JUMP JUMPDEST PUSH1 0x40 MLOAD DUP1 SWAP2 SUB SWAP1 REVERT JUMPDEST PUSH0 PUSH2 0x1552 DUP4 PUSH2 0x142B JUMP JUMPDEST SWAP1 POP PUSH0 DUP4 PUSH1 0x4 SLOAD PUSH2 0x1563 SWAP2 SWAP1 PUSH2 0x1E6C JUMP JUMPDEST SWAP1 POP PUSH0 PUSH1 0x4 SLOAD PUSH1 0x3 SLOAD PUSH2 0x1576 SWAP2 SWAP1 PUSH2 0x1D33 JUMP JUMPDEST SWAP1 POP PUSH0 DUP3 DUP3 PUSH2 0x1585 SWAP2 SWAP1 PUSH2 0x1DA1 JUMP JUMPDEST SWAP1 POP PUSH0 DUP2 PUSH1 0x3 SLOAD PUSH2 0x1596 SWAP2 SWAP1 PUSH2 0x1DD1 JUMP JUMPDEST SWAP1 POP PUSH0 DUP6 PUSH1 0x64 DUP4 PUSH2 0x15A7 SWAP2 SWAP1 PUSH2 0x1D33 JUMP JUMPDEST PUSH2 0x15B1 SWAP2 SWAP1 PUSH2 0x1DA1 JUMP JUMPDEST PUSH1 0x64 PUSH2 0x15BD SWAP2 SWAP1 PUSH2 0x1DD1 JUMP JUMPDEST SWAP1 POP DUP1 SWAP7 POP POP POP POP POP POP POP SWAP2 SWAP1 POP JUMP JUMPDEST PUSH0 PUSH1 0x2 PUSH0 SWAP1 SLOAD SWAP1 PUSH2 0x100 EXP SWAP1 DIV PUSH20 0xFFFFFFFFFFFFFFFFFFFFFFFFFFFFFFFFFFFFFFFF AND SWAP1 POP SWAP1 JUMP JUMPDEST PUSH1 0x3 SLOAD DUP2 JUMP JUMPDEST PUSH0 DUP1 DUP4 GT PUSH2 0x163E JUMPI PUSH1 0x40 MLOAD PUSH32 0x8C379A000000000000000000000000000000000000000000000000000000000 DUP2 MSTORE PUSH1 0x4 ADD PUSH2 0x1635 SWAP1 PUSH2 0x1C80 JUMP JUMPDEST PUSH1 0x40 MLOAD DUP1 SWAP2 SUB SWAP1 REVERT JUMPDEST PUSH0 PUSH1 0x5 SLOAD GT PUSH2 0x1682 JUMPI PUSH1 0x40 MLOAD PUSH32 0x8C379A000000000000000000000000000000000000000000000000000000000 DUP2 MSTORE PUSH1 0x4 ADD PUSH2 0x1679 SWAP1 PUSH2 0x1CE8 JUMP JUMPDEST PUSH1 0x40 MLOAD DUP1 SWAP2 SUB SWAP1 REVERT JUMPDEST PUSH0 PUSH1 0x64 PUSH1 0x6 SLOAD DUP6 PUSH2 0x1693 SWAP2 SWAP1 PUSH2 0x1D33 JUMP JUMPDEST PUSH2 0x169D SWAP2 SWAP1 PUSH2 0x1DA1 JUMP JUMPDEST SWAP1 POP PUSH0 DUP2 DUP6 PUSH2 0x16AC SWAP2 SWAP1 PUSH2 0x1DD1 JUMP JUMPDEST SWAP1 POP PUSH2 0x16B7 DUP2 PUSH2 0x874 JUMP JUMPDEST DUP5 GT PUSH2 0x16F8 JUMPI PUSH1 0x40 MLOAD PUSH32 0x8C379A000000000000000000000000000000000000000000000000000000000 DUP2 MSTORE PUSH1 0x4 ADD PUSH2 0x16EF SWAP1 PUSH2 0x1E4E JUMP JUMPDEST PUSH1 0x40 MLOAD DUP1 SWAP2 SUB SWAP1 REVERT JUMPDEST PUSH0 DUP2 PUSH1 0x3 SLOAD PUSH2 0x1707 SWAP2 SWAP1 PUSH2 0x1E6C JUMP JUMPDEST SWAP1 POP PUSH0 PUSH1 0x4 SLOAD PUSH1 0x3 SLOAD PUSH2 0x171A SWAP2 SWAP1 PUSH2 0x1D33 JUMP JUMPDEST SWAP1 POP PUSH0 DUP3 DUP3 PUSH2 0x1729 SWAP2 SWAP1 PUSH2 0x1DA1 JUMP JUMPDEST SWAP1 POP PUSH0 DUP2 PUSH1 0x4 SLOAD PUSH2 0x173A SWAP2 SWAP1 PUSH2 0x1DD1 JUMP JUMPDEST SWAP1 POP PUSH0 DUP1 SLOAD SWAP1 PUSH2 0x100 EXP SWAP1 DIV PUSH20 0xFFFFFFFFFFFFFFFFFFFFFFFFFFFFFFFFFFFFFFFF AND PUSH20 0xFFFFFFFFFFFFFFFFFFFFFFFFFFFFFFFFFFFFFFFF AND PUSH4 0x23B872DD CALLER ADDRESS DUP13 PUSH1 0x40 MLOAD DUP5 PUSH4 0xFFFFFFFF AND PUSH1 0xE0 SHL DUP2 MSTORE PUSH1 0x4 ADD PUSH2 0x1798 SWAP4 SWAP3 SWAP2 SWAP1 PUSH2 0x1E9F JUMP JUMPDEST PUSH1 0x20 PUSH1 0x40 MLOAD DUP1 DUP4 SUB DUP2 PUSH0 DUP8 GAS CALL ISZERO DUP1 ISZERO PUSH2 0x17B4 JUMPI RETURNDATASIZE PUSH0 DUP1 RETURNDATACOPY RETURNDATASIZE PUSH0 REVERT JUMPDEST POP POP POP POP PUSH1 0x40 MLOAD RETURNDATASIZE PUSH1 0x1F NOT PUSH1 0x1F DUP3 ADD AND DUP3 ADD DUP1 PUSH1 0x40 MSTORE POP DUP2 ADD SWAP1 PUSH2 0x17D8 SWAP2 SWAP1 PUSH2 0x1F09 JUMP JUMPDEST PUSH2 0x1817 JUMPI PUSH1 0x40 MLOAD PUSH32 0x8C379A000000000000000000000000000000000000000000000000000000000 DUP2 MSTORE PUSH1 0x4 ADD PUSH2 0x180E SWAP1 PUSH2 0x200D JUMP JUMPDEST PUSH1 0x40 MLOAD DUP1 SWAP2 SUB SWAP1 REVERT JUMPDEST PUSH1 0x1 PUSH0 SWAP1 SLOAD SWAP1 PUSH2 0x100 EXP SWAP1 DIV PUSH20 0xFFFFFFFFFFFFFFFFFFFFFFFFFFFFFFFFFFFFFFFF AND PUSH20 0xFFFFFFFFFFFFFFFFFFFFFFFFFFFFFFFFFFFFFFFF AND PUSH4 0xA9059CBB CALLER DUP4 PUSH1 0x40 MLOAD DUP4 PUSH4 0xFFFFFFFF AND PUSH1 0xE0 SHL DUP2 MSTORE PUSH1 0x4 ADD PUSH2 0x1873 SWAP3 SWAP2 SWAP1 PUSH2 0x1F9C JUMP JUMPDEST PUSH1 0x20 PUSH1 0x40 MLOAD DUP1 DUP4 SUB DUP2 PUSH0 DUP8 GAS CALL ISZERO DUP1 ISZERO PUSH2 0x188F JUMPI RETURNDATASIZE PUSH0 DUP1 RETURNDATACOPY RETURNDATASIZE PUSH0 REVERT JUMPDEST POP POP POP POP PUSH1 0x40 MLOAD RETURNDATASIZE PUSH1 0x1F NOT PUSH1 0x1F DUP3 ADD AND DUP3 ADD DUP1 PUSH1 0x40 MSTORE POP DUP2 ADD SWAP1 PUSH2 0x18B3 SWAP2 SWAP1 PUSH2 0x1F09 JUMP JUMPDEST PUSH2 0x18F2 JUMPI PUSH1 0x40 MLOAD PUSH32 0x8C379A000000000000000000000000000000000000000000000000000000000 DUP2 MSTORE PUSH1 0x4 ADD PUSH2 0x18E9 SWAP1 PUSH2 0x1F7E JUMP JUMPDEST PUSH1 0x40 MLOAD DUP1 SWAP2 SUB SWAP1 REVERT JUMPDEST DUP4 PUSH1 0x3 DUP2 SWAP1 SSTORE POP DUP2 PUSH1 0x4 DUP2 SWAP1 SSTORE POP DUP1 SWAP7 POP POP POP POP POP POP POP SWAP3 SWAP2 POP POP JUMP JUMPDEST PUSH0 PUSH1 0x3 DUP3 GT ISZERO PUSH2 0x1974 JUMPI DUP2 SWAP1 POP PUSH0 PUSH1 0x1 PUSH1 0x2 DUP5 PUSH2 0x192C SWAP2 SWAP1 PUSH2 0x1DA1 JUMP JUMPDEST PUSH2 0x1936 SWAP2 SWAP1 PUSH2 0x1E6C JUMP JUMPDEST SWAP1 POP JUMPDEST DUP2 DUP2 LT ISZERO PUSH2 0x196E JUMPI DUP1 SWAP2 POP PUSH1 0x2 DUP2 DUP3 DUP6 PUSH2 0x1953 SWAP2 SWAP1 PUSH2 0x1DA1 JUMP JUMPDEST PUSH2 0x195D SWAP2 SWAP1 PUSH2 0x1E6C JUMP JUMPDEST PUSH2 0x1967 SWAP2 SWAP1 PUSH2 0x1DA1 JUMP JUMPDEST SWAP1 POP PUSH2 0x1939 JUMP JUMPDEST POP PUSH2 0x1981 JUMP JUMPDEST PUSH0 DUP3 EQ PUSH2 0x1980 JUMPI PUSH1 0x1 SWAP1 POP JUMPDEST JUMPDEST SWAP2 SWAP1 POP JUMP JUMPDEST PUSH0 DUP2 DUP4 LT PUSH2 0x1994 JUMPI DUP2 PUSH2 0x1996 JUMP JUMPDEST DUP3 JUMPDEST SWAP1 POP SWAP3 SWAP2 POP POP JUMP JUMPDEST PUSH0 DUP1 REVERT JUMPDEST PUSH0 PUSH20 0xFFFFFFFFFFFFFFFFFFFFFFFFFFFFFFFFFFFFFFFF DUP3 AND SWAP1 POP SWAP2 SWAP1 POP JUMP JUMPDEST PUSH0 PUSH2 0x19CB DUP3 PUSH2 0x19A2 JUMP JUMPDEST SWAP1 POP SWAP2 SWAP1 POP JUMP JUMPDEST PUSH2 0x19DB DUP2 PUSH2 0x19C1 JUMP JUMPDEST DUP2 EQ PUSH2 0x19E5 JUMPI PUSH0 DUP1 REVERT JUMPDEST POP JUMP JUMPDEST PUSH0 DUP2 CALLDATALOAD SWAP1 POP PUSH2 0x19F6 DUP2 PUSH2 0x19D2 JUMP JUMPDEST SWAP3 SWAP2 POP POP JUMP JUMPDEST PUSH0 PUSH1 0x20 DUP3 DUP5 SUB SLT ISZERO PUSH2 0x1A11 JUMPI PUSH2 0x1A10 PUSH2 0x199E JUMP JUMPDEST JUMPDEST PUSH0 PUSH2 0x1A1E DUP5 DUP3 DUP6 ADD PUSH2 0x19E8 JUMP JUMPDEST SWAP2 POP POP SWAP3 SWAP2 POP POP JUMP JUMPDEST PUSH0 DUP2 SWAP1 POP SWAP2 SWAP1 POP JUMP JUMPDEST PUSH2 0x1A39 DUP2 PUSH2 0x1A27 JUMP JUMPDEST DUP3 MSTORE POP POP JUMP JUMPDEST PUSH0 PUSH1 0x20 DUP3 ADD SWAP1 POP PUSH2 0x1A52 PUSH0 DUP4 ADD DUP5 PUSH2 0x1A30 JUMP JUMPDEST SWAP3 SWAP2 POP POP JUMP JUMPDEST PUSH0 PUSH1 0x40 DUP3 ADD SWAP1 POP PUSH2 0x1A6B PUSH0 DUP4 ADD DUP6 PUSH2 0x1A30 JUMP JUMPDEST PUSH2 0x1A78 PUSH1 0x20 DUP4 ADD DUP5 PUSH2 0x1A30 JUMP JUMPDEST SWAP4 SWAP3 POP POP POP JUMP JUMPDEST PUSH0 DUP2 SWAP1 POP SWAP2 SWAP1 POP JUMP JUMPDEST PUSH0 PUSH2 0x1AA2 PUSH2 0x1A9D PUSH2 0x1A98 DUP5 PUSH2 0x19A2 JUMP JUMPDEST PUSH2 0x1A7F JUMP JUMPDEST PUSH2 0x19A2 JUMP JUMPDEST SWAP1 POP SWAP2 SWAP1 POP JUMP JUMPDEST PUSH0 PUSH2 0x1AB3 DUP3 PUSH2 0x1A88 JUMP JUMPDEST SWAP1 POP SWAP2 SWAP1 POP JUMP JUMPDEST PUSH0 PUSH2 0x1AC4 DUP3 PUSH2 0x1AA9 JUMP JUMPDEST SWAP1 POP SWAP2 SWAP1 POP JUMP JUMPDEST PUSH2 0x1AD4 DUP2 PUSH2 0x1ABA JUMP JUMPDEST DUP3 MSTORE POP POP JUMP JUMPDEST PUSH0 PUSH1 0x20 DUP3 ADD SWAP1 POP PUSH2 0x1AED PUSH0 DUP4 ADD DUP5 PUSH2 0x1ACB JUMP JUMPDEST SWAP3 SWAP2 POP POP JUMP JUMPDEST PUSH2 0x1AFC DUP2 PUSH2 0x1A27 JUMP JUMPDEST DUP2 EQ PUSH2 0x1B06 JUMPI PUSH0 DUP1 REVERT JUMPDEST POP JUMP JUMPDEST PUSH0 DUP2 CALLDATALOAD SWAP1 POP PUSH2 0x1B17 DUP2 PUSH2 0x1AF3 JUMP JUMPDEST SWAP3 SWAP2 POP POP JUMP JUMPDEST PUSH0 DUP1 PUSH1 0x40 DUP4 DUP6 SUB SLT ISZERO PUSH2 0x1B33 JUMPI PUSH2 0x1B32 PUSH2 0x199E JUMP JUMPDEST JUMPDEST PUSH0 PUSH2 0x1B40 DUP6 DUP3 DUP7 ADD PUSH2 0x1B09 JUMP JUMPDEST SWAP3 POP POP PUSH1 0x20 PUSH2 0x1B51 DUP6 DUP3 DUP7 ADD PUSH2 0x1B09 JUMP JUMPDEST SWAP2 POP POP SWAP3 POP SWAP3 SWAP1 POP JUMP JUMPDEST PUSH0 PUSH2 0x1B65 DUP3 PUSH2 0x1AA9 JUMP JUMPDEST SWAP1 POP SWAP2 SWAP1 POP JUMP JUMPDEST PUSH2 0x1B75 DUP2 PUSH2 0x1B5B JUMP JUMPDEST DUP3 MSTORE POP POP JUMP JUMPDEST PUSH0 PUSH1 0x20 DUP3 ADD SWAP1 POP PUSH2 0x1B8E PUSH0 DUP4 ADD DUP5 PUSH2 0x1B6C JUMP JUMPDEST SWAP3 SWAP2 POP POP JUMP JUMPDEST PUSH0 PUSH1 0x20 DUP3 DUP5 SUB SLT ISZERO PUSH2 0x1BA9 JUMPI PUSH2 0x1BA8 PUSH2 0x199E JUMP JUMPDEST JUMPDEST PUSH0 PUSH2 0x1BB6 DUP5 DUP3 DUP6 ADD PUSH2 0x1B09 JUMP JUMPDEST SWAP2 POP POP SWAP3 SWAP2 POP POP JUMP JUMPDEST PUSH2 0x1BC8 DUP2 PUSH2 0x19C1 JUMP JUMPDEST DUP3 MSTORE POP POP JUMP JUMPDEST PUSH0 PUSH1 0x20 DUP3 ADD SWAP1 POP PUSH2 0x1BE1 PUSH0 DUP4 ADD DUP5 PUSH2 0x1BBF JUMP JUMPDEST SWAP3 SWAP2 POP POP JUMP JUMPDEST PUSH0 DUP2 MLOAD SWAP1 POP PUSH2 0x1BF5 DUP2 PUSH2 0x1AF3 JUMP JUMPDEST SWAP3 SWAP2 POP POP JUMP JUMPDEST PUSH0 PUSH1 0x20 DUP3 DUP5 SUB SLT ISZERO PUSH2 0x1C10 JUMPI PUSH2 0x1C0F PUSH2 0x199E JUMP JUMPDEST JUMPDEST PUSH0 PUSH2 0x1C1D DUP5 DUP3 DUP6 ADD PUSH2 0x1BE7 JUMP JUMPDEST SWAP2 POP POP SWAP3 SWAP2 POP POP JUMP JUMPDEST PUSH0 DUP3 DUP3 MSTORE PUSH1 0x20 DUP3 ADD SWAP1 POP SWAP3 SWAP2 POP POP JUMP JUMPDEST PUSH32 0x496E76616C696420696E70757420616D6F756E74000000000000000000000000 PUSH0 DUP3 ADD MSTORE POP JUMP JUMPDEST PUSH0 PUSH2 0x1C6A PUSH1 0x14 DUP4 PUSH2 0x1C26 JUMP JUMPDEST SWAP2 POP PUSH2 0x1C75 DUP3 PUSH2 0x1C36 JUMP JUMPDEST PUSH1 0x20 DUP3 ADD SWAP1 POP SWAP2 SWAP1 POP JUMP JUMPDEST PUSH0 PUSH1 0x20 DUP3 ADD SWAP1 POP DUP2 DUP2 SUB PUSH0 DUP4 ADD MSTORE PUSH2 0x1C97 DUP2 PUSH2 0x1C5E JUMP JUMPDEST SWAP1 POP SWAP2 SWAP1 POP JUMP JUMPDEST PUSH32 0x457870656374656420736C697070616765206E6F742073657400000000000000 PUSH0 DUP3 ADD MSTORE POP JUMP JUMPDEST PUSH0 PUSH2 0x1CD2 PUSH1 0x19 DUP4 PUSH2 0x1C26 JUMP JUMPDEST SWAP2 POP PUSH2 0x1CDD DUP3 PUSH2 0x1C9E JUMP JUMPDEST PUSH1 0x20 DUP3 ADD SWAP1 POP SWAP2 SWAP1 POP JUMP JUMPDEST PUSH0 PUSH1 0x20 DUP3 ADD SWAP1 POP DUP2 DUP2 SUB PUSH0 DUP4 ADD MSTORE PUSH2 0x1CFF DUP2 PUSH2 0x1CC6 JUMP JUMPDEST SWAP1 POP SWAP2 SWAP1 POP JUMP JUMPDEST PUSH32 0x4E487B7100000000000000000000000000000000000000000000000000000000 PUSH0 MSTORE PUSH1 0x11 PUSH1 0x4 MSTORE PUSH1 0x24 PUSH0 REVERT JUMPDEST PUSH0 PUSH2 0x1D3D DUP3 PUSH2 0x1A27 JUMP JUMPDEST SWAP2 POP PUSH2 0x1D48 DUP4 PUSH2 0x1A27 JUMP JUMPDEST SWAP3 POP DUP3 DUP3 MUL PUSH2 0x1D56 DUP2 PUSH2 0x1A27 JUMP JUMPDEST SWAP2 POP DUP3 DUP3 DIV DUP5 EQ DUP4 ISZERO OR PUSH2 0x1D6D JUMPI PUSH2 0x1D6C PUSH2 0x1D06 JUMP JUMPDEST JUMPDEST POP SWAP3 SWAP2 POP POP JUMP JUMPDEST PUSH32 0x4E487B7100000000000000000000000000000000000000000000000000000000 PUSH0 MSTORE PUSH1 0x12 PUSH1 0x4 MSTORE PUSH1 0x24 PUSH0 REVERT JUMPDEST PUSH0 PUSH2 0x1DAB DUP3 PUSH2 0x1A27 JUMP JUMPDEST SWAP2 POP PUSH2 0x1DB6 DUP4 PUSH2 0x1A27 JUMP JUMPDEST SWAP3 POP DUP3 PUSH2 0x1DC6 JUMPI PUSH2 0x1DC5 PUSH2 0x1D74 JUMP JUMPDEST JUMPDEST DUP3 DUP3 DIV SWAP1 POP SWAP3 SWAP2 POP POP JUMP JUMPDEST PUSH0 PUSH2 0x1DDB DUP3 PUSH2 0x1A27 JUMP JUMPDEST SWAP2 POP PUSH2 0x1DE6 DUP4 PUSH2 0x1A27 JUMP JUMPDEST SWAP3 POP DUP3 DUP3 SUB SWAP1 POP DUP2 DUP2 GT ISZERO PUSH2 0x1DFE JUMPI PUSH2 0x1DFD PUSH2 0x1D06 JUMP JUMPDEST JUMPDEST SWAP3 SWAP2 POP POP JUMP JUMPDEST PUSH32 0x61637475616C20736C69707061676520697320746F6F20686967680000000000 PUSH0 DUP3 ADD MSTORE POP JUMP JUMPDEST PUSH0 PUSH2 0x1E38 PUSH1 0x1B DUP4 PUSH2 0x1C26 JUMP JUMPDEST SWAP2 POP PUSH2 0x1E43 DUP3 PUSH2 0x1E04 JUMP JUMPDEST PUSH1 0x20 DUP3 ADD SWAP1 POP SWAP2 SWAP1 POP JUMP JUMPDEST PUSH0 PUSH1 0x20 DUP3 ADD SWAP1 POP DUP2 DUP2 SUB PUSH0 DUP4 ADD MSTORE PUSH2 0x1E65 DUP2 PUSH2 0x1E2C JUMP JUMPDEST SWAP1 POP SWAP2 SWAP1 POP JUMP JUMPDEST PUSH0 PUSH2 0x1E76 DUP3 PUSH2 0x1A27 JUMP JUMPDEST SWAP2 POP PUSH2 0x1E81 DUP4 PUSH2 0x1A27 JUMP JUMPDEST SWAP3 POP DUP3 DUP3 ADD SWAP1 POP DUP1 DUP3 GT ISZERO PUSH2 0x1E99 JUMPI PUSH2 0x1E98 PUSH2 0x1D06 JUMP JUMPDEST JUMPDEST SWAP3 SWAP2 POP POP JUMP JUMPDEST PUSH0 PUSH1 0x60 DUP3 ADD SWAP1 POP PUSH2 0x1EB2 PUSH0 DUP4 ADD DUP7 PUSH2 0x1BBF JUMP JUMPDEST PUSH2 0x1EBF PUSH1 0x20 DUP4 ADD DUP6 PUSH2 0x1BBF JUMP JUMPDEST PUSH2 0x1ECC PUSH1 0x40 DUP4 ADD DUP5 PUSH2 0x1A30 JUMP JUMPDEST SWAP5 SWAP4 POP POP POP POP JUMP JUMPDEST PUSH0 DUP2 ISZERO ISZERO SWAP1 POP SWAP2 SWAP1 POP JUMP JUMPDEST PUSH2 0x1EE8 DUP2 PUSH2 0x1ED4 JUMP JUMPDEST DUP2 EQ PUSH2 0x1EF2 JUMPI PUSH0 DUP1 REVERT JUMPDEST POP JUMP JUMPDEST PUSH0 DUP2 MLOAD SWAP1 POP PUSH2 0x1F03 DUP2 PUSH2 0x1EDF JUMP JUMPDEST SWAP3 SWAP2 POP POP JUMP JUMPDEST PUSH0 PUSH1 0x20 DUP3 DUP5 SUB SLT ISZERO PUSH2 0x1F1E JUMPI PUSH2 0x1F1D PUSH2 0x199E JUMP JUMPDEST JUMPDEST PUSH0 PUSH2 0x1F2B DUP5 DUP3 DUP6 ADD PUSH2 0x1EF5 JUMP JUMPDEST SWAP2 POP POP SWAP3 SWAP2 POP POP JUMP JUMPDEST PUSH32 0x546F6B656E2042207472616E73666572206661696C6564000000000000000000 PUSH0 DUP3 ADD MSTORE POP JUMP JUMPDEST PUSH0 PUSH2 0x1F68 PUSH1 0x17 DUP4 PUSH2 0x1C26 JUMP JUMPDEST SWAP2 POP PUSH2 0x1F73 DUP3 PUSH2 0x1F34 JUMP JUMPDEST PUSH1 0x20 DUP3 ADD SWAP1 POP SWAP2 SWAP1 POP JUMP JUMPDEST PUSH0 PUSH1 0x20 DUP3 ADD SWAP1 POP DUP2 DUP2 SUB PUSH0 DUP4 ADD MSTORE PUSH2 0x1F95 DUP2 PUSH2 0x1F5C JUMP JUMPDEST SWAP1 POP SWAP2 SWAP1 POP JUMP JUMPDEST PUSH0 PUSH1 0x40 DUP3 ADD SWAP1 POP PUSH2 0x1FAF PUSH0 DUP4 ADD DUP6 PUSH2 0x1BBF JUMP JUMPDEST PUSH2 0x1FBC PUSH1 0x20 DUP4 ADD DUP5 PUSH2 0x1A30 JUMP JUMPDEST SWAP4 SWAP3 POP POP POP JUMP JUMPDEST PUSH32 0x546F6B656E2041207472616E73666572206661696C6564000000000000000000 PUSH0 DUP3 ADD MSTORE POP JUMP JUMPDEST PUSH0 PUSH2 0x1FF7 PUSH1 0x17 DUP4 PUSH2 0x1C26 JUMP JUMPDEST SWAP2 POP PUSH2 0x2002 DUP3 PUSH2 0x1FC3 JUMP JUMPDEST PUSH1 0x20 DUP3 ADD SWAP1 POP SWAP2 SWAP1 POP JUMP JUMPDEST PUSH0 PUSH1 0x20 DUP3 ADD SWAP1 POP DUP2 DUP2 SUB PUSH0 DUP4 ADD MSTORE PUSH2 0x2024 DUP2 PUSH2 0x1FEB JUMP JUMPDEST SWAP1 POP SWAP2 SWAP1 POP JUMP JUMPDEST PUSH32 0x6769766520636F72726563742076616C75650000000000000000000000000000 PUSH0 DUP3 ADD MSTORE POP JUMP JUMPDEST PUSH0 PUSH2 0x205F PUSH1 0x12 DUP4 PUSH2 0x1C26 JUMP JUMPDEST SWAP2 POP PUSH2 0x206A DUP3 PUSH2 0x202B JUMP JUMPDEST PUSH1 0x20 DUP3 ADD SWAP1 POP SWAP2 SWAP1 POP JUMP JUMPDEST PUSH0 PUSH1 0x20 DUP3 ADD SWAP1 POP DUP2 DUP2 SUB PUSH0 DUP4 ADD MSTORE PUSH2 0x208C DUP2 PUSH2 0x2053 JUMP JUMPDEST SWAP1 POP SWAP2 SWAP1 POP JUMP JUMPDEST PUSH32 0x496E76616C696420616D6F756E74000000000000000000000000000000000000 PUSH0 DUP3 ADD MSTORE POP JUMP JUMPDEST PUSH0 PUSH2 0x20C7 PUSH1 0xE DUP4 PUSH2 0x1C26 JUMP JUMPDEST SWAP2 POP PUSH2 0x20D2 DUP3 PUSH2 0x2093 JUMP JUMPDEST PUSH1 0x20 DUP3 ADD SWAP1 POP SWAP2 SWAP1 POP JUMP JUMPDEST PUSH0 PUSH1 0x20 DUP3 ADD SWAP1 POP DUP2 DUP2 SUB PUSH0 DUP4 ADD MSTORE PUSH2 0x20F4 DUP2 PUSH2 0x20BB JUMP JUMPDEST SWAP1 POP SWAP2 SWAP1 POP JUMP JUMPDEST PUSH32 0x496E73756666696369656E74206C697175696469747900000000000000000000 PUSH0 DUP3 ADD MSTORE POP JUMP JUMPDEST PUSH0 PUSH2 0x212F PUSH1 0x16 DUP4 PUSH2 0x1C26 JUMP JUMPDEST SWAP2 POP PUSH2 0x213A DUP3 PUSH2 0x20FB JUMP JUMPDEST PUSH1 0x20 DUP3 ADD SWAP1 POP SWAP2 SWAP1 POP JUMP JUMPDEST PUSH0 PUSH1 0x20 DUP3 ADD SWAP1 POP DUP2 DUP2 SUB PUSH0 DUP4 ADD MSTORE PUSH2 0x215C DUP2 PUSH2 0x2123 JUMP JUMPDEST SWAP1 POP SWAP2 SWAP1 POP JUMP JUMPDEST PUSH32 0x4E6F206C69717569646974790000000000000000000000000000000000000000 PUSH0 DUP3 ADD MSTORE POP JUMP JUMPDEST PUSH0 PUSH2 0x2197 PUSH1 0xC DUP4 PUSH2 0x1C26 JUMP JUMPDEST SWAP2 POP PUSH2 0x21A2 DUP3 PUSH2 0x2163 JUMP JUMPDEST PUSH1 0x20 DUP3 ADD SWAP1 POP SWAP2 SWAP1 POP JUMP JUMPDEST PUSH0 PUSH1 0x20 DUP3 ADD SWAP1 POP DUP2 DUP2 SUB PUSH0 DUP4 ADD MSTORE PUSH2 0x21C4 DUP2 PUSH2 0x218B JUMP JUMPDEST SWAP1 POP SWAP2 SWAP1 POP JUMP JUMPDEST PUSH32 0x496E76616C6964206C697175696469747920616D6F756E740000000000000000 PUSH0 DUP3 ADD MSTORE POP JUMP JUMPDEST PUSH0 PUSH2 0x21FF PUSH1 0x18 DUP4 PUSH2 0x1C26 JUMP JUMPDEST SWAP2 POP PUSH2 0x220A DUP3 PUSH2 0x21CB JUMP JUMPDEST PUSH1 0x20 DUP3 ADD SWAP1 POP SWAP2 SWAP1 POP JUMP JUMPDEST PUSH0 PUSH1 0x20 DUP3 ADD SWAP1 POP DUP2 DUP2 SUB PUSH0 DUP4 ADD MSTORE PUSH2 0x222C DUP2 PUSH2 0x21F3 JUMP JUMPDEST SWAP1 POP SWAP2 SWAP1 POP JUMP JUMPDEST PUSH32 0x4E6F7420656E6F756768204C5020746F6B656E73000000000000000000000000 PUSH0 DUP3 ADD MSTORE POP JUMP JUMPDEST PUSH0 PUSH2 0x2267 PUSH1 0x14 DUP4 PUSH2 0x1C26 JUMP JUMPDEST SWAP2 POP PUSH2 0x2272 DUP3 PUSH2 0x2233 JUMP JUMPDEST PUSH1 0x20 DUP3 ADD SWAP1 POP SWAP2 SWAP1 POP JUMP JUMPDEST PUSH0 PUSH1 0x20 DUP3 ADD SWAP1 POP DUP2 DUP2 SUB PUSH0 DUP4 ADD MSTORE PUSH2 0x2294 DUP2 PUSH2 0x225B JUMP JUMPDEST SWAP1 POP SWAP2 SWAP1 POP JUMP JUMPDEST PUSH32 0x496E73756666696369656E7420616D6F756E7420746F20776974686472617700 PUSH0 DUP3 ADD MSTORE POP JUMP JUMPDEST PUSH0 PUSH2 0x22CF PUSH1 0x1F DUP4 PUSH2 0x1C26 JUMP JUMPDEST SWAP2 POP PUSH2 0x22DA DUP3 PUSH2 0x229B JUMP JUMPDEST PUSH1 0x20 DUP3 ADD SWAP1 POP SWAP2 SWAP1 POP JUMP JUMPDEST PUSH0 PUSH1 0x20 DUP3 ADD SWAP1 POP DUP2 DUP2 SUB PUSH0 DUP4 ADD MSTORE PUSH2 0x22FC DUP2 PUSH2 0x22C3 JUMP JUMPDEST SWAP1 POP SWAP2 SWAP1 POP JUMP JUMPDEST PUSH32 0x496E76616C696420616D6F756E74730000000000000000000000000000000000 PUSH0 DUP3 ADD MSTORE POP JUMP JUMPDEST PUSH0 PUSH2 0x2337 PUSH1 0xF DUP4 PUSH2 0x1C26 JUMP JUMPDEST SWAP2 POP PUSH2 0x2342 DUP3 PUSH2 0x2303 JUMP JUMPDEST PUSH1 0x20 DUP3 ADD SWAP1 POP SWAP2 SWAP1 POP JUMP JUMPDEST PUSH0 PUSH1 0x20 DUP3 ADD SWAP1 POP DUP2 DUP2 SUB PUSH0 DUP4 ADD MSTORE PUSH2 0x2364 DUP2 PUSH2 0x232B JUMP JUMPDEST SWAP1 POP SWAP2 SWAP1 POP JUMP JUMPDEST PUSH32 0x546F6B656E41207472616E73666572206661696C656400000000000000000000 PUSH0 DUP3 ADD MSTORE POP JUMP JUMPDEST PUSH0 PUSH2 0x239F PUSH1 0x16 DUP4 PUSH2 0x1C26 JUMP JUMPDEST SWAP2 POP PUSH2 0x23AA DUP3 PUSH2 0x236B JUMP JUMPDEST PUSH1 0x20 DUP3 ADD SWAP1 POP SWAP2 SWAP1 POP JUMP JUMPDEST PUSH0 PUSH1 0x20 DUP3 ADD SWAP1 POP DUP2 DUP2 SUB PUSH0 DUP4 ADD MSTORE PUSH2 0x23CC DUP2 PUSH2 0x2393 JUMP JUMPDEST SWAP1 POP SWAP2 SWAP1 POP JUMP JUMPDEST PUSH32 0x546F6B656E42207472616E73666572206661696C656400000000000000000000 PUSH0 DUP3 ADD MSTORE POP JUMP JUMPDEST PUSH0 PUSH2 0x2407 PUSH1 0x16 DUP4 PUSH2 0x1C26 JUMP JUMPDEST SWAP2 POP PUSH2 0x2412 DUP3 PUSH2 0x23D3 JUMP JUMPDEST PUSH1 0x20 DUP3 ADD SWAP1 POP SWAP2 SWAP1 POP JUMP JUMPDEST PUSH0 PUSH1 0x20 DUP3 ADD SWAP1 POP DUP2 DUP2 SUB PUSH0 DUP4 ADD MSTORE PUSH2 0x2434 DUP2 PUSH2 0x23FB JUMP JUMPDEST SWAP1 POP SWAP2 SWAP1 POP JUMP JUMPDEST PUSH32 0x4E6F7420617574686F72697A6564000000000000000000000000000000000000 PUSH0 DUP3 ADD MSTORE POP JUMP JUMPDEST PUSH0 PUSH2 0x246F PUSH1 0xE DUP4 PUSH2 0x1C26 JUMP JUMPDEST SWAP2 POP PUSH2 0x247A DUP3 PUSH2 0x243B JUMP JUMPDEST PUSH1 0x20 DUP3 ADD SWAP1 POP SWAP2 SWAP1 POP JUMP JUMPDEST PUSH0 PUSH1 0x20 DUP3 ADD SWAP1 POP DUP2 DUP2 SUB PUSH0 DUP4 ADD MSTORE PUSH2 0x249C DUP2 PUSH2 0x2463 JUMP JUMPDEST SWAP1 POP SWAP2 SWAP1 POP JUMP JUMPDEST PUSH32 0x696E76616C696420736C69707061676500000000000000000000000000000000 PUSH0 DUP3 ADD MSTORE POP JUMP JUMPDEST PUSH0 PUSH2 0x24D7 PUSH1 0x10 DUP4 PUSH2 0x1C26 JUMP JUMPDEST SWAP2 POP PUSH2 0x24E2 DUP3 PUSH2 0x24A3 JUMP JUMPDEST PUSH1 0x20 DUP3 ADD SWAP1 POP SWAP2 SWAP1 POP JUMP JUMPDEST PUSH0 PUSH1 0x20 DUP3 ADD SWAP1 POP DUP2 DUP2 SUB PUSH0 DUP4 ADD MSTORE PUSH2 0x2504 DUP2 PUSH2 0x24CB JUMP JUMPDEST SWAP1 POP SWAP2 SWAP1 POP JUMP INVALID LOG2 PUSH5 0x6970667358 0x22 SLT KECCAK256 SHL PUSH1 0xAB 0xC1 0xC9 0x4D CODESIZE 0x28 EXP SWAP16 0xDA DUP3 XOR LOG1 RETURNDATACOPY PUSH26 0x229F8B3D19BC521922FFD7EDD514B2B464736F6C634300081A00 CALLER PUSH1 0x80 PUSH1 0x40 MSTORE CALLVALUE DUP1 ISZERO PUSH2 0xF JUMPI PUSH0 DUP1 REVERT JUMPDEST POP PUSH1 0x40 MLOAD DUP1 PUSH1 0x40 ADD PUSH1 0x40 MSTORE DUP1 PUSH1 0x18 DUP2 MSTORE PUSH1 0x20 ADD PUSH32 0x4C69717569646974792050726F766964657220546F6B656E0000000000000000 DUP2 MSTORE POP PUSH1 0x40 MLOAD DUP1 PUSH1 0x40 ADD PUSH1 0x40 MSTORE DUP1 PUSH1 0x3 DUP2 MSTORE PUSH1 0x20 ADD PUSH32 0x4C50540000000000000000000000000000000000000000000000000000000000 DUP2 MSTORE POP DUP2 PUSH1 0x3 SWAP1 DUP2 PUSH2 0x8B SWAP2 SWAP1 PUSH2 0x31D JUMP JUMPDEST POP DUP1 PUSH1 0x4 SWAP1 DUP2 PUSH2 0x9B SWAP2 SWAP1 PUSH2 0x31D JUMP JUMPDEST POP POP POP CALLER PUSH1 0x5 PUSH0 PUSH2 0x100 EXP DUP2 SLOAD DUP2 PUSH20 0xFFFFFFFFFFFFFFFFFFFFFFFFFFFFFFFFFFFFFFFF MUL NOT AND SWAP1 DUP4 PUSH20 0xFFFFFFFFFFFFFFFFFFFFFFFFFFFFFFFFFFFFFFFF AND MUL OR SWAP1 SSTORE POP PUSH2 0x3EC JUMP JUMPDEST PUSH0 DUP2 MLOAD SWAP1 POP SWAP2 SWAP1 POP JUMP JUMPDEST PUSH32 0x4E487B7100000000000000000000000000000000000000000000000000000000 PUSH0 MSTORE PUSH1 0x41 PUSH1 0x4 MSTORE PUSH1 0x24 PUSH0 REVERT JUMPDEST PUSH32 0x4E487B7100000000000000000000000000000000000000000000000000000000 PUSH0 MSTORE PUSH1 0x22 PUSH1 0x4 MSTORE PUSH1 0x24 PUSH0 REVERT JUMPDEST PUSH0 PUSH1 0x2 DUP3 DIV SWAP1 POP PUSH1 0x1 DUP3 AND DUP1 PUSH2 0x15E JUMPI PUSH1 0x7F DUP3 AND SWAP2 POP JUMPDEST PUSH1 0x20 DUP3 LT DUP2 SUB PUSH2 0x171 JUMPI PUSH2 0x170 PUSH2 0x11A JUMP JUMPDEST JUMPDEST POP SWAP2 SWAP1 POP JUMP JUMPDEST PUSH0 DUP2 SWAP1 POP DUP2 PUSH0 MSTORE PUSH1 0x20 PUSH0 KECCAK256 SWAP1 POP SWAP2 SWAP1 POP JUMP JUMPDEST PUSH0 PUSH1 0x20 PUSH1 0x1F DUP4 ADD DIV SWAP1 POP SWAP2 SWAP1 POP JUMP JUMPDEST PUSH0 DUP3 DUP3 SHL SWAP1 POP SWAP3 SWAP2 POP POP JUMP JUMPDEST PUSH0 PUSH1 0x8 DUP4 MUL PUSH2 0x1D3 PUSH32 0xFFFFFFFFFFFFFFFFFFFFFFFFFFFFFFFFFFFFFFFFFFFFFFFFFFFFFFFFFFFFFFFF DUP3 PUSH2 0x198 JUMP JUMPDEST PUSH2 0x1DD DUP7 DUP4 PUSH2 0x198 JUMP JUMPDEST SWAP6 POP DUP1 NOT DUP5 AND SWAP4 POP DUP1 DUP7 AND DUP5 OR SWAP3 POP POP POP SWAP4 SWAP3 POP POP POP JUMP JUMPDEST PUSH0 DUP2 SWAP1 POP SWAP2 SWAP1 POP JUMP JUMPDEST PUSH0 DUP2 SWAP1 POP SWAP2 SWAP1 POP JUMP JUMPDEST PUSH0 PUSH2 0x221 PUSH2 0x21C PUSH2 0x217 DUP5 PUSH2 0x1F5 JUMP JUMPDEST PUSH2 0x1FE JUMP JUMPDEST PUSH2 0x1F5 JUMP JUMPDEST SWAP1 POP SWAP2 SWAP1 POP JUMP JUMPDEST PUSH0 DUP2 SWAP1 POP SWAP2 SWAP1 POP JUMP JUMPDEST PUSH2 0x23A DUP4 PUSH2 0x207 JUMP JUMPDEST PUSH2 0x24E PUSH2 0x246 DUP3 PUSH2 0x228 JUMP JUMPDEST DUP5 DUP5 SLOAD PUSH2 0x1A4 JUMP JUMPDEST DUP3 SSTORE POP POP POP POP JUMP JUMPDEST PUSH0 SWAP1 JUMP JUMPDEST PUSH2 0x262 PUSH2 0x256 JUMP JUMPDEST PUSH2 0x26D DUP2 DUP5 DUP5 PUSH2 0x231 JUMP JUMPDEST POP POP POP JUMP JUMPDEST JUMPDEST DUP2 DUP2 LT ISZERO PUSH2 0x290 JUMPI PUSH2 0x285 PUSH0 DUP3 PUSH2 0x25A JUMP JUMPDEST PUSH1 0x1 DUP2 ADD SWAP1 POP PUSH2 0x273 JUMP JUMPDEST POP POP JUMP JUMPDEST PUSH1 0x1F DUP3 GT ISZERO PUSH2 0x2D5 JUMPI PUSH2 0x2A6 DUP2 PUSH2 0x177 JUMP JUMPDEST PUSH2 0x2AF DUP5 PUSH2 0x189 JUMP JUMPDEST DUP2 ADD PUSH1 0x20 DUP6 LT ISZERO PUSH2 0x2BE JUMPI DUP2 SWAP1 POP JUMPDEST PUSH2 0x2D2 PUSH2 0x2CA DUP6 PUSH2 0x189 JUMP JUMPDEST DUP4 ADD DUP3 PUSH2 0x272 JUMP JUMPDEST POP POP JUMPDEST POP POP POP JUMP JUMPDEST PUSH0 DUP3 DUP3 SHR SWAP1 POP SWAP3 SWAP2 POP POP JUMP JUMPDEST PUSH0 PUSH2 0x2F5 PUSH0 NOT DUP5 PUSH1 0x8 MUL PUSH2 0x2DA JUMP JUMPDEST NOT DUP1 DUP4 AND SWAP2 POP POP SWAP3 SWAP2 POP POP JUMP JUMPDEST PUSH0 PUSH2 0x30D DUP4 DUP4 PUSH2 0x2E6 JUMP JUMPDEST SWAP2 POP DUP3 PUSH1 0x2 MUL DUP3 OR SWAP1 POP SWAP3 SWAP2 POP POP JUMP JUMPDEST PUSH2 0x326 DUP3 PUSH2 0xE3 JUMP JUMPDEST PUSH8 0xFFFFFFFFFFFFFFFF DUP2 GT ISZERO PUSH2 0x33F JUMPI PUSH2 0x33E PUSH2 0xED JUMP JUMPDEST JUMPDEST PUSH2 0x349 DUP3 SLOAD PUSH2 0x147 JUMP JUMPDEST PUSH2 0x354 DUP3 DUP3 DUP6 PUSH2 0x294 JUMP JUMPDEST PUSH0 PUSH1 0x20 SWAP1 POP PUSH1 0x1F DUP4 GT PUSH1 0x1 DUP2 EQ PUSH2 0x385 JUMPI PUSH0 DUP5 ISZERO PUSH2 0x373 JUMPI DUP3 DUP8 ADD MLOAD SWAP1 POP JUMPDEST PUSH2 0x37D DUP6 DUP3 PUSH2 0x302 JUMP JUMPDEST DUP7 SSTORE POP PUSH2 0x3E4 JUMP JUMPDEST PUSH1 0x1F NOT DUP5 AND PUSH2 0x393 DUP7 PUSH2 0x177 JUMP JUMPDEST PUSH0 JUMPDEST DUP3 DUP2 LT ISZERO PUSH2 0x3BA JUMPI DUP5 DUP10 ADD MLOAD DUP3 SSTORE PUSH1 0x1 DUP3 ADD SWAP2 POP PUSH1 0x20 DUP6 ADD SWAP5 POP PUSH1 0x20 DUP2 ADD SWAP1 POP PUSH2 0x395 JUMP JUMPDEST DUP7 DUP4 LT ISZERO PUSH2 0x3D7 JUMPI DUP5 DUP10 ADD MLOAD PUSH2 0x3D3 PUSH1 0x1F DUP10 AND DUP3 PUSH2 0x2E6 JUMP JUMPDEST DUP4 SSTORE POP JUMPDEST PUSH1 0x1 PUSH1 0x2 DUP9 MUL ADD DUP9 SSTORE POP POP POP JUMPDEST POP POP POP POP POP POP JUMP JUMPDEST PUSH2 0x1186 DUP1 PUSH2 0x3F9 PUSH0 CODECOPY PUSH0 RETURN INVALID PUSH1 0x80 PUSH1 0x40 MSTORE CALLVALUE DUP1 ISZERO PUSH2 0xF JUMPI PUSH0 DUP1 REVERT JUMPDEST POP PUSH1 0x4 CALLDATASIZE LT PUSH2 0xB2 JUMPI PUSH0 CALLDATALOAD PUSH1 0xE0 SHR DUP1 PUSH4 0x40C10F19 GT PUSH2 0x6F JUMPI DUP1 PUSH4 0x40C10F19 EQ PUSH2 0x18E JUMPI DUP1 PUSH4 0x70A08231 EQ PUSH2 0x1AA JUMPI DUP1 PUSH4 0x95D89B41 EQ PUSH2 0x1DA JUMPI DUP1 PUSH4 0x9DC29FAC EQ PUSH2 0x1F8 JUMPI DUP1 PUSH4 0xA9059CBB EQ PUSH2 0x214 JUMPI DUP1 PUSH4 0xDD62ED3E EQ PUSH2 0x244 JUMPI PUSH2 0xB2 JUMP JUMPDEST DUP1 PUSH4 0x6FDDE03 EQ PUSH2 0xB6 JUMPI DUP1 PUSH4 0x95EA7B3 EQ PUSH2 0xD4 JUMPI DUP1 PUSH4 0x16F0115B EQ PUSH2 0x104 JUMPI DUP1 PUSH4 0x18160DDD EQ PUSH2 0x122 JUMPI DUP1 PUSH4 0x23B872DD EQ PUSH2 0x140 JUMPI DUP1 PUSH4 0x313CE567 EQ PUSH2 0x170 JUMPI JUMPDEST PUSH0 DUP1 REVERT JUMPDEST PUSH2 0xBE PUSH2 0x274 JUMP JUMPDEST PUSH1 0x40 MLOAD PUSH2 0xCB SWAP2 SWAP1 PUSH2 0xD2F JUMP JUMPDEST PUSH1 0x40 MLOAD DUP1 SWAP2 SUB SWAP1 RETURN JUMPDEST PUSH2 0xEE PUSH1 0x4 DUP1 CALLDATASIZE SUB DUP2 ADD SWAP1 PUSH2 0xE9 SWAP2 SWAP1 PUSH2 0xDE0 JUMP JUMPDEST PUSH2 0x304 JUMP JUMPDEST PUSH1 0x40 MLOAD PUSH2 0xFB SWAP2 SWAP1 PUSH2 0xE38 JUMP JUMPDEST PUSH1 0x40 MLOAD DUP1 SWAP2 SUB SWAP1 RETURN JUMPDEST PUSH2 0x10C PUSH2 0x326 JUMP JUMPDEST PUSH1 0x40 MLOAD PUSH2 0x119 SWAP2 SWAP1 PUSH2 0xE60 JUMP JUMPDEST PUSH1 0x40 MLOAD DUP1 SWAP2 SUB SWAP1 RETURN JUMPDEST PUSH2 0x12A PUSH2 0x34B JUMP JUMPDEST PUSH1 0x40 MLOAD PUSH2 0x137 SWAP2 SWAP1 PUSH2 0xE88 JUMP JUMPDEST PUSH1 0x40 MLOAD DUP1 SWAP2 SUB SWAP1 RETURN JUMPDEST PUSH2 0x15A PUSH1 0x4 DUP1 CALLDATASIZE SUB DUP2 ADD SWAP1 PUSH2 0x155 SWAP2 SWAP1 PUSH2 0xEA1 JUMP JUMPDEST PUSH2 0x354 JUMP JUMPDEST PUSH1 0x40 MLOAD PUSH2 0x167 SWAP2 SWAP1 PUSH2 0xE38 JUMP JUMPDEST PUSH1 0x40 MLOAD DUP1 SWAP2 SUB SWAP1 RETURN JUMPDEST PUSH2 0x178 PUSH2 0x382 JUMP JUMPDEST PUSH1 0x40 MLOAD PUSH2 0x185 SWAP2 SWAP1 PUSH2 0xF0C JUMP JUMPDEST PUSH1 0x40 MLOAD DUP1 SWAP2 SUB SWAP1 RETURN JUMPDEST PUSH2 0x1A8 PUSH1 0x4 DUP1 CALLDATASIZE SUB DUP2 ADD SWAP1 PUSH2 0x1A3 SWAP2 SWAP1 PUSH2 0xDE0 JUMP JUMPDEST PUSH2 0x38A JUMP JUMPDEST STOP JUMPDEST PUSH2 0x1C4 PUSH1 0x4 DUP1 CALLDATASIZE SUB DUP2 ADD SWAP1 PUSH2 0x1BF SWAP2 SWAP1 PUSH2 0xF25 JUMP JUMPDEST PUSH2 0x427 JUMP JUMPDEST PUSH1 0x40 MLOAD PUSH2 0x1D1 SWAP2 SWAP1 PUSH2 0xE88 JUMP JUMPDEST PUSH1 0x40 MLOAD DUP1 SWAP2 SUB SWAP1 RETURN JUMPDEST PUSH2 0x1E2 PUSH2 0x46C JUMP JUMPDEST PUSH1 0x40 MLOAD PUSH2 0x1EF SWAP2 SWAP1 PUSH2 0xD2F JUMP JUMPDEST PUSH1 0x40 MLOAD DUP1 SWAP2 SUB SWAP1 RETURN JUMPDEST PUSH2 0x212 PUSH1 0x4 DUP1 CALLDATASIZE SUB DUP2 ADD SWAP1 PUSH2 0x20D SWAP2 SWAP1 PUSH2 0xDE0 JUMP JUMPDEST PUSH2 0x4FC JUMP JUMPDEST STOP JUMPDEST PUSH2 0x22E PUSH1 0x4 DUP1 CALLDATASIZE SUB DUP2 ADD SWAP1 PUSH2 0x229 SWAP2 SWAP1 PUSH2 0xDE0 JUMP JUMPDEST PUSH2 0x599 JUMP JUMPDEST PUSH1 0x40 MLOAD PUSH2 0x23B SWAP2 SWAP1 PUSH2 0xE38 JUMP JUMPDEST PUSH1 0x40 MLOAD DUP1 SWAP2 SUB SWAP1 RETURN JUMPDEST PUSH2 0x25E PUSH1 0x4 DUP1 CALLDATASIZE SUB DUP2 ADD SWAP1 PUSH2 0x259 SWAP2 SWAP1 PUSH2 0xF50 JUMP JUMPDEST PUSH2 0x5BB JUMP JUMPDEST PUSH1 0x40 MLOAD PUSH2 0x26B SWAP2 SWAP1 PUSH2 0xE88 JUMP JUMPDEST PUSH1 0x40 MLOAD DUP1 SWAP2 SUB SWAP1 RETURN JUMPDEST PUSH1 0x60 PUSH1 0x3 DUP1 SLOAD PUSH2 0x283 SWAP1 PUSH2 0xFBB JUMP JUMPDEST DUP1 PUSH1 0x1F ADD PUSH1 0x20 DUP1 SWAP2 DIV MUL PUSH1 0x20 ADD PUSH1 0x40 MLOAD SWAP1 DUP2 ADD PUSH1 0x40 MSTORE DUP1 SWAP3 SWAP2 SWAP1 DUP2 DUP2 MSTORE PUSH1 0x20 ADD DUP3 DUP1 SLOAD PUSH2 0x2AF SWAP1 PUSH2 0xFBB JUMP JUMPDEST DUP1 ISZERO PUSH2 0x2FA JUMPI DUP1 PUSH1 0x1F LT PUSH2 0x2D1 JUMPI PUSH2 0x100 DUP1 DUP4 SLOAD DIV MUL DUP4 MSTORE SWAP2 PUSH1 0x20 ADD SWAP2 PUSH2 0x2FA JUMP JUMPDEST DUP3 ADD SWAP2 SWAP1 PUSH0 MSTORE PUSH1 0x20 PUSH0 KECCAK256 SWAP1 JUMPDEST DUP2 SLOAD DUP2 MSTORE SWAP1 PUSH1 0x1 ADD SWAP1 PUSH1 0x20 ADD DUP1 DUP4 GT PUSH2 0x2DD JUMPI DUP3 SWAP1 SUB PUSH1 0x1F AND DUP3 ADD SWAP2 JUMPDEST POP POP POP POP POP SWAP1 POP SWAP1 JUMP JUMPDEST PUSH0 DUP1 PUSH2 0x30E PUSH2 0x63D JUMP JUMPDEST SWAP1 POP PUSH2 0x31B DUP2 DUP6 DUP6 PUSH2 0x644 JUMP JUMPDEST PUSH1 0x1 SWAP2 POP POP SWAP3 SWAP2 POP POP JUMP JUMPDEST PUSH1 0x5 PUSH0 SWAP1 SLOAD SWAP1 PUSH2 0x100 EXP SWAP1 DIV PUSH20 0xFFFFFFFFFFFFFFFFFFFFFFFFFFFFFFFFFFFFFFFF AND DUP2 JUMP JUMPDEST PUSH0 PUSH1 0x2 SLOAD SWAP1 POP SWAP1 JUMP JUMPDEST PUSH0 DUP1 PUSH2 0x35E PUSH2 0x63D JUMP JUMPDEST SWAP1 POP PUSH2 0x36B DUP6 DUP3 DUP6 PUSH2 0x656 JUMP JUMPDEST PUSH2 0x376 DUP6 DUP6 DUP6 PUSH2 0x6E9 JUMP JUMPDEST PUSH1 0x1 SWAP2 POP POP SWAP4 SWAP3 POP POP POP JUMP JUMPDEST PUSH0 PUSH1 0x12 SWAP1 POP SWAP1 JUMP JUMPDEST PUSH1 0x5 PUSH0 SWAP1 SLOAD SWAP1 PUSH2 0x100 EXP SWAP1 DIV PUSH20 0xFFFFFFFFFFFFFFFFFFFFFFFFFFFFFFFFFFFFFFFF AND PUSH20 0xFFFFFFFFFFFFFFFFFFFFFFFFFFFFFFFFFFFFFFFF AND CALLER PUSH20 0xFFFFFFFFFFFFFFFFFFFFFFFFFFFFFFFFFFFFFFFF AND EQ PUSH2 0x419 JUMPI PUSH1 0x40 MLOAD PUSH32 0x8C379A000000000000000000000000000000000000000000000000000000000 DUP2 MSTORE PUSH1 0x4 ADD PUSH2 0x410 SWAP1 PUSH2 0x1035 JUMP JUMPDEST PUSH1 0x40 MLOAD DUP1 SWAP2 SUB SWAP1 REVERT JUMPDEST PUSH2 0x423 DUP3 DUP3 PUSH2 0x7D9 JUMP JUMPDEST POP POP JUMP JUMPDEST PUSH0 DUP1 PUSH0 DUP4 PUSH20 0xFFFFFFFFFFFFFFFFFFFFFFFFFFFFFFFFFFFFFFFF AND PUSH20 0xFFFFFFFFFFFFFFFFFFFFFFFFFFFFFFFFFFFFFFFF AND DUP2 MSTORE PUSH1 0x20 ADD SWAP1 DUP2 MSTORE PUSH1 0x20 ADD PUSH0 KECCAK256 SLOAD SWAP1 POP SWAP2 SWAP1 POP JUMP JUMPDEST PUSH1 0x60 PUSH1 0x4 DUP1 SLOAD PUSH2 0x47B SWAP1 PUSH2 0xFBB JUMP JUMPDEST DUP1 PUSH1 0x1F ADD PUSH1 0x20 DUP1 SWAP2 DIV MUL PUSH1 0x20 ADD PUSH1 0x40 MLOAD SWAP1 DUP2 ADD PUSH1 0x40 MSTORE DUP1 SWAP3 SWAP2 SWAP1 DUP2 DUP2 MSTORE PUSH1 0x20 ADD DUP3 DUP1 SLOAD PUSH2 0x4A7 SWAP1 PUSH2 0xFBB JUMP JUMPDEST DUP1 ISZERO PUSH2 0x4F2 JUMPI DUP1 PUSH1 0x1F LT PUSH2 0x4C9 JUMPI PUSH2 0x100 DUP1 DUP4 SLOAD DIV MUL DUP4 MSTORE SWAP2 PUSH1 0x20 ADD SWAP2 PUSH2 0x4F2 JUMP JUMPDEST DUP3 ADD SWAP2 SWAP1 PUSH0 MSTORE PUSH1 0x20 PUSH0 KECCAK256 SWAP1 JUMPDEST DUP2 SLOAD DUP2 MSTORE SWAP1 PUSH1 0x1 ADD SWAP1 PUSH1 0x20 ADD DUP1 DUP4 GT PUSH2 0x4D5 JUMPI DUP3 SWAP1 SUB PUSH1 0x1F AND DUP3 ADD SWAP2 JUMPDEST POP POP POP POP POP SWAP1 POP SWAP1 JUMP JUMPDEST PUSH1 0x5 PUSH0 SWAP1 SLOAD SWAP1 PUSH2 0x100 EXP SWAP1 DIV PUSH20 0xFFFFFFFFFFFFFFFFFFFFFFFFFFFFFFFFFFFFFFFF AND PUSH20 0xFFFFFFFFFFFFFFFFFFFFFFFFFFFFFFFFFFFFFFFF AND CALLER PUSH20 0xFFFFFFFFFFFFFFFFFFFFFFFFFFFFFFFFFFFFFFFF AND EQ PUSH2 0x58B JUMPI PUSH1 0x40 MLOAD PUSH32 0x8C379A000000000000000000000000000000000000000000000000000000000 DUP2 MSTORE PUSH1 0x4 ADD PUSH2 0x582 SWAP1 PUSH2 0x109D JUMP JUMPDEST PUSH1 0x40 MLOAD DUP1 SWAP2 SUB SWAP1 REVERT JUMPDEST PUSH2 0x595 DUP3 DUP3 PUSH2 0x858 JUMP JUMPDEST POP POP JUMP JUMPDEST PUSH0 DUP1 PUSH2 0x5A3 PUSH2 0x63D JUMP JUMPDEST SWAP1 POP PUSH2 0x5B0 DUP2 DUP6 DUP6 PUSH2 0x6E9 JUMP JUMPDEST PUSH1 0x1 SWAP2 POP POP SWAP3 SWAP2 POP POP JUMP JUMPDEST PUSH0 PUSH1 0x1 PUSH0 DUP5 PUSH20 0xFFFFFFFFFFFFFFFFFFFFFFFFFFFFFFFFFFFFFFFF AND PUSH20 0xFFFFFFFFFFFFFFFFFFFFFFFFFFFFFFFFFFFFFFFF AND DUP2 MSTORE PUSH1 0x20 ADD SWAP1 DUP2 MSTORE PUSH1 0x20 ADD PUSH0 KECCAK256 PUSH0 DUP4 PUSH20 0xFFFFFFFFFFFFFFFFFFFFFFFFFFFFFFFFFFFFFFFF AND PUSH20 0xFFFFFFFFFFFFFFFFFFFFFFFFFFFFFFFFFFFFFFFF AND DUP2 MSTORE PUSH1 0x20 ADD SWAP1 DUP2 MSTORE PUSH1 0x20 ADD PUSH0 KECCAK256 SLOAD SWAP1 POP SWAP3 SWAP2 POP POP JUMP JUMPDEST PUSH0 CALLER SWAP1 POP SWAP1 JUMP JUMPDEST PUSH2 0x651 DUP4 DUP4 DUP4 PUSH1 0x1 PUSH2 0x8D7 JUMP JUMPDEST POP POP POP JUMP JUMPDEST PUSH0 PUSH2 0x661 DUP5 DUP5 PUSH2 0x5BB JUMP JUMPDEST SWAP1 POP PUSH32 0xFFFFFFFFFFFFFFFFFFFFFFFFFFFFFFFFFFFFFFFFFFFFFFFFFFFFFFFFFFFFFFFF DUP2 LT ISZERO PUSH2 0x6E3 JUMPI DUP2 DUP2 LT ISZERO PUSH2 0x6D4 JUMPI DUP3 DUP2 DUP4 PUSH1 0x40 MLOAD PUSH32 0xFB8F41B200000000000000000000000000000000000000000000000000000000 DUP2 MSTORE PUSH1 0x4 ADD PUSH2 0x6CB SWAP4 SWAP3 SWAP2 SWAP1 PUSH2 0x10BB JUMP JUMPDEST PUSH1 0x40 MLOAD DUP1 SWAP2 SUB SWAP1 REVERT JUMPDEST PUSH2 0x6E2 DUP5 DUP5 DUP5 DUP5 SUB PUSH0 PUSH2 0x8D7 JUMP JUMPDEST JUMPDEST POP POP POP POP JUMP JUMPDEST PUSH0 PUSH20 0xFFFFFFFFFFFFFFFFFFFFFFFFFFFFFFFFFFFFFFFF AND DUP4 PUSH20 0xFFFFFFFFFFFFFFFFFFFFFFFFFFFFFFFFFFFFFFFF AND SUB PUSH2 0x759 JUMPI PUSH0 PUSH1 0x40 MLOAD PUSH32 0x96C6FD1E00000000000000000000000000000000000000000000000000000000 DUP2 MSTORE PUSH1 0x4 ADD PUSH2 0x750 SWAP2 SWAP1 PUSH2 0xE60 JUMP JUMPDEST PUSH1 0x40 MLOAD DUP1 SWAP2 SUB SWAP1 REVERT JUMPDEST PUSH0 PUSH20 0xFFFFFFFFFFFFFFFFFFFFFFFFFFFFFFFFFFFFFFFF AND DUP3 PUSH20 0xFFFFFFFFFFFFFFFFFFFFFFFFFFFFFFFFFFFFFFFF AND SUB PUSH2 0x7C9 JUMPI PUSH0 PUSH1 0x40 MLOAD PUSH32 0xEC442F0500000000000000000000000000000000000000000000000000000000 DUP2 MSTORE PUSH1 0x4 ADD PUSH2 0x7C0 SWAP2 SWAP1 PUSH2 0xE60 JUMP JUMPDEST PUSH1 0x40 MLOAD DUP1 SWAP2 SUB SWAP1 REVERT JUMPDEST PUSH2 0x7D4 DUP4 DUP4 DUP4 PUSH2 0xAA6 JUMP JUMPDEST POP POP POP JUMP JUMPDEST PUSH0 PUSH20 0xFFFFFFFFFFFFFFFFFFFFFFFFFFFFFFFFFFFFFFFF AND DUP3 PUSH20 0xFFFFFFFFFFFFFFFFFFFFFFFFFFFFFFFFFFFFFFFF AND SUB PUSH2 0x849 JUMPI PUSH0 PUSH1 0x40 MLOAD PUSH32 0xEC442F0500000000000000000000000000000000000000000000000000000000 DUP2 MSTORE PUSH1 0x4 ADD PUSH2 0x840 SWAP2 SWAP1 PUSH2 0xE60 JUMP JUMPDEST PUSH1 0x40 MLOAD DUP1 SWAP2 SUB SWAP1 REVERT JUMPDEST PUSH2 0x854 PUSH0 DUP4 DUP4 PUSH2 0xAA6 JUMP JUMPDEST POP POP JUMP JUMPDEST PUSH0 PUSH20 0xFFFFFFFFFFFFFFFFFFFFFFFFFFFFFFFFFFFFFFFF AND DUP3 PUSH20 0xFFFFFFFFFFFFFFFFFFFFFFFFFFFFFFFFFFFFFFFF AND SUB PUSH2 0x8C8 JUMPI PUSH0 PUSH1 0x40 MLOAD PUSH32 0x96C6FD1E00000000000000000000000000000000000000000000000000000000 DUP2 MSTORE PUSH1 0x4 ADD PUSH2 0x8BF SWAP2 SWAP1 PUSH2 0xE60 JUMP JUMPDEST PUSH1 0x40 MLOAD DUP1 SWAP2 SUB SWAP1 REVERT JUMPDEST PUSH2 0x8D3 DUP3 PUSH0 DUP4 PUSH2 0xAA6 JUMP JUMPDEST POP POP JUMP JUMPDEST PUSH0 PUSH20 0xFFFFFFFFFFFFFFFFFFFFFFFFFFFFFFFFFFFFFFFF AND DUP5 PUSH20 0xFFFFFFFFFFFFFFFFFFFFFFFFFFFFFFFFFFFFFFFF AND SUB PUSH2 0x947 JUMPI PUSH0 PUSH1 0x40 MLOAD PUSH32 0xE602DF0500000000000000000000000000000000000000000000000000000000 DUP2 MSTORE PUSH1 0x4 ADD PUSH2 0x93E SWAP2 SWAP1 PUSH2 0xE60 JUMP JUMPDEST PUSH1 0x40 MLOAD DUP1 SWAP2 SUB SWAP1 REVERT JUMPDEST PUSH0 PUSH20 0xFFFFFFFFFFFFFFFFFFFFFFFFFFFFFFFFFFFFFFFF AND DUP4 PUSH20 0xFFFFFFFFFFFFFFFFFFFFFFFFFFFFFFFFFFFFFFFF AND SUB PUSH2 0x9B7 JUMPI PUSH0 PUSH1 0x40 MLOAD PUSH32 0x94280D6200000000000000000000000000000000000000000000000000000000 DUP2 MSTORE PUSH1 0x4 ADD PUSH2 0x9AE SWAP2 SWAP1 PUSH2 0xE60 JUMP JUMPDEST PUSH1 0x40 MLOAD DUP1 SWAP2 SUB SWAP1 REVERT JUMPDEST DUP2 PUSH1 0x1 PUSH0 DUP7 PUSH20 0xFFFFFFFFFFFFFFFFFFFFFFFFFFFFFFFFFFFFFFFF AND PUSH20 0xFFFFFFFFFFFFFFFFFFFFFFFFFFFFFFFFFFFFFFFF AND DUP2 MSTORE PUSH1 0x20 ADD SWAP1 DUP2 MSTORE PUSH1 0x20 ADD PUSH0 KECCAK256 PUSH0 DUP6 PUSH20 0xFFFFFFFFFFFFFFFFFFFFFFFFFFFFFFFFFFFFFFFF AND PUSH20 0xFFFFFFFFFFFFFFFFFFFFFFFFFFFFFFFFFFFFFFFF AND DUP2 MSTORE PUSH1 0x20 ADD SWAP1 DUP2 MSTORE PUSH1 0x20 ADD PUSH0 KECCAK256 DUP2 SWAP1 SSTORE POP DUP1 ISZERO PUSH2 0xAA0 JUMPI DUP3 PUSH20 0xFFFFFFFFFFFFFFFFFFFFFFFFFFFFFFFFFFFFFFFF AND DUP5 PUSH20 0xFFFFFFFFFFFFFFFFFFFFFFFFFFFFFFFFFFFFFFFF AND PUSH32 0x8C5BE1E5EBEC7D5BD14F71427D1E84F3DD0314C0F7B2291E5B200AC8C7C3B925 DUP5 PUSH1 0x40 MLOAD PUSH2 0xA97 SWAP2 SWAP1 PUSH2 0xE88 JUMP JUMPDEST PUSH1 0x40 MLOAD DUP1 SWAP2 SUB SWAP1 LOG3 JUMPDEST POP POP POP POP JUMP JUMPDEST PUSH0 PUSH20 0xFFFFFFFFFFFFFFFFFFFFFFFFFFFFFFFFFFFFFFFF AND DUP4 PUSH20 0xFFFFFFFFFFFFFFFFFFFFFFFFFFFFFFFFFFFFFFFF AND SUB PUSH2 0xAF6 JUMPI DUP1 PUSH1 0x2 PUSH0 DUP3 DUP3 SLOAD PUSH2 0xAEA SWAP2 SWAP1 PUSH2 0x111D JUMP JUMPDEST SWAP3 POP POP DUP2 SWAP1 SSTORE POP PUSH2 0xBC4 JUMP JUMPDEST PUSH0 DUP1 PUSH0 DUP6 PUSH20 0xFFFFFFFFFFFFFFFFFFFFFFFFFFFFFFFFFFFFFFFF AND PUSH20 0xFFFFFFFFFFFFFFFFFFFFFFFFFFFFFFFFFFFFFFFF AND DUP2 MSTORE PUSH1 0x20 ADD SWAP1 DUP2 MSTORE PUSH1 0x20 ADD PUSH0 KECCAK256 SLOAD SWAP1 POP DUP2 DUP2 LT ISZERO PUSH2 0xB7F JUMPI DUP4 DUP2 DUP4 PUSH1 0x40 MLOAD PUSH32 0xE450D38C00000000000000000000000000000000000000000000000000000000 DUP2 MSTORE PUSH1 0x4 ADD PUSH2 0xB76 SWAP4 SWAP3 SWAP2 SWAP1 PUSH2 0x10BB JUMP JUMPDEST PUSH1 0x40 MLOAD DUP1 SWAP2 SUB SWAP1 REVERT JUMPDEST DUP2 DUP2 SUB PUSH0 DUP1 DUP7 PUSH20 0xFFFFFFFFFFFFFFFFFFFFFFFFFFFFFFFFFFFFFFFF AND PUSH20 0xFFFFFFFFFFFFFFFFFFFFFFFFFFFFFFFFFFFFFFFF AND DUP2 MSTORE PUSH1 0x20 ADD SWAP1 DUP2 MSTORE PUSH1 0x20 ADD PUSH0 KECCAK256 DUP2 SWAP1 SSTORE POP POP JUMPDEST PUSH0 PUSH20 0xFFFFFFFFFFFFFFFFFFFFFFFFFFFFFFFFFFFFFFFF AND DUP3 PUSH20 0xFFFFFFFFFFFFFFFFFFFFFFFFFFFFFFFFFFFFFFFF AND SUB PUSH2 0xC0B JUMPI DUP1 PUSH1 0x2 PUSH0 DUP3 DUP3 SLOAD SUB SWAP3 POP POP DUP2 SWAP1 SSTORE POP PUSH2 0xC55 JUMP JUMPDEST DUP1 PUSH0 DUP1 DUP5 PUSH20 0xFFFFFFFFFFFFFFFFFFFFFFFFFFFFFFFFFFFFFFFF AND PUSH20 0xFFFFFFFFFFFFFFFFFFFFFFFFFFFFFFFFFFFFFFFF AND DUP2 MSTORE PUSH1 0x20 ADD SWAP1 DUP2 MSTORE PUSH1 0x20 ADD PUSH0 KECCAK256 PUSH0 DUP3 DUP3 SLOAD ADD SWAP3 POP POP DUP2 SWAP1 SSTORE POP JUMPDEST DUP2 PUSH20 0xFFFFFFFFFFFFFFFFFFFFFFFFFFFFFFFFFFFFFFFF AND DUP4 PUSH20 0xFFFFFFFFFFFFFFFFFFFFFFFFFFFFFFFFFFFFFFFF AND PUSH32 0xDDF252AD1BE2C89B69C2B068FC378DAA952BA7F163C4A11628F55A4DF523B3EF DUP4 PUSH1 0x40 MLOAD PUSH2 0xCB2 SWAP2 SWAP1 PUSH2 0xE88 JUMP JUMPDEST PUSH1 0x40 MLOAD DUP1 SWAP2 SUB SWAP1 LOG3 POP POP POP JUMP JUMPDEST PUSH0 DUP2 MLOAD SWAP1 POP SWAP2 SWAP1 POP JUMP JUMPDEST PUSH0 DUP3 DUP3 MSTORE PUSH1 0x20 DUP3 ADD SWAP1 POP SWAP3 SWAP2 POP POP JUMP JUMPDEST DUP3 DUP2 DUP4 MCOPY PUSH0 DUP4 DUP4 ADD MSTORE POP POP POP JUMP JUMPDEST PUSH0 PUSH1 0x1F NOT PUSH1 0x1F DUP4 ADD AND SWAP1 POP SWAP2 SWAP1 POP JUMP JUMPDEST PUSH0 PUSH2 0xD01 DUP3 PUSH2 0xCBF JUMP JUMPDEST PUSH2 0xD0B DUP2 DUP6 PUSH2 0xCC9 JUMP JUMPDEST SWAP4 POP PUSH2 0xD1B DUP2 DUP6 PUSH1 0x20 DUP7 ADD PUSH2 0xCD9 JUMP JUMPDEST PUSH2 0xD24 DUP2 PUSH2 0xCE7 JUMP JUMPDEST DUP5 ADD SWAP2 POP POP SWAP3 SWAP2 POP POP JUMP JUMPDEST PUSH0 PUSH1 0x20 DUP3 ADD SWAP1 POP DUP2 DUP2 SUB PUSH0 DUP4 ADD MSTORE PUSH2 0xD47 DUP2 DUP5 PUSH2 0xCF7 JUMP JUMPDEST SWAP1 POP SWAP3 SWAP2 POP POP JUMP JUMPDEST PUSH0 DUP1 REVERT JUMPDEST PUSH0 PUSH20 0xFFFFFFFFFFFFFFFFFFFFFFFFFFFFFFFFFFFFFFFF DUP3 AND SWAP1 POP SWAP2 SWAP1 POP JUMP JUMPDEST PUSH0 PUSH2 0xD7C DUP3 PUSH2 0xD53 JUMP JUMPDEST SWAP1 POP SWAP2 SWAP1 POP JUMP JUMPDEST PUSH2 0xD8C DUP2 PUSH2 0xD72 JUMP JUMPDEST DUP2 EQ PUSH2 0xD96 JUMPI PUSH0 DUP1 REVERT JUMPDEST POP JUMP JUMPDEST PUSH0 DUP2 CALLDATALOAD SWAP1 POP PUSH2 0xDA7 DUP2 PUSH2 0xD83 JUMP JUMPDEST SWAP3 SWAP2 POP POP JUMP JUMPDEST PUSH0 DUP2 SWAP1 POP SWAP2 SWAP1 POP JUMP JUMPDEST PUSH2 0xDBF DUP2 PUSH2 0xDAD JUMP JUMPDEST DUP2 EQ PUSH2 0xDC9 JUMPI PUSH0 DUP1 REVERT JUMPDEST POP JUMP JUMPDEST PUSH0 DUP2 CALLDATALOAD SWAP1 POP PUSH2 0xDDA DUP2 PUSH2 0xDB6 JUMP JUMPDEST SWAP3 SWAP2 POP POP JUMP JUMPDEST PUSH0 DUP1 PUSH1 0x40 DUP4 DUP6 SUB SLT ISZERO PUSH2 0xDF6 JUMPI PUSH2 0xDF5 PUSH2 0xD4F JUMP JUMPDEST JUMPDEST PUSH0 PUSH2 0xE03 DUP6 DUP3 DUP7 ADD PUSH2 0xD99 JUMP JUMPDEST SWAP3 POP POP PUSH1 0x20 PUSH2 0xE14 DUP6 DUP3 DUP7 ADD PUSH2 0xDCC JUMP JUMPDEST SWAP2 POP POP SWAP3 POP SWAP3 SWAP1 POP JUMP JUMPDEST PUSH0 DUP2 ISZERO ISZERO SWAP1 POP SWAP2 SWAP1 POP JUMP JUMPDEST PUSH2 0xE32 DUP2 PUSH2 0xE1E JUMP JUMPDEST DUP3 MSTORE POP POP JUMP JUMPDEST PUSH0 PUSH1 0x20 DUP3 ADD SWAP1 POP PUSH2 0xE4B PUSH0 DUP4 ADD DUP5 PUSH2 0xE29 JUMP JUMPDEST SWAP3 SWAP2 POP POP JUMP JUMPDEST PUSH2 0xE5A DUP2 PUSH2 0xD72 JUMP JUMPDEST DUP3 MSTORE POP POP JUMP JUMPDEST PUSH0 PUSH1 0x20 DUP3 ADD SWAP1 POP PUSH2 0xE73 PUSH0 DUP4 ADD DUP5 PUSH2 0xE51 JUMP JUMPDEST SWAP3 SWAP2 POP POP JUMP JUMPDEST PUSH2 0xE82 DUP2 PUSH2 0xDAD JUMP JUMPDEST DUP3 MSTORE POP POP JUMP JUMPDEST PUSH0 PUSH1 0x20 DUP3 ADD SWAP1 POP PUSH2 0xE9B PUSH0 DUP4 ADD DUP5 PUSH2 0xE79 JUMP JUMPDEST SWAP3 SWAP2 POP POP JUMP JUMPDEST PUSH0 DUP1 PUSH0 PUSH1 0x60 DUP5 DUP7 SUB SLT ISZERO PUSH2 0xEB8 JUMPI PUSH2 0xEB7 PUSH2 0xD4F JUMP JUMPDEST JUMPDEST PUSH0 PUSH2 0xEC5 DUP7 DUP3 DUP8 ADD PUSH2 0xD99 JUMP JUMPDEST SWAP4 POP POP PUSH1 0x20 PUSH2 0xED6 DUP7 DUP3 DUP8 ADD PUSH2 0xD99 JUMP JUMPDEST SWAP3 POP POP PUSH1 0x40 PUSH2 0xEE7 DUP7 DUP3 DUP8 ADD PUSH2 0xDCC JUMP JUMPDEST SWAP2 POP POP SWAP3 POP SWAP3 POP SWAP3 JUMP JUMPDEST PUSH0 PUSH1 0xFF DUP3 AND SWAP1 POP SWAP2 SWAP1 POP JUMP JUMPDEST PUSH2 0xF06 DUP2 PUSH2 0xEF1 JUMP JUMPDEST DUP3 MSTORE POP POP JUMP JUMPDEST PUSH0 PUSH1 0x20 DUP3 ADD SWAP1 POP PUSH2 0xF1F PUSH0 DUP4 ADD DUP5 PUSH2 0xEFD JUMP JUMPDEST SWAP3 SWAP2 POP POP JUMP JUMPDEST PUSH0 PUSH1 0x20 DUP3 DUP5 SUB SLT ISZERO PUSH2 0xF3A JUMPI PUSH2 0xF39 PUSH2 0xD4F JUMP JUMPDEST JUMPDEST PUSH0 PUSH2 0xF47 DUP5 DUP3 DUP6 ADD PUSH2 0xD99 JUMP JUMPDEST SWAP2 POP POP SWAP3 SWAP2 POP POP JUMP JUMPDEST PUSH0 DUP1 PUSH1 0x40 DUP4 DUP6 SUB SLT ISZERO PUSH2 0xF66 JUMPI PUSH2 0xF65 PUSH2 0xD4F JUMP JUMPDEST JUMPDEST PUSH0 PUSH2 0xF73 DUP6 DUP3 DUP7 ADD PUSH2 0xD99 JUMP JUMPDEST SWAP3 POP POP PUSH1 0x20 PUSH2 0xF84 DUP6 DUP3 DUP7 ADD PUSH2 0xD99 JUMP JUMPDEST SWAP2 POP POP SWAP3 POP SWAP3 SWAP1 POP JUMP JUMPDEST PUSH32 0x4E487B7100000000000000000000000000000000000000000000000000000000 PUSH0 MSTORE PUSH1 0x22 PUSH1 0x4 MSTORE PUSH1 0x24 PUSH0 REVERT JUMPDEST PUSH0 PUSH1 0x2 DUP3 DIV SWAP1 POP PUSH1 0x1 DUP3 AND DUP1 PUSH2 0xFD2 JUMPI PUSH1 0x7F DUP3 AND SWAP2 POP JUMPDEST PUSH1 0x20 DUP3 LT DUP2 SUB PUSH2 0xFE5 JUMPI PUSH2 0xFE4 PUSH2 0xF8E JUMP JUMPDEST JUMPDEST POP SWAP2 SWAP1 POP JUMP JUMPDEST PUSH32 0x4F6E6C7920706F6F6C2063616E206D696E740000000000000000000000000000 PUSH0 DUP3 ADD MSTORE POP JUMP JUMPDEST PUSH0 PUSH2 0x101F PUSH1 0x12 DUP4 PUSH2 0xCC9 JUMP JUMPDEST SWAP2 POP PUSH2 0x102A DUP3 PUSH2 0xFEB JUMP JUMPDEST PUSH1 0x20 DUP3 ADD SWAP1 POP SWAP2 SWAP1 POP JUMP JUMPDEST PUSH0 PUSH1 0x20 DUP3 ADD SWAP1 POP DUP2 DUP2 SUB PUSH0 DUP4 ADD MSTORE PUSH2 0x104C DUP2 PUSH2 0x1013 JUMP JUMPDEST SWAP1 POP SWAP2 SWAP1 POP JUMP JUMPDEST PUSH32 0x4F6E6C7920706F6F6C2063616E206275726E0000000000000000000000000000 PUSH0 DUP3 ADD MSTORE POP JUMP JUMPDEST PUSH0 PUSH2 0x1087 PUSH1 0x12 DUP4 PUSH2 0xCC9 JUMP JUMPDEST SWAP2 POP PUSH2 0x1092 DUP3 PUSH2 0x1053 JUMP JUMPDEST PUSH1 0x20 DUP3 ADD SWAP1 POP SWAP2 SWAP1 POP JUMP JUMPDEST PUSH0 PUSH1 0x20 DUP3 ADD SWAP1 POP DUP2 DUP2 SUB PUSH0 DUP4 ADD MSTORE PUSH2 0x10B4 DUP2 PUSH2 0x107B JUMP JUMPDEST SWAP1 POP SWAP2 SWAP1 POP JUMP JUMPDEST PUSH0 PUSH1 0x60 DUP3 ADD SWAP1 POP PUSH2 0x10CE PUSH0 DUP4 ADD DUP7 PUSH2 0xE51 JUMP JUMPDEST PUSH2 0x10DB PUSH1 0x20 DUP4 ADD DUP6 PUSH2 0xE79 JUMP JUMPDEST PUSH2 0x10E8 PUSH1 0x40 DUP4 ADD DUP5 PUSH2 0xE79 JUMP JUMPDEST SWAP5 SWAP4 POP POP POP POP JUMP JUMPDEST PUSH32 0x4E487B7100000000000000000000000000000000000000000000000000000000 PUSH0 MSTORE PUSH1 0x11 PUSH1 0x4 MSTORE PUSH1 0x24 PUSH0 REVERT JUMPDEST PUSH0 PUSH2 0x1127 DUP3 PUSH2 0xDAD JUMP JUMPDEST SWAP2 POP PUSH2 0x1132 DUP4 PUSH2 0xDAD JUMP JUMPDEST SWAP3 POP DUP3 DUP3 ADD SWAP1 POP DUP1 DUP3 GT ISZERO PUSH2 0x114A JUMPI PUSH2 0x1149 PUSH2 0x10F0 JUMP JUMPDEST JUMPDEST SWAP3 SWAP2 POP POP JUMP INVALID LOG2 PUSH5 0x6970667358 0x22 SLT KECCAK256 DUP13 0xAD 0x28 0xCB EXP 0xBE SIGNEXTEND 0xB5 GAS 0xB1 PUSH6 0x6D6369BF05CE 0xEB SGT CREATE EXTCODEHASH PUSH22 0x127A2B68560CB49227B364736F6C634300081A003300 "
				},
				"gasEstimates": {
					"creation": {
						"codeDepositCost": "1907400",
						"executionCost": "infinite",
						"totalCost": "infinite"
					},
					"external": {
						"addLiquidity(uint256,uint256)": "infinite",
						"checkSlippage(uint256)": "infinite",
						"checkSlippageB(uint256)": "infinite",
						"expextedSlippage()": "2469",
						"feePercentage()": "2514",
						"getExpectedTokenA(uint256)": "infinite",
						"getExpectedTokenB(uint256)": "infinite",
						"getLPTokenAddress()": "2603",
						"getPrice()": "infinite",
						"getReserves()": "infinite",
						"getUserLPBalance(address)": "infinite",
						"lpToken()": "infinite",
						"owner()": "2619",
						"removeLiquidity(uint256)": "infinite",
						"reserveA()": "2535",
						"reserveB()": "2515",
						"setSlipage(uint256)": "24817",
						"swapAtoB(uint256,uint256)": "infinite",
						"swapBtoA(uint256,uint256)": "infinite",
						"tokenA()": "infinite",
						"tokenB()": "infinite"
					},
					"internal": {
						"min(uint256,uint256)": "63",
						"sqrt(uint256)": "infinite"
					}
				},
				"methodIdentifiers": {
					"addLiquidity(uint256,uint256)": "9cd441da",
					"checkSlippage(uint256)": "670053c8",
					"checkSlippageB(uint256)": "c4604b33",
					"expextedSlippage()": "be8e89fc",
					"feePercentage()": "a001ecdd",
					"getExpectedTokenA(uint256)": "bae38d58",
					"getExpectedTokenB(uint256)": "7a88266a",
					"getLPTokenAddress()": "c9e57aa6",
					"getPrice()": "98d5fdca",
					"getReserves()": "0902f1ac",
					"getUserLPBalance(address)": "06ebcc6d",
					"lpToken()": "5fcbd285",
					"owner()": "8da5cb5b",
					"removeLiquidity(uint256)": "9c8f9f23",
					"reserveA()": "dc5fa6c5",
					"reserveB()": "19e36f3b",
					"setSlipage(uint256)": "b9c8c4ba",
					"swapAtoB(uint256,uint256)": "f0b456e9",
					"swapBtoA(uint256,uint256)": "4242ec52",
					"tokenA()": "0fc63d10",
					"tokenB()": "5f64b55b"
				}
			},
			"storageLayout": {
				"storage": [
					{
						"astId": 852,
						"contract": "LiquidityPool.sol:LiquidityPool",
						"label": "tokenA",
						"offset": 0,
						"slot": "0",
						"type": "t_contract(IERC20)729"
					},
					{
						"astId": 855,
						"contract": "LiquidityPool.sol:LiquidityPool",
						"label": "tokenB",
						"offset": 0,
						"slot": "1",
						"type": "t_contract(IERC20)729"
					},
					{
						"astId": 858,
						"contract": "LiquidityPool.sol:LiquidityPool",
						"label": "lpToken",
						"offset": 0,
						"slot": "2",
						"type": "t_contract(LPToken)849"
					},
					{
						"astId": 860,
						"contract": "LiquidityPool.sol:LiquidityPool",
						"label": "reserveA",
						"offset": 0,
						"slot": "3",
						"type": "t_uint256"
					},
					{
						"astId": 862,
						"contract": "LiquidityPool.sol:LiquidityPool",
						"label": "reserveB",
						"offset": 0,
						"slot": "4",
						"type": "t_uint256"
					},
					{
						"astId": 864,
						"contract": "LiquidityPool.sol:LiquidityPool",
						"label": "expextedSlippage",
						"offset": 0,
						"slot": "5",
						"type": "t_uint256"
					},
					{
						"astId": 867,
						"contract": "LiquidityPool.sol:LiquidityPool",
						"label": "feePercentage",
						"offset": 0,
						"slot": "6",
						"type": "t_uint256"
					},
					{
						"astId": 869,
						"contract": "LiquidityPool.sol:LiquidityPool",
						"label": "owner",
						"offset": 0,
						"slot": "7",
						"type": "t_address"
					}
				],
				"types": {
					"t_address": {
						"encoding": "inplace",
						"label": "address",
						"numberOfBytes": "20"
					},
					"t_contract(IERC20)729": {
						"encoding": "inplace",
						"label": "contract IERC20",
						"numberOfBytes": "20"
					},
					"t_contract(LPToken)849": {
						"encoding": "inplace",
						"label": "contract LPToken",
						"numberOfBytes": "20"
					},
					"t_uint256": {
						"encoding": "inplace",
						"label": "uint256",
						"numberOfBytes": "32"
					}
				}
			},
			"userdoc": {
				"kind": "user",
				"methods": {},
				"version": 1
			}
		}
	}
}