{
	"Airdrops/TimedAirdrop.sol": {
		"ClaimAirdeops": {
			"abi": [
				{
					"inputs": [
						{
							"internalType": "address",
							"name": "_tokenAddress",
							"type": "address"
						},
						{
							"internalType": "uint256",
							"name": "_startTime",
							"type": "uint256"
						},
						{
							"internalType": "uint256",
							"name": "_endTime",
							"type": "uint256"
						}
					],
					"stateMutability": "nonpayable",
					"type": "constructor"
				},
				{
					"inputs": [
						{
							"internalType": "address",
							"name": "",
							"type": "address"
						}
					],
					"name": "airdropAmount",
					"outputs": [
						{
							"internalType": "uint256",
							"name": "",
							"type": "uint256"
						}
					],
					"stateMutability": "view",
					"type": "function"
				},
				{
					"inputs": [],
					"name": "claim",
					"outputs": [],
					"stateMutability": "nonpayable",
					"type": "function"
				},
				{
					"inputs": [
						{
							"internalType": "address",
							"name": "",
							"type": "address"
						}
					],
					"name": "hasClaimed",
					"outputs": [
						{
							"internalType": "bool",
							"name": "",
							"type": "bool"
						}
					],
					"stateMutability": "view",
					"type": "function"
				},
				{
					"inputs": [],
					"name": "owner",
					"outputs": [
						{
							"internalType": "address",
							"name": "",
							"type": "address"
						}
					],
					"stateMutability": "view",
					"type": "function"
				},
				{
					"inputs": [],
					"name": "pause",
					"outputs": [
						{
							"internalType": "bool",
							"name": "",
							"type": "bool"
						}
					],
					"stateMutability": "view",
					"type": "function"
				},
				{
					"inputs": [],
					"name": "paused",
					"outputs": [],
					"stateMutability": "nonpayable",
					"type": "function"
				},
				{
					"inputs": [
						{
							"internalType": "address[]",
							"name": "receipient",
							"type": "address[]"
						},
						{
							"internalType": "uint256[]",
							"name": "amount",
							"type": "uint256[]"
						}
					],
					"name": "setAirdropamount",
					"outputs": [],
					"stateMutability": "nonpayable",
					"type": "function"
				},
				{
					"inputs": [],
					"name": "token",
					"outputs": [
						{
							"internalType": "contract IERC20",
							"name": "",
							"type": "address"
						}
					],
					"stateMutability": "view",
					"type": "function"
				},
				{
					"inputs": [],
					"name": "unpaused",
					"outputs": [],
					"stateMutability": "nonpayable",
					"type": "function"
				},
				{
					"inputs": [
						{
							"internalType": "uint256",
							"name": "_startTime",
							"type": "uint256"
						},
						{
							"internalType": "uint256",
							"name": "_endTime",
							"type": "uint256"
						}
					],
					"name": "updateClaimPeriod",
					"outputs": [],
					"stateMutability": "nonpayable",
					"type": "function"
				}
			],
			"devdoc": {
				"kind": "dev",
				"methods": {},
				"version": 1
			},
			"evm": {
				"assembly": "    /* \"Airdrops/TimedAirdrop.sol\":188:2550  contract ClaimAirdeops {... */\n  mstore(0x40, 0x80)\n    /* \"Airdrops/TimedAirdrop.sol\":519:875  constructor(... */\n  callvalue\n  dup1\n  iszero\n  tag_1\n  jumpi\n  0x00\n  dup1\n  revert\ntag_1:\n  pop\n  mload(0x40)\n  sub(codesize, bytecodeSize)\n  dup1\n  bytecodeSize\n  dup4\n  codecopy\n  dup2\n  dup2\n  add\n  0x40\n  mstore\n  dup2\n  add\n  swap1\n  tag_2\n  swap2\n  swap1\n  tag_3\n  jump\t// in\ntag_2:\n    /* \"Airdrops/TimedAirdrop.sol\":665:674  startTime */\n  sload(0x00)\n    /* \"Airdrops/TimedAirdrop.sol\":653:661  _endTime */\n  dup2\n    /* \"Airdrops/TimedAirdrop.sol\":653:674  _endTime >= startTime */\n  lt\n  iszero\n    /* \"Airdrops/TimedAirdrop.sol\":632:741  require(... */\n  tag_6\n  jumpi\n  mload(0x40)\n  0x08c379a000000000000000000000000000000000000000000000000000000000\n  dup2\n  mstore\n  0x04\n  add\n  tag_7\n  swap1\n  tag_8\n  jump\t// in\ntag_7:\n  mload(0x40)\n  dup1\n  swap2\n  sub\n  swap1\n  revert\ntag_6:\n    /* \"Airdrops/TimedAirdrop.sol\":759:769  msg.sender */\n  caller\n    /* \"Airdrops/TimedAirdrop.sol\":751:756  owner */\n  0x03\n  0x00\n    /* \"Airdrops/TimedAirdrop.sol\":751:769  owner = msg.sender */\n  0x0100\n  exp\n  dup2\n  sload\n  dup2\n  0xffffffffffffffffffffffffffffffffffffffff\n  mul\n  not\n  and\n  swap1\n  dup4\n  0xffffffffffffffffffffffffffffffffffffffff\n  and\n  mul\n  or\n  swap1\n  sstore\n  pop\n    /* \"Airdrops/TimedAirdrop.sol\":794:807  _tokenAddress */\n  dup3\n    /* \"Airdrops/TimedAirdrop.sol\":779:784  token */\n  0x02\n  0x00\n    /* \"Airdrops/TimedAirdrop.sol\":779:808  token = IERC20(_tokenAddress) */\n  0x0100\n  exp\n  dup2\n  sload\n  dup2\n  0xffffffffffffffffffffffffffffffffffffffff\n  mul\n  not\n  and\n  swap1\n  dup4\n  0xffffffffffffffffffffffffffffffffffffffff\n  and\n  mul\n  or\n  swap1\n  sstore\n  pop\n    /* \"Airdrops/TimedAirdrop.sol\":830:840  _startTime */\n  dup2\n    /* \"Airdrops/TimedAirdrop.sol\":818:827  startTime */\n  0x00\n    /* \"Airdrops/TimedAirdrop.sol\":818:840  startTime = _startTime */\n  dup2\n  swap1\n  sstore\n  pop\n    /* \"Airdrops/TimedAirdrop.sol\":860:868  _endTime */\n  dup1\n    /* \"Airdrops/TimedAirdrop.sol\":850:857  endTime */\n  0x01\n    /* \"Airdrops/TimedAirdrop.sol\":850:868  endTime = _endTime */\n  dup2\n  swap1\n  sstore\n  pop\n    /* \"Airdrops/TimedAirdrop.sol\":519:875  constructor(... */\n  pop\n  pop\n  pop\n    /* \"Airdrops/TimedAirdrop.sol\":188:2550  contract ClaimAirdeops {... */\n  jump(tag_9)\n    /* \"#utility.yul\":88:205   */\ntag_11:\n    /* \"#utility.yul\":197:198   */\n  0x00\n    /* \"#utility.yul\":194:195   */\n  dup1\n    /* \"#utility.yul\":187:199   */\n  revert\n    /* \"#utility.yul\":334:460   */\ntag_13:\n    /* \"#utility.yul\":371:378   */\n  0x00\n    /* \"#utility.yul\":411:453   */\n  0xffffffffffffffffffffffffffffffffffffffff\n    /* \"#utility.yul\":404:409   */\n  dup3\n    /* \"#utility.yul\":400:454   */\n  and\n    /* \"#utility.yul\":389:454   */\n  swap1\n  pop\n    /* \"#utility.yul\":334:460   */\n  swap2\n  swap1\n  pop\n  jump\t// out\n    /* \"#utility.yul\":466:562   */\ntag_14:\n    /* \"#utility.yul\":503:510   */\n  0x00\n    /* \"#utility.yul\":532:556   */\n  tag_29\n    /* \"#utility.yul\":550:555   */\n  dup3\n    /* \"#utility.yul\":532:556   */\n  tag_13\n  jump\t// in\ntag_29:\n    /* \"#utility.yul\":521:556   */\n  swap1\n  pop\n    /* \"#utility.yul\":466:562   */\n  swap2\n  swap1\n  pop\n  jump\t// out\n    /* \"#utility.yul\":568:690   */\ntag_15:\n    /* \"#utility.yul\":641:665   */\n  tag_31\n    /* \"#utility.yul\":659:664   */\n  dup2\n    /* \"#utility.yul\":641:665   */\n  tag_14\n  jump\t// in\ntag_31:\n    /* \"#utility.yul\":634:639   */\n  dup2\n    /* \"#utility.yul\":631:666   */\n  eq\n    /* \"#utility.yul\":621:684   */\n  tag_32\n  jumpi\n    /* \"#utility.yul\":680:681   */\n  0x00\n    /* \"#utility.yul\":677:678   */\n  dup1\n    /* \"#utility.yul\":670:682   */\n  revert\n    /* \"#utility.yul\":621:684   */\ntag_32:\n    /* \"#utility.yul\":568:690   */\n  pop\n  jump\t// out\n    /* \"#utility.yul\":696:839   */\ntag_16:\n    /* \"#utility.yul\":753:758   */\n  0x00\n    /* \"#utility.yul\":784:790   */\n  dup2\n    /* \"#utility.yul\":778:791   */\n  mload\n    /* \"#utility.yul\":769:791   */\n  swap1\n  pop\n    /* \"#utility.yul\":800:833   */\n  tag_34\n    /* \"#utility.yul\":827:832   */\n  dup2\n    /* \"#utility.yul\":800:833   */\n  tag_15\n  jump\t// in\ntag_34:\n    /* \"#utility.yul\":696:839   */\n  swap3\n  swap2\n  pop\n  pop\n  jump\t// out\n    /* \"#utility.yul\":845:922   */\ntag_17:\n    /* \"#utility.yul\":882:889   */\n  0x00\n    /* \"#utility.yul\":911:916   */\n  dup2\n    /* \"#utility.yul\":900:916   */\n  swap1\n  pop\n    /* \"#utility.yul\":845:922   */\n  swap2\n  swap1\n  pop\n  jump\t// out\n    /* \"#utility.yul\":928:1050   */\ntag_18:\n    /* \"#utility.yul\":1001:1025   */\n  tag_37\n    /* \"#utility.yul\":1019:1024   */\n  dup2\n    /* \"#utility.yul\":1001:1025   */\n  tag_17\n  jump\t// in\ntag_37:\n    /* \"#utility.yul\":994:999   */\n  dup2\n    /* \"#utility.yul\":991:1026   */\n  eq\n    /* \"#utility.yul\":981:1044   */\n  tag_38\n  jumpi\n    /* \"#utility.yul\":1040:1041   */\n  0x00\n    /* \"#utility.yul\":1037:1038   */\n  dup1\n    /* \"#utility.yul\":1030:1042   */\n  revert\n    /* \"#utility.yul\":981:1044   */\ntag_38:\n    /* \"#utility.yul\":928:1050   */\n  pop\n  jump\t// out\n    /* \"#utility.yul\":1056:1199   */\ntag_19:\n    /* \"#utility.yul\":1113:1118   */\n  0x00\n    /* \"#utility.yul\":1144:1150   */\n  dup2\n    /* \"#utility.yul\":1138:1151   */\n  mload\n    /* \"#utility.yul\":1129:1151   */\n  swap1\n  pop\n    /* \"#utility.yul\":1160:1193   */\n  tag_40\n    /* \"#utility.yul\":1187:1192   */\n  dup2\n    /* \"#utility.yul\":1160:1193   */\n  tag_18\n  jump\t// in\ntag_40:\n    /* \"#utility.yul\":1056:1199   */\n  swap3\n  swap2\n  pop\n  pop\n  jump\t// out\n    /* \"#utility.yul\":1205:1868   */\ntag_3:\n    /* \"#utility.yul\":1293:1299   */\n  0x00\n    /* \"#utility.yul\":1301:1307   */\n  dup1\n    /* \"#utility.yul\":1309:1315   */\n  0x00\n    /* \"#utility.yul\":1358:1360   */\n  0x60\n    /* \"#utility.yul\":1346:1355   */\n  dup5\n    /* \"#utility.yul\":1337:1344   */\n  dup7\n    /* \"#utility.yul\":1333:1356   */\n  sub\n    /* \"#utility.yul\":1329:1361   */\n  slt\n    /* \"#utility.yul\":1326:1445   */\n  iszero\n  tag_42\n  jumpi\n    /* \"#utility.yul\":1364:1443   */\n  tag_43\n  tag_11\n  jump\t// in\ntag_43:\n    /* \"#utility.yul\":1326:1445   */\ntag_42:\n    /* \"#utility.yul\":1484:1485   */\n  0x00\n    /* \"#utility.yul\":1509:1573   */\n  tag_44\n    /* \"#utility.yul\":1565:1572   */\n  dup7\n    /* \"#utility.yul\":1556:1562   */\n  dup3\n    /* \"#utility.yul\":1545:1554   */\n  dup8\n    /* \"#utility.yul\":1541:1563   */\n  add\n    /* \"#utility.yul\":1509:1573   */\n  tag_16\n  jump\t// in\ntag_44:\n    /* \"#utility.yul\":1499:1573   */\n  swap4\n  pop\n    /* \"#utility.yul\":1455:1583   */\n  pop\n    /* \"#utility.yul\":1622:1624   */\n  0x20\n    /* \"#utility.yul\":1648:1712   */\n  tag_45\n    /* \"#utility.yul\":1704:1711   */\n  dup7\n    /* \"#utility.yul\":1695:1701   */\n  dup3\n    /* \"#utility.yul\":1684:1693   */\n  dup8\n    /* \"#utility.yul\":1680:1702   */\n  add\n    /* \"#utility.yul\":1648:1712   */\n  tag_19\n  jump\t// in\ntag_45:\n    /* \"#utility.yul\":1638:1712   */\n  swap3\n  pop\n    /* \"#utility.yul\":1593:1722   */\n  pop\n    /* \"#utility.yul\":1761:1763   */\n  0x40\n    /* \"#utility.yul\":1787:1851   */\n  tag_46\n    /* \"#utility.yul\":1843:1850   */\n  dup7\n    /* \"#utility.yul\":1834:1840   */\n  dup3\n    /* \"#utility.yul\":1823:1832   */\n  dup8\n    /* \"#utility.yul\":1819:1841   */\n  add\n    /* \"#utility.yul\":1787:1851   */\n  tag_19\n  jump\t// in\ntag_46:\n    /* \"#utility.yul\":1777:1851   */\n  swap2\n  pop\n    /* \"#utility.yul\":1732:1861   */\n  pop\n    /* \"#utility.yul\":1205:1868   */\n  swap3\n  pop\n  swap3\n  pop\n  swap3\n  jump\t// out\n    /* \"#utility.yul\":1874:2043   */\ntag_20:\n    /* \"#utility.yul\":1958:1969   */\n  0x00\n    /* \"#utility.yul\":1992:1998   */\n  dup3\n    /* \"#utility.yul\":1987:1990   */\n  dup3\n    /* \"#utility.yul\":1980:1999   */\n  mstore\n    /* \"#utility.yul\":2032:2036   */\n  0x20\n    /* \"#utility.yul\":2027:2030   */\n  dup3\n    /* \"#utility.yul\":2023:2037   */\n  add\n    /* \"#utility.yul\":2008:2037   */\n  swap1\n  pop\n    /* \"#utility.yul\":1874:2043   */\n  swap3\n  swap2\n  pop\n  pop\n  jump\t// out\n    /* \"#utility.yul\":2049:2277   */\ntag_21:\n    /* \"#utility.yul\":2189:2223   */\n  0x656e642074696d652073686f756c642062652067726561746572207468616e20\n    /* \"#utility.yul\":2185:2186   */\n  0x00\n    /* \"#utility.yul\":2177:2183   */\n  dup3\n    /* \"#utility.yul\":2173:2187   */\n  add\n    /* \"#utility.yul\":2166:2224   */\n  mstore\n    /* \"#utility.yul\":2258:2269   */\n  0x737461727454696d650000000000000000000000000000000000000000000000\n    /* \"#utility.yul\":2253:2255   */\n  0x20\n    /* \"#utility.yul\":2245:2251   */\n  dup3\n    /* \"#utility.yul\":2241:2256   */\n  add\n    /* \"#utility.yul\":2234:2270   */\n  mstore\n    /* \"#utility.yul\":2049:2277   */\n  pop\n  jump\t// out\n    /* \"#utility.yul\":2283:2649   */\ntag_22:\n    /* \"#utility.yul\":2425:2428   */\n  0x00\n    /* \"#utility.yul\":2446:2513   */\n  tag_50\n    /* \"#utility.yul\":2510:2512   */\n  0x29\n    /* \"#utility.yul\":2505:2508   */\n  dup4\n    /* \"#utility.yul\":2446:2513   */\n  tag_20\n  jump\t// in\ntag_50:\n    /* \"#utility.yul\":2439:2513   */\n  swap2\n  pop\n    /* \"#utility.yul\":2522:2615   */\n  tag_51\n    /* \"#utility.yul\":2611:2614   */\n  dup3\n    /* \"#utility.yul\":2522:2615   */\n  tag_21\n  jump\t// in\ntag_51:\n    /* \"#utility.yul\":2640:2642   */\n  0x40\n    /* \"#utility.yul\":2635:2638   */\n  dup3\n    /* \"#utility.yul\":2631:2643   */\n  add\n    /* \"#utility.yul\":2624:2643   */\n  swap1\n  pop\n    /* \"#utility.yul\":2283:2649   */\n  swap2\n  swap1\n  pop\n  jump\t// out\n    /* \"#utility.yul\":2655:3074   */\ntag_8:\n    /* \"#utility.yul\":2821:2825   */\n  0x00\n    /* \"#utility.yul\":2859:2861   */\n  0x20\n    /* \"#utility.yul\":2848:2857   */\n  dup3\n    /* \"#utility.yul\":2844:2862   */\n  add\n    /* \"#utility.yul\":2836:2862   */\n  swap1\n  pop\n    /* \"#utility.yul\":2908:2917   */\n  dup2\n    /* \"#utility.yul\":2902:2906   */\n  dup2\n    /* \"#utility.yul\":2898:2918   */\n  sub\n    /* \"#utility.yul\":2894:2895   */\n  0x00\n    /* \"#utility.yul\":2883:2892   */\n  dup4\n    /* \"#utility.yul\":2879:2896   */\n  add\n    /* \"#utility.yul\":2872:2919   */\n  mstore\n    /* \"#utility.yul\":2936:3067   */\n  tag_53\n    /* \"#utility.yul\":3062:3066   */\n  dup2\n    /* \"#utility.yul\":2936:3067   */\n  tag_22\n  jump\t// in\ntag_53:\n    /* \"#utility.yul\":2928:3067   */\n  swap1\n  pop\n    /* \"#utility.yul\":2655:3074   */\n  swap2\n  swap1\n  pop\n  jump\t// out\n    /* \"Airdrops/TimedAirdrop.sol\":188:2550  contract ClaimAirdeops {... */\ntag_9:\n  dataSize(sub_0)\n  dup1\n  dataOffset(sub_0)\n  0x00\n  codecopy\n  0x00\n  return\nstop\n\nsub_0: assembly {\n        /* \"Airdrops/TimedAirdrop.sol\":188:2550  contract ClaimAirdeops {... */\n      mstore(0x40, 0x80)\n      callvalue\n      dup1\n      iszero\n      tag_1\n      jumpi\n      0x00\n      dup1\n      revert\n    tag_1:\n      pop\n      jumpi(tag_2, lt(calldatasize, 0x04))\n      shr(0xe0, calldataload(0x00))\n      dup1\n      0x8da5cb5b\n      gt\n      tag_13\n      jumpi\n      dup1\n      0x8da5cb5b\n      eq\n      tag_8\n      jumpi\n      dup1\n      0xb0b62f5a\n      eq\n      tag_9\n      jumpi\n      dup1\n      0xb530dc8c\n      eq\n      tag_10\n      jumpi\n      dup1\n      0xdd14a511\n      eq\n      tag_11\n      jumpi\n      dup1\n      0xfc0c546a\n      eq\n      tag_12\n      jumpi\n      jump(tag_2)\n    tag_13:\n      dup1\n      0x4e71d92d\n      eq\n      tag_3\n      jumpi\n      dup1\n      0x5c975abb\n      eq\n      tag_4\n      jumpi\n      dup1\n      0x60eba7a6\n      eq\n      tag_5\n      jumpi\n      dup1\n      0x73b2e80e\n      eq\n      tag_6\n      jumpi\n      dup1\n      0x8456cb59\n      eq\n      tag_7\n      jumpi\n    tag_2:\n      0x00\n      dup1\n      revert\n        /* \"Airdrops/TimedAirdrop.sol\":1763:2068  function claim() external withinClaimPeriod whenNotPaused{... */\n    tag_3:\n      tag_14\n      tag_15\n      jump\t// in\n    tag_14:\n      stop\n        /* \"Airdrops/TimedAirdrop.sol\":2399:2465  function paused() external  onlyOwner{... */\n    tag_4:\n      tag_16\n      tag_17\n      jump\t// in\n    tag_16:\n      stop\n        /* \"Airdrops/TimedAirdrop.sol\":1307:1631  function setAirdropamount(... */\n    tag_5:\n      tag_18\n      0x04\n      dup1\n      calldatasize\n      sub\n      dup2\n      add\n      swap1\n      tag_19\n      swap2\n      swap1\n      tag_20\n      jump\t// in\n    tag_19:\n      tag_21\n      jump\t// in\n    tag_18:\n      stop\n        /* \"Airdrops/TimedAirdrop.sol\":470:512  mapping(address => bool) public hasClaimed */\n    tag_6:\n      tag_22\n      0x04\n      dup1\n      calldatasize\n      sub\n      dup2\n      add\n      swap1\n      tag_23\n      swap2\n      swap1\n      tag_24\n      jump\t// in\n    tag_23:\n      tag_25\n      jump\t// in\n    tag_22:\n      mload(0x40)\n      tag_26\n      swap2\n      swap1\n      tag_27\n      jump\t// in\n    tag_26:\n      mload(0x40)\n      dup1\n      swap2\n      sub\n      swap1\n      return\n        /* \"Airdrops/TimedAirdrop.sol\":392:410  bool public  pause */\n    tag_7:\n      tag_28\n      tag_29\n      jump\t// in\n    tag_28:\n      mload(0x40)\n      tag_30\n      swap2\n      swap1\n      tag_27\n      jump\t// in\n    tag_30:\n      mload(0x40)\n      dup1\n      swap2\n      sub\n      swap1\n      return\n        /* \"Airdrops/TimedAirdrop.sol\":366:386  address public owner */\n    tag_8:\n      tag_31\n      tag_32\n      jump\t// in\n    tag_31:\n      mload(0x40)\n      tag_33\n      swap2\n      swap1\n      tag_34\n      jump\t// in\n    tag_33:\n      mload(0x40)\n      dup1\n      swap2\n      sub\n      swap1\n      return\n        /* \"Airdrops/TimedAirdrop.sol\":2475:2546  function unpaused() external   onlyOwner {... */\n    tag_9:\n      tag_35\n      tag_36\n      jump\t// in\n    tag_35:\n      stop\n        /* \"Airdrops/TimedAirdrop.sol\":416:464  mapping(address => uint256) public airdropAmount */\n    tag_10:\n      tag_37\n      0x04\n      dup1\n      calldatasize\n      sub\n      dup2\n      add\n      swap1\n      tag_38\n      swap2\n      swap1\n      tag_24\n      jump\t// in\n    tag_38:\n      tag_39\n      jump\t// in\n    tag_37:\n      mload(0x40)\n      tag_40\n      swap2\n      swap1\n      tag_41\n      jump\t// in\n    tag_40:\n      mload(0x40)\n      dup1\n      swap2\n      sub\n      swap1\n      return\n        /* \"Airdrops/TimedAirdrop.sol\":2122:2342  function updateClaimPeriod(uint _startTime,uint _endTime) external  onlyOwner{... */\n    tag_11:\n      tag_42\n      0x04\n      dup1\n      calldatasize\n      sub\n      dup2\n      add\n      swap1\n      tag_43\n      swap2\n      swap1\n      tag_44\n      jump\t// in\n    tag_43:\n      tag_45\n      jump\t// in\n    tag_42:\n      stop\n        /* \"Airdrops/TimedAirdrop.sol\":341:360  IERC20 public token */\n    tag_12:\n      tag_46\n      tag_47\n      jump\t// in\n    tag_46:\n      mload(0x40)\n      tag_48\n      swap2\n      swap1\n      tag_49\n      jump\t// in\n    tag_48:\n      mload(0x40)\n      dup1\n      swap2\n      sub\n      swap1\n      return\n        /* \"Airdrops/TimedAirdrop.sol\":1763:2068  function claim() external withinClaimPeriod whenNotPaused{... */\n    tag_15:\n        /* \"Airdrops/TimedAirdrop.sol\":1128:1137  startTime */\n      sload(0x00)\n        /* \"Airdrops/TimedAirdrop.sol\":1109:1124  block.timestamp */\n      timestamp\n        /* \"Airdrops/TimedAirdrop.sol\":1109:1137  block.timestamp >= startTime */\n      lt\n      iszero\n        /* \"Airdrops/TimedAirdrop.sol\":1101:1169  require(block.timestamp >= startTime, \"claim period is not started\") */\n      tag_51\n      jumpi\n      mload(0x40)\n      0x08c379a000000000000000000000000000000000000000000000000000000000\n      dup2\n      mstore\n      0x04\n      add\n      tag_52\n      swap1\n      tag_53\n      jump\t// in\n    tag_52:\n      mload(0x40)\n      dup1\n      swap2\n      sub\n      swap1\n      revert\n    tag_51:\n        /* \"Airdrops/TimedAirdrop.sol\":1206:1213  endTime */\n      sload(0x01)\n        /* \"Airdrops/TimedAirdrop.sol\":1187:1202  block.timestamp */\n      timestamp\n        /* \"Airdrops/TimedAirdrop.sol\":1187:1213  block.timestamp <= endTime */\n      gt\n      iszero\n        /* \"Airdrops/TimedAirdrop.sol\":1179:1236  require(block.timestamp <= endTime, \"claim period ended\") */\n      tag_54\n      jumpi\n      mload(0x40)\n      0x08c379a000000000000000000000000000000000000000000000000000000000\n      dup2\n      mstore\n      0x04\n      add\n      tag_55\n      swap1\n      tag_56\n      jump\t// in\n    tag_55:\n      mload(0x40)\n      dup1\n      swap2\n      sub\n      swap1\n      revert\n    tag_54:\n        /* \"Airdrops/TimedAirdrop.sol\":925:930  pause */\n      0x03\n      0x14\n      swap1\n      sload\n      swap1\n      0x0100\n      exp\n      swap1\n      div\n      0xff\n      and\n        /* \"Airdrops/TimedAirdrop.sol\":924:930  !pause */\n      iszero\n        /* \"Airdrops/TimedAirdrop.sol\":916:952  require(!pause,\"airdrop  is paused\") */\n      tag_58\n      jumpi\n      mload(0x40)\n      0x08c379a000000000000000000000000000000000000000000000000000000000\n      dup2\n      mstore\n      0x04\n      add\n      tag_59\n      swap1\n      tag_60\n      jump\t// in\n    tag_59:\n      mload(0x40)\n      dup1\n      swap2\n      sub\n      swap1\n      revert\n    tag_58:\n        /* \"Airdrops/TimedAirdrop.sol\":1839:1849  hasClaimed */\n      0x05\n        /* \"Airdrops/TimedAirdrop.sol\":1839:1861  hasClaimed[msg.sender] */\n      0x00\n        /* \"Airdrops/TimedAirdrop.sol\":1850:1860  msg.sender */\n      caller\n        /* \"Airdrops/TimedAirdrop.sol\":1839:1861  hasClaimed[msg.sender] */\n      0xffffffffffffffffffffffffffffffffffffffff\n      and\n      0xffffffffffffffffffffffffffffffffffffffff\n      and\n      dup2\n      mstore\n      0x20\n      add\n      swap1\n      dup2\n      mstore\n      0x20\n      add\n      0x00\n      keccak256\n      0x00\n      swap1\n      sload\n      swap1\n      0x0100\n      exp\n      swap1\n      div\n      0xff\n      and\n        /* \"Airdrops/TimedAirdrop.sol\":1838:1861  !hasClaimed[msg.sender] */\n      iszero\n        /* \"Airdrops/TimedAirdrop.sol\":1830:1881  require(!hasClaimed[msg.sender], \"already claimed\") */\n      tag_62\n      jumpi\n      mload(0x40)\n      0x08c379a000000000000000000000000000000000000000000000000000000000\n      dup2\n      mstore\n      0x04\n      add\n      tag_63\n      swap1\n      tag_64\n      jump\t// in\n    tag_63:\n      mload(0x40)\n      dup1\n      swap2\n      sub\n      swap1\n      revert\n    tag_62:\n        /* \"Airdrops/TimedAirdrop.sol\":1891:1905  uint256 amount */\n      0x00\n        /* \"Airdrops/TimedAirdrop.sol\":1908:1921  airdropAmount */\n      0x04\n        /* \"Airdrops/TimedAirdrop.sol\":1908:1933  airdropAmount[msg.sender] */\n      0x00\n        /* \"Airdrops/TimedAirdrop.sol\":1922:1932  msg.sender */\n      caller\n        /* \"Airdrops/TimedAirdrop.sol\":1908:1933  airdropAmount[msg.sender] */\n      0xffffffffffffffffffffffffffffffffffffffff\n      and\n      0xffffffffffffffffffffffffffffffffffffffff\n      and\n      dup2\n      mstore\n      0x20\n      add\n      swap1\n      dup2\n      mstore\n      0x20\n      add\n      0x00\n      keccak256\n      sload\n        /* \"Airdrops/TimedAirdrop.sol\":1891:1933  uint256 amount = airdropAmount[msg.sender] */\n      swap1\n      pop\n        /* \"Airdrops/TimedAirdrop.sol\":1960:1961  0 */\n      0x00\n        /* \"Airdrops/TimedAirdrop.sol\":1951:1957  amount */\n      dup2\n        /* \"Airdrops/TimedAirdrop.sol\":1951:1961  amount > 0 */\n      gt\n        /* \"Airdrops/TimedAirdrop.sol\":1943:1977  require(amount > 0, \"No Airdrops\") */\n      tag_65\n      jumpi\n      mload(0x40)\n      0x08c379a000000000000000000000000000000000000000000000000000000000\n      dup2\n      mstore\n      0x04\n      add\n      tag_66\n      swap1\n      tag_67\n      jump\t// in\n    tag_66:\n      mload(0x40)\n      dup1\n      swap2\n      sub\n      swap1\n      revert\n    tag_65:\n        /* \"Airdrops/TimedAirdrop.sol\":2012:2016  true */\n      0x01\n        /* \"Airdrops/TimedAirdrop.sol\":1987:1997  hasClaimed */\n      0x05\n        /* \"Airdrops/TimedAirdrop.sol\":1987:2009  hasClaimed[msg.sender] */\n      0x00\n        /* \"Airdrops/TimedAirdrop.sol\":1998:2008  msg.sender */\n      caller\n        /* \"Airdrops/TimedAirdrop.sol\":1987:2009  hasClaimed[msg.sender] */\n      0xffffffffffffffffffffffffffffffffffffffff\n      and\n      0xffffffffffffffffffffffffffffffffffffffff\n      and\n      dup2\n      mstore\n      0x20\n      add\n      swap1\n      dup2\n      mstore\n      0x20\n      add\n      0x00\n      keccak256\n      0x00\n        /* \"Airdrops/TimedAirdrop.sol\":1987:2016  hasClaimed[msg.sender] = true */\n      0x0100\n      exp\n      dup2\n      sload\n      dup2\n      0xff\n      mul\n      not\n      and\n      swap1\n      dup4\n      iszero\n      iszero\n      mul\n      or\n      swap1\n      sstore\n      pop\n        /* \"Airdrops/TimedAirdrop.sol\":2027:2032  token */\n      0x02\n      0x00\n      swap1\n      sload\n      swap1\n      0x0100\n      exp\n      swap1\n      div\n      0xffffffffffffffffffffffffffffffffffffffff\n      and\n        /* \"Airdrops/TimedAirdrop.sol\":2027:2041  token.transfer */\n      0xffffffffffffffffffffffffffffffffffffffff\n      and\n      0xa9059cbb\n        /* \"Airdrops/TimedAirdrop.sol\":2042:2052  msg.sender */\n      caller\n        /* \"Airdrops/TimedAirdrop.sol\":2054:2060  amount */\n      dup4\n        /* \"Airdrops/TimedAirdrop.sol\":2027:2061  token.transfer(msg.sender, amount) */\n      mload(0x40)\n      dup4\n      0xffffffff\n      and\n      0xe0\n      shl\n      dup2\n      mstore\n      0x04\n      add\n      tag_68\n      swap3\n      swap2\n      swap1\n      tag_69\n      jump\t// in\n    tag_68:\n      0x20\n      mload(0x40)\n      dup1\n      dup4\n      sub\n      dup2\n      0x00\n      dup8\n      gas\n      call\n      iszero\n      dup1\n      iszero\n      tag_71\n      jumpi\n      returndatasize\n      0x00\n      dup1\n      returndatacopy\n      revert(0x00, returndatasize)\n    tag_71:\n      pop\n      pop\n      pop\n      pop\n      mload(0x40)\n      returndatasize\n      not(0x1f)\n      0x1f\n      dup3\n      add\n      and\n      dup3\n      add\n      dup1\n      0x40\n      mstore\n      pop\n      dup2\n      add\n      swap1\n      tag_72\n      swap2\n      swap1\n      tag_73\n      jump\t// in\n    tag_72:\n      pop\n        /* \"Airdrops/TimedAirdrop.sol\":1820:2068  {... */\n      pop\n        /* \"Airdrops/TimedAirdrop.sol\":1763:2068  function claim() external withinClaimPeriod whenNotPaused{... */\n      jump\t// out\n        /* \"Airdrops/TimedAirdrop.sol\":2399:2465  function paused() external  onlyOwner{... */\n    tag_17:\n        /* \"Airdrops/TimedAirdrop.sol\":1032:1037  owner */\n      0x03\n      0x00\n      swap1\n      sload\n      swap1\n      0x0100\n      exp\n      swap1\n      div\n      0xffffffffffffffffffffffffffffffffffffffff\n      and\n        /* \"Airdrops/TimedAirdrop.sol\":1018:1037  msg.sender == owner */\n      0xffffffffffffffffffffffffffffffffffffffff\n      and\n        /* \"Airdrops/TimedAirdrop.sol\":1018:1028  msg.sender */\n      caller\n        /* \"Airdrops/TimedAirdrop.sol\":1018:1037  msg.sender == owner */\n      0xffffffffffffffffffffffffffffffffffffffff\n      and\n      eq\n        /* \"Airdrops/TimedAirdrop.sol\":1010:1038  require(msg.sender == owner) */\n      tag_75\n      jumpi\n      0x00\n      dup1\n      revert\n    tag_75:\n        /* \"Airdrops/TimedAirdrop.sol\":2454:2458  true */\n      0x01\n        /* \"Airdrops/TimedAirdrop.sol\":2446:2451  pause */\n      0x03\n      0x14\n        /* \"Airdrops/TimedAirdrop.sol\":2446:2458  pause = true */\n      0x0100\n      exp\n      dup2\n      sload\n      dup2\n      0xff\n      mul\n      not\n      and\n      swap1\n      dup4\n      iszero\n      iszero\n      mul\n      or\n      swap1\n      sstore\n      pop\n        /* \"Airdrops/TimedAirdrop.sol\":2399:2465  function paused() external  onlyOwner{... */\n      jump\t// out\n        /* \"Airdrops/TimedAirdrop.sol\":1307:1631  function setAirdropamount(... */\n    tag_21:\n        /* \"Airdrops/TimedAirdrop.sol\":1032:1037  owner */\n      0x03\n      0x00\n      swap1\n      sload\n      swap1\n      0x0100\n      exp\n      swap1\n      div\n      0xffffffffffffffffffffffffffffffffffffffff\n      and\n        /* \"Airdrops/TimedAirdrop.sol\":1018:1037  msg.sender == owner */\n      0xffffffffffffffffffffffffffffffffffffffff\n      and\n        /* \"Airdrops/TimedAirdrop.sol\":1018:1028  msg.sender */\n      caller\n        /* \"Airdrops/TimedAirdrop.sol\":1018:1037  msg.sender == owner */\n      0xffffffffffffffffffffffffffffffffffffffff\n      and\n      eq\n        /* \"Airdrops/TimedAirdrop.sol\":1010:1038  require(msg.sender == owner) */\n      tag_78\n      jumpi\n      0x00\n      dup1\n      revert\n    tag_78:\n        /* \"Airdrops/TimedAirdrop.sol\":1471:1477  amount */\n      dup2\n      dup2\n        /* \"Airdrops/TimedAirdrop.sol\":1471:1484  amount.length */\n      swap1\n      pop\n        /* \"Airdrops/TimedAirdrop.sol\":1450:1460  receipient */\n      dup5\n      dup5\n        /* \"Airdrops/TimedAirdrop.sol\":1450:1467  receipient.length */\n      swap1\n      pop\n        /* \"Airdrops/TimedAirdrop.sol\":1450:1484  receipient.length == amount.length */\n      eq\n        /* \"Airdrops/TimedAirdrop.sol\":1442:1502  require(receipient.length == amount.length, \"missing input\") */\n      tag_80\n      jumpi\n      mload(0x40)\n      0x08c379a000000000000000000000000000000000000000000000000000000000\n      dup2\n      mstore\n      0x04\n      add\n      tag_81\n      swap1\n      tag_82\n      jump\t// in\n    tag_81:\n      mload(0x40)\n      dup1\n      swap2\n      sub\n      swap1\n      revert\n    tag_80:\n        /* \"Airdrops/TimedAirdrop.sol\":1517:1526  uint256 i */\n      0x00\n        /* \"Airdrops/TimedAirdrop.sol\":1512:1625  for (uint256 i = 0; i < receipient.length; i++) {... */\n    tag_83:\n        /* \"Airdrops/TimedAirdrop.sol\":1536:1546  receipient */\n      dup5\n      dup5\n        /* \"Airdrops/TimedAirdrop.sol\":1536:1553  receipient.length */\n      swap1\n      pop\n        /* \"Airdrops/TimedAirdrop.sol\":1532:1533  i */\n      dup2\n        /* \"Airdrops/TimedAirdrop.sol\":1532:1553  i < receipient.length */\n      lt\n        /* \"Airdrops/TimedAirdrop.sol\":1512:1625  for (uint256 i = 0; i < receipient.length; i++) {... */\n      iszero\n      tag_84\n      jumpi\n        /* \"Airdrops/TimedAirdrop.sol\":1574:1579  token */\n      0x02\n      0x00\n      swap1\n      sload\n      swap1\n      0x0100\n      exp\n      swap1\n      div\n      0xffffffffffffffffffffffffffffffffffffffff\n      and\n        /* \"Airdrops/TimedAirdrop.sol\":1574:1588  token.transfer */\n      0xffffffffffffffffffffffffffffffffffffffff\n      and\n      0xa9059cbb\n        /* \"Airdrops/TimedAirdrop.sol\":1589:1599  receipient */\n      dup7\n      dup7\n        /* \"Airdrops/TimedAirdrop.sol\":1600:1601  i */\n      dup5\n        /* \"Airdrops/TimedAirdrop.sol\":1589:1602  receipient[i] */\n      dup2\n      dup2\n      lt\n      tag_86\n      jumpi\n      tag_87\n      tag_88\n      jump\t// in\n    tag_87:\n    tag_86:\n      swap1\n      pop\n      0x20\n      mul\n      add\n      0x20\n      dup2\n      add\n      swap1\n      tag_89\n      swap2\n      swap1\n      tag_24\n      jump\t// in\n    tag_89:\n        /* \"Airdrops/TimedAirdrop.sol\":1604:1610  amount */\n      dup6\n      dup6\n        /* \"Airdrops/TimedAirdrop.sol\":1611:1612  i */\n      dup6\n        /* \"Airdrops/TimedAirdrop.sol\":1604:1613  amount[i] */\n      dup2\n      dup2\n      lt\n      tag_90\n      jumpi\n      tag_91\n      tag_88\n      jump\t// in\n    tag_91:\n    tag_90:\n      swap1\n      pop\n      0x20\n      mul\n      add\n      calldataload\n        /* \"Airdrops/TimedAirdrop.sol\":1574:1614  token.transfer(receipient[i], amount[i]) */\n      mload(0x40)\n      dup4\n      0xffffffff\n      and\n      0xe0\n      shl\n      dup2\n      mstore\n      0x04\n      add\n      tag_92\n      swap3\n      swap2\n      swap1\n      tag_69\n      jump\t// in\n    tag_92:\n      0x20\n      mload(0x40)\n      dup1\n      dup4\n      sub\n      dup2\n      0x00\n      dup8\n      gas\n      call\n      iszero\n      dup1\n      iszero\n      tag_94\n      jumpi\n      returndatasize\n      0x00\n      dup1\n      returndatacopy\n      revert(0x00, returndatasize)\n    tag_94:\n      pop\n      pop\n      pop\n      pop\n      mload(0x40)\n      returndatasize\n      not(0x1f)\n      0x1f\n      dup3\n      add\n      and\n      dup3\n      add\n      dup1\n      0x40\n      mstore\n      pop\n      dup2\n      add\n      swap1\n      tag_95\n      swap2\n      swap1\n      tag_73\n      jump\t// in\n    tag_95:\n      pop\n        /* \"Airdrops/TimedAirdrop.sol\":1555:1558  i++ */\n      dup1\n      dup1\n      0x01\n      add\n      swap2\n      pop\n      pop\n        /* \"Airdrops/TimedAirdrop.sol\":1512:1625  for (uint256 i = 0; i < receipient.length; i++) {... */\n      jump(tag_83)\n    tag_84:\n      pop\n        /* \"Airdrops/TimedAirdrop.sol\":1307:1631  function setAirdropamount(... */\n      pop\n      pop\n      pop\n      pop\n      jump\t// out\n        /* \"Airdrops/TimedAirdrop.sol\":470:512  mapping(address => bool) public hasClaimed */\n    tag_25:\n      mstore(0x20, 0x05)\n      dup1\n      0x00\n      mstore\n      keccak256(0x00, 0x40)\n      0x00\n      swap2\n      pop\n      sload\n      swap1\n      0x0100\n      exp\n      swap1\n      div\n      0xff\n      and\n      dup2\n      jump\t// out\n        /* \"Airdrops/TimedAirdrop.sol\":392:410  bool public  pause */\n    tag_29:\n      0x03\n      0x14\n      swap1\n      sload\n      swap1\n      0x0100\n      exp\n      swap1\n      div\n      0xff\n      and\n      dup2\n      jump\t// out\n        /* \"Airdrops/TimedAirdrop.sol\":366:386  address public owner */\n    tag_32:\n      0x03\n      0x00\n      swap1\n      sload\n      swap1\n      0x0100\n      exp\n      swap1\n      div\n      0xffffffffffffffffffffffffffffffffffffffff\n      and\n      dup2\n      jump\t// out\n        /* \"Airdrops/TimedAirdrop.sol\":2475:2546  function unpaused() external   onlyOwner {... */\n    tag_36:\n        /* \"Airdrops/TimedAirdrop.sol\":1032:1037  owner */\n      0x03\n      0x00\n      swap1\n      sload\n      swap1\n      0x0100\n      exp\n      swap1\n      div\n      0xffffffffffffffffffffffffffffffffffffffff\n      and\n        /* \"Airdrops/TimedAirdrop.sol\":1018:1037  msg.sender == owner */\n      0xffffffffffffffffffffffffffffffffffffffff\n      and\n        /* \"Airdrops/TimedAirdrop.sol\":1018:1028  msg.sender */\n      caller\n        /* \"Airdrops/TimedAirdrop.sol\":1018:1037  msg.sender == owner */\n      0xffffffffffffffffffffffffffffffffffffffff\n      and\n      eq\n        /* \"Airdrops/TimedAirdrop.sol\":1010:1038  require(msg.sender == owner) */\n      tag_97\n      jumpi\n      0x00\n      dup1\n      revert\n    tag_97:\n        /* \"Airdrops/TimedAirdrop.sol\":2534:2539  false */\n      0x00\n        /* \"Airdrops/TimedAirdrop.sol\":2526:2531  pause */\n      0x03\n      0x14\n        /* \"Airdrops/TimedAirdrop.sol\":2526:2539  pause = false */\n      0x0100\n      exp\n      dup2\n      sload\n      dup2\n      0xff\n      mul\n      not\n      and\n      swap1\n      dup4\n      iszero\n      iszero\n      mul\n      or\n      swap1\n      sstore\n      pop\n        /* \"Airdrops/TimedAirdrop.sol\":2475:2546  function unpaused() external   onlyOwner {... */\n      jump\t// out\n        /* \"Airdrops/TimedAirdrop.sol\":416:464  mapping(address => uint256) public airdropAmount */\n    tag_39:\n      mstore(0x20, 0x04)\n      dup1\n      0x00\n      mstore\n      keccak256(0x00, 0x40)\n      0x00\n      swap2\n      pop\n      swap1\n      pop\n      sload\n      dup2\n      jump\t// out\n        /* \"Airdrops/TimedAirdrop.sol\":2122:2342  function updateClaimPeriod(uint _startTime,uint _endTime) external  onlyOwner{... */\n    tag_45:\n        /* \"Airdrops/TimedAirdrop.sol\":1032:1037  owner */\n      0x03\n      0x00\n      swap1\n      sload\n      swap1\n      0x0100\n      exp\n      swap1\n      div\n      0xffffffffffffffffffffffffffffffffffffffff\n      and\n        /* \"Airdrops/TimedAirdrop.sol\":1018:1037  msg.sender == owner */\n      0xffffffffffffffffffffffffffffffffffffffff\n      and\n        /* \"Airdrops/TimedAirdrop.sol\":1018:1028  msg.sender */\n      caller\n        /* \"Airdrops/TimedAirdrop.sol\":1018:1037  msg.sender == owner */\n      0xffffffffffffffffffffffffffffffffffffffff\n      and\n      eq\n        /* \"Airdrops/TimedAirdrop.sol\":1010:1038  require(msg.sender == owner) */\n      tag_100\n      jumpi\n      0x00\n      dup1\n      revert\n    tag_100:\n        /* \"Airdrops/TimedAirdrop.sol\":2227:2237  _startTime */\n      dup2\n        /* \"Airdrops/TimedAirdrop.sol\":2217:2225  _endTime */\n      dup2\n        /* \"Airdrops/TimedAirdrop.sol\":2217:2237  _endTime>=_startTime */\n      lt\n      iszero\n        /* \"Airdrops/TimedAirdrop.sol\":2209:2279  require(_endTime>=_startTime,\"endTime cannot be less than start time\") */\n      tag_102\n      jumpi\n      mload(0x40)\n      0x08c379a000000000000000000000000000000000000000000000000000000000\n      dup2\n      mstore\n      0x04\n      add\n      tag_103\n      swap1\n      tag_104\n      jump\t// in\n    tag_103:\n      mload(0x40)\n      dup1\n      swap2\n      sub\n      swap1\n      revert\n    tag_102:\n        /* \"Airdrops/TimedAirdrop.sol\":2299:2309  _startTime */\n      dup2\n        /* \"Airdrops/TimedAirdrop.sol\":2289:2298  startTime */\n      0x00\n        /* \"Airdrops/TimedAirdrop.sol\":2289:2309  startTime=_startTime */\n      dup2\n      swap1\n      sstore\n      pop\n        /* \"Airdrops/TimedAirdrop.sol\":2327:2335  _endTime */\n      dup1\n        /* \"Airdrops/TimedAirdrop.sol\":2319:2326  endTime */\n      0x01\n        /* \"Airdrops/TimedAirdrop.sol\":2319:2335  endTime=_endTime */\n      dup2\n      swap1\n      sstore\n      pop\n        /* \"Airdrops/TimedAirdrop.sol\":2122:2342  function updateClaimPeriod(uint _startTime,uint _endTime) external  onlyOwner{... */\n      pop\n      pop\n      jump\t// out\n        /* \"Airdrops/TimedAirdrop.sol\":341:360  IERC20 public token */\n    tag_47:\n      0x02\n      0x00\n      swap1\n      sload\n      swap1\n      0x0100\n      exp\n      swap1\n      div\n      0xffffffffffffffffffffffffffffffffffffffff\n      and\n      dup2\n      jump\t// out\n        /* \"#utility.yul\":88:205   */\n    tag_106:\n        /* \"#utility.yul\":197:198   */\n      0x00\n        /* \"#utility.yul\":194:195   */\n      dup1\n        /* \"#utility.yul\":187:199   */\n      revert\n        /* \"#utility.yul\":211:328   */\n    tag_107:\n        /* \"#utility.yul\":320:321   */\n      0x00\n        /* \"#utility.yul\":317:318   */\n      dup1\n        /* \"#utility.yul\":310:322   */\n      revert\n        /* \"#utility.yul\":334:451   */\n    tag_108:\n        /* \"#utility.yul\":443:444   */\n      0x00\n        /* \"#utility.yul\":440:441   */\n      dup1\n        /* \"#utility.yul\":433:445   */\n      revert\n        /* \"#utility.yul\":457:574   */\n    tag_109:\n        /* \"#utility.yul\":566:567   */\n      0x00\n        /* \"#utility.yul\":563:564   */\n      dup1\n        /* \"#utility.yul\":556:568   */\n      revert\n        /* \"#utility.yul\":580:697   */\n    tag_110:\n        /* \"#utility.yul\":689:690   */\n      0x00\n        /* \"#utility.yul\":686:687   */\n      dup1\n        /* \"#utility.yul\":679:691   */\n      revert\n        /* \"#utility.yul\":720:1288   */\n    tag_111:\n        /* \"#utility.yul\":793:801   */\n      0x00\n        /* \"#utility.yul\":803:809   */\n      dup1\n        /* \"#utility.yul\":853:856   */\n      dup4\n        /* \"#utility.yul\":846:850   */\n      0x1f\n        /* \"#utility.yul\":838:844   */\n      dup5\n        /* \"#utility.yul\":834:851   */\n      add\n        /* \"#utility.yul\":830:857   */\n      slt\n        /* \"#utility.yul\":820:942   */\n      tag_154\n      jumpi\n        /* \"#utility.yul\":861:940   */\n      tag_155\n      tag_108\n      jump\t// in\n    tag_155:\n        /* \"#utility.yul\":820:942   */\n    tag_154:\n        /* \"#utility.yul\":974:980   */\n      dup3\n        /* \"#utility.yul\":961:981   */\n      calldataload\n        /* \"#utility.yul\":951:981   */\n      swap1\n      pop\n        /* \"#utility.yul\":1004:1022   */\n      0xffffffffffffffff\n        /* \"#utility.yul\":996:1002   */\n      dup2\n        /* \"#utility.yul\":993:1023   */\n      gt\n        /* \"#utility.yul\":990:1107   */\n      iszero\n      tag_156\n      jumpi\n        /* \"#utility.yul\":1026:1105   */\n      tag_157\n      tag_109\n      jump\t// in\n    tag_157:\n        /* \"#utility.yul\":990:1107   */\n    tag_156:\n        /* \"#utility.yul\":1140:1144   */\n      0x20\n        /* \"#utility.yul\":1132:1138   */\n      dup4\n        /* \"#utility.yul\":1128:1145   */\n      add\n        /* \"#utility.yul\":1116:1145   */\n      swap2\n      pop\n        /* \"#utility.yul\":1194:1197   */\n      dup4\n        /* \"#utility.yul\":1186:1190   */\n      0x20\n        /* \"#utility.yul\":1178:1184   */\n      dup3\n        /* \"#utility.yul\":1174:1191   */\n      mul\n        /* \"#utility.yul\":1164:1172   */\n      dup4\n        /* \"#utility.yul\":1160:1192   */\n      add\n        /* \"#utility.yul\":1157:1198   */\n      gt\n        /* \"#utility.yul\":1154:1282   */\n      iszero\n      tag_158\n      jumpi\n        /* \"#utility.yul\":1201:1280   */\n      tag_159\n      tag_110\n      jump\t// in\n    tag_159:\n        /* \"#utility.yul\":1154:1282   */\n    tag_158:\n        /* \"#utility.yul\":720:1288   */\n      swap3\n      pop\n      swap3\n      swap1\n      pop\n      jump\t// out\n        /* \"#utility.yul\":1311:1879   */\n    tag_112:\n        /* \"#utility.yul\":1384:1392   */\n      0x00\n        /* \"#utility.yul\":1394:1400   */\n      dup1\n        /* \"#utility.yul\":1444:1447   */\n      dup4\n        /* \"#utility.yul\":1437:1441   */\n      0x1f\n        /* \"#utility.yul\":1429:1435   */\n      dup5\n        /* \"#utility.yul\":1425:1442   */\n      add\n        /* \"#utility.yul\":1421:1448   */\n      slt\n        /* \"#utility.yul\":1411:1533   */\n      tag_161\n      jumpi\n        /* \"#utility.yul\":1452:1531   */\n      tag_162\n      tag_108\n      jump\t// in\n    tag_162:\n        /* \"#utility.yul\":1411:1533   */\n    tag_161:\n        /* \"#utility.yul\":1565:1571   */\n      dup3\n        /* \"#utility.yul\":1552:1572   */\n      calldataload\n        /* \"#utility.yul\":1542:1572   */\n      swap1\n      pop\n        /* \"#utility.yul\":1595:1613   */\n      0xffffffffffffffff\n        /* \"#utility.yul\":1587:1593   */\n      dup2\n        /* \"#utility.yul\":1584:1614   */\n      gt\n        /* \"#utility.yul\":1581:1698   */\n      iszero\n      tag_163\n      jumpi\n        /* \"#utility.yul\":1617:1696   */\n      tag_164\n      tag_109\n      jump\t// in\n    tag_164:\n        /* \"#utility.yul\":1581:1698   */\n    tag_163:\n        /* \"#utility.yul\":1731:1735   */\n      0x20\n        /* \"#utility.yul\":1723:1729   */\n      dup4\n        /* \"#utility.yul\":1719:1736   */\n      add\n        /* \"#utility.yul\":1707:1736   */\n      swap2\n      pop\n        /* \"#utility.yul\":1785:1788   */\n      dup4\n        /* \"#utility.yul\":1777:1781   */\n      0x20\n        /* \"#utility.yul\":1769:1775   */\n      dup3\n        /* \"#utility.yul\":1765:1782   */\n      mul\n        /* \"#utility.yul\":1755:1763   */\n      dup4\n        /* \"#utility.yul\":1751:1783   */\n      add\n        /* \"#utility.yul\":1748:1789   */\n      gt\n        /* \"#utility.yul\":1745:1873   */\n      iszero\n      tag_165\n      jumpi\n        /* \"#utility.yul\":1792:1871   */\n      tag_166\n      tag_110\n      jump\t// in\n    tag_166:\n        /* \"#utility.yul\":1745:1873   */\n    tag_165:\n        /* \"#utility.yul\":1311:1879   */\n      swap3\n      pop\n      swap3\n      swap1\n      pop\n      jump\t// out\n        /* \"#utility.yul\":1885:2819   */\n    tag_20:\n        /* \"#utility.yul\":2007:2013   */\n      0x00\n        /* \"#utility.yul\":2015:2021   */\n      dup1\n        /* \"#utility.yul\":2023:2029   */\n      0x00\n        /* \"#utility.yul\":2031:2037   */\n      dup1\n        /* \"#utility.yul\":2080:2082   */\n      0x40\n        /* \"#utility.yul\":2068:2077   */\n      dup6\n        /* \"#utility.yul\":2059:2066   */\n      dup8\n        /* \"#utility.yul\":2055:2078   */\n      sub\n        /* \"#utility.yul\":2051:2083   */\n      slt\n        /* \"#utility.yul\":2048:2167   */\n      iszero\n      tag_168\n      jumpi\n        /* \"#utility.yul\":2086:2165   */\n      tag_169\n      tag_106\n      jump\t// in\n    tag_169:\n        /* \"#utility.yul\":2048:2167   */\n    tag_168:\n        /* \"#utility.yul\":2234:2235   */\n      0x00\n        /* \"#utility.yul\":2223:2232   */\n      dup6\n        /* \"#utility.yul\":2219:2236   */\n      add\n        /* \"#utility.yul\":2206:2237   */\n      calldataload\n        /* \"#utility.yul\":2264:2282   */\n      0xffffffffffffffff\n        /* \"#utility.yul\":2256:2262   */\n      dup2\n        /* \"#utility.yul\":2253:2283   */\n      gt\n        /* \"#utility.yul\":2250:2367   */\n      iszero\n      tag_170\n      jumpi\n        /* \"#utility.yul\":2286:2365   */\n      tag_171\n      tag_107\n      jump\t// in\n    tag_171:\n        /* \"#utility.yul\":2250:2367   */\n    tag_170:\n        /* \"#utility.yul\":2399:2479   */\n      tag_172\n        /* \"#utility.yul\":2471:2478   */\n      dup8\n        /* \"#utility.yul\":2462:2468   */\n      dup3\n        /* \"#utility.yul\":2451:2460   */\n      dup9\n        /* \"#utility.yul\":2447:2469   */\n      add\n        /* \"#utility.yul\":2399:2479   */\n      tag_111\n      jump\t// in\n    tag_172:\n        /* \"#utility.yul\":2381:2479   */\n      swap5\n      pop\n      swap5\n      pop\n        /* \"#utility.yul\":2177:2489   */\n      pop\n        /* \"#utility.yul\":2556:2558   */\n      0x20\n        /* \"#utility.yul\":2545:2554   */\n      dup6\n        /* \"#utility.yul\":2541:2559   */\n      add\n        /* \"#utility.yul\":2528:2560   */\n      calldataload\n        /* \"#utility.yul\":2587:2605   */\n      0xffffffffffffffff\n        /* \"#utility.yul\":2579:2585   */\n      dup2\n        /* \"#utility.yul\":2576:2606   */\n      gt\n        /* \"#utility.yul\":2573:2690   */\n      iszero\n      tag_173\n      jumpi\n        /* \"#utility.yul\":2609:2688   */\n      tag_174\n      tag_107\n      jump\t// in\n    tag_174:\n        /* \"#utility.yul\":2573:2690   */\n    tag_173:\n        /* \"#utility.yul\":2722:2802   */\n      tag_175\n        /* \"#utility.yul\":2794:2801   */\n      dup8\n        /* \"#utility.yul\":2785:2791   */\n      dup3\n        /* \"#utility.yul\":2774:2783   */\n      dup9\n        /* \"#utility.yul\":2770:2792   */\n      add\n        /* \"#utility.yul\":2722:2802   */\n      tag_112\n      jump\t// in\n    tag_175:\n        /* \"#utility.yul\":2704:2802   */\n      swap3\n      pop\n      swap3\n      pop\n        /* \"#utility.yul\":2499:2812   */\n      pop\n        /* \"#utility.yul\":1885:2819   */\n      swap3\n      swap6\n      swap2\n      swap5\n      pop\n      swap3\n      pop\n      jump\t// out\n        /* \"#utility.yul\":2825:2951   */\n    tag_113:\n        /* \"#utility.yul\":2862:2869   */\n      0x00\n        /* \"#utility.yul\":2902:2944   */\n      0xffffffffffffffffffffffffffffffffffffffff\n        /* \"#utility.yul\":2895:2900   */\n      dup3\n        /* \"#utility.yul\":2891:2945   */\n      and\n        /* \"#utility.yul\":2880:2945   */\n      swap1\n      pop\n        /* \"#utility.yul\":2825:2951   */\n      swap2\n      swap1\n      pop\n      jump\t// out\n        /* \"#utility.yul\":2957:3053   */\n    tag_114:\n        /* \"#utility.yul\":2994:3001   */\n      0x00\n        /* \"#utility.yul\":3023:3047   */\n      tag_178\n        /* \"#utility.yul\":3041:3046   */\n      dup3\n        /* \"#utility.yul\":3023:3047   */\n      tag_113\n      jump\t// in\n    tag_178:\n        /* \"#utility.yul\":3012:3047   */\n      swap1\n      pop\n        /* \"#utility.yul\":2957:3053   */\n      swap2\n      swap1\n      pop\n      jump\t// out\n        /* \"#utility.yul\":3059:3181   */\n    tag_115:\n        /* \"#utility.yul\":3132:3156   */\n      tag_180\n        /* \"#utility.yul\":3150:3155   */\n      dup2\n        /* \"#utility.yul\":3132:3156   */\n      tag_114\n      jump\t// in\n    tag_180:\n        /* \"#utility.yul\":3125:3130   */\n      dup2\n        /* \"#utility.yul\":3122:3157   */\n      eq\n        /* \"#utility.yul\":3112:3175   */\n      tag_181\n      jumpi\n        /* \"#utility.yul\":3171:3172   */\n      0x00\n        /* \"#utility.yul\":3168:3169   */\n      dup1\n        /* \"#utility.yul\":3161:3173   */\n      revert\n        /* \"#utility.yul\":3112:3175   */\n    tag_181:\n        /* \"#utility.yul\":3059:3181   */\n      pop\n      jump\t// out\n        /* \"#utility.yul\":3187:3326   */\n    tag_116:\n        /* \"#utility.yul\":3233:3238   */\n      0x00\n        /* \"#utility.yul\":3271:3277   */\n      dup2\n        /* \"#utility.yul\":3258:3278   */\n      calldataload\n        /* \"#utility.yul\":3249:3278   */\n      swap1\n      pop\n        /* \"#utility.yul\":3287:3320   */\n      tag_183\n        /* \"#utility.yul\":3314:3319   */\n      dup2\n        /* \"#utility.yul\":3287:3320   */\n      tag_115\n      jump\t// in\n    tag_183:\n        /* \"#utility.yul\":3187:3326   */\n      swap3\n      swap2\n      pop\n      pop\n      jump\t// out\n        /* \"#utility.yul\":3332:3661   */\n    tag_24:\n        /* \"#utility.yul\":3391:3397   */\n      0x00\n        /* \"#utility.yul\":3440:3442   */\n      0x20\n        /* \"#utility.yul\":3428:3437   */\n      dup3\n        /* \"#utility.yul\":3419:3426   */\n      dup5\n        /* \"#utility.yul\":3415:3438   */\n      sub\n        /* \"#utility.yul\":3411:3443   */\n      slt\n        /* \"#utility.yul\":3408:3527   */\n      iszero\n      tag_185\n      jumpi\n        /* \"#utility.yul\":3446:3525   */\n      tag_186\n      tag_106\n      jump\t// in\n    tag_186:\n        /* \"#utility.yul\":3408:3527   */\n    tag_185:\n        /* \"#utility.yul\":3566:3567   */\n      0x00\n        /* \"#utility.yul\":3591:3644   */\n      tag_187\n        /* \"#utility.yul\":3636:3643   */\n      dup5\n        /* \"#utility.yul\":3627:3633   */\n      dup3\n        /* \"#utility.yul\":3616:3625   */\n      dup6\n        /* \"#utility.yul\":3612:3634   */\n      add\n        /* \"#utility.yul\":3591:3644   */\n      tag_116\n      jump\t// in\n    tag_187:\n        /* \"#utility.yul\":3581:3644   */\n      swap2\n      pop\n        /* \"#utility.yul\":3537:3654   */\n      pop\n        /* \"#utility.yul\":3332:3661   */\n      swap3\n      swap2\n      pop\n      pop\n      jump\t// out\n        /* \"#utility.yul\":3667:3757   */\n    tag_117:\n        /* \"#utility.yul\":3701:3708   */\n      0x00\n        /* \"#utility.yul\":3744:3749   */\n      dup2\n        /* \"#utility.yul\":3737:3750   */\n      iszero\n        /* \"#utility.yul\":3730:3751   */\n      iszero\n        /* \"#utility.yul\":3719:3751   */\n      swap1\n      pop\n        /* \"#utility.yul\":3667:3757   */\n      swap2\n      swap1\n      pop\n      jump\t// out\n        /* \"#utility.yul\":3763:3872   */\n    tag_118:\n        /* \"#utility.yul\":3844:3865   */\n      tag_190\n        /* \"#utility.yul\":3859:3864   */\n      dup2\n        /* \"#utility.yul\":3844:3865   */\n      tag_117\n      jump\t// in\n    tag_190:\n        /* \"#utility.yul\":3839:3842   */\n      dup3\n        /* \"#utility.yul\":3832:3866   */\n      mstore\n        /* \"#utility.yul\":3763:3872   */\n      pop\n      pop\n      jump\t// out\n        /* \"#utility.yul\":3878:4088   */\n    tag_27:\n        /* \"#utility.yul\":3965:3969   */\n      0x00\n        /* \"#utility.yul\":4003:4005   */\n      0x20\n        /* \"#utility.yul\":3992:4001   */\n      dup3\n        /* \"#utility.yul\":3988:4006   */\n      add\n        /* \"#utility.yul\":3980:4006   */\n      swap1\n      pop\n        /* \"#utility.yul\":4016:4081   */\n      tag_192\n        /* \"#utility.yul\":4078:4079   */\n      0x00\n        /* \"#utility.yul\":4067:4076   */\n      dup4\n        /* \"#utility.yul\":4063:4080   */\n      add\n        /* \"#utility.yul\":4054:4060   */\n      dup5\n        /* \"#utility.yul\":4016:4081   */\n      tag_118\n      jump\t// in\n    tag_192:\n        /* \"#utility.yul\":3878:4088   */\n      swap3\n      swap2\n      pop\n      pop\n      jump\t// out\n        /* \"#utility.yul\":4094:4212   */\n    tag_119:\n        /* \"#utility.yul\":4181:4205   */\n      tag_194\n        /* \"#utility.yul\":4199:4204   */\n      dup2\n        /* \"#utility.yul\":4181:4205   */\n      tag_114\n      jump\t// in\n    tag_194:\n        /* \"#utility.yul\":4176:4179   */\n      dup3\n        /* \"#utility.yul\":4169:4206   */\n      mstore\n        /* \"#utility.yul\":4094:4212   */\n      pop\n      pop\n      jump\t// out\n        /* \"#utility.yul\":4218:4440   */\n    tag_34:\n        /* \"#utility.yul\":4311:4315   */\n      0x00\n        /* \"#utility.yul\":4349:4351   */\n      0x20\n        /* \"#utility.yul\":4338:4347   */\n      dup3\n        /* \"#utility.yul\":4334:4352   */\n      add\n        /* \"#utility.yul\":4326:4352   */\n      swap1\n      pop\n        /* \"#utility.yul\":4362:4433   */\n      tag_196\n        /* \"#utility.yul\":4430:4431   */\n      0x00\n        /* \"#utility.yul\":4419:4428   */\n      dup4\n        /* \"#utility.yul\":4415:4432   */\n      add\n        /* \"#utility.yul\":4406:4412   */\n      dup5\n        /* \"#utility.yul\":4362:4433   */\n      tag_119\n      jump\t// in\n    tag_196:\n        /* \"#utility.yul\":4218:4440   */\n      swap3\n      swap2\n      pop\n      pop\n      jump\t// out\n        /* \"#utility.yul\":4446:4523   */\n    tag_120:\n        /* \"#utility.yul\":4483:4490   */\n      0x00\n        /* \"#utility.yul\":4512:4517   */\n      dup2\n        /* \"#utility.yul\":4501:4517   */\n      swap1\n      pop\n        /* \"#utility.yul\":4446:4523   */\n      swap2\n      swap1\n      pop\n      jump\t// out\n        /* \"#utility.yul\":4529:4647   */\n    tag_121:\n        /* \"#utility.yul\":4616:4640   */\n      tag_199\n        /* \"#utility.yul\":4634:4639   */\n      dup2\n        /* \"#utility.yul\":4616:4640   */\n      tag_120\n      jump\t// in\n    tag_199:\n        /* \"#utility.yul\":4611:4614   */\n      dup3\n        /* \"#utility.yul\":4604:4641   */\n      mstore\n        /* \"#utility.yul\":4529:4647   */\n      pop\n      pop\n      jump\t// out\n        /* \"#utility.yul\":4653:4875   */\n    tag_41:\n        /* \"#utility.yul\":4746:4750   */\n      0x00\n        /* \"#utility.yul\":4784:4786   */\n      0x20\n        /* \"#utility.yul\":4773:4782   */\n      dup3\n        /* \"#utility.yul\":4769:4787   */\n      add\n        /* \"#utility.yul\":4761:4787   */\n      swap1\n      pop\n        /* \"#utility.yul\":4797:4868   */\n      tag_201\n        /* \"#utility.yul\":4865:4866   */\n      0x00\n        /* \"#utility.yul\":4854:4863   */\n      dup4\n        /* \"#utility.yul\":4850:4867   */\n      add\n        /* \"#utility.yul\":4841:4847   */\n      dup5\n        /* \"#utility.yul\":4797:4868   */\n      tag_121\n      jump\t// in\n    tag_201:\n        /* \"#utility.yul\":4653:4875   */\n      swap3\n      swap2\n      pop\n      pop\n      jump\t// out\n        /* \"#utility.yul\":4881:5003   */\n    tag_122:\n        /* \"#utility.yul\":4954:4978   */\n      tag_203\n        /* \"#utility.yul\":4972:4977   */\n      dup2\n        /* \"#utility.yul\":4954:4978   */\n      tag_120\n      jump\t// in\n    tag_203:\n        /* \"#utility.yul\":4947:4952   */\n      dup2\n        /* \"#utility.yul\":4944:4979   */\n      eq\n        /* \"#utility.yul\":4934:4997   */\n      tag_204\n      jumpi\n        /* \"#utility.yul\":4993:4994   */\n      0x00\n        /* \"#utility.yul\":4990:4991   */\n      dup1\n        /* \"#utility.yul\":4983:4995   */\n      revert\n        /* \"#utility.yul\":4934:4997   */\n    tag_204:\n        /* \"#utility.yul\":4881:5003   */\n      pop\n      jump\t// out\n        /* \"#utility.yul\":5009:5148   */\n    tag_123:\n        /* \"#utility.yul\":5055:5060   */\n      0x00\n        /* \"#utility.yul\":5093:5099   */\n      dup2\n        /* \"#utility.yul\":5080:5100   */\n      calldataload\n        /* \"#utility.yul\":5071:5100   */\n      swap1\n      pop\n        /* \"#utility.yul\":5109:5142   */\n      tag_206\n        /* \"#utility.yul\":5136:5141   */\n      dup2\n        /* \"#utility.yul\":5109:5142   */\n      tag_122\n      jump\t// in\n    tag_206:\n        /* \"#utility.yul\":5009:5148   */\n      swap3\n      swap2\n      pop\n      pop\n      jump\t// out\n        /* \"#utility.yul\":5154:5628   */\n    tag_44:\n        /* \"#utility.yul\":5222:5228   */\n      0x00\n        /* \"#utility.yul\":5230:5236   */\n      dup1\n        /* \"#utility.yul\":5279:5281   */\n      0x40\n        /* \"#utility.yul\":5267:5276   */\n      dup4\n        /* \"#utility.yul\":5258:5265   */\n      dup6\n        /* \"#utility.yul\":5254:5277   */\n      sub\n        /* \"#utility.yul\":5250:5282   */\n      slt\n        /* \"#utility.yul\":5247:5366   */\n      iszero\n      tag_208\n      jumpi\n        /* \"#utility.yul\":5285:5364   */\n      tag_209\n      tag_106\n      jump\t// in\n    tag_209:\n        /* \"#utility.yul\":5247:5366   */\n    tag_208:\n        /* \"#utility.yul\":5405:5406   */\n      0x00\n        /* \"#utility.yul\":5430:5483   */\n      tag_210\n        /* \"#utility.yul\":5475:5482   */\n      dup6\n        /* \"#utility.yul\":5466:5472   */\n      dup3\n        /* \"#utility.yul\":5455:5464   */\n      dup7\n        /* \"#utility.yul\":5451:5473   */\n      add\n        /* \"#utility.yul\":5430:5483   */\n      tag_123\n      jump\t// in\n    tag_210:\n        /* \"#utility.yul\":5420:5483   */\n      swap3\n      pop\n        /* \"#utility.yul\":5376:5493   */\n      pop\n        /* \"#utility.yul\":5532:5534   */\n      0x20\n        /* \"#utility.yul\":5558:5611   */\n      tag_211\n        /* \"#utility.yul\":5603:5610   */\n      dup6\n        /* \"#utility.yul\":5594:5600   */\n      dup3\n        /* \"#utility.yul\":5583:5592   */\n      dup7\n        /* \"#utility.yul\":5579:5601   */\n      add\n        /* \"#utility.yul\":5558:5611   */\n      tag_123\n      jump\t// in\n    tag_211:\n        /* \"#utility.yul\":5548:5611   */\n      swap2\n      pop\n        /* \"#utility.yul\":5503:5621   */\n      pop\n        /* \"#utility.yul\":5154:5628   */\n      swap3\n      pop\n      swap3\n      swap1\n      pop\n      jump\t// out\n        /* \"#utility.yul\":5634:5694   */\n    tag_124:\n        /* \"#utility.yul\":5662:5665   */\n      0x00\n        /* \"#utility.yul\":5683:5688   */\n      dup2\n        /* \"#utility.yul\":5676:5688   */\n      swap1\n      pop\n        /* \"#utility.yul\":5634:5694   */\n      swap2\n      swap1\n      pop\n      jump\t// out\n        /* \"#utility.yul\":5700:5842   */\n    tag_125:\n        /* \"#utility.yul\":5750:5759   */\n      0x00\n        /* \"#utility.yul\":5783:5836   */\n      tag_214\n        /* \"#utility.yul\":5801:5835   */\n      tag_215\n        /* \"#utility.yul\":5810:5834   */\n      tag_216\n        /* \"#utility.yul\":5828:5833   */\n      dup5\n        /* \"#utility.yul\":5810:5834   */\n      tag_113\n      jump\t// in\n    tag_216:\n        /* \"#utility.yul\":5801:5835   */\n      tag_124\n      jump\t// in\n    tag_215:\n        /* \"#utility.yul\":5783:5836   */\n      tag_113\n      jump\t// in\n    tag_214:\n        /* \"#utility.yul\":5770:5836   */\n      swap1\n      pop\n        /* \"#utility.yul\":5700:5842   */\n      swap2\n      swap1\n      pop\n      jump\t// out\n        /* \"#utility.yul\":5848:5974   */\n    tag_126:\n        /* \"#utility.yul\":5898:5907   */\n      0x00\n        /* \"#utility.yul\":5931:5968   */\n      tag_218\n        /* \"#utility.yul\":5962:5967   */\n      dup3\n        /* \"#utility.yul\":5931:5968   */\n      tag_125\n      jump\t// in\n    tag_218:\n        /* \"#utility.yul\":5918:5968   */\n      swap1\n      pop\n        /* \"#utility.yul\":5848:5974   */\n      swap2\n      swap1\n      pop\n      jump\t// out\n        /* \"#utility.yul\":5980:6119   */\n    tag_127:\n        /* \"#utility.yul\":6043:6052   */\n      0x00\n        /* \"#utility.yul\":6076:6113   */\n      tag_220\n        /* \"#utility.yul\":6107:6112   */\n      dup3\n        /* \"#utility.yul\":6076:6113   */\n      tag_126\n      jump\t// in\n    tag_220:\n        /* \"#utility.yul\":6063:6113   */\n      swap1\n      pop\n        /* \"#utility.yul\":5980:6119   */\n      swap2\n      swap1\n      pop\n      jump\t// out\n        /* \"#utility.yul\":6125:6282   */\n    tag_128:\n        /* \"#utility.yul\":6225:6275   */\n      tag_222\n        /* \"#utility.yul\":6269:6274   */\n      dup2\n        /* \"#utility.yul\":6225:6275   */\n      tag_127\n      jump\t// in\n    tag_222:\n        /* \"#utility.yul\":6220:6223   */\n      dup3\n        /* \"#utility.yul\":6213:6276   */\n      mstore\n        /* \"#utility.yul\":6125:6282   */\n      pop\n      pop\n      jump\t// out\n        /* \"#utility.yul\":6288:6536   */\n    tag_49:\n        /* \"#utility.yul\":6394:6398   */\n      0x00\n        /* \"#utility.yul\":6432:6434   */\n      0x20\n        /* \"#utility.yul\":6421:6430   */\n      dup3\n        /* \"#utility.yul\":6417:6435   */\n      add\n        /* \"#utility.yul\":6409:6435   */\n      swap1\n      pop\n        /* \"#utility.yul\":6445:6529   */\n      tag_224\n        /* \"#utility.yul\":6526:6527   */\n      0x00\n        /* \"#utility.yul\":6515:6524   */\n      dup4\n        /* \"#utility.yul\":6511:6528   */\n      add\n        /* \"#utility.yul\":6502:6508   */\n      dup5\n        /* \"#utility.yul\":6445:6529   */\n      tag_128\n      jump\t// in\n    tag_224:\n        /* \"#utility.yul\":6288:6536   */\n      swap3\n      swap2\n      pop\n      pop\n      jump\t// out\n        /* \"#utility.yul\":6542:6711   */\n    tag_129:\n        /* \"#utility.yul\":6626:6637   */\n      0x00\n        /* \"#utility.yul\":6660:6666   */\n      dup3\n        /* \"#utility.yul\":6655:6658   */\n      dup3\n        /* \"#utility.yul\":6648:6667   */\n      mstore\n        /* \"#utility.yul\":6700:6704   */\n      0x20\n        /* \"#utility.yul\":6695:6698   */\n      dup3\n        /* \"#utility.yul\":6691:6705   */\n      add\n        /* \"#utility.yul\":6676:6705   */\n      swap1\n      pop\n        /* \"#utility.yul\":6542:6711   */\n      swap3\n      swap2\n      pop\n      pop\n      jump\t// out\n        /* \"#utility.yul\":6717:6894   */\n    tag_130:\n        /* \"#utility.yul\":6857:6886   */\n      0x636c61696d20706572696f64206973206e6f7420737461727465640000000000\n        /* \"#utility.yul\":6853:6854   */\n      0x00\n        /* \"#utility.yul\":6845:6851   */\n      dup3\n        /* \"#utility.yul\":6841:6855   */\n      add\n        /* \"#utility.yul\":6834:6887   */\n      mstore\n        /* \"#utility.yul\":6717:6894   */\n      pop\n      jump\t// out\n        /* \"#utility.yul\":6900:7266   */\n    tag_131:\n        /* \"#utility.yul\":7042:7045   */\n      0x00\n        /* \"#utility.yul\":7063:7130   */\n      tag_228\n        /* \"#utility.yul\":7127:7129   */\n      0x1b\n        /* \"#utility.yul\":7122:7125   */\n      dup4\n        /* \"#utility.yul\":7063:7130   */\n      tag_129\n      jump\t// in\n    tag_228:\n        /* \"#utility.yul\":7056:7130   */\n      swap2\n      pop\n        /* \"#utility.yul\":7139:7232   */\n      tag_229\n        /* \"#utility.yul\":7228:7231   */\n      dup3\n        /* \"#utility.yul\":7139:7232   */\n      tag_130\n      jump\t// in\n    tag_229:\n        /* \"#utility.yul\":7257:7259   */\n      0x20\n        /* \"#utility.yul\":7252:7255   */\n      dup3\n        /* \"#utility.yul\":7248:7260   */\n      add\n        /* \"#utility.yul\":7241:7260   */\n      swap1\n      pop\n        /* \"#utility.yul\":6900:7266   */\n      swap2\n      swap1\n      pop\n      jump\t// out\n        /* \"#utility.yul\":7272:7691   */\n    tag_53:\n        /* \"#utility.yul\":7438:7442   */\n      0x00\n        /* \"#utility.yul\":7476:7478   */\n      0x20\n        /* \"#utility.yul\":7465:7474   */\n      dup3\n        /* \"#utility.yul\":7461:7479   */\n      add\n        /* \"#utility.yul\":7453:7479   */\n      swap1\n      pop\n        /* \"#utility.yul\":7525:7534   */\n      dup2\n        /* \"#utility.yul\":7519:7523   */\n      dup2\n        /* \"#utility.yul\":7515:7535   */\n      sub\n        /* \"#utility.yul\":7511:7512   */\n      0x00\n        /* \"#utility.yul\":7500:7509   */\n      dup4\n        /* \"#utility.yul\":7496:7513   */\n      add\n        /* \"#utility.yul\":7489:7536   */\n      mstore\n        /* \"#utility.yul\":7553:7684   */\n      tag_231\n        /* \"#utility.yul\":7679:7683   */\n      dup2\n        /* \"#utility.yul\":7553:7684   */\n      tag_131\n      jump\t// in\n    tag_231:\n        /* \"#utility.yul\":7545:7684   */\n      swap1\n      pop\n        /* \"#utility.yul\":7272:7691   */\n      swap2\n      swap1\n      pop\n      jump\t// out\n        /* \"#utility.yul\":7697:7865   */\n    tag_132:\n        /* \"#utility.yul\":7837:7857   */\n      0x636c61696d20706572696f6420656e6465640000000000000000000000000000\n        /* \"#utility.yul\":7833:7834   */\n      0x00\n        /* \"#utility.yul\":7825:7831   */\n      dup3\n        /* \"#utility.yul\":7821:7835   */\n      add\n        /* \"#utility.yul\":7814:7858   */\n      mstore\n        /* \"#utility.yul\":7697:7865   */\n      pop\n      jump\t// out\n        /* \"#utility.yul\":7871:8237   */\n    tag_133:\n        /* \"#utility.yul\":8013:8016   */\n      0x00\n        /* \"#utility.yul\":8034:8101   */\n      tag_234\n        /* \"#utility.yul\":8098:8100   */\n      0x12\n        /* \"#utility.yul\":8093:8096   */\n      dup4\n        /* \"#utility.yul\":8034:8101   */\n      tag_129\n      jump\t// in\n    tag_234:\n        /* \"#utility.yul\":8027:8101   */\n      swap2\n      pop\n        /* \"#utility.yul\":8110:8203   */\n      tag_235\n        /* \"#utility.yul\":8199:8202   */\n      dup3\n        /* \"#utility.yul\":8110:8203   */\n      tag_132\n      jump\t// in\n    tag_235:\n        /* \"#utility.yul\":8228:8230   */\n      0x20\n        /* \"#utility.yul\":8223:8226   */\n      dup3\n        /* \"#utility.yul\":8219:8231   */\n      add\n        /* \"#utility.yul\":8212:8231   */\n      swap1\n      pop\n        /* \"#utility.yul\":7871:8237   */\n      swap2\n      swap1\n      pop\n      jump\t// out\n        /* \"#utility.yul\":8243:8662   */\n    tag_56:\n        /* \"#utility.yul\":8409:8413   */\n      0x00\n        /* \"#utility.yul\":8447:8449   */\n      0x20\n        /* \"#utility.yul\":8436:8445   */\n      dup3\n        /* \"#utility.yul\":8432:8450   */\n      add\n        /* \"#utility.yul\":8424:8450   */\n      swap1\n      pop\n        /* \"#utility.yul\":8496:8505   */\n      dup2\n        /* \"#utility.yul\":8490:8494   */\n      dup2\n        /* \"#utility.yul\":8486:8506   */\n      sub\n        /* \"#utility.yul\":8482:8483   */\n      0x00\n        /* \"#utility.yul\":8471:8480   */\n      dup4\n        /* \"#utility.yul\":8467:8484   */\n      add\n        /* \"#utility.yul\":8460:8507   */\n      mstore\n        /* \"#utility.yul\":8524:8655   */\n      tag_237\n        /* \"#utility.yul\":8650:8654   */\n      dup2\n        /* \"#utility.yul\":8524:8655   */\n      tag_133\n      jump\t// in\n    tag_237:\n        /* \"#utility.yul\":8516:8655   */\n      swap1\n      pop\n        /* \"#utility.yul\":8243:8662   */\n      swap2\n      swap1\n      pop\n      jump\t// out\n        /* \"#utility.yul\":8668:8836   */\n    tag_134:\n        /* \"#utility.yul\":8808:8828   */\n      0x61697264726f7020206973207061757365640000000000000000000000000000\n        /* \"#utility.yul\":8804:8805   */\n      0x00\n        /* \"#utility.yul\":8796:8802   */\n      dup3\n        /* \"#utility.yul\":8792:8806   */\n      add\n        /* \"#utility.yul\":8785:8829   */\n      mstore\n        /* \"#utility.yul\":8668:8836   */\n      pop\n      jump\t// out\n        /* \"#utility.yul\":8842:9208   */\n    tag_135:\n        /* \"#utility.yul\":8984:8987   */\n      0x00\n        /* \"#utility.yul\":9005:9072   */\n      tag_240\n        /* \"#utility.yul\":9069:9071   */\n      0x12\n        /* \"#utility.yul\":9064:9067   */\n      dup4\n        /* \"#utility.yul\":9005:9072   */\n      tag_129\n      jump\t// in\n    tag_240:\n        /* \"#utility.yul\":8998:9072   */\n      swap2\n      pop\n        /* \"#utility.yul\":9081:9174   */\n      tag_241\n        /* \"#utility.yul\":9170:9173   */\n      dup3\n        /* \"#utility.yul\":9081:9174   */\n      tag_134\n      jump\t// in\n    tag_241:\n        /* \"#utility.yul\":9199:9201   */\n      0x20\n        /* \"#utility.yul\":9194:9197   */\n      dup3\n        /* \"#utility.yul\":9190:9202   */\n      add\n        /* \"#utility.yul\":9183:9202   */\n      swap1\n      pop\n        /* \"#utility.yul\":8842:9208   */\n      swap2\n      swap1\n      pop\n      jump\t// out\n        /* \"#utility.yul\":9214:9633   */\n    tag_60:\n        /* \"#utility.yul\":9380:9384   */\n      0x00\n        /* \"#utility.yul\":9418:9420   */\n      0x20\n        /* \"#utility.yul\":9407:9416   */\n      dup3\n        /* \"#utility.yul\":9403:9421   */\n      add\n        /* \"#utility.yul\":9395:9421   */\n      swap1\n      pop\n        /* \"#utility.yul\":9467:9476   */\n      dup2\n        /* \"#utility.yul\":9461:9465   */\n      dup2\n        /* \"#utility.yul\":9457:9477   */\n      sub\n        /* \"#utility.yul\":9453:9454   */\n      0x00\n        /* \"#utility.yul\":9442:9451   */\n      dup4\n        /* \"#utility.yul\":9438:9455   */\n      add\n        /* \"#utility.yul\":9431:9478   */\n      mstore\n        /* \"#utility.yul\":9495:9626   */\n      tag_243\n        /* \"#utility.yul\":9621:9625   */\n      dup2\n        /* \"#utility.yul\":9495:9626   */\n      tag_135\n      jump\t// in\n    tag_243:\n        /* \"#utility.yul\":9487:9626   */\n      swap1\n      pop\n        /* \"#utility.yul\":9214:9633   */\n      swap2\n      swap1\n      pop\n      jump\t// out\n        /* \"#utility.yul\":9639:9804   */\n    tag_136:\n        /* \"#utility.yul\":9779:9796   */\n      0x616c726561647920636c61696d65640000000000000000000000000000000000\n        /* \"#utility.yul\":9775:9776   */\n      0x00\n        /* \"#utility.yul\":9767:9773   */\n      dup3\n        /* \"#utility.yul\":9763:9777   */\n      add\n        /* \"#utility.yul\":9756:9797   */\n      mstore\n        /* \"#utility.yul\":9639:9804   */\n      pop\n      jump\t// out\n        /* \"#utility.yul\":9810:10176   */\n    tag_137:\n        /* \"#utility.yul\":9952:9955   */\n      0x00\n        /* \"#utility.yul\":9973:10040   */\n      tag_246\n        /* \"#utility.yul\":10037:10039   */\n      0x0f\n        /* \"#utility.yul\":10032:10035   */\n      dup4\n        /* \"#utility.yul\":9973:10040   */\n      tag_129\n      jump\t// in\n    tag_246:\n        /* \"#utility.yul\":9966:10040   */\n      swap2\n      pop\n        /* \"#utility.yul\":10049:10142   */\n      tag_247\n        /* \"#utility.yul\":10138:10141   */\n      dup3\n        /* \"#utility.yul\":10049:10142   */\n      tag_136\n      jump\t// in\n    tag_247:\n        /* \"#utility.yul\":10167:10169   */\n      0x20\n        /* \"#utility.yul\":10162:10165   */\n      dup3\n        /* \"#utility.yul\":10158:10170   */\n      add\n        /* \"#utility.yul\":10151:10170   */\n      swap1\n      pop\n        /* \"#utility.yul\":9810:10176   */\n      swap2\n      swap1\n      pop\n      jump\t// out\n        /* \"#utility.yul\":10182:10601   */\n    tag_64:\n        /* \"#utility.yul\":10348:10352   */\n      0x00\n        /* \"#utility.yul\":10386:10388   */\n      0x20\n        /* \"#utility.yul\":10375:10384   */\n      dup3\n        /* \"#utility.yul\":10371:10389   */\n      add\n        /* \"#utility.yul\":10363:10389   */\n      swap1\n      pop\n        /* \"#utility.yul\":10435:10444   */\n      dup2\n        /* \"#utility.yul\":10429:10433   */\n      dup2\n        /* \"#utility.yul\":10425:10445   */\n      sub\n        /* \"#utility.yul\":10421:10422   */\n      0x00\n        /* \"#utility.yul\":10410:10419   */\n      dup4\n        /* \"#utility.yul\":10406:10423   */\n      add\n        /* \"#utility.yul\":10399:10446   */\n      mstore\n        /* \"#utility.yul\":10463:10594   */\n      tag_249\n        /* \"#utility.yul\":10589:10593   */\n      dup2\n        /* \"#utility.yul\":10463:10594   */\n      tag_137\n      jump\t// in\n    tag_249:\n        /* \"#utility.yul\":10455:10594   */\n      swap1\n      pop\n        /* \"#utility.yul\":10182:10601   */\n      swap2\n      swap1\n      pop\n      jump\t// out\n        /* \"#utility.yul\":10607:10768   */\n    tag_138:\n        /* \"#utility.yul\":10747:10760   */\n      0x4e6f2041697264726f7073000000000000000000000000000000000000000000\n        /* \"#utility.yul\":10743:10744   */\n      0x00\n        /* \"#utility.yul\":10735:10741   */\n      dup3\n        /* \"#utility.yul\":10731:10745   */\n      add\n        /* \"#utility.yul\":10724:10761   */\n      mstore\n        /* \"#utility.yul\":10607:10768   */\n      pop\n      jump\t// out\n        /* \"#utility.yul\":10774:11140   */\n    tag_139:\n        /* \"#utility.yul\":10916:10919   */\n      0x00\n        /* \"#utility.yul\":10937:11004   */\n      tag_252\n        /* \"#utility.yul\":11001:11003   */\n      0x0b\n        /* \"#utility.yul\":10996:10999   */\n      dup4\n        /* \"#utility.yul\":10937:11004   */\n      tag_129\n      jump\t// in\n    tag_252:\n        /* \"#utility.yul\":10930:11004   */\n      swap2\n      pop\n        /* \"#utility.yul\":11013:11106   */\n      tag_253\n        /* \"#utility.yul\":11102:11105   */\n      dup3\n        /* \"#utility.yul\":11013:11106   */\n      tag_138\n      jump\t// in\n    tag_253:\n        /* \"#utility.yul\":11131:11133   */\n      0x20\n        /* \"#utility.yul\":11126:11129   */\n      dup3\n        /* \"#utility.yul\":11122:11134   */\n      add\n        /* \"#utility.yul\":11115:11134   */\n      swap1\n      pop\n        /* \"#utility.yul\":10774:11140   */\n      swap2\n      swap1\n      pop\n      jump\t// out\n        /* \"#utility.yul\":11146:11565   */\n    tag_67:\n        /* \"#utility.yul\":11312:11316   */\n      0x00\n        /* \"#utility.yul\":11350:11352   */\n      0x20\n        /* \"#utility.yul\":11339:11348   */\n      dup3\n        /* \"#utility.yul\":11335:11353   */\n      add\n        /* \"#utility.yul\":11327:11353   */\n      swap1\n      pop\n        /* \"#utility.yul\":11399:11408   */\n      dup2\n        /* \"#utility.yul\":11393:11397   */\n      dup2\n        /* \"#utility.yul\":11389:11409   */\n      sub\n        /* \"#utility.yul\":11385:11386   */\n      0x00\n        /* \"#utility.yul\":11374:11383   */\n      dup4\n        /* \"#utility.yul\":11370:11387   */\n      add\n        /* \"#utility.yul\":11363:11410   */\n      mstore\n        /* \"#utility.yul\":11427:11558   */\n      tag_255\n        /* \"#utility.yul\":11553:11557   */\n      dup2\n        /* \"#utility.yul\":11427:11558   */\n      tag_139\n      jump\t// in\n    tag_255:\n        /* \"#utility.yul\":11419:11558   */\n      swap1\n      pop\n        /* \"#utility.yul\":11146:11565   */\n      swap2\n      swap1\n      pop\n      jump\t// out\n        /* \"#utility.yul\":11571:11903   */\n    tag_69:\n        /* \"#utility.yul\":11692:11696   */\n      0x00\n        /* \"#utility.yul\":11730:11732   */\n      0x40\n        /* \"#utility.yul\":11719:11728   */\n      dup3\n        /* \"#utility.yul\":11715:11733   */\n      add\n        /* \"#utility.yul\":11707:11733   */\n      swap1\n      pop\n        /* \"#utility.yul\":11743:11814   */\n      tag_257\n        /* \"#utility.yul\":11811:11812   */\n      0x00\n        /* \"#utility.yul\":11800:11809   */\n      dup4\n        /* \"#utility.yul\":11796:11813   */\n      add\n        /* \"#utility.yul\":11787:11793   */\n      dup6\n        /* \"#utility.yul\":11743:11814   */\n      tag_119\n      jump\t// in\n    tag_257:\n        /* \"#utility.yul\":11824:11896   */\n      tag_258\n        /* \"#utility.yul\":11892:11894   */\n      0x20\n        /* \"#utility.yul\":11881:11890   */\n      dup4\n        /* \"#utility.yul\":11877:11895   */\n      add\n        /* \"#utility.yul\":11868:11874   */\n      dup5\n        /* \"#utility.yul\":11824:11896   */\n      tag_121\n      jump\t// in\n    tag_258:\n        /* \"#utility.yul\":11571:11903   */\n      swap4\n      swap3\n      pop\n      pop\n      pop\n      jump\t// out\n        /* \"#utility.yul\":11909:12025   */\n    tag_140:\n        /* \"#utility.yul\":11979:12000   */\n      tag_260\n        /* \"#utility.yul\":11994:11999   */\n      dup2\n        /* \"#utility.yul\":11979:12000   */\n      tag_117\n      jump\t// in\n    tag_260:\n        /* \"#utility.yul\":11972:11977   */\n      dup2\n        /* \"#utility.yul\":11969:12001   */\n      eq\n        /* \"#utility.yul\":11959:12019   */\n      tag_261\n      jumpi\n        /* \"#utility.yul\":12015:12016   */\n      0x00\n        /* \"#utility.yul\":12012:12013   */\n      dup1\n        /* \"#utility.yul\":12005:12017   */\n      revert\n        /* \"#utility.yul\":11959:12019   */\n    tag_261:\n        /* \"#utility.yul\":11909:12025   */\n      pop\n      jump\t// out\n        /* \"#utility.yul\":12031:12168   */\n    tag_141:\n        /* \"#utility.yul\":12085:12090   */\n      0x00\n        /* \"#utility.yul\":12116:12122   */\n      dup2\n        /* \"#utility.yul\":12110:12123   */\n      mload\n        /* \"#utility.yul\":12101:12123   */\n      swap1\n      pop\n        /* \"#utility.yul\":12132:12162   */\n      tag_263\n        /* \"#utility.yul\":12156:12161   */\n      dup2\n        /* \"#utility.yul\":12132:12162   */\n      tag_140\n      jump\t// in\n    tag_263:\n        /* \"#utility.yul\":12031:12168   */\n      swap3\n      swap2\n      pop\n      pop\n      jump\t// out\n        /* \"#utility.yul\":12174:12519   */\n    tag_73:\n        /* \"#utility.yul\":12241:12247   */\n      0x00\n        /* \"#utility.yul\":12290:12292   */\n      0x20\n        /* \"#utility.yul\":12278:12287   */\n      dup3\n        /* \"#utility.yul\":12269:12276   */\n      dup5\n        /* \"#utility.yul\":12265:12288   */\n      sub\n        /* \"#utility.yul\":12261:12293   */\n      slt\n        /* \"#utility.yul\":12258:12377   */\n      iszero\n      tag_265\n      jumpi\n        /* \"#utility.yul\":12296:12375   */\n      tag_266\n      tag_106\n      jump\t// in\n    tag_266:\n        /* \"#utility.yul\":12258:12377   */\n    tag_265:\n        /* \"#utility.yul\":12416:12417   */\n      0x00\n        /* \"#utility.yul\":12441:12502   */\n      tag_267\n        /* \"#utility.yul\":12494:12501   */\n      dup5\n        /* \"#utility.yul\":12485:12491   */\n      dup3\n        /* \"#utility.yul\":12474:12483   */\n      dup6\n        /* \"#utility.yul\":12470:12492   */\n      add\n        /* \"#utility.yul\":12441:12502   */\n      tag_141\n      jump\t// in\n    tag_267:\n        /* \"#utility.yul\":12431:12502   */\n      swap2\n      pop\n        /* \"#utility.yul\":12387:12512   */\n      pop\n        /* \"#utility.yul\":12174:12519   */\n      swap3\n      swap2\n      pop\n      pop\n      jump\t// out\n        /* \"#utility.yul\":12525:12688   */\n    tag_142:\n        /* \"#utility.yul\":12665:12680   */\n      0x6d697373696e6720696e70757400000000000000000000000000000000000000\n        /* \"#utility.yul\":12661:12662   */\n      0x00\n        /* \"#utility.yul\":12653:12659   */\n      dup3\n        /* \"#utility.yul\":12649:12663   */\n      add\n        /* \"#utility.yul\":12642:12681   */\n      mstore\n        /* \"#utility.yul\":12525:12688   */\n      pop\n      jump\t// out\n        /* \"#utility.yul\":12694:13060   */\n    tag_143:\n        /* \"#utility.yul\":12836:12839   */\n      0x00\n        /* \"#utility.yul\":12857:12924   */\n      tag_270\n        /* \"#utility.yul\":12921:12923   */\n      0x0d\n        /* \"#utility.yul\":12916:12919   */\n      dup4\n        /* \"#utility.yul\":12857:12924   */\n      tag_129\n      jump\t// in\n    tag_270:\n        /* \"#utility.yul\":12850:12924   */\n      swap2\n      pop\n        /* \"#utility.yul\":12933:13026   */\n      tag_271\n        /* \"#utility.yul\":13022:13025   */\n      dup3\n        /* \"#utility.yul\":12933:13026   */\n      tag_142\n      jump\t// in\n    tag_271:\n        /* \"#utility.yul\":13051:13053   */\n      0x20\n        /* \"#utility.yul\":13046:13049   */\n      dup3\n        /* \"#utility.yul\":13042:13054   */\n      add\n        /* \"#utility.yul\":13035:13054   */\n      swap1\n      pop\n        /* \"#utility.yul\":12694:13060   */\n      swap2\n      swap1\n      pop\n      jump\t// out\n        /* \"#utility.yul\":13066:13485   */\n    tag_82:\n        /* \"#utility.yul\":13232:13236   */\n      0x00\n        /* \"#utility.yul\":13270:13272   */\n      0x20\n        /* \"#utility.yul\":13259:13268   */\n      dup3\n        /* \"#utility.yul\":13255:13273   */\n      add\n        /* \"#utility.yul\":13247:13273   */\n      swap1\n      pop\n        /* \"#utility.yul\":13319:13328   */\n      dup2\n        /* \"#utility.yul\":13313:13317   */\n      dup2\n        /* \"#utility.yul\":13309:13329   */\n      sub\n        /* \"#utility.yul\":13305:13306   */\n      0x00\n        /* \"#utility.yul\":13294:13303   */\n      dup4\n        /* \"#utility.yul\":13290:13307   */\n      add\n        /* \"#utility.yul\":13283:13330   */\n      mstore\n        /* \"#utility.yul\":13347:13478   */\n      tag_273\n        /* \"#utility.yul\":13473:13477   */\n      dup2\n        /* \"#utility.yul\":13347:13478   */\n      tag_143\n      jump\t// in\n    tag_273:\n        /* \"#utility.yul\":13339:13478   */\n      swap1\n      pop\n        /* \"#utility.yul\":13066:13485   */\n      swap2\n      swap1\n      pop\n      jump\t// out\n        /* \"#utility.yul\":13491:13671   */\n    tag_88:\n        /* \"#utility.yul\":13539:13616   */\n      0x4e487b7100000000000000000000000000000000000000000000000000000000\n        /* \"#utility.yul\":13536:13537   */\n      0x00\n        /* \"#utility.yul\":13529:13617   */\n      mstore\n        /* \"#utility.yul\":13636:13640   */\n      0x32\n        /* \"#utility.yul\":13633:13634   */\n      0x04\n        /* \"#utility.yul\":13626:13641   */\n      mstore\n        /* \"#utility.yul\":13660:13664   */\n      0x24\n        /* \"#utility.yul\":13657:13658   */\n      0x00\n        /* \"#utility.yul\":13650:13665   */\n      revert\n        /* \"#utility.yul\":13677:13902   */\n    tag_144:\n        /* \"#utility.yul\":13817:13851   */\n      0x656e6454696d652063616e6e6f74206265206c657373207468616e2073746172\n        /* \"#utility.yul\":13813:13814   */\n      0x00\n        /* \"#utility.yul\":13805:13811   */\n      dup3\n        /* \"#utility.yul\":13801:13815   */\n      add\n        /* \"#utility.yul\":13794:13852   */\n      mstore\n        /* \"#utility.yul\":13886:13894   */\n      0x742074696d650000000000000000000000000000000000000000000000000000\n        /* \"#utility.yul\":13881:13883   */\n      0x20\n        /* \"#utility.yul\":13873:13879   */\n      dup3\n        /* \"#utility.yul\":13869:13884   */\n      add\n        /* \"#utility.yul\":13862:13895   */\n      mstore\n        /* \"#utility.yul\":13677:13902   */\n      pop\n      jump\t// out\n        /* \"#utility.yul\":13908:14274   */\n    tag_145:\n        /* \"#utility.yul\":14050:14053   */\n      0x00\n        /* \"#utility.yul\":14071:14138   */\n      tag_277\n        /* \"#utility.yul\":14135:14137   */\n      0x26\n        /* \"#utility.yul\":14130:14133   */\n      dup4\n        /* \"#utility.yul\":14071:14138   */\n      tag_129\n      jump\t// in\n    tag_277:\n        /* \"#utility.yul\":14064:14138   */\n      swap2\n      pop\n        /* \"#utility.yul\":14147:14240   */\n      tag_278\n        /* \"#utility.yul\":14236:14239   */\n      dup3\n        /* \"#utility.yul\":14147:14240   */\n      tag_144\n      jump\t// in\n    tag_278:\n        /* \"#utility.yul\":14265:14267   */\n      0x40\n        /* \"#utility.yul\":14260:14263   */\n      dup3\n        /* \"#utility.yul\":14256:14268   */\n      add\n        /* \"#utility.yul\":14249:14268   */\n      swap1\n      pop\n        /* \"#utility.yul\":13908:14274   */\n      swap2\n      swap1\n      pop\n      jump\t// out\n        /* \"#utility.yul\":14280:14699   */\n    tag_104:\n        /* \"#utility.yul\":14446:14450   */\n      0x00\n        /* \"#utility.yul\":14484:14486   */\n      0x20\n        /* \"#utility.yul\":14473:14482   */\n      dup3\n        /* \"#utility.yul\":14469:14487   */\n      add\n        /* \"#utility.yul\":14461:14487   */\n      swap1\n      pop\n        /* \"#utility.yul\":14533:14542   */\n      dup2\n        /* \"#utility.yul\":14527:14531   */\n      dup2\n        /* \"#utility.yul\":14523:14543   */\n      sub\n        /* \"#utility.yul\":14519:14520   */\n      0x00\n        /* \"#utility.yul\":14508:14517   */\n      dup4\n        /* \"#utility.yul\":14504:14521   */\n      add\n        /* \"#utility.yul\":14497:14544   */\n      mstore\n        /* \"#utility.yul\":14561:14692   */\n      tag_280\n        /* \"#utility.yul\":14687:14691   */\n      dup2\n        /* \"#utility.yul\":14561:14692   */\n      tag_145\n      jump\t// in\n    tag_280:\n        /* \"#utility.yul\":14553:14692   */\n      swap1\n      pop\n        /* \"#utility.yul\":14280:14699   */\n      swap2\n      swap1\n      pop\n      jump\t// out\n\n    auxdata: 0xa2646970667358221220a2e54eecf29bb6dae467b5dece3f81d65c01e4327cf0a48429ca8e4820e00d4264736f6c634300081a0033\n}\n",
				"bytecode": {
					"linkReferences": {},
					"object": "608060405234801561000f575f80fd5b506040516111f93803806111f98339818101604052810190610031919061019b565b5f54811015610075576040517f08c379a000000000000000000000000000000000000000000000000000000000815260040161006c9061026b565b60405180910390fd5b3360035f6101000a81548173ffffffffffffffffffffffffffffffffffffffff021916908373ffffffffffffffffffffffffffffffffffffffff1602179055508260025f6101000a81548173ffffffffffffffffffffffffffffffffffffffff021916908373ffffffffffffffffffffffffffffffffffffffff160217905550815f8190555080600181905550505050610289565b5f80fd5b5f73ffffffffffffffffffffffffffffffffffffffff82169050919050565b5f6101378261010e565b9050919050565b6101478161012d565b8114610151575f80fd5b50565b5f815190506101628161013e565b92915050565b5f819050919050565b61017a81610168565b8114610184575f80fd5b50565b5f8151905061019581610171565b92915050565b5f805f606084860312156101b2576101b161010a565b5b5f6101bf86828701610154565b93505060206101d086828701610187565b92505060406101e186828701610187565b9150509250925092565b5f82825260208201905092915050565b7f656e642074696d652073686f756c642062652067726561746572207468616e205f8201527f737461727454696d650000000000000000000000000000000000000000000000602082015250565b5f6102556029836101eb565b9150610260826101fb565b604082019050919050565b5f6020820190508181035f83015261028281610249565b9050919050565b610f63806102965f395ff3fe608060405234801561000f575f80fd5b506004361061009c575f3560e01c80638da5cb5b116100645780638da5cb5b1461011e578063b0b62f5a1461013c578063b530dc8c14610146578063dd14a51114610176578063fc0c546a146101925761009c565b80634e71d92d146100a05780635c975abb146100aa57806360eba7a6146100b457806373b2e80e146100d05780638456cb5914610100575b5f80fd5b6100a86101b0565b005b6100b261048b565b005b6100ce60048036038101906100c9919061090b565b610500565b005b6100ea60048036038101906100e591906109e3565b61069e565b6040516100f79190610a28565b60405180910390f35b6101086106bb565b6040516101159190610a28565b60405180910390f35b6101266106ce565b6040516101339190610a50565b60405180910390f35b6101446106f3565b005b610160600480360381019061015b91906109e3565b610767565b60405161016d9190610a81565b60405180910390f35b610190600480360381019061018b9190610ac4565b61077c565b005b61019a610828565b6040516101a79190610b5d565b60405180910390f35b5f544210156101f4576040517f08c379a00000000000000000000000000000000000000000000000000000000081526004016101eb90610bd0565b60405180910390fd5b600154421115610239576040517f08c379a000000000000000000000000000000000000000000000000000000000815260040161023090610c38565b60405180910390fd5b600360149054906101000a900460ff1615610289576040517f08c379a000000000000000000000000000000000000000000000000000000000815260040161028090610ca0565b60405180910390fd5b60055f3373ffffffffffffffffffffffffffffffffffffffff1673ffffffffffffffffffffffffffffffffffffffff1681526020019081526020015f205f9054906101000a900460ff1615610313576040517f08c379a000000000000000000000000000000000000000000000000000000000815260040161030a90610d08565b60405180910390fd5b5f60045f3373ffffffffffffffffffffffffffffffffffffffff1673ffffffffffffffffffffffffffffffffffffffff1681526020019081526020015f205490505f8111610396576040517f08c379a000000000000000000000000000000000000000000000000000000000815260040161038d90610d70565b60405180910390fd5b600160055f3373ffffffffffffffffffffffffffffffffffffffff1673ffffffffffffffffffffffffffffffffffffffff1681526020019081526020015f205f6101000a81548160ff02191690831515021790555060025f9054906101000a900473ffffffffffffffffffffffffffffffffffffffff1673ffffffffffffffffffffffffffffffffffffffff1663a9059cbb33836040518363ffffffff1660e01b8152600401610447929190610d8e565b6020604051808303815f875af1158015610463573d5f803e3d5ffd5b505050506040513d601f19601f820116820180604052508101906104879190610ddf565b5050565b60035f9054906101000a900473ffffffffffffffffffffffffffffffffffffffff1673ffffffffffffffffffffffffffffffffffffffff163373ffffffffffffffffffffffffffffffffffffffff16146104e3575f80fd5b6001600360146101000a81548160ff021916908315150217905550565b60035f9054906101000a900473ffffffffffffffffffffffffffffffffffffffff1673ffffffffffffffffffffffffffffffffffffffff163373ffffffffffffffffffffffffffffffffffffffff1614610558575f80fd5b8181905084849050146105a0576040517f08c379a000000000000000000000000000000000000000000000000000000000815260040161059790610e54565b60405180910390fd5b5f5b848490508110156106975760025f9054906101000a900473ffffffffffffffffffffffffffffffffffffffff1673ffffffffffffffffffffffffffffffffffffffff1663a9059cbb8686848181106105fd576105fc610e72565b5b905060200201602081019061061291906109e3565b85858581811061062557610624610e72565b5b905060200201356040518363ffffffff1660e01b8152600401610649929190610d8e565b6020604051808303815f875af1158015610665573d5f803e3d5ffd5b505050506040513d601f19601f820116820180604052508101906106899190610ddf565b5080806001019150506105a2565b5050505050565b6005602052805f5260405f205f915054906101000a900460ff1681565b600360149054906101000a900460ff1681565b60035f9054906101000a900473ffffffffffffffffffffffffffffffffffffffff1681565b60035f9054906101000a900473ffffffffffffffffffffffffffffffffffffffff1673ffffffffffffffffffffffffffffffffffffffff163373ffffffffffffffffffffffffffffffffffffffff161461074b575f80fd5b5f600360146101000a81548160ff021916908315150217905550565b6004602052805f5260405f205f915090505481565b60035f9054906101000a900473ffffffffffffffffffffffffffffffffffffffff1673ffffffffffffffffffffffffffffffffffffffff163373ffffffffffffffffffffffffffffffffffffffff16146107d4575f80fd5b81811015610817576040517f08c379a000000000000000000000000000000000000000000000000000000000815260040161080e90610f0f565b60405180910390fd5b815f81905550806001819055505050565b60025f9054906101000a900473ffffffffffffffffffffffffffffffffffffffff1681565b5f80fd5b5f80fd5b5f80fd5b5f80fd5b5f80fd5b5f8083601f84011261087657610875610855565b5b8235905067ffffffffffffffff81111561089357610892610859565b5b6020830191508360208202830111156108af576108ae61085d565b5b9250929050565b5f8083601f8401126108cb576108ca610855565b5b8235905067ffffffffffffffff8111156108e8576108e7610859565b5b6020830191508360208202830111156109045761090361085d565b5b9250929050565b5f805f80604085870312156109235761092261084d565b5b5f85013567ffffffffffffffff8111156109405761093f610851565b5b61094c87828801610861565b9450945050602085013567ffffffffffffffff81111561096f5761096e610851565b5b61097b878288016108b6565b925092505092959194509250565b5f73ffffffffffffffffffffffffffffffffffffffff82169050919050565b5f6109b282610989565b9050919050565b6109c2816109a8565b81146109cc575f80fd5b50565b5f813590506109dd816109b9565b92915050565b5f602082840312156109f8576109f761084d565b5b5f610a05848285016109cf565b91505092915050565b5f8115159050919050565b610a2281610a0e565b82525050565b5f602082019050610a3b5f830184610a19565b92915050565b610a4a816109a8565b82525050565b5f602082019050610a635f830184610a41565b92915050565b5f819050919050565b610a7b81610a69565b82525050565b5f602082019050610a945f830184610a72565b92915050565b610aa381610a69565b8114610aad575f80fd5b50565b5f81359050610abe81610a9a565b92915050565b5f8060408385031215610ada57610ad961084d565b5b5f610ae785828601610ab0565b9250506020610af885828601610ab0565b9150509250929050565b5f819050919050565b5f610b25610b20610b1b84610989565b610b02565b610989565b9050919050565b5f610b3682610b0b565b9050919050565b5f610b4782610b2c565b9050919050565b610b5781610b3d565b82525050565b5f602082019050610b705f830184610b4e565b92915050565b5f82825260208201905092915050565b7f636c61696d20706572696f64206973206e6f74207374617274656400000000005f82015250565b5f610bba601b83610b76565b9150610bc582610b86565b602082019050919050565b5f6020820190508181035f830152610be781610bae565b9050919050565b7f636c61696d20706572696f6420656e64656400000000000000000000000000005f82015250565b5f610c22601283610b76565b9150610c2d82610bee565b602082019050919050565b5f6020820190508181035f830152610c4f81610c16565b9050919050565b7f61697264726f70202069732070617573656400000000000000000000000000005f82015250565b5f610c8a601283610b76565b9150610c9582610c56565b602082019050919050565b5f6020820190508181035f830152610cb781610c7e565b9050919050565b7f616c726561647920636c61696d656400000000000000000000000000000000005f82015250565b5f610cf2600f83610b76565b9150610cfd82610cbe565b602082019050919050565b5f6020820190508181035f830152610d1f81610ce6565b9050919050565b7f4e6f2041697264726f70730000000000000000000000000000000000000000005f82015250565b5f610d5a600b83610b76565b9150610d6582610d26565b602082019050919050565b5f6020820190508181035f830152610d8781610d4e565b9050919050565b5f604082019050610da15f830185610a41565b610dae6020830184610a72565b9392505050565b610dbe81610a0e565b8114610dc8575f80fd5b50565b5f81519050610dd981610db5565b92915050565b5f60208284031215610df457610df361084d565b5b5f610e0184828501610dcb565b91505092915050565b7f6d697373696e6720696e707574000000000000000000000000000000000000005f82015250565b5f610e3e600d83610b76565b9150610e4982610e0a565b602082019050919050565b5f6020820190508181035f830152610e6b81610e32565b9050919050565b7f4e487b71000000000000000000000000000000000000000000000000000000005f52603260045260245ffd5b7f656e6454696d652063616e6e6f74206265206c657373207468616e20737461725f8201527f742074696d650000000000000000000000000000000000000000000000000000602082015250565b5f610ef9602683610b76565b9150610f0482610e9f565b604082019050919050565b5f6020820190508181035f830152610f2681610eed565b905091905056fea2646970667358221220a2e54eecf29bb6dae467b5dece3f81d65c01e4327cf0a48429ca8e4820e00d4264736f6c634300081a0033",
					"opcodes": "PUSH1 0x80 PUSH1 0x40 MSTORE CALLVALUE DUP1 ISZERO PUSH2 0xF JUMPI PUSH0 DUP1 REVERT JUMPDEST POP PUSH1 0x40 MLOAD PUSH2 0x11F9 CODESIZE SUB DUP1 PUSH2 0x11F9 DUP4 CODECOPY DUP2 DUP2 ADD PUSH1 0x40 MSTORE DUP2 ADD SWAP1 PUSH2 0x31 SWAP2 SWAP1 PUSH2 0x19B JUMP JUMPDEST PUSH0 SLOAD DUP2 LT ISZERO PUSH2 0x75 JUMPI PUSH1 0x40 MLOAD PUSH32 0x8C379A000000000000000000000000000000000000000000000000000000000 DUP2 MSTORE PUSH1 0x4 ADD PUSH2 0x6C SWAP1 PUSH2 0x26B JUMP JUMPDEST PUSH1 0x40 MLOAD DUP1 SWAP2 SUB SWAP1 REVERT JUMPDEST CALLER PUSH1 0x3 PUSH0 PUSH2 0x100 EXP DUP2 SLOAD DUP2 PUSH20 0xFFFFFFFFFFFFFFFFFFFFFFFFFFFFFFFFFFFFFFFF MUL NOT AND SWAP1 DUP4 PUSH20 0xFFFFFFFFFFFFFFFFFFFFFFFFFFFFFFFFFFFFFFFF AND MUL OR SWAP1 SSTORE POP DUP3 PUSH1 0x2 PUSH0 PUSH2 0x100 EXP DUP2 SLOAD DUP2 PUSH20 0xFFFFFFFFFFFFFFFFFFFFFFFFFFFFFFFFFFFFFFFF MUL NOT AND SWAP1 DUP4 PUSH20 0xFFFFFFFFFFFFFFFFFFFFFFFFFFFFFFFFFFFFFFFF AND MUL OR SWAP1 SSTORE POP DUP2 PUSH0 DUP2 SWAP1 SSTORE POP DUP1 PUSH1 0x1 DUP2 SWAP1 SSTORE POP POP POP POP PUSH2 0x289 JUMP JUMPDEST PUSH0 DUP1 REVERT JUMPDEST PUSH0 PUSH20 0xFFFFFFFFFFFFFFFFFFFFFFFFFFFFFFFFFFFFFFFF DUP3 AND SWAP1 POP SWAP2 SWAP1 POP JUMP JUMPDEST PUSH0 PUSH2 0x137 DUP3 PUSH2 0x10E JUMP JUMPDEST SWAP1 POP SWAP2 SWAP1 POP JUMP JUMPDEST PUSH2 0x147 DUP2 PUSH2 0x12D JUMP JUMPDEST DUP2 EQ PUSH2 0x151 JUMPI PUSH0 DUP1 REVERT JUMPDEST POP JUMP JUMPDEST PUSH0 DUP2 MLOAD SWAP1 POP PUSH2 0x162 DUP2 PUSH2 0x13E JUMP JUMPDEST SWAP3 SWAP2 POP POP JUMP JUMPDEST PUSH0 DUP2 SWAP1 POP SWAP2 SWAP1 POP JUMP JUMPDEST PUSH2 0x17A DUP2 PUSH2 0x168 JUMP JUMPDEST DUP2 EQ PUSH2 0x184 JUMPI PUSH0 DUP1 REVERT JUMPDEST POP JUMP JUMPDEST PUSH0 DUP2 MLOAD SWAP1 POP PUSH2 0x195 DUP2 PUSH2 0x171 JUMP JUMPDEST SWAP3 SWAP2 POP POP JUMP JUMPDEST PUSH0 DUP1 PUSH0 PUSH1 0x60 DUP5 DUP7 SUB SLT ISZERO PUSH2 0x1B2 JUMPI PUSH2 0x1B1 PUSH2 0x10A JUMP JUMPDEST JUMPDEST PUSH0 PUSH2 0x1BF DUP7 DUP3 DUP8 ADD PUSH2 0x154 JUMP JUMPDEST SWAP4 POP POP PUSH1 0x20 PUSH2 0x1D0 DUP7 DUP3 DUP8 ADD PUSH2 0x187 JUMP JUMPDEST SWAP3 POP POP PUSH1 0x40 PUSH2 0x1E1 DUP7 DUP3 DUP8 ADD PUSH2 0x187 JUMP JUMPDEST SWAP2 POP POP SWAP3 POP SWAP3 POP SWAP3 JUMP JUMPDEST PUSH0 DUP3 DUP3 MSTORE PUSH1 0x20 DUP3 ADD SWAP1 POP SWAP3 SWAP2 POP POP JUMP JUMPDEST PUSH32 0x656E642074696D652073686F756C642062652067726561746572207468616E20 PUSH0 DUP3 ADD MSTORE PUSH32 0x737461727454696D650000000000000000000000000000000000000000000000 PUSH1 0x20 DUP3 ADD MSTORE POP JUMP JUMPDEST PUSH0 PUSH2 0x255 PUSH1 0x29 DUP4 PUSH2 0x1EB JUMP JUMPDEST SWAP2 POP PUSH2 0x260 DUP3 PUSH2 0x1FB JUMP JUMPDEST PUSH1 0x40 DUP3 ADD SWAP1 POP SWAP2 SWAP1 POP JUMP JUMPDEST PUSH0 PUSH1 0x20 DUP3 ADD SWAP1 POP DUP2 DUP2 SUB PUSH0 DUP4 ADD MSTORE PUSH2 0x282 DUP2 PUSH2 0x249 JUMP JUMPDEST SWAP1 POP SWAP2 SWAP1 POP JUMP JUMPDEST PUSH2 0xF63 DUP1 PUSH2 0x296 PUSH0 CODECOPY PUSH0 RETURN INVALID PUSH1 0x80 PUSH1 0x40 MSTORE CALLVALUE DUP1 ISZERO PUSH2 0xF JUMPI PUSH0 DUP1 REVERT JUMPDEST POP PUSH1 0x4 CALLDATASIZE LT PUSH2 0x9C JUMPI PUSH0 CALLDATALOAD PUSH1 0xE0 SHR DUP1 PUSH4 0x8DA5CB5B GT PUSH2 0x64 JUMPI DUP1 PUSH4 0x8DA5CB5B EQ PUSH2 0x11E JUMPI DUP1 PUSH4 0xB0B62F5A EQ PUSH2 0x13C JUMPI DUP1 PUSH4 0xB530DC8C EQ PUSH2 0x146 JUMPI DUP1 PUSH4 0xDD14A511 EQ PUSH2 0x176 JUMPI DUP1 PUSH4 0xFC0C546A EQ PUSH2 0x192 JUMPI PUSH2 0x9C JUMP JUMPDEST DUP1 PUSH4 0x4E71D92D EQ PUSH2 0xA0 JUMPI DUP1 PUSH4 0x5C975ABB EQ PUSH2 0xAA JUMPI DUP1 PUSH4 0x60EBA7A6 EQ PUSH2 0xB4 JUMPI DUP1 PUSH4 0x73B2E80E EQ PUSH2 0xD0 JUMPI DUP1 PUSH4 0x8456CB59 EQ PUSH2 0x100 JUMPI JUMPDEST PUSH0 DUP1 REVERT JUMPDEST PUSH2 0xA8 PUSH2 0x1B0 JUMP JUMPDEST STOP JUMPDEST PUSH2 0xB2 PUSH2 0x48B JUMP JUMPDEST STOP JUMPDEST PUSH2 0xCE PUSH1 0x4 DUP1 CALLDATASIZE SUB DUP2 ADD SWAP1 PUSH2 0xC9 SWAP2 SWAP1 PUSH2 0x90B JUMP JUMPDEST PUSH2 0x500 JUMP JUMPDEST STOP JUMPDEST PUSH2 0xEA PUSH1 0x4 DUP1 CALLDATASIZE SUB DUP2 ADD SWAP1 PUSH2 0xE5 SWAP2 SWAP1 PUSH2 0x9E3 JUMP JUMPDEST PUSH2 0x69E JUMP JUMPDEST PUSH1 0x40 MLOAD PUSH2 0xF7 SWAP2 SWAP1 PUSH2 0xA28 JUMP JUMPDEST PUSH1 0x40 MLOAD DUP1 SWAP2 SUB SWAP1 RETURN JUMPDEST PUSH2 0x108 PUSH2 0x6BB JUMP JUMPDEST PUSH1 0x40 MLOAD PUSH2 0x115 SWAP2 SWAP1 PUSH2 0xA28 JUMP JUMPDEST PUSH1 0x40 MLOAD DUP1 SWAP2 SUB SWAP1 RETURN JUMPDEST PUSH2 0x126 PUSH2 0x6CE JUMP JUMPDEST PUSH1 0x40 MLOAD PUSH2 0x133 SWAP2 SWAP1 PUSH2 0xA50 JUMP JUMPDEST PUSH1 0x40 MLOAD DUP1 SWAP2 SUB SWAP1 RETURN JUMPDEST PUSH2 0x144 PUSH2 0x6F3 JUMP JUMPDEST STOP JUMPDEST PUSH2 0x160 PUSH1 0x4 DUP1 CALLDATASIZE SUB DUP2 ADD SWAP1 PUSH2 0x15B SWAP2 SWAP1 PUSH2 0x9E3 JUMP JUMPDEST PUSH2 0x767 JUMP JUMPDEST PUSH1 0x40 MLOAD PUSH2 0x16D SWAP2 SWAP1 PUSH2 0xA81 JUMP JUMPDEST PUSH1 0x40 MLOAD DUP1 SWAP2 SUB SWAP1 RETURN JUMPDEST PUSH2 0x190 PUSH1 0x4 DUP1 CALLDATASIZE SUB DUP2 ADD SWAP1 PUSH2 0x18B SWAP2 SWAP1 PUSH2 0xAC4 JUMP JUMPDEST PUSH2 0x77C JUMP JUMPDEST STOP JUMPDEST PUSH2 0x19A PUSH2 0x828 JUMP JUMPDEST PUSH1 0x40 MLOAD PUSH2 0x1A7 SWAP2 SWAP1 PUSH2 0xB5D JUMP JUMPDEST PUSH1 0x40 MLOAD DUP1 SWAP2 SUB SWAP1 RETURN JUMPDEST PUSH0 SLOAD TIMESTAMP LT ISZERO PUSH2 0x1F4 JUMPI PUSH1 0x40 MLOAD PUSH32 0x8C379A000000000000000000000000000000000000000000000000000000000 DUP2 MSTORE PUSH1 0x4 ADD PUSH2 0x1EB SWAP1 PUSH2 0xBD0 JUMP JUMPDEST PUSH1 0x40 MLOAD DUP1 SWAP2 SUB SWAP1 REVERT JUMPDEST PUSH1 0x1 SLOAD TIMESTAMP GT ISZERO PUSH2 0x239 JUMPI PUSH1 0x40 MLOAD PUSH32 0x8C379A000000000000000000000000000000000000000000000000000000000 DUP2 MSTORE PUSH1 0x4 ADD PUSH2 0x230 SWAP1 PUSH2 0xC38 JUMP JUMPDEST PUSH1 0x40 MLOAD DUP1 SWAP2 SUB SWAP1 REVERT JUMPDEST PUSH1 0x3 PUSH1 0x14 SWAP1 SLOAD SWAP1 PUSH2 0x100 EXP SWAP1 DIV PUSH1 0xFF AND ISZERO PUSH2 0x289 JUMPI PUSH1 0x40 MLOAD PUSH32 0x8C379A000000000000000000000000000000000000000000000000000000000 DUP2 MSTORE PUSH1 0x4 ADD PUSH2 0x280 SWAP1 PUSH2 0xCA0 JUMP JUMPDEST PUSH1 0x40 MLOAD DUP1 SWAP2 SUB SWAP1 REVERT JUMPDEST PUSH1 0x5 PUSH0 CALLER PUSH20 0xFFFFFFFFFFFFFFFFFFFFFFFFFFFFFFFFFFFFFFFF AND PUSH20 0xFFFFFFFFFFFFFFFFFFFFFFFFFFFFFFFFFFFFFFFF AND DUP2 MSTORE PUSH1 0x20 ADD SWAP1 DUP2 MSTORE PUSH1 0x20 ADD PUSH0 KECCAK256 PUSH0 SWAP1 SLOAD SWAP1 PUSH2 0x100 EXP SWAP1 DIV PUSH1 0xFF AND ISZERO PUSH2 0x313 JUMPI PUSH1 0x40 MLOAD PUSH32 0x8C379A000000000000000000000000000000000000000000000000000000000 DUP2 MSTORE PUSH1 0x4 ADD PUSH2 0x30A SWAP1 PUSH2 0xD08 JUMP JUMPDEST PUSH1 0x40 MLOAD DUP1 SWAP2 SUB SWAP1 REVERT JUMPDEST PUSH0 PUSH1 0x4 PUSH0 CALLER PUSH20 0xFFFFFFFFFFFFFFFFFFFFFFFFFFFFFFFFFFFFFFFF AND PUSH20 0xFFFFFFFFFFFFFFFFFFFFFFFFFFFFFFFFFFFFFFFF AND DUP2 MSTORE PUSH1 0x20 ADD SWAP1 DUP2 MSTORE PUSH1 0x20 ADD PUSH0 KECCAK256 SLOAD SWAP1 POP PUSH0 DUP2 GT PUSH2 0x396 JUMPI PUSH1 0x40 MLOAD PUSH32 0x8C379A000000000000000000000000000000000000000000000000000000000 DUP2 MSTORE PUSH1 0x4 ADD PUSH2 0x38D SWAP1 PUSH2 0xD70 JUMP JUMPDEST PUSH1 0x40 MLOAD DUP1 SWAP2 SUB SWAP1 REVERT JUMPDEST PUSH1 0x1 PUSH1 0x5 PUSH0 CALLER PUSH20 0xFFFFFFFFFFFFFFFFFFFFFFFFFFFFFFFFFFFFFFFF AND PUSH20 0xFFFFFFFFFFFFFFFFFFFFFFFFFFFFFFFFFFFFFFFF AND DUP2 MSTORE PUSH1 0x20 ADD SWAP1 DUP2 MSTORE PUSH1 0x20 ADD PUSH0 KECCAK256 PUSH0 PUSH2 0x100 EXP DUP2 SLOAD DUP2 PUSH1 0xFF MUL NOT AND SWAP1 DUP4 ISZERO ISZERO MUL OR SWAP1 SSTORE POP PUSH1 0x2 PUSH0 SWAP1 SLOAD SWAP1 PUSH2 0x100 EXP SWAP1 DIV PUSH20 0xFFFFFFFFFFFFFFFFFFFFFFFFFFFFFFFFFFFFFFFF AND PUSH20 0xFFFFFFFFFFFFFFFFFFFFFFFFFFFFFFFFFFFFFFFF AND PUSH4 0xA9059CBB CALLER DUP4 PUSH1 0x40 MLOAD DUP4 PUSH4 0xFFFFFFFF AND PUSH1 0xE0 SHL DUP2 MSTORE PUSH1 0x4 ADD PUSH2 0x447 SWAP3 SWAP2 SWAP1 PUSH2 0xD8E JUMP JUMPDEST PUSH1 0x20 PUSH1 0x40 MLOAD DUP1 DUP4 SUB DUP2 PUSH0 DUP8 GAS CALL ISZERO DUP1 ISZERO PUSH2 0x463 JUMPI RETURNDATASIZE PUSH0 DUP1 RETURNDATACOPY RETURNDATASIZE PUSH0 REVERT JUMPDEST POP POP POP POP PUSH1 0x40 MLOAD RETURNDATASIZE PUSH1 0x1F NOT PUSH1 0x1F DUP3 ADD AND DUP3 ADD DUP1 PUSH1 0x40 MSTORE POP DUP2 ADD SWAP1 PUSH2 0x487 SWAP2 SWAP1 PUSH2 0xDDF JUMP JUMPDEST POP POP JUMP JUMPDEST PUSH1 0x3 PUSH0 SWAP1 SLOAD SWAP1 PUSH2 0x100 EXP SWAP1 DIV PUSH20 0xFFFFFFFFFFFFFFFFFFFFFFFFFFFFFFFFFFFFFFFF AND PUSH20 0xFFFFFFFFFFFFFFFFFFFFFFFFFFFFFFFFFFFFFFFF AND CALLER PUSH20 0xFFFFFFFFFFFFFFFFFFFFFFFFFFFFFFFFFFFFFFFF AND EQ PUSH2 0x4E3 JUMPI PUSH0 DUP1 REVERT JUMPDEST PUSH1 0x1 PUSH1 0x3 PUSH1 0x14 PUSH2 0x100 EXP DUP2 SLOAD DUP2 PUSH1 0xFF MUL NOT AND SWAP1 DUP4 ISZERO ISZERO MUL OR SWAP1 SSTORE POP JUMP JUMPDEST PUSH1 0x3 PUSH0 SWAP1 SLOAD SWAP1 PUSH2 0x100 EXP SWAP1 DIV PUSH20 0xFFFFFFFFFFFFFFFFFFFFFFFFFFFFFFFFFFFFFFFF AND PUSH20 0xFFFFFFFFFFFFFFFFFFFFFFFFFFFFFFFFFFFFFFFF AND CALLER PUSH20 0xFFFFFFFFFFFFFFFFFFFFFFFFFFFFFFFFFFFFFFFF AND EQ PUSH2 0x558 JUMPI PUSH0 DUP1 REVERT JUMPDEST DUP2 DUP2 SWAP1 POP DUP5 DUP5 SWAP1 POP EQ PUSH2 0x5A0 JUMPI PUSH1 0x40 MLOAD PUSH32 0x8C379A000000000000000000000000000000000000000000000000000000000 DUP2 MSTORE PUSH1 0x4 ADD PUSH2 0x597 SWAP1 PUSH2 0xE54 JUMP JUMPDEST PUSH1 0x40 MLOAD DUP1 SWAP2 SUB SWAP1 REVERT JUMPDEST PUSH0 JUMPDEST DUP5 DUP5 SWAP1 POP DUP2 LT ISZERO PUSH2 0x697 JUMPI PUSH1 0x2 PUSH0 SWAP1 SLOAD SWAP1 PUSH2 0x100 EXP SWAP1 DIV PUSH20 0xFFFFFFFFFFFFFFFFFFFFFFFFFFFFFFFFFFFFFFFF AND PUSH20 0xFFFFFFFFFFFFFFFFFFFFFFFFFFFFFFFFFFFFFFFF AND PUSH4 0xA9059CBB DUP7 DUP7 DUP5 DUP2 DUP2 LT PUSH2 0x5FD JUMPI PUSH2 0x5FC PUSH2 0xE72 JUMP JUMPDEST JUMPDEST SWAP1 POP PUSH1 0x20 MUL ADD PUSH1 0x20 DUP2 ADD SWAP1 PUSH2 0x612 SWAP2 SWAP1 PUSH2 0x9E3 JUMP JUMPDEST DUP6 DUP6 DUP6 DUP2 DUP2 LT PUSH2 0x625 JUMPI PUSH2 0x624 PUSH2 0xE72 JUMP JUMPDEST JUMPDEST SWAP1 POP PUSH1 0x20 MUL ADD CALLDATALOAD PUSH1 0x40 MLOAD DUP4 PUSH4 0xFFFFFFFF AND PUSH1 0xE0 SHL DUP2 MSTORE PUSH1 0x4 ADD PUSH2 0x649 SWAP3 SWAP2 SWAP1 PUSH2 0xD8E JUMP JUMPDEST PUSH1 0x20 PUSH1 0x40 MLOAD DUP1 DUP4 SUB DUP2 PUSH0 DUP8 GAS CALL ISZERO DUP1 ISZERO PUSH2 0x665 JUMPI RETURNDATASIZE PUSH0 DUP1 RETURNDATACOPY RETURNDATASIZE PUSH0 REVERT JUMPDEST POP POP POP POP PUSH1 0x40 MLOAD RETURNDATASIZE PUSH1 0x1F NOT PUSH1 0x1F DUP3 ADD AND DUP3 ADD DUP1 PUSH1 0x40 MSTORE POP DUP2 ADD SWAP1 PUSH2 0x689 SWAP2 SWAP1 PUSH2 0xDDF JUMP JUMPDEST POP DUP1 DUP1 PUSH1 0x1 ADD SWAP2 POP POP PUSH2 0x5A2 JUMP JUMPDEST POP POP POP POP POP JUMP JUMPDEST PUSH1 0x5 PUSH1 0x20 MSTORE DUP1 PUSH0 MSTORE PUSH1 0x40 PUSH0 KECCAK256 PUSH0 SWAP2 POP SLOAD SWAP1 PUSH2 0x100 EXP SWAP1 DIV PUSH1 0xFF AND DUP2 JUMP JUMPDEST PUSH1 0x3 PUSH1 0x14 SWAP1 SLOAD SWAP1 PUSH2 0x100 EXP SWAP1 DIV PUSH1 0xFF AND DUP2 JUMP JUMPDEST PUSH1 0x3 PUSH0 SWAP1 SLOAD SWAP1 PUSH2 0x100 EXP SWAP1 DIV PUSH20 0xFFFFFFFFFFFFFFFFFFFFFFFFFFFFFFFFFFFFFFFF AND DUP2 JUMP JUMPDEST PUSH1 0x3 PUSH0 SWAP1 SLOAD SWAP1 PUSH2 0x100 EXP SWAP1 DIV PUSH20 0xFFFFFFFFFFFFFFFFFFFFFFFFFFFFFFFFFFFFFFFF AND PUSH20 0xFFFFFFFFFFFFFFFFFFFFFFFFFFFFFFFFFFFFFFFF AND CALLER PUSH20 0xFFFFFFFFFFFFFFFFFFFFFFFFFFFFFFFFFFFFFFFF AND EQ PUSH2 0x74B JUMPI PUSH0 DUP1 REVERT JUMPDEST PUSH0 PUSH1 0x3 PUSH1 0x14 PUSH2 0x100 EXP DUP2 SLOAD DUP2 PUSH1 0xFF MUL NOT AND SWAP1 DUP4 ISZERO ISZERO MUL OR SWAP1 SSTORE POP JUMP JUMPDEST PUSH1 0x4 PUSH1 0x20 MSTORE DUP1 PUSH0 MSTORE PUSH1 0x40 PUSH0 KECCAK256 PUSH0 SWAP2 POP SWAP1 POP SLOAD DUP2 JUMP JUMPDEST PUSH1 0x3 PUSH0 SWAP1 SLOAD SWAP1 PUSH2 0x100 EXP SWAP1 DIV PUSH20 0xFFFFFFFFFFFFFFFFFFFFFFFFFFFFFFFFFFFFFFFF AND PUSH20 0xFFFFFFFFFFFFFFFFFFFFFFFFFFFFFFFFFFFFFFFF AND CALLER PUSH20 0xFFFFFFFFFFFFFFFFFFFFFFFFFFFFFFFFFFFFFFFF AND EQ PUSH2 0x7D4 JUMPI PUSH0 DUP1 REVERT JUMPDEST DUP2 DUP2 LT ISZERO PUSH2 0x817 JUMPI PUSH1 0x40 MLOAD PUSH32 0x8C379A000000000000000000000000000000000000000000000000000000000 DUP2 MSTORE PUSH1 0x4 ADD PUSH2 0x80E SWAP1 PUSH2 0xF0F JUMP JUMPDEST PUSH1 0x40 MLOAD DUP1 SWAP2 SUB SWAP1 REVERT JUMPDEST DUP2 PUSH0 DUP2 SWAP1 SSTORE POP DUP1 PUSH1 0x1 DUP2 SWAP1 SSTORE POP POP POP JUMP JUMPDEST PUSH1 0x2 PUSH0 SWAP1 SLOAD SWAP1 PUSH2 0x100 EXP SWAP1 DIV PUSH20 0xFFFFFFFFFFFFFFFFFFFFFFFFFFFFFFFFFFFFFFFF AND DUP2 JUMP JUMPDEST PUSH0 DUP1 REVERT JUMPDEST PUSH0 DUP1 REVERT JUMPDEST PUSH0 DUP1 REVERT JUMPDEST PUSH0 DUP1 REVERT JUMPDEST PUSH0 DUP1 REVERT JUMPDEST PUSH0 DUP1 DUP4 PUSH1 0x1F DUP5 ADD SLT PUSH2 0x876 JUMPI PUSH2 0x875 PUSH2 0x855 JUMP JUMPDEST JUMPDEST DUP3 CALLDATALOAD SWAP1 POP PUSH8 0xFFFFFFFFFFFFFFFF DUP2 GT ISZERO PUSH2 0x893 JUMPI PUSH2 0x892 PUSH2 0x859 JUMP JUMPDEST JUMPDEST PUSH1 0x20 DUP4 ADD SWAP2 POP DUP4 PUSH1 0x20 DUP3 MUL DUP4 ADD GT ISZERO PUSH2 0x8AF JUMPI PUSH2 0x8AE PUSH2 0x85D JUMP JUMPDEST JUMPDEST SWAP3 POP SWAP3 SWAP1 POP JUMP JUMPDEST PUSH0 DUP1 DUP4 PUSH1 0x1F DUP5 ADD SLT PUSH2 0x8CB JUMPI PUSH2 0x8CA PUSH2 0x855 JUMP JUMPDEST JUMPDEST DUP3 CALLDATALOAD SWAP1 POP PUSH8 0xFFFFFFFFFFFFFFFF DUP2 GT ISZERO PUSH2 0x8E8 JUMPI PUSH2 0x8E7 PUSH2 0x859 JUMP JUMPDEST JUMPDEST PUSH1 0x20 DUP4 ADD SWAP2 POP DUP4 PUSH1 0x20 DUP3 MUL DUP4 ADD GT ISZERO PUSH2 0x904 JUMPI PUSH2 0x903 PUSH2 0x85D JUMP JUMPDEST JUMPDEST SWAP3 POP SWAP3 SWAP1 POP JUMP JUMPDEST PUSH0 DUP1 PUSH0 DUP1 PUSH1 0x40 DUP6 DUP8 SUB SLT ISZERO PUSH2 0x923 JUMPI PUSH2 0x922 PUSH2 0x84D JUMP JUMPDEST JUMPDEST PUSH0 DUP6 ADD CALLDATALOAD PUSH8 0xFFFFFFFFFFFFFFFF DUP2 GT ISZERO PUSH2 0x940 JUMPI PUSH2 0x93F PUSH2 0x851 JUMP JUMPDEST JUMPDEST PUSH2 0x94C DUP8 DUP3 DUP9 ADD PUSH2 0x861 JUMP JUMPDEST SWAP5 POP SWAP5 POP POP PUSH1 0x20 DUP6 ADD CALLDATALOAD PUSH8 0xFFFFFFFFFFFFFFFF DUP2 GT ISZERO PUSH2 0x96F JUMPI PUSH2 0x96E PUSH2 0x851 JUMP JUMPDEST JUMPDEST PUSH2 0x97B DUP8 DUP3 DUP9 ADD PUSH2 0x8B6 JUMP JUMPDEST SWAP3 POP SWAP3 POP POP SWAP3 SWAP6 SWAP2 SWAP5 POP SWAP3 POP JUMP JUMPDEST PUSH0 PUSH20 0xFFFFFFFFFFFFFFFFFFFFFFFFFFFFFFFFFFFFFFFF DUP3 AND SWAP1 POP SWAP2 SWAP1 POP JUMP JUMPDEST PUSH0 PUSH2 0x9B2 DUP3 PUSH2 0x989 JUMP JUMPDEST SWAP1 POP SWAP2 SWAP1 POP JUMP JUMPDEST PUSH2 0x9C2 DUP2 PUSH2 0x9A8 JUMP JUMPDEST DUP2 EQ PUSH2 0x9CC JUMPI PUSH0 DUP1 REVERT JUMPDEST POP JUMP JUMPDEST PUSH0 DUP2 CALLDATALOAD SWAP1 POP PUSH2 0x9DD DUP2 PUSH2 0x9B9 JUMP JUMPDEST SWAP3 SWAP2 POP POP JUMP JUMPDEST PUSH0 PUSH1 0x20 DUP3 DUP5 SUB SLT ISZERO PUSH2 0x9F8 JUMPI PUSH2 0x9F7 PUSH2 0x84D JUMP JUMPDEST JUMPDEST PUSH0 PUSH2 0xA05 DUP5 DUP3 DUP6 ADD PUSH2 0x9CF JUMP JUMPDEST SWAP2 POP POP SWAP3 SWAP2 POP POP JUMP JUMPDEST PUSH0 DUP2 ISZERO ISZERO SWAP1 POP SWAP2 SWAP1 POP JUMP JUMPDEST PUSH2 0xA22 DUP2 PUSH2 0xA0E JUMP JUMPDEST DUP3 MSTORE POP POP JUMP JUMPDEST PUSH0 PUSH1 0x20 DUP3 ADD SWAP1 POP PUSH2 0xA3B PUSH0 DUP4 ADD DUP5 PUSH2 0xA19 JUMP JUMPDEST SWAP3 SWAP2 POP POP JUMP JUMPDEST PUSH2 0xA4A DUP2 PUSH2 0x9A8 JUMP JUMPDEST DUP3 MSTORE POP POP JUMP JUMPDEST PUSH0 PUSH1 0x20 DUP3 ADD SWAP1 POP PUSH2 0xA63 PUSH0 DUP4 ADD DUP5 PUSH2 0xA41 JUMP JUMPDEST SWAP3 SWAP2 POP POP JUMP JUMPDEST PUSH0 DUP2 SWAP1 POP SWAP2 SWAP1 POP JUMP JUMPDEST PUSH2 0xA7B DUP2 PUSH2 0xA69 JUMP JUMPDEST DUP3 MSTORE POP POP JUMP JUMPDEST PUSH0 PUSH1 0x20 DUP3 ADD SWAP1 POP PUSH2 0xA94 PUSH0 DUP4 ADD DUP5 PUSH2 0xA72 JUMP JUMPDEST SWAP3 SWAP2 POP POP JUMP JUMPDEST PUSH2 0xAA3 DUP2 PUSH2 0xA69 JUMP JUMPDEST DUP2 EQ PUSH2 0xAAD JUMPI PUSH0 DUP1 REVERT JUMPDEST POP JUMP JUMPDEST PUSH0 DUP2 CALLDATALOAD SWAP1 POP PUSH2 0xABE DUP2 PUSH2 0xA9A JUMP JUMPDEST SWAP3 SWAP2 POP POP JUMP JUMPDEST PUSH0 DUP1 PUSH1 0x40 DUP4 DUP6 SUB SLT ISZERO PUSH2 0xADA JUMPI PUSH2 0xAD9 PUSH2 0x84D JUMP JUMPDEST JUMPDEST PUSH0 PUSH2 0xAE7 DUP6 DUP3 DUP7 ADD PUSH2 0xAB0 JUMP JUMPDEST SWAP3 POP POP PUSH1 0x20 PUSH2 0xAF8 DUP6 DUP3 DUP7 ADD PUSH2 0xAB0 JUMP JUMPDEST SWAP2 POP POP SWAP3 POP SWAP3 SWAP1 POP JUMP JUMPDEST PUSH0 DUP2 SWAP1 POP SWAP2 SWAP1 POP JUMP JUMPDEST PUSH0 PUSH2 0xB25 PUSH2 0xB20 PUSH2 0xB1B DUP5 PUSH2 0x989 JUMP JUMPDEST PUSH2 0xB02 JUMP JUMPDEST PUSH2 0x989 JUMP JUMPDEST SWAP1 POP SWAP2 SWAP1 POP JUMP JUMPDEST PUSH0 PUSH2 0xB36 DUP3 PUSH2 0xB0B JUMP JUMPDEST SWAP1 POP SWAP2 SWAP1 POP JUMP JUMPDEST PUSH0 PUSH2 0xB47 DUP3 PUSH2 0xB2C JUMP JUMPDEST SWAP1 POP SWAP2 SWAP1 POP JUMP JUMPDEST PUSH2 0xB57 DUP2 PUSH2 0xB3D JUMP JUMPDEST DUP3 MSTORE POP POP JUMP JUMPDEST PUSH0 PUSH1 0x20 DUP3 ADD SWAP1 POP PUSH2 0xB70 PUSH0 DUP4 ADD DUP5 PUSH2 0xB4E JUMP JUMPDEST SWAP3 SWAP2 POP POP JUMP JUMPDEST PUSH0 DUP3 DUP3 MSTORE PUSH1 0x20 DUP3 ADD SWAP1 POP SWAP3 SWAP2 POP POP JUMP JUMPDEST PUSH32 0x636C61696D20706572696F64206973206E6F7420737461727465640000000000 PUSH0 DUP3 ADD MSTORE POP JUMP JUMPDEST PUSH0 PUSH2 0xBBA PUSH1 0x1B DUP4 PUSH2 0xB76 JUMP JUMPDEST SWAP2 POP PUSH2 0xBC5 DUP3 PUSH2 0xB86 JUMP JUMPDEST PUSH1 0x20 DUP3 ADD SWAP1 POP SWAP2 SWAP1 POP JUMP JUMPDEST PUSH0 PUSH1 0x20 DUP3 ADD SWAP1 POP DUP2 DUP2 SUB PUSH0 DUP4 ADD MSTORE PUSH2 0xBE7 DUP2 PUSH2 0xBAE JUMP JUMPDEST SWAP1 POP SWAP2 SWAP1 POP JUMP JUMPDEST PUSH32 0x636C61696D20706572696F6420656E6465640000000000000000000000000000 PUSH0 DUP3 ADD MSTORE POP JUMP JUMPDEST PUSH0 PUSH2 0xC22 PUSH1 0x12 DUP4 PUSH2 0xB76 JUMP JUMPDEST SWAP2 POP PUSH2 0xC2D DUP3 PUSH2 0xBEE JUMP JUMPDEST PUSH1 0x20 DUP3 ADD SWAP1 POP SWAP2 SWAP1 POP JUMP JUMPDEST PUSH0 PUSH1 0x20 DUP3 ADD SWAP1 POP DUP2 DUP2 SUB PUSH0 DUP4 ADD MSTORE PUSH2 0xC4F DUP2 PUSH2 0xC16 JUMP JUMPDEST SWAP1 POP SWAP2 SWAP1 POP JUMP JUMPDEST PUSH32 0x61697264726F7020206973207061757365640000000000000000000000000000 PUSH0 DUP3 ADD MSTORE POP JUMP JUMPDEST PUSH0 PUSH2 0xC8A PUSH1 0x12 DUP4 PUSH2 0xB76 JUMP JUMPDEST SWAP2 POP PUSH2 0xC95 DUP3 PUSH2 0xC56 JUMP JUMPDEST PUSH1 0x20 DUP3 ADD SWAP1 POP SWAP2 SWAP1 POP JUMP JUMPDEST PUSH0 PUSH1 0x20 DUP3 ADD SWAP1 POP DUP2 DUP2 SUB PUSH0 DUP4 ADD MSTORE PUSH2 0xCB7 DUP2 PUSH2 0xC7E JUMP JUMPDEST SWAP1 POP SWAP2 SWAP1 POP JUMP JUMPDEST PUSH32 0x616C726561647920636C61696D65640000000000000000000000000000000000 PUSH0 DUP3 ADD MSTORE POP JUMP JUMPDEST PUSH0 PUSH2 0xCF2 PUSH1 0xF DUP4 PUSH2 0xB76 JUMP JUMPDEST SWAP2 POP PUSH2 0xCFD DUP3 PUSH2 0xCBE JUMP JUMPDEST PUSH1 0x20 DUP3 ADD SWAP1 POP SWAP2 SWAP1 POP JUMP JUMPDEST PUSH0 PUSH1 0x20 DUP3 ADD SWAP1 POP DUP2 DUP2 SUB PUSH0 DUP4 ADD MSTORE PUSH2 0xD1F DUP2 PUSH2 0xCE6 JUMP JUMPDEST SWAP1 POP SWAP2 SWAP1 POP JUMP JUMPDEST PUSH32 0x4E6F2041697264726F7073000000000000000000000000000000000000000000 PUSH0 DUP3 ADD MSTORE POP JUMP JUMPDEST PUSH0 PUSH2 0xD5A PUSH1 0xB DUP4 PUSH2 0xB76 JUMP JUMPDEST SWAP2 POP PUSH2 0xD65 DUP3 PUSH2 0xD26 JUMP JUMPDEST PUSH1 0x20 DUP3 ADD SWAP1 POP SWAP2 SWAP1 POP JUMP JUMPDEST PUSH0 PUSH1 0x20 DUP3 ADD SWAP1 POP DUP2 DUP2 SUB PUSH0 DUP4 ADD MSTORE PUSH2 0xD87 DUP2 PUSH2 0xD4E JUMP JUMPDEST SWAP1 POP SWAP2 SWAP1 POP JUMP JUMPDEST PUSH0 PUSH1 0x40 DUP3 ADD SWAP1 POP PUSH2 0xDA1 PUSH0 DUP4 ADD DUP6 PUSH2 0xA41 JUMP JUMPDEST PUSH2 0xDAE PUSH1 0x20 DUP4 ADD DUP5 PUSH2 0xA72 JUMP JUMPDEST SWAP4 SWAP3 POP POP POP JUMP JUMPDEST PUSH2 0xDBE DUP2 PUSH2 0xA0E JUMP JUMPDEST DUP2 EQ PUSH2 0xDC8 JUMPI PUSH0 DUP1 REVERT JUMPDEST POP JUMP JUMPDEST PUSH0 DUP2 MLOAD SWAP1 POP PUSH2 0xDD9 DUP2 PUSH2 0xDB5 JUMP JUMPDEST SWAP3 SWAP2 POP POP JUMP JUMPDEST PUSH0 PUSH1 0x20 DUP3 DUP5 SUB SLT ISZERO PUSH2 0xDF4 JUMPI PUSH2 0xDF3 PUSH2 0x84D JUMP JUMPDEST JUMPDEST PUSH0 PUSH2 0xE01 DUP5 DUP3 DUP6 ADD PUSH2 0xDCB JUMP JUMPDEST SWAP2 POP POP SWAP3 SWAP2 POP POP JUMP JUMPDEST PUSH32 0x6D697373696E6720696E70757400000000000000000000000000000000000000 PUSH0 DUP3 ADD MSTORE POP JUMP JUMPDEST PUSH0 PUSH2 0xE3E PUSH1 0xD DUP4 PUSH2 0xB76 JUMP JUMPDEST SWAP2 POP PUSH2 0xE49 DUP3 PUSH2 0xE0A JUMP JUMPDEST PUSH1 0x20 DUP3 ADD SWAP1 POP SWAP2 SWAP1 POP JUMP JUMPDEST PUSH0 PUSH1 0x20 DUP3 ADD SWAP1 POP DUP2 DUP2 SUB PUSH0 DUP4 ADD MSTORE PUSH2 0xE6B DUP2 PUSH2 0xE32 JUMP JUMPDEST SWAP1 POP SWAP2 SWAP1 POP JUMP JUMPDEST PUSH32 0x4E487B7100000000000000000000000000000000000000000000000000000000 PUSH0 MSTORE PUSH1 0x32 PUSH1 0x4 MSTORE PUSH1 0x24 PUSH0 REVERT JUMPDEST PUSH32 0x656E6454696D652063616E6E6F74206265206C657373207468616E2073746172 PUSH0 DUP3 ADD MSTORE PUSH32 0x742074696D650000000000000000000000000000000000000000000000000000 PUSH1 0x20 DUP3 ADD MSTORE POP JUMP JUMPDEST PUSH0 PUSH2 0xEF9 PUSH1 0x26 DUP4 PUSH2 0xB76 JUMP JUMPDEST SWAP2 POP PUSH2 0xF04 DUP3 PUSH2 0xE9F JUMP JUMPDEST PUSH1 0x40 DUP3 ADD SWAP1 POP SWAP2 SWAP1 POP JUMP JUMPDEST PUSH0 PUSH1 0x20 DUP3 ADD SWAP1 POP DUP2 DUP2 SUB PUSH0 DUP4 ADD MSTORE PUSH2 0xF26 DUP2 PUSH2 0xEED JUMP JUMPDEST SWAP1 POP SWAP2 SWAP1 POP JUMP INVALID LOG2 PUSH5 0x6970667358 0x22 SLT KECCAK256 LOG2 0xE5 0x4E 0xEC CALLCODE SWAP12 0xB6 0xDA 0xE4 PUSH8 0xB5DECE3F81D65C01 0xE4 ORIGIN PUSH29 0xF0A48429CA8E4820E00D4264736F6C634300081A003300000000000000 "
				},
				"gasEstimates": {
					"creation": {
						"codeDepositCost": "787800",
						"executionCost": "infinite",
						"totalCost": "infinite"
					},
					"external": {
						"airdropAmount(address)": "2846",
						"claim()": "infinite",
						"hasClaimed(address)": "2900",
						"owner()": "2508",
						"pause()": "2606",
						"paused()": "26652",
						"setAirdropamount(address[],uint256[])": "infinite",
						"token()": "infinite",
						"unpaused()": "26650",
						"updateClaimPeriod(uint256,uint256)": "infinite"
					}
				},
				"methodIdentifiers": {
					"airdropAmount(address)": "b530dc8c",
					"claim()": "4e71d92d",
					"hasClaimed(address)": "73b2e80e",
					"owner()": "8da5cb5b",
					"pause()": "8456cb59",
					"paused()": "5c975abb",
					"setAirdropamount(address[],uint256[])": "60eba7a6",
					"token()": "fc0c546a",
					"unpaused()": "b0b62f5a",
					"updateClaimPeriod(uint256,uint256)": "dd14a511"
				}
			},
			"storageLayout": {
				"storage": [
					{
						"astId": 13,
						"contract": "Airdrops/TimedAirdrop.sol:ClaimAirdeops",
						"label": "startTime",
						"offset": 0,
						"slot": "0",
						"type": "t_uint256"
					},
					{
						"astId": 15,
						"contract": "Airdrops/TimedAirdrop.sol:ClaimAirdeops",
						"label": "endTime",
						"offset": 0,
						"slot": "1",
						"type": "t_uint256"
					},
					{
						"astId": 18,
						"contract": "Airdrops/TimedAirdrop.sol:ClaimAirdeops",
						"label": "token",
						"offset": 0,
						"slot": "2",
						"type": "t_contract(IERC20)11"
					},
					{
						"astId": 20,
						"contract": "Airdrops/TimedAirdrop.sol:ClaimAirdeops",
						"label": "owner",
						"offset": 0,
						"slot": "3",
						"type": "t_address"
					},
					{
						"astId": 22,
						"contract": "Airdrops/TimedAirdrop.sol:ClaimAirdeops",
						"label": "pause",
						"offset": 20,
						"slot": "3",
						"type": "t_bool"
					},
					{
						"astId": 26,
						"contract": "Airdrops/TimedAirdrop.sol:ClaimAirdeops",
						"label": "airdropAmount",
						"offset": 0,
						"slot": "4",
						"type": "t_mapping(t_address,t_uint256)"
					},
					{
						"astId": 30,
						"contract": "Airdrops/TimedAirdrop.sol:ClaimAirdeops",
						"label": "hasClaimed",
						"offset": 0,
						"slot": "5",
						"type": "t_mapping(t_address,t_bool)"
					}
				],
				"types": {
					"t_address": {
						"encoding": "inplace",
						"label": "address",
						"numberOfBytes": "20"
					},
					"t_bool": {
						"encoding": "inplace",
						"label": "bool",
						"numberOfBytes": "1"
					},
					"t_contract(IERC20)11": {
						"encoding": "inplace",
						"label": "contract IERC20",
						"numberOfBytes": "20"
					},
					"t_mapping(t_address,t_bool)": {
						"encoding": "mapping",
						"key": "t_address",
						"label": "mapping(address => bool)",
						"numberOfBytes": "32",
						"value": "t_bool"
					},
					"t_mapping(t_address,t_uint256)": {
						"encoding": "mapping",
						"key": "t_address",
						"label": "mapping(address => uint256)",
						"numberOfBytes": "32",
						"value": "t_uint256"
					},
					"t_uint256": {
						"encoding": "inplace",
						"label": "uint256",
						"numberOfBytes": "32"
					}
				}
			},
			"userdoc": {
				"kind": "user",
				"methods": {},
				"version": 1
			}
		}
	}
}