{
	"MLM/Multi-level MLM System/GrowChain.sol": {
		"GrowChain": {
			"abi": [
				{
					"inputs": [
						{
							"internalType": "address",
							"name": "_gntAddress",
							"type": "address"
						}
					],
					"stateMutability": "nonpayable",
					"type": "constructor"
				},
				{
					"anonymous": false,
					"inputs": [
						{
							"indexed": true,
							"internalType": "address",
							"name": "to",
							"type": "address"
						},
						{
							"indexed": false,
							"internalType": "uint256",
							"name": "level",
							"type": "uint256"
						},
						{
							"indexed": false,
							"internalType": "uint256",
							"name": "amount",
							"type": "uint256"
						}
					],
					"name": "IncomeDistributed",
					"type": "event"
				},
				{
					"anonymous": false,
					"inputs": [
						{
							"indexed": true,
							"internalType": "address",
							"name": "oldOwner",
							"type": "address"
						},
						{
							"indexed": true,
							"internalType": "address",
							"name": "newOwner",
							"type": "address"
						}
					],
					"name": "OwnershipTransferred",
					"type": "event"
				},
				{
					"anonymous": false,
					"inputs": [
						{
							"indexed": true,
							"internalType": "address",
							"name": "user",
							"type": "address"
						},
						{
							"indexed": true,
							"internalType": "address",
							"name": "referrer",
							"type": "address"
						},
						{
							"indexed": false,
							"internalType": "uint256",
							"name": "time",
							"type": "uint256"
						}
					],
					"name": "Registered",
					"type": "event"
				},
				{
					"anonymous": false,
					"inputs": [
						{
							"indexed": true,
							"internalType": "address",
							"name": "oldToken",
							"type": "address"
						},
						{
							"indexed": true,
							"internalType": "address",
							"name": "newToken",
							"type": "address"
						}
					],
					"name": "TokenUpdated",
					"type": "event"
				},
				{
					"anonymous": false,
					"inputs": [
						{
							"indexed": true,
							"internalType": "address",
							"name": "admin",
							"type": "address"
						},
						{
							"indexed": false,
							"internalType": "uint256",
							"name": "amount",
							"type": "uint256"
						}
					],
					"name": "Withdraw",
					"type": "event"
				},
				{
					"inputs": [],
					"name": "GNT",
					"outputs": [
						{
							"internalType": "contract IERC20",
							"name": "",
							"type": "address"
						}
					],
					"stateMutability": "view",
					"type": "function"
				},
				{
					"inputs": [],
					"name": "REGISTRATION_FEE",
					"outputs": [
						{
							"internalType": "uint256",
							"name": "",
							"type": "uint256"
						}
					],
					"stateMutability": "view",
					"type": "function"
				},
				{
					"inputs": [],
					"name": "admin",
					"outputs": [
						{
							"internalType": "address",
							"name": "",
							"type": "address"
						}
					],
					"stateMutability": "view",
					"type": "function"
				},
				{
					"inputs": [
						{
							"internalType": "uint256",
							"name": "_percentage",
							"type": "uint256"
						}
					],
					"name": "changeRegsiterationFee",
					"outputs": [],
					"stateMutability": "nonpayable",
					"type": "function"
				},
				{
					"inputs": [],
					"name": "contractTokenBalance",
					"outputs": [
						{
							"internalType": "uint256",
							"name": "",
							"type": "uint256"
						}
					],
					"stateMutability": "view",
					"type": "function"
				},
				{
					"inputs": [
						{
							"internalType": "address",
							"name": "_user",
							"type": "address"
						}
					],
					"name": "getDirectReferrals",
					"outputs": [
						{
							"internalType": "address[]",
							"name": "",
							"type": "address[]"
						}
					],
					"stateMutability": "view",
					"type": "function"
				},
				{
					"inputs": [
						{
							"internalType": "address",
							"name": "_user",
							"type": "address"
						}
					],
					"name": "getIndirectReferrals",
					"outputs": [
						{
							"internalType": "address[]",
							"name": "",
							"type": "address[]"
						}
					],
					"stateMutability": "view",
					"type": "function"
				},
				{
					"inputs": [
						{
							"internalType": "address",
							"name": "_user",
							"type": "address"
						}
					],
					"name": "getUserDetails",
					"outputs": [
						{
							"internalType": "address",
							"name": "referrer",
							"type": "address"
						},
						{
							"internalType": "uint256",
							"name": "directReferralIncome",
							"type": "uint256"
						},
						{
							"internalType": "uint256",
							"name": "referralCount",
							"type": "uint256"
						},
						{
							"internalType": "uint256",
							"name": "teamIncome",
							"type": "uint256"
						},
						{
							"internalType": "uint256",
							"name": "teamSize",
							"type": "uint256"
						},
						{
							"internalType": "bool",
							"name": "isRegistered",
							"type": "bool"
						},
						{
							"internalType": "uint256",
							"name": "registrationTime",
							"type": "uint256"
						}
					],
					"stateMutability": "view",
					"type": "function"
				},
				{
					"inputs": [
						{
							"internalType": "uint256",
							"name": "",
							"type": "uint256"
						}
					],
					"name": "levelPercentage",
					"outputs": [
						{
							"internalType": "uint256",
							"name": "",
							"type": "uint256"
						}
					],
					"stateMutability": "view",
					"type": "function"
				},
				{
					"inputs": [],
					"name": "maxReferralDepth",
					"outputs": [
						{
							"internalType": "uint256",
							"name": "",
							"type": "uint256"
						}
					],
					"stateMutability": "view",
					"type": "function"
				},
				{
					"inputs": [],
					"name": "pause",
					"outputs": [
						{
							"internalType": "bool",
							"name": "",
							"type": "bool"
						}
					],
					"stateMutability": "view",
					"type": "function"
				},
				{
					"inputs": [],
					"name": "paused",
					"outputs": [],
					"stateMutability": "nonpayable",
					"type": "function"
				},
				{
					"inputs": [
						{
							"internalType": "address",
							"name": "_referrer",
							"type": "address"
						}
					],
					"name": "registration",
					"outputs": [],
					"stateMutability": "nonpayable",
					"type": "function"
				},
				{
					"inputs": [
						{
							"internalType": "address",
							"name": "_newOwner",
							"type": "address"
						}
					],
					"name": "transferOwnership",
					"outputs": [],
					"stateMutability": "nonpayable",
					"type": "function"
				},
				{
					"inputs": [],
					"name": "unpaused",
					"outputs": [],
					"stateMutability": "nonpayable",
					"type": "function"
				},
				{
					"inputs": [
						{
							"internalType": "address",
							"name": "_token",
							"type": "address"
						}
					],
					"name": "updateLLTAddress",
					"outputs": [],
					"stateMutability": "nonpayable",
					"type": "function"
				},
				{
					"inputs": [
						{
							"internalType": "address",
							"name": "",
							"type": "address"
						}
					],
					"name": "users",
					"outputs": [
						{
							"internalType": "address",
							"name": "referrer",
							"type": "address"
						},
						{
							"internalType": "uint256",
							"name": "directReferralIncome",
							"type": "uint256"
						},
						{
							"internalType": "bool",
							"name": "isRegistered",
							"type": "bool"
						},
						{
							"internalType": "uint256",
							"name": "referralCount",
							"type": "uint256"
						},
						{
							"internalType": "uint256",
							"name": "registrationTime",
							"type": "uint256"
						},
						{
							"internalType": "uint256",
							"name": "teamIncome",
							"type": "uint256"
						},
						{
							"internalType": "uint256",
							"name": "teamSize",
							"type": "uint256"
						}
					],
					"stateMutability": "view",
					"type": "function"
				},
				{
					"inputs": [
						{
							"internalType": "uint256",
							"name": "amount",
							"type": "uint256"
						}
					],
					"name": "withdraw",
					"outputs": [],
					"stateMutability": "nonpayable",
					"type": "function"
				}
			],
			"devdoc": {
				"kind": "dev",
				"methods": {},
				"version": 1
			},
			"evm": {
				"assembly": "    /* \"MLM/Multi-level MLM System/GrowChain.sol\":458:6232  contract GrowChain is ReentrancyGuard {... */\n  mstore(0x40, 0x80)\n    /* \"MLM/Multi-level MLM System/GrowChain.sol\":608:619  10 * 10**18 */\n  0x8ac7230489e80000\n    /* \"MLM/Multi-level MLM System/GrowChain.sol\":574:619  uint256 public REGISTRATION_FEE = 10 * 10**18 */\n  0x03\n  sstore\n    /* \"MLM/Multi-level MLM System/GrowChain.sol\":625:680  uint256[5] public levelPercentage = [40, 20, 15, 10, 5] */\n  mload(0x40)\n  dup1\n  0xa0\n  add\n  0x40\n  mstore\n  dup1\n    /* \"MLM/Multi-level MLM System/GrowChain.sol\":662:664  40 */\n  0x28\n    /* \"MLM/Multi-level MLM System/GrowChain.sol\":625:680  uint256[5] public levelPercentage = [40, 20, 15, 10, 5] */\n  0xff\n  and\n  dup2\n  mstore\n  0x20\n  add\n    /* \"MLM/Multi-level MLM System/GrowChain.sol\":666:668  20 */\n  0x14\n    /* \"MLM/Multi-level MLM System/GrowChain.sol\":625:680  uint256[5] public levelPercentage = [40, 20, 15, 10, 5] */\n  0xff\n  and\n  dup2\n  mstore\n  0x20\n  add\n    /* \"MLM/Multi-level MLM System/GrowChain.sol\":670:672  15 */\n  0x0f\n    /* \"MLM/Multi-level MLM System/GrowChain.sol\":625:680  uint256[5] public levelPercentage = [40, 20, 15, 10, 5] */\n  0xff\n  and\n  dup2\n  mstore\n  0x20\n  add\n    /* \"MLM/Multi-level MLM System/GrowChain.sol\":674:676  10 */\n  0x0a\n    /* \"MLM/Multi-level MLM System/GrowChain.sol\":625:680  uint256[5] public levelPercentage = [40, 20, 15, 10, 5] */\n  0xff\n  and\n  dup2\n  mstore\n  0x20\n  add\n    /* \"MLM/Multi-level MLM System/GrowChain.sol\":678:679  5 */\n  0x05\n    /* \"MLM/Multi-level MLM System/GrowChain.sol\":625:680  uint256[5] public levelPercentage = [40, 20, 15, 10, 5] */\n  0xff\n  and\n  dup2\n  mstore\n  pop\n  0x04\n  swap1\n  0x05\n  tag_1\n  swap3\n  swap2\n  swap1\n  tag_2\n  jump\t// in\ntag_1:\n  pop\n    /* \"MLM/Multi-level MLM System/GrowChain.sol\":737:738  5 */\n  0x05\n    /* \"MLM/Multi-level MLM System/GrowChain.sol\":703:738  uint256 public maxReferralDepth = 5 */\n  0x09\n  sstore\n    /* \"MLM/Multi-level MLM System/GrowChain.sol\":1714:1817  constructor(address _gntAddress) {... */\n  callvalue\n  dup1\n  iszero\n  tag_3\n  jumpi\n  0x00\n  dup1\n  revert\ntag_3:\n  pop\n  mload(0x40)\n  sub(codesize, bytecodeSize)\n  dup1\n  bytecodeSize\n  dup4\n  codecopy\n  dup2\n  dup2\n  add\n  0x40\n  mstore\n  dup2\n  add\n  swap1\n  tag_4\n  swap2\n  swap1\n  tag_5\n  jump\t// in\ntag_4:\n    /* \"@openzeppelin/contracts/security/ReentrancyGuard.sol\":1716:1717  1 */\n  0x01\n    /* \"@openzeppelin/contracts/security/ReentrancyGuard.sol\":1821:1828  _status */\n  0x00\n    /* \"@openzeppelin/contracts/security/ReentrancyGuard.sol\":1821:1843  _status = _NOT_ENTERED */\n  dup2\n  swap1\n  sstore\n  pop\n    /* \"MLM/Multi-level MLM System/GrowChain.sol\":1770:1781  _gntAddress */\n  dup1\n    /* \"MLM/Multi-level MLM System/GrowChain.sol\":1757:1760  GNT */\n  0x01\n  0x00\n    /* \"MLM/Multi-level MLM System/GrowChain.sol\":1757:1782  GNT = IERC20(_gntAddress) */\n  0x0100\n  exp\n  dup2\n  sload\n  dup2\n  0xffffffffffffffffffffffffffffffffffffffff\n  mul\n  not\n  and\n  swap1\n  dup4\n  0xffffffffffffffffffffffffffffffffffffffff\n  and\n  mul\n  or\n  swap1\n  sstore\n  pop\n    /* \"MLM/Multi-level MLM System/GrowChain.sol\":1800:1810  msg.sender */\n  caller\n    /* \"MLM/Multi-level MLM System/GrowChain.sol\":1792:1797  admin */\n  0x02\n  0x00\n    /* \"MLM/Multi-level MLM System/GrowChain.sol\":1792:1810  admin = msg.sender */\n  0x0100\n  exp\n  dup2\n  sload\n  dup2\n  0xffffffffffffffffffffffffffffffffffffffff\n  mul\n  not\n  and\n  swap1\n  dup4\n  0xffffffffffffffffffffffffffffffffffffffff\n  and\n  mul\n  or\n  swap1\n  sstore\n  pop\n    /* \"MLM/Multi-level MLM System/GrowChain.sol\":1714:1817  constructor(address _gntAddress) {... */\n  pop\n    /* \"MLM/Multi-level MLM System/GrowChain.sol\":458:6232  contract GrowChain is ReentrancyGuard {... */\n  jump(tag_10)\ntag_2:\n  dup3\n  0x05\n  dup2\n  add\n  swap3\n  dup3\n  iszero\n  tag_11\n  jumpi\n  swap2\n  0x20\n  mul\n  dup3\n  add\ntag_12:\n  dup3\n  dup2\n  gt\n  iszero\n  tag_13\n  jumpi\n  dup3\n  mload\n  dup3\n  swap1\n  0xff\n  and\n  swap1\n  sstore\n  swap2\n  0x20\n  add\n  swap2\n  swap1\n  0x01\n  add\n  swap1\n  jump(tag_12)\ntag_13:\ntag_11:\n  pop\n  swap1\n  pop\n  tag_14\n  swap2\n  swap1\n  tag_15\n  jump\t// in\ntag_14:\n  pop\n  swap1\n  jump\t// out\ntag_15:\ntag_16:\n  dup1\n  dup3\n  gt\n  iszero\n  tag_17\n  jumpi\n  0x00\n  dup2\n  0x00\n  swap1\n  sstore\n  pop\n  0x01\n  add\n  jump(tag_16)\ntag_17:\n  pop\n  swap1\n  jump\t// out\n    /* \"#utility.yul\":88:205   */\ntag_19:\n    /* \"#utility.yul\":197:198   */\n  0x00\n    /* \"#utility.yul\":194:195   */\n  dup1\n    /* \"#utility.yul\":187:199   */\n  revert\n    /* \"#utility.yul\":334:460   */\ntag_21:\n    /* \"#utility.yul\":371:378   */\n  0x00\n    /* \"#utility.yul\":411:453   */\n  0xffffffffffffffffffffffffffffffffffffffff\n    /* \"#utility.yul\":404:409   */\n  dup3\n    /* \"#utility.yul\":400:454   */\n  and\n    /* \"#utility.yul\":389:454   */\n  swap1\n  pop\n    /* \"#utility.yul\":334:460   */\n  swap2\n  swap1\n  pop\n  jump\t// out\n    /* \"#utility.yul\":466:562   */\ntag_22:\n    /* \"#utility.yul\":503:510   */\n  0x00\n    /* \"#utility.yul\":532:556   */\n  tag_31\n    /* \"#utility.yul\":550:555   */\n  dup3\n    /* \"#utility.yul\":532:556   */\n  tag_21\n  jump\t// in\ntag_31:\n    /* \"#utility.yul\":521:556   */\n  swap1\n  pop\n    /* \"#utility.yul\":466:562   */\n  swap2\n  swap1\n  pop\n  jump\t// out\n    /* \"#utility.yul\":568:690   */\ntag_23:\n    /* \"#utility.yul\":641:665   */\n  tag_33\n    /* \"#utility.yul\":659:664   */\n  dup2\n    /* \"#utility.yul\":641:665   */\n  tag_22\n  jump\t// in\ntag_33:\n    /* \"#utility.yul\":634:639   */\n  dup2\n    /* \"#utility.yul\":631:666   */\n  eq\n    /* \"#utility.yul\":621:684   */\n  tag_34\n  jumpi\n    /* \"#utility.yul\":680:681   */\n  0x00\n    /* \"#utility.yul\":677:678   */\n  dup1\n    /* \"#utility.yul\":670:682   */\n  revert\n    /* \"#utility.yul\":621:684   */\ntag_34:\n    /* \"#utility.yul\":568:690   */\n  pop\n  jump\t// out\n    /* \"#utility.yul\":696:839   */\ntag_24:\n    /* \"#utility.yul\":753:758   */\n  0x00\n    /* \"#utility.yul\":784:790   */\n  dup2\n    /* \"#utility.yul\":778:791   */\n  mload\n    /* \"#utility.yul\":769:791   */\n  swap1\n  pop\n    /* \"#utility.yul\":800:833   */\n  tag_36\n    /* \"#utility.yul\":827:832   */\n  dup2\n    /* \"#utility.yul\":800:833   */\n  tag_23\n  jump\t// in\ntag_36:\n    /* \"#utility.yul\":696:839   */\n  swap3\n  swap2\n  pop\n  pop\n  jump\t// out\n    /* \"#utility.yul\":845:1196   */\ntag_5:\n    /* \"#utility.yul\":915:921   */\n  0x00\n    /* \"#utility.yul\":964:966   */\n  0x20\n    /* \"#utility.yul\":952:961   */\n  dup3\n    /* \"#utility.yul\":943:950   */\n  dup5\n    /* \"#utility.yul\":939:962   */\n  sub\n    /* \"#utility.yul\":935:967   */\n  slt\n    /* \"#utility.yul\":932:1051   */\n  iszero\n  tag_38\n  jumpi\n    /* \"#utility.yul\":970:1049   */\n  tag_39\n  tag_19\n  jump\t// in\ntag_39:\n    /* \"#utility.yul\":932:1051   */\ntag_38:\n    /* \"#utility.yul\":1090:1091   */\n  0x00\n    /* \"#utility.yul\":1115:1179   */\n  tag_40\n    /* \"#utility.yul\":1171:1178   */\n  dup5\n    /* \"#utility.yul\":1162:1168   */\n  dup3\n    /* \"#utility.yul\":1151:1160   */\n  dup6\n    /* \"#utility.yul\":1147:1169   */\n  add\n    /* \"#utility.yul\":1115:1179   */\n  tag_24\n  jump\t// in\ntag_40:\n    /* \"#utility.yul\":1105:1179   */\n  swap2\n  pop\n    /* \"#utility.yul\":1061:1189   */\n  pop\n    /* \"#utility.yul\":845:1196   */\n  swap3\n  swap2\n  pop\n  pop\n  jump\t// out\n    /* \"MLM/Multi-level MLM System/GrowChain.sol\":458:6232  contract GrowChain is ReentrancyGuard {... */\ntag_10:\n  dataSize(sub_0)\n  dup1\n  dataOffset(sub_0)\n  0x00\n  codecopy\n  0x00\n  return\nstop\n\nsub_0: assembly {\n        /* \"MLM/Multi-level MLM System/GrowChain.sol\":458:6232  contract GrowChain is ReentrancyGuard {... */\n      mstore(0x40, 0x80)\n      callvalue\n      dup1\n      iszero\n      tag_1\n      jumpi\n      0x00\n      dup1\n      revert\n    tag_1:\n      pop\n      jumpi(tag_2, lt(calldatasize, 0x04))\n      shr(0xe0, calldataload(0x00))\n      dup1\n      0x8456cb59\n      gt\n      tag_21\n      jumpi\n      dup1\n      0xb0b62f5a\n      gt\n      tag_22\n      jumpi\n      dup1\n      0xb0b62f5a\n      eq\n      tag_16\n      jumpi\n      dup1\n      0xcc3d967b\n      eq\n      tag_17\n      jumpi\n      dup1\n      0xd2c8e0e5\n      eq\n      tag_18\n      jumpi\n      dup1\n      0xf2fde38b\n      eq\n      tag_19\n      jumpi\n      dup1\n      0xf851a440\n      eq\n      tag_20\n      jumpi\n      jump(tag_2)\n    tag_22:\n      dup1\n      0x8456cb59\n      eq\n      tag_12\n      jumpi\n      dup1\n      0x8c546f81\n      eq\n      tag_13\n      jumpi\n      dup1\n      0x9e9aed62\n      eq\n      tag_14\n      jumpi\n      dup1\n      0xa87430ba\n      eq\n      tag_15\n      jumpi\n      jump(tag_2)\n    tag_21:\n      dup1\n      0x5953942b\n      gt\n      tag_23\n      jumpi\n      dup1\n      0x5953942b\n      eq\n      tag_7\n      jumpi\n      dup1\n      0x5c975abb\n      eq\n      tag_8\n      jumpi\n      dup1\n      0x5dc68b0a\n      eq\n      tag_9\n      jumpi\n      dup1\n      0x64b4f751\n      eq\n      tag_10\n      jumpi\n      dup1\n      0x7e4c0e32\n      eq\n      tag_11\n      jumpi\n      jump(tag_2)\n    tag_23:\n      dup1\n      0x04189250\n      eq\n      tag_3\n      jumpi\n      dup1\n      0x0840605a\n      eq\n      tag_4\n      jumpi\n      dup1\n      0x2e1a7d4d\n      eq\n      tag_5\n      jumpi\n      dup1\n      0x4f404243\n      eq\n      tag_6\n      jumpi\n    tag_2:\n      0x00\n      dup1\n      revert\n        /* \"MLM/Multi-level MLM System/GrowChain.sol\":703:738  uint256 public maxReferralDepth = 5 */\n    tag_3:\n      tag_24\n      tag_25\n      jump\t// in\n    tag_24:\n      mload(0x40)\n      tag_26\n      swap2\n      swap1\n      tag_27\n      jump\t// in\n    tag_26:\n      mload(0x40)\n      dup1\n      swap2\n      sub\n      swap1\n      return\n        /* \"MLM/Multi-level MLM System/GrowChain.sol\":2182:3106  function registration(address _referrer)... */\n    tag_4:\n      tag_28\n      0x04\n      dup1\n      calldatasize\n      sub\n      dup2\n      add\n      swap1\n      tag_29\n      swap2\n      swap1\n      tag_30\n      jump\t// in\n    tag_29:\n      tag_31\n      jump\t// in\n    tag_28:\n      stop\n        /* \"MLM/Multi-level MLM System/GrowChain.sol\":5478:5628  function withdraw(uint256 amount) external nonReentrant onlybyAdmin {... */\n    tag_5:\n      tag_32\n      0x04\n      dup1\n      calldatasize\n      sub\n      dup2\n      add\n      swap1\n      tag_33\n      swap2\n      swap1\n      tag_34\n      jump\t// in\n    tag_33:\n      tag_35\n      jump\t// in\n    tag_32:\n      stop\n        /* \"MLM/Multi-level MLM System/GrowChain.sol\":4887:5055  function getIndirectReferrals(address _user)... */\n    tag_6:\n      tag_36\n      0x04\n      dup1\n      calldatasize\n      sub\n      dup2\n      add\n      swap1\n      tag_37\n      swap2\n      swap1\n      tag_30\n      jump\t// in\n    tag_37:\n      tag_38\n      jump\t// in\n    tag_36:\n      mload(0x40)\n      tag_39\n      swap2\n      swap1\n      tag_40\n      jump\t// in\n    tag_39:\n      mload(0x40)\n      dup1\n      swap2\n      sub\n      swap1\n      return\n        /* \"MLM/Multi-level MLM System/GrowChain.sol\":5948:6106  function updateLLTAddress(address _token) external onlybyAdmin {... */\n    tag_7:\n      tag_41\n      0x04\n      dup1\n      calldatasize\n      sub\n      dup2\n      add\n      swap1\n      tag_42\n      swap2\n      swap1\n      tag_30\n      jump\t// in\n    tag_42:\n      tag_43\n      jump\t// in\n    tag_41:\n      stop\n        /* \"MLM/Multi-level MLM System/GrowChain.sol\":5296:5364  function paused() external onlybyAdmin {... */\n    tag_8:\n      tag_44\n      tag_45\n      jump\t// in\n    tag_44:\n      stop\n        /* \"MLM/Multi-level MLM System/GrowChain.sol\":625:680  uint256[5] public levelPercentage = [40, 20, 15, 10, 5] */\n    tag_9:\n      tag_46\n      0x04\n      dup1\n      calldatasize\n      sub\n      dup2\n      add\n      swap1\n      tag_47\n      swap2\n      swap1\n      tag_34\n      jump\t// in\n    tag_47:\n      tag_48\n      jump\t// in\n    tag_46:\n      mload(0x40)\n      tag_49\n      swap2\n      swap1\n      tag_27\n      jump\t// in\n    tag_49:\n      mload(0x40)\n      dup1\n      swap2\n      sub\n      swap1\n      return\n        /* \"MLM/Multi-level MLM System/GrowChain.sol\":574:619  uint256 public REGISTRATION_FEE = 10 * 10**18 */\n    tag_10:\n      tag_50\n      tag_51\n      jump\t// in\n    tag_50:\n      mload(0x40)\n      tag_52\n      swap2\n      swap1\n      tag_27\n      jump\t// in\n    tag_52:\n      mload(0x40)\n      dup1\n      swap2\n      sub\n      swap1\n      return\n        /* \"MLM/Multi-level MLM System/GrowChain.sol\":5103:5290  function changeRegsiterationFee(uint256 _percentage) external onlybyAdmin {... */\n    tag_11:\n      tag_53\n      0x04\n      dup1\n      calldatasize\n      sub\n      dup2\n      add\n      swap1\n      tag_54\n      swap2\n      swap1\n      tag_34\n      jump\t// in\n    tag_54:\n      tag_55\n      jump\t// in\n    tag_53:\n      stop\n        /* \"MLM/Multi-level MLM System/GrowChain.sol\":551:568  bool public pause */\n    tag_12:\n      tag_56\n      tag_57\n      jump\t// in\n    tag_56:\n      mload(0x40)\n      tag_58\n      swap2\n      swap1\n      tag_59\n      jump\t// in\n    tag_58:\n      mload(0x40)\n      dup1\n      swap2\n      sub\n      swap1\n      return\n        /* \"MLM/Multi-level MLM System/GrowChain.sol\":502:519  IERC20 public GNT */\n    tag_13:\n      tag_60\n      tag_61\n      jump\t// in\n    tag_60:\n      mload(0x40)\n      tag_62\n      swap2\n      swap1\n      tag_63\n      jump\t// in\n    tag_62:\n      mload(0x40)\n      dup1\n      swap2\n      sub\n      swap1\n      return\n        /* \"MLM/Multi-level MLM System/GrowChain.sol\":6112:6228  function contractTokenBalance() external view returns (uint256) {... */\n    tag_14:\n      tag_64\n      tag_65\n      jump\t// in\n    tag_64:\n      mload(0x40)\n      tag_66\n      swap2\n      swap1\n      tag_27\n      jump\t// in\n    tag_66:\n      mload(0x40)\n      dup1\n      swap2\n      sub\n      swap1\n      return\n        /* \"MLM/Multi-level MLM System/GrowChain.sol\":1670:1707  mapping(address => User) public users */\n    tag_15:\n      tag_67\n      0x04\n      dup1\n      calldatasize\n      sub\n      dup2\n      add\n      swap1\n      tag_68\n      swap2\n      swap1\n      tag_30\n      jump\t// in\n    tag_68:\n      tag_69\n      jump\t// in\n    tag_67:\n      mload(0x40)\n      tag_70\n      swap8\n      swap7\n      swap6\n      swap5\n      swap4\n      swap3\n      swap2\n      swap1\n      tag_71\n      jump\t// in\n    tag_70:\n      mload(0x40)\n      dup1\n      swap2\n      sub\n      swap1\n      return\n        /* \"MLM/Multi-level MLM System/GrowChain.sol\":5370:5441  function unpaused() external onlybyAdmin {... */\n    tag_16:\n      tag_72\n      tag_73\n      jump\t// in\n    tag_72:\n      stop\n        /* \"MLM/Multi-level MLM System/GrowChain.sol\":4077:4711  function getUserDetails(address _user)... */\n    tag_17:\n      tag_74\n      0x04\n      dup1\n      calldatasize\n      sub\n      dup2\n      add\n      swap1\n      tag_75\n      swap2\n      swap1\n      tag_30\n      jump\t// in\n    tag_75:\n      tag_76\n      jump\t// in\n    tag_74:\n      mload(0x40)\n      tag_77\n      swap8\n      swap7\n      swap6\n      swap5\n      swap4\n      swap3\n      swap2\n      swap1\n      tag_78\n      jump\t// in\n    tag_77:\n      mload(0x40)\n      dup1\n      swap2\n      sub\n      swap1\n      return\n        /* \"MLM/Multi-level MLM System/GrowChain.sol\":4717:4881  function getDirectReferrals(address _user)... */\n    tag_18:\n      tag_79\n      0x04\n      dup1\n      calldatasize\n      sub\n      dup2\n      add\n      swap1\n      tag_80\n      swap2\n      swap1\n      tag_30\n      jump\t// in\n    tag_80:\n      tag_81\n      jump\t// in\n    tag_79:\n      mload(0x40)\n      tag_82\n      swap2\n      swap1\n      tag_40\n      jump\t// in\n    tag_82:\n      mload(0x40)\n      dup1\n      swap2\n      sub\n      swap1\n      return\n        /* \"MLM/Multi-level MLM System/GrowChain.sol\":5660:5877  function transferOwnership(address _newOwner) external onlybyAdmin {... */\n    tag_19:\n      tag_83\n      0x04\n      dup1\n      calldatasize\n      sub\n      dup2\n      add\n      swap1\n      tag_84\n      swap2\n      swap1\n      tag_30\n      jump\t// in\n    tag_84:\n      tag_85\n      jump\t// in\n    tag_83:\n      stop\n        /* \"MLM/Multi-level MLM System/GrowChain.sol\":525:545  address public admin */\n    tag_20:\n      tag_86\n      tag_87\n      jump\t// in\n    tag_86:\n      mload(0x40)\n      tag_88\n      swap2\n      swap1\n      tag_89\n      jump\t// in\n    tag_88:\n      mload(0x40)\n      dup1\n      swap2\n      sub\n      swap1\n      return\n        /* \"MLM/Multi-level MLM System/GrowChain.sol\":703:738  uint256 public maxReferralDepth = 5 */\n    tag_25:\n      sload(0x09)\n      dup2\n      jump\t// out\n        /* \"MLM/Multi-level MLM System/GrowChain.sol\":2182:3106  function registration(address _referrer)... */\n    tag_31:\n        /* \"MLM/Multi-level MLM System/GrowChain.sol\":2052:2057  pause */\n      0x02\n      0x14\n      swap1\n      sload\n      swap1\n      0x0100\n      exp\n      swap1\n      div\n      0xff\n      and\n        /* \"MLM/Multi-level MLM System/GrowChain.sol\":2051:2057  !pause */\n      iszero\n        /* \"MLM/Multi-level MLM System/GrowChain.sol\":2030:2158  require(... */\n      tag_91\n      jumpi\n      mload(0x40)\n      0x08c379a000000000000000000000000000000000000000000000000000000000\n      dup2\n      mstore\n      0x04\n      add\n      tag_92\n      swap1\n      tag_93\n      jump\t// in\n    tag_92:\n      mload(0x40)\n      dup1\n      swap2\n      sub\n      swap1\n      revert\n    tag_91:\n        /* \"@openzeppelin/contracts/security/ReentrancyGuard.sol\":2261:2282  _nonReentrantBefore() */\n      tag_95\n        /* \"@openzeppelin/contracts/security/ReentrancyGuard.sol\":2261:2280  _nonReentrantBefore */\n      tag_96\n        /* \"@openzeppelin/contracts/security/ReentrancyGuard.sol\":2261:2282  _nonReentrantBefore() */\n      jump\t// in\n    tag_95:\n        /* \"MLM/Multi-level MLM System/GrowChain.sol\":2326:2327  0 */\n      0x00\n        /* \"MLM/Multi-level MLM System/GrowChain.sol\":2305:2328  _referrer != address(0) */\n      0xffffffffffffffffffffffffffffffffffffffff\n      and\n        /* \"MLM/Multi-level MLM System/GrowChain.sol\":2305:2314  _referrer */\n      dup2\n        /* \"MLM/Multi-level MLM System/GrowChain.sol\":2305:2328  _referrer != address(0) */\n      0xffffffffffffffffffffffffffffffffffffffff\n      and\n      sub\n        /* \"MLM/Multi-level MLM System/GrowChain.sol\":2297:2357  require(_referrer != address(0), \"Invalid referrer address\") */\n      tag_98\n      jumpi\n      mload(0x40)\n      0x08c379a000000000000000000000000000000000000000000000000000000000\n      dup2\n      mstore\n      0x04\n      add\n      tag_99\n      swap1\n      tag_100\n      jump\t// in\n    tag_99:\n      mload(0x40)\n      dup1\n      swap2\n      sub\n      swap1\n      revert\n    tag_98:\n        /* \"MLM/Multi-level MLM System/GrowChain.sol\":2389:2394  users */\n      0x0a\n        /* \"MLM/Multi-level MLM System/GrowChain.sol\":2389:2405  users[_referrer] */\n      0x00\n        /* \"MLM/Multi-level MLM System/GrowChain.sol\":2395:2404  _referrer */\n      dup3\n        /* \"MLM/Multi-level MLM System/GrowChain.sol\":2389:2405  users[_referrer] */\n      0xffffffffffffffffffffffffffffffffffffffff\n      and\n      0xffffffffffffffffffffffffffffffffffffffff\n      and\n      dup2\n      mstore\n      0x20\n      add\n      swap1\n      dup2\n      mstore\n      0x20\n      add\n      0x00\n      keccak256\n        /* \"MLM/Multi-level MLM System/GrowChain.sol\":2389:2418  users[_referrer].isRegistered */\n      0x02\n      add\n      0x00\n      swap1\n      sload\n      swap1\n      0x0100\n      exp\n      swap1\n      div\n      0xff\n      and\n        /* \"MLM/Multi-level MLM System/GrowChain.sol\":2368:2484  require(... */\n      tag_101\n      jumpi\n      mload(0x40)\n      0x08c379a000000000000000000000000000000000000000000000000000000000\n      dup2\n      mstore\n      0x04\n      add\n      tag_102\n      swap1\n      tag_103\n      jump\t// in\n    tag_102:\n      mload(0x40)\n      dup1\n      swap2\n      sub\n      swap1\n      revert\n    tag_101:\n        /* \"MLM/Multi-level MLM System/GrowChain.sol\":2516:2526  msg.sender */\n      caller\n        /* \"MLM/Multi-level MLM System/GrowChain.sol\":2503:2526  _referrer != msg.sender */\n      0xffffffffffffffffffffffffffffffffffffffff\n      and\n        /* \"MLM/Multi-level MLM System/GrowChain.sol\":2503:2512  _referrer */\n      dup2\n        /* \"MLM/Multi-level MLM System/GrowChain.sol\":2503:2526  _referrer != msg.sender */\n      0xffffffffffffffffffffffffffffffffffffffff\n      and\n      sub\n        /* \"MLM/Multi-level MLM System/GrowChain.sol\":2495:2552  require(_referrer != msg.sender, \"Cannot refer yourself\") */\n      tag_104\n      jumpi\n      mload(0x40)\n      0x08c379a000000000000000000000000000000000000000000000000000000000\n      dup2\n      mstore\n      0x04\n      add\n      tag_105\n      swap1\n      tag_106\n      jump\t// in\n    tag_105:\n      mload(0x40)\n      dup1\n      swap2\n      sub\n      swap1\n      revert\n    tag_104:\n        /* \"MLM/Multi-level MLM System/GrowChain.sol\":2585:2590  users */\n      0x0a\n        /* \"MLM/Multi-level MLM System/GrowChain.sol\":2585:2602  users[msg.sender] */\n      0x00\n        /* \"MLM/Multi-level MLM System/GrowChain.sol\":2591:2601  msg.sender */\n      caller\n        /* \"MLM/Multi-level MLM System/GrowChain.sol\":2585:2602  users[msg.sender] */\n      0xffffffffffffffffffffffffffffffffffffffff\n      and\n      0xffffffffffffffffffffffffffffffffffffffff\n      and\n      dup2\n      mstore\n      0x20\n      add\n      swap1\n      dup2\n      mstore\n      0x20\n      add\n      0x00\n      keccak256\n        /* \"MLM/Multi-level MLM System/GrowChain.sol\":2585:2615  users[msg.sender].isRegistered */\n      0x02\n      add\n      0x00\n      swap1\n      sload\n      swap1\n      0x0100\n      exp\n      swap1\n      div\n      0xff\n      and\n        /* \"MLM/Multi-level MLM System/GrowChain.sol\":2584:2615  !users[msg.sender].isRegistered */\n      iszero\n        /* \"MLM/Multi-level MLM System/GrowChain.sol\":2563:2676  require(... */\n      tag_107\n      jumpi\n      mload(0x40)\n      0x08c379a000000000000000000000000000000000000000000000000000000000\n      dup2\n      mstore\n      0x04\n      add\n      tag_108\n      swap1\n      tag_109\n      jump\t// in\n    tag_108:\n      mload(0x40)\n      dup1\n      swap2\n      sub\n      swap1\n      revert\n    tag_107:\n        /* \"MLM/Multi-level MLM System/GrowChain.sol\":2708:2711  GNT */\n      0x01\n      0x00\n      swap1\n      sload\n      swap1\n      0x0100\n      exp\n      swap1\n      div\n      0xffffffffffffffffffffffffffffffffffffffff\n      and\n        /* \"MLM/Multi-level MLM System/GrowChain.sol\":2708:2724  GNT.transferFrom */\n      0xffffffffffffffffffffffffffffffffffffffff\n      and\n      0x23b872dd\n        /* \"MLM/Multi-level MLM System/GrowChain.sol\":2725:2735  msg.sender */\n      caller\n        /* \"MLM/Multi-level MLM System/GrowChain.sol\":2745:2749  this */\n      address\n        /* \"MLM/Multi-level MLM System/GrowChain.sol\":2752:2768  REGISTRATION_FEE */\n      sload(0x03)\n        /* \"MLM/Multi-level MLM System/GrowChain.sol\":2708:2769  GNT.transferFrom(msg.sender, address(this), REGISTRATION_FEE) */\n      mload(0x40)\n      dup5\n      0xffffffff\n      and\n      0xe0\n      shl\n      dup2\n      mstore\n      0x04\n      add\n      tag_110\n      swap4\n      swap3\n      swap2\n      swap1\n      tag_111\n      jump\t// in\n    tag_110:\n      0x20\n      mload(0x40)\n      dup1\n      dup4\n      sub\n      dup2\n      0x00\n      dup8\n      gas\n      call\n      iszero\n      dup1\n      iszero\n      tag_113\n      jumpi\n      returndatasize\n      0x00\n      dup1\n      returndatacopy\n      revert(0x00, returndatasize)\n    tag_113:\n      pop\n      pop\n      pop\n      pop\n      mload(0x40)\n      returndatasize\n      not(0x1f)\n      0x1f\n      dup3\n      add\n      and\n      dup3\n      add\n      dup1\n      0x40\n      mstore\n      pop\n      dup2\n      add\n      swap1\n      tag_114\n      swap2\n      swap1\n      tag_115\n      jump\t// in\n    tag_114:\n        /* \"MLM/Multi-level MLM System/GrowChain.sol\":2687:2810  require(... */\n      tag_116\n      jumpi\n      mload(0x40)\n      0x08c379a000000000000000000000000000000000000000000000000000000000\n      dup2\n      mstore\n      0x04\n      add\n      tag_117\n      swap1\n      tag_118\n      jump\t// in\n    tag_117:\n      mload(0x40)\n      dup1\n      swap2\n      sub\n      swap1\n      revert\n    tag_116:\n        /* \"MLM/Multi-level MLM System/GrowChain.sol\":2821:2841  User storage newUser */\n      0x00\n        /* \"MLM/Multi-level MLM System/GrowChain.sol\":2844:2849  users */\n      0x0a\n        /* \"MLM/Multi-level MLM System/GrowChain.sol\":2844:2861  users[msg.sender] */\n      0x00\n        /* \"MLM/Multi-level MLM System/GrowChain.sol\":2850:2860  msg.sender */\n      caller\n        /* \"MLM/Multi-level MLM System/GrowChain.sol\":2844:2861  users[msg.sender] */\n      0xffffffffffffffffffffffffffffffffffffffff\n      and\n      0xffffffffffffffffffffffffffffffffffffffff\n      and\n      dup2\n      mstore\n      0x20\n      add\n      swap1\n      dup2\n      mstore\n      0x20\n      add\n      0x00\n      keccak256\n        /* \"MLM/Multi-level MLM System/GrowChain.sol\":2821:2861  User storage newUser = users[msg.sender] */\n      swap1\n      pop\n        /* \"MLM/Multi-level MLM System/GrowChain.sol\":2890:2899  _referrer */\n      dup2\n        /* \"MLM/Multi-level MLM System/GrowChain.sol\":2871:2878  newUser */\n      dup2\n        /* \"MLM/Multi-level MLM System/GrowChain.sol\":2871:2887  newUser.referrer */\n      0x00\n      add\n      0x00\n        /* \"MLM/Multi-level MLM System/GrowChain.sol\":2871:2899  newUser.referrer = _referrer */\n      0x0100\n      exp\n      dup2\n      sload\n      dup2\n      0xffffffffffffffffffffffffffffffffffffffff\n      mul\n      not\n      and\n      swap1\n      dup4\n      0xffffffffffffffffffffffffffffffffffffffff\n      and\n      mul\n      or\n      swap1\n      sstore\n      pop\n        /* \"MLM/Multi-level MLM System/GrowChain.sol\":2932:2936  true */\n      0x01\n        /* \"MLM/Multi-level MLM System/GrowChain.sol\":2909:2916  newUser */\n      dup2\n        /* \"MLM/Multi-level MLM System/GrowChain.sol\":2909:2929  newUser.isRegistered */\n      0x02\n      add\n      0x00\n        /* \"MLM/Multi-level MLM System/GrowChain.sol\":2909:2936  newUser.isRegistered = true */\n      0x0100\n      exp\n      dup2\n      sload\n      dup2\n      0xff\n      mul\n      not\n      and\n      swap1\n      dup4\n      iszero\n      iszero\n      mul\n      or\n      swap1\n      sstore\n      pop\n        /* \"MLM/Multi-level MLM System/GrowChain.sol\":2973:2988  block.timestamp */\n      timestamp\n        /* \"MLM/Multi-level MLM System/GrowChain.sol\":2946:2953  newUser */\n      dup2\n        /* \"MLM/Multi-level MLM System/GrowChain.sol\":2946:2970  newUser.registrationTime */\n      0x04\n      add\n        /* \"MLM/Multi-level MLM System/GrowChain.sol\":2946:2988  newUser.registrationTime = block.timestamp */\n      dup2\n      swap1\n      sstore\n      pop\n        /* \"MLM/Multi-level MLM System/GrowChain.sol\":3026:3035  _referrer */\n      dup2\n        /* \"MLM/Multi-level MLM System/GrowChain.sol\":3003:3053  Registered(msg.sender, _referrer, block.timestamp) */\n      0xffffffffffffffffffffffffffffffffffffffff\n      and\n        /* \"MLM/Multi-level MLM System/GrowChain.sol\":3014:3024  msg.sender */\n      caller\n        /* \"MLM/Multi-level MLM System/GrowChain.sol\":3003:3053  Registered(msg.sender, _referrer, block.timestamp) */\n      0xffffffffffffffffffffffffffffffffffffffff\n      and\n      0x199098452639b249bef6f727bc09ce903cece47ca72a8518bef9367ad39b6de7\n        /* \"MLM/Multi-level MLM System/GrowChain.sol\":3037:3052  block.timestamp */\n      timestamp\n        /* \"MLM/Multi-level MLM System/GrowChain.sol\":3003:3053  Registered(msg.sender, _referrer, block.timestamp) */\n      mload(0x40)\n      tag_119\n      swap2\n      swap1\n      tag_27\n      jump\t// in\n    tag_119:\n      mload(0x40)\n      dup1\n      swap2\n      sub\n      swap1\n      log3\n        /* \"MLM/Multi-level MLM System/GrowChain.sol\":3064:3099  distributeReferralIncome(_referrer) */\n      tag_120\n        /* \"MLM/Multi-level MLM System/GrowChain.sol\":3089:3098  _referrer */\n      dup3\n        /* \"MLM/Multi-level MLM System/GrowChain.sol\":3064:3088  distributeReferralIncome */\n      tag_121\n        /* \"MLM/Multi-level MLM System/GrowChain.sol\":3064:3099  distributeReferralIncome(_referrer) */\n      jump\t// in\n    tag_120:\n        /* \"MLM/Multi-level MLM System/GrowChain.sol\":2287:3106  {... */\n      pop\n        /* \"@openzeppelin/contracts/security/ReentrancyGuard.sol\":2303:2323  _nonReentrantAfter() */\n      tag_122\n        /* \"@openzeppelin/contracts/security/ReentrancyGuard.sol\":2303:2321  _nonReentrantAfter */\n      tag_123\n        /* \"@openzeppelin/contracts/security/ReentrancyGuard.sol\":2303:2323  _nonReentrantAfter() */\n      jump\t// in\n    tag_122:\n        /* \"MLM/Multi-level MLM System/GrowChain.sol\":2182:3106  function registration(address _referrer)... */\n      pop\n      jump\t// out\n        /* \"MLM/Multi-level MLM System/GrowChain.sol\":5478:5628  function withdraw(uint256 amount) external nonReentrant onlybyAdmin {... */\n    tag_35:\n        /* \"@openzeppelin/contracts/security/ReentrancyGuard.sol\":2261:2282  _nonReentrantBefore() */\n      tag_125\n        /* \"@openzeppelin/contracts/security/ReentrancyGuard.sol\":2261:2280  _nonReentrantBefore */\n      tag_96\n        /* \"@openzeppelin/contracts/security/ReentrancyGuard.sol\":2261:2282  _nonReentrantBefore() */\n      jump\t// in\n    tag_125:\n        /* \"MLM/Multi-level MLM System/GrowChain.sol\":1891:1896  admin */\n      0x02\n      0x00\n      swap1\n      sload\n      swap1\n      0x0100\n      exp\n      swap1\n      div\n      0xffffffffffffffffffffffffffffffffffffffff\n      and\n        /* \"MLM/Multi-level MLM System/GrowChain.sol\":1877:1896  msg.sender == admin */\n      0xffffffffffffffffffffffffffffffffffffffff\n      and\n        /* \"MLM/Multi-level MLM System/GrowChain.sol\":1877:1887  msg.sender */\n      caller\n        /* \"MLM/Multi-level MLM System/GrowChain.sol\":1877:1896  msg.sender == admin */\n      0xffffffffffffffffffffffffffffffffffffffff\n      and\n      eq\n        /* \"MLM/Multi-level MLM System/GrowChain.sol\":1856:1972  require(... */\n      tag_127\n      jumpi\n      mload(0x40)\n      0x08c379a000000000000000000000000000000000000000000000000000000000\n      dup2\n      mstore\n      0x04\n      add\n      tag_128\n      swap1\n      tag_129\n      jump\t// in\n    tag_128:\n      mload(0x40)\n      dup1\n      swap2\n      sub\n      swap1\n      revert\n    tag_127:\n        /* \"MLM/Multi-level MLM System/GrowChain.sol\":5556:5559  GNT */\n      0x01\n      0x00\n      swap1\n      sload\n      swap1\n      0x0100\n      exp\n      swap1\n      div\n      0xffffffffffffffffffffffffffffffffffffffff\n      and\n        /* \"MLM/Multi-level MLM System/GrowChain.sol\":5556:5568  GNT.transfer */\n      0xffffffffffffffffffffffffffffffffffffffff\n      and\n      0xa9059cbb\n        /* \"MLM/Multi-level MLM System/GrowChain.sol\":5569:5574  admin */\n      0x02\n      0x00\n      swap1\n      sload\n      swap1\n      0x0100\n      exp\n      swap1\n      div\n      0xffffffffffffffffffffffffffffffffffffffff\n      and\n        /* \"MLM/Multi-level MLM System/GrowChain.sol\":5576:5582  amount */\n      dup4\n        /* \"MLM/Multi-level MLM System/GrowChain.sol\":5556:5583  GNT.transfer(admin, amount) */\n      mload(0x40)\n      dup4\n      0xffffffff\n      and\n      0xe0\n      shl\n      dup2\n      mstore\n      0x04\n      add\n      tag_131\n      swap3\n      swap2\n      swap1\n      tag_132\n      jump\t// in\n    tag_131:\n      0x20\n      mload(0x40)\n      dup1\n      dup4\n      sub\n      dup2\n      0x00\n      dup8\n      gas\n      call\n      iszero\n      dup1\n      iszero\n      tag_134\n      jumpi\n      returndatasize\n      0x00\n      dup1\n      returndatacopy\n      revert(0x00, returndatasize)\n    tag_134:\n      pop\n      pop\n      pop\n      pop\n      mload(0x40)\n      returndatasize\n      not(0x1f)\n      0x1f\n      dup3\n      add\n      and\n      dup3\n      add\n      dup1\n      0x40\n      mstore\n      pop\n      dup2\n      add\n      swap1\n      tag_135\n      swap2\n      swap1\n      tag_115\n      jump\t// in\n    tag_135:\n      pop\n        /* \"MLM/Multi-level MLM System/GrowChain.sol\":5607:5612  admin */\n      0x02\n      0x00\n      swap1\n      sload\n      swap1\n      0x0100\n      exp\n      swap1\n      div\n      0xffffffffffffffffffffffffffffffffffffffff\n      and\n        /* \"MLM/Multi-level MLM System/GrowChain.sol\":5598:5621  Withdraw(admin, amount) */\n      0xffffffffffffffffffffffffffffffffffffffff\n      and\n      0x884edad9ce6fa2440d8a54cc123490eb96d2768479d49ff9c7366125a9424364\n        /* \"MLM/Multi-level MLM System/GrowChain.sol\":5614:5620  amount */\n      dup3\n        /* \"MLM/Multi-level MLM System/GrowChain.sol\":5598:5621  Withdraw(admin, amount) */\n      mload(0x40)\n      tag_136\n      swap2\n      swap1\n      tag_27\n      jump\t// in\n    tag_136:\n      mload(0x40)\n      dup1\n      swap2\n      sub\n      swap1\n      log2\n        /* \"@openzeppelin/contracts/security/ReentrancyGuard.sol\":2303:2323  _nonReentrantAfter() */\n      tag_137\n        /* \"@openzeppelin/contracts/security/ReentrancyGuard.sol\":2303:2321  _nonReentrantAfter */\n      tag_123\n        /* \"@openzeppelin/contracts/security/ReentrancyGuard.sol\":2303:2323  _nonReentrantAfter() */\n      jump\t// in\n    tag_137:\n        /* \"MLM/Multi-level MLM System/GrowChain.sol\":5478:5628  function withdraw(uint256 amount) external nonReentrant onlybyAdmin {... */\n      pop\n      jump\t// out\n        /* \"MLM/Multi-level MLM System/GrowChain.sol\":4887:5055  function getIndirectReferrals(address _user)... */\n    tag_38:\n        /* \"MLM/Multi-level MLM System/GrowChain.sol\":4979:4995  address[] memory */\n      0x60\n        /* \"MLM/Multi-level MLM System/GrowChain.sol\":5018:5023  users */\n      0x0a\n        /* \"MLM/Multi-level MLM System/GrowChain.sol\":5018:5030  users[_user] */\n      0x00\n        /* \"MLM/Multi-level MLM System/GrowChain.sol\":5024:5029  _user */\n      dup4\n        /* \"MLM/Multi-level MLM System/GrowChain.sol\":5018:5030  users[_user] */\n      0xffffffffffffffffffffffffffffffffffffffff\n      and\n      0xffffffffffffffffffffffffffffffffffffffff\n      and\n      dup2\n      mstore\n      0x20\n      add\n      swap1\n      dup2\n      mstore\n      0x20\n      add\n      0x00\n      keccak256\n        /* \"MLM/Multi-level MLM System/GrowChain.sol\":5018:5048  users[_user].indirectReferrals */\n      0x08\n      add\n        /* \"MLM/Multi-level MLM System/GrowChain.sol\":5011:5048  return users[_user].indirectReferrals */\n      dup1\n      sload\n      dup1\n      0x20\n      mul\n      0x20\n      add\n      mload(0x40)\n      swap1\n      dup2\n      add\n      0x40\n      mstore\n      dup1\n      swap3\n      swap2\n      swap1\n      dup2\n      dup2\n      mstore\n      0x20\n      add\n      dup3\n      dup1\n      sload\n      dup1\n      iszero\n      tag_139\n      jumpi\n      0x20\n      mul\n      dup3\n      add\n      swap2\n      swap1\n      0x00\n      mstore\n      keccak256(0x00, 0x20)\n      swap1\n    tag_140:\n      dup2\n      0x00\n      swap1\n      sload\n      swap1\n      0x0100\n      exp\n      swap1\n      div\n      0xffffffffffffffffffffffffffffffffffffffff\n      and\n      0xffffffffffffffffffffffffffffffffffffffff\n      and\n      dup2\n      mstore\n      0x20\n      add\n      swap1\n      0x01\n      add\n      swap1\n      dup1\n      dup4\n      gt\n      tag_140\n      jumpi\n    tag_139:\n      pop\n      pop\n      pop\n      pop\n      pop\n      swap1\n      pop\n        /* \"MLM/Multi-level MLM System/GrowChain.sol\":4887:5055  function getIndirectReferrals(address _user)... */\n      swap2\n      swap1\n      pop\n      jump\t// out\n        /* \"MLM/Multi-level MLM System/GrowChain.sol\":5948:6106  function updateLLTAddress(address _token) external onlybyAdmin {... */\n    tag_43:\n        /* \"MLM/Multi-level MLM System/GrowChain.sol\":1891:1896  admin */\n      0x02\n      0x00\n      swap1\n      sload\n      swap1\n      0x0100\n      exp\n      swap1\n      div\n      0xffffffffffffffffffffffffffffffffffffffff\n      and\n        /* \"MLM/Multi-level MLM System/GrowChain.sol\":1877:1896  msg.sender == admin */\n      0xffffffffffffffffffffffffffffffffffffffff\n      and\n        /* \"MLM/Multi-level MLM System/GrowChain.sol\":1877:1887  msg.sender */\n      caller\n        /* \"MLM/Multi-level MLM System/GrowChain.sol\":1877:1896  msg.sender == admin */\n      0xffffffffffffffffffffffffffffffffffffffff\n      and\n      eq\n        /* \"MLM/Multi-level MLM System/GrowChain.sol\":1856:1972  require(... */\n      tag_142\n      jumpi\n      mload(0x40)\n      0x08c379a000000000000000000000000000000000000000000000000000000000\n      dup2\n      mstore\n      0x04\n      add\n      tag_143\n      swap1\n      tag_129\n      jump\t// in\n    tag_143:\n      mload(0x40)\n      dup1\n      swap2\n      sub\n      swap1\n      revert\n    tag_142:\n        /* \"MLM/Multi-level MLM System/GrowChain.sol\":6047:6048  0 */\n      0x00\n        /* \"MLM/Multi-level MLM System/GrowChain.sol\":6029:6049  _token != address(0) */\n      0xffffffffffffffffffffffffffffffffffffffff\n      and\n        /* \"MLM/Multi-level MLM System/GrowChain.sol\":6029:6035  _token */\n      dup2\n        /* \"MLM/Multi-level MLM System/GrowChain.sol\":6029:6049  _token != address(0) */\n      0xffffffffffffffffffffffffffffffffffffffff\n      and\n      sub\n        /* \"MLM/Multi-level MLM System/GrowChain.sol\":6021:6069  require(_token != address(0), \"invalid new bst\") */\n      tag_145\n      jumpi\n      mload(0x40)\n      0x08c379a000000000000000000000000000000000000000000000000000000000\n      dup2\n      mstore\n      0x04\n      add\n      tag_146\n      swap1\n      tag_147\n      jump\t// in\n    tag_146:\n      mload(0x40)\n      dup1\n      swap2\n      sub\n      swap1\n      revert\n    tag_145:\n        /* \"MLM/Multi-level MLM System/GrowChain.sol\":6092:6098  _token */\n      dup1\n        /* \"MLM/Multi-level MLM System/GrowChain.sol\":6079:6082  GNT */\n      0x01\n      0x00\n        /* \"MLM/Multi-level MLM System/GrowChain.sol\":6079:6099  GNT = IERC20(_token) */\n      0x0100\n      exp\n      dup2\n      sload\n      dup2\n      0xffffffffffffffffffffffffffffffffffffffff\n      mul\n      not\n      and\n      swap1\n      dup4\n      0xffffffffffffffffffffffffffffffffffffffff\n      and\n      mul\n      or\n      swap1\n      sstore\n      pop\n        /* \"MLM/Multi-level MLM System/GrowChain.sol\":5948:6106  function updateLLTAddress(address _token) external onlybyAdmin {... */\n      pop\n      jump\t// out\n        /* \"MLM/Multi-level MLM System/GrowChain.sol\":5296:5364  function paused() external onlybyAdmin {... */\n    tag_45:\n        /* \"MLM/Multi-level MLM System/GrowChain.sol\":1891:1896  admin */\n      0x02\n      0x00\n      swap1\n      sload\n      swap1\n      0x0100\n      exp\n      swap1\n      div\n      0xffffffffffffffffffffffffffffffffffffffff\n      and\n        /* \"MLM/Multi-level MLM System/GrowChain.sol\":1877:1896  msg.sender == admin */\n      0xffffffffffffffffffffffffffffffffffffffff\n      and\n        /* \"MLM/Multi-level MLM System/GrowChain.sol\":1877:1887  msg.sender */\n      caller\n        /* \"MLM/Multi-level MLM System/GrowChain.sol\":1877:1896  msg.sender == admin */\n      0xffffffffffffffffffffffffffffffffffffffff\n      and\n      eq\n        /* \"MLM/Multi-level MLM System/GrowChain.sol\":1856:1972  require(... */\n      tag_149\n      jumpi\n      mload(0x40)\n      0x08c379a000000000000000000000000000000000000000000000000000000000\n      dup2\n      mstore\n      0x04\n      add\n      tag_150\n      swap1\n      tag_129\n      jump\t// in\n    tag_150:\n      mload(0x40)\n      dup1\n      swap2\n      sub\n      swap1\n      revert\n    tag_149:\n        /* \"MLM/Multi-level MLM System/GrowChain.sol\":5353:5357  true */\n      0x01\n        /* \"MLM/Multi-level MLM System/GrowChain.sol\":5345:5350  pause */\n      0x02\n      0x14\n        /* \"MLM/Multi-level MLM System/GrowChain.sol\":5345:5357  pause = true */\n      0x0100\n      exp\n      dup2\n      sload\n      dup2\n      0xff\n      mul\n      not\n      and\n      swap1\n      dup4\n      iszero\n      iszero\n      mul\n      or\n      swap1\n      sstore\n      pop\n        /* \"MLM/Multi-level MLM System/GrowChain.sol\":5296:5364  function paused() external onlybyAdmin {... */\n      jump\t// out\n        /* \"MLM/Multi-level MLM System/GrowChain.sol\":625:680  uint256[5] public levelPercentage = [40, 20, 15, 10, 5] */\n    tag_48:\n      0x04\n      dup2\n      0x05\n      dup2\n      lt\n      tag_152\n      jumpi\n      0x00\n      dup1\n      revert\n    tag_152:\n      add\n      0x00\n      swap2\n      pop\n      swap1\n      pop\n      sload\n      dup2\n      jump\t// out\n        /* \"MLM/Multi-level MLM System/GrowChain.sol\":574:619  uint256 public REGISTRATION_FEE = 10 * 10**18 */\n    tag_51:\n      sload(0x03)\n      dup2\n      jump\t// out\n        /* \"MLM/Multi-level MLM System/GrowChain.sol\":5103:5290  function changeRegsiterationFee(uint256 _percentage) external onlybyAdmin {... */\n    tag_55:\n        /* \"MLM/Multi-level MLM System/GrowChain.sol\":1891:1896  admin */\n      0x02\n      0x00\n      swap1\n      sload\n      swap1\n      0x0100\n      exp\n      swap1\n      div\n      0xffffffffffffffffffffffffffffffffffffffff\n      and\n        /* \"MLM/Multi-level MLM System/GrowChain.sol\":1877:1896  msg.sender == admin */\n      0xffffffffffffffffffffffffffffffffffffffff\n      and\n        /* \"MLM/Multi-level MLM System/GrowChain.sol\":1877:1887  msg.sender */\n      caller\n        /* \"MLM/Multi-level MLM System/GrowChain.sol\":1877:1896  msg.sender == admin */\n      0xffffffffffffffffffffffffffffffffffffffff\n      and\n      eq\n        /* \"MLM/Multi-level MLM System/GrowChain.sol\":1856:1972  require(... */\n      tag_155\n      jumpi\n      mload(0x40)\n      0x08c379a000000000000000000000000000000000000000000000000000000000\n      dup2\n      mstore\n      0x04\n      add\n      tag_156\n      swap1\n      tag_129\n      jump\t// in\n    tag_156:\n      mload(0x40)\n      dup1\n      swap2\n      sub\n      swap1\n      revert\n    tag_155:\n        /* \"MLM/Multi-level MLM System/GrowChain.sol\":5209:5211  99 */\n      0x63\n        /* \"MLM/Multi-level MLM System/GrowChain.sol\":5195:5206  _percentage */\n      dup2\n        /* \"MLM/Multi-level MLM System/GrowChain.sol\":5195:5211  _percentage < 99 */\n      lt\n        /* \"MLM/Multi-level MLM System/GrowChain.sol\":5187:5234  require(_percentage < 99, \"invalid percentage\") */\n      tag_158\n      jumpi\n      mload(0x40)\n      0x08c379a000000000000000000000000000000000000000000000000000000000\n      dup2\n      mstore\n      0x04\n      add\n      tag_159\n      swap1\n      tag_160\n      jump\t// in\n    tag_159:\n      mload(0x40)\n      dup1\n      swap2\n      sub\n      swap1\n      revert\n    tag_158:\n        /* \"MLM/Multi-level MLM System/GrowChain.sol\":5277:5283  10**18 */\n      0x0de0b6b3a7640000\n        /* \"MLM/Multi-level MLM System/GrowChain.sol\":5263:5274  _percentage */\n      dup2\n        /* \"MLM/Multi-level MLM System/GrowChain.sol\":5263:5283  _percentage * 10**18 */\n      tag_161\n      swap2\n      swap1\n      tag_162\n      jump\t// in\n    tag_161:\n        /* \"MLM/Multi-level MLM System/GrowChain.sol\":5244:5260  REGISTRATION_FEE */\n      0x03\n        /* \"MLM/Multi-level MLM System/GrowChain.sol\":5244:5283  REGISTRATION_FEE = _percentage * 10**18 */\n      dup2\n      swap1\n      sstore\n      pop\n        /* \"MLM/Multi-level MLM System/GrowChain.sol\":5103:5290  function changeRegsiterationFee(uint256 _percentage) external onlybyAdmin {... */\n      pop\n      jump\t// out\n        /* \"MLM/Multi-level MLM System/GrowChain.sol\":551:568  bool public pause */\n    tag_57:\n      0x02\n      0x14\n      swap1\n      sload\n      swap1\n      0x0100\n      exp\n      swap1\n      div\n      0xff\n      and\n      dup2\n      jump\t// out\n        /* \"MLM/Multi-level MLM System/GrowChain.sol\":502:519  IERC20 public GNT */\n    tag_61:\n      0x01\n      0x00\n      swap1\n      sload\n      swap1\n      0x0100\n      exp\n      swap1\n      div\n      0xffffffffffffffffffffffffffffffffffffffff\n      and\n      dup2\n      jump\t// out\n        /* \"MLM/Multi-level MLM System/GrowChain.sol\":6112:6228  function contractTokenBalance() external view returns (uint256) {... */\n    tag_65:\n        /* \"MLM/Multi-level MLM System/GrowChain.sol\":6167:6174  uint256 */\n      0x00\n        /* \"MLM/Multi-level MLM System/GrowChain.sol\":6193:6196  GNT */\n      0x01\n      0x00\n      swap1\n      sload\n      swap1\n      0x0100\n      exp\n      swap1\n      div\n      0xffffffffffffffffffffffffffffffffffffffff\n      and\n        /* \"MLM/Multi-level MLM System/GrowChain.sol\":6193:6206  GNT.balanceOf */\n      0xffffffffffffffffffffffffffffffffffffffff\n      and\n      0x70a08231\n        /* \"MLM/Multi-level MLM System/GrowChain.sol\":6215:6219  this */\n      address\n        /* \"MLM/Multi-level MLM System/GrowChain.sol\":6193:6221  GNT.balanceOf(address(this)) */\n      mload(0x40)\n      dup3\n      0xffffffff\n      and\n      0xe0\n      shl\n      dup2\n      mstore\n      0x04\n      add\n      tag_164\n      swap2\n      swap1\n      tag_89\n      jump\t// in\n    tag_164:\n      0x20\n      mload(0x40)\n      dup1\n      dup4\n      sub\n      dup2\n      dup7\n      gas\n      staticcall\n      iszero\n      dup1\n      iszero\n      tag_166\n      jumpi\n      returndatasize\n      0x00\n      dup1\n      returndatacopy\n      revert(0x00, returndatasize)\n    tag_166:\n      pop\n      pop\n      pop\n      pop\n      mload(0x40)\n      returndatasize\n      not(0x1f)\n      0x1f\n      dup3\n      add\n      and\n      dup3\n      add\n      dup1\n      0x40\n      mstore\n      pop\n      dup2\n      add\n      swap1\n      tag_167\n      swap2\n      swap1\n      tag_168\n      jump\t// in\n    tag_167:\n        /* \"MLM/Multi-level MLM System/GrowChain.sol\":6186:6221  return GNT.balanceOf(address(this)) */\n      swap1\n      pop\n        /* \"MLM/Multi-level MLM System/GrowChain.sol\":6112:6228  function contractTokenBalance() external view returns (uint256) {... */\n      swap1\n      jump\t// out\n        /* \"MLM/Multi-level MLM System/GrowChain.sol\":1670:1707  mapping(address => User) public users */\n    tag_69:\n      mstore(0x20, 0x0a)\n      dup1\n      0x00\n      mstore\n      keccak256(0x00, 0x40)\n      0x00\n      swap2\n      pop\n      swap1\n      pop\n      dup1\n      0x00\n      add\n      0x00\n      swap1\n      sload\n      swap1\n      0x0100\n      exp\n      swap1\n      div\n      0xffffffffffffffffffffffffffffffffffffffff\n      and\n      swap1\n      dup1\n      0x01\n      add\n      sload\n      swap1\n      dup1\n      0x02\n      add\n      0x00\n      swap1\n      sload\n      swap1\n      0x0100\n      exp\n      swap1\n      div\n      0xff\n      and\n      swap1\n      dup1\n      0x03\n      add\n      sload\n      swap1\n      dup1\n      0x04\n      add\n      sload\n      swap1\n      dup1\n      0x06\n      add\n      sload\n      swap1\n      dup1\n      0x07\n      add\n      sload\n      swap1\n      pop\n      dup8\n      jump\t// out\n        /* \"MLM/Multi-level MLM System/GrowChain.sol\":5370:5441  function unpaused() external onlybyAdmin {... */\n    tag_73:\n        /* \"MLM/Multi-level MLM System/GrowChain.sol\":1891:1896  admin */\n      0x02\n      0x00\n      swap1\n      sload\n      swap1\n      0x0100\n      exp\n      swap1\n      div\n      0xffffffffffffffffffffffffffffffffffffffff\n      and\n        /* \"MLM/Multi-level MLM System/GrowChain.sol\":1877:1896  msg.sender == admin */\n      0xffffffffffffffffffffffffffffffffffffffff\n      and\n        /* \"MLM/Multi-level MLM System/GrowChain.sol\":1877:1887  msg.sender */\n      caller\n        /* \"MLM/Multi-level MLM System/GrowChain.sol\":1877:1896  msg.sender == admin */\n      0xffffffffffffffffffffffffffffffffffffffff\n      and\n      eq\n        /* \"MLM/Multi-level MLM System/GrowChain.sol\":1856:1972  require(... */\n      tag_170\n      jumpi\n      mload(0x40)\n      0x08c379a000000000000000000000000000000000000000000000000000000000\n      dup2\n      mstore\n      0x04\n      add\n      tag_171\n      swap1\n      tag_129\n      jump\t// in\n    tag_171:\n      mload(0x40)\n      dup1\n      swap2\n      sub\n      swap1\n      revert\n    tag_170:\n        /* \"MLM/Multi-level MLM System/GrowChain.sol\":5429:5434  false */\n      0x00\n        /* \"MLM/Multi-level MLM System/GrowChain.sol\":5421:5426  pause */\n      0x02\n      0x14\n        /* \"MLM/Multi-level MLM System/GrowChain.sol\":5421:5434  pause = false */\n      0x0100\n      exp\n      dup2\n      sload\n      dup2\n      0xff\n      mul\n      not\n      and\n      swap1\n      dup4\n      iszero\n      iszero\n      mul\n      or\n      swap1\n      sstore\n      pop\n        /* \"MLM/Multi-level MLM System/GrowChain.sol\":5370:5441  function unpaused() external onlybyAdmin {... */\n      jump\t// out\n        /* \"MLM/Multi-level MLM System/GrowChain.sol\":4077:4711  function getUserDetails(address _user)... */\n    tag_76:\n        /* \"MLM/Multi-level MLM System/GrowChain.sol\":4176:4192  address referrer */\n      0x00\n        /* \"MLM/Multi-level MLM System/GrowChain.sol\":4206:4234  uint256 directReferralIncome */\n      dup1\n        /* \"MLM/Multi-level MLM System/GrowChain.sol\":4248:4269  uint256 referralCount */\n      0x00\n        /* \"MLM/Multi-level MLM System/GrowChain.sol\":4283:4301  uint256 teamIncome */\n      dup1\n        /* \"MLM/Multi-level MLM System/GrowChain.sol\":4315:4331  uint256 teamSize */\n      0x00\n        /* \"MLM/Multi-level MLM System/GrowChain.sol\":4345:4362  bool isRegistered */\n      dup1\n        /* \"MLM/Multi-level MLM System/GrowChain.sol\":4376:4400  uint256 registrationTime */\n      0x00\n        /* \"MLM/Multi-level MLM System/GrowChain.sol\":4425:4442  User storage user */\n      dup1\n        /* \"MLM/Multi-level MLM System/GrowChain.sol\":4445:4450  users */\n      0x0a\n        /* \"MLM/Multi-level MLM System/GrowChain.sol\":4445:4457  users[_user] */\n      0x00\n        /* \"MLM/Multi-level MLM System/GrowChain.sol\":4451:4456  _user */\n      dup11\n        /* \"MLM/Multi-level MLM System/GrowChain.sol\":4445:4457  users[_user] */\n      0xffffffffffffffffffffffffffffffffffffffff\n      and\n      0xffffffffffffffffffffffffffffffffffffffff\n      and\n      dup2\n      mstore\n      0x20\n      add\n      swap1\n      dup2\n      mstore\n      0x20\n      add\n      0x00\n      keccak256\n        /* \"MLM/Multi-level MLM System/GrowChain.sol\":4425:4457  User storage user = users[_user] */\n      swap1\n      pop\n        /* \"MLM/Multi-level MLM System/GrowChain.sol\":4488:4492  user */\n      dup1\n        /* \"MLM/Multi-level MLM System/GrowChain.sol\":4488:4501  user.referrer */\n      0x00\n      add\n      0x00\n      swap1\n      sload\n      swap1\n      0x0100\n      exp\n      swap1\n      div\n      0xffffffffffffffffffffffffffffffffffffffff\n      and\n        /* \"MLM/Multi-level MLM System/GrowChain.sol\":4515:4519  user */\n      dup2\n        /* \"MLM/Multi-level MLM System/GrowChain.sol\":4515:4540  user.directReferralIncome */\n      0x01\n      add\n      sload\n        /* \"MLM/Multi-level MLM System/GrowChain.sol\":4554:4558  user */\n      dup3\n        /* \"MLM/Multi-level MLM System/GrowChain.sol\":4554:4572  user.referralCount */\n      0x03\n      add\n      sload\n        /* \"MLM/Multi-level MLM System/GrowChain.sol\":4586:4590  user */\n      dup4\n        /* \"MLM/Multi-level MLM System/GrowChain.sol\":4586:4601  user.teamIncome */\n      0x06\n      add\n      sload\n        /* \"MLM/Multi-level MLM System/GrowChain.sol\":4615:4619  user */\n      dup5\n        /* \"MLM/Multi-level MLM System/GrowChain.sol\":4615:4628  user.teamSize */\n      0x07\n      add\n      sload\n        /* \"MLM/Multi-level MLM System/GrowChain.sol\":4642:4646  user */\n      dup6\n        /* \"MLM/Multi-level MLM System/GrowChain.sol\":4642:4659  user.isRegistered */\n      0x02\n      add\n      0x00\n      swap1\n      sload\n      swap1\n      0x0100\n      exp\n      swap1\n      div\n      0xff\n      and\n        /* \"MLM/Multi-level MLM System/GrowChain.sol\":4673:4677  user */\n      dup7\n        /* \"MLM/Multi-level MLM System/GrowChain.sol\":4673:4694  user.registrationTime */\n      0x04\n      add\n      sload\n        /* \"MLM/Multi-level MLM System/GrowChain.sol\":4467:4704  return (... */\n      swap8\n      pop\n      swap8\n      pop\n      swap8\n      pop\n      swap8\n      pop\n      swap8\n      pop\n      swap8\n      pop\n      swap8\n      pop\n      pop\n        /* \"MLM/Multi-level MLM System/GrowChain.sol\":4077:4711  function getUserDetails(address _user)... */\n      swap2\n      swap4\n      swap6\n      swap8\n      swap1\n      swap3\n      swap5\n      swap7\n      pop\n      jump\t// out\n        /* \"MLM/Multi-level MLM System/GrowChain.sol\":4717:4881  function getDirectReferrals(address _user)... */\n    tag_81:\n        /* \"MLM/Multi-level MLM System/GrowChain.sol\":4807:4823  address[] memory */\n      0x60\n        /* \"MLM/Multi-level MLM System/GrowChain.sol\":4846:4851  users */\n      0x0a\n        /* \"MLM/Multi-level MLM System/GrowChain.sol\":4846:4858  users[_user] */\n      0x00\n        /* \"MLM/Multi-level MLM System/GrowChain.sol\":4852:4857  _user */\n      dup4\n        /* \"MLM/Multi-level MLM System/GrowChain.sol\":4846:4858  users[_user] */\n      0xffffffffffffffffffffffffffffffffffffffff\n      and\n      0xffffffffffffffffffffffffffffffffffffffff\n      and\n      dup2\n      mstore\n      0x20\n      add\n      swap1\n      dup2\n      mstore\n      0x20\n      add\n      0x00\n      keccak256\n        /* \"MLM/Multi-level MLM System/GrowChain.sol\":4846:4874  users[_user].directReferrals */\n      0x05\n      add\n        /* \"MLM/Multi-level MLM System/GrowChain.sol\":4839:4874  return users[_user].directReferrals */\n      dup1\n      sload\n      dup1\n      0x20\n      mul\n      0x20\n      add\n      mload(0x40)\n      swap1\n      dup2\n      add\n      0x40\n      mstore\n      dup1\n      swap3\n      swap2\n      swap1\n      dup2\n      dup2\n      mstore\n      0x20\n      add\n      dup3\n      dup1\n      sload\n      dup1\n      iszero\n      tag_175\n      jumpi\n      0x20\n      mul\n      dup3\n      add\n      swap2\n      swap1\n      0x00\n      mstore\n      keccak256(0x00, 0x20)\n      swap1\n    tag_176:\n      dup2\n      0x00\n      swap1\n      sload\n      swap1\n      0x0100\n      exp\n      swap1\n      div\n      0xffffffffffffffffffffffffffffffffffffffff\n      and\n      0xffffffffffffffffffffffffffffffffffffffff\n      and\n      dup2\n      mstore\n      0x20\n      add\n      swap1\n      0x01\n      add\n      swap1\n      dup1\n      dup4\n      gt\n      tag_176\n      jumpi\n    tag_175:\n      pop\n      pop\n      pop\n      pop\n      pop\n      swap1\n      pop\n        /* \"MLM/Multi-level MLM System/GrowChain.sol\":4717:4881  function getDirectReferrals(address _user)... */\n      swap2\n      swap1\n      pop\n      jump\t// out\n        /* \"MLM/Multi-level MLM System/GrowChain.sol\":5660:5877  function transferOwnership(address _newOwner) external onlybyAdmin {... */\n    tag_85:\n        /* \"MLM/Multi-level MLM System/GrowChain.sol\":1891:1896  admin */\n      0x02\n      0x00\n      swap1\n      sload\n      swap1\n      0x0100\n      exp\n      swap1\n      div\n      0xffffffffffffffffffffffffffffffffffffffff\n      and\n        /* \"MLM/Multi-level MLM System/GrowChain.sol\":1877:1896  msg.sender == admin */\n      0xffffffffffffffffffffffffffffffffffffffff\n      and\n        /* \"MLM/Multi-level MLM System/GrowChain.sol\":1877:1887  msg.sender */\n      caller\n        /* \"MLM/Multi-level MLM System/GrowChain.sol\":1877:1896  msg.sender == admin */\n      0xffffffffffffffffffffffffffffffffffffffff\n      and\n      eq\n        /* \"MLM/Multi-level MLM System/GrowChain.sol\":1856:1972  require(... */\n      tag_178\n      jumpi\n      mload(0x40)\n      0x08c379a000000000000000000000000000000000000000000000000000000000\n      dup2\n      mstore\n      0x04\n      add\n      tag_179\n      swap1\n      tag_129\n      jump\t// in\n    tag_179:\n      mload(0x40)\n      dup1\n      swap2\n      sub\n      swap1\n      revert\n    tag_178:\n        /* \"MLM/Multi-level MLM System/GrowChain.sol\":5766:5767  0 */\n      0x00\n        /* \"MLM/Multi-level MLM System/GrowChain.sol\":5745:5768  _newOwner != address(0) */\n      0xffffffffffffffffffffffffffffffffffffffff\n      and\n        /* \"MLM/Multi-level MLM System/GrowChain.sol\":5745:5754  _newOwner */\n      dup2\n        /* \"MLM/Multi-level MLM System/GrowChain.sol\":5745:5768  _newOwner != address(0) */\n      0xffffffffffffffffffffffffffffffffffffffff\n      and\n      sub\n        /* \"MLM/Multi-level MLM System/GrowChain.sol\":5737:5790  require(_newOwner != address(0), \"Invalid new owner\") */\n      tag_181\n      jumpi\n      mload(0x40)\n      0x08c379a000000000000000000000000000000000000000000000000000000000\n      dup2\n      mstore\n      0x04\n      add\n      tag_182\n      swap1\n      tag_183\n      jump\t// in\n    tag_182:\n      mload(0x40)\n      dup1\n      swap2\n      sub\n      swap1\n      revert\n    tag_181:\n        /* \"MLM/Multi-level MLM System/GrowChain.sol\":5808:5817  _newOwner */\n      dup1\n        /* \"MLM/Multi-level MLM System/GrowChain.sol\":5800:5805  admin */\n      0x02\n      0x00\n        /* \"MLM/Multi-level MLM System/GrowChain.sol\":5800:5817  admin = _newOwner */\n      0x0100\n      exp\n      dup2\n      sload\n      dup2\n      0xffffffffffffffffffffffffffffffffffffffff\n      mul\n      not\n      and\n      swap1\n      dup4\n      0xffffffffffffffffffffffffffffffffffffffff\n      and\n      mul\n      or\n      swap1\n      sstore\n      pop\n        /* \"MLM/Multi-level MLM System/GrowChain.sol\":5860:5869  _newOwner */\n      dup1\n        /* \"MLM/Multi-level MLM System/GrowChain.sol\":5832:5870  OwnershipTransferred(admin, _newOwner) */\n      0xffffffffffffffffffffffffffffffffffffffff\n      and\n        /* \"MLM/Multi-level MLM System/GrowChain.sol\":5853:5858  admin */\n      0x02\n      0x00\n      swap1\n      sload\n      swap1\n      0x0100\n      exp\n      swap1\n      div\n      0xffffffffffffffffffffffffffffffffffffffff\n      and\n        /* \"MLM/Multi-level MLM System/GrowChain.sol\":5832:5870  OwnershipTransferred(admin, _newOwner) */\n      0xffffffffffffffffffffffffffffffffffffffff\n      and\n      0x8be0079c531659141344cd1fd0a4f28419497f9722a3daafe3b4186f6b6457e0\n      mload(0x40)\n      mload(0x40)\n      dup1\n      swap2\n      sub\n      swap1\n      log3\n        /* \"MLM/Multi-level MLM System/GrowChain.sol\":5660:5877  function transferOwnership(address _newOwner) external onlybyAdmin {... */\n      pop\n      jump\t// out\n        /* \"MLM/Multi-level MLM System/GrowChain.sol\":525:545  address public admin */\n    tag_87:\n      0x02\n      0x00\n      swap1\n      sload\n      swap1\n      0x0100\n      exp\n      swap1\n      div\n      0xffffffffffffffffffffffffffffffffffffffff\n      and\n      dup2\n      jump\t// out\n        /* \"@openzeppelin/contracts/security/ReentrancyGuard.sol\":2336:2623  function _nonReentrantBefore() private {... */\n    tag_96:\n        /* \"@openzeppelin/contracts/security/ReentrancyGuard.sol\":1759:1760  2 */\n      0x02\n        /* \"@openzeppelin/contracts/security/ReentrancyGuard.sol\":2468:2475  _status */\n      sload(0x00)\n        /* \"@openzeppelin/contracts/security/ReentrancyGuard.sol\":2468:2487  _status != _ENTERED */\n      sub\n        /* \"@openzeppelin/contracts/security/ReentrancyGuard.sol\":2460:2523  require(_status != _ENTERED, \"ReentrancyGuard: reentrant call\") */\n      tag_185\n      jumpi\n      mload(0x40)\n      0x08c379a000000000000000000000000000000000000000000000000000000000\n      dup2\n      mstore\n      0x04\n      add\n      tag_186\n      swap1\n      tag_187\n      jump\t// in\n    tag_186:\n      mload(0x40)\n      dup1\n      swap2\n      sub\n      swap1\n      revert\n    tag_185:\n        /* \"@openzeppelin/contracts/security/ReentrancyGuard.sol\":1759:1760  2 */\n      0x02\n        /* \"@openzeppelin/contracts/security/ReentrancyGuard.sol\":2598:2605  _status */\n      0x00\n        /* \"@openzeppelin/contracts/security/ReentrancyGuard.sol\":2598:2616  _status = _ENTERED */\n      dup2\n      swap1\n      sstore\n      pop\n        /* \"@openzeppelin/contracts/security/ReentrancyGuard.sol\":2336:2623  function _nonReentrantBefore() private {... */\n      jump\t// out\n        /* \"MLM/Multi-level MLM System/GrowChain.sol\":3112:4071  function distributeReferralIncome(address _referrer) internal {... */\n    tag_121:\n        /* \"MLM/Multi-level MLM System/GrowChain.sol\":3184:3198  address upline */\n      0x00\n        /* \"MLM/Multi-level MLM System/GrowChain.sol\":3201:3210  _referrer */\n      dup2\n        /* \"MLM/Multi-level MLM System/GrowChain.sol\":3184:3210  address upline = _referrer */\n      swap1\n      pop\n        /* \"MLM/Multi-level MLM System/GrowChain.sol\":3226:3235  uint256 i */\n      0x00\n        /* \"MLM/Multi-level MLM System/GrowChain.sol\":3221:4065  for (uint256 i = 0; i < levelPercentage.length  && i < maxReferralDepth; i++) {... */\n    tag_189:\n        /* \"MLM/Multi-level MLM System/GrowChain.sol\":3245:3267  levelPercentage.length */\n      0x05\n        /* \"MLM/Multi-level MLM System/GrowChain.sol\":3241:3242  i */\n      dup2\n        /* \"MLM/Multi-level MLM System/GrowChain.sol\":3241:3267  i < levelPercentage.length */\n      lt\n        /* \"MLM/Multi-level MLM System/GrowChain.sol\":3241:3292  i < levelPercentage.length  && i < maxReferralDepth */\n      dup1\n      iszero\n      tag_192\n      jumpi\n      pop\n        /* \"MLM/Multi-level MLM System/GrowChain.sol\":3276:3292  maxReferralDepth */\n      sload(0x09)\n        /* \"MLM/Multi-level MLM System/GrowChain.sol\":3272:3273  i */\n      dup2\n        /* \"MLM/Multi-level MLM System/GrowChain.sol\":3272:3292  i < maxReferralDepth */\n      lt\n        /* \"MLM/Multi-level MLM System/GrowChain.sol\":3241:3292  i < levelPercentage.length  && i < maxReferralDepth */\n    tag_192:\n        /* \"MLM/Multi-level MLM System/GrowChain.sol\":3221:4065  for (uint256 i = 0; i < levelPercentage.length  && i < maxReferralDepth; i++) {... */\n      iszero\n      tag_190\n      jumpi\n        /* \"MLM/Multi-level MLM System/GrowChain.sol\":3335:3336  0 */\n      0x00\n        /* \"MLM/Multi-level MLM System/GrowChain.sol\":3317:3337  upline == address(0) */\n      0xffffffffffffffffffffffffffffffffffffffff\n      and\n        /* \"MLM/Multi-level MLM System/GrowChain.sol\":3317:3323  upline */\n      dup3\n        /* \"MLM/Multi-level MLM System/GrowChain.sol\":3317:3337  upline == address(0) */\n      0xffffffffffffffffffffffffffffffffffffffff\n      and\n      sub\n        /* \"MLM/Multi-level MLM System/GrowChain.sol\":3313:3377  if (upline == address(0)) {... */\n      iszero\n        /* \"MLM/Multi-level MLM System/GrowChain.sol\":3357:3362  break */\n      tag_190\n        /* \"MLM/Multi-level MLM System/GrowChain.sol\":3313:3377  if (upline == address(0)) {... */\n      jumpi\n        /* \"MLM/Multi-level MLM System/GrowChain.sol\":3391:3405  uint256 reward */\n      0x00\n        /* \"MLM/Multi-level MLM System/GrowChain.sol\":3450:3453  100 */\n      0x64\n        /* \"MLM/Multi-level MLM System/GrowChain.sol\":3428:3443  levelPercentage */\n      0x04\n        /* \"MLM/Multi-level MLM System/GrowChain.sol\":3444:3445  i */\n      dup4\n        /* \"MLM/Multi-level MLM System/GrowChain.sol\":3428:3446  levelPercentage[i] */\n      0x05\n      dup2\n      lt\n      tag_194\n      jumpi\n      tag_195\n      tag_196\n      jump\t// in\n    tag_195:\n    tag_194:\n      add\n      sload\n        /* \"MLM/Multi-level MLM System/GrowChain.sol\":3409:3425  REGISTRATION_FEE */\n      sload(0x03)\n        /* \"MLM/Multi-level MLM System/GrowChain.sol\":3409:3446  REGISTRATION_FEE * levelPercentage[i] */\n      tag_198\n      swap2\n      swap1\n      tag_162\n      jump\t// in\n    tag_198:\n        /* \"MLM/Multi-level MLM System/GrowChain.sol\":3408:3453  (REGISTRATION_FEE * levelPercentage[i]) / 100 */\n      tag_199\n      swap2\n      swap1\n      tag_200\n      jump\t// in\n    tag_199:\n        /* \"MLM/Multi-level MLM System/GrowChain.sol\":3391:3453  uint256 reward = (REGISTRATION_FEE * levelPercentage[i]) / 100 */\n      swap1\n      pop\n        /* \"MLM/Multi-level MLM System/GrowChain.sol\":3475:3478  GNT */\n      0x01\n      0x00\n      swap1\n      sload\n      swap1\n      0x0100\n      exp\n      swap1\n      div\n      0xffffffffffffffffffffffffffffffffffffffff\n      and\n        /* \"MLM/Multi-level MLM System/GrowChain.sol\":3475:3487  GNT.transfer */\n      0xffffffffffffffffffffffffffffffffffffffff\n      and\n      0xa9059cbb\n        /* \"MLM/Multi-level MLM System/GrowChain.sol\":3488:3494  upline */\n      dup5\n        /* \"MLM/Multi-level MLM System/GrowChain.sol\":3496:3502  reward */\n      dup4\n        /* \"MLM/Multi-level MLM System/GrowChain.sol\":3475:3503  GNT.transfer(upline, reward) */\n      mload(0x40)\n      dup4\n      0xffffffff\n      and\n      0xe0\n      shl\n      dup2\n      mstore\n      0x04\n      add\n      tag_201\n      swap3\n      swap2\n      swap1\n      tag_132\n      jump\t// in\n    tag_201:\n      0x20\n      mload(0x40)\n      dup1\n      dup4\n      sub\n      dup2\n      0x00\n      dup8\n      gas\n      call\n      iszero\n      dup1\n      iszero\n      tag_203\n      jumpi\n      returndatasize\n      0x00\n      dup1\n      returndatacopy\n      revert(0x00, returndatasize)\n    tag_203:\n      pop\n      pop\n      pop\n      pop\n      mload(0x40)\n      returndatasize\n      not(0x1f)\n      0x1f\n      dup3\n      add\n      and\n      dup3\n      add\n      dup1\n      0x40\n      mstore\n      pop\n      dup2\n      add\n      swap1\n      tag_204\n      swap2\n      swap1\n      tag_115\n      jump\t// in\n    tag_204:\n        /* \"MLM/Multi-level MLM System/GrowChain.sol\":3467:3530  require(GNT.transfer(upline, reward), \"Reward transfer failed\") */\n      tag_205\n      jumpi\n      mload(0x40)\n      0x08c379a000000000000000000000000000000000000000000000000000000000\n      dup2\n      mstore\n      0x04\n      add\n      tag_206\n      swap1\n      tag_207\n      jump\t// in\n    tag_206:\n      mload(0x40)\n      dup1\n      swap2\n      sub\n      swap1\n      revert\n    tag_205:\n        /* \"MLM/Multi-level MLM System/GrowChain.sol\":3568:3574  upline */\n      dup3\n        /* \"MLM/Multi-level MLM System/GrowChain.sol\":3550:3590  IncomeDistributed(upline, i + 1, reward) */\n      0xffffffffffffffffffffffffffffffffffffffff\n      and\n      0x83b5eadb65fb8fc1b70a3b205b38bb0c6a3e15e14bcbc9d4f366d6c772e6d83b\n        /* \"MLM/Multi-level MLM System/GrowChain.sol\":3580:3581  1 */\n      0x01\n        /* \"MLM/Multi-level MLM System/GrowChain.sol\":3576:3577  i */\n      dup5\n        /* \"MLM/Multi-level MLM System/GrowChain.sol\":3576:3581  i + 1 */\n      tag_208\n      swap2\n      swap1\n      tag_209\n      jump\t// in\n    tag_208:\n        /* \"MLM/Multi-level MLM System/GrowChain.sol\":3583:3589  reward */\n      dup4\n        /* \"MLM/Multi-level MLM System/GrowChain.sol\":3550:3590  IncomeDistributed(upline, i + 1, reward) */\n      mload(0x40)\n      tag_210\n      swap3\n      swap2\n      swap1\n      tag_211\n      jump\t// in\n    tag_210:\n      mload(0x40)\n      dup1\n      swap2\n      sub\n      swap1\n      log2\n        /* \"MLM/Multi-level MLM System/GrowChain.sol\":3614:3615  0 */\n      0x00\n        /* \"MLM/Multi-level MLM System/GrowChain.sol\":3609:3610  i */\n      dup3\n        /* \"MLM/Multi-level MLM System/GrowChain.sol\":3609:3615  i == 0 */\n      sub\n        /* \"MLM/Multi-level MLM System/GrowChain.sol\":3605:3941  if (i == 0) {... */\n      tag_212\n      jumpi\n        /* \"MLM/Multi-level MLM System/GrowChain.sol\":3673:3679  reward */\n      dup1\n        /* \"MLM/Multi-level MLM System/GrowChain.sol\":3635:3640  users */\n      0x0a\n        /* \"MLM/Multi-level MLM System/GrowChain.sol\":3635:3648  users[upline] */\n      0x00\n        /* \"MLM/Multi-level MLM System/GrowChain.sol\":3641:3647  upline */\n      dup6\n        /* \"MLM/Multi-level MLM System/GrowChain.sol\":3635:3648  users[upline] */\n      0xffffffffffffffffffffffffffffffffffffffff\n      and\n      0xffffffffffffffffffffffffffffffffffffffff\n      and\n      dup2\n      mstore\n      0x20\n      add\n      swap1\n      dup2\n      mstore\n      0x20\n      add\n      0x00\n      keccak256\n        /* \"MLM/Multi-level MLM System/GrowChain.sol\":3635:3669  users[upline].directReferralIncome */\n      0x01\n      add\n      0x00\n        /* \"MLM/Multi-level MLM System/GrowChain.sol\":3635:3679  users[upline].directReferralIncome += reward */\n      dup3\n      dup3\n      sload\n      tag_213\n      swap2\n      swap1\n      tag_209\n      jump\t// in\n    tag_213:\n      swap3\n      pop\n      pop\n      dup2\n      swap1\n      sstore\n      pop\n        /* \"MLM/Multi-level MLM System/GrowChain.sol\":3698:3703  users */\n      0x0a\n        /* \"MLM/Multi-level MLM System/GrowChain.sol\":3698:3711  users[upline] */\n      0x00\n        /* \"MLM/Multi-level MLM System/GrowChain.sol\":3704:3710  upline */\n      dup5\n        /* \"MLM/Multi-level MLM System/GrowChain.sol\":3698:3711  users[upline] */\n      0xffffffffffffffffffffffffffffffffffffffff\n      and\n      0xffffffffffffffffffffffffffffffffffffffff\n      and\n      dup2\n      mstore\n      0x20\n      add\n      swap1\n      dup2\n      mstore\n      0x20\n      add\n      0x00\n      keccak256\n        /* \"MLM/Multi-level MLM System/GrowChain.sol\":3698:3727  users[upline].directReferrals */\n      0x05\n      add\n        /* \"MLM/Multi-level MLM System/GrowChain.sol\":3733:3743  msg.sender */\n      caller\n        /* \"MLM/Multi-level MLM System/GrowChain.sol\":3698:3744  users[upline].directReferrals.push(msg.sender) */\n      swap1\n      dup1\n      0x01\n      dup2\n      sload\n      add\n      dup1\n      dup3\n      sstore\n      dup1\n      swap2\n      pop\n      pop\n      0x01\n      swap1\n      sub\n      swap1\n      0x00\n      mstore\n      keccak256(0x00, 0x20)\n      add\n      0x00\n      swap1\n      swap2\n      swap1\n      swap2\n      swap1\n      swap2\n      0x0100\n      exp\n      dup2\n      sload\n      dup2\n      0xffffffffffffffffffffffffffffffffffffffff\n      mul\n      not\n      and\n      swap1\n      dup4\n      0xffffffffffffffffffffffffffffffffffffffff\n      and\n      mul\n      or\n      swap1\n      sstore\n      pop\n        /* \"MLM/Multi-level MLM System/GrowChain.sol\":3762:3767  users */\n      0x0a\n        /* \"MLM/Multi-level MLM System/GrowChain.sol\":3762:3775  users[upline] */\n      0x00\n        /* \"MLM/Multi-level MLM System/GrowChain.sol\":3768:3774  upline */\n      dup5\n        /* \"MLM/Multi-level MLM System/GrowChain.sol\":3762:3775  users[upline] */\n      0xffffffffffffffffffffffffffffffffffffffff\n      and\n      0xffffffffffffffffffffffffffffffffffffffff\n      and\n      dup2\n      mstore\n      0x20\n      add\n      swap1\n      dup2\n      mstore\n      0x20\n      add\n      0x00\n      keccak256\n        /* \"MLM/Multi-level MLM System/GrowChain.sol\":3762:3789  users[upline].referralCount */\n      0x03\n      add\n      0x00\n        /* \"MLM/Multi-level MLM System/GrowChain.sol\":3762:3791  users[upline].referralCount++ */\n      dup2\n      sload\n      dup1\n      swap3\n      swap2\n      swap1\n      tag_215\n      swap1\n      tag_216\n      jump\t// in\n    tag_215:\n      swap2\n      swap1\n      pop\n      sstore\n      pop\n        /* \"MLM/Multi-level MLM System/GrowChain.sol\":3605:3941  if (i == 0) {... */\n      jump(tag_217)\n    tag_212:\n        /* \"MLM/Multi-level MLM System/GrowChain.sol\":3858:3864  reward */\n      dup1\n        /* \"MLM/Multi-level MLM System/GrowChain.sol\":3830:3835  users */\n      0x0a\n        /* \"MLM/Multi-level MLM System/GrowChain.sol\":3830:3843  users[upline] */\n      0x00\n        /* \"MLM/Multi-level MLM System/GrowChain.sol\":3836:3842  upline */\n      dup6\n        /* \"MLM/Multi-level MLM System/GrowChain.sol\":3830:3843  users[upline] */\n      0xffffffffffffffffffffffffffffffffffffffff\n      and\n      0xffffffffffffffffffffffffffffffffffffffff\n      and\n      dup2\n      mstore\n      0x20\n      add\n      swap1\n      dup2\n      mstore\n      0x20\n      add\n      0x00\n      keccak256\n        /* \"MLM/Multi-level MLM System/GrowChain.sol\":3830:3854  users[upline].teamIncome */\n      0x06\n      add\n      0x00\n        /* \"MLM/Multi-level MLM System/GrowChain.sol\":3830:3864  users[upline].teamIncome += reward */\n      dup3\n      dup3\n      sload\n      tag_218\n      swap2\n      swap1\n      tag_209\n      jump\t// in\n    tag_218:\n      swap3\n      pop\n      pop\n      dup2\n      swap1\n      sstore\n      pop\n        /* \"MLM/Multi-level MLM System/GrowChain.sol\":3882:3887  users */\n      0x0a\n        /* \"MLM/Multi-level MLM System/GrowChain.sol\":3882:3895  users[upline] */\n      0x00\n        /* \"MLM/Multi-level MLM System/GrowChain.sol\":3888:3894  upline */\n      dup5\n        /* \"MLM/Multi-level MLM System/GrowChain.sol\":3882:3895  users[upline] */\n      0xffffffffffffffffffffffffffffffffffffffff\n      and\n      0xffffffffffffffffffffffffffffffffffffffff\n      and\n      dup2\n      mstore\n      0x20\n      add\n      swap1\n      dup2\n      mstore\n      0x20\n      add\n      0x00\n      keccak256\n        /* \"MLM/Multi-level MLM System/GrowChain.sol\":3882:3913  users[upline].indirectReferrals */\n      0x08\n      add\n        /* \"MLM/Multi-level MLM System/GrowChain.sol\":3919:3925  upline */\n      dup4\n        /* \"MLM/Multi-level MLM System/GrowChain.sol\":3882:3926  users[upline].indirectReferrals.push(upline) */\n      swap1\n      dup1\n      0x01\n      dup2\n      sload\n      add\n      dup1\n      dup3\n      sstore\n      dup1\n      swap2\n      pop\n      pop\n      0x01\n      swap1\n      sub\n      swap1\n      0x00\n      mstore\n      keccak256(0x00, 0x20)\n      add\n      0x00\n      swap1\n      swap2\n      swap1\n      swap2\n      swap1\n      swap2\n      0x0100\n      exp\n      dup2\n      sload\n      dup2\n      0xffffffffffffffffffffffffffffffffffffffff\n      mul\n      not\n      and\n      swap1\n      dup4\n      0xffffffffffffffffffffffffffffffffffffffff\n      and\n      mul\n      or\n      swap1\n      sstore\n      pop\n        /* \"MLM/Multi-level MLM System/GrowChain.sol\":3605:3941  if (i == 0) {... */\n    tag_217:\n        /* \"MLM/Multi-level MLM System/GrowChain.sol\":3954:3959  users */\n      0x0a\n        /* \"MLM/Multi-level MLM System/GrowChain.sol\":3954:3967  users[upline] */\n      0x00\n        /* \"MLM/Multi-level MLM System/GrowChain.sol\":3960:3966  upline */\n      dup5\n        /* \"MLM/Multi-level MLM System/GrowChain.sol\":3954:3967  users[upline] */\n      0xffffffffffffffffffffffffffffffffffffffff\n      and\n      0xffffffffffffffffffffffffffffffffffffffff\n      and\n      dup2\n      mstore\n      0x20\n      add\n      swap1\n      dup2\n      mstore\n      0x20\n      add\n      0x00\n      keccak256\n        /* \"MLM/Multi-level MLM System/GrowChain.sol\":3954:3976  users[upline].teamSize */\n      0x07\n      add\n      0x00\n        /* \"MLM/Multi-level MLM System/GrowChain.sol\":3954:3978  users[upline].teamSize++ */\n      dup2\n      sload\n      dup1\n      swap3\n      swap2\n      swap1\n      tag_220\n      swap1\n      tag_216\n      jump\t// in\n    tag_220:\n      swap2\n      swap1\n      pop\n      sstore\n      pop\n        /* \"MLM/Multi-level MLM System/GrowChain.sol\":4032:4037  users */\n      0x0a\n        /* \"MLM/Multi-level MLM System/GrowChain.sol\":4032:4045  users[upline] */\n      0x00\n        /* \"MLM/Multi-level MLM System/GrowChain.sol\":4038:4044  upline */\n      dup5\n        /* \"MLM/Multi-level MLM System/GrowChain.sol\":4032:4045  users[upline] */\n      0xffffffffffffffffffffffffffffffffffffffff\n      and\n      0xffffffffffffffffffffffffffffffffffffffff\n      and\n      dup2\n      mstore\n      0x20\n      add\n      swap1\n      dup2\n      mstore\n      0x20\n      add\n      0x00\n      keccak256\n        /* \"MLM/Multi-level MLM System/GrowChain.sol\":4032:4054  users[upline].referrer */\n      0x00\n      add\n      0x00\n      swap1\n      sload\n      swap1\n      0x0100\n      exp\n      swap1\n      div\n      0xffffffffffffffffffffffffffffffffffffffff\n      and\n        /* \"MLM/Multi-level MLM System/GrowChain.sol\":4023:4054  upline = users[upline].referrer */\n      swap3\n      pop\n        /* \"MLM/Multi-level MLM System/GrowChain.sol\":3299:4065  {... */\n      pop\n        /* \"MLM/Multi-level MLM System/GrowChain.sol\":3294:3297  i++ */\n      dup1\n      dup1\n      tag_221\n      swap1\n      tag_216\n      jump\t// in\n    tag_221:\n      swap2\n      pop\n      pop\n        /* \"MLM/Multi-level MLM System/GrowChain.sol\":3221:4065  for (uint256 i = 0; i < levelPercentage.length  && i < maxReferralDepth; i++) {... */\n      jump(tag_189)\n    tag_190:\n      pop\n        /* \"MLM/Multi-level MLM System/GrowChain.sol\":3174:4071  {... */\n      pop\n        /* \"MLM/Multi-level MLM System/GrowChain.sol\":3112:4071  function distributeReferralIncome(address _referrer) internal {... */\n      pop\n      jump\t// out\n        /* \"@openzeppelin/contracts/security/ReentrancyGuard.sol\":2629:2838  function _nonReentrantAfter() private {... */\n    tag_123:\n        /* \"@openzeppelin/contracts/security/ReentrancyGuard.sol\":1716:1717  1 */\n      0x01\n        /* \"@openzeppelin/contracts/security/ReentrancyGuard.sol\":2809:2816  _status */\n      0x00\n        /* \"@openzeppelin/contracts/security/ReentrancyGuard.sol\":2809:2831  _status = _NOT_ENTERED */\n      dup2\n      swap1\n      sstore\n      pop\n        /* \"@openzeppelin/contracts/security/ReentrancyGuard.sol\":2629:2838  function _nonReentrantAfter() private {... */\n      jump\t// out\n        /* \"#utility.yul\":7:84   */\n    tag_223:\n        /* \"#utility.yul\":44:51   */\n      0x00\n        /* \"#utility.yul\":73:78   */\n      dup2\n        /* \"#utility.yul\":62:78   */\n      swap1\n      pop\n        /* \"#utility.yul\":7:84   */\n      swap2\n      swap1\n      pop\n      jump\t// out\n        /* \"#utility.yul\":90:208   */\n    tag_224:\n        /* \"#utility.yul\":177:201   */\n      tag_282\n        /* \"#utility.yul\":195:200   */\n      dup2\n        /* \"#utility.yul\":177:201   */\n      tag_223\n      jump\t// in\n    tag_282:\n        /* \"#utility.yul\":172:175   */\n      dup3\n        /* \"#utility.yul\":165:202   */\n      mstore\n        /* \"#utility.yul\":90:208   */\n      pop\n      pop\n      jump\t// out\n        /* \"#utility.yul\":214:436   */\n    tag_27:\n        /* \"#utility.yul\":307:311   */\n      0x00\n        /* \"#utility.yul\":345:347   */\n      0x20\n        /* \"#utility.yul\":334:343   */\n      dup3\n        /* \"#utility.yul\":330:348   */\n      add\n        /* \"#utility.yul\":322:348   */\n      swap1\n      pop\n        /* \"#utility.yul\":358:429   */\n      tag_284\n        /* \"#utility.yul\":426:427   */\n      0x00\n        /* \"#utility.yul\":415:424   */\n      dup4\n        /* \"#utility.yul\":411:428   */\n      add\n        /* \"#utility.yul\":402:408   */\n      dup5\n        /* \"#utility.yul\":358:429   */\n      tag_224\n      jump\t// in\n    tag_284:\n        /* \"#utility.yul\":214:436   */\n      swap3\n      swap2\n      pop\n      pop\n      jump\t// out\n        /* \"#utility.yul\":523:640   */\n    tag_226:\n        /* \"#utility.yul\":632:633   */\n      0x00\n        /* \"#utility.yul\":629:630   */\n      dup1\n        /* \"#utility.yul\":622:634   */\n      revert\n        /* \"#utility.yul\":769:895   */\n    tag_228:\n        /* \"#utility.yul\":806:813   */\n      0x00\n        /* \"#utility.yul\":846:888   */\n      0xffffffffffffffffffffffffffffffffffffffff\n        /* \"#utility.yul\":839:844   */\n      dup3\n        /* \"#utility.yul\":835:889   */\n      and\n        /* \"#utility.yul\":824:889   */\n      swap1\n      pop\n        /* \"#utility.yul\":769:895   */\n      swap2\n      swap1\n      pop\n      jump\t// out\n        /* \"#utility.yul\":901:997   */\n    tag_229:\n        /* \"#utility.yul\":938:945   */\n      0x00\n        /* \"#utility.yul\":967:991   */\n      tag_290\n        /* \"#utility.yul\":985:990   */\n      dup3\n        /* \"#utility.yul\":967:991   */\n      tag_228\n      jump\t// in\n    tag_290:\n        /* \"#utility.yul\":956:991   */\n      swap1\n      pop\n        /* \"#utility.yul\":901:997   */\n      swap2\n      swap1\n      pop\n      jump\t// out\n        /* \"#utility.yul\":1003:1125   */\n    tag_230:\n        /* \"#utility.yul\":1076:1100   */\n      tag_292\n        /* \"#utility.yul\":1094:1099   */\n      dup2\n        /* \"#utility.yul\":1076:1100   */\n      tag_229\n      jump\t// in\n    tag_292:\n        /* \"#utility.yul\":1069:1074   */\n      dup2\n        /* \"#utility.yul\":1066:1101   */\n      eq\n        /* \"#utility.yul\":1056:1119   */\n      tag_293\n      jumpi\n        /* \"#utility.yul\":1115:1116   */\n      0x00\n        /* \"#utility.yul\":1112:1113   */\n      dup1\n        /* \"#utility.yul\":1105:1117   */\n      revert\n        /* \"#utility.yul\":1056:1119   */\n    tag_293:\n        /* \"#utility.yul\":1003:1125   */\n      pop\n      jump\t// out\n        /* \"#utility.yul\":1131:1270   */\n    tag_231:\n        /* \"#utility.yul\":1177:1182   */\n      0x00\n        /* \"#utility.yul\":1215:1221   */\n      dup2\n        /* \"#utility.yul\":1202:1222   */\n      calldataload\n        /* \"#utility.yul\":1193:1222   */\n      swap1\n      pop\n        /* \"#utility.yul\":1231:1264   */\n      tag_295\n        /* \"#utility.yul\":1258:1263   */\n      dup2\n        /* \"#utility.yul\":1231:1264   */\n      tag_230\n      jump\t// in\n    tag_295:\n        /* \"#utility.yul\":1131:1270   */\n      swap3\n      swap2\n      pop\n      pop\n      jump\t// out\n        /* \"#utility.yul\":1276:1605   */\n    tag_30:\n        /* \"#utility.yul\":1335:1341   */\n      0x00\n        /* \"#utility.yul\":1384:1386   */\n      0x20\n        /* \"#utility.yul\":1372:1381   */\n      dup3\n        /* \"#utility.yul\":1363:1370   */\n      dup5\n        /* \"#utility.yul\":1359:1382   */\n      sub\n        /* \"#utility.yul\":1355:1387   */\n      slt\n        /* \"#utility.yul\":1352:1471   */\n      iszero\n      tag_297\n      jumpi\n        /* \"#utility.yul\":1390:1469   */\n      tag_298\n      tag_226\n      jump\t// in\n    tag_298:\n        /* \"#utility.yul\":1352:1471   */\n    tag_297:\n        /* \"#utility.yul\":1510:1511   */\n      0x00\n        /* \"#utility.yul\":1535:1588   */\n      tag_299\n        /* \"#utility.yul\":1580:1587   */\n      dup5\n        /* \"#utility.yul\":1571:1577   */\n      dup3\n        /* \"#utility.yul\":1560:1569   */\n      dup6\n        /* \"#utility.yul\":1556:1578   */\n      add\n        /* \"#utility.yul\":1535:1588   */\n      tag_231\n      jump\t// in\n    tag_299:\n        /* \"#utility.yul\":1525:1588   */\n      swap2\n      pop\n        /* \"#utility.yul\":1481:1598   */\n      pop\n        /* \"#utility.yul\":1276:1605   */\n      swap3\n      swap2\n      pop\n      pop\n      jump\t// out\n        /* \"#utility.yul\":1611:1733   */\n    tag_232:\n        /* \"#utility.yul\":1684:1708   */\n      tag_301\n        /* \"#utility.yul\":1702:1707   */\n      dup2\n        /* \"#utility.yul\":1684:1708   */\n      tag_223\n      jump\t// in\n    tag_301:\n        /* \"#utility.yul\":1677:1682   */\n      dup2\n        /* \"#utility.yul\":1674:1709   */\n      eq\n        /* \"#utility.yul\":1664:1727   */\n      tag_302\n      jumpi\n        /* \"#utility.yul\":1723:1724   */\n      0x00\n        /* \"#utility.yul\":1720:1721   */\n      dup1\n        /* \"#utility.yul\":1713:1725   */\n      revert\n        /* \"#utility.yul\":1664:1727   */\n    tag_302:\n        /* \"#utility.yul\":1611:1733   */\n      pop\n      jump\t// out\n        /* \"#utility.yul\":1739:1878   */\n    tag_233:\n        /* \"#utility.yul\":1785:1790   */\n      0x00\n        /* \"#utility.yul\":1823:1829   */\n      dup2\n        /* \"#utility.yul\":1810:1830   */\n      calldataload\n        /* \"#utility.yul\":1801:1830   */\n      swap1\n      pop\n        /* \"#utility.yul\":1839:1872   */\n      tag_304\n        /* \"#utility.yul\":1866:1871   */\n      dup2\n        /* \"#utility.yul\":1839:1872   */\n      tag_232\n      jump\t// in\n    tag_304:\n        /* \"#utility.yul\":1739:1878   */\n      swap3\n      swap2\n      pop\n      pop\n      jump\t// out\n        /* \"#utility.yul\":1884:2213   */\n    tag_34:\n        /* \"#utility.yul\":1943:1949   */\n      0x00\n        /* \"#utility.yul\":1992:1994   */\n      0x20\n        /* \"#utility.yul\":1980:1989   */\n      dup3\n        /* \"#utility.yul\":1971:1978   */\n      dup5\n        /* \"#utility.yul\":1967:1990   */\n      sub\n        /* \"#utility.yul\":1963:1995   */\n      slt\n        /* \"#utility.yul\":1960:2079   */\n      iszero\n      tag_306\n      jumpi\n        /* \"#utility.yul\":1998:2077   */\n      tag_307\n      tag_226\n      jump\t// in\n    tag_307:\n        /* \"#utility.yul\":1960:2079   */\n    tag_306:\n        /* \"#utility.yul\":2118:2119   */\n      0x00\n        /* \"#utility.yul\":2143:2196   */\n      tag_308\n        /* \"#utility.yul\":2188:2195   */\n      dup5\n        /* \"#utility.yul\":2179:2185   */\n      dup3\n        /* \"#utility.yul\":2168:2177   */\n      dup6\n        /* \"#utility.yul\":2164:2186   */\n      add\n        /* \"#utility.yul\":2143:2196   */\n      tag_233\n      jump\t// in\n    tag_308:\n        /* \"#utility.yul\":2133:2196   */\n      swap2\n      pop\n        /* \"#utility.yul\":2089:2206   */\n      pop\n        /* \"#utility.yul\":1884:2213   */\n      swap3\n      swap2\n      pop\n      pop\n      jump\t// out\n        /* \"#utility.yul\":2219:2333   */\n    tag_234:\n        /* \"#utility.yul\":2286:2292   */\n      0x00\n        /* \"#utility.yul\":2320:2325   */\n      dup2\n        /* \"#utility.yul\":2314:2326   */\n      mload\n        /* \"#utility.yul\":2304:2326   */\n      swap1\n      pop\n        /* \"#utility.yul\":2219:2333   */\n      swap2\n      swap1\n      pop\n      jump\t// out\n        /* \"#utility.yul\":2339:2523   */\n    tag_235:\n        /* \"#utility.yul\":2438:2449   */\n      0x00\n        /* \"#utility.yul\":2472:2478   */\n      dup3\n        /* \"#utility.yul\":2467:2470   */\n      dup3\n        /* \"#utility.yul\":2460:2479   */\n      mstore\n        /* \"#utility.yul\":2512:2516   */\n      0x20\n        /* \"#utility.yul\":2507:2510   */\n      dup3\n        /* \"#utility.yul\":2503:2517   */\n      add\n        /* \"#utility.yul\":2488:2517   */\n      swap1\n      pop\n        /* \"#utility.yul\":2339:2523   */\n      swap3\n      swap2\n      pop\n      pop\n      jump\t// out\n        /* \"#utility.yul\":2529:2661   */\n    tag_236:\n        /* \"#utility.yul\":2596:2600   */\n      0x00\n        /* \"#utility.yul\":2619:2622   */\n      dup2\n        /* \"#utility.yul\":2611:2622   */\n      swap1\n      pop\n        /* \"#utility.yul\":2649:2653   */\n      0x20\n        /* \"#utility.yul\":2644:2647   */\n      dup3\n        /* \"#utility.yul\":2640:2654   */\n      add\n        /* \"#utility.yul\":2632:2654   */\n      swap1\n      pop\n        /* \"#utility.yul\":2529:2661   */\n      swap2\n      swap1\n      pop\n      jump\t// out\n        /* \"#utility.yul\":2667:2775   */\n    tag_237:\n        /* \"#utility.yul\":2744:2768   */\n      tag_313\n        /* \"#utility.yul\":2762:2767   */\n      dup2\n        /* \"#utility.yul\":2744:2768   */\n      tag_229\n      jump\t// in\n    tag_313:\n        /* \"#utility.yul\":2739:2742   */\n      dup3\n        /* \"#utility.yul\":2732:2769   */\n      mstore\n        /* \"#utility.yul\":2667:2775   */\n      pop\n      pop\n      jump\t// out\n        /* \"#utility.yul\":2781:2960   */\n    tag_238:\n        /* \"#utility.yul\":2850:2860   */\n      0x00\n        /* \"#utility.yul\":2871:2917   */\n      tag_315\n        /* \"#utility.yul\":2913:2916   */\n      dup4\n        /* \"#utility.yul\":2905:2911   */\n      dup4\n        /* \"#utility.yul\":2871:2917   */\n      tag_237\n      jump\t// in\n    tag_315:\n        /* \"#utility.yul\":2949:2953   */\n      0x20\n        /* \"#utility.yul\":2944:2947   */\n      dup4\n        /* \"#utility.yul\":2940:2954   */\n      add\n        /* \"#utility.yul\":2926:2954   */\n      swap1\n      pop\n        /* \"#utility.yul\":2781:2960   */\n      swap3\n      swap2\n      pop\n      pop\n      jump\t// out\n        /* \"#utility.yul\":2966:3079   */\n    tag_239:\n        /* \"#utility.yul\":3036:3040   */\n      0x00\n        /* \"#utility.yul\":3068:3072   */\n      0x20\n        /* \"#utility.yul\":3063:3066   */\n      dup3\n        /* \"#utility.yul\":3059:3073   */\n      add\n        /* \"#utility.yul\":3051:3073   */\n      swap1\n      pop\n        /* \"#utility.yul\":2966:3079   */\n      swap2\n      swap1\n      pop\n      jump\t// out\n        /* \"#utility.yul\":3115:3847   */\n    tag_240:\n        /* \"#utility.yul\":3234:3237   */\n      0x00\n        /* \"#utility.yul\":3263:3317   */\n      tag_318\n        /* \"#utility.yul\":3311:3316   */\n      dup3\n        /* \"#utility.yul\":3263:3317   */\n      tag_234\n      jump\t// in\n    tag_318:\n        /* \"#utility.yul\":3333:3419   */\n      tag_319\n        /* \"#utility.yul\":3412:3418   */\n      dup2\n        /* \"#utility.yul\":3407:3410   */\n      dup6\n        /* \"#utility.yul\":3333:3419   */\n      tag_235\n      jump\t// in\n    tag_319:\n        /* \"#utility.yul\":3326:3419   */\n      swap4\n      pop\n        /* \"#utility.yul\":3443:3499   */\n      tag_320\n        /* \"#utility.yul\":3493:3498   */\n      dup4\n        /* \"#utility.yul\":3443:3499   */\n      tag_236\n      jump\t// in\n    tag_320:\n        /* \"#utility.yul\":3522:3529   */\n      dup1\n        /* \"#utility.yul\":3553:3554   */\n      0x00\n        /* \"#utility.yul\":3538:3822   */\n    tag_321:\n        /* \"#utility.yul\":3563:3569   */\n      dup4\n        /* \"#utility.yul\":3560:3561   */\n      dup2\n        /* \"#utility.yul\":3557:3570   */\n      lt\n        /* \"#utility.yul\":3538:3822   */\n      iszero\n      tag_323\n      jumpi\n        /* \"#utility.yul\":3639:3645   */\n      dup2\n        /* \"#utility.yul\":3633:3646   */\n      mload\n        /* \"#utility.yul\":3666:3729   */\n      tag_324\n        /* \"#utility.yul\":3725:3728   */\n      dup9\n        /* \"#utility.yul\":3710:3723   */\n      dup3\n        /* \"#utility.yul\":3666:3729   */\n      tag_238\n      jump\t// in\n    tag_324:\n        /* \"#utility.yul\":3659:3729   */\n      swap8\n      pop\n        /* \"#utility.yul\":3752:3812   */\n      tag_325\n        /* \"#utility.yul\":3805:3811   */\n      dup4\n        /* \"#utility.yul\":3752:3812   */\n      tag_239\n      jump\t// in\n    tag_325:\n        /* \"#utility.yul\":3742:3812   */\n      swap3\n      pop\n        /* \"#utility.yul\":3598:3822   */\n      pop\n        /* \"#utility.yul\":3585:3586   */\n      0x01\n        /* \"#utility.yul\":3582:3583   */\n      dup2\n        /* \"#utility.yul\":3578:3587   */\n      add\n        /* \"#utility.yul\":3573:3587   */\n      swap1\n      pop\n        /* \"#utility.yul\":3538:3822   */\n      jump(tag_321)\n    tag_323:\n        /* \"#utility.yul\":3542:3556   */\n      pop\n        /* \"#utility.yul\":3838:3841   */\n      dup6\n        /* \"#utility.yul\":3831:3841   */\n      swap4\n      pop\n        /* \"#utility.yul\":3239:3847   */\n      pop\n      pop\n      pop\n        /* \"#utility.yul\":3115:3847   */\n      swap3\n      swap2\n      pop\n      pop\n      jump\t// out\n        /* \"#utility.yul\":3853:4226   */\n    tag_40:\n        /* \"#utility.yul\":3996:4000   */\n      0x00\n        /* \"#utility.yul\":4034:4036   */\n      0x20\n        /* \"#utility.yul\":4023:4032   */\n      dup3\n        /* \"#utility.yul\":4019:4037   */\n      add\n        /* \"#utility.yul\":4011:4037   */\n      swap1\n      pop\n        /* \"#utility.yul\":4083:4092   */\n      dup2\n        /* \"#utility.yul\":4077:4081   */\n      dup2\n        /* \"#utility.yul\":4073:4093   */\n      sub\n        /* \"#utility.yul\":4069:4070   */\n      0x00\n        /* \"#utility.yul\":4058:4067   */\n      dup4\n        /* \"#utility.yul\":4054:4071   */\n      add\n        /* \"#utility.yul\":4047:4094   */\n      mstore\n        /* \"#utility.yul\":4111:4219   */\n      tag_327\n        /* \"#utility.yul\":4214:4218   */\n      dup2\n        /* \"#utility.yul\":4205:4211   */\n      dup5\n        /* \"#utility.yul\":4111:4219   */\n      tag_240\n      jump\t// in\n    tag_327:\n        /* \"#utility.yul\":4103:4219   */\n      swap1\n      pop\n        /* \"#utility.yul\":3853:4226   */\n      swap3\n      swap2\n      pop\n      pop\n      jump\t// out\n        /* \"#utility.yul\":4232:4322   */\n    tag_241:\n        /* \"#utility.yul\":4266:4273   */\n      0x00\n        /* \"#utility.yul\":4309:4314   */\n      dup2\n        /* \"#utility.yul\":4302:4315   */\n      iszero\n        /* \"#utility.yul\":4295:4316   */\n      iszero\n        /* \"#utility.yul\":4284:4316   */\n      swap1\n      pop\n        /* \"#utility.yul\":4232:4322   */\n      swap2\n      swap1\n      pop\n      jump\t// out\n        /* \"#utility.yul\":4328:4437   */\n    tag_242:\n        /* \"#utility.yul\":4409:4430   */\n      tag_330\n        /* \"#utility.yul\":4424:4429   */\n      dup2\n        /* \"#utility.yul\":4409:4430   */\n      tag_241\n      jump\t// in\n    tag_330:\n        /* \"#utility.yul\":4404:4407   */\n      dup3\n        /* \"#utility.yul\":4397:4431   */\n      mstore\n        /* \"#utility.yul\":4328:4437   */\n      pop\n      pop\n      jump\t// out\n        /* \"#utility.yul\":4443:4653   */\n    tag_59:\n        /* \"#utility.yul\":4530:4534   */\n      0x00\n        /* \"#utility.yul\":4568:4570   */\n      0x20\n        /* \"#utility.yul\":4557:4566   */\n      dup3\n        /* \"#utility.yul\":4553:4571   */\n      add\n        /* \"#utility.yul\":4545:4571   */\n      swap1\n      pop\n        /* \"#utility.yul\":4581:4646   */\n      tag_332\n        /* \"#utility.yul\":4643:4644   */\n      0x00\n        /* \"#utility.yul\":4632:4641   */\n      dup4\n        /* \"#utility.yul\":4628:4645   */\n      add\n        /* \"#utility.yul\":4619:4625   */\n      dup5\n        /* \"#utility.yul\":4581:4646   */\n      tag_242\n      jump\t// in\n    tag_332:\n        /* \"#utility.yul\":4443:4653   */\n      swap3\n      swap2\n      pop\n      pop\n      jump\t// out\n        /* \"#utility.yul\":4659:4719   */\n    tag_243:\n        /* \"#utility.yul\":4687:4690   */\n      0x00\n        /* \"#utility.yul\":4708:4713   */\n      dup2\n        /* \"#utility.yul\":4701:4713   */\n      swap1\n      pop\n        /* \"#utility.yul\":4659:4719   */\n      swap2\n      swap1\n      pop\n      jump\t// out\n        /* \"#utility.yul\":4725:4867   */\n    tag_244:\n        /* \"#utility.yul\":4775:4784   */\n      0x00\n        /* \"#utility.yul\":4808:4861   */\n      tag_335\n        /* \"#utility.yul\":4826:4860   */\n      tag_336\n        /* \"#utility.yul\":4835:4859   */\n      tag_337\n        /* \"#utility.yul\":4853:4858   */\n      dup5\n        /* \"#utility.yul\":4835:4859   */\n      tag_228\n      jump\t// in\n    tag_337:\n        /* \"#utility.yul\":4826:4860   */\n      tag_243\n      jump\t// in\n    tag_336:\n        /* \"#utility.yul\":4808:4861   */\n      tag_228\n      jump\t// in\n    tag_335:\n        /* \"#utility.yul\":4795:4861   */\n      swap1\n      pop\n        /* \"#utility.yul\":4725:4867   */\n      swap2\n      swap1\n      pop\n      jump\t// out\n        /* \"#utility.yul\":4873:4999   */\n    tag_245:\n        /* \"#utility.yul\":4923:4932   */\n      0x00\n        /* \"#utility.yul\":4956:4993   */\n      tag_339\n        /* \"#utility.yul\":4987:4992   */\n      dup3\n        /* \"#utility.yul\":4956:4993   */\n      tag_244\n      jump\t// in\n    tag_339:\n        /* \"#utility.yul\":4943:4993   */\n      swap1\n      pop\n        /* \"#utility.yul\":4873:4999   */\n      swap2\n      swap1\n      pop\n      jump\t// out\n        /* \"#utility.yul\":5005:5144   */\n    tag_246:\n        /* \"#utility.yul\":5068:5077   */\n      0x00\n        /* \"#utility.yul\":5101:5138   */\n      tag_341\n        /* \"#utility.yul\":5132:5137   */\n      dup3\n        /* \"#utility.yul\":5101:5138   */\n      tag_245\n      jump\t// in\n    tag_341:\n        /* \"#utility.yul\":5088:5138   */\n      swap1\n      pop\n        /* \"#utility.yul\":5005:5144   */\n      swap2\n      swap1\n      pop\n      jump\t// out\n        /* \"#utility.yul\":5150:5307   */\n    tag_247:\n        /* \"#utility.yul\":5250:5300   */\n      tag_343\n        /* \"#utility.yul\":5294:5299   */\n      dup2\n        /* \"#utility.yul\":5250:5300   */\n      tag_246\n      jump\t// in\n    tag_343:\n        /* \"#utility.yul\":5245:5248   */\n      dup3\n        /* \"#utility.yul\":5238:5301   */\n      mstore\n        /* \"#utility.yul\":5150:5307   */\n      pop\n      pop\n      jump\t// out\n        /* \"#utility.yul\":5313:5561   */\n    tag_63:\n        /* \"#utility.yul\":5419:5423   */\n      0x00\n        /* \"#utility.yul\":5457:5459   */\n      0x20\n        /* \"#utility.yul\":5446:5455   */\n      dup3\n        /* \"#utility.yul\":5442:5460   */\n      add\n        /* \"#utility.yul\":5434:5460   */\n      swap1\n      pop\n        /* \"#utility.yul\":5470:5554   */\n      tag_345\n        /* \"#utility.yul\":5551:5552   */\n      0x00\n        /* \"#utility.yul\":5540:5549   */\n      dup4\n        /* \"#utility.yul\":5536:5553   */\n      add\n        /* \"#utility.yul\":5527:5533   */\n      dup5\n        /* \"#utility.yul\":5470:5554   */\n      tag_247\n      jump\t// in\n    tag_345:\n        /* \"#utility.yul\":5313:5561   */\n      swap3\n      swap2\n      pop\n      pop\n      jump\t// out\n        /* \"#utility.yul\":5567:5685   */\n    tag_248:\n        /* \"#utility.yul\":5654:5678   */\n      tag_347\n        /* \"#utility.yul\":5672:5677   */\n      dup2\n        /* \"#utility.yul\":5654:5678   */\n      tag_229\n      jump\t// in\n    tag_347:\n        /* \"#utility.yul\":5649:5652   */\n      dup3\n        /* \"#utility.yul\":5642:5679   */\n      mstore\n        /* \"#utility.yul\":5567:5685   */\n      pop\n      pop\n      jump\t// out\n        /* \"#utility.yul\":5691:6565   */\n    tag_71:\n        /* \"#utility.yul\":5946:5950   */\n      0x00\n        /* \"#utility.yul\":5984:5987   */\n      0xe0\n        /* \"#utility.yul\":5973:5982   */\n      dup3\n        /* \"#utility.yul\":5969:5988   */\n      add\n        /* \"#utility.yul\":5961:5988   */\n      swap1\n      pop\n        /* \"#utility.yul\":5998:6069   */\n      tag_349\n        /* \"#utility.yul\":6066:6067   */\n      0x00\n        /* \"#utility.yul\":6055:6064   */\n      dup4\n        /* \"#utility.yul\":6051:6068   */\n      add\n        /* \"#utility.yul\":6042:6048   */\n      dup11\n        /* \"#utility.yul\":5998:6069   */\n      tag_248\n      jump\t// in\n    tag_349:\n        /* \"#utility.yul\":6079:6151   */\n      tag_350\n        /* \"#utility.yul\":6147:6149   */\n      0x20\n        /* \"#utility.yul\":6136:6145   */\n      dup4\n        /* \"#utility.yul\":6132:6150   */\n      add\n        /* \"#utility.yul\":6123:6129   */\n      dup10\n        /* \"#utility.yul\":6079:6151   */\n      tag_224\n      jump\t// in\n    tag_350:\n        /* \"#utility.yul\":6161:6227   */\n      tag_351\n        /* \"#utility.yul\":6223:6225   */\n      0x40\n        /* \"#utility.yul\":6212:6221   */\n      dup4\n        /* \"#utility.yul\":6208:6226   */\n      add\n        /* \"#utility.yul\":6199:6205   */\n      dup9\n        /* \"#utility.yul\":6161:6227   */\n      tag_242\n      jump\t// in\n    tag_351:\n        /* \"#utility.yul\":6237:6309   */\n      tag_352\n        /* \"#utility.yul\":6305:6307   */\n      0x60\n        /* \"#utility.yul\":6294:6303   */\n      dup4\n        /* \"#utility.yul\":6290:6308   */\n      add\n        /* \"#utility.yul\":6281:6287   */\n      dup8\n        /* \"#utility.yul\":6237:6309   */\n      tag_224\n      jump\t// in\n    tag_352:\n        /* \"#utility.yul\":6319:6392   */\n      tag_353\n        /* \"#utility.yul\":6387:6390   */\n      0x80\n        /* \"#utility.yul\":6376:6385   */\n      dup4\n        /* \"#utility.yul\":6372:6391   */\n      add\n        /* \"#utility.yul\":6363:6369   */\n      dup7\n        /* \"#utility.yul\":6319:6392   */\n      tag_224\n      jump\t// in\n    tag_353:\n        /* \"#utility.yul\":6402:6475   */\n      tag_354\n        /* \"#utility.yul\":6470:6473   */\n      0xa0\n        /* \"#utility.yul\":6459:6468   */\n      dup4\n        /* \"#utility.yul\":6455:6474   */\n      add\n        /* \"#utility.yul\":6446:6452   */\n      dup6\n        /* \"#utility.yul\":6402:6475   */\n      tag_224\n      jump\t// in\n    tag_354:\n        /* \"#utility.yul\":6485:6558   */\n      tag_355\n        /* \"#utility.yul\":6553:6556   */\n      0xc0\n        /* \"#utility.yul\":6542:6551   */\n      dup4\n        /* \"#utility.yul\":6538:6557   */\n      add\n        /* \"#utility.yul\":6529:6535   */\n      dup5\n        /* \"#utility.yul\":6485:6558   */\n      tag_224\n      jump\t// in\n    tag_355:\n        /* \"#utility.yul\":5691:6565   */\n      swap9\n      swap8\n      pop\n      pop\n      pop\n      pop\n      pop\n      pop\n      pop\n      pop\n      jump\t// out\n        /* \"#utility.yul\":6571:7445   */\n    tag_78:\n        /* \"#utility.yul\":6826:6830   */\n      0x00\n        /* \"#utility.yul\":6864:6867   */\n      0xe0\n        /* \"#utility.yul\":6853:6862   */\n      dup3\n        /* \"#utility.yul\":6849:6868   */\n      add\n        /* \"#utility.yul\":6841:6868   */\n      swap1\n      pop\n        /* \"#utility.yul\":6878:6949   */\n      tag_357\n        /* \"#utility.yul\":6946:6947   */\n      0x00\n        /* \"#utility.yul\":6935:6944   */\n      dup4\n        /* \"#utility.yul\":6931:6948   */\n      add\n        /* \"#utility.yul\":6922:6928   */\n      dup11\n        /* \"#utility.yul\":6878:6949   */\n      tag_248\n      jump\t// in\n    tag_357:\n        /* \"#utility.yul\":6959:7031   */\n      tag_358\n        /* \"#utility.yul\":7027:7029   */\n      0x20\n        /* \"#utility.yul\":7016:7025   */\n      dup4\n        /* \"#utility.yul\":7012:7030   */\n      add\n        /* \"#utility.yul\":7003:7009   */\n      dup10\n        /* \"#utility.yul\":6959:7031   */\n      tag_224\n      jump\t// in\n    tag_358:\n        /* \"#utility.yul\":7041:7113   */\n      tag_359\n        /* \"#utility.yul\":7109:7111   */\n      0x40\n        /* \"#utility.yul\":7098:7107   */\n      dup4\n        /* \"#utility.yul\":7094:7112   */\n      add\n        /* \"#utility.yul\":7085:7091   */\n      dup9\n        /* \"#utility.yul\":7041:7113   */\n      tag_224\n      jump\t// in\n    tag_359:\n        /* \"#utility.yul\":7123:7195   */\n      tag_360\n        /* \"#utility.yul\":7191:7193   */\n      0x60\n        /* \"#utility.yul\":7180:7189   */\n      dup4\n        /* \"#utility.yul\":7176:7194   */\n      add\n        /* \"#utility.yul\":7167:7173   */\n      dup8\n        /* \"#utility.yul\":7123:7195   */\n      tag_224\n      jump\t// in\n    tag_360:\n        /* \"#utility.yul\":7205:7278   */\n      tag_361\n        /* \"#utility.yul\":7273:7276   */\n      0x80\n        /* \"#utility.yul\":7262:7271   */\n      dup4\n        /* \"#utility.yul\":7258:7277   */\n      add\n        /* \"#utility.yul\":7249:7255   */\n      dup7\n        /* \"#utility.yul\":7205:7278   */\n      tag_224\n      jump\t// in\n    tag_361:\n        /* \"#utility.yul\":7288:7355   */\n      tag_362\n        /* \"#utility.yul\":7350:7353   */\n      0xa0\n        /* \"#utility.yul\":7339:7348   */\n      dup4\n        /* \"#utility.yul\":7335:7354   */\n      add\n        /* \"#utility.yul\":7326:7332   */\n      dup6\n        /* \"#utility.yul\":7288:7355   */\n      tag_242\n      jump\t// in\n    tag_362:\n        /* \"#utility.yul\":7365:7438   */\n      tag_363\n        /* \"#utility.yul\":7433:7436   */\n      0xc0\n        /* \"#utility.yul\":7422:7431   */\n      dup4\n        /* \"#utility.yul\":7418:7437   */\n      add\n        /* \"#utility.yul\":7409:7415   */\n      dup5\n        /* \"#utility.yul\":7365:7438   */\n      tag_224\n      jump\t// in\n    tag_363:\n        /* \"#utility.yul\":6571:7445   */\n      swap9\n      swap8\n      pop\n      pop\n      pop\n      pop\n      pop\n      pop\n      pop\n      pop\n      jump\t// out\n        /* \"#utility.yul\":7451:7673   */\n    tag_89:\n        /* \"#utility.yul\":7544:7548   */\n      0x00\n        /* \"#utility.yul\":7582:7584   */\n      0x20\n        /* \"#utility.yul\":7571:7580   */\n      dup3\n        /* \"#utility.yul\":7567:7585   */\n      add\n        /* \"#utility.yul\":7559:7585   */\n      swap1\n      pop\n        /* \"#utility.yul\":7595:7666   */\n      tag_365\n        /* \"#utility.yul\":7663:7664   */\n      0x00\n        /* \"#utility.yul\":7652:7661   */\n      dup4\n        /* \"#utility.yul\":7648:7665   */\n      add\n        /* \"#utility.yul\":7639:7645   */\n      dup5\n        /* \"#utility.yul\":7595:7666   */\n      tag_248\n      jump\t// in\n    tag_365:\n        /* \"#utility.yul\":7451:7673   */\n      swap3\n      swap2\n      pop\n      pop\n      jump\t// out\n        /* \"#utility.yul\":7679:7848   */\n    tag_249:\n        /* \"#utility.yul\":7763:7774   */\n      0x00\n        /* \"#utility.yul\":7797:7803   */\n      dup3\n        /* \"#utility.yul\":7792:7795   */\n      dup3\n        /* \"#utility.yul\":7785:7804   */\n      mstore\n        /* \"#utility.yul\":7837:7841   */\n      0x20\n        /* \"#utility.yul\":7832:7835   */\n      dup3\n        /* \"#utility.yul\":7828:7842   */\n      add\n        /* \"#utility.yul\":7813:7842   */\n      swap1\n      pop\n        /* \"#utility.yul\":7679:7848   */\n      swap3\n      swap2\n      pop\n      pop\n      jump\t// out\n        /* \"#utility.yul\":7854:8153   */\n    tag_250:\n        /* \"#utility.yul\":7994:8028   */\n      0x436f6e7472616374206973207061757365642062792061646d696e20736f2075\n        /* \"#utility.yul\":7990:7991   */\n      0x00\n        /* \"#utility.yul\":7982:7988   */\n      dup3\n        /* \"#utility.yul\":7978:7992   */\n      add\n        /* \"#utility.yul\":7971:8029   */\n      mstore\n        /* \"#utility.yul\":8063:8097   */\n      0x2063616e206e6f7420706572666f726d20616e797468696e6720696e20746869\n        /* \"#utility.yul\":8058:8060   */\n      0x20\n        /* \"#utility.yul\":8050:8056   */\n      dup3\n        /* \"#utility.yul\":8046:8061   */\n      add\n        /* \"#utility.yul\":8039:8098   */\n      mstore\n        /* \"#utility.yul\":8132:8145   */\n      0x7320636f6e747261637421000000000000000000000000000000000000000000\n        /* \"#utility.yul\":8127:8129   */\n      0x40\n        /* \"#utility.yul\":8119:8125   */\n      dup3\n        /* \"#utility.yul\":8115:8130   */\n      add\n        /* \"#utility.yul\":8108:8146   */\n      mstore\n        /* \"#utility.yul\":7854:8153   */\n      pop\n      jump\t// out\n        /* \"#utility.yul\":8159:8525   */\n    tag_251:\n        /* \"#utility.yul\":8301:8304   */\n      0x00\n        /* \"#utility.yul\":8322:8389   */\n      tag_369\n        /* \"#utility.yul\":8386:8388   */\n      0x4b\n        /* \"#utility.yul\":8381:8384   */\n      dup4\n        /* \"#utility.yul\":8322:8389   */\n      tag_249\n      jump\t// in\n    tag_369:\n        /* \"#utility.yul\":8315:8389   */\n      swap2\n      pop\n        /* \"#utility.yul\":8398:8491   */\n      tag_370\n        /* \"#utility.yul\":8487:8490   */\n      dup3\n        /* \"#utility.yul\":8398:8491   */\n      tag_250\n      jump\t// in\n    tag_370:\n        /* \"#utility.yul\":8516:8518   */\n      0x60\n        /* \"#utility.yul\":8511:8514   */\n      dup3\n        /* \"#utility.yul\":8507:8519   */\n      add\n        /* \"#utility.yul\":8500:8519   */\n      swap1\n      pop\n        /* \"#utility.yul\":8159:8525   */\n      swap2\n      swap1\n      pop\n      jump\t// out\n        /* \"#utility.yul\":8531:8950   */\n    tag_93:\n        /* \"#utility.yul\":8697:8701   */\n      0x00\n        /* \"#utility.yul\":8735:8737   */\n      0x20\n        /* \"#utility.yul\":8724:8733   */\n      dup3\n        /* \"#utility.yul\":8720:8738   */\n      add\n        /* \"#utility.yul\":8712:8738   */\n      swap1\n      pop\n        /* \"#utility.yul\":8784:8793   */\n      dup2\n        /* \"#utility.yul\":8778:8782   */\n      dup2\n        /* \"#utility.yul\":8774:8794   */\n      sub\n        /* \"#utility.yul\":8770:8771   */\n      0x00\n        /* \"#utility.yul\":8759:8768   */\n      dup4\n        /* \"#utility.yul\":8755:8772   */\n      add\n        /* \"#utility.yul\":8748:8795   */\n      mstore\n        /* \"#utility.yul\":8812:8943   */\n      tag_372\n        /* \"#utility.yul\":8938:8942   */\n      dup2\n        /* \"#utility.yul\":8812:8943   */\n      tag_251\n      jump\t// in\n    tag_372:\n        /* \"#utility.yul\":8804:8943   */\n      swap1\n      pop\n        /* \"#utility.yul\":8531:8950   */\n      swap2\n      swap1\n      pop\n      jump\t// out\n        /* \"#utility.yul\":8956:9130   */\n    tag_252:\n        /* \"#utility.yul\":9096:9122   */\n      0x496e76616c696420726566657272657220616464726573730000000000000000\n        /* \"#utility.yul\":9092:9093   */\n      0x00\n        /* \"#utility.yul\":9084:9090   */\n      dup3\n        /* \"#utility.yul\":9080:9094   */\n      add\n        /* \"#utility.yul\":9073:9123   */\n      mstore\n        /* \"#utility.yul\":8956:9130   */\n      pop\n      jump\t// out\n        /* \"#utility.yul\":9136:9502   */\n    tag_253:\n        /* \"#utility.yul\":9278:9281   */\n      0x00\n        /* \"#utility.yul\":9299:9366   */\n      tag_375\n        /* \"#utility.yul\":9363:9365   */\n      0x18\n        /* \"#utility.yul\":9358:9361   */\n      dup4\n        /* \"#utility.yul\":9299:9366   */\n      tag_249\n      jump\t// in\n    tag_375:\n        /* \"#utility.yul\":9292:9366   */\n      swap2\n      pop\n        /* \"#utility.yul\":9375:9468   */\n      tag_376\n        /* \"#utility.yul\":9464:9467   */\n      dup3\n        /* \"#utility.yul\":9375:9468   */\n      tag_252\n      jump\t// in\n    tag_376:\n        /* \"#utility.yul\":9493:9495   */\n      0x20\n        /* \"#utility.yul\":9488:9491   */\n      dup3\n        /* \"#utility.yul\":9484:9496   */\n      add\n        /* \"#utility.yul\":9477:9496   */\n      swap1\n      pop\n        /* \"#utility.yul\":9136:9502   */\n      swap2\n      swap1\n      pop\n      jump\t// out\n        /* \"#utility.yul\":9508:9927   */\n    tag_100:\n        /* \"#utility.yul\":9674:9678   */\n      0x00\n        /* \"#utility.yul\":9712:9714   */\n      0x20\n        /* \"#utility.yul\":9701:9710   */\n      dup3\n        /* \"#utility.yul\":9697:9715   */\n      add\n        /* \"#utility.yul\":9689:9715   */\n      swap1\n      pop\n        /* \"#utility.yul\":9761:9770   */\n      dup2\n        /* \"#utility.yul\":9755:9759   */\n      dup2\n        /* \"#utility.yul\":9751:9771   */\n      sub\n        /* \"#utility.yul\":9747:9748   */\n      0x00\n        /* \"#utility.yul\":9736:9745   */\n      dup4\n        /* \"#utility.yul\":9732:9749   */\n      add\n        /* \"#utility.yul\":9725:9772   */\n      mstore\n        /* \"#utility.yul\":9789:9920   */\n      tag_378\n        /* \"#utility.yul\":9915:9919   */\n      dup2\n        /* \"#utility.yul\":9789:9920   */\n      tag_253\n      jump\t// in\n    tag_378:\n        /* \"#utility.yul\":9781:9920   */\n      swap1\n      pop\n        /* \"#utility.yul\":9508:9927   */\n      swap2\n      swap1\n      pop\n      jump\t// out\n        /* \"#utility.yul\":9933:10160   */\n    tag_254:\n        /* \"#utility.yul\":10073:10107   */\n      0x5468697320726566657272616c206163636f756e74206973206e6f7420726567\n        /* \"#utility.yul\":10069:10070   */\n      0x00\n        /* \"#utility.yul\":10061:10067   */\n      dup3\n        /* \"#utility.yul\":10057:10071   */\n      add\n        /* \"#utility.yul\":10050:10108   */\n      mstore\n        /* \"#utility.yul\":10142:10152   */\n      0x6973746572656421000000000000000000000000000000000000000000000000\n        /* \"#utility.yul\":10137:10139   */\n      0x20\n        /* \"#utility.yul\":10129:10135   */\n      dup3\n        /* \"#utility.yul\":10125:10140   */\n      add\n        /* \"#utility.yul\":10118:10153   */\n      mstore\n        /* \"#utility.yul\":9933:10160   */\n      pop\n      jump\t// out\n        /* \"#utility.yul\":10166:10532   */\n    tag_255:\n        /* \"#utility.yul\":10308:10311   */\n      0x00\n        /* \"#utility.yul\":10329:10396   */\n      tag_381\n        /* \"#utility.yul\":10393:10395   */\n      0x28\n        /* \"#utility.yul\":10388:10391   */\n      dup4\n        /* \"#utility.yul\":10329:10396   */\n      tag_249\n      jump\t// in\n    tag_381:\n        /* \"#utility.yul\":10322:10396   */\n      swap2\n      pop\n        /* \"#utility.yul\":10405:10498   */\n      tag_382\n        /* \"#utility.yul\":10494:10497   */\n      dup3\n        /* \"#utility.yul\":10405:10498   */\n      tag_254\n      jump\t// in\n    tag_382:\n        /* \"#utility.yul\":10523:10525   */\n      0x40\n        /* \"#utility.yul\":10518:10521   */\n      dup3\n        /* \"#utility.yul\":10514:10526   */\n      add\n        /* \"#utility.yul\":10507:10526   */\n      swap1\n      pop\n        /* \"#utility.yul\":10166:10532   */\n      swap2\n      swap1\n      pop\n      jump\t// out\n        /* \"#utility.yul\":10538:10957   */\n    tag_103:\n        /* \"#utility.yul\":10704:10708   */\n      0x00\n        /* \"#utility.yul\":10742:10744   */\n      0x20\n        /* \"#utility.yul\":10731:10740   */\n      dup3\n        /* \"#utility.yul\":10727:10745   */\n      add\n        /* \"#utility.yul\":10719:10745   */\n      swap1\n      pop\n        /* \"#utility.yul\":10791:10800   */\n      dup2\n        /* \"#utility.yul\":10785:10789   */\n      dup2\n        /* \"#utility.yul\":10781:10801   */\n      sub\n        /* \"#utility.yul\":10777:10778   */\n      0x00\n        /* \"#utility.yul\":10766:10775   */\n      dup4\n        /* \"#utility.yul\":10762:10779   */\n      add\n        /* \"#utility.yul\":10755:10802   */\n      mstore\n        /* \"#utility.yul\":10819:10950   */\n      tag_384\n        /* \"#utility.yul\":10945:10949   */\n      dup2\n        /* \"#utility.yul\":10819:10950   */\n      tag_255\n      jump\t// in\n    tag_384:\n        /* \"#utility.yul\":10811:10950   */\n      swap1\n      pop\n        /* \"#utility.yul\":10538:10957   */\n      swap2\n      swap1\n      pop\n      jump\t// out\n        /* \"#utility.yul\":10963:11134   */\n    tag_256:\n        /* \"#utility.yul\":11103:11126   */\n      0x43616e6e6f7420726566657220796f757273656c660000000000000000000000\n        /* \"#utility.yul\":11099:11100   */\n      0x00\n        /* \"#utility.yul\":11091:11097   */\n      dup3\n        /* \"#utility.yul\":11087:11101   */\n      add\n        /* \"#utility.yul\":11080:11127   */\n      mstore\n        /* \"#utility.yul\":10963:11134   */\n      pop\n      jump\t// out\n        /* \"#utility.yul\":11140:11506   */\n    tag_257:\n        /* \"#utility.yul\":11282:11285   */\n      0x00\n        /* \"#utility.yul\":11303:11370   */\n      tag_387\n        /* \"#utility.yul\":11367:11369   */\n      0x15\n        /* \"#utility.yul\":11362:11365   */\n      dup4\n        /* \"#utility.yul\":11303:11370   */\n      tag_249\n      jump\t// in\n    tag_387:\n        /* \"#utility.yul\":11296:11370   */\n      swap2\n      pop\n        /* \"#utility.yul\":11379:11472   */\n      tag_388\n        /* \"#utility.yul\":11468:11471   */\n      dup3\n        /* \"#utility.yul\":11379:11472   */\n      tag_256\n      jump\t// in\n    tag_388:\n        /* \"#utility.yul\":11497:11499   */\n      0x20\n        /* \"#utility.yul\":11492:11495   */\n      dup3\n        /* \"#utility.yul\":11488:11500   */\n      add\n        /* \"#utility.yul\":11481:11500   */\n      swap1\n      pop\n        /* \"#utility.yul\":11140:11506   */\n      swap2\n      swap1\n      pop\n      jump\t// out\n        /* \"#utility.yul\":11512:11931   */\n    tag_106:\n        /* \"#utility.yul\":11678:11682   */\n      0x00\n        /* \"#utility.yul\":11716:11718   */\n      0x20\n        /* \"#utility.yul\":11705:11714   */\n      dup3\n        /* \"#utility.yul\":11701:11719   */\n      add\n        /* \"#utility.yul\":11693:11719   */\n      swap1\n      pop\n        /* \"#utility.yul\":11765:11774   */\n      dup2\n        /* \"#utility.yul\":11759:11763   */\n      dup2\n        /* \"#utility.yul\":11755:11775   */\n      sub\n        /* \"#utility.yul\":11751:11752   */\n      0x00\n        /* \"#utility.yul\":11740:11749   */\n      dup4\n        /* \"#utility.yul\":11736:11753   */\n      add\n        /* \"#utility.yul\":11729:11776   */\n      mstore\n        /* \"#utility.yul\":11793:11924   */\n      tag_390\n        /* \"#utility.yul\":11919:11923   */\n      dup2\n        /* \"#utility.yul\":11793:11924   */\n      tag_257\n      jump\t// in\n    tag_390:\n        /* \"#utility.yul\":11785:11924   */\n      swap1\n      pop\n        /* \"#utility.yul\":11512:11931   */\n      swap2\n      swap1\n      pop\n      jump\t// out\n        /* \"#utility.yul\":11937:12159   */\n    tag_258:\n        /* \"#utility.yul\":12077:12111   */\n      0x54686973206163636f756e7420697320616c7265616479207265676973746572\n        /* \"#utility.yul\":12073:12074   */\n      0x00\n        /* \"#utility.yul\":12065:12071   */\n      dup3\n        /* \"#utility.yul\":12061:12075   */\n      add\n        /* \"#utility.yul\":12054:12112   */\n      mstore\n        /* \"#utility.yul\":12146:12151   */\n      0x6564210000000000000000000000000000000000000000000000000000000000\n        /* \"#utility.yul\":12141:12143   */\n      0x20\n        /* \"#utility.yul\":12133:12139   */\n      dup3\n        /* \"#utility.yul\":12129:12144   */\n      add\n        /* \"#utility.yul\":12122:12152   */\n      mstore\n        /* \"#utility.yul\":11937:12159   */\n      pop\n      jump\t// out\n        /* \"#utility.yul\":12165:12531   */\n    tag_259:\n        /* \"#utility.yul\":12307:12310   */\n      0x00\n        /* \"#utility.yul\":12328:12395   */\n      tag_393\n        /* \"#utility.yul\":12392:12394   */\n      0x23\n        /* \"#utility.yul\":12387:12390   */\n      dup4\n        /* \"#utility.yul\":12328:12395   */\n      tag_249\n      jump\t// in\n    tag_393:\n        /* \"#utility.yul\":12321:12395   */\n      swap2\n      pop\n        /* \"#utility.yul\":12404:12497   */\n      tag_394\n        /* \"#utility.yul\":12493:12496   */\n      dup3\n        /* \"#utility.yul\":12404:12497   */\n      tag_258\n      jump\t// in\n    tag_394:\n        /* \"#utility.yul\":12522:12524   */\n      0x40\n        /* \"#utility.yul\":12517:12520   */\n      dup3\n        /* \"#utility.yul\":12513:12525   */\n      add\n        /* \"#utility.yul\":12506:12525   */\n      swap1\n      pop\n        /* \"#utility.yul\":12165:12531   */\n      swap2\n      swap1\n      pop\n      jump\t// out\n        /* \"#utility.yul\":12537:12956   */\n    tag_109:\n        /* \"#utility.yul\":12703:12707   */\n      0x00\n        /* \"#utility.yul\":12741:12743   */\n      0x20\n        /* \"#utility.yul\":12730:12739   */\n      dup3\n        /* \"#utility.yul\":12726:12744   */\n      add\n        /* \"#utility.yul\":12718:12744   */\n      swap1\n      pop\n        /* \"#utility.yul\":12790:12799   */\n      dup2\n        /* \"#utility.yul\":12784:12788   */\n      dup2\n        /* \"#utility.yul\":12780:12800   */\n      sub\n        /* \"#utility.yul\":12776:12777   */\n      0x00\n        /* \"#utility.yul\":12765:12774   */\n      dup4\n        /* \"#utility.yul\":12761:12778   */\n      add\n        /* \"#utility.yul\":12754:12801   */\n      mstore\n        /* \"#utility.yul\":12818:12949   */\n      tag_396\n        /* \"#utility.yul\":12944:12948   */\n      dup2\n        /* \"#utility.yul\":12818:12949   */\n      tag_259\n      jump\t// in\n    tag_396:\n        /* \"#utility.yul\":12810:12949   */\n      swap1\n      pop\n        /* \"#utility.yul\":12537:12956   */\n      swap2\n      swap1\n      pop\n      jump\t// out\n        /* \"#utility.yul\":12962:13404   */\n    tag_111:\n        /* \"#utility.yul\":13111:13115   */\n      0x00\n        /* \"#utility.yul\":13149:13151   */\n      0x60\n        /* \"#utility.yul\":13138:13147   */\n      dup3\n        /* \"#utility.yul\":13134:13152   */\n      add\n        /* \"#utility.yul\":13126:13152   */\n      swap1\n      pop\n        /* \"#utility.yul\":13162:13233   */\n      tag_398\n        /* \"#utility.yul\":13230:13231   */\n      0x00\n        /* \"#utility.yul\":13219:13228   */\n      dup4\n        /* \"#utility.yul\":13215:13232   */\n      add\n        /* \"#utility.yul\":13206:13212   */\n      dup7\n        /* \"#utility.yul\":13162:13233   */\n      tag_248\n      jump\t// in\n    tag_398:\n        /* \"#utility.yul\":13243:13315   */\n      tag_399\n        /* \"#utility.yul\":13311:13313   */\n      0x20\n        /* \"#utility.yul\":13300:13309   */\n      dup4\n        /* \"#utility.yul\":13296:13314   */\n      add\n        /* \"#utility.yul\":13287:13293   */\n      dup6\n        /* \"#utility.yul\":13243:13315   */\n      tag_248\n      jump\t// in\n    tag_399:\n        /* \"#utility.yul\":13325:13397   */\n      tag_400\n        /* \"#utility.yul\":13393:13395   */\n      0x40\n        /* \"#utility.yul\":13382:13391   */\n      dup4\n        /* \"#utility.yul\":13378:13396   */\n      add\n        /* \"#utility.yul\":13369:13375   */\n      dup5\n        /* \"#utility.yul\":13325:13397   */\n      tag_224\n      jump\t// in\n    tag_400:\n        /* \"#utility.yul\":12962:13404   */\n      swap5\n      swap4\n      pop\n      pop\n      pop\n      pop\n      jump\t// out\n        /* \"#utility.yul\":13410:13526   */\n    tag_260:\n        /* \"#utility.yul\":13480:13501   */\n      tag_402\n        /* \"#utility.yul\":13495:13500   */\n      dup2\n        /* \"#utility.yul\":13480:13501   */\n      tag_241\n      jump\t// in\n    tag_402:\n        /* \"#utility.yul\":13473:13478   */\n      dup2\n        /* \"#utility.yul\":13470:13502   */\n      eq\n        /* \"#utility.yul\":13460:13520   */\n      tag_403\n      jumpi\n        /* \"#utility.yul\":13516:13517   */\n      0x00\n        /* \"#utility.yul\":13513:13514   */\n      dup1\n        /* \"#utility.yul\":13506:13518   */\n      revert\n        /* \"#utility.yul\":13460:13520   */\n    tag_403:\n        /* \"#utility.yul\":13410:13526   */\n      pop\n      jump\t// out\n        /* \"#utility.yul\":13532:13669   */\n    tag_261:\n        /* \"#utility.yul\":13586:13591   */\n      0x00\n        /* \"#utility.yul\":13617:13623   */\n      dup2\n        /* \"#utility.yul\":13611:13624   */\n      mload\n        /* \"#utility.yul\":13602:13624   */\n      swap1\n      pop\n        /* \"#utility.yul\":13633:13663   */\n      tag_405\n        /* \"#utility.yul\":13657:13662   */\n      dup2\n        /* \"#utility.yul\":13633:13663   */\n      tag_260\n      jump\t// in\n    tag_405:\n        /* \"#utility.yul\":13532:13669   */\n      swap3\n      swap2\n      pop\n      pop\n      jump\t// out\n        /* \"#utility.yul\":13675:14020   */\n    tag_115:\n        /* \"#utility.yul\":13742:13748   */\n      0x00\n        /* \"#utility.yul\":13791:13793   */\n      0x20\n        /* \"#utility.yul\":13779:13788   */\n      dup3\n        /* \"#utility.yul\":13770:13777   */\n      dup5\n        /* \"#utility.yul\":13766:13789   */\n      sub\n        /* \"#utility.yul\":13762:13794   */\n      slt\n        /* \"#utility.yul\":13759:13878   */\n      iszero\n      tag_407\n      jumpi\n        /* \"#utility.yul\":13797:13876   */\n      tag_408\n      tag_226\n      jump\t// in\n    tag_408:\n        /* \"#utility.yul\":13759:13878   */\n    tag_407:\n        /* \"#utility.yul\":13917:13918   */\n      0x00\n        /* \"#utility.yul\":13942:14003   */\n      tag_409\n        /* \"#utility.yul\":13995:14002   */\n      dup5\n        /* \"#utility.yul\":13986:13992   */\n      dup3\n        /* \"#utility.yul\":13975:13984   */\n      dup6\n        /* \"#utility.yul\":13971:13993   */\n      add\n        /* \"#utility.yul\":13942:14003   */\n      tag_261\n      jump\t// in\n    tag_409:\n        /* \"#utility.yul\":13932:14003   */\n      swap2\n      pop\n        /* \"#utility.yul\":13888:14013   */\n      pop\n        /* \"#utility.yul\":13675:14020   */\n      swap3\n      swap2\n      pop\n      pop\n      jump\t// out\n        /* \"#utility.yul\":14026:14191   */\n    tag_262:\n        /* \"#utility.yul\":14166:14183   */\n      0x7472616e73666572206661696c65640000000000000000000000000000000000\n        /* \"#utility.yul\":14162:14163   */\n      0x00\n        /* \"#utility.yul\":14154:14160   */\n      dup3\n        /* \"#utility.yul\":14150:14164   */\n      add\n        /* \"#utility.yul\":14143:14184   */\n      mstore\n        /* \"#utility.yul\":14026:14191   */\n      pop\n      jump\t// out\n        /* \"#utility.yul\":14197:14563   */\n    tag_263:\n        /* \"#utility.yul\":14339:14342   */\n      0x00\n        /* \"#utility.yul\":14360:14427   */\n      tag_412\n        /* \"#utility.yul\":14424:14426   */\n      0x0f\n        /* \"#utility.yul\":14419:14422   */\n      dup4\n        /* \"#utility.yul\":14360:14427   */\n      tag_249\n      jump\t// in\n    tag_412:\n        /* \"#utility.yul\":14353:14427   */\n      swap2\n      pop\n        /* \"#utility.yul\":14436:14529   */\n      tag_413\n        /* \"#utility.yul\":14525:14528   */\n      dup3\n        /* \"#utility.yul\":14436:14529   */\n      tag_262\n      jump\t// in\n    tag_413:\n        /* \"#utility.yul\":14554:14556   */\n      0x20\n        /* \"#utility.yul\":14549:14552   */\n      dup3\n        /* \"#utility.yul\":14545:14557   */\n      add\n        /* \"#utility.yul\":14538:14557   */\n      swap1\n      pop\n        /* \"#utility.yul\":14197:14563   */\n      swap2\n      swap1\n      pop\n      jump\t// out\n        /* \"#utility.yul\":14569:14988   */\n    tag_118:\n        /* \"#utility.yul\":14735:14739   */\n      0x00\n        /* \"#utility.yul\":14773:14775   */\n      0x20\n        /* \"#utility.yul\":14762:14771   */\n      dup3\n        /* \"#utility.yul\":14758:14776   */\n      add\n        /* \"#utility.yul\":14750:14776   */\n      swap1\n      pop\n        /* \"#utility.yul\":14822:14831   */\n      dup2\n        /* \"#utility.yul\":14816:14820   */\n      dup2\n        /* \"#utility.yul\":14812:14832   */\n      sub\n        /* \"#utility.yul\":14808:14809   */\n      0x00\n        /* \"#utility.yul\":14797:14806   */\n      dup4\n        /* \"#utility.yul\":14793:14810   */\n      add\n        /* \"#utility.yul\":14786:14833   */\n      mstore\n        /* \"#utility.yul\":14850:14981   */\n      tag_415\n        /* \"#utility.yul\":14976:14980   */\n      dup2\n        /* \"#utility.yul\":14850:14981   */\n      tag_263\n      jump\t// in\n    tag_415:\n        /* \"#utility.yul\":14842:14981   */\n      swap1\n      pop\n        /* \"#utility.yul\":14569:14988   */\n      swap2\n      swap1\n      pop\n      jump\t// out\n        /* \"#utility.yul\":14994:15231   */\n    tag_264:\n        /* \"#utility.yul\":15134:15168   */\n      0x5468697320616374696f6e2063616e20626520706572666f726d656420627920\n        /* \"#utility.yul\":15130:15131   */\n      0x00\n        /* \"#utility.yul\":15122:15128   */\n      dup3\n        /* \"#utility.yul\":15118:15132   */\n      add\n        /* \"#utility.yul\":15111:15169   */\n      mstore\n        /* \"#utility.yul\":15203:15223   */\n      0x74686520636f6e7472616374206f776e65720000000000000000000000000000\n        /* \"#utility.yul\":15198:15200   */\n      0x20\n        /* \"#utility.yul\":15190:15196   */\n      dup3\n        /* \"#utility.yul\":15186:15201   */\n      add\n        /* \"#utility.yul\":15179:15224   */\n      mstore\n        /* \"#utility.yul\":14994:15231   */\n      pop\n      jump\t// out\n        /* \"#utility.yul\":15237:15603   */\n    tag_265:\n        /* \"#utility.yul\":15379:15382   */\n      0x00\n        /* \"#utility.yul\":15400:15467   */\n      tag_418\n        /* \"#utility.yul\":15464:15466   */\n      0x32\n        /* \"#utility.yul\":15459:15462   */\n      dup4\n        /* \"#utility.yul\":15400:15467   */\n      tag_249\n      jump\t// in\n    tag_418:\n        /* \"#utility.yul\":15393:15467   */\n      swap2\n      pop\n        /* \"#utility.yul\":15476:15569   */\n      tag_419\n        /* \"#utility.yul\":15565:15568   */\n      dup3\n        /* \"#utility.yul\":15476:15569   */\n      tag_264\n      jump\t// in\n    tag_419:\n        /* \"#utility.yul\":15594:15596   */\n      0x40\n        /* \"#utility.yul\":15589:15592   */\n      dup3\n        /* \"#utility.yul\":15585:15597   */\n      add\n        /* \"#utility.yul\":15578:15597   */\n      swap1\n      pop\n        /* \"#utility.yul\":15237:15603   */\n      swap2\n      swap1\n      pop\n      jump\t// out\n        /* \"#utility.yul\":15609:16028   */\n    tag_129:\n        /* \"#utility.yul\":15775:15779   */\n      0x00\n        /* \"#utility.yul\":15813:15815   */\n      0x20\n        /* \"#utility.yul\":15802:15811   */\n      dup3\n        /* \"#utility.yul\":15798:15816   */\n      add\n        /* \"#utility.yul\":15790:15816   */\n      swap1\n      pop\n        /* \"#utility.yul\":15862:15871   */\n      dup2\n        /* \"#utility.yul\":15856:15860   */\n      dup2\n        /* \"#utility.yul\":15852:15872   */\n      sub\n        /* \"#utility.yul\":15848:15849   */\n      0x00\n        /* \"#utility.yul\":15837:15846   */\n      dup4\n        /* \"#utility.yul\":15833:15850   */\n      add\n        /* \"#utility.yul\":15826:15873   */\n      mstore\n        /* \"#utility.yul\":15890:16021   */\n      tag_421\n        /* \"#utility.yul\":16016:16020   */\n      dup2\n        /* \"#utility.yul\":15890:16021   */\n      tag_265\n      jump\t// in\n    tag_421:\n        /* \"#utility.yul\":15882:16021   */\n      swap1\n      pop\n        /* \"#utility.yul\":15609:16028   */\n      swap2\n      swap1\n      pop\n      jump\t// out\n        /* \"#utility.yul\":16034:16366   */\n    tag_132:\n        /* \"#utility.yul\":16155:16159   */\n      0x00\n        /* \"#utility.yul\":16193:16195   */\n      0x40\n        /* \"#utility.yul\":16182:16191   */\n      dup3\n        /* \"#utility.yul\":16178:16196   */\n      add\n        /* \"#utility.yul\":16170:16196   */\n      swap1\n      pop\n        /* \"#utility.yul\":16206:16277   */\n      tag_423\n        /* \"#utility.yul\":16274:16275   */\n      0x00\n        /* \"#utility.yul\":16263:16272   */\n      dup4\n        /* \"#utility.yul\":16259:16276   */\n      add\n        /* \"#utility.yul\":16250:16256   */\n      dup6\n        /* \"#utility.yul\":16206:16277   */\n      tag_248\n      jump\t// in\n    tag_423:\n        /* \"#utility.yul\":16287:16359   */\n      tag_424\n        /* \"#utility.yul\":16355:16357   */\n      0x20\n        /* \"#utility.yul\":16344:16353   */\n      dup4\n        /* \"#utility.yul\":16340:16358   */\n      add\n        /* \"#utility.yul\":16331:16337   */\n      dup5\n        /* \"#utility.yul\":16287:16359   */\n      tag_224\n      jump\t// in\n    tag_424:\n        /* \"#utility.yul\":16034:16366   */\n      swap4\n      swap3\n      pop\n      pop\n      pop\n      jump\t// out\n        /* \"#utility.yul\":16372:16537   */\n    tag_266:\n        /* \"#utility.yul\":16512:16529   */\n      0x696e76616c6964206e6577206273740000000000000000000000000000000000\n        /* \"#utility.yul\":16508:16509   */\n      0x00\n        /* \"#utility.yul\":16500:16506   */\n      dup3\n        /* \"#utility.yul\":16496:16510   */\n      add\n        /* \"#utility.yul\":16489:16530   */\n      mstore\n        /* \"#utility.yul\":16372:16537   */\n      pop\n      jump\t// out\n        /* \"#utility.yul\":16543:16909   */\n    tag_267:\n        /* \"#utility.yul\":16685:16688   */\n      0x00\n        /* \"#utility.yul\":16706:16773   */\n      tag_427\n        /* \"#utility.yul\":16770:16772   */\n      0x0f\n        /* \"#utility.yul\":16765:16768   */\n      dup4\n        /* \"#utility.yul\":16706:16773   */\n      tag_249\n      jump\t// in\n    tag_427:\n        /* \"#utility.yul\":16699:16773   */\n      swap2\n      pop\n        /* \"#utility.yul\":16782:16875   */\n      tag_428\n        /* \"#utility.yul\":16871:16874   */\n      dup3\n        /* \"#utility.yul\":16782:16875   */\n      tag_266\n      jump\t// in\n    tag_428:\n        /* \"#utility.yul\":16900:16902   */\n      0x20\n        /* \"#utility.yul\":16895:16898   */\n      dup3\n        /* \"#utility.yul\":16891:16903   */\n      add\n        /* \"#utility.yul\":16884:16903   */\n      swap1\n      pop\n        /* \"#utility.yul\":16543:16909   */\n      swap2\n      swap1\n      pop\n      jump\t// out\n        /* \"#utility.yul\":16915:17334   */\n    tag_147:\n        /* \"#utility.yul\":17081:17085   */\n      0x00\n        /* \"#utility.yul\":17119:17121   */\n      0x20\n        /* \"#utility.yul\":17108:17117   */\n      dup3\n        /* \"#utility.yul\":17104:17122   */\n      add\n        /* \"#utility.yul\":17096:17122   */\n      swap1\n      pop\n        /* \"#utility.yul\":17168:17177   */\n      dup2\n        /* \"#utility.yul\":17162:17166   */\n      dup2\n        /* \"#utility.yul\":17158:17178   */\n      sub\n        /* \"#utility.yul\":17154:17155   */\n      0x00\n        /* \"#utility.yul\":17143:17152   */\n      dup4\n        /* \"#utility.yul\":17139:17156   */\n      add\n        /* \"#utility.yul\":17132:17179   */\n      mstore\n        /* \"#utility.yul\":17196:17327   */\n      tag_430\n        /* \"#utility.yul\":17322:17326   */\n      dup2\n        /* \"#utility.yul\":17196:17327   */\n      tag_267\n      jump\t// in\n    tag_430:\n        /* \"#utility.yul\":17188:17327   */\n      swap1\n      pop\n        /* \"#utility.yul\":16915:17334   */\n      swap2\n      swap1\n      pop\n      jump\t// out\n        /* \"#utility.yul\":17340:17508   */\n    tag_268:\n        /* \"#utility.yul\":17480:17500   */\n      0x696e76616c69642070657263656e746167650000000000000000000000000000\n        /* \"#utility.yul\":17476:17477   */\n      0x00\n        /* \"#utility.yul\":17468:17474   */\n      dup3\n        /* \"#utility.yul\":17464:17478   */\n      add\n        /* \"#utility.yul\":17457:17501   */\n      mstore\n        /* \"#utility.yul\":17340:17508   */\n      pop\n      jump\t// out\n        /* \"#utility.yul\":17514:17880   */\n    tag_269:\n        /* \"#utility.yul\":17656:17659   */\n      0x00\n        /* \"#utility.yul\":17677:17744   */\n      tag_433\n        /* \"#utility.yul\":17741:17743   */\n      0x12\n        /* \"#utility.yul\":17736:17739   */\n      dup4\n        /* \"#utility.yul\":17677:17744   */\n      tag_249\n      jump\t// in\n    tag_433:\n        /* \"#utility.yul\":17670:17744   */\n      swap2\n      pop\n        /* \"#utility.yul\":17753:17846   */\n      tag_434\n        /* \"#utility.yul\":17842:17845   */\n      dup3\n        /* \"#utility.yul\":17753:17846   */\n      tag_268\n      jump\t// in\n    tag_434:\n        /* \"#utility.yul\":17871:17873   */\n      0x20\n        /* \"#utility.yul\":17866:17869   */\n      dup3\n        /* \"#utility.yul\":17862:17874   */\n      add\n        /* \"#utility.yul\":17855:17874   */\n      swap1\n      pop\n        /* \"#utility.yul\":17514:17880   */\n      swap2\n      swap1\n      pop\n      jump\t// out\n        /* \"#utility.yul\":17886:18305   */\n    tag_160:\n        /* \"#utility.yul\":18052:18056   */\n      0x00\n        /* \"#utility.yul\":18090:18092   */\n      0x20\n        /* \"#utility.yul\":18079:18088   */\n      dup3\n        /* \"#utility.yul\":18075:18093   */\n      add\n        /* \"#utility.yul\":18067:18093   */\n      swap1\n      pop\n        /* \"#utility.yul\":18139:18148   */\n      dup2\n        /* \"#utility.yul\":18133:18137   */\n      dup2\n        /* \"#utility.yul\":18129:18149   */\n      sub\n        /* \"#utility.yul\":18125:18126   */\n      0x00\n        /* \"#utility.yul\":18114:18123   */\n      dup4\n        /* \"#utility.yul\":18110:18127   */\n      add\n        /* \"#utility.yul\":18103:18150   */\n      mstore\n        /* \"#utility.yul\":18167:18298   */\n      tag_436\n        /* \"#utility.yul\":18293:18297   */\n      dup2\n        /* \"#utility.yul\":18167:18298   */\n      tag_269\n      jump\t// in\n    tag_436:\n        /* \"#utility.yul\":18159:18298   */\n      swap1\n      pop\n        /* \"#utility.yul\":17886:18305   */\n      swap2\n      swap1\n      pop\n      jump\t// out\n        /* \"#utility.yul\":18311:18491   */\n    tag_270:\n        /* \"#utility.yul\":18359:18436   */\n      0x4e487b7100000000000000000000000000000000000000000000000000000000\n        /* \"#utility.yul\":18356:18357   */\n      0x00\n        /* \"#utility.yul\":18349:18437   */\n      mstore\n        /* \"#utility.yul\":18456:18460   */\n      0x11\n        /* \"#utility.yul\":18453:18454   */\n      0x04\n        /* \"#utility.yul\":18446:18461   */\n      mstore\n        /* \"#utility.yul\":18480:18484   */\n      0x24\n        /* \"#utility.yul\":18477:18478   */\n      0x00\n        /* \"#utility.yul\":18470:18485   */\n      revert\n        /* \"#utility.yul\":18497:18907   */\n    tag_162:\n        /* \"#utility.yul\":18537:18544   */\n      0x00\n        /* \"#utility.yul\":18560:18580   */\n      tag_439\n        /* \"#utility.yul\":18578:18579   */\n      dup3\n        /* \"#utility.yul\":18560:18580   */\n      tag_223\n      jump\t// in\n    tag_439:\n        /* \"#utility.yul\":18555:18580   */\n      swap2\n      pop\n        /* \"#utility.yul\":18594:18614   */\n      tag_440\n        /* \"#utility.yul\":18612:18613   */\n      dup4\n        /* \"#utility.yul\":18594:18614   */\n      tag_223\n      jump\t// in\n    tag_440:\n        /* \"#utility.yul\":18589:18614   */\n      swap3\n      pop\n        /* \"#utility.yul\":18649:18650   */\n      dup3\n        /* \"#utility.yul\":18646:18647   */\n      dup3\n        /* \"#utility.yul\":18642:18651   */\n      mul\n        /* \"#utility.yul\":18671:18701   */\n      tag_441\n        /* \"#utility.yul\":18689:18700   */\n      dup2\n        /* \"#utility.yul\":18671:18701   */\n      tag_223\n      jump\t// in\n    tag_441:\n        /* \"#utility.yul\":18660:18701   */\n      swap2\n      pop\n        /* \"#utility.yul\":18850:18851   */\n      dup3\n        /* \"#utility.yul\":18841:18848   */\n      dup3\n        /* \"#utility.yul\":18837:18852   */\n      div\n        /* \"#utility.yul\":18834:18835   */\n      dup5\n        /* \"#utility.yul\":18831:18853   */\n      eq\n        /* \"#utility.yul\":18811:18812   */\n      dup4\n        /* \"#utility.yul\":18804:18813   */\n      iszero\n        /* \"#utility.yul\":18784:18867   */\n      or\n        /* \"#utility.yul\":18761:18900   */\n      tag_442\n      jumpi\n        /* \"#utility.yul\":18880:18898   */\n      tag_443\n      tag_270\n      jump\t// in\n    tag_443:\n        /* \"#utility.yul\":18761:18900   */\n    tag_442:\n        /* \"#utility.yul\":18545:18907   */\n      pop\n        /* \"#utility.yul\":18497:18907   */\n      swap3\n      swap2\n      pop\n      pop\n      jump\t// out\n        /* \"#utility.yul\":18913:19056   */\n    tag_271:\n        /* \"#utility.yul\":18970:18975   */\n      0x00\n        /* \"#utility.yul\":19001:19007   */\n      dup2\n        /* \"#utility.yul\":18995:19008   */\n      mload\n        /* \"#utility.yul\":18986:19008   */\n      swap1\n      pop\n        /* \"#utility.yul\":19017:19050   */\n      tag_445\n        /* \"#utility.yul\":19044:19049   */\n      dup2\n        /* \"#utility.yul\":19017:19050   */\n      tag_232\n      jump\t// in\n    tag_445:\n        /* \"#utility.yul\":18913:19056   */\n      swap3\n      swap2\n      pop\n      pop\n      jump\t// out\n        /* \"#utility.yul\":19062:19413   */\n    tag_168:\n        /* \"#utility.yul\":19132:19138   */\n      0x00\n        /* \"#utility.yul\":19181:19183   */\n      0x20\n        /* \"#utility.yul\":19169:19178   */\n      dup3\n        /* \"#utility.yul\":19160:19167   */\n      dup5\n        /* \"#utility.yul\":19156:19179   */\n      sub\n        /* \"#utility.yul\":19152:19184   */\n      slt\n        /* \"#utility.yul\":19149:19268   */\n      iszero\n      tag_447\n      jumpi\n        /* \"#utility.yul\":19187:19266   */\n      tag_448\n      tag_226\n      jump\t// in\n    tag_448:\n        /* \"#utility.yul\":19149:19268   */\n    tag_447:\n        /* \"#utility.yul\":19307:19308   */\n      0x00\n        /* \"#utility.yul\":19332:19396   */\n      tag_449\n        /* \"#utility.yul\":19388:19395   */\n      dup5\n        /* \"#utility.yul\":19379:19385   */\n      dup3\n        /* \"#utility.yul\":19368:19377   */\n      dup6\n        /* \"#utility.yul\":19364:19386   */\n      add\n        /* \"#utility.yul\":19332:19396   */\n      tag_271\n      jump\t// in\n    tag_449:\n        /* \"#utility.yul\":19322:19396   */\n      swap2\n      pop\n        /* \"#utility.yul\":19278:19406   */\n      pop\n        /* \"#utility.yul\":19062:19413   */\n      swap3\n      swap2\n      pop\n      pop\n      jump\t// out\n        /* \"#utility.yul\":19419:19586   */\n    tag_272:\n        /* \"#utility.yul\":19559:19578   */\n      0x496e76616c6964206e6577206f776e6572000000000000000000000000000000\n        /* \"#utility.yul\":19555:19556   */\n      0x00\n        /* \"#utility.yul\":19547:19553   */\n      dup3\n        /* \"#utility.yul\":19543:19557   */\n      add\n        /* \"#utility.yul\":19536:19579   */\n      mstore\n        /* \"#utility.yul\":19419:19586   */\n      pop\n      jump\t// out\n        /* \"#utility.yul\":19592:19958   */\n    tag_273:\n        /* \"#utility.yul\":19734:19737   */\n      0x00\n        /* \"#utility.yul\":19755:19822   */\n      tag_452\n        /* \"#utility.yul\":19819:19821   */\n      0x11\n        /* \"#utility.yul\":19814:19817   */\n      dup4\n        /* \"#utility.yul\":19755:19822   */\n      tag_249\n      jump\t// in\n    tag_452:\n        /* \"#utility.yul\":19748:19822   */\n      swap2\n      pop\n        /* \"#utility.yul\":19831:19924   */\n      tag_453\n        /* \"#utility.yul\":19920:19923   */\n      dup3\n        /* \"#utility.yul\":19831:19924   */\n      tag_272\n      jump\t// in\n    tag_453:\n        /* \"#utility.yul\":19949:19951   */\n      0x20\n        /* \"#utility.yul\":19944:19947   */\n      dup3\n        /* \"#utility.yul\":19940:19952   */\n      add\n        /* \"#utility.yul\":19933:19952   */\n      swap1\n      pop\n        /* \"#utility.yul\":19592:19958   */\n      swap2\n      swap1\n      pop\n      jump\t// out\n        /* \"#utility.yul\":19964:20383   */\n    tag_183:\n        /* \"#utility.yul\":20130:20134   */\n      0x00\n        /* \"#utility.yul\":20168:20170   */\n      0x20\n        /* \"#utility.yul\":20157:20166   */\n      dup3\n        /* \"#utility.yul\":20153:20171   */\n      add\n        /* \"#utility.yul\":20145:20171   */\n      swap1\n      pop\n        /* \"#utility.yul\":20217:20226   */\n      dup2\n        /* \"#utility.yul\":20211:20215   */\n      dup2\n        /* \"#utility.yul\":20207:20227   */\n      sub\n        /* \"#utility.yul\":20203:20204   */\n      0x00\n        /* \"#utility.yul\":20192:20201   */\n      dup4\n        /* \"#utility.yul\":20188:20205   */\n      add\n        /* \"#utility.yul\":20181:20228   */\n      mstore\n        /* \"#utility.yul\":20245:20376   */\n      tag_455\n        /* \"#utility.yul\":20371:20375   */\n      dup2\n        /* \"#utility.yul\":20245:20376   */\n      tag_273\n      jump\t// in\n    tag_455:\n        /* \"#utility.yul\":20237:20376   */\n      swap1\n      pop\n        /* \"#utility.yul\":19964:20383   */\n      swap2\n      swap1\n      pop\n      jump\t// out\n        /* \"#utility.yul\":20389:20570   */\n    tag_274:\n        /* \"#utility.yul\":20529:20562   */\n      0x5265656e7472616e637947756172643a207265656e7472616e742063616c6c00\n        /* \"#utility.yul\":20525:20526   */\n      0x00\n        /* \"#utility.yul\":20517:20523   */\n      dup3\n        /* \"#utility.yul\":20513:20527   */\n      add\n        /* \"#utility.yul\":20506:20563   */\n      mstore\n        /* \"#utility.yul\":20389:20570   */\n      pop\n      jump\t// out\n        /* \"#utility.yul\":20576:20942   */\n    tag_275:\n        /* \"#utility.yul\":20718:20721   */\n      0x00\n        /* \"#utility.yul\":20739:20806   */\n      tag_458\n        /* \"#utility.yul\":20803:20805   */\n      0x1f\n        /* \"#utility.yul\":20798:20801   */\n      dup4\n        /* \"#utility.yul\":20739:20806   */\n      tag_249\n      jump\t// in\n    tag_458:\n        /* \"#utility.yul\":20732:20806   */\n      swap2\n      pop\n        /* \"#utility.yul\":20815:20908   */\n      tag_459\n        /* \"#utility.yul\":20904:20907   */\n      dup3\n        /* \"#utility.yul\":20815:20908   */\n      tag_274\n      jump\t// in\n    tag_459:\n        /* \"#utility.yul\":20933:20935   */\n      0x20\n        /* \"#utility.yul\":20928:20931   */\n      dup3\n        /* \"#utility.yul\":20924:20936   */\n      add\n        /* \"#utility.yul\":20917:20936   */\n      swap1\n      pop\n        /* \"#utility.yul\":20576:20942   */\n      swap2\n      swap1\n      pop\n      jump\t// out\n        /* \"#utility.yul\":20948:21367   */\n    tag_187:\n        /* \"#utility.yul\":21114:21118   */\n      0x00\n        /* \"#utility.yul\":21152:21154   */\n      0x20\n        /* \"#utility.yul\":21141:21150   */\n      dup3\n        /* \"#utility.yul\":21137:21155   */\n      add\n        /* \"#utility.yul\":21129:21155   */\n      swap1\n      pop\n        /* \"#utility.yul\":21201:21210   */\n      dup2\n        /* \"#utility.yul\":21195:21199   */\n      dup2\n        /* \"#utility.yul\":21191:21211   */\n      sub\n        /* \"#utility.yul\":21187:21188   */\n      0x00\n        /* \"#utility.yul\":21176:21185   */\n      dup4\n        /* \"#utility.yul\":21172:21189   */\n      add\n        /* \"#utility.yul\":21165:21212   */\n      mstore\n        /* \"#utility.yul\":21229:21360   */\n      tag_461\n        /* \"#utility.yul\":21355:21359   */\n      dup2\n        /* \"#utility.yul\":21229:21360   */\n      tag_275\n      jump\t// in\n    tag_461:\n        /* \"#utility.yul\":21221:21360   */\n      swap1\n      pop\n        /* \"#utility.yul\":20948:21367   */\n      swap2\n      swap1\n      pop\n      jump\t// out\n        /* \"#utility.yul\":21373:21553   */\n    tag_196:\n        /* \"#utility.yul\":21421:21498   */\n      0x4e487b7100000000000000000000000000000000000000000000000000000000\n        /* \"#utility.yul\":21418:21419   */\n      0x00\n        /* \"#utility.yul\":21411:21499   */\n      mstore\n        /* \"#utility.yul\":21518:21522   */\n      0x32\n        /* \"#utility.yul\":21515:21516   */\n      0x04\n        /* \"#utility.yul\":21508:21523   */\n      mstore\n        /* \"#utility.yul\":21542:21546   */\n      0x24\n        /* \"#utility.yul\":21539:21540   */\n      0x00\n        /* \"#utility.yul\":21532:21547   */\n      revert\n        /* \"#utility.yul\":21559:21739   */\n    tag_276:\n        /* \"#utility.yul\":21607:21684   */\n      0x4e487b7100000000000000000000000000000000000000000000000000000000\n        /* \"#utility.yul\":21604:21605   */\n      0x00\n        /* \"#utility.yul\":21597:21685   */\n      mstore\n        /* \"#utility.yul\":21704:21708   */\n      0x12\n        /* \"#utility.yul\":21701:21702   */\n      0x04\n        /* \"#utility.yul\":21694:21709   */\n      mstore\n        /* \"#utility.yul\":21728:21732   */\n      0x24\n        /* \"#utility.yul\":21725:21726   */\n      0x00\n        /* \"#utility.yul\":21718:21733   */\n      revert\n        /* \"#utility.yul\":21745:21930   */\n    tag_200:\n        /* \"#utility.yul\":21785:21786   */\n      0x00\n        /* \"#utility.yul\":21802:21822   */\n      tag_465\n        /* \"#utility.yul\":21820:21821   */\n      dup3\n        /* \"#utility.yul\":21802:21822   */\n      tag_223\n      jump\t// in\n    tag_465:\n        /* \"#utility.yul\":21797:21822   */\n      swap2\n      pop\n        /* \"#utility.yul\":21836:21856   */\n      tag_466\n        /* \"#utility.yul\":21854:21855   */\n      dup4\n        /* \"#utility.yul\":21836:21856   */\n      tag_223\n      jump\t// in\n    tag_466:\n        /* \"#utility.yul\":21831:21856   */\n      swap3\n      pop\n        /* \"#utility.yul\":21875:21876   */\n      dup3\n        /* \"#utility.yul\":21865:21900   */\n      tag_467\n      jumpi\n        /* \"#utility.yul\":21880:21898   */\n      tag_468\n      tag_276\n      jump\t// in\n    tag_468:\n        /* \"#utility.yul\":21865:21900   */\n    tag_467:\n        /* \"#utility.yul\":21922:21923   */\n      dup3\n        /* \"#utility.yul\":21919:21920   */\n      dup3\n        /* \"#utility.yul\":21915:21924   */\n      div\n        /* \"#utility.yul\":21910:21924   */\n      swap1\n      pop\n        /* \"#utility.yul\":21745:21930   */\n      swap3\n      swap2\n      pop\n      pop\n      jump\t// out\n        /* \"#utility.yul\":21936:22108   */\n    tag_277:\n        /* \"#utility.yul\":22076:22100   */\n      0x526577617264207472616e73666572206661696c656400000000000000000000\n        /* \"#utility.yul\":22072:22073   */\n      0x00\n        /* \"#utility.yul\":22064:22070   */\n      dup3\n        /* \"#utility.yul\":22060:22074   */\n      add\n        /* \"#utility.yul\":22053:22101   */\n      mstore\n        /* \"#utility.yul\":21936:22108   */\n      pop\n      jump\t// out\n        /* \"#utility.yul\":22114:22480   */\n    tag_278:\n        /* \"#utility.yul\":22256:22259   */\n      0x00\n        /* \"#utility.yul\":22277:22344   */\n      tag_471\n        /* \"#utility.yul\":22341:22343   */\n      0x16\n        /* \"#utility.yul\":22336:22339   */\n      dup4\n        /* \"#utility.yul\":22277:22344   */\n      tag_249\n      jump\t// in\n    tag_471:\n        /* \"#utility.yul\":22270:22344   */\n      swap2\n      pop\n        /* \"#utility.yul\":22353:22446   */\n      tag_472\n        /* \"#utility.yul\":22442:22445   */\n      dup3\n        /* \"#utility.yul\":22353:22446   */\n      tag_277\n      jump\t// in\n    tag_472:\n        /* \"#utility.yul\":22471:22473   */\n      0x20\n        /* \"#utility.yul\":22466:22469   */\n      dup3\n        /* \"#utility.yul\":22462:22474   */\n      add\n        /* \"#utility.yul\":22455:22474   */\n      swap1\n      pop\n        /* \"#utility.yul\":22114:22480   */\n      swap2\n      swap1\n      pop\n      jump\t// out\n        /* \"#utility.yul\":22486:22905   */\n    tag_207:\n        /* \"#utility.yul\":22652:22656   */\n      0x00\n        /* \"#utility.yul\":22690:22692   */\n      0x20\n        /* \"#utility.yul\":22679:22688   */\n      dup3\n        /* \"#utility.yul\":22675:22693   */\n      add\n        /* \"#utility.yul\":22667:22693   */\n      swap1\n      pop\n        /* \"#utility.yul\":22739:22748   */\n      dup2\n        /* \"#utility.yul\":22733:22737   */\n      dup2\n        /* \"#utility.yul\":22729:22749   */\n      sub\n        /* \"#utility.yul\":22725:22726   */\n      0x00\n        /* \"#utility.yul\":22714:22723   */\n      dup4\n        /* \"#utility.yul\":22710:22727   */\n      add\n        /* \"#utility.yul\":22703:22750   */\n      mstore\n        /* \"#utility.yul\":22767:22898   */\n      tag_474\n        /* \"#utility.yul\":22893:22897   */\n      dup2\n        /* \"#utility.yul\":22767:22898   */\n      tag_278\n      jump\t// in\n    tag_474:\n        /* \"#utility.yul\":22759:22898   */\n      swap1\n      pop\n        /* \"#utility.yul\":22486:22905   */\n      swap2\n      swap1\n      pop\n      jump\t// out\n        /* \"#utility.yul\":22911:23102   */\n    tag_209:\n        /* \"#utility.yul\":22951:22954   */\n      0x00\n        /* \"#utility.yul\":22970:22990   */\n      tag_476\n        /* \"#utility.yul\":22988:22989   */\n      dup3\n        /* \"#utility.yul\":22970:22990   */\n      tag_223\n      jump\t// in\n    tag_476:\n        /* \"#utility.yul\":22965:22990   */\n      swap2\n      pop\n        /* \"#utility.yul\":23004:23024   */\n      tag_477\n        /* \"#utility.yul\":23022:23023   */\n      dup4\n        /* \"#utility.yul\":23004:23024   */\n      tag_223\n      jump\t// in\n    tag_477:\n        /* \"#utility.yul\":22999:23024   */\n      swap3\n      pop\n        /* \"#utility.yul\":23047:23048   */\n      dup3\n        /* \"#utility.yul\":23044:23045   */\n      dup3\n        /* \"#utility.yul\":23040:23049   */\n      add\n        /* \"#utility.yul\":23033:23049   */\n      swap1\n      pop\n        /* \"#utility.yul\":23068:23071   */\n      dup1\n        /* \"#utility.yul\":23065:23066   */\n      dup3\n        /* \"#utility.yul\":23062:23072   */\n      gt\n        /* \"#utility.yul\":23059:23095   */\n      iszero\n      tag_478\n      jumpi\n        /* \"#utility.yul\":23075:23093   */\n      tag_479\n      tag_270\n      jump\t// in\n    tag_479:\n        /* \"#utility.yul\":23059:23095   */\n    tag_478:\n        /* \"#utility.yul\":22911:23102   */\n      swap3\n      swap2\n      pop\n      pop\n      jump\t// out\n        /* \"#utility.yul\":23108:23440   */\n    tag_211:\n        /* \"#utility.yul\":23229:23233   */\n      0x00\n        /* \"#utility.yul\":23267:23269   */\n      0x40\n        /* \"#utility.yul\":23256:23265   */\n      dup3\n        /* \"#utility.yul\":23252:23270   */\n      add\n        /* \"#utility.yul\":23244:23270   */\n      swap1\n      pop\n        /* \"#utility.yul\":23280:23351   */\n      tag_481\n        /* \"#utility.yul\":23348:23349   */\n      0x00\n        /* \"#utility.yul\":23337:23346   */\n      dup4\n        /* \"#utility.yul\":23333:23350   */\n      add\n        /* \"#utility.yul\":23324:23330   */\n      dup6\n        /* \"#utility.yul\":23280:23351   */\n      tag_224\n      jump\t// in\n    tag_481:\n        /* \"#utility.yul\":23361:23433   */\n      tag_482\n        /* \"#utility.yul\":23429:23431   */\n      0x20\n        /* \"#utility.yul\":23418:23427   */\n      dup4\n        /* \"#utility.yul\":23414:23432   */\n      add\n        /* \"#utility.yul\":23405:23411   */\n      dup5\n        /* \"#utility.yul\":23361:23433   */\n      tag_224\n      jump\t// in\n    tag_482:\n        /* \"#utility.yul\":23108:23440   */\n      swap4\n      swap3\n      pop\n      pop\n      pop\n      jump\t// out\n        /* \"#utility.yul\":23446:23679   */\n    tag_216:\n        /* \"#utility.yul\":23485:23488   */\n      0x00\n        /* \"#utility.yul\":23508:23532   */\n      tag_484\n        /* \"#utility.yul\":23526:23531   */\n      dup3\n        /* \"#utility.yul\":23508:23532   */\n      tag_223\n      jump\t// in\n    tag_484:\n        /* \"#utility.yul\":23499:23532   */\n      swap2\n      pop\n        /* \"#utility.yul\":23554:23620   */\n      0xffffffffffffffffffffffffffffffffffffffffffffffffffffffffffffffff\n        /* \"#utility.yul\":23547:23552   */\n      dup3\n        /* \"#utility.yul\":23544:23621   */\n      sub\n        /* \"#utility.yul\":23541:23644   */\n      tag_485\n      jumpi\n        /* \"#utility.yul\":23624:23642   */\n      tag_486\n      tag_270\n      jump\t// in\n    tag_486:\n        /* \"#utility.yul\":23541:23644   */\n    tag_485:\n        /* \"#utility.yul\":23671:23672   */\n      0x01\n        /* \"#utility.yul\":23664:23669   */\n      dup3\n        /* \"#utility.yul\":23660:23673   */\n      add\n        /* \"#utility.yul\":23653:23673   */\n      swap1\n      pop\n        /* \"#utility.yul\":23446:23679   */\n      swap2\n      swap1\n      pop\n      jump\t// out\n\n    auxdata: 0xa264697066735822122087c69f9536abdce9b13a3931b4603029fa684e24fa54b590fe437f5025d61b7164736f6c634300081a0033\n}\n",
				"bytecode": {
					"linkReferences": {},
					"object": "6080604052678ac7230489e800006003556040518060a00160405280602860ff168152602001601460ff168152602001600f60ff168152602001600a60ff168152602001600560ff16815250600490600561005b92919061011b565b50600560095534801561006c575f80fd5b506040516125c73803806125c7833981810160405281019061008e91906101d9565b60015f819055508060015f6101000a81548173ffffffffffffffffffffffffffffffffffffffff021916908373ffffffffffffffffffffffffffffffffffffffff1602179055503360025f6101000a81548173ffffffffffffffffffffffffffffffffffffffff021916908373ffffffffffffffffffffffffffffffffffffffff16021790555050610204565b826005810192821561014f579160200282015b8281111561014e578251829060ff1690559160200191906001019061012e565b5b50905061015c9190610160565b5090565b5b80821115610177575f815f905550600101610161565b5090565b5f80fd5b5f73ffffffffffffffffffffffffffffffffffffffff82169050919050565b5f6101a88261017f565b9050919050565b6101b88161019e565b81146101c2575f80fd5b50565b5f815190506101d3816101af565b92915050565b5f602082840312156101ee576101ed61017b565b5b5f6101fb848285016101c5565b91505092915050565b6123b6806102115f395ff3fe608060405234801561000f575f80fd5b5060043610610114575f3560e01c80638456cb59116100a0578063b0b62f5a1161006f578063b0b62f5a146102be578063cc3d967b146102c8578063d2c8e0e5146102fe578063f2fde38b1461032e578063f851a4401461034a57610114565b80638456cb591461022e5780638c546f811461024c5780639e9aed621461026a578063a87430ba1461028857610114565b80635953942b116100e75780635953942b1461019e5780635c975abb146101ba5780635dc68b0a146101c457806364b4f751146101f45780637e4c0e321461021257610114565b806304189250146101185780630840605a146101365780632e1a7d4d146101525780634f4042431461016e575b5f80fd5b610120610368565b60405161012d91906117d2565b60405180910390f35b610150600480360381019061014b9190611849565b61036e565b005b61016c6004803603810190610167919061189e565b6107ba565b005b61018860048036038101906101839190611849565b610989565b6040516101959190611980565b60405180910390f35b6101b860048036038101906101b39190611849565b610a54565b005b6101c2610b94565b005b6101de60048036038101906101d9919061189e565b610c40565b6040516101eb91906117d2565b60405180910390f35b6101fc610c59565b60405161020991906117d2565b60405180910390f35b61022c6004803603810190610227919061189e565b610c5f565b005b610236610d4e565b60405161024391906119ba565b60405180910390f35b610254610d61565b6040516102619190611a2e565b60405180910390f35b610272610d86565b60405161027f91906117d2565b60405180910390f35b6102a2600480360381019061029d9190611849565b610e25565b6040516102b59796959493929190611a56565b60405180910390f35b6102c6610e8e565b005b6102e260048036038101906102dd9190611849565b610f39565b6040516102f59796959493929190611ac3565b60405180910390f35b61031860048036038101906103139190611849565b610fe7565b6040516103259190611980565b60405180910390f35b61034860048036038101906103439190611849565b6110b2565b005b61035261126d565b60405161035f9190611b30565b60405180910390f35b60095481565b600260149054906101000a900460ff16156103be576040517f08c379a00000000000000000000000000000000000000000000000000000000081526004016103b590611bef565b60405180910390fd5b6103c6611292565b5f73ffffffffffffffffffffffffffffffffffffffff168173ffffffffffffffffffffffffffffffffffffffff1603610434576040517f08c379a000000000000000000000000000000000000000000000000000000000815260040161042b90611c57565b60405180910390fd5b600a5f8273ffffffffffffffffffffffffffffffffffffffff1673ffffffffffffffffffffffffffffffffffffffff1681526020019081526020015f206002015f9054906101000a900460ff166104c0576040517f08c379a00000000000000000000000000000000000000000000000000000000081526004016104b790611ce5565b60405180910390fd5b3373ffffffffffffffffffffffffffffffffffffffff168173ffffffffffffffffffffffffffffffffffffffff160361052e576040517f08c379a000000000000000000000000000000000000000000000000000000000815260040161052590611d4d565b60405180910390fd5b600a5f3373ffffffffffffffffffffffffffffffffffffffff1673ffffffffffffffffffffffffffffffffffffffff1681526020019081526020015f206002015f9054906101000a900460ff16156105bb576040517f08c379a00000000000000000000000000000000000000000000000000000000081526004016105b290611ddb565b60405180910390fd5b60015f9054906101000a900473ffffffffffffffffffffffffffffffffffffffff1673ffffffffffffffffffffffffffffffffffffffff166323b872dd33306003546040518463ffffffff1660e01b815260040161061b93929190611df9565b6020604051808303815f875af1158015610637573d5f803e3d5ffd5b505050506040513d601f19601f8201168201806040525081019061065b9190611e58565b61069a576040517f08c379a000000000000000000000000000000000000000000000000000000000815260040161069190611ecd565b60405180910390fd5b5f600a5f3373ffffffffffffffffffffffffffffffffffffffff1673ffffffffffffffffffffffffffffffffffffffff1681526020019081526020015f20905081815f015f6101000a81548173ffffffffffffffffffffffffffffffffffffffff021916908373ffffffffffffffffffffffffffffffffffffffff1602179055506001816002015f6101000a81548160ff0219169083151502179055504281600401819055508173ffffffffffffffffffffffffffffffffffffffff163373ffffffffffffffffffffffffffffffffffffffff167f199098452639b249bef6f727bc09ce903cece47ca72a8518bef9367ad39b6de74260405161079d91906117d2565b60405180910390a36107ae826112df565b506107b76117b1565b50565b6107c2611292565b60025f9054906101000a900473ffffffffffffffffffffffffffffffffffffffff1673ffffffffffffffffffffffffffffffffffffffff163373ffffffffffffffffffffffffffffffffffffffff1614610851576040517f08c379a000000000000000000000000000000000000000000000000000000000815260040161084890611f5b565b60405180910390fd5b60015f9054906101000a900473ffffffffffffffffffffffffffffffffffffffff1673ffffffffffffffffffffffffffffffffffffffff1663a9059cbb60025f9054906101000a900473ffffffffffffffffffffffffffffffffffffffff16836040518363ffffffff1660e01b81526004016108ce929190611f79565b6020604051808303815f875af11580156108ea573d5f803e3d5ffd5b505050506040513d601f19601f8201168201806040525081019061090e9190611e58565b5060025f9054906101000a900473ffffffffffffffffffffffffffffffffffffffff1673ffffffffffffffffffffffffffffffffffffffff167f884edad9ce6fa2440d8a54cc123490eb96d2768479d49ff9c7366125a94243648260405161097691906117d2565b60405180910390a26109866117b1565b50565b6060600a5f8373ffffffffffffffffffffffffffffffffffffffff1673ffffffffffffffffffffffffffffffffffffffff1681526020019081526020015f20600801805480602002602001604051908101604052809291908181526020018280548015610a4857602002820191905f5260205f20905b815f9054906101000a900473ffffffffffffffffffffffffffffffffffffffff1673ffffffffffffffffffffffffffffffffffffffff16815260200190600101908083116109ff575b50505050509050919050565b60025f9054906101000a900473ffffffffffffffffffffffffffffffffffffffff1673ffffffffffffffffffffffffffffffffffffffff163373ffffffffffffffffffffffffffffffffffffffff1614610ae3576040517f08c379a0000000000000000000000000000000000000000000000000000000008152600401610ada90611f5b565b60405180910390fd5b5f73ffffffffffffffffffffffffffffffffffffffff168173ffffffffffffffffffffffffffffffffffffffff1603610b51576040517f08c379a0000000000000000000000000000000000000000000000000000000008152600401610b4890611fea565b60405180910390fd5b8060015f6101000a81548173ffffffffffffffffffffffffffffffffffffffff021916908373ffffffffffffffffffffffffffffffffffffffff16021790555050565b60025f9054906101000a900473ffffffffffffffffffffffffffffffffffffffff1673ffffffffffffffffffffffffffffffffffffffff163373ffffffffffffffffffffffffffffffffffffffff1614610c23576040517f08c379a0000000000000000000000000000000000000000000000000000000008152600401610c1a90611f5b565b60405180910390fd5b6001600260146101000a81548160ff021916908315150217905550565b60048160058110610c4f575f80fd5b015f915090505481565b60035481565b60025f9054906101000a900473ffffffffffffffffffffffffffffffffffffffff1673ffffffffffffffffffffffffffffffffffffffff163373ffffffffffffffffffffffffffffffffffffffff1614610cee576040517f08c379a0000000000000000000000000000000000000000000000000000000008152600401610ce590611f5b565b60405180910390fd5b60638110610d31576040517f08c379a0000000000000000000000000000000000000000000000000000000008152600401610d2890612052565b60405180910390fd5b670de0b6b3a764000081610d45919061209d565b60038190555050565b600260149054906101000a900460ff1681565b60015f9054906101000a900473ffffffffffffffffffffffffffffffffffffffff1681565b5f60015f9054906101000a900473ffffffffffffffffffffffffffffffffffffffff1673ffffffffffffffffffffffffffffffffffffffff166370a08231306040518263ffffffff1660e01b8152600401610de19190611b30565b602060405180830381865afa158015610dfc573d5f803e3d5ffd5b505050506040513d601f19601f82011682018060405250810190610e2091906120f2565b905090565b600a602052805f5260405f205f91509050805f015f9054906101000a900473ffffffffffffffffffffffffffffffffffffffff1690806001015490806002015f9054906101000a900460ff16908060030154908060040154908060060154908060070154905087565b60025f9054906101000a900473ffffffffffffffffffffffffffffffffffffffff1673ffffffffffffffffffffffffffffffffffffffff163373ffffffffffffffffffffffffffffffffffffffff1614610f1d576040517f08c379a0000000000000000000000000000000000000000000000000000000008152600401610f1490611f5b565b60405180910390fd5b5f600260146101000a81548160ff021916908315150217905550565b5f805f805f805f80600a5f8a73ffffffffffffffffffffffffffffffffffffffff1673ffffffffffffffffffffffffffffffffffffffff1681526020019081526020015f209050805f015f9054906101000a900473ffffffffffffffffffffffffffffffffffffffff168160010154826003015483600601548460070154856002015f9054906101000a900460ff168660040154975097509750975097509750975050919395979092949650565b6060600a5f8373ffffffffffffffffffffffffffffffffffffffff1673ffffffffffffffffffffffffffffffffffffffff1681526020019081526020015f206005018054806020026020016040519081016040528092919081815260200182805480156110a657602002820191905f5260205f20905b815f9054906101000a900473ffffffffffffffffffffffffffffffffffffffff1673ffffffffffffffffffffffffffffffffffffffff168152602001906001019080831161105d575b50505050509050919050565b60025f9054906101000a900473ffffffffffffffffffffffffffffffffffffffff1673ffffffffffffffffffffffffffffffffffffffff163373ffffffffffffffffffffffffffffffffffffffff1614611141576040517f08c379a000000000000000000000000000000000000000000000000000000000815260040161113890611f5b565b60405180910390fd5b5f73ffffffffffffffffffffffffffffffffffffffff168173ffffffffffffffffffffffffffffffffffffffff16036111af576040517f08c379a00000000000000000000000000000000000000000000000000000000081526004016111a690612167565b60405180910390fd5b8060025f6101000a81548173ffffffffffffffffffffffffffffffffffffffff021916908373ffffffffffffffffffffffffffffffffffffffff1602179055508073ffffffffffffffffffffffffffffffffffffffff1660025f9054906101000a900473ffffffffffffffffffffffffffffffffffffffff1673ffffffffffffffffffffffffffffffffffffffff167f8be0079c531659141344cd1fd0a4f28419497f9722a3daafe3b4186f6b6457e060405160405180910390a350565b60025f9054906101000a900473ffffffffffffffffffffffffffffffffffffffff1681565b60025f54036112d6576040517f08c379a00000000000000000000000000000000000000000000000000000000081526004016112cd906121cf565b60405180910390fd5b60025f81905550565b5f8190505f5b6005811080156112f6575060095481105b156117ac575f73ffffffffffffffffffffffffffffffffffffffff168273ffffffffffffffffffffffffffffffffffffffff1603156117ac575f606460048360058110611346576113456121ed565b5b0154600354611355919061209d565b61135f9190612247565b905060015f9054906101000a900473ffffffffffffffffffffffffffffffffffffffff1673ffffffffffffffffffffffffffffffffffffffff1663a9059cbb84836040518363ffffffff1660e01b81526004016113bd929190611f79565b6020604051808303815f875af11580156113d9573d5f803e3d5ffd5b505050506040513d601f19601f820116820180604052508101906113fd9190611e58565b61143c576040517f08c379a0000000000000000000000000000000000000000000000000000000008152600401611433906122c1565b60405180910390fd5b8273ffffffffffffffffffffffffffffffffffffffff167f83b5eadb65fb8fc1b70a3b205b38bb0c6a3e15e14bcbc9d4f366d6c772e6d83b60018461148191906122df565b83604051611490929190612312565b60405180910390a25f82036115ed5780600a5f8573ffffffffffffffffffffffffffffffffffffffff1673ffffffffffffffffffffffffffffffffffffffff1681526020019081526020015f206001015f8282546114ee91906122df565b92505081905550600a5f8473ffffffffffffffffffffffffffffffffffffffff1673ffffffffffffffffffffffffffffffffffffffff1681526020019081526020015f2060050133908060018154018082558091505060019003905f5260205f20015f9091909190916101000a81548173ffffffffffffffffffffffffffffffffffffffff021916908373ffffffffffffffffffffffffffffffffffffffff160217905550600a5f8473ffffffffffffffffffffffffffffffffffffffff1673ffffffffffffffffffffffffffffffffffffffff1681526020019081526020015f206003015f8154809291906115e390612339565b91905055506116e2565b80600a5f8573ffffffffffffffffffffffffffffffffffffffff1673ffffffffffffffffffffffffffffffffffffffff1681526020019081526020015f206006015f82825461163c91906122df565b92505081905550600a5f8473ffffffffffffffffffffffffffffffffffffffff1673ffffffffffffffffffffffffffffffffffffffff1681526020019081526020015f2060080183908060018154018082558091505060019003905f5260205f20015f9091909190916101000a81548173ffffffffffffffffffffffffffffffffffffffff021916908373ffffffffffffffffffffffffffffffffffffffff1602179055505b600a5f8473ffffffffffffffffffffffffffffffffffffffff1673ffffffffffffffffffffffffffffffffffffffff1681526020019081526020015f206007015f81548092919061173290612339565b9190505550600a5f8473ffffffffffffffffffffffffffffffffffffffff1673ffffffffffffffffffffffffffffffffffffffff1681526020019081526020015f205f015f9054906101000a900473ffffffffffffffffffffffffffffffffffffffff1692505080806117a490612339565b9150506112e5565b505050565b60015f81905550565b5f819050919050565b6117cc816117ba565b82525050565b5f6020820190506117e55f8301846117c3565b92915050565b5f80fd5b5f73ffffffffffffffffffffffffffffffffffffffff82169050919050565b5f611818826117ef565b9050919050565b6118288161180e565b8114611832575f80fd5b50565b5f813590506118438161181f565b92915050565b5f6020828403121561185e5761185d6117eb565b5b5f61186b84828501611835565b91505092915050565b61187d816117ba565b8114611887575f80fd5b50565b5f8135905061189881611874565b92915050565b5f602082840312156118b3576118b26117eb565b5b5f6118c08482850161188a565b91505092915050565b5f81519050919050565b5f82825260208201905092915050565b5f819050602082019050919050565b6118fb8161180e565b82525050565b5f61190c83836118f2565b60208301905092915050565b5f602082019050919050565b5f61192e826118c9565b61193881856118d3565b9350611943836118e3565b805f5b8381101561197357815161195a8882611901565b975061196583611918565b925050600181019050611946565b5085935050505092915050565b5f6020820190508181035f8301526119988184611924565b905092915050565b5f8115159050919050565b6119b4816119a0565b82525050565b5f6020820190506119cd5f8301846119ab565b92915050565b5f819050919050565b5f6119f66119f16119ec846117ef565b6119d3565b6117ef565b9050919050565b5f611a07826119dc565b9050919050565b5f611a18826119fd565b9050919050565b611a2881611a0e565b82525050565b5f602082019050611a415f830184611a1f565b92915050565b611a508161180e565b82525050565b5f60e082019050611a695f83018a611a47565b611a7660208301896117c3565b611a8360408301886119ab565b611a9060608301876117c3565b611a9d60808301866117c3565b611aaa60a08301856117c3565b611ab760c08301846117c3565b98975050505050505050565b5f60e082019050611ad65f83018a611a47565b611ae360208301896117c3565b611af060408301886117c3565b611afd60608301876117c3565b611b0a60808301866117c3565b611b1760a08301856119ab565b611b2460c08301846117c3565b98975050505050505050565b5f602082019050611b435f830184611a47565b92915050565b5f82825260208201905092915050565b7f436f6e7472616374206973207061757365642062792061646d696e20736f20755f8201527f2063616e206e6f7420706572666f726d20616e797468696e6720696e2074686960208201527f7320636f6e747261637421000000000000000000000000000000000000000000604082015250565b5f611bd9604b83611b49565b9150611be482611b59565b606082019050919050565b5f6020820190508181035f830152611c0681611bcd565b9050919050565b7f496e76616c6964207265666572726572206164647265737300000000000000005f82015250565b5f611c41601883611b49565b9150611c4c82611c0d565b602082019050919050565b5f6020820190508181035f830152611c6e81611c35565b9050919050565b7f5468697320726566657272616c206163636f756e74206973206e6f74207265675f8201527f6973746572656421000000000000000000000000000000000000000000000000602082015250565b5f611ccf602883611b49565b9150611cda82611c75565b604082019050919050565b5f6020820190508181035f830152611cfc81611cc3565b9050919050565b7f43616e6e6f7420726566657220796f757273656c6600000000000000000000005f82015250565b5f611d37601583611b49565b9150611d4282611d03565b602082019050919050565b5f6020820190508181035f830152611d6481611d2b565b9050919050565b7f54686973206163636f756e7420697320616c72656164792072656769737465725f8201527f6564210000000000000000000000000000000000000000000000000000000000602082015250565b5f611dc5602383611b49565b9150611dd082611d6b565b604082019050919050565b5f6020820190508181035f830152611df281611db9565b9050919050565b5f606082019050611e0c5f830186611a47565b611e196020830185611a47565b611e2660408301846117c3565b949350505050565b611e37816119a0565b8114611e41575f80fd5b50565b5f81519050611e5281611e2e565b92915050565b5f60208284031215611e6d57611e6c6117eb565b5b5f611e7a84828501611e44565b91505092915050565b7f7472616e73666572206661696c656400000000000000000000000000000000005f82015250565b5f611eb7600f83611b49565b9150611ec282611e83565b602082019050919050565b5f6020820190508181035f830152611ee481611eab565b9050919050565b7f5468697320616374696f6e2063616e20626520706572666f726d6564206279205f8201527f74686520636f6e7472616374206f776e65720000000000000000000000000000602082015250565b5f611f45603283611b49565b9150611f5082611eeb565b604082019050919050565b5f6020820190508181035f830152611f7281611f39565b9050919050565b5f604082019050611f8c5f830185611a47565b611f9960208301846117c3565b9392505050565b7f696e76616c6964206e65772062737400000000000000000000000000000000005f82015250565b5f611fd4600f83611b49565b9150611fdf82611fa0565b602082019050919050565b5f6020820190508181035f83015261200181611fc8565b9050919050565b7f696e76616c69642070657263656e7461676500000000000000000000000000005f82015250565b5f61203c601283611b49565b915061204782612008565b602082019050919050565b5f6020820190508181035f83015261206981612030565b9050919050565b7f4e487b71000000000000000000000000000000000000000000000000000000005f52601160045260245ffd5b5f6120a7826117ba565b91506120b2836117ba565b92508282026120c0816117ba565b915082820484148315176120d7576120d6612070565b5b5092915050565b5f815190506120ec81611874565b92915050565b5f60208284031215612107576121066117eb565b5b5f612114848285016120de565b91505092915050565b7f496e76616c6964206e6577206f776e65720000000000000000000000000000005f82015250565b5f612151601183611b49565b915061215c8261211d565b602082019050919050565b5f6020820190508181035f83015261217e81612145565b9050919050565b7f5265656e7472616e637947756172643a207265656e7472616e742063616c6c005f82015250565b5f6121b9601f83611b49565b91506121c482612185565b602082019050919050565b5f6020820190508181035f8301526121e6816121ad565b9050919050565b7f4e487b71000000000000000000000000000000000000000000000000000000005f52603260045260245ffd5b7f4e487b71000000000000000000000000000000000000000000000000000000005f52601260045260245ffd5b5f612251826117ba565b915061225c836117ba565b92508261226c5761226b61221a565b5b828204905092915050565b7f526577617264207472616e73666572206661696c6564000000000000000000005f82015250565b5f6122ab601683611b49565b91506122b682612277565b602082019050919050565b5f6020820190508181035f8301526122d88161229f565b9050919050565b5f6122e9826117ba565b91506122f4836117ba565b925082820190508082111561230c5761230b612070565b5b92915050565b5f6040820190506123255f8301856117c3565b61233260208301846117c3565b9392505050565b5f612343826117ba565b91507fffffffffffffffffffffffffffffffffffffffffffffffffffffffffffffffff820361237557612374612070565b5b60018201905091905056fea264697066735822122087c69f9536abdce9b13a3931b4603029fa684e24fa54b590fe437f5025d61b7164736f6c634300081a0033",
					"opcodes": "PUSH1 0x80 PUSH1 0x40 MSTORE PUSH8 0x8AC7230489E80000 PUSH1 0x3 SSTORE PUSH1 0x40 MLOAD DUP1 PUSH1 0xA0 ADD PUSH1 0x40 MSTORE DUP1 PUSH1 0x28 PUSH1 0xFF AND DUP2 MSTORE PUSH1 0x20 ADD PUSH1 0x14 PUSH1 0xFF AND DUP2 MSTORE PUSH1 0x20 ADD PUSH1 0xF PUSH1 0xFF AND DUP2 MSTORE PUSH1 0x20 ADD PUSH1 0xA PUSH1 0xFF AND DUP2 MSTORE PUSH1 0x20 ADD PUSH1 0x5 PUSH1 0xFF AND DUP2 MSTORE POP PUSH1 0x4 SWAP1 PUSH1 0x5 PUSH2 0x5B SWAP3 SWAP2 SWAP1 PUSH2 0x11B JUMP JUMPDEST POP PUSH1 0x5 PUSH1 0x9 SSTORE CALLVALUE DUP1 ISZERO PUSH2 0x6C JUMPI PUSH0 DUP1 REVERT JUMPDEST POP PUSH1 0x40 MLOAD PUSH2 0x25C7 CODESIZE SUB DUP1 PUSH2 0x25C7 DUP4 CODECOPY DUP2 DUP2 ADD PUSH1 0x40 MSTORE DUP2 ADD SWAP1 PUSH2 0x8E SWAP2 SWAP1 PUSH2 0x1D9 JUMP JUMPDEST PUSH1 0x1 PUSH0 DUP2 SWAP1 SSTORE POP DUP1 PUSH1 0x1 PUSH0 PUSH2 0x100 EXP DUP2 SLOAD DUP2 PUSH20 0xFFFFFFFFFFFFFFFFFFFFFFFFFFFFFFFFFFFFFFFF MUL NOT AND SWAP1 DUP4 PUSH20 0xFFFFFFFFFFFFFFFFFFFFFFFFFFFFFFFFFFFFFFFF AND MUL OR SWAP1 SSTORE POP CALLER PUSH1 0x2 PUSH0 PUSH2 0x100 EXP DUP2 SLOAD DUP2 PUSH20 0xFFFFFFFFFFFFFFFFFFFFFFFFFFFFFFFFFFFFFFFF MUL NOT AND SWAP1 DUP4 PUSH20 0xFFFFFFFFFFFFFFFFFFFFFFFFFFFFFFFFFFFFFFFF AND MUL OR SWAP1 SSTORE POP POP PUSH2 0x204 JUMP JUMPDEST DUP3 PUSH1 0x5 DUP2 ADD SWAP3 DUP3 ISZERO PUSH2 0x14F JUMPI SWAP2 PUSH1 0x20 MUL DUP3 ADD JUMPDEST DUP3 DUP2 GT ISZERO PUSH2 0x14E JUMPI DUP3 MLOAD DUP3 SWAP1 PUSH1 0xFF AND SWAP1 SSTORE SWAP2 PUSH1 0x20 ADD SWAP2 SWAP1 PUSH1 0x1 ADD SWAP1 PUSH2 0x12E JUMP JUMPDEST JUMPDEST POP SWAP1 POP PUSH2 0x15C SWAP2 SWAP1 PUSH2 0x160 JUMP JUMPDEST POP SWAP1 JUMP JUMPDEST JUMPDEST DUP1 DUP3 GT ISZERO PUSH2 0x177 JUMPI PUSH0 DUP2 PUSH0 SWAP1 SSTORE POP PUSH1 0x1 ADD PUSH2 0x161 JUMP JUMPDEST POP SWAP1 JUMP JUMPDEST PUSH0 DUP1 REVERT JUMPDEST PUSH0 PUSH20 0xFFFFFFFFFFFFFFFFFFFFFFFFFFFFFFFFFFFFFFFF DUP3 AND SWAP1 POP SWAP2 SWAP1 POP JUMP JUMPDEST PUSH0 PUSH2 0x1A8 DUP3 PUSH2 0x17F JUMP JUMPDEST SWAP1 POP SWAP2 SWAP1 POP JUMP JUMPDEST PUSH2 0x1B8 DUP2 PUSH2 0x19E JUMP JUMPDEST DUP2 EQ PUSH2 0x1C2 JUMPI PUSH0 DUP1 REVERT JUMPDEST POP JUMP JUMPDEST PUSH0 DUP2 MLOAD SWAP1 POP PUSH2 0x1D3 DUP2 PUSH2 0x1AF JUMP JUMPDEST SWAP3 SWAP2 POP POP JUMP JUMPDEST PUSH0 PUSH1 0x20 DUP3 DUP5 SUB SLT ISZERO PUSH2 0x1EE JUMPI PUSH2 0x1ED PUSH2 0x17B JUMP JUMPDEST JUMPDEST PUSH0 PUSH2 0x1FB DUP5 DUP3 DUP6 ADD PUSH2 0x1C5 JUMP JUMPDEST SWAP2 POP POP SWAP3 SWAP2 POP POP JUMP JUMPDEST PUSH2 0x23B6 DUP1 PUSH2 0x211 PUSH0 CODECOPY PUSH0 RETURN INVALID PUSH1 0x80 PUSH1 0x40 MSTORE CALLVALUE DUP1 ISZERO PUSH2 0xF JUMPI PUSH0 DUP1 REVERT JUMPDEST POP PUSH1 0x4 CALLDATASIZE LT PUSH2 0x114 JUMPI PUSH0 CALLDATALOAD PUSH1 0xE0 SHR DUP1 PUSH4 0x8456CB59 GT PUSH2 0xA0 JUMPI DUP1 PUSH4 0xB0B62F5A GT PUSH2 0x6F JUMPI DUP1 PUSH4 0xB0B62F5A EQ PUSH2 0x2BE JUMPI DUP1 PUSH4 0xCC3D967B EQ PUSH2 0x2C8 JUMPI DUP1 PUSH4 0xD2C8E0E5 EQ PUSH2 0x2FE JUMPI DUP1 PUSH4 0xF2FDE38B EQ PUSH2 0x32E JUMPI DUP1 PUSH4 0xF851A440 EQ PUSH2 0x34A JUMPI PUSH2 0x114 JUMP JUMPDEST DUP1 PUSH4 0x8456CB59 EQ PUSH2 0x22E JUMPI DUP1 PUSH4 0x8C546F81 EQ PUSH2 0x24C JUMPI DUP1 PUSH4 0x9E9AED62 EQ PUSH2 0x26A JUMPI DUP1 PUSH4 0xA87430BA EQ PUSH2 0x288 JUMPI PUSH2 0x114 JUMP JUMPDEST DUP1 PUSH4 0x5953942B GT PUSH2 0xE7 JUMPI DUP1 PUSH4 0x5953942B EQ PUSH2 0x19E JUMPI DUP1 PUSH4 0x5C975ABB EQ PUSH2 0x1BA JUMPI DUP1 PUSH4 0x5DC68B0A EQ PUSH2 0x1C4 JUMPI DUP1 PUSH4 0x64B4F751 EQ PUSH2 0x1F4 JUMPI DUP1 PUSH4 0x7E4C0E32 EQ PUSH2 0x212 JUMPI PUSH2 0x114 JUMP JUMPDEST DUP1 PUSH4 0x4189250 EQ PUSH2 0x118 JUMPI DUP1 PUSH4 0x840605A EQ PUSH2 0x136 JUMPI DUP1 PUSH4 0x2E1A7D4D EQ PUSH2 0x152 JUMPI DUP1 PUSH4 0x4F404243 EQ PUSH2 0x16E JUMPI JUMPDEST PUSH0 DUP1 REVERT JUMPDEST PUSH2 0x120 PUSH2 0x368 JUMP JUMPDEST PUSH1 0x40 MLOAD PUSH2 0x12D SWAP2 SWAP1 PUSH2 0x17D2 JUMP JUMPDEST PUSH1 0x40 MLOAD DUP1 SWAP2 SUB SWAP1 RETURN JUMPDEST PUSH2 0x150 PUSH1 0x4 DUP1 CALLDATASIZE SUB DUP2 ADD SWAP1 PUSH2 0x14B SWAP2 SWAP1 PUSH2 0x1849 JUMP JUMPDEST PUSH2 0x36E JUMP JUMPDEST STOP JUMPDEST PUSH2 0x16C PUSH1 0x4 DUP1 CALLDATASIZE SUB DUP2 ADD SWAP1 PUSH2 0x167 SWAP2 SWAP1 PUSH2 0x189E JUMP JUMPDEST PUSH2 0x7BA JUMP JUMPDEST STOP JUMPDEST PUSH2 0x188 PUSH1 0x4 DUP1 CALLDATASIZE SUB DUP2 ADD SWAP1 PUSH2 0x183 SWAP2 SWAP1 PUSH2 0x1849 JUMP JUMPDEST PUSH2 0x989 JUMP JUMPDEST PUSH1 0x40 MLOAD PUSH2 0x195 SWAP2 SWAP1 PUSH2 0x1980 JUMP JUMPDEST PUSH1 0x40 MLOAD DUP1 SWAP2 SUB SWAP1 RETURN JUMPDEST PUSH2 0x1B8 PUSH1 0x4 DUP1 CALLDATASIZE SUB DUP2 ADD SWAP1 PUSH2 0x1B3 SWAP2 SWAP1 PUSH2 0x1849 JUMP JUMPDEST PUSH2 0xA54 JUMP JUMPDEST STOP JUMPDEST PUSH2 0x1C2 PUSH2 0xB94 JUMP JUMPDEST STOP JUMPDEST PUSH2 0x1DE PUSH1 0x4 DUP1 CALLDATASIZE SUB DUP2 ADD SWAP1 PUSH2 0x1D9 SWAP2 SWAP1 PUSH2 0x189E JUMP JUMPDEST PUSH2 0xC40 JUMP JUMPDEST PUSH1 0x40 MLOAD PUSH2 0x1EB SWAP2 SWAP1 PUSH2 0x17D2 JUMP JUMPDEST PUSH1 0x40 MLOAD DUP1 SWAP2 SUB SWAP1 RETURN JUMPDEST PUSH2 0x1FC PUSH2 0xC59 JUMP JUMPDEST PUSH1 0x40 MLOAD PUSH2 0x209 SWAP2 SWAP1 PUSH2 0x17D2 JUMP JUMPDEST PUSH1 0x40 MLOAD DUP1 SWAP2 SUB SWAP1 RETURN JUMPDEST PUSH2 0x22C PUSH1 0x4 DUP1 CALLDATASIZE SUB DUP2 ADD SWAP1 PUSH2 0x227 SWAP2 SWAP1 PUSH2 0x189E JUMP JUMPDEST PUSH2 0xC5F JUMP JUMPDEST STOP JUMPDEST PUSH2 0x236 PUSH2 0xD4E JUMP JUMPDEST PUSH1 0x40 MLOAD PUSH2 0x243 SWAP2 SWAP1 PUSH2 0x19BA JUMP JUMPDEST PUSH1 0x40 MLOAD DUP1 SWAP2 SUB SWAP1 RETURN JUMPDEST PUSH2 0x254 PUSH2 0xD61 JUMP JUMPDEST PUSH1 0x40 MLOAD PUSH2 0x261 SWAP2 SWAP1 PUSH2 0x1A2E JUMP JUMPDEST PUSH1 0x40 MLOAD DUP1 SWAP2 SUB SWAP1 RETURN JUMPDEST PUSH2 0x272 PUSH2 0xD86 JUMP JUMPDEST PUSH1 0x40 MLOAD PUSH2 0x27F SWAP2 SWAP1 PUSH2 0x17D2 JUMP JUMPDEST PUSH1 0x40 MLOAD DUP1 SWAP2 SUB SWAP1 RETURN JUMPDEST PUSH2 0x2A2 PUSH1 0x4 DUP1 CALLDATASIZE SUB DUP2 ADD SWAP1 PUSH2 0x29D SWAP2 SWAP1 PUSH2 0x1849 JUMP JUMPDEST PUSH2 0xE25 JUMP JUMPDEST PUSH1 0x40 MLOAD PUSH2 0x2B5 SWAP8 SWAP7 SWAP6 SWAP5 SWAP4 SWAP3 SWAP2 SWAP1 PUSH2 0x1A56 JUMP JUMPDEST PUSH1 0x40 MLOAD DUP1 SWAP2 SUB SWAP1 RETURN JUMPDEST PUSH2 0x2C6 PUSH2 0xE8E JUMP JUMPDEST STOP JUMPDEST PUSH2 0x2E2 PUSH1 0x4 DUP1 CALLDATASIZE SUB DUP2 ADD SWAP1 PUSH2 0x2DD SWAP2 SWAP1 PUSH2 0x1849 JUMP JUMPDEST PUSH2 0xF39 JUMP JUMPDEST PUSH1 0x40 MLOAD PUSH2 0x2F5 SWAP8 SWAP7 SWAP6 SWAP5 SWAP4 SWAP3 SWAP2 SWAP1 PUSH2 0x1AC3 JUMP JUMPDEST PUSH1 0x40 MLOAD DUP1 SWAP2 SUB SWAP1 RETURN JUMPDEST PUSH2 0x318 PUSH1 0x4 DUP1 CALLDATASIZE SUB DUP2 ADD SWAP1 PUSH2 0x313 SWAP2 SWAP1 PUSH2 0x1849 JUMP JUMPDEST PUSH2 0xFE7 JUMP JUMPDEST PUSH1 0x40 MLOAD PUSH2 0x325 SWAP2 SWAP1 PUSH2 0x1980 JUMP JUMPDEST PUSH1 0x40 MLOAD DUP1 SWAP2 SUB SWAP1 RETURN JUMPDEST PUSH2 0x348 PUSH1 0x4 DUP1 CALLDATASIZE SUB DUP2 ADD SWAP1 PUSH2 0x343 SWAP2 SWAP1 PUSH2 0x1849 JUMP JUMPDEST PUSH2 0x10B2 JUMP JUMPDEST STOP JUMPDEST PUSH2 0x352 PUSH2 0x126D JUMP JUMPDEST PUSH1 0x40 MLOAD PUSH2 0x35F SWAP2 SWAP1 PUSH2 0x1B30 JUMP JUMPDEST PUSH1 0x40 MLOAD DUP1 SWAP2 SUB SWAP1 RETURN JUMPDEST PUSH1 0x9 SLOAD DUP2 JUMP JUMPDEST PUSH1 0x2 PUSH1 0x14 SWAP1 SLOAD SWAP1 PUSH2 0x100 EXP SWAP1 DIV PUSH1 0xFF AND ISZERO PUSH2 0x3BE JUMPI PUSH1 0x40 MLOAD PUSH32 0x8C379A000000000000000000000000000000000000000000000000000000000 DUP2 MSTORE PUSH1 0x4 ADD PUSH2 0x3B5 SWAP1 PUSH2 0x1BEF JUMP JUMPDEST PUSH1 0x40 MLOAD DUP1 SWAP2 SUB SWAP1 REVERT JUMPDEST PUSH2 0x3C6 PUSH2 0x1292 JUMP JUMPDEST PUSH0 PUSH20 0xFFFFFFFFFFFFFFFFFFFFFFFFFFFFFFFFFFFFFFFF AND DUP2 PUSH20 0xFFFFFFFFFFFFFFFFFFFFFFFFFFFFFFFFFFFFFFFF AND SUB PUSH2 0x434 JUMPI PUSH1 0x40 MLOAD PUSH32 0x8C379A000000000000000000000000000000000000000000000000000000000 DUP2 MSTORE PUSH1 0x4 ADD PUSH2 0x42B SWAP1 PUSH2 0x1C57 JUMP JUMPDEST PUSH1 0x40 MLOAD DUP1 SWAP2 SUB SWAP1 REVERT JUMPDEST PUSH1 0xA PUSH0 DUP3 PUSH20 0xFFFFFFFFFFFFFFFFFFFFFFFFFFFFFFFFFFFFFFFF AND PUSH20 0xFFFFFFFFFFFFFFFFFFFFFFFFFFFFFFFFFFFFFFFF AND DUP2 MSTORE PUSH1 0x20 ADD SWAP1 DUP2 MSTORE PUSH1 0x20 ADD PUSH0 KECCAK256 PUSH1 0x2 ADD PUSH0 SWAP1 SLOAD SWAP1 PUSH2 0x100 EXP SWAP1 DIV PUSH1 0xFF AND PUSH2 0x4C0 JUMPI PUSH1 0x40 MLOAD PUSH32 0x8C379A000000000000000000000000000000000000000000000000000000000 DUP2 MSTORE PUSH1 0x4 ADD PUSH2 0x4B7 SWAP1 PUSH2 0x1CE5 JUMP JUMPDEST PUSH1 0x40 MLOAD DUP1 SWAP2 SUB SWAP1 REVERT JUMPDEST CALLER PUSH20 0xFFFFFFFFFFFFFFFFFFFFFFFFFFFFFFFFFFFFFFFF AND DUP2 PUSH20 0xFFFFFFFFFFFFFFFFFFFFFFFFFFFFFFFFFFFFFFFF AND SUB PUSH2 0x52E JUMPI PUSH1 0x40 MLOAD PUSH32 0x8C379A000000000000000000000000000000000000000000000000000000000 DUP2 MSTORE PUSH1 0x4 ADD PUSH2 0x525 SWAP1 PUSH2 0x1D4D JUMP JUMPDEST PUSH1 0x40 MLOAD DUP1 SWAP2 SUB SWAP1 REVERT JUMPDEST PUSH1 0xA PUSH0 CALLER PUSH20 0xFFFFFFFFFFFFFFFFFFFFFFFFFFFFFFFFFFFFFFFF AND PUSH20 0xFFFFFFFFFFFFFFFFFFFFFFFFFFFFFFFFFFFFFFFF AND DUP2 MSTORE PUSH1 0x20 ADD SWAP1 DUP2 MSTORE PUSH1 0x20 ADD PUSH0 KECCAK256 PUSH1 0x2 ADD PUSH0 SWAP1 SLOAD SWAP1 PUSH2 0x100 EXP SWAP1 DIV PUSH1 0xFF AND ISZERO PUSH2 0x5BB JUMPI PUSH1 0x40 MLOAD PUSH32 0x8C379A000000000000000000000000000000000000000000000000000000000 DUP2 MSTORE PUSH1 0x4 ADD PUSH2 0x5B2 SWAP1 PUSH2 0x1DDB JUMP JUMPDEST PUSH1 0x40 MLOAD DUP1 SWAP2 SUB SWAP1 REVERT JUMPDEST PUSH1 0x1 PUSH0 SWAP1 SLOAD SWAP1 PUSH2 0x100 EXP SWAP1 DIV PUSH20 0xFFFFFFFFFFFFFFFFFFFFFFFFFFFFFFFFFFFFFFFF AND PUSH20 0xFFFFFFFFFFFFFFFFFFFFFFFFFFFFFFFFFFFFFFFF AND PUSH4 0x23B872DD CALLER ADDRESS PUSH1 0x3 SLOAD PUSH1 0x40 MLOAD DUP5 PUSH4 0xFFFFFFFF AND PUSH1 0xE0 SHL DUP2 MSTORE PUSH1 0x4 ADD PUSH2 0x61B SWAP4 SWAP3 SWAP2 SWAP1 PUSH2 0x1DF9 JUMP JUMPDEST PUSH1 0x20 PUSH1 0x40 MLOAD DUP1 DUP4 SUB DUP2 PUSH0 DUP8 GAS CALL ISZERO DUP1 ISZERO PUSH2 0x637 JUMPI RETURNDATASIZE PUSH0 DUP1 RETURNDATACOPY RETURNDATASIZE PUSH0 REVERT JUMPDEST POP POP POP POP PUSH1 0x40 MLOAD RETURNDATASIZE PUSH1 0x1F NOT PUSH1 0x1F DUP3 ADD AND DUP3 ADD DUP1 PUSH1 0x40 MSTORE POP DUP2 ADD SWAP1 PUSH2 0x65B SWAP2 SWAP1 PUSH2 0x1E58 JUMP JUMPDEST PUSH2 0x69A JUMPI PUSH1 0x40 MLOAD PUSH32 0x8C379A000000000000000000000000000000000000000000000000000000000 DUP2 MSTORE PUSH1 0x4 ADD PUSH2 0x691 SWAP1 PUSH2 0x1ECD JUMP JUMPDEST PUSH1 0x40 MLOAD DUP1 SWAP2 SUB SWAP1 REVERT JUMPDEST PUSH0 PUSH1 0xA PUSH0 CALLER PUSH20 0xFFFFFFFFFFFFFFFFFFFFFFFFFFFFFFFFFFFFFFFF AND PUSH20 0xFFFFFFFFFFFFFFFFFFFFFFFFFFFFFFFFFFFFFFFF AND DUP2 MSTORE PUSH1 0x20 ADD SWAP1 DUP2 MSTORE PUSH1 0x20 ADD PUSH0 KECCAK256 SWAP1 POP DUP2 DUP2 PUSH0 ADD PUSH0 PUSH2 0x100 EXP DUP2 SLOAD DUP2 PUSH20 0xFFFFFFFFFFFFFFFFFFFFFFFFFFFFFFFFFFFFFFFF MUL NOT AND SWAP1 DUP4 PUSH20 0xFFFFFFFFFFFFFFFFFFFFFFFFFFFFFFFFFFFFFFFF AND MUL OR SWAP1 SSTORE POP PUSH1 0x1 DUP2 PUSH1 0x2 ADD PUSH0 PUSH2 0x100 EXP DUP2 SLOAD DUP2 PUSH1 0xFF MUL NOT AND SWAP1 DUP4 ISZERO ISZERO MUL OR SWAP1 SSTORE POP TIMESTAMP DUP2 PUSH1 0x4 ADD DUP2 SWAP1 SSTORE POP DUP2 PUSH20 0xFFFFFFFFFFFFFFFFFFFFFFFFFFFFFFFFFFFFFFFF AND CALLER PUSH20 0xFFFFFFFFFFFFFFFFFFFFFFFFFFFFFFFFFFFFFFFF AND PUSH32 0x199098452639B249BEF6F727BC09CE903CECE47CA72A8518BEF9367AD39B6DE7 TIMESTAMP PUSH1 0x40 MLOAD PUSH2 0x79D SWAP2 SWAP1 PUSH2 0x17D2 JUMP JUMPDEST PUSH1 0x40 MLOAD DUP1 SWAP2 SUB SWAP1 LOG3 PUSH2 0x7AE DUP3 PUSH2 0x12DF JUMP JUMPDEST POP PUSH2 0x7B7 PUSH2 0x17B1 JUMP JUMPDEST POP JUMP JUMPDEST PUSH2 0x7C2 PUSH2 0x1292 JUMP JUMPDEST PUSH1 0x2 PUSH0 SWAP1 SLOAD SWAP1 PUSH2 0x100 EXP SWAP1 DIV PUSH20 0xFFFFFFFFFFFFFFFFFFFFFFFFFFFFFFFFFFFFFFFF AND PUSH20 0xFFFFFFFFFFFFFFFFFFFFFFFFFFFFFFFFFFFFFFFF AND CALLER PUSH20 0xFFFFFFFFFFFFFFFFFFFFFFFFFFFFFFFFFFFFFFFF AND EQ PUSH2 0x851 JUMPI PUSH1 0x40 MLOAD PUSH32 0x8C379A000000000000000000000000000000000000000000000000000000000 DUP2 MSTORE PUSH1 0x4 ADD PUSH2 0x848 SWAP1 PUSH2 0x1F5B JUMP JUMPDEST PUSH1 0x40 MLOAD DUP1 SWAP2 SUB SWAP1 REVERT JUMPDEST PUSH1 0x1 PUSH0 SWAP1 SLOAD SWAP1 PUSH2 0x100 EXP SWAP1 DIV PUSH20 0xFFFFFFFFFFFFFFFFFFFFFFFFFFFFFFFFFFFFFFFF AND PUSH20 0xFFFFFFFFFFFFFFFFFFFFFFFFFFFFFFFFFFFFFFFF AND PUSH4 0xA9059CBB PUSH1 0x2 PUSH0 SWAP1 SLOAD SWAP1 PUSH2 0x100 EXP SWAP1 DIV PUSH20 0xFFFFFFFFFFFFFFFFFFFFFFFFFFFFFFFFFFFFFFFF AND DUP4 PUSH1 0x40 MLOAD DUP4 PUSH4 0xFFFFFFFF AND PUSH1 0xE0 SHL DUP2 MSTORE PUSH1 0x4 ADD PUSH2 0x8CE SWAP3 SWAP2 SWAP1 PUSH2 0x1F79 JUMP JUMPDEST PUSH1 0x20 PUSH1 0x40 MLOAD DUP1 DUP4 SUB DUP2 PUSH0 DUP8 GAS CALL ISZERO DUP1 ISZERO PUSH2 0x8EA JUMPI RETURNDATASIZE PUSH0 DUP1 RETURNDATACOPY RETURNDATASIZE PUSH0 REVERT JUMPDEST POP POP POP POP PUSH1 0x40 MLOAD RETURNDATASIZE PUSH1 0x1F NOT PUSH1 0x1F DUP3 ADD AND DUP3 ADD DUP1 PUSH1 0x40 MSTORE POP DUP2 ADD SWAP1 PUSH2 0x90E SWAP2 SWAP1 PUSH2 0x1E58 JUMP JUMPDEST POP PUSH1 0x2 PUSH0 SWAP1 SLOAD SWAP1 PUSH2 0x100 EXP SWAP1 DIV PUSH20 0xFFFFFFFFFFFFFFFFFFFFFFFFFFFFFFFFFFFFFFFF AND PUSH20 0xFFFFFFFFFFFFFFFFFFFFFFFFFFFFFFFFFFFFFFFF AND PUSH32 0x884EDAD9CE6FA2440D8A54CC123490EB96D2768479D49FF9C7366125A9424364 DUP3 PUSH1 0x40 MLOAD PUSH2 0x976 SWAP2 SWAP1 PUSH2 0x17D2 JUMP JUMPDEST PUSH1 0x40 MLOAD DUP1 SWAP2 SUB SWAP1 LOG2 PUSH2 0x986 PUSH2 0x17B1 JUMP JUMPDEST POP JUMP JUMPDEST PUSH1 0x60 PUSH1 0xA PUSH0 DUP4 PUSH20 0xFFFFFFFFFFFFFFFFFFFFFFFFFFFFFFFFFFFFFFFF AND PUSH20 0xFFFFFFFFFFFFFFFFFFFFFFFFFFFFFFFFFFFFFFFF AND DUP2 MSTORE PUSH1 0x20 ADD SWAP1 DUP2 MSTORE PUSH1 0x20 ADD PUSH0 KECCAK256 PUSH1 0x8 ADD DUP1 SLOAD DUP1 PUSH1 0x20 MUL PUSH1 0x20 ADD PUSH1 0x40 MLOAD SWAP1 DUP2 ADD PUSH1 0x40 MSTORE DUP1 SWAP3 SWAP2 SWAP1 DUP2 DUP2 MSTORE PUSH1 0x20 ADD DUP3 DUP1 SLOAD DUP1 ISZERO PUSH2 0xA48 JUMPI PUSH1 0x20 MUL DUP3 ADD SWAP2 SWAP1 PUSH0 MSTORE PUSH1 0x20 PUSH0 KECCAK256 SWAP1 JUMPDEST DUP2 PUSH0 SWAP1 SLOAD SWAP1 PUSH2 0x100 EXP SWAP1 DIV PUSH20 0xFFFFFFFFFFFFFFFFFFFFFFFFFFFFFFFFFFFFFFFF AND PUSH20 0xFFFFFFFFFFFFFFFFFFFFFFFFFFFFFFFFFFFFFFFF AND DUP2 MSTORE PUSH1 0x20 ADD SWAP1 PUSH1 0x1 ADD SWAP1 DUP1 DUP4 GT PUSH2 0x9FF JUMPI JUMPDEST POP POP POP POP POP SWAP1 POP SWAP2 SWAP1 POP JUMP JUMPDEST PUSH1 0x2 PUSH0 SWAP1 SLOAD SWAP1 PUSH2 0x100 EXP SWAP1 DIV PUSH20 0xFFFFFFFFFFFFFFFFFFFFFFFFFFFFFFFFFFFFFFFF AND PUSH20 0xFFFFFFFFFFFFFFFFFFFFFFFFFFFFFFFFFFFFFFFF AND CALLER PUSH20 0xFFFFFFFFFFFFFFFFFFFFFFFFFFFFFFFFFFFFFFFF AND EQ PUSH2 0xAE3 JUMPI PUSH1 0x40 MLOAD PUSH32 0x8C379A000000000000000000000000000000000000000000000000000000000 DUP2 MSTORE PUSH1 0x4 ADD PUSH2 0xADA SWAP1 PUSH2 0x1F5B JUMP JUMPDEST PUSH1 0x40 MLOAD DUP1 SWAP2 SUB SWAP1 REVERT JUMPDEST PUSH0 PUSH20 0xFFFFFFFFFFFFFFFFFFFFFFFFFFFFFFFFFFFFFFFF AND DUP2 PUSH20 0xFFFFFFFFFFFFFFFFFFFFFFFFFFFFFFFFFFFFFFFF AND SUB PUSH2 0xB51 JUMPI PUSH1 0x40 MLOAD PUSH32 0x8C379A000000000000000000000000000000000000000000000000000000000 DUP2 MSTORE PUSH1 0x4 ADD PUSH2 0xB48 SWAP1 PUSH2 0x1FEA JUMP JUMPDEST PUSH1 0x40 MLOAD DUP1 SWAP2 SUB SWAP1 REVERT JUMPDEST DUP1 PUSH1 0x1 PUSH0 PUSH2 0x100 EXP DUP2 SLOAD DUP2 PUSH20 0xFFFFFFFFFFFFFFFFFFFFFFFFFFFFFFFFFFFFFFFF MUL NOT AND SWAP1 DUP4 PUSH20 0xFFFFFFFFFFFFFFFFFFFFFFFFFFFFFFFFFFFFFFFF AND MUL OR SWAP1 SSTORE POP POP JUMP JUMPDEST PUSH1 0x2 PUSH0 SWAP1 SLOAD SWAP1 PUSH2 0x100 EXP SWAP1 DIV PUSH20 0xFFFFFFFFFFFFFFFFFFFFFFFFFFFFFFFFFFFFFFFF AND PUSH20 0xFFFFFFFFFFFFFFFFFFFFFFFFFFFFFFFFFFFFFFFF AND CALLER PUSH20 0xFFFFFFFFFFFFFFFFFFFFFFFFFFFFFFFFFFFFFFFF AND EQ PUSH2 0xC23 JUMPI PUSH1 0x40 MLOAD PUSH32 0x8C379A000000000000000000000000000000000000000000000000000000000 DUP2 MSTORE PUSH1 0x4 ADD PUSH2 0xC1A SWAP1 PUSH2 0x1F5B JUMP JUMPDEST PUSH1 0x40 MLOAD DUP1 SWAP2 SUB SWAP1 REVERT JUMPDEST PUSH1 0x1 PUSH1 0x2 PUSH1 0x14 PUSH2 0x100 EXP DUP2 SLOAD DUP2 PUSH1 0xFF MUL NOT AND SWAP1 DUP4 ISZERO ISZERO MUL OR SWAP1 SSTORE POP JUMP JUMPDEST PUSH1 0x4 DUP2 PUSH1 0x5 DUP2 LT PUSH2 0xC4F JUMPI PUSH0 DUP1 REVERT JUMPDEST ADD PUSH0 SWAP2 POP SWAP1 POP SLOAD DUP2 JUMP JUMPDEST PUSH1 0x3 SLOAD DUP2 JUMP JUMPDEST PUSH1 0x2 PUSH0 SWAP1 SLOAD SWAP1 PUSH2 0x100 EXP SWAP1 DIV PUSH20 0xFFFFFFFFFFFFFFFFFFFFFFFFFFFFFFFFFFFFFFFF AND PUSH20 0xFFFFFFFFFFFFFFFFFFFFFFFFFFFFFFFFFFFFFFFF AND CALLER PUSH20 0xFFFFFFFFFFFFFFFFFFFFFFFFFFFFFFFFFFFFFFFF AND EQ PUSH2 0xCEE JUMPI PUSH1 0x40 MLOAD PUSH32 0x8C379A000000000000000000000000000000000000000000000000000000000 DUP2 MSTORE PUSH1 0x4 ADD PUSH2 0xCE5 SWAP1 PUSH2 0x1F5B JUMP JUMPDEST PUSH1 0x40 MLOAD DUP1 SWAP2 SUB SWAP1 REVERT JUMPDEST PUSH1 0x63 DUP2 LT PUSH2 0xD31 JUMPI PUSH1 0x40 MLOAD PUSH32 0x8C379A000000000000000000000000000000000000000000000000000000000 DUP2 MSTORE PUSH1 0x4 ADD PUSH2 0xD28 SWAP1 PUSH2 0x2052 JUMP JUMPDEST PUSH1 0x40 MLOAD DUP1 SWAP2 SUB SWAP1 REVERT JUMPDEST PUSH8 0xDE0B6B3A7640000 DUP2 PUSH2 0xD45 SWAP2 SWAP1 PUSH2 0x209D JUMP JUMPDEST PUSH1 0x3 DUP2 SWAP1 SSTORE POP POP JUMP JUMPDEST PUSH1 0x2 PUSH1 0x14 SWAP1 SLOAD SWAP1 PUSH2 0x100 EXP SWAP1 DIV PUSH1 0xFF AND DUP2 JUMP JUMPDEST PUSH1 0x1 PUSH0 SWAP1 SLOAD SWAP1 PUSH2 0x100 EXP SWAP1 DIV PUSH20 0xFFFFFFFFFFFFFFFFFFFFFFFFFFFFFFFFFFFFFFFF AND DUP2 JUMP JUMPDEST PUSH0 PUSH1 0x1 PUSH0 SWAP1 SLOAD SWAP1 PUSH2 0x100 EXP SWAP1 DIV PUSH20 0xFFFFFFFFFFFFFFFFFFFFFFFFFFFFFFFFFFFFFFFF AND PUSH20 0xFFFFFFFFFFFFFFFFFFFFFFFFFFFFFFFFFFFFFFFF AND PUSH4 0x70A08231 ADDRESS PUSH1 0x40 MLOAD DUP3 PUSH4 0xFFFFFFFF AND PUSH1 0xE0 SHL DUP2 MSTORE PUSH1 0x4 ADD PUSH2 0xDE1 SWAP2 SWAP1 PUSH2 0x1B30 JUMP JUMPDEST PUSH1 0x20 PUSH1 0x40 MLOAD DUP1 DUP4 SUB DUP2 DUP7 GAS STATICCALL ISZERO DUP1 ISZERO PUSH2 0xDFC JUMPI RETURNDATASIZE PUSH0 DUP1 RETURNDATACOPY RETURNDATASIZE PUSH0 REVERT JUMPDEST POP POP POP POP PUSH1 0x40 MLOAD RETURNDATASIZE PUSH1 0x1F NOT PUSH1 0x1F DUP3 ADD AND DUP3 ADD DUP1 PUSH1 0x40 MSTORE POP DUP2 ADD SWAP1 PUSH2 0xE20 SWAP2 SWAP1 PUSH2 0x20F2 JUMP JUMPDEST SWAP1 POP SWAP1 JUMP JUMPDEST PUSH1 0xA PUSH1 0x20 MSTORE DUP1 PUSH0 MSTORE PUSH1 0x40 PUSH0 KECCAK256 PUSH0 SWAP2 POP SWAP1 POP DUP1 PUSH0 ADD PUSH0 SWAP1 SLOAD SWAP1 PUSH2 0x100 EXP SWAP1 DIV PUSH20 0xFFFFFFFFFFFFFFFFFFFFFFFFFFFFFFFFFFFFFFFF AND SWAP1 DUP1 PUSH1 0x1 ADD SLOAD SWAP1 DUP1 PUSH1 0x2 ADD PUSH0 SWAP1 SLOAD SWAP1 PUSH2 0x100 EXP SWAP1 DIV PUSH1 0xFF AND SWAP1 DUP1 PUSH1 0x3 ADD SLOAD SWAP1 DUP1 PUSH1 0x4 ADD SLOAD SWAP1 DUP1 PUSH1 0x6 ADD SLOAD SWAP1 DUP1 PUSH1 0x7 ADD SLOAD SWAP1 POP DUP8 JUMP JUMPDEST PUSH1 0x2 PUSH0 SWAP1 SLOAD SWAP1 PUSH2 0x100 EXP SWAP1 DIV PUSH20 0xFFFFFFFFFFFFFFFFFFFFFFFFFFFFFFFFFFFFFFFF AND PUSH20 0xFFFFFFFFFFFFFFFFFFFFFFFFFFFFFFFFFFFFFFFF AND CALLER PUSH20 0xFFFFFFFFFFFFFFFFFFFFFFFFFFFFFFFFFFFFFFFF AND EQ PUSH2 0xF1D JUMPI PUSH1 0x40 MLOAD PUSH32 0x8C379A000000000000000000000000000000000000000000000000000000000 DUP2 MSTORE PUSH1 0x4 ADD PUSH2 0xF14 SWAP1 PUSH2 0x1F5B JUMP JUMPDEST PUSH1 0x40 MLOAD DUP1 SWAP2 SUB SWAP1 REVERT JUMPDEST PUSH0 PUSH1 0x2 PUSH1 0x14 PUSH2 0x100 EXP DUP2 SLOAD DUP2 PUSH1 0xFF MUL NOT AND SWAP1 DUP4 ISZERO ISZERO MUL OR SWAP1 SSTORE POP JUMP JUMPDEST PUSH0 DUP1 PUSH0 DUP1 PUSH0 DUP1 PUSH0 DUP1 PUSH1 0xA PUSH0 DUP11 PUSH20 0xFFFFFFFFFFFFFFFFFFFFFFFFFFFFFFFFFFFFFFFF AND PUSH20 0xFFFFFFFFFFFFFFFFFFFFFFFFFFFFFFFFFFFFFFFF AND DUP2 MSTORE PUSH1 0x20 ADD SWAP1 DUP2 MSTORE PUSH1 0x20 ADD PUSH0 KECCAK256 SWAP1 POP DUP1 PUSH0 ADD PUSH0 SWAP1 SLOAD SWAP1 PUSH2 0x100 EXP SWAP1 DIV PUSH20 0xFFFFFFFFFFFFFFFFFFFFFFFFFFFFFFFFFFFFFFFF AND DUP2 PUSH1 0x1 ADD SLOAD DUP3 PUSH1 0x3 ADD SLOAD DUP4 PUSH1 0x6 ADD SLOAD DUP5 PUSH1 0x7 ADD SLOAD DUP6 PUSH1 0x2 ADD PUSH0 SWAP1 SLOAD SWAP1 PUSH2 0x100 EXP SWAP1 DIV PUSH1 0xFF AND DUP7 PUSH1 0x4 ADD SLOAD SWAP8 POP SWAP8 POP SWAP8 POP SWAP8 POP SWAP8 POP SWAP8 POP SWAP8 POP POP SWAP2 SWAP4 SWAP6 SWAP8 SWAP1 SWAP3 SWAP5 SWAP7 POP JUMP JUMPDEST PUSH1 0x60 PUSH1 0xA PUSH0 DUP4 PUSH20 0xFFFFFFFFFFFFFFFFFFFFFFFFFFFFFFFFFFFFFFFF AND PUSH20 0xFFFFFFFFFFFFFFFFFFFFFFFFFFFFFFFFFFFFFFFF AND DUP2 MSTORE PUSH1 0x20 ADD SWAP1 DUP2 MSTORE PUSH1 0x20 ADD PUSH0 KECCAK256 PUSH1 0x5 ADD DUP1 SLOAD DUP1 PUSH1 0x20 MUL PUSH1 0x20 ADD PUSH1 0x40 MLOAD SWAP1 DUP2 ADD PUSH1 0x40 MSTORE DUP1 SWAP3 SWAP2 SWAP1 DUP2 DUP2 MSTORE PUSH1 0x20 ADD DUP3 DUP1 SLOAD DUP1 ISZERO PUSH2 0x10A6 JUMPI PUSH1 0x20 MUL DUP3 ADD SWAP2 SWAP1 PUSH0 MSTORE PUSH1 0x20 PUSH0 KECCAK256 SWAP1 JUMPDEST DUP2 PUSH0 SWAP1 SLOAD SWAP1 PUSH2 0x100 EXP SWAP1 DIV PUSH20 0xFFFFFFFFFFFFFFFFFFFFFFFFFFFFFFFFFFFFFFFF AND PUSH20 0xFFFFFFFFFFFFFFFFFFFFFFFFFFFFFFFFFFFFFFFF AND DUP2 MSTORE PUSH1 0x20 ADD SWAP1 PUSH1 0x1 ADD SWAP1 DUP1 DUP4 GT PUSH2 0x105D JUMPI JUMPDEST POP POP POP POP POP SWAP1 POP SWAP2 SWAP1 POP JUMP JUMPDEST PUSH1 0x2 PUSH0 SWAP1 SLOAD SWAP1 PUSH2 0x100 EXP SWAP1 DIV PUSH20 0xFFFFFFFFFFFFFFFFFFFFFFFFFFFFFFFFFFFFFFFF AND PUSH20 0xFFFFFFFFFFFFFFFFFFFFFFFFFFFFFFFFFFFFFFFF AND CALLER PUSH20 0xFFFFFFFFFFFFFFFFFFFFFFFFFFFFFFFFFFFFFFFF AND EQ PUSH2 0x1141 JUMPI PUSH1 0x40 MLOAD PUSH32 0x8C379A000000000000000000000000000000000000000000000000000000000 DUP2 MSTORE PUSH1 0x4 ADD PUSH2 0x1138 SWAP1 PUSH2 0x1F5B JUMP JUMPDEST PUSH1 0x40 MLOAD DUP1 SWAP2 SUB SWAP1 REVERT JUMPDEST PUSH0 PUSH20 0xFFFFFFFFFFFFFFFFFFFFFFFFFFFFFFFFFFFFFFFF AND DUP2 PUSH20 0xFFFFFFFFFFFFFFFFFFFFFFFFFFFFFFFFFFFFFFFF AND SUB PUSH2 0x11AF JUMPI PUSH1 0x40 MLOAD PUSH32 0x8C379A000000000000000000000000000000000000000000000000000000000 DUP2 MSTORE PUSH1 0x4 ADD PUSH2 0x11A6 SWAP1 PUSH2 0x2167 JUMP JUMPDEST PUSH1 0x40 MLOAD DUP1 SWAP2 SUB SWAP1 REVERT JUMPDEST DUP1 PUSH1 0x2 PUSH0 PUSH2 0x100 EXP DUP2 SLOAD DUP2 PUSH20 0xFFFFFFFFFFFFFFFFFFFFFFFFFFFFFFFFFFFFFFFF MUL NOT AND SWAP1 DUP4 PUSH20 0xFFFFFFFFFFFFFFFFFFFFFFFFFFFFFFFFFFFFFFFF AND MUL OR SWAP1 SSTORE POP DUP1 PUSH20 0xFFFFFFFFFFFFFFFFFFFFFFFFFFFFFFFFFFFFFFFF AND PUSH1 0x2 PUSH0 SWAP1 SLOAD SWAP1 PUSH2 0x100 EXP SWAP1 DIV PUSH20 0xFFFFFFFFFFFFFFFFFFFFFFFFFFFFFFFFFFFFFFFF AND PUSH20 0xFFFFFFFFFFFFFFFFFFFFFFFFFFFFFFFFFFFFFFFF AND PUSH32 0x8BE0079C531659141344CD1FD0A4F28419497F9722A3DAAFE3B4186F6B6457E0 PUSH1 0x40 MLOAD PUSH1 0x40 MLOAD DUP1 SWAP2 SUB SWAP1 LOG3 POP JUMP JUMPDEST PUSH1 0x2 PUSH0 SWAP1 SLOAD SWAP1 PUSH2 0x100 EXP SWAP1 DIV PUSH20 0xFFFFFFFFFFFFFFFFFFFFFFFFFFFFFFFFFFFFFFFF AND DUP2 JUMP JUMPDEST PUSH1 0x2 PUSH0 SLOAD SUB PUSH2 0x12D6 JUMPI PUSH1 0x40 MLOAD PUSH32 0x8C379A000000000000000000000000000000000000000000000000000000000 DUP2 MSTORE PUSH1 0x4 ADD PUSH2 0x12CD SWAP1 PUSH2 0x21CF JUMP JUMPDEST PUSH1 0x40 MLOAD DUP1 SWAP2 SUB SWAP1 REVERT JUMPDEST PUSH1 0x2 PUSH0 DUP2 SWAP1 SSTORE POP JUMP JUMPDEST PUSH0 DUP2 SWAP1 POP PUSH0 JUMPDEST PUSH1 0x5 DUP2 LT DUP1 ISZERO PUSH2 0x12F6 JUMPI POP PUSH1 0x9 SLOAD DUP2 LT JUMPDEST ISZERO PUSH2 0x17AC JUMPI PUSH0 PUSH20 0xFFFFFFFFFFFFFFFFFFFFFFFFFFFFFFFFFFFFFFFF AND DUP3 PUSH20 0xFFFFFFFFFFFFFFFFFFFFFFFFFFFFFFFFFFFFFFFF AND SUB ISZERO PUSH2 0x17AC JUMPI PUSH0 PUSH1 0x64 PUSH1 0x4 DUP4 PUSH1 0x5 DUP2 LT PUSH2 0x1346 JUMPI PUSH2 0x1345 PUSH2 0x21ED JUMP JUMPDEST JUMPDEST ADD SLOAD PUSH1 0x3 SLOAD PUSH2 0x1355 SWAP2 SWAP1 PUSH2 0x209D JUMP JUMPDEST PUSH2 0x135F SWAP2 SWAP1 PUSH2 0x2247 JUMP JUMPDEST SWAP1 POP PUSH1 0x1 PUSH0 SWAP1 SLOAD SWAP1 PUSH2 0x100 EXP SWAP1 DIV PUSH20 0xFFFFFFFFFFFFFFFFFFFFFFFFFFFFFFFFFFFFFFFF AND PUSH20 0xFFFFFFFFFFFFFFFFFFFFFFFFFFFFFFFFFFFFFFFF AND PUSH4 0xA9059CBB DUP5 DUP4 PUSH1 0x40 MLOAD DUP4 PUSH4 0xFFFFFFFF AND PUSH1 0xE0 SHL DUP2 MSTORE PUSH1 0x4 ADD PUSH2 0x13BD SWAP3 SWAP2 SWAP1 PUSH2 0x1F79 JUMP JUMPDEST PUSH1 0x20 PUSH1 0x40 MLOAD DUP1 DUP4 SUB DUP2 PUSH0 DUP8 GAS CALL ISZERO DUP1 ISZERO PUSH2 0x13D9 JUMPI RETURNDATASIZE PUSH0 DUP1 RETURNDATACOPY RETURNDATASIZE PUSH0 REVERT JUMPDEST POP POP POP POP PUSH1 0x40 MLOAD RETURNDATASIZE PUSH1 0x1F NOT PUSH1 0x1F DUP3 ADD AND DUP3 ADD DUP1 PUSH1 0x40 MSTORE POP DUP2 ADD SWAP1 PUSH2 0x13FD SWAP2 SWAP1 PUSH2 0x1E58 JUMP JUMPDEST PUSH2 0x143C JUMPI PUSH1 0x40 MLOAD PUSH32 0x8C379A000000000000000000000000000000000000000000000000000000000 DUP2 MSTORE PUSH1 0x4 ADD PUSH2 0x1433 SWAP1 PUSH2 0x22C1 JUMP JUMPDEST PUSH1 0x40 MLOAD DUP1 SWAP2 SUB SWAP1 REVERT JUMPDEST DUP3 PUSH20 0xFFFFFFFFFFFFFFFFFFFFFFFFFFFFFFFFFFFFFFFF AND PUSH32 0x83B5EADB65FB8FC1B70A3B205B38BB0C6A3E15E14BCBC9D4F366D6C772E6D83B PUSH1 0x1 DUP5 PUSH2 0x1481 SWAP2 SWAP1 PUSH2 0x22DF JUMP JUMPDEST DUP4 PUSH1 0x40 MLOAD PUSH2 0x1490 SWAP3 SWAP2 SWAP1 PUSH2 0x2312 JUMP JUMPDEST PUSH1 0x40 MLOAD DUP1 SWAP2 SUB SWAP1 LOG2 PUSH0 DUP3 SUB PUSH2 0x15ED JUMPI DUP1 PUSH1 0xA PUSH0 DUP6 PUSH20 0xFFFFFFFFFFFFFFFFFFFFFFFFFFFFFFFFFFFFFFFF AND PUSH20 0xFFFFFFFFFFFFFFFFFFFFFFFFFFFFFFFFFFFFFFFF AND DUP2 MSTORE PUSH1 0x20 ADD SWAP1 DUP2 MSTORE PUSH1 0x20 ADD PUSH0 KECCAK256 PUSH1 0x1 ADD PUSH0 DUP3 DUP3 SLOAD PUSH2 0x14EE SWAP2 SWAP1 PUSH2 0x22DF JUMP JUMPDEST SWAP3 POP POP DUP2 SWAP1 SSTORE POP PUSH1 0xA PUSH0 DUP5 PUSH20 0xFFFFFFFFFFFFFFFFFFFFFFFFFFFFFFFFFFFFFFFF AND PUSH20 0xFFFFFFFFFFFFFFFFFFFFFFFFFFFFFFFFFFFFFFFF AND DUP2 MSTORE PUSH1 0x20 ADD SWAP1 DUP2 MSTORE PUSH1 0x20 ADD PUSH0 KECCAK256 PUSH1 0x5 ADD CALLER SWAP1 DUP1 PUSH1 0x1 DUP2 SLOAD ADD DUP1 DUP3 SSTORE DUP1 SWAP2 POP POP PUSH1 0x1 SWAP1 SUB SWAP1 PUSH0 MSTORE PUSH1 0x20 PUSH0 KECCAK256 ADD PUSH0 SWAP1 SWAP2 SWAP1 SWAP2 SWAP1 SWAP2 PUSH2 0x100 EXP DUP2 SLOAD DUP2 PUSH20 0xFFFFFFFFFFFFFFFFFFFFFFFFFFFFFFFFFFFFFFFF MUL NOT AND SWAP1 DUP4 PUSH20 0xFFFFFFFFFFFFFFFFFFFFFFFFFFFFFFFFFFFFFFFF AND MUL OR SWAP1 SSTORE POP PUSH1 0xA PUSH0 DUP5 PUSH20 0xFFFFFFFFFFFFFFFFFFFFFFFFFFFFFFFFFFFFFFFF AND PUSH20 0xFFFFFFFFFFFFFFFFFFFFFFFFFFFFFFFFFFFFFFFF AND DUP2 MSTORE PUSH1 0x20 ADD SWAP1 DUP2 MSTORE PUSH1 0x20 ADD PUSH0 KECCAK256 PUSH1 0x3 ADD PUSH0 DUP2 SLOAD DUP1 SWAP3 SWAP2 SWAP1 PUSH2 0x15E3 SWAP1 PUSH2 0x2339 JUMP JUMPDEST SWAP2 SWAP1 POP SSTORE POP PUSH2 0x16E2 JUMP JUMPDEST DUP1 PUSH1 0xA PUSH0 DUP6 PUSH20 0xFFFFFFFFFFFFFFFFFFFFFFFFFFFFFFFFFFFFFFFF AND PUSH20 0xFFFFFFFFFFFFFFFFFFFFFFFFFFFFFFFFFFFFFFFF AND DUP2 MSTORE PUSH1 0x20 ADD SWAP1 DUP2 MSTORE PUSH1 0x20 ADD PUSH0 KECCAK256 PUSH1 0x6 ADD PUSH0 DUP3 DUP3 SLOAD PUSH2 0x163C SWAP2 SWAP1 PUSH2 0x22DF JUMP JUMPDEST SWAP3 POP POP DUP2 SWAP1 SSTORE POP PUSH1 0xA PUSH0 DUP5 PUSH20 0xFFFFFFFFFFFFFFFFFFFFFFFFFFFFFFFFFFFFFFFF AND PUSH20 0xFFFFFFFFFFFFFFFFFFFFFFFFFFFFFFFFFFFFFFFF AND DUP2 MSTORE PUSH1 0x20 ADD SWAP1 DUP2 MSTORE PUSH1 0x20 ADD PUSH0 KECCAK256 PUSH1 0x8 ADD DUP4 SWAP1 DUP1 PUSH1 0x1 DUP2 SLOAD ADD DUP1 DUP3 SSTORE DUP1 SWAP2 POP POP PUSH1 0x1 SWAP1 SUB SWAP1 PUSH0 MSTORE PUSH1 0x20 PUSH0 KECCAK256 ADD PUSH0 SWAP1 SWAP2 SWAP1 SWAP2 SWAP1 SWAP2 PUSH2 0x100 EXP DUP2 SLOAD DUP2 PUSH20 0xFFFFFFFFFFFFFFFFFFFFFFFFFFFFFFFFFFFFFFFF MUL NOT AND SWAP1 DUP4 PUSH20 0xFFFFFFFFFFFFFFFFFFFFFFFFFFFFFFFFFFFFFFFF AND MUL OR SWAP1 SSTORE POP JUMPDEST PUSH1 0xA PUSH0 DUP5 PUSH20 0xFFFFFFFFFFFFFFFFFFFFFFFFFFFFFFFFFFFFFFFF AND PUSH20 0xFFFFFFFFFFFFFFFFFFFFFFFFFFFFFFFFFFFFFFFF AND DUP2 MSTORE PUSH1 0x20 ADD SWAP1 DUP2 MSTORE PUSH1 0x20 ADD PUSH0 KECCAK256 PUSH1 0x7 ADD PUSH0 DUP2 SLOAD DUP1 SWAP3 SWAP2 SWAP1 PUSH2 0x1732 SWAP1 PUSH2 0x2339 JUMP JUMPDEST SWAP2 SWAP1 POP SSTORE POP PUSH1 0xA PUSH0 DUP5 PUSH20 0xFFFFFFFFFFFFFFFFFFFFFFFFFFFFFFFFFFFFFFFF AND PUSH20 0xFFFFFFFFFFFFFFFFFFFFFFFFFFFFFFFFFFFFFFFF AND DUP2 MSTORE PUSH1 0x20 ADD SWAP1 DUP2 MSTORE PUSH1 0x20 ADD PUSH0 KECCAK256 PUSH0 ADD PUSH0 SWAP1 SLOAD SWAP1 PUSH2 0x100 EXP SWAP1 DIV PUSH20 0xFFFFFFFFFFFFFFFFFFFFFFFFFFFFFFFFFFFFFFFF AND SWAP3 POP POP DUP1 DUP1 PUSH2 0x17A4 SWAP1 PUSH2 0x2339 JUMP JUMPDEST SWAP2 POP POP PUSH2 0x12E5 JUMP JUMPDEST POP POP POP JUMP JUMPDEST PUSH1 0x1 PUSH0 DUP2 SWAP1 SSTORE POP JUMP JUMPDEST PUSH0 DUP2 SWAP1 POP SWAP2 SWAP1 POP JUMP JUMPDEST PUSH2 0x17CC DUP2 PUSH2 0x17BA JUMP JUMPDEST DUP3 MSTORE POP POP JUMP JUMPDEST PUSH0 PUSH1 0x20 DUP3 ADD SWAP1 POP PUSH2 0x17E5 PUSH0 DUP4 ADD DUP5 PUSH2 0x17C3 JUMP JUMPDEST SWAP3 SWAP2 POP POP JUMP JUMPDEST PUSH0 DUP1 REVERT JUMPDEST PUSH0 PUSH20 0xFFFFFFFFFFFFFFFFFFFFFFFFFFFFFFFFFFFFFFFF DUP3 AND SWAP1 POP SWAP2 SWAP1 POP JUMP JUMPDEST PUSH0 PUSH2 0x1818 DUP3 PUSH2 0x17EF JUMP JUMPDEST SWAP1 POP SWAP2 SWAP1 POP JUMP JUMPDEST PUSH2 0x1828 DUP2 PUSH2 0x180E JUMP JUMPDEST DUP2 EQ PUSH2 0x1832 JUMPI PUSH0 DUP1 REVERT JUMPDEST POP JUMP JUMPDEST PUSH0 DUP2 CALLDATALOAD SWAP1 POP PUSH2 0x1843 DUP2 PUSH2 0x181F JUMP JUMPDEST SWAP3 SWAP2 POP POP JUMP JUMPDEST PUSH0 PUSH1 0x20 DUP3 DUP5 SUB SLT ISZERO PUSH2 0x185E JUMPI PUSH2 0x185D PUSH2 0x17EB JUMP JUMPDEST JUMPDEST PUSH0 PUSH2 0x186B DUP5 DUP3 DUP6 ADD PUSH2 0x1835 JUMP JUMPDEST SWAP2 POP POP SWAP3 SWAP2 POP POP JUMP JUMPDEST PUSH2 0x187D DUP2 PUSH2 0x17BA JUMP JUMPDEST DUP2 EQ PUSH2 0x1887 JUMPI PUSH0 DUP1 REVERT JUMPDEST POP JUMP JUMPDEST PUSH0 DUP2 CALLDATALOAD SWAP1 POP PUSH2 0x1898 DUP2 PUSH2 0x1874 JUMP JUMPDEST SWAP3 SWAP2 POP POP JUMP JUMPDEST PUSH0 PUSH1 0x20 DUP3 DUP5 SUB SLT ISZERO PUSH2 0x18B3 JUMPI PUSH2 0x18B2 PUSH2 0x17EB JUMP JUMPDEST JUMPDEST PUSH0 PUSH2 0x18C0 DUP5 DUP3 DUP6 ADD PUSH2 0x188A JUMP JUMPDEST SWAP2 POP POP SWAP3 SWAP2 POP POP JUMP JUMPDEST PUSH0 DUP2 MLOAD SWAP1 POP SWAP2 SWAP1 POP JUMP JUMPDEST PUSH0 DUP3 DUP3 MSTORE PUSH1 0x20 DUP3 ADD SWAP1 POP SWAP3 SWAP2 POP POP JUMP JUMPDEST PUSH0 DUP2 SWAP1 POP PUSH1 0x20 DUP3 ADD SWAP1 POP SWAP2 SWAP1 POP JUMP JUMPDEST PUSH2 0x18FB DUP2 PUSH2 0x180E JUMP JUMPDEST DUP3 MSTORE POP POP JUMP JUMPDEST PUSH0 PUSH2 0x190C DUP4 DUP4 PUSH2 0x18F2 JUMP JUMPDEST PUSH1 0x20 DUP4 ADD SWAP1 POP SWAP3 SWAP2 POP POP JUMP JUMPDEST PUSH0 PUSH1 0x20 DUP3 ADD SWAP1 POP SWAP2 SWAP1 POP JUMP JUMPDEST PUSH0 PUSH2 0x192E DUP3 PUSH2 0x18C9 JUMP JUMPDEST PUSH2 0x1938 DUP2 DUP6 PUSH2 0x18D3 JUMP JUMPDEST SWAP4 POP PUSH2 0x1943 DUP4 PUSH2 0x18E3 JUMP JUMPDEST DUP1 PUSH0 JUMPDEST DUP4 DUP2 LT ISZERO PUSH2 0x1973 JUMPI DUP2 MLOAD PUSH2 0x195A DUP9 DUP3 PUSH2 0x1901 JUMP JUMPDEST SWAP8 POP PUSH2 0x1965 DUP4 PUSH2 0x1918 JUMP JUMPDEST SWAP3 POP POP PUSH1 0x1 DUP2 ADD SWAP1 POP PUSH2 0x1946 JUMP JUMPDEST POP DUP6 SWAP4 POP POP POP POP SWAP3 SWAP2 POP POP JUMP JUMPDEST PUSH0 PUSH1 0x20 DUP3 ADD SWAP1 POP DUP2 DUP2 SUB PUSH0 DUP4 ADD MSTORE PUSH2 0x1998 DUP2 DUP5 PUSH2 0x1924 JUMP JUMPDEST SWAP1 POP SWAP3 SWAP2 POP POP JUMP JUMPDEST PUSH0 DUP2 ISZERO ISZERO SWAP1 POP SWAP2 SWAP1 POP JUMP JUMPDEST PUSH2 0x19B4 DUP2 PUSH2 0x19A0 JUMP JUMPDEST DUP3 MSTORE POP POP JUMP JUMPDEST PUSH0 PUSH1 0x20 DUP3 ADD SWAP1 POP PUSH2 0x19CD PUSH0 DUP4 ADD DUP5 PUSH2 0x19AB JUMP JUMPDEST SWAP3 SWAP2 POP POP JUMP JUMPDEST PUSH0 DUP2 SWAP1 POP SWAP2 SWAP1 POP JUMP JUMPDEST PUSH0 PUSH2 0x19F6 PUSH2 0x19F1 PUSH2 0x19EC DUP5 PUSH2 0x17EF JUMP JUMPDEST PUSH2 0x19D3 JUMP JUMPDEST PUSH2 0x17EF JUMP JUMPDEST SWAP1 POP SWAP2 SWAP1 POP JUMP JUMPDEST PUSH0 PUSH2 0x1A07 DUP3 PUSH2 0x19DC JUMP JUMPDEST SWAP1 POP SWAP2 SWAP1 POP JUMP JUMPDEST PUSH0 PUSH2 0x1A18 DUP3 PUSH2 0x19FD JUMP JUMPDEST SWAP1 POP SWAP2 SWAP1 POP JUMP JUMPDEST PUSH2 0x1A28 DUP2 PUSH2 0x1A0E JUMP JUMPDEST DUP3 MSTORE POP POP JUMP JUMPDEST PUSH0 PUSH1 0x20 DUP3 ADD SWAP1 POP PUSH2 0x1A41 PUSH0 DUP4 ADD DUP5 PUSH2 0x1A1F JUMP JUMPDEST SWAP3 SWAP2 POP POP JUMP JUMPDEST PUSH2 0x1A50 DUP2 PUSH2 0x180E JUMP JUMPDEST DUP3 MSTORE POP POP JUMP JUMPDEST PUSH0 PUSH1 0xE0 DUP3 ADD SWAP1 POP PUSH2 0x1A69 PUSH0 DUP4 ADD DUP11 PUSH2 0x1A47 JUMP JUMPDEST PUSH2 0x1A76 PUSH1 0x20 DUP4 ADD DUP10 PUSH2 0x17C3 JUMP JUMPDEST PUSH2 0x1A83 PUSH1 0x40 DUP4 ADD DUP9 PUSH2 0x19AB JUMP JUMPDEST PUSH2 0x1A90 PUSH1 0x60 DUP4 ADD DUP8 PUSH2 0x17C3 JUMP JUMPDEST PUSH2 0x1A9D PUSH1 0x80 DUP4 ADD DUP7 PUSH2 0x17C3 JUMP JUMPDEST PUSH2 0x1AAA PUSH1 0xA0 DUP4 ADD DUP6 PUSH2 0x17C3 JUMP JUMPDEST PUSH2 0x1AB7 PUSH1 0xC0 DUP4 ADD DUP5 PUSH2 0x17C3 JUMP JUMPDEST SWAP9 SWAP8 POP POP POP POP POP POP POP POP JUMP JUMPDEST PUSH0 PUSH1 0xE0 DUP3 ADD SWAP1 POP PUSH2 0x1AD6 PUSH0 DUP4 ADD DUP11 PUSH2 0x1A47 JUMP JUMPDEST PUSH2 0x1AE3 PUSH1 0x20 DUP4 ADD DUP10 PUSH2 0x17C3 JUMP JUMPDEST PUSH2 0x1AF0 PUSH1 0x40 DUP4 ADD DUP9 PUSH2 0x17C3 JUMP JUMPDEST PUSH2 0x1AFD PUSH1 0x60 DUP4 ADD DUP8 PUSH2 0x17C3 JUMP JUMPDEST PUSH2 0x1B0A PUSH1 0x80 DUP4 ADD DUP7 PUSH2 0x17C3 JUMP JUMPDEST PUSH2 0x1B17 PUSH1 0xA0 DUP4 ADD DUP6 PUSH2 0x19AB JUMP JUMPDEST PUSH2 0x1B24 PUSH1 0xC0 DUP4 ADD DUP5 PUSH2 0x17C3 JUMP JUMPDEST SWAP9 SWAP8 POP POP POP POP POP POP POP POP JUMP JUMPDEST PUSH0 PUSH1 0x20 DUP3 ADD SWAP1 POP PUSH2 0x1B43 PUSH0 DUP4 ADD DUP5 PUSH2 0x1A47 JUMP JUMPDEST SWAP3 SWAP2 POP POP JUMP JUMPDEST PUSH0 DUP3 DUP3 MSTORE PUSH1 0x20 DUP3 ADD SWAP1 POP SWAP3 SWAP2 POP POP JUMP JUMPDEST PUSH32 0x436F6E7472616374206973207061757365642062792061646D696E20736F2075 PUSH0 DUP3 ADD MSTORE PUSH32 0x2063616E206E6F7420706572666F726D20616E797468696E6720696E20746869 PUSH1 0x20 DUP3 ADD MSTORE PUSH32 0x7320636F6E747261637421000000000000000000000000000000000000000000 PUSH1 0x40 DUP3 ADD MSTORE POP JUMP JUMPDEST PUSH0 PUSH2 0x1BD9 PUSH1 0x4B DUP4 PUSH2 0x1B49 JUMP JUMPDEST SWAP2 POP PUSH2 0x1BE4 DUP3 PUSH2 0x1B59 JUMP JUMPDEST PUSH1 0x60 DUP3 ADD SWAP1 POP SWAP2 SWAP1 POP JUMP JUMPDEST PUSH0 PUSH1 0x20 DUP3 ADD SWAP1 POP DUP2 DUP2 SUB PUSH0 DUP4 ADD MSTORE PUSH2 0x1C06 DUP2 PUSH2 0x1BCD JUMP JUMPDEST SWAP1 POP SWAP2 SWAP1 POP JUMP JUMPDEST PUSH32 0x496E76616C696420726566657272657220616464726573730000000000000000 PUSH0 DUP3 ADD MSTORE POP JUMP JUMPDEST PUSH0 PUSH2 0x1C41 PUSH1 0x18 DUP4 PUSH2 0x1B49 JUMP JUMPDEST SWAP2 POP PUSH2 0x1C4C DUP3 PUSH2 0x1C0D JUMP JUMPDEST PUSH1 0x20 DUP3 ADD SWAP1 POP SWAP2 SWAP1 POP JUMP JUMPDEST PUSH0 PUSH1 0x20 DUP3 ADD SWAP1 POP DUP2 DUP2 SUB PUSH0 DUP4 ADD MSTORE PUSH2 0x1C6E DUP2 PUSH2 0x1C35 JUMP JUMPDEST SWAP1 POP SWAP2 SWAP1 POP JUMP JUMPDEST PUSH32 0x5468697320726566657272616C206163636F756E74206973206E6F7420726567 PUSH0 DUP3 ADD MSTORE PUSH32 0x6973746572656421000000000000000000000000000000000000000000000000 PUSH1 0x20 DUP3 ADD MSTORE POP JUMP JUMPDEST PUSH0 PUSH2 0x1CCF PUSH1 0x28 DUP4 PUSH2 0x1B49 JUMP JUMPDEST SWAP2 POP PUSH2 0x1CDA DUP3 PUSH2 0x1C75 JUMP JUMPDEST PUSH1 0x40 DUP3 ADD SWAP1 POP SWAP2 SWAP1 POP JUMP JUMPDEST PUSH0 PUSH1 0x20 DUP3 ADD SWAP1 POP DUP2 DUP2 SUB PUSH0 DUP4 ADD MSTORE PUSH2 0x1CFC DUP2 PUSH2 0x1CC3 JUMP JUMPDEST SWAP1 POP SWAP2 SWAP1 POP JUMP JUMPDEST PUSH32 0x43616E6E6F7420726566657220796F757273656C660000000000000000000000 PUSH0 DUP3 ADD MSTORE POP JUMP JUMPDEST PUSH0 PUSH2 0x1D37 PUSH1 0x15 DUP4 PUSH2 0x1B49 JUMP JUMPDEST SWAP2 POP PUSH2 0x1D42 DUP3 PUSH2 0x1D03 JUMP JUMPDEST PUSH1 0x20 DUP3 ADD SWAP1 POP SWAP2 SWAP1 POP JUMP JUMPDEST PUSH0 PUSH1 0x20 DUP3 ADD SWAP1 POP DUP2 DUP2 SUB PUSH0 DUP4 ADD MSTORE PUSH2 0x1D64 DUP2 PUSH2 0x1D2B JUMP JUMPDEST SWAP1 POP SWAP2 SWAP1 POP JUMP JUMPDEST PUSH32 0x54686973206163636F756E7420697320616C7265616479207265676973746572 PUSH0 DUP3 ADD MSTORE PUSH32 0x6564210000000000000000000000000000000000000000000000000000000000 PUSH1 0x20 DUP3 ADD MSTORE POP JUMP JUMPDEST PUSH0 PUSH2 0x1DC5 PUSH1 0x23 DUP4 PUSH2 0x1B49 JUMP JUMPDEST SWAP2 POP PUSH2 0x1DD0 DUP3 PUSH2 0x1D6B JUMP JUMPDEST PUSH1 0x40 DUP3 ADD SWAP1 POP SWAP2 SWAP1 POP JUMP JUMPDEST PUSH0 PUSH1 0x20 DUP3 ADD SWAP1 POP DUP2 DUP2 SUB PUSH0 DUP4 ADD MSTORE PUSH2 0x1DF2 DUP2 PUSH2 0x1DB9 JUMP JUMPDEST SWAP1 POP SWAP2 SWAP1 POP JUMP JUMPDEST PUSH0 PUSH1 0x60 DUP3 ADD SWAP1 POP PUSH2 0x1E0C PUSH0 DUP4 ADD DUP7 PUSH2 0x1A47 JUMP JUMPDEST PUSH2 0x1E19 PUSH1 0x20 DUP4 ADD DUP6 PUSH2 0x1A47 JUMP JUMPDEST PUSH2 0x1E26 PUSH1 0x40 DUP4 ADD DUP5 PUSH2 0x17C3 JUMP JUMPDEST SWAP5 SWAP4 POP POP POP POP JUMP JUMPDEST PUSH2 0x1E37 DUP2 PUSH2 0x19A0 JUMP JUMPDEST DUP2 EQ PUSH2 0x1E41 JUMPI PUSH0 DUP1 REVERT JUMPDEST POP JUMP JUMPDEST PUSH0 DUP2 MLOAD SWAP1 POP PUSH2 0x1E52 DUP2 PUSH2 0x1E2E JUMP JUMPDEST SWAP3 SWAP2 POP POP JUMP JUMPDEST PUSH0 PUSH1 0x20 DUP3 DUP5 SUB SLT ISZERO PUSH2 0x1E6D JUMPI PUSH2 0x1E6C PUSH2 0x17EB JUMP JUMPDEST JUMPDEST PUSH0 PUSH2 0x1E7A DUP5 DUP3 DUP6 ADD PUSH2 0x1E44 JUMP JUMPDEST SWAP2 POP POP SWAP3 SWAP2 POP POP JUMP JUMPDEST PUSH32 0x7472616E73666572206661696C65640000000000000000000000000000000000 PUSH0 DUP3 ADD MSTORE POP JUMP JUMPDEST PUSH0 PUSH2 0x1EB7 PUSH1 0xF DUP4 PUSH2 0x1B49 JUMP JUMPDEST SWAP2 POP PUSH2 0x1EC2 DUP3 PUSH2 0x1E83 JUMP JUMPDEST PUSH1 0x20 DUP3 ADD SWAP1 POP SWAP2 SWAP1 POP JUMP JUMPDEST PUSH0 PUSH1 0x20 DUP3 ADD SWAP1 POP DUP2 DUP2 SUB PUSH0 DUP4 ADD MSTORE PUSH2 0x1EE4 DUP2 PUSH2 0x1EAB JUMP JUMPDEST SWAP1 POP SWAP2 SWAP1 POP JUMP JUMPDEST PUSH32 0x5468697320616374696F6E2063616E20626520706572666F726D656420627920 PUSH0 DUP3 ADD MSTORE PUSH32 0x74686520636F6E7472616374206F776E65720000000000000000000000000000 PUSH1 0x20 DUP3 ADD MSTORE POP JUMP JUMPDEST PUSH0 PUSH2 0x1F45 PUSH1 0x32 DUP4 PUSH2 0x1B49 JUMP JUMPDEST SWAP2 POP PUSH2 0x1F50 DUP3 PUSH2 0x1EEB JUMP JUMPDEST PUSH1 0x40 DUP3 ADD SWAP1 POP SWAP2 SWAP1 POP JUMP JUMPDEST PUSH0 PUSH1 0x20 DUP3 ADD SWAP1 POP DUP2 DUP2 SUB PUSH0 DUP4 ADD MSTORE PUSH2 0x1F72 DUP2 PUSH2 0x1F39 JUMP JUMPDEST SWAP1 POP SWAP2 SWAP1 POP JUMP JUMPDEST PUSH0 PUSH1 0x40 DUP3 ADD SWAP1 POP PUSH2 0x1F8C PUSH0 DUP4 ADD DUP6 PUSH2 0x1A47 JUMP JUMPDEST PUSH2 0x1F99 PUSH1 0x20 DUP4 ADD DUP5 PUSH2 0x17C3 JUMP JUMPDEST SWAP4 SWAP3 POP POP POP JUMP JUMPDEST PUSH32 0x696E76616C6964206E6577206273740000000000000000000000000000000000 PUSH0 DUP3 ADD MSTORE POP JUMP JUMPDEST PUSH0 PUSH2 0x1FD4 PUSH1 0xF DUP4 PUSH2 0x1B49 JUMP JUMPDEST SWAP2 POP PUSH2 0x1FDF DUP3 PUSH2 0x1FA0 JUMP JUMPDEST PUSH1 0x20 DUP3 ADD SWAP1 POP SWAP2 SWAP1 POP JUMP JUMPDEST PUSH0 PUSH1 0x20 DUP3 ADD SWAP1 POP DUP2 DUP2 SUB PUSH0 DUP4 ADD MSTORE PUSH2 0x2001 DUP2 PUSH2 0x1FC8 JUMP JUMPDEST SWAP1 POP SWAP2 SWAP1 POP JUMP JUMPDEST PUSH32 0x696E76616C69642070657263656E746167650000000000000000000000000000 PUSH0 DUP3 ADD MSTORE POP JUMP JUMPDEST PUSH0 PUSH2 0x203C PUSH1 0x12 DUP4 PUSH2 0x1B49 JUMP JUMPDEST SWAP2 POP PUSH2 0x2047 DUP3 PUSH2 0x2008 JUMP JUMPDEST PUSH1 0x20 DUP3 ADD SWAP1 POP SWAP2 SWAP1 POP JUMP JUMPDEST PUSH0 PUSH1 0x20 DUP3 ADD SWAP1 POP DUP2 DUP2 SUB PUSH0 DUP4 ADD MSTORE PUSH2 0x2069 DUP2 PUSH2 0x2030 JUMP JUMPDEST SWAP1 POP SWAP2 SWAP1 POP JUMP JUMPDEST PUSH32 0x4E487B7100000000000000000000000000000000000000000000000000000000 PUSH0 MSTORE PUSH1 0x11 PUSH1 0x4 MSTORE PUSH1 0x24 PUSH0 REVERT JUMPDEST PUSH0 PUSH2 0x20A7 DUP3 PUSH2 0x17BA JUMP JUMPDEST SWAP2 POP PUSH2 0x20B2 DUP4 PUSH2 0x17BA JUMP JUMPDEST SWAP3 POP DUP3 DUP3 MUL PUSH2 0x20C0 DUP2 PUSH2 0x17BA JUMP JUMPDEST SWAP2 POP DUP3 DUP3 DIV DUP5 EQ DUP4 ISZERO OR PUSH2 0x20D7 JUMPI PUSH2 0x20D6 PUSH2 0x2070 JUMP JUMPDEST JUMPDEST POP SWAP3 SWAP2 POP POP JUMP JUMPDEST PUSH0 DUP2 MLOAD SWAP1 POP PUSH2 0x20EC DUP2 PUSH2 0x1874 JUMP JUMPDEST SWAP3 SWAP2 POP POP JUMP JUMPDEST PUSH0 PUSH1 0x20 DUP3 DUP5 SUB SLT ISZERO PUSH2 0x2107 JUMPI PUSH2 0x2106 PUSH2 0x17EB JUMP JUMPDEST JUMPDEST PUSH0 PUSH2 0x2114 DUP5 DUP3 DUP6 ADD PUSH2 0x20DE JUMP JUMPDEST SWAP2 POP POP SWAP3 SWAP2 POP POP JUMP JUMPDEST PUSH32 0x496E76616C6964206E6577206F776E6572000000000000000000000000000000 PUSH0 DUP3 ADD MSTORE POP JUMP JUMPDEST PUSH0 PUSH2 0x2151 PUSH1 0x11 DUP4 PUSH2 0x1B49 JUMP JUMPDEST SWAP2 POP PUSH2 0x215C DUP3 PUSH2 0x211D JUMP JUMPDEST PUSH1 0x20 DUP3 ADD SWAP1 POP SWAP2 SWAP1 POP JUMP JUMPDEST PUSH0 PUSH1 0x20 DUP3 ADD SWAP1 POP DUP2 DUP2 SUB PUSH0 DUP4 ADD MSTORE PUSH2 0x217E DUP2 PUSH2 0x2145 JUMP JUMPDEST SWAP1 POP SWAP2 SWAP1 POP JUMP JUMPDEST PUSH32 0x5265656E7472616E637947756172643A207265656E7472616E742063616C6C00 PUSH0 DUP3 ADD MSTORE POP JUMP JUMPDEST PUSH0 PUSH2 0x21B9 PUSH1 0x1F DUP4 PUSH2 0x1B49 JUMP JUMPDEST SWAP2 POP PUSH2 0x21C4 DUP3 PUSH2 0x2185 JUMP JUMPDEST PUSH1 0x20 DUP3 ADD SWAP1 POP SWAP2 SWAP1 POP JUMP JUMPDEST PUSH0 PUSH1 0x20 DUP3 ADD SWAP1 POP DUP2 DUP2 SUB PUSH0 DUP4 ADD MSTORE PUSH2 0x21E6 DUP2 PUSH2 0x21AD JUMP JUMPDEST SWAP1 POP SWAP2 SWAP1 POP JUMP JUMPDEST PUSH32 0x4E487B7100000000000000000000000000000000000000000000000000000000 PUSH0 MSTORE PUSH1 0x32 PUSH1 0x4 MSTORE PUSH1 0x24 PUSH0 REVERT JUMPDEST PUSH32 0x4E487B7100000000000000000000000000000000000000000000000000000000 PUSH0 MSTORE PUSH1 0x12 PUSH1 0x4 MSTORE PUSH1 0x24 PUSH0 REVERT JUMPDEST PUSH0 PUSH2 0x2251 DUP3 PUSH2 0x17BA JUMP JUMPDEST SWAP2 POP PUSH2 0x225C DUP4 PUSH2 0x17BA JUMP JUMPDEST SWAP3 POP DUP3 PUSH2 0x226C JUMPI PUSH2 0x226B PUSH2 0x221A JUMP JUMPDEST JUMPDEST DUP3 DUP3 DIV SWAP1 POP SWAP3 SWAP2 POP POP JUMP JUMPDEST PUSH32 0x526577617264207472616E73666572206661696C656400000000000000000000 PUSH0 DUP3 ADD MSTORE POP JUMP JUMPDEST PUSH0 PUSH2 0x22AB PUSH1 0x16 DUP4 PUSH2 0x1B49 JUMP JUMPDEST SWAP2 POP PUSH2 0x22B6 DUP3 PUSH2 0x2277 JUMP JUMPDEST PUSH1 0x20 DUP3 ADD SWAP1 POP SWAP2 SWAP1 POP JUMP JUMPDEST PUSH0 PUSH1 0x20 DUP3 ADD SWAP1 POP DUP2 DUP2 SUB PUSH0 DUP4 ADD MSTORE PUSH2 0x22D8 DUP2 PUSH2 0x229F JUMP JUMPDEST SWAP1 POP SWAP2 SWAP1 POP JUMP JUMPDEST PUSH0 PUSH2 0x22E9 DUP3 PUSH2 0x17BA JUMP JUMPDEST SWAP2 POP PUSH2 0x22F4 DUP4 PUSH2 0x17BA JUMP JUMPDEST SWAP3 POP DUP3 DUP3 ADD SWAP1 POP DUP1 DUP3 GT ISZERO PUSH2 0x230C JUMPI PUSH2 0x230B PUSH2 0x2070 JUMP JUMPDEST JUMPDEST SWAP3 SWAP2 POP POP JUMP JUMPDEST PUSH0 PUSH1 0x40 DUP3 ADD SWAP1 POP PUSH2 0x2325 PUSH0 DUP4 ADD DUP6 PUSH2 0x17C3 JUMP JUMPDEST PUSH2 0x2332 PUSH1 0x20 DUP4 ADD DUP5 PUSH2 0x17C3 JUMP JUMPDEST SWAP4 SWAP3 POP POP POP JUMP JUMPDEST PUSH0 PUSH2 0x2343 DUP3 PUSH2 0x17BA JUMP JUMPDEST SWAP2 POP PUSH32 0xFFFFFFFFFFFFFFFFFFFFFFFFFFFFFFFFFFFFFFFFFFFFFFFFFFFFFFFFFFFFFFFF DUP3 SUB PUSH2 0x2375 JUMPI PUSH2 0x2374 PUSH2 0x2070 JUMP JUMPDEST JUMPDEST PUSH1 0x1 DUP3 ADD SWAP1 POP SWAP2 SWAP1 POP JUMP INVALID LOG2 PUSH5 0x6970667358 0x22 SLT KECCAK256 DUP8 0xC6 SWAP16 SWAP6 CALLDATASIZE 0xAB 0xDC 0xE9 0xB1 GASPRICE CODECOPY BALANCE 0xB4 PUSH1 0x30 0x29 STATICCALL PUSH9 0x4E24FA54B590FE437F POP 0x25 0xD6 SHL PUSH18 0x64736F6C634300081A003300000000000000 "
				},
				"gasEstimates": {
					"creation": {
						"codeDepositCost": "1828400",
						"executionCost": "infinite",
						"totalCost": "infinite"
					},
					"external": {
						"GNT()": "infinite",
						"REGISTRATION_FEE()": "2514",
						"admin()": "2618",
						"changeRegsiterationFee(uint256)": "infinite",
						"contractTokenBalance()": "infinite",
						"getDirectReferrals(address)": "infinite",
						"getIndirectReferrals(address)": "infinite",
						"getUserDetails(address)": "infinite",
						"levelPercentage(uint256)": "infinite",
						"maxReferralDepth()": "2449",
						"pause()": "2540",
						"paused()": "26674",
						"registration(address)": "infinite",
						"transferOwnership(address)": "30686",
						"unpaused()": "26650",
						"updateLLTAddress(address)": "26941",
						"users(address)": "infinite",
						"withdraw(uint256)": "infinite"
					},
					"internal": {
						"distributeReferralIncome(address)": "infinite"
					}
				},
				"methodIdentifiers": {
					"GNT()": "8c546f81",
					"REGISTRATION_FEE()": "64b4f751",
					"admin()": "f851a440",
					"changeRegsiterationFee(uint256)": "7e4c0e32",
					"contractTokenBalance()": "9e9aed62",
					"getDirectReferrals(address)": "d2c8e0e5",
					"getIndirectReferrals(address)": "4f404243",
					"getUserDetails(address)": "cc3d967b",
					"levelPercentage(uint256)": "5dc68b0a",
					"maxReferralDepth()": "04189250",
					"pause()": "8456cb59",
					"paused()": "5c975abb",
					"registration(address)": "0840605a",
					"transferOwnership(address)": "f2fde38b",
					"unpaused()": "b0b62f5a",
					"updateLLTAddress(address)": "5953942b",
					"users(address)": "a87430ba",
					"withdraw(uint256)": "2e1a7d4d"
				}
			},
			"storageLayout": {
				"storage": [
					{
						"astId": 10,
						"contract": "MLM/Multi-level MLM System/GrowChain.sol:GrowChain",
						"label": "_status",
						"offset": 0,
						"slot": "0",
						"type": "t_uint256"
					},
					{
						"astId": 100,
						"contract": "MLM/Multi-level MLM System/GrowChain.sol:GrowChain",
						"label": "GNT",
						"offset": 0,
						"slot": "1",
						"type": "t_contract(IERC20)95"
					},
					{
						"astId": 102,
						"contract": "MLM/Multi-level MLM System/GrowChain.sol:GrowChain",
						"label": "admin",
						"offset": 0,
						"slot": "2",
						"type": "t_address"
					},
					{
						"astId": 104,
						"contract": "MLM/Multi-level MLM System/GrowChain.sol:GrowChain",
						"label": "pause",
						"offset": 20,
						"slot": "2",
						"type": "t_bool"
					},
					{
						"astId": 111,
						"contract": "MLM/Multi-level MLM System/GrowChain.sol:GrowChain",
						"label": "REGISTRATION_FEE",
						"offset": 0,
						"slot": "3",
						"type": "t_uint256"
					},
					{
						"astId": 121,
						"contract": "MLM/Multi-level MLM System/GrowChain.sol:GrowChain",
						"label": "levelPercentage",
						"offset": 0,
						"slot": "4",
						"type": "t_array(t_uint256)5_storage"
					},
					{
						"astId": 124,
						"contract": "MLM/Multi-level MLM System/GrowChain.sol:GrowChain",
						"label": "maxReferralDepth",
						"offset": 0,
						"slot": "9",
						"type": "t_uint256"
					},
					{
						"astId": 184,
						"contract": "MLM/Multi-level MLM System/GrowChain.sol:GrowChain",
						"label": "users",
						"offset": 0,
						"slot": "10",
						"type": "t_mapping(t_address,t_struct(User)179_storage)"
					}
				],
				"types": {
					"t_address": {
						"encoding": "inplace",
						"label": "address",
						"numberOfBytes": "20"
					},
					"t_array(t_address)dyn_storage": {
						"base": "t_address",
						"encoding": "dynamic_array",
						"label": "address[]",
						"numberOfBytes": "32"
					},
					"t_array(t_uint256)5_storage": {
						"base": "t_uint256",
						"encoding": "inplace",
						"label": "uint256[5]",
						"numberOfBytes": "160"
					},
					"t_bool": {
						"encoding": "inplace",
						"label": "bool",
						"numberOfBytes": "1"
					},
					"t_contract(IERC20)95": {
						"encoding": "inplace",
						"label": "contract IERC20",
						"numberOfBytes": "20"
					},
					"t_mapping(t_address,t_struct(User)179_storage)": {
						"encoding": "mapping",
						"key": "t_address",
						"label": "mapping(address => struct GrowChain.User)",
						"numberOfBytes": "32",
						"value": "t_struct(User)179_storage"
					},
					"t_struct(User)179_storage": {
						"encoding": "inplace",
						"label": "struct GrowChain.User",
						"members": [
							{
								"astId": 160,
								"contract": "MLM/Multi-level MLM System/GrowChain.sol:GrowChain",
								"label": "referrer",
								"offset": 0,
								"slot": "0",
								"type": "t_address"
							},
							{
								"astId": 162,
								"contract": "MLM/Multi-level MLM System/GrowChain.sol:GrowChain",
								"label": "directReferralIncome",
								"offset": 0,
								"slot": "1",
								"type": "t_uint256"
							},
							{
								"astId": 164,
								"contract": "MLM/Multi-level MLM System/GrowChain.sol:GrowChain",
								"label": "isRegistered",
								"offset": 0,
								"slot": "2",
								"type": "t_bool"
							},
							{
								"astId": 166,
								"contract": "MLM/Multi-level MLM System/GrowChain.sol:GrowChain",
								"label": "referralCount",
								"offset": 0,
								"slot": "3",
								"type": "t_uint256"
							},
							{
								"astId": 168,
								"contract": "MLM/Multi-level MLM System/GrowChain.sol:GrowChain",
								"label": "registrationTime",
								"offset": 0,
								"slot": "4",
								"type": "t_uint256"
							},
							{
								"astId": 171,
								"contract": "MLM/Multi-level MLM System/GrowChain.sol:GrowChain",
								"label": "directReferrals",
								"offset": 0,
								"slot": "5",
								"type": "t_array(t_address)dyn_storage"
							},
							{
								"astId": 173,
								"contract": "MLM/Multi-level MLM System/GrowChain.sol:GrowChain",
								"label": "teamIncome",
								"offset": 0,
								"slot": "6",
								"type": "t_uint256"
							},
							{
								"astId": 175,
								"contract": "MLM/Multi-level MLM System/GrowChain.sol:GrowChain",
								"label": "teamSize",
								"offset": 0,
								"slot": "7",
								"type": "t_uint256"
							},
							{
								"astId": 178,
								"contract": "MLM/Multi-level MLM System/GrowChain.sol:GrowChain",
								"label": "indirectReferrals",
								"offset": 0,
								"slot": "8",
								"type": "t_array(t_address)dyn_storage"
							}
						],
						"numberOfBytes": "288"
					},
					"t_uint256": {
						"encoding": "inplace",
						"label": "uint256",
						"numberOfBytes": "32"
					}
				}
			},
			"userdoc": {
				"kind": "user",
				"methods": {},
				"version": 1
			}
		}
	}
}