{
	"MLM/Multi-level MLM System/GrowChain.sol": {
		"GrowChain": {
			"abi": [
				{
					"inputs": [
						{
							"internalType": "address",
							"name": "_gntAddress",
							"type": "address"
						}
					],
					"stateMutability": "nonpayable",
					"type": "constructor"
				},
				{
					"anonymous": false,
					"inputs": [
						{
							"indexed": true,
							"internalType": "address",
							"name": "to",
							"type": "address"
						},
						{
							"indexed": false,
							"internalType": "uint256",
							"name": "level",
							"type": "uint256"
						},
						{
							"indexed": false,
							"internalType": "uint256",
							"name": "amount",
							"type": "uint256"
						}
					],
					"name": "IncomeDistributed",
					"type": "event"
				},
				{
					"anonymous": false,
					"inputs": [
						{
							"indexed": true,
							"internalType": "address",
							"name": "oldOwner",
							"type": "address"
						},
						{
							"indexed": true,
							"internalType": "address",
							"name": "newOwner",
							"type": "address"
						}
					],
					"name": "OwnershipTransferred",
					"type": "event"
				},
				{
					"anonymous": false,
					"inputs": [
						{
							"indexed": true,
							"internalType": "address",
							"name": "user",
							"type": "address"
						},
						{
							"indexed": true,
							"internalType": "address",
							"name": "referrer",
							"type": "address"
						},
						{
							"indexed": false,
							"internalType": "uint256",
							"name": "time",
							"type": "uint256"
						}
					],
					"name": "Registered",
					"type": "event"
				},
				{
					"anonymous": false,
					"inputs": [
						{
							"indexed": true,
							"internalType": "address",
							"name": "oldToken",
							"type": "address"
						},
						{
							"indexed": true,
							"internalType": "address",
							"name": "newToken",
							"type": "address"
						}
					],
					"name": "TokenUpdated",
					"type": "event"
				},
				{
					"anonymous": false,
					"inputs": [
						{
							"indexed": true,
							"internalType": "address",
							"name": "admin",
							"type": "address"
						},
						{
							"indexed": false,
							"internalType": "uint256",
							"name": "amount",
							"type": "uint256"
						}
					],
					"name": "Withdraw",
					"type": "event"
				},
				{
					"inputs": [],
					"name": "GNT",
					"outputs": [
						{
							"internalType": "contract IERC20",
							"name": "",
							"type": "address"
						}
					],
					"stateMutability": "view",
					"type": "function"
				},
				{
					"inputs": [],
					"name": "REGISTRATION_FEE",
					"outputs": [
						{
							"internalType": "uint256",
							"name": "",
							"type": "uint256"
						}
					],
					"stateMutability": "view",
					"type": "function"
				},
				{
					"inputs": [],
					"name": "admin",
					"outputs": [
						{
							"internalType": "address",
							"name": "",
							"type": "address"
						}
					],
					"stateMutability": "view",
					"type": "function"
				},
				{
					"inputs": [
						{
							"internalType": "uint256",
							"name": "_percentage",
							"type": "uint256"
						}
					],
					"name": "changeRegistrationFee",
					"outputs": [],
					"stateMutability": "nonpayable",
					"type": "function"
				},
				{
					"inputs": [],
					"name": "contractTokenBalance",
					"outputs": [
						{
							"internalType": "uint256",
							"name": "",
							"type": "uint256"
						}
					],
					"stateMutability": "view",
					"type": "function"
				},
				{
					"inputs": [
						{
							"internalType": "address",
							"name": "_user",
							"type": "address"
						},
						{
							"internalType": "uint256",
							"name": "start",
							"type": "uint256"
						},
						{
							"internalType": "uint256",
							"name": "limit",
							"type": "uint256"
						}
					],
					"name": "getDirectReferralsPaginated",
					"outputs": [
						{
							"internalType": "address[]",
							"name": "",
							"type": "address[]"
						}
					],
					"stateMutability": "view",
					"type": "function"
				},
				{
					"inputs": [
						{
							"internalType": "address",
							"name": "_user",
							"type": "address"
						}
					],
					"name": "getIndirectReferrals",
					"outputs": [
						{
							"internalType": "address[]",
							"name": "",
							"type": "address[]"
						}
					],
					"stateMutability": "view",
					"type": "function"
				},
				{
					"inputs": [
						{
							"internalType": "address",
							"name": "_user",
							"type": "address"
						}
					],
					"name": "getUserDetails",
					"outputs": [
						{
							"internalType": "address",
							"name": "referrer",
							"type": "address"
						},
						{
							"internalType": "uint256",
							"name": "directReferralIncome",
							"type": "uint256"
						},
						{
							"internalType": "uint256",
							"name": "referralCount",
							"type": "uint256"
						},
						{
							"internalType": "uint256",
							"name": "teamIncome",
							"type": "uint256"
						},
						{
							"internalType": "uint256",
							"name": "teamSize",
							"type": "uint256"
						},
						{
							"internalType": "bool",
							"name": "isRegistered",
							"type": "bool"
						},
						{
							"internalType": "uint256",
							"name": "registrationTime",
							"type": "uint256"
						}
					],
					"stateMutability": "view",
					"type": "function"
				},
				{
					"inputs": [
						{
							"internalType": "uint256",
							"name": "",
							"type": "uint256"
						}
					],
					"name": "levelPercentage",
					"outputs": [
						{
							"internalType": "uint256",
							"name": "",
							"type": "uint256"
						}
					],
					"stateMutability": "view",
					"type": "function"
				},
				{
					"inputs": [],
					"name": "maxReferralDepth",
					"outputs": [
						{
							"internalType": "uint256",
							"name": "",
							"type": "uint256"
						}
					],
					"stateMutability": "view",
					"type": "function"
				},
				{
					"inputs": [],
					"name": "pause",
					"outputs": [
						{
							"internalType": "bool",
							"name": "",
							"type": "bool"
						}
					],
					"stateMutability": "view",
					"type": "function"
				},
				{
					"inputs": [],
					"name": "paused",
					"outputs": [],
					"stateMutability": "nonpayable",
					"type": "function"
				},
				{
					"inputs": [
						{
							"internalType": "address",
							"name": "_referrer",
							"type": "address"
						}
					],
					"name": "registration",
					"outputs": [],
					"stateMutability": "nonpayable",
					"type": "function"
				},
				{
					"inputs": [
						{
							"internalType": "address",
							"name": "_newOwner",
							"type": "address"
						}
					],
					"name": "transferOwnership",
					"outputs": [],
					"stateMutability": "nonpayable",
					"type": "function"
				},
				{
					"inputs": [],
					"name": "unpaused",
					"outputs": [],
					"stateMutability": "nonpayable",
					"type": "function"
				},
				{
					"inputs": [
						{
							"internalType": "address",
							"name": "_token",
							"type": "address"
						}
					],
					"name": "updateTokenAddress",
					"outputs": [],
					"stateMutability": "nonpayable",
					"type": "function"
				},
				{
					"inputs": [
						{
							"internalType": "address",
							"name": "",
							"type": "address"
						}
					],
					"name": "users",
					"outputs": [
						{
							"internalType": "address",
							"name": "referrer",
							"type": "address"
						},
						{
							"internalType": "uint256",
							"name": "directReferralIncome",
							"type": "uint256"
						},
						{
							"internalType": "bool",
							"name": "isRegistered",
							"type": "bool"
						},
						{
							"internalType": "uint256",
							"name": "referralCount",
							"type": "uint256"
						},
						{
							"internalType": "uint256",
							"name": "registrationTime",
							"type": "uint256"
						},
						{
							"internalType": "uint256",
							"name": "teamIncome",
							"type": "uint256"
						},
						{
							"internalType": "uint256",
							"name": "teamSize",
							"type": "uint256"
						}
					],
					"stateMutability": "view",
					"type": "function"
				},
				{
					"inputs": [
						{
							"internalType": "uint256",
							"name": "amount",
							"type": "uint256"
						}
					],
					"name": "withdraw",
					"outputs": [],
					"stateMutability": "nonpayable",
					"type": "function"
				}
			],
			"devdoc": {
				"kind": "dev",
				"methods": {},
				"version": 1
			},
			"evm": {
				"assembly": "    /* \"MLM/Multi-level MLM System/GrowChain.sol\":458:7036  contract GrowChain is ReentrancyGuard {... */\n  mstore(0x40, 0x80)\n    /* \"MLM/Multi-level MLM System/GrowChain.sol\":608:619  10 * 10**18 */\n  0x8ac7230489e80000\n    /* \"MLM/Multi-level MLM System/GrowChain.sol\":574:619  uint256 public REGISTRATION_FEE = 10 * 10**18 */\n  0x03\n  sstore\n    /* \"MLM/Multi-level MLM System/GrowChain.sol\":625:680  uint256[5] public levelPercentage = [40, 20, 15, 10, 5] */\n  mload(0x40)\n  dup1\n  0xa0\n  add\n  0x40\n  mstore\n  dup1\n    /* \"MLM/Multi-level MLM System/GrowChain.sol\":662:664  40 */\n  0x28\n    /* \"MLM/Multi-level MLM System/GrowChain.sol\":625:680  uint256[5] public levelPercentage = [40, 20, 15, 10, 5] */\n  0xff\n  and\n  dup2\n  mstore\n  0x20\n  add\n    /* \"MLM/Multi-level MLM System/GrowChain.sol\":666:668  20 */\n  0x14\n    /* \"MLM/Multi-level MLM System/GrowChain.sol\":625:680  uint256[5] public levelPercentage = [40, 20, 15, 10, 5] */\n  0xff\n  and\n  dup2\n  mstore\n  0x20\n  add\n    /* \"MLM/Multi-level MLM System/GrowChain.sol\":670:672  15 */\n  0x0f\n    /* \"MLM/Multi-level MLM System/GrowChain.sol\":625:680  uint256[5] public levelPercentage = [40, 20, 15, 10, 5] */\n  0xff\n  and\n  dup2\n  mstore\n  0x20\n  add\n    /* \"MLM/Multi-level MLM System/GrowChain.sol\":674:676  10 */\n  0x0a\n    /* \"MLM/Multi-level MLM System/GrowChain.sol\":625:680  uint256[5] public levelPercentage = [40, 20, 15, 10, 5] */\n  0xff\n  and\n  dup2\n  mstore\n  0x20\n  add\n    /* \"MLM/Multi-level MLM System/GrowChain.sol\":678:679  5 */\n  0x05\n    /* \"MLM/Multi-level MLM System/GrowChain.sol\":625:680  uint256[5] public levelPercentage = [40, 20, 15, 10, 5] */\n  0xff\n  and\n  dup2\n  mstore\n  pop\n  0x04\n  swap1\n  0x05\n  tag_1\n  swap3\n  swap2\n  swap1\n  tag_2\n  jump\t// in\ntag_1:\n  pop\n    /* \"MLM/Multi-level MLM System/GrowChain.sol\":737:738  5 */\n  0x05\n    /* \"MLM/Multi-level MLM System/GrowChain.sol\":703:738  uint256 public maxReferralDepth = 5 */\n  0x09\n  sstore\n    /* \"MLM/Multi-level MLM System/GrowChain.sol\":1713:1816  constructor(address _gntAddress) {... */\n  callvalue\n  dup1\n  iszero\n  tag_3\n  jumpi\n  0x00\n  dup1\n  revert\ntag_3:\n  pop\n  mload(0x40)\n  sub(codesize, bytecodeSize)\n  dup1\n  bytecodeSize\n  dup4\n  codecopy\n  dup2\n  dup2\n  add\n  0x40\n  mstore\n  dup2\n  add\n  swap1\n  tag_4\n  swap2\n  swap1\n  tag_5\n  jump\t// in\ntag_4:\n    /* \"@openzeppelin/contracts/security/ReentrancyGuard.sol\":1716:1717  1 */\n  0x01\n    /* \"@openzeppelin/contracts/security/ReentrancyGuard.sol\":1821:1828  _status */\n  0x00\n    /* \"@openzeppelin/contracts/security/ReentrancyGuard.sol\":1821:1843  _status = _NOT_ENTERED */\n  dup2\n  swap1\n  sstore\n  pop\n    /* \"MLM/Multi-level MLM System/GrowChain.sol\":1769:1780  _gntAddress */\n  dup1\n    /* \"MLM/Multi-level MLM System/GrowChain.sol\":1756:1759  GNT */\n  0x01\n  0x00\n    /* \"MLM/Multi-level MLM System/GrowChain.sol\":1756:1781  GNT = IERC20(_gntAddress) */\n  0x0100\n  exp\n  dup2\n  sload\n  dup2\n  0xffffffffffffffffffffffffffffffffffffffff\n  mul\n  not\n  and\n  swap1\n  dup4\n  0xffffffffffffffffffffffffffffffffffffffff\n  and\n  mul\n  or\n  swap1\n  sstore\n  pop\n    /* \"MLM/Multi-level MLM System/GrowChain.sol\":1799:1809  msg.sender */\n  caller\n    /* \"MLM/Multi-level MLM System/GrowChain.sol\":1791:1796  admin */\n  0x02\n  0x00\n    /* \"MLM/Multi-level MLM System/GrowChain.sol\":1791:1809  admin = msg.sender */\n  0x0100\n  exp\n  dup2\n  sload\n  dup2\n  0xffffffffffffffffffffffffffffffffffffffff\n  mul\n  not\n  and\n  swap1\n  dup4\n  0xffffffffffffffffffffffffffffffffffffffff\n  and\n  mul\n  or\n  swap1\n  sstore\n  pop\n    /* \"MLM/Multi-level MLM System/GrowChain.sol\":1713:1816  constructor(address _gntAddress) {... */\n  pop\n    /* \"MLM/Multi-level MLM System/GrowChain.sol\":458:7036  contract GrowChain is ReentrancyGuard {... */\n  jump(tag_10)\ntag_2:\n  dup3\n  0x05\n  dup2\n  add\n  swap3\n  dup3\n  iszero\n  tag_11\n  jumpi\n  swap2\n  0x20\n  mul\n  dup3\n  add\ntag_12:\n  dup3\n  dup2\n  gt\n  iszero\n  tag_13\n  jumpi\n  dup3\n  mload\n  dup3\n  swap1\n  0xff\n  and\n  swap1\n  sstore\n  swap2\n  0x20\n  add\n  swap2\n  swap1\n  0x01\n  add\n  swap1\n  jump(tag_12)\ntag_13:\ntag_11:\n  pop\n  swap1\n  pop\n  tag_14\n  swap2\n  swap1\n  tag_15\n  jump\t// in\ntag_14:\n  pop\n  swap1\n  jump\t// out\ntag_15:\ntag_16:\n  dup1\n  dup3\n  gt\n  iszero\n  tag_17\n  jumpi\n  0x00\n  dup2\n  0x00\n  swap1\n  sstore\n  pop\n  0x01\n  add\n  jump(tag_16)\ntag_17:\n  pop\n  swap1\n  jump\t// out\n    /* \"#utility.yul\":88:205   */\ntag_19:\n    /* \"#utility.yul\":197:198   */\n  0x00\n    /* \"#utility.yul\":194:195   */\n  dup1\n    /* \"#utility.yul\":187:199   */\n  revert\n    /* \"#utility.yul\":334:460   */\ntag_21:\n    /* \"#utility.yul\":371:378   */\n  0x00\n    /* \"#utility.yul\":411:453   */\n  0xffffffffffffffffffffffffffffffffffffffff\n    /* \"#utility.yul\":404:409   */\n  dup3\n    /* \"#utility.yul\":400:454   */\n  and\n    /* \"#utility.yul\":389:454   */\n  swap1\n  pop\n    /* \"#utility.yul\":334:460   */\n  swap2\n  swap1\n  pop\n  jump\t// out\n    /* \"#utility.yul\":466:562   */\ntag_22:\n    /* \"#utility.yul\":503:510   */\n  0x00\n    /* \"#utility.yul\":532:556   */\n  tag_31\n    /* \"#utility.yul\":550:555   */\n  dup3\n    /* \"#utility.yul\":532:556   */\n  tag_21\n  jump\t// in\ntag_31:\n    /* \"#utility.yul\":521:556   */\n  swap1\n  pop\n    /* \"#utility.yul\":466:562   */\n  swap2\n  swap1\n  pop\n  jump\t// out\n    /* \"#utility.yul\":568:690   */\ntag_23:\n    /* \"#utility.yul\":641:665   */\n  tag_33\n    /* \"#utility.yul\":659:664   */\n  dup2\n    /* \"#utility.yul\":641:665   */\n  tag_22\n  jump\t// in\ntag_33:\n    /* \"#utility.yul\":634:639   */\n  dup2\n    /* \"#utility.yul\":631:666   */\n  eq\n    /* \"#utility.yul\":621:684   */\n  tag_34\n  jumpi\n    /* \"#utility.yul\":680:681   */\n  0x00\n    /* \"#utility.yul\":677:678   */\n  dup1\n    /* \"#utility.yul\":670:682   */\n  revert\n    /* \"#utility.yul\":621:684   */\ntag_34:\n    /* \"#utility.yul\":568:690   */\n  pop\n  jump\t// out\n    /* \"#utility.yul\":696:839   */\ntag_24:\n    /* \"#utility.yul\":753:758   */\n  0x00\n    /* \"#utility.yul\":784:790   */\n  dup2\n    /* \"#utility.yul\":778:791   */\n  mload\n    /* \"#utility.yul\":769:791   */\n  swap1\n  pop\n    /* \"#utility.yul\":800:833   */\n  tag_36\n    /* \"#utility.yul\":827:832   */\n  dup2\n    /* \"#utility.yul\":800:833   */\n  tag_23\n  jump\t// in\ntag_36:\n    /* \"#utility.yul\":696:839   */\n  swap3\n  swap2\n  pop\n  pop\n  jump\t// out\n    /* \"#utility.yul\":845:1196   */\ntag_5:\n    /* \"#utility.yul\":915:921   */\n  0x00\n    /* \"#utility.yul\":964:966   */\n  0x20\n    /* \"#utility.yul\":952:961   */\n  dup3\n    /* \"#utility.yul\":943:950   */\n  dup5\n    /* \"#utility.yul\":939:962   */\n  sub\n    /* \"#utility.yul\":935:967   */\n  slt\n    /* \"#utility.yul\":932:1051   */\n  iszero\n  tag_38\n  jumpi\n    /* \"#utility.yul\":970:1049   */\n  tag_39\n  tag_19\n  jump\t// in\ntag_39:\n    /* \"#utility.yul\":932:1051   */\ntag_38:\n    /* \"#utility.yul\":1090:1091   */\n  0x00\n    /* \"#utility.yul\":1115:1179   */\n  tag_40\n    /* \"#utility.yul\":1171:1178   */\n  dup5\n    /* \"#utility.yul\":1162:1168   */\n  dup3\n    /* \"#utility.yul\":1151:1160   */\n  dup6\n    /* \"#utility.yul\":1147:1169   */\n  add\n    /* \"#utility.yul\":1115:1179   */\n  tag_24\n  jump\t// in\ntag_40:\n    /* \"#utility.yul\":1105:1179   */\n  swap2\n  pop\n    /* \"#utility.yul\":1061:1189   */\n  pop\n    /* \"#utility.yul\":845:1196   */\n  swap3\n  swap2\n  pop\n  pop\n  jump\t// out\n    /* \"MLM/Multi-level MLM System/GrowChain.sol\":458:7036  contract GrowChain is ReentrancyGuard {... */\ntag_10:\n  dataSize(sub_0)\n  dup1\n  dataOffset(sub_0)\n  0x00\n  codecopy\n  0x00\n  return\nstop\n\nsub_0: assembly {\n        /* \"MLM/Multi-level MLM System/GrowChain.sol\":458:7036  contract GrowChain is ReentrancyGuard {... */\n      mstore(0x40, 0x80)\n      callvalue\n      dup1\n      iszero\n      tag_1\n      jumpi\n      0x00\n      dup1\n      revert\n    tag_1:\n      pop\n      jumpi(tag_2, lt(calldatasize, 0x04))\n      shr(0xe0, calldataload(0x00))\n      dup1\n      0x8456cb59\n      gt\n      tag_21\n      jumpi\n      dup1\n      0xb0b62f5a\n      gt\n      tag_22\n      jumpi\n      dup1\n      0xb0b62f5a\n      eq\n      tag_16\n      jumpi\n      dup1\n      0xcc3d967b\n      eq\n      tag_17\n      jumpi\n      dup1\n      0xd9c842fd\n      eq\n      tag_18\n      jumpi\n      dup1\n      0xf2fde38b\n      eq\n      tag_19\n      jumpi\n      dup1\n      0xf851a440\n      eq\n      tag_20\n      jumpi\n      jump(tag_2)\n    tag_22:\n      dup1\n      0x8456cb59\n      eq\n      tag_12\n      jumpi\n      dup1\n      0x8c546f81\n      eq\n      tag_13\n      jumpi\n      dup1\n      0x9e9aed62\n      eq\n      tag_14\n      jumpi\n      dup1\n      0xa87430ba\n      eq\n      tag_15\n      jumpi\n      jump(tag_2)\n    tag_21:\n      dup1\n      0x50050769\n      gt\n      tag_23\n      jumpi\n      dup1\n      0x50050769\n      eq\n      tag_7\n      jumpi\n      dup1\n      0x5c975abb\n      eq\n      tag_8\n      jumpi\n      dup1\n      0x5dc68b0a\n      eq\n      tag_9\n      jumpi\n      dup1\n      0x64b4f751\n      eq\n      tag_10\n      jumpi\n      dup1\n      0x6691461a\n      eq\n      tag_11\n      jumpi\n      jump(tag_2)\n    tag_23:\n      dup1\n      0x04189250\n      eq\n      tag_3\n      jumpi\n      dup1\n      0x0840605a\n      eq\n      tag_4\n      jumpi\n      dup1\n      0x2e1a7d4d\n      eq\n      tag_5\n      jumpi\n      dup1\n      0x4f404243\n      eq\n      tag_6\n      jumpi\n    tag_2:\n      0x00\n      dup1\n      revert\n        /* \"MLM/Multi-level MLM System/GrowChain.sol\":703:738  uint256 public maxReferralDepth = 5 */\n    tag_3:\n      tag_24\n      tag_25\n      jump\t// in\n    tag_24:\n      mload(0x40)\n      tag_26\n      swap2\n      swap1\n      tag_27\n      jump\t// in\n    tag_26:\n      mload(0x40)\n      dup1\n      swap2\n      sub\n      swap1\n      return\n        /* \"MLM/Multi-level MLM System/GrowChain.sol\":2181:3105  function registration(address _referrer)... */\n    tag_4:\n      tag_28\n      0x04\n      dup1\n      calldatasize\n      sub\n      dup2\n      add\n      swap1\n      tag_29\n      swap2\n      swap1\n      tag_30\n      jump\t// in\n    tag_29:\n      tag_31\n      jump\t// in\n    tag_28:\n      stop\n        /* \"MLM/Multi-level MLM System/GrowChain.sol\":6245:6395  function withdraw(uint256 amount) external nonReentrant onlybyAdmin {... */\n    tag_5:\n      tag_32\n      0x04\n      dup1\n      calldatasize\n      sub\n      dup2\n      add\n      swap1\n      tag_33\n      swap2\n      swap1\n      tag_34\n      jump\t// in\n    tag_33:\n      tag_35\n      jump\t// in\n    tag_32:\n      stop\n        /* \"MLM/Multi-level MLM System/GrowChain.sol\":5655:5823  function getIndirectReferrals(address _user)... */\n    tag_6:\n      tag_36\n      0x04\n      dup1\n      calldatasize\n      sub\n      dup2\n      add\n      swap1\n      tag_37\n      swap2\n      swap1\n      tag_30\n      jump\t// in\n    tag_37:\n      tag_38\n      jump\t// in\n    tag_36:\n      mload(0x40)\n      tag_39\n      swap2\n      swap1\n      tag_40\n      jump\t// in\n    tag_39:\n      mload(0x40)\n      dup1\n      swap2\n      sub\n      swap1\n      return\n        /* \"MLM/Multi-level MLM System/GrowChain.sol\":5871:6057  function changeRegistrationFee(uint256 _percentage) external onlybyAdmin {... */\n    tag_7:\n      tag_41\n      0x04\n      dup1\n      calldatasize\n      sub\n      dup2\n      add\n      swap1\n      tag_42\n      swap2\n      swap1\n      tag_34\n      jump\t// in\n    tag_42:\n      tag_43\n      jump\t// in\n    tag_41:\n      stop\n        /* \"MLM/Multi-level MLM System/GrowChain.sol\":6063:6131  function paused() external onlybyAdmin {... */\n    tag_8:\n      tag_44\n      tag_45\n      jump\t// in\n    tag_44:\n      stop\n        /* \"MLM/Multi-level MLM System/GrowChain.sol\":625:680  uint256[5] public levelPercentage = [40, 20, 15, 10, 5] */\n    tag_9:\n      tag_46\n      0x04\n      dup1\n      calldatasize\n      sub\n      dup2\n      add\n      swap1\n      tag_47\n      swap2\n      swap1\n      tag_34\n      jump\t// in\n    tag_47:\n      tag_48\n      jump\t// in\n    tag_46:\n      mload(0x40)\n      tag_49\n      swap2\n      swap1\n      tag_27\n      jump\t// in\n    tag_49:\n      mload(0x40)\n      dup1\n      swap2\n      sub\n      swap1\n      return\n        /* \"MLM/Multi-level MLM System/GrowChain.sol\":574:619  uint256 public REGISTRATION_FEE = 10 * 10**18 */\n    tag_10:\n      tag_50\n      tag_51\n      jump\t// in\n    tag_50:\n      mload(0x40)\n      tag_52\n      swap2\n      swap1\n      tag_27\n      jump\t// in\n    tag_52:\n      mload(0x40)\n      dup1\n      swap2\n      sub\n      swap1\n      return\n        /* \"MLM/Multi-level MLM System/GrowChain.sol\":6752:6912  function updateTokenAddress(address _token) external onlybyAdmin {... */\n    tag_11:\n      tag_53\n      0x04\n      dup1\n      calldatasize\n      sub\n      dup2\n      add\n      swap1\n      tag_54\n      swap2\n      swap1\n      tag_30\n      jump\t// in\n    tag_54:\n      tag_55\n      jump\t// in\n    tag_53:\n      stop\n        /* \"MLM/Multi-level MLM System/GrowChain.sol\":551:568  bool public pause */\n    tag_12:\n      tag_56\n      tag_57\n      jump\t// in\n    tag_56:\n      mload(0x40)\n      tag_58\n      swap2\n      swap1\n      tag_59\n      jump\t// in\n    tag_58:\n      mload(0x40)\n      dup1\n      swap2\n      sub\n      swap1\n      return\n        /* \"MLM/Multi-level MLM System/GrowChain.sol\":502:519  IERC20 public GNT */\n    tag_13:\n      tag_60\n      tag_61\n      jump\t// in\n    tag_60:\n      mload(0x40)\n      tag_62\n      swap2\n      swap1\n      tag_63\n      jump\t// in\n    tag_62:\n      mload(0x40)\n      dup1\n      swap2\n      sub\n      swap1\n      return\n        /* \"MLM/Multi-level MLM System/GrowChain.sol\":6918:7034  function contractTokenBalance() external view returns (uint256) {... */\n    tag_14:\n      tag_64\n      tag_65\n      jump\t// in\n    tag_64:\n      mload(0x40)\n      tag_66\n      swap2\n      swap1\n      tag_27\n      jump\t// in\n    tag_66:\n      mload(0x40)\n      dup1\n      swap2\n      sub\n      swap1\n      return\n        /* \"MLM/Multi-level MLM System/GrowChain.sol\":1669:1706  mapping(address => User) public users */\n    tag_15:\n      tag_67\n      0x04\n      dup1\n      calldatasize\n      sub\n      dup2\n      add\n      swap1\n      tag_68\n      swap2\n      swap1\n      tag_30\n      jump\t// in\n    tag_68:\n      tag_69\n      jump\t// in\n    tag_67:\n      mload(0x40)\n      tag_70\n      swap8\n      swap7\n      swap6\n      swap5\n      swap4\n      swap3\n      swap2\n      swap1\n      tag_71\n      jump\t// in\n    tag_70:\n      mload(0x40)\n      dup1\n      swap2\n      sub\n      swap1\n      return\n        /* \"MLM/Multi-level MLM System/GrowChain.sol\":6137:6208  function unpaused() external onlybyAdmin {... */\n    tag_16:\n      tag_72\n      tag_73\n      jump\t// in\n    tag_72:\n      stop\n        /* \"MLM/Multi-level MLM System/GrowChain.sol\":4125:4759  function getUserDetails(address _user)... */\n    tag_17:\n      tag_74\n      0x04\n      dup1\n      calldatasize\n      sub\n      dup2\n      add\n      swap1\n      tag_75\n      swap2\n      swap1\n      tag_30\n      jump\t// in\n    tag_75:\n      tag_76\n      jump\t// in\n    tag_74:\n      mload(0x40)\n      tag_77\n      swap8\n      swap7\n      swap6\n      swap5\n      swap4\n      swap3\n      swap2\n      swap1\n      tag_78\n      jump\t// in\n    tag_77:\n      mload(0x40)\n      dup1\n      swap2\n      sub\n      swap1\n      return\n        /* \"MLM/Multi-level MLM System/GrowChain.sol\":5163:5649  function getDirectReferralsPaginated(address _user, uint256 start, uint256 limit)... */\n    tag_18:\n      tag_79\n      0x04\n      dup1\n      calldatasize\n      sub\n      dup2\n      add\n      swap1\n      tag_80\n      swap2\n      swap1\n      tag_81\n      jump\t// in\n    tag_80:\n      tag_82\n      jump\t// in\n    tag_79:\n      mload(0x40)\n      tag_83\n      swap2\n      swap1\n      tag_40\n      jump\t// in\n    tag_83:\n      mload(0x40)\n      dup1\n      swap2\n      sub\n      swap1\n      return\n        /* \"MLM/Multi-level MLM System/GrowChain.sol\":6427:6681  function transferOwnership(address _newOwner) external onlybyAdmin {... */\n    tag_19:\n      tag_84\n      0x04\n      dup1\n      calldatasize\n      sub\n      dup2\n      add\n      swap1\n      tag_85\n      swap2\n      swap1\n      tag_30\n      jump\t// in\n    tag_85:\n      tag_86\n      jump\t// in\n    tag_84:\n      stop\n        /* \"MLM/Multi-level MLM System/GrowChain.sol\":525:545  address public admin */\n    tag_20:\n      tag_87\n      tag_88\n      jump\t// in\n    tag_87:\n      mload(0x40)\n      tag_89\n      swap2\n      swap1\n      tag_90\n      jump\t// in\n    tag_89:\n      mload(0x40)\n      dup1\n      swap2\n      sub\n      swap1\n      return\n        /* \"MLM/Multi-level MLM System/GrowChain.sol\":703:738  uint256 public maxReferralDepth = 5 */\n    tag_25:\n      sload(0x09)\n      dup2\n      jump\t// out\n        /* \"MLM/Multi-level MLM System/GrowChain.sol\":2181:3105  function registration(address _referrer)... */\n    tag_31:\n        /* \"MLM/Multi-level MLM System/GrowChain.sol\":2051:2056  pause */\n      0x02\n      0x14\n      swap1\n      sload\n      swap1\n      0x0100\n      exp\n      swap1\n      div\n      0xff\n      and\n        /* \"MLM/Multi-level MLM System/GrowChain.sol\":2050:2056  !pause */\n      iszero\n        /* \"MLM/Multi-level MLM System/GrowChain.sol\":2029:2157  require(... */\n      tag_92\n      jumpi\n      mload(0x40)\n      0x08c379a000000000000000000000000000000000000000000000000000000000\n      dup2\n      mstore\n      0x04\n      add\n      tag_93\n      swap1\n      tag_94\n      jump\t// in\n    tag_93:\n      mload(0x40)\n      dup1\n      swap2\n      sub\n      swap1\n      revert\n    tag_92:\n        /* \"@openzeppelin/contracts/security/ReentrancyGuard.sol\":2261:2282  _nonReentrantBefore() */\n      tag_96\n        /* \"@openzeppelin/contracts/security/ReentrancyGuard.sol\":2261:2280  _nonReentrantBefore */\n      tag_97\n        /* \"@openzeppelin/contracts/security/ReentrancyGuard.sol\":2261:2282  _nonReentrantBefore() */\n      jump\t// in\n    tag_96:\n        /* \"MLM/Multi-level MLM System/GrowChain.sol\":2325:2326  0 */\n      0x00\n        /* \"MLM/Multi-level MLM System/GrowChain.sol\":2304:2327  _referrer != address(0) */\n      0xffffffffffffffffffffffffffffffffffffffff\n      and\n        /* \"MLM/Multi-level MLM System/GrowChain.sol\":2304:2313  _referrer */\n      dup2\n        /* \"MLM/Multi-level MLM System/GrowChain.sol\":2304:2327  _referrer != address(0) */\n      0xffffffffffffffffffffffffffffffffffffffff\n      and\n      sub\n        /* \"MLM/Multi-level MLM System/GrowChain.sol\":2296:2356  require(_referrer != address(0), \"Invalid referrer address\") */\n      tag_99\n      jumpi\n      mload(0x40)\n      0x08c379a000000000000000000000000000000000000000000000000000000000\n      dup2\n      mstore\n      0x04\n      add\n      tag_100\n      swap1\n      tag_101\n      jump\t// in\n    tag_100:\n      mload(0x40)\n      dup1\n      swap2\n      sub\n      swap1\n      revert\n    tag_99:\n        /* \"MLM/Multi-level MLM System/GrowChain.sol\":2388:2393  users */\n      0x0a\n        /* \"MLM/Multi-level MLM System/GrowChain.sol\":2388:2404  users[_referrer] */\n      0x00\n        /* \"MLM/Multi-level MLM System/GrowChain.sol\":2394:2403  _referrer */\n      dup3\n        /* \"MLM/Multi-level MLM System/GrowChain.sol\":2388:2404  users[_referrer] */\n      0xffffffffffffffffffffffffffffffffffffffff\n      and\n      0xffffffffffffffffffffffffffffffffffffffff\n      and\n      dup2\n      mstore\n      0x20\n      add\n      swap1\n      dup2\n      mstore\n      0x20\n      add\n      0x00\n      keccak256\n        /* \"MLM/Multi-level MLM System/GrowChain.sol\":2388:2417  users[_referrer].isRegistered */\n      0x02\n      add\n      0x00\n      swap1\n      sload\n      swap1\n      0x0100\n      exp\n      swap1\n      div\n      0xff\n      and\n        /* \"MLM/Multi-level MLM System/GrowChain.sol\":2367:2483  require(... */\n      tag_102\n      jumpi\n      mload(0x40)\n      0x08c379a000000000000000000000000000000000000000000000000000000000\n      dup2\n      mstore\n      0x04\n      add\n      tag_103\n      swap1\n      tag_104\n      jump\t// in\n    tag_103:\n      mload(0x40)\n      dup1\n      swap2\n      sub\n      swap1\n      revert\n    tag_102:\n        /* \"MLM/Multi-level MLM System/GrowChain.sol\":2515:2525  msg.sender */\n      caller\n        /* \"MLM/Multi-level MLM System/GrowChain.sol\":2502:2525  _referrer != msg.sender */\n      0xffffffffffffffffffffffffffffffffffffffff\n      and\n        /* \"MLM/Multi-level MLM System/GrowChain.sol\":2502:2511  _referrer */\n      dup2\n        /* \"MLM/Multi-level MLM System/GrowChain.sol\":2502:2525  _referrer != msg.sender */\n      0xffffffffffffffffffffffffffffffffffffffff\n      and\n      sub\n        /* \"MLM/Multi-level MLM System/GrowChain.sol\":2494:2551  require(_referrer != msg.sender, \"Cannot refer yourself\") */\n      tag_105\n      jumpi\n      mload(0x40)\n      0x08c379a000000000000000000000000000000000000000000000000000000000\n      dup2\n      mstore\n      0x04\n      add\n      tag_106\n      swap1\n      tag_107\n      jump\t// in\n    tag_106:\n      mload(0x40)\n      dup1\n      swap2\n      sub\n      swap1\n      revert\n    tag_105:\n        /* \"MLM/Multi-level MLM System/GrowChain.sol\":2584:2589  users */\n      0x0a\n        /* \"MLM/Multi-level MLM System/GrowChain.sol\":2584:2601  users[msg.sender] */\n      0x00\n        /* \"MLM/Multi-level MLM System/GrowChain.sol\":2590:2600  msg.sender */\n      caller\n        /* \"MLM/Multi-level MLM System/GrowChain.sol\":2584:2601  users[msg.sender] */\n      0xffffffffffffffffffffffffffffffffffffffff\n      and\n      0xffffffffffffffffffffffffffffffffffffffff\n      and\n      dup2\n      mstore\n      0x20\n      add\n      swap1\n      dup2\n      mstore\n      0x20\n      add\n      0x00\n      keccak256\n        /* \"MLM/Multi-level MLM System/GrowChain.sol\":2584:2614  users[msg.sender].isRegistered */\n      0x02\n      add\n      0x00\n      swap1\n      sload\n      swap1\n      0x0100\n      exp\n      swap1\n      div\n      0xff\n      and\n        /* \"MLM/Multi-level MLM System/GrowChain.sol\":2583:2614  !users[msg.sender].isRegistered */\n      iszero\n        /* \"MLM/Multi-level MLM System/GrowChain.sol\":2562:2675  require(... */\n      tag_108\n      jumpi\n      mload(0x40)\n      0x08c379a000000000000000000000000000000000000000000000000000000000\n      dup2\n      mstore\n      0x04\n      add\n      tag_109\n      swap1\n      tag_110\n      jump\t// in\n    tag_109:\n      mload(0x40)\n      dup1\n      swap2\n      sub\n      swap1\n      revert\n    tag_108:\n        /* \"MLM/Multi-level MLM System/GrowChain.sol\":2707:2710  GNT */\n      0x01\n      0x00\n      swap1\n      sload\n      swap1\n      0x0100\n      exp\n      swap1\n      div\n      0xffffffffffffffffffffffffffffffffffffffff\n      and\n        /* \"MLM/Multi-level MLM System/GrowChain.sol\":2707:2723  GNT.transferFrom */\n      0xffffffffffffffffffffffffffffffffffffffff\n      and\n      0x23b872dd\n        /* \"MLM/Multi-level MLM System/GrowChain.sol\":2724:2734  msg.sender */\n      caller\n        /* \"MLM/Multi-level MLM System/GrowChain.sol\":2744:2748  this */\n      address\n        /* \"MLM/Multi-level MLM System/GrowChain.sol\":2751:2767  REGISTRATION_FEE */\n      sload(0x03)\n        /* \"MLM/Multi-level MLM System/GrowChain.sol\":2707:2768  GNT.transferFrom(msg.sender, address(this), REGISTRATION_FEE) */\n      mload(0x40)\n      dup5\n      0xffffffff\n      and\n      0xe0\n      shl\n      dup2\n      mstore\n      0x04\n      add\n      tag_111\n      swap4\n      swap3\n      swap2\n      swap1\n      tag_112\n      jump\t// in\n    tag_111:\n      0x20\n      mload(0x40)\n      dup1\n      dup4\n      sub\n      dup2\n      0x00\n      dup8\n      gas\n      call\n      iszero\n      dup1\n      iszero\n      tag_114\n      jumpi\n      returndatasize\n      0x00\n      dup1\n      returndatacopy\n      revert(0x00, returndatasize)\n    tag_114:\n      pop\n      pop\n      pop\n      pop\n      mload(0x40)\n      returndatasize\n      not(0x1f)\n      0x1f\n      dup3\n      add\n      and\n      dup3\n      add\n      dup1\n      0x40\n      mstore\n      pop\n      dup2\n      add\n      swap1\n      tag_115\n      swap2\n      swap1\n      tag_116\n      jump\t// in\n    tag_115:\n        /* \"MLM/Multi-level MLM System/GrowChain.sol\":2686:2809  require(... */\n      tag_117\n      jumpi\n      mload(0x40)\n      0x08c379a000000000000000000000000000000000000000000000000000000000\n      dup2\n      mstore\n      0x04\n      add\n      tag_118\n      swap1\n      tag_119\n      jump\t// in\n    tag_118:\n      mload(0x40)\n      dup1\n      swap2\n      sub\n      swap1\n      revert\n    tag_117:\n        /* \"MLM/Multi-level MLM System/GrowChain.sol\":2820:2840  User storage newUser */\n      0x00\n        /* \"MLM/Multi-level MLM System/GrowChain.sol\":2843:2848  users */\n      0x0a\n        /* \"MLM/Multi-level MLM System/GrowChain.sol\":2843:2860  users[msg.sender] */\n      0x00\n        /* \"MLM/Multi-level MLM System/GrowChain.sol\":2849:2859  msg.sender */\n      caller\n        /* \"MLM/Multi-level MLM System/GrowChain.sol\":2843:2860  users[msg.sender] */\n      0xffffffffffffffffffffffffffffffffffffffff\n      and\n      0xffffffffffffffffffffffffffffffffffffffff\n      and\n      dup2\n      mstore\n      0x20\n      add\n      swap1\n      dup2\n      mstore\n      0x20\n      add\n      0x00\n      keccak256\n        /* \"MLM/Multi-level MLM System/GrowChain.sol\":2820:2860  User storage newUser = users[msg.sender] */\n      swap1\n      pop\n        /* \"MLM/Multi-level MLM System/GrowChain.sol\":2889:2898  _referrer */\n      dup2\n        /* \"MLM/Multi-level MLM System/GrowChain.sol\":2870:2877  newUser */\n      dup2\n        /* \"MLM/Multi-level MLM System/GrowChain.sol\":2870:2886  newUser.referrer */\n      0x00\n      add\n      0x00\n        /* \"MLM/Multi-level MLM System/GrowChain.sol\":2870:2898  newUser.referrer = _referrer */\n      0x0100\n      exp\n      dup2\n      sload\n      dup2\n      0xffffffffffffffffffffffffffffffffffffffff\n      mul\n      not\n      and\n      swap1\n      dup4\n      0xffffffffffffffffffffffffffffffffffffffff\n      and\n      mul\n      or\n      swap1\n      sstore\n      pop\n        /* \"MLM/Multi-level MLM System/GrowChain.sol\":2931:2935  true */\n      0x01\n        /* \"MLM/Multi-level MLM System/GrowChain.sol\":2908:2915  newUser */\n      dup2\n        /* \"MLM/Multi-level MLM System/GrowChain.sol\":2908:2928  newUser.isRegistered */\n      0x02\n      add\n      0x00\n        /* \"MLM/Multi-level MLM System/GrowChain.sol\":2908:2935  newUser.isRegistered = true */\n      0x0100\n      exp\n      dup2\n      sload\n      dup2\n      0xff\n      mul\n      not\n      and\n      swap1\n      dup4\n      iszero\n      iszero\n      mul\n      or\n      swap1\n      sstore\n      pop\n        /* \"MLM/Multi-level MLM System/GrowChain.sol\":2972:2987  block.timestamp */\n      timestamp\n        /* \"MLM/Multi-level MLM System/GrowChain.sol\":2945:2952  newUser */\n      dup2\n        /* \"MLM/Multi-level MLM System/GrowChain.sol\":2945:2969  newUser.registrationTime */\n      0x04\n      add\n        /* \"MLM/Multi-level MLM System/GrowChain.sol\":2945:2987  newUser.registrationTime = block.timestamp */\n      dup2\n      swap1\n      sstore\n      pop\n        /* \"MLM/Multi-level MLM System/GrowChain.sol\":3025:3034  _referrer */\n      dup2\n        /* \"MLM/Multi-level MLM System/GrowChain.sol\":3002:3052  Registered(msg.sender, _referrer, block.timestamp) */\n      0xffffffffffffffffffffffffffffffffffffffff\n      and\n        /* \"MLM/Multi-level MLM System/GrowChain.sol\":3013:3023  msg.sender */\n      caller\n        /* \"MLM/Multi-level MLM System/GrowChain.sol\":3002:3052  Registered(msg.sender, _referrer, block.timestamp) */\n      0xffffffffffffffffffffffffffffffffffffffff\n      and\n      0x199098452639b249bef6f727bc09ce903cece47ca72a8518bef9367ad39b6de7\n        /* \"MLM/Multi-level MLM System/GrowChain.sol\":3036:3051  block.timestamp */\n      timestamp\n        /* \"MLM/Multi-level MLM System/GrowChain.sol\":3002:3052  Registered(msg.sender, _referrer, block.timestamp) */\n      mload(0x40)\n      tag_120\n      swap2\n      swap1\n      tag_27\n      jump\t// in\n    tag_120:\n      mload(0x40)\n      dup1\n      swap2\n      sub\n      swap1\n      log3\n        /* \"MLM/Multi-level MLM System/GrowChain.sol\":3063:3098  distributeReferralIncome(_referrer) */\n      tag_121\n        /* \"MLM/Multi-level MLM System/GrowChain.sol\":3088:3097  _referrer */\n      dup3\n        /* \"MLM/Multi-level MLM System/GrowChain.sol\":3063:3087  distributeReferralIncome */\n      tag_122\n        /* \"MLM/Multi-level MLM System/GrowChain.sol\":3063:3098  distributeReferralIncome(_referrer) */\n      jump\t// in\n    tag_121:\n        /* \"MLM/Multi-level MLM System/GrowChain.sol\":2286:3105  {... */\n      pop\n        /* \"@openzeppelin/contracts/security/ReentrancyGuard.sol\":2303:2323  _nonReentrantAfter() */\n      tag_123\n        /* \"@openzeppelin/contracts/security/ReentrancyGuard.sol\":2303:2321  _nonReentrantAfter */\n      tag_124\n        /* \"@openzeppelin/contracts/security/ReentrancyGuard.sol\":2303:2323  _nonReentrantAfter() */\n      jump\t// in\n    tag_123:\n        /* \"MLM/Multi-level MLM System/GrowChain.sol\":2181:3105  function registration(address _referrer)... */\n      pop\n      jump\t// out\n        /* \"MLM/Multi-level MLM System/GrowChain.sol\":6245:6395  function withdraw(uint256 amount) external nonReentrant onlybyAdmin {... */\n    tag_35:\n        /* \"@openzeppelin/contracts/security/ReentrancyGuard.sol\":2261:2282  _nonReentrantBefore() */\n      tag_126\n        /* \"@openzeppelin/contracts/security/ReentrancyGuard.sol\":2261:2280  _nonReentrantBefore */\n      tag_97\n        /* \"@openzeppelin/contracts/security/ReentrancyGuard.sol\":2261:2282  _nonReentrantBefore() */\n      jump\t// in\n    tag_126:\n        /* \"MLM/Multi-level MLM System/GrowChain.sol\":1890:1895  admin */\n      0x02\n      0x00\n      swap1\n      sload\n      swap1\n      0x0100\n      exp\n      swap1\n      div\n      0xffffffffffffffffffffffffffffffffffffffff\n      and\n        /* \"MLM/Multi-level MLM System/GrowChain.sol\":1876:1895  msg.sender == admin */\n      0xffffffffffffffffffffffffffffffffffffffff\n      and\n        /* \"MLM/Multi-level MLM System/GrowChain.sol\":1876:1886  msg.sender */\n      caller\n        /* \"MLM/Multi-level MLM System/GrowChain.sol\":1876:1895  msg.sender == admin */\n      0xffffffffffffffffffffffffffffffffffffffff\n      and\n      eq\n        /* \"MLM/Multi-level MLM System/GrowChain.sol\":1855:1971  require(... */\n      tag_128\n      jumpi\n      mload(0x40)\n      0x08c379a000000000000000000000000000000000000000000000000000000000\n      dup2\n      mstore\n      0x04\n      add\n      tag_129\n      swap1\n      tag_130\n      jump\t// in\n    tag_129:\n      mload(0x40)\n      dup1\n      swap2\n      sub\n      swap1\n      revert\n    tag_128:\n        /* \"MLM/Multi-level MLM System/GrowChain.sol\":6323:6326  GNT */\n      0x01\n      0x00\n      swap1\n      sload\n      swap1\n      0x0100\n      exp\n      swap1\n      div\n      0xffffffffffffffffffffffffffffffffffffffff\n      and\n        /* \"MLM/Multi-level MLM System/GrowChain.sol\":6323:6335  GNT.transfer */\n      0xffffffffffffffffffffffffffffffffffffffff\n      and\n      0xa9059cbb\n        /* \"MLM/Multi-level MLM System/GrowChain.sol\":6336:6341  admin */\n      0x02\n      0x00\n      swap1\n      sload\n      swap1\n      0x0100\n      exp\n      swap1\n      div\n      0xffffffffffffffffffffffffffffffffffffffff\n      and\n        /* \"MLM/Multi-level MLM System/GrowChain.sol\":6343:6349  amount */\n      dup4\n        /* \"MLM/Multi-level MLM System/GrowChain.sol\":6323:6350  GNT.transfer(admin, amount) */\n      mload(0x40)\n      dup4\n      0xffffffff\n      and\n      0xe0\n      shl\n      dup2\n      mstore\n      0x04\n      add\n      tag_132\n      swap3\n      swap2\n      swap1\n      tag_133\n      jump\t// in\n    tag_132:\n      0x20\n      mload(0x40)\n      dup1\n      dup4\n      sub\n      dup2\n      0x00\n      dup8\n      gas\n      call\n      iszero\n      dup1\n      iszero\n      tag_135\n      jumpi\n      returndatasize\n      0x00\n      dup1\n      returndatacopy\n      revert(0x00, returndatasize)\n    tag_135:\n      pop\n      pop\n      pop\n      pop\n      mload(0x40)\n      returndatasize\n      not(0x1f)\n      0x1f\n      dup3\n      add\n      and\n      dup3\n      add\n      dup1\n      0x40\n      mstore\n      pop\n      dup2\n      add\n      swap1\n      tag_136\n      swap2\n      swap1\n      tag_116\n      jump\t// in\n    tag_136:\n      pop\n        /* \"MLM/Multi-level MLM System/GrowChain.sol\":6374:6379  admin */\n      0x02\n      0x00\n      swap1\n      sload\n      swap1\n      0x0100\n      exp\n      swap1\n      div\n      0xffffffffffffffffffffffffffffffffffffffff\n      and\n        /* \"MLM/Multi-level MLM System/GrowChain.sol\":6365:6388  Withdraw(admin, amount) */\n      0xffffffffffffffffffffffffffffffffffffffff\n      and\n      0x884edad9ce6fa2440d8a54cc123490eb96d2768479d49ff9c7366125a9424364\n        /* \"MLM/Multi-level MLM System/GrowChain.sol\":6381:6387  amount */\n      dup3\n        /* \"MLM/Multi-level MLM System/GrowChain.sol\":6365:6388  Withdraw(admin, amount) */\n      mload(0x40)\n      tag_137\n      swap2\n      swap1\n      tag_27\n      jump\t// in\n    tag_137:\n      mload(0x40)\n      dup1\n      swap2\n      sub\n      swap1\n      log2\n        /* \"@openzeppelin/contracts/security/ReentrancyGuard.sol\":2303:2323  _nonReentrantAfter() */\n      tag_138\n        /* \"@openzeppelin/contracts/security/ReentrancyGuard.sol\":2303:2321  _nonReentrantAfter */\n      tag_124\n        /* \"@openzeppelin/contracts/security/ReentrancyGuard.sol\":2303:2323  _nonReentrantAfter() */\n      jump\t// in\n    tag_138:\n        /* \"MLM/Multi-level MLM System/GrowChain.sol\":6245:6395  function withdraw(uint256 amount) external nonReentrant onlybyAdmin {... */\n      pop\n      jump\t// out\n        /* \"MLM/Multi-level MLM System/GrowChain.sol\":5655:5823  function getIndirectReferrals(address _user)... */\n    tag_38:\n        /* \"MLM/Multi-level MLM System/GrowChain.sol\":5747:5763  address[] memory */\n      0x60\n        /* \"MLM/Multi-level MLM System/GrowChain.sol\":5786:5791  users */\n      0x0a\n        /* \"MLM/Multi-level MLM System/GrowChain.sol\":5786:5798  users[_user] */\n      0x00\n        /* \"MLM/Multi-level MLM System/GrowChain.sol\":5792:5797  _user */\n      dup4\n        /* \"MLM/Multi-level MLM System/GrowChain.sol\":5786:5798  users[_user] */\n      0xffffffffffffffffffffffffffffffffffffffff\n      and\n      0xffffffffffffffffffffffffffffffffffffffff\n      and\n      dup2\n      mstore\n      0x20\n      add\n      swap1\n      dup2\n      mstore\n      0x20\n      add\n      0x00\n      keccak256\n        /* \"MLM/Multi-level MLM System/GrowChain.sol\":5786:5816  users[_user].indirectReferrals */\n      0x08\n      add\n        /* \"MLM/Multi-level MLM System/GrowChain.sol\":5779:5816  return users[_user].indirectReferrals */\n      dup1\n      sload\n      dup1\n      0x20\n      mul\n      0x20\n      add\n      mload(0x40)\n      swap1\n      dup2\n      add\n      0x40\n      mstore\n      dup1\n      swap3\n      swap2\n      swap1\n      dup2\n      dup2\n      mstore\n      0x20\n      add\n      dup3\n      dup1\n      sload\n      dup1\n      iszero\n      tag_140\n      jumpi\n      0x20\n      mul\n      dup3\n      add\n      swap2\n      swap1\n      0x00\n      mstore\n      keccak256(0x00, 0x20)\n      swap1\n    tag_141:\n      dup2\n      0x00\n      swap1\n      sload\n      swap1\n      0x0100\n      exp\n      swap1\n      div\n      0xffffffffffffffffffffffffffffffffffffffff\n      and\n      0xffffffffffffffffffffffffffffffffffffffff\n      and\n      dup2\n      mstore\n      0x20\n      add\n      swap1\n      0x01\n      add\n      swap1\n      dup1\n      dup4\n      gt\n      tag_141\n      jumpi\n    tag_140:\n      pop\n      pop\n      pop\n      pop\n      pop\n      swap1\n      pop\n        /* \"MLM/Multi-level MLM System/GrowChain.sol\":5655:5823  function getIndirectReferrals(address _user)... */\n      swap2\n      swap1\n      pop\n      jump\t// out\n        /* \"MLM/Multi-level MLM System/GrowChain.sol\":5871:6057  function changeRegistrationFee(uint256 _percentage) external onlybyAdmin {... */\n    tag_43:\n        /* \"MLM/Multi-level MLM System/GrowChain.sol\":1890:1895  admin */\n      0x02\n      0x00\n      swap1\n      sload\n      swap1\n      0x0100\n      exp\n      swap1\n      div\n      0xffffffffffffffffffffffffffffffffffffffff\n      and\n        /* \"MLM/Multi-level MLM System/GrowChain.sol\":1876:1895  msg.sender == admin */\n      0xffffffffffffffffffffffffffffffffffffffff\n      and\n        /* \"MLM/Multi-level MLM System/GrowChain.sol\":1876:1886  msg.sender */\n      caller\n        /* \"MLM/Multi-level MLM System/GrowChain.sol\":1876:1895  msg.sender == admin */\n      0xffffffffffffffffffffffffffffffffffffffff\n      and\n      eq\n        /* \"MLM/Multi-level MLM System/GrowChain.sol\":1855:1971  require(... */\n      tag_143\n      jumpi\n      mload(0x40)\n      0x08c379a000000000000000000000000000000000000000000000000000000000\n      dup2\n      mstore\n      0x04\n      add\n      tag_144\n      swap1\n      tag_130\n      jump\t// in\n    tag_144:\n      mload(0x40)\n      dup1\n      swap2\n      sub\n      swap1\n      revert\n    tag_143:\n        /* \"MLM/Multi-level MLM System/GrowChain.sol\":5976:5978  99 */\n      0x63\n        /* \"MLM/Multi-level MLM System/GrowChain.sol\":5962:5973  _percentage */\n      dup2\n        /* \"MLM/Multi-level MLM System/GrowChain.sol\":5962:5978  _percentage < 99 */\n      lt\n        /* \"MLM/Multi-level MLM System/GrowChain.sol\":5954:6001  require(_percentage < 99, \"invalid percentage\") */\n      tag_146\n      jumpi\n      mload(0x40)\n      0x08c379a000000000000000000000000000000000000000000000000000000000\n      dup2\n      mstore\n      0x04\n      add\n      tag_147\n      swap1\n      tag_148\n      jump\t// in\n    tag_147:\n      mload(0x40)\n      dup1\n      swap2\n      sub\n      swap1\n      revert\n    tag_146:\n        /* \"MLM/Multi-level MLM System/GrowChain.sol\":6044:6050  10**18 */\n      0x0de0b6b3a7640000\n        /* \"MLM/Multi-level MLM System/GrowChain.sol\":6030:6041  _percentage */\n      dup2\n        /* \"MLM/Multi-level MLM System/GrowChain.sol\":6030:6050  _percentage * 10**18 */\n      tag_149\n      swap2\n      swap1\n      tag_150\n      jump\t// in\n    tag_149:\n        /* \"MLM/Multi-level MLM System/GrowChain.sol\":6011:6027  REGISTRATION_FEE */\n      0x03\n        /* \"MLM/Multi-level MLM System/GrowChain.sol\":6011:6050  REGISTRATION_FEE = _percentage * 10**18 */\n      dup2\n      swap1\n      sstore\n      pop\n        /* \"MLM/Multi-level MLM System/GrowChain.sol\":5871:6057  function changeRegistrationFee(uint256 _percentage) external onlybyAdmin {... */\n      pop\n      jump\t// out\n        /* \"MLM/Multi-level MLM System/GrowChain.sol\":6063:6131  function paused() external onlybyAdmin {... */\n    tag_45:\n        /* \"MLM/Multi-level MLM System/GrowChain.sol\":1890:1895  admin */\n      0x02\n      0x00\n      swap1\n      sload\n      swap1\n      0x0100\n      exp\n      swap1\n      div\n      0xffffffffffffffffffffffffffffffffffffffff\n      and\n        /* \"MLM/Multi-level MLM System/GrowChain.sol\":1876:1895  msg.sender == admin */\n      0xffffffffffffffffffffffffffffffffffffffff\n      and\n        /* \"MLM/Multi-level MLM System/GrowChain.sol\":1876:1886  msg.sender */\n      caller\n        /* \"MLM/Multi-level MLM System/GrowChain.sol\":1876:1895  msg.sender == admin */\n      0xffffffffffffffffffffffffffffffffffffffff\n      and\n      eq\n        /* \"MLM/Multi-level MLM System/GrowChain.sol\":1855:1971  require(... */\n      tag_152\n      jumpi\n      mload(0x40)\n      0x08c379a000000000000000000000000000000000000000000000000000000000\n      dup2\n      mstore\n      0x04\n      add\n      tag_153\n      swap1\n      tag_130\n      jump\t// in\n    tag_153:\n      mload(0x40)\n      dup1\n      swap2\n      sub\n      swap1\n      revert\n    tag_152:\n        /* \"MLM/Multi-level MLM System/GrowChain.sol\":6120:6124  true */\n      0x01\n        /* \"MLM/Multi-level MLM System/GrowChain.sol\":6112:6117  pause */\n      0x02\n      0x14\n        /* \"MLM/Multi-level MLM System/GrowChain.sol\":6112:6124  pause = true */\n      0x0100\n      exp\n      dup2\n      sload\n      dup2\n      0xff\n      mul\n      not\n      and\n      swap1\n      dup4\n      iszero\n      iszero\n      mul\n      or\n      swap1\n      sstore\n      pop\n        /* \"MLM/Multi-level MLM System/GrowChain.sol\":6063:6131  function paused() external onlybyAdmin {... */\n      jump\t// out\n        /* \"MLM/Multi-level MLM System/GrowChain.sol\":625:680  uint256[5] public levelPercentage = [40, 20, 15, 10, 5] */\n    tag_48:\n      0x04\n      dup2\n      0x05\n      dup2\n      lt\n      tag_155\n      jumpi\n      0x00\n      dup1\n      revert\n    tag_155:\n      add\n      0x00\n      swap2\n      pop\n      swap1\n      pop\n      sload\n      dup2\n      jump\t// out\n        /* \"MLM/Multi-level MLM System/GrowChain.sol\":574:619  uint256 public REGISTRATION_FEE = 10 * 10**18 */\n    tag_51:\n      sload(0x03)\n      dup2\n      jump\t// out\n        /* \"MLM/Multi-level MLM System/GrowChain.sol\":6752:6912  function updateTokenAddress(address _token) external onlybyAdmin {... */\n    tag_55:\n        /* \"MLM/Multi-level MLM System/GrowChain.sol\":1890:1895  admin */\n      0x02\n      0x00\n      swap1\n      sload\n      swap1\n      0x0100\n      exp\n      swap1\n      div\n      0xffffffffffffffffffffffffffffffffffffffff\n      and\n        /* \"MLM/Multi-level MLM System/GrowChain.sol\":1876:1895  msg.sender == admin */\n      0xffffffffffffffffffffffffffffffffffffffff\n      and\n        /* \"MLM/Multi-level MLM System/GrowChain.sol\":1876:1886  msg.sender */\n      caller\n        /* \"MLM/Multi-level MLM System/GrowChain.sol\":1876:1895  msg.sender == admin */\n      0xffffffffffffffffffffffffffffffffffffffff\n      and\n      eq\n        /* \"MLM/Multi-level MLM System/GrowChain.sol\":1855:1971  require(... */\n      tag_158\n      jumpi\n      mload(0x40)\n      0x08c379a000000000000000000000000000000000000000000000000000000000\n      dup2\n      mstore\n      0x04\n      add\n      tag_159\n      swap1\n      tag_130\n      jump\t// in\n    tag_159:\n      mload(0x40)\n      dup1\n      swap2\n      sub\n      swap1\n      revert\n    tag_158:\n        /* \"MLM/Multi-level MLM System/GrowChain.sol\":6853:6854  0 */\n      0x00\n        /* \"MLM/Multi-level MLM System/GrowChain.sol\":6835:6855  _token != address(0) */\n      0xffffffffffffffffffffffffffffffffffffffff\n      and\n        /* \"MLM/Multi-level MLM System/GrowChain.sol\":6835:6841  _token */\n      dup2\n        /* \"MLM/Multi-level MLM System/GrowChain.sol\":6835:6855  _token != address(0) */\n      0xffffffffffffffffffffffffffffffffffffffff\n      and\n      sub\n        /* \"MLM/Multi-level MLM System/GrowChain.sol\":6827:6875  require(_token != address(0), \"invalid new bst\") */\n      tag_161\n      jumpi\n      mload(0x40)\n      0x08c379a000000000000000000000000000000000000000000000000000000000\n      dup2\n      mstore\n      0x04\n      add\n      tag_162\n      swap1\n      tag_163\n      jump\t// in\n    tag_162:\n      mload(0x40)\n      dup1\n      swap2\n      sub\n      swap1\n      revert\n    tag_161:\n        /* \"MLM/Multi-level MLM System/GrowChain.sol\":6898:6904  _token */\n      dup1\n        /* \"MLM/Multi-level MLM System/GrowChain.sol\":6885:6888  GNT */\n      0x01\n      0x00\n        /* \"MLM/Multi-level MLM System/GrowChain.sol\":6885:6905  GNT = IERC20(_token) */\n      0x0100\n      exp\n      dup2\n      sload\n      dup2\n      0xffffffffffffffffffffffffffffffffffffffff\n      mul\n      not\n      and\n      swap1\n      dup4\n      0xffffffffffffffffffffffffffffffffffffffff\n      and\n      mul\n      or\n      swap1\n      sstore\n      pop\n        /* \"MLM/Multi-level MLM System/GrowChain.sol\":6752:6912  function updateTokenAddress(address _token) external onlybyAdmin {... */\n      pop\n      jump\t// out\n        /* \"MLM/Multi-level MLM System/GrowChain.sol\":551:568  bool public pause */\n    tag_57:\n      0x02\n      0x14\n      swap1\n      sload\n      swap1\n      0x0100\n      exp\n      swap1\n      div\n      0xff\n      and\n      dup2\n      jump\t// out\n        /* \"MLM/Multi-level MLM System/GrowChain.sol\":502:519  IERC20 public GNT */\n    tag_61:\n      0x01\n      0x00\n      swap1\n      sload\n      swap1\n      0x0100\n      exp\n      swap1\n      div\n      0xffffffffffffffffffffffffffffffffffffffff\n      and\n      dup2\n      jump\t// out\n        /* \"MLM/Multi-level MLM System/GrowChain.sol\":6918:7034  function contractTokenBalance() external view returns (uint256) {... */\n    tag_65:\n        /* \"MLM/Multi-level MLM System/GrowChain.sol\":6973:6980  uint256 */\n      0x00\n        /* \"MLM/Multi-level MLM System/GrowChain.sol\":6999:7002  GNT */\n      0x01\n      0x00\n      swap1\n      sload\n      swap1\n      0x0100\n      exp\n      swap1\n      div\n      0xffffffffffffffffffffffffffffffffffffffff\n      and\n        /* \"MLM/Multi-level MLM System/GrowChain.sol\":6999:7012  GNT.balanceOf */\n      0xffffffffffffffffffffffffffffffffffffffff\n      and\n      0x70a08231\n        /* \"MLM/Multi-level MLM System/GrowChain.sol\":7021:7025  this */\n      address\n        /* \"MLM/Multi-level MLM System/GrowChain.sol\":6999:7027  GNT.balanceOf(address(this)) */\n      mload(0x40)\n      dup3\n      0xffffffff\n      and\n      0xe0\n      shl\n      dup2\n      mstore\n      0x04\n      add\n      tag_165\n      swap2\n      swap1\n      tag_90\n      jump\t// in\n    tag_165:\n      0x20\n      mload(0x40)\n      dup1\n      dup4\n      sub\n      dup2\n      dup7\n      gas\n      staticcall\n      iszero\n      dup1\n      iszero\n      tag_167\n      jumpi\n      returndatasize\n      0x00\n      dup1\n      returndatacopy\n      revert(0x00, returndatasize)\n    tag_167:\n      pop\n      pop\n      pop\n      pop\n      mload(0x40)\n      returndatasize\n      not(0x1f)\n      0x1f\n      dup3\n      add\n      and\n      dup3\n      add\n      dup1\n      0x40\n      mstore\n      pop\n      dup2\n      add\n      swap1\n      tag_168\n      swap2\n      swap1\n      tag_169\n      jump\t// in\n    tag_168:\n        /* \"MLM/Multi-level MLM System/GrowChain.sol\":6992:7027  return GNT.balanceOf(address(this)) */\n      swap1\n      pop\n        /* \"MLM/Multi-level MLM System/GrowChain.sol\":6918:7034  function contractTokenBalance() external view returns (uint256) {... */\n      swap1\n      jump\t// out\n        /* \"MLM/Multi-level MLM System/GrowChain.sol\":1669:1706  mapping(address => User) public users */\n    tag_69:\n      mstore(0x20, 0x0a)\n      dup1\n      0x00\n      mstore\n      keccak256(0x00, 0x40)\n      0x00\n      swap2\n      pop\n      swap1\n      pop\n      dup1\n      0x00\n      add\n      0x00\n      swap1\n      sload\n      swap1\n      0x0100\n      exp\n      swap1\n      div\n      0xffffffffffffffffffffffffffffffffffffffff\n      and\n      swap1\n      dup1\n      0x01\n      add\n      sload\n      swap1\n      dup1\n      0x02\n      add\n      0x00\n      swap1\n      sload\n      swap1\n      0x0100\n      exp\n      swap1\n      div\n      0xff\n      and\n      swap1\n      dup1\n      0x03\n      add\n      sload\n      swap1\n      dup1\n      0x04\n      add\n      sload\n      swap1\n      dup1\n      0x06\n      add\n      sload\n      swap1\n      dup1\n      0x07\n      add\n      sload\n      swap1\n      pop\n      dup8\n      jump\t// out\n        /* \"MLM/Multi-level MLM System/GrowChain.sol\":6137:6208  function unpaused() external onlybyAdmin {... */\n    tag_73:\n        /* \"MLM/Multi-level MLM System/GrowChain.sol\":1890:1895  admin */\n      0x02\n      0x00\n      swap1\n      sload\n      swap1\n      0x0100\n      exp\n      swap1\n      div\n      0xffffffffffffffffffffffffffffffffffffffff\n      and\n        /* \"MLM/Multi-level MLM System/GrowChain.sol\":1876:1895  msg.sender == admin */\n      0xffffffffffffffffffffffffffffffffffffffff\n      and\n        /* \"MLM/Multi-level MLM System/GrowChain.sol\":1876:1886  msg.sender */\n      caller\n        /* \"MLM/Multi-level MLM System/GrowChain.sol\":1876:1895  msg.sender == admin */\n      0xffffffffffffffffffffffffffffffffffffffff\n      and\n      eq\n        /* \"MLM/Multi-level MLM System/GrowChain.sol\":1855:1971  require(... */\n      tag_171\n      jumpi\n      mload(0x40)\n      0x08c379a000000000000000000000000000000000000000000000000000000000\n      dup2\n      mstore\n      0x04\n      add\n      tag_172\n      swap1\n      tag_130\n      jump\t// in\n    tag_172:\n      mload(0x40)\n      dup1\n      swap2\n      sub\n      swap1\n      revert\n    tag_171:\n        /* \"MLM/Multi-level MLM System/GrowChain.sol\":6196:6201  false */\n      0x00\n        /* \"MLM/Multi-level MLM System/GrowChain.sol\":6188:6193  pause */\n      0x02\n      0x14\n        /* \"MLM/Multi-level MLM System/GrowChain.sol\":6188:6201  pause = false */\n      0x0100\n      exp\n      dup2\n      sload\n      dup2\n      0xff\n      mul\n      not\n      and\n      swap1\n      dup4\n      iszero\n      iszero\n      mul\n      or\n      swap1\n      sstore\n      pop\n        /* \"MLM/Multi-level MLM System/GrowChain.sol\":6137:6208  function unpaused() external onlybyAdmin {... */\n      jump\t// out\n        /* \"MLM/Multi-level MLM System/GrowChain.sol\":4125:4759  function getUserDetails(address _user)... */\n    tag_76:\n        /* \"MLM/Multi-level MLM System/GrowChain.sol\":4224:4240  address referrer */\n      0x00\n        /* \"MLM/Multi-level MLM System/GrowChain.sol\":4254:4282  uint256 directReferralIncome */\n      dup1\n        /* \"MLM/Multi-level MLM System/GrowChain.sol\":4296:4317  uint256 referralCount */\n      0x00\n        /* \"MLM/Multi-level MLM System/GrowChain.sol\":4331:4349  uint256 teamIncome */\n      dup1\n        /* \"MLM/Multi-level MLM System/GrowChain.sol\":4363:4379  uint256 teamSize */\n      0x00\n        /* \"MLM/Multi-level MLM System/GrowChain.sol\":4393:4410  bool isRegistered */\n      dup1\n        /* \"MLM/Multi-level MLM System/GrowChain.sol\":4424:4448  uint256 registrationTime */\n      0x00\n        /* \"MLM/Multi-level MLM System/GrowChain.sol\":4473:4490  User storage user */\n      dup1\n        /* \"MLM/Multi-level MLM System/GrowChain.sol\":4493:4498  users */\n      0x0a\n        /* \"MLM/Multi-level MLM System/GrowChain.sol\":4493:4505  users[_user] */\n      0x00\n        /* \"MLM/Multi-level MLM System/GrowChain.sol\":4499:4504  _user */\n      dup11\n        /* \"MLM/Multi-level MLM System/GrowChain.sol\":4493:4505  users[_user] */\n      0xffffffffffffffffffffffffffffffffffffffff\n      and\n      0xffffffffffffffffffffffffffffffffffffffff\n      and\n      dup2\n      mstore\n      0x20\n      add\n      swap1\n      dup2\n      mstore\n      0x20\n      add\n      0x00\n      keccak256\n        /* \"MLM/Multi-level MLM System/GrowChain.sol\":4473:4505  User storage user = users[_user] */\n      swap1\n      pop\n        /* \"MLM/Multi-level MLM System/GrowChain.sol\":4536:4540  user */\n      dup1\n        /* \"MLM/Multi-level MLM System/GrowChain.sol\":4536:4549  user.referrer */\n      0x00\n      add\n      0x00\n      swap1\n      sload\n      swap1\n      0x0100\n      exp\n      swap1\n      div\n      0xffffffffffffffffffffffffffffffffffffffff\n      and\n        /* \"MLM/Multi-level MLM System/GrowChain.sol\":4563:4567  user */\n      dup2\n        /* \"MLM/Multi-level MLM System/GrowChain.sol\":4563:4588  user.directReferralIncome */\n      0x01\n      add\n      sload\n        /* \"MLM/Multi-level MLM System/GrowChain.sol\":4602:4606  user */\n      dup3\n        /* \"MLM/Multi-level MLM System/GrowChain.sol\":4602:4620  user.referralCount */\n      0x03\n      add\n      sload\n        /* \"MLM/Multi-level MLM System/GrowChain.sol\":4634:4638  user */\n      dup4\n        /* \"MLM/Multi-level MLM System/GrowChain.sol\":4634:4649  user.teamIncome */\n      0x06\n      add\n      sload\n        /* \"MLM/Multi-level MLM System/GrowChain.sol\":4663:4667  user */\n      dup5\n        /* \"MLM/Multi-level MLM System/GrowChain.sol\":4663:4676  user.teamSize */\n      0x07\n      add\n      sload\n        /* \"MLM/Multi-level MLM System/GrowChain.sol\":4690:4694  user */\n      dup6\n        /* \"MLM/Multi-level MLM System/GrowChain.sol\":4690:4707  user.isRegistered */\n      0x02\n      add\n      0x00\n      swap1\n      sload\n      swap1\n      0x0100\n      exp\n      swap1\n      div\n      0xff\n      and\n        /* \"MLM/Multi-level MLM System/GrowChain.sol\":4721:4725  user */\n      dup7\n        /* \"MLM/Multi-level MLM System/GrowChain.sol\":4721:4742  user.registrationTime */\n      0x04\n      add\n      sload\n        /* \"MLM/Multi-level MLM System/GrowChain.sol\":4515:4752  return (... */\n      swap8\n      pop\n      swap8\n      pop\n      swap8\n      pop\n      swap8\n      pop\n      swap8\n      pop\n      swap8\n      pop\n      swap8\n      pop\n      pop\n        /* \"MLM/Multi-level MLM System/GrowChain.sol\":4125:4759  function getUserDetails(address _user)... */\n      swap2\n      swap4\n      swap6\n      swap8\n      swap1\n      swap3\n      swap5\n      swap7\n      pop\n      jump\t// out\n        /* \"MLM/Multi-level MLM System/GrowChain.sol\":5163:5649  function getDirectReferralsPaginated(address _user, uint256 start, uint256 limit)... */\n    tag_82:\n        /* \"MLM/Multi-level MLM System/GrowChain.sol\":5280:5296  address[] memory */\n      0x60\n        /* \"MLM/Multi-level MLM System/GrowChain.sol\":5304:5325  address[] storage all */\n      0x00\n        /* \"MLM/Multi-level MLM System/GrowChain.sol\":5328:5333  users */\n      0x0a\n        /* \"MLM/Multi-level MLM System/GrowChain.sol\":5328:5340  users[_user] */\n      0x00\n        /* \"MLM/Multi-level MLM System/GrowChain.sol\":5334:5339  _user */\n      dup7\n        /* \"MLM/Multi-level MLM System/GrowChain.sol\":5328:5340  users[_user] */\n      0xffffffffffffffffffffffffffffffffffffffff\n      and\n      0xffffffffffffffffffffffffffffffffffffffff\n      and\n      dup2\n      mstore\n      0x20\n      add\n      swap1\n      dup2\n      mstore\n      0x20\n      add\n      0x00\n      keccak256\n        /* \"MLM/Multi-level MLM System/GrowChain.sol\":5328:5356  users[_user].directReferrals */\n      0x05\n      add\n        /* \"MLM/Multi-level MLM System/GrowChain.sol\":5304:5356  address[] storage all = users[_user].directReferrals */\n      swap1\n      pop\n        /* \"MLM/Multi-level MLM System/GrowChain.sol\":5362:5373  uint256 end */\n      0x00\n        /* \"MLM/Multi-level MLM System/GrowChain.sol\":5384:5389  limit */\n      dup4\n        /* \"MLM/Multi-level MLM System/GrowChain.sol\":5376:5381  start */\n      dup6\n        /* \"MLM/Multi-level MLM System/GrowChain.sol\":5376:5389  start + limit */\n      tag_176\n      swap2\n      swap1\n      tag_177\n      jump\t// in\n    tag_176:\n        /* \"MLM/Multi-level MLM System/GrowChain.sol\":5362:5389  uint256 end = start + limit */\n      swap1\n      pop\n        /* \"MLM/Multi-level MLM System/GrowChain.sol\":5405:5408  all */\n      dup2\n        /* \"MLM/Multi-level MLM System/GrowChain.sol\":5405:5415  all.length */\n      dup1\n      sload\n      swap1\n      pop\n        /* \"MLM/Multi-level MLM System/GrowChain.sol\":5399:5402  end */\n      dup2\n        /* \"MLM/Multi-level MLM System/GrowChain.sol\":5399:5415  end > all.length */\n      gt\n        /* \"MLM/Multi-level MLM System/GrowChain.sol\":5395:5433  if (end > all.length) end = all.length */\n      iszero\n      tag_178\n      jumpi\n        /* \"MLM/Multi-level MLM System/GrowChain.sol\":5423:5426  all */\n      dup2\n        /* \"MLM/Multi-level MLM System/GrowChain.sol\":5423:5433  all.length */\n      dup1\n      sload\n      swap1\n      pop\n        /* \"MLM/Multi-level MLM System/GrowChain.sol\":5417:5433  end = all.length */\n      swap1\n      pop\n        /* \"MLM/Multi-level MLM System/GrowChain.sol\":5395:5433  if (end > all.length) end = all.length */\n    tag_178:\n        /* \"MLM/Multi-level MLM System/GrowChain.sol\":5489:5512  address[] memory result */\n      0x00\n        /* \"MLM/Multi-level MLM System/GrowChain.sol\":5535:5540  start */\n      dup6\n        /* \"MLM/Multi-level MLM System/GrowChain.sol\":5529:5532  end */\n      dup3\n        /* \"MLM/Multi-level MLM System/GrowChain.sol\":5529:5540  end - start */\n      tag_179\n      swap2\n      swap1\n      tag_180\n      jump\t// in\n    tag_179:\n        /* \"MLM/Multi-level MLM System/GrowChain.sol\":5515:5541  new address[](end - start) */\n      0xffffffffffffffff\n      dup2\n      gt\n      iszero\n      tag_181\n      jumpi\n      tag_182\n      tag_183\n      jump\t// in\n    tag_182:\n    tag_181:\n      mload(0x40)\n      swap1\n      dup1\n      dup3\n      mstore\n      dup1\n      0x20\n      mul\n      0x20\n      add\n      dup3\n      add\n      0x40\n      mstore\n      dup1\n      iszero\n      tag_184\n      jumpi\n      dup2\n      0x20\n      add\n      0x20\n      dup3\n      mul\n      dup1\n      calldatasize\n      dup4\n      calldatacopy\n      dup1\n      dup3\n      add\n      swap2\n      pop\n      pop\n      swap1\n      pop\n    tag_184:\n      pop\n        /* \"MLM/Multi-level MLM System/GrowChain.sol\":5489:5541  address[] memory result = new address[](end - start) */\n      swap1\n      pop\n        /* \"MLM/Multi-level MLM System/GrowChain.sol\":5552:5561  uint256 i */\n      0x00\n        /* \"MLM/Multi-level MLM System/GrowChain.sol\":5564:5569  start */\n      dup7\n        /* \"MLM/Multi-level MLM System/GrowChain.sol\":5552:5569  uint256 i = start */\n      swap1\n      pop\n        /* \"MLM/Multi-level MLM System/GrowChain.sol\":5547:5628  for (uint256 i = start; i < end; i++) {... */\n    tag_185:\n        /* \"MLM/Multi-level MLM System/GrowChain.sol\":5575:5578  end */\n      dup3\n        /* \"MLM/Multi-level MLM System/GrowChain.sol\":5571:5572  i */\n      dup2\n        /* \"MLM/Multi-level MLM System/GrowChain.sol\":5571:5578  i < end */\n      lt\n        /* \"MLM/Multi-level MLM System/GrowChain.sol\":5547:5628  for (uint256 i = start; i < end; i++) {... */\n      iszero\n      tag_186\n      jumpi\n        /* \"MLM/Multi-level MLM System/GrowChain.sol\":5615:5618  all */\n      dup4\n        /* \"MLM/Multi-level MLM System/GrowChain.sol\":5619:5620  i */\n      dup2\n        /* \"MLM/Multi-level MLM System/GrowChain.sol\":5615:5621  all[i] */\n      dup2\n      sload\n      dup2\n      lt\n      tag_188\n      jumpi\n      tag_189\n      tag_190\n      jump\t// in\n    tag_189:\n    tag_188:\n      swap1\n      0x00\n      mstore\n      keccak256(0x00, 0x20)\n      add\n      0x00\n      swap1\n      sload\n      swap1\n      0x0100\n      exp\n      swap1\n      div\n      0xffffffffffffffffffffffffffffffffffffffff\n      and\n        /* \"MLM/Multi-level MLM System/GrowChain.sol\":5595:5601  result */\n      dup3\n        /* \"MLM/Multi-level MLM System/GrowChain.sol\":5606:5611  start */\n      dup9\n        /* \"MLM/Multi-level MLM System/GrowChain.sol\":5602:5603  i */\n      dup4\n        /* \"MLM/Multi-level MLM System/GrowChain.sol\":5602:5611  i - start */\n      tag_192\n      swap2\n      swap1\n      tag_180\n      jump\t// in\n    tag_192:\n        /* \"MLM/Multi-level MLM System/GrowChain.sol\":5595:5612  result[i - start] */\n      dup2\n      mload\n      dup2\n      lt\n      tag_193\n      jumpi\n      tag_194\n      tag_190\n      jump\t// in\n    tag_194:\n    tag_193:\n      0x20\n      mul\n      0x20\n      add\n      add\n        /* \"MLM/Multi-level MLM System/GrowChain.sol\":5595:5621  result[i - start] = all[i] */\n      swap1\n      0xffffffffffffffffffffffffffffffffffffffff\n      and\n      swap1\n      dup2\n      0xffffffffffffffffffffffffffffffffffffffff\n      and\n      dup2\n      mstore\n      pop\n      pop\n        /* \"MLM/Multi-level MLM System/GrowChain.sol\":5580:5583  i++ */\n      dup1\n      dup1\n      0x01\n      add\n      swap2\n      pop\n      pop\n        /* \"MLM/Multi-level MLM System/GrowChain.sol\":5547:5628  for (uint256 i = start; i < end; i++) {... */\n      jump(tag_185)\n    tag_186:\n      pop\n        /* \"MLM/Multi-level MLM System/GrowChain.sol\":5640:5646  result */\n      dup1\n        /* \"MLM/Multi-level MLM System/GrowChain.sol\":5633:5646  return result */\n      swap4\n      pop\n      pop\n      pop\n      pop\n        /* \"MLM/Multi-level MLM System/GrowChain.sol\":5163:5649  function getDirectReferralsPaginated(address _user, uint256 start, uint256 limit)... */\n      swap4\n      swap3\n      pop\n      pop\n      pop\n      jump\t// out\n        /* \"MLM/Multi-level MLM System/GrowChain.sol\":6427:6681  function transferOwnership(address _newOwner) external onlybyAdmin {... */\n    tag_86:\n        /* \"MLM/Multi-level MLM System/GrowChain.sol\":1890:1895  admin */\n      0x02\n      0x00\n      swap1\n      sload\n      swap1\n      0x0100\n      exp\n      swap1\n      div\n      0xffffffffffffffffffffffffffffffffffffffff\n      and\n        /* \"MLM/Multi-level MLM System/GrowChain.sol\":1876:1895  msg.sender == admin */\n      0xffffffffffffffffffffffffffffffffffffffff\n      and\n        /* \"MLM/Multi-level MLM System/GrowChain.sol\":1876:1886  msg.sender */\n      caller\n        /* \"MLM/Multi-level MLM System/GrowChain.sol\":1876:1895  msg.sender == admin */\n      0xffffffffffffffffffffffffffffffffffffffff\n      and\n      eq\n        /* \"MLM/Multi-level MLM System/GrowChain.sol\":1855:1971  require(... */\n      tag_196\n      jumpi\n      mload(0x40)\n      0x08c379a000000000000000000000000000000000000000000000000000000000\n      dup2\n      mstore\n      0x04\n      add\n      tag_197\n      swap1\n      tag_130\n      jump\t// in\n    tag_197:\n      mload(0x40)\n      dup1\n      swap2\n      sub\n      swap1\n      revert\n    tag_196:\n        /* \"MLM/Multi-level MLM System/GrowChain.sol\":6533:6534  0 */\n      0x00\n        /* \"MLM/Multi-level MLM System/GrowChain.sol\":6512:6535  _newOwner != address(0) */\n      0xffffffffffffffffffffffffffffffffffffffff\n      and\n        /* \"MLM/Multi-level MLM System/GrowChain.sol\":6512:6521  _newOwner */\n      dup2\n        /* \"MLM/Multi-level MLM System/GrowChain.sol\":6512:6535  _newOwner != address(0) */\n      0xffffffffffffffffffffffffffffffffffffffff\n      and\n      sub\n        /* \"MLM/Multi-level MLM System/GrowChain.sol\":6504:6557  require(_newOwner != address(0), \"Invalid new owner\") */\n      tag_199\n      jumpi\n      mload(0x40)\n      0x08c379a000000000000000000000000000000000000000000000000000000000\n      dup2\n      mstore\n      0x04\n      add\n      tag_200\n      swap1\n      tag_201\n      jump\t// in\n    tag_200:\n      mload(0x40)\n      dup1\n      swap2\n      sub\n      swap1\n      revert\n    tag_199:\n        /* \"MLM/Multi-level MLM System/GrowChain.sol\":6567:6583  address oldowner */\n      0x00\n        /* \"MLM/Multi-level MLM System/GrowChain.sol\":6586:6591  admin */\n      0x02\n      0x00\n      swap1\n      sload\n      swap1\n      0x0100\n      exp\n      swap1\n      div\n      0xffffffffffffffffffffffffffffffffffffffff\n      and\n        /* \"MLM/Multi-level MLM System/GrowChain.sol\":6567:6591  address oldowner = admin */\n      swap1\n      pop\n        /* \"MLM/Multi-level MLM System/GrowChain.sol\":6609:6618  _newOwner */\n      dup2\n        /* \"MLM/Multi-level MLM System/GrowChain.sol\":6601:6606  admin */\n      0x02\n      0x00\n        /* \"MLM/Multi-level MLM System/GrowChain.sol\":6601:6618  admin = _newOwner */\n      0x0100\n      exp\n      dup2\n      sload\n      dup2\n      0xffffffffffffffffffffffffffffffffffffffff\n      mul\n      not\n      and\n      swap1\n      dup4\n      0xffffffffffffffffffffffffffffffffffffffff\n      and\n      mul\n      or\n      swap1\n      sstore\n      pop\n        /* \"MLM/Multi-level MLM System/GrowChain.sol\":6664:6673  _newOwner */\n      dup2\n        /* \"MLM/Multi-level MLM System/GrowChain.sol\":6633:6674  OwnershipTransferred(oldowner, _newOwner) */\n      0xffffffffffffffffffffffffffffffffffffffff\n      and\n        /* \"MLM/Multi-level MLM System/GrowChain.sol\":6654:6662  oldowner */\n      dup2\n        /* \"MLM/Multi-level MLM System/GrowChain.sol\":6633:6674  OwnershipTransferred(oldowner, _newOwner) */\n      0xffffffffffffffffffffffffffffffffffffffff\n      and\n      0x8be0079c531659141344cd1fd0a4f28419497f9722a3daafe3b4186f6b6457e0\n      mload(0x40)\n      mload(0x40)\n      dup1\n      swap2\n      sub\n      swap1\n      log3\n        /* \"MLM/Multi-level MLM System/GrowChain.sol\":6494:6681  {... */\n      pop\n        /* \"MLM/Multi-level MLM System/GrowChain.sol\":6427:6681  function transferOwnership(address _newOwner) external onlybyAdmin {... */\n      pop\n      jump\t// out\n        /* \"MLM/Multi-level MLM System/GrowChain.sol\":525:545  address public admin */\n    tag_88:\n      0x02\n      0x00\n      swap1\n      sload\n      swap1\n      0x0100\n      exp\n      swap1\n      div\n      0xffffffffffffffffffffffffffffffffffffffff\n      and\n      dup2\n      jump\t// out\n        /* \"@openzeppelin/contracts/security/ReentrancyGuard.sol\":2336:2623  function _nonReentrantBefore() private {... */\n    tag_97:\n        /* \"@openzeppelin/contracts/security/ReentrancyGuard.sol\":1759:1760  2 */\n      0x02\n        /* \"@openzeppelin/contracts/security/ReentrancyGuard.sol\":2468:2475  _status */\n      sload(0x00)\n        /* \"@openzeppelin/contracts/security/ReentrancyGuard.sol\":2468:2487  _status != _ENTERED */\n      sub\n        /* \"@openzeppelin/contracts/security/ReentrancyGuard.sol\":2460:2523  require(_status != _ENTERED, \"ReentrancyGuard: reentrant call\") */\n      tag_203\n      jumpi\n      mload(0x40)\n      0x08c379a000000000000000000000000000000000000000000000000000000000\n      dup2\n      mstore\n      0x04\n      add\n      tag_204\n      swap1\n      tag_205\n      jump\t// in\n    tag_204:\n      mload(0x40)\n      dup1\n      swap2\n      sub\n      swap1\n      revert\n    tag_203:\n        /* \"@openzeppelin/contracts/security/ReentrancyGuard.sol\":1759:1760  2 */\n      0x02\n        /* \"@openzeppelin/contracts/security/ReentrancyGuard.sol\":2598:2605  _status */\n      0x00\n        /* \"@openzeppelin/contracts/security/ReentrancyGuard.sol\":2598:2616  _status = _ENTERED */\n      dup2\n      swap1\n      sstore\n      pop\n        /* \"@openzeppelin/contracts/security/ReentrancyGuard.sol\":2336:2623  function _nonReentrantBefore() private {... */\n      jump\t// out\n        /* \"MLM/Multi-level MLM System/GrowChain.sol\":3111:4119  function distributeReferralIncome(address _referrer) internal {... */\n    tag_122:\n        /* \"MLM/Multi-level MLM System/GrowChain.sol\":3183:3197  address upline */\n      0x00\n        /* \"MLM/Multi-level MLM System/GrowChain.sol\":3200:3209  _referrer */\n      dup2\n        /* \"MLM/Multi-level MLM System/GrowChain.sol\":3183:3209  address upline = _referrer */\n      swap1\n      pop\n        /* \"MLM/Multi-level MLM System/GrowChain.sol\":3238:3247  uint256 i */\n      0x00\n        /* \"MLM/Multi-level MLM System/GrowChain.sol\":3220:4113  for (... */\n    tag_207:\n        /* \"MLM/Multi-level MLM System/GrowChain.sol\":3269:3291  levelPercentage.length */\n      0x05\n        /* \"MLM/Multi-level MLM System/GrowChain.sol\":3265:3266  i */\n      dup2\n        /* \"MLM/Multi-level MLM System/GrowChain.sol\":3265:3291  i < levelPercentage.length */\n      lt\n        /* \"MLM/Multi-level MLM System/GrowChain.sol\":3265:3315  i < levelPercentage.length && i < maxReferralDepth */\n      dup1\n      iszero\n      tag_210\n      jumpi\n      pop\n        /* \"MLM/Multi-level MLM System/GrowChain.sol\":3299:3315  maxReferralDepth */\n      sload(0x09)\n        /* \"MLM/Multi-level MLM System/GrowChain.sol\":3295:3296  i */\n      dup2\n        /* \"MLM/Multi-level MLM System/GrowChain.sol\":3295:3315  i < maxReferralDepth */\n      lt\n        /* \"MLM/Multi-level MLM System/GrowChain.sol\":3265:3315  i < levelPercentage.length && i < maxReferralDepth */\n    tag_210:\n        /* \"MLM/Multi-level MLM System/GrowChain.sol\":3220:4113  for (... */\n      iszero\n      tag_208\n      jumpi\n        /* \"MLM/Multi-level MLM System/GrowChain.sol\":3379:3380  0 */\n      0x00\n        /* \"MLM/Multi-level MLM System/GrowChain.sol\":3361:3381  upline == address(0) */\n      0xffffffffffffffffffffffffffffffffffffffff\n      and\n        /* \"MLM/Multi-level MLM System/GrowChain.sol\":3361:3367  upline */\n      dup3\n        /* \"MLM/Multi-level MLM System/GrowChain.sol\":3361:3381  upline == address(0) */\n      0xffffffffffffffffffffffffffffffffffffffff\n      and\n      sub\n        /* \"MLM/Multi-level MLM System/GrowChain.sol\":3357:3421  if (upline == address(0)) {... */\n      iszero\n        /* \"MLM/Multi-level MLM System/GrowChain.sol\":3401:3406  break */\n      tag_208\n        /* \"MLM/Multi-level MLM System/GrowChain.sol\":3357:3421  if (upline == address(0)) {... */\n      jumpi\n        /* \"MLM/Multi-level MLM System/GrowChain.sol\":3435:3449  uint256 reward */\n      0x00\n        /* \"MLM/Multi-level MLM System/GrowChain.sol\":3494:3497  100 */\n      0x64\n        /* \"MLM/Multi-level MLM System/GrowChain.sol\":3472:3487  levelPercentage */\n      0x04\n        /* \"MLM/Multi-level MLM System/GrowChain.sol\":3488:3489  i */\n      dup4\n        /* \"MLM/Multi-level MLM System/GrowChain.sol\":3472:3490  levelPercentage[i] */\n      0x05\n      dup2\n      lt\n      tag_212\n      jumpi\n      tag_213\n      tag_190\n      jump\t// in\n    tag_213:\n    tag_212:\n      add\n      sload\n        /* \"MLM/Multi-level MLM System/GrowChain.sol\":3453:3469  REGISTRATION_FEE */\n      sload(0x03)\n        /* \"MLM/Multi-level MLM System/GrowChain.sol\":3453:3490  REGISTRATION_FEE * levelPercentage[i] */\n      tag_215\n      swap2\n      swap1\n      tag_150\n      jump\t// in\n    tag_215:\n        /* \"MLM/Multi-level MLM System/GrowChain.sol\":3452:3497  (REGISTRATION_FEE * levelPercentage[i]) / 100 */\n      tag_216\n      swap2\n      swap1\n      tag_217\n      jump\t// in\n    tag_216:\n        /* \"MLM/Multi-level MLM System/GrowChain.sol\":3435:3497  uint256 reward = (REGISTRATION_FEE * levelPercentage[i]) / 100 */\n      swap1\n      pop\n        /* \"MLM/Multi-level MLM System/GrowChain.sol\":3519:3522  GNT */\n      0x01\n      0x00\n      swap1\n      sload\n      swap1\n      0x0100\n      exp\n      swap1\n      div\n      0xffffffffffffffffffffffffffffffffffffffff\n      and\n        /* \"MLM/Multi-level MLM System/GrowChain.sol\":3519:3531  GNT.transfer */\n      0xffffffffffffffffffffffffffffffffffffffff\n      and\n      0xa9059cbb\n        /* \"MLM/Multi-level MLM System/GrowChain.sol\":3532:3538  upline */\n      dup5\n        /* \"MLM/Multi-level MLM System/GrowChain.sol\":3540:3546  reward */\n      dup4\n        /* \"MLM/Multi-level MLM System/GrowChain.sol\":3519:3547  GNT.transfer(upline, reward) */\n      mload(0x40)\n      dup4\n      0xffffffff\n      and\n      0xe0\n      shl\n      dup2\n      mstore\n      0x04\n      add\n      tag_218\n      swap3\n      swap2\n      swap1\n      tag_133\n      jump\t// in\n    tag_218:\n      0x20\n      mload(0x40)\n      dup1\n      dup4\n      sub\n      dup2\n      0x00\n      dup8\n      gas\n      call\n      iszero\n      dup1\n      iszero\n      tag_220\n      jumpi\n      returndatasize\n      0x00\n      dup1\n      returndatacopy\n      revert(0x00, returndatasize)\n    tag_220:\n      pop\n      pop\n      pop\n      pop\n      mload(0x40)\n      returndatasize\n      not(0x1f)\n      0x1f\n      dup3\n      add\n      and\n      dup3\n      add\n      dup1\n      0x40\n      mstore\n      pop\n      dup2\n      add\n      swap1\n      tag_221\n      swap2\n      swap1\n      tag_116\n      jump\t// in\n    tag_221:\n        /* \"MLM/Multi-level MLM System/GrowChain.sol\":3511:3574  require(GNT.transfer(upline, reward), \"Reward transfer failed\") */\n      tag_222\n      jumpi\n      mload(0x40)\n      0x08c379a000000000000000000000000000000000000000000000000000000000\n      dup2\n      mstore\n      0x04\n      add\n      tag_223\n      swap1\n      tag_224\n      jump\t// in\n    tag_223:\n      mload(0x40)\n      dup1\n      swap2\n      sub\n      swap1\n      revert\n    tag_222:\n        /* \"MLM/Multi-level MLM System/GrowChain.sol\":3612:3618  upline */\n      dup3\n        /* \"MLM/Multi-level MLM System/GrowChain.sol\":3594:3634  IncomeDistributed(upline, i + 1, reward) */\n      0xffffffffffffffffffffffffffffffffffffffff\n      and\n      0x83b5eadb65fb8fc1b70a3b205b38bb0c6a3e15e14bcbc9d4f366d6c772e6d83b\n        /* \"MLM/Multi-level MLM System/GrowChain.sol\":3624:3625  1 */\n      0x01\n        /* \"MLM/Multi-level MLM System/GrowChain.sol\":3620:3621  i */\n      dup5\n        /* \"MLM/Multi-level MLM System/GrowChain.sol\":3620:3625  i + 1 */\n      tag_225\n      swap2\n      swap1\n      tag_177\n      jump\t// in\n    tag_225:\n        /* \"MLM/Multi-level MLM System/GrowChain.sol\":3627:3633  reward */\n      dup4\n        /* \"MLM/Multi-level MLM System/GrowChain.sol\":3594:3634  IncomeDistributed(upline, i + 1, reward) */\n      mload(0x40)\n      tag_226\n      swap3\n      swap2\n      swap1\n      tag_227\n      jump\t// in\n    tag_226:\n      mload(0x40)\n      dup1\n      swap2\n      sub\n      swap1\n      log2\n        /* \"MLM/Multi-level MLM System/GrowChain.sol\":3658:3659  0 */\n      0x00\n        /* \"MLM/Multi-level MLM System/GrowChain.sol\":3653:3654  i */\n      dup3\n        /* \"MLM/Multi-level MLM System/GrowChain.sol\":3653:3659  i == 0 */\n      sub\n        /* \"MLM/Multi-level MLM System/GrowChain.sol\":3649:3989  if (i == 0) {... */\n      tag_228\n      jumpi\n        /* \"MLM/Multi-level MLM System/GrowChain.sol\":3717:3723  reward */\n      dup1\n        /* \"MLM/Multi-level MLM System/GrowChain.sol\":3679:3684  users */\n      0x0a\n        /* \"MLM/Multi-level MLM System/GrowChain.sol\":3679:3692  users[upline] */\n      0x00\n        /* \"MLM/Multi-level MLM System/GrowChain.sol\":3685:3691  upline */\n      dup6\n        /* \"MLM/Multi-level MLM System/GrowChain.sol\":3679:3692  users[upline] */\n      0xffffffffffffffffffffffffffffffffffffffff\n      and\n      0xffffffffffffffffffffffffffffffffffffffff\n      and\n      dup2\n      mstore\n      0x20\n      add\n      swap1\n      dup2\n      mstore\n      0x20\n      add\n      0x00\n      keccak256\n        /* \"MLM/Multi-level MLM System/GrowChain.sol\":3679:3713  users[upline].directReferralIncome */\n      0x01\n      add\n      0x00\n        /* \"MLM/Multi-level MLM System/GrowChain.sol\":3679:3723  users[upline].directReferralIncome += reward */\n      dup3\n      dup3\n      sload\n      tag_229\n      swap2\n      swap1\n      tag_177\n      jump\t// in\n    tag_229:\n      swap3\n      pop\n      pop\n      dup2\n      swap1\n      sstore\n      pop\n        /* \"MLM/Multi-level MLM System/GrowChain.sol\":3742:3747  users */\n      0x0a\n        /* \"MLM/Multi-level MLM System/GrowChain.sol\":3742:3755  users[upline] */\n      0x00\n        /* \"MLM/Multi-level MLM System/GrowChain.sol\":3748:3754  upline */\n      dup5\n        /* \"MLM/Multi-level MLM System/GrowChain.sol\":3742:3755  users[upline] */\n      0xffffffffffffffffffffffffffffffffffffffff\n      and\n      0xffffffffffffffffffffffffffffffffffffffff\n      and\n      dup2\n      mstore\n      0x20\n      add\n      swap1\n      dup2\n      mstore\n      0x20\n      add\n      0x00\n      keccak256\n        /* \"MLM/Multi-level MLM System/GrowChain.sol\":3742:3771  users[upline].directReferrals */\n      0x05\n      add\n        /* \"MLM/Multi-level MLM System/GrowChain.sol\":3777:3787  msg.sender */\n      caller\n        /* \"MLM/Multi-level MLM System/GrowChain.sol\":3742:3788  users[upline].directReferrals.push(msg.sender) */\n      swap1\n      dup1\n      0x01\n      dup2\n      sload\n      add\n      dup1\n      dup3\n      sstore\n      dup1\n      swap2\n      pop\n      pop\n      0x01\n      swap1\n      sub\n      swap1\n      0x00\n      mstore\n      keccak256(0x00, 0x20)\n      add\n      0x00\n      swap1\n      swap2\n      swap1\n      swap2\n      swap1\n      swap2\n      0x0100\n      exp\n      dup2\n      sload\n      dup2\n      0xffffffffffffffffffffffffffffffffffffffff\n      mul\n      not\n      and\n      swap1\n      dup4\n      0xffffffffffffffffffffffffffffffffffffffff\n      and\n      mul\n      or\n      swap1\n      sstore\n      pop\n        /* \"MLM/Multi-level MLM System/GrowChain.sol\":3806:3811  users */\n      0x0a\n        /* \"MLM/Multi-level MLM System/GrowChain.sol\":3806:3819  users[upline] */\n      0x00\n        /* \"MLM/Multi-level MLM System/GrowChain.sol\":3812:3818  upline */\n      dup5\n        /* \"MLM/Multi-level MLM System/GrowChain.sol\":3806:3819  users[upline] */\n      0xffffffffffffffffffffffffffffffffffffffff\n      and\n      0xffffffffffffffffffffffffffffffffffffffff\n      and\n      dup2\n      mstore\n      0x20\n      add\n      swap1\n      dup2\n      mstore\n      0x20\n      add\n      0x00\n      keccak256\n        /* \"MLM/Multi-level MLM System/GrowChain.sol\":3806:3833  users[upline].referralCount */\n      0x03\n      add\n      0x00\n        /* \"MLM/Multi-level MLM System/GrowChain.sol\":3806:3835  users[upline].referralCount++ */\n      dup2\n      sload\n      dup1\n      swap3\n      swap2\n      swap1\n      tag_231\n      swap1\n      tag_232\n      jump\t// in\n    tag_231:\n      swap2\n      swap1\n      pop\n      sstore\n      pop\n        /* \"MLM/Multi-level MLM System/GrowChain.sol\":3649:3989  if (i == 0) {... */\n      jump(tag_233)\n    tag_228:\n        /* \"MLM/Multi-level MLM System/GrowChain.sol\":3902:3908  reward */\n      dup1\n        /* \"MLM/Multi-level MLM System/GrowChain.sol\":3874:3879  users */\n      0x0a\n        /* \"MLM/Multi-level MLM System/GrowChain.sol\":3874:3887  users[upline] */\n      0x00\n        /* \"MLM/Multi-level MLM System/GrowChain.sol\":3880:3886  upline */\n      dup6\n        /* \"MLM/Multi-level MLM System/GrowChain.sol\":3874:3887  users[upline] */\n      0xffffffffffffffffffffffffffffffffffffffff\n      and\n      0xffffffffffffffffffffffffffffffffffffffff\n      and\n      dup2\n      mstore\n      0x20\n      add\n      swap1\n      dup2\n      mstore\n      0x20\n      add\n      0x00\n      keccak256\n        /* \"MLM/Multi-level MLM System/GrowChain.sol\":3874:3898  users[upline].teamIncome */\n      0x06\n      add\n      0x00\n        /* \"MLM/Multi-level MLM System/GrowChain.sol\":3874:3908  users[upline].teamIncome += reward */\n      dup3\n      dup3\n      sload\n      tag_234\n      swap2\n      swap1\n      tag_177\n      jump\t// in\n    tag_234:\n      swap3\n      pop\n      pop\n      dup2\n      swap1\n      sstore\n      pop\n        /* \"MLM/Multi-level MLM System/GrowChain.sol\":3926:3931  users */\n      0x0a\n        /* \"MLM/Multi-level MLM System/GrowChain.sol\":3926:3939  users[upline] */\n      0x00\n        /* \"MLM/Multi-level MLM System/GrowChain.sol\":3932:3938  upline */\n      dup5\n        /* \"MLM/Multi-level MLM System/GrowChain.sol\":3926:3939  users[upline] */\n      0xffffffffffffffffffffffffffffffffffffffff\n      and\n      0xffffffffffffffffffffffffffffffffffffffff\n      and\n      dup2\n      mstore\n      0x20\n      add\n      swap1\n      dup2\n      mstore\n      0x20\n      add\n      0x00\n      keccak256\n        /* \"MLM/Multi-level MLM System/GrowChain.sol\":3926:3957  users[upline].indirectReferrals */\n      0x08\n      add\n        /* \"MLM/Multi-level MLM System/GrowChain.sol\":3963:3973  msg.sender */\n      caller\n        /* \"MLM/Multi-level MLM System/GrowChain.sol\":3926:3974  users[upline].indirectReferrals.push(msg.sender) */\n      swap1\n      dup1\n      0x01\n      dup2\n      sload\n      add\n      dup1\n      dup3\n      sstore\n      dup1\n      swap2\n      pop\n      pop\n      0x01\n      swap1\n      sub\n      swap1\n      0x00\n      mstore\n      keccak256(0x00, 0x20)\n      add\n      0x00\n      swap1\n      swap2\n      swap1\n      swap2\n      swap1\n      swap2\n      0x0100\n      exp\n      dup2\n      sload\n      dup2\n      0xffffffffffffffffffffffffffffffffffffffff\n      mul\n      not\n      and\n      swap1\n      dup4\n      0xffffffffffffffffffffffffffffffffffffffff\n      and\n      mul\n      or\n      swap1\n      sstore\n      pop\n        /* \"MLM/Multi-level MLM System/GrowChain.sol\":3649:3989  if (i == 0) {... */\n    tag_233:\n        /* \"MLM/Multi-level MLM System/GrowChain.sol\":4002:4007  users */\n      0x0a\n        /* \"MLM/Multi-level MLM System/GrowChain.sol\":4002:4015  users[upline] */\n      0x00\n        /* \"MLM/Multi-level MLM System/GrowChain.sol\":4008:4014  upline */\n      dup5\n        /* \"MLM/Multi-level MLM System/GrowChain.sol\":4002:4015  users[upline] */\n      0xffffffffffffffffffffffffffffffffffffffff\n      and\n      0xffffffffffffffffffffffffffffffffffffffff\n      and\n      dup2\n      mstore\n      0x20\n      add\n      swap1\n      dup2\n      mstore\n      0x20\n      add\n      0x00\n      keccak256\n        /* \"MLM/Multi-level MLM System/GrowChain.sol\":4002:4024  users[upline].teamSize */\n      0x07\n      add\n      0x00\n        /* \"MLM/Multi-level MLM System/GrowChain.sol\":4002:4026  users[upline].teamSize++ */\n      dup2\n      sload\n      dup1\n      swap3\n      swap2\n      swap1\n      tag_236\n      swap1\n      tag_232\n      jump\t// in\n    tag_236:\n      swap2\n      swap1\n      pop\n      sstore\n      pop\n        /* \"MLM/Multi-level MLM System/GrowChain.sol\":4080:4085  users */\n      0x0a\n        /* \"MLM/Multi-level MLM System/GrowChain.sol\":4080:4093  users[upline] */\n      0x00\n        /* \"MLM/Multi-level MLM System/GrowChain.sol\":4086:4092  upline */\n      dup5\n        /* \"MLM/Multi-level MLM System/GrowChain.sol\":4080:4093  users[upline] */\n      0xffffffffffffffffffffffffffffffffffffffff\n      and\n      0xffffffffffffffffffffffffffffffffffffffff\n      and\n      dup2\n      mstore\n      0x20\n      add\n      swap1\n      dup2\n      mstore\n      0x20\n      add\n      0x00\n      keccak256\n        /* \"MLM/Multi-level MLM System/GrowChain.sol\":4080:4102  users[upline].referrer */\n      0x00\n      add\n      0x00\n      swap1\n      sload\n      swap1\n      0x0100\n      exp\n      swap1\n      div\n      0xffffffffffffffffffffffffffffffffffffffff\n      and\n        /* \"MLM/Multi-level MLM System/GrowChain.sol\":4071:4102  upline = users[upline].referrer */\n      swap3\n      pop\n        /* \"MLM/Multi-level MLM System/GrowChain.sol\":3343:4113  {... */\n      pop\n        /* \"MLM/Multi-level MLM System/GrowChain.sol\":3329:3332  i++ */\n      dup1\n      dup1\n      tag_237\n      swap1\n      tag_232\n      jump\t// in\n    tag_237:\n      swap2\n      pop\n      pop\n        /* \"MLM/Multi-level MLM System/GrowChain.sol\":3220:4113  for (... */\n      jump(tag_207)\n    tag_208:\n      pop\n        /* \"MLM/Multi-level MLM System/GrowChain.sol\":3173:4119  {... */\n      pop\n        /* \"MLM/Multi-level MLM System/GrowChain.sol\":3111:4119  function distributeReferralIncome(address _referrer) internal {... */\n      pop\n      jump\t// out\n        /* \"@openzeppelin/contracts/security/ReentrancyGuard.sol\":2629:2838  function _nonReentrantAfter() private {... */\n    tag_124:\n        /* \"@openzeppelin/contracts/security/ReentrancyGuard.sol\":1716:1717  1 */\n      0x01\n        /* \"@openzeppelin/contracts/security/ReentrancyGuard.sol\":2809:2816  _status */\n      0x00\n        /* \"@openzeppelin/contracts/security/ReentrancyGuard.sol\":2809:2831  _status = _NOT_ENTERED */\n      dup2\n      swap1\n      sstore\n      pop\n        /* \"@openzeppelin/contracts/security/ReentrancyGuard.sol\":2629:2838  function _nonReentrantAfter() private {... */\n      jump\t// out\n        /* \"#utility.yul\":7:84   */\n    tag_239:\n        /* \"#utility.yul\":44:51   */\n      0x00\n        /* \"#utility.yul\":73:78   */\n      dup2\n        /* \"#utility.yul\":62:78   */\n      swap1\n      pop\n        /* \"#utility.yul\":7:84   */\n      swap2\n      swap1\n      pop\n      jump\t// out\n        /* \"#utility.yul\":90:208   */\n    tag_240:\n        /* \"#utility.yul\":177:201   */\n      tag_298\n        /* \"#utility.yul\":195:200   */\n      dup2\n        /* \"#utility.yul\":177:201   */\n      tag_239\n      jump\t// in\n    tag_298:\n        /* \"#utility.yul\":172:175   */\n      dup3\n        /* \"#utility.yul\":165:202   */\n      mstore\n        /* \"#utility.yul\":90:208   */\n      pop\n      pop\n      jump\t// out\n        /* \"#utility.yul\":214:436   */\n    tag_27:\n        /* \"#utility.yul\":307:311   */\n      0x00\n        /* \"#utility.yul\":345:347   */\n      0x20\n        /* \"#utility.yul\":334:343   */\n      dup3\n        /* \"#utility.yul\":330:348   */\n      add\n        /* \"#utility.yul\":322:348   */\n      swap1\n      pop\n        /* \"#utility.yul\":358:429   */\n      tag_300\n        /* \"#utility.yul\":426:427   */\n      0x00\n        /* \"#utility.yul\":415:424   */\n      dup4\n        /* \"#utility.yul\":411:428   */\n      add\n        /* \"#utility.yul\":402:408   */\n      dup5\n        /* \"#utility.yul\":358:429   */\n      tag_240\n      jump\t// in\n    tag_300:\n        /* \"#utility.yul\":214:436   */\n      swap3\n      swap2\n      pop\n      pop\n      jump\t// out\n        /* \"#utility.yul\":523:640   */\n    tag_242:\n        /* \"#utility.yul\":632:633   */\n      0x00\n        /* \"#utility.yul\":629:630   */\n      dup1\n        /* \"#utility.yul\":622:634   */\n      revert\n        /* \"#utility.yul\":769:895   */\n    tag_244:\n        /* \"#utility.yul\":806:813   */\n      0x00\n        /* \"#utility.yul\":846:888   */\n      0xffffffffffffffffffffffffffffffffffffffff\n        /* \"#utility.yul\":839:844   */\n      dup3\n        /* \"#utility.yul\":835:889   */\n      and\n        /* \"#utility.yul\":824:889   */\n      swap1\n      pop\n        /* \"#utility.yul\":769:895   */\n      swap2\n      swap1\n      pop\n      jump\t// out\n        /* \"#utility.yul\":901:997   */\n    tag_245:\n        /* \"#utility.yul\":938:945   */\n      0x00\n        /* \"#utility.yul\":967:991   */\n      tag_306\n        /* \"#utility.yul\":985:990   */\n      dup3\n        /* \"#utility.yul\":967:991   */\n      tag_244\n      jump\t// in\n    tag_306:\n        /* \"#utility.yul\":956:991   */\n      swap1\n      pop\n        /* \"#utility.yul\":901:997   */\n      swap2\n      swap1\n      pop\n      jump\t// out\n        /* \"#utility.yul\":1003:1125   */\n    tag_246:\n        /* \"#utility.yul\":1076:1100   */\n      tag_308\n        /* \"#utility.yul\":1094:1099   */\n      dup2\n        /* \"#utility.yul\":1076:1100   */\n      tag_245\n      jump\t// in\n    tag_308:\n        /* \"#utility.yul\":1069:1074   */\n      dup2\n        /* \"#utility.yul\":1066:1101   */\n      eq\n        /* \"#utility.yul\":1056:1119   */\n      tag_309\n      jumpi\n        /* \"#utility.yul\":1115:1116   */\n      0x00\n        /* \"#utility.yul\":1112:1113   */\n      dup1\n        /* \"#utility.yul\":1105:1117   */\n      revert\n        /* \"#utility.yul\":1056:1119   */\n    tag_309:\n        /* \"#utility.yul\":1003:1125   */\n      pop\n      jump\t// out\n        /* \"#utility.yul\":1131:1270   */\n    tag_247:\n        /* \"#utility.yul\":1177:1182   */\n      0x00\n        /* \"#utility.yul\":1215:1221   */\n      dup2\n        /* \"#utility.yul\":1202:1222   */\n      calldataload\n        /* \"#utility.yul\":1193:1222   */\n      swap1\n      pop\n        /* \"#utility.yul\":1231:1264   */\n      tag_311\n        /* \"#utility.yul\":1258:1263   */\n      dup2\n        /* \"#utility.yul\":1231:1264   */\n      tag_246\n      jump\t// in\n    tag_311:\n        /* \"#utility.yul\":1131:1270   */\n      swap3\n      swap2\n      pop\n      pop\n      jump\t// out\n        /* \"#utility.yul\":1276:1605   */\n    tag_30:\n        /* \"#utility.yul\":1335:1341   */\n      0x00\n        /* \"#utility.yul\":1384:1386   */\n      0x20\n        /* \"#utility.yul\":1372:1381   */\n      dup3\n        /* \"#utility.yul\":1363:1370   */\n      dup5\n        /* \"#utility.yul\":1359:1382   */\n      sub\n        /* \"#utility.yul\":1355:1387   */\n      slt\n        /* \"#utility.yul\":1352:1471   */\n      iszero\n      tag_313\n      jumpi\n        /* \"#utility.yul\":1390:1469   */\n      tag_314\n      tag_242\n      jump\t// in\n    tag_314:\n        /* \"#utility.yul\":1352:1471   */\n    tag_313:\n        /* \"#utility.yul\":1510:1511   */\n      0x00\n        /* \"#utility.yul\":1535:1588   */\n      tag_315\n        /* \"#utility.yul\":1580:1587   */\n      dup5\n        /* \"#utility.yul\":1571:1577   */\n      dup3\n        /* \"#utility.yul\":1560:1569   */\n      dup6\n        /* \"#utility.yul\":1556:1578   */\n      add\n        /* \"#utility.yul\":1535:1588   */\n      tag_247\n      jump\t// in\n    tag_315:\n        /* \"#utility.yul\":1525:1588   */\n      swap2\n      pop\n        /* \"#utility.yul\":1481:1598   */\n      pop\n        /* \"#utility.yul\":1276:1605   */\n      swap3\n      swap2\n      pop\n      pop\n      jump\t// out\n        /* \"#utility.yul\":1611:1733   */\n    tag_248:\n        /* \"#utility.yul\":1684:1708   */\n      tag_317\n        /* \"#utility.yul\":1702:1707   */\n      dup2\n        /* \"#utility.yul\":1684:1708   */\n      tag_239\n      jump\t// in\n    tag_317:\n        /* \"#utility.yul\":1677:1682   */\n      dup2\n        /* \"#utility.yul\":1674:1709   */\n      eq\n        /* \"#utility.yul\":1664:1727   */\n      tag_318\n      jumpi\n        /* \"#utility.yul\":1723:1724   */\n      0x00\n        /* \"#utility.yul\":1720:1721   */\n      dup1\n        /* \"#utility.yul\":1713:1725   */\n      revert\n        /* \"#utility.yul\":1664:1727   */\n    tag_318:\n        /* \"#utility.yul\":1611:1733   */\n      pop\n      jump\t// out\n        /* \"#utility.yul\":1739:1878   */\n    tag_249:\n        /* \"#utility.yul\":1785:1790   */\n      0x00\n        /* \"#utility.yul\":1823:1829   */\n      dup2\n        /* \"#utility.yul\":1810:1830   */\n      calldataload\n        /* \"#utility.yul\":1801:1830   */\n      swap1\n      pop\n        /* \"#utility.yul\":1839:1872   */\n      tag_320\n        /* \"#utility.yul\":1866:1871   */\n      dup2\n        /* \"#utility.yul\":1839:1872   */\n      tag_248\n      jump\t// in\n    tag_320:\n        /* \"#utility.yul\":1739:1878   */\n      swap3\n      swap2\n      pop\n      pop\n      jump\t// out\n        /* \"#utility.yul\":1884:2213   */\n    tag_34:\n        /* \"#utility.yul\":1943:1949   */\n      0x00\n        /* \"#utility.yul\":1992:1994   */\n      0x20\n        /* \"#utility.yul\":1980:1989   */\n      dup3\n        /* \"#utility.yul\":1971:1978   */\n      dup5\n        /* \"#utility.yul\":1967:1990   */\n      sub\n        /* \"#utility.yul\":1963:1995   */\n      slt\n        /* \"#utility.yul\":1960:2079   */\n      iszero\n      tag_322\n      jumpi\n        /* \"#utility.yul\":1998:2077   */\n      tag_323\n      tag_242\n      jump\t// in\n    tag_323:\n        /* \"#utility.yul\":1960:2079   */\n    tag_322:\n        /* \"#utility.yul\":2118:2119   */\n      0x00\n        /* \"#utility.yul\":2143:2196   */\n      tag_324\n        /* \"#utility.yul\":2188:2195   */\n      dup5\n        /* \"#utility.yul\":2179:2185   */\n      dup3\n        /* \"#utility.yul\":2168:2177   */\n      dup6\n        /* \"#utility.yul\":2164:2186   */\n      add\n        /* \"#utility.yul\":2143:2196   */\n      tag_249\n      jump\t// in\n    tag_324:\n        /* \"#utility.yul\":2133:2196   */\n      swap2\n      pop\n        /* \"#utility.yul\":2089:2206   */\n      pop\n        /* \"#utility.yul\":1884:2213   */\n      swap3\n      swap2\n      pop\n      pop\n      jump\t// out\n        /* \"#utility.yul\":2219:2333   */\n    tag_250:\n        /* \"#utility.yul\":2286:2292   */\n      0x00\n        /* \"#utility.yul\":2320:2325   */\n      dup2\n        /* \"#utility.yul\":2314:2326   */\n      mload\n        /* \"#utility.yul\":2304:2326   */\n      swap1\n      pop\n        /* \"#utility.yul\":2219:2333   */\n      swap2\n      swap1\n      pop\n      jump\t// out\n        /* \"#utility.yul\":2339:2523   */\n    tag_251:\n        /* \"#utility.yul\":2438:2449   */\n      0x00\n        /* \"#utility.yul\":2472:2478   */\n      dup3\n        /* \"#utility.yul\":2467:2470   */\n      dup3\n        /* \"#utility.yul\":2460:2479   */\n      mstore\n        /* \"#utility.yul\":2512:2516   */\n      0x20\n        /* \"#utility.yul\":2507:2510   */\n      dup3\n        /* \"#utility.yul\":2503:2517   */\n      add\n        /* \"#utility.yul\":2488:2517   */\n      swap1\n      pop\n        /* \"#utility.yul\":2339:2523   */\n      swap3\n      swap2\n      pop\n      pop\n      jump\t// out\n        /* \"#utility.yul\":2529:2661   */\n    tag_252:\n        /* \"#utility.yul\":2596:2600   */\n      0x00\n        /* \"#utility.yul\":2619:2622   */\n      dup2\n        /* \"#utility.yul\":2611:2622   */\n      swap1\n      pop\n        /* \"#utility.yul\":2649:2653   */\n      0x20\n        /* \"#utility.yul\":2644:2647   */\n      dup3\n        /* \"#utility.yul\":2640:2654   */\n      add\n        /* \"#utility.yul\":2632:2654   */\n      swap1\n      pop\n        /* \"#utility.yul\":2529:2661   */\n      swap2\n      swap1\n      pop\n      jump\t// out\n        /* \"#utility.yul\":2667:2775   */\n    tag_253:\n        /* \"#utility.yul\":2744:2768   */\n      tag_329\n        /* \"#utility.yul\":2762:2767   */\n      dup2\n        /* \"#utility.yul\":2744:2768   */\n      tag_245\n      jump\t// in\n    tag_329:\n        /* \"#utility.yul\":2739:2742   */\n      dup3\n        /* \"#utility.yul\":2732:2769   */\n      mstore\n        /* \"#utility.yul\":2667:2775   */\n      pop\n      pop\n      jump\t// out\n        /* \"#utility.yul\":2781:2960   */\n    tag_254:\n        /* \"#utility.yul\":2850:2860   */\n      0x00\n        /* \"#utility.yul\":2871:2917   */\n      tag_331\n        /* \"#utility.yul\":2913:2916   */\n      dup4\n        /* \"#utility.yul\":2905:2911   */\n      dup4\n        /* \"#utility.yul\":2871:2917   */\n      tag_253\n      jump\t// in\n    tag_331:\n        /* \"#utility.yul\":2949:2953   */\n      0x20\n        /* \"#utility.yul\":2944:2947   */\n      dup4\n        /* \"#utility.yul\":2940:2954   */\n      add\n        /* \"#utility.yul\":2926:2954   */\n      swap1\n      pop\n        /* \"#utility.yul\":2781:2960   */\n      swap3\n      swap2\n      pop\n      pop\n      jump\t// out\n        /* \"#utility.yul\":2966:3079   */\n    tag_255:\n        /* \"#utility.yul\":3036:3040   */\n      0x00\n        /* \"#utility.yul\":3068:3072   */\n      0x20\n        /* \"#utility.yul\":3063:3066   */\n      dup3\n        /* \"#utility.yul\":3059:3073   */\n      add\n        /* \"#utility.yul\":3051:3073   */\n      swap1\n      pop\n        /* \"#utility.yul\":2966:3079   */\n      swap2\n      swap1\n      pop\n      jump\t// out\n        /* \"#utility.yul\":3115:3847   */\n    tag_256:\n        /* \"#utility.yul\":3234:3237   */\n      0x00\n        /* \"#utility.yul\":3263:3317   */\n      tag_334\n        /* \"#utility.yul\":3311:3316   */\n      dup3\n        /* \"#utility.yul\":3263:3317   */\n      tag_250\n      jump\t// in\n    tag_334:\n        /* \"#utility.yul\":3333:3419   */\n      tag_335\n        /* \"#utility.yul\":3412:3418   */\n      dup2\n        /* \"#utility.yul\":3407:3410   */\n      dup6\n        /* \"#utility.yul\":3333:3419   */\n      tag_251\n      jump\t// in\n    tag_335:\n        /* \"#utility.yul\":3326:3419   */\n      swap4\n      pop\n        /* \"#utility.yul\":3443:3499   */\n      tag_336\n        /* \"#utility.yul\":3493:3498   */\n      dup4\n        /* \"#utility.yul\":3443:3499   */\n      tag_252\n      jump\t// in\n    tag_336:\n        /* \"#utility.yul\":3522:3529   */\n      dup1\n        /* \"#utility.yul\":3553:3554   */\n      0x00\n        /* \"#utility.yul\":3538:3822   */\n    tag_337:\n        /* \"#utility.yul\":3563:3569   */\n      dup4\n        /* \"#utility.yul\":3560:3561   */\n      dup2\n        /* \"#utility.yul\":3557:3570   */\n      lt\n        /* \"#utility.yul\":3538:3822   */\n      iszero\n      tag_339\n      jumpi\n        /* \"#utility.yul\":3639:3645   */\n      dup2\n        /* \"#utility.yul\":3633:3646   */\n      mload\n        /* \"#utility.yul\":3666:3729   */\n      tag_340\n        /* \"#utility.yul\":3725:3728   */\n      dup9\n        /* \"#utility.yul\":3710:3723   */\n      dup3\n        /* \"#utility.yul\":3666:3729   */\n      tag_254\n      jump\t// in\n    tag_340:\n        /* \"#utility.yul\":3659:3729   */\n      swap8\n      pop\n        /* \"#utility.yul\":3752:3812   */\n      tag_341\n        /* \"#utility.yul\":3805:3811   */\n      dup4\n        /* \"#utility.yul\":3752:3812   */\n      tag_255\n      jump\t// in\n    tag_341:\n        /* \"#utility.yul\":3742:3812   */\n      swap3\n      pop\n        /* \"#utility.yul\":3598:3822   */\n      pop\n        /* \"#utility.yul\":3585:3586   */\n      0x01\n        /* \"#utility.yul\":3582:3583   */\n      dup2\n        /* \"#utility.yul\":3578:3587   */\n      add\n        /* \"#utility.yul\":3573:3587   */\n      swap1\n      pop\n        /* \"#utility.yul\":3538:3822   */\n      jump(tag_337)\n    tag_339:\n        /* \"#utility.yul\":3542:3556   */\n      pop\n        /* \"#utility.yul\":3838:3841   */\n      dup6\n        /* \"#utility.yul\":3831:3841   */\n      swap4\n      pop\n        /* \"#utility.yul\":3239:3847   */\n      pop\n      pop\n      pop\n        /* \"#utility.yul\":3115:3847   */\n      swap3\n      swap2\n      pop\n      pop\n      jump\t// out\n        /* \"#utility.yul\":3853:4226   */\n    tag_40:\n        /* \"#utility.yul\":3996:4000   */\n      0x00\n        /* \"#utility.yul\":4034:4036   */\n      0x20\n        /* \"#utility.yul\":4023:4032   */\n      dup3\n        /* \"#utility.yul\":4019:4037   */\n      add\n        /* \"#utility.yul\":4011:4037   */\n      swap1\n      pop\n        /* \"#utility.yul\":4083:4092   */\n      dup2\n        /* \"#utility.yul\":4077:4081   */\n      dup2\n        /* \"#utility.yul\":4073:4093   */\n      sub\n        /* \"#utility.yul\":4069:4070   */\n      0x00\n        /* \"#utility.yul\":4058:4067   */\n      dup4\n        /* \"#utility.yul\":4054:4071   */\n      add\n        /* \"#utility.yul\":4047:4094   */\n      mstore\n        /* \"#utility.yul\":4111:4219   */\n      tag_343\n        /* \"#utility.yul\":4214:4218   */\n      dup2\n        /* \"#utility.yul\":4205:4211   */\n      dup5\n        /* \"#utility.yul\":4111:4219   */\n      tag_256\n      jump\t// in\n    tag_343:\n        /* \"#utility.yul\":4103:4219   */\n      swap1\n      pop\n        /* \"#utility.yul\":3853:4226   */\n      swap3\n      swap2\n      pop\n      pop\n      jump\t// out\n        /* \"#utility.yul\":4232:4322   */\n    tag_257:\n        /* \"#utility.yul\":4266:4273   */\n      0x00\n        /* \"#utility.yul\":4309:4314   */\n      dup2\n        /* \"#utility.yul\":4302:4315   */\n      iszero\n        /* \"#utility.yul\":4295:4316   */\n      iszero\n        /* \"#utility.yul\":4284:4316   */\n      swap1\n      pop\n        /* \"#utility.yul\":4232:4322   */\n      swap2\n      swap1\n      pop\n      jump\t// out\n        /* \"#utility.yul\":4328:4437   */\n    tag_258:\n        /* \"#utility.yul\":4409:4430   */\n      tag_346\n        /* \"#utility.yul\":4424:4429   */\n      dup2\n        /* \"#utility.yul\":4409:4430   */\n      tag_257\n      jump\t// in\n    tag_346:\n        /* \"#utility.yul\":4404:4407   */\n      dup3\n        /* \"#utility.yul\":4397:4431   */\n      mstore\n        /* \"#utility.yul\":4328:4437   */\n      pop\n      pop\n      jump\t// out\n        /* \"#utility.yul\":4443:4653   */\n    tag_59:\n        /* \"#utility.yul\":4530:4534   */\n      0x00\n        /* \"#utility.yul\":4568:4570   */\n      0x20\n        /* \"#utility.yul\":4557:4566   */\n      dup3\n        /* \"#utility.yul\":4553:4571   */\n      add\n        /* \"#utility.yul\":4545:4571   */\n      swap1\n      pop\n        /* \"#utility.yul\":4581:4646   */\n      tag_348\n        /* \"#utility.yul\":4643:4644   */\n      0x00\n        /* \"#utility.yul\":4632:4641   */\n      dup4\n        /* \"#utility.yul\":4628:4645   */\n      add\n        /* \"#utility.yul\":4619:4625   */\n      dup5\n        /* \"#utility.yul\":4581:4646   */\n      tag_258\n      jump\t// in\n    tag_348:\n        /* \"#utility.yul\":4443:4653   */\n      swap3\n      swap2\n      pop\n      pop\n      jump\t// out\n        /* \"#utility.yul\":4659:4719   */\n    tag_259:\n        /* \"#utility.yul\":4687:4690   */\n      0x00\n        /* \"#utility.yul\":4708:4713   */\n      dup2\n        /* \"#utility.yul\":4701:4713   */\n      swap1\n      pop\n        /* \"#utility.yul\":4659:4719   */\n      swap2\n      swap1\n      pop\n      jump\t// out\n        /* \"#utility.yul\":4725:4867   */\n    tag_260:\n        /* \"#utility.yul\":4775:4784   */\n      0x00\n        /* \"#utility.yul\":4808:4861   */\n      tag_351\n        /* \"#utility.yul\":4826:4860   */\n      tag_352\n        /* \"#utility.yul\":4835:4859   */\n      tag_353\n        /* \"#utility.yul\":4853:4858   */\n      dup5\n        /* \"#utility.yul\":4835:4859   */\n      tag_244\n      jump\t// in\n    tag_353:\n        /* \"#utility.yul\":4826:4860   */\n      tag_259\n      jump\t// in\n    tag_352:\n        /* \"#utility.yul\":4808:4861   */\n      tag_244\n      jump\t// in\n    tag_351:\n        /* \"#utility.yul\":4795:4861   */\n      swap1\n      pop\n        /* \"#utility.yul\":4725:4867   */\n      swap2\n      swap1\n      pop\n      jump\t// out\n        /* \"#utility.yul\":4873:4999   */\n    tag_261:\n        /* \"#utility.yul\":4923:4932   */\n      0x00\n        /* \"#utility.yul\":4956:4993   */\n      tag_355\n        /* \"#utility.yul\":4987:4992   */\n      dup3\n        /* \"#utility.yul\":4956:4993   */\n      tag_260\n      jump\t// in\n    tag_355:\n        /* \"#utility.yul\":4943:4993   */\n      swap1\n      pop\n        /* \"#utility.yul\":4873:4999   */\n      swap2\n      swap1\n      pop\n      jump\t// out\n        /* \"#utility.yul\":5005:5144   */\n    tag_262:\n        /* \"#utility.yul\":5068:5077   */\n      0x00\n        /* \"#utility.yul\":5101:5138   */\n      tag_357\n        /* \"#utility.yul\":5132:5137   */\n      dup3\n        /* \"#utility.yul\":5101:5138   */\n      tag_261\n      jump\t// in\n    tag_357:\n        /* \"#utility.yul\":5088:5138   */\n      swap1\n      pop\n        /* \"#utility.yul\":5005:5144   */\n      swap2\n      swap1\n      pop\n      jump\t// out\n        /* \"#utility.yul\":5150:5307   */\n    tag_263:\n        /* \"#utility.yul\":5250:5300   */\n      tag_359\n        /* \"#utility.yul\":5294:5299   */\n      dup2\n        /* \"#utility.yul\":5250:5300   */\n      tag_262\n      jump\t// in\n    tag_359:\n        /* \"#utility.yul\":5245:5248   */\n      dup3\n        /* \"#utility.yul\":5238:5301   */\n      mstore\n        /* \"#utility.yul\":5150:5307   */\n      pop\n      pop\n      jump\t// out\n        /* \"#utility.yul\":5313:5561   */\n    tag_63:\n        /* \"#utility.yul\":5419:5423   */\n      0x00\n        /* \"#utility.yul\":5457:5459   */\n      0x20\n        /* \"#utility.yul\":5446:5455   */\n      dup3\n        /* \"#utility.yul\":5442:5460   */\n      add\n        /* \"#utility.yul\":5434:5460   */\n      swap1\n      pop\n        /* \"#utility.yul\":5470:5554   */\n      tag_361\n        /* \"#utility.yul\":5551:5552   */\n      0x00\n        /* \"#utility.yul\":5540:5549   */\n      dup4\n        /* \"#utility.yul\":5536:5553   */\n      add\n        /* \"#utility.yul\":5527:5533   */\n      dup5\n        /* \"#utility.yul\":5470:5554   */\n      tag_263\n      jump\t// in\n    tag_361:\n        /* \"#utility.yul\":5313:5561   */\n      swap3\n      swap2\n      pop\n      pop\n      jump\t// out\n        /* \"#utility.yul\":5567:5685   */\n    tag_264:\n        /* \"#utility.yul\":5654:5678   */\n      tag_363\n        /* \"#utility.yul\":5672:5677   */\n      dup2\n        /* \"#utility.yul\":5654:5678   */\n      tag_245\n      jump\t// in\n    tag_363:\n        /* \"#utility.yul\":5649:5652   */\n      dup3\n        /* \"#utility.yul\":5642:5679   */\n      mstore\n        /* \"#utility.yul\":5567:5685   */\n      pop\n      pop\n      jump\t// out\n        /* \"#utility.yul\":5691:6565   */\n    tag_71:\n        /* \"#utility.yul\":5946:5950   */\n      0x00\n        /* \"#utility.yul\":5984:5987   */\n      0xe0\n        /* \"#utility.yul\":5973:5982   */\n      dup3\n        /* \"#utility.yul\":5969:5988   */\n      add\n        /* \"#utility.yul\":5961:5988   */\n      swap1\n      pop\n        /* \"#utility.yul\":5998:6069   */\n      tag_365\n        /* \"#utility.yul\":6066:6067   */\n      0x00\n        /* \"#utility.yul\":6055:6064   */\n      dup4\n        /* \"#utility.yul\":6051:6068   */\n      add\n        /* \"#utility.yul\":6042:6048   */\n      dup11\n        /* \"#utility.yul\":5998:6069   */\n      tag_264\n      jump\t// in\n    tag_365:\n        /* \"#utility.yul\":6079:6151   */\n      tag_366\n        /* \"#utility.yul\":6147:6149   */\n      0x20\n        /* \"#utility.yul\":6136:6145   */\n      dup4\n        /* \"#utility.yul\":6132:6150   */\n      add\n        /* \"#utility.yul\":6123:6129   */\n      dup10\n        /* \"#utility.yul\":6079:6151   */\n      tag_240\n      jump\t// in\n    tag_366:\n        /* \"#utility.yul\":6161:6227   */\n      tag_367\n        /* \"#utility.yul\":6223:6225   */\n      0x40\n        /* \"#utility.yul\":6212:6221   */\n      dup4\n        /* \"#utility.yul\":6208:6226   */\n      add\n        /* \"#utility.yul\":6199:6205   */\n      dup9\n        /* \"#utility.yul\":6161:6227   */\n      tag_258\n      jump\t// in\n    tag_367:\n        /* \"#utility.yul\":6237:6309   */\n      tag_368\n        /* \"#utility.yul\":6305:6307   */\n      0x60\n        /* \"#utility.yul\":6294:6303   */\n      dup4\n        /* \"#utility.yul\":6290:6308   */\n      add\n        /* \"#utility.yul\":6281:6287   */\n      dup8\n        /* \"#utility.yul\":6237:6309   */\n      tag_240\n      jump\t// in\n    tag_368:\n        /* \"#utility.yul\":6319:6392   */\n      tag_369\n        /* \"#utility.yul\":6387:6390   */\n      0x80\n        /* \"#utility.yul\":6376:6385   */\n      dup4\n        /* \"#utility.yul\":6372:6391   */\n      add\n        /* \"#utility.yul\":6363:6369   */\n      dup7\n        /* \"#utility.yul\":6319:6392   */\n      tag_240\n      jump\t// in\n    tag_369:\n        /* \"#utility.yul\":6402:6475   */\n      tag_370\n        /* \"#utility.yul\":6470:6473   */\n      0xa0\n        /* \"#utility.yul\":6459:6468   */\n      dup4\n        /* \"#utility.yul\":6455:6474   */\n      add\n        /* \"#utility.yul\":6446:6452   */\n      dup6\n        /* \"#utility.yul\":6402:6475   */\n      tag_240\n      jump\t// in\n    tag_370:\n        /* \"#utility.yul\":6485:6558   */\n      tag_371\n        /* \"#utility.yul\":6553:6556   */\n      0xc0\n        /* \"#utility.yul\":6542:6551   */\n      dup4\n        /* \"#utility.yul\":6538:6557   */\n      add\n        /* \"#utility.yul\":6529:6535   */\n      dup5\n        /* \"#utility.yul\":6485:6558   */\n      tag_240\n      jump\t// in\n    tag_371:\n        /* \"#utility.yul\":5691:6565   */\n      swap9\n      swap8\n      pop\n      pop\n      pop\n      pop\n      pop\n      pop\n      pop\n      pop\n      jump\t// out\n        /* \"#utility.yul\":6571:7445   */\n    tag_78:\n        /* \"#utility.yul\":6826:6830   */\n      0x00\n        /* \"#utility.yul\":6864:6867   */\n      0xe0\n        /* \"#utility.yul\":6853:6862   */\n      dup3\n        /* \"#utility.yul\":6849:6868   */\n      add\n        /* \"#utility.yul\":6841:6868   */\n      swap1\n      pop\n        /* \"#utility.yul\":6878:6949   */\n      tag_373\n        /* \"#utility.yul\":6946:6947   */\n      0x00\n        /* \"#utility.yul\":6935:6944   */\n      dup4\n        /* \"#utility.yul\":6931:6948   */\n      add\n        /* \"#utility.yul\":6922:6928   */\n      dup11\n        /* \"#utility.yul\":6878:6949   */\n      tag_264\n      jump\t// in\n    tag_373:\n        /* \"#utility.yul\":6959:7031   */\n      tag_374\n        /* \"#utility.yul\":7027:7029   */\n      0x20\n        /* \"#utility.yul\":7016:7025   */\n      dup4\n        /* \"#utility.yul\":7012:7030   */\n      add\n        /* \"#utility.yul\":7003:7009   */\n      dup10\n        /* \"#utility.yul\":6959:7031   */\n      tag_240\n      jump\t// in\n    tag_374:\n        /* \"#utility.yul\":7041:7113   */\n      tag_375\n        /* \"#utility.yul\":7109:7111   */\n      0x40\n        /* \"#utility.yul\":7098:7107   */\n      dup4\n        /* \"#utility.yul\":7094:7112   */\n      add\n        /* \"#utility.yul\":7085:7091   */\n      dup9\n        /* \"#utility.yul\":7041:7113   */\n      tag_240\n      jump\t// in\n    tag_375:\n        /* \"#utility.yul\":7123:7195   */\n      tag_376\n        /* \"#utility.yul\":7191:7193   */\n      0x60\n        /* \"#utility.yul\":7180:7189   */\n      dup4\n        /* \"#utility.yul\":7176:7194   */\n      add\n        /* \"#utility.yul\":7167:7173   */\n      dup8\n        /* \"#utility.yul\":7123:7195   */\n      tag_240\n      jump\t// in\n    tag_376:\n        /* \"#utility.yul\":7205:7278   */\n      tag_377\n        /* \"#utility.yul\":7273:7276   */\n      0x80\n        /* \"#utility.yul\":7262:7271   */\n      dup4\n        /* \"#utility.yul\":7258:7277   */\n      add\n        /* \"#utility.yul\":7249:7255   */\n      dup7\n        /* \"#utility.yul\":7205:7278   */\n      tag_240\n      jump\t// in\n    tag_377:\n        /* \"#utility.yul\":7288:7355   */\n      tag_378\n        /* \"#utility.yul\":7350:7353   */\n      0xa0\n        /* \"#utility.yul\":7339:7348   */\n      dup4\n        /* \"#utility.yul\":7335:7354   */\n      add\n        /* \"#utility.yul\":7326:7332   */\n      dup6\n        /* \"#utility.yul\":7288:7355   */\n      tag_258\n      jump\t// in\n    tag_378:\n        /* \"#utility.yul\":7365:7438   */\n      tag_379\n        /* \"#utility.yul\":7433:7436   */\n      0xc0\n        /* \"#utility.yul\":7422:7431   */\n      dup4\n        /* \"#utility.yul\":7418:7437   */\n      add\n        /* \"#utility.yul\":7409:7415   */\n      dup5\n        /* \"#utility.yul\":7365:7438   */\n      tag_240\n      jump\t// in\n    tag_379:\n        /* \"#utility.yul\":6571:7445   */\n      swap9\n      swap8\n      pop\n      pop\n      pop\n      pop\n      pop\n      pop\n      pop\n      pop\n      jump\t// out\n        /* \"#utility.yul\":7451:8070   */\n    tag_81:\n        /* \"#utility.yul\":7528:7534   */\n      0x00\n        /* \"#utility.yul\":7536:7542   */\n      dup1\n        /* \"#utility.yul\":7544:7550   */\n      0x00\n        /* \"#utility.yul\":7593:7595   */\n      0x60\n        /* \"#utility.yul\":7581:7590   */\n      dup5\n        /* \"#utility.yul\":7572:7579   */\n      dup7\n        /* \"#utility.yul\":7568:7591   */\n      sub\n        /* \"#utility.yul\":7564:7596   */\n      slt\n        /* \"#utility.yul\":7561:7680   */\n      iszero\n      tag_381\n      jumpi\n        /* \"#utility.yul\":7599:7678   */\n      tag_382\n      tag_242\n      jump\t// in\n    tag_382:\n        /* \"#utility.yul\":7561:7680   */\n    tag_381:\n        /* \"#utility.yul\":7719:7720   */\n      0x00\n        /* \"#utility.yul\":7744:7797   */\n      tag_383\n        /* \"#utility.yul\":7789:7796   */\n      dup7\n        /* \"#utility.yul\":7780:7786   */\n      dup3\n        /* \"#utility.yul\":7769:7778   */\n      dup8\n        /* \"#utility.yul\":7765:7787   */\n      add\n        /* \"#utility.yul\":7744:7797   */\n      tag_247\n      jump\t// in\n    tag_383:\n        /* \"#utility.yul\":7734:7797   */\n      swap4\n      pop\n        /* \"#utility.yul\":7690:7807   */\n      pop\n        /* \"#utility.yul\":7846:7848   */\n      0x20\n        /* \"#utility.yul\":7872:7925   */\n      tag_384\n        /* \"#utility.yul\":7917:7924   */\n      dup7\n        /* \"#utility.yul\":7908:7914   */\n      dup3\n        /* \"#utility.yul\":7897:7906   */\n      dup8\n        /* \"#utility.yul\":7893:7915   */\n      add\n        /* \"#utility.yul\":7872:7925   */\n      tag_249\n      jump\t// in\n    tag_384:\n        /* \"#utility.yul\":7862:7925   */\n      swap3\n      pop\n        /* \"#utility.yul\":7817:7935   */\n      pop\n        /* \"#utility.yul\":7974:7976   */\n      0x40\n        /* \"#utility.yul\":8000:8053   */\n      tag_385\n        /* \"#utility.yul\":8045:8052   */\n      dup7\n        /* \"#utility.yul\":8036:8042   */\n      dup3\n        /* \"#utility.yul\":8025:8034   */\n      dup8\n        /* \"#utility.yul\":8021:8043   */\n      add\n        /* \"#utility.yul\":8000:8053   */\n      tag_249\n      jump\t// in\n    tag_385:\n        /* \"#utility.yul\":7990:8053   */\n      swap2\n      pop\n        /* \"#utility.yul\":7945:8063   */\n      pop\n        /* \"#utility.yul\":7451:8070   */\n      swap3\n      pop\n      swap3\n      pop\n      swap3\n      jump\t// out\n        /* \"#utility.yul\":8076:8298   */\n    tag_90:\n        /* \"#utility.yul\":8169:8173   */\n      0x00\n        /* \"#utility.yul\":8207:8209   */\n      0x20\n        /* \"#utility.yul\":8196:8205   */\n      dup3\n        /* \"#utility.yul\":8192:8210   */\n      add\n        /* \"#utility.yul\":8184:8210   */\n      swap1\n      pop\n        /* \"#utility.yul\":8220:8291   */\n      tag_387\n        /* \"#utility.yul\":8288:8289   */\n      0x00\n        /* \"#utility.yul\":8277:8286   */\n      dup4\n        /* \"#utility.yul\":8273:8290   */\n      add\n        /* \"#utility.yul\":8264:8270   */\n      dup5\n        /* \"#utility.yul\":8220:8291   */\n      tag_264\n      jump\t// in\n    tag_387:\n        /* \"#utility.yul\":8076:8298   */\n      swap3\n      swap2\n      pop\n      pop\n      jump\t// out\n        /* \"#utility.yul\":8304:8473   */\n    tag_265:\n        /* \"#utility.yul\":8388:8399   */\n      0x00\n        /* \"#utility.yul\":8422:8428   */\n      dup3\n        /* \"#utility.yul\":8417:8420   */\n      dup3\n        /* \"#utility.yul\":8410:8429   */\n      mstore\n        /* \"#utility.yul\":8462:8466   */\n      0x20\n        /* \"#utility.yul\":8457:8460   */\n      dup3\n        /* \"#utility.yul\":8453:8467   */\n      add\n        /* \"#utility.yul\":8438:8467   */\n      swap1\n      pop\n        /* \"#utility.yul\":8304:8473   */\n      swap3\n      swap2\n      pop\n      pop\n      jump\t// out\n        /* \"#utility.yul\":8479:8778   */\n    tag_266:\n        /* \"#utility.yul\":8619:8653   */\n      0x436f6e7472616374206973207061757365642062792061646d696e20736f2075\n        /* \"#utility.yul\":8615:8616   */\n      0x00\n        /* \"#utility.yul\":8607:8613   */\n      dup3\n        /* \"#utility.yul\":8603:8617   */\n      add\n        /* \"#utility.yul\":8596:8654   */\n      mstore\n        /* \"#utility.yul\":8688:8722   */\n      0x2063616e206e6f7420706572666f726d20616e797468696e6720696e20746869\n        /* \"#utility.yul\":8683:8685   */\n      0x20\n        /* \"#utility.yul\":8675:8681   */\n      dup3\n        /* \"#utility.yul\":8671:8686   */\n      add\n        /* \"#utility.yul\":8664:8723   */\n      mstore\n        /* \"#utility.yul\":8757:8770   */\n      0x7320636f6e747261637421000000000000000000000000000000000000000000\n        /* \"#utility.yul\":8752:8754   */\n      0x40\n        /* \"#utility.yul\":8744:8750   */\n      dup3\n        /* \"#utility.yul\":8740:8755   */\n      add\n        /* \"#utility.yul\":8733:8771   */\n      mstore\n        /* \"#utility.yul\":8479:8778   */\n      pop\n      jump\t// out\n        /* \"#utility.yul\":8784:9150   */\n    tag_267:\n        /* \"#utility.yul\":8926:8929   */\n      0x00\n        /* \"#utility.yul\":8947:9014   */\n      tag_391\n        /* \"#utility.yul\":9011:9013   */\n      0x4b\n        /* \"#utility.yul\":9006:9009   */\n      dup4\n        /* \"#utility.yul\":8947:9014   */\n      tag_265\n      jump\t// in\n    tag_391:\n        /* \"#utility.yul\":8940:9014   */\n      swap2\n      pop\n        /* \"#utility.yul\":9023:9116   */\n      tag_392\n        /* \"#utility.yul\":9112:9115   */\n      dup3\n        /* \"#utility.yul\":9023:9116   */\n      tag_266\n      jump\t// in\n    tag_392:\n        /* \"#utility.yul\":9141:9143   */\n      0x60\n        /* \"#utility.yul\":9136:9139   */\n      dup3\n        /* \"#utility.yul\":9132:9144   */\n      add\n        /* \"#utility.yul\":9125:9144   */\n      swap1\n      pop\n        /* \"#utility.yul\":8784:9150   */\n      swap2\n      swap1\n      pop\n      jump\t// out\n        /* \"#utility.yul\":9156:9575   */\n    tag_94:\n        /* \"#utility.yul\":9322:9326   */\n      0x00\n        /* \"#utility.yul\":9360:9362   */\n      0x20\n        /* \"#utility.yul\":9349:9358   */\n      dup3\n        /* \"#utility.yul\":9345:9363   */\n      add\n        /* \"#utility.yul\":9337:9363   */\n      swap1\n      pop\n        /* \"#utility.yul\":9409:9418   */\n      dup2\n        /* \"#utility.yul\":9403:9407   */\n      dup2\n        /* \"#utility.yul\":9399:9419   */\n      sub\n        /* \"#utility.yul\":9395:9396   */\n      0x00\n        /* \"#utility.yul\":9384:9393   */\n      dup4\n        /* \"#utility.yul\":9380:9397   */\n      add\n        /* \"#utility.yul\":9373:9420   */\n      mstore\n        /* \"#utility.yul\":9437:9568   */\n      tag_394\n        /* \"#utility.yul\":9563:9567   */\n      dup2\n        /* \"#utility.yul\":9437:9568   */\n      tag_267\n      jump\t// in\n    tag_394:\n        /* \"#utility.yul\":9429:9568   */\n      swap1\n      pop\n        /* \"#utility.yul\":9156:9575   */\n      swap2\n      swap1\n      pop\n      jump\t// out\n        /* \"#utility.yul\":9581:9755   */\n    tag_268:\n        /* \"#utility.yul\":9721:9747   */\n      0x496e76616c696420726566657272657220616464726573730000000000000000\n        /* \"#utility.yul\":9717:9718   */\n      0x00\n        /* \"#utility.yul\":9709:9715   */\n      dup3\n        /* \"#utility.yul\":9705:9719   */\n      add\n        /* \"#utility.yul\":9698:9748   */\n      mstore\n        /* \"#utility.yul\":9581:9755   */\n      pop\n      jump\t// out\n        /* \"#utility.yul\":9761:10127   */\n    tag_269:\n        /* \"#utility.yul\":9903:9906   */\n      0x00\n        /* \"#utility.yul\":9924:9991   */\n      tag_397\n        /* \"#utility.yul\":9988:9990   */\n      0x18\n        /* \"#utility.yul\":9983:9986   */\n      dup4\n        /* \"#utility.yul\":9924:9991   */\n      tag_265\n      jump\t// in\n    tag_397:\n        /* \"#utility.yul\":9917:9991   */\n      swap2\n      pop\n        /* \"#utility.yul\":10000:10093   */\n      tag_398\n        /* \"#utility.yul\":10089:10092   */\n      dup3\n        /* \"#utility.yul\":10000:10093   */\n      tag_268\n      jump\t// in\n    tag_398:\n        /* \"#utility.yul\":10118:10120   */\n      0x20\n        /* \"#utility.yul\":10113:10116   */\n      dup3\n        /* \"#utility.yul\":10109:10121   */\n      add\n        /* \"#utility.yul\":10102:10121   */\n      swap1\n      pop\n        /* \"#utility.yul\":9761:10127   */\n      swap2\n      swap1\n      pop\n      jump\t// out\n        /* \"#utility.yul\":10133:10552   */\n    tag_101:\n        /* \"#utility.yul\":10299:10303   */\n      0x00\n        /* \"#utility.yul\":10337:10339   */\n      0x20\n        /* \"#utility.yul\":10326:10335   */\n      dup3\n        /* \"#utility.yul\":10322:10340   */\n      add\n        /* \"#utility.yul\":10314:10340   */\n      swap1\n      pop\n        /* \"#utility.yul\":10386:10395   */\n      dup2\n        /* \"#utility.yul\":10380:10384   */\n      dup2\n        /* \"#utility.yul\":10376:10396   */\n      sub\n        /* \"#utility.yul\":10372:10373   */\n      0x00\n        /* \"#utility.yul\":10361:10370   */\n      dup4\n        /* \"#utility.yul\":10357:10374   */\n      add\n        /* \"#utility.yul\":10350:10397   */\n      mstore\n        /* \"#utility.yul\":10414:10545   */\n      tag_400\n        /* \"#utility.yul\":10540:10544   */\n      dup2\n        /* \"#utility.yul\":10414:10545   */\n      tag_269\n      jump\t// in\n    tag_400:\n        /* \"#utility.yul\":10406:10545   */\n      swap1\n      pop\n        /* \"#utility.yul\":10133:10552   */\n      swap2\n      swap1\n      pop\n      jump\t// out\n        /* \"#utility.yul\":10558:10785   */\n    tag_270:\n        /* \"#utility.yul\":10698:10732   */\n      0x5468697320726566657272616c206163636f756e74206973206e6f7420726567\n        /* \"#utility.yul\":10694:10695   */\n      0x00\n        /* \"#utility.yul\":10686:10692   */\n      dup3\n        /* \"#utility.yul\":10682:10696   */\n      add\n        /* \"#utility.yul\":10675:10733   */\n      mstore\n        /* \"#utility.yul\":10767:10777   */\n      0x6973746572656421000000000000000000000000000000000000000000000000\n        /* \"#utility.yul\":10762:10764   */\n      0x20\n        /* \"#utility.yul\":10754:10760   */\n      dup3\n        /* \"#utility.yul\":10750:10765   */\n      add\n        /* \"#utility.yul\":10743:10778   */\n      mstore\n        /* \"#utility.yul\":10558:10785   */\n      pop\n      jump\t// out\n        /* \"#utility.yul\":10791:11157   */\n    tag_271:\n        /* \"#utility.yul\":10933:10936   */\n      0x00\n        /* \"#utility.yul\":10954:11021   */\n      tag_403\n        /* \"#utility.yul\":11018:11020   */\n      0x28\n        /* \"#utility.yul\":11013:11016   */\n      dup4\n        /* \"#utility.yul\":10954:11021   */\n      tag_265\n      jump\t// in\n    tag_403:\n        /* \"#utility.yul\":10947:11021   */\n      swap2\n      pop\n        /* \"#utility.yul\":11030:11123   */\n      tag_404\n        /* \"#utility.yul\":11119:11122   */\n      dup3\n        /* \"#utility.yul\":11030:11123   */\n      tag_270\n      jump\t// in\n    tag_404:\n        /* \"#utility.yul\":11148:11150   */\n      0x40\n        /* \"#utility.yul\":11143:11146   */\n      dup3\n        /* \"#utility.yul\":11139:11151   */\n      add\n        /* \"#utility.yul\":11132:11151   */\n      swap1\n      pop\n        /* \"#utility.yul\":10791:11157   */\n      swap2\n      swap1\n      pop\n      jump\t// out\n        /* \"#utility.yul\":11163:11582   */\n    tag_104:\n        /* \"#utility.yul\":11329:11333   */\n      0x00\n        /* \"#utility.yul\":11367:11369   */\n      0x20\n        /* \"#utility.yul\":11356:11365   */\n      dup3\n        /* \"#utility.yul\":11352:11370   */\n      add\n        /* \"#utility.yul\":11344:11370   */\n      swap1\n      pop\n        /* \"#utility.yul\":11416:11425   */\n      dup2\n        /* \"#utility.yul\":11410:11414   */\n      dup2\n        /* \"#utility.yul\":11406:11426   */\n      sub\n        /* \"#utility.yul\":11402:11403   */\n      0x00\n        /* \"#utility.yul\":11391:11400   */\n      dup4\n        /* \"#utility.yul\":11387:11404   */\n      add\n        /* \"#utility.yul\":11380:11427   */\n      mstore\n        /* \"#utility.yul\":11444:11575   */\n      tag_406\n        /* \"#utility.yul\":11570:11574   */\n      dup2\n        /* \"#utility.yul\":11444:11575   */\n      tag_271\n      jump\t// in\n    tag_406:\n        /* \"#utility.yul\":11436:11575   */\n      swap1\n      pop\n        /* \"#utility.yul\":11163:11582   */\n      swap2\n      swap1\n      pop\n      jump\t// out\n        /* \"#utility.yul\":11588:11759   */\n    tag_272:\n        /* \"#utility.yul\":11728:11751   */\n      0x43616e6e6f7420726566657220796f757273656c660000000000000000000000\n        /* \"#utility.yul\":11724:11725   */\n      0x00\n        /* \"#utility.yul\":11716:11722   */\n      dup3\n        /* \"#utility.yul\":11712:11726   */\n      add\n        /* \"#utility.yul\":11705:11752   */\n      mstore\n        /* \"#utility.yul\":11588:11759   */\n      pop\n      jump\t// out\n        /* \"#utility.yul\":11765:12131   */\n    tag_273:\n        /* \"#utility.yul\":11907:11910   */\n      0x00\n        /* \"#utility.yul\":11928:11995   */\n      tag_409\n        /* \"#utility.yul\":11992:11994   */\n      0x15\n        /* \"#utility.yul\":11987:11990   */\n      dup4\n        /* \"#utility.yul\":11928:11995   */\n      tag_265\n      jump\t// in\n    tag_409:\n        /* \"#utility.yul\":11921:11995   */\n      swap2\n      pop\n        /* \"#utility.yul\":12004:12097   */\n      tag_410\n        /* \"#utility.yul\":12093:12096   */\n      dup3\n        /* \"#utility.yul\":12004:12097   */\n      tag_272\n      jump\t// in\n    tag_410:\n        /* \"#utility.yul\":12122:12124   */\n      0x20\n        /* \"#utility.yul\":12117:12120   */\n      dup3\n        /* \"#utility.yul\":12113:12125   */\n      add\n        /* \"#utility.yul\":12106:12125   */\n      swap1\n      pop\n        /* \"#utility.yul\":11765:12131   */\n      swap2\n      swap1\n      pop\n      jump\t// out\n        /* \"#utility.yul\":12137:12556   */\n    tag_107:\n        /* \"#utility.yul\":12303:12307   */\n      0x00\n        /* \"#utility.yul\":12341:12343   */\n      0x20\n        /* \"#utility.yul\":12330:12339   */\n      dup3\n        /* \"#utility.yul\":12326:12344   */\n      add\n        /* \"#utility.yul\":12318:12344   */\n      swap1\n      pop\n        /* \"#utility.yul\":12390:12399   */\n      dup2\n        /* \"#utility.yul\":12384:12388   */\n      dup2\n        /* \"#utility.yul\":12380:12400   */\n      sub\n        /* \"#utility.yul\":12376:12377   */\n      0x00\n        /* \"#utility.yul\":12365:12374   */\n      dup4\n        /* \"#utility.yul\":12361:12378   */\n      add\n        /* \"#utility.yul\":12354:12401   */\n      mstore\n        /* \"#utility.yul\":12418:12549   */\n      tag_412\n        /* \"#utility.yul\":12544:12548   */\n      dup2\n        /* \"#utility.yul\":12418:12549   */\n      tag_273\n      jump\t// in\n    tag_412:\n        /* \"#utility.yul\":12410:12549   */\n      swap1\n      pop\n        /* \"#utility.yul\":12137:12556   */\n      swap2\n      swap1\n      pop\n      jump\t// out\n        /* \"#utility.yul\":12562:12784   */\n    tag_274:\n        /* \"#utility.yul\":12702:12736   */\n      0x54686973206163636f756e7420697320616c7265616479207265676973746572\n        /* \"#utility.yul\":12698:12699   */\n      0x00\n        /* \"#utility.yul\":12690:12696   */\n      dup3\n        /* \"#utility.yul\":12686:12700   */\n      add\n        /* \"#utility.yul\":12679:12737   */\n      mstore\n        /* \"#utility.yul\":12771:12776   */\n      0x6564210000000000000000000000000000000000000000000000000000000000\n        /* \"#utility.yul\":12766:12768   */\n      0x20\n        /* \"#utility.yul\":12758:12764   */\n      dup3\n        /* \"#utility.yul\":12754:12769   */\n      add\n        /* \"#utility.yul\":12747:12777   */\n      mstore\n        /* \"#utility.yul\":12562:12784   */\n      pop\n      jump\t// out\n        /* \"#utility.yul\":12790:13156   */\n    tag_275:\n        /* \"#utility.yul\":12932:12935   */\n      0x00\n        /* \"#utility.yul\":12953:13020   */\n      tag_415\n        /* \"#utility.yul\":13017:13019   */\n      0x23\n        /* \"#utility.yul\":13012:13015   */\n      dup4\n        /* \"#utility.yul\":12953:13020   */\n      tag_265\n      jump\t// in\n    tag_415:\n        /* \"#utility.yul\":12946:13020   */\n      swap2\n      pop\n        /* \"#utility.yul\":13029:13122   */\n      tag_416\n        /* \"#utility.yul\":13118:13121   */\n      dup3\n        /* \"#utility.yul\":13029:13122   */\n      tag_274\n      jump\t// in\n    tag_416:\n        /* \"#utility.yul\":13147:13149   */\n      0x40\n        /* \"#utility.yul\":13142:13145   */\n      dup3\n        /* \"#utility.yul\":13138:13150   */\n      add\n        /* \"#utility.yul\":13131:13150   */\n      swap1\n      pop\n        /* \"#utility.yul\":12790:13156   */\n      swap2\n      swap1\n      pop\n      jump\t// out\n        /* \"#utility.yul\":13162:13581   */\n    tag_110:\n        /* \"#utility.yul\":13328:13332   */\n      0x00\n        /* \"#utility.yul\":13366:13368   */\n      0x20\n        /* \"#utility.yul\":13355:13364   */\n      dup3\n        /* \"#utility.yul\":13351:13369   */\n      add\n        /* \"#utility.yul\":13343:13369   */\n      swap1\n      pop\n        /* \"#utility.yul\":13415:13424   */\n      dup2\n        /* \"#utility.yul\":13409:13413   */\n      dup2\n        /* \"#utility.yul\":13405:13425   */\n      sub\n        /* \"#utility.yul\":13401:13402   */\n      0x00\n        /* \"#utility.yul\":13390:13399   */\n      dup4\n        /* \"#utility.yul\":13386:13403   */\n      add\n        /* \"#utility.yul\":13379:13426   */\n      mstore\n        /* \"#utility.yul\":13443:13574   */\n      tag_418\n        /* \"#utility.yul\":13569:13573   */\n      dup2\n        /* \"#utility.yul\":13443:13574   */\n      tag_275\n      jump\t// in\n    tag_418:\n        /* \"#utility.yul\":13435:13574   */\n      swap1\n      pop\n        /* \"#utility.yul\":13162:13581   */\n      swap2\n      swap1\n      pop\n      jump\t// out\n        /* \"#utility.yul\":13587:14029   */\n    tag_112:\n        /* \"#utility.yul\":13736:13740   */\n      0x00\n        /* \"#utility.yul\":13774:13776   */\n      0x60\n        /* \"#utility.yul\":13763:13772   */\n      dup3\n        /* \"#utility.yul\":13759:13777   */\n      add\n        /* \"#utility.yul\":13751:13777   */\n      swap1\n      pop\n        /* \"#utility.yul\":13787:13858   */\n      tag_420\n        /* \"#utility.yul\":13855:13856   */\n      0x00\n        /* \"#utility.yul\":13844:13853   */\n      dup4\n        /* \"#utility.yul\":13840:13857   */\n      add\n        /* \"#utility.yul\":13831:13837   */\n      dup7\n        /* \"#utility.yul\":13787:13858   */\n      tag_264\n      jump\t// in\n    tag_420:\n        /* \"#utility.yul\":13868:13940   */\n      tag_421\n        /* \"#utility.yul\":13936:13938   */\n      0x20\n        /* \"#utility.yul\":13925:13934   */\n      dup4\n        /* \"#utility.yul\":13921:13939   */\n      add\n        /* \"#utility.yul\":13912:13918   */\n      dup6\n        /* \"#utility.yul\":13868:13940   */\n      tag_264\n      jump\t// in\n    tag_421:\n        /* \"#utility.yul\":13950:14022   */\n      tag_422\n        /* \"#utility.yul\":14018:14020   */\n      0x40\n        /* \"#utility.yul\":14007:14016   */\n      dup4\n        /* \"#utility.yul\":14003:14021   */\n      add\n        /* \"#utility.yul\":13994:14000   */\n      dup5\n        /* \"#utility.yul\":13950:14022   */\n      tag_240\n      jump\t// in\n    tag_422:\n        /* \"#utility.yul\":13587:14029   */\n      swap5\n      swap4\n      pop\n      pop\n      pop\n      pop\n      jump\t// out\n        /* \"#utility.yul\":14035:14151   */\n    tag_276:\n        /* \"#utility.yul\":14105:14126   */\n      tag_424\n        /* \"#utility.yul\":14120:14125   */\n      dup2\n        /* \"#utility.yul\":14105:14126   */\n      tag_257\n      jump\t// in\n    tag_424:\n        /* \"#utility.yul\":14098:14103   */\n      dup2\n        /* \"#utility.yul\":14095:14127   */\n      eq\n        /* \"#utility.yul\":14085:14145   */\n      tag_425\n      jumpi\n        /* \"#utility.yul\":14141:14142   */\n      0x00\n        /* \"#utility.yul\":14138:14139   */\n      dup1\n        /* \"#utility.yul\":14131:14143   */\n      revert\n        /* \"#utility.yul\":14085:14145   */\n    tag_425:\n        /* \"#utility.yul\":14035:14151   */\n      pop\n      jump\t// out\n        /* \"#utility.yul\":14157:14294   */\n    tag_277:\n        /* \"#utility.yul\":14211:14216   */\n      0x00\n        /* \"#utility.yul\":14242:14248   */\n      dup2\n        /* \"#utility.yul\":14236:14249   */\n      mload\n        /* \"#utility.yul\":14227:14249   */\n      swap1\n      pop\n        /* \"#utility.yul\":14258:14288   */\n      tag_427\n        /* \"#utility.yul\":14282:14287   */\n      dup2\n        /* \"#utility.yul\":14258:14288   */\n      tag_276\n      jump\t// in\n    tag_427:\n        /* \"#utility.yul\":14157:14294   */\n      swap3\n      swap2\n      pop\n      pop\n      jump\t// out\n        /* \"#utility.yul\":14300:14645   */\n    tag_116:\n        /* \"#utility.yul\":14367:14373   */\n      0x00\n        /* \"#utility.yul\":14416:14418   */\n      0x20\n        /* \"#utility.yul\":14404:14413   */\n      dup3\n        /* \"#utility.yul\":14395:14402   */\n      dup5\n        /* \"#utility.yul\":14391:14414   */\n      sub\n        /* \"#utility.yul\":14387:14419   */\n      slt\n        /* \"#utility.yul\":14384:14503   */\n      iszero\n      tag_429\n      jumpi\n        /* \"#utility.yul\":14422:14501   */\n      tag_430\n      tag_242\n      jump\t// in\n    tag_430:\n        /* \"#utility.yul\":14384:14503   */\n    tag_429:\n        /* \"#utility.yul\":14542:14543   */\n      0x00\n        /* \"#utility.yul\":14567:14628   */\n      tag_431\n        /* \"#utility.yul\":14620:14627   */\n      dup5\n        /* \"#utility.yul\":14611:14617   */\n      dup3\n        /* \"#utility.yul\":14600:14609   */\n      dup6\n        /* \"#utility.yul\":14596:14618   */\n      add\n        /* \"#utility.yul\":14567:14628   */\n      tag_277\n      jump\t// in\n    tag_431:\n        /* \"#utility.yul\":14557:14628   */\n      swap2\n      pop\n        /* \"#utility.yul\":14513:14638   */\n      pop\n        /* \"#utility.yul\":14300:14645   */\n      swap3\n      swap2\n      pop\n      pop\n      jump\t// out\n        /* \"#utility.yul\":14651:14816   */\n    tag_278:\n        /* \"#utility.yul\":14791:14808   */\n      0x7472616e73666572206661696c65640000000000000000000000000000000000\n        /* \"#utility.yul\":14787:14788   */\n      0x00\n        /* \"#utility.yul\":14779:14785   */\n      dup3\n        /* \"#utility.yul\":14775:14789   */\n      add\n        /* \"#utility.yul\":14768:14809   */\n      mstore\n        /* \"#utility.yul\":14651:14816   */\n      pop\n      jump\t// out\n        /* \"#utility.yul\":14822:15188   */\n    tag_279:\n        /* \"#utility.yul\":14964:14967   */\n      0x00\n        /* \"#utility.yul\":14985:15052   */\n      tag_434\n        /* \"#utility.yul\":15049:15051   */\n      0x0f\n        /* \"#utility.yul\":15044:15047   */\n      dup4\n        /* \"#utility.yul\":14985:15052   */\n      tag_265\n      jump\t// in\n    tag_434:\n        /* \"#utility.yul\":14978:15052   */\n      swap2\n      pop\n        /* \"#utility.yul\":15061:15154   */\n      tag_435\n        /* \"#utility.yul\":15150:15153   */\n      dup3\n        /* \"#utility.yul\":15061:15154   */\n      tag_278\n      jump\t// in\n    tag_435:\n        /* \"#utility.yul\":15179:15181   */\n      0x20\n        /* \"#utility.yul\":15174:15177   */\n      dup3\n        /* \"#utility.yul\":15170:15182   */\n      add\n        /* \"#utility.yul\":15163:15182   */\n      swap1\n      pop\n        /* \"#utility.yul\":14822:15188   */\n      swap2\n      swap1\n      pop\n      jump\t// out\n        /* \"#utility.yul\":15194:15613   */\n    tag_119:\n        /* \"#utility.yul\":15360:15364   */\n      0x00\n        /* \"#utility.yul\":15398:15400   */\n      0x20\n        /* \"#utility.yul\":15387:15396   */\n      dup3\n        /* \"#utility.yul\":15383:15401   */\n      add\n        /* \"#utility.yul\":15375:15401   */\n      swap1\n      pop\n        /* \"#utility.yul\":15447:15456   */\n      dup2\n        /* \"#utility.yul\":15441:15445   */\n      dup2\n        /* \"#utility.yul\":15437:15457   */\n      sub\n        /* \"#utility.yul\":15433:15434   */\n      0x00\n        /* \"#utility.yul\":15422:15431   */\n      dup4\n        /* \"#utility.yul\":15418:15435   */\n      add\n        /* \"#utility.yul\":15411:15458   */\n      mstore\n        /* \"#utility.yul\":15475:15606   */\n      tag_437\n        /* \"#utility.yul\":15601:15605   */\n      dup2\n        /* \"#utility.yul\":15475:15606   */\n      tag_279\n      jump\t// in\n    tag_437:\n        /* \"#utility.yul\":15467:15606   */\n      swap1\n      pop\n        /* \"#utility.yul\":15194:15613   */\n      swap2\n      swap1\n      pop\n      jump\t// out\n        /* \"#utility.yul\":15619:15856   */\n    tag_280:\n        /* \"#utility.yul\":15759:15793   */\n      0x5468697320616374696f6e2063616e20626520706572666f726d656420627920\n        /* \"#utility.yul\":15755:15756   */\n      0x00\n        /* \"#utility.yul\":15747:15753   */\n      dup3\n        /* \"#utility.yul\":15743:15757   */\n      add\n        /* \"#utility.yul\":15736:15794   */\n      mstore\n        /* \"#utility.yul\":15828:15848   */\n      0x74686520636f6e7472616374206f776e65720000000000000000000000000000\n        /* \"#utility.yul\":15823:15825   */\n      0x20\n        /* \"#utility.yul\":15815:15821   */\n      dup3\n        /* \"#utility.yul\":15811:15826   */\n      add\n        /* \"#utility.yul\":15804:15849   */\n      mstore\n        /* \"#utility.yul\":15619:15856   */\n      pop\n      jump\t// out\n        /* \"#utility.yul\":15862:16228   */\n    tag_281:\n        /* \"#utility.yul\":16004:16007   */\n      0x00\n        /* \"#utility.yul\":16025:16092   */\n      tag_440\n        /* \"#utility.yul\":16089:16091   */\n      0x32\n        /* \"#utility.yul\":16084:16087   */\n      dup4\n        /* \"#utility.yul\":16025:16092   */\n      tag_265\n      jump\t// in\n    tag_440:\n        /* \"#utility.yul\":16018:16092   */\n      swap2\n      pop\n        /* \"#utility.yul\":16101:16194   */\n      tag_441\n        /* \"#utility.yul\":16190:16193   */\n      dup3\n        /* \"#utility.yul\":16101:16194   */\n      tag_280\n      jump\t// in\n    tag_441:\n        /* \"#utility.yul\":16219:16221   */\n      0x40\n        /* \"#utility.yul\":16214:16217   */\n      dup3\n        /* \"#utility.yul\":16210:16222   */\n      add\n        /* \"#utility.yul\":16203:16222   */\n      swap1\n      pop\n        /* \"#utility.yul\":15862:16228   */\n      swap2\n      swap1\n      pop\n      jump\t// out\n        /* \"#utility.yul\":16234:16653   */\n    tag_130:\n        /* \"#utility.yul\":16400:16404   */\n      0x00\n        /* \"#utility.yul\":16438:16440   */\n      0x20\n        /* \"#utility.yul\":16427:16436   */\n      dup3\n        /* \"#utility.yul\":16423:16441   */\n      add\n        /* \"#utility.yul\":16415:16441   */\n      swap1\n      pop\n        /* \"#utility.yul\":16487:16496   */\n      dup2\n        /* \"#utility.yul\":16481:16485   */\n      dup2\n        /* \"#utility.yul\":16477:16497   */\n      sub\n        /* \"#utility.yul\":16473:16474   */\n      0x00\n        /* \"#utility.yul\":16462:16471   */\n      dup4\n        /* \"#utility.yul\":16458:16475   */\n      add\n        /* \"#utility.yul\":16451:16498   */\n      mstore\n        /* \"#utility.yul\":16515:16646   */\n      tag_443\n        /* \"#utility.yul\":16641:16645   */\n      dup2\n        /* \"#utility.yul\":16515:16646   */\n      tag_281\n      jump\t// in\n    tag_443:\n        /* \"#utility.yul\":16507:16646   */\n      swap1\n      pop\n        /* \"#utility.yul\":16234:16653   */\n      swap2\n      swap1\n      pop\n      jump\t// out\n        /* \"#utility.yul\":16659:16991   */\n    tag_133:\n        /* \"#utility.yul\":16780:16784   */\n      0x00\n        /* \"#utility.yul\":16818:16820   */\n      0x40\n        /* \"#utility.yul\":16807:16816   */\n      dup3\n        /* \"#utility.yul\":16803:16821   */\n      add\n        /* \"#utility.yul\":16795:16821   */\n      swap1\n      pop\n        /* \"#utility.yul\":16831:16902   */\n      tag_445\n        /* \"#utility.yul\":16899:16900   */\n      0x00\n        /* \"#utility.yul\":16888:16897   */\n      dup4\n        /* \"#utility.yul\":16884:16901   */\n      add\n        /* \"#utility.yul\":16875:16881   */\n      dup6\n        /* \"#utility.yul\":16831:16902   */\n      tag_264\n      jump\t// in\n    tag_445:\n        /* \"#utility.yul\":16912:16984   */\n      tag_446\n        /* \"#utility.yul\":16980:16982   */\n      0x20\n        /* \"#utility.yul\":16969:16978   */\n      dup4\n        /* \"#utility.yul\":16965:16983   */\n      add\n        /* \"#utility.yul\":16956:16962   */\n      dup5\n        /* \"#utility.yul\":16912:16984   */\n      tag_240\n      jump\t// in\n    tag_446:\n        /* \"#utility.yul\":16659:16991   */\n      swap4\n      swap3\n      pop\n      pop\n      pop\n      jump\t// out\n        /* \"#utility.yul\":16997:17165   */\n    tag_282:\n        /* \"#utility.yul\":17137:17157   */\n      0x696e76616c69642070657263656e746167650000000000000000000000000000\n        /* \"#utility.yul\":17133:17134   */\n      0x00\n        /* \"#utility.yul\":17125:17131   */\n      dup3\n        /* \"#utility.yul\":17121:17135   */\n      add\n        /* \"#utility.yul\":17114:17158   */\n      mstore\n        /* \"#utility.yul\":16997:17165   */\n      pop\n      jump\t// out\n        /* \"#utility.yul\":17171:17537   */\n    tag_283:\n        /* \"#utility.yul\":17313:17316   */\n      0x00\n        /* \"#utility.yul\":17334:17401   */\n      tag_449\n        /* \"#utility.yul\":17398:17400   */\n      0x12\n        /* \"#utility.yul\":17393:17396   */\n      dup4\n        /* \"#utility.yul\":17334:17401   */\n      tag_265\n      jump\t// in\n    tag_449:\n        /* \"#utility.yul\":17327:17401   */\n      swap2\n      pop\n        /* \"#utility.yul\":17410:17503   */\n      tag_450\n        /* \"#utility.yul\":17499:17502   */\n      dup3\n        /* \"#utility.yul\":17410:17503   */\n      tag_282\n      jump\t// in\n    tag_450:\n        /* \"#utility.yul\":17528:17530   */\n      0x20\n        /* \"#utility.yul\":17523:17526   */\n      dup3\n        /* \"#utility.yul\":17519:17531   */\n      add\n        /* \"#utility.yul\":17512:17531   */\n      swap1\n      pop\n        /* \"#utility.yul\":17171:17537   */\n      swap2\n      swap1\n      pop\n      jump\t// out\n        /* \"#utility.yul\":17543:17962   */\n    tag_148:\n        /* \"#utility.yul\":17709:17713   */\n      0x00\n        /* \"#utility.yul\":17747:17749   */\n      0x20\n        /* \"#utility.yul\":17736:17745   */\n      dup3\n        /* \"#utility.yul\":17732:17750   */\n      add\n        /* \"#utility.yul\":17724:17750   */\n      swap1\n      pop\n        /* \"#utility.yul\":17796:17805   */\n      dup2\n        /* \"#utility.yul\":17790:17794   */\n      dup2\n        /* \"#utility.yul\":17786:17806   */\n      sub\n        /* \"#utility.yul\":17782:17783   */\n      0x00\n        /* \"#utility.yul\":17771:17780   */\n      dup4\n        /* \"#utility.yul\":17767:17784   */\n      add\n        /* \"#utility.yul\":17760:17807   */\n      mstore\n        /* \"#utility.yul\":17824:17955   */\n      tag_452\n        /* \"#utility.yul\":17950:17954   */\n      dup2\n        /* \"#utility.yul\":17824:17955   */\n      tag_283\n      jump\t// in\n    tag_452:\n        /* \"#utility.yul\":17816:17955   */\n      swap1\n      pop\n        /* \"#utility.yul\":17543:17962   */\n      swap2\n      swap1\n      pop\n      jump\t// out\n        /* \"#utility.yul\":17968:18148   */\n    tag_284:\n        /* \"#utility.yul\":18016:18093   */\n      0x4e487b7100000000000000000000000000000000000000000000000000000000\n        /* \"#utility.yul\":18013:18014   */\n      0x00\n        /* \"#utility.yul\":18006:18094   */\n      mstore\n        /* \"#utility.yul\":18113:18117   */\n      0x11\n        /* \"#utility.yul\":18110:18111   */\n      0x04\n        /* \"#utility.yul\":18103:18118   */\n      mstore\n        /* \"#utility.yul\":18137:18141   */\n      0x24\n        /* \"#utility.yul\":18134:18135   */\n      0x00\n        /* \"#utility.yul\":18127:18142   */\n      revert\n        /* \"#utility.yul\":18154:18564   */\n    tag_150:\n        /* \"#utility.yul\":18194:18201   */\n      0x00\n        /* \"#utility.yul\":18217:18237   */\n      tag_455\n        /* \"#utility.yul\":18235:18236   */\n      dup3\n        /* \"#utility.yul\":18217:18237   */\n      tag_239\n      jump\t// in\n    tag_455:\n        /* \"#utility.yul\":18212:18237   */\n      swap2\n      pop\n        /* \"#utility.yul\":18251:18271   */\n      tag_456\n        /* \"#utility.yul\":18269:18270   */\n      dup4\n        /* \"#utility.yul\":18251:18271   */\n      tag_239\n      jump\t// in\n    tag_456:\n        /* \"#utility.yul\":18246:18271   */\n      swap3\n      pop\n        /* \"#utility.yul\":18306:18307   */\n      dup3\n        /* \"#utility.yul\":18303:18304   */\n      dup3\n        /* \"#utility.yul\":18299:18308   */\n      mul\n        /* \"#utility.yul\":18328:18358   */\n      tag_457\n        /* \"#utility.yul\":18346:18357   */\n      dup2\n        /* \"#utility.yul\":18328:18358   */\n      tag_239\n      jump\t// in\n    tag_457:\n        /* \"#utility.yul\":18317:18358   */\n      swap2\n      pop\n        /* \"#utility.yul\":18507:18508   */\n      dup3\n        /* \"#utility.yul\":18498:18505   */\n      dup3\n        /* \"#utility.yul\":18494:18509   */\n      div\n        /* \"#utility.yul\":18491:18492   */\n      dup5\n        /* \"#utility.yul\":18488:18510   */\n      eq\n        /* \"#utility.yul\":18468:18469   */\n      dup4\n        /* \"#utility.yul\":18461:18470   */\n      iszero\n        /* \"#utility.yul\":18441:18524   */\n      or\n        /* \"#utility.yul\":18418:18557   */\n      tag_458\n      jumpi\n        /* \"#utility.yul\":18537:18555   */\n      tag_459\n      tag_284\n      jump\t// in\n    tag_459:\n        /* \"#utility.yul\":18418:18557   */\n    tag_458:\n        /* \"#utility.yul\":18202:18564   */\n      pop\n        /* \"#utility.yul\":18154:18564   */\n      swap3\n      swap2\n      pop\n      pop\n      jump\t// out\n        /* \"#utility.yul\":18570:18735   */\n    tag_285:\n        /* \"#utility.yul\":18710:18727   */\n      0x696e76616c6964206e6577206273740000000000000000000000000000000000\n        /* \"#utility.yul\":18706:18707   */\n      0x00\n        /* \"#utility.yul\":18698:18704   */\n      dup3\n        /* \"#utility.yul\":18694:18708   */\n      add\n        /* \"#utility.yul\":18687:18728   */\n      mstore\n        /* \"#utility.yul\":18570:18735   */\n      pop\n      jump\t// out\n        /* \"#utility.yul\":18741:19107   */\n    tag_286:\n        /* \"#utility.yul\":18883:18886   */\n      0x00\n        /* \"#utility.yul\":18904:18971   */\n      tag_462\n        /* \"#utility.yul\":18968:18970   */\n      0x0f\n        /* \"#utility.yul\":18963:18966   */\n      dup4\n        /* \"#utility.yul\":18904:18971   */\n      tag_265\n      jump\t// in\n    tag_462:\n        /* \"#utility.yul\":18897:18971   */\n      swap2\n      pop\n        /* \"#utility.yul\":18980:19073   */\n      tag_463\n        /* \"#utility.yul\":19069:19072   */\n      dup3\n        /* \"#utility.yul\":18980:19073   */\n      tag_285\n      jump\t// in\n    tag_463:\n        /* \"#utility.yul\":19098:19100   */\n      0x20\n        /* \"#utility.yul\":19093:19096   */\n      dup3\n        /* \"#utility.yul\":19089:19101   */\n      add\n        /* \"#utility.yul\":19082:19101   */\n      swap1\n      pop\n        /* \"#utility.yul\":18741:19107   */\n      swap2\n      swap1\n      pop\n      jump\t// out\n        /* \"#utility.yul\":19113:19532   */\n    tag_163:\n        /* \"#utility.yul\":19279:19283   */\n      0x00\n        /* \"#utility.yul\":19317:19319   */\n      0x20\n        /* \"#utility.yul\":19306:19315   */\n      dup3\n        /* \"#utility.yul\":19302:19320   */\n      add\n        /* \"#utility.yul\":19294:19320   */\n      swap1\n      pop\n        /* \"#utility.yul\":19366:19375   */\n      dup2\n        /* \"#utility.yul\":19360:19364   */\n      dup2\n        /* \"#utility.yul\":19356:19376   */\n      sub\n        /* \"#utility.yul\":19352:19353   */\n      0x00\n        /* \"#utility.yul\":19341:19350   */\n      dup4\n        /* \"#utility.yul\":19337:19354   */\n      add\n        /* \"#utility.yul\":19330:19377   */\n      mstore\n        /* \"#utility.yul\":19394:19525   */\n      tag_465\n        /* \"#utility.yul\":19520:19524   */\n      dup2\n        /* \"#utility.yul\":19394:19525   */\n      tag_286\n      jump\t// in\n    tag_465:\n        /* \"#utility.yul\":19386:19525   */\n      swap1\n      pop\n        /* \"#utility.yul\":19113:19532   */\n      swap2\n      swap1\n      pop\n      jump\t// out\n        /* \"#utility.yul\":19538:19681   */\n    tag_287:\n        /* \"#utility.yul\":19595:19600   */\n      0x00\n        /* \"#utility.yul\":19626:19632   */\n      dup2\n        /* \"#utility.yul\":19620:19633   */\n      mload\n        /* \"#utility.yul\":19611:19633   */\n      swap1\n      pop\n        /* \"#utility.yul\":19642:19675   */\n      tag_467\n        /* \"#utility.yul\":19669:19674   */\n      dup2\n        /* \"#utility.yul\":19642:19675   */\n      tag_248\n      jump\t// in\n    tag_467:\n        /* \"#utility.yul\":19538:19681   */\n      swap3\n      swap2\n      pop\n      pop\n      jump\t// out\n        /* \"#utility.yul\":19687:20038   */\n    tag_169:\n        /* \"#utility.yul\":19757:19763   */\n      0x00\n        /* \"#utility.yul\":19806:19808   */\n      0x20\n        /* \"#utility.yul\":19794:19803   */\n      dup3\n        /* \"#utility.yul\":19785:19792   */\n      dup5\n        /* \"#utility.yul\":19781:19804   */\n      sub\n        /* \"#utility.yul\":19777:19809   */\n      slt\n        /* \"#utility.yul\":19774:19893   */\n      iszero\n      tag_469\n      jumpi\n        /* \"#utility.yul\":19812:19891   */\n      tag_470\n      tag_242\n      jump\t// in\n    tag_470:\n        /* \"#utility.yul\":19774:19893   */\n    tag_469:\n        /* \"#utility.yul\":19932:19933   */\n      0x00\n        /* \"#utility.yul\":19957:20021   */\n      tag_471\n        /* \"#utility.yul\":20013:20020   */\n      dup5\n        /* \"#utility.yul\":20004:20010   */\n      dup3\n        /* \"#utility.yul\":19993:20002   */\n      dup6\n        /* \"#utility.yul\":19989:20011   */\n      add\n        /* \"#utility.yul\":19957:20021   */\n      tag_287\n      jump\t// in\n    tag_471:\n        /* \"#utility.yul\":19947:20021   */\n      swap2\n      pop\n        /* \"#utility.yul\":19903:20031   */\n      pop\n        /* \"#utility.yul\":19687:20038   */\n      swap3\n      swap2\n      pop\n      pop\n      jump\t// out\n        /* \"#utility.yul\":20044:20235   */\n    tag_177:\n        /* \"#utility.yul\":20084:20087   */\n      0x00\n        /* \"#utility.yul\":20103:20123   */\n      tag_473\n        /* \"#utility.yul\":20121:20122   */\n      dup3\n        /* \"#utility.yul\":20103:20123   */\n      tag_239\n      jump\t// in\n    tag_473:\n        /* \"#utility.yul\":20098:20123   */\n      swap2\n      pop\n        /* \"#utility.yul\":20137:20157   */\n      tag_474\n        /* \"#utility.yul\":20155:20156   */\n      dup4\n        /* \"#utility.yul\":20137:20157   */\n      tag_239\n      jump\t// in\n    tag_474:\n        /* \"#utility.yul\":20132:20157   */\n      swap3\n      pop\n        /* \"#utility.yul\":20180:20181   */\n      dup3\n        /* \"#utility.yul\":20177:20178   */\n      dup3\n        /* \"#utility.yul\":20173:20182   */\n      add\n        /* \"#utility.yul\":20166:20182   */\n      swap1\n      pop\n        /* \"#utility.yul\":20201:20204   */\n      dup1\n        /* \"#utility.yul\":20198:20199   */\n      dup3\n        /* \"#utility.yul\":20195:20205   */\n      gt\n        /* \"#utility.yul\":20192:20228   */\n      iszero\n      tag_475\n      jumpi\n        /* \"#utility.yul\":20208:20226   */\n      tag_476\n      tag_284\n      jump\t// in\n    tag_476:\n        /* \"#utility.yul\":20192:20228   */\n    tag_475:\n        /* \"#utility.yul\":20044:20235   */\n      swap3\n      swap2\n      pop\n      pop\n      jump\t// out\n        /* \"#utility.yul\":20241:20435   */\n    tag_180:\n        /* \"#utility.yul\":20281:20285   */\n      0x00\n        /* \"#utility.yul\":20301:20321   */\n      tag_478\n        /* \"#utility.yul\":20319:20320   */\n      dup3\n        /* \"#utility.yul\":20301:20321   */\n      tag_239\n      jump\t// in\n    tag_478:\n        /* \"#utility.yul\":20296:20321   */\n      swap2\n      pop\n        /* \"#utility.yul\":20335:20355   */\n      tag_479\n        /* \"#utility.yul\":20353:20354   */\n      dup4\n        /* \"#utility.yul\":20335:20355   */\n      tag_239\n      jump\t// in\n    tag_479:\n        /* \"#utility.yul\":20330:20355   */\n      swap3\n      pop\n        /* \"#utility.yul\":20379:20380   */\n      dup3\n        /* \"#utility.yul\":20376:20377   */\n      dup3\n        /* \"#utility.yul\":20372:20381   */\n      sub\n        /* \"#utility.yul\":20364:20381   */\n      swap1\n      pop\n        /* \"#utility.yul\":20403:20404   */\n      dup2\n        /* \"#utility.yul\":20397:20401   */\n      dup2\n        /* \"#utility.yul\":20394:20405   */\n      gt\n        /* \"#utility.yul\":20391:20428   */\n      iszero\n      tag_480\n      jumpi\n        /* \"#utility.yul\":20408:20426   */\n      tag_481\n      tag_284\n      jump\t// in\n    tag_481:\n        /* \"#utility.yul\":20391:20428   */\n    tag_480:\n        /* \"#utility.yul\":20241:20435   */\n      swap3\n      swap2\n      pop\n      pop\n      jump\t// out\n        /* \"#utility.yul\":20441:20621   */\n    tag_183:\n        /* \"#utility.yul\":20489:20566   */\n      0x4e487b7100000000000000000000000000000000000000000000000000000000\n        /* \"#utility.yul\":20486:20487   */\n      0x00\n        /* \"#utility.yul\":20479:20567   */\n      mstore\n        /* \"#utility.yul\":20586:20590   */\n      0x41\n        /* \"#utility.yul\":20583:20584   */\n      0x04\n        /* \"#utility.yul\":20576:20591   */\n      mstore\n        /* \"#utility.yul\":20610:20614   */\n      0x24\n        /* \"#utility.yul\":20607:20608   */\n      0x00\n        /* \"#utility.yul\":20600:20615   */\n      revert\n        /* \"#utility.yul\":20627:20807   */\n    tag_190:\n        /* \"#utility.yul\":20675:20752   */\n      0x4e487b7100000000000000000000000000000000000000000000000000000000\n        /* \"#utility.yul\":20672:20673   */\n      0x00\n        /* \"#utility.yul\":20665:20753   */\n      mstore\n        /* \"#utility.yul\":20772:20776   */\n      0x32\n        /* \"#utility.yul\":20769:20770   */\n      0x04\n        /* \"#utility.yul\":20762:20777   */\n      mstore\n        /* \"#utility.yul\":20796:20800   */\n      0x24\n        /* \"#utility.yul\":20793:20794   */\n      0x00\n        /* \"#utility.yul\":20786:20801   */\n      revert\n        /* \"#utility.yul\":20813:20980   */\n    tag_288:\n        /* \"#utility.yul\":20953:20972   */\n      0x496e76616c6964206e6577206f776e6572000000000000000000000000000000\n        /* \"#utility.yul\":20949:20950   */\n      0x00\n        /* \"#utility.yul\":20941:20947   */\n      dup3\n        /* \"#utility.yul\":20937:20951   */\n      add\n        /* \"#utility.yul\":20930:20973   */\n      mstore\n        /* \"#utility.yul\":20813:20980   */\n      pop\n      jump\t// out\n        /* \"#utility.yul\":20986:21352   */\n    tag_289:\n        /* \"#utility.yul\":21128:21131   */\n      0x00\n        /* \"#utility.yul\":21149:21216   */\n      tag_486\n        /* \"#utility.yul\":21213:21215   */\n      0x11\n        /* \"#utility.yul\":21208:21211   */\n      dup4\n        /* \"#utility.yul\":21149:21216   */\n      tag_265\n      jump\t// in\n    tag_486:\n        /* \"#utility.yul\":21142:21216   */\n      swap2\n      pop\n        /* \"#utility.yul\":21225:21318   */\n      tag_487\n        /* \"#utility.yul\":21314:21317   */\n      dup3\n        /* \"#utility.yul\":21225:21318   */\n      tag_288\n      jump\t// in\n    tag_487:\n        /* \"#utility.yul\":21343:21345   */\n      0x20\n        /* \"#utility.yul\":21338:21341   */\n      dup3\n        /* \"#utility.yul\":21334:21346   */\n      add\n        /* \"#utility.yul\":21327:21346   */\n      swap1\n      pop\n        /* \"#utility.yul\":20986:21352   */\n      swap2\n      swap1\n      pop\n      jump\t// out\n        /* \"#utility.yul\":21358:21777   */\n    tag_201:\n        /* \"#utility.yul\":21524:21528   */\n      0x00\n        /* \"#utility.yul\":21562:21564   */\n      0x20\n        /* \"#utility.yul\":21551:21560   */\n      dup3\n        /* \"#utility.yul\":21547:21565   */\n      add\n        /* \"#utility.yul\":21539:21565   */\n      swap1\n      pop\n        /* \"#utility.yul\":21611:21620   */\n      dup2\n        /* \"#utility.yul\":21605:21609   */\n      dup2\n        /* \"#utility.yul\":21601:21621   */\n      sub\n        /* \"#utility.yul\":21597:21598   */\n      0x00\n        /* \"#utility.yul\":21586:21595   */\n      dup4\n        /* \"#utility.yul\":21582:21599   */\n      add\n        /* \"#utility.yul\":21575:21622   */\n      mstore\n        /* \"#utility.yul\":21639:21770   */\n      tag_489\n        /* \"#utility.yul\":21765:21769   */\n      dup2\n        /* \"#utility.yul\":21639:21770   */\n      tag_289\n      jump\t// in\n    tag_489:\n        /* \"#utility.yul\":21631:21770   */\n      swap1\n      pop\n        /* \"#utility.yul\":21358:21777   */\n      swap2\n      swap1\n      pop\n      jump\t// out\n        /* \"#utility.yul\":21783:21964   */\n    tag_290:\n        /* \"#utility.yul\":21923:21956   */\n      0x5265656e7472616e637947756172643a207265656e7472616e742063616c6c00\n        /* \"#utility.yul\":21919:21920   */\n      0x00\n        /* \"#utility.yul\":21911:21917   */\n      dup3\n        /* \"#utility.yul\":21907:21921   */\n      add\n        /* \"#utility.yul\":21900:21957   */\n      mstore\n        /* \"#utility.yul\":21783:21964   */\n      pop\n      jump\t// out\n        /* \"#utility.yul\":21970:22336   */\n    tag_291:\n        /* \"#utility.yul\":22112:22115   */\n      0x00\n        /* \"#utility.yul\":22133:22200   */\n      tag_492\n        /* \"#utility.yul\":22197:22199   */\n      0x1f\n        /* \"#utility.yul\":22192:22195   */\n      dup4\n        /* \"#utility.yul\":22133:22200   */\n      tag_265\n      jump\t// in\n    tag_492:\n        /* \"#utility.yul\":22126:22200   */\n      swap2\n      pop\n        /* \"#utility.yul\":22209:22302   */\n      tag_493\n        /* \"#utility.yul\":22298:22301   */\n      dup3\n        /* \"#utility.yul\":22209:22302   */\n      tag_290\n      jump\t// in\n    tag_493:\n        /* \"#utility.yul\":22327:22329   */\n      0x20\n        /* \"#utility.yul\":22322:22325   */\n      dup3\n        /* \"#utility.yul\":22318:22330   */\n      add\n        /* \"#utility.yul\":22311:22330   */\n      swap1\n      pop\n        /* \"#utility.yul\":21970:22336   */\n      swap2\n      swap1\n      pop\n      jump\t// out\n        /* \"#utility.yul\":22342:22761   */\n    tag_205:\n        /* \"#utility.yul\":22508:22512   */\n      0x00\n        /* \"#utility.yul\":22546:22548   */\n      0x20\n        /* \"#utility.yul\":22535:22544   */\n      dup3\n        /* \"#utility.yul\":22531:22549   */\n      add\n        /* \"#utility.yul\":22523:22549   */\n      swap1\n      pop\n        /* \"#utility.yul\":22595:22604   */\n      dup2\n        /* \"#utility.yul\":22589:22593   */\n      dup2\n        /* \"#utility.yul\":22585:22605   */\n      sub\n        /* \"#utility.yul\":22581:22582   */\n      0x00\n        /* \"#utility.yul\":22570:22579   */\n      dup4\n        /* \"#utility.yul\":22566:22583   */\n      add\n        /* \"#utility.yul\":22559:22606   */\n      mstore\n        /* \"#utility.yul\":22623:22754   */\n      tag_495\n        /* \"#utility.yul\":22749:22753   */\n      dup2\n        /* \"#utility.yul\":22623:22754   */\n      tag_291\n      jump\t// in\n    tag_495:\n        /* \"#utility.yul\":22615:22754   */\n      swap1\n      pop\n        /* \"#utility.yul\":22342:22761   */\n      swap2\n      swap1\n      pop\n      jump\t// out\n        /* \"#utility.yul\":22767:22947   */\n    tag_292:\n        /* \"#utility.yul\":22815:22892   */\n      0x4e487b7100000000000000000000000000000000000000000000000000000000\n        /* \"#utility.yul\":22812:22813   */\n      0x00\n        /* \"#utility.yul\":22805:22893   */\n      mstore\n        /* \"#utility.yul\":22912:22916   */\n      0x12\n        /* \"#utility.yul\":22909:22910   */\n      0x04\n        /* \"#utility.yul\":22902:22917   */\n      mstore\n        /* \"#utility.yul\":22936:22940   */\n      0x24\n        /* \"#utility.yul\":22933:22934   */\n      0x00\n        /* \"#utility.yul\":22926:22941   */\n      revert\n        /* \"#utility.yul\":22953:23138   */\n    tag_217:\n        /* \"#utility.yul\":22993:22994   */\n      0x00\n        /* \"#utility.yul\":23010:23030   */\n      tag_498\n        /* \"#utility.yul\":23028:23029   */\n      dup3\n        /* \"#utility.yul\":23010:23030   */\n      tag_239\n      jump\t// in\n    tag_498:\n        /* \"#utility.yul\":23005:23030   */\n      swap2\n      pop\n        /* \"#utility.yul\":23044:23064   */\n      tag_499\n        /* \"#utility.yul\":23062:23063   */\n      dup4\n        /* \"#utility.yul\":23044:23064   */\n      tag_239\n      jump\t// in\n    tag_499:\n        /* \"#utility.yul\":23039:23064   */\n      swap3\n      pop\n        /* \"#utility.yul\":23083:23084   */\n      dup3\n        /* \"#utility.yul\":23073:23108   */\n      tag_500\n      jumpi\n        /* \"#utility.yul\":23088:23106   */\n      tag_501\n      tag_292\n      jump\t// in\n    tag_501:\n        /* \"#utility.yul\":23073:23108   */\n    tag_500:\n        /* \"#utility.yul\":23130:23131   */\n      dup3\n        /* \"#utility.yul\":23127:23128   */\n      dup3\n        /* \"#utility.yul\":23123:23132   */\n      div\n        /* \"#utility.yul\":23118:23132   */\n      swap1\n      pop\n        /* \"#utility.yul\":22953:23138   */\n      swap3\n      swap2\n      pop\n      pop\n      jump\t// out\n        /* \"#utility.yul\":23144:23316   */\n    tag_293:\n        /* \"#utility.yul\":23284:23308   */\n      0x526577617264207472616e73666572206661696c656400000000000000000000\n        /* \"#utility.yul\":23280:23281   */\n      0x00\n        /* \"#utility.yul\":23272:23278   */\n      dup3\n        /* \"#utility.yul\":23268:23282   */\n      add\n        /* \"#utility.yul\":23261:23309   */\n      mstore\n        /* \"#utility.yul\":23144:23316   */\n      pop\n      jump\t// out\n        /* \"#utility.yul\":23322:23688   */\n    tag_294:\n        /* \"#utility.yul\":23464:23467   */\n      0x00\n        /* \"#utility.yul\":23485:23552   */\n      tag_504\n        /* \"#utility.yul\":23549:23551   */\n      0x16\n        /* \"#utility.yul\":23544:23547   */\n      dup4\n        /* \"#utility.yul\":23485:23552   */\n      tag_265\n      jump\t// in\n    tag_504:\n        /* \"#utility.yul\":23478:23552   */\n      swap2\n      pop\n        /* \"#utility.yul\":23561:23654   */\n      tag_505\n        /* \"#utility.yul\":23650:23653   */\n      dup3\n        /* \"#utility.yul\":23561:23654   */\n      tag_293\n      jump\t// in\n    tag_505:\n        /* \"#utility.yul\":23679:23681   */\n      0x20\n        /* \"#utility.yul\":23674:23677   */\n      dup3\n        /* \"#utility.yul\":23670:23682   */\n      add\n        /* \"#utility.yul\":23663:23682   */\n      swap1\n      pop\n        /* \"#utility.yul\":23322:23688   */\n      swap2\n      swap1\n      pop\n      jump\t// out\n        /* \"#utility.yul\":23694:24113   */\n    tag_224:\n        /* \"#utility.yul\":23860:23864   */\n      0x00\n        /* \"#utility.yul\":23898:23900   */\n      0x20\n        /* \"#utility.yul\":23887:23896   */\n      dup3\n        /* \"#utility.yul\":23883:23901   */\n      add\n        /* \"#utility.yul\":23875:23901   */\n      swap1\n      pop\n        /* \"#utility.yul\":23947:23956   */\n      dup2\n        /* \"#utility.yul\":23941:23945   */\n      dup2\n        /* \"#utility.yul\":23937:23957   */\n      sub\n        /* \"#utility.yul\":23933:23934   */\n      0x00\n        /* \"#utility.yul\":23922:23931   */\n      dup4\n        /* \"#utility.yul\":23918:23935   */\n      add\n        /* \"#utility.yul\":23911:23958   */\n      mstore\n        /* \"#utility.yul\":23975:24106   */\n      tag_507\n        /* \"#utility.yul\":24101:24105   */\n      dup2\n        /* \"#utility.yul\":23975:24106   */\n      tag_294\n      jump\t// in\n    tag_507:\n        /* \"#utility.yul\":23967:24106   */\n      swap1\n      pop\n        /* \"#utility.yul\":23694:24113   */\n      swap2\n      swap1\n      pop\n      jump\t// out\n        /* \"#utility.yul\":24119:24451   */\n    tag_227:\n        /* \"#utility.yul\":24240:24244   */\n      0x00\n        /* \"#utility.yul\":24278:24280   */\n      0x40\n        /* \"#utility.yul\":24267:24276   */\n      dup3\n        /* \"#utility.yul\":24263:24281   */\n      add\n        /* \"#utility.yul\":24255:24281   */\n      swap1\n      pop\n        /* \"#utility.yul\":24291:24362   */\n      tag_509\n        /* \"#utility.yul\":24359:24360   */\n      0x00\n        /* \"#utility.yul\":24348:24357   */\n      dup4\n        /* \"#utility.yul\":24344:24361   */\n      add\n        /* \"#utility.yul\":24335:24341   */\n      dup6\n        /* \"#utility.yul\":24291:24362   */\n      tag_240\n      jump\t// in\n    tag_509:\n        /* \"#utility.yul\":24372:24444   */\n      tag_510\n        /* \"#utility.yul\":24440:24442   */\n      0x20\n        /* \"#utility.yul\":24429:24438   */\n      dup4\n        /* \"#utility.yul\":24425:24443   */\n      add\n        /* \"#utility.yul\":24416:24422   */\n      dup5\n        /* \"#utility.yul\":24372:24444   */\n      tag_240\n      jump\t// in\n    tag_510:\n        /* \"#utility.yul\":24119:24451   */\n      swap4\n      swap3\n      pop\n      pop\n      pop\n      jump\t// out\n        /* \"#utility.yul\":24457:24690   */\n    tag_232:\n        /* \"#utility.yul\":24496:24499   */\n      0x00\n        /* \"#utility.yul\":24519:24543   */\n      tag_512\n        /* \"#utility.yul\":24537:24542   */\n      dup3\n        /* \"#utility.yul\":24519:24543   */\n      tag_239\n      jump\t// in\n    tag_512:\n        /* \"#utility.yul\":24510:24543   */\n      swap2\n      pop\n        /* \"#utility.yul\":24565:24631   */\n      0xffffffffffffffffffffffffffffffffffffffffffffffffffffffffffffffff\n        /* \"#utility.yul\":24558:24563   */\n      dup3\n        /* \"#utility.yul\":24555:24632   */\n      sub\n        /* \"#utility.yul\":24552:24655   */\n      tag_513\n      jumpi\n        /* \"#utility.yul\":24635:24653   */\n      tag_514\n      tag_284\n      jump\t// in\n    tag_514:\n        /* \"#utility.yul\":24552:24655   */\n    tag_513:\n        /* \"#utility.yul\":24682:24683   */\n      0x01\n        /* \"#utility.yul\":24675:24680   */\n      dup3\n        /* \"#utility.yul\":24671:24684   */\n      add\n        /* \"#utility.yul\":24664:24684   */\n      swap1\n      pop\n        /* \"#utility.yul\":24457:24690   */\n      swap2\n      swap1\n      pop\n      jump\t// out\n\n    auxdata: 0xa2646970667358221220dd8adcfd0e21a596964bc25ae742e2117ef960b95e565f7436949da693f4be3064736f6c634300081a0033\n}\n",
				"bytecode": {
					"linkReferences": {},
					"object": "6080604052678ac7230489e800006003556040518060a00160405280602860ff168152602001601460ff168152602001600f60ff168152602001600a60ff168152602001600560ff16815250600490600561005b92919061011b565b50600560095534801561006c575f80fd5b5060405161272b38038061272b833981810160405281019061008e91906101d9565b60015f819055508060015f6101000a81548173ffffffffffffffffffffffffffffffffffffffff021916908373ffffffffffffffffffffffffffffffffffffffff1602179055503360025f6101000a81548173ffffffffffffffffffffffffffffffffffffffff021916908373ffffffffffffffffffffffffffffffffffffffff16021790555050610204565b826005810192821561014f579160200282015b8281111561014e578251829060ff1690559160200191906001019061012e565b5b50905061015c9190610160565b5090565b5b80821115610177575f815f905550600101610161565b5090565b5f80fd5b5f73ffffffffffffffffffffffffffffffffffffffff82169050919050565b5f6101a88261017f565b9050919050565b6101b88161019e565b81146101c2575f80fd5b50565b5f815190506101d3816101af565b92915050565b5f602082840312156101ee576101ed61017b565b5b5f6101fb848285016101c5565b91505092915050565b61251a806102115f395ff3fe608060405234801561000f575f80fd5b5060043610610114575f3560e01c80638456cb59116100a0578063b0b62f5a1161006f578063b0b62f5a146102be578063cc3d967b146102c8578063d9c842fd146102fe578063f2fde38b1461032e578063f851a4401461034a57610114565b80638456cb591461022e5780638c546f811461024c5780639e9aed621461026a578063a87430ba1461028857610114565b806350050769116100e7578063500507691461019e5780635c975abb146101ba5780635dc68b0a146101c457806364b4f751146101f45780636691461a1461021257610114565b806304189250146101185780630840605a146101365780632e1a7d4d146101525780634f4042431461016e575b5f80fd5b610120610368565b60405161012d9190611886565b60405180910390f35b610150600480360381019061014b91906118fd565b61036e565b005b61016c60048036038101906101679190611952565b6107ba565b005b610188600480360381019061018391906118fd565b610989565b6040516101959190611a34565b60405180910390f35b6101b860048036038101906101b39190611952565b610a54565b005b6101c2610b43565b005b6101de60048036038101906101d99190611952565b610bef565b6040516101eb9190611886565b60405180910390f35b6101fc610c08565b6040516102099190611886565b60405180910390f35b61022c600480360381019061022791906118fd565b610c0e565b005b610236610d4e565b6040516102439190611a6e565b60405180910390f35b610254610d61565b6040516102619190611ae2565b60405180910390f35b610272610d86565b60405161027f9190611886565b60405180910390f35b6102a2600480360381019061029d91906118fd565b610e25565b6040516102b59796959493929190611b0a565b60405180910390f35b6102c6610e8e565b005b6102e260048036038101906102dd91906118fd565b610f39565b6040516102f59796959493929190611b77565b60405180910390f35b61031860048036038101906103139190611be4565b610fe7565b6040516103259190611a34565b60405180910390f35b610348600480360381019061034391906118fd565b611161565b005b610352611321565b60405161035f9190611c34565b60405180910390f35b60095481565b600260149054906101000a900460ff16156103be576040517f08c379a00000000000000000000000000000000000000000000000000000000081526004016103b590611cf3565b60405180910390fd5b6103c6611346565b5f73ffffffffffffffffffffffffffffffffffffffff168173ffffffffffffffffffffffffffffffffffffffff1603610434576040517f08c379a000000000000000000000000000000000000000000000000000000000815260040161042b90611d5b565b60405180910390fd5b600a5f8273ffffffffffffffffffffffffffffffffffffffff1673ffffffffffffffffffffffffffffffffffffffff1681526020019081526020015f206002015f9054906101000a900460ff166104c0576040517f08c379a00000000000000000000000000000000000000000000000000000000081526004016104b790611de9565b60405180910390fd5b3373ffffffffffffffffffffffffffffffffffffffff168173ffffffffffffffffffffffffffffffffffffffff160361052e576040517f08c379a000000000000000000000000000000000000000000000000000000000815260040161052590611e51565b60405180910390fd5b600a5f3373ffffffffffffffffffffffffffffffffffffffff1673ffffffffffffffffffffffffffffffffffffffff1681526020019081526020015f206002015f9054906101000a900460ff16156105bb576040517f08c379a00000000000000000000000000000000000000000000000000000000081526004016105b290611edf565b60405180910390fd5b60015f9054906101000a900473ffffffffffffffffffffffffffffffffffffffff1673ffffffffffffffffffffffffffffffffffffffff166323b872dd33306003546040518463ffffffff1660e01b815260040161061b93929190611efd565b6020604051808303815f875af1158015610637573d5f803e3d5ffd5b505050506040513d601f19601f8201168201806040525081019061065b9190611f5c565b61069a576040517f08c379a000000000000000000000000000000000000000000000000000000000815260040161069190611fd1565b60405180910390fd5b5f600a5f3373ffffffffffffffffffffffffffffffffffffffff1673ffffffffffffffffffffffffffffffffffffffff1681526020019081526020015f20905081815f015f6101000a81548173ffffffffffffffffffffffffffffffffffffffff021916908373ffffffffffffffffffffffffffffffffffffffff1602179055506001816002015f6101000a81548160ff0219169083151502179055504281600401819055508173ffffffffffffffffffffffffffffffffffffffff163373ffffffffffffffffffffffffffffffffffffffff167f199098452639b249bef6f727bc09ce903cece47ca72a8518bef9367ad39b6de74260405161079d9190611886565b60405180910390a36107ae82611393565b506107b7611865565b50565b6107c2611346565b60025f9054906101000a900473ffffffffffffffffffffffffffffffffffffffff1673ffffffffffffffffffffffffffffffffffffffff163373ffffffffffffffffffffffffffffffffffffffff1614610851576040517f08c379a00000000000000000000000000000000000000000000000000000000081526004016108489061205f565b60405180910390fd5b60015f9054906101000a900473ffffffffffffffffffffffffffffffffffffffff1673ffffffffffffffffffffffffffffffffffffffff1663a9059cbb60025f9054906101000a900473ffffffffffffffffffffffffffffffffffffffff16836040518363ffffffff1660e01b81526004016108ce92919061207d565b6020604051808303815f875af11580156108ea573d5f803e3d5ffd5b505050506040513d601f19601f8201168201806040525081019061090e9190611f5c565b5060025f9054906101000a900473ffffffffffffffffffffffffffffffffffffffff1673ffffffffffffffffffffffffffffffffffffffff167f884edad9ce6fa2440d8a54cc123490eb96d2768479d49ff9c7366125a9424364826040516109769190611886565b60405180910390a2610986611865565b50565b6060600a5f8373ffffffffffffffffffffffffffffffffffffffff1673ffffffffffffffffffffffffffffffffffffffff1681526020019081526020015f20600801805480602002602001604051908101604052809291908181526020018280548015610a4857602002820191905f5260205f20905b815f9054906101000a900473ffffffffffffffffffffffffffffffffffffffff1673ffffffffffffffffffffffffffffffffffffffff16815260200190600101908083116109ff575b50505050509050919050565b60025f9054906101000a900473ffffffffffffffffffffffffffffffffffffffff1673ffffffffffffffffffffffffffffffffffffffff163373ffffffffffffffffffffffffffffffffffffffff1614610ae3576040517f08c379a0000000000000000000000000000000000000000000000000000000008152600401610ada9061205f565b60405180910390fd5b60638110610b26576040517f08c379a0000000000000000000000000000000000000000000000000000000008152600401610b1d906120ee565b60405180910390fd5b670de0b6b3a764000081610b3a9190612139565b60038190555050565b60025f9054906101000a900473ffffffffffffffffffffffffffffffffffffffff1673ffffffffffffffffffffffffffffffffffffffff163373ffffffffffffffffffffffffffffffffffffffff1614610bd2576040517f08c379a0000000000000000000000000000000000000000000000000000000008152600401610bc99061205f565b60405180910390fd5b6001600260146101000a81548160ff021916908315150217905550565b60048160058110610bfe575f80fd5b015f915090505481565b60035481565b60025f9054906101000a900473ffffffffffffffffffffffffffffffffffffffff1673ffffffffffffffffffffffffffffffffffffffff163373ffffffffffffffffffffffffffffffffffffffff1614610c9d576040517f08c379a0000000000000000000000000000000000000000000000000000000008152600401610c949061205f565b60405180910390fd5b5f73ffffffffffffffffffffffffffffffffffffffff168173ffffffffffffffffffffffffffffffffffffffff1603610d0b576040517f08c379a0000000000000000000000000000000000000000000000000000000008152600401610d02906121c4565b60405180910390fd5b8060015f6101000a81548173ffffffffffffffffffffffffffffffffffffffff021916908373ffffffffffffffffffffffffffffffffffffffff16021790555050565b600260149054906101000a900460ff1681565b60015f9054906101000a900473ffffffffffffffffffffffffffffffffffffffff1681565b5f60015f9054906101000a900473ffffffffffffffffffffffffffffffffffffffff1673ffffffffffffffffffffffffffffffffffffffff166370a08231306040518263ffffffff1660e01b8152600401610de19190611c34565b602060405180830381865afa158015610dfc573d5f803e3d5ffd5b505050506040513d601f19601f82011682018060405250810190610e2091906121f6565b905090565b600a602052805f5260405f205f91509050805f015f9054906101000a900473ffffffffffffffffffffffffffffffffffffffff1690806001015490806002015f9054906101000a900460ff16908060030154908060040154908060060154908060070154905087565b60025f9054906101000a900473ffffffffffffffffffffffffffffffffffffffff1673ffffffffffffffffffffffffffffffffffffffff163373ffffffffffffffffffffffffffffffffffffffff1614610f1d576040517f08c379a0000000000000000000000000000000000000000000000000000000008152600401610f149061205f565b60405180910390fd5b5f600260146101000a81548160ff021916908315150217905550565b5f805f805f805f80600a5f8a73ffffffffffffffffffffffffffffffffffffffff1673ffffffffffffffffffffffffffffffffffffffff1681526020019081526020015f209050805f015f9054906101000a900473ffffffffffffffffffffffffffffffffffffffff168160010154826003015483600601548460070154856002015f9054906101000a900460ff168660040154975097509750975097509750975050919395979092949650565b60605f600a5f8673ffffffffffffffffffffffffffffffffffffffff1673ffffffffffffffffffffffffffffffffffffffff1681526020019081526020015f2060050190505f83856110399190612221565b9050818054905081111561104f57818054905090505b5f858261105c9190612254565b67ffffffffffffffff81111561107557611074612287565b5b6040519080825280602002602001820160405280156110a35781602001602082028036833780820191505090505b5090505f8690505b82811015611153578381815481106110c6576110c56122b4565b5b905f5260205f20015f9054906101000a900473ffffffffffffffffffffffffffffffffffffffff168288836110fb9190612254565b8151811061110c5761110b6122b4565b5b602002602001019073ffffffffffffffffffffffffffffffffffffffff16908173ffffffffffffffffffffffffffffffffffffffff168152505080806001019150506110ab565b508093505050509392505050565b60025f9054906101000a900473ffffffffffffffffffffffffffffffffffffffff1673ffffffffffffffffffffffffffffffffffffffff163373ffffffffffffffffffffffffffffffffffffffff16146111f0576040517f08c379a00000000000000000000000000000000000000000000000000000000081526004016111e79061205f565b60405180910390fd5b5f73ffffffffffffffffffffffffffffffffffffffff168173ffffffffffffffffffffffffffffffffffffffff160361125e576040517f08c379a00000000000000000000000000000000000000000000000000000000081526004016112559061232b565b60405180910390fd5b5f60025f9054906101000a900473ffffffffffffffffffffffffffffffffffffffff1690508160025f6101000a81548173ffffffffffffffffffffffffffffffffffffffff021916908373ffffffffffffffffffffffffffffffffffffffff1602179055508173ffffffffffffffffffffffffffffffffffffffff168173ffffffffffffffffffffffffffffffffffffffff167f8be0079c531659141344cd1fd0a4f28419497f9722a3daafe3b4186f6b6457e060405160405180910390a35050565b60025f9054906101000a900473ffffffffffffffffffffffffffffffffffffffff1681565b60025f540361138a576040517f08c379a000000000000000000000000000000000000000000000000000000000815260040161138190612393565b60405180910390fd5b60025f81905550565b5f8190505f5b6005811080156113aa575060095481105b15611860575f73ffffffffffffffffffffffffffffffffffffffff168273ffffffffffffffffffffffffffffffffffffffff160315611860575f6064600483600581106113fa576113f96122b4565b5b01546003546114099190612139565b61141391906123de565b905060015f9054906101000a900473ffffffffffffffffffffffffffffffffffffffff1673ffffffffffffffffffffffffffffffffffffffff1663a9059cbb84836040518363ffffffff1660e01b815260040161147192919061207d565b6020604051808303815f875af115801561148d573d5f803e3d5ffd5b505050506040513d601f19601f820116820180604052508101906114b19190611f5c565b6114f0576040517f08c379a00000000000000000000000000000000000000000000000000000000081526004016114e790612458565b60405180910390fd5b8273ffffffffffffffffffffffffffffffffffffffff167f83b5eadb65fb8fc1b70a3b205b38bb0c6a3e15e14bcbc9d4f366d6c772e6d83b6001846115359190612221565b83604051611544929190612476565b60405180910390a25f82036116a15780600a5f8573ffffffffffffffffffffffffffffffffffffffff1673ffffffffffffffffffffffffffffffffffffffff1681526020019081526020015f206001015f8282546115a29190612221565b92505081905550600a5f8473ffffffffffffffffffffffffffffffffffffffff1673ffffffffffffffffffffffffffffffffffffffff1681526020019081526020015f2060050133908060018154018082558091505060019003905f5260205f20015f9091909190916101000a81548173ffffffffffffffffffffffffffffffffffffffff021916908373ffffffffffffffffffffffffffffffffffffffff160217905550600a5f8473ffffffffffffffffffffffffffffffffffffffff1673ffffffffffffffffffffffffffffffffffffffff1681526020019081526020015f206003015f8154809291906116979061249d565b9190505550611796565b80600a5f8573ffffffffffffffffffffffffffffffffffffffff1673ffffffffffffffffffffffffffffffffffffffff1681526020019081526020015f206006015f8282546116f09190612221565b92505081905550600a5f8473ffffffffffffffffffffffffffffffffffffffff1673ffffffffffffffffffffffffffffffffffffffff1681526020019081526020015f2060080133908060018154018082558091505060019003905f5260205f20015f9091909190916101000a81548173ffffffffffffffffffffffffffffffffffffffff021916908373ffffffffffffffffffffffffffffffffffffffff1602179055505b600a5f8473ffffffffffffffffffffffffffffffffffffffff1673ffffffffffffffffffffffffffffffffffffffff1681526020019081526020015f206007015f8154809291906117e69061249d565b9190505550600a5f8473ffffffffffffffffffffffffffffffffffffffff1673ffffffffffffffffffffffffffffffffffffffff1681526020019081526020015f205f015f9054906101000a900473ffffffffffffffffffffffffffffffffffffffff1692505080806118589061249d565b915050611399565b505050565b60015f81905550565b5f819050919050565b6118808161186e565b82525050565b5f6020820190506118995f830184611877565b92915050565b5f80fd5b5f73ffffffffffffffffffffffffffffffffffffffff82169050919050565b5f6118cc826118a3565b9050919050565b6118dc816118c2565b81146118e6575f80fd5b50565b5f813590506118f7816118d3565b92915050565b5f602082840312156119125761191161189f565b5b5f61191f848285016118e9565b91505092915050565b6119318161186e565b811461193b575f80fd5b50565b5f8135905061194c81611928565b92915050565b5f602082840312156119675761196661189f565b5b5f6119748482850161193e565b91505092915050565b5f81519050919050565b5f82825260208201905092915050565b5f819050602082019050919050565b6119af816118c2565b82525050565b5f6119c083836119a6565b60208301905092915050565b5f602082019050919050565b5f6119e28261197d565b6119ec8185611987565b93506119f783611997565b805f5b83811015611a27578151611a0e88826119b5565b9750611a19836119cc565b9250506001810190506119fa565b5085935050505092915050565b5f6020820190508181035f830152611a4c81846119d8565b905092915050565b5f8115159050919050565b611a6881611a54565b82525050565b5f602082019050611a815f830184611a5f565b92915050565b5f819050919050565b5f611aaa611aa5611aa0846118a3565b611a87565b6118a3565b9050919050565b5f611abb82611a90565b9050919050565b5f611acc82611ab1565b9050919050565b611adc81611ac2565b82525050565b5f602082019050611af55f830184611ad3565b92915050565b611b04816118c2565b82525050565b5f60e082019050611b1d5f83018a611afb565b611b2a6020830189611877565b611b376040830188611a5f565b611b446060830187611877565b611b516080830186611877565b611b5e60a0830185611877565b611b6b60c0830184611877565b98975050505050505050565b5f60e082019050611b8a5f83018a611afb565b611b976020830189611877565b611ba46040830188611877565b611bb16060830187611877565b611bbe6080830186611877565b611bcb60a0830185611a5f565b611bd860c0830184611877565b98975050505050505050565b5f805f60608486031215611bfb57611bfa61189f565b5b5f611c08868287016118e9565b9350506020611c198682870161193e565b9250506040611c2a8682870161193e565b9150509250925092565b5f602082019050611c475f830184611afb565b92915050565b5f82825260208201905092915050565b7f436f6e7472616374206973207061757365642062792061646d696e20736f20755f8201527f2063616e206e6f7420706572666f726d20616e797468696e6720696e2074686960208201527f7320636f6e747261637421000000000000000000000000000000000000000000604082015250565b5f611cdd604b83611c4d565b9150611ce882611c5d565b606082019050919050565b5f6020820190508181035f830152611d0a81611cd1565b9050919050565b7f496e76616c6964207265666572726572206164647265737300000000000000005f82015250565b5f611d45601883611c4d565b9150611d5082611d11565b602082019050919050565b5f6020820190508181035f830152611d7281611d39565b9050919050565b7f5468697320726566657272616c206163636f756e74206973206e6f74207265675f8201527f6973746572656421000000000000000000000000000000000000000000000000602082015250565b5f611dd3602883611c4d565b9150611dde82611d79565b604082019050919050565b5f6020820190508181035f830152611e0081611dc7565b9050919050565b7f43616e6e6f7420726566657220796f757273656c6600000000000000000000005f82015250565b5f611e3b601583611c4d565b9150611e4682611e07565b602082019050919050565b5f6020820190508181035f830152611e6881611e2f565b9050919050565b7f54686973206163636f756e7420697320616c72656164792072656769737465725f8201527f6564210000000000000000000000000000000000000000000000000000000000602082015250565b5f611ec9602383611c4d565b9150611ed482611e6f565b604082019050919050565b5f6020820190508181035f830152611ef681611ebd565b9050919050565b5f606082019050611f105f830186611afb565b611f1d6020830185611afb565b611f2a6040830184611877565b949350505050565b611f3b81611a54565b8114611f45575f80fd5b50565b5f81519050611f5681611f32565b92915050565b5f60208284031215611f7157611f7061189f565b5b5f611f7e84828501611f48565b91505092915050565b7f7472616e73666572206661696c656400000000000000000000000000000000005f82015250565b5f611fbb600f83611c4d565b9150611fc682611f87565b602082019050919050565b5f6020820190508181035f830152611fe881611faf565b9050919050565b7f5468697320616374696f6e2063616e20626520706572666f726d6564206279205f8201527f74686520636f6e7472616374206f776e65720000000000000000000000000000602082015250565b5f612049603283611c4d565b915061205482611fef565b604082019050919050565b5f6020820190508181035f8301526120768161203d565b9050919050565b5f6040820190506120905f830185611afb565b61209d6020830184611877565b9392505050565b7f696e76616c69642070657263656e7461676500000000000000000000000000005f82015250565b5f6120d8601283611c4d565b91506120e3826120a4565b602082019050919050565b5f6020820190508181035f830152612105816120cc565b9050919050565b7f4e487b71000000000000000000000000000000000000000000000000000000005f52601160045260245ffd5b5f6121438261186e565b915061214e8361186e565b925082820261215c8161186e565b915082820484148315176121735761217261210c565b5b5092915050565b7f696e76616c6964206e65772062737400000000000000000000000000000000005f82015250565b5f6121ae600f83611c4d565b91506121b98261217a565b602082019050919050565b5f6020820190508181035f8301526121db816121a2565b9050919050565b5f815190506121f081611928565b92915050565b5f6020828403121561220b5761220a61189f565b5b5f612218848285016121e2565b91505092915050565b5f61222b8261186e565b91506122368361186e565b925082820190508082111561224e5761224d61210c565b5b92915050565b5f61225e8261186e565b91506122698361186e565b92508282039050818111156122815761228061210c565b5b92915050565b7f4e487b71000000000000000000000000000000000000000000000000000000005f52604160045260245ffd5b7f4e487b71000000000000000000000000000000000000000000000000000000005f52603260045260245ffd5b7f496e76616c6964206e6577206f776e65720000000000000000000000000000005f82015250565b5f612315601183611c4d565b9150612320826122e1565b602082019050919050565b5f6020820190508181035f83015261234281612309565b9050919050565b7f5265656e7472616e637947756172643a207265656e7472616e742063616c6c005f82015250565b5f61237d601f83611c4d565b915061238882612349565b602082019050919050565b5f6020820190508181035f8301526123aa81612371565b9050919050565b7f4e487b71000000000000000000000000000000000000000000000000000000005f52601260045260245ffd5b5f6123e88261186e565b91506123f38361186e565b925082612403576124026123b1565b5b828204905092915050565b7f526577617264207472616e73666572206661696c6564000000000000000000005f82015250565b5f612442601683611c4d565b915061244d8261240e565b602082019050919050565b5f6020820190508181035f83015261246f81612436565b9050919050565b5f6040820190506124895f830185611877565b6124966020830184611877565b9392505050565b5f6124a78261186e565b91507fffffffffffffffffffffffffffffffffffffffffffffffffffffffffffffffff82036124d9576124d861210c565b5b60018201905091905056fea2646970667358221220dd8adcfd0e21a596964bc25ae742e2117ef960b95e565f7436949da693f4be3064736f6c634300081a0033",
					"opcodes": "PUSH1 0x80 PUSH1 0x40 MSTORE PUSH8 0x8AC7230489E80000 PUSH1 0x3 SSTORE PUSH1 0x40 MLOAD DUP1 PUSH1 0xA0 ADD PUSH1 0x40 MSTORE DUP1 PUSH1 0x28 PUSH1 0xFF AND DUP2 MSTORE PUSH1 0x20 ADD PUSH1 0x14 PUSH1 0xFF AND DUP2 MSTORE PUSH1 0x20 ADD PUSH1 0xF PUSH1 0xFF AND DUP2 MSTORE PUSH1 0x20 ADD PUSH1 0xA PUSH1 0xFF AND DUP2 MSTORE PUSH1 0x20 ADD PUSH1 0x5 PUSH1 0xFF AND DUP2 MSTORE POP PUSH1 0x4 SWAP1 PUSH1 0x5 PUSH2 0x5B SWAP3 SWAP2 SWAP1 PUSH2 0x11B JUMP JUMPDEST POP PUSH1 0x5 PUSH1 0x9 SSTORE CALLVALUE DUP1 ISZERO PUSH2 0x6C JUMPI PUSH0 DUP1 REVERT JUMPDEST POP PUSH1 0x40 MLOAD PUSH2 0x272B CODESIZE SUB DUP1 PUSH2 0x272B DUP4 CODECOPY DUP2 DUP2 ADD PUSH1 0x40 MSTORE DUP2 ADD SWAP1 PUSH2 0x8E SWAP2 SWAP1 PUSH2 0x1D9 JUMP JUMPDEST PUSH1 0x1 PUSH0 DUP2 SWAP1 SSTORE POP DUP1 PUSH1 0x1 PUSH0 PUSH2 0x100 EXP DUP2 SLOAD DUP2 PUSH20 0xFFFFFFFFFFFFFFFFFFFFFFFFFFFFFFFFFFFFFFFF MUL NOT AND SWAP1 DUP4 PUSH20 0xFFFFFFFFFFFFFFFFFFFFFFFFFFFFFFFFFFFFFFFF AND MUL OR SWAP1 SSTORE POP CALLER PUSH1 0x2 PUSH0 PUSH2 0x100 EXP DUP2 SLOAD DUP2 PUSH20 0xFFFFFFFFFFFFFFFFFFFFFFFFFFFFFFFFFFFFFFFF MUL NOT AND SWAP1 DUP4 PUSH20 0xFFFFFFFFFFFFFFFFFFFFFFFFFFFFFFFFFFFFFFFF AND MUL OR SWAP1 SSTORE POP POP PUSH2 0x204 JUMP JUMPDEST DUP3 PUSH1 0x5 DUP2 ADD SWAP3 DUP3 ISZERO PUSH2 0x14F JUMPI SWAP2 PUSH1 0x20 MUL DUP3 ADD JUMPDEST DUP3 DUP2 GT ISZERO PUSH2 0x14E JUMPI DUP3 MLOAD DUP3 SWAP1 PUSH1 0xFF AND SWAP1 SSTORE SWAP2 PUSH1 0x20 ADD SWAP2 SWAP1 PUSH1 0x1 ADD SWAP1 PUSH2 0x12E JUMP JUMPDEST JUMPDEST POP SWAP1 POP PUSH2 0x15C SWAP2 SWAP1 PUSH2 0x160 JUMP JUMPDEST POP SWAP1 JUMP JUMPDEST JUMPDEST DUP1 DUP3 GT ISZERO PUSH2 0x177 JUMPI PUSH0 DUP2 PUSH0 SWAP1 SSTORE POP PUSH1 0x1 ADD PUSH2 0x161 JUMP JUMPDEST POP SWAP1 JUMP JUMPDEST PUSH0 DUP1 REVERT JUMPDEST PUSH0 PUSH20 0xFFFFFFFFFFFFFFFFFFFFFFFFFFFFFFFFFFFFFFFF DUP3 AND SWAP1 POP SWAP2 SWAP1 POP JUMP JUMPDEST PUSH0 PUSH2 0x1A8 DUP3 PUSH2 0x17F JUMP JUMPDEST SWAP1 POP SWAP2 SWAP1 POP JUMP JUMPDEST PUSH2 0x1B8 DUP2 PUSH2 0x19E JUMP JUMPDEST DUP2 EQ PUSH2 0x1C2 JUMPI PUSH0 DUP1 REVERT JUMPDEST POP JUMP JUMPDEST PUSH0 DUP2 MLOAD SWAP1 POP PUSH2 0x1D3 DUP2 PUSH2 0x1AF JUMP JUMPDEST SWAP3 SWAP2 POP POP JUMP JUMPDEST PUSH0 PUSH1 0x20 DUP3 DUP5 SUB SLT ISZERO PUSH2 0x1EE JUMPI PUSH2 0x1ED PUSH2 0x17B JUMP JUMPDEST JUMPDEST PUSH0 PUSH2 0x1FB DUP5 DUP3 DUP6 ADD PUSH2 0x1C5 JUMP JUMPDEST SWAP2 POP POP SWAP3 SWAP2 POP POP JUMP JUMPDEST PUSH2 0x251A DUP1 PUSH2 0x211 PUSH0 CODECOPY PUSH0 RETURN INVALID PUSH1 0x80 PUSH1 0x40 MSTORE CALLVALUE DUP1 ISZERO PUSH2 0xF JUMPI PUSH0 DUP1 REVERT JUMPDEST POP PUSH1 0x4 CALLDATASIZE LT PUSH2 0x114 JUMPI PUSH0 CALLDATALOAD PUSH1 0xE0 SHR DUP1 PUSH4 0x8456CB59 GT PUSH2 0xA0 JUMPI DUP1 PUSH4 0xB0B62F5A GT PUSH2 0x6F JUMPI DUP1 PUSH4 0xB0B62F5A EQ PUSH2 0x2BE JUMPI DUP1 PUSH4 0xCC3D967B EQ PUSH2 0x2C8 JUMPI DUP1 PUSH4 0xD9C842FD EQ PUSH2 0x2FE JUMPI DUP1 PUSH4 0xF2FDE38B EQ PUSH2 0x32E JUMPI DUP1 PUSH4 0xF851A440 EQ PUSH2 0x34A JUMPI PUSH2 0x114 JUMP JUMPDEST DUP1 PUSH4 0x8456CB59 EQ PUSH2 0x22E JUMPI DUP1 PUSH4 0x8C546F81 EQ PUSH2 0x24C JUMPI DUP1 PUSH4 0x9E9AED62 EQ PUSH2 0x26A JUMPI DUP1 PUSH4 0xA87430BA EQ PUSH2 0x288 JUMPI PUSH2 0x114 JUMP JUMPDEST DUP1 PUSH4 0x50050769 GT PUSH2 0xE7 JUMPI DUP1 PUSH4 0x50050769 EQ PUSH2 0x19E JUMPI DUP1 PUSH4 0x5C975ABB EQ PUSH2 0x1BA JUMPI DUP1 PUSH4 0x5DC68B0A EQ PUSH2 0x1C4 JUMPI DUP1 PUSH4 0x64B4F751 EQ PUSH2 0x1F4 JUMPI DUP1 PUSH4 0x6691461A EQ PUSH2 0x212 JUMPI PUSH2 0x114 JUMP JUMPDEST DUP1 PUSH4 0x4189250 EQ PUSH2 0x118 JUMPI DUP1 PUSH4 0x840605A EQ PUSH2 0x136 JUMPI DUP1 PUSH4 0x2E1A7D4D EQ PUSH2 0x152 JUMPI DUP1 PUSH4 0x4F404243 EQ PUSH2 0x16E JUMPI JUMPDEST PUSH0 DUP1 REVERT JUMPDEST PUSH2 0x120 PUSH2 0x368 JUMP JUMPDEST PUSH1 0x40 MLOAD PUSH2 0x12D SWAP2 SWAP1 PUSH2 0x1886 JUMP JUMPDEST PUSH1 0x40 MLOAD DUP1 SWAP2 SUB SWAP1 RETURN JUMPDEST PUSH2 0x150 PUSH1 0x4 DUP1 CALLDATASIZE SUB DUP2 ADD SWAP1 PUSH2 0x14B SWAP2 SWAP1 PUSH2 0x18FD JUMP JUMPDEST PUSH2 0x36E JUMP JUMPDEST STOP JUMPDEST PUSH2 0x16C PUSH1 0x4 DUP1 CALLDATASIZE SUB DUP2 ADD SWAP1 PUSH2 0x167 SWAP2 SWAP1 PUSH2 0x1952 JUMP JUMPDEST PUSH2 0x7BA JUMP JUMPDEST STOP JUMPDEST PUSH2 0x188 PUSH1 0x4 DUP1 CALLDATASIZE SUB DUP2 ADD SWAP1 PUSH2 0x183 SWAP2 SWAP1 PUSH2 0x18FD JUMP JUMPDEST PUSH2 0x989 JUMP JUMPDEST PUSH1 0x40 MLOAD PUSH2 0x195 SWAP2 SWAP1 PUSH2 0x1A34 JUMP JUMPDEST PUSH1 0x40 MLOAD DUP1 SWAP2 SUB SWAP1 RETURN JUMPDEST PUSH2 0x1B8 PUSH1 0x4 DUP1 CALLDATASIZE SUB DUP2 ADD SWAP1 PUSH2 0x1B3 SWAP2 SWAP1 PUSH2 0x1952 JUMP JUMPDEST PUSH2 0xA54 JUMP JUMPDEST STOP JUMPDEST PUSH2 0x1C2 PUSH2 0xB43 JUMP JUMPDEST STOP JUMPDEST PUSH2 0x1DE PUSH1 0x4 DUP1 CALLDATASIZE SUB DUP2 ADD SWAP1 PUSH2 0x1D9 SWAP2 SWAP1 PUSH2 0x1952 JUMP JUMPDEST PUSH2 0xBEF JUMP JUMPDEST PUSH1 0x40 MLOAD PUSH2 0x1EB SWAP2 SWAP1 PUSH2 0x1886 JUMP JUMPDEST PUSH1 0x40 MLOAD DUP1 SWAP2 SUB SWAP1 RETURN JUMPDEST PUSH2 0x1FC PUSH2 0xC08 JUMP JUMPDEST PUSH1 0x40 MLOAD PUSH2 0x209 SWAP2 SWAP1 PUSH2 0x1886 JUMP JUMPDEST PUSH1 0x40 MLOAD DUP1 SWAP2 SUB SWAP1 RETURN JUMPDEST PUSH2 0x22C PUSH1 0x4 DUP1 CALLDATASIZE SUB DUP2 ADD SWAP1 PUSH2 0x227 SWAP2 SWAP1 PUSH2 0x18FD JUMP JUMPDEST PUSH2 0xC0E JUMP JUMPDEST STOP JUMPDEST PUSH2 0x236 PUSH2 0xD4E JUMP JUMPDEST PUSH1 0x40 MLOAD PUSH2 0x243 SWAP2 SWAP1 PUSH2 0x1A6E JUMP JUMPDEST PUSH1 0x40 MLOAD DUP1 SWAP2 SUB SWAP1 RETURN JUMPDEST PUSH2 0x254 PUSH2 0xD61 JUMP JUMPDEST PUSH1 0x40 MLOAD PUSH2 0x261 SWAP2 SWAP1 PUSH2 0x1AE2 JUMP JUMPDEST PUSH1 0x40 MLOAD DUP1 SWAP2 SUB SWAP1 RETURN JUMPDEST PUSH2 0x272 PUSH2 0xD86 JUMP JUMPDEST PUSH1 0x40 MLOAD PUSH2 0x27F SWAP2 SWAP1 PUSH2 0x1886 JUMP JUMPDEST PUSH1 0x40 MLOAD DUP1 SWAP2 SUB SWAP1 RETURN JUMPDEST PUSH2 0x2A2 PUSH1 0x4 DUP1 CALLDATASIZE SUB DUP2 ADD SWAP1 PUSH2 0x29D SWAP2 SWAP1 PUSH2 0x18FD JUMP JUMPDEST PUSH2 0xE25 JUMP JUMPDEST PUSH1 0x40 MLOAD PUSH2 0x2B5 SWAP8 SWAP7 SWAP6 SWAP5 SWAP4 SWAP3 SWAP2 SWAP1 PUSH2 0x1B0A JUMP JUMPDEST PUSH1 0x40 MLOAD DUP1 SWAP2 SUB SWAP1 RETURN JUMPDEST PUSH2 0x2C6 PUSH2 0xE8E JUMP JUMPDEST STOP JUMPDEST PUSH2 0x2E2 PUSH1 0x4 DUP1 CALLDATASIZE SUB DUP2 ADD SWAP1 PUSH2 0x2DD SWAP2 SWAP1 PUSH2 0x18FD JUMP JUMPDEST PUSH2 0xF39 JUMP JUMPDEST PUSH1 0x40 MLOAD PUSH2 0x2F5 SWAP8 SWAP7 SWAP6 SWAP5 SWAP4 SWAP3 SWAP2 SWAP1 PUSH2 0x1B77 JUMP JUMPDEST PUSH1 0x40 MLOAD DUP1 SWAP2 SUB SWAP1 RETURN JUMPDEST PUSH2 0x318 PUSH1 0x4 DUP1 CALLDATASIZE SUB DUP2 ADD SWAP1 PUSH2 0x313 SWAP2 SWAP1 PUSH2 0x1BE4 JUMP JUMPDEST PUSH2 0xFE7 JUMP JUMPDEST PUSH1 0x40 MLOAD PUSH2 0x325 SWAP2 SWAP1 PUSH2 0x1A34 JUMP JUMPDEST PUSH1 0x40 MLOAD DUP1 SWAP2 SUB SWAP1 RETURN JUMPDEST PUSH2 0x348 PUSH1 0x4 DUP1 CALLDATASIZE SUB DUP2 ADD SWAP1 PUSH2 0x343 SWAP2 SWAP1 PUSH2 0x18FD JUMP JUMPDEST PUSH2 0x1161 JUMP JUMPDEST STOP JUMPDEST PUSH2 0x352 PUSH2 0x1321 JUMP JUMPDEST PUSH1 0x40 MLOAD PUSH2 0x35F SWAP2 SWAP1 PUSH2 0x1C34 JUMP JUMPDEST PUSH1 0x40 MLOAD DUP1 SWAP2 SUB SWAP1 RETURN JUMPDEST PUSH1 0x9 SLOAD DUP2 JUMP JUMPDEST PUSH1 0x2 PUSH1 0x14 SWAP1 SLOAD SWAP1 PUSH2 0x100 EXP SWAP1 DIV PUSH1 0xFF AND ISZERO PUSH2 0x3BE JUMPI PUSH1 0x40 MLOAD PUSH32 0x8C379A000000000000000000000000000000000000000000000000000000000 DUP2 MSTORE PUSH1 0x4 ADD PUSH2 0x3B5 SWAP1 PUSH2 0x1CF3 JUMP JUMPDEST PUSH1 0x40 MLOAD DUP1 SWAP2 SUB SWAP1 REVERT JUMPDEST PUSH2 0x3C6 PUSH2 0x1346 JUMP JUMPDEST PUSH0 PUSH20 0xFFFFFFFFFFFFFFFFFFFFFFFFFFFFFFFFFFFFFFFF AND DUP2 PUSH20 0xFFFFFFFFFFFFFFFFFFFFFFFFFFFFFFFFFFFFFFFF AND SUB PUSH2 0x434 JUMPI PUSH1 0x40 MLOAD PUSH32 0x8C379A000000000000000000000000000000000000000000000000000000000 DUP2 MSTORE PUSH1 0x4 ADD PUSH2 0x42B SWAP1 PUSH2 0x1D5B JUMP JUMPDEST PUSH1 0x40 MLOAD DUP1 SWAP2 SUB SWAP1 REVERT JUMPDEST PUSH1 0xA PUSH0 DUP3 PUSH20 0xFFFFFFFFFFFFFFFFFFFFFFFFFFFFFFFFFFFFFFFF AND PUSH20 0xFFFFFFFFFFFFFFFFFFFFFFFFFFFFFFFFFFFFFFFF AND DUP2 MSTORE PUSH1 0x20 ADD SWAP1 DUP2 MSTORE PUSH1 0x20 ADD PUSH0 KECCAK256 PUSH1 0x2 ADD PUSH0 SWAP1 SLOAD SWAP1 PUSH2 0x100 EXP SWAP1 DIV PUSH1 0xFF AND PUSH2 0x4C0 JUMPI PUSH1 0x40 MLOAD PUSH32 0x8C379A000000000000000000000000000000000000000000000000000000000 DUP2 MSTORE PUSH1 0x4 ADD PUSH2 0x4B7 SWAP1 PUSH2 0x1DE9 JUMP JUMPDEST PUSH1 0x40 MLOAD DUP1 SWAP2 SUB SWAP1 REVERT JUMPDEST CALLER PUSH20 0xFFFFFFFFFFFFFFFFFFFFFFFFFFFFFFFFFFFFFFFF AND DUP2 PUSH20 0xFFFFFFFFFFFFFFFFFFFFFFFFFFFFFFFFFFFFFFFF AND SUB PUSH2 0x52E JUMPI PUSH1 0x40 MLOAD PUSH32 0x8C379A000000000000000000000000000000000000000000000000000000000 DUP2 MSTORE PUSH1 0x4 ADD PUSH2 0x525 SWAP1 PUSH2 0x1E51 JUMP JUMPDEST PUSH1 0x40 MLOAD DUP1 SWAP2 SUB SWAP1 REVERT JUMPDEST PUSH1 0xA PUSH0 CALLER PUSH20 0xFFFFFFFFFFFFFFFFFFFFFFFFFFFFFFFFFFFFFFFF AND PUSH20 0xFFFFFFFFFFFFFFFFFFFFFFFFFFFFFFFFFFFFFFFF AND DUP2 MSTORE PUSH1 0x20 ADD SWAP1 DUP2 MSTORE PUSH1 0x20 ADD PUSH0 KECCAK256 PUSH1 0x2 ADD PUSH0 SWAP1 SLOAD SWAP1 PUSH2 0x100 EXP SWAP1 DIV PUSH1 0xFF AND ISZERO PUSH2 0x5BB JUMPI PUSH1 0x40 MLOAD PUSH32 0x8C379A000000000000000000000000000000000000000000000000000000000 DUP2 MSTORE PUSH1 0x4 ADD PUSH2 0x5B2 SWAP1 PUSH2 0x1EDF JUMP JUMPDEST PUSH1 0x40 MLOAD DUP1 SWAP2 SUB SWAP1 REVERT JUMPDEST PUSH1 0x1 PUSH0 SWAP1 SLOAD SWAP1 PUSH2 0x100 EXP SWAP1 DIV PUSH20 0xFFFFFFFFFFFFFFFFFFFFFFFFFFFFFFFFFFFFFFFF AND PUSH20 0xFFFFFFFFFFFFFFFFFFFFFFFFFFFFFFFFFFFFFFFF AND PUSH4 0x23B872DD CALLER ADDRESS PUSH1 0x3 SLOAD PUSH1 0x40 MLOAD DUP5 PUSH4 0xFFFFFFFF AND PUSH1 0xE0 SHL DUP2 MSTORE PUSH1 0x4 ADD PUSH2 0x61B SWAP4 SWAP3 SWAP2 SWAP1 PUSH2 0x1EFD JUMP JUMPDEST PUSH1 0x20 PUSH1 0x40 MLOAD DUP1 DUP4 SUB DUP2 PUSH0 DUP8 GAS CALL ISZERO DUP1 ISZERO PUSH2 0x637 JUMPI RETURNDATASIZE PUSH0 DUP1 RETURNDATACOPY RETURNDATASIZE PUSH0 REVERT JUMPDEST POP POP POP POP PUSH1 0x40 MLOAD RETURNDATASIZE PUSH1 0x1F NOT PUSH1 0x1F DUP3 ADD AND DUP3 ADD DUP1 PUSH1 0x40 MSTORE POP DUP2 ADD SWAP1 PUSH2 0x65B SWAP2 SWAP1 PUSH2 0x1F5C JUMP JUMPDEST PUSH2 0x69A JUMPI PUSH1 0x40 MLOAD PUSH32 0x8C379A000000000000000000000000000000000000000000000000000000000 DUP2 MSTORE PUSH1 0x4 ADD PUSH2 0x691 SWAP1 PUSH2 0x1FD1 JUMP JUMPDEST PUSH1 0x40 MLOAD DUP1 SWAP2 SUB SWAP1 REVERT JUMPDEST PUSH0 PUSH1 0xA PUSH0 CALLER PUSH20 0xFFFFFFFFFFFFFFFFFFFFFFFFFFFFFFFFFFFFFFFF AND PUSH20 0xFFFFFFFFFFFFFFFFFFFFFFFFFFFFFFFFFFFFFFFF AND DUP2 MSTORE PUSH1 0x20 ADD SWAP1 DUP2 MSTORE PUSH1 0x20 ADD PUSH0 KECCAK256 SWAP1 POP DUP2 DUP2 PUSH0 ADD PUSH0 PUSH2 0x100 EXP DUP2 SLOAD DUP2 PUSH20 0xFFFFFFFFFFFFFFFFFFFFFFFFFFFFFFFFFFFFFFFF MUL NOT AND SWAP1 DUP4 PUSH20 0xFFFFFFFFFFFFFFFFFFFFFFFFFFFFFFFFFFFFFFFF AND MUL OR SWAP1 SSTORE POP PUSH1 0x1 DUP2 PUSH1 0x2 ADD PUSH0 PUSH2 0x100 EXP DUP2 SLOAD DUP2 PUSH1 0xFF MUL NOT AND SWAP1 DUP4 ISZERO ISZERO MUL OR SWAP1 SSTORE POP TIMESTAMP DUP2 PUSH1 0x4 ADD DUP2 SWAP1 SSTORE POP DUP2 PUSH20 0xFFFFFFFFFFFFFFFFFFFFFFFFFFFFFFFFFFFFFFFF AND CALLER PUSH20 0xFFFFFFFFFFFFFFFFFFFFFFFFFFFFFFFFFFFFFFFF AND PUSH32 0x199098452639B249BEF6F727BC09CE903CECE47CA72A8518BEF9367AD39B6DE7 TIMESTAMP PUSH1 0x40 MLOAD PUSH2 0x79D SWAP2 SWAP1 PUSH2 0x1886 JUMP JUMPDEST PUSH1 0x40 MLOAD DUP1 SWAP2 SUB SWAP1 LOG3 PUSH2 0x7AE DUP3 PUSH2 0x1393 JUMP JUMPDEST POP PUSH2 0x7B7 PUSH2 0x1865 JUMP JUMPDEST POP JUMP JUMPDEST PUSH2 0x7C2 PUSH2 0x1346 JUMP JUMPDEST PUSH1 0x2 PUSH0 SWAP1 SLOAD SWAP1 PUSH2 0x100 EXP SWAP1 DIV PUSH20 0xFFFFFFFFFFFFFFFFFFFFFFFFFFFFFFFFFFFFFFFF AND PUSH20 0xFFFFFFFFFFFFFFFFFFFFFFFFFFFFFFFFFFFFFFFF AND CALLER PUSH20 0xFFFFFFFFFFFFFFFFFFFFFFFFFFFFFFFFFFFFFFFF AND EQ PUSH2 0x851 JUMPI PUSH1 0x40 MLOAD PUSH32 0x8C379A000000000000000000000000000000000000000000000000000000000 DUP2 MSTORE PUSH1 0x4 ADD PUSH2 0x848 SWAP1 PUSH2 0x205F JUMP JUMPDEST PUSH1 0x40 MLOAD DUP1 SWAP2 SUB SWAP1 REVERT JUMPDEST PUSH1 0x1 PUSH0 SWAP1 SLOAD SWAP1 PUSH2 0x100 EXP SWAP1 DIV PUSH20 0xFFFFFFFFFFFFFFFFFFFFFFFFFFFFFFFFFFFFFFFF AND PUSH20 0xFFFFFFFFFFFFFFFFFFFFFFFFFFFFFFFFFFFFFFFF AND PUSH4 0xA9059CBB PUSH1 0x2 PUSH0 SWAP1 SLOAD SWAP1 PUSH2 0x100 EXP SWAP1 DIV PUSH20 0xFFFFFFFFFFFFFFFFFFFFFFFFFFFFFFFFFFFFFFFF AND DUP4 PUSH1 0x40 MLOAD DUP4 PUSH4 0xFFFFFFFF AND PUSH1 0xE0 SHL DUP2 MSTORE PUSH1 0x4 ADD PUSH2 0x8CE SWAP3 SWAP2 SWAP1 PUSH2 0x207D JUMP JUMPDEST PUSH1 0x20 PUSH1 0x40 MLOAD DUP1 DUP4 SUB DUP2 PUSH0 DUP8 GAS CALL ISZERO DUP1 ISZERO PUSH2 0x8EA JUMPI RETURNDATASIZE PUSH0 DUP1 RETURNDATACOPY RETURNDATASIZE PUSH0 REVERT JUMPDEST POP POP POP POP PUSH1 0x40 MLOAD RETURNDATASIZE PUSH1 0x1F NOT PUSH1 0x1F DUP3 ADD AND DUP3 ADD DUP1 PUSH1 0x40 MSTORE POP DUP2 ADD SWAP1 PUSH2 0x90E SWAP2 SWAP1 PUSH2 0x1F5C JUMP JUMPDEST POP PUSH1 0x2 PUSH0 SWAP1 SLOAD SWAP1 PUSH2 0x100 EXP SWAP1 DIV PUSH20 0xFFFFFFFFFFFFFFFFFFFFFFFFFFFFFFFFFFFFFFFF AND PUSH20 0xFFFFFFFFFFFFFFFFFFFFFFFFFFFFFFFFFFFFFFFF AND PUSH32 0x884EDAD9CE6FA2440D8A54CC123490EB96D2768479D49FF9C7366125A9424364 DUP3 PUSH1 0x40 MLOAD PUSH2 0x976 SWAP2 SWAP1 PUSH2 0x1886 JUMP JUMPDEST PUSH1 0x40 MLOAD DUP1 SWAP2 SUB SWAP1 LOG2 PUSH2 0x986 PUSH2 0x1865 JUMP JUMPDEST POP JUMP JUMPDEST PUSH1 0x60 PUSH1 0xA PUSH0 DUP4 PUSH20 0xFFFFFFFFFFFFFFFFFFFFFFFFFFFFFFFFFFFFFFFF AND PUSH20 0xFFFFFFFFFFFFFFFFFFFFFFFFFFFFFFFFFFFFFFFF AND DUP2 MSTORE PUSH1 0x20 ADD SWAP1 DUP2 MSTORE PUSH1 0x20 ADD PUSH0 KECCAK256 PUSH1 0x8 ADD DUP1 SLOAD DUP1 PUSH1 0x20 MUL PUSH1 0x20 ADD PUSH1 0x40 MLOAD SWAP1 DUP2 ADD PUSH1 0x40 MSTORE DUP1 SWAP3 SWAP2 SWAP1 DUP2 DUP2 MSTORE PUSH1 0x20 ADD DUP3 DUP1 SLOAD DUP1 ISZERO PUSH2 0xA48 JUMPI PUSH1 0x20 MUL DUP3 ADD SWAP2 SWAP1 PUSH0 MSTORE PUSH1 0x20 PUSH0 KECCAK256 SWAP1 JUMPDEST DUP2 PUSH0 SWAP1 SLOAD SWAP1 PUSH2 0x100 EXP SWAP1 DIV PUSH20 0xFFFFFFFFFFFFFFFFFFFFFFFFFFFFFFFFFFFFFFFF AND PUSH20 0xFFFFFFFFFFFFFFFFFFFFFFFFFFFFFFFFFFFFFFFF AND DUP2 MSTORE PUSH1 0x20 ADD SWAP1 PUSH1 0x1 ADD SWAP1 DUP1 DUP4 GT PUSH2 0x9FF JUMPI JUMPDEST POP POP POP POP POP SWAP1 POP SWAP2 SWAP1 POP JUMP JUMPDEST PUSH1 0x2 PUSH0 SWAP1 SLOAD SWAP1 PUSH2 0x100 EXP SWAP1 DIV PUSH20 0xFFFFFFFFFFFFFFFFFFFFFFFFFFFFFFFFFFFFFFFF AND PUSH20 0xFFFFFFFFFFFFFFFFFFFFFFFFFFFFFFFFFFFFFFFF AND CALLER PUSH20 0xFFFFFFFFFFFFFFFFFFFFFFFFFFFFFFFFFFFFFFFF AND EQ PUSH2 0xAE3 JUMPI PUSH1 0x40 MLOAD PUSH32 0x8C379A000000000000000000000000000000000000000000000000000000000 DUP2 MSTORE PUSH1 0x4 ADD PUSH2 0xADA SWAP1 PUSH2 0x205F JUMP JUMPDEST PUSH1 0x40 MLOAD DUP1 SWAP2 SUB SWAP1 REVERT JUMPDEST PUSH1 0x63 DUP2 LT PUSH2 0xB26 JUMPI PUSH1 0x40 MLOAD PUSH32 0x8C379A000000000000000000000000000000000000000000000000000000000 DUP2 MSTORE PUSH1 0x4 ADD PUSH2 0xB1D SWAP1 PUSH2 0x20EE JUMP JUMPDEST PUSH1 0x40 MLOAD DUP1 SWAP2 SUB SWAP1 REVERT JUMPDEST PUSH8 0xDE0B6B3A7640000 DUP2 PUSH2 0xB3A SWAP2 SWAP1 PUSH2 0x2139 JUMP JUMPDEST PUSH1 0x3 DUP2 SWAP1 SSTORE POP POP JUMP JUMPDEST PUSH1 0x2 PUSH0 SWAP1 SLOAD SWAP1 PUSH2 0x100 EXP SWAP1 DIV PUSH20 0xFFFFFFFFFFFFFFFFFFFFFFFFFFFFFFFFFFFFFFFF AND PUSH20 0xFFFFFFFFFFFFFFFFFFFFFFFFFFFFFFFFFFFFFFFF AND CALLER PUSH20 0xFFFFFFFFFFFFFFFFFFFFFFFFFFFFFFFFFFFFFFFF AND EQ PUSH2 0xBD2 JUMPI PUSH1 0x40 MLOAD PUSH32 0x8C379A000000000000000000000000000000000000000000000000000000000 DUP2 MSTORE PUSH1 0x4 ADD PUSH2 0xBC9 SWAP1 PUSH2 0x205F JUMP JUMPDEST PUSH1 0x40 MLOAD DUP1 SWAP2 SUB SWAP1 REVERT JUMPDEST PUSH1 0x1 PUSH1 0x2 PUSH1 0x14 PUSH2 0x100 EXP DUP2 SLOAD DUP2 PUSH1 0xFF MUL NOT AND SWAP1 DUP4 ISZERO ISZERO MUL OR SWAP1 SSTORE POP JUMP JUMPDEST PUSH1 0x4 DUP2 PUSH1 0x5 DUP2 LT PUSH2 0xBFE JUMPI PUSH0 DUP1 REVERT JUMPDEST ADD PUSH0 SWAP2 POP SWAP1 POP SLOAD DUP2 JUMP JUMPDEST PUSH1 0x3 SLOAD DUP2 JUMP JUMPDEST PUSH1 0x2 PUSH0 SWAP1 SLOAD SWAP1 PUSH2 0x100 EXP SWAP1 DIV PUSH20 0xFFFFFFFFFFFFFFFFFFFFFFFFFFFFFFFFFFFFFFFF AND PUSH20 0xFFFFFFFFFFFFFFFFFFFFFFFFFFFFFFFFFFFFFFFF AND CALLER PUSH20 0xFFFFFFFFFFFFFFFFFFFFFFFFFFFFFFFFFFFFFFFF AND EQ PUSH2 0xC9D JUMPI PUSH1 0x40 MLOAD PUSH32 0x8C379A000000000000000000000000000000000000000000000000000000000 DUP2 MSTORE PUSH1 0x4 ADD PUSH2 0xC94 SWAP1 PUSH2 0x205F JUMP JUMPDEST PUSH1 0x40 MLOAD DUP1 SWAP2 SUB SWAP1 REVERT JUMPDEST PUSH0 PUSH20 0xFFFFFFFFFFFFFFFFFFFFFFFFFFFFFFFFFFFFFFFF AND DUP2 PUSH20 0xFFFFFFFFFFFFFFFFFFFFFFFFFFFFFFFFFFFFFFFF AND SUB PUSH2 0xD0B JUMPI PUSH1 0x40 MLOAD PUSH32 0x8C379A000000000000000000000000000000000000000000000000000000000 DUP2 MSTORE PUSH1 0x4 ADD PUSH2 0xD02 SWAP1 PUSH2 0x21C4 JUMP JUMPDEST PUSH1 0x40 MLOAD DUP1 SWAP2 SUB SWAP1 REVERT JUMPDEST DUP1 PUSH1 0x1 PUSH0 PUSH2 0x100 EXP DUP2 SLOAD DUP2 PUSH20 0xFFFFFFFFFFFFFFFFFFFFFFFFFFFFFFFFFFFFFFFF MUL NOT AND SWAP1 DUP4 PUSH20 0xFFFFFFFFFFFFFFFFFFFFFFFFFFFFFFFFFFFFFFFF AND MUL OR SWAP1 SSTORE POP POP JUMP JUMPDEST PUSH1 0x2 PUSH1 0x14 SWAP1 SLOAD SWAP1 PUSH2 0x100 EXP SWAP1 DIV PUSH1 0xFF AND DUP2 JUMP JUMPDEST PUSH1 0x1 PUSH0 SWAP1 SLOAD SWAP1 PUSH2 0x100 EXP SWAP1 DIV PUSH20 0xFFFFFFFFFFFFFFFFFFFFFFFFFFFFFFFFFFFFFFFF AND DUP2 JUMP JUMPDEST PUSH0 PUSH1 0x1 PUSH0 SWAP1 SLOAD SWAP1 PUSH2 0x100 EXP SWAP1 DIV PUSH20 0xFFFFFFFFFFFFFFFFFFFFFFFFFFFFFFFFFFFFFFFF AND PUSH20 0xFFFFFFFFFFFFFFFFFFFFFFFFFFFFFFFFFFFFFFFF AND PUSH4 0x70A08231 ADDRESS PUSH1 0x40 MLOAD DUP3 PUSH4 0xFFFFFFFF AND PUSH1 0xE0 SHL DUP2 MSTORE PUSH1 0x4 ADD PUSH2 0xDE1 SWAP2 SWAP1 PUSH2 0x1C34 JUMP JUMPDEST PUSH1 0x20 PUSH1 0x40 MLOAD DUP1 DUP4 SUB DUP2 DUP7 GAS STATICCALL ISZERO DUP1 ISZERO PUSH2 0xDFC JUMPI RETURNDATASIZE PUSH0 DUP1 RETURNDATACOPY RETURNDATASIZE PUSH0 REVERT JUMPDEST POP POP POP POP PUSH1 0x40 MLOAD RETURNDATASIZE PUSH1 0x1F NOT PUSH1 0x1F DUP3 ADD AND DUP3 ADD DUP1 PUSH1 0x40 MSTORE POP DUP2 ADD SWAP1 PUSH2 0xE20 SWAP2 SWAP1 PUSH2 0x21F6 JUMP JUMPDEST SWAP1 POP SWAP1 JUMP JUMPDEST PUSH1 0xA PUSH1 0x20 MSTORE DUP1 PUSH0 MSTORE PUSH1 0x40 PUSH0 KECCAK256 PUSH0 SWAP2 POP SWAP1 POP DUP1 PUSH0 ADD PUSH0 SWAP1 SLOAD SWAP1 PUSH2 0x100 EXP SWAP1 DIV PUSH20 0xFFFFFFFFFFFFFFFFFFFFFFFFFFFFFFFFFFFFFFFF AND SWAP1 DUP1 PUSH1 0x1 ADD SLOAD SWAP1 DUP1 PUSH1 0x2 ADD PUSH0 SWAP1 SLOAD SWAP1 PUSH2 0x100 EXP SWAP1 DIV PUSH1 0xFF AND SWAP1 DUP1 PUSH1 0x3 ADD SLOAD SWAP1 DUP1 PUSH1 0x4 ADD SLOAD SWAP1 DUP1 PUSH1 0x6 ADD SLOAD SWAP1 DUP1 PUSH1 0x7 ADD SLOAD SWAP1 POP DUP8 JUMP JUMPDEST PUSH1 0x2 PUSH0 SWAP1 SLOAD SWAP1 PUSH2 0x100 EXP SWAP1 DIV PUSH20 0xFFFFFFFFFFFFFFFFFFFFFFFFFFFFFFFFFFFFFFFF AND PUSH20 0xFFFFFFFFFFFFFFFFFFFFFFFFFFFFFFFFFFFFFFFF AND CALLER PUSH20 0xFFFFFFFFFFFFFFFFFFFFFFFFFFFFFFFFFFFFFFFF AND EQ PUSH2 0xF1D JUMPI PUSH1 0x40 MLOAD PUSH32 0x8C379A000000000000000000000000000000000000000000000000000000000 DUP2 MSTORE PUSH1 0x4 ADD PUSH2 0xF14 SWAP1 PUSH2 0x205F JUMP JUMPDEST PUSH1 0x40 MLOAD DUP1 SWAP2 SUB SWAP1 REVERT JUMPDEST PUSH0 PUSH1 0x2 PUSH1 0x14 PUSH2 0x100 EXP DUP2 SLOAD DUP2 PUSH1 0xFF MUL NOT AND SWAP1 DUP4 ISZERO ISZERO MUL OR SWAP1 SSTORE POP JUMP JUMPDEST PUSH0 DUP1 PUSH0 DUP1 PUSH0 DUP1 PUSH0 DUP1 PUSH1 0xA PUSH0 DUP11 PUSH20 0xFFFFFFFFFFFFFFFFFFFFFFFFFFFFFFFFFFFFFFFF AND PUSH20 0xFFFFFFFFFFFFFFFFFFFFFFFFFFFFFFFFFFFFFFFF AND DUP2 MSTORE PUSH1 0x20 ADD SWAP1 DUP2 MSTORE PUSH1 0x20 ADD PUSH0 KECCAK256 SWAP1 POP DUP1 PUSH0 ADD PUSH0 SWAP1 SLOAD SWAP1 PUSH2 0x100 EXP SWAP1 DIV PUSH20 0xFFFFFFFFFFFFFFFFFFFFFFFFFFFFFFFFFFFFFFFF AND DUP2 PUSH1 0x1 ADD SLOAD DUP3 PUSH1 0x3 ADD SLOAD DUP4 PUSH1 0x6 ADD SLOAD DUP5 PUSH1 0x7 ADD SLOAD DUP6 PUSH1 0x2 ADD PUSH0 SWAP1 SLOAD SWAP1 PUSH2 0x100 EXP SWAP1 DIV PUSH1 0xFF AND DUP7 PUSH1 0x4 ADD SLOAD SWAP8 POP SWAP8 POP SWAP8 POP SWAP8 POP SWAP8 POP SWAP8 POP SWAP8 POP POP SWAP2 SWAP4 SWAP6 SWAP8 SWAP1 SWAP3 SWAP5 SWAP7 POP JUMP JUMPDEST PUSH1 0x60 PUSH0 PUSH1 0xA PUSH0 DUP7 PUSH20 0xFFFFFFFFFFFFFFFFFFFFFFFFFFFFFFFFFFFFFFFF AND PUSH20 0xFFFFFFFFFFFFFFFFFFFFFFFFFFFFFFFFFFFFFFFF AND DUP2 MSTORE PUSH1 0x20 ADD SWAP1 DUP2 MSTORE PUSH1 0x20 ADD PUSH0 KECCAK256 PUSH1 0x5 ADD SWAP1 POP PUSH0 DUP4 DUP6 PUSH2 0x1039 SWAP2 SWAP1 PUSH2 0x2221 JUMP JUMPDEST SWAP1 POP DUP2 DUP1 SLOAD SWAP1 POP DUP2 GT ISZERO PUSH2 0x104F JUMPI DUP2 DUP1 SLOAD SWAP1 POP SWAP1 POP JUMPDEST PUSH0 DUP6 DUP3 PUSH2 0x105C SWAP2 SWAP1 PUSH2 0x2254 JUMP JUMPDEST PUSH8 0xFFFFFFFFFFFFFFFF DUP2 GT ISZERO PUSH2 0x1075 JUMPI PUSH2 0x1074 PUSH2 0x2287 JUMP JUMPDEST JUMPDEST PUSH1 0x40 MLOAD SWAP1 DUP1 DUP3 MSTORE DUP1 PUSH1 0x20 MUL PUSH1 0x20 ADD DUP3 ADD PUSH1 0x40 MSTORE DUP1 ISZERO PUSH2 0x10A3 JUMPI DUP2 PUSH1 0x20 ADD PUSH1 0x20 DUP3 MUL DUP1 CALLDATASIZE DUP4 CALLDATACOPY DUP1 DUP3 ADD SWAP2 POP POP SWAP1 POP JUMPDEST POP SWAP1 POP PUSH0 DUP7 SWAP1 POP JUMPDEST DUP3 DUP2 LT ISZERO PUSH2 0x1153 JUMPI DUP4 DUP2 DUP2 SLOAD DUP2 LT PUSH2 0x10C6 JUMPI PUSH2 0x10C5 PUSH2 0x22B4 JUMP JUMPDEST JUMPDEST SWAP1 PUSH0 MSTORE PUSH1 0x20 PUSH0 KECCAK256 ADD PUSH0 SWAP1 SLOAD SWAP1 PUSH2 0x100 EXP SWAP1 DIV PUSH20 0xFFFFFFFFFFFFFFFFFFFFFFFFFFFFFFFFFFFFFFFF AND DUP3 DUP9 DUP4 PUSH2 0x10FB SWAP2 SWAP1 PUSH2 0x2254 JUMP JUMPDEST DUP2 MLOAD DUP2 LT PUSH2 0x110C JUMPI PUSH2 0x110B PUSH2 0x22B4 JUMP JUMPDEST JUMPDEST PUSH1 0x20 MUL PUSH1 0x20 ADD ADD SWAP1 PUSH20 0xFFFFFFFFFFFFFFFFFFFFFFFFFFFFFFFFFFFFFFFF AND SWAP1 DUP2 PUSH20 0xFFFFFFFFFFFFFFFFFFFFFFFFFFFFFFFFFFFFFFFF AND DUP2 MSTORE POP POP DUP1 DUP1 PUSH1 0x1 ADD SWAP2 POP POP PUSH2 0x10AB JUMP JUMPDEST POP DUP1 SWAP4 POP POP POP POP SWAP4 SWAP3 POP POP POP JUMP JUMPDEST PUSH1 0x2 PUSH0 SWAP1 SLOAD SWAP1 PUSH2 0x100 EXP SWAP1 DIV PUSH20 0xFFFFFFFFFFFFFFFFFFFFFFFFFFFFFFFFFFFFFFFF AND PUSH20 0xFFFFFFFFFFFFFFFFFFFFFFFFFFFFFFFFFFFFFFFF AND CALLER PUSH20 0xFFFFFFFFFFFFFFFFFFFFFFFFFFFFFFFFFFFFFFFF AND EQ PUSH2 0x11F0 JUMPI PUSH1 0x40 MLOAD PUSH32 0x8C379A000000000000000000000000000000000000000000000000000000000 DUP2 MSTORE PUSH1 0x4 ADD PUSH2 0x11E7 SWAP1 PUSH2 0x205F JUMP JUMPDEST PUSH1 0x40 MLOAD DUP1 SWAP2 SUB SWAP1 REVERT JUMPDEST PUSH0 PUSH20 0xFFFFFFFFFFFFFFFFFFFFFFFFFFFFFFFFFFFFFFFF AND DUP2 PUSH20 0xFFFFFFFFFFFFFFFFFFFFFFFFFFFFFFFFFFFFFFFF AND SUB PUSH2 0x125E JUMPI PUSH1 0x40 MLOAD PUSH32 0x8C379A000000000000000000000000000000000000000000000000000000000 DUP2 MSTORE PUSH1 0x4 ADD PUSH2 0x1255 SWAP1 PUSH2 0x232B JUMP JUMPDEST PUSH1 0x40 MLOAD DUP1 SWAP2 SUB SWAP1 REVERT JUMPDEST PUSH0 PUSH1 0x2 PUSH0 SWAP1 SLOAD SWAP1 PUSH2 0x100 EXP SWAP1 DIV PUSH20 0xFFFFFFFFFFFFFFFFFFFFFFFFFFFFFFFFFFFFFFFF AND SWAP1 POP DUP2 PUSH1 0x2 PUSH0 PUSH2 0x100 EXP DUP2 SLOAD DUP2 PUSH20 0xFFFFFFFFFFFFFFFFFFFFFFFFFFFFFFFFFFFFFFFF MUL NOT AND SWAP1 DUP4 PUSH20 0xFFFFFFFFFFFFFFFFFFFFFFFFFFFFFFFFFFFFFFFF AND MUL OR SWAP1 SSTORE POP DUP2 PUSH20 0xFFFFFFFFFFFFFFFFFFFFFFFFFFFFFFFFFFFFFFFF AND DUP2 PUSH20 0xFFFFFFFFFFFFFFFFFFFFFFFFFFFFFFFFFFFFFFFF AND PUSH32 0x8BE0079C531659141344CD1FD0A4F28419497F9722A3DAAFE3B4186F6B6457E0 PUSH1 0x40 MLOAD PUSH1 0x40 MLOAD DUP1 SWAP2 SUB SWAP1 LOG3 POP POP JUMP JUMPDEST PUSH1 0x2 PUSH0 SWAP1 SLOAD SWAP1 PUSH2 0x100 EXP SWAP1 DIV PUSH20 0xFFFFFFFFFFFFFFFFFFFFFFFFFFFFFFFFFFFFFFFF AND DUP2 JUMP JUMPDEST PUSH1 0x2 PUSH0 SLOAD SUB PUSH2 0x138A JUMPI PUSH1 0x40 MLOAD PUSH32 0x8C379A000000000000000000000000000000000000000000000000000000000 DUP2 MSTORE PUSH1 0x4 ADD PUSH2 0x1381 SWAP1 PUSH2 0x2393 JUMP JUMPDEST PUSH1 0x40 MLOAD DUP1 SWAP2 SUB SWAP1 REVERT JUMPDEST PUSH1 0x2 PUSH0 DUP2 SWAP1 SSTORE POP JUMP JUMPDEST PUSH0 DUP2 SWAP1 POP PUSH0 JUMPDEST PUSH1 0x5 DUP2 LT DUP1 ISZERO PUSH2 0x13AA JUMPI POP PUSH1 0x9 SLOAD DUP2 LT JUMPDEST ISZERO PUSH2 0x1860 JUMPI PUSH0 PUSH20 0xFFFFFFFFFFFFFFFFFFFFFFFFFFFFFFFFFFFFFFFF AND DUP3 PUSH20 0xFFFFFFFFFFFFFFFFFFFFFFFFFFFFFFFFFFFFFFFF AND SUB ISZERO PUSH2 0x1860 JUMPI PUSH0 PUSH1 0x64 PUSH1 0x4 DUP4 PUSH1 0x5 DUP2 LT PUSH2 0x13FA JUMPI PUSH2 0x13F9 PUSH2 0x22B4 JUMP JUMPDEST JUMPDEST ADD SLOAD PUSH1 0x3 SLOAD PUSH2 0x1409 SWAP2 SWAP1 PUSH2 0x2139 JUMP JUMPDEST PUSH2 0x1413 SWAP2 SWAP1 PUSH2 0x23DE JUMP JUMPDEST SWAP1 POP PUSH1 0x1 PUSH0 SWAP1 SLOAD SWAP1 PUSH2 0x100 EXP SWAP1 DIV PUSH20 0xFFFFFFFFFFFFFFFFFFFFFFFFFFFFFFFFFFFFFFFF AND PUSH20 0xFFFFFFFFFFFFFFFFFFFFFFFFFFFFFFFFFFFFFFFF AND PUSH4 0xA9059CBB DUP5 DUP4 PUSH1 0x40 MLOAD DUP4 PUSH4 0xFFFFFFFF AND PUSH1 0xE0 SHL DUP2 MSTORE PUSH1 0x4 ADD PUSH2 0x1471 SWAP3 SWAP2 SWAP1 PUSH2 0x207D JUMP JUMPDEST PUSH1 0x20 PUSH1 0x40 MLOAD DUP1 DUP4 SUB DUP2 PUSH0 DUP8 GAS CALL ISZERO DUP1 ISZERO PUSH2 0x148D JUMPI RETURNDATASIZE PUSH0 DUP1 RETURNDATACOPY RETURNDATASIZE PUSH0 REVERT JUMPDEST POP POP POP POP PUSH1 0x40 MLOAD RETURNDATASIZE PUSH1 0x1F NOT PUSH1 0x1F DUP3 ADD AND DUP3 ADD DUP1 PUSH1 0x40 MSTORE POP DUP2 ADD SWAP1 PUSH2 0x14B1 SWAP2 SWAP1 PUSH2 0x1F5C JUMP JUMPDEST PUSH2 0x14F0 JUMPI PUSH1 0x40 MLOAD PUSH32 0x8C379A000000000000000000000000000000000000000000000000000000000 DUP2 MSTORE PUSH1 0x4 ADD PUSH2 0x14E7 SWAP1 PUSH2 0x2458 JUMP JUMPDEST PUSH1 0x40 MLOAD DUP1 SWAP2 SUB SWAP1 REVERT JUMPDEST DUP3 PUSH20 0xFFFFFFFFFFFFFFFFFFFFFFFFFFFFFFFFFFFFFFFF AND PUSH32 0x83B5EADB65FB8FC1B70A3B205B38BB0C6A3E15E14BCBC9D4F366D6C772E6D83B PUSH1 0x1 DUP5 PUSH2 0x1535 SWAP2 SWAP1 PUSH2 0x2221 JUMP JUMPDEST DUP4 PUSH1 0x40 MLOAD PUSH2 0x1544 SWAP3 SWAP2 SWAP1 PUSH2 0x2476 JUMP JUMPDEST PUSH1 0x40 MLOAD DUP1 SWAP2 SUB SWAP1 LOG2 PUSH0 DUP3 SUB PUSH2 0x16A1 JUMPI DUP1 PUSH1 0xA PUSH0 DUP6 PUSH20 0xFFFFFFFFFFFFFFFFFFFFFFFFFFFFFFFFFFFFFFFF AND PUSH20 0xFFFFFFFFFFFFFFFFFFFFFFFFFFFFFFFFFFFFFFFF AND DUP2 MSTORE PUSH1 0x20 ADD SWAP1 DUP2 MSTORE PUSH1 0x20 ADD PUSH0 KECCAK256 PUSH1 0x1 ADD PUSH0 DUP3 DUP3 SLOAD PUSH2 0x15A2 SWAP2 SWAP1 PUSH2 0x2221 JUMP JUMPDEST SWAP3 POP POP DUP2 SWAP1 SSTORE POP PUSH1 0xA PUSH0 DUP5 PUSH20 0xFFFFFFFFFFFFFFFFFFFFFFFFFFFFFFFFFFFFFFFF AND PUSH20 0xFFFFFFFFFFFFFFFFFFFFFFFFFFFFFFFFFFFFFFFF AND DUP2 MSTORE PUSH1 0x20 ADD SWAP1 DUP2 MSTORE PUSH1 0x20 ADD PUSH0 KECCAK256 PUSH1 0x5 ADD CALLER SWAP1 DUP1 PUSH1 0x1 DUP2 SLOAD ADD DUP1 DUP3 SSTORE DUP1 SWAP2 POP POP PUSH1 0x1 SWAP1 SUB SWAP1 PUSH0 MSTORE PUSH1 0x20 PUSH0 KECCAK256 ADD PUSH0 SWAP1 SWAP2 SWAP1 SWAP2 SWAP1 SWAP2 PUSH2 0x100 EXP DUP2 SLOAD DUP2 PUSH20 0xFFFFFFFFFFFFFFFFFFFFFFFFFFFFFFFFFFFFFFFF MUL NOT AND SWAP1 DUP4 PUSH20 0xFFFFFFFFFFFFFFFFFFFFFFFFFFFFFFFFFFFFFFFF AND MUL OR SWAP1 SSTORE POP PUSH1 0xA PUSH0 DUP5 PUSH20 0xFFFFFFFFFFFFFFFFFFFFFFFFFFFFFFFFFFFFFFFF AND PUSH20 0xFFFFFFFFFFFFFFFFFFFFFFFFFFFFFFFFFFFFFFFF AND DUP2 MSTORE PUSH1 0x20 ADD SWAP1 DUP2 MSTORE PUSH1 0x20 ADD PUSH0 KECCAK256 PUSH1 0x3 ADD PUSH0 DUP2 SLOAD DUP1 SWAP3 SWAP2 SWAP1 PUSH2 0x1697 SWAP1 PUSH2 0x249D JUMP JUMPDEST SWAP2 SWAP1 POP SSTORE POP PUSH2 0x1796 JUMP JUMPDEST DUP1 PUSH1 0xA PUSH0 DUP6 PUSH20 0xFFFFFFFFFFFFFFFFFFFFFFFFFFFFFFFFFFFFFFFF AND PUSH20 0xFFFFFFFFFFFFFFFFFFFFFFFFFFFFFFFFFFFFFFFF AND DUP2 MSTORE PUSH1 0x20 ADD SWAP1 DUP2 MSTORE PUSH1 0x20 ADD PUSH0 KECCAK256 PUSH1 0x6 ADD PUSH0 DUP3 DUP3 SLOAD PUSH2 0x16F0 SWAP2 SWAP1 PUSH2 0x2221 JUMP JUMPDEST SWAP3 POP POP DUP2 SWAP1 SSTORE POP PUSH1 0xA PUSH0 DUP5 PUSH20 0xFFFFFFFFFFFFFFFFFFFFFFFFFFFFFFFFFFFFFFFF AND PUSH20 0xFFFFFFFFFFFFFFFFFFFFFFFFFFFFFFFFFFFFFFFF AND DUP2 MSTORE PUSH1 0x20 ADD SWAP1 DUP2 MSTORE PUSH1 0x20 ADD PUSH0 KECCAK256 PUSH1 0x8 ADD CALLER SWAP1 DUP1 PUSH1 0x1 DUP2 SLOAD ADD DUP1 DUP3 SSTORE DUP1 SWAP2 POP POP PUSH1 0x1 SWAP1 SUB SWAP1 PUSH0 MSTORE PUSH1 0x20 PUSH0 KECCAK256 ADD PUSH0 SWAP1 SWAP2 SWAP1 SWAP2 SWAP1 SWAP2 PUSH2 0x100 EXP DUP2 SLOAD DUP2 PUSH20 0xFFFFFFFFFFFFFFFFFFFFFFFFFFFFFFFFFFFFFFFF MUL NOT AND SWAP1 DUP4 PUSH20 0xFFFFFFFFFFFFFFFFFFFFFFFFFFFFFFFFFFFFFFFF AND MUL OR SWAP1 SSTORE POP JUMPDEST PUSH1 0xA PUSH0 DUP5 PUSH20 0xFFFFFFFFFFFFFFFFFFFFFFFFFFFFFFFFFFFFFFFF AND PUSH20 0xFFFFFFFFFFFFFFFFFFFFFFFFFFFFFFFFFFFFFFFF AND DUP2 MSTORE PUSH1 0x20 ADD SWAP1 DUP2 MSTORE PUSH1 0x20 ADD PUSH0 KECCAK256 PUSH1 0x7 ADD PUSH0 DUP2 SLOAD DUP1 SWAP3 SWAP2 SWAP1 PUSH2 0x17E6 SWAP1 PUSH2 0x249D JUMP JUMPDEST SWAP2 SWAP1 POP SSTORE POP PUSH1 0xA PUSH0 DUP5 PUSH20 0xFFFFFFFFFFFFFFFFFFFFFFFFFFFFFFFFFFFFFFFF AND PUSH20 0xFFFFFFFFFFFFFFFFFFFFFFFFFFFFFFFFFFFFFFFF AND DUP2 MSTORE PUSH1 0x20 ADD SWAP1 DUP2 MSTORE PUSH1 0x20 ADD PUSH0 KECCAK256 PUSH0 ADD PUSH0 SWAP1 SLOAD SWAP1 PUSH2 0x100 EXP SWAP1 DIV PUSH20 0xFFFFFFFFFFFFFFFFFFFFFFFFFFFFFFFFFFFFFFFF AND SWAP3 POP POP DUP1 DUP1 PUSH2 0x1858 SWAP1 PUSH2 0x249D JUMP JUMPDEST SWAP2 POP POP PUSH2 0x1399 JUMP JUMPDEST POP POP POP JUMP JUMPDEST PUSH1 0x1 PUSH0 DUP2 SWAP1 SSTORE POP JUMP JUMPDEST PUSH0 DUP2 SWAP1 POP SWAP2 SWAP1 POP JUMP JUMPDEST PUSH2 0x1880 DUP2 PUSH2 0x186E JUMP JUMPDEST DUP3 MSTORE POP POP JUMP JUMPDEST PUSH0 PUSH1 0x20 DUP3 ADD SWAP1 POP PUSH2 0x1899 PUSH0 DUP4 ADD DUP5 PUSH2 0x1877 JUMP JUMPDEST SWAP3 SWAP2 POP POP JUMP JUMPDEST PUSH0 DUP1 REVERT JUMPDEST PUSH0 PUSH20 0xFFFFFFFFFFFFFFFFFFFFFFFFFFFFFFFFFFFFFFFF DUP3 AND SWAP1 POP SWAP2 SWAP1 POP JUMP JUMPDEST PUSH0 PUSH2 0x18CC DUP3 PUSH2 0x18A3 JUMP JUMPDEST SWAP1 POP SWAP2 SWAP1 POP JUMP JUMPDEST PUSH2 0x18DC DUP2 PUSH2 0x18C2 JUMP JUMPDEST DUP2 EQ PUSH2 0x18E6 JUMPI PUSH0 DUP1 REVERT JUMPDEST POP JUMP JUMPDEST PUSH0 DUP2 CALLDATALOAD SWAP1 POP PUSH2 0x18F7 DUP2 PUSH2 0x18D3 JUMP JUMPDEST SWAP3 SWAP2 POP POP JUMP JUMPDEST PUSH0 PUSH1 0x20 DUP3 DUP5 SUB SLT ISZERO PUSH2 0x1912 JUMPI PUSH2 0x1911 PUSH2 0x189F JUMP JUMPDEST JUMPDEST PUSH0 PUSH2 0x191F DUP5 DUP3 DUP6 ADD PUSH2 0x18E9 JUMP JUMPDEST SWAP2 POP POP SWAP3 SWAP2 POP POP JUMP JUMPDEST PUSH2 0x1931 DUP2 PUSH2 0x186E JUMP JUMPDEST DUP2 EQ PUSH2 0x193B JUMPI PUSH0 DUP1 REVERT JUMPDEST POP JUMP JUMPDEST PUSH0 DUP2 CALLDATALOAD SWAP1 POP PUSH2 0x194C DUP2 PUSH2 0x1928 JUMP JUMPDEST SWAP3 SWAP2 POP POP JUMP JUMPDEST PUSH0 PUSH1 0x20 DUP3 DUP5 SUB SLT ISZERO PUSH2 0x1967 JUMPI PUSH2 0x1966 PUSH2 0x189F JUMP JUMPDEST JUMPDEST PUSH0 PUSH2 0x1974 DUP5 DUP3 DUP6 ADD PUSH2 0x193E JUMP JUMPDEST SWAP2 POP POP SWAP3 SWAP2 POP POP JUMP JUMPDEST PUSH0 DUP2 MLOAD SWAP1 POP SWAP2 SWAP1 POP JUMP JUMPDEST PUSH0 DUP3 DUP3 MSTORE PUSH1 0x20 DUP3 ADD SWAP1 POP SWAP3 SWAP2 POP POP JUMP JUMPDEST PUSH0 DUP2 SWAP1 POP PUSH1 0x20 DUP3 ADD SWAP1 POP SWAP2 SWAP1 POP JUMP JUMPDEST PUSH2 0x19AF DUP2 PUSH2 0x18C2 JUMP JUMPDEST DUP3 MSTORE POP POP JUMP JUMPDEST PUSH0 PUSH2 0x19C0 DUP4 DUP4 PUSH2 0x19A6 JUMP JUMPDEST PUSH1 0x20 DUP4 ADD SWAP1 POP SWAP3 SWAP2 POP POP JUMP JUMPDEST PUSH0 PUSH1 0x20 DUP3 ADD SWAP1 POP SWAP2 SWAP1 POP JUMP JUMPDEST PUSH0 PUSH2 0x19E2 DUP3 PUSH2 0x197D JUMP JUMPDEST PUSH2 0x19EC DUP2 DUP6 PUSH2 0x1987 JUMP JUMPDEST SWAP4 POP PUSH2 0x19F7 DUP4 PUSH2 0x1997 JUMP JUMPDEST DUP1 PUSH0 JUMPDEST DUP4 DUP2 LT ISZERO PUSH2 0x1A27 JUMPI DUP2 MLOAD PUSH2 0x1A0E DUP9 DUP3 PUSH2 0x19B5 JUMP JUMPDEST SWAP8 POP PUSH2 0x1A19 DUP4 PUSH2 0x19CC JUMP JUMPDEST SWAP3 POP POP PUSH1 0x1 DUP2 ADD SWAP1 POP PUSH2 0x19FA JUMP JUMPDEST POP DUP6 SWAP4 POP POP POP POP SWAP3 SWAP2 POP POP JUMP JUMPDEST PUSH0 PUSH1 0x20 DUP3 ADD SWAP1 POP DUP2 DUP2 SUB PUSH0 DUP4 ADD MSTORE PUSH2 0x1A4C DUP2 DUP5 PUSH2 0x19D8 JUMP JUMPDEST SWAP1 POP SWAP3 SWAP2 POP POP JUMP JUMPDEST PUSH0 DUP2 ISZERO ISZERO SWAP1 POP SWAP2 SWAP1 POP JUMP JUMPDEST PUSH2 0x1A68 DUP2 PUSH2 0x1A54 JUMP JUMPDEST DUP3 MSTORE POP POP JUMP JUMPDEST PUSH0 PUSH1 0x20 DUP3 ADD SWAP1 POP PUSH2 0x1A81 PUSH0 DUP4 ADD DUP5 PUSH2 0x1A5F JUMP JUMPDEST SWAP3 SWAP2 POP POP JUMP JUMPDEST PUSH0 DUP2 SWAP1 POP SWAP2 SWAP1 POP JUMP JUMPDEST PUSH0 PUSH2 0x1AAA PUSH2 0x1AA5 PUSH2 0x1AA0 DUP5 PUSH2 0x18A3 JUMP JUMPDEST PUSH2 0x1A87 JUMP JUMPDEST PUSH2 0x18A3 JUMP JUMPDEST SWAP1 POP SWAP2 SWAP1 POP JUMP JUMPDEST PUSH0 PUSH2 0x1ABB DUP3 PUSH2 0x1A90 JUMP JUMPDEST SWAP1 POP SWAP2 SWAP1 POP JUMP JUMPDEST PUSH0 PUSH2 0x1ACC DUP3 PUSH2 0x1AB1 JUMP JUMPDEST SWAP1 POP SWAP2 SWAP1 POP JUMP JUMPDEST PUSH2 0x1ADC DUP2 PUSH2 0x1AC2 JUMP JUMPDEST DUP3 MSTORE POP POP JUMP JUMPDEST PUSH0 PUSH1 0x20 DUP3 ADD SWAP1 POP PUSH2 0x1AF5 PUSH0 DUP4 ADD DUP5 PUSH2 0x1AD3 JUMP JUMPDEST SWAP3 SWAP2 POP POP JUMP JUMPDEST PUSH2 0x1B04 DUP2 PUSH2 0x18C2 JUMP JUMPDEST DUP3 MSTORE POP POP JUMP JUMPDEST PUSH0 PUSH1 0xE0 DUP3 ADD SWAP1 POP PUSH2 0x1B1D PUSH0 DUP4 ADD DUP11 PUSH2 0x1AFB JUMP JUMPDEST PUSH2 0x1B2A PUSH1 0x20 DUP4 ADD DUP10 PUSH2 0x1877 JUMP JUMPDEST PUSH2 0x1B37 PUSH1 0x40 DUP4 ADD DUP9 PUSH2 0x1A5F JUMP JUMPDEST PUSH2 0x1B44 PUSH1 0x60 DUP4 ADD DUP8 PUSH2 0x1877 JUMP JUMPDEST PUSH2 0x1B51 PUSH1 0x80 DUP4 ADD DUP7 PUSH2 0x1877 JUMP JUMPDEST PUSH2 0x1B5E PUSH1 0xA0 DUP4 ADD DUP6 PUSH2 0x1877 JUMP JUMPDEST PUSH2 0x1B6B PUSH1 0xC0 DUP4 ADD DUP5 PUSH2 0x1877 JUMP JUMPDEST SWAP9 SWAP8 POP POP POP POP POP POP POP POP JUMP JUMPDEST PUSH0 PUSH1 0xE0 DUP3 ADD SWAP1 POP PUSH2 0x1B8A PUSH0 DUP4 ADD DUP11 PUSH2 0x1AFB JUMP JUMPDEST PUSH2 0x1B97 PUSH1 0x20 DUP4 ADD DUP10 PUSH2 0x1877 JUMP JUMPDEST PUSH2 0x1BA4 PUSH1 0x40 DUP4 ADD DUP9 PUSH2 0x1877 JUMP JUMPDEST PUSH2 0x1BB1 PUSH1 0x60 DUP4 ADD DUP8 PUSH2 0x1877 JUMP JUMPDEST PUSH2 0x1BBE PUSH1 0x80 DUP4 ADD DUP7 PUSH2 0x1877 JUMP JUMPDEST PUSH2 0x1BCB PUSH1 0xA0 DUP4 ADD DUP6 PUSH2 0x1A5F JUMP JUMPDEST PUSH2 0x1BD8 PUSH1 0xC0 DUP4 ADD DUP5 PUSH2 0x1877 JUMP JUMPDEST SWAP9 SWAP8 POP POP POP POP POP POP POP POP JUMP JUMPDEST PUSH0 DUP1 PUSH0 PUSH1 0x60 DUP5 DUP7 SUB SLT ISZERO PUSH2 0x1BFB JUMPI PUSH2 0x1BFA PUSH2 0x189F JUMP JUMPDEST JUMPDEST PUSH0 PUSH2 0x1C08 DUP7 DUP3 DUP8 ADD PUSH2 0x18E9 JUMP JUMPDEST SWAP4 POP POP PUSH1 0x20 PUSH2 0x1C19 DUP7 DUP3 DUP8 ADD PUSH2 0x193E JUMP JUMPDEST SWAP3 POP POP PUSH1 0x40 PUSH2 0x1C2A DUP7 DUP3 DUP8 ADD PUSH2 0x193E JUMP JUMPDEST SWAP2 POP POP SWAP3 POP SWAP3 POP SWAP3 JUMP JUMPDEST PUSH0 PUSH1 0x20 DUP3 ADD SWAP1 POP PUSH2 0x1C47 PUSH0 DUP4 ADD DUP5 PUSH2 0x1AFB JUMP JUMPDEST SWAP3 SWAP2 POP POP JUMP JUMPDEST PUSH0 DUP3 DUP3 MSTORE PUSH1 0x20 DUP3 ADD SWAP1 POP SWAP3 SWAP2 POP POP JUMP JUMPDEST PUSH32 0x436F6E7472616374206973207061757365642062792061646D696E20736F2075 PUSH0 DUP3 ADD MSTORE PUSH32 0x2063616E206E6F7420706572666F726D20616E797468696E6720696E20746869 PUSH1 0x20 DUP3 ADD MSTORE PUSH32 0x7320636F6E747261637421000000000000000000000000000000000000000000 PUSH1 0x40 DUP3 ADD MSTORE POP JUMP JUMPDEST PUSH0 PUSH2 0x1CDD PUSH1 0x4B DUP4 PUSH2 0x1C4D JUMP JUMPDEST SWAP2 POP PUSH2 0x1CE8 DUP3 PUSH2 0x1C5D JUMP JUMPDEST PUSH1 0x60 DUP3 ADD SWAP1 POP SWAP2 SWAP1 POP JUMP JUMPDEST PUSH0 PUSH1 0x20 DUP3 ADD SWAP1 POP DUP2 DUP2 SUB PUSH0 DUP4 ADD MSTORE PUSH2 0x1D0A DUP2 PUSH2 0x1CD1 JUMP JUMPDEST SWAP1 POP SWAP2 SWAP1 POP JUMP JUMPDEST PUSH32 0x496E76616C696420726566657272657220616464726573730000000000000000 PUSH0 DUP3 ADD MSTORE POP JUMP JUMPDEST PUSH0 PUSH2 0x1D45 PUSH1 0x18 DUP4 PUSH2 0x1C4D JUMP JUMPDEST SWAP2 POP PUSH2 0x1D50 DUP3 PUSH2 0x1D11 JUMP JUMPDEST PUSH1 0x20 DUP3 ADD SWAP1 POP SWAP2 SWAP1 POP JUMP JUMPDEST PUSH0 PUSH1 0x20 DUP3 ADD SWAP1 POP DUP2 DUP2 SUB PUSH0 DUP4 ADD MSTORE PUSH2 0x1D72 DUP2 PUSH2 0x1D39 JUMP JUMPDEST SWAP1 POP SWAP2 SWAP1 POP JUMP JUMPDEST PUSH32 0x5468697320726566657272616C206163636F756E74206973206E6F7420726567 PUSH0 DUP3 ADD MSTORE PUSH32 0x6973746572656421000000000000000000000000000000000000000000000000 PUSH1 0x20 DUP3 ADD MSTORE POP JUMP JUMPDEST PUSH0 PUSH2 0x1DD3 PUSH1 0x28 DUP4 PUSH2 0x1C4D JUMP JUMPDEST SWAP2 POP PUSH2 0x1DDE DUP3 PUSH2 0x1D79 JUMP JUMPDEST PUSH1 0x40 DUP3 ADD SWAP1 POP SWAP2 SWAP1 POP JUMP JUMPDEST PUSH0 PUSH1 0x20 DUP3 ADD SWAP1 POP DUP2 DUP2 SUB PUSH0 DUP4 ADD MSTORE PUSH2 0x1E00 DUP2 PUSH2 0x1DC7 JUMP JUMPDEST SWAP1 POP SWAP2 SWAP1 POP JUMP JUMPDEST PUSH32 0x43616E6E6F7420726566657220796F757273656C660000000000000000000000 PUSH0 DUP3 ADD MSTORE POP JUMP JUMPDEST PUSH0 PUSH2 0x1E3B PUSH1 0x15 DUP4 PUSH2 0x1C4D JUMP JUMPDEST SWAP2 POP PUSH2 0x1E46 DUP3 PUSH2 0x1E07 JUMP JUMPDEST PUSH1 0x20 DUP3 ADD SWAP1 POP SWAP2 SWAP1 POP JUMP JUMPDEST PUSH0 PUSH1 0x20 DUP3 ADD SWAP1 POP DUP2 DUP2 SUB PUSH0 DUP4 ADD MSTORE PUSH2 0x1E68 DUP2 PUSH2 0x1E2F JUMP JUMPDEST SWAP1 POP SWAP2 SWAP1 POP JUMP JUMPDEST PUSH32 0x54686973206163636F756E7420697320616C7265616479207265676973746572 PUSH0 DUP3 ADD MSTORE PUSH32 0x6564210000000000000000000000000000000000000000000000000000000000 PUSH1 0x20 DUP3 ADD MSTORE POP JUMP JUMPDEST PUSH0 PUSH2 0x1EC9 PUSH1 0x23 DUP4 PUSH2 0x1C4D JUMP JUMPDEST SWAP2 POP PUSH2 0x1ED4 DUP3 PUSH2 0x1E6F JUMP JUMPDEST PUSH1 0x40 DUP3 ADD SWAP1 POP SWAP2 SWAP1 POP JUMP JUMPDEST PUSH0 PUSH1 0x20 DUP3 ADD SWAP1 POP DUP2 DUP2 SUB PUSH0 DUP4 ADD MSTORE PUSH2 0x1EF6 DUP2 PUSH2 0x1EBD JUMP JUMPDEST SWAP1 POP SWAP2 SWAP1 POP JUMP JUMPDEST PUSH0 PUSH1 0x60 DUP3 ADD SWAP1 POP PUSH2 0x1F10 PUSH0 DUP4 ADD DUP7 PUSH2 0x1AFB JUMP JUMPDEST PUSH2 0x1F1D PUSH1 0x20 DUP4 ADD DUP6 PUSH2 0x1AFB JUMP JUMPDEST PUSH2 0x1F2A PUSH1 0x40 DUP4 ADD DUP5 PUSH2 0x1877 JUMP JUMPDEST SWAP5 SWAP4 POP POP POP POP JUMP JUMPDEST PUSH2 0x1F3B DUP2 PUSH2 0x1A54 JUMP JUMPDEST DUP2 EQ PUSH2 0x1F45 JUMPI PUSH0 DUP1 REVERT JUMPDEST POP JUMP JUMPDEST PUSH0 DUP2 MLOAD SWAP1 POP PUSH2 0x1F56 DUP2 PUSH2 0x1F32 JUMP JUMPDEST SWAP3 SWAP2 POP POP JUMP JUMPDEST PUSH0 PUSH1 0x20 DUP3 DUP5 SUB SLT ISZERO PUSH2 0x1F71 JUMPI PUSH2 0x1F70 PUSH2 0x189F JUMP JUMPDEST JUMPDEST PUSH0 PUSH2 0x1F7E DUP5 DUP3 DUP6 ADD PUSH2 0x1F48 JUMP JUMPDEST SWAP2 POP POP SWAP3 SWAP2 POP POP JUMP JUMPDEST PUSH32 0x7472616E73666572206661696C65640000000000000000000000000000000000 PUSH0 DUP3 ADD MSTORE POP JUMP JUMPDEST PUSH0 PUSH2 0x1FBB PUSH1 0xF DUP4 PUSH2 0x1C4D JUMP JUMPDEST SWAP2 POP PUSH2 0x1FC6 DUP3 PUSH2 0x1F87 JUMP JUMPDEST PUSH1 0x20 DUP3 ADD SWAP1 POP SWAP2 SWAP1 POP JUMP JUMPDEST PUSH0 PUSH1 0x20 DUP3 ADD SWAP1 POP DUP2 DUP2 SUB PUSH0 DUP4 ADD MSTORE PUSH2 0x1FE8 DUP2 PUSH2 0x1FAF JUMP JUMPDEST SWAP1 POP SWAP2 SWAP1 POP JUMP JUMPDEST PUSH32 0x5468697320616374696F6E2063616E20626520706572666F726D656420627920 PUSH0 DUP3 ADD MSTORE PUSH32 0x74686520636F6E7472616374206F776E65720000000000000000000000000000 PUSH1 0x20 DUP3 ADD MSTORE POP JUMP JUMPDEST PUSH0 PUSH2 0x2049 PUSH1 0x32 DUP4 PUSH2 0x1C4D JUMP JUMPDEST SWAP2 POP PUSH2 0x2054 DUP3 PUSH2 0x1FEF JUMP JUMPDEST PUSH1 0x40 DUP3 ADD SWAP1 POP SWAP2 SWAP1 POP JUMP JUMPDEST PUSH0 PUSH1 0x20 DUP3 ADD SWAP1 POP DUP2 DUP2 SUB PUSH0 DUP4 ADD MSTORE PUSH2 0x2076 DUP2 PUSH2 0x203D JUMP JUMPDEST SWAP1 POP SWAP2 SWAP1 POP JUMP JUMPDEST PUSH0 PUSH1 0x40 DUP3 ADD SWAP1 POP PUSH2 0x2090 PUSH0 DUP4 ADD DUP6 PUSH2 0x1AFB JUMP JUMPDEST PUSH2 0x209D PUSH1 0x20 DUP4 ADD DUP5 PUSH2 0x1877 JUMP JUMPDEST SWAP4 SWAP3 POP POP POP JUMP JUMPDEST PUSH32 0x696E76616C69642070657263656E746167650000000000000000000000000000 PUSH0 DUP3 ADD MSTORE POP JUMP JUMPDEST PUSH0 PUSH2 0x20D8 PUSH1 0x12 DUP4 PUSH2 0x1C4D JUMP JUMPDEST SWAP2 POP PUSH2 0x20E3 DUP3 PUSH2 0x20A4 JUMP JUMPDEST PUSH1 0x20 DUP3 ADD SWAP1 POP SWAP2 SWAP1 POP JUMP JUMPDEST PUSH0 PUSH1 0x20 DUP3 ADD SWAP1 POP DUP2 DUP2 SUB PUSH0 DUP4 ADD MSTORE PUSH2 0x2105 DUP2 PUSH2 0x20CC JUMP JUMPDEST SWAP1 POP SWAP2 SWAP1 POP JUMP JUMPDEST PUSH32 0x4E487B7100000000000000000000000000000000000000000000000000000000 PUSH0 MSTORE PUSH1 0x11 PUSH1 0x4 MSTORE PUSH1 0x24 PUSH0 REVERT JUMPDEST PUSH0 PUSH2 0x2143 DUP3 PUSH2 0x186E JUMP JUMPDEST SWAP2 POP PUSH2 0x214E DUP4 PUSH2 0x186E JUMP JUMPDEST SWAP3 POP DUP3 DUP3 MUL PUSH2 0x215C DUP2 PUSH2 0x186E JUMP JUMPDEST SWAP2 POP DUP3 DUP3 DIV DUP5 EQ DUP4 ISZERO OR PUSH2 0x2173 JUMPI PUSH2 0x2172 PUSH2 0x210C JUMP JUMPDEST JUMPDEST POP SWAP3 SWAP2 POP POP JUMP JUMPDEST PUSH32 0x696E76616C6964206E6577206273740000000000000000000000000000000000 PUSH0 DUP3 ADD MSTORE POP JUMP JUMPDEST PUSH0 PUSH2 0x21AE PUSH1 0xF DUP4 PUSH2 0x1C4D JUMP JUMPDEST SWAP2 POP PUSH2 0x21B9 DUP3 PUSH2 0x217A JUMP JUMPDEST PUSH1 0x20 DUP3 ADD SWAP1 POP SWAP2 SWAP1 POP JUMP JUMPDEST PUSH0 PUSH1 0x20 DUP3 ADD SWAP1 POP DUP2 DUP2 SUB PUSH0 DUP4 ADD MSTORE PUSH2 0x21DB DUP2 PUSH2 0x21A2 JUMP JUMPDEST SWAP1 POP SWAP2 SWAP1 POP JUMP JUMPDEST PUSH0 DUP2 MLOAD SWAP1 POP PUSH2 0x21F0 DUP2 PUSH2 0x1928 JUMP JUMPDEST SWAP3 SWAP2 POP POP JUMP JUMPDEST PUSH0 PUSH1 0x20 DUP3 DUP5 SUB SLT ISZERO PUSH2 0x220B JUMPI PUSH2 0x220A PUSH2 0x189F JUMP JUMPDEST JUMPDEST PUSH0 PUSH2 0x2218 DUP5 DUP3 DUP6 ADD PUSH2 0x21E2 JUMP JUMPDEST SWAP2 POP POP SWAP3 SWAP2 POP POP JUMP JUMPDEST PUSH0 PUSH2 0x222B DUP3 PUSH2 0x186E JUMP JUMPDEST SWAP2 POP PUSH2 0x2236 DUP4 PUSH2 0x186E JUMP JUMPDEST SWAP3 POP DUP3 DUP3 ADD SWAP1 POP DUP1 DUP3 GT ISZERO PUSH2 0x224E JUMPI PUSH2 0x224D PUSH2 0x210C JUMP JUMPDEST JUMPDEST SWAP3 SWAP2 POP POP JUMP JUMPDEST PUSH0 PUSH2 0x225E DUP3 PUSH2 0x186E JUMP JUMPDEST SWAP2 POP PUSH2 0x2269 DUP4 PUSH2 0x186E JUMP JUMPDEST SWAP3 POP DUP3 DUP3 SUB SWAP1 POP DUP2 DUP2 GT ISZERO PUSH2 0x2281 JUMPI PUSH2 0x2280 PUSH2 0x210C JUMP JUMPDEST JUMPDEST SWAP3 SWAP2 POP POP JUMP JUMPDEST PUSH32 0x4E487B7100000000000000000000000000000000000000000000000000000000 PUSH0 MSTORE PUSH1 0x41 PUSH1 0x4 MSTORE PUSH1 0x24 PUSH0 REVERT JUMPDEST PUSH32 0x4E487B7100000000000000000000000000000000000000000000000000000000 PUSH0 MSTORE PUSH1 0x32 PUSH1 0x4 MSTORE PUSH1 0x24 PUSH0 REVERT JUMPDEST PUSH32 0x496E76616C6964206E6577206F776E6572000000000000000000000000000000 PUSH0 DUP3 ADD MSTORE POP JUMP JUMPDEST PUSH0 PUSH2 0x2315 PUSH1 0x11 DUP4 PUSH2 0x1C4D JUMP JUMPDEST SWAP2 POP PUSH2 0x2320 DUP3 PUSH2 0x22E1 JUMP JUMPDEST PUSH1 0x20 DUP3 ADD SWAP1 POP SWAP2 SWAP1 POP JUMP JUMPDEST PUSH0 PUSH1 0x20 DUP3 ADD SWAP1 POP DUP2 DUP2 SUB PUSH0 DUP4 ADD MSTORE PUSH2 0x2342 DUP2 PUSH2 0x2309 JUMP JUMPDEST SWAP1 POP SWAP2 SWAP1 POP JUMP JUMPDEST PUSH32 0x5265656E7472616E637947756172643A207265656E7472616E742063616C6C00 PUSH0 DUP3 ADD MSTORE POP JUMP JUMPDEST PUSH0 PUSH2 0x237D PUSH1 0x1F DUP4 PUSH2 0x1C4D JUMP JUMPDEST SWAP2 POP PUSH2 0x2388 DUP3 PUSH2 0x2349 JUMP JUMPDEST PUSH1 0x20 DUP3 ADD SWAP1 POP SWAP2 SWAP1 POP JUMP JUMPDEST PUSH0 PUSH1 0x20 DUP3 ADD SWAP1 POP DUP2 DUP2 SUB PUSH0 DUP4 ADD MSTORE PUSH2 0x23AA DUP2 PUSH2 0x2371 JUMP JUMPDEST SWAP1 POP SWAP2 SWAP1 POP JUMP JUMPDEST PUSH32 0x4E487B7100000000000000000000000000000000000000000000000000000000 PUSH0 MSTORE PUSH1 0x12 PUSH1 0x4 MSTORE PUSH1 0x24 PUSH0 REVERT JUMPDEST PUSH0 PUSH2 0x23E8 DUP3 PUSH2 0x186E JUMP JUMPDEST SWAP2 POP PUSH2 0x23F3 DUP4 PUSH2 0x186E JUMP JUMPDEST SWAP3 POP DUP3 PUSH2 0x2403 JUMPI PUSH2 0x2402 PUSH2 0x23B1 JUMP JUMPDEST JUMPDEST DUP3 DUP3 DIV SWAP1 POP SWAP3 SWAP2 POP POP JUMP JUMPDEST PUSH32 0x526577617264207472616E73666572206661696C656400000000000000000000 PUSH0 DUP3 ADD MSTORE POP JUMP JUMPDEST PUSH0 PUSH2 0x2442 PUSH1 0x16 DUP4 PUSH2 0x1C4D JUMP JUMPDEST SWAP2 POP PUSH2 0x244D DUP3 PUSH2 0x240E JUMP JUMPDEST PUSH1 0x20 DUP3 ADD SWAP1 POP SWAP2 SWAP1 POP JUMP JUMPDEST PUSH0 PUSH1 0x20 DUP3 ADD SWAP1 POP DUP2 DUP2 SUB PUSH0 DUP4 ADD MSTORE PUSH2 0x246F DUP2 PUSH2 0x2436 JUMP JUMPDEST SWAP1 POP SWAP2 SWAP1 POP JUMP JUMPDEST PUSH0 PUSH1 0x40 DUP3 ADD SWAP1 POP PUSH2 0x2489 PUSH0 DUP4 ADD DUP6 PUSH2 0x1877 JUMP JUMPDEST PUSH2 0x2496 PUSH1 0x20 DUP4 ADD DUP5 PUSH2 0x1877 JUMP JUMPDEST SWAP4 SWAP3 POP POP POP JUMP JUMPDEST PUSH0 PUSH2 0x24A7 DUP3 PUSH2 0x186E JUMP JUMPDEST SWAP2 POP PUSH32 0xFFFFFFFFFFFFFFFFFFFFFFFFFFFFFFFFFFFFFFFFFFFFFFFFFFFFFFFFFFFFFFFF DUP3 SUB PUSH2 0x24D9 JUMPI PUSH2 0x24D8 PUSH2 0x210C JUMP JUMPDEST JUMPDEST PUSH1 0x1 DUP3 ADD SWAP1 POP SWAP2 SWAP1 POP JUMP INVALID LOG2 PUSH5 0x6970667358 0x22 SLT KECCAK256 0xDD DUP11 0xDC REVERT 0xE 0x21 0xA5 SWAP7 SWAP7 0x4B 0xC2 GAS 0xE7 TIMESTAMP 0xE2 GT PUSH31 0xF960B95E565F7436949DA693F4BE3064736F6C634300081A00330000000000 "
				},
				"gasEstimates": {
					"creation": {
						"codeDepositCost": "1899600",
						"executionCost": "infinite",
						"totalCost": "infinite"
					},
					"external": {
						"GNT()": "infinite",
						"REGISTRATION_FEE()": "2514",
						"admin()": "2618",
						"changeRegistrationFee(uint256)": "infinite",
						"contractTokenBalance()": "infinite",
						"getDirectReferralsPaginated(address,uint256,uint256)": "infinite",
						"getIndirectReferrals(address)": "infinite",
						"getUserDetails(address)": "infinite",
						"levelPercentage(uint256)": "infinite",
						"maxReferralDepth()": "2449",
						"pause()": "2540",
						"paused()": "26674",
						"registration(address)": "infinite",
						"transferOwnership(address)": "30698",
						"unpaused()": "26650",
						"updateTokenAddress(address)": "27029",
						"users(address)": "infinite",
						"withdraw(uint256)": "infinite"
					},
					"internal": {
						"distributeReferralIncome(address)": "infinite"
					}
				},
				"methodIdentifiers": {
					"GNT()": "8c546f81",
					"REGISTRATION_FEE()": "64b4f751",
					"admin()": "f851a440",
					"changeRegistrationFee(uint256)": "50050769",
					"contractTokenBalance()": "9e9aed62",
					"getDirectReferralsPaginated(address,uint256,uint256)": "d9c842fd",
					"getIndirectReferrals(address)": "4f404243",
					"getUserDetails(address)": "cc3d967b",
					"levelPercentage(uint256)": "5dc68b0a",
					"maxReferralDepth()": "04189250",
					"pause()": "8456cb59",
					"paused()": "5c975abb",
					"registration(address)": "0840605a",
					"transferOwnership(address)": "f2fde38b",
					"unpaused()": "b0b62f5a",
					"updateTokenAddress(address)": "6691461a",
					"users(address)": "a87430ba",
					"withdraw(uint256)": "2e1a7d4d"
				}
			},
			"storageLayout": {
				"storage": [
					{
						"astId": 10,
						"contract": "MLM/Multi-level MLM System/GrowChain.sol:GrowChain",
						"label": "_status",
						"offset": 0,
						"slot": "0",
						"type": "t_uint256"
					},
					{
						"astId": 100,
						"contract": "MLM/Multi-level MLM System/GrowChain.sol:GrowChain",
						"label": "GNT",
						"offset": 0,
						"slot": "1",
						"type": "t_contract(IERC20)95"
					},
					{
						"astId": 102,
						"contract": "MLM/Multi-level MLM System/GrowChain.sol:GrowChain",
						"label": "admin",
						"offset": 0,
						"slot": "2",
						"type": "t_address"
					},
					{
						"astId": 104,
						"contract": "MLM/Multi-level MLM System/GrowChain.sol:GrowChain",
						"label": "pause",
						"offset": 20,
						"slot": "2",
						"type": "t_bool"
					},
					{
						"astId": 111,
						"contract": "MLM/Multi-level MLM System/GrowChain.sol:GrowChain",
						"label": "REGISTRATION_FEE",
						"offset": 0,
						"slot": "3",
						"type": "t_uint256"
					},
					{
						"astId": 121,
						"contract": "MLM/Multi-level MLM System/GrowChain.sol:GrowChain",
						"label": "levelPercentage",
						"offset": 0,
						"slot": "4",
						"type": "t_array(t_uint256)5_storage"
					},
					{
						"astId": 124,
						"contract": "MLM/Multi-level MLM System/GrowChain.sol:GrowChain",
						"label": "maxReferralDepth",
						"offset": 0,
						"slot": "9",
						"type": "t_uint256"
					},
					{
						"astId": 184,
						"contract": "MLM/Multi-level MLM System/GrowChain.sol:GrowChain",
						"label": "users",
						"offset": 0,
						"slot": "10",
						"type": "t_mapping(t_address,t_struct(User)179_storage)"
					}
				],
				"types": {
					"t_address": {
						"encoding": "inplace",
						"label": "address",
						"numberOfBytes": "20"
					},
					"t_array(t_address)dyn_storage": {
						"base": "t_address",
						"encoding": "dynamic_array",
						"label": "address[]",
						"numberOfBytes": "32"
					},
					"t_array(t_uint256)5_storage": {
						"base": "t_uint256",
						"encoding": "inplace",
						"label": "uint256[5]",
						"numberOfBytes": "160"
					},
					"t_bool": {
						"encoding": "inplace",
						"label": "bool",
						"numberOfBytes": "1"
					},
					"t_contract(IERC20)95": {
						"encoding": "inplace",
						"label": "contract IERC20",
						"numberOfBytes": "20"
					},
					"t_mapping(t_address,t_struct(User)179_storage)": {
						"encoding": "mapping",
						"key": "t_address",
						"label": "mapping(address => struct GrowChain.User)",
						"numberOfBytes": "32",
						"value": "t_struct(User)179_storage"
					},
					"t_struct(User)179_storage": {
						"encoding": "inplace",
						"label": "struct GrowChain.User",
						"members": [
							{
								"astId": 160,
								"contract": "MLM/Multi-level MLM System/GrowChain.sol:GrowChain",
								"label": "referrer",
								"offset": 0,
								"slot": "0",
								"type": "t_address"
							},
							{
								"astId": 162,
								"contract": "MLM/Multi-level MLM System/GrowChain.sol:GrowChain",
								"label": "directReferralIncome",
								"offset": 0,
								"slot": "1",
								"type": "t_uint256"
							},
							{
								"astId": 164,
								"contract": "MLM/Multi-level MLM System/GrowChain.sol:GrowChain",
								"label": "isRegistered",
								"offset": 0,
								"slot": "2",
								"type": "t_bool"
							},
							{
								"astId": 166,
								"contract": "MLM/Multi-level MLM System/GrowChain.sol:GrowChain",
								"label": "referralCount",
								"offset": 0,
								"slot": "3",
								"type": "t_uint256"
							},
							{
								"astId": 168,
								"contract": "MLM/Multi-level MLM System/GrowChain.sol:GrowChain",
								"label": "registrationTime",
								"offset": 0,
								"slot": "4",
								"type": "t_uint256"
							},
							{
								"astId": 171,
								"contract": "MLM/Multi-level MLM System/GrowChain.sol:GrowChain",
								"label": "directReferrals",
								"offset": 0,
								"slot": "5",
								"type": "t_array(t_address)dyn_storage"
							},
							{
								"astId": 173,
								"contract": "MLM/Multi-level MLM System/GrowChain.sol:GrowChain",
								"label": "teamIncome",
								"offset": 0,
								"slot": "6",
								"type": "t_uint256"
							},
							{
								"astId": 175,
								"contract": "MLM/Multi-level MLM System/GrowChain.sol:GrowChain",
								"label": "teamSize",
								"offset": 0,
								"slot": "7",
								"type": "t_uint256"
							},
							{
								"astId": 178,
								"contract": "MLM/Multi-level MLM System/GrowChain.sol:GrowChain",
								"label": "indirectReferrals",
								"offset": 0,
								"slot": "8",
								"type": "t_array(t_address)dyn_storage"
							}
						],
						"numberOfBytes": "288"
					},
					"t_uint256": {
						"encoding": "inplace",
						"label": "uint256",
						"numberOfBytes": "32"
					}
				}
			},
			"userdoc": {
				"kind": "user",
				"methods": {},
				"version": 1
			}
		}
	}
}