{
	"MLM/Multi-level MLM System/Final_SMART_CONTRACT/GrowChain.sol": {
		"GrowChain": {
			"abi": [
				{
					"inputs": [
						{
							"internalType": "address",
							"name": "_gntAddress",
							"type": "address"
						}
					],
					"stateMutability": "nonpayable",
					"type": "constructor"
				},
				{
					"anonymous": false,
					"inputs": [
						{
							"indexed": true,
							"internalType": "address",
							"name": "to",
							"type": "address"
						},
						{
							"indexed": false,
							"internalType": "uint256",
							"name": "level",
							"type": "uint256"
						},
						{
							"indexed": false,
							"internalType": "uint256",
							"name": "amount",
							"type": "uint256"
						}
					],
					"name": "IncomeDistributed",
					"type": "event"
				},
				{
					"anonymous": false,
					"inputs": [
						{
							"indexed": true,
							"internalType": "address",
							"name": "oldOwner",
							"type": "address"
						},
						{
							"indexed": true,
							"internalType": "address",
							"name": "newOwner",
							"type": "address"
						}
					],
					"name": "OwnershipTransferred",
					"type": "event"
				},
				{
					"anonymous": false,
					"inputs": [
						{
							"indexed": true,
							"internalType": "address",
							"name": "user",
							"type": "address"
						},
						{
							"indexed": true,
							"internalType": "address",
							"name": "referrer",
							"type": "address"
						},
						{
							"indexed": false,
							"internalType": "uint256",
							"name": "time",
							"type": "uint256"
						}
					],
					"name": "Registered",
					"type": "event"
				},
				{
					"anonymous": false,
					"inputs": [
						{
							"indexed": false,
							"internalType": "uint256",
							"name": "oldFee",
							"type": "uint256"
						},
						{
							"indexed": false,
							"internalType": "uint256",
							"name": "newFee",
							"type": "uint256"
						}
					],
					"name": "RegistrationFeeUpdated",
					"type": "event"
				},
				{
					"anonymous": false,
					"inputs": [
						{
							"indexed": true,
							"internalType": "address",
							"name": "oldToken",
							"type": "address"
						},
						{
							"indexed": true,
							"internalType": "address",
							"name": "newToken",
							"type": "address"
						}
					],
					"name": "TokenUpdated",
					"type": "event"
				},
				{
					"anonymous": false,
					"inputs": [
						{
							"indexed": true,
							"internalType": "address",
							"name": "admin",
							"type": "address"
						},
						{
							"indexed": false,
							"internalType": "uint256",
							"name": "amount",
							"type": "uint256"
						}
					],
					"name": "Withdraw",
					"type": "event"
				},
				{
					"inputs": [],
					"name": "GNT",
					"outputs": [
						{
							"internalType": "contract IERC20",
							"name": "",
							"type": "address"
						}
					],
					"stateMutability": "view",
					"type": "function"
				},
				{
					"inputs": [],
					"name": "REGISTRATION_FEE",
					"outputs": [
						{
							"internalType": "uint256",
							"name": "",
							"type": "uint256"
						}
					],
					"stateMutability": "view",
					"type": "function"
				},
				{
					"inputs": [],
					"name": "admin",
					"outputs": [
						{
							"internalType": "address",
							"name": "",
							"type": "address"
						}
					],
					"stateMutability": "view",
					"type": "function"
				},
				{
					"inputs": [
						{
							"internalType": "uint256",
							"name": "_fee",
							"type": "uint256"
						}
					],
					"name": "changeRegistrationFee",
					"outputs": [],
					"stateMutability": "nonpayable",
					"type": "function"
				},
				{
					"inputs": [],
					"name": "contractTokenBalance",
					"outputs": [
						{
							"internalType": "uint256",
							"name": "",
							"type": "uint256"
						}
					],
					"stateMutability": "view",
					"type": "function"
				},
				{
					"inputs": [],
					"name": "emergencyWithdrawAll",
					"outputs": [],
					"stateMutability": "nonpayable",
					"type": "function"
				},
				{
					"inputs": [
						{
							"internalType": "address",
							"name": "_user",
							"type": "address"
						},
						{
							"internalType": "uint256",
							"name": "start",
							"type": "uint256"
						},
						{
							"internalType": "uint256",
							"name": "limit",
							"type": "uint256"
						}
					],
					"name": "getDirectReferralsPaginated",
					"outputs": [
						{
							"internalType": "address[]",
							"name": "",
							"type": "address[]"
						}
					],
					"stateMutability": "view",
					"type": "function"
				},
				{
					"inputs": [
						{
							"internalType": "address",
							"name": "_user",
							"type": "address"
						}
					],
					"name": "getIndirectReferrals",
					"outputs": [
						{
							"internalType": "address[]",
							"name": "",
							"type": "address[]"
						}
					],
					"stateMutability": "view",
					"type": "function"
				},
				{
					"inputs": [
						{
							"internalType": "address",
							"name": "_user",
							"type": "address"
						}
					],
					"name": "getUserDetails",
					"outputs": [
						{
							"internalType": "address",
							"name": "referrer",
							"type": "address"
						},
						{
							"internalType": "uint256",
							"name": "directReferralIncome",
							"type": "uint256"
						},
						{
							"internalType": "uint256",
							"name": "referralCount",
							"type": "uint256"
						},
						{
							"internalType": "uint256",
							"name": "teamIncome",
							"type": "uint256"
						},
						{
							"internalType": "uint256",
							"name": "teamSize",
							"type": "uint256"
						},
						{
							"internalType": "bool",
							"name": "isRegistered",
							"type": "bool"
						},
						{
							"internalType": "uint256",
							"name": "registrationTime",
							"type": "uint256"
						}
					],
					"stateMutability": "view",
					"type": "function"
				},
				{
					"inputs": [
						{
							"internalType": "uint256",
							"name": "",
							"type": "uint256"
						}
					],
					"name": "levelPercentage",
					"outputs": [
						{
							"internalType": "uint256",
							"name": "",
							"type": "uint256"
						}
					],
					"stateMutability": "view",
					"type": "function"
				},
				{
					"inputs": [],
					"name": "maxReferralDepth",
					"outputs": [
						{
							"internalType": "uint256",
							"name": "",
							"type": "uint256"
						}
					],
					"stateMutability": "view",
					"type": "function"
				},
				{
					"inputs": [],
					"name": "pause",
					"outputs": [
						{
							"internalType": "bool",
							"name": "",
							"type": "bool"
						}
					],
					"stateMutability": "view",
					"type": "function"
				},
				{
					"inputs": [],
					"name": "paused",
					"outputs": [],
					"stateMutability": "nonpayable",
					"type": "function"
				},
				{
					"inputs": [
						{
							"internalType": "address",
							"name": "_referrer",
							"type": "address"
						}
					],
					"name": "registration",
					"outputs": [],
					"stateMutability": "nonpayable",
					"type": "function"
				},
				{
					"inputs": [
						{
							"internalType": "address",
							"name": "_newOwner",
							"type": "address"
						}
					],
					"name": "transferOwnership",
					"outputs": [],
					"stateMutability": "nonpayable",
					"type": "function"
				},
				{
					"inputs": [],
					"name": "unpaused",
					"outputs": [],
					"stateMutability": "nonpayable",
					"type": "function"
				},
				{
					"inputs": [
						{
							"internalType": "address",
							"name": "_token",
							"type": "address"
						}
					],
					"name": "updateTokenAddress",
					"outputs": [],
					"stateMutability": "nonpayable",
					"type": "function"
				},
				{
					"inputs": [
						{
							"internalType": "address",
							"name": "",
							"type": "address"
						}
					],
					"name": "users",
					"outputs": [
						{
							"internalType": "address",
							"name": "referrer",
							"type": "address"
						},
						{
							"internalType": "uint256",
							"name": "directReferralIncome",
							"type": "uint256"
						},
						{
							"internalType": "bool",
							"name": "isRegistered",
							"type": "bool"
						},
						{
							"internalType": "uint256",
							"name": "referralCount",
							"type": "uint256"
						},
						{
							"internalType": "uint256",
							"name": "registrationTime",
							"type": "uint256"
						},
						{
							"internalType": "uint256",
							"name": "teamIncome",
							"type": "uint256"
						},
						{
							"internalType": "uint256",
							"name": "teamSize",
							"type": "uint256"
						}
					],
					"stateMutability": "view",
					"type": "function"
				},
				{
					"inputs": [
						{
							"internalType": "uint256",
							"name": "amount",
							"type": "uint256"
						}
					],
					"name": "withdraw",
					"outputs": [],
					"stateMutability": "nonpayable",
					"type": "function"
				}
			],
			"devdoc": {
				"kind": "dev",
				"methods": {
					"changeRegistrationFee(uint256)": {
						"params": {
							"_fee": "New fee in whole numbers (e.g., 10 means 10 tokens)"
						}
					},
					"contractTokenBalance()": {
						"returns": {
							"_0": "GNT balance held by the contract"
						}
					},
					"getDirectReferralsPaginated(address,uint256,uint256)": {
						"params": {
							"_user": "Address of the user",
							"limit": "Number of addresses to return",
							"start": "Starting index"
						},
						"returns": {
							"_0": "Array of referral addresses"
						}
					},
					"getIndirectReferrals(address)": {
						"params": {
							"_user": "Address of the user"
						},
						"returns": {
							"_0": "Array of indirect referral addresses"
						}
					},
					"getUserDetails(address)": {
						"params": {
							"_user": "Address of the user"
						},
						"returns": {
							"directReferralIncome": "Total direct referral income",
							"isRegistered": "If the user is registered",
							"referralCount": "Total direct referrals",
							"referrer": "Referrer address",
							"registrationTime": "Timestamp of registration",
							"teamIncome": "Total income from team",
							"teamSize": "Total size of team (all levels)"
						}
					},
					"registration(address)": {
						"params": {
							"_referrer": "Address of the referrer (must be already registered)"
						}
					},
					"transferOwnership(address)": {
						"params": {
							"_newOwner": "Address of the new owner"
						}
					},
					"updateTokenAddress(address)": {
						"params": {
							"_token": "New token contract address"
						}
					},
					"withdraw(uint256)": {
						"params": {
							"amount": "Amount of tokens to withdraw"
						}
					}
				},
				"version": 1
			},
			"evm": {
				"assembly": "    /* \"MLM/Multi-level MLM System/Final_SMART_CONTRACT/GrowChain.sol\":459:8806  contract GrowChain is ReentrancyGuard {... */\n  mstore(0x40, 0x80)\n    /* \"MLM/Multi-level MLM System/Final_SMART_CONTRACT/GrowChain.sol\":609:620  10 * 10**18 */\n  0x8ac7230489e80000\n    /* \"MLM/Multi-level MLM System/Final_SMART_CONTRACT/GrowChain.sol\":575:620  uint256 public REGISTRATION_FEE = 10 * 10**18 */\n  0x03\n  sstore\n    /* \"MLM/Multi-level MLM System/Final_SMART_CONTRACT/GrowChain.sol\":626:681  uint256[5] public levelPercentage = [40, 20, 15, 10, 5] */\n  mload(0x40)\n  dup1\n  0xa0\n  add\n  0x40\n  mstore\n  dup1\n    /* \"MLM/Multi-level MLM System/Final_SMART_CONTRACT/GrowChain.sol\":663:665  40 */\n  0x28\n    /* \"MLM/Multi-level MLM System/Final_SMART_CONTRACT/GrowChain.sol\":626:681  uint256[5] public levelPercentage = [40, 20, 15, 10, 5] */\n  0xff\n  and\n  dup2\n  mstore\n  0x20\n  add\n    /* \"MLM/Multi-level MLM System/Final_SMART_CONTRACT/GrowChain.sol\":667:669  20 */\n  0x14\n    /* \"MLM/Multi-level MLM System/Final_SMART_CONTRACT/GrowChain.sol\":626:681  uint256[5] public levelPercentage = [40, 20, 15, 10, 5] */\n  0xff\n  and\n  dup2\n  mstore\n  0x20\n  add\n    /* \"MLM/Multi-level MLM System/Final_SMART_CONTRACT/GrowChain.sol\":671:673  15 */\n  0x0f\n    /* \"MLM/Multi-level MLM System/Final_SMART_CONTRACT/GrowChain.sol\":626:681  uint256[5] public levelPercentage = [40, 20, 15, 10, 5] */\n  0xff\n  and\n  dup2\n  mstore\n  0x20\n  add\n    /* \"MLM/Multi-level MLM System/Final_SMART_CONTRACT/GrowChain.sol\":675:677  10 */\n  0x0a\n    /* \"MLM/Multi-level MLM System/Final_SMART_CONTRACT/GrowChain.sol\":626:681  uint256[5] public levelPercentage = [40, 20, 15, 10, 5] */\n  0xff\n  and\n  dup2\n  mstore\n  0x20\n  add\n    /* \"MLM/Multi-level MLM System/Final_SMART_CONTRACT/GrowChain.sol\":679:680  5 */\n  0x05\n    /* \"MLM/Multi-level MLM System/Final_SMART_CONTRACT/GrowChain.sol\":626:681  uint256[5] public levelPercentage = [40, 20, 15, 10, 5] */\n  0xff\n  and\n  dup2\n  mstore\n  pop\n  0x04\n  swap1\n  0x05\n  tag_1\n  swap3\n  swap2\n  swap1\n  tag_2\n  jump\t// in\ntag_1:\n  pop\n    /* \"MLM/Multi-level MLM System/Final_SMART_CONTRACT/GrowChain.sol\":721:722  5 */\n  0x05\n    /* \"MLM/Multi-level MLM System/Final_SMART_CONTRACT/GrowChain.sol\":687:722  uint256 public maxReferralDepth = 5 */\n  0x09\n  sstore\n    /* \"MLM/Multi-level MLM System/Final_SMART_CONTRACT/GrowChain.sol\":1582:1685  constructor(address _gntAddress) {... */\n  callvalue\n  dup1\n  iszero\n  tag_3\n  jumpi\n  0x00\n  dup1\n  revert\ntag_3:\n  pop\n  mload(0x40)\n  sub(codesize, bytecodeSize)\n  dup1\n  bytecodeSize\n  dup4\n  codecopy\n  dup2\n  dup2\n  add\n  0x40\n  mstore\n  dup2\n  add\n  swap1\n  tag_4\n  swap2\n  swap1\n  tag_5\n  jump\t// in\ntag_4:\n    /* \"@openzeppelin/contracts/security/ReentrancyGuard.sol\":1716:1717  1 */\n  0x01\n    /* \"@openzeppelin/contracts/security/ReentrancyGuard.sol\":1821:1828  _status */\n  0x00\n    /* \"@openzeppelin/contracts/security/ReentrancyGuard.sol\":1821:1843  _status = _NOT_ENTERED */\n  dup2\n  swap1\n  sstore\n  pop\n    /* \"MLM/Multi-level MLM System/Final_SMART_CONTRACT/GrowChain.sol\":1638:1649  _gntAddress */\n  dup1\n    /* \"MLM/Multi-level MLM System/Final_SMART_CONTRACT/GrowChain.sol\":1625:1628  GNT */\n  0x01\n  0x00\n    /* \"MLM/Multi-level MLM System/Final_SMART_CONTRACT/GrowChain.sol\":1625:1650  GNT = IERC20(_gntAddress) */\n  0x0100\n  exp\n  dup2\n  sload\n  dup2\n  0xffffffffffffffffffffffffffffffffffffffff\n  mul\n  not\n  and\n  swap1\n  dup4\n  0xffffffffffffffffffffffffffffffffffffffff\n  and\n  mul\n  or\n  swap1\n  sstore\n  pop\n    /* \"MLM/Multi-level MLM System/Final_SMART_CONTRACT/GrowChain.sol\":1668:1678  msg.sender */\n  caller\n    /* \"MLM/Multi-level MLM System/Final_SMART_CONTRACT/GrowChain.sol\":1660:1665  admin */\n  0x02\n  0x00\n    /* \"MLM/Multi-level MLM System/Final_SMART_CONTRACT/GrowChain.sol\":1660:1678  admin = msg.sender */\n  0x0100\n  exp\n  dup2\n  sload\n  dup2\n  0xffffffffffffffffffffffffffffffffffffffff\n  mul\n  not\n  and\n  swap1\n  dup4\n  0xffffffffffffffffffffffffffffffffffffffff\n  and\n  mul\n  or\n  swap1\n  sstore\n  pop\n    /* \"MLM/Multi-level MLM System/Final_SMART_CONTRACT/GrowChain.sol\":1582:1685  constructor(address _gntAddress) {... */\n  pop\n    /* \"MLM/Multi-level MLM System/Final_SMART_CONTRACT/GrowChain.sol\":459:8806  contract GrowChain is ReentrancyGuard {... */\n  jump(tag_10)\ntag_2:\n  dup3\n  0x05\n  dup2\n  add\n  swap3\n  dup3\n  iszero\n  tag_11\n  jumpi\n  swap2\n  0x20\n  mul\n  dup3\n  add\ntag_12:\n  dup3\n  dup2\n  gt\n  iszero\n  tag_13\n  jumpi\n  dup3\n  mload\n  dup3\n  swap1\n  0xff\n  and\n  swap1\n  sstore\n  swap2\n  0x20\n  add\n  swap2\n  swap1\n  0x01\n  add\n  swap1\n  jump(tag_12)\ntag_13:\ntag_11:\n  pop\n  swap1\n  pop\n  tag_14\n  swap2\n  swap1\n  tag_15\n  jump\t// in\ntag_14:\n  pop\n  swap1\n  jump\t// out\ntag_15:\ntag_16:\n  dup1\n  dup3\n  gt\n  iszero\n  tag_17\n  jumpi\n  0x00\n  dup2\n  0x00\n  swap1\n  sstore\n  pop\n  0x01\n  add\n  jump(tag_16)\ntag_17:\n  pop\n  swap1\n  jump\t// out\n    /* \"#utility.yul\":88:205   */\ntag_19:\n    /* \"#utility.yul\":197:198   */\n  0x00\n    /* \"#utility.yul\":194:195   */\n  dup1\n    /* \"#utility.yul\":187:199   */\n  revert\n    /* \"#utility.yul\":334:460   */\ntag_21:\n    /* \"#utility.yul\":371:378   */\n  0x00\n    /* \"#utility.yul\":411:453   */\n  0xffffffffffffffffffffffffffffffffffffffff\n    /* \"#utility.yul\":404:409   */\n  dup3\n    /* \"#utility.yul\":400:454   */\n  and\n    /* \"#utility.yul\":389:454   */\n  swap1\n  pop\n    /* \"#utility.yul\":334:460   */\n  swap2\n  swap1\n  pop\n  jump\t// out\n    /* \"#utility.yul\":466:562   */\ntag_22:\n    /* \"#utility.yul\":503:510   */\n  0x00\n    /* \"#utility.yul\":532:556   */\n  tag_31\n    /* \"#utility.yul\":550:555   */\n  dup3\n    /* \"#utility.yul\":532:556   */\n  tag_21\n  jump\t// in\ntag_31:\n    /* \"#utility.yul\":521:556   */\n  swap1\n  pop\n    /* \"#utility.yul\":466:562   */\n  swap2\n  swap1\n  pop\n  jump\t// out\n    /* \"#utility.yul\":568:690   */\ntag_23:\n    /* \"#utility.yul\":641:665   */\n  tag_33\n    /* \"#utility.yul\":659:664   */\n  dup2\n    /* \"#utility.yul\":641:665   */\n  tag_22\n  jump\t// in\ntag_33:\n    /* \"#utility.yul\":634:639   */\n  dup2\n    /* \"#utility.yul\":631:666   */\n  eq\n    /* \"#utility.yul\":621:684   */\n  tag_34\n  jumpi\n    /* \"#utility.yul\":680:681   */\n  0x00\n    /* \"#utility.yul\":677:678   */\n  dup1\n    /* \"#utility.yul\":670:682   */\n  revert\n    /* \"#utility.yul\":621:684   */\ntag_34:\n    /* \"#utility.yul\":568:690   */\n  pop\n  jump\t// out\n    /* \"#utility.yul\":696:839   */\ntag_24:\n    /* \"#utility.yul\":753:758   */\n  0x00\n    /* \"#utility.yul\":784:790   */\n  dup2\n    /* \"#utility.yul\":778:791   */\n  mload\n    /* \"#utility.yul\":769:791   */\n  swap1\n  pop\n    /* \"#utility.yul\":800:833   */\n  tag_36\n    /* \"#utility.yul\":827:832   */\n  dup2\n    /* \"#utility.yul\":800:833   */\n  tag_23\n  jump\t// in\ntag_36:\n    /* \"#utility.yul\":696:839   */\n  swap3\n  swap2\n  pop\n  pop\n  jump\t// out\n    /* \"#utility.yul\":845:1196   */\ntag_5:\n    /* \"#utility.yul\":915:921   */\n  0x00\n    /* \"#utility.yul\":964:966   */\n  0x20\n    /* \"#utility.yul\":952:961   */\n  dup3\n    /* \"#utility.yul\":943:950   */\n  dup5\n    /* \"#utility.yul\":939:962   */\n  sub\n    /* \"#utility.yul\":935:967   */\n  slt\n    /* \"#utility.yul\":932:1051   */\n  iszero\n  tag_38\n  jumpi\n    /* \"#utility.yul\":970:1049   */\n  tag_39\n  tag_19\n  jump\t// in\ntag_39:\n    /* \"#utility.yul\":932:1051   */\ntag_38:\n    /* \"#utility.yul\":1090:1091   */\n  0x00\n    /* \"#utility.yul\":1115:1179   */\n  tag_40\n    /* \"#utility.yul\":1171:1178   */\n  dup5\n    /* \"#utility.yul\":1162:1168   */\n  dup3\n    /* \"#utility.yul\":1151:1160   */\n  dup6\n    /* \"#utility.yul\":1147:1169   */\n  add\n    /* \"#utility.yul\":1115:1179   */\n  tag_24\n  jump\t// in\ntag_40:\n    /* \"#utility.yul\":1105:1179   */\n  swap2\n  pop\n    /* \"#utility.yul\":1061:1189   */\n  pop\n    /* \"#utility.yul\":845:1196   */\n  swap3\n  swap2\n  pop\n  pop\n  jump\t// out\n    /* \"MLM/Multi-level MLM System/Final_SMART_CONTRACT/GrowChain.sol\":459:8806  contract GrowChain is ReentrancyGuard {... */\ntag_10:\n  dataSize(sub_0)\n  dup1\n  dataOffset(sub_0)\n  0x00\n  codecopy\n  0x00\n  return\nstop\n\nsub_0: assembly {\n        /* \"MLM/Multi-level MLM System/Final_SMART_CONTRACT/GrowChain.sol\":459:8806  contract GrowChain is ReentrancyGuard {... */\n      mstore(0x40, 0x80)\n      callvalue\n      dup1\n      iszero\n      tag_1\n      jumpi\n      0x00\n      dup1\n      revert\n    tag_1:\n      pop\n      jumpi(tag_2, lt(calldatasize, 0x04))\n      shr(0xe0, calldataload(0x00))\n      dup1\n      0x8456cb59\n      gt\n      tag_22\n      jumpi\n      dup1\n      0xcc3d967b\n      gt\n      tag_23\n      jumpi\n      dup1\n      0xcc3d967b\n      eq\n      tag_17\n      jumpi\n      dup1\n      0xd9c842fd\n      eq\n      tag_18\n      jumpi\n      dup1\n      0xdd191719\n      eq\n      tag_19\n      jumpi\n      dup1\n      0xf2fde38b\n      eq\n      tag_20\n      jumpi\n      dup1\n      0xf851a440\n      eq\n      tag_21\n      jumpi\n      jump(tag_2)\n    tag_23:\n      dup1\n      0x8456cb59\n      eq\n      tag_12\n      jumpi\n      dup1\n      0x8c546f81\n      eq\n      tag_13\n      jumpi\n      dup1\n      0x9e9aed62\n      eq\n      tag_14\n      jumpi\n      dup1\n      0xa87430ba\n      eq\n      tag_15\n      jumpi\n      dup1\n      0xb0b62f5a\n      eq\n      tag_16\n      jumpi\n      jump(tag_2)\n    tag_22:\n      dup1\n      0x50050769\n      gt\n      tag_24\n      jumpi\n      dup1\n      0x50050769\n      eq\n      tag_7\n      jumpi\n      dup1\n      0x5c975abb\n      eq\n      tag_8\n      jumpi\n      dup1\n      0x5dc68b0a\n      eq\n      tag_9\n      jumpi\n      dup1\n      0x64b4f751\n      eq\n      tag_10\n      jumpi\n      dup1\n      0x6691461a\n      eq\n      tag_11\n      jumpi\n      jump(tag_2)\n    tag_24:\n      dup1\n      0x04189250\n      eq\n      tag_3\n      jumpi\n      dup1\n      0x0840605a\n      eq\n      tag_4\n      jumpi\n      dup1\n      0x2e1a7d4d\n      eq\n      tag_5\n      jumpi\n      dup1\n      0x4f404243\n      eq\n      tag_6\n      jumpi\n    tag_2:\n      0x00\n      dup1\n      revert\n        /* \"MLM/Multi-level MLM System/Final_SMART_CONTRACT/GrowChain.sol\":687:722  uint256 public maxReferralDepth = 5 */\n    tag_3:\n      tag_25\n      tag_26\n      jump\t// in\n    tag_25:\n      mload(0x40)\n      tag_27\n      swap2\n      swap1\n      tag_28\n      jump\t// in\n    tag_27:\n      mload(0x40)\n      dup1\n      swap2\n      sub\n      swap1\n      return\n        /* \"MLM/Multi-level MLM System/Final_SMART_CONTRACT/GrowChain.sol\":2120:3104  function registration(address _referrer)... */\n    tag_4:\n      tag_29\n      0x04\n      dup1\n      calldatasize\n      sub\n      dup2\n      add\n      swap1\n      tag_30\n      swap2\n      swap1\n      tag_31\n      jump\t// in\n    tag_30:\n      tag_32\n      jump\t// in\n    tag_29:\n      stop\n        /* \"MLM/Multi-level MLM System/Final_SMART_CONTRACT/GrowChain.sol\":6107:6257  function withdraw(uint256 amount) external nonReentrant onlybyAdmin {... */\n    tag_5:\n      tag_33\n      0x04\n      dup1\n      calldatasize\n      sub\n      dup2\n      add\n      swap1\n      tag_34\n      swap2\n      swap1\n      tag_35\n      jump\t// in\n    tag_34:\n      tag_36\n      jump\t// in\n    tag_33:\n      stop\n        /* \"MLM/Multi-level MLM System/Final_SMART_CONTRACT/GrowChain.sol\":5108:5276  function getIndirectReferrals(address _user)... */\n    tag_6:\n      tag_37\n      0x04\n      dup1\n      calldatasize\n      sub\n      dup2\n      add\n      swap1\n      tag_38\n      swap2\n      swap1\n      tag_31\n      jump\t// in\n    tag_38:\n      tag_39\n      jump\t// in\n    tag_37:\n      mload(0x40)\n      tag_40\n      swap2\n      swap1\n      tag_41\n      jump\t// in\n    tag_40:\n      mload(0x40)\n      dup1\n      swap2\n      sub\n      swap1\n      return\n        /* \"MLM/Multi-level MLM System/Final_SMART_CONTRACT/GrowChain.sol\":5425:5689  function changeRegistrationFee(uint256 _fee) external onlybyAdmin {... */\n    tag_7:\n      tag_42\n      0x04\n      dup1\n      calldatasize\n      sub\n      dup2\n      add\n      swap1\n      tag_43\n      swap2\n      swap1\n      tag_35\n      jump\t// in\n    tag_43:\n      tag_44\n      jump\t// in\n    tag_42:\n      stop\n        /* \"MLM/Multi-level MLM System/Final_SMART_CONTRACT/GrowChain.sol\":5758:5826  function paused() external onlybyAdmin {... */\n    tag_8:\n      tag_45\n      tag_46\n      jump\t// in\n    tag_45:\n      stop\n        /* \"MLM/Multi-level MLM System/Final_SMART_CONTRACT/GrowChain.sol\":626:681  uint256[5] public levelPercentage = [40, 20, 15, 10, 5] */\n    tag_9:\n      tag_47\n      0x04\n      dup1\n      calldatasize\n      sub\n      dup2\n      add\n      swap1\n      tag_48\n      swap2\n      swap1\n      tag_35\n      jump\t// in\n    tag_48:\n      tag_49\n      jump\t// in\n    tag_47:\n      mload(0x40)\n      tag_50\n      swap2\n      swap1\n      tag_28\n      jump\t// in\n    tag_50:\n      mload(0x40)\n      dup1\n      swap2\n      sub\n      swap1\n      return\n        /* \"MLM/Multi-level MLM System/Final_SMART_CONTRACT/GrowChain.sol\":575:620  uint256 public REGISTRATION_FEE = 10 * 10**18 */\n    tag_10:\n      tag_51\n      tag_52\n      jump\t// in\n    tag_51:\n      mload(0x40)\n      tag_53\n      swap2\n      swap1\n      tag_28\n      jump\t// in\n    tag_53:\n      mload(0x40)\n      dup1\n      swap2\n      sub\n      swap1\n      return\n        /* \"MLM/Multi-level MLM System/Final_SMART_CONTRACT/GrowChain.sol\":6842:7057  function updateTokenAddress(address _token) external onlybyAdmin {... */\n    tag_11:\n      tag_54\n      0x04\n      dup1\n      calldatasize\n      sub\n      dup2\n      add\n      swap1\n      tag_55\n      swap2\n      swap1\n      tag_31\n      jump\t// in\n    tag_55:\n      tag_56\n      jump\t// in\n    tag_54:\n      stop\n        /* \"MLM/Multi-level MLM System/Final_SMART_CONTRACT/GrowChain.sol\":552:569  bool public pause */\n    tag_12:\n      tag_57\n      tag_58\n      jump\t// in\n    tag_57:\n      mload(0x40)\n      tag_59\n      swap2\n      swap1\n      tag_60\n      jump\t// in\n    tag_59:\n      mload(0x40)\n      dup1\n      swap2\n      sub\n      swap1\n      return\n        /* \"MLM/Multi-level MLM System/Final_SMART_CONTRACT/GrowChain.sol\":503:520  IERC20 public GNT */\n    tag_13:\n      tag_61\n      tag_62\n      jump\t// in\n    tag_61:\n      mload(0x40)\n      tag_63\n      swap2\n      swap1\n      tag_64\n      jump\t// in\n    tag_63:\n      mload(0x40)\n      dup1\n      swap2\n      sub\n      swap1\n      return\n        /* \"MLM/Multi-level MLM System/Final_SMART_CONTRACT/GrowChain.sol\":7180:7296  function contractTokenBalance() external view returns (uint256) {... */\n    tag_14:\n      tag_65\n      tag_66\n      jump\t// in\n    tag_65:\n      mload(0x40)\n      tag_67\n      swap2\n      swap1\n      tag_28\n      jump\t// in\n    tag_67:\n      mload(0x40)\n      dup1\n      swap2\n      sub\n      swap1\n      return\n        /* \"MLM/Multi-level MLM System/Final_SMART_CONTRACT/GrowChain.sol\":1538:1575  mapping(address => User) public users */\n    tag_15:\n      tag_68\n      0x04\n      dup1\n      calldatasize\n      sub\n      dup2\n      add\n      swap1\n      tag_69\n      swap2\n      swap1\n      tag_31\n      jump\t// in\n    tag_69:\n      tag_70\n      jump\t// in\n    tag_68:\n      mload(0x40)\n      tag_71\n      swap8\n      swap7\n      swap6\n      swap5\n      swap4\n      swap3\n      swap2\n      swap1\n      tag_72\n      jump\t// in\n    tag_71:\n      mload(0x40)\n      dup1\n      swap2\n      sub\n      swap1\n      return\n        /* \"MLM/Multi-level MLM System/Final_SMART_CONTRACT/GrowChain.sol\":5902:5973  function unpaused() external onlybyAdmin {... */\n    tag_16:\n      tag_73\n      tag_74\n      jump\t// in\n    tag_73:\n      stop\n        /* \"MLM/Multi-level MLM System/Final_SMART_CONTRACT/GrowChain.sol\":3573:4207  function getUserDetails(address _user)... */\n    tag_17:\n      tag_75\n      0x04\n      dup1\n      calldatasize\n      sub\n      dup2\n      add\n      swap1\n      tag_76\n      swap2\n      swap1\n      tag_31\n      jump\t// in\n    tag_76:\n      tag_77\n      jump\t// in\n    tag_75:\n      mload(0x40)\n      tag_78\n      swap8\n      swap7\n      swap6\n      swap5\n      swap4\n      swap3\n      swap2\n      swap1\n      tag_79\n      jump\t// in\n    tag_78:\n      mload(0x40)\n      dup1\n      swap2\n      sub\n      swap1\n      return\n        /* \"MLM/Multi-level MLM System/Final_SMART_CONTRACT/GrowChain.sol\":4457:4948  function getDirectReferralsPaginated(... */\n    tag_18:\n      tag_80\n      0x04\n      dup1\n      calldatasize\n      sub\n      dup2\n      add\n      swap1\n      tag_81\n      swap2\n      swap1\n      tag_82\n      jump\t// in\n    tag_81:\n      tag_83\n      jump\t// in\n    tag_80:\n      mload(0x40)\n      tag_84\n      swap2\n      swap1\n      tag_41\n      jump\t// in\n    tag_84:\n      mload(0x40)\n      dup1\n      swap2\n      sub\n      swap1\n      return\n        /* \"MLM/Multi-level MLM System/Final_SMART_CONTRACT/GrowChain.sol\":8574:8802  function emergencyWithdrawAll() external onlybyAdmin nonReentrant {... */\n    tag_19:\n      tag_85\n      tag_86\n      jump\t// in\n    tag_85:\n      stop\n        /* \"MLM/Multi-level MLM System/Final_SMART_CONTRACT/GrowChain.sol\":6388:6715  function transferOwnership(address _newOwner) external onlybyAdmin {... */\n    tag_20:\n      tag_87\n      0x04\n      dup1\n      calldatasize\n      sub\n      dup2\n      add\n      swap1\n      tag_88\n      swap2\n      swap1\n      tag_31\n      jump\t// in\n    tag_88:\n      tag_89\n      jump\t// in\n    tag_87:\n      stop\n        /* \"MLM/Multi-level MLM System/Final_SMART_CONTRACT/GrowChain.sol\":526:546  address public admin */\n    tag_21:\n      tag_90\n      tag_91\n      jump\t// in\n    tag_90:\n      mload(0x40)\n      tag_92\n      swap2\n      swap1\n      tag_93\n      jump\t// in\n    tag_92:\n      mload(0x40)\n      dup1\n      swap2\n      sub\n      swap1\n      return\n        /* \"MLM/Multi-level MLM System/Final_SMART_CONTRACT/GrowChain.sol\":687:722  uint256 public maxReferralDepth = 5 */\n    tag_26:\n      sload(0x09)\n      dup2\n      jump\t// out\n        /* \"MLM/Multi-level MLM System/Final_SMART_CONTRACT/GrowChain.sol\":2120:3104  function registration(address _referrer)... */\n    tag_32:\n        /* \"MLM/Multi-level MLM System/Final_SMART_CONTRACT/GrowChain.sol\":1908:1913  pause */\n      0x02\n      0x14\n      swap1\n      sload\n      swap1\n      0x0100\n      exp\n      swap1\n      div\n      0xff\n      and\n        /* \"MLM/Multi-level MLM System/Final_SMART_CONTRACT/GrowChain.sol\":1907:1913  !pause */\n      iszero\n        /* \"MLM/Multi-level MLM System/Final_SMART_CONTRACT/GrowChain.sol\":1899:1945  require(!pause, \"Contract is paused by admin\") */\n      tag_95\n      jumpi\n      mload(0x40)\n      0x08c379a000000000000000000000000000000000000000000000000000000000\n      dup2\n      mstore\n      0x04\n      add\n      tag_96\n      swap1\n      tag_97\n      jump\t// in\n    tag_96:\n      mload(0x40)\n      dup1\n      swap2\n      sub\n      swap1\n      revert\n    tag_95:\n        /* \"@openzeppelin/contracts/security/ReentrancyGuard.sol\":2261:2282  _nonReentrantBefore() */\n      tag_99\n        /* \"@openzeppelin/contracts/security/ReentrancyGuard.sol\":2261:2280  _nonReentrantBefore */\n      tag_100\n        /* \"@openzeppelin/contracts/security/ReentrancyGuard.sol\":2261:2282  _nonReentrantBefore() */\n      jump\t// in\n    tag_99:\n        /* \"MLM/Multi-level MLM System/Final_SMART_CONTRACT/GrowChain.sol\":2257:2258  0 */\n      0x00\n        /* \"MLM/Multi-level MLM System/Final_SMART_CONTRACT/GrowChain.sol\":2235:2259  msg.sender != address(0) */\n      0xffffffffffffffffffffffffffffffffffffffff\n      and\n        /* \"MLM/Multi-level MLM System/Final_SMART_CONTRACT/GrowChain.sol\":2235:2245  msg.sender */\n      caller\n        /* \"MLM/Multi-level MLM System/Final_SMART_CONTRACT/GrowChain.sol\":2235:2259  msg.sender != address(0) */\n      0xffffffffffffffffffffffffffffffffffffffff\n      and\n      sub\n        /* \"MLM/Multi-level MLM System/Final_SMART_CONTRACT/GrowChain.sol\":2227:2286  require(msg.sender != address(0), \"Invalid sender address\") */\n      tag_102\n      jumpi\n      mload(0x40)\n      0x08c379a000000000000000000000000000000000000000000000000000000000\n      dup2\n      mstore\n      0x04\n      add\n      tag_103\n      swap1\n      tag_104\n      jump\t// in\n    tag_103:\n      mload(0x40)\n      dup1\n      swap2\n      sub\n      swap1\n      revert\n    tag_102:\n        /* \"MLM/Multi-level MLM System/Final_SMART_CONTRACT/GrowChain.sol\":2326:2327  0 */\n      0x00\n        /* \"MLM/Multi-level MLM System/Final_SMART_CONTRACT/GrowChain.sol\":2305:2328  _referrer != address(0) */\n      0xffffffffffffffffffffffffffffffffffffffff\n      and\n        /* \"MLM/Multi-level MLM System/Final_SMART_CONTRACT/GrowChain.sol\":2305:2314  _referrer */\n      dup2\n        /* \"MLM/Multi-level MLM System/Final_SMART_CONTRACT/GrowChain.sol\":2305:2328  _referrer != address(0) */\n      0xffffffffffffffffffffffffffffffffffffffff\n      and\n      sub\n        /* \"MLM/Multi-level MLM System/Final_SMART_CONTRACT/GrowChain.sol\":2297:2357  require(_referrer != address(0), \"Invalid referrer address\") */\n      tag_105\n      jumpi\n      mload(0x40)\n      0x08c379a000000000000000000000000000000000000000000000000000000000\n      dup2\n      mstore\n      0x04\n      add\n      tag_106\n      swap1\n      tag_107\n      jump\t// in\n    tag_106:\n      mload(0x40)\n      dup1\n      swap2\n      sub\n      swap1\n      revert\n    tag_105:\n        /* \"MLM/Multi-level MLM System/Final_SMART_CONTRACT/GrowChain.sol\":2404:2420  REGISTRATION_FEE */\n      sload(0x03)\n        /* \"MLM/Multi-level MLM System/Final_SMART_CONTRACT/GrowChain.sol\":2375:2378  GNT */\n      0x01\n      0x00\n      swap1\n      sload\n      swap1\n      0x0100\n      exp\n      swap1\n      div\n      0xffffffffffffffffffffffffffffffffffffffff\n      and\n        /* \"MLM/Multi-level MLM System/Final_SMART_CONTRACT/GrowChain.sol\":2375:2388  GNT.balanceOf */\n      0xffffffffffffffffffffffffffffffffffffffff\n      and\n      0x70a08231\n        /* \"MLM/Multi-level MLM System/Final_SMART_CONTRACT/GrowChain.sol\":2389:2399  msg.sender */\n      caller\n        /* \"MLM/Multi-level MLM System/Final_SMART_CONTRACT/GrowChain.sol\":2375:2400  GNT.balanceOf(msg.sender) */\n      mload(0x40)\n      dup3\n      0xffffffff\n      and\n      0xe0\n      shl\n      dup2\n      mstore\n      0x04\n      add\n      tag_108\n      swap2\n      swap1\n      tag_93\n      jump\t// in\n    tag_108:\n      0x20\n      mload(0x40)\n      dup1\n      dup4\n      sub\n      dup2\n      dup7\n      gas\n      staticcall\n      iszero\n      dup1\n      iszero\n      tag_110\n      jumpi\n      returndatasize\n      0x00\n      dup1\n      returndatacopy\n      revert(0x00, returndatasize)\n    tag_110:\n      pop\n      pop\n      pop\n      pop\n      mload(0x40)\n      returndatasize\n      not(0x1f)\n      0x1f\n      dup3\n      add\n      and\n      dup3\n      add\n      dup1\n      0x40\n      mstore\n      pop\n      dup2\n      add\n      swap1\n      tag_111\n      swap2\n      swap1\n      tag_112\n      jump\t// in\n    tag_111:\n        /* \"MLM/Multi-level MLM System/Final_SMART_CONTRACT/GrowChain.sol\":2375:2420  GNT.balanceOf(msg.sender) >= REGISTRATION_FEE */\n      lt\n      iszero\n        /* \"MLM/Multi-level MLM System/Final_SMART_CONTRACT/GrowChain.sol\":2367:2445  require(GNT.balanceOf(msg.sender) >= REGISTRATION_FEE, \"Insufficient balance\") */\n      tag_113\n      jumpi\n      mload(0x40)\n      0x08c379a000000000000000000000000000000000000000000000000000000000\n      dup2\n      mstore\n      0x04\n      add\n      tag_114\n      swap1\n      tag_115\n      jump\t// in\n    tag_114:\n      mload(0x40)\n      dup1\n      swap2\n      sub\n      swap1\n      revert\n    tag_113:\n        /* \"MLM/Multi-level MLM System/Final_SMART_CONTRACT/GrowChain.sol\":2464:2469  users */\n      0x0a\n        /* \"MLM/Multi-level MLM System/Final_SMART_CONTRACT/GrowChain.sol\":2464:2480  users[_referrer] */\n      0x00\n        /* \"MLM/Multi-level MLM System/Final_SMART_CONTRACT/GrowChain.sol\":2470:2479  _referrer */\n      dup3\n        /* \"MLM/Multi-level MLM System/Final_SMART_CONTRACT/GrowChain.sol\":2464:2480  users[_referrer] */\n      0xffffffffffffffffffffffffffffffffffffffff\n      and\n      0xffffffffffffffffffffffffffffffffffffffff\n      and\n      dup2\n      mstore\n      0x20\n      add\n      swap1\n      dup2\n      mstore\n      0x20\n      add\n      0x00\n      keccak256\n        /* \"MLM/Multi-level MLM System/Final_SMART_CONTRACT/GrowChain.sol\":2464:2493  users[_referrer].isRegistered */\n      0x02\n      add\n      0x00\n      swap1\n      sload\n      swap1\n      0x0100\n      exp\n      swap1\n      div\n      0xff\n      and\n        /* \"MLM/Multi-level MLM System/Final_SMART_CONTRACT/GrowChain.sol\":2456:2524  require(users[_referrer].isRegistered, \"Referrer is not registered\") */\n      tag_116\n      jumpi\n      mload(0x40)\n      0x08c379a000000000000000000000000000000000000000000000000000000000\n      dup2\n      mstore\n      0x04\n      add\n      tag_117\n      swap1\n      tag_118\n      jump\t// in\n    tag_117:\n      mload(0x40)\n      dup1\n      swap2\n      sub\n      swap1\n      revert\n    tag_116:\n        /* \"MLM/Multi-level MLM System/Final_SMART_CONTRACT/GrowChain.sol\":2555:2565  msg.sender */\n      caller\n        /* \"MLM/Multi-level MLM System/Final_SMART_CONTRACT/GrowChain.sol\":2542:2565  _referrer != msg.sender */\n      0xffffffffffffffffffffffffffffffffffffffff\n      and\n        /* \"MLM/Multi-level MLM System/Final_SMART_CONTRACT/GrowChain.sol\":2542:2551  _referrer */\n      dup2\n        /* \"MLM/Multi-level MLM System/Final_SMART_CONTRACT/GrowChain.sol\":2542:2565  _referrer != msg.sender */\n      0xffffffffffffffffffffffffffffffffffffffff\n      and\n      sub\n        /* \"MLM/Multi-level MLM System/Final_SMART_CONTRACT/GrowChain.sol\":2534:2591  require(_referrer != msg.sender, \"Cannot refer yourself\") */\n      tag_119\n      jumpi\n      mload(0x40)\n      0x08c379a000000000000000000000000000000000000000000000000000000000\n      dup2\n      mstore\n      0x04\n      add\n      tag_120\n      swap1\n      tag_121\n      jump\t// in\n    tag_120:\n      mload(0x40)\n      dup1\n      swap2\n      sub\n      swap1\n      revert\n    tag_119:\n        /* \"MLM/Multi-level MLM System/Final_SMART_CONTRACT/GrowChain.sol\":2610:2615  users */\n      0x0a\n        /* \"MLM/Multi-level MLM System/Final_SMART_CONTRACT/GrowChain.sol\":2610:2627  users[msg.sender] */\n      0x00\n        /* \"MLM/Multi-level MLM System/Final_SMART_CONTRACT/GrowChain.sol\":2616:2626  msg.sender */\n      caller\n        /* \"MLM/Multi-level MLM System/Final_SMART_CONTRACT/GrowChain.sol\":2610:2627  users[msg.sender] */\n      0xffffffffffffffffffffffffffffffffffffffff\n      and\n      0xffffffffffffffffffffffffffffffffffffffff\n      and\n      dup2\n      mstore\n      0x20\n      add\n      swap1\n      dup2\n      mstore\n      0x20\n      add\n      0x00\n      keccak256\n        /* \"MLM/Multi-level MLM System/Final_SMART_CONTRACT/GrowChain.sol\":2610:2640  users[msg.sender].isRegistered */\n      0x02\n      add\n      0x00\n      swap1\n      sload\n      swap1\n      0x0100\n      exp\n      swap1\n      div\n      0xff\n      and\n        /* \"MLM/Multi-level MLM System/Final_SMART_CONTRACT/GrowChain.sol\":2609:2640  !users[msg.sender].isRegistered */\n      iszero\n        /* \"MLM/Multi-level MLM System/Final_SMART_CONTRACT/GrowChain.sol\":2601:2663  require(!users[msg.sender].isRegistered, \"Already registered\") */\n      tag_122\n      jumpi\n      mload(0x40)\n      0x08c379a000000000000000000000000000000000000000000000000000000000\n      dup2\n      mstore\n      0x04\n      add\n      tag_123\n      swap1\n      tag_124\n      jump\t// in\n    tag_123:\n      mload(0x40)\n      dup1\n      swap2\n      sub\n      swap1\n      revert\n    tag_122:\n        /* \"MLM/Multi-level MLM System/Final_SMART_CONTRACT/GrowChain.sol\":2695:2698  GNT */\n      0x01\n      0x00\n      swap1\n      sload\n      swap1\n      0x0100\n      exp\n      swap1\n      div\n      0xffffffffffffffffffffffffffffffffffffffff\n      and\n        /* \"MLM/Multi-level MLM System/Final_SMART_CONTRACT/GrowChain.sol\":2695:2711  GNT.transferFrom */\n      0xffffffffffffffffffffffffffffffffffffffff\n      and\n      0x23b872dd\n        /* \"MLM/Multi-level MLM System/Final_SMART_CONTRACT/GrowChain.sol\":2712:2722  msg.sender */\n      caller\n        /* \"MLM/Multi-level MLM System/Final_SMART_CONTRACT/GrowChain.sol\":2732:2736  this */\n      address\n        /* \"MLM/Multi-level MLM System/Final_SMART_CONTRACT/GrowChain.sol\":2739:2755  REGISTRATION_FEE */\n      sload(0x03)\n        /* \"MLM/Multi-level MLM System/Final_SMART_CONTRACT/GrowChain.sol\":2695:2756  GNT.transferFrom(msg.sender, address(this), REGISTRATION_FEE) */\n      mload(0x40)\n      dup5\n      0xffffffff\n      and\n      0xe0\n      shl\n      dup2\n      mstore\n      0x04\n      add\n      tag_125\n      swap4\n      swap3\n      swap2\n      swap1\n      tag_126\n      jump\t// in\n    tag_125:\n      0x20\n      mload(0x40)\n      dup1\n      dup4\n      sub\n      dup2\n      0x00\n      dup8\n      gas\n      call\n      iszero\n      dup1\n      iszero\n      tag_128\n      jumpi\n      returndatasize\n      0x00\n      dup1\n      returndatacopy\n      revert(0x00, returndatasize)\n    tag_128:\n      pop\n      pop\n      pop\n      pop\n      mload(0x40)\n      returndatasize\n      not(0x1f)\n      0x1f\n      dup3\n      add\n      and\n      dup3\n      add\n      dup1\n      0x40\n      mstore\n      pop\n      dup2\n      add\n      swap1\n      tag_129\n      swap2\n      swap1\n      tag_130\n      jump\t// in\n    tag_129:\n        /* \"MLM/Multi-level MLM System/Final_SMART_CONTRACT/GrowChain.sol\":2674:2797  require(... */\n      tag_131\n      jumpi\n      mload(0x40)\n      0x08c379a000000000000000000000000000000000000000000000000000000000\n      dup2\n      mstore\n      0x04\n      add\n      tag_132\n      swap1\n      tag_133\n      jump\t// in\n    tag_132:\n      mload(0x40)\n      dup1\n      swap2\n      sub\n      swap1\n      revert\n    tag_131:\n        /* \"MLM/Multi-level MLM System/Final_SMART_CONTRACT/GrowChain.sol\":2808:2828  User storage newUser */\n      0x00\n        /* \"MLM/Multi-level MLM System/Final_SMART_CONTRACT/GrowChain.sol\":2831:2836  users */\n      0x0a\n        /* \"MLM/Multi-level MLM System/Final_SMART_CONTRACT/GrowChain.sol\":2831:2848  users[msg.sender] */\n      0x00\n        /* \"MLM/Multi-level MLM System/Final_SMART_CONTRACT/GrowChain.sol\":2837:2847  msg.sender */\n      caller\n        /* \"MLM/Multi-level MLM System/Final_SMART_CONTRACT/GrowChain.sol\":2831:2848  users[msg.sender] */\n      0xffffffffffffffffffffffffffffffffffffffff\n      and\n      0xffffffffffffffffffffffffffffffffffffffff\n      and\n      dup2\n      mstore\n      0x20\n      add\n      swap1\n      dup2\n      mstore\n      0x20\n      add\n      0x00\n      keccak256\n        /* \"MLM/Multi-level MLM System/Final_SMART_CONTRACT/GrowChain.sol\":2808:2848  User storage newUser = users[msg.sender] */\n      swap1\n      pop\n        /* \"MLM/Multi-level MLM System/Final_SMART_CONTRACT/GrowChain.sol\":2877:2886  _referrer */\n      dup2\n        /* \"MLM/Multi-level MLM System/Final_SMART_CONTRACT/GrowChain.sol\":2858:2865  newUser */\n      dup2\n        /* \"MLM/Multi-level MLM System/Final_SMART_CONTRACT/GrowChain.sol\":2858:2874  newUser.referrer */\n      0x00\n      add\n      0x00\n        /* \"MLM/Multi-level MLM System/Final_SMART_CONTRACT/GrowChain.sol\":2858:2886  newUser.referrer = _referrer */\n      0x0100\n      exp\n      dup2\n      sload\n      dup2\n      0xffffffffffffffffffffffffffffffffffffffff\n      mul\n      not\n      and\n      swap1\n      dup4\n      0xffffffffffffffffffffffffffffffffffffffff\n      and\n      mul\n      or\n      swap1\n      sstore\n      pop\n        /* \"MLM/Multi-level MLM System/Final_SMART_CONTRACT/GrowChain.sol\":2919:2923  true */\n      0x01\n        /* \"MLM/Multi-level MLM System/Final_SMART_CONTRACT/GrowChain.sol\":2896:2903  newUser */\n      dup2\n        /* \"MLM/Multi-level MLM System/Final_SMART_CONTRACT/GrowChain.sol\":2896:2916  newUser.isRegistered */\n      0x02\n      add\n      0x00\n        /* \"MLM/Multi-level MLM System/Final_SMART_CONTRACT/GrowChain.sol\":2896:2923  newUser.isRegistered = true */\n      0x0100\n      exp\n      dup2\n      sload\n      dup2\n      0xff\n      mul\n      not\n      and\n      swap1\n      dup4\n      iszero\n      iszero\n      mul\n      or\n      swap1\n      sstore\n      pop\n        /* \"MLM/Multi-level MLM System/Final_SMART_CONTRACT/GrowChain.sol\":2960:2975  block.timestamp */\n      timestamp\n        /* \"MLM/Multi-level MLM System/Final_SMART_CONTRACT/GrowChain.sol\":2933:2940  newUser */\n      dup2\n        /* \"MLM/Multi-level MLM System/Final_SMART_CONTRACT/GrowChain.sol\":2933:2957  newUser.registrationTime */\n      0x04\n      add\n        /* \"MLM/Multi-level MLM System/Final_SMART_CONTRACT/GrowChain.sol\":2933:2975  newUser.registrationTime = block.timestamp */\n      dup2\n      swap1\n      sstore\n      pop\n        /* \"MLM/Multi-level MLM System/Final_SMART_CONTRACT/GrowChain.sol\":3014:3023  _referrer */\n      dup2\n        /* \"MLM/Multi-level MLM System/Final_SMART_CONTRACT/GrowChain.sol\":2991:3041  Registered(msg.sender, _referrer, block.timestamp) */\n      0xffffffffffffffffffffffffffffffffffffffff\n      and\n        /* \"MLM/Multi-level MLM System/Final_SMART_CONTRACT/GrowChain.sol\":3002:3012  msg.sender */\n      caller\n        /* \"MLM/Multi-level MLM System/Final_SMART_CONTRACT/GrowChain.sol\":2991:3041  Registered(msg.sender, _referrer, block.timestamp) */\n      0xffffffffffffffffffffffffffffffffffffffff\n      and\n      0x199098452639b249bef6f727bc09ce903cece47ca72a8518bef9367ad39b6de7\n        /* \"MLM/Multi-level MLM System/Final_SMART_CONTRACT/GrowChain.sol\":3025:3040  block.timestamp */\n      timestamp\n        /* \"MLM/Multi-level MLM System/Final_SMART_CONTRACT/GrowChain.sol\":2991:3041  Registered(msg.sender, _referrer, block.timestamp) */\n      mload(0x40)\n      tag_134\n      swap2\n      swap1\n      tag_28\n      jump\t// in\n    tag_134:\n      mload(0x40)\n      dup1\n      swap2\n      sub\n      swap1\n      log3\n        /* \"MLM/Multi-level MLM System/Final_SMART_CONTRACT/GrowChain.sol\":3051:3097  distributeReferralIncome(_referrer,msg.sender) */\n      tag_135\n        /* \"MLM/Multi-level MLM System/Final_SMART_CONTRACT/GrowChain.sol\":3076:3085  _referrer */\n      dup3\n        /* \"MLM/Multi-level MLM System/Final_SMART_CONTRACT/GrowChain.sol\":3086:3096  msg.sender */\n      caller\n        /* \"MLM/Multi-level MLM System/Final_SMART_CONTRACT/GrowChain.sol\":3051:3075  distributeReferralIncome */\n      tag_136\n        /* \"MLM/Multi-level MLM System/Final_SMART_CONTRACT/GrowChain.sol\":3051:3097  distributeReferralIncome(_referrer,msg.sender) */\n      jump\t// in\n    tag_135:\n        /* \"MLM/Multi-level MLM System/Final_SMART_CONTRACT/GrowChain.sol\":2225:3104  { require(msg.sender != address(0), \"Invalid sender address\");... */\n      pop\n        /* \"@openzeppelin/contracts/security/ReentrancyGuard.sol\":2303:2323  _nonReentrantAfter() */\n      tag_137\n        /* \"@openzeppelin/contracts/security/ReentrancyGuard.sol\":2303:2321  _nonReentrantAfter */\n      tag_138\n        /* \"@openzeppelin/contracts/security/ReentrancyGuard.sol\":2303:2323  _nonReentrantAfter() */\n      jump\t// in\n    tag_137:\n        /* \"MLM/Multi-level MLM System/Final_SMART_CONTRACT/GrowChain.sol\":2120:3104  function registration(address _referrer)... */\n      pop\n      jump\t// out\n        /* \"MLM/Multi-level MLM System/Final_SMART_CONTRACT/GrowChain.sol\":6107:6257  function withdraw(uint256 amount) external nonReentrant onlybyAdmin {... */\n    tag_36:\n        /* \"@openzeppelin/contracts/security/ReentrancyGuard.sol\":2261:2282  _nonReentrantBefore() */\n      tag_140\n        /* \"@openzeppelin/contracts/security/ReentrancyGuard.sol\":2261:2280  _nonReentrantBefore */\n      tag_100\n        /* \"@openzeppelin/contracts/security/ReentrancyGuard.sol\":2261:2282  _nonReentrantBefore() */\n      jump\t// in\n    tag_140:\n        /* \"MLM/Multi-level MLM System/Final_SMART_CONTRACT/GrowChain.sol\":1759:1764  admin */\n      0x02\n      0x00\n      swap1\n      sload\n      swap1\n      0x0100\n      exp\n      swap1\n      div\n      0xffffffffffffffffffffffffffffffffffffffff\n      and\n        /* \"MLM/Multi-level MLM System/Final_SMART_CONTRACT/GrowChain.sol\":1745:1764  msg.sender == admin */\n      0xffffffffffffffffffffffffffffffffffffffff\n      and\n        /* \"MLM/Multi-level MLM System/Final_SMART_CONTRACT/GrowChain.sol\":1745:1755  msg.sender */\n      caller\n        /* \"MLM/Multi-level MLM System/Final_SMART_CONTRACT/GrowChain.sol\":1745:1764  msg.sender == admin */\n      0xffffffffffffffffffffffffffffffffffffffff\n      and\n      eq\n        /* \"MLM/Multi-level MLM System/Final_SMART_CONTRACT/GrowChain.sol\":1724:1840  require(... */\n      tag_142\n      jumpi\n      mload(0x40)\n      0x08c379a000000000000000000000000000000000000000000000000000000000\n      dup2\n      mstore\n      0x04\n      add\n      tag_143\n      swap1\n      tag_144\n      jump\t// in\n    tag_143:\n      mload(0x40)\n      dup1\n      swap2\n      sub\n      swap1\n      revert\n    tag_142:\n        /* \"MLM/Multi-level MLM System/Final_SMART_CONTRACT/GrowChain.sol\":6185:6188  GNT */\n      0x01\n      0x00\n      swap1\n      sload\n      swap1\n      0x0100\n      exp\n      swap1\n      div\n      0xffffffffffffffffffffffffffffffffffffffff\n      and\n        /* \"MLM/Multi-level MLM System/Final_SMART_CONTRACT/GrowChain.sol\":6185:6197  GNT.transfer */\n      0xffffffffffffffffffffffffffffffffffffffff\n      and\n      0xa9059cbb\n        /* \"MLM/Multi-level MLM System/Final_SMART_CONTRACT/GrowChain.sol\":6198:6203  admin */\n      0x02\n      0x00\n      swap1\n      sload\n      swap1\n      0x0100\n      exp\n      swap1\n      div\n      0xffffffffffffffffffffffffffffffffffffffff\n      and\n        /* \"MLM/Multi-level MLM System/Final_SMART_CONTRACT/GrowChain.sol\":6205:6211  amount */\n      dup4\n        /* \"MLM/Multi-level MLM System/Final_SMART_CONTRACT/GrowChain.sol\":6185:6212  GNT.transfer(admin, amount) */\n      mload(0x40)\n      dup4\n      0xffffffff\n      and\n      0xe0\n      shl\n      dup2\n      mstore\n      0x04\n      add\n      tag_146\n      swap3\n      swap2\n      swap1\n      tag_147\n      jump\t// in\n    tag_146:\n      0x20\n      mload(0x40)\n      dup1\n      dup4\n      sub\n      dup2\n      0x00\n      dup8\n      gas\n      call\n      iszero\n      dup1\n      iszero\n      tag_149\n      jumpi\n      returndatasize\n      0x00\n      dup1\n      returndatacopy\n      revert(0x00, returndatasize)\n    tag_149:\n      pop\n      pop\n      pop\n      pop\n      mload(0x40)\n      returndatasize\n      not(0x1f)\n      0x1f\n      dup3\n      add\n      and\n      dup3\n      add\n      dup1\n      0x40\n      mstore\n      pop\n      dup2\n      add\n      swap1\n      tag_150\n      swap2\n      swap1\n      tag_130\n      jump\t// in\n    tag_150:\n      pop\n        /* \"MLM/Multi-level MLM System/Final_SMART_CONTRACT/GrowChain.sol\":6236:6241  admin */\n      0x02\n      0x00\n      swap1\n      sload\n      swap1\n      0x0100\n      exp\n      swap1\n      div\n      0xffffffffffffffffffffffffffffffffffffffff\n      and\n        /* \"MLM/Multi-level MLM System/Final_SMART_CONTRACT/GrowChain.sol\":6227:6250  Withdraw(admin, amount) */\n      0xffffffffffffffffffffffffffffffffffffffff\n      and\n      0x884edad9ce6fa2440d8a54cc123490eb96d2768479d49ff9c7366125a9424364\n        /* \"MLM/Multi-level MLM System/Final_SMART_CONTRACT/GrowChain.sol\":6243:6249  amount */\n      dup3\n        /* \"MLM/Multi-level MLM System/Final_SMART_CONTRACT/GrowChain.sol\":6227:6250  Withdraw(admin, amount) */\n      mload(0x40)\n      tag_151\n      swap2\n      swap1\n      tag_28\n      jump\t// in\n    tag_151:\n      mload(0x40)\n      dup1\n      swap2\n      sub\n      swap1\n      log2\n        /* \"@openzeppelin/contracts/security/ReentrancyGuard.sol\":2303:2323  _nonReentrantAfter() */\n      tag_152\n        /* \"@openzeppelin/contracts/security/ReentrancyGuard.sol\":2303:2321  _nonReentrantAfter */\n      tag_138\n        /* \"@openzeppelin/contracts/security/ReentrancyGuard.sol\":2303:2323  _nonReentrantAfter() */\n      jump\t// in\n    tag_152:\n        /* \"MLM/Multi-level MLM System/Final_SMART_CONTRACT/GrowChain.sol\":6107:6257  function withdraw(uint256 amount) external nonReentrant onlybyAdmin {... */\n      pop\n      jump\t// out\n        /* \"MLM/Multi-level MLM System/Final_SMART_CONTRACT/GrowChain.sol\":5108:5276  function getIndirectReferrals(address _user)... */\n    tag_39:\n        /* \"MLM/Multi-level MLM System/Final_SMART_CONTRACT/GrowChain.sol\":5200:5216  address[] memory */\n      0x60\n        /* \"MLM/Multi-level MLM System/Final_SMART_CONTRACT/GrowChain.sol\":5239:5244  users */\n      0x0a\n        /* \"MLM/Multi-level MLM System/Final_SMART_CONTRACT/GrowChain.sol\":5239:5251  users[_user] */\n      0x00\n        /* \"MLM/Multi-level MLM System/Final_SMART_CONTRACT/GrowChain.sol\":5245:5250  _user */\n      dup4\n        /* \"MLM/Multi-level MLM System/Final_SMART_CONTRACT/GrowChain.sol\":5239:5251  users[_user] */\n      0xffffffffffffffffffffffffffffffffffffffff\n      and\n      0xffffffffffffffffffffffffffffffffffffffff\n      and\n      dup2\n      mstore\n      0x20\n      add\n      swap1\n      dup2\n      mstore\n      0x20\n      add\n      0x00\n      keccak256\n        /* \"MLM/Multi-level MLM System/Final_SMART_CONTRACT/GrowChain.sol\":5239:5269  users[_user].indirectReferrals */\n      0x08\n      add\n        /* \"MLM/Multi-level MLM System/Final_SMART_CONTRACT/GrowChain.sol\":5232:5269  return users[_user].indirectReferrals */\n      dup1\n      sload\n      dup1\n      0x20\n      mul\n      0x20\n      add\n      mload(0x40)\n      swap1\n      dup2\n      add\n      0x40\n      mstore\n      dup1\n      swap3\n      swap2\n      swap1\n      dup2\n      dup2\n      mstore\n      0x20\n      add\n      dup3\n      dup1\n      sload\n      dup1\n      iszero\n      tag_154\n      jumpi\n      0x20\n      mul\n      dup3\n      add\n      swap2\n      swap1\n      0x00\n      mstore\n      keccak256(0x00, 0x20)\n      swap1\n    tag_155:\n      dup2\n      0x00\n      swap1\n      sload\n      swap1\n      0x0100\n      exp\n      swap1\n      div\n      0xffffffffffffffffffffffffffffffffffffffff\n      and\n      0xffffffffffffffffffffffffffffffffffffffff\n      and\n      dup2\n      mstore\n      0x20\n      add\n      swap1\n      0x01\n      add\n      swap1\n      dup1\n      dup4\n      gt\n      tag_155\n      jumpi\n    tag_154:\n      pop\n      pop\n      pop\n      pop\n      pop\n      swap1\n      pop\n        /* \"MLM/Multi-level MLM System/Final_SMART_CONTRACT/GrowChain.sol\":5108:5276  function getIndirectReferrals(address _user)... */\n      swap2\n      swap1\n      pop\n      jump\t// out\n        /* \"MLM/Multi-level MLM System/Final_SMART_CONTRACT/GrowChain.sol\":5425:5689  function changeRegistrationFee(uint256 _fee) external onlybyAdmin {... */\n    tag_44:\n        /* \"MLM/Multi-level MLM System/Final_SMART_CONTRACT/GrowChain.sol\":1759:1764  admin */\n      0x02\n      0x00\n      swap1\n      sload\n      swap1\n      0x0100\n      exp\n      swap1\n      div\n      0xffffffffffffffffffffffffffffffffffffffff\n      and\n        /* \"MLM/Multi-level MLM System/Final_SMART_CONTRACT/GrowChain.sol\":1745:1764  msg.sender == admin */\n      0xffffffffffffffffffffffffffffffffffffffff\n      and\n        /* \"MLM/Multi-level MLM System/Final_SMART_CONTRACT/GrowChain.sol\":1745:1755  msg.sender */\n      caller\n        /* \"MLM/Multi-level MLM System/Final_SMART_CONTRACT/GrowChain.sol\":1745:1764  msg.sender == admin */\n      0xffffffffffffffffffffffffffffffffffffffff\n      and\n      eq\n        /* \"MLM/Multi-level MLM System/Final_SMART_CONTRACT/GrowChain.sol\":1724:1840  require(... */\n      tag_157\n      jumpi\n      mload(0x40)\n      0x08c379a000000000000000000000000000000000000000000000000000000000\n      dup2\n      mstore\n      0x04\n      add\n      tag_158\n      swap1\n      tag_144\n      jump\t// in\n    tag_158:\n      mload(0x40)\n      dup1\n      swap2\n      sub\n      swap1\n      revert\n    tag_157:\n        /* \"MLM/Multi-level MLM System/Final_SMART_CONTRACT/GrowChain.sol\":5516:5518  99 */\n      0x63\n        /* \"MLM/Multi-level MLM System/Final_SMART_CONTRACT/GrowChain.sol\":5509:5513  _fee */\n      dup2\n        /* \"MLM/Multi-level MLM System/Final_SMART_CONTRACT/GrowChain.sol\":5509:5518  _fee < 99 */\n      lt\n        /* \"MLM/Multi-level MLM System/Final_SMART_CONTRACT/GrowChain.sol\":5501:5541  require(_fee < 99, \"Invalid percentage\") */\n      tag_160\n      jumpi\n      mload(0x40)\n      0x08c379a000000000000000000000000000000000000000000000000000000000\n      dup2\n      mstore\n      0x04\n      add\n      tag_161\n      swap1\n      tag_162\n      jump\t// in\n    tag_161:\n      mload(0x40)\n      dup1\n      swap2\n      sub\n      swap1\n      revert\n    tag_160:\n        /* \"MLM/Multi-level MLM System/Final_SMART_CONTRACT/GrowChain.sol\":5551:5562  uint oldfee */\n      0x00\n        /* \"MLM/Multi-level MLM System/Final_SMART_CONTRACT/GrowChain.sol\":5563:5579  REGISTRATION_FEE */\n      sload(0x03)\n        /* \"MLM/Multi-level MLM System/Final_SMART_CONTRACT/GrowChain.sol\":5551:5579  uint oldfee=REGISTRATION_FEE */\n      swap1\n      pop\n        /* \"MLM/Multi-level MLM System/Final_SMART_CONTRACT/GrowChain.sol\":5615:5621  10**18 */\n      0x0de0b6b3a7640000\n        /* \"MLM/Multi-level MLM System/Final_SMART_CONTRACT/GrowChain.sol\":5608:5612  _fee */\n      dup3\n        /* \"MLM/Multi-level MLM System/Final_SMART_CONTRACT/GrowChain.sol\":5608:5621  _fee * 10**18 */\n      tag_163\n      swap2\n      swap1\n      tag_164\n      jump\t// in\n    tag_163:\n        /* \"MLM/Multi-level MLM System/Final_SMART_CONTRACT/GrowChain.sol\":5589:5605  REGISTRATION_FEE */\n      0x03\n        /* \"MLM/Multi-level MLM System/Final_SMART_CONTRACT/GrowChain.sol\":5589:5621  REGISTRATION_FEE = _fee * 10**18 */\n      dup2\n      swap1\n      sstore\n      pop\n        /* \"MLM/Multi-level MLM System/Final_SMART_CONTRACT/GrowChain.sol\":5633:5681  RegistrationFeeUpdated(oldfee, REGISTRATION_FEE) */\n      0x50b218c5a101ad05d53ab0a964d01da639ee79525ae4b7802ed714249740a8d5\n        /* \"MLM/Multi-level MLM System/Final_SMART_CONTRACT/GrowChain.sol\":5656:5662  oldfee */\n      dup2\n        /* \"MLM/Multi-level MLM System/Final_SMART_CONTRACT/GrowChain.sol\":5664:5680  REGISTRATION_FEE */\n      sload(0x03)\n        /* \"MLM/Multi-level MLM System/Final_SMART_CONTRACT/GrowChain.sol\":5633:5681  RegistrationFeeUpdated(oldfee, REGISTRATION_FEE) */\n      mload(0x40)\n      tag_165\n      swap3\n      swap2\n      swap1\n      tag_166\n      jump\t// in\n    tag_165:\n      mload(0x40)\n      dup1\n      swap2\n      sub\n      swap1\n      log1\n        /* \"MLM/Multi-level MLM System/Final_SMART_CONTRACT/GrowChain.sol\":5491:5689  {... */\n      pop\n        /* \"MLM/Multi-level MLM System/Final_SMART_CONTRACT/GrowChain.sol\":5425:5689  function changeRegistrationFee(uint256 _fee) external onlybyAdmin {... */\n      pop\n      jump\t// out\n        /* \"MLM/Multi-level MLM System/Final_SMART_CONTRACT/GrowChain.sol\":5758:5826  function paused() external onlybyAdmin {... */\n    tag_46:\n        /* \"MLM/Multi-level MLM System/Final_SMART_CONTRACT/GrowChain.sol\":1759:1764  admin */\n      0x02\n      0x00\n      swap1\n      sload\n      swap1\n      0x0100\n      exp\n      swap1\n      div\n      0xffffffffffffffffffffffffffffffffffffffff\n      and\n        /* \"MLM/Multi-level MLM System/Final_SMART_CONTRACT/GrowChain.sol\":1745:1764  msg.sender == admin */\n      0xffffffffffffffffffffffffffffffffffffffff\n      and\n        /* \"MLM/Multi-level MLM System/Final_SMART_CONTRACT/GrowChain.sol\":1745:1755  msg.sender */\n      caller\n        /* \"MLM/Multi-level MLM System/Final_SMART_CONTRACT/GrowChain.sol\":1745:1764  msg.sender == admin */\n      0xffffffffffffffffffffffffffffffffffffffff\n      and\n      eq\n        /* \"MLM/Multi-level MLM System/Final_SMART_CONTRACT/GrowChain.sol\":1724:1840  require(... */\n      tag_168\n      jumpi\n      mload(0x40)\n      0x08c379a000000000000000000000000000000000000000000000000000000000\n      dup2\n      mstore\n      0x04\n      add\n      tag_169\n      swap1\n      tag_144\n      jump\t// in\n    tag_169:\n      mload(0x40)\n      dup1\n      swap2\n      sub\n      swap1\n      revert\n    tag_168:\n        /* \"MLM/Multi-level MLM System/Final_SMART_CONTRACT/GrowChain.sol\":5815:5819  true */\n      0x01\n        /* \"MLM/Multi-level MLM System/Final_SMART_CONTRACT/GrowChain.sol\":5807:5812  pause */\n      0x02\n      0x14\n        /* \"MLM/Multi-level MLM System/Final_SMART_CONTRACT/GrowChain.sol\":5807:5819  pause = true */\n      0x0100\n      exp\n      dup2\n      sload\n      dup2\n      0xff\n      mul\n      not\n      and\n      swap1\n      dup4\n      iszero\n      iszero\n      mul\n      or\n      swap1\n      sstore\n      pop\n        /* \"MLM/Multi-level MLM System/Final_SMART_CONTRACT/GrowChain.sol\":5758:5826  function paused() external onlybyAdmin {... */\n      jump\t// out\n        /* \"MLM/Multi-level MLM System/Final_SMART_CONTRACT/GrowChain.sol\":626:681  uint256[5] public levelPercentage = [40, 20, 15, 10, 5] */\n    tag_49:\n      0x04\n      dup2\n      0x05\n      dup2\n      lt\n      tag_171\n      jumpi\n      0x00\n      dup1\n      revert\n    tag_171:\n      add\n      0x00\n      swap2\n      pop\n      swap1\n      pop\n      sload\n      dup2\n      jump\t// out\n        /* \"MLM/Multi-level MLM System/Final_SMART_CONTRACT/GrowChain.sol\":575:620  uint256 public REGISTRATION_FEE = 10 * 10**18 */\n    tag_52:\n      sload(0x03)\n      dup2\n      jump\t// out\n        /* \"MLM/Multi-level MLM System/Final_SMART_CONTRACT/GrowChain.sol\":6842:7057  function updateTokenAddress(address _token) external onlybyAdmin {... */\n    tag_56:\n        /* \"MLM/Multi-level MLM System/Final_SMART_CONTRACT/GrowChain.sol\":1759:1764  admin */\n      0x02\n      0x00\n      swap1\n      sload\n      swap1\n      0x0100\n      exp\n      swap1\n      div\n      0xffffffffffffffffffffffffffffffffffffffff\n      and\n        /* \"MLM/Multi-level MLM System/Final_SMART_CONTRACT/GrowChain.sol\":1745:1764  msg.sender == admin */\n      0xffffffffffffffffffffffffffffffffffffffff\n      and\n        /* \"MLM/Multi-level MLM System/Final_SMART_CONTRACT/GrowChain.sol\":1745:1755  msg.sender */\n      caller\n        /* \"MLM/Multi-level MLM System/Final_SMART_CONTRACT/GrowChain.sol\":1745:1764  msg.sender == admin */\n      0xffffffffffffffffffffffffffffffffffffffff\n      and\n      eq\n        /* \"MLM/Multi-level MLM System/Final_SMART_CONTRACT/GrowChain.sol\":1724:1840  require(... */\n      tag_174\n      jumpi\n      mload(0x40)\n      0x08c379a000000000000000000000000000000000000000000000000000000000\n      dup2\n      mstore\n      0x04\n      add\n      tag_175\n      swap1\n      tag_144\n      jump\t// in\n    tag_175:\n      mload(0x40)\n      dup1\n      swap2\n      sub\n      swap1\n      revert\n    tag_174:\n        /* \"MLM/Multi-level MLM System/Final_SMART_CONTRACT/GrowChain.sol\":6943:6944  0 */\n      0x00\n        /* \"MLM/Multi-level MLM System/Final_SMART_CONTRACT/GrowChain.sol\":6925:6945  _token != address(0) */\n      0xffffffffffffffffffffffffffffffffffffffff\n      and\n        /* \"MLM/Multi-level MLM System/Final_SMART_CONTRACT/GrowChain.sol\":6925:6931  _token */\n      dup2\n        /* \"MLM/Multi-level MLM System/Final_SMART_CONTRACT/GrowChain.sol\":6925:6945  _token != address(0) */\n      0xffffffffffffffffffffffffffffffffffffffff\n      and\n      sub\n        /* \"MLM/Multi-level MLM System/Final_SMART_CONTRACT/GrowChain.sol\":6917:6971  require(_token != address(0), \"Invalid token address\") */\n      tag_177\n      jumpi\n      mload(0x40)\n      0x08c379a000000000000000000000000000000000000000000000000000000000\n      dup2\n      mstore\n      0x04\n      add\n      tag_178\n      swap1\n      tag_179\n      jump\t// in\n    tag_178:\n      mload(0x40)\n      dup1\n      swap2\n      sub\n      swap1\n      revert\n    tag_177:\n        /* \"MLM/Multi-level MLM System/Final_SMART_CONTRACT/GrowChain.sol\":6994:7000  _token */\n      dup1\n        /* \"MLM/Multi-level MLM System/Final_SMART_CONTRACT/GrowChain.sol\":6981:6984  GNT */\n      0x01\n      0x00\n        /* \"MLM/Multi-level MLM System/Final_SMART_CONTRACT/GrowChain.sol\":6981:7001  GNT = IERC20(_token) */\n      0x0100\n      exp\n      dup2\n      sload\n      dup2\n      0xffffffffffffffffffffffffffffffffffffffff\n      mul\n      not\n      and\n      swap1\n      dup4\n      0xffffffffffffffffffffffffffffffffffffffff\n      and\n      mul\n      or\n      swap1\n      sstore\n      pop\n        /* \"MLM/Multi-level MLM System/Final_SMART_CONTRACT/GrowChain.sol\":7043:7049  _token */\n      dup1\n        /* \"MLM/Multi-level MLM System/Final_SMART_CONTRACT/GrowChain.sol\":7016:7050  TokenUpdated(address(GNT), _token) */\n      0xffffffffffffffffffffffffffffffffffffffff\n      and\n        /* \"MLM/Multi-level MLM System/Final_SMART_CONTRACT/GrowChain.sol\":7037:7040  GNT */\n      0x01\n      0x00\n      swap1\n      sload\n      swap1\n      0x0100\n      exp\n      swap1\n      div\n      0xffffffffffffffffffffffffffffffffffffffff\n      and\n        /* \"MLM/Multi-level MLM System/Final_SMART_CONTRACT/GrowChain.sol\":7016:7050  TokenUpdated(address(GNT), _token) */\n      0xffffffffffffffffffffffffffffffffffffffff\n      and\n      0x0b1186973f810894b87ab0bfbee422fddcaad21b46dc705a561451bbb6bac117\n      mload(0x40)\n      mload(0x40)\n      dup1\n      swap2\n      sub\n      swap1\n      log3\n        /* \"MLM/Multi-level MLM System/Final_SMART_CONTRACT/GrowChain.sol\":6842:7057  function updateTokenAddress(address _token) external onlybyAdmin {... */\n      pop\n      jump\t// out\n        /* \"MLM/Multi-level MLM System/Final_SMART_CONTRACT/GrowChain.sol\":552:569  bool public pause */\n    tag_58:\n      0x02\n      0x14\n      swap1\n      sload\n      swap1\n      0x0100\n      exp\n      swap1\n      div\n      0xff\n      and\n      dup2\n      jump\t// out\n        /* \"MLM/Multi-level MLM System/Final_SMART_CONTRACT/GrowChain.sol\":503:520  IERC20 public GNT */\n    tag_62:\n      0x01\n      0x00\n      swap1\n      sload\n      swap1\n      0x0100\n      exp\n      swap1\n      div\n      0xffffffffffffffffffffffffffffffffffffffff\n      and\n      dup2\n      jump\t// out\n        /* \"MLM/Multi-level MLM System/Final_SMART_CONTRACT/GrowChain.sol\":7180:7296  function contractTokenBalance() external view returns (uint256) {... */\n    tag_66:\n        /* \"MLM/Multi-level MLM System/Final_SMART_CONTRACT/GrowChain.sol\":7235:7242  uint256 */\n      0x00\n        /* \"MLM/Multi-level MLM System/Final_SMART_CONTRACT/GrowChain.sol\":7261:7264  GNT */\n      0x01\n      0x00\n      swap1\n      sload\n      swap1\n      0x0100\n      exp\n      swap1\n      div\n      0xffffffffffffffffffffffffffffffffffffffff\n      and\n        /* \"MLM/Multi-level MLM System/Final_SMART_CONTRACT/GrowChain.sol\":7261:7274  GNT.balanceOf */\n      0xffffffffffffffffffffffffffffffffffffffff\n      and\n      0x70a08231\n        /* \"MLM/Multi-level MLM System/Final_SMART_CONTRACT/GrowChain.sol\":7283:7287  this */\n      address\n        /* \"MLM/Multi-level MLM System/Final_SMART_CONTRACT/GrowChain.sol\":7261:7289  GNT.balanceOf(address(this)) */\n      mload(0x40)\n      dup3\n      0xffffffff\n      and\n      0xe0\n      shl\n      dup2\n      mstore\n      0x04\n      add\n      tag_181\n      swap2\n      swap1\n      tag_93\n      jump\t// in\n    tag_181:\n      0x20\n      mload(0x40)\n      dup1\n      dup4\n      sub\n      dup2\n      dup7\n      gas\n      staticcall\n      iszero\n      dup1\n      iszero\n      tag_183\n      jumpi\n      returndatasize\n      0x00\n      dup1\n      returndatacopy\n      revert(0x00, returndatasize)\n    tag_183:\n      pop\n      pop\n      pop\n      pop\n      mload(0x40)\n      returndatasize\n      not(0x1f)\n      0x1f\n      dup3\n      add\n      and\n      dup3\n      add\n      dup1\n      0x40\n      mstore\n      pop\n      dup2\n      add\n      swap1\n      tag_184\n      swap2\n      swap1\n      tag_112\n      jump\t// in\n    tag_184:\n        /* \"MLM/Multi-level MLM System/Final_SMART_CONTRACT/GrowChain.sol\":7254:7289  return GNT.balanceOf(address(this)) */\n      swap1\n      pop\n        /* \"MLM/Multi-level MLM System/Final_SMART_CONTRACT/GrowChain.sol\":7180:7296  function contractTokenBalance() external view returns (uint256) {... */\n      swap1\n      jump\t// out\n        /* \"MLM/Multi-level MLM System/Final_SMART_CONTRACT/GrowChain.sol\":1538:1575  mapping(address => User) public users */\n    tag_70:\n      mstore(0x20, 0x0a)\n      dup1\n      0x00\n      mstore\n      keccak256(0x00, 0x40)\n      0x00\n      swap2\n      pop\n      swap1\n      pop\n      dup1\n      0x00\n      add\n      0x00\n      swap1\n      sload\n      swap1\n      0x0100\n      exp\n      swap1\n      div\n      0xffffffffffffffffffffffffffffffffffffffff\n      and\n      swap1\n      dup1\n      0x01\n      add\n      sload\n      swap1\n      dup1\n      0x02\n      add\n      0x00\n      swap1\n      sload\n      swap1\n      0x0100\n      exp\n      swap1\n      div\n      0xff\n      and\n      swap1\n      dup1\n      0x03\n      add\n      sload\n      swap1\n      dup1\n      0x04\n      add\n      sload\n      swap1\n      dup1\n      0x06\n      add\n      sload\n      swap1\n      dup1\n      0x07\n      add\n      sload\n      swap1\n      pop\n      dup8\n      jump\t// out\n        /* \"MLM/Multi-level MLM System/Final_SMART_CONTRACT/GrowChain.sol\":5902:5973  function unpaused() external onlybyAdmin {... */\n    tag_74:\n        /* \"MLM/Multi-level MLM System/Final_SMART_CONTRACT/GrowChain.sol\":1759:1764  admin */\n      0x02\n      0x00\n      swap1\n      sload\n      swap1\n      0x0100\n      exp\n      swap1\n      div\n      0xffffffffffffffffffffffffffffffffffffffff\n      and\n        /* \"MLM/Multi-level MLM System/Final_SMART_CONTRACT/GrowChain.sol\":1745:1764  msg.sender == admin */\n      0xffffffffffffffffffffffffffffffffffffffff\n      and\n        /* \"MLM/Multi-level MLM System/Final_SMART_CONTRACT/GrowChain.sol\":1745:1755  msg.sender */\n      caller\n        /* \"MLM/Multi-level MLM System/Final_SMART_CONTRACT/GrowChain.sol\":1745:1764  msg.sender == admin */\n      0xffffffffffffffffffffffffffffffffffffffff\n      and\n      eq\n        /* \"MLM/Multi-level MLM System/Final_SMART_CONTRACT/GrowChain.sol\":1724:1840  require(... */\n      tag_186\n      jumpi\n      mload(0x40)\n      0x08c379a000000000000000000000000000000000000000000000000000000000\n      dup2\n      mstore\n      0x04\n      add\n      tag_187\n      swap1\n      tag_144\n      jump\t// in\n    tag_187:\n      mload(0x40)\n      dup1\n      swap2\n      sub\n      swap1\n      revert\n    tag_186:\n        /* \"MLM/Multi-level MLM System/Final_SMART_CONTRACT/GrowChain.sol\":5961:5966  false */\n      0x00\n        /* \"MLM/Multi-level MLM System/Final_SMART_CONTRACT/GrowChain.sol\":5953:5958  pause */\n      0x02\n      0x14\n        /* \"MLM/Multi-level MLM System/Final_SMART_CONTRACT/GrowChain.sol\":5953:5966  pause = false */\n      0x0100\n      exp\n      dup2\n      sload\n      dup2\n      0xff\n      mul\n      not\n      and\n      swap1\n      dup4\n      iszero\n      iszero\n      mul\n      or\n      swap1\n      sstore\n      pop\n        /* \"MLM/Multi-level MLM System/Final_SMART_CONTRACT/GrowChain.sol\":5902:5973  function unpaused() external onlybyAdmin {... */\n      jump\t// out\n        /* \"MLM/Multi-level MLM System/Final_SMART_CONTRACT/GrowChain.sol\":3573:4207  function getUserDetails(address _user)... */\n    tag_77:\n        /* \"MLM/Multi-level MLM System/Final_SMART_CONTRACT/GrowChain.sol\":3672:3688  address referrer */\n      0x00\n        /* \"MLM/Multi-level MLM System/Final_SMART_CONTRACT/GrowChain.sol\":3702:3730  uint256 directReferralIncome */\n      dup1\n        /* \"MLM/Multi-level MLM System/Final_SMART_CONTRACT/GrowChain.sol\":3744:3765  uint256 referralCount */\n      0x00\n        /* \"MLM/Multi-level MLM System/Final_SMART_CONTRACT/GrowChain.sol\":3779:3797  uint256 teamIncome */\n      dup1\n        /* \"MLM/Multi-level MLM System/Final_SMART_CONTRACT/GrowChain.sol\":3811:3827  uint256 teamSize */\n      0x00\n        /* \"MLM/Multi-level MLM System/Final_SMART_CONTRACT/GrowChain.sol\":3841:3858  bool isRegistered */\n      dup1\n        /* \"MLM/Multi-level MLM System/Final_SMART_CONTRACT/GrowChain.sol\":3872:3896  uint256 registrationTime */\n      0x00\n        /* \"MLM/Multi-level MLM System/Final_SMART_CONTRACT/GrowChain.sol\":3921:3938  User storage user */\n      dup1\n        /* \"MLM/Multi-level MLM System/Final_SMART_CONTRACT/GrowChain.sol\":3941:3946  users */\n      0x0a\n        /* \"MLM/Multi-level MLM System/Final_SMART_CONTRACT/GrowChain.sol\":3941:3953  users[_user] */\n      0x00\n        /* \"MLM/Multi-level MLM System/Final_SMART_CONTRACT/GrowChain.sol\":3947:3952  _user */\n      dup11\n        /* \"MLM/Multi-level MLM System/Final_SMART_CONTRACT/GrowChain.sol\":3941:3953  users[_user] */\n      0xffffffffffffffffffffffffffffffffffffffff\n      and\n      0xffffffffffffffffffffffffffffffffffffffff\n      and\n      dup2\n      mstore\n      0x20\n      add\n      swap1\n      dup2\n      mstore\n      0x20\n      add\n      0x00\n      keccak256\n        /* \"MLM/Multi-level MLM System/Final_SMART_CONTRACT/GrowChain.sol\":3921:3953  User storage user = users[_user] */\n      swap1\n      pop\n        /* \"MLM/Multi-level MLM System/Final_SMART_CONTRACT/GrowChain.sol\":3984:3988  user */\n      dup1\n        /* \"MLM/Multi-level MLM System/Final_SMART_CONTRACT/GrowChain.sol\":3984:3997  user.referrer */\n      0x00\n      add\n      0x00\n      swap1\n      sload\n      swap1\n      0x0100\n      exp\n      swap1\n      div\n      0xffffffffffffffffffffffffffffffffffffffff\n      and\n        /* \"MLM/Multi-level MLM System/Final_SMART_CONTRACT/GrowChain.sol\":4011:4015  user */\n      dup2\n        /* \"MLM/Multi-level MLM System/Final_SMART_CONTRACT/GrowChain.sol\":4011:4036  user.directReferralIncome */\n      0x01\n      add\n      sload\n        /* \"MLM/Multi-level MLM System/Final_SMART_CONTRACT/GrowChain.sol\":4050:4054  user */\n      dup3\n        /* \"MLM/Multi-level MLM System/Final_SMART_CONTRACT/GrowChain.sol\":4050:4068  user.referralCount */\n      0x03\n      add\n      sload\n        /* \"MLM/Multi-level MLM System/Final_SMART_CONTRACT/GrowChain.sol\":4082:4086  user */\n      dup4\n        /* \"MLM/Multi-level MLM System/Final_SMART_CONTRACT/GrowChain.sol\":4082:4097  user.teamIncome */\n      0x06\n      add\n      sload\n        /* \"MLM/Multi-level MLM System/Final_SMART_CONTRACT/GrowChain.sol\":4111:4115  user */\n      dup5\n        /* \"MLM/Multi-level MLM System/Final_SMART_CONTRACT/GrowChain.sol\":4111:4124  user.teamSize */\n      0x07\n      add\n      sload\n        /* \"MLM/Multi-level MLM System/Final_SMART_CONTRACT/GrowChain.sol\":4138:4142  user */\n      dup6\n        /* \"MLM/Multi-level MLM System/Final_SMART_CONTRACT/GrowChain.sol\":4138:4155  user.isRegistered */\n      0x02\n      add\n      0x00\n      swap1\n      sload\n      swap1\n      0x0100\n      exp\n      swap1\n      div\n      0xff\n      and\n        /* \"MLM/Multi-level MLM System/Final_SMART_CONTRACT/GrowChain.sol\":4169:4173  user */\n      dup7\n        /* \"MLM/Multi-level MLM System/Final_SMART_CONTRACT/GrowChain.sol\":4169:4190  user.registrationTime */\n      0x04\n      add\n      sload\n        /* \"MLM/Multi-level MLM System/Final_SMART_CONTRACT/GrowChain.sol\":3963:4200  return (... */\n      swap8\n      pop\n      swap8\n      pop\n      swap8\n      pop\n      swap8\n      pop\n      swap8\n      pop\n      swap8\n      pop\n      swap8\n      pop\n      pop\n        /* \"MLM/Multi-level MLM System/Final_SMART_CONTRACT/GrowChain.sol\":3573:4207  function getUserDetails(address _user)... */\n      swap2\n      swap4\n      swap6\n      swap8\n      swap1\n      swap3\n      swap5\n      swap7\n      pop\n      jump\t// out\n        /* \"MLM/Multi-level MLM System/Final_SMART_CONTRACT/GrowChain.sol\":4457:4948  function getDirectReferralsPaginated(... */\n    tag_83:\n        /* \"MLM/Multi-level MLM System/Final_SMART_CONTRACT/GrowChain.sol\":4592:4608  address[] memory */\n      0x60\n        /* \"MLM/Multi-level MLM System/Final_SMART_CONTRACT/GrowChain.sol\":4620:4641  address[] storage all */\n      0x00\n        /* \"MLM/Multi-level MLM System/Final_SMART_CONTRACT/GrowChain.sol\":4644:4649  users */\n      0x0a\n        /* \"MLM/Multi-level MLM System/Final_SMART_CONTRACT/GrowChain.sol\":4644:4656  users[_user] */\n      0x00\n        /* \"MLM/Multi-level MLM System/Final_SMART_CONTRACT/GrowChain.sol\":4650:4655  _user */\n      dup7\n        /* \"MLM/Multi-level MLM System/Final_SMART_CONTRACT/GrowChain.sol\":4644:4656  users[_user] */\n      0xffffffffffffffffffffffffffffffffffffffff\n      and\n      0xffffffffffffffffffffffffffffffffffffffff\n      and\n      dup2\n      mstore\n      0x20\n      add\n      swap1\n      dup2\n      mstore\n      0x20\n      add\n      0x00\n      keccak256\n        /* \"MLM/Multi-level MLM System/Final_SMART_CONTRACT/GrowChain.sol\":4644:4672  users[_user].directReferrals */\n      0x05\n      add\n        /* \"MLM/Multi-level MLM System/Final_SMART_CONTRACT/GrowChain.sol\":4620:4672  address[] storage all = users[_user].directReferrals */\n      swap1\n      pop\n        /* \"MLM/Multi-level MLM System/Final_SMART_CONTRACT/GrowChain.sol\":4682:4693  uint256 end */\n      0x00\n        /* \"MLM/Multi-level MLM System/Final_SMART_CONTRACT/GrowChain.sol\":4704:4709  limit */\n      dup4\n        /* \"MLM/Multi-level MLM System/Final_SMART_CONTRACT/GrowChain.sol\":4696:4701  start */\n      dup6\n        /* \"MLM/Multi-level MLM System/Final_SMART_CONTRACT/GrowChain.sol\":4696:4709  start + limit */\n      tag_191\n      swap2\n      swap1\n      tag_192\n      jump\t// in\n    tag_191:\n        /* \"MLM/Multi-level MLM System/Final_SMART_CONTRACT/GrowChain.sol\":4682:4709  uint256 end = start + limit */\n      swap1\n      pop\n        /* \"MLM/Multi-level MLM System/Final_SMART_CONTRACT/GrowChain.sol\":4729:4732  all */\n      dup2\n        /* \"MLM/Multi-level MLM System/Final_SMART_CONTRACT/GrowChain.sol\":4729:4739  all.length */\n      dup1\n      sload\n      swap1\n      pop\n        /* \"MLM/Multi-level MLM System/Final_SMART_CONTRACT/GrowChain.sol\":4723:4726  end */\n      dup2\n        /* \"MLM/Multi-level MLM System/Final_SMART_CONTRACT/GrowChain.sol\":4723:4739  end > all.length */\n      gt\n        /* \"MLM/Multi-level MLM System/Final_SMART_CONTRACT/GrowChain.sol\":4719:4757  if (end > all.length) end = all.length */\n      iszero\n      tag_193\n      jumpi\n        /* \"MLM/Multi-level MLM System/Final_SMART_CONTRACT/GrowChain.sol\":4747:4750  all */\n      dup2\n        /* \"MLM/Multi-level MLM System/Final_SMART_CONTRACT/GrowChain.sol\":4747:4757  all.length */\n      dup1\n      sload\n      swap1\n      pop\n        /* \"MLM/Multi-level MLM System/Final_SMART_CONTRACT/GrowChain.sol\":4741:4757  end = all.length */\n      swap1\n      pop\n        /* \"MLM/Multi-level MLM System/Final_SMART_CONTRACT/GrowChain.sol\":4719:4757  if (end > all.length) end = all.length */\n    tag_193:\n        /* \"MLM/Multi-level MLM System/Final_SMART_CONTRACT/GrowChain.sol\":4768:4791  address[] memory result */\n      0x00\n        /* \"MLM/Multi-level MLM System/Final_SMART_CONTRACT/GrowChain.sol\":4814:4819  start */\n      dup6\n        /* \"MLM/Multi-level MLM System/Final_SMART_CONTRACT/GrowChain.sol\":4808:4811  end */\n      dup3\n        /* \"MLM/Multi-level MLM System/Final_SMART_CONTRACT/GrowChain.sol\":4808:4819  end - start */\n      tag_194\n      swap2\n      swap1\n      tag_195\n      jump\t// in\n    tag_194:\n        /* \"MLM/Multi-level MLM System/Final_SMART_CONTRACT/GrowChain.sol\":4794:4820  new address[](end - start) */\n      0xffffffffffffffff\n      dup2\n      gt\n      iszero\n      tag_196\n      jumpi\n      tag_197\n      tag_198\n      jump\t// in\n    tag_197:\n    tag_196:\n      mload(0x40)\n      swap1\n      dup1\n      dup3\n      mstore\n      dup1\n      0x20\n      mul\n      0x20\n      add\n      dup3\n      add\n      0x40\n      mstore\n      dup1\n      iszero\n      tag_199\n      jumpi\n      dup2\n      0x20\n      add\n      0x20\n      dup3\n      mul\n      dup1\n      calldatasize\n      dup4\n      calldatacopy\n      dup1\n      dup3\n      add\n      swap2\n      pop\n      pop\n      swap1\n      pop\n    tag_199:\n      pop\n        /* \"MLM/Multi-level MLM System/Final_SMART_CONTRACT/GrowChain.sol\":4768:4820  address[] memory result = new address[](end - start) */\n      swap1\n      pop\n        /* \"MLM/Multi-level MLM System/Final_SMART_CONTRACT/GrowChain.sol\":4835:4844  uint256 i */\n      0x00\n        /* \"MLM/Multi-level MLM System/Final_SMART_CONTRACT/GrowChain.sol\":4847:4852  start */\n      dup7\n        /* \"MLM/Multi-level MLM System/Final_SMART_CONTRACT/GrowChain.sol\":4835:4852  uint256 i = start */\n      swap1\n      pop\n        /* \"MLM/Multi-level MLM System/Final_SMART_CONTRACT/GrowChain.sol\":4830:4919  for (uint256 i = start; i < end; i++) {... */\n    tag_200:\n        /* \"MLM/Multi-level MLM System/Final_SMART_CONTRACT/GrowChain.sol\":4858:4861  end */\n      dup3\n        /* \"MLM/Multi-level MLM System/Final_SMART_CONTRACT/GrowChain.sol\":4854:4855  i */\n      dup2\n        /* \"MLM/Multi-level MLM System/Final_SMART_CONTRACT/GrowChain.sol\":4854:4861  i < end */\n      lt\n        /* \"MLM/Multi-level MLM System/Final_SMART_CONTRACT/GrowChain.sol\":4830:4919  for (uint256 i = start; i < end; i++) {... */\n      iszero\n      tag_201\n      jumpi\n        /* \"MLM/Multi-level MLM System/Final_SMART_CONTRACT/GrowChain.sol\":4902:4905  all */\n      dup4\n        /* \"MLM/Multi-level MLM System/Final_SMART_CONTRACT/GrowChain.sol\":4906:4907  i */\n      dup2\n        /* \"MLM/Multi-level MLM System/Final_SMART_CONTRACT/GrowChain.sol\":4902:4908  all[i] */\n      dup2\n      sload\n      dup2\n      lt\n      tag_203\n      jumpi\n      tag_204\n      tag_205\n      jump\t// in\n    tag_204:\n    tag_203:\n      swap1\n      0x00\n      mstore\n      keccak256(0x00, 0x20)\n      add\n      0x00\n      swap1\n      sload\n      swap1\n      0x0100\n      exp\n      swap1\n      div\n      0xffffffffffffffffffffffffffffffffffffffff\n      and\n        /* \"MLM/Multi-level MLM System/Final_SMART_CONTRACT/GrowChain.sol\":4882:4888  result */\n      dup3\n        /* \"MLM/Multi-level MLM System/Final_SMART_CONTRACT/GrowChain.sol\":4893:4898  start */\n      dup9\n        /* \"MLM/Multi-level MLM System/Final_SMART_CONTRACT/GrowChain.sol\":4889:4890  i */\n      dup4\n        /* \"MLM/Multi-level MLM System/Final_SMART_CONTRACT/GrowChain.sol\":4889:4898  i - start */\n      tag_207\n      swap2\n      swap1\n      tag_195\n      jump\t// in\n    tag_207:\n        /* \"MLM/Multi-level MLM System/Final_SMART_CONTRACT/GrowChain.sol\":4882:4899  result[i - start] */\n      dup2\n      mload\n      dup2\n      lt\n      tag_208\n      jumpi\n      tag_209\n      tag_205\n      jump\t// in\n    tag_209:\n    tag_208:\n      0x20\n      mul\n      0x20\n      add\n      add\n        /* \"MLM/Multi-level MLM System/Final_SMART_CONTRACT/GrowChain.sol\":4882:4908  result[i - start] = all[i] */\n      swap1\n      0xffffffffffffffffffffffffffffffffffffffff\n      and\n      swap1\n      dup2\n      0xffffffffffffffffffffffffffffffffffffffff\n      and\n      dup2\n      mstore\n      pop\n      pop\n        /* \"MLM/Multi-level MLM System/Final_SMART_CONTRACT/GrowChain.sol\":4863:4866  i++ */\n      dup1\n      dup1\n      0x01\n      add\n      swap2\n      pop\n      pop\n        /* \"MLM/Multi-level MLM System/Final_SMART_CONTRACT/GrowChain.sol\":4830:4919  for (uint256 i = start; i < end; i++) {... */\n      jump(tag_200)\n    tag_201:\n      pop\n        /* \"MLM/Multi-level MLM System/Final_SMART_CONTRACT/GrowChain.sol\":4935:4941  result */\n      dup1\n        /* \"MLM/Multi-level MLM System/Final_SMART_CONTRACT/GrowChain.sol\":4928:4941  return result */\n      swap4\n      pop\n      pop\n      pop\n      pop\n        /* \"MLM/Multi-level MLM System/Final_SMART_CONTRACT/GrowChain.sol\":4457:4948  function getDirectReferralsPaginated(... */\n      swap4\n      swap3\n      pop\n      pop\n      pop\n      jump\t// out\n        /* \"MLM/Multi-level MLM System/Final_SMART_CONTRACT/GrowChain.sol\":8574:8802  function emergencyWithdrawAll() external onlybyAdmin nonReentrant {... */\n    tag_86:\n        /* \"MLM/Multi-level MLM System/Final_SMART_CONTRACT/GrowChain.sol\":1759:1764  admin */\n      0x02\n      0x00\n      swap1\n      sload\n      swap1\n      0x0100\n      exp\n      swap1\n      div\n      0xffffffffffffffffffffffffffffffffffffffff\n      and\n        /* \"MLM/Multi-level MLM System/Final_SMART_CONTRACT/GrowChain.sol\":1745:1764  msg.sender == admin */\n      0xffffffffffffffffffffffffffffffffffffffff\n      and\n        /* \"MLM/Multi-level MLM System/Final_SMART_CONTRACT/GrowChain.sol\":1745:1755  msg.sender */\n      caller\n        /* \"MLM/Multi-level MLM System/Final_SMART_CONTRACT/GrowChain.sol\":1745:1764  msg.sender == admin */\n      0xffffffffffffffffffffffffffffffffffffffff\n      and\n      eq\n        /* \"MLM/Multi-level MLM System/Final_SMART_CONTRACT/GrowChain.sol\":1724:1840  require(... */\n      tag_211\n      jumpi\n      mload(0x40)\n      0x08c379a000000000000000000000000000000000000000000000000000000000\n      dup2\n      mstore\n      0x04\n      add\n      tag_212\n      swap1\n      tag_144\n      jump\t// in\n    tag_212:\n      mload(0x40)\n      dup1\n      swap2\n      sub\n      swap1\n      revert\n    tag_211:\n        /* \"@openzeppelin/contracts/security/ReentrancyGuard.sol\":2261:2282  _nonReentrantBefore() */\n      tag_214\n        /* \"@openzeppelin/contracts/security/ReentrancyGuard.sol\":2261:2280  _nonReentrantBefore */\n      tag_100\n        /* \"@openzeppelin/contracts/security/ReentrancyGuard.sol\":2261:2282  _nonReentrantBefore() */\n      jump\t// in\n    tag_214:\n        /* \"MLM/Multi-level MLM System/Final_SMART_CONTRACT/GrowChain.sol\":8646:8661  uint256 balance */\n      0x00\n        /* \"MLM/Multi-level MLM System/Final_SMART_CONTRACT/GrowChain.sol\":8664:8667  GNT */\n      0x01\n      0x00\n      swap1\n      sload\n      swap1\n      0x0100\n      exp\n      swap1\n      div\n      0xffffffffffffffffffffffffffffffffffffffff\n      and\n        /* \"MLM/Multi-level MLM System/Final_SMART_CONTRACT/GrowChain.sol\":8664:8677  GNT.balanceOf */\n      0xffffffffffffffffffffffffffffffffffffffff\n      and\n      0x70a08231\n        /* \"MLM/Multi-level MLM System/Final_SMART_CONTRACT/GrowChain.sol\":8686:8690  this */\n      address\n        /* \"MLM/Multi-level MLM System/Final_SMART_CONTRACT/GrowChain.sol\":8664:8692  GNT.balanceOf(address(this)) */\n      mload(0x40)\n      dup3\n      0xffffffff\n      and\n      0xe0\n      shl\n      dup2\n      mstore\n      0x04\n      add\n      tag_216\n      swap2\n      swap1\n      tag_93\n      jump\t// in\n    tag_216:\n      0x20\n      mload(0x40)\n      dup1\n      dup4\n      sub\n      dup2\n      dup7\n      gas\n      staticcall\n      iszero\n      dup1\n      iszero\n      tag_218\n      jumpi\n      returndatasize\n      0x00\n      dup1\n      returndatacopy\n      revert(0x00, returndatasize)\n    tag_218:\n      pop\n      pop\n      pop\n      pop\n      mload(0x40)\n      returndatasize\n      not(0x1f)\n      0x1f\n      dup3\n      add\n      and\n      dup3\n      add\n      dup1\n      0x40\n      mstore\n      pop\n      dup2\n      add\n      swap1\n      tag_219\n      swap2\n      swap1\n      tag_112\n      jump\t// in\n    tag_219:\n        /* \"MLM/Multi-level MLM System/Final_SMART_CONTRACT/GrowChain.sol\":8646:8692  uint256 balance = GNT.balanceOf(address(this)) */\n      swap1\n      pop\n        /* \"MLM/Multi-level MLM System/Final_SMART_CONTRACT/GrowChain.sol\":8706:8709  GNT */\n      0x01\n      0x00\n      swap1\n      sload\n      swap1\n      0x0100\n      exp\n      swap1\n      div\n      0xffffffffffffffffffffffffffffffffffffffff\n      and\n        /* \"MLM/Multi-level MLM System/Final_SMART_CONTRACT/GrowChain.sol\":8706:8718  GNT.transfer */\n      0xffffffffffffffffffffffffffffffffffffffff\n      and\n      0xa9059cbb\n        /* \"MLM/Multi-level MLM System/Final_SMART_CONTRACT/GrowChain.sol\":8719:8724  admin */\n      0x02\n      0x00\n      swap1\n      sload\n      swap1\n      0x0100\n      exp\n      swap1\n      div\n      0xffffffffffffffffffffffffffffffffffffffff\n      and\n        /* \"MLM/Multi-level MLM System/Final_SMART_CONTRACT/GrowChain.sol\":8726:8733  balance */\n      dup4\n        /* \"MLM/Multi-level MLM System/Final_SMART_CONTRACT/GrowChain.sol\":8706:8734  GNT.transfer(admin, balance) */\n      mload(0x40)\n      dup4\n      0xffffffff\n      and\n      0xe0\n      shl\n      dup2\n      mstore\n      0x04\n      add\n      tag_220\n      swap3\n      swap2\n      swap1\n      tag_147\n      jump\t// in\n    tag_220:\n      0x20\n      mload(0x40)\n      dup1\n      dup4\n      sub\n      dup2\n      0x00\n      dup8\n      gas\n      call\n      iszero\n      dup1\n      iszero\n      tag_222\n      jumpi\n      returndatasize\n      0x00\n      dup1\n      returndatacopy\n      revert(0x00, returndatasize)\n    tag_222:\n      pop\n      pop\n      pop\n      pop\n      mload(0x40)\n      returndatasize\n      not(0x1f)\n      0x1f\n      dup3\n      add\n      and\n      dup3\n      add\n      dup1\n      0x40\n      mstore\n      pop\n      dup2\n      add\n      swap1\n      tag_223\n      swap2\n      swap1\n      tag_130\n      jump\t// in\n    tag_223:\n        /* \"MLM/Multi-level MLM System/Final_SMART_CONTRACT/GrowChain.sol\":8698:8764  require(GNT.transfer(admin, balance), \"Emergency withdraw failed\") */\n      tag_224\n      jumpi\n      mload(0x40)\n      0x08c379a000000000000000000000000000000000000000000000000000000000\n      dup2\n      mstore\n      0x04\n      add\n      tag_225\n      swap1\n      tag_226\n      jump\t// in\n    tag_225:\n      mload(0x40)\n      dup1\n      swap2\n      sub\n      swap1\n      revert\n    tag_224:\n        /* \"MLM/Multi-level MLM System/Final_SMART_CONTRACT/GrowChain.sol\":8784:8789  admin */\n      0x02\n      0x00\n      swap1\n      sload\n      swap1\n      0x0100\n      exp\n      swap1\n      div\n      0xffffffffffffffffffffffffffffffffffffffff\n      and\n        /* \"MLM/Multi-level MLM System/Final_SMART_CONTRACT/GrowChain.sol\":8775:8799  Withdraw(admin, balance) */\n      0xffffffffffffffffffffffffffffffffffffffff\n      and\n      0x884edad9ce6fa2440d8a54cc123490eb96d2768479d49ff9c7366125a9424364\n        /* \"MLM/Multi-level MLM System/Final_SMART_CONTRACT/GrowChain.sol\":8791:8798  balance */\n      dup3\n        /* \"MLM/Multi-level MLM System/Final_SMART_CONTRACT/GrowChain.sol\":8775:8799  Withdraw(admin, balance) */\n      mload(0x40)\n      tag_227\n      swap2\n      swap1\n      tag_28\n      jump\t// in\n    tag_227:\n      mload(0x40)\n      dup1\n      swap2\n      sub\n      swap1\n      log2\n        /* \"MLM/Multi-level MLM System/Final_SMART_CONTRACT/GrowChain.sol\":8640:8802  {... */\n      pop\n        /* \"@openzeppelin/contracts/security/ReentrancyGuard.sol\":2303:2323  _nonReentrantAfter() */\n      tag_228\n        /* \"@openzeppelin/contracts/security/ReentrancyGuard.sol\":2303:2321  _nonReentrantAfter */\n      tag_138\n        /* \"@openzeppelin/contracts/security/ReentrancyGuard.sol\":2303:2323  _nonReentrantAfter() */\n      jump\t// in\n    tag_228:\n        /* \"MLM/Multi-level MLM System/Final_SMART_CONTRACT/GrowChain.sol\":8574:8802  function emergencyWithdrawAll() external onlybyAdmin nonReentrant {... */\n      jump\t// out\n        /* \"MLM/Multi-level MLM System/Final_SMART_CONTRACT/GrowChain.sol\":6388:6715  function transferOwnership(address _newOwner) external onlybyAdmin {... */\n    tag_89:\n        /* \"MLM/Multi-level MLM System/Final_SMART_CONTRACT/GrowChain.sol\":1759:1764  admin */\n      0x02\n      0x00\n      swap1\n      sload\n      swap1\n      0x0100\n      exp\n      swap1\n      div\n      0xffffffffffffffffffffffffffffffffffffffff\n      and\n        /* \"MLM/Multi-level MLM System/Final_SMART_CONTRACT/GrowChain.sol\":1745:1764  msg.sender == admin */\n      0xffffffffffffffffffffffffffffffffffffffff\n      and\n        /* \"MLM/Multi-level MLM System/Final_SMART_CONTRACT/GrowChain.sol\":1745:1755  msg.sender */\n      caller\n        /* \"MLM/Multi-level MLM System/Final_SMART_CONTRACT/GrowChain.sol\":1745:1764  msg.sender == admin */\n      0xffffffffffffffffffffffffffffffffffffffff\n      and\n      eq\n        /* \"MLM/Multi-level MLM System/Final_SMART_CONTRACT/GrowChain.sol\":1724:1840  require(... */\n      tag_230\n      jumpi\n      mload(0x40)\n      0x08c379a000000000000000000000000000000000000000000000000000000000\n      dup2\n      mstore\n      0x04\n      add\n      tag_231\n      swap1\n      tag_144\n      jump\t// in\n    tag_231:\n      mload(0x40)\n      dup1\n      swap2\n      sub\n      swap1\n      revert\n    tag_230:\n        /* \"MLM/Multi-level MLM System/Final_SMART_CONTRACT/GrowChain.sol\":6494:6495  0 */\n      0x00\n        /* \"MLM/Multi-level MLM System/Final_SMART_CONTRACT/GrowChain.sol\":6473:6496  _newOwner != address(0) */\n      0xffffffffffffffffffffffffffffffffffffffff\n      and\n        /* \"MLM/Multi-level MLM System/Final_SMART_CONTRACT/GrowChain.sol\":6473:6482  _newOwner */\n      dup2\n        /* \"MLM/Multi-level MLM System/Final_SMART_CONTRACT/GrowChain.sol\":6473:6496  _newOwner != address(0) */\n      0xffffffffffffffffffffffffffffffffffffffff\n      and\n      sub\n        /* \"MLM/Multi-level MLM System/Final_SMART_CONTRACT/GrowChain.sol\":6465:6518  require(_newOwner != address(0), \"Invalid new owner\") */\n      tag_233\n      jumpi\n      mload(0x40)\n      0x08c379a000000000000000000000000000000000000000000000000000000000\n      dup2\n      mstore\n      0x04\n      add\n      tag_234\n      swap1\n      tag_235\n      jump\t// in\n    tag_234:\n      mload(0x40)\n      dup1\n      swap2\n      sub\n      swap1\n      revert\n    tag_233:\n        /* \"MLM/Multi-level MLM System/Final_SMART_CONTRACT/GrowChain.sol\":6549:6554  admin */\n      0x02\n      0x00\n      swap1\n      sload\n      swap1\n      0x0100\n      exp\n      swap1\n      div\n      0xffffffffffffffffffffffffffffffffffffffff\n      and\n        /* \"MLM/Multi-level MLM System/Final_SMART_CONTRACT/GrowChain.sol\":6536:6554  _newOwner != admin */\n      0xffffffffffffffffffffffffffffffffffffffff\n      and\n        /* \"MLM/Multi-level MLM System/Final_SMART_CONTRACT/GrowChain.sol\":6536:6545  _newOwner */\n      dup2\n        /* \"MLM/Multi-level MLM System/Final_SMART_CONTRACT/GrowChain.sol\":6536:6554  _newOwner != admin */\n      0xffffffffffffffffffffffffffffffffffffffff\n      and\n      sub\n        /* \"MLM/Multi-level MLM System/Final_SMART_CONTRACT/GrowChain.sol\":6528:6591  require(_newOwner != admin,\"Cannot transfer ownership to self\") */\n      tag_236\n      jumpi\n      mload(0x40)\n      0x08c379a000000000000000000000000000000000000000000000000000000000\n      dup2\n      mstore\n      0x04\n      add\n      tag_237\n      swap1\n      tag_238\n      jump\t// in\n    tag_237:\n      mload(0x40)\n      dup1\n      swap2\n      sub\n      swap1\n      revert\n    tag_236:\n        /* \"MLM/Multi-level MLM System/Final_SMART_CONTRACT/GrowChain.sol\":6601:6617  address oldowner */\n      0x00\n        /* \"MLM/Multi-level MLM System/Final_SMART_CONTRACT/GrowChain.sol\":6620:6625  admin */\n      0x02\n      0x00\n      swap1\n      sload\n      swap1\n      0x0100\n      exp\n      swap1\n      div\n      0xffffffffffffffffffffffffffffffffffffffff\n      and\n        /* \"MLM/Multi-level MLM System/Final_SMART_CONTRACT/GrowChain.sol\":6601:6625  address oldowner = admin */\n      swap1\n      pop\n        /* \"MLM/Multi-level MLM System/Final_SMART_CONTRACT/GrowChain.sol\":6643:6652  _newOwner */\n      dup2\n        /* \"MLM/Multi-level MLM System/Final_SMART_CONTRACT/GrowChain.sol\":6635:6640  admin */\n      0x02\n      0x00\n        /* \"MLM/Multi-level MLM System/Final_SMART_CONTRACT/GrowChain.sol\":6635:6652  admin = _newOwner */\n      0x0100\n      exp\n      dup2\n      sload\n      dup2\n      0xffffffffffffffffffffffffffffffffffffffff\n      mul\n      not\n      and\n      swap1\n      dup4\n      0xffffffffffffffffffffffffffffffffffffffff\n      and\n      mul\n      or\n      swap1\n      sstore\n      pop\n        /* \"MLM/Multi-level MLM System/Final_SMART_CONTRACT/GrowChain.sol\":6698:6707  _newOwner */\n      dup2\n        /* \"MLM/Multi-level MLM System/Final_SMART_CONTRACT/GrowChain.sol\":6667:6708  OwnershipTransferred(oldowner, _newOwner) */\n      0xffffffffffffffffffffffffffffffffffffffff\n      and\n        /* \"MLM/Multi-level MLM System/Final_SMART_CONTRACT/GrowChain.sol\":6688:6696  oldowner */\n      dup2\n        /* \"MLM/Multi-level MLM System/Final_SMART_CONTRACT/GrowChain.sol\":6667:6708  OwnershipTransferred(oldowner, _newOwner) */\n      0xffffffffffffffffffffffffffffffffffffffff\n      and\n      0x8be0079c531659141344cd1fd0a4f28419497f9722a3daafe3b4186f6b6457e0\n      mload(0x40)\n      mload(0x40)\n      dup1\n      swap2\n      sub\n      swap1\n      log3\n        /* \"MLM/Multi-level MLM System/Final_SMART_CONTRACT/GrowChain.sol\":6455:6715  {... */\n      pop\n        /* \"MLM/Multi-level MLM System/Final_SMART_CONTRACT/GrowChain.sol\":6388:6715  function transferOwnership(address _newOwner) external onlybyAdmin {... */\n      pop\n      jump\t// out\n        /* \"MLM/Multi-level MLM System/Final_SMART_CONTRACT/GrowChain.sol\":526:546  address public admin */\n    tag_91:\n      0x02\n      0x00\n      swap1\n      sload\n      swap1\n      0x0100\n      exp\n      swap1\n      div\n      0xffffffffffffffffffffffffffffffffffffffff\n      and\n      dup2\n      jump\t// out\n        /* \"@openzeppelin/contracts/security/ReentrancyGuard.sol\":2336:2623  function _nonReentrantBefore() private {... */\n    tag_100:\n        /* \"@openzeppelin/contracts/security/ReentrancyGuard.sol\":1759:1760  2 */\n      0x02\n        /* \"@openzeppelin/contracts/security/ReentrancyGuard.sol\":2468:2475  _status */\n      sload(0x00)\n        /* \"@openzeppelin/contracts/security/ReentrancyGuard.sol\":2468:2487  _status != _ENTERED */\n      sub\n        /* \"@openzeppelin/contracts/security/ReentrancyGuard.sol\":2460:2523  require(_status != _ENTERED, \"ReentrancyGuard: reentrant call\") */\n      tag_240\n      jumpi\n      mload(0x40)\n      0x08c379a000000000000000000000000000000000000000000000000000000000\n      dup2\n      mstore\n      0x04\n      add\n      tag_241\n      swap1\n      tag_242\n      jump\t// in\n    tag_241:\n      mload(0x40)\n      dup1\n      swap2\n      sub\n      swap1\n      revert\n    tag_240:\n        /* \"@openzeppelin/contracts/security/ReentrancyGuard.sol\":1759:1760  2 */\n      0x02\n        /* \"@openzeppelin/contracts/security/ReentrancyGuard.sol\":2598:2605  _status */\n      0x00\n        /* \"@openzeppelin/contracts/security/ReentrancyGuard.sol\":2598:2616  _status = _ENTERED */\n      dup2\n      swap1\n      sstore\n      pop\n        /* \"@openzeppelin/contracts/security/ReentrancyGuard.sol\":2336:2623  function _nonReentrantBefore() private {... */\n      jump\t// out\n        /* \"MLM/Multi-level MLM System/Final_SMART_CONTRACT/GrowChain.sol\":7373:8354  function distributeReferralIncome(address _referrer, address _newUser) internal {... */\n    tag_136:\n        /* \"MLM/Multi-level MLM System/Final_SMART_CONTRACT/GrowChain.sol\":7459:7473  address upline */\n      0x00\n        /* \"MLM/Multi-level MLM System/Final_SMART_CONTRACT/GrowChain.sol\":7476:7485  _referrer */\n      dup3\n        /* \"MLM/Multi-level MLM System/Final_SMART_CONTRACT/GrowChain.sol\":7459:7485  address upline = _referrer */\n      swap1\n      pop\n        /* \"MLM/Multi-level MLM System/Final_SMART_CONTRACT/GrowChain.sol\":7497:7506  uint256 i */\n      0x00\n        /* \"MLM/Multi-level MLM System/Final_SMART_CONTRACT/GrowChain.sol\":7492:8352  for (uint256 i = 0; i < levelPercentage.length && i < maxReferralDepth; i++) {... */\n    tag_244:\n        /* \"MLM/Multi-level MLM System/Final_SMART_CONTRACT/GrowChain.sol\":7516:7538  levelPercentage.length */\n      0x05\n        /* \"MLM/Multi-level MLM System/Final_SMART_CONTRACT/GrowChain.sol\":7512:7513  i */\n      dup2\n        /* \"MLM/Multi-level MLM System/Final_SMART_CONTRACT/GrowChain.sol\":7512:7538  i < levelPercentage.length */\n      lt\n        /* \"MLM/Multi-level MLM System/Final_SMART_CONTRACT/GrowChain.sol\":7512:7562  i < levelPercentage.length && i < maxReferralDepth */\n      dup1\n      iszero\n      tag_247\n      jumpi\n      pop\n        /* \"MLM/Multi-level MLM System/Final_SMART_CONTRACT/GrowChain.sol\":7546:7562  maxReferralDepth */\n      sload(0x09)\n        /* \"MLM/Multi-level MLM System/Final_SMART_CONTRACT/GrowChain.sol\":7542:7543  i */\n      dup2\n        /* \"MLM/Multi-level MLM System/Final_SMART_CONTRACT/GrowChain.sol\":7542:7562  i < maxReferralDepth */\n      lt\n        /* \"MLM/Multi-level MLM System/Final_SMART_CONTRACT/GrowChain.sol\":7512:7562  i < levelPercentage.length && i < maxReferralDepth */\n    tag_247:\n        /* \"MLM/Multi-level MLM System/Final_SMART_CONTRACT/GrowChain.sol\":7492:8352  for (uint256 i = 0; i < levelPercentage.length && i < maxReferralDepth; i++) {... */\n      iszero\n      tag_245\n      jumpi\n        /* \"MLM/Multi-level MLM System/Final_SMART_CONTRACT/GrowChain.sol\":7601:7602  0 */\n      0x00\n        /* \"MLM/Multi-level MLM System/Final_SMART_CONTRACT/GrowChain.sol\":7583:7603  upline == address(0) */\n      0xffffffffffffffffffffffffffffffffffffffff\n      and\n        /* \"MLM/Multi-level MLM System/Final_SMART_CONTRACT/GrowChain.sol\":7583:7589  upline */\n      dup3\n        /* \"MLM/Multi-level MLM System/Final_SMART_CONTRACT/GrowChain.sol\":7583:7603  upline == address(0) */\n      0xffffffffffffffffffffffffffffffffffffffff\n      and\n      sub\n        /* \"MLM/Multi-level MLM System/Final_SMART_CONTRACT/GrowChain.sol\":7579:7610  if (upline == address(0)) break */\n      iszero\n        /* \"MLM/Multi-level MLM System/Final_SMART_CONTRACT/GrowChain.sol\":7605:7610  break */\n      tag_245\n        /* \"MLM/Multi-level MLM System/Final_SMART_CONTRACT/GrowChain.sol\":7579:7610  if (upline == address(0)) break */\n      jumpi\n        /* \"MLM/Multi-level MLM System/Final_SMART_CONTRACT/GrowChain.sol\":7621:7635  uint256 reward */\n      0x00\n        /* \"MLM/Multi-level MLM System/Final_SMART_CONTRACT/GrowChain.sol\":7680:7683  100 */\n      0x64\n        /* \"MLM/Multi-level MLM System/Final_SMART_CONTRACT/GrowChain.sol\":7658:7673  levelPercentage */\n      0x04\n        /* \"MLM/Multi-level MLM System/Final_SMART_CONTRACT/GrowChain.sol\":7674:7675  i */\n      dup4\n        /* \"MLM/Multi-level MLM System/Final_SMART_CONTRACT/GrowChain.sol\":7658:7676  levelPercentage[i] */\n      0x05\n      dup2\n      lt\n      tag_249\n      jumpi\n      tag_250\n      tag_205\n      jump\t// in\n    tag_250:\n    tag_249:\n      add\n      sload\n        /* \"MLM/Multi-level MLM System/Final_SMART_CONTRACT/GrowChain.sol\":7639:7655  REGISTRATION_FEE */\n      sload(0x03)\n        /* \"MLM/Multi-level MLM System/Final_SMART_CONTRACT/GrowChain.sol\":7639:7676  REGISTRATION_FEE * levelPercentage[i] */\n      tag_252\n      swap2\n      swap1\n      tag_164\n      jump\t// in\n    tag_252:\n        /* \"MLM/Multi-level MLM System/Final_SMART_CONTRACT/GrowChain.sol\":7638:7683  (REGISTRATION_FEE * levelPercentage[i]) / 100 */\n      tag_253\n      swap2\n      swap1\n      tag_254\n      jump\t// in\n    tag_253:\n        /* \"MLM/Multi-level MLM System/Final_SMART_CONTRACT/GrowChain.sol\":7621:7683  uint256 reward = (REGISTRATION_FEE * levelPercentage[i]) / 100 */\n      swap1\n      pop\n        /* \"MLM/Multi-level MLM System/Final_SMART_CONTRACT/GrowChain.sol\":7701:7704  GNT */\n      0x01\n      0x00\n      swap1\n      sload\n      swap1\n      0x0100\n      exp\n      swap1\n      div\n      0xffffffffffffffffffffffffffffffffffffffff\n      and\n        /* \"MLM/Multi-level MLM System/Final_SMART_CONTRACT/GrowChain.sol\":7701:7713  GNT.transfer */\n      0xffffffffffffffffffffffffffffffffffffffff\n      and\n      0xa9059cbb\n        /* \"MLM/Multi-level MLM System/Final_SMART_CONTRACT/GrowChain.sol\":7714:7720  upline */\n      dup5\n        /* \"MLM/Multi-level MLM System/Final_SMART_CONTRACT/GrowChain.sol\":7722:7728  reward */\n      dup4\n        /* \"MLM/Multi-level MLM System/Final_SMART_CONTRACT/GrowChain.sol\":7701:7729  GNT.transfer(upline, reward) */\n      mload(0x40)\n      dup4\n      0xffffffff\n      and\n      0xe0\n      shl\n      dup2\n      mstore\n      0x04\n      add\n      tag_255\n      swap3\n      swap2\n      swap1\n      tag_147\n      jump\t// in\n    tag_255:\n      0x20\n      mload(0x40)\n      dup1\n      dup4\n      sub\n      dup2\n      0x00\n      dup8\n      gas\n      call\n      iszero\n      dup1\n      iszero\n      tag_257\n      jumpi\n      returndatasize\n      0x00\n      dup1\n      returndatacopy\n      revert(0x00, returndatasize)\n    tag_257:\n      pop\n      pop\n      pop\n      pop\n      mload(0x40)\n      returndatasize\n      not(0x1f)\n      0x1f\n      dup3\n      add\n      and\n      dup3\n      add\n      dup1\n      0x40\n      mstore\n      pop\n      dup2\n      add\n      swap1\n      tag_258\n      swap2\n      swap1\n      tag_130\n      jump\t// in\n    tag_258:\n        /* \"MLM/Multi-level MLM System/Final_SMART_CONTRACT/GrowChain.sol\":7693:7756  require(GNT.transfer(upline, reward), \"Reward transfer failed\") */\n      tag_259\n      jumpi\n      mload(0x40)\n      0x08c379a000000000000000000000000000000000000000000000000000000000\n      dup2\n      mstore\n      0x04\n      add\n      tag_260\n      swap1\n      tag_261\n      jump\t// in\n    tag_260:\n      mload(0x40)\n      dup1\n      swap2\n      sub\n      swap1\n      revert\n    tag_259:\n        /* \"MLM/Multi-level MLM System/Final_SMART_CONTRACT/GrowChain.sol\":7789:7795  upline */\n      dup3\n        /* \"MLM/Multi-level MLM System/Final_SMART_CONTRACT/GrowChain.sol\":7771:7811  IncomeDistributed(upline, i + 1, reward) */\n      0xffffffffffffffffffffffffffffffffffffffff\n      and\n      0x83b5eadb65fb8fc1b70a3b205b38bb0c6a3e15e14bcbc9d4f366d6c772e6d83b\n        /* \"MLM/Multi-level MLM System/Final_SMART_CONTRACT/GrowChain.sol\":7801:7802  1 */\n      0x01\n        /* \"MLM/Multi-level MLM System/Final_SMART_CONTRACT/GrowChain.sol\":7797:7798  i */\n      dup5\n        /* \"MLM/Multi-level MLM System/Final_SMART_CONTRACT/GrowChain.sol\":7797:7802  i + 1 */\n      tag_262\n      swap2\n      swap1\n      tag_192\n      jump\t// in\n    tag_262:\n        /* \"MLM/Multi-level MLM System/Final_SMART_CONTRACT/GrowChain.sol\":7804:7810  reward */\n      dup4\n        /* \"MLM/Multi-level MLM System/Final_SMART_CONTRACT/GrowChain.sol\":7771:7811  IncomeDistributed(upline, i + 1, reward) */\n      mload(0x40)\n      tag_263\n      swap3\n      swap2\n      swap1\n      tag_166\n      jump\t// in\n    tag_263:\n      mload(0x40)\n      dup1\n      swap2\n      sub\n      swap1\n      log2\n        /* \"MLM/Multi-level MLM System/Final_SMART_CONTRACT/GrowChain.sol\":7831:7832  0 */\n      0x00\n        /* \"MLM/Multi-level MLM System/Final_SMART_CONTRACT/GrowChain.sol\":7826:7827  i */\n      dup3\n        /* \"MLM/Multi-level MLM System/Final_SMART_CONTRACT/GrowChain.sol\":7826:7832  i == 0 */\n      sub\n        /* \"MLM/Multi-level MLM System/Final_SMART_CONTRACT/GrowChain.sol\":7822:8271  if (i == 0) {... */\n      tag_264\n      jumpi\n        /* \"MLM/Multi-level MLM System/Final_SMART_CONTRACT/GrowChain.sol\":7886:7892  reward */\n      dup1\n        /* \"MLM/Multi-level MLM System/Final_SMART_CONTRACT/GrowChain.sol\":7848:7853  users */\n      0x0a\n        /* \"MLM/Multi-level MLM System/Final_SMART_CONTRACT/GrowChain.sol\":7848:7861  users[upline] */\n      0x00\n        /* \"MLM/Multi-level MLM System/Final_SMART_CONTRACT/GrowChain.sol\":7854:7860  upline */\n      dup6\n        /* \"MLM/Multi-level MLM System/Final_SMART_CONTRACT/GrowChain.sol\":7848:7861  users[upline] */\n      0xffffffffffffffffffffffffffffffffffffffff\n      and\n      0xffffffffffffffffffffffffffffffffffffffff\n      and\n      dup2\n      mstore\n      0x20\n      add\n      swap1\n      dup2\n      mstore\n      0x20\n      add\n      0x00\n      keccak256\n        /* \"MLM/Multi-level MLM System/Final_SMART_CONTRACT/GrowChain.sol\":7848:7882  users[upline].directReferralIncome */\n      0x01\n      add\n      0x00\n        /* \"MLM/Multi-level MLM System/Final_SMART_CONTRACT/GrowChain.sol\":7848:7892  users[upline].directReferralIncome += reward */\n      dup3\n      dup3\n      sload\n      tag_265\n      swap2\n      swap1\n      tag_192\n      jump\t// in\n    tag_265:\n      swap3\n      pop\n      pop\n      dup2\n      swap1\n      sstore\n      pop\n        /* \"MLM/Multi-level MLM System/Final_SMART_CONTRACT/GrowChain.sol\":7906:7911  users */\n      0x0a\n        /* \"MLM/Multi-level MLM System/Final_SMART_CONTRACT/GrowChain.sol\":7906:7919  users[upline] */\n      0x00\n        /* \"MLM/Multi-level MLM System/Final_SMART_CONTRACT/GrowChain.sol\":7912:7918  upline */\n      dup5\n        /* \"MLM/Multi-level MLM System/Final_SMART_CONTRACT/GrowChain.sol\":7906:7919  users[upline] */\n      0xffffffffffffffffffffffffffffffffffffffff\n      and\n      0xffffffffffffffffffffffffffffffffffffffff\n      and\n      dup2\n      mstore\n      0x20\n      add\n      swap1\n      dup2\n      mstore\n      0x20\n      add\n      0x00\n      keccak256\n        /* \"MLM/Multi-level MLM System/Final_SMART_CONTRACT/GrowChain.sol\":7906:7935  users[upline].directReferrals */\n      0x05\n      add\n        /* \"MLM/Multi-level MLM System/Final_SMART_CONTRACT/GrowChain.sol\":7941:7949  _newUser */\n      dup5\n        /* \"MLM/Multi-level MLM System/Final_SMART_CONTRACT/GrowChain.sol\":7906:7950  users[upline].directReferrals.push(_newUser) */\n      swap1\n      dup1\n      0x01\n      dup2\n      sload\n      add\n      dup1\n      dup3\n      sstore\n      dup1\n      swap2\n      pop\n      pop\n      0x01\n      swap1\n      sub\n      swap1\n      0x00\n      mstore\n      keccak256(0x00, 0x20)\n      add\n      0x00\n      swap1\n      swap2\n      swap1\n      swap2\n      swap1\n      swap2\n      0x0100\n      exp\n      dup2\n      sload\n      dup2\n      0xffffffffffffffffffffffffffffffffffffffff\n      mul\n      not\n      and\n      swap1\n      dup4\n      0xffffffffffffffffffffffffffffffffffffffff\n      and\n      mul\n      or\n      swap1\n      sstore\n      pop\n        /* \"MLM/Multi-level MLM System/Final_SMART_CONTRACT/GrowChain.sol\":7964:7969  users */\n      0x0a\n        /* \"MLM/Multi-level MLM System/Final_SMART_CONTRACT/GrowChain.sol\":7964:7977  users[upline] */\n      0x00\n        /* \"MLM/Multi-level MLM System/Final_SMART_CONTRACT/GrowChain.sol\":7970:7976  upline */\n      dup5\n        /* \"MLM/Multi-level MLM System/Final_SMART_CONTRACT/GrowChain.sol\":7964:7977  users[upline] */\n      0xffffffffffffffffffffffffffffffffffffffff\n      and\n      0xffffffffffffffffffffffffffffffffffffffff\n      and\n      dup2\n      mstore\n      0x20\n      add\n      swap1\n      dup2\n      mstore\n      0x20\n      add\n      0x00\n      keccak256\n        /* \"MLM/Multi-level MLM System/Final_SMART_CONTRACT/GrowChain.sol\":7964:7991  users[upline].referralCount */\n      0x03\n      add\n      0x00\n        /* \"MLM/Multi-level MLM System/Final_SMART_CONTRACT/GrowChain.sol\":7964:7993  users[upline].referralCount++ */\n      dup2\n      sload\n      dup1\n      swap3\n      swap2\n      swap1\n      tag_267\n      swap1\n      tag_268\n      jump\t// in\n    tag_267:\n      swap2\n      swap1\n      pop\n      sstore\n      pop\n        /* \"MLM/Multi-level MLM System/Final_SMART_CONTRACT/GrowChain.sol\":7822:8271  if (i == 0) {... */\n      jump(tag_269)\n    tag_264:\n        /* \"MLM/Multi-level MLM System/Final_SMART_CONTRACT/GrowChain.sol\":8080:8132  isInArray(users[upline].indirectReferrals, _newUser) */\n      tag_270\n        /* \"MLM/Multi-level MLM System/Final_SMART_CONTRACT/GrowChain.sol\":8090:8095  users */\n      0x0a\n        /* \"MLM/Multi-level MLM System/Final_SMART_CONTRACT/GrowChain.sol\":8090:8103  users[upline] */\n      0x00\n        /* \"MLM/Multi-level MLM System/Final_SMART_CONTRACT/GrowChain.sol\":8096:8102  upline */\n      dup6\n        /* \"MLM/Multi-level MLM System/Final_SMART_CONTRACT/GrowChain.sol\":8090:8103  users[upline] */\n      0xffffffffffffffffffffffffffffffffffffffff\n      and\n      0xffffffffffffffffffffffffffffffffffffffff\n      and\n      dup2\n      mstore\n      0x20\n      add\n      swap1\n      dup2\n      mstore\n      0x20\n      add\n      0x00\n      keccak256\n        /* \"MLM/Multi-level MLM System/Final_SMART_CONTRACT/GrowChain.sol\":8090:8121  users[upline].indirectReferrals */\n      0x08\n      add\n        /* \"MLM/Multi-level MLM System/Final_SMART_CONTRACT/GrowChain.sol\":8080:8132  isInArray(users[upline].indirectReferrals, _newUser) */\n      dup1\n      sload\n      dup1\n      0x20\n      mul\n      0x20\n      add\n      mload(0x40)\n      swap1\n      dup2\n      add\n      0x40\n      mstore\n      dup1\n      swap3\n      swap2\n      swap1\n      dup2\n      dup2\n      mstore\n      0x20\n      add\n      dup3\n      dup1\n      sload\n      dup1\n      iszero\n      tag_271\n      jumpi\n      0x20\n      mul\n      dup3\n      add\n      swap2\n      swap1\n      0x00\n      mstore\n      keccak256(0x00, 0x20)\n      swap1\n    tag_272:\n      dup2\n      0x00\n      swap1\n      sload\n      swap1\n      0x0100\n      exp\n      swap1\n      div\n      0xffffffffffffffffffffffffffffffffffffffff\n      and\n      0xffffffffffffffffffffffffffffffffffffffff\n      and\n      dup2\n      mstore\n      0x20\n      add\n      swap1\n      0x01\n      add\n      swap1\n      dup1\n      dup4\n      gt\n      tag_272\n      jumpi\n    tag_271:\n      pop\n      pop\n      pop\n      pop\n      pop\n        /* \"MLM/Multi-level MLM System/Final_SMART_CONTRACT/GrowChain.sol\":8123:8131  _newUser */\n      dup6\n        /* \"MLM/Multi-level MLM System/Final_SMART_CONTRACT/GrowChain.sol\":8080:8089  isInArray */\n      tag_273\n        /* \"MLM/Multi-level MLM System/Final_SMART_CONTRACT/GrowChain.sol\":8080:8132  isInArray(users[upline].indirectReferrals, _newUser) */\n      jump\t// in\n    tag_270:\n        /* \"MLM/Multi-level MLM System/Final_SMART_CONTRACT/GrowChain.sol\":8075:8213  if (!isInArray(users[upline].indirectReferrals, _newUser)) {... */\n      tag_274\n      jumpi\n        /* \"MLM/Multi-level MLM System/Final_SMART_CONTRACT/GrowChain.sol\":8152:8157  users */\n      0x0a\n        /* \"MLM/Multi-level MLM System/Final_SMART_CONTRACT/GrowChain.sol\":8152:8165  users[upline] */\n      0x00\n        /* \"MLM/Multi-level MLM System/Final_SMART_CONTRACT/GrowChain.sol\":8158:8164  upline */\n      dup5\n        /* \"MLM/Multi-level MLM System/Final_SMART_CONTRACT/GrowChain.sol\":8152:8165  users[upline] */\n      0xffffffffffffffffffffffffffffffffffffffff\n      and\n      0xffffffffffffffffffffffffffffffffffffffff\n      and\n      dup2\n      mstore\n      0x20\n      add\n      swap1\n      dup2\n      mstore\n      0x20\n      add\n      0x00\n      keccak256\n        /* \"MLM/Multi-level MLM System/Final_SMART_CONTRACT/GrowChain.sol\":8152:8183  users[upline].indirectReferrals */\n      0x08\n      add\n        /* \"MLM/Multi-level MLM System/Final_SMART_CONTRACT/GrowChain.sol\":8189:8197  _newUser */\n      dup5\n        /* \"MLM/Multi-level MLM System/Final_SMART_CONTRACT/GrowChain.sol\":8152:8198  users[upline].indirectReferrals.push(_newUser) */\n      swap1\n      dup1\n      0x01\n      dup2\n      sload\n      add\n      dup1\n      dup3\n      sstore\n      dup1\n      swap2\n      pop\n      pop\n      0x01\n      swap1\n      sub\n      swap1\n      0x00\n      mstore\n      keccak256(0x00, 0x20)\n      add\n      0x00\n      swap1\n      swap2\n      swap1\n      swap2\n      swap1\n      swap2\n      0x0100\n      exp\n      dup2\n      sload\n      dup2\n      0xffffffffffffffffffffffffffffffffffffffff\n      mul\n      not\n      and\n      swap1\n      dup4\n      0xffffffffffffffffffffffffffffffffffffffff\n      and\n      mul\n      or\n      swap1\n      sstore\n      pop\n        /* \"MLM/Multi-level MLM System/Final_SMART_CONTRACT/GrowChain.sol\":8075:8213  if (!isInArray(users[upline].indirectReferrals, _newUser)) {... */\n    tag_274:\n        /* \"MLM/Multi-level MLM System/Final_SMART_CONTRACT/GrowChain.sol\":8254:8260  reward */\n      dup1\n        /* \"MLM/Multi-level MLM System/Final_SMART_CONTRACT/GrowChain.sol\":8226:8231  users */\n      0x0a\n        /* \"MLM/Multi-level MLM System/Final_SMART_CONTRACT/GrowChain.sol\":8226:8239  users[upline] */\n      0x00\n        /* \"MLM/Multi-level MLM System/Final_SMART_CONTRACT/GrowChain.sol\":8232:8238  upline */\n      dup6\n        /* \"MLM/Multi-level MLM System/Final_SMART_CONTRACT/GrowChain.sol\":8226:8239  users[upline] */\n      0xffffffffffffffffffffffffffffffffffffffff\n      and\n      0xffffffffffffffffffffffffffffffffffffffff\n      and\n      dup2\n      mstore\n      0x20\n      add\n      swap1\n      dup2\n      mstore\n      0x20\n      add\n      0x00\n      keccak256\n        /* \"MLM/Multi-level MLM System/Final_SMART_CONTRACT/GrowChain.sol\":8226:8250  users[upline].teamIncome */\n      0x06\n      add\n      0x00\n        /* \"MLM/Multi-level MLM System/Final_SMART_CONTRACT/GrowChain.sol\":8226:8260  users[upline].teamIncome += reward */\n      dup3\n      dup3\n      sload\n      tag_276\n      swap2\n      swap1\n      tag_192\n      jump\t// in\n    tag_276:\n      swap3\n      pop\n      pop\n      dup2\n      swap1\n      sstore\n      pop\n        /* \"MLM/Multi-level MLM System/Final_SMART_CONTRACT/GrowChain.sol\":7822:8271  if (i == 0) {... */\n    tag_269:\n        /* \"MLM/Multi-level MLM System/Final_SMART_CONTRACT/GrowChain.sol\":8280:8285  users */\n      0x0a\n        /* \"MLM/Multi-level MLM System/Final_SMART_CONTRACT/GrowChain.sol\":8280:8293  users[upline] */\n      0x00\n        /* \"MLM/Multi-level MLM System/Final_SMART_CONTRACT/GrowChain.sol\":8286:8292  upline */\n      dup5\n        /* \"MLM/Multi-level MLM System/Final_SMART_CONTRACT/GrowChain.sol\":8280:8293  users[upline] */\n      0xffffffffffffffffffffffffffffffffffffffff\n      and\n      0xffffffffffffffffffffffffffffffffffffffff\n      and\n      dup2\n      mstore\n      0x20\n      add\n      swap1\n      dup2\n      mstore\n      0x20\n      add\n      0x00\n      keccak256\n        /* \"MLM/Multi-level MLM System/Final_SMART_CONTRACT/GrowChain.sol\":8280:8302  users[upline].teamSize */\n      0x07\n      add\n      0x00\n        /* \"MLM/Multi-level MLM System/Final_SMART_CONTRACT/GrowChain.sol\":8280:8304  users[upline].teamSize++ */\n      dup2\n      sload\n      dup1\n      swap3\n      swap2\n      swap1\n      tag_277\n      swap1\n      tag_268\n      jump\t// in\n    tag_277:\n      swap2\n      swap1\n      pop\n      sstore\n      pop\n        /* \"MLM/Multi-level MLM System/Final_SMART_CONTRACT/GrowChain.sol\":8323:8328  users */\n      0x0a\n        /* \"MLM/Multi-level MLM System/Final_SMART_CONTRACT/GrowChain.sol\":8323:8336  users[upline] */\n      0x00\n        /* \"MLM/Multi-level MLM System/Final_SMART_CONTRACT/GrowChain.sol\":8329:8335  upline */\n      dup5\n        /* \"MLM/Multi-level MLM System/Final_SMART_CONTRACT/GrowChain.sol\":8323:8336  users[upline] */\n      0xffffffffffffffffffffffffffffffffffffffff\n      and\n      0xffffffffffffffffffffffffffffffffffffffff\n      and\n      dup2\n      mstore\n      0x20\n      add\n      swap1\n      dup2\n      mstore\n      0x20\n      add\n      0x00\n      keccak256\n        /* \"MLM/Multi-level MLM System/Final_SMART_CONTRACT/GrowChain.sol\":8323:8345  users[upline].referrer */\n      0x00\n      add\n      0x00\n      swap1\n      sload\n      swap1\n      0x0100\n      exp\n      swap1\n      div\n      0xffffffffffffffffffffffffffffffffffffffff\n      and\n        /* \"MLM/Multi-level MLM System/Final_SMART_CONTRACT/GrowChain.sol\":8314:8345  upline = users[upline].referrer */\n      swap3\n      pop\n        /* \"MLM/Multi-level MLM System/Final_SMART_CONTRACT/GrowChain.sol\":7569:8352  {... */\n      pop\n        /* \"MLM/Multi-level MLM System/Final_SMART_CONTRACT/GrowChain.sol\":7564:7567  i++ */\n      dup1\n      dup1\n      tag_278\n      swap1\n      tag_268\n      jump\t// in\n    tag_278:\n      swap2\n      pop\n      pop\n        /* \"MLM/Multi-level MLM System/Final_SMART_CONTRACT/GrowChain.sol\":7492:8352  for (uint256 i = 0; i < levelPercentage.length && i < maxReferralDepth; i++) {... */\n      jump(tag_244)\n    tag_245:\n      pop\n        /* \"MLM/Multi-level MLM System/Final_SMART_CONTRACT/GrowChain.sol\":7453:8354  {... */\n      pop\n        /* \"MLM/Multi-level MLM System/Final_SMART_CONTRACT/GrowChain.sol\":7373:8354  function distributeReferralIncome(address _referrer, address _newUser) internal {... */\n      pop\n      pop\n      jump\t// out\n        /* \"@openzeppelin/contracts/security/ReentrancyGuard.sol\":2629:2838  function _nonReentrantAfter() private {... */\n    tag_138:\n        /* \"@openzeppelin/contracts/security/ReentrancyGuard.sol\":1716:1717  1 */\n      0x01\n        /* \"@openzeppelin/contracts/security/ReentrancyGuard.sol\":2809:2816  _status */\n      0x00\n        /* \"@openzeppelin/contracts/security/ReentrancyGuard.sol\":2809:2831  _status = _NOT_ENTERED */\n      dup2\n      swap1\n      sstore\n      pop\n        /* \"@openzeppelin/contracts/security/ReentrancyGuard.sol\":2629:2838  function _nonReentrantAfter() private {... */\n      jump\t// out\n        /* \"MLM/Multi-level MLM System/Final_SMART_CONTRACT/GrowChain.sol\":8375:8573  function isInArray(address[] memory arr, address value) internal pure returns (bool) {... */\n    tag_273:\n        /* \"MLM/Multi-level MLM System/Final_SMART_CONTRACT/GrowChain.sol\":8454:8458  bool */\n      0x00\n        /* \"MLM/Multi-level MLM System/Final_SMART_CONTRACT/GrowChain.sol\":8471:8477  uint i */\n      dup1\n        /* \"MLM/Multi-level MLM System/Final_SMART_CONTRACT/GrowChain.sol\":8480:8481  0 */\n      0x00\n        /* \"MLM/Multi-level MLM System/Final_SMART_CONTRACT/GrowChain.sol\":8471:8481  uint i = 0 */\n      swap1\n      pop\n        /* \"MLM/Multi-level MLM System/Final_SMART_CONTRACT/GrowChain.sol\":8466:8553  for (uint i = 0; i < arr.length; i++) {... */\n    tag_281:\n        /* \"MLM/Multi-level MLM System/Final_SMART_CONTRACT/GrowChain.sol\":8487:8490  arr */\n      dup4\n        /* \"MLM/Multi-level MLM System/Final_SMART_CONTRACT/GrowChain.sol\":8487:8497  arr.length */\n      mload\n        /* \"MLM/Multi-level MLM System/Final_SMART_CONTRACT/GrowChain.sol\":8483:8484  i */\n      dup2\n        /* \"MLM/Multi-level MLM System/Final_SMART_CONTRACT/GrowChain.sol\":8483:8497  i < arr.length */\n      lt\n        /* \"MLM/Multi-level MLM System/Final_SMART_CONTRACT/GrowChain.sol\":8466:8553  for (uint i = 0; i < arr.length; i++) {... */\n      iszero\n      tag_282\n      jumpi\n        /* \"MLM/Multi-level MLM System/Final_SMART_CONTRACT/GrowChain.sol\":8528:8533  value */\n      dup3\n        /* \"MLM/Multi-level MLM System/Final_SMART_CONTRACT/GrowChain.sol\":8518:8533  arr[i] == value */\n      0xffffffffffffffffffffffffffffffffffffffff\n      and\n        /* \"MLM/Multi-level MLM System/Final_SMART_CONTRACT/GrowChain.sol\":8518:8521  arr */\n      dup5\n        /* \"MLM/Multi-level MLM System/Final_SMART_CONTRACT/GrowChain.sol\":8522:8523  i */\n      dup3\n        /* \"MLM/Multi-level MLM System/Final_SMART_CONTRACT/GrowChain.sol\":8518:8524  arr[i] */\n      dup2\n      mload\n      dup2\n      lt\n      tag_284\n      jumpi\n      tag_285\n      tag_205\n      jump\t// in\n    tag_285:\n    tag_284:\n      0x20\n      mul\n      0x20\n      add\n      add\n      mload\n        /* \"MLM/Multi-level MLM System/Final_SMART_CONTRACT/GrowChain.sol\":8518:8533  arr[i] == value */\n      0xffffffffffffffffffffffffffffffffffffffff\n      and\n      sub\n        /* \"MLM/Multi-level MLM System/Final_SMART_CONTRACT/GrowChain.sol\":8514:8546  if (arr[i] == value) return true */\n      tag_286\n      jumpi\n        /* \"MLM/Multi-level MLM System/Final_SMART_CONTRACT/GrowChain.sol\":8542:8546  true */\n      0x01\n        /* \"MLM/Multi-level MLM System/Final_SMART_CONTRACT/GrowChain.sol\":8535:8546  return true */\n      swap2\n      pop\n      pop\n      jump(tag_280)\n        /* \"MLM/Multi-level MLM System/Final_SMART_CONTRACT/GrowChain.sol\":8514:8546  if (arr[i] == value) return true */\n    tag_286:\n        /* \"MLM/Multi-level MLM System/Final_SMART_CONTRACT/GrowChain.sol\":8499:8502  i++ */\n      dup1\n      dup1\n      0x01\n      add\n      swap2\n      pop\n      pop\n        /* \"MLM/Multi-level MLM System/Final_SMART_CONTRACT/GrowChain.sol\":8466:8553  for (uint i = 0; i < arr.length; i++) {... */\n      jump(tag_281)\n    tag_282:\n      pop\n        /* \"MLM/Multi-level MLM System/Final_SMART_CONTRACT/GrowChain.sol\":8565:8570  false */\n      0x00\n        /* \"MLM/Multi-level MLM System/Final_SMART_CONTRACT/GrowChain.sol\":8558:8570  return false */\n      swap1\n      pop\n        /* \"MLM/Multi-level MLM System/Final_SMART_CONTRACT/GrowChain.sol\":8375:8573  function isInArray(address[] memory arr, address value) internal pure returns (bool) {... */\n    tag_280:\n      swap3\n      swap2\n      pop\n      pop\n      jump\t// out\n        /* \"#utility.yul\":7:84   */\n    tag_287:\n        /* \"#utility.yul\":44:51   */\n      0x00\n        /* \"#utility.yul\":73:78   */\n      dup2\n        /* \"#utility.yul\":62:78   */\n      swap1\n      pop\n        /* \"#utility.yul\":7:84   */\n      swap2\n      swap1\n      pop\n      jump\t// out\n        /* \"#utility.yul\":90:208   */\n    tag_288:\n        /* \"#utility.yul\":177:201   */\n      tag_354\n        /* \"#utility.yul\":195:200   */\n      dup2\n        /* \"#utility.yul\":177:201   */\n      tag_287\n      jump\t// in\n    tag_354:\n        /* \"#utility.yul\":172:175   */\n      dup3\n        /* \"#utility.yul\":165:202   */\n      mstore\n        /* \"#utility.yul\":90:208   */\n      pop\n      pop\n      jump\t// out\n        /* \"#utility.yul\":214:436   */\n    tag_28:\n        /* \"#utility.yul\":307:311   */\n      0x00\n        /* \"#utility.yul\":345:347   */\n      0x20\n        /* \"#utility.yul\":334:343   */\n      dup3\n        /* \"#utility.yul\":330:348   */\n      add\n        /* \"#utility.yul\":322:348   */\n      swap1\n      pop\n        /* \"#utility.yul\":358:429   */\n      tag_356\n        /* \"#utility.yul\":426:427   */\n      0x00\n        /* \"#utility.yul\":415:424   */\n      dup4\n        /* \"#utility.yul\":411:428   */\n      add\n        /* \"#utility.yul\":402:408   */\n      dup5\n        /* \"#utility.yul\":358:429   */\n      tag_288\n      jump\t// in\n    tag_356:\n        /* \"#utility.yul\":214:436   */\n      swap3\n      swap2\n      pop\n      pop\n      jump\t// out\n        /* \"#utility.yul\":523:640   */\n    tag_290:\n        /* \"#utility.yul\":632:633   */\n      0x00\n        /* \"#utility.yul\":629:630   */\n      dup1\n        /* \"#utility.yul\":622:634   */\n      revert\n        /* \"#utility.yul\":769:895   */\n    tag_292:\n        /* \"#utility.yul\":806:813   */\n      0x00\n        /* \"#utility.yul\":846:888   */\n      0xffffffffffffffffffffffffffffffffffffffff\n        /* \"#utility.yul\":839:844   */\n      dup3\n        /* \"#utility.yul\":835:889   */\n      and\n        /* \"#utility.yul\":824:889   */\n      swap1\n      pop\n        /* \"#utility.yul\":769:895   */\n      swap2\n      swap1\n      pop\n      jump\t// out\n        /* \"#utility.yul\":901:997   */\n    tag_293:\n        /* \"#utility.yul\":938:945   */\n      0x00\n        /* \"#utility.yul\":967:991   */\n      tag_362\n        /* \"#utility.yul\":985:990   */\n      dup3\n        /* \"#utility.yul\":967:991   */\n      tag_292\n      jump\t// in\n    tag_362:\n        /* \"#utility.yul\":956:991   */\n      swap1\n      pop\n        /* \"#utility.yul\":901:997   */\n      swap2\n      swap1\n      pop\n      jump\t// out\n        /* \"#utility.yul\":1003:1125   */\n    tag_294:\n        /* \"#utility.yul\":1076:1100   */\n      tag_364\n        /* \"#utility.yul\":1094:1099   */\n      dup2\n        /* \"#utility.yul\":1076:1100   */\n      tag_293\n      jump\t// in\n    tag_364:\n        /* \"#utility.yul\":1069:1074   */\n      dup2\n        /* \"#utility.yul\":1066:1101   */\n      eq\n        /* \"#utility.yul\":1056:1119   */\n      tag_365\n      jumpi\n        /* \"#utility.yul\":1115:1116   */\n      0x00\n        /* \"#utility.yul\":1112:1113   */\n      dup1\n        /* \"#utility.yul\":1105:1117   */\n      revert\n        /* \"#utility.yul\":1056:1119   */\n    tag_365:\n        /* \"#utility.yul\":1003:1125   */\n      pop\n      jump\t// out\n        /* \"#utility.yul\":1131:1270   */\n    tag_295:\n        /* \"#utility.yul\":1177:1182   */\n      0x00\n        /* \"#utility.yul\":1215:1221   */\n      dup2\n        /* \"#utility.yul\":1202:1222   */\n      calldataload\n        /* \"#utility.yul\":1193:1222   */\n      swap1\n      pop\n        /* \"#utility.yul\":1231:1264   */\n      tag_367\n        /* \"#utility.yul\":1258:1263   */\n      dup2\n        /* \"#utility.yul\":1231:1264   */\n      tag_294\n      jump\t// in\n    tag_367:\n        /* \"#utility.yul\":1131:1270   */\n      swap3\n      swap2\n      pop\n      pop\n      jump\t// out\n        /* \"#utility.yul\":1276:1605   */\n    tag_31:\n        /* \"#utility.yul\":1335:1341   */\n      0x00\n        /* \"#utility.yul\":1384:1386   */\n      0x20\n        /* \"#utility.yul\":1372:1381   */\n      dup3\n        /* \"#utility.yul\":1363:1370   */\n      dup5\n        /* \"#utility.yul\":1359:1382   */\n      sub\n        /* \"#utility.yul\":1355:1387   */\n      slt\n        /* \"#utility.yul\":1352:1471   */\n      iszero\n      tag_369\n      jumpi\n        /* \"#utility.yul\":1390:1469   */\n      tag_370\n      tag_290\n      jump\t// in\n    tag_370:\n        /* \"#utility.yul\":1352:1471   */\n    tag_369:\n        /* \"#utility.yul\":1510:1511   */\n      0x00\n        /* \"#utility.yul\":1535:1588   */\n      tag_371\n        /* \"#utility.yul\":1580:1587   */\n      dup5\n        /* \"#utility.yul\":1571:1577   */\n      dup3\n        /* \"#utility.yul\":1560:1569   */\n      dup6\n        /* \"#utility.yul\":1556:1578   */\n      add\n        /* \"#utility.yul\":1535:1588   */\n      tag_295\n      jump\t// in\n    tag_371:\n        /* \"#utility.yul\":1525:1588   */\n      swap2\n      pop\n        /* \"#utility.yul\":1481:1598   */\n      pop\n        /* \"#utility.yul\":1276:1605   */\n      swap3\n      swap2\n      pop\n      pop\n      jump\t// out\n        /* \"#utility.yul\":1611:1733   */\n    tag_296:\n        /* \"#utility.yul\":1684:1708   */\n      tag_373\n        /* \"#utility.yul\":1702:1707   */\n      dup2\n        /* \"#utility.yul\":1684:1708   */\n      tag_287\n      jump\t// in\n    tag_373:\n        /* \"#utility.yul\":1677:1682   */\n      dup2\n        /* \"#utility.yul\":1674:1709   */\n      eq\n        /* \"#utility.yul\":1664:1727   */\n      tag_374\n      jumpi\n        /* \"#utility.yul\":1723:1724   */\n      0x00\n        /* \"#utility.yul\":1720:1721   */\n      dup1\n        /* \"#utility.yul\":1713:1725   */\n      revert\n        /* \"#utility.yul\":1664:1727   */\n    tag_374:\n        /* \"#utility.yul\":1611:1733   */\n      pop\n      jump\t// out\n        /* \"#utility.yul\":1739:1878   */\n    tag_297:\n        /* \"#utility.yul\":1785:1790   */\n      0x00\n        /* \"#utility.yul\":1823:1829   */\n      dup2\n        /* \"#utility.yul\":1810:1830   */\n      calldataload\n        /* \"#utility.yul\":1801:1830   */\n      swap1\n      pop\n        /* \"#utility.yul\":1839:1872   */\n      tag_376\n        /* \"#utility.yul\":1866:1871   */\n      dup2\n        /* \"#utility.yul\":1839:1872   */\n      tag_296\n      jump\t// in\n    tag_376:\n        /* \"#utility.yul\":1739:1878   */\n      swap3\n      swap2\n      pop\n      pop\n      jump\t// out\n        /* \"#utility.yul\":1884:2213   */\n    tag_35:\n        /* \"#utility.yul\":1943:1949   */\n      0x00\n        /* \"#utility.yul\":1992:1994   */\n      0x20\n        /* \"#utility.yul\":1980:1989   */\n      dup3\n        /* \"#utility.yul\":1971:1978   */\n      dup5\n        /* \"#utility.yul\":1967:1990   */\n      sub\n        /* \"#utility.yul\":1963:1995   */\n      slt\n        /* \"#utility.yul\":1960:2079   */\n      iszero\n      tag_378\n      jumpi\n        /* \"#utility.yul\":1998:2077   */\n      tag_379\n      tag_290\n      jump\t// in\n    tag_379:\n        /* \"#utility.yul\":1960:2079   */\n    tag_378:\n        /* \"#utility.yul\":2118:2119   */\n      0x00\n        /* \"#utility.yul\":2143:2196   */\n      tag_380\n        /* \"#utility.yul\":2188:2195   */\n      dup5\n        /* \"#utility.yul\":2179:2185   */\n      dup3\n        /* \"#utility.yul\":2168:2177   */\n      dup6\n        /* \"#utility.yul\":2164:2186   */\n      add\n        /* \"#utility.yul\":2143:2196   */\n      tag_297\n      jump\t// in\n    tag_380:\n        /* \"#utility.yul\":2133:2196   */\n      swap2\n      pop\n        /* \"#utility.yul\":2089:2206   */\n      pop\n        /* \"#utility.yul\":1884:2213   */\n      swap3\n      swap2\n      pop\n      pop\n      jump\t// out\n        /* \"#utility.yul\":2219:2333   */\n    tag_298:\n        /* \"#utility.yul\":2286:2292   */\n      0x00\n        /* \"#utility.yul\":2320:2325   */\n      dup2\n        /* \"#utility.yul\":2314:2326   */\n      mload\n        /* \"#utility.yul\":2304:2326   */\n      swap1\n      pop\n        /* \"#utility.yul\":2219:2333   */\n      swap2\n      swap1\n      pop\n      jump\t// out\n        /* \"#utility.yul\":2339:2523   */\n    tag_299:\n        /* \"#utility.yul\":2438:2449   */\n      0x00\n        /* \"#utility.yul\":2472:2478   */\n      dup3\n        /* \"#utility.yul\":2467:2470   */\n      dup3\n        /* \"#utility.yul\":2460:2479   */\n      mstore\n        /* \"#utility.yul\":2512:2516   */\n      0x20\n        /* \"#utility.yul\":2507:2510   */\n      dup3\n        /* \"#utility.yul\":2503:2517   */\n      add\n        /* \"#utility.yul\":2488:2517   */\n      swap1\n      pop\n        /* \"#utility.yul\":2339:2523   */\n      swap3\n      swap2\n      pop\n      pop\n      jump\t// out\n        /* \"#utility.yul\":2529:2661   */\n    tag_300:\n        /* \"#utility.yul\":2596:2600   */\n      0x00\n        /* \"#utility.yul\":2619:2622   */\n      dup2\n        /* \"#utility.yul\":2611:2622   */\n      swap1\n      pop\n        /* \"#utility.yul\":2649:2653   */\n      0x20\n        /* \"#utility.yul\":2644:2647   */\n      dup3\n        /* \"#utility.yul\":2640:2654   */\n      add\n        /* \"#utility.yul\":2632:2654   */\n      swap1\n      pop\n        /* \"#utility.yul\":2529:2661   */\n      swap2\n      swap1\n      pop\n      jump\t// out\n        /* \"#utility.yul\":2667:2775   */\n    tag_301:\n        /* \"#utility.yul\":2744:2768   */\n      tag_385\n        /* \"#utility.yul\":2762:2767   */\n      dup2\n        /* \"#utility.yul\":2744:2768   */\n      tag_293\n      jump\t// in\n    tag_385:\n        /* \"#utility.yul\":2739:2742   */\n      dup3\n        /* \"#utility.yul\":2732:2769   */\n      mstore\n        /* \"#utility.yul\":2667:2775   */\n      pop\n      pop\n      jump\t// out\n        /* \"#utility.yul\":2781:2960   */\n    tag_302:\n        /* \"#utility.yul\":2850:2860   */\n      0x00\n        /* \"#utility.yul\":2871:2917   */\n      tag_387\n        /* \"#utility.yul\":2913:2916   */\n      dup4\n        /* \"#utility.yul\":2905:2911   */\n      dup4\n        /* \"#utility.yul\":2871:2917   */\n      tag_301\n      jump\t// in\n    tag_387:\n        /* \"#utility.yul\":2949:2953   */\n      0x20\n        /* \"#utility.yul\":2944:2947   */\n      dup4\n        /* \"#utility.yul\":2940:2954   */\n      add\n        /* \"#utility.yul\":2926:2954   */\n      swap1\n      pop\n        /* \"#utility.yul\":2781:2960   */\n      swap3\n      swap2\n      pop\n      pop\n      jump\t// out\n        /* \"#utility.yul\":2966:3079   */\n    tag_303:\n        /* \"#utility.yul\":3036:3040   */\n      0x00\n        /* \"#utility.yul\":3068:3072   */\n      0x20\n        /* \"#utility.yul\":3063:3066   */\n      dup3\n        /* \"#utility.yul\":3059:3073   */\n      add\n        /* \"#utility.yul\":3051:3073   */\n      swap1\n      pop\n        /* \"#utility.yul\":2966:3079   */\n      swap2\n      swap1\n      pop\n      jump\t// out\n        /* \"#utility.yul\":3115:3847   */\n    tag_304:\n        /* \"#utility.yul\":3234:3237   */\n      0x00\n        /* \"#utility.yul\":3263:3317   */\n      tag_390\n        /* \"#utility.yul\":3311:3316   */\n      dup3\n        /* \"#utility.yul\":3263:3317   */\n      tag_298\n      jump\t// in\n    tag_390:\n        /* \"#utility.yul\":3333:3419   */\n      tag_391\n        /* \"#utility.yul\":3412:3418   */\n      dup2\n        /* \"#utility.yul\":3407:3410   */\n      dup6\n        /* \"#utility.yul\":3333:3419   */\n      tag_299\n      jump\t// in\n    tag_391:\n        /* \"#utility.yul\":3326:3419   */\n      swap4\n      pop\n        /* \"#utility.yul\":3443:3499   */\n      tag_392\n        /* \"#utility.yul\":3493:3498   */\n      dup4\n        /* \"#utility.yul\":3443:3499   */\n      tag_300\n      jump\t// in\n    tag_392:\n        /* \"#utility.yul\":3522:3529   */\n      dup1\n        /* \"#utility.yul\":3553:3554   */\n      0x00\n        /* \"#utility.yul\":3538:3822   */\n    tag_393:\n        /* \"#utility.yul\":3563:3569   */\n      dup4\n        /* \"#utility.yul\":3560:3561   */\n      dup2\n        /* \"#utility.yul\":3557:3570   */\n      lt\n        /* \"#utility.yul\":3538:3822   */\n      iszero\n      tag_395\n      jumpi\n        /* \"#utility.yul\":3639:3645   */\n      dup2\n        /* \"#utility.yul\":3633:3646   */\n      mload\n        /* \"#utility.yul\":3666:3729   */\n      tag_396\n        /* \"#utility.yul\":3725:3728   */\n      dup9\n        /* \"#utility.yul\":3710:3723   */\n      dup3\n        /* \"#utility.yul\":3666:3729   */\n      tag_302\n      jump\t// in\n    tag_396:\n        /* \"#utility.yul\":3659:3729   */\n      swap8\n      pop\n        /* \"#utility.yul\":3752:3812   */\n      tag_397\n        /* \"#utility.yul\":3805:3811   */\n      dup4\n        /* \"#utility.yul\":3752:3812   */\n      tag_303\n      jump\t// in\n    tag_397:\n        /* \"#utility.yul\":3742:3812   */\n      swap3\n      pop\n        /* \"#utility.yul\":3598:3822   */\n      pop\n        /* \"#utility.yul\":3585:3586   */\n      0x01\n        /* \"#utility.yul\":3582:3583   */\n      dup2\n        /* \"#utility.yul\":3578:3587   */\n      add\n        /* \"#utility.yul\":3573:3587   */\n      swap1\n      pop\n        /* \"#utility.yul\":3538:3822   */\n      jump(tag_393)\n    tag_395:\n        /* \"#utility.yul\":3542:3556   */\n      pop\n        /* \"#utility.yul\":3838:3841   */\n      dup6\n        /* \"#utility.yul\":3831:3841   */\n      swap4\n      pop\n        /* \"#utility.yul\":3239:3847   */\n      pop\n      pop\n      pop\n        /* \"#utility.yul\":3115:3847   */\n      swap3\n      swap2\n      pop\n      pop\n      jump\t// out\n        /* \"#utility.yul\":3853:4226   */\n    tag_41:\n        /* \"#utility.yul\":3996:4000   */\n      0x00\n        /* \"#utility.yul\":4034:4036   */\n      0x20\n        /* \"#utility.yul\":4023:4032   */\n      dup3\n        /* \"#utility.yul\":4019:4037   */\n      add\n        /* \"#utility.yul\":4011:4037   */\n      swap1\n      pop\n        /* \"#utility.yul\":4083:4092   */\n      dup2\n        /* \"#utility.yul\":4077:4081   */\n      dup2\n        /* \"#utility.yul\":4073:4093   */\n      sub\n        /* \"#utility.yul\":4069:4070   */\n      0x00\n        /* \"#utility.yul\":4058:4067   */\n      dup4\n        /* \"#utility.yul\":4054:4071   */\n      add\n        /* \"#utility.yul\":4047:4094   */\n      mstore\n        /* \"#utility.yul\":4111:4219   */\n      tag_399\n        /* \"#utility.yul\":4214:4218   */\n      dup2\n        /* \"#utility.yul\":4205:4211   */\n      dup5\n        /* \"#utility.yul\":4111:4219   */\n      tag_304\n      jump\t// in\n    tag_399:\n        /* \"#utility.yul\":4103:4219   */\n      swap1\n      pop\n        /* \"#utility.yul\":3853:4226   */\n      swap3\n      swap2\n      pop\n      pop\n      jump\t// out\n        /* \"#utility.yul\":4232:4322   */\n    tag_305:\n        /* \"#utility.yul\":4266:4273   */\n      0x00\n        /* \"#utility.yul\":4309:4314   */\n      dup2\n        /* \"#utility.yul\":4302:4315   */\n      iszero\n        /* \"#utility.yul\":4295:4316   */\n      iszero\n        /* \"#utility.yul\":4284:4316   */\n      swap1\n      pop\n        /* \"#utility.yul\":4232:4322   */\n      swap2\n      swap1\n      pop\n      jump\t// out\n        /* \"#utility.yul\":4328:4437   */\n    tag_306:\n        /* \"#utility.yul\":4409:4430   */\n      tag_402\n        /* \"#utility.yul\":4424:4429   */\n      dup2\n        /* \"#utility.yul\":4409:4430   */\n      tag_305\n      jump\t// in\n    tag_402:\n        /* \"#utility.yul\":4404:4407   */\n      dup3\n        /* \"#utility.yul\":4397:4431   */\n      mstore\n        /* \"#utility.yul\":4328:4437   */\n      pop\n      pop\n      jump\t// out\n        /* \"#utility.yul\":4443:4653   */\n    tag_60:\n        /* \"#utility.yul\":4530:4534   */\n      0x00\n        /* \"#utility.yul\":4568:4570   */\n      0x20\n        /* \"#utility.yul\":4557:4566   */\n      dup3\n        /* \"#utility.yul\":4553:4571   */\n      add\n        /* \"#utility.yul\":4545:4571   */\n      swap1\n      pop\n        /* \"#utility.yul\":4581:4646   */\n      tag_404\n        /* \"#utility.yul\":4643:4644   */\n      0x00\n        /* \"#utility.yul\":4632:4641   */\n      dup4\n        /* \"#utility.yul\":4628:4645   */\n      add\n        /* \"#utility.yul\":4619:4625   */\n      dup5\n        /* \"#utility.yul\":4581:4646   */\n      tag_306\n      jump\t// in\n    tag_404:\n        /* \"#utility.yul\":4443:4653   */\n      swap3\n      swap2\n      pop\n      pop\n      jump\t// out\n        /* \"#utility.yul\":4659:4719   */\n    tag_307:\n        /* \"#utility.yul\":4687:4690   */\n      0x00\n        /* \"#utility.yul\":4708:4713   */\n      dup2\n        /* \"#utility.yul\":4701:4713   */\n      swap1\n      pop\n        /* \"#utility.yul\":4659:4719   */\n      swap2\n      swap1\n      pop\n      jump\t// out\n        /* \"#utility.yul\":4725:4867   */\n    tag_308:\n        /* \"#utility.yul\":4775:4784   */\n      0x00\n        /* \"#utility.yul\":4808:4861   */\n      tag_407\n        /* \"#utility.yul\":4826:4860   */\n      tag_408\n        /* \"#utility.yul\":4835:4859   */\n      tag_409\n        /* \"#utility.yul\":4853:4858   */\n      dup5\n        /* \"#utility.yul\":4835:4859   */\n      tag_292\n      jump\t// in\n    tag_409:\n        /* \"#utility.yul\":4826:4860   */\n      tag_307\n      jump\t// in\n    tag_408:\n        /* \"#utility.yul\":4808:4861   */\n      tag_292\n      jump\t// in\n    tag_407:\n        /* \"#utility.yul\":4795:4861   */\n      swap1\n      pop\n        /* \"#utility.yul\":4725:4867   */\n      swap2\n      swap1\n      pop\n      jump\t// out\n        /* \"#utility.yul\":4873:4999   */\n    tag_309:\n        /* \"#utility.yul\":4923:4932   */\n      0x00\n        /* \"#utility.yul\":4956:4993   */\n      tag_411\n        /* \"#utility.yul\":4987:4992   */\n      dup3\n        /* \"#utility.yul\":4956:4993   */\n      tag_308\n      jump\t// in\n    tag_411:\n        /* \"#utility.yul\":4943:4993   */\n      swap1\n      pop\n        /* \"#utility.yul\":4873:4999   */\n      swap2\n      swap1\n      pop\n      jump\t// out\n        /* \"#utility.yul\":5005:5144   */\n    tag_310:\n        /* \"#utility.yul\":5068:5077   */\n      0x00\n        /* \"#utility.yul\":5101:5138   */\n      tag_413\n        /* \"#utility.yul\":5132:5137   */\n      dup3\n        /* \"#utility.yul\":5101:5138   */\n      tag_309\n      jump\t// in\n    tag_413:\n        /* \"#utility.yul\":5088:5138   */\n      swap1\n      pop\n        /* \"#utility.yul\":5005:5144   */\n      swap2\n      swap1\n      pop\n      jump\t// out\n        /* \"#utility.yul\":5150:5307   */\n    tag_311:\n        /* \"#utility.yul\":5250:5300   */\n      tag_415\n        /* \"#utility.yul\":5294:5299   */\n      dup2\n        /* \"#utility.yul\":5250:5300   */\n      tag_310\n      jump\t// in\n    tag_415:\n        /* \"#utility.yul\":5245:5248   */\n      dup3\n        /* \"#utility.yul\":5238:5301   */\n      mstore\n        /* \"#utility.yul\":5150:5307   */\n      pop\n      pop\n      jump\t// out\n        /* \"#utility.yul\":5313:5561   */\n    tag_64:\n        /* \"#utility.yul\":5419:5423   */\n      0x00\n        /* \"#utility.yul\":5457:5459   */\n      0x20\n        /* \"#utility.yul\":5446:5455   */\n      dup3\n        /* \"#utility.yul\":5442:5460   */\n      add\n        /* \"#utility.yul\":5434:5460   */\n      swap1\n      pop\n        /* \"#utility.yul\":5470:5554   */\n      tag_417\n        /* \"#utility.yul\":5551:5552   */\n      0x00\n        /* \"#utility.yul\":5540:5549   */\n      dup4\n        /* \"#utility.yul\":5536:5553   */\n      add\n        /* \"#utility.yul\":5527:5533   */\n      dup5\n        /* \"#utility.yul\":5470:5554   */\n      tag_311\n      jump\t// in\n    tag_417:\n        /* \"#utility.yul\":5313:5561   */\n      swap3\n      swap2\n      pop\n      pop\n      jump\t// out\n        /* \"#utility.yul\":5567:5685   */\n    tag_312:\n        /* \"#utility.yul\":5654:5678   */\n      tag_419\n        /* \"#utility.yul\":5672:5677   */\n      dup2\n        /* \"#utility.yul\":5654:5678   */\n      tag_293\n      jump\t// in\n    tag_419:\n        /* \"#utility.yul\":5649:5652   */\n      dup3\n        /* \"#utility.yul\":5642:5679   */\n      mstore\n        /* \"#utility.yul\":5567:5685   */\n      pop\n      pop\n      jump\t// out\n        /* \"#utility.yul\":5691:6565   */\n    tag_72:\n        /* \"#utility.yul\":5946:5950   */\n      0x00\n        /* \"#utility.yul\":5984:5987   */\n      0xe0\n        /* \"#utility.yul\":5973:5982   */\n      dup3\n        /* \"#utility.yul\":5969:5988   */\n      add\n        /* \"#utility.yul\":5961:5988   */\n      swap1\n      pop\n        /* \"#utility.yul\":5998:6069   */\n      tag_421\n        /* \"#utility.yul\":6066:6067   */\n      0x00\n        /* \"#utility.yul\":6055:6064   */\n      dup4\n        /* \"#utility.yul\":6051:6068   */\n      add\n        /* \"#utility.yul\":6042:6048   */\n      dup11\n        /* \"#utility.yul\":5998:6069   */\n      tag_312\n      jump\t// in\n    tag_421:\n        /* \"#utility.yul\":6079:6151   */\n      tag_422\n        /* \"#utility.yul\":6147:6149   */\n      0x20\n        /* \"#utility.yul\":6136:6145   */\n      dup4\n        /* \"#utility.yul\":6132:6150   */\n      add\n        /* \"#utility.yul\":6123:6129   */\n      dup10\n        /* \"#utility.yul\":6079:6151   */\n      tag_288\n      jump\t// in\n    tag_422:\n        /* \"#utility.yul\":6161:6227   */\n      tag_423\n        /* \"#utility.yul\":6223:6225   */\n      0x40\n        /* \"#utility.yul\":6212:6221   */\n      dup4\n        /* \"#utility.yul\":6208:6226   */\n      add\n        /* \"#utility.yul\":6199:6205   */\n      dup9\n        /* \"#utility.yul\":6161:6227   */\n      tag_306\n      jump\t// in\n    tag_423:\n        /* \"#utility.yul\":6237:6309   */\n      tag_424\n        /* \"#utility.yul\":6305:6307   */\n      0x60\n        /* \"#utility.yul\":6294:6303   */\n      dup4\n        /* \"#utility.yul\":6290:6308   */\n      add\n        /* \"#utility.yul\":6281:6287   */\n      dup8\n        /* \"#utility.yul\":6237:6309   */\n      tag_288\n      jump\t// in\n    tag_424:\n        /* \"#utility.yul\":6319:6392   */\n      tag_425\n        /* \"#utility.yul\":6387:6390   */\n      0x80\n        /* \"#utility.yul\":6376:6385   */\n      dup4\n        /* \"#utility.yul\":6372:6391   */\n      add\n        /* \"#utility.yul\":6363:6369   */\n      dup7\n        /* \"#utility.yul\":6319:6392   */\n      tag_288\n      jump\t// in\n    tag_425:\n        /* \"#utility.yul\":6402:6475   */\n      tag_426\n        /* \"#utility.yul\":6470:6473   */\n      0xa0\n        /* \"#utility.yul\":6459:6468   */\n      dup4\n        /* \"#utility.yul\":6455:6474   */\n      add\n        /* \"#utility.yul\":6446:6452   */\n      dup6\n        /* \"#utility.yul\":6402:6475   */\n      tag_288\n      jump\t// in\n    tag_426:\n        /* \"#utility.yul\":6485:6558   */\n      tag_427\n        /* \"#utility.yul\":6553:6556   */\n      0xc0\n        /* \"#utility.yul\":6542:6551   */\n      dup4\n        /* \"#utility.yul\":6538:6557   */\n      add\n        /* \"#utility.yul\":6529:6535   */\n      dup5\n        /* \"#utility.yul\":6485:6558   */\n      tag_288\n      jump\t// in\n    tag_427:\n        /* \"#utility.yul\":5691:6565   */\n      swap9\n      swap8\n      pop\n      pop\n      pop\n      pop\n      pop\n      pop\n      pop\n      pop\n      jump\t// out\n        /* \"#utility.yul\":6571:7445   */\n    tag_79:\n        /* \"#utility.yul\":6826:6830   */\n      0x00\n        /* \"#utility.yul\":6864:6867   */\n      0xe0\n        /* \"#utility.yul\":6853:6862   */\n      dup3\n        /* \"#utility.yul\":6849:6868   */\n      add\n        /* \"#utility.yul\":6841:6868   */\n      swap1\n      pop\n        /* \"#utility.yul\":6878:6949   */\n      tag_429\n        /* \"#utility.yul\":6946:6947   */\n      0x00\n        /* \"#utility.yul\":6935:6944   */\n      dup4\n        /* \"#utility.yul\":6931:6948   */\n      add\n        /* \"#utility.yul\":6922:6928   */\n      dup11\n        /* \"#utility.yul\":6878:6949   */\n      tag_312\n      jump\t// in\n    tag_429:\n        /* \"#utility.yul\":6959:7031   */\n      tag_430\n        /* \"#utility.yul\":7027:7029   */\n      0x20\n        /* \"#utility.yul\":7016:7025   */\n      dup4\n        /* \"#utility.yul\":7012:7030   */\n      add\n        /* \"#utility.yul\":7003:7009   */\n      dup10\n        /* \"#utility.yul\":6959:7031   */\n      tag_288\n      jump\t// in\n    tag_430:\n        /* \"#utility.yul\":7041:7113   */\n      tag_431\n        /* \"#utility.yul\":7109:7111   */\n      0x40\n        /* \"#utility.yul\":7098:7107   */\n      dup4\n        /* \"#utility.yul\":7094:7112   */\n      add\n        /* \"#utility.yul\":7085:7091   */\n      dup9\n        /* \"#utility.yul\":7041:7113   */\n      tag_288\n      jump\t// in\n    tag_431:\n        /* \"#utility.yul\":7123:7195   */\n      tag_432\n        /* \"#utility.yul\":7191:7193   */\n      0x60\n        /* \"#utility.yul\":7180:7189   */\n      dup4\n        /* \"#utility.yul\":7176:7194   */\n      add\n        /* \"#utility.yul\":7167:7173   */\n      dup8\n        /* \"#utility.yul\":7123:7195   */\n      tag_288\n      jump\t// in\n    tag_432:\n        /* \"#utility.yul\":7205:7278   */\n      tag_433\n        /* \"#utility.yul\":7273:7276   */\n      0x80\n        /* \"#utility.yul\":7262:7271   */\n      dup4\n        /* \"#utility.yul\":7258:7277   */\n      add\n        /* \"#utility.yul\":7249:7255   */\n      dup7\n        /* \"#utility.yul\":7205:7278   */\n      tag_288\n      jump\t// in\n    tag_433:\n        /* \"#utility.yul\":7288:7355   */\n      tag_434\n        /* \"#utility.yul\":7350:7353   */\n      0xa0\n        /* \"#utility.yul\":7339:7348   */\n      dup4\n        /* \"#utility.yul\":7335:7354   */\n      add\n        /* \"#utility.yul\":7326:7332   */\n      dup6\n        /* \"#utility.yul\":7288:7355   */\n      tag_306\n      jump\t// in\n    tag_434:\n        /* \"#utility.yul\":7365:7438   */\n      tag_435\n        /* \"#utility.yul\":7433:7436   */\n      0xc0\n        /* \"#utility.yul\":7422:7431   */\n      dup4\n        /* \"#utility.yul\":7418:7437   */\n      add\n        /* \"#utility.yul\":7409:7415   */\n      dup5\n        /* \"#utility.yul\":7365:7438   */\n      tag_288\n      jump\t// in\n    tag_435:\n        /* \"#utility.yul\":6571:7445   */\n      swap9\n      swap8\n      pop\n      pop\n      pop\n      pop\n      pop\n      pop\n      pop\n      pop\n      jump\t// out\n        /* \"#utility.yul\":7451:8070   */\n    tag_82:\n        /* \"#utility.yul\":7528:7534   */\n      0x00\n        /* \"#utility.yul\":7536:7542   */\n      dup1\n        /* \"#utility.yul\":7544:7550   */\n      0x00\n        /* \"#utility.yul\":7593:7595   */\n      0x60\n        /* \"#utility.yul\":7581:7590   */\n      dup5\n        /* \"#utility.yul\":7572:7579   */\n      dup7\n        /* \"#utility.yul\":7568:7591   */\n      sub\n        /* \"#utility.yul\":7564:7596   */\n      slt\n        /* \"#utility.yul\":7561:7680   */\n      iszero\n      tag_437\n      jumpi\n        /* \"#utility.yul\":7599:7678   */\n      tag_438\n      tag_290\n      jump\t// in\n    tag_438:\n        /* \"#utility.yul\":7561:7680   */\n    tag_437:\n        /* \"#utility.yul\":7719:7720   */\n      0x00\n        /* \"#utility.yul\":7744:7797   */\n      tag_439\n        /* \"#utility.yul\":7789:7796   */\n      dup7\n        /* \"#utility.yul\":7780:7786   */\n      dup3\n        /* \"#utility.yul\":7769:7778   */\n      dup8\n        /* \"#utility.yul\":7765:7787   */\n      add\n        /* \"#utility.yul\":7744:7797   */\n      tag_295\n      jump\t// in\n    tag_439:\n        /* \"#utility.yul\":7734:7797   */\n      swap4\n      pop\n        /* \"#utility.yul\":7690:7807   */\n      pop\n        /* \"#utility.yul\":7846:7848   */\n      0x20\n        /* \"#utility.yul\":7872:7925   */\n      tag_440\n        /* \"#utility.yul\":7917:7924   */\n      dup7\n        /* \"#utility.yul\":7908:7914   */\n      dup3\n        /* \"#utility.yul\":7897:7906   */\n      dup8\n        /* \"#utility.yul\":7893:7915   */\n      add\n        /* \"#utility.yul\":7872:7925   */\n      tag_297\n      jump\t// in\n    tag_440:\n        /* \"#utility.yul\":7862:7925   */\n      swap3\n      pop\n        /* \"#utility.yul\":7817:7935   */\n      pop\n        /* \"#utility.yul\":7974:7976   */\n      0x40\n        /* \"#utility.yul\":8000:8053   */\n      tag_441\n        /* \"#utility.yul\":8045:8052   */\n      dup7\n        /* \"#utility.yul\":8036:8042   */\n      dup3\n        /* \"#utility.yul\":8025:8034   */\n      dup8\n        /* \"#utility.yul\":8021:8043   */\n      add\n        /* \"#utility.yul\":8000:8053   */\n      tag_297\n      jump\t// in\n    tag_441:\n        /* \"#utility.yul\":7990:8053   */\n      swap2\n      pop\n        /* \"#utility.yul\":7945:8063   */\n      pop\n        /* \"#utility.yul\":7451:8070   */\n      swap3\n      pop\n      swap3\n      pop\n      swap3\n      jump\t// out\n        /* \"#utility.yul\":8076:8298   */\n    tag_93:\n        /* \"#utility.yul\":8169:8173   */\n      0x00\n        /* \"#utility.yul\":8207:8209   */\n      0x20\n        /* \"#utility.yul\":8196:8205   */\n      dup3\n        /* \"#utility.yul\":8192:8210   */\n      add\n        /* \"#utility.yul\":8184:8210   */\n      swap1\n      pop\n        /* \"#utility.yul\":8220:8291   */\n      tag_443\n        /* \"#utility.yul\":8288:8289   */\n      0x00\n        /* \"#utility.yul\":8277:8286   */\n      dup4\n        /* \"#utility.yul\":8273:8290   */\n      add\n        /* \"#utility.yul\":8264:8270   */\n      dup5\n        /* \"#utility.yul\":8220:8291   */\n      tag_312\n      jump\t// in\n    tag_443:\n        /* \"#utility.yul\":8076:8298   */\n      swap3\n      swap2\n      pop\n      pop\n      jump\t// out\n        /* \"#utility.yul\":8304:8473   */\n    tag_313:\n        /* \"#utility.yul\":8388:8399   */\n      0x00\n        /* \"#utility.yul\":8422:8428   */\n      dup3\n        /* \"#utility.yul\":8417:8420   */\n      dup3\n        /* \"#utility.yul\":8410:8429   */\n      mstore\n        /* \"#utility.yul\":8462:8466   */\n      0x20\n        /* \"#utility.yul\":8457:8460   */\n      dup3\n        /* \"#utility.yul\":8453:8467   */\n      add\n        /* \"#utility.yul\":8438:8467   */\n      swap1\n      pop\n        /* \"#utility.yul\":8304:8473   */\n      swap3\n      swap2\n      pop\n      pop\n      jump\t// out\n        /* \"#utility.yul\":8479:8656   */\n    tag_314:\n        /* \"#utility.yul\":8619:8648   */\n      0x436f6e7472616374206973207061757365642062792061646d696e0000000000\n        /* \"#utility.yul\":8615:8616   */\n      0x00\n        /* \"#utility.yul\":8607:8613   */\n      dup3\n        /* \"#utility.yul\":8603:8617   */\n      add\n        /* \"#utility.yul\":8596:8649   */\n      mstore\n        /* \"#utility.yul\":8479:8656   */\n      pop\n      jump\t// out\n        /* \"#utility.yul\":8662:9028   */\n    tag_315:\n        /* \"#utility.yul\":8804:8807   */\n      0x00\n        /* \"#utility.yul\":8825:8892   */\n      tag_447\n        /* \"#utility.yul\":8889:8891   */\n      0x1b\n        /* \"#utility.yul\":8884:8887   */\n      dup4\n        /* \"#utility.yul\":8825:8892   */\n      tag_313\n      jump\t// in\n    tag_447:\n        /* \"#utility.yul\":8818:8892   */\n      swap2\n      pop\n        /* \"#utility.yul\":8901:8994   */\n      tag_448\n        /* \"#utility.yul\":8990:8993   */\n      dup3\n        /* \"#utility.yul\":8901:8994   */\n      tag_314\n      jump\t// in\n    tag_448:\n        /* \"#utility.yul\":9019:9021   */\n      0x20\n        /* \"#utility.yul\":9014:9017   */\n      dup3\n        /* \"#utility.yul\":9010:9022   */\n      add\n        /* \"#utility.yul\":9003:9022   */\n      swap1\n      pop\n        /* \"#utility.yul\":8662:9028   */\n      swap2\n      swap1\n      pop\n      jump\t// out\n        /* \"#utility.yul\":9034:9453   */\n    tag_97:\n        /* \"#utility.yul\":9200:9204   */\n      0x00\n        /* \"#utility.yul\":9238:9240   */\n      0x20\n        /* \"#utility.yul\":9227:9236   */\n      dup3\n        /* \"#utility.yul\":9223:9241   */\n      add\n        /* \"#utility.yul\":9215:9241   */\n      swap1\n      pop\n        /* \"#utility.yul\":9287:9296   */\n      dup2\n        /* \"#utility.yul\":9281:9285   */\n      dup2\n        /* \"#utility.yul\":9277:9297   */\n      sub\n        /* \"#utility.yul\":9273:9274   */\n      0x00\n        /* \"#utility.yul\":9262:9271   */\n      dup4\n        /* \"#utility.yul\":9258:9275   */\n      add\n        /* \"#utility.yul\":9251:9298   */\n      mstore\n        /* \"#utility.yul\":9315:9446   */\n      tag_450\n        /* \"#utility.yul\":9441:9445   */\n      dup2\n        /* \"#utility.yul\":9315:9446   */\n      tag_315\n      jump\t// in\n    tag_450:\n        /* \"#utility.yul\":9307:9446   */\n      swap1\n      pop\n        /* \"#utility.yul\":9034:9453   */\n      swap2\n      swap1\n      pop\n      jump\t// out\n        /* \"#utility.yul\":9459:9631   */\n    tag_316:\n        /* \"#utility.yul\":9599:9623   */\n      0x496e76616c69642073656e646572206164647265737300000000000000000000\n        /* \"#utility.yul\":9595:9596   */\n      0x00\n        /* \"#utility.yul\":9587:9593   */\n      dup3\n        /* \"#utility.yul\":9583:9597   */\n      add\n        /* \"#utility.yul\":9576:9624   */\n      mstore\n        /* \"#utility.yul\":9459:9631   */\n      pop\n      jump\t// out\n        /* \"#utility.yul\":9637:10003   */\n    tag_317:\n        /* \"#utility.yul\":9779:9782   */\n      0x00\n        /* \"#utility.yul\":9800:9867   */\n      tag_453\n        /* \"#utility.yul\":9864:9866   */\n      0x16\n        /* \"#utility.yul\":9859:9862   */\n      dup4\n        /* \"#utility.yul\":9800:9867   */\n      tag_313\n      jump\t// in\n    tag_453:\n        /* \"#utility.yul\":9793:9867   */\n      swap2\n      pop\n        /* \"#utility.yul\":9876:9969   */\n      tag_454\n        /* \"#utility.yul\":9965:9968   */\n      dup3\n        /* \"#utility.yul\":9876:9969   */\n      tag_316\n      jump\t// in\n    tag_454:\n        /* \"#utility.yul\":9994:9996   */\n      0x20\n        /* \"#utility.yul\":9989:9992   */\n      dup3\n        /* \"#utility.yul\":9985:9997   */\n      add\n        /* \"#utility.yul\":9978:9997   */\n      swap1\n      pop\n        /* \"#utility.yul\":9637:10003   */\n      swap2\n      swap1\n      pop\n      jump\t// out\n        /* \"#utility.yul\":10009:10428   */\n    tag_104:\n        /* \"#utility.yul\":10175:10179   */\n      0x00\n        /* \"#utility.yul\":10213:10215   */\n      0x20\n        /* \"#utility.yul\":10202:10211   */\n      dup3\n        /* \"#utility.yul\":10198:10216   */\n      add\n        /* \"#utility.yul\":10190:10216   */\n      swap1\n      pop\n        /* \"#utility.yul\":10262:10271   */\n      dup2\n        /* \"#utility.yul\":10256:10260   */\n      dup2\n        /* \"#utility.yul\":10252:10272   */\n      sub\n        /* \"#utility.yul\":10248:10249   */\n      0x00\n        /* \"#utility.yul\":10237:10246   */\n      dup4\n        /* \"#utility.yul\":10233:10250   */\n      add\n        /* \"#utility.yul\":10226:10273   */\n      mstore\n        /* \"#utility.yul\":10290:10421   */\n      tag_456\n        /* \"#utility.yul\":10416:10420   */\n      dup2\n        /* \"#utility.yul\":10290:10421   */\n      tag_317\n      jump\t// in\n    tag_456:\n        /* \"#utility.yul\":10282:10421   */\n      swap1\n      pop\n        /* \"#utility.yul\":10009:10428   */\n      swap2\n      swap1\n      pop\n      jump\t// out\n        /* \"#utility.yul\":10434:10608   */\n    tag_318:\n        /* \"#utility.yul\":10574:10600   */\n      0x496e76616c696420726566657272657220616464726573730000000000000000\n        /* \"#utility.yul\":10570:10571   */\n      0x00\n        /* \"#utility.yul\":10562:10568   */\n      dup3\n        /* \"#utility.yul\":10558:10572   */\n      add\n        /* \"#utility.yul\":10551:10601   */\n      mstore\n        /* \"#utility.yul\":10434:10608   */\n      pop\n      jump\t// out\n        /* \"#utility.yul\":10614:10980   */\n    tag_319:\n        /* \"#utility.yul\":10756:10759   */\n      0x00\n        /* \"#utility.yul\":10777:10844   */\n      tag_459\n        /* \"#utility.yul\":10841:10843   */\n      0x18\n        /* \"#utility.yul\":10836:10839   */\n      dup4\n        /* \"#utility.yul\":10777:10844   */\n      tag_313\n      jump\t// in\n    tag_459:\n        /* \"#utility.yul\":10770:10844   */\n      swap2\n      pop\n        /* \"#utility.yul\":10853:10946   */\n      tag_460\n        /* \"#utility.yul\":10942:10945   */\n      dup3\n        /* \"#utility.yul\":10853:10946   */\n      tag_318\n      jump\t// in\n    tag_460:\n        /* \"#utility.yul\":10971:10973   */\n      0x20\n        /* \"#utility.yul\":10966:10969   */\n      dup3\n        /* \"#utility.yul\":10962:10974   */\n      add\n        /* \"#utility.yul\":10955:10974   */\n      swap1\n      pop\n        /* \"#utility.yul\":10614:10980   */\n      swap2\n      swap1\n      pop\n      jump\t// out\n        /* \"#utility.yul\":10986:11405   */\n    tag_107:\n        /* \"#utility.yul\":11152:11156   */\n      0x00\n        /* \"#utility.yul\":11190:11192   */\n      0x20\n        /* \"#utility.yul\":11179:11188   */\n      dup3\n        /* \"#utility.yul\":11175:11193   */\n      add\n        /* \"#utility.yul\":11167:11193   */\n      swap1\n      pop\n        /* \"#utility.yul\":11239:11248   */\n      dup2\n        /* \"#utility.yul\":11233:11237   */\n      dup2\n        /* \"#utility.yul\":11229:11249   */\n      sub\n        /* \"#utility.yul\":11225:11226   */\n      0x00\n        /* \"#utility.yul\":11214:11223   */\n      dup4\n        /* \"#utility.yul\":11210:11227   */\n      add\n        /* \"#utility.yul\":11203:11250   */\n      mstore\n        /* \"#utility.yul\":11267:11398   */\n      tag_462\n        /* \"#utility.yul\":11393:11397   */\n      dup2\n        /* \"#utility.yul\":11267:11398   */\n      tag_319\n      jump\t// in\n    tag_462:\n        /* \"#utility.yul\":11259:11398   */\n      swap1\n      pop\n        /* \"#utility.yul\":10986:11405   */\n      swap2\n      swap1\n      pop\n      jump\t// out\n        /* \"#utility.yul\":11411:11554   */\n    tag_320:\n        /* \"#utility.yul\":11468:11473   */\n      0x00\n        /* \"#utility.yul\":11499:11505   */\n      dup2\n        /* \"#utility.yul\":11493:11506   */\n      mload\n        /* \"#utility.yul\":11484:11506   */\n      swap1\n      pop\n        /* \"#utility.yul\":11515:11548   */\n      tag_464\n        /* \"#utility.yul\":11542:11547   */\n      dup2\n        /* \"#utility.yul\":11515:11548   */\n      tag_296\n      jump\t// in\n    tag_464:\n        /* \"#utility.yul\":11411:11554   */\n      swap3\n      swap2\n      pop\n      pop\n      jump\t// out\n        /* \"#utility.yul\":11560:11911   */\n    tag_112:\n        /* \"#utility.yul\":11630:11636   */\n      0x00\n        /* \"#utility.yul\":11679:11681   */\n      0x20\n        /* \"#utility.yul\":11667:11676   */\n      dup3\n        /* \"#utility.yul\":11658:11665   */\n      dup5\n        /* \"#utility.yul\":11654:11677   */\n      sub\n        /* \"#utility.yul\":11650:11682   */\n      slt\n        /* \"#utility.yul\":11647:11766   */\n      iszero\n      tag_466\n      jumpi\n        /* \"#utility.yul\":11685:11764   */\n      tag_467\n      tag_290\n      jump\t// in\n    tag_467:\n        /* \"#utility.yul\":11647:11766   */\n    tag_466:\n        /* \"#utility.yul\":11805:11806   */\n      0x00\n        /* \"#utility.yul\":11830:11894   */\n      tag_468\n        /* \"#utility.yul\":11886:11893   */\n      dup5\n        /* \"#utility.yul\":11877:11883   */\n      dup3\n        /* \"#utility.yul\":11866:11875   */\n      dup6\n        /* \"#utility.yul\":11862:11884   */\n      add\n        /* \"#utility.yul\":11830:11894   */\n      tag_320\n      jump\t// in\n    tag_468:\n        /* \"#utility.yul\":11820:11894   */\n      swap2\n      pop\n        /* \"#utility.yul\":11776:11904   */\n      pop\n        /* \"#utility.yul\":11560:11911   */\n      swap3\n      swap2\n      pop\n      pop\n      jump\t// out\n        /* \"#utility.yul\":11917:12087   */\n    tag_321:\n        /* \"#utility.yul\":12057:12079   */\n      0x496e73756666696369656e742062616c616e6365000000000000000000000000\n        /* \"#utility.yul\":12053:12054   */\n      0x00\n        /* \"#utility.yul\":12045:12051   */\n      dup3\n        /* \"#utility.yul\":12041:12055   */\n      add\n        /* \"#utility.yul\":12034:12080   */\n      mstore\n        /* \"#utility.yul\":11917:12087   */\n      pop\n      jump\t// out\n        /* \"#utility.yul\":12093:12459   */\n    tag_322:\n        /* \"#utility.yul\":12235:12238   */\n      0x00\n        /* \"#utility.yul\":12256:12323   */\n      tag_471\n        /* \"#utility.yul\":12320:12322   */\n      0x14\n        /* \"#utility.yul\":12315:12318   */\n      dup4\n        /* \"#utility.yul\":12256:12323   */\n      tag_313\n      jump\t// in\n    tag_471:\n        /* \"#utility.yul\":12249:12323   */\n      swap2\n      pop\n        /* \"#utility.yul\":12332:12425   */\n      tag_472\n        /* \"#utility.yul\":12421:12424   */\n      dup3\n        /* \"#utility.yul\":12332:12425   */\n      tag_321\n      jump\t// in\n    tag_472:\n        /* \"#utility.yul\":12450:12452   */\n      0x20\n        /* \"#utility.yul\":12445:12448   */\n      dup3\n        /* \"#utility.yul\":12441:12453   */\n      add\n        /* \"#utility.yul\":12434:12453   */\n      swap1\n      pop\n        /* \"#utility.yul\":12093:12459   */\n      swap2\n      swap1\n      pop\n      jump\t// out\n        /* \"#utility.yul\":12465:12884   */\n    tag_115:\n        /* \"#utility.yul\":12631:12635   */\n      0x00\n        /* \"#utility.yul\":12669:12671   */\n      0x20\n        /* \"#utility.yul\":12658:12667   */\n      dup3\n        /* \"#utility.yul\":12654:12672   */\n      add\n        /* \"#utility.yul\":12646:12672   */\n      swap1\n      pop\n        /* \"#utility.yul\":12718:12727   */\n      dup2\n        /* \"#utility.yul\":12712:12716   */\n      dup2\n        /* \"#utility.yul\":12708:12728   */\n      sub\n        /* \"#utility.yul\":12704:12705   */\n      0x00\n        /* \"#utility.yul\":12693:12702   */\n      dup4\n        /* \"#utility.yul\":12689:12706   */\n      add\n        /* \"#utility.yul\":12682:12729   */\n      mstore\n        /* \"#utility.yul\":12746:12877   */\n      tag_474\n        /* \"#utility.yul\":12872:12876   */\n      dup2\n        /* \"#utility.yul\":12746:12877   */\n      tag_322\n      jump\t// in\n    tag_474:\n        /* \"#utility.yul\":12738:12877   */\n      swap1\n      pop\n        /* \"#utility.yul\":12465:12884   */\n      swap2\n      swap1\n      pop\n      jump\t// out\n        /* \"#utility.yul\":12890:13066   */\n    tag_323:\n        /* \"#utility.yul\":13030:13058   */\n      0x5265666572726572206973206e6f742072656769737465726564000000000000\n        /* \"#utility.yul\":13026:13027   */\n      0x00\n        /* \"#utility.yul\":13018:13024   */\n      dup3\n        /* \"#utility.yul\":13014:13028   */\n      add\n        /* \"#utility.yul\":13007:13059   */\n      mstore\n        /* \"#utility.yul\":12890:13066   */\n      pop\n      jump\t// out\n        /* \"#utility.yul\":13072:13438   */\n    tag_324:\n        /* \"#utility.yul\":13214:13217   */\n      0x00\n        /* \"#utility.yul\":13235:13302   */\n      tag_477\n        /* \"#utility.yul\":13299:13301   */\n      0x1a\n        /* \"#utility.yul\":13294:13297   */\n      dup4\n        /* \"#utility.yul\":13235:13302   */\n      tag_313\n      jump\t// in\n    tag_477:\n        /* \"#utility.yul\":13228:13302   */\n      swap2\n      pop\n        /* \"#utility.yul\":13311:13404   */\n      tag_478\n        /* \"#utility.yul\":13400:13403   */\n      dup3\n        /* \"#utility.yul\":13311:13404   */\n      tag_323\n      jump\t// in\n    tag_478:\n        /* \"#utility.yul\":13429:13431   */\n      0x20\n        /* \"#utility.yul\":13424:13427   */\n      dup3\n        /* \"#utility.yul\":13420:13432   */\n      add\n        /* \"#utility.yul\":13413:13432   */\n      swap1\n      pop\n        /* \"#utility.yul\":13072:13438   */\n      swap2\n      swap1\n      pop\n      jump\t// out\n        /* \"#utility.yul\":13444:13863   */\n    tag_118:\n        /* \"#utility.yul\":13610:13614   */\n      0x00\n        /* \"#utility.yul\":13648:13650   */\n      0x20\n        /* \"#utility.yul\":13637:13646   */\n      dup3\n        /* \"#utility.yul\":13633:13651   */\n      add\n        /* \"#utility.yul\":13625:13651   */\n      swap1\n      pop\n        /* \"#utility.yul\":13697:13706   */\n      dup2\n        /* \"#utility.yul\":13691:13695   */\n      dup2\n        /* \"#utility.yul\":13687:13707   */\n      sub\n        /* \"#utility.yul\":13683:13684   */\n      0x00\n        /* \"#utility.yul\":13672:13681   */\n      dup4\n        /* \"#utility.yul\":13668:13685   */\n      add\n        /* \"#utility.yul\":13661:13708   */\n      mstore\n        /* \"#utility.yul\":13725:13856   */\n      tag_480\n        /* \"#utility.yul\":13851:13855   */\n      dup2\n        /* \"#utility.yul\":13725:13856   */\n      tag_324\n      jump\t// in\n    tag_480:\n        /* \"#utility.yul\":13717:13856   */\n      swap1\n      pop\n        /* \"#utility.yul\":13444:13863   */\n      swap2\n      swap1\n      pop\n      jump\t// out\n        /* \"#utility.yul\":13869:14040   */\n    tag_325:\n        /* \"#utility.yul\":14009:14032   */\n      0x43616e6e6f7420726566657220796f757273656c660000000000000000000000\n        /* \"#utility.yul\":14005:14006   */\n      0x00\n        /* \"#utility.yul\":13997:14003   */\n      dup3\n        /* \"#utility.yul\":13993:14007   */\n      add\n        /* \"#utility.yul\":13986:14033   */\n      mstore\n        /* \"#utility.yul\":13869:14040   */\n      pop\n      jump\t// out\n        /* \"#utility.yul\":14046:14412   */\n    tag_326:\n        /* \"#utility.yul\":14188:14191   */\n      0x00\n        /* \"#utility.yul\":14209:14276   */\n      tag_483\n        /* \"#utility.yul\":14273:14275   */\n      0x15\n        /* \"#utility.yul\":14268:14271   */\n      dup4\n        /* \"#utility.yul\":14209:14276   */\n      tag_313\n      jump\t// in\n    tag_483:\n        /* \"#utility.yul\":14202:14276   */\n      swap2\n      pop\n        /* \"#utility.yul\":14285:14378   */\n      tag_484\n        /* \"#utility.yul\":14374:14377   */\n      dup3\n        /* \"#utility.yul\":14285:14378   */\n      tag_325\n      jump\t// in\n    tag_484:\n        /* \"#utility.yul\":14403:14405   */\n      0x20\n        /* \"#utility.yul\":14398:14401   */\n      dup3\n        /* \"#utility.yul\":14394:14406   */\n      add\n        /* \"#utility.yul\":14387:14406   */\n      swap1\n      pop\n        /* \"#utility.yul\":14046:14412   */\n      swap2\n      swap1\n      pop\n      jump\t// out\n        /* \"#utility.yul\":14418:14837   */\n    tag_121:\n        /* \"#utility.yul\":14584:14588   */\n      0x00\n        /* \"#utility.yul\":14622:14624   */\n      0x20\n        /* \"#utility.yul\":14611:14620   */\n      dup3\n        /* \"#utility.yul\":14607:14625   */\n      add\n        /* \"#utility.yul\":14599:14625   */\n      swap1\n      pop\n        /* \"#utility.yul\":14671:14680   */\n      dup2\n        /* \"#utility.yul\":14665:14669   */\n      dup2\n        /* \"#utility.yul\":14661:14681   */\n      sub\n        /* \"#utility.yul\":14657:14658   */\n      0x00\n        /* \"#utility.yul\":14646:14655   */\n      dup4\n        /* \"#utility.yul\":14642:14659   */\n      add\n        /* \"#utility.yul\":14635:14682   */\n      mstore\n        /* \"#utility.yul\":14699:14830   */\n      tag_486\n        /* \"#utility.yul\":14825:14829   */\n      dup2\n        /* \"#utility.yul\":14699:14830   */\n      tag_326\n      jump\t// in\n    tag_486:\n        /* \"#utility.yul\":14691:14830   */\n      swap1\n      pop\n        /* \"#utility.yul\":14418:14837   */\n      swap2\n      swap1\n      pop\n      jump\t// out\n        /* \"#utility.yul\":14843:15011   */\n    tag_327:\n        /* \"#utility.yul\":14983:15003   */\n      0x416c726561647920726567697374657265640000000000000000000000000000\n        /* \"#utility.yul\":14979:14980   */\n      0x00\n        /* \"#utility.yul\":14971:14977   */\n      dup3\n        /* \"#utility.yul\":14967:14981   */\n      add\n        /* \"#utility.yul\":14960:15004   */\n      mstore\n        /* \"#utility.yul\":14843:15011   */\n      pop\n      jump\t// out\n        /* \"#utility.yul\":15017:15383   */\n    tag_328:\n        /* \"#utility.yul\":15159:15162   */\n      0x00\n        /* \"#utility.yul\":15180:15247   */\n      tag_489\n        /* \"#utility.yul\":15244:15246   */\n      0x12\n        /* \"#utility.yul\":15239:15242   */\n      dup4\n        /* \"#utility.yul\":15180:15247   */\n      tag_313\n      jump\t// in\n    tag_489:\n        /* \"#utility.yul\":15173:15247   */\n      swap2\n      pop\n        /* \"#utility.yul\":15256:15349   */\n      tag_490\n        /* \"#utility.yul\":15345:15348   */\n      dup3\n        /* \"#utility.yul\":15256:15349   */\n      tag_327\n      jump\t// in\n    tag_490:\n        /* \"#utility.yul\":15374:15376   */\n      0x20\n        /* \"#utility.yul\":15369:15372   */\n      dup3\n        /* \"#utility.yul\":15365:15377   */\n      add\n        /* \"#utility.yul\":15358:15377   */\n      swap1\n      pop\n        /* \"#utility.yul\":15017:15383   */\n      swap2\n      swap1\n      pop\n      jump\t// out\n        /* \"#utility.yul\":15389:15808   */\n    tag_124:\n        /* \"#utility.yul\":15555:15559   */\n      0x00\n        /* \"#utility.yul\":15593:15595   */\n      0x20\n        /* \"#utility.yul\":15582:15591   */\n      dup3\n        /* \"#utility.yul\":15578:15596   */\n      add\n        /* \"#utility.yul\":15570:15596   */\n      swap1\n      pop\n        /* \"#utility.yul\":15642:15651   */\n      dup2\n        /* \"#utility.yul\":15636:15640   */\n      dup2\n        /* \"#utility.yul\":15632:15652   */\n      sub\n        /* \"#utility.yul\":15628:15629   */\n      0x00\n        /* \"#utility.yul\":15617:15626   */\n      dup4\n        /* \"#utility.yul\":15613:15630   */\n      add\n        /* \"#utility.yul\":15606:15653   */\n      mstore\n        /* \"#utility.yul\":15670:15801   */\n      tag_492\n        /* \"#utility.yul\":15796:15800   */\n      dup2\n        /* \"#utility.yul\":15670:15801   */\n      tag_328\n      jump\t// in\n    tag_492:\n        /* \"#utility.yul\":15662:15801   */\n      swap1\n      pop\n        /* \"#utility.yul\":15389:15808   */\n      swap2\n      swap1\n      pop\n      jump\t// out\n        /* \"#utility.yul\":15814:16256   */\n    tag_126:\n        /* \"#utility.yul\":15963:15967   */\n      0x00\n        /* \"#utility.yul\":16001:16003   */\n      0x60\n        /* \"#utility.yul\":15990:15999   */\n      dup3\n        /* \"#utility.yul\":15986:16004   */\n      add\n        /* \"#utility.yul\":15978:16004   */\n      swap1\n      pop\n        /* \"#utility.yul\":16014:16085   */\n      tag_494\n        /* \"#utility.yul\":16082:16083   */\n      0x00\n        /* \"#utility.yul\":16071:16080   */\n      dup4\n        /* \"#utility.yul\":16067:16084   */\n      add\n        /* \"#utility.yul\":16058:16064   */\n      dup7\n        /* \"#utility.yul\":16014:16085   */\n      tag_312\n      jump\t// in\n    tag_494:\n        /* \"#utility.yul\":16095:16167   */\n      tag_495\n        /* \"#utility.yul\":16163:16165   */\n      0x20\n        /* \"#utility.yul\":16152:16161   */\n      dup4\n        /* \"#utility.yul\":16148:16166   */\n      add\n        /* \"#utility.yul\":16139:16145   */\n      dup6\n        /* \"#utility.yul\":16095:16167   */\n      tag_312\n      jump\t// in\n    tag_495:\n        /* \"#utility.yul\":16177:16249   */\n      tag_496\n        /* \"#utility.yul\":16245:16247   */\n      0x40\n        /* \"#utility.yul\":16234:16243   */\n      dup4\n        /* \"#utility.yul\":16230:16248   */\n      add\n        /* \"#utility.yul\":16221:16227   */\n      dup5\n        /* \"#utility.yul\":16177:16249   */\n      tag_288\n      jump\t// in\n    tag_496:\n        /* \"#utility.yul\":15814:16256   */\n      swap5\n      swap4\n      pop\n      pop\n      pop\n      pop\n      jump\t// out\n        /* \"#utility.yul\":16262:16378   */\n    tag_329:\n        /* \"#utility.yul\":16332:16353   */\n      tag_498\n        /* \"#utility.yul\":16347:16352   */\n      dup2\n        /* \"#utility.yul\":16332:16353   */\n      tag_305\n      jump\t// in\n    tag_498:\n        /* \"#utility.yul\":16325:16330   */\n      dup2\n        /* \"#utility.yul\":16322:16354   */\n      eq\n        /* \"#utility.yul\":16312:16372   */\n      tag_499\n      jumpi\n        /* \"#utility.yul\":16368:16369   */\n      0x00\n        /* \"#utility.yul\":16365:16366   */\n      dup1\n        /* \"#utility.yul\":16358:16370   */\n      revert\n        /* \"#utility.yul\":16312:16372   */\n    tag_499:\n        /* \"#utility.yul\":16262:16378   */\n      pop\n      jump\t// out\n        /* \"#utility.yul\":16384:16521   */\n    tag_330:\n        /* \"#utility.yul\":16438:16443   */\n      0x00\n        /* \"#utility.yul\":16469:16475   */\n      dup2\n        /* \"#utility.yul\":16463:16476   */\n      mload\n        /* \"#utility.yul\":16454:16476   */\n      swap1\n      pop\n        /* \"#utility.yul\":16485:16515   */\n      tag_501\n        /* \"#utility.yul\":16509:16514   */\n      dup2\n        /* \"#utility.yul\":16485:16515   */\n      tag_329\n      jump\t// in\n    tag_501:\n        /* \"#utility.yul\":16384:16521   */\n      swap3\n      swap2\n      pop\n      pop\n      jump\t// out\n        /* \"#utility.yul\":16527:16872   */\n    tag_130:\n        /* \"#utility.yul\":16594:16600   */\n      0x00\n        /* \"#utility.yul\":16643:16645   */\n      0x20\n        /* \"#utility.yul\":16631:16640   */\n      dup3\n        /* \"#utility.yul\":16622:16629   */\n      dup5\n        /* \"#utility.yul\":16618:16641   */\n      sub\n        /* \"#utility.yul\":16614:16646   */\n      slt\n        /* \"#utility.yul\":16611:16730   */\n      iszero\n      tag_503\n      jumpi\n        /* \"#utility.yul\":16649:16728   */\n      tag_504\n      tag_290\n      jump\t// in\n    tag_504:\n        /* \"#utility.yul\":16611:16730   */\n    tag_503:\n        /* \"#utility.yul\":16769:16770   */\n      0x00\n        /* \"#utility.yul\":16794:16855   */\n      tag_505\n        /* \"#utility.yul\":16847:16854   */\n      dup5\n        /* \"#utility.yul\":16838:16844   */\n      dup3\n        /* \"#utility.yul\":16827:16836   */\n      dup6\n        /* \"#utility.yul\":16823:16845   */\n      add\n        /* \"#utility.yul\":16794:16855   */\n      tag_330\n      jump\t// in\n    tag_505:\n        /* \"#utility.yul\":16784:16855   */\n      swap2\n      pop\n        /* \"#utility.yul\":16740:16865   */\n      pop\n        /* \"#utility.yul\":16527:16872   */\n      swap3\n      swap2\n      pop\n      pop\n      jump\t// out\n        /* \"#utility.yul\":16878:17043   */\n    tag_331:\n        /* \"#utility.yul\":17018:17035   */\n      0x5472616e73666572206661696c65640000000000000000000000000000000000\n        /* \"#utility.yul\":17014:17015   */\n      0x00\n        /* \"#utility.yul\":17006:17012   */\n      dup3\n        /* \"#utility.yul\":17002:17016   */\n      add\n        /* \"#utility.yul\":16995:17036   */\n      mstore\n        /* \"#utility.yul\":16878:17043   */\n      pop\n      jump\t// out\n        /* \"#utility.yul\":17049:17415   */\n    tag_332:\n        /* \"#utility.yul\":17191:17194   */\n      0x00\n        /* \"#utility.yul\":17212:17279   */\n      tag_508\n        /* \"#utility.yul\":17276:17278   */\n      0x0f\n        /* \"#utility.yul\":17271:17274   */\n      dup4\n        /* \"#utility.yul\":17212:17279   */\n      tag_313\n      jump\t// in\n    tag_508:\n        /* \"#utility.yul\":17205:17279   */\n      swap2\n      pop\n        /* \"#utility.yul\":17288:17381   */\n      tag_509\n        /* \"#utility.yul\":17377:17380   */\n      dup3\n        /* \"#utility.yul\":17288:17381   */\n      tag_331\n      jump\t// in\n    tag_509:\n        /* \"#utility.yul\":17406:17408   */\n      0x20\n        /* \"#utility.yul\":17401:17404   */\n      dup3\n        /* \"#utility.yul\":17397:17409   */\n      add\n        /* \"#utility.yul\":17390:17409   */\n      swap1\n      pop\n        /* \"#utility.yul\":17049:17415   */\n      swap2\n      swap1\n      pop\n      jump\t// out\n        /* \"#utility.yul\":17421:17840   */\n    tag_133:\n        /* \"#utility.yul\":17587:17591   */\n      0x00\n        /* \"#utility.yul\":17625:17627   */\n      0x20\n        /* \"#utility.yul\":17614:17623   */\n      dup3\n        /* \"#utility.yul\":17610:17628   */\n      add\n        /* \"#utility.yul\":17602:17628   */\n      swap1\n      pop\n        /* \"#utility.yul\":17674:17683   */\n      dup2\n        /* \"#utility.yul\":17668:17672   */\n      dup2\n        /* \"#utility.yul\":17664:17684   */\n      sub\n        /* \"#utility.yul\":17660:17661   */\n      0x00\n        /* \"#utility.yul\":17649:17658   */\n      dup4\n        /* \"#utility.yul\":17645:17662   */\n      add\n        /* \"#utility.yul\":17638:17685   */\n      mstore\n        /* \"#utility.yul\":17702:17833   */\n      tag_511\n        /* \"#utility.yul\":17828:17832   */\n      dup2\n        /* \"#utility.yul\":17702:17833   */\n      tag_332\n      jump\t// in\n    tag_511:\n        /* \"#utility.yul\":17694:17833   */\n      swap1\n      pop\n        /* \"#utility.yul\":17421:17840   */\n      swap2\n      swap1\n      pop\n      jump\t// out\n        /* \"#utility.yul\":17846:18083   */\n    tag_333:\n        /* \"#utility.yul\":17986:18020   */\n      0x5468697320616374696f6e2063616e20626520706572666f726d656420627920\n        /* \"#utility.yul\":17982:17983   */\n      0x00\n        /* \"#utility.yul\":17974:17980   */\n      dup3\n        /* \"#utility.yul\":17970:17984   */\n      add\n        /* \"#utility.yul\":17963:18021   */\n      mstore\n        /* \"#utility.yul\":18055:18075   */\n      0x74686520636f6e7472616374206f776e65720000000000000000000000000000\n        /* \"#utility.yul\":18050:18052   */\n      0x20\n        /* \"#utility.yul\":18042:18048   */\n      dup3\n        /* \"#utility.yul\":18038:18053   */\n      add\n        /* \"#utility.yul\":18031:18076   */\n      mstore\n        /* \"#utility.yul\":17846:18083   */\n      pop\n      jump\t// out\n        /* \"#utility.yul\":18089:18455   */\n    tag_334:\n        /* \"#utility.yul\":18231:18234   */\n      0x00\n        /* \"#utility.yul\":18252:18319   */\n      tag_514\n        /* \"#utility.yul\":18316:18318   */\n      0x32\n        /* \"#utility.yul\":18311:18314   */\n      dup4\n        /* \"#utility.yul\":18252:18319   */\n      tag_313\n      jump\t// in\n    tag_514:\n        /* \"#utility.yul\":18245:18319   */\n      swap2\n      pop\n        /* \"#utility.yul\":18328:18421   */\n      tag_515\n        /* \"#utility.yul\":18417:18420   */\n      dup3\n        /* \"#utility.yul\":18328:18421   */\n      tag_333\n      jump\t// in\n    tag_515:\n        /* \"#utility.yul\":18446:18448   */\n      0x40\n        /* \"#utility.yul\":18441:18444   */\n      dup3\n        /* \"#utility.yul\":18437:18449   */\n      add\n        /* \"#utility.yul\":18430:18449   */\n      swap1\n      pop\n        /* \"#utility.yul\":18089:18455   */\n      swap2\n      swap1\n      pop\n      jump\t// out\n        /* \"#utility.yul\":18461:18880   */\n    tag_144:\n        /* \"#utility.yul\":18627:18631   */\n      0x00\n        /* \"#utility.yul\":18665:18667   */\n      0x20\n        /* \"#utility.yul\":18654:18663   */\n      dup3\n        /* \"#utility.yul\":18650:18668   */\n      add\n        /* \"#utility.yul\":18642:18668   */\n      swap1\n      pop\n        /* \"#utility.yul\":18714:18723   */\n      dup2\n        /* \"#utility.yul\":18708:18712   */\n      dup2\n        /* \"#utility.yul\":18704:18724   */\n      sub\n        /* \"#utility.yul\":18700:18701   */\n      0x00\n        /* \"#utility.yul\":18689:18698   */\n      dup4\n        /* \"#utility.yul\":18685:18702   */\n      add\n        /* \"#utility.yul\":18678:18725   */\n      mstore\n        /* \"#utility.yul\":18742:18873   */\n      tag_517\n        /* \"#utility.yul\":18868:18872   */\n      dup2\n        /* \"#utility.yul\":18742:18873   */\n      tag_334\n      jump\t// in\n    tag_517:\n        /* \"#utility.yul\":18734:18873   */\n      swap1\n      pop\n        /* \"#utility.yul\":18461:18880   */\n      swap2\n      swap1\n      pop\n      jump\t// out\n        /* \"#utility.yul\":18886:19218   */\n    tag_147:\n        /* \"#utility.yul\":19007:19011   */\n      0x00\n        /* \"#utility.yul\":19045:19047   */\n      0x40\n        /* \"#utility.yul\":19034:19043   */\n      dup3\n        /* \"#utility.yul\":19030:19048   */\n      add\n        /* \"#utility.yul\":19022:19048   */\n      swap1\n      pop\n        /* \"#utility.yul\":19058:19129   */\n      tag_519\n        /* \"#utility.yul\":19126:19127   */\n      0x00\n        /* \"#utility.yul\":19115:19124   */\n      dup4\n        /* \"#utility.yul\":19111:19128   */\n      add\n        /* \"#utility.yul\":19102:19108   */\n      dup6\n        /* \"#utility.yul\":19058:19129   */\n      tag_312\n      jump\t// in\n    tag_519:\n        /* \"#utility.yul\":19139:19211   */\n      tag_520\n        /* \"#utility.yul\":19207:19209   */\n      0x20\n        /* \"#utility.yul\":19196:19205   */\n      dup4\n        /* \"#utility.yul\":19192:19210   */\n      add\n        /* \"#utility.yul\":19183:19189   */\n      dup5\n        /* \"#utility.yul\":19139:19211   */\n      tag_288\n      jump\t// in\n    tag_520:\n        /* \"#utility.yul\":18886:19218   */\n      swap4\n      swap3\n      pop\n      pop\n      pop\n      jump\t// out\n        /* \"#utility.yul\":19224:19392   */\n    tag_335:\n        /* \"#utility.yul\":19364:19384   */\n      0x496e76616c69642070657263656e746167650000000000000000000000000000\n        /* \"#utility.yul\":19360:19361   */\n      0x00\n        /* \"#utility.yul\":19352:19358   */\n      dup3\n        /* \"#utility.yul\":19348:19362   */\n      add\n        /* \"#utility.yul\":19341:19385   */\n      mstore\n        /* \"#utility.yul\":19224:19392   */\n      pop\n      jump\t// out\n        /* \"#utility.yul\":19398:19764   */\n    tag_336:\n        /* \"#utility.yul\":19540:19543   */\n      0x00\n        /* \"#utility.yul\":19561:19628   */\n      tag_523\n        /* \"#utility.yul\":19625:19627   */\n      0x12\n        /* \"#utility.yul\":19620:19623   */\n      dup4\n        /* \"#utility.yul\":19561:19628   */\n      tag_313\n      jump\t// in\n    tag_523:\n        /* \"#utility.yul\":19554:19628   */\n      swap2\n      pop\n        /* \"#utility.yul\":19637:19730   */\n      tag_524\n        /* \"#utility.yul\":19726:19729   */\n      dup3\n        /* \"#utility.yul\":19637:19730   */\n      tag_335\n      jump\t// in\n    tag_524:\n        /* \"#utility.yul\":19755:19757   */\n      0x20\n        /* \"#utility.yul\":19750:19753   */\n      dup3\n        /* \"#utility.yul\":19746:19758   */\n      add\n        /* \"#utility.yul\":19739:19758   */\n      swap1\n      pop\n        /* \"#utility.yul\":19398:19764   */\n      swap2\n      swap1\n      pop\n      jump\t// out\n        /* \"#utility.yul\":19770:20189   */\n    tag_162:\n        /* \"#utility.yul\":19936:19940   */\n      0x00\n        /* \"#utility.yul\":19974:19976   */\n      0x20\n        /* \"#utility.yul\":19963:19972   */\n      dup3\n        /* \"#utility.yul\":19959:19977   */\n      add\n        /* \"#utility.yul\":19951:19977   */\n      swap1\n      pop\n        /* \"#utility.yul\":20023:20032   */\n      dup2\n        /* \"#utility.yul\":20017:20021   */\n      dup2\n        /* \"#utility.yul\":20013:20033   */\n      sub\n        /* \"#utility.yul\":20009:20010   */\n      0x00\n        /* \"#utility.yul\":19998:20007   */\n      dup4\n        /* \"#utility.yul\":19994:20011   */\n      add\n        /* \"#utility.yul\":19987:20034   */\n      mstore\n        /* \"#utility.yul\":20051:20182   */\n      tag_526\n        /* \"#utility.yul\":20177:20181   */\n      dup2\n        /* \"#utility.yul\":20051:20182   */\n      tag_336\n      jump\t// in\n    tag_526:\n        /* \"#utility.yul\":20043:20182   */\n      swap1\n      pop\n        /* \"#utility.yul\":19770:20189   */\n      swap2\n      swap1\n      pop\n      jump\t// out\n        /* \"#utility.yul\":20195:20375   */\n    tag_337:\n        /* \"#utility.yul\":20243:20320   */\n      0x4e487b7100000000000000000000000000000000000000000000000000000000\n        /* \"#utility.yul\":20240:20241   */\n      0x00\n        /* \"#utility.yul\":20233:20321   */\n      mstore\n        /* \"#utility.yul\":20340:20344   */\n      0x11\n        /* \"#utility.yul\":20337:20338   */\n      0x04\n        /* \"#utility.yul\":20330:20345   */\n      mstore\n        /* \"#utility.yul\":20364:20368   */\n      0x24\n        /* \"#utility.yul\":20361:20362   */\n      0x00\n        /* \"#utility.yul\":20354:20369   */\n      revert\n        /* \"#utility.yul\":20381:20791   */\n    tag_164:\n        /* \"#utility.yul\":20421:20428   */\n      0x00\n        /* \"#utility.yul\":20444:20464   */\n      tag_529\n        /* \"#utility.yul\":20462:20463   */\n      dup3\n        /* \"#utility.yul\":20444:20464   */\n      tag_287\n      jump\t// in\n    tag_529:\n        /* \"#utility.yul\":20439:20464   */\n      swap2\n      pop\n        /* \"#utility.yul\":20478:20498   */\n      tag_530\n        /* \"#utility.yul\":20496:20497   */\n      dup4\n        /* \"#utility.yul\":20478:20498   */\n      tag_287\n      jump\t// in\n    tag_530:\n        /* \"#utility.yul\":20473:20498   */\n      swap3\n      pop\n        /* \"#utility.yul\":20533:20534   */\n      dup3\n        /* \"#utility.yul\":20530:20531   */\n      dup3\n        /* \"#utility.yul\":20526:20535   */\n      mul\n        /* \"#utility.yul\":20555:20585   */\n      tag_531\n        /* \"#utility.yul\":20573:20584   */\n      dup2\n        /* \"#utility.yul\":20555:20585   */\n      tag_287\n      jump\t// in\n    tag_531:\n        /* \"#utility.yul\":20544:20585   */\n      swap2\n      pop\n        /* \"#utility.yul\":20734:20735   */\n      dup3\n        /* \"#utility.yul\":20725:20732   */\n      dup3\n        /* \"#utility.yul\":20721:20736   */\n      div\n        /* \"#utility.yul\":20718:20719   */\n      dup5\n        /* \"#utility.yul\":20715:20737   */\n      eq\n        /* \"#utility.yul\":20695:20696   */\n      dup4\n        /* \"#utility.yul\":20688:20697   */\n      iszero\n        /* \"#utility.yul\":20668:20751   */\n      or\n        /* \"#utility.yul\":20645:20784   */\n      tag_532\n      jumpi\n        /* \"#utility.yul\":20764:20782   */\n      tag_533\n      tag_337\n      jump\t// in\n    tag_533:\n        /* \"#utility.yul\":20645:20784   */\n    tag_532:\n        /* \"#utility.yul\":20429:20791   */\n      pop\n        /* \"#utility.yul\":20381:20791   */\n      swap3\n      swap2\n      pop\n      pop\n      jump\t// out\n        /* \"#utility.yul\":20797:21129   */\n    tag_166:\n        /* \"#utility.yul\":20918:20922   */\n      0x00\n        /* \"#utility.yul\":20956:20958   */\n      0x40\n        /* \"#utility.yul\":20945:20954   */\n      dup3\n        /* \"#utility.yul\":20941:20959   */\n      add\n        /* \"#utility.yul\":20933:20959   */\n      swap1\n      pop\n        /* \"#utility.yul\":20969:21040   */\n      tag_535\n        /* \"#utility.yul\":21037:21038   */\n      0x00\n        /* \"#utility.yul\":21026:21035   */\n      dup4\n        /* \"#utility.yul\":21022:21039   */\n      add\n        /* \"#utility.yul\":21013:21019   */\n      dup6\n        /* \"#utility.yul\":20969:21040   */\n      tag_288\n      jump\t// in\n    tag_535:\n        /* \"#utility.yul\":21050:21122   */\n      tag_536\n        /* \"#utility.yul\":21118:21120   */\n      0x20\n        /* \"#utility.yul\":21107:21116   */\n      dup4\n        /* \"#utility.yul\":21103:21121   */\n      add\n        /* \"#utility.yul\":21094:21100   */\n      dup5\n        /* \"#utility.yul\":21050:21122   */\n      tag_288\n      jump\t// in\n    tag_536:\n        /* \"#utility.yul\":20797:21129   */\n      swap4\n      swap3\n      pop\n      pop\n      pop\n      jump\t// out\n        /* \"#utility.yul\":21135:21306   */\n    tag_338:\n        /* \"#utility.yul\":21275:21298   */\n      0x496e76616c696420746f6b656e20616464726573730000000000000000000000\n        /* \"#utility.yul\":21271:21272   */\n      0x00\n        /* \"#utility.yul\":21263:21269   */\n      dup3\n        /* \"#utility.yul\":21259:21273   */\n      add\n        /* \"#utility.yul\":21252:21299   */\n      mstore\n        /* \"#utility.yul\":21135:21306   */\n      pop\n      jump\t// out\n        /* \"#utility.yul\":21312:21678   */\n    tag_339:\n        /* \"#utility.yul\":21454:21457   */\n      0x00\n        /* \"#utility.yul\":21475:21542   */\n      tag_539\n        /* \"#utility.yul\":21539:21541   */\n      0x15\n        /* \"#utility.yul\":21534:21537   */\n      dup4\n        /* \"#utility.yul\":21475:21542   */\n      tag_313\n      jump\t// in\n    tag_539:\n        /* \"#utility.yul\":21468:21542   */\n      swap2\n      pop\n        /* \"#utility.yul\":21551:21644   */\n      tag_540\n        /* \"#utility.yul\":21640:21643   */\n      dup3\n        /* \"#utility.yul\":21551:21644   */\n      tag_338\n      jump\t// in\n    tag_540:\n        /* \"#utility.yul\":21669:21671   */\n      0x20\n        /* \"#utility.yul\":21664:21667   */\n      dup3\n        /* \"#utility.yul\":21660:21672   */\n      add\n        /* \"#utility.yul\":21653:21672   */\n      swap1\n      pop\n        /* \"#utility.yul\":21312:21678   */\n      swap2\n      swap1\n      pop\n      jump\t// out\n        /* \"#utility.yul\":21684:22103   */\n    tag_179:\n        /* \"#utility.yul\":21850:21854   */\n      0x00\n        /* \"#utility.yul\":21888:21890   */\n      0x20\n        /* \"#utility.yul\":21877:21886   */\n      dup3\n        /* \"#utility.yul\":21873:21891   */\n      add\n        /* \"#utility.yul\":21865:21891   */\n      swap1\n      pop\n        /* \"#utility.yul\":21937:21946   */\n      dup2\n        /* \"#utility.yul\":21931:21935   */\n      dup2\n        /* \"#utility.yul\":21927:21947   */\n      sub\n        /* \"#utility.yul\":21923:21924   */\n      0x00\n        /* \"#utility.yul\":21912:21921   */\n      dup4\n        /* \"#utility.yul\":21908:21925   */\n      add\n        /* \"#utility.yul\":21901:21948   */\n      mstore\n        /* \"#utility.yul\":21965:22096   */\n      tag_542\n        /* \"#utility.yul\":22091:22095   */\n      dup2\n        /* \"#utility.yul\":21965:22096   */\n      tag_339\n      jump\t// in\n    tag_542:\n        /* \"#utility.yul\":21957:22096   */\n      swap1\n      pop\n        /* \"#utility.yul\":21684:22103   */\n      swap2\n      swap1\n      pop\n      jump\t// out\n        /* \"#utility.yul\":22109:22300   */\n    tag_192:\n        /* \"#utility.yul\":22149:22152   */\n      0x00\n        /* \"#utility.yul\":22168:22188   */\n      tag_544\n        /* \"#utility.yul\":22186:22187   */\n      dup3\n        /* \"#utility.yul\":22168:22188   */\n      tag_287\n      jump\t// in\n    tag_544:\n        /* \"#utility.yul\":22163:22188   */\n      swap2\n      pop\n        /* \"#utility.yul\":22202:22222   */\n      tag_545\n        /* \"#utility.yul\":22220:22221   */\n      dup4\n        /* \"#utility.yul\":22202:22222   */\n      tag_287\n      jump\t// in\n    tag_545:\n        /* \"#utility.yul\":22197:22222   */\n      swap3\n      pop\n        /* \"#utility.yul\":22245:22246   */\n      dup3\n        /* \"#utility.yul\":22242:22243   */\n      dup3\n        /* \"#utility.yul\":22238:22247   */\n      add\n        /* \"#utility.yul\":22231:22247   */\n      swap1\n      pop\n        /* \"#utility.yul\":22266:22269   */\n      dup1\n        /* \"#utility.yul\":22263:22264   */\n      dup3\n        /* \"#utility.yul\":22260:22270   */\n      gt\n        /* \"#utility.yul\":22257:22293   */\n      iszero\n      tag_546\n      jumpi\n        /* \"#utility.yul\":22273:22291   */\n      tag_547\n      tag_337\n      jump\t// in\n    tag_547:\n        /* \"#utility.yul\":22257:22293   */\n    tag_546:\n        /* \"#utility.yul\":22109:22300   */\n      swap3\n      swap2\n      pop\n      pop\n      jump\t// out\n        /* \"#utility.yul\":22306:22500   */\n    tag_195:\n        /* \"#utility.yul\":22346:22350   */\n      0x00\n        /* \"#utility.yul\":22366:22386   */\n      tag_549\n        /* \"#utility.yul\":22384:22385   */\n      dup3\n        /* \"#utility.yul\":22366:22386   */\n      tag_287\n      jump\t// in\n    tag_549:\n        /* \"#utility.yul\":22361:22386   */\n      swap2\n      pop\n        /* \"#utility.yul\":22400:22420   */\n      tag_550\n        /* \"#utility.yul\":22418:22419   */\n      dup4\n        /* \"#utility.yul\":22400:22420   */\n      tag_287\n      jump\t// in\n    tag_550:\n        /* \"#utility.yul\":22395:22420   */\n      swap3\n      pop\n        /* \"#utility.yul\":22444:22445   */\n      dup3\n        /* \"#utility.yul\":22441:22442   */\n      dup3\n        /* \"#utility.yul\":22437:22446   */\n      sub\n        /* \"#utility.yul\":22429:22446   */\n      swap1\n      pop\n        /* \"#utility.yul\":22468:22469   */\n      dup2\n        /* \"#utility.yul\":22462:22466   */\n      dup2\n        /* \"#utility.yul\":22459:22470   */\n      gt\n        /* \"#utility.yul\":22456:22493   */\n      iszero\n      tag_551\n      jumpi\n        /* \"#utility.yul\":22473:22491   */\n      tag_552\n      tag_337\n      jump\t// in\n    tag_552:\n        /* \"#utility.yul\":22456:22493   */\n    tag_551:\n        /* \"#utility.yul\":22306:22500   */\n      swap3\n      swap2\n      pop\n      pop\n      jump\t// out\n        /* \"#utility.yul\":22506:22686   */\n    tag_198:\n        /* \"#utility.yul\":22554:22631   */\n      0x4e487b7100000000000000000000000000000000000000000000000000000000\n        /* \"#utility.yul\":22551:22552   */\n      0x00\n        /* \"#utility.yul\":22544:22632   */\n      mstore\n        /* \"#utility.yul\":22651:22655   */\n      0x41\n        /* \"#utility.yul\":22648:22649   */\n      0x04\n        /* \"#utility.yul\":22641:22656   */\n      mstore\n        /* \"#utility.yul\":22675:22679   */\n      0x24\n        /* \"#utility.yul\":22672:22673   */\n      0x00\n        /* \"#utility.yul\":22665:22680   */\n      revert\n        /* \"#utility.yul\":22692:22872   */\n    tag_205:\n        /* \"#utility.yul\":22740:22817   */\n      0x4e487b7100000000000000000000000000000000000000000000000000000000\n        /* \"#utility.yul\":22737:22738   */\n      0x00\n        /* \"#utility.yul\":22730:22818   */\n      mstore\n        /* \"#utility.yul\":22837:22841   */\n      0x32\n        /* \"#utility.yul\":22834:22835   */\n      0x04\n        /* \"#utility.yul\":22827:22842   */\n      mstore\n        /* \"#utility.yul\":22861:22865   */\n      0x24\n        /* \"#utility.yul\":22858:22859   */\n      0x00\n        /* \"#utility.yul\":22851:22866   */\n      revert\n        /* \"#utility.yul\":22878:23053   */\n    tag_340:\n        /* \"#utility.yul\":23018:23045   */\n      0x456d657267656e6379207769746864726177206661696c656400000000000000\n        /* \"#utility.yul\":23014:23015   */\n      0x00\n        /* \"#utility.yul\":23006:23012   */\n      dup3\n        /* \"#utility.yul\":23002:23016   */\n      add\n        /* \"#utility.yul\":22995:23046   */\n      mstore\n        /* \"#utility.yul\":22878:23053   */\n      pop\n      jump\t// out\n        /* \"#utility.yul\":23059:23425   */\n    tag_341:\n        /* \"#utility.yul\":23201:23204   */\n      0x00\n        /* \"#utility.yul\":23222:23289   */\n      tag_557\n        /* \"#utility.yul\":23286:23288   */\n      0x19\n        /* \"#utility.yul\":23281:23284   */\n      dup4\n        /* \"#utility.yul\":23222:23289   */\n      tag_313\n      jump\t// in\n    tag_557:\n        /* \"#utility.yul\":23215:23289   */\n      swap2\n      pop\n        /* \"#utility.yul\":23298:23391   */\n      tag_558\n        /* \"#utility.yul\":23387:23390   */\n      dup3\n        /* \"#utility.yul\":23298:23391   */\n      tag_340\n      jump\t// in\n    tag_558:\n        /* \"#utility.yul\":23416:23418   */\n      0x20\n        /* \"#utility.yul\":23411:23414   */\n      dup3\n        /* \"#utility.yul\":23407:23419   */\n      add\n        /* \"#utility.yul\":23400:23419   */\n      swap1\n      pop\n        /* \"#utility.yul\":23059:23425   */\n      swap2\n      swap1\n      pop\n      jump\t// out\n        /* \"#utility.yul\":23431:23850   */\n    tag_226:\n        /* \"#utility.yul\":23597:23601   */\n      0x00\n        /* \"#utility.yul\":23635:23637   */\n      0x20\n        /* \"#utility.yul\":23624:23633   */\n      dup3\n        /* \"#utility.yul\":23620:23638   */\n      add\n        /* \"#utility.yul\":23612:23638   */\n      swap1\n      pop\n        /* \"#utility.yul\":23684:23693   */\n      dup2\n        /* \"#utility.yul\":23678:23682   */\n      dup2\n        /* \"#utility.yul\":23674:23694   */\n      sub\n        /* \"#utility.yul\":23670:23671   */\n      0x00\n        /* \"#utility.yul\":23659:23668   */\n      dup4\n        /* \"#utility.yul\":23655:23672   */\n      add\n        /* \"#utility.yul\":23648:23695   */\n      mstore\n        /* \"#utility.yul\":23712:23843   */\n      tag_560\n        /* \"#utility.yul\":23838:23842   */\n      dup2\n        /* \"#utility.yul\":23712:23843   */\n      tag_341\n      jump\t// in\n    tag_560:\n        /* \"#utility.yul\":23704:23843   */\n      swap1\n      pop\n        /* \"#utility.yul\":23431:23850   */\n      swap2\n      swap1\n      pop\n      jump\t// out\n        /* \"#utility.yul\":23856:24023   */\n    tag_342:\n        /* \"#utility.yul\":23996:24015   */\n      0x496e76616c6964206e6577206f776e6572000000000000000000000000000000\n        /* \"#utility.yul\":23992:23993   */\n      0x00\n        /* \"#utility.yul\":23984:23990   */\n      dup3\n        /* \"#utility.yul\":23980:23994   */\n      add\n        /* \"#utility.yul\":23973:24016   */\n      mstore\n        /* \"#utility.yul\":23856:24023   */\n      pop\n      jump\t// out\n        /* \"#utility.yul\":24029:24395   */\n    tag_343:\n        /* \"#utility.yul\":24171:24174   */\n      0x00\n        /* \"#utility.yul\":24192:24259   */\n      tag_563\n        /* \"#utility.yul\":24256:24258   */\n      0x11\n        /* \"#utility.yul\":24251:24254   */\n      dup4\n        /* \"#utility.yul\":24192:24259   */\n      tag_313\n      jump\t// in\n    tag_563:\n        /* \"#utility.yul\":24185:24259   */\n      swap2\n      pop\n        /* \"#utility.yul\":24268:24361   */\n      tag_564\n        /* \"#utility.yul\":24357:24360   */\n      dup3\n        /* \"#utility.yul\":24268:24361   */\n      tag_342\n      jump\t// in\n    tag_564:\n        /* \"#utility.yul\":24386:24388   */\n      0x20\n        /* \"#utility.yul\":24381:24384   */\n      dup3\n        /* \"#utility.yul\":24377:24389   */\n      add\n        /* \"#utility.yul\":24370:24389   */\n      swap1\n      pop\n        /* \"#utility.yul\":24029:24395   */\n      swap2\n      swap1\n      pop\n      jump\t// out\n        /* \"#utility.yul\":24401:24820   */\n    tag_235:\n        /* \"#utility.yul\":24567:24571   */\n      0x00\n        /* \"#utility.yul\":24605:24607   */\n      0x20\n        /* \"#utility.yul\":24594:24603   */\n      dup3\n        /* \"#utility.yul\":24590:24608   */\n      add\n        /* \"#utility.yul\":24582:24608   */\n      swap1\n      pop\n        /* \"#utility.yul\":24654:24663   */\n      dup2\n        /* \"#utility.yul\":24648:24652   */\n      dup2\n        /* \"#utility.yul\":24644:24664   */\n      sub\n        /* \"#utility.yul\":24640:24641   */\n      0x00\n        /* \"#utility.yul\":24629:24638   */\n      dup4\n        /* \"#utility.yul\":24625:24642   */\n      add\n        /* \"#utility.yul\":24618:24665   */\n      mstore\n        /* \"#utility.yul\":24682:24813   */\n      tag_566\n        /* \"#utility.yul\":24808:24812   */\n      dup2\n        /* \"#utility.yul\":24682:24813   */\n      tag_343\n      jump\t// in\n    tag_566:\n        /* \"#utility.yul\":24674:24813   */\n      swap1\n      pop\n        /* \"#utility.yul\":24401:24820   */\n      swap2\n      swap1\n      pop\n      jump\t// out\n        /* \"#utility.yul\":24826:25046   */\n    tag_344:\n        /* \"#utility.yul\":24966:25000   */\n      0x43616e6e6f74207472616e73666572206f776e65727368697020746f2073656c\n        /* \"#utility.yul\":24962:24963   */\n      0x00\n        /* \"#utility.yul\":24954:24960   */\n      dup3\n        /* \"#utility.yul\":24950:24964   */\n      add\n        /* \"#utility.yul\":24943:25001   */\n      mstore\n        /* \"#utility.yul\":25035:25038   */\n      0x6600000000000000000000000000000000000000000000000000000000000000\n        /* \"#utility.yul\":25030:25032   */\n      0x20\n        /* \"#utility.yul\":25022:25028   */\n      dup3\n        /* \"#utility.yul\":25018:25033   */\n      add\n        /* \"#utility.yul\":25011:25039   */\n      mstore\n        /* \"#utility.yul\":24826:25046   */\n      pop\n      jump\t// out\n        /* \"#utility.yul\":25052:25418   */\n    tag_345:\n        /* \"#utility.yul\":25194:25197   */\n      0x00\n        /* \"#utility.yul\":25215:25282   */\n      tag_569\n        /* \"#utility.yul\":25279:25281   */\n      0x21\n        /* \"#utility.yul\":25274:25277   */\n      dup4\n        /* \"#utility.yul\":25215:25282   */\n      tag_313\n      jump\t// in\n    tag_569:\n        /* \"#utility.yul\":25208:25282   */\n      swap2\n      pop\n        /* \"#utility.yul\":25291:25384   */\n      tag_570\n        /* \"#utility.yul\":25380:25383   */\n      dup3\n        /* \"#utility.yul\":25291:25384   */\n      tag_344\n      jump\t// in\n    tag_570:\n        /* \"#utility.yul\":25409:25411   */\n      0x40\n        /* \"#utility.yul\":25404:25407   */\n      dup3\n        /* \"#utility.yul\":25400:25412   */\n      add\n        /* \"#utility.yul\":25393:25412   */\n      swap1\n      pop\n        /* \"#utility.yul\":25052:25418   */\n      swap2\n      swap1\n      pop\n      jump\t// out\n        /* \"#utility.yul\":25424:25843   */\n    tag_238:\n        /* \"#utility.yul\":25590:25594   */\n      0x00\n        /* \"#utility.yul\":25628:25630   */\n      0x20\n        /* \"#utility.yul\":25617:25626   */\n      dup3\n        /* \"#utility.yul\":25613:25631   */\n      add\n        /* \"#utility.yul\":25605:25631   */\n      swap1\n      pop\n        /* \"#utility.yul\":25677:25686   */\n      dup2\n        /* \"#utility.yul\":25671:25675   */\n      dup2\n        /* \"#utility.yul\":25667:25687   */\n      sub\n        /* \"#utility.yul\":25663:25664   */\n      0x00\n        /* \"#utility.yul\":25652:25661   */\n      dup4\n        /* \"#utility.yul\":25648:25665   */\n      add\n        /* \"#utility.yul\":25641:25688   */\n      mstore\n        /* \"#utility.yul\":25705:25836   */\n      tag_572\n        /* \"#utility.yul\":25831:25835   */\n      dup2\n        /* \"#utility.yul\":25705:25836   */\n      tag_345\n      jump\t// in\n    tag_572:\n        /* \"#utility.yul\":25697:25836   */\n      swap1\n      pop\n        /* \"#utility.yul\":25424:25843   */\n      swap2\n      swap1\n      pop\n      jump\t// out\n        /* \"#utility.yul\":25849:26030   */\n    tag_346:\n        /* \"#utility.yul\":25989:26022   */\n      0x5265656e7472616e637947756172643a207265656e7472616e742063616c6c00\n        /* \"#utility.yul\":25985:25986   */\n      0x00\n        /* \"#utility.yul\":25977:25983   */\n      dup3\n        /* \"#utility.yul\":25973:25987   */\n      add\n        /* \"#utility.yul\":25966:26023   */\n      mstore\n        /* \"#utility.yul\":25849:26030   */\n      pop\n      jump\t// out\n        /* \"#utility.yul\":26036:26402   */\n    tag_347:\n        /* \"#utility.yul\":26178:26181   */\n      0x00\n        /* \"#utility.yul\":26199:26266   */\n      tag_575\n        /* \"#utility.yul\":26263:26265   */\n      0x1f\n        /* \"#utility.yul\":26258:26261   */\n      dup4\n        /* \"#utility.yul\":26199:26266   */\n      tag_313\n      jump\t// in\n    tag_575:\n        /* \"#utility.yul\":26192:26266   */\n      swap2\n      pop\n        /* \"#utility.yul\":26275:26368   */\n      tag_576\n        /* \"#utility.yul\":26364:26367   */\n      dup3\n        /* \"#utility.yul\":26275:26368   */\n      tag_346\n      jump\t// in\n    tag_576:\n        /* \"#utility.yul\":26393:26395   */\n      0x20\n        /* \"#utility.yul\":26388:26391   */\n      dup3\n        /* \"#utility.yul\":26384:26396   */\n      add\n        /* \"#utility.yul\":26377:26396   */\n      swap1\n      pop\n        /* \"#utility.yul\":26036:26402   */\n      swap2\n      swap1\n      pop\n      jump\t// out\n        /* \"#utility.yul\":26408:26827   */\n    tag_242:\n        /* \"#utility.yul\":26574:26578   */\n      0x00\n        /* \"#utility.yul\":26612:26614   */\n      0x20\n        /* \"#utility.yul\":26601:26610   */\n      dup3\n        /* \"#utility.yul\":26597:26615   */\n      add\n        /* \"#utility.yul\":26589:26615   */\n      swap1\n      pop\n        /* \"#utility.yul\":26661:26670   */\n      dup2\n        /* \"#utility.yul\":26655:26659   */\n      dup2\n        /* \"#utility.yul\":26651:26671   */\n      sub\n        /* \"#utility.yul\":26647:26648   */\n      0x00\n        /* \"#utility.yul\":26636:26645   */\n      dup4\n        /* \"#utility.yul\":26632:26649   */\n      add\n        /* \"#utility.yul\":26625:26672   */\n      mstore\n        /* \"#utility.yul\":26689:26820   */\n      tag_578\n        /* \"#utility.yul\":26815:26819   */\n      dup2\n        /* \"#utility.yul\":26689:26820   */\n      tag_347\n      jump\t// in\n    tag_578:\n        /* \"#utility.yul\":26681:26820   */\n      swap1\n      pop\n        /* \"#utility.yul\":26408:26827   */\n      swap2\n      swap1\n      pop\n      jump\t// out\n        /* \"#utility.yul\":26833:27013   */\n    tag_348:\n        /* \"#utility.yul\":26881:26958   */\n      0x4e487b7100000000000000000000000000000000000000000000000000000000\n        /* \"#utility.yul\":26878:26879   */\n      0x00\n        /* \"#utility.yul\":26871:26959   */\n      mstore\n        /* \"#utility.yul\":26978:26982   */\n      0x12\n        /* \"#utility.yul\":26975:26976   */\n      0x04\n        /* \"#utility.yul\":26968:26983   */\n      mstore\n        /* \"#utility.yul\":27002:27006   */\n      0x24\n        /* \"#utility.yul\":26999:27000   */\n      0x00\n        /* \"#utility.yul\":26992:27007   */\n      revert\n        /* \"#utility.yul\":27019:27204   */\n    tag_254:\n        /* \"#utility.yul\":27059:27060   */\n      0x00\n        /* \"#utility.yul\":27076:27096   */\n      tag_581\n        /* \"#utility.yul\":27094:27095   */\n      dup3\n        /* \"#utility.yul\":27076:27096   */\n      tag_287\n      jump\t// in\n    tag_581:\n        /* \"#utility.yul\":27071:27096   */\n      swap2\n      pop\n        /* \"#utility.yul\":27110:27130   */\n      tag_582\n        /* \"#utility.yul\":27128:27129   */\n      dup4\n        /* \"#utility.yul\":27110:27130   */\n      tag_287\n      jump\t// in\n    tag_582:\n        /* \"#utility.yul\":27105:27130   */\n      swap3\n      pop\n        /* \"#utility.yul\":27149:27150   */\n      dup3\n        /* \"#utility.yul\":27139:27174   */\n      tag_583\n      jumpi\n        /* \"#utility.yul\":27154:27172   */\n      tag_584\n      tag_348\n      jump\t// in\n    tag_584:\n        /* \"#utility.yul\":27139:27174   */\n    tag_583:\n        /* \"#utility.yul\":27196:27197   */\n      dup3\n        /* \"#utility.yul\":27193:27194   */\n      dup3\n        /* \"#utility.yul\":27189:27198   */\n      div\n        /* \"#utility.yul\":27184:27198   */\n      swap1\n      pop\n        /* \"#utility.yul\":27019:27204   */\n      swap3\n      swap2\n      pop\n      pop\n      jump\t// out\n        /* \"#utility.yul\":27210:27382   */\n    tag_349:\n        /* \"#utility.yul\":27350:27374   */\n      0x526577617264207472616e73666572206661696c656400000000000000000000\n        /* \"#utility.yul\":27346:27347   */\n      0x00\n        /* \"#utility.yul\":27338:27344   */\n      dup3\n        /* \"#utility.yul\":27334:27348   */\n      add\n        /* \"#utility.yul\":27327:27375   */\n      mstore\n        /* \"#utility.yul\":27210:27382   */\n      pop\n      jump\t// out\n        /* \"#utility.yul\":27388:27754   */\n    tag_350:\n        /* \"#utility.yul\":27530:27533   */\n      0x00\n        /* \"#utility.yul\":27551:27618   */\n      tag_587\n        /* \"#utility.yul\":27615:27617   */\n      0x16\n        /* \"#utility.yul\":27610:27613   */\n      dup4\n        /* \"#utility.yul\":27551:27618   */\n      tag_313\n      jump\t// in\n    tag_587:\n        /* \"#utility.yul\":27544:27618   */\n      swap2\n      pop\n        /* \"#utility.yul\":27627:27720   */\n      tag_588\n        /* \"#utility.yul\":27716:27719   */\n      dup3\n        /* \"#utility.yul\":27627:27720   */\n      tag_349\n      jump\t// in\n    tag_588:\n        /* \"#utility.yul\":27745:27747   */\n      0x20\n        /* \"#utility.yul\":27740:27743   */\n      dup3\n        /* \"#utility.yul\":27736:27748   */\n      add\n        /* \"#utility.yul\":27729:27748   */\n      swap1\n      pop\n        /* \"#utility.yul\":27388:27754   */\n      swap2\n      swap1\n      pop\n      jump\t// out\n        /* \"#utility.yul\":27760:28179   */\n    tag_261:\n        /* \"#utility.yul\":27926:27930   */\n      0x00\n        /* \"#utility.yul\":27964:27966   */\n      0x20\n        /* \"#utility.yul\":27953:27962   */\n      dup3\n        /* \"#utility.yul\":27949:27967   */\n      add\n        /* \"#utility.yul\":27941:27967   */\n      swap1\n      pop\n        /* \"#utility.yul\":28013:28022   */\n      dup2\n        /* \"#utility.yul\":28007:28011   */\n      dup2\n        /* \"#utility.yul\":28003:28023   */\n      sub\n        /* \"#utility.yul\":27999:28000   */\n      0x00\n        /* \"#utility.yul\":27988:27997   */\n      dup4\n        /* \"#utility.yul\":27984:28001   */\n      add\n        /* \"#utility.yul\":27977:28024   */\n      mstore\n        /* \"#utility.yul\":28041:28172   */\n      tag_590\n        /* \"#utility.yul\":28167:28171   */\n      dup2\n        /* \"#utility.yul\":28041:28172   */\n      tag_350\n      jump\t// in\n    tag_590:\n        /* \"#utility.yul\":28033:28172   */\n      swap1\n      pop\n        /* \"#utility.yul\":27760:28179   */\n      swap2\n      swap1\n      pop\n      jump\t// out\n        /* \"#utility.yul\":28185:28418   */\n    tag_268:\n        /* \"#utility.yul\":28224:28227   */\n      0x00\n        /* \"#utility.yul\":28247:28271   */\n      tag_592\n        /* \"#utility.yul\":28265:28270   */\n      dup3\n        /* \"#utility.yul\":28247:28271   */\n      tag_287\n      jump\t// in\n    tag_592:\n        /* \"#utility.yul\":28238:28271   */\n      swap2\n      pop\n        /* \"#utility.yul\":28293:28359   */\n      0xffffffffffffffffffffffffffffffffffffffffffffffffffffffffffffffff\n        /* \"#utility.yul\":28286:28291   */\n      dup3\n        /* \"#utility.yul\":28283:28360   */\n      sub\n        /* \"#utility.yul\":28280:28383   */\n      tag_593\n      jumpi\n        /* \"#utility.yul\":28363:28381   */\n      tag_594\n      tag_337\n      jump\t// in\n    tag_594:\n        /* \"#utility.yul\":28280:28383   */\n    tag_593:\n        /* \"#utility.yul\":28410:28411   */\n      0x01\n        /* \"#utility.yul\":28403:28408   */\n      dup3\n        /* \"#utility.yul\":28399:28412   */\n      add\n        /* \"#utility.yul\":28392:28412   */\n      swap1\n      pop\n        /* \"#utility.yul\":28185:28418   */\n      swap2\n      swap1\n      pop\n      jump\t// out\n\n    auxdata: 0xa26469706673582212209d7a0342c69f6fd64f65ac2441f7ba1d0e16752ec9a8bbfa5b17e8d8eb8f9b1164736f6c634300081a0033\n}\n",
				"bytecode": {
					"linkReferences": {},
					"object": "6080604052678ac7230489e800006003556040518060a00160405280602860ff168152602001601460ff168152602001600f60ff168152602001600a60ff168152602001600560ff16815250600490600561005b92919061011b565b50600560095534801561006c575f80fd5b50604051612efe380380612efe833981810160405281019061008e91906101d9565b60015f819055508060015f6101000a81548173ffffffffffffffffffffffffffffffffffffffff021916908373ffffffffffffffffffffffffffffffffffffffff1602179055503360025f6101000a81548173ffffffffffffffffffffffffffffffffffffffff021916908373ffffffffffffffffffffffffffffffffffffffff16021790555050610204565b826005810192821561014f579160200282015b8281111561014e578251829060ff1690559160200191906001019061012e565b5b50905061015c9190610160565b5090565b5b80821115610177575f815f905550600101610161565b5090565b5f80fd5b5f73ffffffffffffffffffffffffffffffffffffffff82169050919050565b5f6101a88261017f565b9050919050565b6101b88161019e565b81146101c2575f80fd5b50565b5f815190506101d3816101af565b92915050565b5f602082840312156101ee576101ed61017b565b5b5f6101fb848285016101c5565b91505092915050565b612ced806102115f395ff3fe608060405234801561000f575f80fd5b506004361061011f575f3560e01c80638456cb59116100ab578063cc3d967b1161006f578063cc3d967b146102d3578063d9c842fd14610309578063dd19171914610339578063f2fde38b14610343578063f851a4401461035f5761011f565b80638456cb59146102395780638c546f81146102575780639e9aed6214610275578063a87430ba14610293578063b0b62f5a146102c95761011f565b806350050769116100f257806350050769146101a95780635c975abb146101c55780635dc68b0a146101cf57806364b4f751146101ff5780636691461a1461021d5761011f565b806304189250146101235780630840605a146101415780632e1a7d4d1461015d5780634f40424314610179575b5f80fd5b61012b61037d565b6040516101389190611f2b565b60405180910390f35b61015b60048036038101906101569190611fa2565b610383565b005b61017760048036038101906101729190611ff7565b61091b565b005b610193600480360381019061018e9190611fa2565b610aea565b6040516101a091906120d9565b60405180910390f35b6101c360048036038101906101be9190611ff7565b610bb5565b005b6101cd610ce6565b005b6101e960048036038101906101e49190611ff7565b610d92565b6040516101f69190611f2b565b60405180910390f35b610207610dab565b6040516102149190611f2b565b60405180910390f35b61023760048036038101906102329190611fa2565b610db1565b005b610241610f6c565b60405161024e9190612113565b60405180910390f35b61025f610f7f565b60405161026c9190612187565b60405180910390f35b61027d610fa4565b60405161028a9190611f2b565b60405180910390f35b6102ad60048036038101906102a89190611fa2565b611043565b6040516102c097969594939291906121af565b60405180910390f35b6102d16110ac565b005b6102ed60048036038101906102e89190611fa2565b611157565b604051610300979695949392919061221c565b60405180910390f35b610323600480360381019061031e9190612289565b611205565b60405161033091906120d9565b60405180910390f35b61034161137f565b005b61035d60048036038101906103589190611fa2565b611628565b005b610367611877565b60405161037491906122d9565b60405180910390f35b60095481565b600260149054906101000a900460ff16156103d3576040517f08c379a00000000000000000000000000000000000000000000000000000000081526004016103ca9061234c565b60405180910390fd5b6103db61189c565b5f73ffffffffffffffffffffffffffffffffffffffff163373ffffffffffffffffffffffffffffffffffffffff1603610449576040517f08c379a0000000000000000000000000000000000000000000000000000000008152600401610440906123b4565b60405180910390fd5b5f73ffffffffffffffffffffffffffffffffffffffff168173ffffffffffffffffffffffffffffffffffffffff16036104b7576040517f08c379a00000000000000000000000000000000000000000000000000000000081526004016104ae9061241c565b60405180910390fd5b60035460015f9054906101000a900473ffffffffffffffffffffffffffffffffffffffff1673ffffffffffffffffffffffffffffffffffffffff166370a08231336040518263ffffffff1660e01b815260040161051491906122d9565b602060405180830381865afa15801561052f573d5f803e3d5ffd5b505050506040513d601f19601f82011682018060405250810190610553919061244e565b1015610594576040517f08c379a000000000000000000000000000000000000000000000000000000000815260040161058b906124c3565b60405180910390fd5b600a5f8273ffffffffffffffffffffffffffffffffffffffff1673ffffffffffffffffffffffffffffffffffffffff1681526020019081526020015f206002015f9054906101000a900460ff16610620576040517f08c379a00000000000000000000000000000000000000000000000000000000081526004016106179061252b565b60405180910390fd5b3373ffffffffffffffffffffffffffffffffffffffff168173ffffffffffffffffffffffffffffffffffffffff160361068e576040517f08c379a000000000000000000000000000000000000000000000000000000000815260040161068590612593565b60405180910390fd5b600a5f3373ffffffffffffffffffffffffffffffffffffffff1673ffffffffffffffffffffffffffffffffffffffff1681526020019081526020015f206002015f9054906101000a900460ff161561071b576040517f08c379a0000000000000000000000000000000000000000000000000000000008152600401610712906125fb565b60405180910390fd5b60015f9054906101000a900473ffffffffffffffffffffffffffffffffffffffff1673ffffffffffffffffffffffffffffffffffffffff166323b872dd33306003546040518463ffffffff1660e01b815260040161077b93929190612619565b6020604051808303815f875af1158015610797573d5f803e3d5ffd5b505050506040513d601f19601f820116820180604052508101906107bb9190612678565b6107fa576040517f08c379a00000000000000000000000000000000000000000000000000000000081526004016107f1906126ed565b60405180910390fd5b5f600a5f3373ffffffffffffffffffffffffffffffffffffffff1673ffffffffffffffffffffffffffffffffffffffff1681526020019081526020015f20905081815f015f6101000a81548173ffffffffffffffffffffffffffffffffffffffff021916908373ffffffffffffffffffffffffffffffffffffffff1602179055506001816002015f6101000a81548160ff0219169083151502179055504281600401819055508173ffffffffffffffffffffffffffffffffffffffff163373ffffffffffffffffffffffffffffffffffffffff167f199098452639b249bef6f727bc09ce903cece47ca72a8518bef9367ad39b6de7426040516108fd9190611f2b565b60405180910390a361090f82336118e9565b50610918611e8c565b50565b61092361189c565b60025f9054906101000a900473ffffffffffffffffffffffffffffffffffffffff1673ffffffffffffffffffffffffffffffffffffffff163373ffffffffffffffffffffffffffffffffffffffff16146109b2576040517f08c379a00000000000000000000000000000000000000000000000000000000081526004016109a99061277b565b60405180910390fd5b60015f9054906101000a900473ffffffffffffffffffffffffffffffffffffffff1673ffffffffffffffffffffffffffffffffffffffff1663a9059cbb60025f9054906101000a900473ffffffffffffffffffffffffffffffffffffffff16836040518363ffffffff1660e01b8152600401610a2f929190612799565b6020604051808303815f875af1158015610a4b573d5f803e3d5ffd5b505050506040513d601f19601f82011682018060405250810190610a6f9190612678565b5060025f9054906101000a900473ffffffffffffffffffffffffffffffffffffffff1673ffffffffffffffffffffffffffffffffffffffff167f884edad9ce6fa2440d8a54cc123490eb96d2768479d49ff9c7366125a942436482604051610ad79190611f2b565b60405180910390a2610ae7611e8c565b50565b6060600a5f8373ffffffffffffffffffffffffffffffffffffffff1673ffffffffffffffffffffffffffffffffffffffff1681526020019081526020015f20600801805480602002602001604051908101604052809291908181526020018280548015610ba957602002820191905f5260205f20905b815f9054906101000a900473ffffffffffffffffffffffffffffffffffffffff1673ffffffffffffffffffffffffffffffffffffffff1681526020019060010190808311610b60575b50505050509050919050565b60025f9054906101000a900473ffffffffffffffffffffffffffffffffffffffff1673ffffffffffffffffffffffffffffffffffffffff163373ffffffffffffffffffffffffffffffffffffffff1614610c44576040517f08c379a0000000000000000000000000000000000000000000000000000000008152600401610c3b9061277b565b60405180910390fd5b60638110610c87576040517f08c379a0000000000000000000000000000000000000000000000000000000008152600401610c7e9061280a565b60405180910390fd5b5f6003549050670de0b6b3a764000082610ca19190612855565b6003819055507f50b218c5a101ad05d53ab0a964d01da639ee79525ae4b7802ed714249740a8d581600354604051610cda929190612896565b60405180910390a15050565b60025f9054906101000a900473ffffffffffffffffffffffffffffffffffffffff1673ffffffffffffffffffffffffffffffffffffffff163373ffffffffffffffffffffffffffffffffffffffff1614610d75576040517f08c379a0000000000000000000000000000000000000000000000000000000008152600401610d6c9061277b565b60405180910390fd5b6001600260146101000a81548160ff021916908315150217905550565b60048160058110610da1575f80fd5b015f915090505481565b60035481565b60025f9054906101000a900473ffffffffffffffffffffffffffffffffffffffff1673ffffffffffffffffffffffffffffffffffffffff163373ffffffffffffffffffffffffffffffffffffffff1614610e40576040517f08c379a0000000000000000000000000000000000000000000000000000000008152600401610e379061277b565b60405180910390fd5b5f73ffffffffffffffffffffffffffffffffffffffff168173ffffffffffffffffffffffffffffffffffffffff1603610eae576040517f08c379a0000000000000000000000000000000000000000000000000000000008152600401610ea590612907565b60405180910390fd5b8060015f6101000a81548173ffffffffffffffffffffffffffffffffffffffff021916908373ffffffffffffffffffffffffffffffffffffffff1602179055508073ffffffffffffffffffffffffffffffffffffffff1660015f9054906101000a900473ffffffffffffffffffffffffffffffffffffffff1673ffffffffffffffffffffffffffffffffffffffff167f0b1186973f810894b87ab0bfbee422fddcaad21b46dc705a561451bbb6bac11760405160405180910390a350565b600260149054906101000a900460ff1681565b60015f9054906101000a900473ffffffffffffffffffffffffffffffffffffffff1681565b5f60015f9054906101000a900473ffffffffffffffffffffffffffffffffffffffff1673ffffffffffffffffffffffffffffffffffffffff166370a08231306040518263ffffffff1660e01b8152600401610fff91906122d9565b602060405180830381865afa15801561101a573d5f803e3d5ffd5b505050506040513d601f19601f8201168201806040525081019061103e919061244e565b905090565b600a602052805f5260405f205f91509050805f015f9054906101000a900473ffffffffffffffffffffffffffffffffffffffff1690806001015490806002015f9054906101000a900460ff16908060030154908060040154908060060154908060070154905087565b60025f9054906101000a900473ffffffffffffffffffffffffffffffffffffffff1673ffffffffffffffffffffffffffffffffffffffff163373ffffffffffffffffffffffffffffffffffffffff161461113b576040517f08c379a00000000000000000000000000000000000000000000000000000000081526004016111329061277b565b60405180910390fd5b5f600260146101000a81548160ff021916908315150217905550565b5f805f805f805f80600a5f8a73ffffffffffffffffffffffffffffffffffffffff1673ffffffffffffffffffffffffffffffffffffffff1681526020019081526020015f209050805f015f9054906101000a900473ffffffffffffffffffffffffffffffffffffffff168160010154826003015483600601548460070154856002015f9054906101000a900460ff168660040154975097509750975097509750975050919395979092949650565b60605f600a5f8673ffffffffffffffffffffffffffffffffffffffff1673ffffffffffffffffffffffffffffffffffffffff1681526020019081526020015f2060050190505f83856112579190612925565b9050818054905081111561126d57818054905090505b5f858261127a9190612958565b67ffffffffffffffff8111156112935761129261298b565b5b6040519080825280602002602001820160405280156112c15781602001602082028036833780820191505090505b5090505f8690505b82811015611371578381815481106112e4576112e36129b8565b5b905f5260205f20015f9054906101000a900473ffffffffffffffffffffffffffffffffffffffff168288836113199190612958565b8151811061132a576113296129b8565b5b602002602001019073ffffffffffffffffffffffffffffffffffffffff16908173ffffffffffffffffffffffffffffffffffffffff168152505080806001019150506112c9565b508093505050509392505050565b60025f9054906101000a900473ffffffffffffffffffffffffffffffffffffffff1673ffffffffffffffffffffffffffffffffffffffff163373ffffffffffffffffffffffffffffffffffffffff161461140e576040517f08c379a00000000000000000000000000000000000000000000000000000000081526004016114059061277b565b60405180910390fd5b61141661189c565b5f60015f9054906101000a900473ffffffffffffffffffffffffffffffffffffffff1673ffffffffffffffffffffffffffffffffffffffff166370a08231306040518263ffffffff1660e01b815260040161147191906122d9565b602060405180830381865afa15801561148c573d5f803e3d5ffd5b505050506040513d601f19601f820116820180604052508101906114b0919061244e565b905060015f9054906101000a900473ffffffffffffffffffffffffffffffffffffffff1673ffffffffffffffffffffffffffffffffffffffff1663a9059cbb60025f9054906101000a900473ffffffffffffffffffffffffffffffffffffffff16836040518363ffffffff1660e01b815260040161152f929190612799565b6020604051808303815f875af115801561154b573d5f803e3d5ffd5b505050506040513d601f19601f8201168201806040525081019061156f9190612678565b6115ae576040517f08c379a00000000000000000000000000000000000000000000000000000000081526004016115a590612a2f565b60405180910390fd5b60025f9054906101000a900473ffffffffffffffffffffffffffffffffffffffff1673ffffffffffffffffffffffffffffffffffffffff167f884edad9ce6fa2440d8a54cc123490eb96d2768479d49ff9c7366125a9424364826040516116159190611f2b565b60405180910390a250611626611e8c565b565b60025f9054906101000a900473ffffffffffffffffffffffffffffffffffffffff1673ffffffffffffffffffffffffffffffffffffffff163373ffffffffffffffffffffffffffffffffffffffff16146116b7576040517f08c379a00000000000000000000000000000000000000000000000000000000081526004016116ae9061277b565b60405180910390fd5b5f73ffffffffffffffffffffffffffffffffffffffff168173ffffffffffffffffffffffffffffffffffffffff1603611725576040517f08c379a000000000000000000000000000000000000000000000000000000000815260040161171c90612a97565b60405180910390fd5b60025f9054906101000a900473ffffffffffffffffffffffffffffffffffffffff1673ffffffffffffffffffffffffffffffffffffffff168173ffffffffffffffffffffffffffffffffffffffff16036117b4576040517f08c379a00000000000000000000000000000000000000000000000000000000081526004016117ab90612b25565b60405180910390fd5b5f60025f9054906101000a900473ffffffffffffffffffffffffffffffffffffffff1690508160025f6101000a81548173ffffffffffffffffffffffffffffffffffffffff021916908373ffffffffffffffffffffffffffffffffffffffff1602179055508173ffffffffffffffffffffffffffffffffffffffff168173ffffffffffffffffffffffffffffffffffffffff167f8be0079c531659141344cd1fd0a4f28419497f9722a3daafe3b4186f6b6457e060405160405180910390a35050565b60025f9054906101000a900473ffffffffffffffffffffffffffffffffffffffff1681565b60025f54036118e0576040517f08c379a00000000000000000000000000000000000000000000000000000000081526004016118d790612b8d565b60405180910390fd5b60025f81905550565b5f8290505f5b600581108015611900575060095481105b15611e86575f73ffffffffffffffffffffffffffffffffffffffff168273ffffffffffffffffffffffffffffffffffffffff160315611e86575f6064600483600581106119505761194f6129b8565b5b015460035461195f9190612855565b6119699190612bd8565b905060015f9054906101000a900473ffffffffffffffffffffffffffffffffffffffff1673ffffffffffffffffffffffffffffffffffffffff1663a9059cbb84836040518363ffffffff1660e01b81526004016119c7929190612799565b6020604051808303815f875af11580156119e3573d5f803e3d5ffd5b505050506040513d601f19601f82011682018060405250810190611a079190612678565b611a46576040517f08c379a0000000000000000000000000000000000000000000000000000000008152600401611a3d90612c52565b60405180910390fd5b8273ffffffffffffffffffffffffffffffffffffffff167f83b5eadb65fb8fc1b70a3b205b38bb0c6a3e15e14bcbc9d4f366d6c772e6d83b600184611a8b9190612925565b83604051611a9a929190612896565b60405180910390a25f8203611bf75780600a5f8573ffffffffffffffffffffffffffffffffffffffff1673ffffffffffffffffffffffffffffffffffffffff1681526020019081526020015f206001015f828254611af89190612925565b92505081905550600a5f8473ffffffffffffffffffffffffffffffffffffffff1673ffffffffffffffffffffffffffffffffffffffff1681526020019081526020015f2060050184908060018154018082558091505060019003905f5260205f20015f9091909190916101000a81548173ffffffffffffffffffffffffffffffffffffffff021916908373ffffffffffffffffffffffffffffffffffffffff160217905550600a5f8473ffffffffffffffffffffffffffffffffffffffff1673ffffffffffffffffffffffffffffffffffffffff1681526020019081526020015f206003015f815480929190611bed90612c70565b9190505550611dbc565b611cc2600a5f8573ffffffffffffffffffffffffffffffffffffffff1673ffffffffffffffffffffffffffffffffffffffff1681526020019081526020015f20600801805480602002602001604051908101604052809291908181526020018280548015611cb757602002820191905f5260205f20905b815f9054906101000a900473ffffffffffffffffffffffffffffffffffffffff1673ffffffffffffffffffffffffffffffffffffffff1681526020019060010190808311611c6e575b505050505085611e95565b611d6557600a5f8473ffffffffffffffffffffffffffffffffffffffff1673ffffffffffffffffffffffffffffffffffffffff1681526020019081526020015f2060080184908060018154018082558091505060019003905f5260205f20015f9091909190916101000a81548173ffffffffffffffffffffffffffffffffffffffff021916908373ffffffffffffffffffffffffffffffffffffffff1602179055505b80600a5f8573ffffffffffffffffffffffffffffffffffffffff1673ffffffffffffffffffffffffffffffffffffffff1681526020019081526020015f206006015f828254611db49190612925565b925050819055505b600a5f8473ffffffffffffffffffffffffffffffffffffffff1673ffffffffffffffffffffffffffffffffffffffff1681526020019081526020015f206007015f815480929190611e0c90612c70565b9190505550600a5f8473ffffffffffffffffffffffffffffffffffffffff1673ffffffffffffffffffffffffffffffffffffffff1681526020019081526020015f205f015f9054906101000a900473ffffffffffffffffffffffffffffffffffffffff169250508080611e7e90612c70565b9150506118ef565b50505050565b60015f81905550565b5f805f90505b8351811015611f08578273ffffffffffffffffffffffffffffffffffffffff16848281518110611ece57611ecd6129b8565b5b602002602001015173ffffffffffffffffffffffffffffffffffffffff1603611efb576001915050611f0d565b8080600101915050611e9b565b505f90505b92915050565b5f819050919050565b611f2581611f13565b82525050565b5f602082019050611f3e5f830184611f1c565b92915050565b5f80fd5b5f73ffffffffffffffffffffffffffffffffffffffff82169050919050565b5f611f7182611f48565b9050919050565b611f8181611f67565b8114611f8b575f80fd5b50565b5f81359050611f9c81611f78565b92915050565b5f60208284031215611fb757611fb6611f44565b5b5f611fc484828501611f8e565b91505092915050565b611fd681611f13565b8114611fe0575f80fd5b50565b5f81359050611ff181611fcd565b92915050565b5f6020828403121561200c5761200b611f44565b5b5f61201984828501611fe3565b91505092915050565b5f81519050919050565b5f82825260208201905092915050565b5f819050602082019050919050565b61205481611f67565b82525050565b5f612065838361204b565b60208301905092915050565b5f602082019050919050565b5f61208782612022565b612091818561202c565b935061209c8361203c565b805f5b838110156120cc5781516120b3888261205a565b97506120be83612071565b92505060018101905061209f565b5085935050505092915050565b5f6020820190508181035f8301526120f1818461207d565b905092915050565b5f8115159050919050565b61210d816120f9565b82525050565b5f6020820190506121265f830184612104565b92915050565b5f819050919050565b5f61214f61214a61214584611f48565b61212c565b611f48565b9050919050565b5f61216082612135565b9050919050565b5f61217182612156565b9050919050565b61218181612167565b82525050565b5f60208201905061219a5f830184612178565b92915050565b6121a981611f67565b82525050565b5f60e0820190506121c25f83018a6121a0565b6121cf6020830189611f1c565b6121dc6040830188612104565b6121e96060830187611f1c565b6121f66080830186611f1c565b61220360a0830185611f1c565b61221060c0830184611f1c565b98975050505050505050565b5f60e08201905061222f5f83018a6121a0565b61223c6020830189611f1c565b6122496040830188611f1c565b6122566060830187611f1c565b6122636080830186611f1c565b61227060a0830185612104565b61227d60c0830184611f1c565b98975050505050505050565b5f805f606084860312156122a05761229f611f44565b5b5f6122ad86828701611f8e565b93505060206122be86828701611fe3565b92505060406122cf86828701611fe3565b9150509250925092565b5f6020820190506122ec5f8301846121a0565b92915050565b5f82825260208201905092915050565b7f436f6e7472616374206973207061757365642062792061646d696e00000000005f82015250565b5f612336601b836122f2565b915061234182612302565b602082019050919050565b5f6020820190508181035f8301526123638161232a565b9050919050565b7f496e76616c69642073656e6465722061646472657373000000000000000000005f82015250565b5f61239e6016836122f2565b91506123a98261236a565b602082019050919050565b5f6020820190508181035f8301526123cb81612392565b9050919050565b7f496e76616c6964207265666572726572206164647265737300000000000000005f82015250565b5f6124066018836122f2565b9150612411826123d2565b602082019050919050565b5f6020820190508181035f830152612433816123fa565b9050919050565b5f8151905061244881611fcd565b92915050565b5f6020828403121561246357612462611f44565b5b5f6124708482850161243a565b91505092915050565b7f496e73756666696369656e742062616c616e63650000000000000000000000005f82015250565b5f6124ad6014836122f2565b91506124b882612479565b602082019050919050565b5f6020820190508181035f8301526124da816124a1565b9050919050565b7f5265666572726572206973206e6f7420726567697374657265640000000000005f82015250565b5f612515601a836122f2565b9150612520826124e1565b602082019050919050565b5f6020820190508181035f83015261254281612509565b9050919050565b7f43616e6e6f7420726566657220796f757273656c6600000000000000000000005f82015250565b5f61257d6015836122f2565b915061258882612549565b602082019050919050565b5f6020820190508181035f8301526125aa81612571565b9050919050565b7f416c7265616479207265676973746572656400000000000000000000000000005f82015250565b5f6125e56012836122f2565b91506125f0826125b1565b602082019050919050565b5f6020820190508181035f830152612612816125d9565b9050919050565b5f60608201905061262c5f8301866121a0565b61263960208301856121a0565b6126466040830184611f1c565b949350505050565b612657816120f9565b8114612661575f80fd5b50565b5f815190506126728161264e565b92915050565b5f6020828403121561268d5761268c611f44565b5b5f61269a84828501612664565b91505092915050565b7f5472616e73666572206661696c656400000000000000000000000000000000005f82015250565b5f6126d7600f836122f2565b91506126e2826126a3565b602082019050919050565b5f6020820190508181035f830152612704816126cb565b9050919050565b7f5468697320616374696f6e2063616e20626520706572666f726d6564206279205f8201527f74686520636f6e7472616374206f776e65720000000000000000000000000000602082015250565b5f6127656032836122f2565b91506127708261270b565b604082019050919050565b5f6020820190508181035f83015261279281612759565b9050919050565b5f6040820190506127ac5f8301856121a0565b6127b96020830184611f1c565b9392505050565b7f496e76616c69642070657263656e7461676500000000000000000000000000005f82015250565b5f6127f46012836122f2565b91506127ff826127c0565b602082019050919050565b5f6020820190508181035f830152612821816127e8565b9050919050565b7f4e487b71000000000000000000000000000000000000000000000000000000005f52601160045260245ffd5b5f61285f82611f13565b915061286a83611f13565b925082820261287881611f13565b9150828204841483151761288f5761288e612828565b5b5092915050565b5f6040820190506128a95f830185611f1c565b6128b66020830184611f1c565b9392505050565b7f496e76616c696420746f6b656e206164647265737300000000000000000000005f82015250565b5f6128f16015836122f2565b91506128fc826128bd565b602082019050919050565b5f6020820190508181035f83015261291e816128e5565b9050919050565b5f61292f82611f13565b915061293a83611f13565b925082820190508082111561295257612951612828565b5b92915050565b5f61296282611f13565b915061296d83611f13565b925082820390508181111561298557612984612828565b5b92915050565b7f4e487b71000000000000000000000000000000000000000000000000000000005f52604160045260245ffd5b7f4e487b71000000000000000000000000000000000000000000000000000000005f52603260045260245ffd5b7f456d657267656e6379207769746864726177206661696c6564000000000000005f82015250565b5f612a196019836122f2565b9150612a24826129e5565b602082019050919050565b5f6020820190508181035f830152612a4681612a0d565b9050919050565b7f496e76616c6964206e6577206f776e65720000000000000000000000000000005f82015250565b5f612a816011836122f2565b9150612a8c82612a4d565b602082019050919050565b5f6020820190508181035f830152612aae81612a75565b9050919050565b7f43616e6e6f74207472616e73666572206f776e65727368697020746f2073656c5f8201527f6600000000000000000000000000000000000000000000000000000000000000602082015250565b5f612b0f6021836122f2565b9150612b1a82612ab5565b604082019050919050565b5f6020820190508181035f830152612b3c81612b03565b9050919050565b7f5265656e7472616e637947756172643a207265656e7472616e742063616c6c005f82015250565b5f612b77601f836122f2565b9150612b8282612b43565b602082019050919050565b5f6020820190508181035f830152612ba481612b6b565b9050919050565b7f4e487b71000000000000000000000000000000000000000000000000000000005f52601260045260245ffd5b5f612be282611f13565b9150612bed83611f13565b925082612bfd57612bfc612bab565b5b828204905092915050565b7f526577617264207472616e73666572206661696c6564000000000000000000005f82015250565b5f612c3c6016836122f2565b9150612c4782612c08565b602082019050919050565b5f6020820190508181035f830152612c6981612c30565b9050919050565b5f612c7a82611f13565b91507fffffffffffffffffffffffffffffffffffffffffffffffffffffffffffffffff8203612cac57612cab612828565b5b60018201905091905056fea26469706673582212209d7a0342c69f6fd64f65ac2441f7ba1d0e16752ec9a8bbfa5b17e8d8eb8f9b1164736f6c634300081a0033",
					"opcodes": "PUSH1 0x80 PUSH1 0x40 MSTORE PUSH8 0x8AC7230489E80000 PUSH1 0x3 SSTORE PUSH1 0x40 MLOAD DUP1 PUSH1 0xA0 ADD PUSH1 0x40 MSTORE DUP1 PUSH1 0x28 PUSH1 0xFF AND DUP2 MSTORE PUSH1 0x20 ADD PUSH1 0x14 PUSH1 0xFF AND DUP2 MSTORE PUSH1 0x20 ADD PUSH1 0xF PUSH1 0xFF AND DUP2 MSTORE PUSH1 0x20 ADD PUSH1 0xA PUSH1 0xFF AND DUP2 MSTORE PUSH1 0x20 ADD PUSH1 0x5 PUSH1 0xFF AND DUP2 MSTORE POP PUSH1 0x4 SWAP1 PUSH1 0x5 PUSH2 0x5B SWAP3 SWAP2 SWAP1 PUSH2 0x11B JUMP JUMPDEST POP PUSH1 0x5 PUSH1 0x9 SSTORE CALLVALUE DUP1 ISZERO PUSH2 0x6C JUMPI PUSH0 DUP1 REVERT JUMPDEST POP PUSH1 0x40 MLOAD PUSH2 0x2EFE CODESIZE SUB DUP1 PUSH2 0x2EFE DUP4 CODECOPY DUP2 DUP2 ADD PUSH1 0x40 MSTORE DUP2 ADD SWAP1 PUSH2 0x8E SWAP2 SWAP1 PUSH2 0x1D9 JUMP JUMPDEST PUSH1 0x1 PUSH0 DUP2 SWAP1 SSTORE POP DUP1 PUSH1 0x1 PUSH0 PUSH2 0x100 EXP DUP2 SLOAD DUP2 PUSH20 0xFFFFFFFFFFFFFFFFFFFFFFFFFFFFFFFFFFFFFFFF MUL NOT AND SWAP1 DUP4 PUSH20 0xFFFFFFFFFFFFFFFFFFFFFFFFFFFFFFFFFFFFFFFF AND MUL OR SWAP1 SSTORE POP CALLER PUSH1 0x2 PUSH0 PUSH2 0x100 EXP DUP2 SLOAD DUP2 PUSH20 0xFFFFFFFFFFFFFFFFFFFFFFFFFFFFFFFFFFFFFFFF MUL NOT AND SWAP1 DUP4 PUSH20 0xFFFFFFFFFFFFFFFFFFFFFFFFFFFFFFFFFFFFFFFF AND MUL OR SWAP1 SSTORE POP POP PUSH2 0x204 JUMP JUMPDEST DUP3 PUSH1 0x5 DUP2 ADD SWAP3 DUP3 ISZERO PUSH2 0x14F JUMPI SWAP2 PUSH1 0x20 MUL DUP3 ADD JUMPDEST DUP3 DUP2 GT ISZERO PUSH2 0x14E JUMPI DUP3 MLOAD DUP3 SWAP1 PUSH1 0xFF AND SWAP1 SSTORE SWAP2 PUSH1 0x20 ADD SWAP2 SWAP1 PUSH1 0x1 ADD SWAP1 PUSH2 0x12E JUMP JUMPDEST JUMPDEST POP SWAP1 POP PUSH2 0x15C SWAP2 SWAP1 PUSH2 0x160 JUMP JUMPDEST POP SWAP1 JUMP JUMPDEST JUMPDEST DUP1 DUP3 GT ISZERO PUSH2 0x177 JUMPI PUSH0 DUP2 PUSH0 SWAP1 SSTORE POP PUSH1 0x1 ADD PUSH2 0x161 JUMP JUMPDEST POP SWAP1 JUMP JUMPDEST PUSH0 DUP1 REVERT JUMPDEST PUSH0 PUSH20 0xFFFFFFFFFFFFFFFFFFFFFFFFFFFFFFFFFFFFFFFF DUP3 AND SWAP1 POP SWAP2 SWAP1 POP JUMP JUMPDEST PUSH0 PUSH2 0x1A8 DUP3 PUSH2 0x17F JUMP JUMPDEST SWAP1 POP SWAP2 SWAP1 POP JUMP JUMPDEST PUSH2 0x1B8 DUP2 PUSH2 0x19E JUMP JUMPDEST DUP2 EQ PUSH2 0x1C2 JUMPI PUSH0 DUP1 REVERT JUMPDEST POP JUMP JUMPDEST PUSH0 DUP2 MLOAD SWAP1 POP PUSH2 0x1D3 DUP2 PUSH2 0x1AF JUMP JUMPDEST SWAP3 SWAP2 POP POP JUMP JUMPDEST PUSH0 PUSH1 0x20 DUP3 DUP5 SUB SLT ISZERO PUSH2 0x1EE JUMPI PUSH2 0x1ED PUSH2 0x17B JUMP JUMPDEST JUMPDEST PUSH0 PUSH2 0x1FB DUP5 DUP3 DUP6 ADD PUSH2 0x1C5 JUMP JUMPDEST SWAP2 POP POP SWAP3 SWAP2 POP POP JUMP JUMPDEST PUSH2 0x2CED DUP1 PUSH2 0x211 PUSH0 CODECOPY PUSH0 RETURN INVALID PUSH1 0x80 PUSH1 0x40 MSTORE CALLVALUE DUP1 ISZERO PUSH2 0xF JUMPI PUSH0 DUP1 REVERT JUMPDEST POP PUSH1 0x4 CALLDATASIZE LT PUSH2 0x11F JUMPI PUSH0 CALLDATALOAD PUSH1 0xE0 SHR DUP1 PUSH4 0x8456CB59 GT PUSH2 0xAB JUMPI DUP1 PUSH4 0xCC3D967B GT PUSH2 0x6F JUMPI DUP1 PUSH4 0xCC3D967B EQ PUSH2 0x2D3 JUMPI DUP1 PUSH4 0xD9C842FD EQ PUSH2 0x309 JUMPI DUP1 PUSH4 0xDD191719 EQ PUSH2 0x339 JUMPI DUP1 PUSH4 0xF2FDE38B EQ PUSH2 0x343 JUMPI DUP1 PUSH4 0xF851A440 EQ PUSH2 0x35F JUMPI PUSH2 0x11F JUMP JUMPDEST DUP1 PUSH4 0x8456CB59 EQ PUSH2 0x239 JUMPI DUP1 PUSH4 0x8C546F81 EQ PUSH2 0x257 JUMPI DUP1 PUSH4 0x9E9AED62 EQ PUSH2 0x275 JUMPI DUP1 PUSH4 0xA87430BA EQ PUSH2 0x293 JUMPI DUP1 PUSH4 0xB0B62F5A EQ PUSH2 0x2C9 JUMPI PUSH2 0x11F JUMP JUMPDEST DUP1 PUSH4 0x50050769 GT PUSH2 0xF2 JUMPI DUP1 PUSH4 0x50050769 EQ PUSH2 0x1A9 JUMPI DUP1 PUSH4 0x5C975ABB EQ PUSH2 0x1C5 JUMPI DUP1 PUSH4 0x5DC68B0A EQ PUSH2 0x1CF JUMPI DUP1 PUSH4 0x64B4F751 EQ PUSH2 0x1FF JUMPI DUP1 PUSH4 0x6691461A EQ PUSH2 0x21D JUMPI PUSH2 0x11F JUMP JUMPDEST DUP1 PUSH4 0x4189250 EQ PUSH2 0x123 JUMPI DUP1 PUSH4 0x840605A EQ PUSH2 0x141 JUMPI DUP1 PUSH4 0x2E1A7D4D EQ PUSH2 0x15D JUMPI DUP1 PUSH4 0x4F404243 EQ PUSH2 0x179 JUMPI JUMPDEST PUSH0 DUP1 REVERT JUMPDEST PUSH2 0x12B PUSH2 0x37D JUMP JUMPDEST PUSH1 0x40 MLOAD PUSH2 0x138 SWAP2 SWAP1 PUSH2 0x1F2B JUMP JUMPDEST PUSH1 0x40 MLOAD DUP1 SWAP2 SUB SWAP1 RETURN JUMPDEST PUSH2 0x15B PUSH1 0x4 DUP1 CALLDATASIZE SUB DUP2 ADD SWAP1 PUSH2 0x156 SWAP2 SWAP1 PUSH2 0x1FA2 JUMP JUMPDEST PUSH2 0x383 JUMP JUMPDEST STOP JUMPDEST PUSH2 0x177 PUSH1 0x4 DUP1 CALLDATASIZE SUB DUP2 ADD SWAP1 PUSH2 0x172 SWAP2 SWAP1 PUSH2 0x1FF7 JUMP JUMPDEST PUSH2 0x91B JUMP JUMPDEST STOP JUMPDEST PUSH2 0x193 PUSH1 0x4 DUP1 CALLDATASIZE SUB DUP2 ADD SWAP1 PUSH2 0x18E SWAP2 SWAP1 PUSH2 0x1FA2 JUMP JUMPDEST PUSH2 0xAEA JUMP JUMPDEST PUSH1 0x40 MLOAD PUSH2 0x1A0 SWAP2 SWAP1 PUSH2 0x20D9 JUMP JUMPDEST PUSH1 0x40 MLOAD DUP1 SWAP2 SUB SWAP1 RETURN JUMPDEST PUSH2 0x1C3 PUSH1 0x4 DUP1 CALLDATASIZE SUB DUP2 ADD SWAP1 PUSH2 0x1BE SWAP2 SWAP1 PUSH2 0x1FF7 JUMP JUMPDEST PUSH2 0xBB5 JUMP JUMPDEST STOP JUMPDEST PUSH2 0x1CD PUSH2 0xCE6 JUMP JUMPDEST STOP JUMPDEST PUSH2 0x1E9 PUSH1 0x4 DUP1 CALLDATASIZE SUB DUP2 ADD SWAP1 PUSH2 0x1E4 SWAP2 SWAP1 PUSH2 0x1FF7 JUMP JUMPDEST PUSH2 0xD92 JUMP JUMPDEST PUSH1 0x40 MLOAD PUSH2 0x1F6 SWAP2 SWAP1 PUSH2 0x1F2B JUMP JUMPDEST PUSH1 0x40 MLOAD DUP1 SWAP2 SUB SWAP1 RETURN JUMPDEST PUSH2 0x207 PUSH2 0xDAB JUMP JUMPDEST PUSH1 0x40 MLOAD PUSH2 0x214 SWAP2 SWAP1 PUSH2 0x1F2B JUMP JUMPDEST PUSH1 0x40 MLOAD DUP1 SWAP2 SUB SWAP1 RETURN JUMPDEST PUSH2 0x237 PUSH1 0x4 DUP1 CALLDATASIZE SUB DUP2 ADD SWAP1 PUSH2 0x232 SWAP2 SWAP1 PUSH2 0x1FA2 JUMP JUMPDEST PUSH2 0xDB1 JUMP JUMPDEST STOP JUMPDEST PUSH2 0x241 PUSH2 0xF6C JUMP JUMPDEST PUSH1 0x40 MLOAD PUSH2 0x24E SWAP2 SWAP1 PUSH2 0x2113 JUMP JUMPDEST PUSH1 0x40 MLOAD DUP1 SWAP2 SUB SWAP1 RETURN JUMPDEST PUSH2 0x25F PUSH2 0xF7F JUMP JUMPDEST PUSH1 0x40 MLOAD PUSH2 0x26C SWAP2 SWAP1 PUSH2 0x2187 JUMP JUMPDEST PUSH1 0x40 MLOAD DUP1 SWAP2 SUB SWAP1 RETURN JUMPDEST PUSH2 0x27D PUSH2 0xFA4 JUMP JUMPDEST PUSH1 0x40 MLOAD PUSH2 0x28A SWAP2 SWAP1 PUSH2 0x1F2B JUMP JUMPDEST PUSH1 0x40 MLOAD DUP1 SWAP2 SUB SWAP1 RETURN JUMPDEST PUSH2 0x2AD PUSH1 0x4 DUP1 CALLDATASIZE SUB DUP2 ADD SWAP1 PUSH2 0x2A8 SWAP2 SWAP1 PUSH2 0x1FA2 JUMP JUMPDEST PUSH2 0x1043 JUMP JUMPDEST PUSH1 0x40 MLOAD PUSH2 0x2C0 SWAP8 SWAP7 SWAP6 SWAP5 SWAP4 SWAP3 SWAP2 SWAP1 PUSH2 0x21AF JUMP JUMPDEST PUSH1 0x40 MLOAD DUP1 SWAP2 SUB SWAP1 RETURN JUMPDEST PUSH2 0x2D1 PUSH2 0x10AC JUMP JUMPDEST STOP JUMPDEST PUSH2 0x2ED PUSH1 0x4 DUP1 CALLDATASIZE SUB DUP2 ADD SWAP1 PUSH2 0x2E8 SWAP2 SWAP1 PUSH2 0x1FA2 JUMP JUMPDEST PUSH2 0x1157 JUMP JUMPDEST PUSH1 0x40 MLOAD PUSH2 0x300 SWAP8 SWAP7 SWAP6 SWAP5 SWAP4 SWAP3 SWAP2 SWAP1 PUSH2 0x221C JUMP JUMPDEST PUSH1 0x40 MLOAD DUP1 SWAP2 SUB SWAP1 RETURN JUMPDEST PUSH2 0x323 PUSH1 0x4 DUP1 CALLDATASIZE SUB DUP2 ADD SWAP1 PUSH2 0x31E SWAP2 SWAP1 PUSH2 0x2289 JUMP JUMPDEST PUSH2 0x1205 JUMP JUMPDEST PUSH1 0x40 MLOAD PUSH2 0x330 SWAP2 SWAP1 PUSH2 0x20D9 JUMP JUMPDEST PUSH1 0x40 MLOAD DUP1 SWAP2 SUB SWAP1 RETURN JUMPDEST PUSH2 0x341 PUSH2 0x137F JUMP JUMPDEST STOP JUMPDEST PUSH2 0x35D PUSH1 0x4 DUP1 CALLDATASIZE SUB DUP2 ADD SWAP1 PUSH2 0x358 SWAP2 SWAP1 PUSH2 0x1FA2 JUMP JUMPDEST PUSH2 0x1628 JUMP JUMPDEST STOP JUMPDEST PUSH2 0x367 PUSH2 0x1877 JUMP JUMPDEST PUSH1 0x40 MLOAD PUSH2 0x374 SWAP2 SWAP1 PUSH2 0x22D9 JUMP JUMPDEST PUSH1 0x40 MLOAD DUP1 SWAP2 SUB SWAP1 RETURN JUMPDEST PUSH1 0x9 SLOAD DUP2 JUMP JUMPDEST PUSH1 0x2 PUSH1 0x14 SWAP1 SLOAD SWAP1 PUSH2 0x100 EXP SWAP1 DIV PUSH1 0xFF AND ISZERO PUSH2 0x3D3 JUMPI PUSH1 0x40 MLOAD PUSH32 0x8C379A000000000000000000000000000000000000000000000000000000000 DUP2 MSTORE PUSH1 0x4 ADD PUSH2 0x3CA SWAP1 PUSH2 0x234C JUMP JUMPDEST PUSH1 0x40 MLOAD DUP1 SWAP2 SUB SWAP1 REVERT JUMPDEST PUSH2 0x3DB PUSH2 0x189C JUMP JUMPDEST PUSH0 PUSH20 0xFFFFFFFFFFFFFFFFFFFFFFFFFFFFFFFFFFFFFFFF AND CALLER PUSH20 0xFFFFFFFFFFFFFFFFFFFFFFFFFFFFFFFFFFFFFFFF AND SUB PUSH2 0x449 JUMPI PUSH1 0x40 MLOAD PUSH32 0x8C379A000000000000000000000000000000000000000000000000000000000 DUP2 MSTORE PUSH1 0x4 ADD PUSH2 0x440 SWAP1 PUSH2 0x23B4 JUMP JUMPDEST PUSH1 0x40 MLOAD DUP1 SWAP2 SUB SWAP1 REVERT JUMPDEST PUSH0 PUSH20 0xFFFFFFFFFFFFFFFFFFFFFFFFFFFFFFFFFFFFFFFF AND DUP2 PUSH20 0xFFFFFFFFFFFFFFFFFFFFFFFFFFFFFFFFFFFFFFFF AND SUB PUSH2 0x4B7 JUMPI PUSH1 0x40 MLOAD PUSH32 0x8C379A000000000000000000000000000000000000000000000000000000000 DUP2 MSTORE PUSH1 0x4 ADD PUSH2 0x4AE SWAP1 PUSH2 0x241C JUMP JUMPDEST PUSH1 0x40 MLOAD DUP1 SWAP2 SUB SWAP1 REVERT JUMPDEST PUSH1 0x3 SLOAD PUSH1 0x1 PUSH0 SWAP1 SLOAD SWAP1 PUSH2 0x100 EXP SWAP1 DIV PUSH20 0xFFFFFFFFFFFFFFFFFFFFFFFFFFFFFFFFFFFFFFFF AND PUSH20 0xFFFFFFFFFFFFFFFFFFFFFFFFFFFFFFFFFFFFFFFF AND PUSH4 0x70A08231 CALLER PUSH1 0x40 MLOAD DUP3 PUSH4 0xFFFFFFFF AND PUSH1 0xE0 SHL DUP2 MSTORE PUSH1 0x4 ADD PUSH2 0x514 SWAP2 SWAP1 PUSH2 0x22D9 JUMP JUMPDEST PUSH1 0x20 PUSH1 0x40 MLOAD DUP1 DUP4 SUB DUP2 DUP7 GAS STATICCALL ISZERO DUP1 ISZERO PUSH2 0x52F JUMPI RETURNDATASIZE PUSH0 DUP1 RETURNDATACOPY RETURNDATASIZE PUSH0 REVERT JUMPDEST POP POP POP POP PUSH1 0x40 MLOAD RETURNDATASIZE PUSH1 0x1F NOT PUSH1 0x1F DUP3 ADD AND DUP3 ADD DUP1 PUSH1 0x40 MSTORE POP DUP2 ADD SWAP1 PUSH2 0x553 SWAP2 SWAP1 PUSH2 0x244E JUMP JUMPDEST LT ISZERO PUSH2 0x594 JUMPI PUSH1 0x40 MLOAD PUSH32 0x8C379A000000000000000000000000000000000000000000000000000000000 DUP2 MSTORE PUSH1 0x4 ADD PUSH2 0x58B SWAP1 PUSH2 0x24C3 JUMP JUMPDEST PUSH1 0x40 MLOAD DUP1 SWAP2 SUB SWAP1 REVERT JUMPDEST PUSH1 0xA PUSH0 DUP3 PUSH20 0xFFFFFFFFFFFFFFFFFFFFFFFFFFFFFFFFFFFFFFFF AND PUSH20 0xFFFFFFFFFFFFFFFFFFFFFFFFFFFFFFFFFFFFFFFF AND DUP2 MSTORE PUSH1 0x20 ADD SWAP1 DUP2 MSTORE PUSH1 0x20 ADD PUSH0 KECCAK256 PUSH1 0x2 ADD PUSH0 SWAP1 SLOAD SWAP1 PUSH2 0x100 EXP SWAP1 DIV PUSH1 0xFF AND PUSH2 0x620 JUMPI PUSH1 0x40 MLOAD PUSH32 0x8C379A000000000000000000000000000000000000000000000000000000000 DUP2 MSTORE PUSH1 0x4 ADD PUSH2 0x617 SWAP1 PUSH2 0x252B JUMP JUMPDEST PUSH1 0x40 MLOAD DUP1 SWAP2 SUB SWAP1 REVERT JUMPDEST CALLER PUSH20 0xFFFFFFFFFFFFFFFFFFFFFFFFFFFFFFFFFFFFFFFF AND DUP2 PUSH20 0xFFFFFFFFFFFFFFFFFFFFFFFFFFFFFFFFFFFFFFFF AND SUB PUSH2 0x68E JUMPI PUSH1 0x40 MLOAD PUSH32 0x8C379A000000000000000000000000000000000000000000000000000000000 DUP2 MSTORE PUSH1 0x4 ADD PUSH2 0x685 SWAP1 PUSH2 0x2593 JUMP JUMPDEST PUSH1 0x40 MLOAD DUP1 SWAP2 SUB SWAP1 REVERT JUMPDEST PUSH1 0xA PUSH0 CALLER PUSH20 0xFFFFFFFFFFFFFFFFFFFFFFFFFFFFFFFFFFFFFFFF AND PUSH20 0xFFFFFFFFFFFFFFFFFFFFFFFFFFFFFFFFFFFFFFFF AND DUP2 MSTORE PUSH1 0x20 ADD SWAP1 DUP2 MSTORE PUSH1 0x20 ADD PUSH0 KECCAK256 PUSH1 0x2 ADD PUSH0 SWAP1 SLOAD SWAP1 PUSH2 0x100 EXP SWAP1 DIV PUSH1 0xFF AND ISZERO PUSH2 0x71B JUMPI PUSH1 0x40 MLOAD PUSH32 0x8C379A000000000000000000000000000000000000000000000000000000000 DUP2 MSTORE PUSH1 0x4 ADD PUSH2 0x712 SWAP1 PUSH2 0x25FB JUMP JUMPDEST PUSH1 0x40 MLOAD DUP1 SWAP2 SUB SWAP1 REVERT JUMPDEST PUSH1 0x1 PUSH0 SWAP1 SLOAD SWAP1 PUSH2 0x100 EXP SWAP1 DIV PUSH20 0xFFFFFFFFFFFFFFFFFFFFFFFFFFFFFFFFFFFFFFFF AND PUSH20 0xFFFFFFFFFFFFFFFFFFFFFFFFFFFFFFFFFFFFFFFF AND PUSH4 0x23B872DD CALLER ADDRESS PUSH1 0x3 SLOAD PUSH1 0x40 MLOAD DUP5 PUSH4 0xFFFFFFFF AND PUSH1 0xE0 SHL DUP2 MSTORE PUSH1 0x4 ADD PUSH2 0x77B SWAP4 SWAP3 SWAP2 SWAP1 PUSH2 0x2619 JUMP JUMPDEST PUSH1 0x20 PUSH1 0x40 MLOAD DUP1 DUP4 SUB DUP2 PUSH0 DUP8 GAS CALL ISZERO DUP1 ISZERO PUSH2 0x797 JUMPI RETURNDATASIZE PUSH0 DUP1 RETURNDATACOPY RETURNDATASIZE PUSH0 REVERT JUMPDEST POP POP POP POP PUSH1 0x40 MLOAD RETURNDATASIZE PUSH1 0x1F NOT PUSH1 0x1F DUP3 ADD AND DUP3 ADD DUP1 PUSH1 0x40 MSTORE POP DUP2 ADD SWAP1 PUSH2 0x7BB SWAP2 SWAP1 PUSH2 0x2678 JUMP JUMPDEST PUSH2 0x7FA JUMPI PUSH1 0x40 MLOAD PUSH32 0x8C379A000000000000000000000000000000000000000000000000000000000 DUP2 MSTORE PUSH1 0x4 ADD PUSH2 0x7F1 SWAP1 PUSH2 0x26ED JUMP JUMPDEST PUSH1 0x40 MLOAD DUP1 SWAP2 SUB SWAP1 REVERT JUMPDEST PUSH0 PUSH1 0xA PUSH0 CALLER PUSH20 0xFFFFFFFFFFFFFFFFFFFFFFFFFFFFFFFFFFFFFFFF AND PUSH20 0xFFFFFFFFFFFFFFFFFFFFFFFFFFFFFFFFFFFFFFFF AND DUP2 MSTORE PUSH1 0x20 ADD SWAP1 DUP2 MSTORE PUSH1 0x20 ADD PUSH0 KECCAK256 SWAP1 POP DUP2 DUP2 PUSH0 ADD PUSH0 PUSH2 0x100 EXP DUP2 SLOAD DUP2 PUSH20 0xFFFFFFFFFFFFFFFFFFFFFFFFFFFFFFFFFFFFFFFF MUL NOT AND SWAP1 DUP4 PUSH20 0xFFFFFFFFFFFFFFFFFFFFFFFFFFFFFFFFFFFFFFFF AND MUL OR SWAP1 SSTORE POP PUSH1 0x1 DUP2 PUSH1 0x2 ADD PUSH0 PUSH2 0x100 EXP DUP2 SLOAD DUP2 PUSH1 0xFF MUL NOT AND SWAP1 DUP4 ISZERO ISZERO MUL OR SWAP1 SSTORE POP TIMESTAMP DUP2 PUSH1 0x4 ADD DUP2 SWAP1 SSTORE POP DUP2 PUSH20 0xFFFFFFFFFFFFFFFFFFFFFFFFFFFFFFFFFFFFFFFF AND CALLER PUSH20 0xFFFFFFFFFFFFFFFFFFFFFFFFFFFFFFFFFFFFFFFF AND PUSH32 0x199098452639B249BEF6F727BC09CE903CECE47CA72A8518BEF9367AD39B6DE7 TIMESTAMP PUSH1 0x40 MLOAD PUSH2 0x8FD SWAP2 SWAP1 PUSH2 0x1F2B JUMP JUMPDEST PUSH1 0x40 MLOAD DUP1 SWAP2 SUB SWAP1 LOG3 PUSH2 0x90F DUP3 CALLER PUSH2 0x18E9 JUMP JUMPDEST POP PUSH2 0x918 PUSH2 0x1E8C JUMP JUMPDEST POP JUMP JUMPDEST PUSH2 0x923 PUSH2 0x189C JUMP JUMPDEST PUSH1 0x2 PUSH0 SWAP1 SLOAD SWAP1 PUSH2 0x100 EXP SWAP1 DIV PUSH20 0xFFFFFFFFFFFFFFFFFFFFFFFFFFFFFFFFFFFFFFFF AND PUSH20 0xFFFFFFFFFFFFFFFFFFFFFFFFFFFFFFFFFFFFFFFF AND CALLER PUSH20 0xFFFFFFFFFFFFFFFFFFFFFFFFFFFFFFFFFFFFFFFF AND EQ PUSH2 0x9B2 JUMPI PUSH1 0x40 MLOAD PUSH32 0x8C379A000000000000000000000000000000000000000000000000000000000 DUP2 MSTORE PUSH1 0x4 ADD PUSH2 0x9A9 SWAP1 PUSH2 0x277B JUMP JUMPDEST PUSH1 0x40 MLOAD DUP1 SWAP2 SUB SWAP1 REVERT JUMPDEST PUSH1 0x1 PUSH0 SWAP1 SLOAD SWAP1 PUSH2 0x100 EXP SWAP1 DIV PUSH20 0xFFFFFFFFFFFFFFFFFFFFFFFFFFFFFFFFFFFFFFFF AND PUSH20 0xFFFFFFFFFFFFFFFFFFFFFFFFFFFFFFFFFFFFFFFF AND PUSH4 0xA9059CBB PUSH1 0x2 PUSH0 SWAP1 SLOAD SWAP1 PUSH2 0x100 EXP SWAP1 DIV PUSH20 0xFFFFFFFFFFFFFFFFFFFFFFFFFFFFFFFFFFFFFFFF AND DUP4 PUSH1 0x40 MLOAD DUP4 PUSH4 0xFFFFFFFF AND PUSH1 0xE0 SHL DUP2 MSTORE PUSH1 0x4 ADD PUSH2 0xA2F SWAP3 SWAP2 SWAP1 PUSH2 0x2799 JUMP JUMPDEST PUSH1 0x20 PUSH1 0x40 MLOAD DUP1 DUP4 SUB DUP2 PUSH0 DUP8 GAS CALL ISZERO DUP1 ISZERO PUSH2 0xA4B JUMPI RETURNDATASIZE PUSH0 DUP1 RETURNDATACOPY RETURNDATASIZE PUSH0 REVERT JUMPDEST POP POP POP POP PUSH1 0x40 MLOAD RETURNDATASIZE PUSH1 0x1F NOT PUSH1 0x1F DUP3 ADD AND DUP3 ADD DUP1 PUSH1 0x40 MSTORE POP DUP2 ADD SWAP1 PUSH2 0xA6F SWAP2 SWAP1 PUSH2 0x2678 JUMP JUMPDEST POP PUSH1 0x2 PUSH0 SWAP1 SLOAD SWAP1 PUSH2 0x100 EXP SWAP1 DIV PUSH20 0xFFFFFFFFFFFFFFFFFFFFFFFFFFFFFFFFFFFFFFFF AND PUSH20 0xFFFFFFFFFFFFFFFFFFFFFFFFFFFFFFFFFFFFFFFF AND PUSH32 0x884EDAD9CE6FA2440D8A54CC123490EB96D2768479D49FF9C7366125A9424364 DUP3 PUSH1 0x40 MLOAD PUSH2 0xAD7 SWAP2 SWAP1 PUSH2 0x1F2B JUMP JUMPDEST PUSH1 0x40 MLOAD DUP1 SWAP2 SUB SWAP1 LOG2 PUSH2 0xAE7 PUSH2 0x1E8C JUMP JUMPDEST POP JUMP JUMPDEST PUSH1 0x60 PUSH1 0xA PUSH0 DUP4 PUSH20 0xFFFFFFFFFFFFFFFFFFFFFFFFFFFFFFFFFFFFFFFF AND PUSH20 0xFFFFFFFFFFFFFFFFFFFFFFFFFFFFFFFFFFFFFFFF AND DUP2 MSTORE PUSH1 0x20 ADD SWAP1 DUP2 MSTORE PUSH1 0x20 ADD PUSH0 KECCAK256 PUSH1 0x8 ADD DUP1 SLOAD DUP1 PUSH1 0x20 MUL PUSH1 0x20 ADD PUSH1 0x40 MLOAD SWAP1 DUP2 ADD PUSH1 0x40 MSTORE DUP1 SWAP3 SWAP2 SWAP1 DUP2 DUP2 MSTORE PUSH1 0x20 ADD DUP3 DUP1 SLOAD DUP1 ISZERO PUSH2 0xBA9 JUMPI PUSH1 0x20 MUL DUP3 ADD SWAP2 SWAP1 PUSH0 MSTORE PUSH1 0x20 PUSH0 KECCAK256 SWAP1 JUMPDEST DUP2 PUSH0 SWAP1 SLOAD SWAP1 PUSH2 0x100 EXP SWAP1 DIV PUSH20 0xFFFFFFFFFFFFFFFFFFFFFFFFFFFFFFFFFFFFFFFF AND PUSH20 0xFFFFFFFFFFFFFFFFFFFFFFFFFFFFFFFFFFFFFFFF AND DUP2 MSTORE PUSH1 0x20 ADD SWAP1 PUSH1 0x1 ADD SWAP1 DUP1 DUP4 GT PUSH2 0xB60 JUMPI JUMPDEST POP POP POP POP POP SWAP1 POP SWAP2 SWAP1 POP JUMP JUMPDEST PUSH1 0x2 PUSH0 SWAP1 SLOAD SWAP1 PUSH2 0x100 EXP SWAP1 DIV PUSH20 0xFFFFFFFFFFFFFFFFFFFFFFFFFFFFFFFFFFFFFFFF AND PUSH20 0xFFFFFFFFFFFFFFFFFFFFFFFFFFFFFFFFFFFFFFFF AND CALLER PUSH20 0xFFFFFFFFFFFFFFFFFFFFFFFFFFFFFFFFFFFFFFFF AND EQ PUSH2 0xC44 JUMPI PUSH1 0x40 MLOAD PUSH32 0x8C379A000000000000000000000000000000000000000000000000000000000 DUP2 MSTORE PUSH1 0x4 ADD PUSH2 0xC3B SWAP1 PUSH2 0x277B JUMP JUMPDEST PUSH1 0x40 MLOAD DUP1 SWAP2 SUB SWAP1 REVERT JUMPDEST PUSH1 0x63 DUP2 LT PUSH2 0xC87 JUMPI PUSH1 0x40 MLOAD PUSH32 0x8C379A000000000000000000000000000000000000000000000000000000000 DUP2 MSTORE PUSH1 0x4 ADD PUSH2 0xC7E SWAP1 PUSH2 0x280A JUMP JUMPDEST PUSH1 0x40 MLOAD DUP1 SWAP2 SUB SWAP1 REVERT JUMPDEST PUSH0 PUSH1 0x3 SLOAD SWAP1 POP PUSH8 0xDE0B6B3A7640000 DUP3 PUSH2 0xCA1 SWAP2 SWAP1 PUSH2 0x2855 JUMP JUMPDEST PUSH1 0x3 DUP2 SWAP1 SSTORE POP PUSH32 0x50B218C5A101AD05D53AB0A964D01DA639EE79525AE4B7802ED714249740A8D5 DUP2 PUSH1 0x3 SLOAD PUSH1 0x40 MLOAD PUSH2 0xCDA SWAP3 SWAP2 SWAP1 PUSH2 0x2896 JUMP JUMPDEST PUSH1 0x40 MLOAD DUP1 SWAP2 SUB SWAP1 LOG1 POP POP JUMP JUMPDEST PUSH1 0x2 PUSH0 SWAP1 SLOAD SWAP1 PUSH2 0x100 EXP SWAP1 DIV PUSH20 0xFFFFFFFFFFFFFFFFFFFFFFFFFFFFFFFFFFFFFFFF AND PUSH20 0xFFFFFFFFFFFFFFFFFFFFFFFFFFFFFFFFFFFFFFFF AND CALLER PUSH20 0xFFFFFFFFFFFFFFFFFFFFFFFFFFFFFFFFFFFFFFFF AND EQ PUSH2 0xD75 JUMPI PUSH1 0x40 MLOAD PUSH32 0x8C379A000000000000000000000000000000000000000000000000000000000 DUP2 MSTORE PUSH1 0x4 ADD PUSH2 0xD6C SWAP1 PUSH2 0x277B JUMP JUMPDEST PUSH1 0x40 MLOAD DUP1 SWAP2 SUB SWAP1 REVERT JUMPDEST PUSH1 0x1 PUSH1 0x2 PUSH1 0x14 PUSH2 0x100 EXP DUP2 SLOAD DUP2 PUSH1 0xFF MUL NOT AND SWAP1 DUP4 ISZERO ISZERO MUL OR SWAP1 SSTORE POP JUMP JUMPDEST PUSH1 0x4 DUP2 PUSH1 0x5 DUP2 LT PUSH2 0xDA1 JUMPI PUSH0 DUP1 REVERT JUMPDEST ADD PUSH0 SWAP2 POP SWAP1 POP SLOAD DUP2 JUMP JUMPDEST PUSH1 0x3 SLOAD DUP2 JUMP JUMPDEST PUSH1 0x2 PUSH0 SWAP1 SLOAD SWAP1 PUSH2 0x100 EXP SWAP1 DIV PUSH20 0xFFFFFFFFFFFFFFFFFFFFFFFFFFFFFFFFFFFFFFFF AND PUSH20 0xFFFFFFFFFFFFFFFFFFFFFFFFFFFFFFFFFFFFFFFF AND CALLER PUSH20 0xFFFFFFFFFFFFFFFFFFFFFFFFFFFFFFFFFFFFFFFF AND EQ PUSH2 0xE40 JUMPI PUSH1 0x40 MLOAD PUSH32 0x8C379A000000000000000000000000000000000000000000000000000000000 DUP2 MSTORE PUSH1 0x4 ADD PUSH2 0xE37 SWAP1 PUSH2 0x277B JUMP JUMPDEST PUSH1 0x40 MLOAD DUP1 SWAP2 SUB SWAP1 REVERT JUMPDEST PUSH0 PUSH20 0xFFFFFFFFFFFFFFFFFFFFFFFFFFFFFFFFFFFFFFFF AND DUP2 PUSH20 0xFFFFFFFFFFFFFFFFFFFFFFFFFFFFFFFFFFFFFFFF AND SUB PUSH2 0xEAE JUMPI PUSH1 0x40 MLOAD PUSH32 0x8C379A000000000000000000000000000000000000000000000000000000000 DUP2 MSTORE PUSH1 0x4 ADD PUSH2 0xEA5 SWAP1 PUSH2 0x2907 JUMP JUMPDEST PUSH1 0x40 MLOAD DUP1 SWAP2 SUB SWAP1 REVERT JUMPDEST DUP1 PUSH1 0x1 PUSH0 PUSH2 0x100 EXP DUP2 SLOAD DUP2 PUSH20 0xFFFFFFFFFFFFFFFFFFFFFFFFFFFFFFFFFFFFFFFF MUL NOT AND SWAP1 DUP4 PUSH20 0xFFFFFFFFFFFFFFFFFFFFFFFFFFFFFFFFFFFFFFFF AND MUL OR SWAP1 SSTORE POP DUP1 PUSH20 0xFFFFFFFFFFFFFFFFFFFFFFFFFFFFFFFFFFFFFFFF AND PUSH1 0x1 PUSH0 SWAP1 SLOAD SWAP1 PUSH2 0x100 EXP SWAP1 DIV PUSH20 0xFFFFFFFFFFFFFFFFFFFFFFFFFFFFFFFFFFFFFFFF AND PUSH20 0xFFFFFFFFFFFFFFFFFFFFFFFFFFFFFFFFFFFFFFFF AND PUSH32 0xB1186973F810894B87AB0BFBEE422FDDCAAD21B46DC705A561451BBB6BAC117 PUSH1 0x40 MLOAD PUSH1 0x40 MLOAD DUP1 SWAP2 SUB SWAP1 LOG3 POP JUMP JUMPDEST PUSH1 0x2 PUSH1 0x14 SWAP1 SLOAD SWAP1 PUSH2 0x100 EXP SWAP1 DIV PUSH1 0xFF AND DUP2 JUMP JUMPDEST PUSH1 0x1 PUSH0 SWAP1 SLOAD SWAP1 PUSH2 0x100 EXP SWAP1 DIV PUSH20 0xFFFFFFFFFFFFFFFFFFFFFFFFFFFFFFFFFFFFFFFF AND DUP2 JUMP JUMPDEST PUSH0 PUSH1 0x1 PUSH0 SWAP1 SLOAD SWAP1 PUSH2 0x100 EXP SWAP1 DIV PUSH20 0xFFFFFFFFFFFFFFFFFFFFFFFFFFFFFFFFFFFFFFFF AND PUSH20 0xFFFFFFFFFFFFFFFFFFFFFFFFFFFFFFFFFFFFFFFF AND PUSH4 0x70A08231 ADDRESS PUSH1 0x40 MLOAD DUP3 PUSH4 0xFFFFFFFF AND PUSH1 0xE0 SHL DUP2 MSTORE PUSH1 0x4 ADD PUSH2 0xFFF SWAP2 SWAP1 PUSH2 0x22D9 JUMP JUMPDEST PUSH1 0x20 PUSH1 0x40 MLOAD DUP1 DUP4 SUB DUP2 DUP7 GAS STATICCALL ISZERO DUP1 ISZERO PUSH2 0x101A JUMPI RETURNDATASIZE PUSH0 DUP1 RETURNDATACOPY RETURNDATASIZE PUSH0 REVERT JUMPDEST POP POP POP POP PUSH1 0x40 MLOAD RETURNDATASIZE PUSH1 0x1F NOT PUSH1 0x1F DUP3 ADD AND DUP3 ADD DUP1 PUSH1 0x40 MSTORE POP DUP2 ADD SWAP1 PUSH2 0x103E SWAP2 SWAP1 PUSH2 0x244E JUMP JUMPDEST SWAP1 POP SWAP1 JUMP JUMPDEST PUSH1 0xA PUSH1 0x20 MSTORE DUP1 PUSH0 MSTORE PUSH1 0x40 PUSH0 KECCAK256 PUSH0 SWAP2 POP SWAP1 POP DUP1 PUSH0 ADD PUSH0 SWAP1 SLOAD SWAP1 PUSH2 0x100 EXP SWAP1 DIV PUSH20 0xFFFFFFFFFFFFFFFFFFFFFFFFFFFFFFFFFFFFFFFF AND SWAP1 DUP1 PUSH1 0x1 ADD SLOAD SWAP1 DUP1 PUSH1 0x2 ADD PUSH0 SWAP1 SLOAD SWAP1 PUSH2 0x100 EXP SWAP1 DIV PUSH1 0xFF AND SWAP1 DUP1 PUSH1 0x3 ADD SLOAD SWAP1 DUP1 PUSH1 0x4 ADD SLOAD SWAP1 DUP1 PUSH1 0x6 ADD SLOAD SWAP1 DUP1 PUSH1 0x7 ADD SLOAD SWAP1 POP DUP8 JUMP JUMPDEST PUSH1 0x2 PUSH0 SWAP1 SLOAD SWAP1 PUSH2 0x100 EXP SWAP1 DIV PUSH20 0xFFFFFFFFFFFFFFFFFFFFFFFFFFFFFFFFFFFFFFFF AND PUSH20 0xFFFFFFFFFFFFFFFFFFFFFFFFFFFFFFFFFFFFFFFF AND CALLER PUSH20 0xFFFFFFFFFFFFFFFFFFFFFFFFFFFFFFFFFFFFFFFF AND EQ PUSH2 0x113B JUMPI PUSH1 0x40 MLOAD PUSH32 0x8C379A000000000000000000000000000000000000000000000000000000000 DUP2 MSTORE PUSH1 0x4 ADD PUSH2 0x1132 SWAP1 PUSH2 0x277B JUMP JUMPDEST PUSH1 0x40 MLOAD DUP1 SWAP2 SUB SWAP1 REVERT JUMPDEST PUSH0 PUSH1 0x2 PUSH1 0x14 PUSH2 0x100 EXP DUP2 SLOAD DUP2 PUSH1 0xFF MUL NOT AND SWAP1 DUP4 ISZERO ISZERO MUL OR SWAP1 SSTORE POP JUMP JUMPDEST PUSH0 DUP1 PUSH0 DUP1 PUSH0 DUP1 PUSH0 DUP1 PUSH1 0xA PUSH0 DUP11 PUSH20 0xFFFFFFFFFFFFFFFFFFFFFFFFFFFFFFFFFFFFFFFF AND PUSH20 0xFFFFFFFFFFFFFFFFFFFFFFFFFFFFFFFFFFFFFFFF AND DUP2 MSTORE PUSH1 0x20 ADD SWAP1 DUP2 MSTORE PUSH1 0x20 ADD PUSH0 KECCAK256 SWAP1 POP DUP1 PUSH0 ADD PUSH0 SWAP1 SLOAD SWAP1 PUSH2 0x100 EXP SWAP1 DIV PUSH20 0xFFFFFFFFFFFFFFFFFFFFFFFFFFFFFFFFFFFFFFFF AND DUP2 PUSH1 0x1 ADD SLOAD DUP3 PUSH1 0x3 ADD SLOAD DUP4 PUSH1 0x6 ADD SLOAD DUP5 PUSH1 0x7 ADD SLOAD DUP6 PUSH1 0x2 ADD PUSH0 SWAP1 SLOAD SWAP1 PUSH2 0x100 EXP SWAP1 DIV PUSH1 0xFF AND DUP7 PUSH1 0x4 ADD SLOAD SWAP8 POP SWAP8 POP SWAP8 POP SWAP8 POP SWAP8 POP SWAP8 POP SWAP8 POP POP SWAP2 SWAP4 SWAP6 SWAP8 SWAP1 SWAP3 SWAP5 SWAP7 POP JUMP JUMPDEST PUSH1 0x60 PUSH0 PUSH1 0xA PUSH0 DUP7 PUSH20 0xFFFFFFFFFFFFFFFFFFFFFFFFFFFFFFFFFFFFFFFF AND PUSH20 0xFFFFFFFFFFFFFFFFFFFFFFFFFFFFFFFFFFFFFFFF AND DUP2 MSTORE PUSH1 0x20 ADD SWAP1 DUP2 MSTORE PUSH1 0x20 ADD PUSH0 KECCAK256 PUSH1 0x5 ADD SWAP1 POP PUSH0 DUP4 DUP6 PUSH2 0x1257 SWAP2 SWAP1 PUSH2 0x2925 JUMP JUMPDEST SWAP1 POP DUP2 DUP1 SLOAD SWAP1 POP DUP2 GT ISZERO PUSH2 0x126D JUMPI DUP2 DUP1 SLOAD SWAP1 POP SWAP1 POP JUMPDEST PUSH0 DUP6 DUP3 PUSH2 0x127A SWAP2 SWAP1 PUSH2 0x2958 JUMP JUMPDEST PUSH8 0xFFFFFFFFFFFFFFFF DUP2 GT ISZERO PUSH2 0x1293 JUMPI PUSH2 0x1292 PUSH2 0x298B JUMP JUMPDEST JUMPDEST PUSH1 0x40 MLOAD SWAP1 DUP1 DUP3 MSTORE DUP1 PUSH1 0x20 MUL PUSH1 0x20 ADD DUP3 ADD PUSH1 0x40 MSTORE DUP1 ISZERO PUSH2 0x12C1 JUMPI DUP2 PUSH1 0x20 ADD PUSH1 0x20 DUP3 MUL DUP1 CALLDATASIZE DUP4 CALLDATACOPY DUP1 DUP3 ADD SWAP2 POP POP SWAP1 POP JUMPDEST POP SWAP1 POP PUSH0 DUP7 SWAP1 POP JUMPDEST DUP3 DUP2 LT ISZERO PUSH2 0x1371 JUMPI DUP4 DUP2 DUP2 SLOAD DUP2 LT PUSH2 0x12E4 JUMPI PUSH2 0x12E3 PUSH2 0x29B8 JUMP JUMPDEST JUMPDEST SWAP1 PUSH0 MSTORE PUSH1 0x20 PUSH0 KECCAK256 ADD PUSH0 SWAP1 SLOAD SWAP1 PUSH2 0x100 EXP SWAP1 DIV PUSH20 0xFFFFFFFFFFFFFFFFFFFFFFFFFFFFFFFFFFFFFFFF AND DUP3 DUP9 DUP4 PUSH2 0x1319 SWAP2 SWAP1 PUSH2 0x2958 JUMP JUMPDEST DUP2 MLOAD DUP2 LT PUSH2 0x132A JUMPI PUSH2 0x1329 PUSH2 0x29B8 JUMP JUMPDEST JUMPDEST PUSH1 0x20 MUL PUSH1 0x20 ADD ADD SWAP1 PUSH20 0xFFFFFFFFFFFFFFFFFFFFFFFFFFFFFFFFFFFFFFFF AND SWAP1 DUP2 PUSH20 0xFFFFFFFFFFFFFFFFFFFFFFFFFFFFFFFFFFFFFFFF AND DUP2 MSTORE POP POP DUP1 DUP1 PUSH1 0x1 ADD SWAP2 POP POP PUSH2 0x12C9 JUMP JUMPDEST POP DUP1 SWAP4 POP POP POP POP SWAP4 SWAP3 POP POP POP JUMP JUMPDEST PUSH1 0x2 PUSH0 SWAP1 SLOAD SWAP1 PUSH2 0x100 EXP SWAP1 DIV PUSH20 0xFFFFFFFFFFFFFFFFFFFFFFFFFFFFFFFFFFFFFFFF AND PUSH20 0xFFFFFFFFFFFFFFFFFFFFFFFFFFFFFFFFFFFFFFFF AND CALLER PUSH20 0xFFFFFFFFFFFFFFFFFFFFFFFFFFFFFFFFFFFFFFFF AND EQ PUSH2 0x140E JUMPI PUSH1 0x40 MLOAD PUSH32 0x8C379A000000000000000000000000000000000000000000000000000000000 DUP2 MSTORE PUSH1 0x4 ADD PUSH2 0x1405 SWAP1 PUSH2 0x277B JUMP JUMPDEST PUSH1 0x40 MLOAD DUP1 SWAP2 SUB SWAP1 REVERT JUMPDEST PUSH2 0x1416 PUSH2 0x189C JUMP JUMPDEST PUSH0 PUSH1 0x1 PUSH0 SWAP1 SLOAD SWAP1 PUSH2 0x100 EXP SWAP1 DIV PUSH20 0xFFFFFFFFFFFFFFFFFFFFFFFFFFFFFFFFFFFFFFFF AND PUSH20 0xFFFFFFFFFFFFFFFFFFFFFFFFFFFFFFFFFFFFFFFF AND PUSH4 0x70A08231 ADDRESS PUSH1 0x40 MLOAD DUP3 PUSH4 0xFFFFFFFF AND PUSH1 0xE0 SHL DUP2 MSTORE PUSH1 0x4 ADD PUSH2 0x1471 SWAP2 SWAP1 PUSH2 0x22D9 JUMP JUMPDEST PUSH1 0x20 PUSH1 0x40 MLOAD DUP1 DUP4 SUB DUP2 DUP7 GAS STATICCALL ISZERO DUP1 ISZERO PUSH2 0x148C JUMPI RETURNDATASIZE PUSH0 DUP1 RETURNDATACOPY RETURNDATASIZE PUSH0 REVERT JUMPDEST POP POP POP POP PUSH1 0x40 MLOAD RETURNDATASIZE PUSH1 0x1F NOT PUSH1 0x1F DUP3 ADD AND DUP3 ADD DUP1 PUSH1 0x40 MSTORE POP DUP2 ADD SWAP1 PUSH2 0x14B0 SWAP2 SWAP1 PUSH2 0x244E JUMP JUMPDEST SWAP1 POP PUSH1 0x1 PUSH0 SWAP1 SLOAD SWAP1 PUSH2 0x100 EXP SWAP1 DIV PUSH20 0xFFFFFFFFFFFFFFFFFFFFFFFFFFFFFFFFFFFFFFFF AND PUSH20 0xFFFFFFFFFFFFFFFFFFFFFFFFFFFFFFFFFFFFFFFF AND PUSH4 0xA9059CBB PUSH1 0x2 PUSH0 SWAP1 SLOAD SWAP1 PUSH2 0x100 EXP SWAP1 DIV PUSH20 0xFFFFFFFFFFFFFFFFFFFFFFFFFFFFFFFFFFFFFFFF AND DUP4 PUSH1 0x40 MLOAD DUP4 PUSH4 0xFFFFFFFF AND PUSH1 0xE0 SHL DUP2 MSTORE PUSH1 0x4 ADD PUSH2 0x152F SWAP3 SWAP2 SWAP1 PUSH2 0x2799 JUMP JUMPDEST PUSH1 0x20 PUSH1 0x40 MLOAD DUP1 DUP4 SUB DUP2 PUSH0 DUP8 GAS CALL ISZERO DUP1 ISZERO PUSH2 0x154B JUMPI RETURNDATASIZE PUSH0 DUP1 RETURNDATACOPY RETURNDATASIZE PUSH0 REVERT JUMPDEST POP POP POP POP PUSH1 0x40 MLOAD RETURNDATASIZE PUSH1 0x1F NOT PUSH1 0x1F DUP3 ADD AND DUP3 ADD DUP1 PUSH1 0x40 MSTORE POP DUP2 ADD SWAP1 PUSH2 0x156F SWAP2 SWAP1 PUSH2 0x2678 JUMP JUMPDEST PUSH2 0x15AE JUMPI PUSH1 0x40 MLOAD PUSH32 0x8C379A000000000000000000000000000000000000000000000000000000000 DUP2 MSTORE PUSH1 0x4 ADD PUSH2 0x15A5 SWAP1 PUSH2 0x2A2F JUMP JUMPDEST PUSH1 0x40 MLOAD DUP1 SWAP2 SUB SWAP1 REVERT JUMPDEST PUSH1 0x2 PUSH0 SWAP1 SLOAD SWAP1 PUSH2 0x100 EXP SWAP1 DIV PUSH20 0xFFFFFFFFFFFFFFFFFFFFFFFFFFFFFFFFFFFFFFFF AND PUSH20 0xFFFFFFFFFFFFFFFFFFFFFFFFFFFFFFFFFFFFFFFF AND PUSH32 0x884EDAD9CE6FA2440D8A54CC123490EB96D2768479D49FF9C7366125A9424364 DUP3 PUSH1 0x40 MLOAD PUSH2 0x1615 SWAP2 SWAP1 PUSH2 0x1F2B JUMP JUMPDEST PUSH1 0x40 MLOAD DUP1 SWAP2 SUB SWAP1 LOG2 POP PUSH2 0x1626 PUSH2 0x1E8C JUMP JUMPDEST JUMP JUMPDEST PUSH1 0x2 PUSH0 SWAP1 SLOAD SWAP1 PUSH2 0x100 EXP SWAP1 DIV PUSH20 0xFFFFFFFFFFFFFFFFFFFFFFFFFFFFFFFFFFFFFFFF AND PUSH20 0xFFFFFFFFFFFFFFFFFFFFFFFFFFFFFFFFFFFFFFFF AND CALLER PUSH20 0xFFFFFFFFFFFFFFFFFFFFFFFFFFFFFFFFFFFFFFFF AND EQ PUSH2 0x16B7 JUMPI PUSH1 0x40 MLOAD PUSH32 0x8C379A000000000000000000000000000000000000000000000000000000000 DUP2 MSTORE PUSH1 0x4 ADD PUSH2 0x16AE SWAP1 PUSH2 0x277B JUMP JUMPDEST PUSH1 0x40 MLOAD DUP1 SWAP2 SUB SWAP1 REVERT JUMPDEST PUSH0 PUSH20 0xFFFFFFFFFFFFFFFFFFFFFFFFFFFFFFFFFFFFFFFF AND DUP2 PUSH20 0xFFFFFFFFFFFFFFFFFFFFFFFFFFFFFFFFFFFFFFFF AND SUB PUSH2 0x1725 JUMPI PUSH1 0x40 MLOAD PUSH32 0x8C379A000000000000000000000000000000000000000000000000000000000 DUP2 MSTORE PUSH1 0x4 ADD PUSH2 0x171C SWAP1 PUSH2 0x2A97 JUMP JUMPDEST PUSH1 0x40 MLOAD DUP1 SWAP2 SUB SWAP1 REVERT JUMPDEST PUSH1 0x2 PUSH0 SWAP1 SLOAD SWAP1 PUSH2 0x100 EXP SWAP1 DIV PUSH20 0xFFFFFFFFFFFFFFFFFFFFFFFFFFFFFFFFFFFFFFFF AND PUSH20 0xFFFFFFFFFFFFFFFFFFFFFFFFFFFFFFFFFFFFFFFF AND DUP2 PUSH20 0xFFFFFFFFFFFFFFFFFFFFFFFFFFFFFFFFFFFFFFFF AND SUB PUSH2 0x17B4 JUMPI PUSH1 0x40 MLOAD PUSH32 0x8C379A000000000000000000000000000000000000000000000000000000000 DUP2 MSTORE PUSH1 0x4 ADD PUSH2 0x17AB SWAP1 PUSH2 0x2B25 JUMP JUMPDEST PUSH1 0x40 MLOAD DUP1 SWAP2 SUB SWAP1 REVERT JUMPDEST PUSH0 PUSH1 0x2 PUSH0 SWAP1 SLOAD SWAP1 PUSH2 0x100 EXP SWAP1 DIV PUSH20 0xFFFFFFFFFFFFFFFFFFFFFFFFFFFFFFFFFFFFFFFF AND SWAP1 POP DUP2 PUSH1 0x2 PUSH0 PUSH2 0x100 EXP DUP2 SLOAD DUP2 PUSH20 0xFFFFFFFFFFFFFFFFFFFFFFFFFFFFFFFFFFFFFFFF MUL NOT AND SWAP1 DUP4 PUSH20 0xFFFFFFFFFFFFFFFFFFFFFFFFFFFFFFFFFFFFFFFF AND MUL OR SWAP1 SSTORE POP DUP2 PUSH20 0xFFFFFFFFFFFFFFFFFFFFFFFFFFFFFFFFFFFFFFFF AND DUP2 PUSH20 0xFFFFFFFFFFFFFFFFFFFFFFFFFFFFFFFFFFFFFFFF AND PUSH32 0x8BE0079C531659141344CD1FD0A4F28419497F9722A3DAAFE3B4186F6B6457E0 PUSH1 0x40 MLOAD PUSH1 0x40 MLOAD DUP1 SWAP2 SUB SWAP1 LOG3 POP POP JUMP JUMPDEST PUSH1 0x2 PUSH0 SWAP1 SLOAD SWAP1 PUSH2 0x100 EXP SWAP1 DIV PUSH20 0xFFFFFFFFFFFFFFFFFFFFFFFFFFFFFFFFFFFFFFFF AND DUP2 JUMP JUMPDEST PUSH1 0x2 PUSH0 SLOAD SUB PUSH2 0x18E0 JUMPI PUSH1 0x40 MLOAD PUSH32 0x8C379A000000000000000000000000000000000000000000000000000000000 DUP2 MSTORE PUSH1 0x4 ADD PUSH2 0x18D7 SWAP1 PUSH2 0x2B8D JUMP JUMPDEST PUSH1 0x40 MLOAD DUP1 SWAP2 SUB SWAP1 REVERT JUMPDEST PUSH1 0x2 PUSH0 DUP2 SWAP1 SSTORE POP JUMP JUMPDEST PUSH0 DUP3 SWAP1 POP PUSH0 JUMPDEST PUSH1 0x5 DUP2 LT DUP1 ISZERO PUSH2 0x1900 JUMPI POP PUSH1 0x9 SLOAD DUP2 LT JUMPDEST ISZERO PUSH2 0x1E86 JUMPI PUSH0 PUSH20 0xFFFFFFFFFFFFFFFFFFFFFFFFFFFFFFFFFFFFFFFF AND DUP3 PUSH20 0xFFFFFFFFFFFFFFFFFFFFFFFFFFFFFFFFFFFFFFFF AND SUB ISZERO PUSH2 0x1E86 JUMPI PUSH0 PUSH1 0x64 PUSH1 0x4 DUP4 PUSH1 0x5 DUP2 LT PUSH2 0x1950 JUMPI PUSH2 0x194F PUSH2 0x29B8 JUMP JUMPDEST JUMPDEST ADD SLOAD PUSH1 0x3 SLOAD PUSH2 0x195F SWAP2 SWAP1 PUSH2 0x2855 JUMP JUMPDEST PUSH2 0x1969 SWAP2 SWAP1 PUSH2 0x2BD8 JUMP JUMPDEST SWAP1 POP PUSH1 0x1 PUSH0 SWAP1 SLOAD SWAP1 PUSH2 0x100 EXP SWAP1 DIV PUSH20 0xFFFFFFFFFFFFFFFFFFFFFFFFFFFFFFFFFFFFFFFF AND PUSH20 0xFFFFFFFFFFFFFFFFFFFFFFFFFFFFFFFFFFFFFFFF AND PUSH4 0xA9059CBB DUP5 DUP4 PUSH1 0x40 MLOAD DUP4 PUSH4 0xFFFFFFFF AND PUSH1 0xE0 SHL DUP2 MSTORE PUSH1 0x4 ADD PUSH2 0x19C7 SWAP3 SWAP2 SWAP1 PUSH2 0x2799 JUMP JUMPDEST PUSH1 0x20 PUSH1 0x40 MLOAD DUP1 DUP4 SUB DUP2 PUSH0 DUP8 GAS CALL ISZERO DUP1 ISZERO PUSH2 0x19E3 JUMPI RETURNDATASIZE PUSH0 DUP1 RETURNDATACOPY RETURNDATASIZE PUSH0 REVERT JUMPDEST POP POP POP POP PUSH1 0x40 MLOAD RETURNDATASIZE PUSH1 0x1F NOT PUSH1 0x1F DUP3 ADD AND DUP3 ADD DUP1 PUSH1 0x40 MSTORE POP DUP2 ADD SWAP1 PUSH2 0x1A07 SWAP2 SWAP1 PUSH2 0x2678 JUMP JUMPDEST PUSH2 0x1A46 JUMPI PUSH1 0x40 MLOAD PUSH32 0x8C379A000000000000000000000000000000000000000000000000000000000 DUP2 MSTORE PUSH1 0x4 ADD PUSH2 0x1A3D SWAP1 PUSH2 0x2C52 JUMP JUMPDEST PUSH1 0x40 MLOAD DUP1 SWAP2 SUB SWAP1 REVERT JUMPDEST DUP3 PUSH20 0xFFFFFFFFFFFFFFFFFFFFFFFFFFFFFFFFFFFFFFFF AND PUSH32 0x83B5EADB65FB8FC1B70A3B205B38BB0C6A3E15E14BCBC9D4F366D6C772E6D83B PUSH1 0x1 DUP5 PUSH2 0x1A8B SWAP2 SWAP1 PUSH2 0x2925 JUMP JUMPDEST DUP4 PUSH1 0x40 MLOAD PUSH2 0x1A9A SWAP3 SWAP2 SWAP1 PUSH2 0x2896 JUMP JUMPDEST PUSH1 0x40 MLOAD DUP1 SWAP2 SUB SWAP1 LOG2 PUSH0 DUP3 SUB PUSH2 0x1BF7 JUMPI DUP1 PUSH1 0xA PUSH0 DUP6 PUSH20 0xFFFFFFFFFFFFFFFFFFFFFFFFFFFFFFFFFFFFFFFF AND PUSH20 0xFFFFFFFFFFFFFFFFFFFFFFFFFFFFFFFFFFFFFFFF AND DUP2 MSTORE PUSH1 0x20 ADD SWAP1 DUP2 MSTORE PUSH1 0x20 ADD PUSH0 KECCAK256 PUSH1 0x1 ADD PUSH0 DUP3 DUP3 SLOAD PUSH2 0x1AF8 SWAP2 SWAP1 PUSH2 0x2925 JUMP JUMPDEST SWAP3 POP POP DUP2 SWAP1 SSTORE POP PUSH1 0xA PUSH0 DUP5 PUSH20 0xFFFFFFFFFFFFFFFFFFFFFFFFFFFFFFFFFFFFFFFF AND PUSH20 0xFFFFFFFFFFFFFFFFFFFFFFFFFFFFFFFFFFFFFFFF AND DUP2 MSTORE PUSH1 0x20 ADD SWAP1 DUP2 MSTORE PUSH1 0x20 ADD PUSH0 KECCAK256 PUSH1 0x5 ADD DUP5 SWAP1 DUP1 PUSH1 0x1 DUP2 SLOAD ADD DUP1 DUP3 SSTORE DUP1 SWAP2 POP POP PUSH1 0x1 SWAP1 SUB SWAP1 PUSH0 MSTORE PUSH1 0x20 PUSH0 KECCAK256 ADD PUSH0 SWAP1 SWAP2 SWAP1 SWAP2 SWAP1 SWAP2 PUSH2 0x100 EXP DUP2 SLOAD DUP2 PUSH20 0xFFFFFFFFFFFFFFFFFFFFFFFFFFFFFFFFFFFFFFFF MUL NOT AND SWAP1 DUP4 PUSH20 0xFFFFFFFFFFFFFFFFFFFFFFFFFFFFFFFFFFFFFFFF AND MUL OR SWAP1 SSTORE POP PUSH1 0xA PUSH0 DUP5 PUSH20 0xFFFFFFFFFFFFFFFFFFFFFFFFFFFFFFFFFFFFFFFF AND PUSH20 0xFFFFFFFFFFFFFFFFFFFFFFFFFFFFFFFFFFFFFFFF AND DUP2 MSTORE PUSH1 0x20 ADD SWAP1 DUP2 MSTORE PUSH1 0x20 ADD PUSH0 KECCAK256 PUSH1 0x3 ADD PUSH0 DUP2 SLOAD DUP1 SWAP3 SWAP2 SWAP1 PUSH2 0x1BED SWAP1 PUSH2 0x2C70 JUMP JUMPDEST SWAP2 SWAP1 POP SSTORE POP PUSH2 0x1DBC JUMP JUMPDEST PUSH2 0x1CC2 PUSH1 0xA PUSH0 DUP6 PUSH20 0xFFFFFFFFFFFFFFFFFFFFFFFFFFFFFFFFFFFFFFFF AND PUSH20 0xFFFFFFFFFFFFFFFFFFFFFFFFFFFFFFFFFFFFFFFF AND DUP2 MSTORE PUSH1 0x20 ADD SWAP1 DUP2 MSTORE PUSH1 0x20 ADD PUSH0 KECCAK256 PUSH1 0x8 ADD DUP1 SLOAD DUP1 PUSH1 0x20 MUL PUSH1 0x20 ADD PUSH1 0x40 MLOAD SWAP1 DUP2 ADD PUSH1 0x40 MSTORE DUP1 SWAP3 SWAP2 SWAP1 DUP2 DUP2 MSTORE PUSH1 0x20 ADD DUP3 DUP1 SLOAD DUP1 ISZERO PUSH2 0x1CB7 JUMPI PUSH1 0x20 MUL DUP3 ADD SWAP2 SWAP1 PUSH0 MSTORE PUSH1 0x20 PUSH0 KECCAK256 SWAP1 JUMPDEST DUP2 PUSH0 SWAP1 SLOAD SWAP1 PUSH2 0x100 EXP SWAP1 DIV PUSH20 0xFFFFFFFFFFFFFFFFFFFFFFFFFFFFFFFFFFFFFFFF AND PUSH20 0xFFFFFFFFFFFFFFFFFFFFFFFFFFFFFFFFFFFFFFFF AND DUP2 MSTORE PUSH1 0x20 ADD SWAP1 PUSH1 0x1 ADD SWAP1 DUP1 DUP4 GT PUSH2 0x1C6E JUMPI JUMPDEST POP POP POP POP POP DUP6 PUSH2 0x1E95 JUMP JUMPDEST PUSH2 0x1D65 JUMPI PUSH1 0xA PUSH0 DUP5 PUSH20 0xFFFFFFFFFFFFFFFFFFFFFFFFFFFFFFFFFFFFFFFF AND PUSH20 0xFFFFFFFFFFFFFFFFFFFFFFFFFFFFFFFFFFFFFFFF AND DUP2 MSTORE PUSH1 0x20 ADD SWAP1 DUP2 MSTORE PUSH1 0x20 ADD PUSH0 KECCAK256 PUSH1 0x8 ADD DUP5 SWAP1 DUP1 PUSH1 0x1 DUP2 SLOAD ADD DUP1 DUP3 SSTORE DUP1 SWAP2 POP POP PUSH1 0x1 SWAP1 SUB SWAP1 PUSH0 MSTORE PUSH1 0x20 PUSH0 KECCAK256 ADD PUSH0 SWAP1 SWAP2 SWAP1 SWAP2 SWAP1 SWAP2 PUSH2 0x100 EXP DUP2 SLOAD DUP2 PUSH20 0xFFFFFFFFFFFFFFFFFFFFFFFFFFFFFFFFFFFFFFFF MUL NOT AND SWAP1 DUP4 PUSH20 0xFFFFFFFFFFFFFFFFFFFFFFFFFFFFFFFFFFFFFFFF AND MUL OR SWAP1 SSTORE POP JUMPDEST DUP1 PUSH1 0xA PUSH0 DUP6 PUSH20 0xFFFFFFFFFFFFFFFFFFFFFFFFFFFFFFFFFFFFFFFF AND PUSH20 0xFFFFFFFFFFFFFFFFFFFFFFFFFFFFFFFFFFFFFFFF AND DUP2 MSTORE PUSH1 0x20 ADD SWAP1 DUP2 MSTORE PUSH1 0x20 ADD PUSH0 KECCAK256 PUSH1 0x6 ADD PUSH0 DUP3 DUP3 SLOAD PUSH2 0x1DB4 SWAP2 SWAP1 PUSH2 0x2925 JUMP JUMPDEST SWAP3 POP POP DUP2 SWAP1 SSTORE POP JUMPDEST PUSH1 0xA PUSH0 DUP5 PUSH20 0xFFFFFFFFFFFFFFFFFFFFFFFFFFFFFFFFFFFFFFFF AND PUSH20 0xFFFFFFFFFFFFFFFFFFFFFFFFFFFFFFFFFFFFFFFF AND DUP2 MSTORE PUSH1 0x20 ADD SWAP1 DUP2 MSTORE PUSH1 0x20 ADD PUSH0 KECCAK256 PUSH1 0x7 ADD PUSH0 DUP2 SLOAD DUP1 SWAP3 SWAP2 SWAP1 PUSH2 0x1E0C SWAP1 PUSH2 0x2C70 JUMP JUMPDEST SWAP2 SWAP1 POP SSTORE POP PUSH1 0xA PUSH0 DUP5 PUSH20 0xFFFFFFFFFFFFFFFFFFFFFFFFFFFFFFFFFFFFFFFF AND PUSH20 0xFFFFFFFFFFFFFFFFFFFFFFFFFFFFFFFFFFFFFFFF AND DUP2 MSTORE PUSH1 0x20 ADD SWAP1 DUP2 MSTORE PUSH1 0x20 ADD PUSH0 KECCAK256 PUSH0 ADD PUSH0 SWAP1 SLOAD SWAP1 PUSH2 0x100 EXP SWAP1 DIV PUSH20 0xFFFFFFFFFFFFFFFFFFFFFFFFFFFFFFFFFFFFFFFF AND SWAP3 POP POP DUP1 DUP1 PUSH2 0x1E7E SWAP1 PUSH2 0x2C70 JUMP JUMPDEST SWAP2 POP POP PUSH2 0x18EF JUMP JUMPDEST POP POP POP POP JUMP JUMPDEST PUSH1 0x1 PUSH0 DUP2 SWAP1 SSTORE POP JUMP JUMPDEST PUSH0 DUP1 PUSH0 SWAP1 POP JUMPDEST DUP4 MLOAD DUP2 LT ISZERO PUSH2 0x1F08 JUMPI DUP3 PUSH20 0xFFFFFFFFFFFFFFFFFFFFFFFFFFFFFFFFFFFFFFFF AND DUP5 DUP3 DUP2 MLOAD DUP2 LT PUSH2 0x1ECE JUMPI PUSH2 0x1ECD PUSH2 0x29B8 JUMP JUMPDEST JUMPDEST PUSH1 0x20 MUL PUSH1 0x20 ADD ADD MLOAD PUSH20 0xFFFFFFFFFFFFFFFFFFFFFFFFFFFFFFFFFFFFFFFF AND SUB PUSH2 0x1EFB JUMPI PUSH1 0x1 SWAP2 POP POP PUSH2 0x1F0D JUMP JUMPDEST DUP1 DUP1 PUSH1 0x1 ADD SWAP2 POP POP PUSH2 0x1E9B JUMP JUMPDEST POP PUSH0 SWAP1 POP JUMPDEST SWAP3 SWAP2 POP POP JUMP JUMPDEST PUSH0 DUP2 SWAP1 POP SWAP2 SWAP1 POP JUMP JUMPDEST PUSH2 0x1F25 DUP2 PUSH2 0x1F13 JUMP JUMPDEST DUP3 MSTORE POP POP JUMP JUMPDEST PUSH0 PUSH1 0x20 DUP3 ADD SWAP1 POP PUSH2 0x1F3E PUSH0 DUP4 ADD DUP5 PUSH2 0x1F1C JUMP JUMPDEST SWAP3 SWAP2 POP POP JUMP JUMPDEST PUSH0 DUP1 REVERT JUMPDEST PUSH0 PUSH20 0xFFFFFFFFFFFFFFFFFFFFFFFFFFFFFFFFFFFFFFFF DUP3 AND SWAP1 POP SWAP2 SWAP1 POP JUMP JUMPDEST PUSH0 PUSH2 0x1F71 DUP3 PUSH2 0x1F48 JUMP JUMPDEST SWAP1 POP SWAP2 SWAP1 POP JUMP JUMPDEST PUSH2 0x1F81 DUP2 PUSH2 0x1F67 JUMP JUMPDEST DUP2 EQ PUSH2 0x1F8B JUMPI PUSH0 DUP1 REVERT JUMPDEST POP JUMP JUMPDEST PUSH0 DUP2 CALLDATALOAD SWAP1 POP PUSH2 0x1F9C DUP2 PUSH2 0x1F78 JUMP JUMPDEST SWAP3 SWAP2 POP POP JUMP JUMPDEST PUSH0 PUSH1 0x20 DUP3 DUP5 SUB SLT ISZERO PUSH2 0x1FB7 JUMPI PUSH2 0x1FB6 PUSH2 0x1F44 JUMP JUMPDEST JUMPDEST PUSH0 PUSH2 0x1FC4 DUP5 DUP3 DUP6 ADD PUSH2 0x1F8E JUMP JUMPDEST SWAP2 POP POP SWAP3 SWAP2 POP POP JUMP JUMPDEST PUSH2 0x1FD6 DUP2 PUSH2 0x1F13 JUMP JUMPDEST DUP2 EQ PUSH2 0x1FE0 JUMPI PUSH0 DUP1 REVERT JUMPDEST POP JUMP JUMPDEST PUSH0 DUP2 CALLDATALOAD SWAP1 POP PUSH2 0x1FF1 DUP2 PUSH2 0x1FCD JUMP JUMPDEST SWAP3 SWAP2 POP POP JUMP JUMPDEST PUSH0 PUSH1 0x20 DUP3 DUP5 SUB SLT ISZERO PUSH2 0x200C JUMPI PUSH2 0x200B PUSH2 0x1F44 JUMP JUMPDEST JUMPDEST PUSH0 PUSH2 0x2019 DUP5 DUP3 DUP6 ADD PUSH2 0x1FE3 JUMP JUMPDEST SWAP2 POP POP SWAP3 SWAP2 POP POP JUMP JUMPDEST PUSH0 DUP2 MLOAD SWAP1 POP SWAP2 SWAP1 POP JUMP JUMPDEST PUSH0 DUP3 DUP3 MSTORE PUSH1 0x20 DUP3 ADD SWAP1 POP SWAP3 SWAP2 POP POP JUMP JUMPDEST PUSH0 DUP2 SWAP1 POP PUSH1 0x20 DUP3 ADD SWAP1 POP SWAP2 SWAP1 POP JUMP JUMPDEST PUSH2 0x2054 DUP2 PUSH2 0x1F67 JUMP JUMPDEST DUP3 MSTORE POP POP JUMP JUMPDEST PUSH0 PUSH2 0x2065 DUP4 DUP4 PUSH2 0x204B JUMP JUMPDEST PUSH1 0x20 DUP4 ADD SWAP1 POP SWAP3 SWAP2 POP POP JUMP JUMPDEST PUSH0 PUSH1 0x20 DUP3 ADD SWAP1 POP SWAP2 SWAP1 POP JUMP JUMPDEST PUSH0 PUSH2 0x2087 DUP3 PUSH2 0x2022 JUMP JUMPDEST PUSH2 0x2091 DUP2 DUP6 PUSH2 0x202C JUMP JUMPDEST SWAP4 POP PUSH2 0x209C DUP4 PUSH2 0x203C JUMP JUMPDEST DUP1 PUSH0 JUMPDEST DUP4 DUP2 LT ISZERO PUSH2 0x20CC JUMPI DUP2 MLOAD PUSH2 0x20B3 DUP9 DUP3 PUSH2 0x205A JUMP JUMPDEST SWAP8 POP PUSH2 0x20BE DUP4 PUSH2 0x2071 JUMP JUMPDEST SWAP3 POP POP PUSH1 0x1 DUP2 ADD SWAP1 POP PUSH2 0x209F JUMP JUMPDEST POP DUP6 SWAP4 POP POP POP POP SWAP3 SWAP2 POP POP JUMP JUMPDEST PUSH0 PUSH1 0x20 DUP3 ADD SWAP1 POP DUP2 DUP2 SUB PUSH0 DUP4 ADD MSTORE PUSH2 0x20F1 DUP2 DUP5 PUSH2 0x207D JUMP JUMPDEST SWAP1 POP SWAP3 SWAP2 POP POP JUMP JUMPDEST PUSH0 DUP2 ISZERO ISZERO SWAP1 POP SWAP2 SWAP1 POP JUMP JUMPDEST PUSH2 0x210D DUP2 PUSH2 0x20F9 JUMP JUMPDEST DUP3 MSTORE POP POP JUMP JUMPDEST PUSH0 PUSH1 0x20 DUP3 ADD SWAP1 POP PUSH2 0x2126 PUSH0 DUP4 ADD DUP5 PUSH2 0x2104 JUMP JUMPDEST SWAP3 SWAP2 POP POP JUMP JUMPDEST PUSH0 DUP2 SWAP1 POP SWAP2 SWAP1 POP JUMP JUMPDEST PUSH0 PUSH2 0x214F PUSH2 0x214A PUSH2 0x2145 DUP5 PUSH2 0x1F48 JUMP JUMPDEST PUSH2 0x212C JUMP JUMPDEST PUSH2 0x1F48 JUMP JUMPDEST SWAP1 POP SWAP2 SWAP1 POP JUMP JUMPDEST PUSH0 PUSH2 0x2160 DUP3 PUSH2 0x2135 JUMP JUMPDEST SWAP1 POP SWAP2 SWAP1 POP JUMP JUMPDEST PUSH0 PUSH2 0x2171 DUP3 PUSH2 0x2156 JUMP JUMPDEST SWAP1 POP SWAP2 SWAP1 POP JUMP JUMPDEST PUSH2 0x2181 DUP2 PUSH2 0x2167 JUMP JUMPDEST DUP3 MSTORE POP POP JUMP JUMPDEST PUSH0 PUSH1 0x20 DUP3 ADD SWAP1 POP PUSH2 0x219A PUSH0 DUP4 ADD DUP5 PUSH2 0x2178 JUMP JUMPDEST SWAP3 SWAP2 POP POP JUMP JUMPDEST PUSH2 0x21A9 DUP2 PUSH2 0x1F67 JUMP JUMPDEST DUP3 MSTORE POP POP JUMP JUMPDEST PUSH0 PUSH1 0xE0 DUP3 ADD SWAP1 POP PUSH2 0x21C2 PUSH0 DUP4 ADD DUP11 PUSH2 0x21A0 JUMP JUMPDEST PUSH2 0x21CF PUSH1 0x20 DUP4 ADD DUP10 PUSH2 0x1F1C JUMP JUMPDEST PUSH2 0x21DC PUSH1 0x40 DUP4 ADD DUP9 PUSH2 0x2104 JUMP JUMPDEST PUSH2 0x21E9 PUSH1 0x60 DUP4 ADD DUP8 PUSH2 0x1F1C JUMP JUMPDEST PUSH2 0x21F6 PUSH1 0x80 DUP4 ADD DUP7 PUSH2 0x1F1C JUMP JUMPDEST PUSH2 0x2203 PUSH1 0xA0 DUP4 ADD DUP6 PUSH2 0x1F1C JUMP JUMPDEST PUSH2 0x2210 PUSH1 0xC0 DUP4 ADD DUP5 PUSH2 0x1F1C JUMP JUMPDEST SWAP9 SWAP8 POP POP POP POP POP POP POP POP JUMP JUMPDEST PUSH0 PUSH1 0xE0 DUP3 ADD SWAP1 POP PUSH2 0x222F PUSH0 DUP4 ADD DUP11 PUSH2 0x21A0 JUMP JUMPDEST PUSH2 0x223C PUSH1 0x20 DUP4 ADD DUP10 PUSH2 0x1F1C JUMP JUMPDEST PUSH2 0x2249 PUSH1 0x40 DUP4 ADD DUP9 PUSH2 0x1F1C JUMP JUMPDEST PUSH2 0x2256 PUSH1 0x60 DUP4 ADD DUP8 PUSH2 0x1F1C JUMP JUMPDEST PUSH2 0x2263 PUSH1 0x80 DUP4 ADD DUP7 PUSH2 0x1F1C JUMP JUMPDEST PUSH2 0x2270 PUSH1 0xA0 DUP4 ADD DUP6 PUSH2 0x2104 JUMP JUMPDEST PUSH2 0x227D PUSH1 0xC0 DUP4 ADD DUP5 PUSH2 0x1F1C JUMP JUMPDEST SWAP9 SWAP8 POP POP POP POP POP POP POP POP JUMP JUMPDEST PUSH0 DUP1 PUSH0 PUSH1 0x60 DUP5 DUP7 SUB SLT ISZERO PUSH2 0x22A0 JUMPI PUSH2 0x229F PUSH2 0x1F44 JUMP JUMPDEST JUMPDEST PUSH0 PUSH2 0x22AD DUP7 DUP3 DUP8 ADD PUSH2 0x1F8E JUMP JUMPDEST SWAP4 POP POP PUSH1 0x20 PUSH2 0x22BE DUP7 DUP3 DUP8 ADD PUSH2 0x1FE3 JUMP JUMPDEST SWAP3 POP POP PUSH1 0x40 PUSH2 0x22CF DUP7 DUP3 DUP8 ADD PUSH2 0x1FE3 JUMP JUMPDEST SWAP2 POP POP SWAP3 POP SWAP3 POP SWAP3 JUMP JUMPDEST PUSH0 PUSH1 0x20 DUP3 ADD SWAP1 POP PUSH2 0x22EC PUSH0 DUP4 ADD DUP5 PUSH2 0x21A0 JUMP JUMPDEST SWAP3 SWAP2 POP POP JUMP JUMPDEST PUSH0 DUP3 DUP3 MSTORE PUSH1 0x20 DUP3 ADD SWAP1 POP SWAP3 SWAP2 POP POP JUMP JUMPDEST PUSH32 0x436F6E7472616374206973207061757365642062792061646D696E0000000000 PUSH0 DUP3 ADD MSTORE POP JUMP JUMPDEST PUSH0 PUSH2 0x2336 PUSH1 0x1B DUP4 PUSH2 0x22F2 JUMP JUMPDEST SWAP2 POP PUSH2 0x2341 DUP3 PUSH2 0x2302 JUMP JUMPDEST PUSH1 0x20 DUP3 ADD SWAP1 POP SWAP2 SWAP1 POP JUMP JUMPDEST PUSH0 PUSH1 0x20 DUP3 ADD SWAP1 POP DUP2 DUP2 SUB PUSH0 DUP4 ADD MSTORE PUSH2 0x2363 DUP2 PUSH2 0x232A JUMP JUMPDEST SWAP1 POP SWAP2 SWAP1 POP JUMP JUMPDEST PUSH32 0x496E76616C69642073656E646572206164647265737300000000000000000000 PUSH0 DUP3 ADD MSTORE POP JUMP JUMPDEST PUSH0 PUSH2 0x239E PUSH1 0x16 DUP4 PUSH2 0x22F2 JUMP JUMPDEST SWAP2 POP PUSH2 0x23A9 DUP3 PUSH2 0x236A JUMP JUMPDEST PUSH1 0x20 DUP3 ADD SWAP1 POP SWAP2 SWAP1 POP JUMP JUMPDEST PUSH0 PUSH1 0x20 DUP3 ADD SWAP1 POP DUP2 DUP2 SUB PUSH0 DUP4 ADD MSTORE PUSH2 0x23CB DUP2 PUSH2 0x2392 JUMP JUMPDEST SWAP1 POP SWAP2 SWAP1 POP JUMP JUMPDEST PUSH32 0x496E76616C696420726566657272657220616464726573730000000000000000 PUSH0 DUP3 ADD MSTORE POP JUMP JUMPDEST PUSH0 PUSH2 0x2406 PUSH1 0x18 DUP4 PUSH2 0x22F2 JUMP JUMPDEST SWAP2 POP PUSH2 0x2411 DUP3 PUSH2 0x23D2 JUMP JUMPDEST PUSH1 0x20 DUP3 ADD SWAP1 POP SWAP2 SWAP1 POP JUMP JUMPDEST PUSH0 PUSH1 0x20 DUP3 ADD SWAP1 POP DUP2 DUP2 SUB PUSH0 DUP4 ADD MSTORE PUSH2 0x2433 DUP2 PUSH2 0x23FA JUMP JUMPDEST SWAP1 POP SWAP2 SWAP1 POP JUMP JUMPDEST PUSH0 DUP2 MLOAD SWAP1 POP PUSH2 0x2448 DUP2 PUSH2 0x1FCD JUMP JUMPDEST SWAP3 SWAP2 POP POP JUMP JUMPDEST PUSH0 PUSH1 0x20 DUP3 DUP5 SUB SLT ISZERO PUSH2 0x2463 JUMPI PUSH2 0x2462 PUSH2 0x1F44 JUMP JUMPDEST JUMPDEST PUSH0 PUSH2 0x2470 DUP5 DUP3 DUP6 ADD PUSH2 0x243A JUMP JUMPDEST SWAP2 POP POP SWAP3 SWAP2 POP POP JUMP JUMPDEST PUSH32 0x496E73756666696369656E742062616C616E6365000000000000000000000000 PUSH0 DUP3 ADD MSTORE POP JUMP JUMPDEST PUSH0 PUSH2 0x24AD PUSH1 0x14 DUP4 PUSH2 0x22F2 JUMP JUMPDEST SWAP2 POP PUSH2 0x24B8 DUP3 PUSH2 0x2479 JUMP JUMPDEST PUSH1 0x20 DUP3 ADD SWAP1 POP SWAP2 SWAP1 POP JUMP JUMPDEST PUSH0 PUSH1 0x20 DUP3 ADD SWAP1 POP DUP2 DUP2 SUB PUSH0 DUP4 ADD MSTORE PUSH2 0x24DA DUP2 PUSH2 0x24A1 JUMP JUMPDEST SWAP1 POP SWAP2 SWAP1 POP JUMP JUMPDEST PUSH32 0x5265666572726572206973206E6F742072656769737465726564000000000000 PUSH0 DUP3 ADD MSTORE POP JUMP JUMPDEST PUSH0 PUSH2 0x2515 PUSH1 0x1A DUP4 PUSH2 0x22F2 JUMP JUMPDEST SWAP2 POP PUSH2 0x2520 DUP3 PUSH2 0x24E1 JUMP JUMPDEST PUSH1 0x20 DUP3 ADD SWAP1 POP SWAP2 SWAP1 POP JUMP JUMPDEST PUSH0 PUSH1 0x20 DUP3 ADD SWAP1 POP DUP2 DUP2 SUB PUSH0 DUP4 ADD MSTORE PUSH2 0x2542 DUP2 PUSH2 0x2509 JUMP JUMPDEST SWAP1 POP SWAP2 SWAP1 POP JUMP JUMPDEST PUSH32 0x43616E6E6F7420726566657220796F757273656C660000000000000000000000 PUSH0 DUP3 ADD MSTORE POP JUMP JUMPDEST PUSH0 PUSH2 0x257D PUSH1 0x15 DUP4 PUSH2 0x22F2 JUMP JUMPDEST SWAP2 POP PUSH2 0x2588 DUP3 PUSH2 0x2549 JUMP JUMPDEST PUSH1 0x20 DUP3 ADD SWAP1 POP SWAP2 SWAP1 POP JUMP JUMPDEST PUSH0 PUSH1 0x20 DUP3 ADD SWAP1 POP DUP2 DUP2 SUB PUSH0 DUP4 ADD MSTORE PUSH2 0x25AA DUP2 PUSH2 0x2571 JUMP JUMPDEST SWAP1 POP SWAP2 SWAP1 POP JUMP JUMPDEST PUSH32 0x416C726561647920726567697374657265640000000000000000000000000000 PUSH0 DUP3 ADD MSTORE POP JUMP JUMPDEST PUSH0 PUSH2 0x25E5 PUSH1 0x12 DUP4 PUSH2 0x22F2 JUMP JUMPDEST SWAP2 POP PUSH2 0x25F0 DUP3 PUSH2 0x25B1 JUMP JUMPDEST PUSH1 0x20 DUP3 ADD SWAP1 POP SWAP2 SWAP1 POP JUMP JUMPDEST PUSH0 PUSH1 0x20 DUP3 ADD SWAP1 POP DUP2 DUP2 SUB PUSH0 DUP4 ADD MSTORE PUSH2 0x2612 DUP2 PUSH2 0x25D9 JUMP JUMPDEST SWAP1 POP SWAP2 SWAP1 POP JUMP JUMPDEST PUSH0 PUSH1 0x60 DUP3 ADD SWAP1 POP PUSH2 0x262C PUSH0 DUP4 ADD DUP7 PUSH2 0x21A0 JUMP JUMPDEST PUSH2 0x2639 PUSH1 0x20 DUP4 ADD DUP6 PUSH2 0x21A0 JUMP JUMPDEST PUSH2 0x2646 PUSH1 0x40 DUP4 ADD DUP5 PUSH2 0x1F1C JUMP JUMPDEST SWAP5 SWAP4 POP POP POP POP JUMP JUMPDEST PUSH2 0x2657 DUP2 PUSH2 0x20F9 JUMP JUMPDEST DUP2 EQ PUSH2 0x2661 JUMPI PUSH0 DUP1 REVERT JUMPDEST POP JUMP JUMPDEST PUSH0 DUP2 MLOAD SWAP1 POP PUSH2 0x2672 DUP2 PUSH2 0x264E JUMP JUMPDEST SWAP3 SWAP2 POP POP JUMP JUMPDEST PUSH0 PUSH1 0x20 DUP3 DUP5 SUB SLT ISZERO PUSH2 0x268D JUMPI PUSH2 0x268C PUSH2 0x1F44 JUMP JUMPDEST JUMPDEST PUSH0 PUSH2 0x269A DUP5 DUP3 DUP6 ADD PUSH2 0x2664 JUMP JUMPDEST SWAP2 POP POP SWAP3 SWAP2 POP POP JUMP JUMPDEST PUSH32 0x5472616E73666572206661696C65640000000000000000000000000000000000 PUSH0 DUP3 ADD MSTORE POP JUMP JUMPDEST PUSH0 PUSH2 0x26D7 PUSH1 0xF DUP4 PUSH2 0x22F2 JUMP JUMPDEST SWAP2 POP PUSH2 0x26E2 DUP3 PUSH2 0x26A3 JUMP JUMPDEST PUSH1 0x20 DUP3 ADD SWAP1 POP SWAP2 SWAP1 POP JUMP JUMPDEST PUSH0 PUSH1 0x20 DUP3 ADD SWAP1 POP DUP2 DUP2 SUB PUSH0 DUP4 ADD MSTORE PUSH2 0x2704 DUP2 PUSH2 0x26CB JUMP JUMPDEST SWAP1 POP SWAP2 SWAP1 POP JUMP JUMPDEST PUSH32 0x5468697320616374696F6E2063616E20626520706572666F726D656420627920 PUSH0 DUP3 ADD MSTORE PUSH32 0x74686520636F6E7472616374206F776E65720000000000000000000000000000 PUSH1 0x20 DUP3 ADD MSTORE POP JUMP JUMPDEST PUSH0 PUSH2 0x2765 PUSH1 0x32 DUP4 PUSH2 0x22F2 JUMP JUMPDEST SWAP2 POP PUSH2 0x2770 DUP3 PUSH2 0x270B JUMP JUMPDEST PUSH1 0x40 DUP3 ADD SWAP1 POP SWAP2 SWAP1 POP JUMP JUMPDEST PUSH0 PUSH1 0x20 DUP3 ADD SWAP1 POP DUP2 DUP2 SUB PUSH0 DUP4 ADD MSTORE PUSH2 0x2792 DUP2 PUSH2 0x2759 JUMP JUMPDEST SWAP1 POP SWAP2 SWAP1 POP JUMP JUMPDEST PUSH0 PUSH1 0x40 DUP3 ADD SWAP1 POP PUSH2 0x27AC PUSH0 DUP4 ADD DUP6 PUSH2 0x21A0 JUMP JUMPDEST PUSH2 0x27B9 PUSH1 0x20 DUP4 ADD DUP5 PUSH2 0x1F1C JUMP JUMPDEST SWAP4 SWAP3 POP POP POP JUMP JUMPDEST PUSH32 0x496E76616C69642070657263656E746167650000000000000000000000000000 PUSH0 DUP3 ADD MSTORE POP JUMP JUMPDEST PUSH0 PUSH2 0x27F4 PUSH1 0x12 DUP4 PUSH2 0x22F2 JUMP JUMPDEST SWAP2 POP PUSH2 0x27FF DUP3 PUSH2 0x27C0 JUMP JUMPDEST PUSH1 0x20 DUP3 ADD SWAP1 POP SWAP2 SWAP1 POP JUMP JUMPDEST PUSH0 PUSH1 0x20 DUP3 ADD SWAP1 POP DUP2 DUP2 SUB PUSH0 DUP4 ADD MSTORE PUSH2 0x2821 DUP2 PUSH2 0x27E8 JUMP JUMPDEST SWAP1 POP SWAP2 SWAP1 POP JUMP JUMPDEST PUSH32 0x4E487B7100000000000000000000000000000000000000000000000000000000 PUSH0 MSTORE PUSH1 0x11 PUSH1 0x4 MSTORE PUSH1 0x24 PUSH0 REVERT JUMPDEST PUSH0 PUSH2 0x285F DUP3 PUSH2 0x1F13 JUMP JUMPDEST SWAP2 POP PUSH2 0x286A DUP4 PUSH2 0x1F13 JUMP JUMPDEST SWAP3 POP DUP3 DUP3 MUL PUSH2 0x2878 DUP2 PUSH2 0x1F13 JUMP JUMPDEST SWAP2 POP DUP3 DUP3 DIV DUP5 EQ DUP4 ISZERO OR PUSH2 0x288F JUMPI PUSH2 0x288E PUSH2 0x2828 JUMP JUMPDEST JUMPDEST POP SWAP3 SWAP2 POP POP JUMP JUMPDEST PUSH0 PUSH1 0x40 DUP3 ADD SWAP1 POP PUSH2 0x28A9 PUSH0 DUP4 ADD DUP6 PUSH2 0x1F1C JUMP JUMPDEST PUSH2 0x28B6 PUSH1 0x20 DUP4 ADD DUP5 PUSH2 0x1F1C JUMP JUMPDEST SWAP4 SWAP3 POP POP POP JUMP JUMPDEST PUSH32 0x496E76616C696420746F6B656E20616464726573730000000000000000000000 PUSH0 DUP3 ADD MSTORE POP JUMP JUMPDEST PUSH0 PUSH2 0x28F1 PUSH1 0x15 DUP4 PUSH2 0x22F2 JUMP JUMPDEST SWAP2 POP PUSH2 0x28FC DUP3 PUSH2 0x28BD JUMP JUMPDEST PUSH1 0x20 DUP3 ADD SWAP1 POP SWAP2 SWAP1 POP JUMP JUMPDEST PUSH0 PUSH1 0x20 DUP3 ADD SWAP1 POP DUP2 DUP2 SUB PUSH0 DUP4 ADD MSTORE PUSH2 0x291E DUP2 PUSH2 0x28E5 JUMP JUMPDEST SWAP1 POP SWAP2 SWAP1 POP JUMP JUMPDEST PUSH0 PUSH2 0x292F DUP3 PUSH2 0x1F13 JUMP JUMPDEST SWAP2 POP PUSH2 0x293A DUP4 PUSH2 0x1F13 JUMP JUMPDEST SWAP3 POP DUP3 DUP3 ADD SWAP1 POP DUP1 DUP3 GT ISZERO PUSH2 0x2952 JUMPI PUSH2 0x2951 PUSH2 0x2828 JUMP JUMPDEST JUMPDEST SWAP3 SWAP2 POP POP JUMP JUMPDEST PUSH0 PUSH2 0x2962 DUP3 PUSH2 0x1F13 JUMP JUMPDEST SWAP2 POP PUSH2 0x296D DUP4 PUSH2 0x1F13 JUMP JUMPDEST SWAP3 POP DUP3 DUP3 SUB SWAP1 POP DUP2 DUP2 GT ISZERO PUSH2 0x2985 JUMPI PUSH2 0x2984 PUSH2 0x2828 JUMP JUMPDEST JUMPDEST SWAP3 SWAP2 POP POP JUMP JUMPDEST PUSH32 0x4E487B7100000000000000000000000000000000000000000000000000000000 PUSH0 MSTORE PUSH1 0x41 PUSH1 0x4 MSTORE PUSH1 0x24 PUSH0 REVERT JUMPDEST PUSH32 0x4E487B7100000000000000000000000000000000000000000000000000000000 PUSH0 MSTORE PUSH1 0x32 PUSH1 0x4 MSTORE PUSH1 0x24 PUSH0 REVERT JUMPDEST PUSH32 0x456D657267656E6379207769746864726177206661696C656400000000000000 PUSH0 DUP3 ADD MSTORE POP JUMP JUMPDEST PUSH0 PUSH2 0x2A19 PUSH1 0x19 DUP4 PUSH2 0x22F2 JUMP JUMPDEST SWAP2 POP PUSH2 0x2A24 DUP3 PUSH2 0x29E5 JUMP JUMPDEST PUSH1 0x20 DUP3 ADD SWAP1 POP SWAP2 SWAP1 POP JUMP JUMPDEST PUSH0 PUSH1 0x20 DUP3 ADD SWAP1 POP DUP2 DUP2 SUB PUSH0 DUP4 ADD MSTORE PUSH2 0x2A46 DUP2 PUSH2 0x2A0D JUMP JUMPDEST SWAP1 POP SWAP2 SWAP1 POP JUMP JUMPDEST PUSH32 0x496E76616C6964206E6577206F776E6572000000000000000000000000000000 PUSH0 DUP3 ADD MSTORE POP JUMP JUMPDEST PUSH0 PUSH2 0x2A81 PUSH1 0x11 DUP4 PUSH2 0x22F2 JUMP JUMPDEST SWAP2 POP PUSH2 0x2A8C DUP3 PUSH2 0x2A4D JUMP JUMPDEST PUSH1 0x20 DUP3 ADD SWAP1 POP SWAP2 SWAP1 POP JUMP JUMPDEST PUSH0 PUSH1 0x20 DUP3 ADD SWAP1 POP DUP2 DUP2 SUB PUSH0 DUP4 ADD MSTORE PUSH2 0x2AAE DUP2 PUSH2 0x2A75 JUMP JUMPDEST SWAP1 POP SWAP2 SWAP1 POP JUMP JUMPDEST PUSH32 0x43616E6E6F74207472616E73666572206F776E65727368697020746F2073656C PUSH0 DUP3 ADD MSTORE PUSH32 0x6600000000000000000000000000000000000000000000000000000000000000 PUSH1 0x20 DUP3 ADD MSTORE POP JUMP JUMPDEST PUSH0 PUSH2 0x2B0F PUSH1 0x21 DUP4 PUSH2 0x22F2 JUMP JUMPDEST SWAP2 POP PUSH2 0x2B1A DUP3 PUSH2 0x2AB5 JUMP JUMPDEST PUSH1 0x40 DUP3 ADD SWAP1 POP SWAP2 SWAP1 POP JUMP JUMPDEST PUSH0 PUSH1 0x20 DUP3 ADD SWAP1 POP DUP2 DUP2 SUB PUSH0 DUP4 ADD MSTORE PUSH2 0x2B3C DUP2 PUSH2 0x2B03 JUMP JUMPDEST SWAP1 POP SWAP2 SWAP1 POP JUMP JUMPDEST PUSH32 0x5265656E7472616E637947756172643A207265656E7472616E742063616C6C00 PUSH0 DUP3 ADD MSTORE POP JUMP JUMPDEST PUSH0 PUSH2 0x2B77 PUSH1 0x1F DUP4 PUSH2 0x22F2 JUMP JUMPDEST SWAP2 POP PUSH2 0x2B82 DUP3 PUSH2 0x2B43 JUMP JUMPDEST PUSH1 0x20 DUP3 ADD SWAP1 POP SWAP2 SWAP1 POP JUMP JUMPDEST PUSH0 PUSH1 0x20 DUP3 ADD SWAP1 POP DUP2 DUP2 SUB PUSH0 DUP4 ADD MSTORE PUSH2 0x2BA4 DUP2 PUSH2 0x2B6B JUMP JUMPDEST SWAP1 POP SWAP2 SWAP1 POP JUMP JUMPDEST PUSH32 0x4E487B7100000000000000000000000000000000000000000000000000000000 PUSH0 MSTORE PUSH1 0x12 PUSH1 0x4 MSTORE PUSH1 0x24 PUSH0 REVERT JUMPDEST PUSH0 PUSH2 0x2BE2 DUP3 PUSH2 0x1F13 JUMP JUMPDEST SWAP2 POP PUSH2 0x2BED DUP4 PUSH2 0x1F13 JUMP JUMPDEST SWAP3 POP DUP3 PUSH2 0x2BFD JUMPI PUSH2 0x2BFC PUSH2 0x2BAB JUMP JUMPDEST JUMPDEST DUP3 DUP3 DIV SWAP1 POP SWAP3 SWAP2 POP POP JUMP JUMPDEST PUSH32 0x526577617264207472616E73666572206661696C656400000000000000000000 PUSH0 DUP3 ADD MSTORE POP JUMP JUMPDEST PUSH0 PUSH2 0x2C3C PUSH1 0x16 DUP4 PUSH2 0x22F2 JUMP JUMPDEST SWAP2 POP PUSH2 0x2C47 DUP3 PUSH2 0x2C08 JUMP JUMPDEST PUSH1 0x20 DUP3 ADD SWAP1 POP SWAP2 SWAP1 POP JUMP JUMPDEST PUSH0 PUSH1 0x20 DUP3 ADD SWAP1 POP DUP2 DUP2 SUB PUSH0 DUP4 ADD MSTORE PUSH2 0x2C69 DUP2 PUSH2 0x2C30 JUMP JUMPDEST SWAP1 POP SWAP2 SWAP1 POP JUMP JUMPDEST PUSH0 PUSH2 0x2C7A DUP3 PUSH2 0x1F13 JUMP JUMPDEST SWAP2 POP PUSH32 0xFFFFFFFFFFFFFFFFFFFFFFFFFFFFFFFFFFFFFFFFFFFFFFFFFFFFFFFFFFFFFFFF DUP3 SUB PUSH2 0x2CAC JUMPI PUSH2 0x2CAB PUSH2 0x2828 JUMP JUMPDEST JUMPDEST PUSH1 0x1 DUP3 ADD SWAP1 POP SWAP2 SWAP1 POP JUMP INVALID LOG2 PUSH5 0x6970667358 0x22 SLT KECCAK256 SWAP14 PUSH27 0x342C69F6FD64F65AC2441F7BA1D0E16752EC9A8BBFA5B17E8D8EB DUP16 SWAP12 GT PUSH5 0x736F6C6343 STOP ADDMOD BYTE STOP CALLER "
				},
				"gasEstimates": {
					"creation": {
						"codeDepositCost": "2300200",
						"executionCost": "infinite",
						"totalCost": "infinite"
					},
					"external": {
						"GNT()": "infinite",
						"REGISTRATION_FEE()": "2514",
						"admin()": "2618",
						"changeRegistrationFee(uint256)": "infinite",
						"contractTokenBalance()": "infinite",
						"emergencyWithdrawAll()": "infinite",
						"getDirectReferralsPaginated(address,uint256,uint256)": "infinite",
						"getIndirectReferrals(address)": "infinite",
						"getUserDetails(address)": "infinite",
						"levelPercentage(uint256)": "infinite",
						"maxReferralDepth()": "2449",
						"pause()": "2540",
						"paused()": "26674",
						"registration(address)": "infinite",
						"transferOwnership(address)": "32868",
						"unpaused()": "26739",
						"updateTokenAddress(address)": "30709",
						"users(address)": "infinite",
						"withdraw(uint256)": "infinite"
					},
					"internal": {
						"distributeReferralIncome(address,address)": "infinite",
						"isInArray(address[] memory,address)": "infinite"
					}
				},
				"methodIdentifiers": {
					"GNT()": "8c546f81",
					"REGISTRATION_FEE()": "64b4f751",
					"admin()": "f851a440",
					"changeRegistrationFee(uint256)": "50050769",
					"contractTokenBalance()": "9e9aed62",
					"emergencyWithdrawAll()": "dd191719",
					"getDirectReferralsPaginated(address,uint256,uint256)": "d9c842fd",
					"getIndirectReferrals(address)": "4f404243",
					"getUserDetails(address)": "cc3d967b",
					"levelPercentage(uint256)": "5dc68b0a",
					"maxReferralDepth()": "04189250",
					"pause()": "8456cb59",
					"paused()": "5c975abb",
					"registration(address)": "0840605a",
					"transferOwnership(address)": "f2fde38b",
					"unpaused()": "b0b62f5a",
					"updateTokenAddress(address)": "6691461a",
					"users(address)": "a87430ba",
					"withdraw(uint256)": "2e1a7d4d"
				}
			},
			"storageLayout": {
				"storage": [
					{
						"astId": 10,
						"contract": "MLM/Multi-level MLM System/Final_SMART_CONTRACT/GrowChain.sol:GrowChain",
						"label": "_status",
						"offset": 0,
						"slot": "0",
						"type": "t_uint256"
					},
					{
						"astId": 100,
						"contract": "MLM/Multi-level MLM System/Final_SMART_CONTRACT/GrowChain.sol:GrowChain",
						"label": "GNT",
						"offset": 0,
						"slot": "1",
						"type": "t_contract(IERC20)95"
					},
					{
						"astId": 102,
						"contract": "MLM/Multi-level MLM System/Final_SMART_CONTRACT/GrowChain.sol:GrowChain",
						"label": "admin",
						"offset": 0,
						"slot": "2",
						"type": "t_address"
					},
					{
						"astId": 104,
						"contract": "MLM/Multi-level MLM System/Final_SMART_CONTRACT/GrowChain.sol:GrowChain",
						"label": "pause",
						"offset": 20,
						"slot": "2",
						"type": "t_bool"
					},
					{
						"astId": 111,
						"contract": "MLM/Multi-level MLM System/Final_SMART_CONTRACT/GrowChain.sol:GrowChain",
						"label": "REGISTRATION_FEE",
						"offset": 0,
						"slot": "3",
						"type": "t_uint256"
					},
					{
						"astId": 121,
						"contract": "MLM/Multi-level MLM System/Final_SMART_CONTRACT/GrowChain.sol:GrowChain",
						"label": "levelPercentage",
						"offset": 0,
						"slot": "4",
						"type": "t_array(t_uint256)5_storage"
					},
					{
						"astId": 124,
						"contract": "MLM/Multi-level MLM System/Final_SMART_CONTRACT/GrowChain.sol:GrowChain",
						"label": "maxReferralDepth",
						"offset": 0,
						"slot": "9",
						"type": "t_uint256"
					},
					{
						"astId": 190,
						"contract": "MLM/Multi-level MLM System/Final_SMART_CONTRACT/GrowChain.sol:GrowChain",
						"label": "users",
						"offset": 0,
						"slot": "10",
						"type": "t_mapping(t_address,t_struct(User)185_storage)"
					}
				],
				"types": {
					"t_address": {
						"encoding": "inplace",
						"label": "address",
						"numberOfBytes": "20"
					},
					"t_array(t_address)dyn_storage": {
						"base": "t_address",
						"encoding": "dynamic_array",
						"label": "address[]",
						"numberOfBytes": "32"
					},
					"t_array(t_uint256)5_storage": {
						"base": "t_uint256",
						"encoding": "inplace",
						"label": "uint256[5]",
						"numberOfBytes": "160"
					},
					"t_bool": {
						"encoding": "inplace",
						"label": "bool",
						"numberOfBytes": "1"
					},
					"t_contract(IERC20)95": {
						"encoding": "inplace",
						"label": "contract IERC20",
						"numberOfBytes": "20"
					},
					"t_mapping(t_address,t_struct(User)185_storage)": {
						"encoding": "mapping",
						"key": "t_address",
						"label": "mapping(address => struct GrowChain.User)",
						"numberOfBytes": "32",
						"value": "t_struct(User)185_storage"
					},
					"t_struct(User)185_storage": {
						"encoding": "inplace",
						"label": "struct GrowChain.User",
						"members": [
							{
								"astId": 166,
								"contract": "MLM/Multi-level MLM System/Final_SMART_CONTRACT/GrowChain.sol:GrowChain",
								"label": "referrer",
								"offset": 0,
								"slot": "0",
								"type": "t_address"
							},
							{
								"astId": 168,
								"contract": "MLM/Multi-level MLM System/Final_SMART_CONTRACT/GrowChain.sol:GrowChain",
								"label": "directReferralIncome",
								"offset": 0,
								"slot": "1",
								"type": "t_uint256"
							},
							{
								"astId": 170,
								"contract": "MLM/Multi-level MLM System/Final_SMART_CONTRACT/GrowChain.sol:GrowChain",
								"label": "isRegistered",
								"offset": 0,
								"slot": "2",
								"type": "t_bool"
							},
							{
								"astId": 172,
								"contract": "MLM/Multi-level MLM System/Final_SMART_CONTRACT/GrowChain.sol:GrowChain",
								"label": "referralCount",
								"offset": 0,
								"slot": "3",
								"type": "t_uint256"
							},
							{
								"astId": 174,
								"contract": "MLM/Multi-level MLM System/Final_SMART_CONTRACT/GrowChain.sol:GrowChain",
								"label": "registrationTime",
								"offset": 0,
								"slot": "4",
								"type": "t_uint256"
							},
							{
								"astId": 177,
								"contract": "MLM/Multi-level MLM System/Final_SMART_CONTRACT/GrowChain.sol:GrowChain",
								"label": "directReferrals",
								"offset": 0,
								"slot": "5",
								"type": "t_array(t_address)dyn_storage"
							},
							{
								"astId": 179,
								"contract": "MLM/Multi-level MLM System/Final_SMART_CONTRACT/GrowChain.sol:GrowChain",
								"label": "teamIncome",
								"offset": 0,
								"slot": "6",
								"type": "t_uint256"
							},
							{
								"astId": 181,
								"contract": "MLM/Multi-level MLM System/Final_SMART_CONTRACT/GrowChain.sol:GrowChain",
								"label": "teamSize",
								"offset": 0,
								"slot": "7",
								"type": "t_uint256"
							},
							{
								"astId": 184,
								"contract": "MLM/Multi-level MLM System/Final_SMART_CONTRACT/GrowChain.sol:GrowChain",
								"label": "indirectReferrals",
								"offset": 0,
								"slot": "8",
								"type": "t_array(t_address)dyn_storage"
							}
						],
						"numberOfBytes": "288"
					},
					"t_uint256": {
						"encoding": "inplace",
						"label": "uint256",
						"numberOfBytes": "32"
					}
				}
			},
			"userdoc": {
				"kind": "user",
				"methods": {
					"changeRegistrationFee(uint256)": {
						"notice": "Change the registration fee (only owner)"
					},
					"contractTokenBalance()": {
						"notice": "View the contract's GNT token balance"
					},
					"getDirectReferralsPaginated(address,uint256,uint256)": {
						"notice": "Returns a paginated list of direct referrals"
					},
					"getIndirectReferrals(address)": {
						"notice": "Get list of indirect referrals"
					},
					"getUserDetails(address)": {
						"notice": "Get user details"
					},
					"paused()": {
						"notice": "Pause the contract (only owner)"
					},
					"registration(address)": {
						"notice": "Register a new user under a valid referrer"
					},
					"transferOwnership(address)": {
						"notice": "Transfer contract ownership to a new address"
					},
					"unpaused()": {
						"notice": "Unpause the contract (only owner)"
					},
					"updateTokenAddress(address)": {
						"notice": "Update the GNT token address (only owner)"
					},
					"withdraw(uint256)": {
						"notice": "Withdraw GNT tokens from contract (only owner)"
					}
				},
				"version": 1
			}
		}
	}
}