{
	"MLM/1-Level MLM System/ChainBoost.sol": {
		"ChainBoost": {
			"abi": [
				{
					"inputs": [
						{
							"internalType": "address",
							"name": "_bstAddress",
							"type": "address"
						}
					],
					"stateMutability": "nonpayable",
					"type": "constructor"
				},
				{
					"inputs": [],
					"name": "BST",
					"outputs": [
						{
							"internalType": "contract IERC20",
							"name": "",
							"type": "address"
						}
					],
					"stateMutability": "view",
					"type": "function"
				},
				{
					"inputs": [],
					"name": "REGISTRATION_FEE",
					"outputs": [
						{
							"internalType": "uint256",
							"name": "",
							"type": "uint256"
						}
					],
					"stateMutability": "view",
					"type": "function"
				},
				{
					"inputs": [],
					"name": "owner",
					"outputs": [
						{
							"internalType": "address",
							"name": "",
							"type": "address"
						}
					],
					"stateMutability": "view",
					"type": "function"
				},
				{
					"inputs": [
						{
							"internalType": "address",
							"name": "_referrer",
							"type": "address"
						}
					],
					"name": "registration",
					"outputs": [],
					"stateMutability": "nonpayable",
					"type": "function"
				},
				{
					"inputs": [
						{
							"internalType": "address",
							"name": "",
							"type": "address"
						}
					],
					"name": "users",
					"outputs": [
						{
							"internalType": "address",
							"name": "referrer",
							"type": "address"
						},
						{
							"internalType": "uint256",
							"name": "referralIncome",
							"type": "uint256"
						},
						{
							"internalType": "bool",
							"name": "isRegistered",
							"type": "bool"
						},
						{
							"internalType": "uint256",
							"name": "referralCount",
							"type": "uint256"
						},
						{
							"internalType": "uint256",
							"name": "registrationTime",
							"type": "uint256"
						}
					],
					"stateMutability": "view",
					"type": "function"
				}
			],
			"devdoc": {
				"kind": "dev",
				"methods": {},
				"version": 1
			},
			"evm": {
				"assembly": "    /* \"MLM/1-Level MLM System/ChainBoost.sol\":288:2279  contract ChainBoost {... */\n  mstore(0x40, 0x80)\n    /* \"MLM/1-Level MLM System/ChainBoost.sol\":475:574  constructor(address _bstAddress) {... */\n  callvalue\n  dup1\n  iszero\n  tag_1\n  jumpi\n  0x00\n  dup1\n  revert\ntag_1:\n  pop\n  mload(0x40)\n  sub(codesize, bytecodeSize)\n  dup1\n  bytecodeSize\n  dup4\n  codecopy\n  dup2\n  dup2\n  add\n  0x40\n  mstore\n  dup2\n  add\n  swap1\n  tag_2\n  swap2\n  swap1\n  tag_3\n  jump\t// in\ntag_2:\n    /* \"MLM/1-Level MLM System/ChainBoost.sol\":529:540  _bstAddress */\n  dup1\n    /* \"MLM/1-Level MLM System/ChainBoost.sol\":518:521  BST */\n  0x00\n  dup1\n    /* \"MLM/1-Level MLM System/ChainBoost.sol\":518:541  BST=IERC20(_bstAddress) */\n  0x0100\n  exp\n  dup2\n  sload\n  dup2\n  0xffffffffffffffffffffffffffffffffffffffff\n  mul\n  not\n  and\n  swap1\n  dup4\n  0xffffffffffffffffffffffffffffffffffffffff\n  and\n  mul\n  or\n  swap1\n  sstore\n  pop\n    /* \"MLM/1-Level MLM System/ChainBoost.sol\":557:567  msg.sender */\n  caller\n    /* \"MLM/1-Level MLM System/ChainBoost.sol\":551:556  owner */\n  0x01\n  0x00\n    /* \"MLM/1-Level MLM System/ChainBoost.sol\":551:567  owner=msg.sender */\n  0x0100\n  exp\n  dup2\n  sload\n  dup2\n  0xffffffffffffffffffffffffffffffffffffffff\n  mul\n  not\n  and\n  swap1\n  dup4\n  0xffffffffffffffffffffffffffffffffffffffff\n  and\n  mul\n  or\n  swap1\n  sstore\n  pop\n    /* \"MLM/1-Level MLM System/ChainBoost.sol\":475:574  constructor(address _bstAddress) {... */\n  pop\n    /* \"MLM/1-Level MLM System/ChainBoost.sol\":288:2279  contract ChainBoost {... */\n  jump(tag_6)\n    /* \"#utility.yul\":88:205   */\ntag_8:\n    /* \"#utility.yul\":197:198   */\n  0x00\n    /* \"#utility.yul\":194:195   */\n  dup1\n    /* \"#utility.yul\":187:199   */\n  revert\n    /* \"#utility.yul\":334:460   */\ntag_10:\n    /* \"#utility.yul\":371:378   */\n  0x00\n    /* \"#utility.yul\":411:453   */\n  0xffffffffffffffffffffffffffffffffffffffff\n    /* \"#utility.yul\":404:409   */\n  dup3\n    /* \"#utility.yul\":400:454   */\n  and\n    /* \"#utility.yul\":389:454   */\n  swap1\n  pop\n    /* \"#utility.yul\":334:460   */\n  swap2\n  swap1\n  pop\n  jump\t// out\n    /* \"#utility.yul\":466:562   */\ntag_11:\n    /* \"#utility.yul\":503:510   */\n  0x00\n    /* \"#utility.yul\":532:556   */\n  tag_20\n    /* \"#utility.yul\":550:555   */\n  dup3\n    /* \"#utility.yul\":532:556   */\n  tag_10\n  jump\t// in\ntag_20:\n    /* \"#utility.yul\":521:556   */\n  swap1\n  pop\n    /* \"#utility.yul\":466:562   */\n  swap2\n  swap1\n  pop\n  jump\t// out\n    /* \"#utility.yul\":568:690   */\ntag_12:\n    /* \"#utility.yul\":641:665   */\n  tag_22\n    /* \"#utility.yul\":659:664   */\n  dup2\n    /* \"#utility.yul\":641:665   */\n  tag_11\n  jump\t// in\ntag_22:\n    /* \"#utility.yul\":634:639   */\n  dup2\n    /* \"#utility.yul\":631:666   */\n  eq\n    /* \"#utility.yul\":621:684   */\n  tag_23\n  jumpi\n    /* \"#utility.yul\":680:681   */\n  0x00\n    /* \"#utility.yul\":677:678   */\n  dup1\n    /* \"#utility.yul\":670:682   */\n  revert\n    /* \"#utility.yul\":621:684   */\ntag_23:\n    /* \"#utility.yul\":568:690   */\n  pop\n  jump\t// out\n    /* \"#utility.yul\":696:839   */\ntag_13:\n    /* \"#utility.yul\":753:758   */\n  0x00\n    /* \"#utility.yul\":784:790   */\n  dup2\n    /* \"#utility.yul\":778:791   */\n  mload\n    /* \"#utility.yul\":769:791   */\n  swap1\n  pop\n    /* \"#utility.yul\":800:833   */\n  tag_25\n    /* \"#utility.yul\":827:832   */\n  dup2\n    /* \"#utility.yul\":800:833   */\n  tag_12\n  jump\t// in\ntag_25:\n    /* \"#utility.yul\":696:839   */\n  swap3\n  swap2\n  pop\n  pop\n  jump\t// out\n    /* \"#utility.yul\":845:1196   */\ntag_3:\n    /* \"#utility.yul\":915:921   */\n  0x00\n    /* \"#utility.yul\":964:966   */\n  0x20\n    /* \"#utility.yul\":952:961   */\n  dup3\n    /* \"#utility.yul\":943:950   */\n  dup5\n    /* \"#utility.yul\":939:962   */\n  sub\n    /* \"#utility.yul\":935:967   */\n  slt\n    /* \"#utility.yul\":932:1051   */\n  iszero\n  tag_27\n  jumpi\n    /* \"#utility.yul\":970:1049   */\n  tag_28\n  tag_8\n  jump\t// in\ntag_28:\n    /* \"#utility.yul\":932:1051   */\ntag_27:\n    /* \"#utility.yul\":1090:1091   */\n  0x00\n    /* \"#utility.yul\":1115:1179   */\n  tag_29\n    /* \"#utility.yul\":1171:1178   */\n  dup5\n    /* \"#utility.yul\":1162:1168   */\n  dup3\n    /* \"#utility.yul\":1151:1160   */\n  dup6\n    /* \"#utility.yul\":1147:1169   */\n  add\n    /* \"#utility.yul\":1115:1179   */\n  tag_13\n  jump\t// in\ntag_29:\n    /* \"#utility.yul\":1105:1179   */\n  swap2\n  pop\n    /* \"#utility.yul\":1061:1189   */\n  pop\n    /* \"#utility.yul\":845:1196   */\n  swap3\n  swap2\n  pop\n  pop\n  jump\t// out\n    /* \"MLM/1-Level MLM System/ChainBoost.sol\":288:2279  contract ChainBoost {... */\ntag_6:\n  dataSize(sub_0)\n  dup1\n  dataOffset(sub_0)\n  0x00\n  codecopy\n  0x00\n  return\nstop\n\nsub_0: assembly {\n        /* \"MLM/1-Level MLM System/ChainBoost.sol\":288:2279  contract ChainBoost {... */\n      mstore(0x40, 0x80)\n      callvalue\n      dup1\n      iszero\n      tag_1\n      jumpi\n      0x00\n      dup1\n      revert\n    tag_1:\n      pop\n      jumpi(tag_2, lt(calldatasize, 0x04))\n      shr(0xe0, calldataload(0x00))\n      dup1\n      0x0840605a\n      eq\n      tag_3\n      jumpi\n      dup1\n      0x4aa735c0\n      eq\n      tag_4\n      jumpi\n      dup1\n      0x64b4f751\n      eq\n      tag_5\n      jumpi\n      dup1\n      0x8da5cb5b\n      eq\n      tag_6\n      jumpi\n      dup1\n      0xa87430ba\n      eq\n      tag_7\n      jumpi\n    tag_2:\n      0x00\n      dup1\n      revert\n        /* \"MLM/1-Level MLM System/ChainBoost.sol\":1001:2145  function  registration(address _referrer) external {... */\n    tag_3:\n      tag_8\n      0x04\n      dup1\n      calldatasize\n      sub\n      dup2\n      add\n      swap1\n      tag_9\n      swap2\n      swap1\n      tag_10\n      jump\t// in\n    tag_9:\n      tag_11\n      jump\t// in\n    tag_8:\n      stop\n        /* \"MLM/1-Level MLM System/ChainBoost.sol\":340:358  IERC20 public  BST */\n    tag_4:\n      tag_12\n      tag_13\n      jump\t// in\n    tag_12:\n      mload(0x40)\n      tag_14\n      swap2\n      swap1\n      tag_15\n      jump\t// in\n    tag_14:\n      mload(0x40)\n      dup1\n      swap2\n      sub\n      swap1\n      return\n        /* \"MLM/1-Level MLM System/ChainBoost.sol\":391:439  uint public  constant REGISTRATION_FEE=10*10**18 */\n    tag_5:\n      tag_16\n      tag_17\n      jump\t// in\n    tag_16:\n      mload(0x40)\n      tag_18\n      swap2\n      swap1\n      tag_19\n      jump\t// in\n    tag_18:\n      mload(0x40)\n      dup1\n      swap2\n      sub\n      swap1\n      return\n        /* \"MLM/1-Level MLM System/ChainBoost.sol\":364:384  address public owner */\n    tag_6:\n      tag_20\n      tag_21\n      jump\t// in\n    tag_20:\n      mload(0x40)\n      tag_22\n      swap2\n      swap1\n      tag_23\n      jump\t// in\n    tag_22:\n      mload(0x40)\n      dup1\n      swap2\n      sub\n      swap1\n      return\n        /* \"MLM/1-Level MLM System/ChainBoost.sol\":955:994  mapping (address => User ) public users */\n    tag_7:\n      tag_24\n      0x04\n      dup1\n      calldatasize\n      sub\n      dup2\n      add\n      swap1\n      tag_25\n      swap2\n      swap1\n      tag_10\n      jump\t// in\n    tag_25:\n      tag_26\n      jump\t// in\n    tag_24:\n      mload(0x40)\n      tag_27\n      swap6\n      swap5\n      swap4\n      swap3\n      swap2\n      swap1\n      tag_28\n      jump\t// in\n    tag_27:\n      mload(0x40)\n      dup1\n      swap2\n      sub\n      swap1\n      return\n        /* \"MLM/1-Level MLM System/ChainBoost.sol\":1001:2145  function  registration(address _referrer) external {... */\n    tag_11:\n        /* \"MLM/1-Level MLM System/ChainBoost.sol\":1071:1076  users */\n      0x02\n        /* \"MLM/1-Level MLM System/ChainBoost.sol\":1071:1088  users[msg.sender] */\n      0x00\n        /* \"MLM/1-Level MLM System/ChainBoost.sol\":1077:1087  msg.sender */\n      caller\n        /* \"MLM/1-Level MLM System/ChainBoost.sol\":1071:1088  users[msg.sender] */\n      0xffffffffffffffffffffffffffffffffffffffff\n      and\n      0xffffffffffffffffffffffffffffffffffffffff\n      and\n      dup2\n      mstore\n      0x20\n      add\n      swap1\n      dup2\n      mstore\n      0x20\n      add\n      0x00\n      keccak256\n        /* \"MLM/1-Level MLM System/ChainBoost.sol\":1071:1101  users[msg.sender].isRegistered */\n      0x02\n      add\n      0x00\n      swap1\n      sload\n      swap1\n      0x0100\n      exp\n      swap1\n      div\n      0xff\n      and\n        /* \"MLM/1-Level MLM System/ChainBoost.sol\":1070:1101  !users[msg.sender].isRegistered */\n      iszero\n        /* \"MLM/1-Level MLM System/ChainBoost.sol\":1062:1123  require(!users[msg.sender].isRegistered,\"Already registered\") */\n      tag_30\n      jumpi\n      mload(0x40)\n      0x08c379a000000000000000000000000000000000000000000000000000000000\n      dup2\n      mstore\n      0x04\n      add\n      tag_31\n      swap1\n      tag_32\n      jump\t// in\n    tag_31:\n      mload(0x40)\n      dup1\n      swap2\n      sub\n      swap1\n      revert\n    tag_30:\n        /* \"MLM/1-Level MLM System/ChainBoost.sol\":1160:1161  0 */\n      0x00\n        /* \"MLM/1-Level MLM System/ChainBoost.sol\":1141:1162  _referrer!=address(0) */\n      0xffffffffffffffffffffffffffffffffffffffff\n      and\n        /* \"MLM/1-Level MLM System/ChainBoost.sol\":1141:1150  _referrer */\n      dup2\n        /* \"MLM/1-Level MLM System/ChainBoost.sol\":1141:1162  _referrer!=address(0) */\n      0xffffffffffffffffffffffffffffffffffffffff\n      and\n      sub\n        /* \"MLM/1-Level MLM System/ChainBoost.sol\":1133:1182  require(_referrer!=address(0),\"invalid referral\") */\n      tag_33\n      jumpi\n      mload(0x40)\n      0x08c379a000000000000000000000000000000000000000000000000000000000\n      dup2\n      mstore\n      0x04\n      add\n      tag_34\n      swap1\n      tag_35\n      jump\t// in\n    tag_34:\n      mload(0x40)\n      dup1\n      swap2\n      sub\n      swap1\n      revert\n    tag_33:\n        /* \"MLM/1-Level MLM System/ChainBoost.sol\":1202:1207  users */\n      0x02\n        /* \"MLM/1-Level MLM System/ChainBoost.sol\":1202:1218  users[_referrer] */\n      0x00\n        /* \"MLM/1-Level MLM System/ChainBoost.sol\":1208:1217  _referrer */\n      dup3\n        /* \"MLM/1-Level MLM System/ChainBoost.sol\":1202:1218  users[_referrer] */\n      0xffffffffffffffffffffffffffffffffffffffff\n      and\n      0xffffffffffffffffffffffffffffffffffffffff\n      and\n      dup2\n      mstore\n      0x20\n      add\n      swap1\n      dup2\n      mstore\n      0x20\n      add\n      0x00\n      keccak256\n        /* \"MLM/1-Level MLM System/ChainBoost.sol\":1202:1231  users[_referrer].isRegistered */\n      0x02\n      add\n      0x00\n      swap1\n      sload\n      swap1\n      0x0100\n      exp\n      swap1\n      div\n      0xff\n      and\n        /* \"MLM/1-Level MLM System/ChainBoost.sol\":1194:1283  require(users[_referrer].isRegistered,\"Referral user did not complete any registration \") */\n      tag_36\n      jumpi\n      mload(0x40)\n      0x08c379a000000000000000000000000000000000000000000000000000000000\n      dup2\n      mstore\n      0x04\n      add\n      tag_37\n      swap1\n      tag_38\n      jump\t// in\n    tag_37:\n      mload(0x40)\n      dup1\n      swap2\n      sub\n      swap1\n      revert\n    tag_36:\n        /* \"MLM/1-Level MLM System/ChainBoost.sol\":1303:1306  BST */\n      0x00\n      dup1\n      sload\n      swap1\n      0x0100\n      exp\n      swap1\n      div\n      0xffffffffffffffffffffffffffffffffffffffff\n      and\n        /* \"MLM/1-Level MLM System/ChainBoost.sol\":1303:1319  BST.transferFrom */\n      0xffffffffffffffffffffffffffffffffffffffff\n      and\n      0x23b872dd\n        /* \"MLM/1-Level MLM System/ChainBoost.sol\":1320:1330  msg.sender */\n      caller\n        /* \"MLM/1-Level MLM System/ChainBoost.sol\":1339:1343  this */\n      address\n        /* \"MLM/1-Level MLM System/ChainBoost.sol\":430:439  10*10**18 */\n      0x8ac7230489e80000\n        /* \"MLM/1-Level MLM System/ChainBoost.sol\":1303:1363  BST.transferFrom(msg.sender,address(this), REGISTRATION_FEE) */\n      mload(0x40)\n      dup5\n      0xffffffff\n      and\n      0xe0\n      shl\n      dup2\n      mstore\n      0x04\n      add\n      tag_39\n      swap4\n      swap3\n      swap2\n      swap1\n      tag_40\n      jump\t// in\n    tag_39:\n      0x20\n      mload(0x40)\n      dup1\n      dup4\n      sub\n      dup2\n      0x00\n      dup8\n      gas\n      call\n      iszero\n      dup1\n      iszero\n      tag_42\n      jumpi\n      returndatasize\n      0x00\n      dup1\n      returndatacopy\n      revert(0x00, returndatasize)\n    tag_42:\n      pop\n      pop\n      pop\n      pop\n      mload(0x40)\n      returndatasize\n      not(0x1f)\n      0x1f\n      dup3\n      add\n      and\n      dup3\n      add\n      dup1\n      0x40\n      mstore\n      pop\n      dup2\n      add\n      swap1\n      tag_43\n      swap2\n      swap1\n      tag_44\n      jump\t// in\n    tag_43:\n        /* \"MLM/1-Level MLM System/ChainBoost.sol\":1295:1386  require(BST.transferFrom(msg.sender,address(this), REGISTRATION_FEE),\"registration failed\") */\n      tag_45\n      jumpi\n      mload(0x40)\n      0x08c379a000000000000000000000000000000000000000000000000000000000\n      dup2\n      mstore\n      0x04\n      add\n      tag_46\n      swap1\n      tag_47\n      jump\t// in\n    tag_46:\n      mload(0x40)\n      dup1\n      swap2\n      sub\n      swap1\n      revert\n    tag_45:\n        /* \"MLM/1-Level MLM System/ChainBoost.sol\":1501:1512  uint reward */\n      0x00\n        /* \"MLM/1-Level MLM System/ChainBoost.sol\":1513:1560  calculateDirectReferralReward(REGISTRATION_FEE) */\n      tag_48\n        /* \"MLM/1-Level MLM System/ChainBoost.sol\":430:439  10*10**18 */\n      0x8ac7230489e80000\n        /* \"MLM/1-Level MLM System/ChainBoost.sol\":1513:1542  calculateDirectReferralReward */\n      tag_49\n        /* \"MLM/1-Level MLM System/ChainBoost.sol\":1513:1560  calculateDirectReferralReward(REGISTRATION_FEE) */\n      jump\t// in\n    tag_48:\n        /* \"MLM/1-Level MLM System/ChainBoost.sol\":1501:1560  uint reward=calculateDirectReferralReward(REGISTRATION_FEE) */\n      swap1\n      pop\n        /* \"MLM/1-Level MLM System/ChainBoost.sol\":1570:1573  BST */\n      0x00\n      dup1\n      sload\n      swap1\n      0x0100\n      exp\n      swap1\n      div\n      0xffffffffffffffffffffffffffffffffffffffff\n      and\n        /* \"MLM/1-Level MLM System/ChainBoost.sol\":1570:1582  BST.transfer */\n      0xffffffffffffffffffffffffffffffffffffffff\n      and\n      0xa9059cbb\n        /* \"MLM/1-Level MLM System/ChainBoost.sol\":1583:1592  _referrer */\n      dup4\n        /* \"MLM/1-Level MLM System/ChainBoost.sol\":1594:1600  reward */\n      dup4\n        /* \"MLM/1-Level MLM System/ChainBoost.sol\":1570:1601  BST.transfer(_referrer, reward) */\n      mload(0x40)\n      dup4\n      0xffffffff\n      and\n      0xe0\n      shl\n      dup2\n      mstore\n      0x04\n      add\n      tag_50\n      swap3\n      swap2\n      swap1\n      tag_51\n      jump\t// in\n    tag_50:\n      0x20\n      mload(0x40)\n      dup1\n      dup4\n      sub\n      dup2\n      0x00\n      dup8\n      gas\n      call\n      iszero\n      dup1\n      iszero\n      tag_53\n      jumpi\n      returndatasize\n      0x00\n      dup1\n      returndatacopy\n      revert(0x00, returndatasize)\n    tag_53:\n      pop\n      pop\n      pop\n      pop\n      mload(0x40)\n      returndatasize\n      not(0x1f)\n      0x1f\n      dup3\n      add\n      and\n      dup3\n      add\n      dup1\n      0x40\n      mstore\n      pop\n      dup2\n      add\n      swap1\n      tag_54\n      swap2\n      swap1\n      tag_44\n      jump\t// in\n    tag_54:\n      pop\n        /* \"MLM/1-Level MLM System/ChainBoost.sol\":1671:1677  reward */\n      dup1\n        /* \"MLM/1-Level MLM System/ChainBoost.sol\":1638:1643  users */\n      0x02\n        /* \"MLM/1-Level MLM System/ChainBoost.sol\":1638:1654  users[_referrer] */\n      0x00\n        /* \"MLM/1-Level MLM System/ChainBoost.sol\":1644:1653  _referrer */\n      dup5\n        /* \"MLM/1-Level MLM System/ChainBoost.sol\":1638:1654  users[_referrer] */\n      0xffffffffffffffffffffffffffffffffffffffff\n      and\n      0xffffffffffffffffffffffffffffffffffffffff\n      and\n      dup2\n      mstore\n      0x20\n      add\n      swap1\n      dup2\n      mstore\n      0x20\n      add\n      0x00\n      keccak256\n        /* \"MLM/1-Level MLM System/ChainBoost.sol\":1638:1669  users[_referrer].referralIncome */\n      0x01\n      add\n      0x00\n        /* \"MLM/1-Level MLM System/ChainBoost.sol\":1638:1677  users[_referrer].referralIncome+=reward */\n      dup3\n      dup3\n      sload\n      tag_55\n      swap2\n      swap1\n      tag_56\n      jump\t// in\n    tag_55:\n      swap3\n      pop\n      pop\n      dup2\n      swap1\n      sstore\n      pop\n        /* \"MLM/1-Level MLM System/ChainBoost.sol\":1719:1720  1 */\n      0x01\n        /* \"MLM/1-Level MLM System/ChainBoost.sol\":1687:1692  users */\n      0x02\n        /* \"MLM/1-Level MLM System/ChainBoost.sol\":1687:1703  users[_referrer] */\n      0x00\n        /* \"MLM/1-Level MLM System/ChainBoost.sol\":1693:1702  _referrer */\n      dup5\n        /* \"MLM/1-Level MLM System/ChainBoost.sol\":1687:1703  users[_referrer] */\n      0xffffffffffffffffffffffffffffffffffffffff\n      and\n      0xffffffffffffffffffffffffffffffffffffffff\n      and\n      dup2\n      mstore\n      0x20\n      add\n      swap1\n      dup2\n      mstore\n      0x20\n      add\n      0x00\n      keccak256\n        /* \"MLM/1-Level MLM System/ChainBoost.sol\":1687:1717  users[_referrer].referralCount */\n      0x03\n      add\n      0x00\n        /* \"MLM/1-Level MLM System/ChainBoost.sol\":1687:1720  users[_referrer].referralCount+=1 */\n      dup3\n      dup3\n      sload\n      tag_57\n      swap2\n      swap1\n      tag_56\n      jump\t// in\n    tag_57:\n      swap3\n      pop\n      pop\n      dup2\n      swap1\n      sstore\n      pop\n        /* \"MLM/1-Level MLM System/ChainBoost.sol\":1730:1735  users */\n      0x02\n        /* \"MLM/1-Level MLM System/ChainBoost.sol\":1730:1746  users[_referrer] */\n      0x00\n        /* \"MLM/1-Level MLM System/ChainBoost.sol\":1736:1745  _referrer */\n      dup4\n        /* \"MLM/1-Level MLM System/ChainBoost.sol\":1730:1746  users[_referrer] */\n      0xffffffffffffffffffffffffffffffffffffffff\n      and\n      0xffffffffffffffffffffffffffffffffffffffff\n      and\n      dup2\n      mstore\n      0x20\n      add\n      swap1\n      dup2\n      mstore\n      0x20\n      add\n      0x00\n      keccak256\n        /* \"MLM/1-Level MLM System/ChainBoost.sol\":1730:1762  users[_referrer].directReferrals */\n      0x05\n      add\n        /* \"MLM/1-Level MLM System/ChainBoost.sol\":1768:1778  msg.sender */\n      caller\n        /* \"MLM/1-Level MLM System/ChainBoost.sol\":1730:1779  users[_referrer].directReferrals.push(msg.sender) */\n      swap1\n      dup1\n      0x01\n      dup2\n      sload\n      add\n      dup1\n      dup3\n      sstore\n      dup1\n      swap2\n      pop\n      pop\n      0x01\n      swap1\n      sub\n      swap1\n      0x00\n      mstore\n      keccak256(0x00, 0x20)\n      add\n      0x00\n      swap1\n      swap2\n      swap1\n      swap2\n      swap1\n      swap2\n      0x0100\n      exp\n      dup2\n      sload\n      dup2\n      0xffffffffffffffffffffffffffffffffffffffff\n      mul\n      not\n      and\n      swap1\n      dup4\n      0xffffffffffffffffffffffffffffffffffffffff\n      and\n      mul\n      or\n      swap1\n      sstore\n      pop\n        /* \"MLM/1-Level MLM System/ChainBoost.sol\":1808:2064  User({... */\n      mload(0x40)\n      dup1\n      0xc0\n      add\n      0x40\n      mstore\n      dup1\n        /* \"MLM/1-Level MLM System/ChainBoost.sol\":1837:1846  _referrer */\n      dup4\n        /* \"MLM/1-Level MLM System/ChainBoost.sol\":1808:2064  User({... */\n      0xffffffffffffffffffffffffffffffffffffffff\n      and\n      dup2\n      mstore\n      0x20\n      add\n        /* \"MLM/1-Level MLM System/ChainBoost.sol\":1877:1878  0 */\n      0x00\n        /* \"MLM/1-Level MLM System/ChainBoost.sol\":1808:2064  User({... */\n      dup2\n      mstore\n      0x20\n      add\n        /* \"MLM/1-Level MLM System/ChainBoost.sol\":1908:1912  true */\n      0x01\n        /* \"MLM/1-Level MLM System/ChainBoost.sol\":1808:2064  User({... */\n      iszero\n      iszero\n      dup2\n      mstore\n      0x20\n      add\n        /* \"MLM/1-Level MLM System/ChainBoost.sol\":1945:1946  0 */\n      0x00\n        /* \"MLM/1-Level MLM System/ChainBoost.sol\":1808:2064  User({... */\n      dup2\n      mstore\n      0x20\n      add\n        /* \"MLM/1-Level MLM System/ChainBoost.sol\":1980:1995  block.timestamp */\n      timestamp\n        /* \"MLM/1-Level MLM System/ChainBoost.sol\":1808:2064  User({... */\n      dup2\n      mstore\n      0x20\n      add\n        /* \"MLM/1-Level MLM System/ChainBoost.sol\":2041:2042  0 */\n      0x00\n        /* \"MLM/1-Level MLM System/ChainBoost.sol\":2027:2043  new address[](0) */\n      0xffffffffffffffff\n      dup2\n      gt\n      iszero\n      tag_59\n      jumpi\n      tag_60\n      tag_61\n      jump\t// in\n    tag_60:\n    tag_59:\n      mload(0x40)\n      swap1\n      dup1\n      dup3\n      mstore\n      dup1\n      0x20\n      mul\n      0x20\n      add\n      dup3\n      add\n      0x40\n      mstore\n      dup1\n      iszero\n      tag_62\n      jumpi\n      dup2\n      0x20\n      add\n      0x20\n      dup3\n      mul\n      dup1\n      calldatasize\n      dup4\n      calldatacopy\n      dup1\n      dup3\n      add\n      swap2\n      pop\n      pop\n      swap1\n      pop\n    tag_62:\n      pop\n        /* \"MLM/1-Level MLM System/ChainBoost.sol\":1808:2064  User({... */\n      dup2\n      mstore\n      pop\n        /* \"MLM/1-Level MLM System/ChainBoost.sol\":1790:1795  users */\n      0x02\n        /* \"MLM/1-Level MLM System/ChainBoost.sol\":1790:1807  users[msg.sender] */\n      0x00\n        /* \"MLM/1-Level MLM System/ChainBoost.sol\":1796:1806  msg.sender */\n      caller\n        /* \"MLM/1-Level MLM System/ChainBoost.sol\":1790:1807  users[msg.sender] */\n      0xffffffffffffffffffffffffffffffffffffffff\n      and\n      0xffffffffffffffffffffffffffffffffffffffff\n      and\n      dup2\n      mstore\n      0x20\n      add\n      swap1\n      dup2\n      mstore\n      0x20\n      add\n      0x00\n      keccak256\n        /* \"MLM/1-Level MLM System/ChainBoost.sol\":1790:2064  users[msg.sender]=User({... */\n      0x00\n      dup3\n      add\n      mload\n      dup2\n      0x00\n      add\n      exp(0x0100, 0x00)\n      dup2\n      sload\n      dup2\n      0xffffffffffffffffffffffffffffffffffffffff\n      mul\n      not\n      and\n      swap1\n      dup4\n      0xffffffffffffffffffffffffffffffffffffffff\n      and\n      mul\n      or\n      swap1\n      sstore\n      pop\n      0x20\n      dup3\n      add\n      mload\n      dup2\n      0x01\n      add\n      sstore\n      0x40\n      dup3\n      add\n      mload\n      dup2\n      0x02\n      add\n      exp(0x0100, 0x00)\n      dup2\n      sload\n      dup2\n      0xff\n      mul\n      not\n      and\n      swap1\n      dup4\n      iszero\n      iszero\n      mul\n      or\n      swap1\n      sstore\n      pop\n      0x60\n      dup3\n      add\n      mload\n      dup2\n      0x03\n      add\n      sstore\n      0x80\n      dup3\n      add\n      mload\n      dup2\n      0x04\n      add\n      sstore\n      0xa0\n      dup3\n      add\n      mload\n      dup2\n      0x05\n      add\n      swap1\n      dup1\n      mload\n      swap1\n      0x20\n      add\n      swap1\n      tag_63\n      swap3\n      swap2\n      swap1\n      tag_64\n      jump\t// in\n    tag_63:\n      pop\n      swap1\n      pop\n      pop\n        /* \"MLM/1-Level MLM System/ChainBoost.sol\":1052:2145  {... */\n      pop\n        /* \"MLM/1-Level MLM System/ChainBoost.sol\":1001:2145  function  registration(address _referrer) external {... */\n      pop\n      jump\t// out\n        /* \"MLM/1-Level MLM System/ChainBoost.sol\":340:358  IERC20 public  BST */\n    tag_13:\n      0x00\n      dup1\n      sload\n      swap1\n      0x0100\n      exp\n      swap1\n      div\n      0xffffffffffffffffffffffffffffffffffffffff\n      and\n      dup2\n      jump\t// out\n        /* \"MLM/1-Level MLM System/ChainBoost.sol\":391:439  uint public  constant REGISTRATION_FEE=10*10**18 */\n    tag_17:\n        /* \"MLM/1-Level MLM System/ChainBoost.sol\":430:439  10*10**18 */\n      0x8ac7230489e80000\n        /* \"MLM/1-Level MLM System/ChainBoost.sol\":391:439  uint public  constant REGISTRATION_FEE=10*10**18 */\n      dup2\n      jump\t// out\n        /* \"MLM/1-Level MLM System/ChainBoost.sol\":364:384  address public owner */\n    tag_21:\n      0x01\n      0x00\n      swap1\n      sload\n      swap1\n      0x0100\n      exp\n      swap1\n      div\n      0xffffffffffffffffffffffffffffffffffffffff\n      and\n      dup2\n      jump\t// out\n        /* \"MLM/1-Level MLM System/ChainBoost.sol\":955:994  mapping (address => User ) public users */\n    tag_26:\n      mstore(0x20, 0x02)\n      dup1\n      0x00\n      mstore\n      keccak256(0x00, 0x40)\n      0x00\n      swap2\n      pop\n      swap1\n      pop\n      dup1\n      0x00\n      add\n      0x00\n      swap1\n      sload\n      swap1\n      0x0100\n      exp\n      swap1\n      div\n      0xffffffffffffffffffffffffffffffffffffffff\n      and\n      swap1\n      dup1\n      0x01\n      add\n      sload\n      swap1\n      dup1\n      0x02\n      add\n      0x00\n      swap1\n      sload\n      swap1\n      0x0100\n      exp\n      swap1\n      div\n      0xff\n      and\n      swap1\n      dup1\n      0x03\n      add\n      sload\n      swap1\n      dup1\n      0x04\n      add\n      sload\n      swap1\n      pop\n      dup6\n      jump\t// out\n        /* \"MLM/1-Level MLM System/ChainBoost.sol\":2151:2275  function calculateDirectReferralReward(uint amount)  internal   pure returns(uint){... */\n    tag_49:\n        /* \"MLM/1-Level MLM System/ChainBoost.sol\":2228:2232  uint */\n      0x00\n        /* \"MLM/1-Level MLM System/ChainBoost.sol\":2263:2266  100 */\n      0x64\n        /* \"MLM/1-Level MLM System/ChainBoost.sol\":2259:2261  40 */\n      0x28\n        /* \"MLM/1-Level MLM System/ChainBoost.sol\":2252:2258  amount */\n      dup4\n        /* \"MLM/1-Level MLM System/ChainBoost.sol\":2252:2261  amount*40 */\n      tag_66\n      swap2\n      swap1\n      tag_67\n      jump\t// in\n    tag_66:\n        /* \"MLM/1-Level MLM System/ChainBoost.sol\":2251:2266  (amount*40)/100 */\n      tag_68\n      swap2\n      swap1\n      tag_69\n      jump\t// in\n    tag_68:\n        /* \"MLM/1-Level MLM System/ChainBoost.sol\":2243:2266  return  (amount*40)/100 */\n      swap1\n      pop\n        /* \"MLM/1-Level MLM System/ChainBoost.sol\":2151:2275  function calculateDirectReferralReward(uint amount)  internal   pure returns(uint){... */\n      swap2\n      swap1\n      pop\n      jump\t// out\n    tag_64:\n      dup3\n      dup1\n      sload\n      dup3\n      dup3\n      sstore\n      swap1\n      0x00\n      mstore\n      keccak256(0x00, 0x20)\n      swap1\n      dup2\n      add\n      swap3\n      dup3\n      iszero\n      tag_70\n      jumpi\n      swap2\n      0x20\n      mul\n      dup3\n      add\n    tag_71:\n      dup3\n      dup2\n      gt\n      iszero\n      tag_72\n      jumpi\n      dup3\n      mload\n      dup3\n      exp(0x0100, 0x00)\n      dup2\n      sload\n      dup2\n      0xffffffffffffffffffffffffffffffffffffffff\n      mul\n      not\n      and\n      swap1\n      dup4\n      0xffffffffffffffffffffffffffffffffffffffff\n      and\n      mul\n      or\n      swap1\n      sstore\n      pop\n      swap2\n      0x20\n      add\n      swap2\n      swap1\n      0x01\n      add\n      swap1\n      jump(tag_71)\n    tag_72:\n    tag_70:\n      pop\n      swap1\n      pop\n      tag_73\n      swap2\n      swap1\n      tag_74\n      jump\t// in\n    tag_73:\n      pop\n      swap1\n      jump\t// out\n    tag_74:\n    tag_75:\n      dup1\n      dup3\n      gt\n      iszero\n      tag_76\n      jumpi\n      0x00\n      dup2\n      0x00\n      swap1\n      sstore\n      pop\n      0x01\n      add\n      jump(tag_75)\n    tag_76:\n      pop\n      swap1\n      jump\t// out\n        /* \"#utility.yul\":88:205   */\n    tag_78:\n        /* \"#utility.yul\":197:198   */\n      0x00\n        /* \"#utility.yul\":194:195   */\n      dup1\n        /* \"#utility.yul\":187:199   */\n      revert\n        /* \"#utility.yul\":334:460   */\n    tag_80:\n        /* \"#utility.yul\":371:378   */\n      0x00\n        /* \"#utility.yul\":411:453   */\n      0xffffffffffffffffffffffffffffffffffffffff\n        /* \"#utility.yul\":404:409   */\n      dup3\n        /* \"#utility.yul\":400:454   */\n      and\n        /* \"#utility.yul\":389:454   */\n      swap1\n      pop\n        /* \"#utility.yul\":334:460   */\n      swap2\n      swap1\n      pop\n      jump\t// out\n        /* \"#utility.yul\":466:562   */\n    tag_81:\n        /* \"#utility.yul\":503:510   */\n      0x00\n        /* \"#utility.yul\":532:556   */\n      tag_113\n        /* \"#utility.yul\":550:555   */\n      dup3\n        /* \"#utility.yul\":532:556   */\n      tag_80\n      jump\t// in\n    tag_113:\n        /* \"#utility.yul\":521:556   */\n      swap1\n      pop\n        /* \"#utility.yul\":466:562   */\n      swap2\n      swap1\n      pop\n      jump\t// out\n        /* \"#utility.yul\":568:690   */\n    tag_82:\n        /* \"#utility.yul\":641:665   */\n      tag_115\n        /* \"#utility.yul\":659:664   */\n      dup2\n        /* \"#utility.yul\":641:665   */\n      tag_81\n      jump\t// in\n    tag_115:\n        /* \"#utility.yul\":634:639   */\n      dup2\n        /* \"#utility.yul\":631:666   */\n      eq\n        /* \"#utility.yul\":621:684   */\n      tag_116\n      jumpi\n        /* \"#utility.yul\":680:681   */\n      0x00\n        /* \"#utility.yul\":677:678   */\n      dup1\n        /* \"#utility.yul\":670:682   */\n      revert\n        /* \"#utility.yul\":621:684   */\n    tag_116:\n        /* \"#utility.yul\":568:690   */\n      pop\n      jump\t// out\n        /* \"#utility.yul\":696:835   */\n    tag_83:\n        /* \"#utility.yul\":742:747   */\n      0x00\n        /* \"#utility.yul\":780:786   */\n      dup2\n        /* \"#utility.yul\":767:787   */\n      calldataload\n        /* \"#utility.yul\":758:787   */\n      swap1\n      pop\n        /* \"#utility.yul\":796:829   */\n      tag_118\n        /* \"#utility.yul\":823:828   */\n      dup2\n        /* \"#utility.yul\":796:829   */\n      tag_82\n      jump\t// in\n    tag_118:\n        /* \"#utility.yul\":696:835   */\n      swap3\n      swap2\n      pop\n      pop\n      jump\t// out\n        /* \"#utility.yul\":841:1170   */\n    tag_10:\n        /* \"#utility.yul\":900:906   */\n      0x00\n        /* \"#utility.yul\":949:951   */\n      0x20\n        /* \"#utility.yul\":937:946   */\n      dup3\n        /* \"#utility.yul\":928:935   */\n      dup5\n        /* \"#utility.yul\":924:947   */\n      sub\n        /* \"#utility.yul\":920:952   */\n      slt\n        /* \"#utility.yul\":917:1036   */\n      iszero\n      tag_120\n      jumpi\n        /* \"#utility.yul\":955:1034   */\n      tag_121\n      tag_78\n      jump\t// in\n    tag_121:\n        /* \"#utility.yul\":917:1036   */\n    tag_120:\n        /* \"#utility.yul\":1075:1076   */\n      0x00\n        /* \"#utility.yul\":1100:1153   */\n      tag_122\n        /* \"#utility.yul\":1145:1152   */\n      dup5\n        /* \"#utility.yul\":1136:1142   */\n      dup3\n        /* \"#utility.yul\":1125:1134   */\n      dup6\n        /* \"#utility.yul\":1121:1143   */\n      add\n        /* \"#utility.yul\":1100:1153   */\n      tag_83\n      jump\t// in\n    tag_122:\n        /* \"#utility.yul\":1090:1153   */\n      swap2\n      pop\n        /* \"#utility.yul\":1046:1163   */\n      pop\n        /* \"#utility.yul\":841:1170   */\n      swap3\n      swap2\n      pop\n      pop\n      jump\t// out\n        /* \"#utility.yul\":1176:1236   */\n    tag_84:\n        /* \"#utility.yul\":1204:1207   */\n      0x00\n        /* \"#utility.yul\":1225:1230   */\n      dup2\n        /* \"#utility.yul\":1218:1230   */\n      swap1\n      pop\n        /* \"#utility.yul\":1176:1236   */\n      swap2\n      swap1\n      pop\n      jump\t// out\n        /* \"#utility.yul\":1242:1384   */\n    tag_85:\n        /* \"#utility.yul\":1292:1301   */\n      0x00\n        /* \"#utility.yul\":1325:1378   */\n      tag_125\n        /* \"#utility.yul\":1343:1377   */\n      tag_126\n        /* \"#utility.yul\":1352:1376   */\n      tag_127\n        /* \"#utility.yul\":1370:1375   */\n      dup5\n        /* \"#utility.yul\":1352:1376   */\n      tag_80\n      jump\t// in\n    tag_127:\n        /* \"#utility.yul\":1343:1377   */\n      tag_84\n      jump\t// in\n    tag_126:\n        /* \"#utility.yul\":1325:1378   */\n      tag_80\n      jump\t// in\n    tag_125:\n        /* \"#utility.yul\":1312:1378   */\n      swap1\n      pop\n        /* \"#utility.yul\":1242:1384   */\n      swap2\n      swap1\n      pop\n      jump\t// out\n        /* \"#utility.yul\":1390:1516   */\n    tag_86:\n        /* \"#utility.yul\":1440:1449   */\n      0x00\n        /* \"#utility.yul\":1473:1510   */\n      tag_129\n        /* \"#utility.yul\":1504:1509   */\n      dup3\n        /* \"#utility.yul\":1473:1510   */\n      tag_85\n      jump\t// in\n    tag_129:\n        /* \"#utility.yul\":1460:1510   */\n      swap1\n      pop\n        /* \"#utility.yul\":1390:1516   */\n      swap2\n      swap1\n      pop\n      jump\t// out\n        /* \"#utility.yul\":1522:1661   */\n    tag_87:\n        /* \"#utility.yul\":1585:1594   */\n      0x00\n        /* \"#utility.yul\":1618:1655   */\n      tag_131\n        /* \"#utility.yul\":1649:1654   */\n      dup3\n        /* \"#utility.yul\":1618:1655   */\n      tag_86\n      jump\t// in\n    tag_131:\n        /* \"#utility.yul\":1605:1655   */\n      swap1\n      pop\n        /* \"#utility.yul\":1522:1661   */\n      swap2\n      swap1\n      pop\n      jump\t// out\n        /* \"#utility.yul\":1667:1824   */\n    tag_88:\n        /* \"#utility.yul\":1767:1817   */\n      tag_133\n        /* \"#utility.yul\":1811:1816   */\n      dup2\n        /* \"#utility.yul\":1767:1817   */\n      tag_87\n      jump\t// in\n    tag_133:\n        /* \"#utility.yul\":1762:1765   */\n      dup3\n        /* \"#utility.yul\":1755:1818   */\n      mstore\n        /* \"#utility.yul\":1667:1824   */\n      pop\n      pop\n      jump\t// out\n        /* \"#utility.yul\":1830:2078   */\n    tag_15:\n        /* \"#utility.yul\":1936:1940   */\n      0x00\n        /* \"#utility.yul\":1974:1976   */\n      0x20\n        /* \"#utility.yul\":1963:1972   */\n      dup3\n        /* \"#utility.yul\":1959:1977   */\n      add\n        /* \"#utility.yul\":1951:1977   */\n      swap1\n      pop\n        /* \"#utility.yul\":1987:2071   */\n      tag_135\n        /* \"#utility.yul\":2068:2069   */\n      0x00\n        /* \"#utility.yul\":2057:2066   */\n      dup4\n        /* \"#utility.yul\":2053:2070   */\n      add\n        /* \"#utility.yul\":2044:2050   */\n      dup5\n        /* \"#utility.yul\":1987:2071   */\n      tag_88\n      jump\t// in\n    tag_135:\n        /* \"#utility.yul\":1830:2078   */\n      swap3\n      swap2\n      pop\n      pop\n      jump\t// out\n        /* \"#utility.yul\":2084:2161   */\n    tag_89:\n        /* \"#utility.yul\":2121:2128   */\n      0x00\n        /* \"#utility.yul\":2150:2155   */\n      dup2\n        /* \"#utility.yul\":2139:2155   */\n      swap1\n      pop\n        /* \"#utility.yul\":2084:2161   */\n      swap2\n      swap1\n      pop\n      jump\t// out\n        /* \"#utility.yul\":2167:2285   */\n    tag_90:\n        /* \"#utility.yul\":2254:2278   */\n      tag_138\n        /* \"#utility.yul\":2272:2277   */\n      dup2\n        /* \"#utility.yul\":2254:2278   */\n      tag_89\n      jump\t// in\n    tag_138:\n        /* \"#utility.yul\":2249:2252   */\n      dup3\n        /* \"#utility.yul\":2242:2279   */\n      mstore\n        /* \"#utility.yul\":2167:2285   */\n      pop\n      pop\n      jump\t// out\n        /* \"#utility.yul\":2291:2513   */\n    tag_19:\n        /* \"#utility.yul\":2384:2388   */\n      0x00\n        /* \"#utility.yul\":2422:2424   */\n      0x20\n        /* \"#utility.yul\":2411:2420   */\n      dup3\n        /* \"#utility.yul\":2407:2425   */\n      add\n        /* \"#utility.yul\":2399:2425   */\n      swap1\n      pop\n        /* \"#utility.yul\":2435:2506   */\n      tag_140\n        /* \"#utility.yul\":2503:2504   */\n      0x00\n        /* \"#utility.yul\":2492:2501   */\n      dup4\n        /* \"#utility.yul\":2488:2505   */\n      add\n        /* \"#utility.yul\":2479:2485   */\n      dup5\n        /* \"#utility.yul\":2435:2506   */\n      tag_90\n      jump\t// in\n    tag_140:\n        /* \"#utility.yul\":2291:2513   */\n      swap3\n      swap2\n      pop\n      pop\n      jump\t// out\n        /* \"#utility.yul\":2519:2637   */\n    tag_91:\n        /* \"#utility.yul\":2606:2630   */\n      tag_142\n        /* \"#utility.yul\":2624:2629   */\n      dup2\n        /* \"#utility.yul\":2606:2630   */\n      tag_81\n      jump\t// in\n    tag_142:\n        /* \"#utility.yul\":2601:2604   */\n      dup3\n        /* \"#utility.yul\":2594:2631   */\n      mstore\n        /* \"#utility.yul\":2519:2637   */\n      pop\n      pop\n      jump\t// out\n        /* \"#utility.yul\":2643:2865   */\n    tag_23:\n        /* \"#utility.yul\":2736:2740   */\n      0x00\n        /* \"#utility.yul\":2774:2776   */\n      0x20\n        /* \"#utility.yul\":2763:2772   */\n      dup3\n        /* \"#utility.yul\":2759:2777   */\n      add\n        /* \"#utility.yul\":2751:2777   */\n      swap1\n      pop\n        /* \"#utility.yul\":2787:2858   */\n      tag_144\n        /* \"#utility.yul\":2855:2856   */\n      0x00\n        /* \"#utility.yul\":2844:2853   */\n      dup4\n        /* \"#utility.yul\":2840:2857   */\n      add\n        /* \"#utility.yul\":2831:2837   */\n      dup5\n        /* \"#utility.yul\":2787:2858   */\n      tag_91\n      jump\t// in\n    tag_144:\n        /* \"#utility.yul\":2643:2865   */\n      swap3\n      swap2\n      pop\n      pop\n      jump\t// out\n        /* \"#utility.yul\":2871:2961   */\n    tag_92:\n        /* \"#utility.yul\":2905:2912   */\n      0x00\n        /* \"#utility.yul\":2948:2953   */\n      dup2\n        /* \"#utility.yul\":2941:2954   */\n      iszero\n        /* \"#utility.yul\":2934:2955   */\n      iszero\n        /* \"#utility.yul\":2923:2955   */\n      swap1\n      pop\n        /* \"#utility.yul\":2871:2961   */\n      swap2\n      swap1\n      pop\n      jump\t// out\n        /* \"#utility.yul\":2967:3076   */\n    tag_93:\n        /* \"#utility.yul\":3048:3069   */\n      tag_147\n        /* \"#utility.yul\":3063:3068   */\n      dup2\n        /* \"#utility.yul\":3048:3069   */\n      tag_92\n      jump\t// in\n    tag_147:\n        /* \"#utility.yul\":3043:3046   */\n      dup3\n        /* \"#utility.yul\":3036:3070   */\n      mstore\n        /* \"#utility.yul\":2967:3076   */\n      pop\n      pop\n      jump\t// out\n        /* \"#utility.yul\":3082:3734   */\n    tag_28:\n        /* \"#utility.yul\":3281:3285   */\n      0x00\n        /* \"#utility.yul\":3319:3322   */\n      0xa0\n        /* \"#utility.yul\":3308:3317   */\n      dup3\n        /* \"#utility.yul\":3304:3323   */\n      add\n        /* \"#utility.yul\":3296:3323   */\n      swap1\n      pop\n        /* \"#utility.yul\":3333:3404   */\n      tag_149\n        /* \"#utility.yul\":3401:3402   */\n      0x00\n        /* \"#utility.yul\":3390:3399   */\n      dup4\n        /* \"#utility.yul\":3386:3403   */\n      add\n        /* \"#utility.yul\":3377:3383   */\n      dup9\n        /* \"#utility.yul\":3333:3404   */\n      tag_91\n      jump\t// in\n    tag_149:\n        /* \"#utility.yul\":3414:3486   */\n      tag_150\n        /* \"#utility.yul\":3482:3484   */\n      0x20\n        /* \"#utility.yul\":3471:3480   */\n      dup4\n        /* \"#utility.yul\":3467:3485   */\n      add\n        /* \"#utility.yul\":3458:3464   */\n      dup8\n        /* \"#utility.yul\":3414:3486   */\n      tag_90\n      jump\t// in\n    tag_150:\n        /* \"#utility.yul\":3496:3562   */\n      tag_151\n        /* \"#utility.yul\":3558:3560   */\n      0x40\n        /* \"#utility.yul\":3547:3556   */\n      dup4\n        /* \"#utility.yul\":3543:3561   */\n      add\n        /* \"#utility.yul\":3534:3540   */\n      dup7\n        /* \"#utility.yul\":3496:3562   */\n      tag_93\n      jump\t// in\n    tag_151:\n        /* \"#utility.yul\":3572:3644   */\n      tag_152\n        /* \"#utility.yul\":3640:3642   */\n      0x60\n        /* \"#utility.yul\":3629:3638   */\n      dup4\n        /* \"#utility.yul\":3625:3643   */\n      add\n        /* \"#utility.yul\":3616:3622   */\n      dup6\n        /* \"#utility.yul\":3572:3644   */\n      tag_90\n      jump\t// in\n    tag_152:\n        /* \"#utility.yul\":3654:3727   */\n      tag_153\n        /* \"#utility.yul\":3722:3725   */\n      0x80\n        /* \"#utility.yul\":3711:3720   */\n      dup4\n        /* \"#utility.yul\":3707:3726   */\n      add\n        /* \"#utility.yul\":3698:3704   */\n      dup5\n        /* \"#utility.yul\":3654:3727   */\n      tag_90\n      jump\t// in\n    tag_153:\n        /* \"#utility.yul\":3082:3734   */\n      swap7\n      swap6\n      pop\n      pop\n      pop\n      pop\n      pop\n      pop\n      jump\t// out\n        /* \"#utility.yul\":3740:3909   */\n    tag_94:\n        /* \"#utility.yul\":3824:3835   */\n      0x00\n        /* \"#utility.yul\":3858:3864   */\n      dup3\n        /* \"#utility.yul\":3853:3856   */\n      dup3\n        /* \"#utility.yul\":3846:3865   */\n      mstore\n        /* \"#utility.yul\":3898:3902   */\n      0x20\n        /* \"#utility.yul\":3893:3896   */\n      dup3\n        /* \"#utility.yul\":3889:3903   */\n      add\n        /* \"#utility.yul\":3874:3903   */\n      swap1\n      pop\n        /* \"#utility.yul\":3740:3909   */\n      swap3\n      swap2\n      pop\n      pop\n      jump\t// out\n        /* \"#utility.yul\":3915:4083   */\n    tag_95:\n        /* \"#utility.yul\":4055:4075   */\n      0x416c726561647920726567697374657265640000000000000000000000000000\n        /* \"#utility.yul\":4051:4052   */\n      0x00\n        /* \"#utility.yul\":4043:4049   */\n      dup3\n        /* \"#utility.yul\":4039:4053   */\n      add\n        /* \"#utility.yul\":4032:4076   */\n      mstore\n        /* \"#utility.yul\":3915:4083   */\n      pop\n      jump\t// out\n        /* \"#utility.yul\":4089:4455   */\n    tag_96:\n        /* \"#utility.yul\":4231:4234   */\n      0x00\n        /* \"#utility.yul\":4252:4319   */\n      tag_157\n        /* \"#utility.yul\":4316:4318   */\n      0x12\n        /* \"#utility.yul\":4311:4314   */\n      dup4\n        /* \"#utility.yul\":4252:4319   */\n      tag_94\n      jump\t// in\n    tag_157:\n        /* \"#utility.yul\":4245:4319   */\n      swap2\n      pop\n        /* \"#utility.yul\":4328:4421   */\n      tag_158\n        /* \"#utility.yul\":4417:4420   */\n      dup3\n        /* \"#utility.yul\":4328:4421   */\n      tag_95\n      jump\t// in\n    tag_158:\n        /* \"#utility.yul\":4446:4448   */\n      0x20\n        /* \"#utility.yul\":4441:4444   */\n      dup3\n        /* \"#utility.yul\":4437:4449   */\n      add\n        /* \"#utility.yul\":4430:4449   */\n      swap1\n      pop\n        /* \"#utility.yul\":4089:4455   */\n      swap2\n      swap1\n      pop\n      jump\t// out\n        /* \"#utility.yul\":4461:4880   */\n    tag_32:\n        /* \"#utility.yul\":4627:4631   */\n      0x00\n        /* \"#utility.yul\":4665:4667   */\n      0x20\n        /* \"#utility.yul\":4654:4663   */\n      dup3\n        /* \"#utility.yul\":4650:4668   */\n      add\n        /* \"#utility.yul\":4642:4668   */\n      swap1\n      pop\n        /* \"#utility.yul\":4714:4723   */\n      dup2\n        /* \"#utility.yul\":4708:4712   */\n      dup2\n        /* \"#utility.yul\":4704:4724   */\n      sub\n        /* \"#utility.yul\":4700:4701   */\n      0x00\n        /* \"#utility.yul\":4689:4698   */\n      dup4\n        /* \"#utility.yul\":4685:4702   */\n      add\n        /* \"#utility.yul\":4678:4725   */\n      mstore\n        /* \"#utility.yul\":4742:4873   */\n      tag_160\n        /* \"#utility.yul\":4868:4872   */\n      dup2\n        /* \"#utility.yul\":4742:4873   */\n      tag_96\n      jump\t// in\n    tag_160:\n        /* \"#utility.yul\":4734:4873   */\n      swap1\n      pop\n        /* \"#utility.yul\":4461:4880   */\n      swap2\n      swap1\n      pop\n      jump\t// out\n        /* \"#utility.yul\":4886:5052   */\n    tag_97:\n        /* \"#utility.yul\":5026:5044   */\n      0x696e76616c696420726566657272616c00000000000000000000000000000000\n        /* \"#utility.yul\":5022:5023   */\n      0x00\n        /* \"#utility.yul\":5014:5020   */\n      dup3\n        /* \"#utility.yul\":5010:5024   */\n      add\n        /* \"#utility.yul\":5003:5045   */\n      mstore\n        /* \"#utility.yul\":4886:5052   */\n      pop\n      jump\t// out\n        /* \"#utility.yul\":5058:5424   */\n    tag_98:\n        /* \"#utility.yul\":5200:5203   */\n      0x00\n        /* \"#utility.yul\":5221:5288   */\n      tag_163\n        /* \"#utility.yul\":5285:5287   */\n      0x10\n        /* \"#utility.yul\":5280:5283   */\n      dup4\n        /* \"#utility.yul\":5221:5288   */\n      tag_94\n      jump\t// in\n    tag_163:\n        /* \"#utility.yul\":5214:5288   */\n      swap2\n      pop\n        /* \"#utility.yul\":5297:5390   */\n      tag_164\n        /* \"#utility.yul\":5386:5389   */\n      dup3\n        /* \"#utility.yul\":5297:5390   */\n      tag_97\n      jump\t// in\n    tag_164:\n        /* \"#utility.yul\":5415:5417   */\n      0x20\n        /* \"#utility.yul\":5410:5413   */\n      dup3\n        /* \"#utility.yul\":5406:5418   */\n      add\n        /* \"#utility.yul\":5399:5418   */\n      swap1\n      pop\n        /* \"#utility.yul\":5058:5424   */\n      swap2\n      swap1\n      pop\n      jump\t// out\n        /* \"#utility.yul\":5430:5849   */\n    tag_35:\n        /* \"#utility.yul\":5596:5600   */\n      0x00\n        /* \"#utility.yul\":5634:5636   */\n      0x20\n        /* \"#utility.yul\":5623:5632   */\n      dup3\n        /* \"#utility.yul\":5619:5637   */\n      add\n        /* \"#utility.yul\":5611:5637   */\n      swap1\n      pop\n        /* \"#utility.yul\":5683:5692   */\n      dup2\n        /* \"#utility.yul\":5677:5681   */\n      dup2\n        /* \"#utility.yul\":5673:5693   */\n      sub\n        /* \"#utility.yul\":5669:5670   */\n      0x00\n        /* \"#utility.yul\":5658:5667   */\n      dup4\n        /* \"#utility.yul\":5654:5671   */\n      add\n        /* \"#utility.yul\":5647:5694   */\n      mstore\n        /* \"#utility.yul\":5711:5842   */\n      tag_166\n        /* \"#utility.yul\":5837:5841   */\n      dup2\n        /* \"#utility.yul\":5711:5842   */\n      tag_98\n      jump\t// in\n    tag_166:\n        /* \"#utility.yul\":5703:5842   */\n      swap1\n      pop\n        /* \"#utility.yul\":5430:5849   */\n      swap2\n      swap1\n      pop\n      jump\t// out\n        /* \"#utility.yul\":5855:6090   */\n    tag_99:\n        /* \"#utility.yul\":5995:6029   */\n      0x526566657272616c207573657220646964206e6f7420636f6d706c6574652061\n        /* \"#utility.yul\":5991:5992   */\n      0x00\n        /* \"#utility.yul\":5983:5989   */\n      dup3\n        /* \"#utility.yul\":5979:5993   */\n      add\n        /* \"#utility.yul\":5972:6030   */\n      mstore\n        /* \"#utility.yul\":6064:6082   */\n      0x6e7920726567697374726174696f6e2000000000000000000000000000000000\n        /* \"#utility.yul\":6059:6061   */\n      0x20\n        /* \"#utility.yul\":6051:6057   */\n      dup3\n        /* \"#utility.yul\":6047:6062   */\n      add\n        /* \"#utility.yul\":6040:6083   */\n      mstore\n        /* \"#utility.yul\":5855:6090   */\n      pop\n      jump\t// out\n        /* \"#utility.yul\":6096:6462   */\n    tag_100:\n        /* \"#utility.yul\":6238:6241   */\n      0x00\n        /* \"#utility.yul\":6259:6326   */\n      tag_169\n        /* \"#utility.yul\":6323:6325   */\n      0x30\n        /* \"#utility.yul\":6318:6321   */\n      dup4\n        /* \"#utility.yul\":6259:6326   */\n      tag_94\n      jump\t// in\n    tag_169:\n        /* \"#utility.yul\":6252:6326   */\n      swap2\n      pop\n        /* \"#utility.yul\":6335:6428   */\n      tag_170\n        /* \"#utility.yul\":6424:6427   */\n      dup3\n        /* \"#utility.yul\":6335:6428   */\n      tag_99\n      jump\t// in\n    tag_170:\n        /* \"#utility.yul\":6453:6455   */\n      0x40\n        /* \"#utility.yul\":6448:6451   */\n      dup3\n        /* \"#utility.yul\":6444:6456   */\n      add\n        /* \"#utility.yul\":6437:6456   */\n      swap1\n      pop\n        /* \"#utility.yul\":6096:6462   */\n      swap2\n      swap1\n      pop\n      jump\t// out\n        /* \"#utility.yul\":6468:6887   */\n    tag_38:\n        /* \"#utility.yul\":6634:6638   */\n      0x00\n        /* \"#utility.yul\":6672:6674   */\n      0x20\n        /* \"#utility.yul\":6661:6670   */\n      dup3\n        /* \"#utility.yul\":6657:6675   */\n      add\n        /* \"#utility.yul\":6649:6675   */\n      swap1\n      pop\n        /* \"#utility.yul\":6721:6730   */\n      dup2\n        /* \"#utility.yul\":6715:6719   */\n      dup2\n        /* \"#utility.yul\":6711:6731   */\n      sub\n        /* \"#utility.yul\":6707:6708   */\n      0x00\n        /* \"#utility.yul\":6696:6705   */\n      dup4\n        /* \"#utility.yul\":6692:6709   */\n      add\n        /* \"#utility.yul\":6685:6732   */\n      mstore\n        /* \"#utility.yul\":6749:6880   */\n      tag_172\n        /* \"#utility.yul\":6875:6879   */\n      dup2\n        /* \"#utility.yul\":6749:6880   */\n      tag_100\n      jump\t// in\n    tag_172:\n        /* \"#utility.yul\":6741:6880   */\n      swap1\n      pop\n        /* \"#utility.yul\":6468:6887   */\n      swap2\n      swap1\n      pop\n      jump\t// out\n        /* \"#utility.yul\":6893:7335   */\n    tag_40:\n        /* \"#utility.yul\":7042:7046   */\n      0x00\n        /* \"#utility.yul\":7080:7082   */\n      0x60\n        /* \"#utility.yul\":7069:7078   */\n      dup3\n        /* \"#utility.yul\":7065:7083   */\n      add\n        /* \"#utility.yul\":7057:7083   */\n      swap1\n      pop\n        /* \"#utility.yul\":7093:7164   */\n      tag_174\n        /* \"#utility.yul\":7161:7162   */\n      0x00\n        /* \"#utility.yul\":7150:7159   */\n      dup4\n        /* \"#utility.yul\":7146:7163   */\n      add\n        /* \"#utility.yul\":7137:7143   */\n      dup7\n        /* \"#utility.yul\":7093:7164   */\n      tag_91\n      jump\t// in\n    tag_174:\n        /* \"#utility.yul\":7174:7246   */\n      tag_175\n        /* \"#utility.yul\":7242:7244   */\n      0x20\n        /* \"#utility.yul\":7231:7240   */\n      dup4\n        /* \"#utility.yul\":7227:7245   */\n      add\n        /* \"#utility.yul\":7218:7224   */\n      dup6\n        /* \"#utility.yul\":7174:7246   */\n      tag_91\n      jump\t// in\n    tag_175:\n        /* \"#utility.yul\":7256:7328   */\n      tag_176\n        /* \"#utility.yul\":7324:7326   */\n      0x40\n        /* \"#utility.yul\":7313:7322   */\n      dup4\n        /* \"#utility.yul\":7309:7327   */\n      add\n        /* \"#utility.yul\":7300:7306   */\n      dup5\n        /* \"#utility.yul\":7256:7328   */\n      tag_90\n      jump\t// in\n    tag_176:\n        /* \"#utility.yul\":6893:7335   */\n      swap5\n      swap4\n      pop\n      pop\n      pop\n      pop\n      jump\t// out\n        /* \"#utility.yul\":7341:7457   */\n    tag_101:\n        /* \"#utility.yul\":7411:7432   */\n      tag_178\n        /* \"#utility.yul\":7426:7431   */\n      dup2\n        /* \"#utility.yul\":7411:7432   */\n      tag_92\n      jump\t// in\n    tag_178:\n        /* \"#utility.yul\":7404:7409   */\n      dup2\n        /* \"#utility.yul\":7401:7433   */\n      eq\n        /* \"#utility.yul\":7391:7451   */\n      tag_179\n      jumpi\n        /* \"#utility.yul\":7447:7448   */\n      0x00\n        /* \"#utility.yul\":7444:7445   */\n      dup1\n        /* \"#utility.yul\":7437:7449   */\n      revert\n        /* \"#utility.yul\":7391:7451   */\n    tag_179:\n        /* \"#utility.yul\":7341:7457   */\n      pop\n      jump\t// out\n        /* \"#utility.yul\":7463:7600   */\n    tag_102:\n        /* \"#utility.yul\":7517:7522   */\n      0x00\n        /* \"#utility.yul\":7548:7554   */\n      dup2\n        /* \"#utility.yul\":7542:7555   */\n      mload\n        /* \"#utility.yul\":7533:7555   */\n      swap1\n      pop\n        /* \"#utility.yul\":7564:7594   */\n      tag_181\n        /* \"#utility.yul\":7588:7593   */\n      dup2\n        /* \"#utility.yul\":7564:7594   */\n      tag_101\n      jump\t// in\n    tag_181:\n        /* \"#utility.yul\":7463:7600   */\n      swap3\n      swap2\n      pop\n      pop\n      jump\t// out\n        /* \"#utility.yul\":7606:7951   */\n    tag_44:\n        /* \"#utility.yul\":7673:7679   */\n      0x00\n        /* \"#utility.yul\":7722:7724   */\n      0x20\n        /* \"#utility.yul\":7710:7719   */\n      dup3\n        /* \"#utility.yul\":7701:7708   */\n      dup5\n        /* \"#utility.yul\":7697:7720   */\n      sub\n        /* \"#utility.yul\":7693:7725   */\n      slt\n        /* \"#utility.yul\":7690:7809   */\n      iszero\n      tag_183\n      jumpi\n        /* \"#utility.yul\":7728:7807   */\n      tag_184\n      tag_78\n      jump\t// in\n    tag_184:\n        /* \"#utility.yul\":7690:7809   */\n    tag_183:\n        /* \"#utility.yul\":7848:7849   */\n      0x00\n        /* \"#utility.yul\":7873:7934   */\n      tag_185\n        /* \"#utility.yul\":7926:7933   */\n      dup5\n        /* \"#utility.yul\":7917:7923   */\n      dup3\n        /* \"#utility.yul\":7906:7915   */\n      dup6\n        /* \"#utility.yul\":7902:7924   */\n      add\n        /* \"#utility.yul\":7873:7934   */\n      tag_102\n      jump\t// in\n    tag_185:\n        /* \"#utility.yul\":7863:7934   */\n      swap2\n      pop\n        /* \"#utility.yul\":7819:7944   */\n      pop\n        /* \"#utility.yul\":7606:7951   */\n      swap3\n      swap2\n      pop\n      pop\n      jump\t// out\n        /* \"#utility.yul\":7957:8126   */\n    tag_103:\n        /* \"#utility.yul\":8097:8118   */\n      0x726567697374726174696f6e206661696c656400000000000000000000000000\n        /* \"#utility.yul\":8093:8094   */\n      0x00\n        /* \"#utility.yul\":8085:8091   */\n      dup3\n        /* \"#utility.yul\":8081:8095   */\n      add\n        /* \"#utility.yul\":8074:8119   */\n      mstore\n        /* \"#utility.yul\":7957:8126   */\n      pop\n      jump\t// out\n        /* \"#utility.yul\":8132:8498   */\n    tag_104:\n        /* \"#utility.yul\":8274:8277   */\n      0x00\n        /* \"#utility.yul\":8295:8362   */\n      tag_188\n        /* \"#utility.yul\":8359:8361   */\n      0x13\n        /* \"#utility.yul\":8354:8357   */\n      dup4\n        /* \"#utility.yul\":8295:8362   */\n      tag_94\n      jump\t// in\n    tag_188:\n        /* \"#utility.yul\":8288:8362   */\n      swap2\n      pop\n        /* \"#utility.yul\":8371:8464   */\n      tag_189\n        /* \"#utility.yul\":8460:8463   */\n      dup3\n        /* \"#utility.yul\":8371:8464   */\n      tag_103\n      jump\t// in\n    tag_189:\n        /* \"#utility.yul\":8489:8491   */\n      0x20\n        /* \"#utility.yul\":8484:8487   */\n      dup3\n        /* \"#utility.yul\":8480:8492   */\n      add\n        /* \"#utility.yul\":8473:8492   */\n      swap1\n      pop\n        /* \"#utility.yul\":8132:8498   */\n      swap2\n      swap1\n      pop\n      jump\t// out\n        /* \"#utility.yul\":8504:8923   */\n    tag_47:\n        /* \"#utility.yul\":8670:8674   */\n      0x00\n        /* \"#utility.yul\":8708:8710   */\n      0x20\n        /* \"#utility.yul\":8697:8706   */\n      dup3\n        /* \"#utility.yul\":8693:8711   */\n      add\n        /* \"#utility.yul\":8685:8711   */\n      swap1\n      pop\n        /* \"#utility.yul\":8757:8766   */\n      dup2\n        /* \"#utility.yul\":8751:8755   */\n      dup2\n        /* \"#utility.yul\":8747:8767   */\n      sub\n        /* \"#utility.yul\":8743:8744   */\n      0x00\n        /* \"#utility.yul\":8732:8741   */\n      dup4\n        /* \"#utility.yul\":8728:8745   */\n      add\n        /* \"#utility.yul\":8721:8768   */\n      mstore\n        /* \"#utility.yul\":8785:8916   */\n      tag_191\n        /* \"#utility.yul\":8911:8915   */\n      dup2\n        /* \"#utility.yul\":8785:8916   */\n      tag_104\n      jump\t// in\n    tag_191:\n        /* \"#utility.yul\":8777:8916   */\n      swap1\n      pop\n        /* \"#utility.yul\":8504:8923   */\n      swap2\n      swap1\n      pop\n      jump\t// out\n        /* \"#utility.yul\":8929:9261   */\n    tag_51:\n        /* \"#utility.yul\":9050:9054   */\n      0x00\n        /* \"#utility.yul\":9088:9090   */\n      0x40\n        /* \"#utility.yul\":9077:9086   */\n      dup3\n        /* \"#utility.yul\":9073:9091   */\n      add\n        /* \"#utility.yul\":9065:9091   */\n      swap1\n      pop\n        /* \"#utility.yul\":9101:9172   */\n      tag_193\n        /* \"#utility.yul\":9169:9170   */\n      0x00\n        /* \"#utility.yul\":9158:9167   */\n      dup4\n        /* \"#utility.yul\":9154:9171   */\n      add\n        /* \"#utility.yul\":9145:9151   */\n      dup6\n        /* \"#utility.yul\":9101:9172   */\n      tag_91\n      jump\t// in\n    tag_193:\n        /* \"#utility.yul\":9182:9254   */\n      tag_194\n        /* \"#utility.yul\":9250:9252   */\n      0x20\n        /* \"#utility.yul\":9239:9248   */\n      dup4\n        /* \"#utility.yul\":9235:9253   */\n      add\n        /* \"#utility.yul\":9226:9232   */\n      dup5\n        /* \"#utility.yul\":9182:9254   */\n      tag_90\n      jump\t// in\n    tag_194:\n        /* \"#utility.yul\":8929:9261   */\n      swap4\n      swap3\n      pop\n      pop\n      pop\n      jump\t// out\n        /* \"#utility.yul\":9267:9447   */\n    tag_105:\n        /* \"#utility.yul\":9315:9392   */\n      0x4e487b7100000000000000000000000000000000000000000000000000000000\n        /* \"#utility.yul\":9312:9313   */\n      0x00\n        /* \"#utility.yul\":9305:9393   */\n      mstore\n        /* \"#utility.yul\":9412:9416   */\n      0x11\n        /* \"#utility.yul\":9409:9410   */\n      0x04\n        /* \"#utility.yul\":9402:9417   */\n      mstore\n        /* \"#utility.yul\":9436:9440   */\n      0x24\n        /* \"#utility.yul\":9433:9434   */\n      0x00\n        /* \"#utility.yul\":9426:9441   */\n      revert\n        /* \"#utility.yul\":9453:9644   */\n    tag_56:\n        /* \"#utility.yul\":9493:9496   */\n      0x00\n        /* \"#utility.yul\":9512:9532   */\n      tag_197\n        /* \"#utility.yul\":9530:9531   */\n      dup3\n        /* \"#utility.yul\":9512:9532   */\n      tag_89\n      jump\t// in\n    tag_197:\n        /* \"#utility.yul\":9507:9532   */\n      swap2\n      pop\n        /* \"#utility.yul\":9546:9566   */\n      tag_198\n        /* \"#utility.yul\":9564:9565   */\n      dup4\n        /* \"#utility.yul\":9546:9566   */\n      tag_89\n      jump\t// in\n    tag_198:\n        /* \"#utility.yul\":9541:9566   */\n      swap3\n      pop\n        /* \"#utility.yul\":9589:9590   */\n      dup3\n        /* \"#utility.yul\":9586:9587   */\n      dup3\n        /* \"#utility.yul\":9582:9591   */\n      add\n        /* \"#utility.yul\":9575:9591   */\n      swap1\n      pop\n        /* \"#utility.yul\":9610:9613   */\n      dup1\n        /* \"#utility.yul\":9607:9608   */\n      dup3\n        /* \"#utility.yul\":9604:9614   */\n      gt\n        /* \"#utility.yul\":9601:9637   */\n      iszero\n      tag_199\n      jumpi\n        /* \"#utility.yul\":9617:9635   */\n      tag_200\n      tag_105\n      jump\t// in\n    tag_200:\n        /* \"#utility.yul\":9601:9637   */\n    tag_199:\n        /* \"#utility.yul\":9453:9644   */\n      swap3\n      swap2\n      pop\n      pop\n      jump\t// out\n        /* \"#utility.yul\":9650:9830   */\n    tag_61:\n        /* \"#utility.yul\":9698:9775   */\n      0x4e487b7100000000000000000000000000000000000000000000000000000000\n        /* \"#utility.yul\":9695:9696   */\n      0x00\n        /* \"#utility.yul\":9688:9776   */\n      mstore\n        /* \"#utility.yul\":9795:9799   */\n      0x41\n        /* \"#utility.yul\":9792:9793   */\n      0x04\n        /* \"#utility.yul\":9785:9800   */\n      mstore\n        /* \"#utility.yul\":9819:9823   */\n      0x24\n        /* \"#utility.yul\":9816:9817   */\n      0x00\n        /* \"#utility.yul\":9809:9824   */\n      revert\n        /* \"#utility.yul\":9836:10246   */\n    tag_67:\n        /* \"#utility.yul\":9876:9883   */\n      0x00\n        /* \"#utility.yul\":9899:9919   */\n      tag_203\n        /* \"#utility.yul\":9917:9918   */\n      dup3\n        /* \"#utility.yul\":9899:9919   */\n      tag_89\n      jump\t// in\n    tag_203:\n        /* \"#utility.yul\":9894:9919   */\n      swap2\n      pop\n        /* \"#utility.yul\":9933:9953   */\n      tag_204\n        /* \"#utility.yul\":9951:9952   */\n      dup4\n        /* \"#utility.yul\":9933:9953   */\n      tag_89\n      jump\t// in\n    tag_204:\n        /* \"#utility.yul\":9928:9953   */\n      swap3\n      pop\n        /* \"#utility.yul\":9988:9989   */\n      dup3\n        /* \"#utility.yul\":9985:9986   */\n      dup3\n        /* \"#utility.yul\":9981:9990   */\n      mul\n        /* \"#utility.yul\":10010:10040   */\n      tag_205\n        /* \"#utility.yul\":10028:10039   */\n      dup2\n        /* \"#utility.yul\":10010:10040   */\n      tag_89\n      jump\t// in\n    tag_205:\n        /* \"#utility.yul\":9999:10040   */\n      swap2\n      pop\n        /* \"#utility.yul\":10189:10190   */\n      dup3\n        /* \"#utility.yul\":10180:10187   */\n      dup3\n        /* \"#utility.yul\":10176:10191   */\n      div\n        /* \"#utility.yul\":10173:10174   */\n      dup5\n        /* \"#utility.yul\":10170:10192   */\n      eq\n        /* \"#utility.yul\":10150:10151   */\n      dup4\n        /* \"#utility.yul\":10143:10152   */\n      iszero\n        /* \"#utility.yul\":10123:10206   */\n      or\n        /* \"#utility.yul\":10100:10239   */\n      tag_206\n      jumpi\n        /* \"#utility.yul\":10219:10237   */\n      tag_207\n      tag_105\n      jump\t// in\n    tag_207:\n        /* \"#utility.yul\":10100:10239   */\n    tag_206:\n        /* \"#utility.yul\":9884:10246   */\n      pop\n        /* \"#utility.yul\":9836:10246   */\n      swap3\n      swap2\n      pop\n      pop\n      jump\t// out\n        /* \"#utility.yul\":10252:10432   */\n    tag_106:\n        /* \"#utility.yul\":10300:10377   */\n      0x4e487b7100000000000000000000000000000000000000000000000000000000\n        /* \"#utility.yul\":10297:10298   */\n      0x00\n        /* \"#utility.yul\":10290:10378   */\n      mstore\n        /* \"#utility.yul\":10397:10401   */\n      0x12\n        /* \"#utility.yul\":10394:10395   */\n      0x04\n        /* \"#utility.yul\":10387:10402   */\n      mstore\n        /* \"#utility.yul\":10421:10425   */\n      0x24\n        /* \"#utility.yul\":10418:10419   */\n      0x00\n        /* \"#utility.yul\":10411:10426   */\n      revert\n        /* \"#utility.yul\":10438:10623   */\n    tag_69:\n        /* \"#utility.yul\":10478:10479   */\n      0x00\n        /* \"#utility.yul\":10495:10515   */\n      tag_210\n        /* \"#utility.yul\":10513:10514   */\n      dup3\n        /* \"#utility.yul\":10495:10515   */\n      tag_89\n      jump\t// in\n    tag_210:\n        /* \"#utility.yul\":10490:10515   */\n      swap2\n      pop\n        /* \"#utility.yul\":10529:10549   */\n      tag_211\n        /* \"#utility.yul\":10547:10548   */\n      dup4\n        /* \"#utility.yul\":10529:10549   */\n      tag_89\n      jump\t// in\n    tag_211:\n        /* \"#utility.yul\":10524:10549   */\n      swap3\n      pop\n        /* \"#utility.yul\":10568:10569   */\n      dup3\n        /* \"#utility.yul\":10558:10593   */\n      tag_212\n      jumpi\n        /* \"#utility.yul\":10573:10591   */\n      tag_213\n      tag_106\n      jump\t// in\n    tag_213:\n        /* \"#utility.yul\":10558:10593   */\n    tag_212:\n        /* \"#utility.yul\":10615:10616   */\n      dup3\n        /* \"#utility.yul\":10612:10613   */\n      dup3\n        /* \"#utility.yul\":10608:10617   */\n      div\n        /* \"#utility.yul\":10603:10617   */\n      swap1\n      pop\n        /* \"#utility.yul\":10438:10623   */\n      swap3\n      swap2\n      pop\n      pop\n      jump\t// out\n\n    auxdata: 0xa26469706673582212202fce38accc6ecf7d31805705993c3aefc59dfc915a546e5ddc4dd33be26bec1c64736f6c634300081a0033\n}\n",
				"bytecode": {
					"linkReferences": {},
					"object": "608060405234801561000f575f80fd5b50604051610f40380380610f4083398181016040528101906100319190610114565b805f806101000a81548173ffffffffffffffffffffffffffffffffffffffff021916908373ffffffffffffffffffffffffffffffffffffffff1602179055503360015f6101000a81548173ffffffffffffffffffffffffffffffffffffffff021916908373ffffffffffffffffffffffffffffffffffffffff1602179055505061013f565b5f80fd5b5f73ffffffffffffffffffffffffffffffffffffffff82169050919050565b5f6100e3826100ba565b9050919050565b6100f3816100d9565b81146100fd575f80fd5b50565b5f8151905061010e816100ea565b92915050565b5f60208284031215610129576101286100b6565b5b5f61013684828501610100565b91505092915050565b610df48061014c5f395ff3fe608060405234801561000f575f80fd5b5060043610610055575f3560e01c80630840605a146100595780634aa735c01461007557806364b4f751146100935780638da5cb5b146100b1578063a87430ba146100cf575b5f80fd5b610073600480360381019061006e91906108a9565b610103565b005b61007d6106d7565b60405161008a919061092f565b60405180910390f35b61009b6106fa565b6040516100a89190610960565b60405180910390f35b6100b9610706565b6040516100c69190610988565b60405180910390f35b6100e960048036038101906100e491906108a9565b61072b565b6040516100fa9594939291906109bb565b60405180910390f35b60025f3373ffffffffffffffffffffffffffffffffffffffff1673ffffffffffffffffffffffffffffffffffffffff1681526020019081526020015f206002015f9054906101000a900460ff1615610190576040517f08c379a000000000000000000000000000000000000000000000000000000000815260040161018790610a66565b60405180910390fd5b5f73ffffffffffffffffffffffffffffffffffffffff168173ffffffffffffffffffffffffffffffffffffffff16036101fe576040517f08c379a00000000000000000000000000000000000000000000000000000000081526004016101f590610ace565b60405180910390fd5b60025f8273ffffffffffffffffffffffffffffffffffffffff1673ffffffffffffffffffffffffffffffffffffffff1681526020019081526020015f206002015f9054906101000a900460ff1661028a576040517f08c379a000000000000000000000000000000000000000000000000000000000815260040161028190610b5c565b60405180910390fd5b5f8054906101000a900473ffffffffffffffffffffffffffffffffffffffff1673ffffffffffffffffffffffffffffffffffffffff166323b872dd3330678ac7230489e800006040518463ffffffff1660e01b81526004016102ee93929190610b7a565b6020604051808303815f875af115801561030a573d5f803e3d5ffd5b505050506040513d601f19601f8201168201806040525081019061032e9190610bd9565b61036d576040517f08c379a000000000000000000000000000000000000000000000000000000000815260040161036490610c4e565b60405180910390fd5b5f61037f678ac7230489e80000610788565b90505f8054906101000a900473ffffffffffffffffffffffffffffffffffffffff1673ffffffffffffffffffffffffffffffffffffffff1663a9059cbb83836040518363ffffffff1660e01b81526004016103db929190610c6c565b6020604051808303815f875af11580156103f7573d5f803e3d5ffd5b505050506040513d601f19601f8201168201806040525081019061041b9190610bd9565b508060025f8473ffffffffffffffffffffffffffffffffffffffff1673ffffffffffffffffffffffffffffffffffffffff1681526020019081526020015f206001015f82825461046b9190610cc0565b92505081905550600160025f8473ffffffffffffffffffffffffffffffffffffffff1673ffffffffffffffffffffffffffffffffffffffff1681526020019081526020015f206003015f8282546104c29190610cc0565b9250508190555060025f8373ffffffffffffffffffffffffffffffffffffffff1673ffffffffffffffffffffffffffffffffffffffff1681526020019081526020015f2060050133908060018154018082558091505060019003905f5260205f20015f9091909190916101000a81548173ffffffffffffffffffffffffffffffffffffffff021916908373ffffffffffffffffffffffffffffffffffffffff1602179055506040518060c001604052808373ffffffffffffffffffffffffffffffffffffffff1681526020015f81526020016001151581526020015f81526020014281526020015f67ffffffffffffffff8111156105c3576105c2610cf3565b5b6040519080825280602002602001820160405280156105f15781602001602082028036833780820191505090505b5081525060025f3373ffffffffffffffffffffffffffffffffffffffff1673ffffffffffffffffffffffffffffffffffffffff1681526020019081526020015f205f820151815f015f6101000a81548173ffffffffffffffffffffffffffffffffffffffff021916908373ffffffffffffffffffffffffffffffffffffffff160217905550602082015181600101556040820151816002015f6101000a81548160ff021916908315150217905550606082015181600301556080820151816004015560a08201518160050190805190602001906106cf9291906107a9565b509050505050565b5f8054906101000a900473ffffffffffffffffffffffffffffffffffffffff1681565b678ac7230489e8000081565b60015f9054906101000a900473ffffffffffffffffffffffffffffffffffffffff1681565b6002602052805f5260405f205f91509050805f015f9054906101000a900473ffffffffffffffffffffffffffffffffffffffff1690806001015490806002015f9054906101000a900460ff16908060030154908060040154905085565b5f60646028836107989190610d20565b6107a29190610d8e565b9050919050565b828054828255905f5260205f2090810192821561081f579160200282015b8281111561081e578251825f6101000a81548173ffffffffffffffffffffffffffffffffffffffff021916908373ffffffffffffffffffffffffffffffffffffffff160217905550916020019190600101906107c7565b5b50905061082c9190610830565b5090565b5b80821115610847575f815f905550600101610831565b5090565b5f80fd5b5f73ffffffffffffffffffffffffffffffffffffffff82169050919050565b5f6108788261084f565b9050919050565b6108888161086e565b8114610892575f80fd5b50565b5f813590506108a38161087f565b92915050565b5f602082840312156108be576108bd61084b565b5b5f6108cb84828501610895565b91505092915050565b5f819050919050565b5f6108f76108f26108ed8461084f565b6108d4565b61084f565b9050919050565b5f610908826108dd565b9050919050565b5f610919826108fe565b9050919050565b6109298161090f565b82525050565b5f6020820190506109425f830184610920565b92915050565b5f819050919050565b61095a81610948565b82525050565b5f6020820190506109735f830184610951565b92915050565b6109828161086e565b82525050565b5f60208201905061099b5f830184610979565b92915050565b5f8115159050919050565b6109b5816109a1565b82525050565b5f60a0820190506109ce5f830188610979565b6109db6020830187610951565b6109e860408301866109ac565b6109f56060830185610951565b610a026080830184610951565b9695505050505050565b5f82825260208201905092915050565b7f416c7265616479207265676973746572656400000000000000000000000000005f82015250565b5f610a50601283610a0c565b9150610a5b82610a1c565b602082019050919050565b5f6020820190508181035f830152610a7d81610a44565b9050919050565b7f696e76616c696420726566657272616c000000000000000000000000000000005f82015250565b5f610ab8601083610a0c565b9150610ac382610a84565b602082019050919050565b5f6020820190508181035f830152610ae581610aac565b9050919050565b7f526566657272616c207573657220646964206e6f7420636f6d706c65746520615f8201527f6e7920726567697374726174696f6e2000000000000000000000000000000000602082015250565b5f610b46603083610a0c565b9150610b5182610aec565b604082019050919050565b5f6020820190508181035f830152610b7381610b3a565b9050919050565b5f606082019050610b8d5f830186610979565b610b9a6020830185610979565b610ba76040830184610951565b949350505050565b610bb8816109a1565b8114610bc2575f80fd5b50565b5f81519050610bd381610baf565b92915050565b5f60208284031215610bee57610bed61084b565b5b5f610bfb84828501610bc5565b91505092915050565b7f726567697374726174696f6e206661696c6564000000000000000000000000005f82015250565b5f610c38601383610a0c565b9150610c4382610c04565b602082019050919050565b5f6020820190508181035f830152610c6581610c2c565b9050919050565b5f604082019050610c7f5f830185610979565b610c8c6020830184610951565b9392505050565b7f4e487b71000000000000000000000000000000000000000000000000000000005f52601160045260245ffd5b5f610cca82610948565b9150610cd583610948565b9250828201905080821115610ced57610cec610c93565b5b92915050565b7f4e487b71000000000000000000000000000000000000000000000000000000005f52604160045260245ffd5b5f610d2a82610948565b9150610d3583610948565b9250828202610d4381610948565b91508282048414831517610d5a57610d59610c93565b5b5092915050565b7f4e487b71000000000000000000000000000000000000000000000000000000005f52601260045260245ffd5b5f610d9882610948565b9150610da383610948565b925082610db357610db2610d61565b5b82820490509291505056fea26469706673582212202fce38accc6ecf7d31805705993c3aefc59dfc915a546e5ddc4dd33be26bec1c64736f6c634300081a0033",
					"opcodes": "PUSH1 0x80 PUSH1 0x40 MSTORE CALLVALUE DUP1 ISZERO PUSH2 0xF JUMPI PUSH0 DUP1 REVERT JUMPDEST POP PUSH1 0x40 MLOAD PUSH2 0xF40 CODESIZE SUB DUP1 PUSH2 0xF40 DUP4 CODECOPY DUP2 DUP2 ADD PUSH1 0x40 MSTORE DUP2 ADD SWAP1 PUSH2 0x31 SWAP2 SWAP1 PUSH2 0x114 JUMP JUMPDEST DUP1 PUSH0 DUP1 PUSH2 0x100 EXP DUP2 SLOAD DUP2 PUSH20 0xFFFFFFFFFFFFFFFFFFFFFFFFFFFFFFFFFFFFFFFF MUL NOT AND SWAP1 DUP4 PUSH20 0xFFFFFFFFFFFFFFFFFFFFFFFFFFFFFFFFFFFFFFFF AND MUL OR SWAP1 SSTORE POP CALLER PUSH1 0x1 PUSH0 PUSH2 0x100 EXP DUP2 SLOAD DUP2 PUSH20 0xFFFFFFFFFFFFFFFFFFFFFFFFFFFFFFFFFFFFFFFF MUL NOT AND SWAP1 DUP4 PUSH20 0xFFFFFFFFFFFFFFFFFFFFFFFFFFFFFFFFFFFFFFFF AND MUL OR SWAP1 SSTORE POP POP PUSH2 0x13F JUMP JUMPDEST PUSH0 DUP1 REVERT JUMPDEST PUSH0 PUSH20 0xFFFFFFFFFFFFFFFFFFFFFFFFFFFFFFFFFFFFFFFF DUP3 AND SWAP1 POP SWAP2 SWAP1 POP JUMP JUMPDEST PUSH0 PUSH2 0xE3 DUP3 PUSH2 0xBA JUMP JUMPDEST SWAP1 POP SWAP2 SWAP1 POP JUMP JUMPDEST PUSH2 0xF3 DUP2 PUSH2 0xD9 JUMP JUMPDEST DUP2 EQ PUSH2 0xFD JUMPI PUSH0 DUP1 REVERT JUMPDEST POP JUMP JUMPDEST PUSH0 DUP2 MLOAD SWAP1 POP PUSH2 0x10E DUP2 PUSH2 0xEA JUMP JUMPDEST SWAP3 SWAP2 POP POP JUMP JUMPDEST PUSH0 PUSH1 0x20 DUP3 DUP5 SUB SLT ISZERO PUSH2 0x129 JUMPI PUSH2 0x128 PUSH2 0xB6 JUMP JUMPDEST JUMPDEST PUSH0 PUSH2 0x136 DUP5 DUP3 DUP6 ADD PUSH2 0x100 JUMP JUMPDEST SWAP2 POP POP SWAP3 SWAP2 POP POP JUMP JUMPDEST PUSH2 0xDF4 DUP1 PUSH2 0x14C PUSH0 CODECOPY PUSH0 RETURN INVALID PUSH1 0x80 PUSH1 0x40 MSTORE CALLVALUE DUP1 ISZERO PUSH2 0xF JUMPI PUSH0 DUP1 REVERT JUMPDEST POP PUSH1 0x4 CALLDATASIZE LT PUSH2 0x55 JUMPI PUSH0 CALLDATALOAD PUSH1 0xE0 SHR DUP1 PUSH4 0x840605A EQ PUSH2 0x59 JUMPI DUP1 PUSH4 0x4AA735C0 EQ PUSH2 0x75 JUMPI DUP1 PUSH4 0x64B4F751 EQ PUSH2 0x93 JUMPI DUP1 PUSH4 0x8DA5CB5B EQ PUSH2 0xB1 JUMPI DUP1 PUSH4 0xA87430BA EQ PUSH2 0xCF JUMPI JUMPDEST PUSH0 DUP1 REVERT JUMPDEST PUSH2 0x73 PUSH1 0x4 DUP1 CALLDATASIZE SUB DUP2 ADD SWAP1 PUSH2 0x6E SWAP2 SWAP1 PUSH2 0x8A9 JUMP JUMPDEST PUSH2 0x103 JUMP JUMPDEST STOP JUMPDEST PUSH2 0x7D PUSH2 0x6D7 JUMP JUMPDEST PUSH1 0x40 MLOAD PUSH2 0x8A SWAP2 SWAP1 PUSH2 0x92F JUMP JUMPDEST PUSH1 0x40 MLOAD DUP1 SWAP2 SUB SWAP1 RETURN JUMPDEST PUSH2 0x9B PUSH2 0x6FA JUMP JUMPDEST PUSH1 0x40 MLOAD PUSH2 0xA8 SWAP2 SWAP1 PUSH2 0x960 JUMP JUMPDEST PUSH1 0x40 MLOAD DUP1 SWAP2 SUB SWAP1 RETURN JUMPDEST PUSH2 0xB9 PUSH2 0x706 JUMP JUMPDEST PUSH1 0x40 MLOAD PUSH2 0xC6 SWAP2 SWAP1 PUSH2 0x988 JUMP JUMPDEST PUSH1 0x40 MLOAD DUP1 SWAP2 SUB SWAP1 RETURN JUMPDEST PUSH2 0xE9 PUSH1 0x4 DUP1 CALLDATASIZE SUB DUP2 ADD SWAP1 PUSH2 0xE4 SWAP2 SWAP1 PUSH2 0x8A9 JUMP JUMPDEST PUSH2 0x72B JUMP JUMPDEST PUSH1 0x40 MLOAD PUSH2 0xFA SWAP6 SWAP5 SWAP4 SWAP3 SWAP2 SWAP1 PUSH2 0x9BB JUMP JUMPDEST PUSH1 0x40 MLOAD DUP1 SWAP2 SUB SWAP1 RETURN JUMPDEST PUSH1 0x2 PUSH0 CALLER PUSH20 0xFFFFFFFFFFFFFFFFFFFFFFFFFFFFFFFFFFFFFFFF AND PUSH20 0xFFFFFFFFFFFFFFFFFFFFFFFFFFFFFFFFFFFFFFFF AND DUP2 MSTORE PUSH1 0x20 ADD SWAP1 DUP2 MSTORE PUSH1 0x20 ADD PUSH0 KECCAK256 PUSH1 0x2 ADD PUSH0 SWAP1 SLOAD SWAP1 PUSH2 0x100 EXP SWAP1 DIV PUSH1 0xFF AND ISZERO PUSH2 0x190 JUMPI PUSH1 0x40 MLOAD PUSH32 0x8C379A000000000000000000000000000000000000000000000000000000000 DUP2 MSTORE PUSH1 0x4 ADD PUSH2 0x187 SWAP1 PUSH2 0xA66 JUMP JUMPDEST PUSH1 0x40 MLOAD DUP1 SWAP2 SUB SWAP1 REVERT JUMPDEST PUSH0 PUSH20 0xFFFFFFFFFFFFFFFFFFFFFFFFFFFFFFFFFFFFFFFF AND DUP2 PUSH20 0xFFFFFFFFFFFFFFFFFFFFFFFFFFFFFFFFFFFFFFFF AND SUB PUSH2 0x1FE JUMPI PUSH1 0x40 MLOAD PUSH32 0x8C379A000000000000000000000000000000000000000000000000000000000 DUP2 MSTORE PUSH1 0x4 ADD PUSH2 0x1F5 SWAP1 PUSH2 0xACE JUMP JUMPDEST PUSH1 0x40 MLOAD DUP1 SWAP2 SUB SWAP1 REVERT JUMPDEST PUSH1 0x2 PUSH0 DUP3 PUSH20 0xFFFFFFFFFFFFFFFFFFFFFFFFFFFFFFFFFFFFFFFF AND PUSH20 0xFFFFFFFFFFFFFFFFFFFFFFFFFFFFFFFFFFFFFFFF AND DUP2 MSTORE PUSH1 0x20 ADD SWAP1 DUP2 MSTORE PUSH1 0x20 ADD PUSH0 KECCAK256 PUSH1 0x2 ADD PUSH0 SWAP1 SLOAD SWAP1 PUSH2 0x100 EXP SWAP1 DIV PUSH1 0xFF AND PUSH2 0x28A JUMPI PUSH1 0x40 MLOAD PUSH32 0x8C379A000000000000000000000000000000000000000000000000000000000 DUP2 MSTORE PUSH1 0x4 ADD PUSH2 0x281 SWAP1 PUSH2 0xB5C JUMP JUMPDEST PUSH1 0x40 MLOAD DUP1 SWAP2 SUB SWAP1 REVERT JUMPDEST PUSH0 DUP1 SLOAD SWAP1 PUSH2 0x100 EXP SWAP1 DIV PUSH20 0xFFFFFFFFFFFFFFFFFFFFFFFFFFFFFFFFFFFFFFFF AND PUSH20 0xFFFFFFFFFFFFFFFFFFFFFFFFFFFFFFFFFFFFFFFF AND PUSH4 0x23B872DD CALLER ADDRESS PUSH8 0x8AC7230489E80000 PUSH1 0x40 MLOAD DUP5 PUSH4 0xFFFFFFFF AND PUSH1 0xE0 SHL DUP2 MSTORE PUSH1 0x4 ADD PUSH2 0x2EE SWAP4 SWAP3 SWAP2 SWAP1 PUSH2 0xB7A JUMP JUMPDEST PUSH1 0x20 PUSH1 0x40 MLOAD DUP1 DUP4 SUB DUP2 PUSH0 DUP8 GAS CALL ISZERO DUP1 ISZERO PUSH2 0x30A JUMPI RETURNDATASIZE PUSH0 DUP1 RETURNDATACOPY RETURNDATASIZE PUSH0 REVERT JUMPDEST POP POP POP POP PUSH1 0x40 MLOAD RETURNDATASIZE PUSH1 0x1F NOT PUSH1 0x1F DUP3 ADD AND DUP3 ADD DUP1 PUSH1 0x40 MSTORE POP DUP2 ADD SWAP1 PUSH2 0x32E SWAP2 SWAP1 PUSH2 0xBD9 JUMP JUMPDEST PUSH2 0x36D JUMPI PUSH1 0x40 MLOAD PUSH32 0x8C379A000000000000000000000000000000000000000000000000000000000 DUP2 MSTORE PUSH1 0x4 ADD PUSH2 0x364 SWAP1 PUSH2 0xC4E JUMP JUMPDEST PUSH1 0x40 MLOAD DUP1 SWAP2 SUB SWAP1 REVERT JUMPDEST PUSH0 PUSH2 0x37F PUSH8 0x8AC7230489E80000 PUSH2 0x788 JUMP JUMPDEST SWAP1 POP PUSH0 DUP1 SLOAD SWAP1 PUSH2 0x100 EXP SWAP1 DIV PUSH20 0xFFFFFFFFFFFFFFFFFFFFFFFFFFFFFFFFFFFFFFFF AND PUSH20 0xFFFFFFFFFFFFFFFFFFFFFFFFFFFFFFFFFFFFFFFF AND PUSH4 0xA9059CBB DUP4 DUP4 PUSH1 0x40 MLOAD DUP4 PUSH4 0xFFFFFFFF AND PUSH1 0xE0 SHL DUP2 MSTORE PUSH1 0x4 ADD PUSH2 0x3DB SWAP3 SWAP2 SWAP1 PUSH2 0xC6C JUMP JUMPDEST PUSH1 0x20 PUSH1 0x40 MLOAD DUP1 DUP4 SUB DUP2 PUSH0 DUP8 GAS CALL ISZERO DUP1 ISZERO PUSH2 0x3F7 JUMPI RETURNDATASIZE PUSH0 DUP1 RETURNDATACOPY RETURNDATASIZE PUSH0 REVERT JUMPDEST POP POP POP POP PUSH1 0x40 MLOAD RETURNDATASIZE PUSH1 0x1F NOT PUSH1 0x1F DUP3 ADD AND DUP3 ADD DUP1 PUSH1 0x40 MSTORE POP DUP2 ADD SWAP1 PUSH2 0x41B SWAP2 SWAP1 PUSH2 0xBD9 JUMP JUMPDEST POP DUP1 PUSH1 0x2 PUSH0 DUP5 PUSH20 0xFFFFFFFFFFFFFFFFFFFFFFFFFFFFFFFFFFFFFFFF AND PUSH20 0xFFFFFFFFFFFFFFFFFFFFFFFFFFFFFFFFFFFFFFFF AND DUP2 MSTORE PUSH1 0x20 ADD SWAP1 DUP2 MSTORE PUSH1 0x20 ADD PUSH0 KECCAK256 PUSH1 0x1 ADD PUSH0 DUP3 DUP3 SLOAD PUSH2 0x46B SWAP2 SWAP1 PUSH2 0xCC0 JUMP JUMPDEST SWAP3 POP POP DUP2 SWAP1 SSTORE POP PUSH1 0x1 PUSH1 0x2 PUSH0 DUP5 PUSH20 0xFFFFFFFFFFFFFFFFFFFFFFFFFFFFFFFFFFFFFFFF AND PUSH20 0xFFFFFFFFFFFFFFFFFFFFFFFFFFFFFFFFFFFFFFFF AND DUP2 MSTORE PUSH1 0x20 ADD SWAP1 DUP2 MSTORE PUSH1 0x20 ADD PUSH0 KECCAK256 PUSH1 0x3 ADD PUSH0 DUP3 DUP3 SLOAD PUSH2 0x4C2 SWAP2 SWAP1 PUSH2 0xCC0 JUMP JUMPDEST SWAP3 POP POP DUP2 SWAP1 SSTORE POP PUSH1 0x2 PUSH0 DUP4 PUSH20 0xFFFFFFFFFFFFFFFFFFFFFFFFFFFFFFFFFFFFFFFF AND PUSH20 0xFFFFFFFFFFFFFFFFFFFFFFFFFFFFFFFFFFFFFFFF AND DUP2 MSTORE PUSH1 0x20 ADD SWAP1 DUP2 MSTORE PUSH1 0x20 ADD PUSH0 KECCAK256 PUSH1 0x5 ADD CALLER SWAP1 DUP1 PUSH1 0x1 DUP2 SLOAD ADD DUP1 DUP3 SSTORE DUP1 SWAP2 POP POP PUSH1 0x1 SWAP1 SUB SWAP1 PUSH0 MSTORE PUSH1 0x20 PUSH0 KECCAK256 ADD PUSH0 SWAP1 SWAP2 SWAP1 SWAP2 SWAP1 SWAP2 PUSH2 0x100 EXP DUP2 SLOAD DUP2 PUSH20 0xFFFFFFFFFFFFFFFFFFFFFFFFFFFFFFFFFFFFFFFF MUL NOT AND SWAP1 DUP4 PUSH20 0xFFFFFFFFFFFFFFFFFFFFFFFFFFFFFFFFFFFFFFFF AND MUL OR SWAP1 SSTORE POP PUSH1 0x40 MLOAD DUP1 PUSH1 0xC0 ADD PUSH1 0x40 MSTORE DUP1 DUP4 PUSH20 0xFFFFFFFFFFFFFFFFFFFFFFFFFFFFFFFFFFFFFFFF AND DUP2 MSTORE PUSH1 0x20 ADD PUSH0 DUP2 MSTORE PUSH1 0x20 ADD PUSH1 0x1 ISZERO ISZERO DUP2 MSTORE PUSH1 0x20 ADD PUSH0 DUP2 MSTORE PUSH1 0x20 ADD TIMESTAMP DUP2 MSTORE PUSH1 0x20 ADD PUSH0 PUSH8 0xFFFFFFFFFFFFFFFF DUP2 GT ISZERO PUSH2 0x5C3 JUMPI PUSH2 0x5C2 PUSH2 0xCF3 JUMP JUMPDEST JUMPDEST PUSH1 0x40 MLOAD SWAP1 DUP1 DUP3 MSTORE DUP1 PUSH1 0x20 MUL PUSH1 0x20 ADD DUP3 ADD PUSH1 0x40 MSTORE DUP1 ISZERO PUSH2 0x5F1 JUMPI DUP2 PUSH1 0x20 ADD PUSH1 0x20 DUP3 MUL DUP1 CALLDATASIZE DUP4 CALLDATACOPY DUP1 DUP3 ADD SWAP2 POP POP SWAP1 POP JUMPDEST POP DUP2 MSTORE POP PUSH1 0x2 PUSH0 CALLER PUSH20 0xFFFFFFFFFFFFFFFFFFFFFFFFFFFFFFFFFFFFFFFF AND PUSH20 0xFFFFFFFFFFFFFFFFFFFFFFFFFFFFFFFFFFFFFFFF AND DUP2 MSTORE PUSH1 0x20 ADD SWAP1 DUP2 MSTORE PUSH1 0x20 ADD PUSH0 KECCAK256 PUSH0 DUP3 ADD MLOAD DUP2 PUSH0 ADD PUSH0 PUSH2 0x100 EXP DUP2 SLOAD DUP2 PUSH20 0xFFFFFFFFFFFFFFFFFFFFFFFFFFFFFFFFFFFFFFFF MUL NOT AND SWAP1 DUP4 PUSH20 0xFFFFFFFFFFFFFFFFFFFFFFFFFFFFFFFFFFFFFFFF AND MUL OR SWAP1 SSTORE POP PUSH1 0x20 DUP3 ADD MLOAD DUP2 PUSH1 0x1 ADD SSTORE PUSH1 0x40 DUP3 ADD MLOAD DUP2 PUSH1 0x2 ADD PUSH0 PUSH2 0x100 EXP DUP2 SLOAD DUP2 PUSH1 0xFF MUL NOT AND SWAP1 DUP4 ISZERO ISZERO MUL OR SWAP1 SSTORE POP PUSH1 0x60 DUP3 ADD MLOAD DUP2 PUSH1 0x3 ADD SSTORE PUSH1 0x80 DUP3 ADD MLOAD DUP2 PUSH1 0x4 ADD SSTORE PUSH1 0xA0 DUP3 ADD MLOAD DUP2 PUSH1 0x5 ADD SWAP1 DUP1 MLOAD SWAP1 PUSH1 0x20 ADD SWAP1 PUSH2 0x6CF SWAP3 SWAP2 SWAP1 PUSH2 0x7A9 JUMP JUMPDEST POP SWAP1 POP POP POP POP JUMP JUMPDEST PUSH0 DUP1 SLOAD SWAP1 PUSH2 0x100 EXP SWAP1 DIV PUSH20 0xFFFFFFFFFFFFFFFFFFFFFFFFFFFFFFFFFFFFFFFF AND DUP2 JUMP JUMPDEST PUSH8 0x8AC7230489E80000 DUP2 JUMP JUMPDEST PUSH1 0x1 PUSH0 SWAP1 SLOAD SWAP1 PUSH2 0x100 EXP SWAP1 DIV PUSH20 0xFFFFFFFFFFFFFFFFFFFFFFFFFFFFFFFFFFFFFFFF AND DUP2 JUMP JUMPDEST PUSH1 0x2 PUSH1 0x20 MSTORE DUP1 PUSH0 MSTORE PUSH1 0x40 PUSH0 KECCAK256 PUSH0 SWAP2 POP SWAP1 POP DUP1 PUSH0 ADD PUSH0 SWAP1 SLOAD SWAP1 PUSH2 0x100 EXP SWAP1 DIV PUSH20 0xFFFFFFFFFFFFFFFFFFFFFFFFFFFFFFFFFFFFFFFF AND SWAP1 DUP1 PUSH1 0x1 ADD SLOAD SWAP1 DUP1 PUSH1 0x2 ADD PUSH0 SWAP1 SLOAD SWAP1 PUSH2 0x100 EXP SWAP1 DIV PUSH1 0xFF AND SWAP1 DUP1 PUSH1 0x3 ADD SLOAD SWAP1 DUP1 PUSH1 0x4 ADD SLOAD SWAP1 POP DUP6 JUMP JUMPDEST PUSH0 PUSH1 0x64 PUSH1 0x28 DUP4 PUSH2 0x798 SWAP2 SWAP1 PUSH2 0xD20 JUMP JUMPDEST PUSH2 0x7A2 SWAP2 SWAP1 PUSH2 0xD8E JUMP JUMPDEST SWAP1 POP SWAP2 SWAP1 POP JUMP JUMPDEST DUP3 DUP1 SLOAD DUP3 DUP3 SSTORE SWAP1 PUSH0 MSTORE PUSH1 0x20 PUSH0 KECCAK256 SWAP1 DUP2 ADD SWAP3 DUP3 ISZERO PUSH2 0x81F JUMPI SWAP2 PUSH1 0x20 MUL DUP3 ADD JUMPDEST DUP3 DUP2 GT ISZERO PUSH2 0x81E JUMPI DUP3 MLOAD DUP3 PUSH0 PUSH2 0x100 EXP DUP2 SLOAD DUP2 PUSH20 0xFFFFFFFFFFFFFFFFFFFFFFFFFFFFFFFFFFFFFFFF MUL NOT AND SWAP1 DUP4 PUSH20 0xFFFFFFFFFFFFFFFFFFFFFFFFFFFFFFFFFFFFFFFF AND MUL OR SWAP1 SSTORE POP SWAP2 PUSH1 0x20 ADD SWAP2 SWAP1 PUSH1 0x1 ADD SWAP1 PUSH2 0x7C7 JUMP JUMPDEST JUMPDEST POP SWAP1 POP PUSH2 0x82C SWAP2 SWAP1 PUSH2 0x830 JUMP JUMPDEST POP SWAP1 JUMP JUMPDEST JUMPDEST DUP1 DUP3 GT ISZERO PUSH2 0x847 JUMPI PUSH0 DUP2 PUSH0 SWAP1 SSTORE POP PUSH1 0x1 ADD PUSH2 0x831 JUMP JUMPDEST POP SWAP1 JUMP JUMPDEST PUSH0 DUP1 REVERT JUMPDEST PUSH0 PUSH20 0xFFFFFFFFFFFFFFFFFFFFFFFFFFFFFFFFFFFFFFFF DUP3 AND SWAP1 POP SWAP2 SWAP1 POP JUMP JUMPDEST PUSH0 PUSH2 0x878 DUP3 PUSH2 0x84F JUMP JUMPDEST SWAP1 POP SWAP2 SWAP1 POP JUMP JUMPDEST PUSH2 0x888 DUP2 PUSH2 0x86E JUMP JUMPDEST DUP2 EQ PUSH2 0x892 JUMPI PUSH0 DUP1 REVERT JUMPDEST POP JUMP JUMPDEST PUSH0 DUP2 CALLDATALOAD SWAP1 POP PUSH2 0x8A3 DUP2 PUSH2 0x87F JUMP JUMPDEST SWAP3 SWAP2 POP POP JUMP JUMPDEST PUSH0 PUSH1 0x20 DUP3 DUP5 SUB SLT ISZERO PUSH2 0x8BE JUMPI PUSH2 0x8BD PUSH2 0x84B JUMP JUMPDEST JUMPDEST PUSH0 PUSH2 0x8CB DUP5 DUP3 DUP6 ADD PUSH2 0x895 JUMP JUMPDEST SWAP2 POP POP SWAP3 SWAP2 POP POP JUMP JUMPDEST PUSH0 DUP2 SWAP1 POP SWAP2 SWAP1 POP JUMP JUMPDEST PUSH0 PUSH2 0x8F7 PUSH2 0x8F2 PUSH2 0x8ED DUP5 PUSH2 0x84F JUMP JUMPDEST PUSH2 0x8D4 JUMP JUMPDEST PUSH2 0x84F JUMP JUMPDEST SWAP1 POP SWAP2 SWAP1 POP JUMP JUMPDEST PUSH0 PUSH2 0x908 DUP3 PUSH2 0x8DD JUMP JUMPDEST SWAP1 POP SWAP2 SWAP1 POP JUMP JUMPDEST PUSH0 PUSH2 0x919 DUP3 PUSH2 0x8FE JUMP JUMPDEST SWAP1 POP SWAP2 SWAP1 POP JUMP JUMPDEST PUSH2 0x929 DUP2 PUSH2 0x90F JUMP JUMPDEST DUP3 MSTORE POP POP JUMP JUMPDEST PUSH0 PUSH1 0x20 DUP3 ADD SWAP1 POP PUSH2 0x942 PUSH0 DUP4 ADD DUP5 PUSH2 0x920 JUMP JUMPDEST SWAP3 SWAP2 POP POP JUMP JUMPDEST PUSH0 DUP2 SWAP1 POP SWAP2 SWAP1 POP JUMP JUMPDEST PUSH2 0x95A DUP2 PUSH2 0x948 JUMP JUMPDEST DUP3 MSTORE POP POP JUMP JUMPDEST PUSH0 PUSH1 0x20 DUP3 ADD SWAP1 POP PUSH2 0x973 PUSH0 DUP4 ADD DUP5 PUSH2 0x951 JUMP JUMPDEST SWAP3 SWAP2 POP POP JUMP JUMPDEST PUSH2 0x982 DUP2 PUSH2 0x86E JUMP JUMPDEST DUP3 MSTORE POP POP JUMP JUMPDEST PUSH0 PUSH1 0x20 DUP3 ADD SWAP1 POP PUSH2 0x99B PUSH0 DUP4 ADD DUP5 PUSH2 0x979 JUMP JUMPDEST SWAP3 SWAP2 POP POP JUMP JUMPDEST PUSH0 DUP2 ISZERO ISZERO SWAP1 POP SWAP2 SWAP1 POP JUMP JUMPDEST PUSH2 0x9B5 DUP2 PUSH2 0x9A1 JUMP JUMPDEST DUP3 MSTORE POP POP JUMP JUMPDEST PUSH0 PUSH1 0xA0 DUP3 ADD SWAP1 POP PUSH2 0x9CE PUSH0 DUP4 ADD DUP9 PUSH2 0x979 JUMP JUMPDEST PUSH2 0x9DB PUSH1 0x20 DUP4 ADD DUP8 PUSH2 0x951 JUMP JUMPDEST PUSH2 0x9E8 PUSH1 0x40 DUP4 ADD DUP7 PUSH2 0x9AC JUMP JUMPDEST PUSH2 0x9F5 PUSH1 0x60 DUP4 ADD DUP6 PUSH2 0x951 JUMP JUMPDEST PUSH2 0xA02 PUSH1 0x80 DUP4 ADD DUP5 PUSH2 0x951 JUMP JUMPDEST SWAP7 SWAP6 POP POP POP POP POP POP JUMP JUMPDEST PUSH0 DUP3 DUP3 MSTORE PUSH1 0x20 DUP3 ADD SWAP1 POP SWAP3 SWAP2 POP POP JUMP JUMPDEST PUSH32 0x416C726561647920726567697374657265640000000000000000000000000000 PUSH0 DUP3 ADD MSTORE POP JUMP JUMPDEST PUSH0 PUSH2 0xA50 PUSH1 0x12 DUP4 PUSH2 0xA0C JUMP JUMPDEST SWAP2 POP PUSH2 0xA5B DUP3 PUSH2 0xA1C JUMP JUMPDEST PUSH1 0x20 DUP3 ADD SWAP1 POP SWAP2 SWAP1 POP JUMP JUMPDEST PUSH0 PUSH1 0x20 DUP3 ADD SWAP1 POP DUP2 DUP2 SUB PUSH0 DUP4 ADD MSTORE PUSH2 0xA7D DUP2 PUSH2 0xA44 JUMP JUMPDEST SWAP1 POP SWAP2 SWAP1 POP JUMP JUMPDEST PUSH32 0x696E76616C696420726566657272616C00000000000000000000000000000000 PUSH0 DUP3 ADD MSTORE POP JUMP JUMPDEST PUSH0 PUSH2 0xAB8 PUSH1 0x10 DUP4 PUSH2 0xA0C JUMP JUMPDEST SWAP2 POP PUSH2 0xAC3 DUP3 PUSH2 0xA84 JUMP JUMPDEST PUSH1 0x20 DUP3 ADD SWAP1 POP SWAP2 SWAP1 POP JUMP JUMPDEST PUSH0 PUSH1 0x20 DUP3 ADD SWAP1 POP DUP2 DUP2 SUB PUSH0 DUP4 ADD MSTORE PUSH2 0xAE5 DUP2 PUSH2 0xAAC JUMP JUMPDEST SWAP1 POP SWAP2 SWAP1 POP JUMP JUMPDEST PUSH32 0x526566657272616C207573657220646964206E6F7420636F6D706C6574652061 PUSH0 DUP3 ADD MSTORE PUSH32 0x6E7920726567697374726174696F6E2000000000000000000000000000000000 PUSH1 0x20 DUP3 ADD MSTORE POP JUMP JUMPDEST PUSH0 PUSH2 0xB46 PUSH1 0x30 DUP4 PUSH2 0xA0C JUMP JUMPDEST SWAP2 POP PUSH2 0xB51 DUP3 PUSH2 0xAEC JUMP JUMPDEST PUSH1 0x40 DUP3 ADD SWAP1 POP SWAP2 SWAP1 POP JUMP JUMPDEST PUSH0 PUSH1 0x20 DUP3 ADD SWAP1 POP DUP2 DUP2 SUB PUSH0 DUP4 ADD MSTORE PUSH2 0xB73 DUP2 PUSH2 0xB3A JUMP JUMPDEST SWAP1 POP SWAP2 SWAP1 POP JUMP JUMPDEST PUSH0 PUSH1 0x60 DUP3 ADD SWAP1 POP PUSH2 0xB8D PUSH0 DUP4 ADD DUP7 PUSH2 0x979 JUMP JUMPDEST PUSH2 0xB9A PUSH1 0x20 DUP4 ADD DUP6 PUSH2 0x979 JUMP JUMPDEST PUSH2 0xBA7 PUSH1 0x40 DUP4 ADD DUP5 PUSH2 0x951 JUMP JUMPDEST SWAP5 SWAP4 POP POP POP POP JUMP JUMPDEST PUSH2 0xBB8 DUP2 PUSH2 0x9A1 JUMP JUMPDEST DUP2 EQ PUSH2 0xBC2 JUMPI PUSH0 DUP1 REVERT JUMPDEST POP JUMP JUMPDEST PUSH0 DUP2 MLOAD SWAP1 POP PUSH2 0xBD3 DUP2 PUSH2 0xBAF JUMP JUMPDEST SWAP3 SWAP2 POP POP JUMP JUMPDEST PUSH0 PUSH1 0x20 DUP3 DUP5 SUB SLT ISZERO PUSH2 0xBEE JUMPI PUSH2 0xBED PUSH2 0x84B JUMP JUMPDEST JUMPDEST PUSH0 PUSH2 0xBFB DUP5 DUP3 DUP6 ADD PUSH2 0xBC5 JUMP JUMPDEST SWAP2 POP POP SWAP3 SWAP2 POP POP JUMP JUMPDEST PUSH32 0x726567697374726174696F6E206661696C656400000000000000000000000000 PUSH0 DUP3 ADD MSTORE POP JUMP JUMPDEST PUSH0 PUSH2 0xC38 PUSH1 0x13 DUP4 PUSH2 0xA0C JUMP JUMPDEST SWAP2 POP PUSH2 0xC43 DUP3 PUSH2 0xC04 JUMP JUMPDEST PUSH1 0x20 DUP3 ADD SWAP1 POP SWAP2 SWAP1 POP JUMP JUMPDEST PUSH0 PUSH1 0x20 DUP3 ADD SWAP1 POP DUP2 DUP2 SUB PUSH0 DUP4 ADD MSTORE PUSH2 0xC65 DUP2 PUSH2 0xC2C JUMP JUMPDEST SWAP1 POP SWAP2 SWAP1 POP JUMP JUMPDEST PUSH0 PUSH1 0x40 DUP3 ADD SWAP1 POP PUSH2 0xC7F PUSH0 DUP4 ADD DUP6 PUSH2 0x979 JUMP JUMPDEST PUSH2 0xC8C PUSH1 0x20 DUP4 ADD DUP5 PUSH2 0x951 JUMP JUMPDEST SWAP4 SWAP3 POP POP POP JUMP JUMPDEST PUSH32 0x4E487B7100000000000000000000000000000000000000000000000000000000 PUSH0 MSTORE PUSH1 0x11 PUSH1 0x4 MSTORE PUSH1 0x24 PUSH0 REVERT JUMPDEST PUSH0 PUSH2 0xCCA DUP3 PUSH2 0x948 JUMP JUMPDEST SWAP2 POP PUSH2 0xCD5 DUP4 PUSH2 0x948 JUMP JUMPDEST SWAP3 POP DUP3 DUP3 ADD SWAP1 POP DUP1 DUP3 GT ISZERO PUSH2 0xCED JUMPI PUSH2 0xCEC PUSH2 0xC93 JUMP JUMPDEST JUMPDEST SWAP3 SWAP2 POP POP JUMP JUMPDEST PUSH32 0x4E487B7100000000000000000000000000000000000000000000000000000000 PUSH0 MSTORE PUSH1 0x41 PUSH1 0x4 MSTORE PUSH1 0x24 PUSH0 REVERT JUMPDEST PUSH0 PUSH2 0xD2A DUP3 PUSH2 0x948 JUMP JUMPDEST SWAP2 POP PUSH2 0xD35 DUP4 PUSH2 0x948 JUMP JUMPDEST SWAP3 POP DUP3 DUP3 MUL PUSH2 0xD43 DUP2 PUSH2 0x948 JUMP JUMPDEST SWAP2 POP DUP3 DUP3 DIV DUP5 EQ DUP4 ISZERO OR PUSH2 0xD5A JUMPI PUSH2 0xD59 PUSH2 0xC93 JUMP JUMPDEST JUMPDEST POP SWAP3 SWAP2 POP POP JUMP JUMPDEST PUSH32 0x4E487B7100000000000000000000000000000000000000000000000000000000 PUSH0 MSTORE PUSH1 0x12 PUSH1 0x4 MSTORE PUSH1 0x24 PUSH0 REVERT JUMPDEST PUSH0 PUSH2 0xD98 DUP3 PUSH2 0x948 JUMP JUMPDEST SWAP2 POP PUSH2 0xDA3 DUP4 PUSH2 0x948 JUMP JUMPDEST SWAP3 POP DUP3 PUSH2 0xDB3 JUMPI PUSH2 0xDB2 PUSH2 0xD61 JUMP JUMPDEST JUMPDEST DUP3 DUP3 DIV SWAP1 POP SWAP3 SWAP2 POP POP JUMP INVALID LOG2 PUSH5 0x6970667358 0x22 SLT KECCAK256 0x2F 0xCE CODESIZE 0xAC 0xCC PUSH15 0xCF7D31805705993C3AEFC59DFC915A SLOAD PUSH15 0x5DDC4DD33BE26BEC1C64736F6C6343 STOP ADDMOD BYTE STOP CALLER "
				},
				"gasEstimates": {
					"creation": {
						"codeDepositCost": "714400",
						"executionCost": "infinite",
						"totalCost": "infinite"
					},
					"external": {
						"BST()": "infinite",
						"REGISTRATION_FEE()": "347",
						"owner()": "2552",
						"registration(address)": "infinite",
						"users(address)": "infinite"
					},
					"internal": {
						"calculateDirectReferralReward(uint256)": "infinite"
					}
				},
				"methodIdentifiers": {
					"BST()": "4aa735c0",
					"REGISTRATION_FEE()": "64b4f751",
					"owner()": "8da5cb5b",
					"registration(address)": "0840605a",
					"users(address)": "a87430ba"
				}
			},
			"storageLayout": {
				"storage": [
					{
						"astId": 25,
						"contract": "MLM/1-Level MLM System/ChainBoost.sol:ChainBoost",
						"label": "BST",
						"offset": 0,
						"slot": "0",
						"type": "t_contract(IERC20)22"
					},
					{
						"astId": 27,
						"contract": "MLM/1-Level MLM System/ChainBoost.sol:ChainBoost",
						"label": "owner",
						"offset": 0,
						"slot": "1",
						"type": "t_address"
					},
					{
						"astId": 70,
						"contract": "MLM/1-Level MLM System/ChainBoost.sol:ChainBoost",
						"label": "users",
						"offset": 0,
						"slot": "2",
						"type": "t_mapping(t_address,t_struct(User)65_storage)"
					}
				],
				"types": {
					"t_address": {
						"encoding": "inplace",
						"label": "address",
						"numberOfBytes": "20"
					},
					"t_array(t_address)dyn_storage": {
						"base": "t_address",
						"encoding": "dynamic_array",
						"label": "address[]",
						"numberOfBytes": "32"
					},
					"t_bool": {
						"encoding": "inplace",
						"label": "bool",
						"numberOfBytes": "1"
					},
					"t_contract(IERC20)22": {
						"encoding": "inplace",
						"label": "contract IERC20",
						"numberOfBytes": "20"
					},
					"t_mapping(t_address,t_struct(User)65_storage)": {
						"encoding": "mapping",
						"key": "t_address",
						"label": "mapping(address => struct ChainBoost.User)",
						"numberOfBytes": "32",
						"value": "t_struct(User)65_storage"
					},
					"t_struct(User)65_storage": {
						"encoding": "inplace",
						"label": "struct ChainBoost.User",
						"members": [
							{
								"astId": 53,
								"contract": "MLM/1-Level MLM System/ChainBoost.sol:ChainBoost",
								"label": "referrer",
								"offset": 0,
								"slot": "0",
								"type": "t_address"
							},
							{
								"astId": 55,
								"contract": "MLM/1-Level MLM System/ChainBoost.sol:ChainBoost",
								"label": "referralIncome",
								"offset": 0,
								"slot": "1",
								"type": "t_uint256"
							},
							{
								"astId": 57,
								"contract": "MLM/1-Level MLM System/ChainBoost.sol:ChainBoost",
								"label": "isRegistered",
								"offset": 0,
								"slot": "2",
								"type": "t_bool"
							},
							{
								"astId": 59,
								"contract": "MLM/1-Level MLM System/ChainBoost.sol:ChainBoost",
								"label": "referralCount",
								"offset": 0,
								"slot": "3",
								"type": "t_uint256"
							},
							{
								"astId": 61,
								"contract": "MLM/1-Level MLM System/ChainBoost.sol:ChainBoost",
								"label": "registrationTime",
								"offset": 0,
								"slot": "4",
								"type": "t_uint256"
							},
							{
								"astId": 64,
								"contract": "MLM/1-Level MLM System/ChainBoost.sol:ChainBoost",
								"label": "directReferrals",
								"offset": 0,
								"slot": "5",
								"type": "t_array(t_address)dyn_storage"
							}
						],
						"numberOfBytes": "192"
					},
					"t_uint256": {
						"encoding": "inplace",
						"label": "uint256",
						"numberOfBytes": "32"
					}
				}
			},
			"userdoc": {
				"kind": "user",
				"methods": {},
				"version": 1
			}
		}
	}
}