{
	"data": {
		"bytecode": {
			"linkReferences": {},
			"object": "608060405234801561000f575f80fd5b50604051610f7c380380610f7c83398181016040528101906100319190610114565b805f806101000a81548173ffffffffffffffffffffffffffffffffffffffff021916908373ffffffffffffffffffffffffffffffffffffffff1602179055503360015f6101000a81548173ffffffffffffffffffffffffffffffffffffffff021916908373ffffffffffffffffffffffffffffffffffffffff1602179055505061013f565b5f80fd5b5f73ffffffffffffffffffffffffffffffffffffffff82169050919050565b5f6100e3826100ba565b9050919050565b6100f3816100d9565b81146100fd575f80fd5b50565b5f8151905061010e816100ea565b92915050565b5f60208284031215610129576101286100b6565b5b5f61013684828501610100565b91505092915050565b610e308061014c5f395ff3fe608060405234801561000f575f80fd5b506004361061007b575f3560e01c80638af6c259116100595780638af6c259146100c357806392c6c486146100e1578063aa03875e14610115578063f851a440146101335761007b565b806313d033c01461007f57806317be3fa51461009d57806348c54b9d146100b9575b5f80fd5b610087610151565b6040516100949190610770565b60405180910390f35b6100b760048036038101906100b29190610811565b610158565b005b6100c16103eb565b005b6100cb6106d6565b6040516100d89190610770565b60405180910390f35b6100fb60048036038101906100f6919061084f565b6106de565b60405161010c95949392919061087a565b60405180910390f35b61011d610710565b60405161012a9190610926565b60405180910390f35b61013b610733565b604051610148919061094e565b60405180910390f35b624f1a0081565b60015f9054906101000a900473ffffffffffffffffffffffffffffffffffffffff1673ffffffffffffffffffffffffffffffffffffffff163373ffffffffffffffffffffffffffffffffffffffff16146101e7576040517f08c379a00000000000000000000000000000000000000000000000000000000081526004016101de906109e7565b60405180910390fd5b5f60025f8473ffffffffffffffffffffffffffffffffffffffff1673ffffffffffffffffffffffffffffffffffffffff1681526020019081526020015f205f015414610268576040517f08c379a000000000000000000000000000000000000000000000000000000000815260040161025f90610a4f565b60405180910390fd5b5f8054906101000a900473ffffffffffffffffffffffffffffffffffffffff1673ffffffffffffffffffffffffffffffffffffffff166323b872dd8330846040518463ffffffff1660e01b81526004016102c493929190610a6d565b6020604051808303815f875af11580156102e0573d5f803e3d5ffd5b505050506040513d601f19601f820116820180604052508101906103049190610ad7565b506040518060a00160405280828152602001428152602001624f1a0081526020016301e1338081526020015f81525060025f8473ffffffffffffffffffffffffffffffffffffffff1673ffffffffffffffffffffffffffffffffffffffff1681526020019081526020015f205f820151815f015560208201518160010155604082015181600201556060820151816003015560808201518160040155905050808273ffffffffffffffffffffffffffffffffffffffff167f8df15e197eba63f590f48cd1e5069b3250ec36a459291a252a7de560dfe1e5d360405160405180910390a35050565b5f60025f3373ffffffffffffffffffffffffffffffffffffffff1673ffffffffffffffffffffffffffffffffffffffff1681526020019081526020015f2090505f816001015403610471576040517f08c379a000000000000000000000000000000000000000000000000000000000815260040161046890610b4c565b60405180910390fd5b5f815f0154116104b6576040517f08c379a00000000000000000000000000000000000000000000000000000000081526004016104ad90610bb4565b60405180910390fd5b624f1a0081600101546104c99190610bff565b42101561050b576040517f08c379a000000000000000000000000000000000000000000000000000000000815260040161050290610c7c565b60405180910390fd5b5f81600101544261051c9190610c9a565b90506301e13380811115610532576301e1338090505b5f624f1a00826105429190610c9a565b90505f62278d00826105549190610cfa565b90505f606482600a875f015461056a9190610d2a565b6105749190610d2a565b61057e9190610cfa565b90505f8560040154826105919190610c9a565b90505f81116105d5576040517f08c379a00000000000000000000000000000000000000000000000000000000081526004016105cc90610db5565b60405180910390fd5b80866004015f8282546105e89190610bff565b925050819055505f8054906101000a900473ffffffffffffffffffffffffffffffffffffffff1673ffffffffffffffffffffffffffffffffffffffff1663a9059cbb33836040518363ffffffff1660e01b8152600401610649929190610dd3565b6020604051808303815f875af1158015610665573d5f803e3d5ffd5b505050506040513d601f19601f820116820180604052508101906106899190610ad7565b50803373ffffffffffffffffffffffffffffffffffffffff167f072c1297da002e90e42b3f190ef6f1b441d77a7d346aa6359777fb57197e349a60405160405180910390a3505050505050565b6301e1338081565b6002602052805f5260405f205f91509050805f0154908060010154908060020154908060030154908060040154905085565b5f8054906101000a900473ffffffffffffffffffffffffffffffffffffffff1681565b60015f9054906101000a900473ffffffffffffffffffffffffffffffffffffffff1681565b5f819050919050565b61076a81610758565b82525050565b5f6020820190506107835f830184610761565b92915050565b5f80fd5b5f73ffffffffffffffffffffffffffffffffffffffff82169050919050565b5f6107b68261078d565b9050919050565b6107c6816107ac565b81146107d0575f80fd5b50565b5f813590506107e1816107bd565b92915050565b6107f081610758565b81146107fa575f80fd5b50565b5f8135905061080b816107e7565b92915050565b5f806040838503121561082757610826610789565b5b5f610834858286016107d3565b9250506020610845858286016107fd565b9150509250929050565b5f6020828403121561086457610863610789565b5b5f610871848285016107d3565b91505092915050565b5f60a08201905061088d5f830188610761565b61089a6020830187610761565b6108a76040830186610761565b6108b46060830185610761565b6108c16080830184610761565b9695505050505050565b5f819050919050565b5f6108ee6108e96108e48461078d565b6108cb565b61078d565b9050919050565b5f6108ff826108d4565b9050919050565b5f610910826108f5565b9050919050565b61092081610906565b82525050565b5f6020820190506109395f830184610917565b92915050565b610948816107ac565b82525050565b5f6020820190506109615f83018461093f565b92915050565b5f82825260208201905092915050565b7f4e6f7441646d696e2c20736f20796f752063616e2774206c6f636b20746865205f8201527f746f6b656e000000000000000000000000000000000000000000000000000000602082015250565b5f6109d1602583610967565b91506109dc82610977565b604082019050919050565b5f6020820190508181035f8301526109fe816109c5565b9050919050565b7f616c7265616479206c6f636b00000000000000000000000000000000000000005f82015250565b5f610a39600c83610967565b9150610a4482610a05565b602082019050919050565b5f6020820190508181035f830152610a6681610a2d565b9050919050565b5f606082019050610a805f83018661093f565b610a8d602083018561093f565b610a9a6040830184610761565b949350505050565b5f8115159050919050565b610ab681610aa2565b8114610ac0575f80fd5b50565b5f81519050610ad181610aad565b92915050565b5f60208284031215610aec57610aeb610789565b5b5f610af984828501610ac3565b91505092915050565b7f6e6f74206c6f636b656420746f6b656e207965740000000000000000000000005f82015250565b5f610b36601483610967565b9150610b4182610b02565b602082019050919050565b5f6020820190508181035f830152610b6381610b2a565b9050919050565b7f6e6f20746f6b656e0000000000000000000000000000000000000000000000005f82015250565b5f610b9e600883610967565b9150610ba982610b6a565b602082019050919050565b5f6020820190508181035f830152610bcb81610b92565b9050919050565b7f4e487b71000000000000000000000000000000000000000000000000000000005f52601160045260245ffd5b5f610c0982610758565b9150610c1483610758565b9250828201905080821115610c2c57610c2b610bd2565b5b92915050565b7f697427732074696d6520746f20636c61696d20746f6b656e73000000000000005f82015250565b5f610c66601983610967565b9150610c7182610c32565b602082019050919050565b5f6020820190508181035f830152610c9381610c5a565b9050919050565b5f610ca482610758565b9150610caf83610758565b9250828203905081811115610cc757610cc6610bd2565b5b92915050565b7f4e487b71000000000000000000000000000000000000000000000000000000005f52601260045260245ffd5b5f610d0482610758565b9150610d0f83610758565b925082610d1f57610d1e610ccd565b5b828204905092915050565b5f610d3482610758565b9150610d3f83610758565b9250828202610d4d81610758565b91508282048414831517610d6457610d63610bd2565b5b5092915050565b7f4e6f20746f6b656e7320617661696c61626c6520746f20636c61696d207965745f82015250565b5f610d9f602083610967565b9150610daa82610d6b565b602082019050919050565b5f6020820190508181035f830152610dcc81610d93565b9050919050565b5f604082019050610de65f83018561093f565b610df36020830184610761565b939250505056fea2646970667358221220c8f52e10d8fa2dffa57f787df05192395a11a512e4297c9d314be1fe014a95da64736f6c634300081a0033",
			"opcodes": "PUSH1 0x80 PUSH1 0x40 MSTORE CALLVALUE DUP1 ISZERO PUSH2 0xF JUMPI PUSH0 DUP1 REVERT JUMPDEST POP PUSH1 0x40 MLOAD PUSH2 0xF7C CODESIZE SUB DUP1 PUSH2 0xF7C DUP4 CODECOPY DUP2 DUP2 ADD PUSH1 0x40 MSTORE DUP2 ADD SWAP1 PUSH2 0x31 SWAP2 SWAP1 PUSH2 0x114 JUMP JUMPDEST DUP1 PUSH0 DUP1 PUSH2 0x100 EXP DUP2 SLOAD DUP2 PUSH20 0xFFFFFFFFFFFFFFFFFFFFFFFFFFFFFFFFFFFFFFFF MUL NOT AND SWAP1 DUP4 PUSH20 0xFFFFFFFFFFFFFFFFFFFFFFFFFFFFFFFFFFFFFFFF AND MUL OR SWAP1 SSTORE POP CALLER PUSH1 0x1 PUSH0 PUSH2 0x100 EXP DUP2 SLOAD DUP2 PUSH20 0xFFFFFFFFFFFFFFFFFFFFFFFFFFFFFFFFFFFFFFFF MUL NOT AND SWAP1 DUP4 PUSH20 0xFFFFFFFFFFFFFFFFFFFFFFFFFFFFFFFFFFFFFFFF AND MUL OR SWAP1 SSTORE POP POP PUSH2 0x13F JUMP JUMPDEST PUSH0 DUP1 REVERT JUMPDEST PUSH0 PUSH20 0xFFFFFFFFFFFFFFFFFFFFFFFFFFFFFFFFFFFFFFFF DUP3 AND SWAP1 POP SWAP2 SWAP1 POP JUMP JUMPDEST PUSH0 PUSH2 0xE3 DUP3 PUSH2 0xBA JUMP JUMPDEST SWAP1 POP SWAP2 SWAP1 POP JUMP JUMPDEST PUSH2 0xF3 DUP2 PUSH2 0xD9 JUMP JUMPDEST DUP2 EQ PUSH2 0xFD JUMPI PUSH0 DUP1 REVERT JUMPDEST POP JUMP JUMPDEST PUSH0 DUP2 MLOAD SWAP1 POP PUSH2 0x10E DUP2 PUSH2 0xEA JUMP JUMPDEST SWAP3 SWAP2 POP POP JUMP JUMPDEST PUSH0 PUSH1 0x20 DUP3 DUP5 SUB SLT ISZERO PUSH2 0x129 JUMPI PUSH2 0x128 PUSH2 0xB6 JUMP JUMPDEST JUMPDEST PUSH0 PUSH2 0x136 DUP5 DUP3 DUP6 ADD PUSH2 0x100 JUMP JUMPDEST SWAP2 POP POP SWAP3 SWAP2 POP POP JUMP JUMPDEST PUSH2 0xE30 DUP1 PUSH2 0x14C PUSH0 CODECOPY PUSH0 RETURN INVALID PUSH1 0x80 PUSH1 0x40 MSTORE CALLVALUE DUP1 ISZERO PUSH2 0xF JUMPI PUSH0 DUP1 REVERT JUMPDEST POP PUSH1 0x4 CALLDATASIZE LT PUSH2 0x7B JUMPI PUSH0 CALLDATALOAD PUSH1 0xE0 SHR DUP1 PUSH4 0x8AF6C259 GT PUSH2 0x59 JUMPI DUP1 PUSH4 0x8AF6C259 EQ PUSH2 0xC3 JUMPI DUP1 PUSH4 0x92C6C486 EQ PUSH2 0xE1 JUMPI DUP1 PUSH4 0xAA03875E EQ PUSH2 0x115 JUMPI DUP1 PUSH4 0xF851A440 EQ PUSH2 0x133 JUMPI PUSH2 0x7B JUMP JUMPDEST DUP1 PUSH4 0x13D033C0 EQ PUSH2 0x7F JUMPI DUP1 PUSH4 0x17BE3FA5 EQ PUSH2 0x9D JUMPI DUP1 PUSH4 0x48C54B9D EQ PUSH2 0xB9 JUMPI JUMPDEST PUSH0 DUP1 REVERT JUMPDEST PUSH2 0x87 PUSH2 0x151 JUMP JUMPDEST PUSH1 0x40 MLOAD PUSH2 0x94 SWAP2 SWAP1 PUSH2 0x770 JUMP JUMPDEST PUSH1 0x40 MLOAD DUP1 SWAP2 SUB SWAP1 RETURN JUMPDEST PUSH2 0xB7 PUSH1 0x4 DUP1 CALLDATASIZE SUB DUP2 ADD SWAP1 PUSH2 0xB2 SWAP2 SWAP1 PUSH2 0x811 JUMP JUMPDEST PUSH2 0x158 JUMP JUMPDEST STOP JUMPDEST PUSH2 0xC1 PUSH2 0x3EB JUMP JUMPDEST STOP JUMPDEST PUSH2 0xCB PUSH2 0x6D6 JUMP JUMPDEST PUSH1 0x40 MLOAD PUSH2 0xD8 SWAP2 SWAP1 PUSH2 0x770 JUMP JUMPDEST PUSH1 0x40 MLOAD DUP1 SWAP2 SUB SWAP1 RETURN JUMPDEST PUSH2 0xFB PUSH1 0x4 DUP1 CALLDATASIZE SUB DUP2 ADD SWAP1 PUSH2 0xF6 SWAP2 SWAP1 PUSH2 0x84F JUMP JUMPDEST PUSH2 0x6DE JUMP JUMPDEST PUSH1 0x40 MLOAD PUSH2 0x10C SWAP6 SWAP5 SWAP4 SWAP3 SWAP2 SWAP1 PUSH2 0x87A JUMP JUMPDEST PUSH1 0x40 MLOAD DUP1 SWAP2 SUB SWAP1 RETURN JUMPDEST PUSH2 0x11D PUSH2 0x710 JUMP JUMPDEST PUSH1 0x40 MLOAD PUSH2 0x12A SWAP2 SWAP1 PUSH2 0x926 JUMP JUMPDEST PUSH1 0x40 MLOAD DUP1 SWAP2 SUB SWAP1 RETURN JUMPDEST PUSH2 0x13B PUSH2 0x733 JUMP JUMPDEST PUSH1 0x40 MLOAD PUSH2 0x148 SWAP2 SWAP1 PUSH2 0x94E JUMP JUMPDEST PUSH1 0x40 MLOAD DUP1 SWAP2 SUB SWAP1 RETURN JUMPDEST PUSH3 0x4F1A00 DUP2 JUMP JUMPDEST PUSH1 0x1 PUSH0 SWAP1 SLOAD SWAP1 PUSH2 0x100 EXP SWAP1 DIV PUSH20 0xFFFFFFFFFFFFFFFFFFFFFFFFFFFFFFFFFFFFFFFF AND PUSH20 0xFFFFFFFFFFFFFFFFFFFFFFFFFFFFFFFFFFFFFFFF AND CALLER PUSH20 0xFFFFFFFFFFFFFFFFFFFFFFFFFFFFFFFFFFFFFFFF AND EQ PUSH2 0x1E7 JUMPI PUSH1 0x40 MLOAD PUSH32 0x8C379A000000000000000000000000000000000000000000000000000000000 DUP2 MSTORE PUSH1 0x4 ADD PUSH2 0x1DE SWAP1 PUSH2 0x9E7 JUMP JUMPDEST PUSH1 0x40 MLOAD DUP1 SWAP2 SUB SWAP1 REVERT JUMPDEST PUSH0 PUSH1 0x2 PUSH0 DUP5 PUSH20 0xFFFFFFFFFFFFFFFFFFFFFFFFFFFFFFFFFFFFFFFF AND PUSH20 0xFFFFFFFFFFFFFFFFFFFFFFFFFFFFFFFFFFFFFFFF AND DUP2 MSTORE PUSH1 0x20 ADD SWAP1 DUP2 MSTORE PUSH1 0x20 ADD PUSH0 KECCAK256 PUSH0 ADD SLOAD EQ PUSH2 0x268 JUMPI PUSH1 0x40 MLOAD PUSH32 0x8C379A000000000000000000000000000000000000000000000000000000000 DUP2 MSTORE PUSH1 0x4 ADD PUSH2 0x25F SWAP1 PUSH2 0xA4F JUMP JUMPDEST PUSH1 0x40 MLOAD DUP1 SWAP2 SUB SWAP1 REVERT JUMPDEST PUSH0 DUP1 SLOAD SWAP1 PUSH2 0x100 EXP SWAP1 DIV PUSH20 0xFFFFFFFFFFFFFFFFFFFFFFFFFFFFFFFFFFFFFFFF AND PUSH20 0xFFFFFFFFFFFFFFFFFFFFFFFFFFFFFFFFFFFFFFFF AND PUSH4 0x23B872DD DUP4 ADDRESS DUP5 PUSH1 0x40 MLOAD DUP5 PUSH4 0xFFFFFFFF AND PUSH1 0xE0 SHL DUP2 MSTORE PUSH1 0x4 ADD PUSH2 0x2C4 SWAP4 SWAP3 SWAP2 SWAP1 PUSH2 0xA6D JUMP JUMPDEST PUSH1 0x20 PUSH1 0x40 MLOAD DUP1 DUP4 SUB DUP2 PUSH0 DUP8 GAS CALL ISZERO DUP1 ISZERO PUSH2 0x2E0 JUMPI RETURNDATASIZE PUSH0 DUP1 RETURNDATACOPY RETURNDATASIZE PUSH0 REVERT JUMPDEST POP POP POP POP PUSH1 0x40 MLOAD RETURNDATASIZE PUSH1 0x1F NOT PUSH1 0x1F DUP3 ADD AND DUP3 ADD DUP1 PUSH1 0x40 MSTORE POP DUP2 ADD SWAP1 PUSH2 0x304 SWAP2 SWAP1 PUSH2 0xAD7 JUMP JUMPDEST POP PUSH1 0x40 MLOAD DUP1 PUSH1 0xA0 ADD PUSH1 0x40 MSTORE DUP1 DUP3 DUP2 MSTORE PUSH1 0x20 ADD TIMESTAMP DUP2 MSTORE PUSH1 0x20 ADD PUSH3 0x4F1A00 DUP2 MSTORE PUSH1 0x20 ADD PUSH4 0x1E13380 DUP2 MSTORE PUSH1 0x20 ADD PUSH0 DUP2 MSTORE POP PUSH1 0x2 PUSH0 DUP5 PUSH20 0xFFFFFFFFFFFFFFFFFFFFFFFFFFFFFFFFFFFFFFFF AND PUSH20 0xFFFFFFFFFFFFFFFFFFFFFFFFFFFFFFFFFFFFFFFF AND DUP2 MSTORE PUSH1 0x20 ADD SWAP1 DUP2 MSTORE PUSH1 0x20 ADD PUSH0 KECCAK256 PUSH0 DUP3 ADD MLOAD DUP2 PUSH0 ADD SSTORE PUSH1 0x20 DUP3 ADD MLOAD DUP2 PUSH1 0x1 ADD SSTORE PUSH1 0x40 DUP3 ADD MLOAD DUP2 PUSH1 0x2 ADD SSTORE PUSH1 0x60 DUP3 ADD MLOAD DUP2 PUSH1 0x3 ADD SSTORE PUSH1 0x80 DUP3 ADD MLOAD DUP2 PUSH1 0x4 ADD SSTORE SWAP1 POP POP DUP1 DUP3 PUSH20 0xFFFFFFFFFFFFFFFFFFFFFFFFFFFFFFFFFFFFFFFF AND PUSH32 0x8DF15E197EBA63F590F48CD1E5069B3250EC36A459291A252A7DE560DFE1E5D3 PUSH1 0x40 MLOAD PUSH1 0x40 MLOAD DUP1 SWAP2 SUB SWAP1 LOG3 POP POP JUMP JUMPDEST PUSH0 PUSH1 0x2 PUSH0 CALLER PUSH20 0xFFFFFFFFFFFFFFFFFFFFFFFFFFFFFFFFFFFFFFFF AND PUSH20 0xFFFFFFFFFFFFFFFFFFFFFFFFFFFFFFFFFFFFFFFF AND DUP2 MSTORE PUSH1 0x20 ADD SWAP1 DUP2 MSTORE PUSH1 0x20 ADD PUSH0 KECCAK256 SWAP1 POP PUSH0 DUP2 PUSH1 0x1 ADD SLOAD SUB PUSH2 0x471 JUMPI PUSH1 0x40 MLOAD PUSH32 0x8C379A000000000000000000000000000000000000000000000000000000000 DUP2 MSTORE PUSH1 0x4 ADD PUSH2 0x468 SWAP1 PUSH2 0xB4C JUMP JUMPDEST PUSH1 0x40 MLOAD DUP1 SWAP2 SUB SWAP1 REVERT JUMPDEST PUSH0 DUP2 PUSH0 ADD SLOAD GT PUSH2 0x4B6 JUMPI PUSH1 0x40 MLOAD PUSH32 0x8C379A000000000000000000000000000000000000000000000000000000000 DUP2 MSTORE PUSH1 0x4 ADD PUSH2 0x4AD SWAP1 PUSH2 0xBB4 JUMP JUMPDEST PUSH1 0x40 MLOAD DUP1 SWAP2 SUB SWAP1 REVERT JUMPDEST PUSH3 0x4F1A00 DUP2 PUSH1 0x1 ADD SLOAD PUSH2 0x4C9 SWAP2 SWAP1 PUSH2 0xBFF JUMP JUMPDEST TIMESTAMP LT ISZERO PUSH2 0x50B JUMPI PUSH1 0x40 MLOAD PUSH32 0x8C379A000000000000000000000000000000000000000000000000000000000 DUP2 MSTORE PUSH1 0x4 ADD PUSH2 0x502 SWAP1 PUSH2 0xC7C JUMP JUMPDEST PUSH1 0x40 MLOAD DUP1 SWAP2 SUB SWAP1 REVERT JUMPDEST PUSH0 DUP2 PUSH1 0x1 ADD SLOAD TIMESTAMP PUSH2 0x51C SWAP2 SWAP1 PUSH2 0xC9A JUMP JUMPDEST SWAP1 POP PUSH4 0x1E13380 DUP2 GT ISZERO PUSH2 0x532 JUMPI PUSH4 0x1E13380 SWAP1 POP JUMPDEST PUSH0 PUSH3 0x4F1A00 DUP3 PUSH2 0x542 SWAP2 SWAP1 PUSH2 0xC9A JUMP JUMPDEST SWAP1 POP PUSH0 PUSH3 0x278D00 DUP3 PUSH2 0x554 SWAP2 SWAP1 PUSH2 0xCFA JUMP JUMPDEST SWAP1 POP PUSH0 PUSH1 0x64 DUP3 PUSH1 0xA DUP8 PUSH0 ADD SLOAD PUSH2 0x56A SWAP2 SWAP1 PUSH2 0xD2A JUMP JUMPDEST PUSH2 0x574 SWAP2 SWAP1 PUSH2 0xD2A JUMP JUMPDEST PUSH2 0x57E SWAP2 SWAP1 PUSH2 0xCFA JUMP JUMPDEST SWAP1 POP PUSH0 DUP6 PUSH1 0x4 ADD SLOAD DUP3 PUSH2 0x591 SWAP2 SWAP1 PUSH2 0xC9A JUMP JUMPDEST SWAP1 POP PUSH0 DUP2 GT PUSH2 0x5D5 JUMPI PUSH1 0x40 MLOAD PUSH32 0x8C379A000000000000000000000000000000000000000000000000000000000 DUP2 MSTORE PUSH1 0x4 ADD PUSH2 0x5CC SWAP1 PUSH2 0xDB5 JUMP JUMPDEST PUSH1 0x40 MLOAD DUP1 SWAP2 SUB SWAP1 REVERT JUMPDEST DUP1 DUP7 PUSH1 0x4 ADD PUSH0 DUP3 DUP3 SLOAD PUSH2 0x5E8 SWAP2 SWAP1 PUSH2 0xBFF JUMP JUMPDEST SWAP3 POP POP DUP2 SWAP1 SSTORE POP PUSH0 DUP1 SLOAD SWAP1 PUSH2 0x100 EXP SWAP1 DIV PUSH20 0xFFFFFFFFFFFFFFFFFFFFFFFFFFFFFFFFFFFFFFFF AND PUSH20 0xFFFFFFFFFFFFFFFFFFFFFFFFFFFFFFFFFFFFFFFF AND PUSH4 0xA9059CBB CALLER DUP4 PUSH1 0x40 MLOAD DUP4 PUSH4 0xFFFFFFFF AND PUSH1 0xE0 SHL DUP2 MSTORE PUSH1 0x4 ADD PUSH2 0x649 SWAP3 SWAP2 SWAP1 PUSH2 0xDD3 JUMP JUMPDEST PUSH1 0x20 PUSH1 0x40 MLOAD DUP1 DUP4 SUB DUP2 PUSH0 DUP8 GAS CALL ISZERO DUP1 ISZERO PUSH2 0x665 JUMPI RETURNDATASIZE PUSH0 DUP1 RETURNDATACOPY RETURNDATASIZE PUSH0 REVERT JUMPDEST POP POP POP POP PUSH1 0x40 MLOAD RETURNDATASIZE PUSH1 0x1F NOT PUSH1 0x1F DUP3 ADD AND DUP3 ADD DUP1 PUSH1 0x40 MSTORE POP DUP2 ADD SWAP1 PUSH2 0x689 SWAP2 SWAP1 PUSH2 0xAD7 JUMP JUMPDEST POP DUP1 CALLER PUSH20 0xFFFFFFFFFFFFFFFFFFFFFFFFFFFFFFFFFFFFFFFF AND PUSH32 0x72C1297DA002E90E42B3F190EF6F1B441D77A7D346AA6359777FB57197E349A PUSH1 0x40 MLOAD PUSH1 0x40 MLOAD DUP1 SWAP2 SUB SWAP1 LOG3 POP POP POP POP POP POP JUMP JUMPDEST PUSH4 0x1E13380 DUP2 JUMP JUMPDEST PUSH1 0x2 PUSH1 0x20 MSTORE DUP1 PUSH0 MSTORE PUSH1 0x40 PUSH0 KECCAK256 PUSH0 SWAP2 POP SWAP1 POP DUP1 PUSH0 ADD SLOAD SWAP1 DUP1 PUSH1 0x1 ADD SLOAD SWAP1 DUP1 PUSH1 0x2 ADD SLOAD SWAP1 DUP1 PUSH1 0x3 ADD SLOAD SWAP1 DUP1 PUSH1 0x4 ADD SLOAD SWAP1 POP DUP6 JUMP JUMPDEST PUSH0 DUP1 SLOAD SWAP1 PUSH2 0x100 EXP SWAP1 DIV PUSH20 0xFFFFFFFFFFFFFFFFFFFFFFFFFFFFFFFFFFFFFFFF AND DUP2 JUMP JUMPDEST PUSH1 0x1 PUSH0 SWAP1 SLOAD SWAP1 PUSH2 0x100 EXP SWAP1 DIV PUSH20 0xFFFFFFFFFFFFFFFFFFFFFFFFFFFFFFFFFFFFFFFF AND DUP2 JUMP JUMPDEST PUSH0 DUP2 SWAP1 POP SWAP2 SWAP1 POP JUMP JUMPDEST PUSH2 0x76A DUP2 PUSH2 0x758 JUMP JUMPDEST DUP3 MSTORE POP POP JUMP JUMPDEST PUSH0 PUSH1 0x20 DUP3 ADD SWAP1 POP PUSH2 0x783 PUSH0 DUP4 ADD DUP5 PUSH2 0x761 JUMP JUMPDEST SWAP3 SWAP2 POP POP JUMP JUMPDEST PUSH0 DUP1 REVERT JUMPDEST PUSH0 PUSH20 0xFFFFFFFFFFFFFFFFFFFFFFFFFFFFFFFFFFFFFFFF DUP3 AND SWAP1 POP SWAP2 SWAP1 POP JUMP JUMPDEST PUSH0 PUSH2 0x7B6 DUP3 PUSH2 0x78D JUMP JUMPDEST SWAP1 POP SWAP2 SWAP1 POP JUMP JUMPDEST PUSH2 0x7C6 DUP2 PUSH2 0x7AC JUMP JUMPDEST DUP2 EQ PUSH2 0x7D0 JUMPI PUSH0 DUP1 REVERT JUMPDEST POP JUMP JUMPDEST PUSH0 DUP2 CALLDATALOAD SWAP1 POP PUSH2 0x7E1 DUP2 PUSH2 0x7BD JUMP JUMPDEST SWAP3 SWAP2 POP POP JUMP JUMPDEST PUSH2 0x7F0 DUP2 PUSH2 0x758 JUMP JUMPDEST DUP2 EQ PUSH2 0x7FA JUMPI PUSH0 DUP1 REVERT JUMPDEST POP JUMP JUMPDEST PUSH0 DUP2 CALLDATALOAD SWAP1 POP PUSH2 0x80B DUP2 PUSH2 0x7E7 JUMP JUMPDEST SWAP3 SWAP2 POP POP JUMP JUMPDEST PUSH0 DUP1 PUSH1 0x40 DUP4 DUP6 SUB SLT ISZERO PUSH2 0x827 JUMPI PUSH2 0x826 PUSH2 0x789 JUMP JUMPDEST JUMPDEST PUSH0 PUSH2 0x834 DUP6 DUP3 DUP7 ADD PUSH2 0x7D3 JUMP JUMPDEST SWAP3 POP POP PUSH1 0x20 PUSH2 0x845 DUP6 DUP3 DUP7 ADD PUSH2 0x7FD JUMP JUMPDEST SWAP2 POP POP SWAP3 POP SWAP3 SWAP1 POP JUMP JUMPDEST PUSH0 PUSH1 0x20 DUP3 DUP5 SUB SLT ISZERO PUSH2 0x864 JUMPI PUSH2 0x863 PUSH2 0x789 JUMP JUMPDEST JUMPDEST PUSH0 PUSH2 0x871 DUP5 DUP3 DUP6 ADD PUSH2 0x7D3 JUMP JUMPDEST SWAP2 POP POP SWAP3 SWAP2 POP POP JUMP JUMPDEST PUSH0 PUSH1 0xA0 DUP3 ADD SWAP1 POP PUSH2 0x88D PUSH0 DUP4 ADD DUP9 PUSH2 0x761 JUMP JUMPDEST PUSH2 0x89A PUSH1 0x20 DUP4 ADD DUP8 PUSH2 0x761 JUMP JUMPDEST PUSH2 0x8A7 PUSH1 0x40 DUP4 ADD DUP7 PUSH2 0x761 JUMP JUMPDEST PUSH2 0x8B4 PUSH1 0x60 DUP4 ADD DUP6 PUSH2 0x761 JUMP JUMPDEST PUSH2 0x8C1 PUSH1 0x80 DUP4 ADD DUP5 PUSH2 0x761 JUMP JUMPDEST SWAP7 SWAP6 POP POP POP POP POP POP JUMP JUMPDEST PUSH0 DUP2 SWAP1 POP SWAP2 SWAP1 POP JUMP JUMPDEST PUSH0 PUSH2 0x8EE PUSH2 0x8E9 PUSH2 0x8E4 DUP5 PUSH2 0x78D JUMP JUMPDEST PUSH2 0x8CB JUMP JUMPDEST PUSH2 0x78D JUMP JUMPDEST SWAP1 POP SWAP2 SWAP1 POP JUMP JUMPDEST PUSH0 PUSH2 0x8FF DUP3 PUSH2 0x8D4 JUMP JUMPDEST SWAP1 POP SWAP2 SWAP1 POP JUMP JUMPDEST PUSH0 PUSH2 0x910 DUP3 PUSH2 0x8F5 JUMP JUMPDEST SWAP1 POP SWAP2 SWAP1 POP JUMP JUMPDEST PUSH2 0x920 DUP2 PUSH2 0x906 JUMP JUMPDEST DUP3 MSTORE POP POP JUMP JUMPDEST PUSH0 PUSH1 0x20 DUP3 ADD SWAP1 POP PUSH2 0x939 PUSH0 DUP4 ADD DUP5 PUSH2 0x917 JUMP JUMPDEST SWAP3 SWAP2 POP POP JUMP JUMPDEST PUSH2 0x948 DUP2 PUSH2 0x7AC JUMP JUMPDEST DUP3 MSTORE POP POP JUMP JUMPDEST PUSH0 PUSH1 0x20 DUP3 ADD SWAP1 POP PUSH2 0x961 PUSH0 DUP4 ADD DUP5 PUSH2 0x93F JUMP JUMPDEST SWAP3 SWAP2 POP POP JUMP JUMPDEST PUSH0 DUP3 DUP3 MSTORE PUSH1 0x20 DUP3 ADD SWAP1 POP SWAP3 SWAP2 POP POP JUMP JUMPDEST PUSH32 0x4E6F7441646D696E2C20736F20796F752063616E2774206C6F636B2074686520 PUSH0 DUP3 ADD MSTORE PUSH32 0x746F6B656E000000000000000000000000000000000000000000000000000000 PUSH1 0x20 DUP3 ADD MSTORE POP JUMP JUMPDEST PUSH0 PUSH2 0x9D1 PUSH1 0x25 DUP4 PUSH2 0x967 JUMP JUMPDEST SWAP2 POP PUSH2 0x9DC DUP3 PUSH2 0x977 JUMP JUMPDEST PUSH1 0x40 DUP3 ADD SWAP1 POP SWAP2 SWAP1 POP JUMP JUMPDEST PUSH0 PUSH1 0x20 DUP3 ADD SWAP1 POP DUP2 DUP2 SUB PUSH0 DUP4 ADD MSTORE PUSH2 0x9FE DUP2 PUSH2 0x9C5 JUMP JUMPDEST SWAP1 POP SWAP2 SWAP1 POP JUMP JUMPDEST PUSH32 0x616C7265616479206C6F636B0000000000000000000000000000000000000000 PUSH0 DUP3 ADD MSTORE POP JUMP JUMPDEST PUSH0 PUSH2 0xA39 PUSH1 0xC DUP4 PUSH2 0x967 JUMP JUMPDEST SWAP2 POP PUSH2 0xA44 DUP3 PUSH2 0xA05 JUMP JUMPDEST PUSH1 0x20 DUP3 ADD SWAP1 POP SWAP2 SWAP1 POP JUMP JUMPDEST PUSH0 PUSH1 0x20 DUP3 ADD SWAP1 POP DUP2 DUP2 SUB PUSH0 DUP4 ADD MSTORE PUSH2 0xA66 DUP2 PUSH2 0xA2D JUMP JUMPDEST SWAP1 POP SWAP2 SWAP1 POP JUMP JUMPDEST PUSH0 PUSH1 0x60 DUP3 ADD SWAP1 POP PUSH2 0xA80 PUSH0 DUP4 ADD DUP7 PUSH2 0x93F JUMP JUMPDEST PUSH2 0xA8D PUSH1 0x20 DUP4 ADD DUP6 PUSH2 0x93F JUMP JUMPDEST PUSH2 0xA9A PUSH1 0x40 DUP4 ADD DUP5 PUSH2 0x761 JUMP JUMPDEST SWAP5 SWAP4 POP POP POP POP JUMP JUMPDEST PUSH0 DUP2 ISZERO ISZERO SWAP1 POP SWAP2 SWAP1 POP JUMP JUMPDEST PUSH2 0xAB6 DUP2 PUSH2 0xAA2 JUMP JUMPDEST DUP2 EQ PUSH2 0xAC0 JUMPI PUSH0 DUP1 REVERT JUMPDEST POP JUMP JUMPDEST PUSH0 DUP2 MLOAD SWAP1 POP PUSH2 0xAD1 DUP2 PUSH2 0xAAD JUMP JUMPDEST SWAP3 SWAP2 POP POP JUMP JUMPDEST PUSH0 PUSH1 0x20 DUP3 DUP5 SUB SLT ISZERO PUSH2 0xAEC JUMPI PUSH2 0xAEB PUSH2 0x789 JUMP JUMPDEST JUMPDEST PUSH0 PUSH2 0xAF9 DUP5 DUP3 DUP6 ADD PUSH2 0xAC3 JUMP JUMPDEST SWAP2 POP POP SWAP3 SWAP2 POP POP JUMP JUMPDEST PUSH32 0x6E6F74206C6F636B656420746F6B656E20796574000000000000000000000000 PUSH0 DUP3 ADD MSTORE POP JUMP JUMPDEST PUSH0 PUSH2 0xB36 PUSH1 0x14 DUP4 PUSH2 0x967 JUMP JUMPDEST SWAP2 POP PUSH2 0xB41 DUP3 PUSH2 0xB02 JUMP JUMPDEST PUSH1 0x20 DUP3 ADD SWAP1 POP SWAP2 SWAP1 POP JUMP JUMPDEST PUSH0 PUSH1 0x20 DUP3 ADD SWAP1 POP DUP2 DUP2 SUB PUSH0 DUP4 ADD MSTORE PUSH2 0xB63 DUP2 PUSH2 0xB2A JUMP JUMPDEST SWAP1 POP SWAP2 SWAP1 POP JUMP JUMPDEST PUSH32 0x6E6F20746F6B656E000000000000000000000000000000000000000000000000 PUSH0 DUP3 ADD MSTORE POP JUMP JUMPDEST PUSH0 PUSH2 0xB9E PUSH1 0x8 DUP4 PUSH2 0x967 JUMP JUMPDEST SWAP2 POP PUSH2 0xBA9 DUP3 PUSH2 0xB6A JUMP JUMPDEST PUSH1 0x20 DUP3 ADD SWAP1 POP SWAP2 SWAP1 POP JUMP JUMPDEST PUSH0 PUSH1 0x20 DUP3 ADD SWAP1 POP DUP2 DUP2 SUB PUSH0 DUP4 ADD MSTORE PUSH2 0xBCB DUP2 PUSH2 0xB92 JUMP JUMPDEST SWAP1 POP SWAP2 SWAP1 POP JUMP JUMPDEST PUSH32 0x4E487B7100000000000000000000000000000000000000000000000000000000 PUSH0 MSTORE PUSH1 0x11 PUSH1 0x4 MSTORE PUSH1 0x24 PUSH0 REVERT JUMPDEST PUSH0 PUSH2 0xC09 DUP3 PUSH2 0x758 JUMP JUMPDEST SWAP2 POP PUSH2 0xC14 DUP4 PUSH2 0x758 JUMP JUMPDEST SWAP3 POP DUP3 DUP3 ADD SWAP1 POP DUP1 DUP3 GT ISZERO PUSH2 0xC2C JUMPI PUSH2 0xC2B PUSH2 0xBD2 JUMP JUMPDEST JUMPDEST SWAP3 SWAP2 POP POP JUMP JUMPDEST PUSH32 0x697427732074696D6520746F20636C61696D20746F6B656E7300000000000000 PUSH0 DUP3 ADD MSTORE POP JUMP JUMPDEST PUSH0 PUSH2 0xC66 PUSH1 0x19 DUP4 PUSH2 0x967 JUMP JUMPDEST SWAP2 POP PUSH2 0xC71 DUP3 PUSH2 0xC32 JUMP JUMPDEST PUSH1 0x20 DUP3 ADD SWAP1 POP SWAP2 SWAP1 POP JUMP JUMPDEST PUSH0 PUSH1 0x20 DUP3 ADD SWAP1 POP DUP2 DUP2 SUB PUSH0 DUP4 ADD MSTORE PUSH2 0xC93 DUP2 PUSH2 0xC5A JUMP JUMPDEST SWAP1 POP SWAP2 SWAP1 POP JUMP JUMPDEST PUSH0 PUSH2 0xCA4 DUP3 PUSH2 0x758 JUMP JUMPDEST SWAP2 POP PUSH2 0xCAF DUP4 PUSH2 0x758 JUMP JUMPDEST SWAP3 POP DUP3 DUP3 SUB SWAP1 POP DUP2 DUP2 GT ISZERO PUSH2 0xCC7 JUMPI PUSH2 0xCC6 PUSH2 0xBD2 JUMP JUMPDEST JUMPDEST SWAP3 SWAP2 POP POP JUMP JUMPDEST PUSH32 0x4E487B7100000000000000000000000000000000000000000000000000000000 PUSH0 MSTORE PUSH1 0x12 PUSH1 0x4 MSTORE PUSH1 0x24 PUSH0 REVERT JUMPDEST PUSH0 PUSH2 0xD04 DUP3 PUSH2 0x758 JUMP JUMPDEST SWAP2 POP PUSH2 0xD0F DUP4 PUSH2 0x758 JUMP JUMPDEST SWAP3 POP DUP3 PUSH2 0xD1F JUMPI PUSH2 0xD1E PUSH2 0xCCD JUMP JUMPDEST JUMPDEST DUP3 DUP3 DIV SWAP1 POP SWAP3 SWAP2 POP POP JUMP JUMPDEST PUSH0 PUSH2 0xD34 DUP3 PUSH2 0x758 JUMP JUMPDEST SWAP2 POP PUSH2 0xD3F DUP4 PUSH2 0x758 JUMP JUMPDEST SWAP3 POP DUP3 DUP3 MUL PUSH2 0xD4D DUP2 PUSH2 0x758 JUMP JUMPDEST SWAP2 POP DUP3 DUP3 DIV DUP5 EQ DUP4 ISZERO OR PUSH2 0xD64 JUMPI PUSH2 0xD63 PUSH2 0xBD2 JUMP JUMPDEST JUMPDEST POP SWAP3 SWAP2 POP POP JUMP JUMPDEST PUSH32 0x4E6F20746F6B656E7320617661696C61626C6520746F20636C61696D20796574 PUSH0 DUP3 ADD MSTORE POP JUMP JUMPDEST PUSH0 PUSH2 0xD9F PUSH1 0x20 DUP4 PUSH2 0x967 JUMP JUMPDEST SWAP2 POP PUSH2 0xDAA DUP3 PUSH2 0xD6B JUMP JUMPDEST PUSH1 0x20 DUP3 ADD SWAP1 POP SWAP2 SWAP1 POP JUMP JUMPDEST PUSH0 PUSH1 0x20 DUP3 ADD SWAP1 POP DUP2 DUP2 SUB PUSH0 DUP4 ADD MSTORE PUSH2 0xDCC DUP2 PUSH2 0xD93 JUMP JUMPDEST SWAP1 POP SWAP2 SWAP1 POP JUMP JUMPDEST PUSH0 PUSH1 0x40 DUP3 ADD SWAP1 POP PUSH2 0xDE6 PUSH0 DUP4 ADD DUP6 PUSH2 0x93F JUMP JUMPDEST PUSH2 0xDF3 PUSH1 0x20 DUP4 ADD DUP5 PUSH2 0x761 JUMP JUMPDEST SWAP4 SWAP3 POP POP POP JUMP INVALID LOG2 PUSH5 0x6970667358 0x22 SLT KECCAK256 0xC8 CREATE2 0x2E LT 0xD8 STATICCALL 0x2D SELFDESTRUCT 0xA5 PUSH32 0x787DF05192395A11A512E4297C9D314BE1FE014A95DA64736F6C634300081A00 CALLER "
		},
		"gasEstimates": {
			"creation": {
				"codeDepositCost": "726400",
				"executionCost": "infinite",
				"totalCost": "infinite"
			},
			"external": {
				"admin()": "2574",
				"allStackDetails(address)": "infinite",
				"claimTokens()": "infinite",
				"cliff()": "326",
				"lockToken(address,uint256)": "infinite",
				"nlnt()": "infinite",
				"totalDuration()": "325"
			}
		},
		"methodIdentifiers": {
			"admin()": "f851a440",
			"allStackDetails(address)": "92c6c486",
			"claimTokens()": "48c54b9d",
			"cliff()": "13d033c0",
			"lockToken(address,uint256)": "17be3fa5",
			"nlnt()": "aa03875e",
			"totalDuration()": "8af6c259"
		}
	},
	"abi": [
		{
			"inputs": [
				{
					"internalType": "address",
					"name": "_nlnt",
					"type": "address"
				}
			],
			"stateMutability": "nonpayable",
			"type": "constructor"
		},
		{
			"anonymous": false,
			"inputs": [
				{
					"indexed": true,
					"internalType": "address",
					"name": "to",
					"type": "address"
				},
				{
					"indexed": true,
					"internalType": "uint256",
					"name": "amount",
					"type": "uint256"
				}
			],
			"name": "claimedToken",
			"type": "event"
		},
		{
			"anonymous": false,
			"inputs": [
				{
					"indexed": true,
					"internalType": "address",
					"name": "_to",
					"type": "address"
				},
				{
					"indexed": true,
					"internalType": "uint256",
					"name": "_amount",
					"type": "uint256"
				}
			],
			"name": "tokenLock",
			"type": "event"
		},
		{
			"inputs": [],
			"name": "admin",
			"outputs": [
				{
					"internalType": "address",
					"name": "",
					"type": "address"
				}
			],
			"stateMutability": "view",
			"type": "function"
		},
		{
			"inputs": [
				{
					"internalType": "address",
					"name": "",
					"type": "address"
				}
			],
			"name": "allStackDetails",
			"outputs": [
				{
					"internalType": "uint256",
					"name": "nlntAmount",
					"type": "uint256"
				},
				{
					"internalType": "uint256",
					"name": "start",
					"type": "uint256"
				},
				{
					"internalType": "uint256",
					"name": "cliffDuration",
					"type": "uint256"
				},
				{
					"internalType": "uint256",
					"name": "duration",
					"type": "uint256"
				},
				{
					"internalType": "uint256",
					"name": "claimAmount",
					"type": "uint256"
				}
			],
			"stateMutability": "view",
			"type": "function"
		},
		{
			"inputs": [],
			"name": "claimTokens",
			"outputs": [],
			"stateMutability": "nonpayable",
			"type": "function"
		},
		{
			"inputs": [],
			"name": "cliff",
			"outputs": [
				{
					"internalType": "uint256",
					"name": "",
					"type": "uint256"
				}
			],
			"stateMutability": "view",
			"type": "function"
		},
		{
			"inputs": [
				{
					"internalType": "address",
					"name": "_userAddress",
					"type": "address"
				},
				{
					"internalType": "uint256",
					"name": "_nlntAmount",
					"type": "uint256"
				}
			],
			"name": "lockToken",
			"outputs": [],
			"stateMutability": "nonpayable",
			"type": "function"
		},
		{
			"inputs": [],
			"name": "nlnt",
			"outputs": [
				{
					"internalType": "contract IERC20",
					"name": "",
					"type": "address"
				}
			],
			"stateMutability": "view",
			"type": "function"
		},
		{
			"inputs": [],
			"name": "totalDuration",
			"outputs": [
				{
					"internalType": "uint256",
					"name": "",
					"type": "uint256"
				}
			],
			"stateMutability": "view",
			"type": "function"
		}
	]
}