{
	"data": {
		"bytecode": {
			"linkReferences": {},
			"object": "60806040526003600655348015610014575f80fd5b50604051613cd7380380613cd7833981810160405281019061003691906101cc565b815f806101000a81548173ffffffffffffffffffffffffffffffffffffffff021916908373ffffffffffffffffffffffffffffffffffffffff1602179055508060015f6101000a81548173ffffffffffffffffffffffffffffffffffffffff021916908373ffffffffffffffffffffffffffffffffffffffff1602179055506040516100c190610161565b604051809103905ff0801580156100da573d5f803e3d5ffd5b5060025f6101000a81548173ffffffffffffffffffffffffffffffffffffffff021916908373ffffffffffffffffffffffffffffffffffffffff1602179055503360075f6101000a81548173ffffffffffffffffffffffffffffffffffffffff021916908373ffffffffffffffffffffffffffffffffffffffff160217905550505061020a565b61157f8061275883390190565b5f80fd5b5f73ffffffffffffffffffffffffffffffffffffffff82169050919050565b5f61019b82610172565b9050919050565b6101ab81610191565b81146101b5575f80fd5b50565b5f815190506101c6816101a2565b92915050565b5f80604083850312156101e2576101e161016e565b5b5f6101ef858286016101b8565b9250506020610200858286016101b8565b9150509250929050565b612541806102175f395ff3fe608060405234801561000f575f80fd5b5060043610610135575f3560e01c806398d5fdca116100b6578063bae38d581161007a578063bae38d5814610352578063be8e89fc14610382578063c4604b33146103a0578063c9e57aa6146103d0578063dc5fa6c5146103ee578063f0b456e91461040c57610135565b806398d5fdca146102ae5780639c8f9f23146102cc5780639cd441da146102e8578063a001ecdd14610318578063b9c8c4ba1461033657610135565b80635f64b55b116100fd5780635f64b55b146101f45780635fcbd28514610212578063670053c8146102305780637a88266a146102605780638da5cb5b1461029057610135565b806306ebcc6d146101395780630902f1ac146101695780630fc63d101461018857806319e36f3b146101a65780634242ec52146101c4575b5f80fd5b610153600480360381019061014e91906119fc565b61043c565b6040516101609190611a3f565b60405180910390f35b6101716104dd565b60405161017f929190611a58565b60405180910390f35b6101906104ed565b60405161019d9190611ada565b60405180910390f35b6101ae610510565b6040516101bb9190611a3f565b60405180910390f35b6101de60048036038101906101d99190611b1d565b610516565b6040516101eb9190611a3f565b60405180910390f35b6101fc61082a565b6040516102099190611ada565b60405180910390f35b61021a61084f565b6040516102279190611b7b565b60405180910390f35b61024a60048036038101906102459190611b94565b610874565b6040516102579190611a3f565b60405180910390f35b61027a60048036038101906102759190611b94565b61093c565b6040516102879190611a3f565b60405180910390f35b610298610a10565b6040516102a59190611bce565b60405180910390f35b6102b6610a35565b6040516102c39190611a3f565b60405180910390f35b6102e660048036038101906102e19190611b94565b610aa2565b005b61030260048036038101906102fd9190611b1d565b610f48565b60405161030f9190611a3f565b60405180910390f35b61032061134a565b60405161032d9190611a3f565b60405180910390f35b610350600480360381019061034b9190611b94565b611350565b005b61036c60048036038101906103679190611b94565b61142b565b6040516103799190611a3f565b60405180910390f35b61038a6114ff565b6040516103979190611a3f565b60405180910390f35b6103ba60048036038101906103b59190611b94565b611505565b6040516103c79190611a3f565b60405180910390f35b6103d86115cd565b6040516103e59190611bce565b60405180910390f35b6103f66115f5565b6040516104039190611a3f565b60405180910390f35b61042660048036038101906104219190611b1d565b6115fb565b6040516104339190611a3f565b60405180910390f35b5f60025f9054906101000a900473ffffffffffffffffffffffffffffffffffffffff1673ffffffffffffffffffffffffffffffffffffffff166370a08231836040518263ffffffff1660e01b81526004016104979190611bce565b602060405180830381865afa1580156104b2573d5f803e3d5ffd5b505050506040513d601f19601f820116820180604052508101906104d69190611bfb565b9050919050565b5f80600354600454915091509091565b5f8054906101000a900473ffffffffffffffffffffffffffffffffffffffff1681565b60045481565b5f808311610559576040517f08c379a000000000000000000000000000000000000000000000000000000000815260040161055090611c80565b60405180910390fd5b5f6005541161059d576040517f08c379a000000000000000000000000000000000000000000000000000000000815260040161059490611ce8565b60405180910390fd5b5f6064600654856105ae9190611d33565b6105b89190611da1565b90505f81856105c79190611dd1565b90506105d281611505565b8411610613576040517f08c379a000000000000000000000000000000000000000000000000000000000815260040161060a90611e4e565b60405180910390fd5b5f816004546106229190611e6c565b90505f6004546003546106359190611d33565b90505f82826106449190611da1565b90505f816003546106559190611dd1565b905060015f9054906101000a900473ffffffffffffffffffffffffffffffffffffffff1673ffffffffffffffffffffffffffffffffffffffff166323b872dd33308c6040518463ffffffff1660e01b81526004016106b593929190611e9f565b6020604051808303815f875af11580156106d1573d5f803e3d5ffd5b505050506040513d601f19601f820116820180604052508101906106f59190611f09565b610734576040517f08c379a000000000000000000000000000000000000000000000000000000000815260040161072b90611f7e565b60405180910390fd5b5f8054906101000a900473ffffffffffffffffffffffffffffffffffffffff1673ffffffffffffffffffffffffffffffffffffffff1663a9059cbb33836040518363ffffffff1660e01b815260040161078e929190611f9c565b6020604051808303815f875af11580156107aa573d5f803e3d5ffd5b505050506040513d601f19601f820116820180604052508101906107ce9190611f09565b61080d576040517f08c379a00000000000000000000000000000000000000000000000000000000081526004016108049061200d565b60405180910390fd5b816003819055508360048190555080965050505050505092915050565b60015f9054906101000a900473ffffffffffffffffffffffffffffffffffffffff1681565b60025f9054906101000a900473ffffffffffffffffffffffffffffffffffffffff1681565b5f8082116108b7576040517f08c379a00000000000000000000000000000000000000000000000000000000081526004016108ae90612075565b60405180910390fd5b5f6108c18361093c565b90505f836003546108d29190611e6c565b90505f6004546003546108e59190611d33565b90505f82826108f49190611da1565b90505f816004546109059190611dd1565b90505f856064836109169190611d33565b6109209190611da1565b606461092c9190611dd1565b9050809650505050505050919050565b5f80821161097f576040517f08c379a0000000000000000000000000000000000000000000000000000000008152600401610976906120dd565b60405180910390fd5b5f600454116109c3576040517f08c379a00000000000000000000000000000000000000000000000000000000081526004016109ba90612145565b60405180910390fd5b5f600454670de0b6b3a76400006003546109dd9190611d33565b6109e79190611da1565b905080670de0b6b3a7640000846109fe9190611d33565b610a089190611da1565b915050919050565b60075f9054906101000a900473ffffffffffffffffffffffffffffffffffffffff1681565b5f8060045411610a7a576040517f08c379a0000000000000000000000000000000000000000000000000000000008152600401610a71906121ad565b60405180910390fd5b600454670de0b6b3a7640000600354610a939190611d33565b610a9d9190611da1565b905090565b5f8111610ae4576040517f08c379a0000000000000000000000000000000000000000000000000000000008152600401610adb90612215565b60405180910390fd5b8060025f9054906101000a900473ffffffffffffffffffffffffffffffffffffffff1673ffffffffffffffffffffffffffffffffffffffff166370a08231336040518263ffffffff1660e01b8152600401610b3f9190611bce565b602060405180830381865afa158015610b5a573d5f803e3d5ffd5b505050506040513d601f19601f82011682018060405250810190610b7e9190611bfb565b1015610bbf576040517f08c379a0000000000000000000000000000000000000000000000000000000008152600401610bb69061227d565b60405180910390fd5b5f60025f9054906101000a900473ffffffffffffffffffffffffffffffffffffffff1673ffffffffffffffffffffffffffffffffffffffff166318160ddd6040518163ffffffff1660e01b8152600401602060405180830381865afa158015610c2a573d5f803e3d5ffd5b505050506040513d601f19601f82011682018060405250810190610c4e9190611bfb565b90505f8160035484610c609190611d33565b610c6a9190611da1565b90505f8260045485610c7c9190611d33565b610c869190611da1565b90505f82118015610c9657505f81115b610cd5576040517f08c379a0000000000000000000000000000000000000000000000000000000008152600401610ccc906122e5565b60405180910390fd5b60025f9054906101000a900473ffffffffffffffffffffffffffffffffffffffff1673ffffffffffffffffffffffffffffffffffffffff16639dc29fac33866040518363ffffffff1660e01b8152600401610d31929190611f9c565b5f604051808303815f87803b158015610d48575f80fd5b505af1158015610d5a573d5f803e3d5ffd5b505050508160035f828254610d6f9190611dd1565b925050819055508060045f828254610d879190611dd1565b925050819055505f8054906101000a900473ffffffffffffffffffffffffffffffffffffffff1673ffffffffffffffffffffffffffffffffffffffff1663a9059cbb33846040518363ffffffff1660e01b8152600401610de8929190611f9c565b6020604051808303815f875af1158015610e04573d5f803e3d5ffd5b505050506040513d601f19601f82011682018060405250810190610e289190611f09565b610e67576040517f08c379a0000000000000000000000000000000000000000000000000000000008152600401610e5e9061200d565b60405180910390fd5b60015f9054906101000a900473ffffffffffffffffffffffffffffffffffffffff1673ffffffffffffffffffffffffffffffffffffffff1663a9059cbb33836040518363ffffffff1660e01b8152600401610ec3929190611f9c565b6020604051808303815f875af1158015610edf573d5f803e3d5ffd5b505050506040513d601f19601f82011682018060405250810190610f039190611f09565b610f42576040517f08c379a0000000000000000000000000000000000000000000000000000000008152600401610f3990611f7e565b60405180910390fd5b50505050565b5f8083118015610f5757505f82115b610f96576040517f08c379a0000000000000000000000000000000000000000000000000000000008152600401610f8d9061234d565b60405180910390fd5b5f8054906101000a900473ffffffffffffffffffffffffffffffffffffffff1673ffffffffffffffffffffffffffffffffffffffff166323b872dd3330866040518463ffffffff1660e01b8152600401610ff293929190611e9f565b6020604051808303815f875af115801561100e573d5f803e3d5ffd5b505050506040513d601f19601f820116820180604052508101906110329190611f09565b611071576040517f08c379a0000000000000000000000000000000000000000000000000000000008152600401611068906123b5565b60405180910390fd5b60015f9054906101000a900473ffffffffffffffffffffffffffffffffffffffff1673ffffffffffffffffffffffffffffffffffffffff166323b872dd3330856040518463ffffffff1660e01b81526004016110cf93929190611e9f565b6020604051808303815f875af11580156110eb573d5f803e3d5ffd5b505050506040513d601f19601f8201168201806040525081019061110f9190611f09565b61114e576040517f08c379a00000000000000000000000000000000000000000000000000000000081526004016111459061241d565b60405180910390fd5b5f60025f9054906101000a900473ffffffffffffffffffffffffffffffffffffffff1673ffffffffffffffffffffffffffffffffffffffff166318160ddd6040518163ffffffff1660e01b8152600401602060405180830381865afa1580156111b9573d5f803e3d5ffd5b505050506040513d601f19601f820116820180604052508101906111dd9190611bfb565b90505f8103611201576111fa83856111f59190611d33565b61190f565b9150611248565b5f60035482866112119190611d33565b61121b9190611da1565b90505f600454838661122d9190611d33565b6112379190611da1565b90506112438282611986565b935050505b5f821161128a576040517f08c379a000000000000000000000000000000000000000000000000000000000815260040161128190612145565b60405180910390fd5b60025f9054906101000a900473ffffffffffffffffffffffffffffffffffffffff1673ffffffffffffffffffffffffffffffffffffffff166340c10f1933846040518363ffffffff1660e01b81526004016112e6929190611f9c565b5f604051808303815f87803b1580156112fd575f80fd5b505af115801561130f573d5f803e3d5ffd5b505050508360035f8282546113249190611e6c565b925050819055508260045f82825461133c9190611e6c565b925050819055505092915050565b60065481565b60075f9054906101000a900473ffffffffffffffffffffffffffffffffffffffff1673ffffffffffffffffffffffffffffffffffffffff163373ffffffffffffffffffffffffffffffffffffffff16146113df576040517f08c379a00000000000000000000000000000000000000000000000000000000081526004016113d690612485565b60405180910390fd5b5f8111611421576040517f08c379a0000000000000000000000000000000000000000000000000000000008152600401611418906124ed565b60405180910390fd5b8060058190555050565b5f80821161146e576040517f08c379a0000000000000000000000000000000000000000000000000000000008152600401611465906120dd565b60405180910390fd5b5f600354116114b2576040517f08c379a00000000000000000000000000000000000000000000000000000000081526004016114a990612145565b60405180910390fd5b5f600354670de0b6b3a76400006004546114cc9190611d33565b6114d69190611da1565b905080670de0b6b3a7640000846114ed9190611d33565b6114f79190611da1565b915050919050565b60055481565b5f808211611548576040517f08c379a000000000000000000000000000000000000000000000000000000000815260040161153f90612075565b60405180910390fd5b5f6115528361142b565b90505f836004546115639190611e6c565b90505f6004546003546115769190611d33565b90505f82826115859190611da1565b90505f816003546115969190611dd1565b90505f856064836115a79190611d33565b6115b19190611da1565b60646115bd9190611dd1565b9050809650505050505050919050565b5f60025f9054906101000a900473ffffffffffffffffffffffffffffffffffffffff16905090565b60035481565b5f80831161163e576040517f08c379a000000000000000000000000000000000000000000000000000000000815260040161163590611c80565b60405180910390fd5b5f60055411611682576040517f08c379a000000000000000000000000000000000000000000000000000000000815260040161167990611ce8565b60405180910390fd5b5f6064600654856116939190611d33565b61169d9190611da1565b90505f81856116ac9190611dd1565b90506116b781610874565b84116116f8576040517f08c379a00000000000000000000000000000000000000000000000000000000081526004016116ef90611e4e565b60405180910390fd5b5f816003546117079190611e6c565b90505f60045460035461171a9190611d33565b90505f82826117299190611da1565b90505f8160045461173a9190611dd1565b90505f8054906101000a900473ffffffffffffffffffffffffffffffffffffffff1673ffffffffffffffffffffffffffffffffffffffff166323b872dd33308c6040518463ffffffff1660e01b815260040161179893929190611e9f565b6020604051808303815f875af11580156117b4573d5f803e3d5ffd5b505050506040513d601f19601f820116820180604052508101906117d89190611f09565b611817576040517f08c379a000000000000000000000000000000000000000000000000000000000815260040161180e9061200d565b60405180910390fd5b60015f9054906101000a900473ffffffffffffffffffffffffffffffffffffffff1673ffffffffffffffffffffffffffffffffffffffff1663a9059cbb33836040518363ffffffff1660e01b8152600401611873929190611f9c565b6020604051808303815f875af115801561188f573d5f803e3d5ffd5b505050506040513d601f19601f820116820180604052508101906118b39190611f09565b6118f2576040517f08c379a00000000000000000000000000000000000000000000000000000000081526004016118e990611f7e565b60405180910390fd5b836003819055508160048190555080965050505050505092915050565b5f6003821115611974578190505f600160028461192c9190611da1565b6119369190611e6c565b90505b8181101561196e5780915060028182856119539190611da1565b61195d9190611e6c565b6119679190611da1565b9050611939565b50611981565b5f821461198057600190505b5b919050565b5f8183106119945781611996565b825b905092915050565b5f80fd5b5f73ffffffffffffffffffffffffffffffffffffffff82169050919050565b5f6119cb826119a2565b9050919050565b6119db816119c1565b81146119e5575f80fd5b50565b5f813590506119f6816119d2565b92915050565b5f60208284031215611a1157611a1061199e565b5b5f611a1e848285016119e8565b91505092915050565b5f819050919050565b611a3981611a27565b82525050565b5f602082019050611a525f830184611a30565b92915050565b5f604082019050611a6b5f830185611a30565b611a786020830184611a30565b9392505050565b5f819050919050565b5f611aa2611a9d611a98846119a2565b611a7f565b6119a2565b9050919050565b5f611ab382611a88565b9050919050565b5f611ac482611aa9565b9050919050565b611ad481611aba565b82525050565b5f602082019050611aed5f830184611acb565b92915050565b611afc81611a27565b8114611b06575f80fd5b50565b5f81359050611b1781611af3565b92915050565b5f8060408385031215611b3357611b3261199e565b5b5f611b4085828601611b09565b9250506020611b5185828601611b09565b9150509250929050565b5f611b6582611aa9565b9050919050565b611b7581611b5b565b82525050565b5f602082019050611b8e5f830184611b6c565b92915050565b5f60208284031215611ba957611ba861199e565b5b5f611bb684828501611b09565b91505092915050565b611bc8816119c1565b82525050565b5f602082019050611be15f830184611bbf565b92915050565b5f81519050611bf581611af3565b92915050565b5f60208284031215611c1057611c0f61199e565b5b5f611c1d84828501611be7565b91505092915050565b5f82825260208201905092915050565b7f496e76616c696420696e70757420616d6f756e740000000000000000000000005f82015250565b5f611c6a601483611c26565b9150611c7582611c36565b602082019050919050565b5f6020820190508181035f830152611c9781611c5e565b9050919050565b7f457870656374656420736c697070616765206e6f7420736574000000000000005f82015250565b5f611cd2601983611c26565b9150611cdd82611c9e565b602082019050919050565b5f6020820190508181035f830152611cff81611cc6565b9050919050565b7f4e487b71000000000000000000000000000000000000000000000000000000005f52601160045260245ffd5b5f611d3d82611a27565b9150611d4883611a27565b9250828202611d5681611a27565b91508282048414831517611d6d57611d6c611d06565b5b5092915050565b7f4e487b71000000000000000000000000000000000000000000000000000000005f52601260045260245ffd5b5f611dab82611a27565b9150611db683611a27565b925082611dc657611dc5611d74565b5b828204905092915050565b5f611ddb82611a27565b9150611de683611a27565b9250828203905081811115611dfe57611dfd611d06565b5b92915050565b7f61637475616c20736c69707061676520697320746f6f206869676800000000005f82015250565b5f611e38601b83611c26565b9150611e4382611e04565b602082019050919050565b5f6020820190508181035f830152611e6581611e2c565b9050919050565b5f611e7682611a27565b9150611e8183611a27565b9250828201905080821115611e9957611e98611d06565b5b92915050565b5f606082019050611eb25f830186611bbf565b611ebf6020830185611bbf565b611ecc6040830184611a30565b949350505050565b5f8115159050919050565b611ee881611ed4565b8114611ef2575f80fd5b50565b5f81519050611f0381611edf565b92915050565b5f60208284031215611f1e57611f1d61199e565b5b5f611f2b84828501611ef5565b91505092915050565b7f546f6b656e2042207472616e73666572206661696c65640000000000000000005f82015250565b5f611f68601783611c26565b9150611f7382611f34565b602082019050919050565b5f6020820190508181035f830152611f9581611f5c565b9050919050565b5f604082019050611faf5f830185611bbf565b611fbc6020830184611a30565b9392505050565b7f546f6b656e2041207472616e73666572206661696c65640000000000000000005f82015250565b5f611ff7601783611c26565b915061200282611fc3565b602082019050919050565b5f6020820190508181035f83015261202481611feb565b9050919050565b7f6769766520636f72726563742076616c756500000000000000000000000000005f82015250565b5f61205f601283611c26565b915061206a8261202b565b602082019050919050565b5f6020820190508181035f83015261208c81612053565b9050919050565b7f496e76616c696420616d6f756e740000000000000000000000000000000000005f82015250565b5f6120c7600e83611c26565b91506120d282612093565b602082019050919050565b5f6020820190508181035f8301526120f4816120bb565b9050919050565b7f496e73756666696369656e74206c6971756964697479000000000000000000005f82015250565b5f61212f601683611c26565b915061213a826120fb565b602082019050919050565b5f6020820190508181035f83015261215c81612123565b9050919050565b7f4e6f206c697175696469747900000000000000000000000000000000000000005f82015250565b5f612197600c83611c26565b91506121a282612163565b602082019050919050565b5f6020820190508181035f8301526121c48161218b565b9050919050565b7f496e76616c6964206c697175696469747920616d6f756e7400000000000000005f82015250565b5f6121ff601883611c26565b915061220a826121cb565b602082019050919050565b5f6020820190508181035f83015261222c816121f3565b9050919050565b7f4e6f7420656e6f756768204c5020746f6b656e730000000000000000000000005f82015250565b5f612267601483611c26565b915061227282612233565b602082019050919050565b5f6020820190508181035f8301526122948161225b565b9050919050565b7f496e73756666696369656e7420616d6f756e7420746f207769746864726177005f82015250565b5f6122cf601f83611c26565b91506122da8261229b565b602082019050919050565b5f6020820190508181035f8301526122fc816122c3565b9050919050565b7f496e76616c696420616d6f756e747300000000000000000000000000000000005f82015250565b5f612337600f83611c26565b915061234282612303565b602082019050919050565b5f6020820190508181035f8301526123648161232b565b9050919050565b7f546f6b656e41207472616e73666572206661696c6564000000000000000000005f82015250565b5f61239f601683611c26565b91506123aa8261236b565b602082019050919050565b5f6020820190508181035f8301526123cc81612393565b9050919050565b7f546f6b656e42207472616e73666572206661696c6564000000000000000000005f82015250565b5f612407601683611c26565b9150612412826123d3565b602082019050919050565b5f6020820190508181035f830152612434816123fb565b9050919050565b7f4e6f7420617574686f72697a65640000000000000000000000000000000000005f82015250565b5f61246f600e83611c26565b915061247a8261243b565b602082019050919050565b5f6020820190508181035f83015261249c81612463565b9050919050565b7f696e76616c696420736c697070616765000000000000000000000000000000005f82015250565b5f6124d7601083611c26565b91506124e2826124a3565b602082019050919050565b5f6020820190508181035f830152612504816124cb565b905091905056fea26469706673582212201b60abc1c94d38280a9fda8218a13e79229f8b3d19bc521922ffd7edd514b2b464736f6c634300081a0033608060405234801561000f575f80fd5b506040518060400160405280601881526020017f4c69717569646974792050726f766964657220546f6b656e00000000000000008152506040518060400160405280600381526020017f4c50540000000000000000000000000000000000000000000000000000000000815250816003908161008b919061031d565b50806004908161009b919061031d565b5050503360055f6101000a81548173ffffffffffffffffffffffffffffffffffffffff021916908373ffffffffffffffffffffffffffffffffffffffff1602179055506103ec565b5f81519050919050565b7f4e487b71000000000000000000000000000000000000000000000000000000005f52604160045260245ffd5b7f4e487b71000000000000000000000000000000000000000000000000000000005f52602260045260245ffd5b5f600282049050600182168061015e57607f821691505b6020821081036101715761017061011a565b5b50919050565b5f819050815f5260205f209050919050565b5f6020601f8301049050919050565b5f82821b905092915050565b5f600883026101d37fffffffffffffffffffffffffffffffffffffffffffffffffffffffffffffffff82610198565b6101dd8683610198565b95508019841693508086168417925050509392505050565b5f819050919050565b5f819050919050565b5f61022161021c610217846101f5565b6101fe565b6101f5565b9050919050565b5f819050919050565b61023a83610207565b61024e61024682610228565b8484546101a4565b825550505050565b5f90565b610262610256565b61026d818484610231565b505050565b5b81811015610290576102855f8261025a565b600181019050610273565b5050565b601f8211156102d5576102a681610177565b6102af84610189565b810160208510156102be578190505b6102d26102ca85610189565b830182610272565b50505b505050565b5f82821c905092915050565b5f6102f55f19846008026102da565b1980831691505092915050565b5f61030d83836102e6565b9150826002028217905092915050565b610326826100e3565b67ffffffffffffffff81111561033f5761033e6100ed565b5b6103498254610147565b610354828285610294565b5f60209050601f831160018114610385575f8415610373578287015190505b61037d8582610302565b8655506103e4565b601f19841661039386610177565b5f5b828110156103ba57848901518255600182019150602085019450602081019050610395565b868310156103d757848901516103d3601f8916826102e6565b8355505b6001600288020188555050505b505050505050565b611186806103f95f395ff3fe608060405234801561000f575f80fd5b50600436106100b2575f3560e01c806340c10f191161006f57806340c10f191461018e57806370a08231146101aa57806395d89b41146101da5780639dc29fac146101f8578063a9059cbb14610214578063dd62ed3e14610244576100b2565b806306fdde03146100b6578063095ea7b3146100d457806316f0115b1461010457806318160ddd1461012257806323b872dd14610140578063313ce56714610170575b5f80fd5b6100be610274565b6040516100cb9190610d2f565b60405180910390f35b6100ee60048036038101906100e99190610de0565b610304565b6040516100fb9190610e38565b60405180910390f35b61010c610326565b6040516101199190610e60565b60405180910390f35b61012a61034b565b6040516101379190610e88565b60405180910390f35b61015a60048036038101906101559190610ea1565b610354565b6040516101679190610e38565b60405180910390f35b610178610382565b6040516101859190610f0c565b60405180910390f35b6101a860048036038101906101a39190610de0565b61038a565b005b6101c460048036038101906101bf9190610f25565b610427565b6040516101d19190610e88565b60405180910390f35b6101e261046c565b6040516101ef9190610d2f565b60405180910390f35b610212600480360381019061020d9190610de0565b6104fc565b005b61022e60048036038101906102299190610de0565b610599565b60405161023b9190610e38565b60405180910390f35b61025e60048036038101906102599190610f50565b6105bb565b60405161026b9190610e88565b60405180910390f35b60606003805461028390610fbb565b80601f01602080910402602001604051908101604052809291908181526020018280546102af90610fbb565b80156102fa5780601f106102d1576101008083540402835291602001916102fa565b820191905f5260205f20905b8154815290600101906020018083116102dd57829003601f168201915b5050505050905090565b5f8061030e61063d565b905061031b818585610644565b600191505092915050565b60055f9054906101000a900473ffffffffffffffffffffffffffffffffffffffff1681565b5f600254905090565b5f8061035e61063d565b905061036b858285610656565b6103768585856106e9565b60019150509392505050565b5f6012905090565b60055f9054906101000a900473ffffffffffffffffffffffffffffffffffffffff1673ffffffffffffffffffffffffffffffffffffffff163373ffffffffffffffffffffffffffffffffffffffff1614610419576040517f08c379a000000000000000000000000000000000000000000000000000000000815260040161041090611035565b60405180910390fd5b61042382826107d9565b5050565b5f805f8373ffffffffffffffffffffffffffffffffffffffff1673ffffffffffffffffffffffffffffffffffffffff1681526020019081526020015f20549050919050565b60606004805461047b90610fbb565b80601f01602080910402602001604051908101604052809291908181526020018280546104a790610fbb565b80156104f25780601f106104c9576101008083540402835291602001916104f2565b820191905f5260205f20905b8154815290600101906020018083116104d557829003601f168201915b5050505050905090565b60055f9054906101000a900473ffffffffffffffffffffffffffffffffffffffff1673ffffffffffffffffffffffffffffffffffffffff163373ffffffffffffffffffffffffffffffffffffffff161461058b576040517f08c379a00000000000000000000000000000000000000000000000000000000081526004016105829061109d565b60405180910390fd5b6105958282610858565b5050565b5f806105a361063d565b90506105b08185856106e9565b600191505092915050565b5f60015f8473ffffffffffffffffffffffffffffffffffffffff1673ffffffffffffffffffffffffffffffffffffffff1681526020019081526020015f205f8373ffffffffffffffffffffffffffffffffffffffff1673ffffffffffffffffffffffffffffffffffffffff1681526020019081526020015f2054905092915050565b5f33905090565b61065183838360016108d7565b505050565b5f61066184846105bb565b90507fffffffffffffffffffffffffffffffffffffffffffffffffffffffffffffffff8110156106e357818110156106d4578281836040517ffb8f41b20000000000000000000000000000000000000000000000000000000081526004016106cb939291906110bb565b60405180910390fd5b6106e284848484035f6108d7565b5b50505050565b5f73ffffffffffffffffffffffffffffffffffffffff168373ffffffffffffffffffffffffffffffffffffffff1603610759575f6040517f96c6fd1e0000000000000000000000000000000000000000000000000000000081526004016107509190610e60565b60405180910390fd5b5f73ffffffffffffffffffffffffffffffffffffffff168273ffffffffffffffffffffffffffffffffffffffff16036107c9575f6040517fec442f050000000000000000000000000000000000000000000000000000000081526004016107c09190610e60565b60405180910390fd5b6107d4838383610aa6565b505050565b5f73ffffffffffffffffffffffffffffffffffffffff168273ffffffffffffffffffffffffffffffffffffffff1603610849575f6040517fec442f050000000000000000000000000000000000000000000000000000000081526004016108409190610e60565b60405180910390fd5b6108545f8383610aa6565b5050565b5f73ffffffffffffffffffffffffffffffffffffffff168273ffffffffffffffffffffffffffffffffffffffff16036108c8575f6040517f96c6fd1e0000000000000000000000000000000000000000000000000000000081526004016108bf9190610e60565b60405180910390fd5b6108d3825f83610aa6565b5050565b5f73ffffffffffffffffffffffffffffffffffffffff168473ffffffffffffffffffffffffffffffffffffffff1603610947575f6040517fe602df0500000000000000000000000000000000000000000000000000000000815260040161093e9190610e60565b60405180910390fd5b5f73ffffffffffffffffffffffffffffffffffffffff168373ffffffffffffffffffffffffffffffffffffffff16036109b7575f6040517f94280d620000000000000000000000000000000000000000000000000000000081526004016109ae9190610e60565b60405180910390fd5b8160015f8673ffffffffffffffffffffffffffffffffffffffff1673ffffffffffffffffffffffffffffffffffffffff1681526020019081526020015f205f8573ffffffffffffffffffffffffffffffffffffffff1673ffffffffffffffffffffffffffffffffffffffff1681526020019081526020015f20819055508015610aa0578273ffffffffffffffffffffffffffffffffffffffff168473ffffffffffffffffffffffffffffffffffffffff167f8c5be1e5ebec7d5bd14f71427d1e84f3dd0314c0f7b2291e5b200ac8c7c3b92584604051610a979190610e88565b60405180910390a35b50505050565b5f73ffffffffffffffffffffffffffffffffffffffff168373ffffffffffffffffffffffffffffffffffffffff1603610af6578060025f828254610aea919061111d565b92505081905550610bc4565b5f805f8573ffffffffffffffffffffffffffffffffffffffff1673ffffffffffffffffffffffffffffffffffffffff1681526020019081526020015f2054905081811015610b7f578381836040517fe450d38c000000000000000000000000000000000000000000000000000000008152600401610b76939291906110bb565b60405180910390fd5b8181035f808673ffffffffffffffffffffffffffffffffffffffff1673ffffffffffffffffffffffffffffffffffffffff1681526020019081526020015f2081905550505b5f73ffffffffffffffffffffffffffffffffffffffff168273ffffffffffffffffffffffffffffffffffffffff1603610c0b578060025f8282540392505081905550610c55565b805f808473ffffffffffffffffffffffffffffffffffffffff1673ffffffffffffffffffffffffffffffffffffffff1681526020019081526020015f205f82825401925050819055505b8173ffffffffffffffffffffffffffffffffffffffff168373ffffffffffffffffffffffffffffffffffffffff167fddf252ad1be2c89b69c2b068fc378daa952ba7f163c4a11628f55a4df523b3ef83604051610cb29190610e88565b60405180910390a3505050565b5f81519050919050565b5f82825260208201905092915050565b8281835e5f83830152505050565b5f601f19601f8301169050919050565b5f610d0182610cbf565b610d0b8185610cc9565b9350610d1b818560208601610cd9565b610d2481610ce7565b840191505092915050565b5f6020820190508181035f830152610d478184610cf7565b905092915050565b5f80fd5b5f73ffffffffffffffffffffffffffffffffffffffff82169050919050565b5f610d7c82610d53565b9050919050565b610d8c81610d72565b8114610d96575f80fd5b50565b5f81359050610da781610d83565b92915050565b5f819050919050565b610dbf81610dad565b8114610dc9575f80fd5b50565b5f81359050610dda81610db6565b92915050565b5f8060408385031215610df657610df5610d4f565b5b5f610e0385828601610d99565b9250506020610e1485828601610dcc565b9150509250929050565b5f8115159050919050565b610e3281610e1e565b82525050565b5f602082019050610e4b5f830184610e29565b92915050565b610e5a81610d72565b82525050565b5f602082019050610e735f830184610e51565b92915050565b610e8281610dad565b82525050565b5f602082019050610e9b5f830184610e79565b92915050565b5f805f60608486031215610eb857610eb7610d4f565b5b5f610ec586828701610d99565b9350506020610ed686828701610d99565b9250506040610ee786828701610dcc565b9150509250925092565b5f60ff82169050919050565b610f0681610ef1565b82525050565b5f602082019050610f1f5f830184610efd565b92915050565b5f60208284031215610f3a57610f39610d4f565b5b5f610f4784828501610d99565b91505092915050565b5f8060408385031215610f6657610f65610d4f565b5b5f610f7385828601610d99565b9250506020610f8485828601610d99565b9150509250929050565b7f4e487b71000000000000000000000000000000000000000000000000000000005f52602260045260245ffd5b5f6002820490506001821680610fd257607f821691505b602082108103610fe557610fe4610f8e565b5b50919050565b7f4f6e6c7920706f6f6c2063616e206d696e7400000000000000000000000000005f82015250565b5f61101f601283610cc9565b915061102a82610feb565b602082019050919050565b5f6020820190508181035f83015261104c81611013565b9050919050565b7f4f6e6c7920706f6f6c2063616e206275726e00000000000000000000000000005f82015250565b5f611087601283610cc9565b915061109282611053565b602082019050919050565b5f6020820190508181035f8301526110b48161107b565b9050919050565b5f6060820190506110ce5f830186610e51565b6110db6020830185610e79565b6110e86040830184610e79565b949350505050565b7f4e487b71000000000000000000000000000000000000000000000000000000005f52601160045260245ffd5b5f61112782610dad565b915061113283610dad565b925082820190508082111561114a576111496110f0565b5b9291505056fea26469706673582212208cad28cb0abe0bb55ab1656d6369bf05ceeb13f03f75127a2b68560cb49227b364736f6c634300081a0033",
			"opcodes": "PUSH1 0x80 PUSH1 0x40 MSTORE PUSH1 0x3 PUSH1 0x6 SSTORE CALLVALUE DUP1 ISZERO PUSH2 0x14 JUMPI PUSH0 DUP1 REVERT JUMPDEST POP PUSH1 0x40 MLOAD PUSH2 0x3CD7 CODESIZE SUB DUP1 PUSH2 0x3CD7 DUP4 CODECOPY DUP2 DUP2 ADD PUSH1 0x40 MSTORE DUP2 ADD SWAP1 PUSH2 0x36 SWAP2 SWAP1 PUSH2 0x1CC JUMP JUMPDEST DUP2 PUSH0 DUP1 PUSH2 0x100 EXP DUP2 SLOAD DUP2 PUSH20 0xFFFFFFFFFFFFFFFFFFFFFFFFFFFFFFFFFFFFFFFF MUL NOT AND SWAP1 DUP4 PUSH20 0xFFFFFFFFFFFFFFFFFFFFFFFFFFFFFFFFFFFFFFFF AND MUL OR SWAP1 SSTORE POP DUP1 PUSH1 0x1 PUSH0 PUSH2 0x100 EXP DUP2 SLOAD DUP2 PUSH20 0xFFFFFFFFFFFFFFFFFFFFFFFFFFFFFFFFFFFFFFFF MUL NOT AND SWAP1 DUP4 PUSH20 0xFFFFFFFFFFFFFFFFFFFFFFFFFFFFFFFFFFFFFFFF AND MUL OR SWAP1 SSTORE POP PUSH1 0x40 MLOAD PUSH2 0xC1 SWAP1 PUSH2 0x161 JUMP JUMPDEST PUSH1 0x40 MLOAD DUP1 SWAP2 SUB SWAP1 PUSH0 CREATE DUP1 ISZERO DUP1 ISZERO PUSH2 0xDA JUMPI RETURNDATASIZE PUSH0 DUP1 RETURNDATACOPY RETURNDATASIZE PUSH0 REVERT JUMPDEST POP PUSH1 0x2 PUSH0 PUSH2 0x100 EXP DUP2 SLOAD DUP2 PUSH20 0xFFFFFFFFFFFFFFFFFFFFFFFFFFFFFFFFFFFFFFFF MUL NOT AND SWAP1 DUP4 PUSH20 0xFFFFFFFFFFFFFFFFFFFFFFFFFFFFFFFFFFFFFFFF AND MUL OR SWAP1 SSTORE POP CALLER PUSH1 0x7 PUSH0 PUSH2 0x100 EXP DUP2 SLOAD DUP2 PUSH20 0xFFFFFFFFFFFFFFFFFFFFFFFFFFFFFFFFFFFFFFFF MUL NOT AND SWAP1 DUP4 PUSH20 0xFFFFFFFFFFFFFFFFFFFFFFFFFFFFFFFFFFFFFFFF AND MUL OR SWAP1 SSTORE POP POP POP PUSH2 0x20A JUMP JUMPDEST PUSH2 0x157F DUP1 PUSH2 0x2758 DUP4 CODECOPY ADD SWAP1 JUMP JUMPDEST PUSH0 DUP1 REVERT JUMPDEST PUSH0 PUSH20 0xFFFFFFFFFFFFFFFFFFFFFFFFFFFFFFFFFFFFFFFF DUP3 AND SWAP1 POP SWAP2 SWAP1 POP JUMP JUMPDEST PUSH0 PUSH2 0x19B DUP3 PUSH2 0x172 JUMP JUMPDEST SWAP1 POP SWAP2 SWAP1 POP JUMP JUMPDEST PUSH2 0x1AB DUP2 PUSH2 0x191 JUMP JUMPDEST DUP2 EQ PUSH2 0x1B5 JUMPI PUSH0 DUP1 REVERT JUMPDEST POP JUMP JUMPDEST PUSH0 DUP2 MLOAD SWAP1 POP PUSH2 0x1C6 DUP2 PUSH2 0x1A2 JUMP JUMPDEST SWAP3 SWAP2 POP POP JUMP JUMPDEST PUSH0 DUP1 PUSH1 0x40 DUP4 DUP6 SUB SLT ISZERO PUSH2 0x1E2 JUMPI PUSH2 0x1E1 PUSH2 0x16E JUMP JUMPDEST JUMPDEST PUSH0 PUSH2 0x1EF DUP6 DUP3 DUP7 ADD PUSH2 0x1B8 JUMP JUMPDEST SWAP3 POP POP PUSH1 0x20 PUSH2 0x200 DUP6 DUP3 DUP7 ADD PUSH2 0x1B8 JUMP JUMPDEST SWAP2 POP POP SWAP3 POP SWAP3 SWAP1 POP JUMP JUMPDEST PUSH2 0x2541 DUP1 PUSH2 0x217 PUSH0 CODECOPY PUSH0 RETURN INVALID PUSH1 0x80 PUSH1 0x40 MSTORE CALLVALUE DUP1 ISZERO PUSH2 0xF JUMPI PUSH0 DUP1 REVERT JUMPDEST POP PUSH1 0x4 CALLDATASIZE LT PUSH2 0x135 JUMPI PUSH0 CALLDATALOAD PUSH1 0xE0 SHR DUP1 PUSH4 0x98D5FDCA GT PUSH2 0xB6 JUMPI DUP1 PUSH4 0xBAE38D58 GT PUSH2 0x7A JUMPI DUP1 PUSH4 0xBAE38D58 EQ PUSH2 0x352 JUMPI DUP1 PUSH4 0xBE8E89FC EQ PUSH2 0x382 JUMPI DUP1 PUSH4 0xC4604B33 EQ PUSH2 0x3A0 JUMPI DUP1 PUSH4 0xC9E57AA6 EQ PUSH2 0x3D0 JUMPI DUP1 PUSH4 0xDC5FA6C5 EQ PUSH2 0x3EE JUMPI DUP1 PUSH4 0xF0B456E9 EQ PUSH2 0x40C JUMPI PUSH2 0x135 JUMP JUMPDEST DUP1 PUSH4 0x98D5FDCA EQ PUSH2 0x2AE JUMPI DUP1 PUSH4 0x9C8F9F23 EQ PUSH2 0x2CC JUMPI DUP1 PUSH4 0x9CD441DA EQ PUSH2 0x2E8 JUMPI DUP1 PUSH4 0xA001ECDD EQ PUSH2 0x318 JUMPI DUP1 PUSH4 0xB9C8C4BA EQ PUSH2 0x336 JUMPI PUSH2 0x135 JUMP JUMPDEST DUP1 PUSH4 0x5F64B55B GT PUSH2 0xFD JUMPI DUP1 PUSH4 0x5F64B55B EQ PUSH2 0x1F4 JUMPI DUP1 PUSH4 0x5FCBD285 EQ PUSH2 0x212 JUMPI DUP1 PUSH4 0x670053C8 EQ PUSH2 0x230 JUMPI DUP1 PUSH4 0x7A88266A EQ PUSH2 0x260 JUMPI DUP1 PUSH4 0x8DA5CB5B EQ PUSH2 0x290 JUMPI PUSH2 0x135 JUMP JUMPDEST DUP1 PUSH4 0x6EBCC6D EQ PUSH2 0x139 JUMPI DUP1 PUSH4 0x902F1AC EQ PUSH2 0x169 JUMPI DUP1 PUSH4 0xFC63D10 EQ PUSH2 0x188 JUMPI DUP1 PUSH4 0x19E36F3B EQ PUSH2 0x1A6 JUMPI DUP1 PUSH4 0x4242EC52 EQ PUSH2 0x1C4 JUMPI JUMPDEST PUSH0 DUP1 REVERT JUMPDEST PUSH2 0x153 PUSH1 0x4 DUP1 CALLDATASIZE SUB DUP2 ADD SWAP1 PUSH2 0x14E SWAP2 SWAP1 PUSH2 0x19FC JUMP JUMPDEST PUSH2 0x43C JUMP JUMPDEST PUSH1 0x40 MLOAD PUSH2 0x160 SWAP2 SWAP1 PUSH2 0x1A3F JUMP JUMPDEST PUSH1 0x40 MLOAD DUP1 SWAP2 SUB SWAP1 RETURN JUMPDEST PUSH2 0x171 PUSH2 0x4DD JUMP JUMPDEST PUSH1 0x40 MLOAD PUSH2 0x17F SWAP3 SWAP2 SWAP1 PUSH2 0x1A58 JUMP JUMPDEST PUSH1 0x40 MLOAD DUP1 SWAP2 SUB SWAP1 RETURN JUMPDEST PUSH2 0x190 PUSH2 0x4ED JUMP JUMPDEST PUSH1 0x40 MLOAD PUSH2 0x19D SWAP2 SWAP1 PUSH2 0x1ADA JUMP JUMPDEST PUSH1 0x40 MLOAD DUP1 SWAP2 SUB SWAP1 RETURN JUMPDEST PUSH2 0x1AE PUSH2 0x510 JUMP JUMPDEST PUSH1 0x40 MLOAD PUSH2 0x1BB SWAP2 SWAP1 PUSH2 0x1A3F JUMP JUMPDEST PUSH1 0x40 MLOAD DUP1 SWAP2 SUB SWAP1 RETURN JUMPDEST PUSH2 0x1DE PUSH1 0x4 DUP1 CALLDATASIZE SUB DUP2 ADD SWAP1 PUSH2 0x1D9 SWAP2 SWAP1 PUSH2 0x1B1D JUMP JUMPDEST PUSH2 0x516 JUMP JUMPDEST PUSH1 0x40 MLOAD PUSH2 0x1EB SWAP2 SWAP1 PUSH2 0x1A3F JUMP JUMPDEST PUSH1 0x40 MLOAD DUP1 SWAP2 SUB SWAP1 RETURN JUMPDEST PUSH2 0x1FC PUSH2 0x82A JUMP JUMPDEST PUSH1 0x40 MLOAD PUSH2 0x209 SWAP2 SWAP1 PUSH2 0x1ADA JUMP JUMPDEST PUSH1 0x40 MLOAD DUP1 SWAP2 SUB SWAP1 RETURN JUMPDEST PUSH2 0x21A PUSH2 0x84F JUMP JUMPDEST PUSH1 0x40 MLOAD PUSH2 0x227 SWAP2 SWAP1 PUSH2 0x1B7B JUMP JUMPDEST PUSH1 0x40 MLOAD DUP1 SWAP2 SUB SWAP1 RETURN JUMPDEST PUSH2 0x24A PUSH1 0x4 DUP1 CALLDATASIZE SUB DUP2 ADD SWAP1 PUSH2 0x245 SWAP2 SWAP1 PUSH2 0x1B94 JUMP JUMPDEST PUSH2 0x874 JUMP JUMPDEST PUSH1 0x40 MLOAD PUSH2 0x257 SWAP2 SWAP1 PUSH2 0x1A3F JUMP JUMPDEST PUSH1 0x40 MLOAD DUP1 SWAP2 SUB SWAP1 RETURN JUMPDEST PUSH2 0x27A PUSH1 0x4 DUP1 CALLDATASIZE SUB DUP2 ADD SWAP1 PUSH2 0x275 SWAP2 SWAP1 PUSH2 0x1B94 JUMP JUMPDEST PUSH2 0x93C JUMP JUMPDEST PUSH1 0x40 MLOAD PUSH2 0x287 SWAP2 SWAP1 PUSH2 0x1A3F JUMP JUMPDEST PUSH1 0x40 MLOAD DUP1 SWAP2 SUB SWAP1 RETURN JUMPDEST PUSH2 0x298 PUSH2 0xA10 JUMP JUMPDEST PUSH1 0x40 MLOAD PUSH2 0x2A5 SWAP2 SWAP1 PUSH2 0x1BCE JUMP JUMPDEST PUSH1 0x40 MLOAD DUP1 SWAP2 SUB SWAP1 RETURN JUMPDEST PUSH2 0x2B6 PUSH2 0xA35 JUMP JUMPDEST PUSH1 0x40 MLOAD PUSH2 0x2C3 SWAP2 SWAP1 PUSH2 0x1A3F JUMP JUMPDEST PUSH1 0x40 MLOAD DUP1 SWAP2 SUB SWAP1 RETURN JUMPDEST PUSH2 0x2E6 PUSH1 0x4 DUP1 CALLDATASIZE SUB DUP2 ADD SWAP1 PUSH2 0x2E1 SWAP2 SWAP1 PUSH2 0x1B94 JUMP JUMPDEST PUSH2 0xAA2 JUMP JUMPDEST STOP JUMPDEST PUSH2 0x302 PUSH1 0x4 DUP1 CALLDATASIZE SUB DUP2 ADD SWAP1 PUSH2 0x2FD SWAP2 SWAP1 PUSH2 0x1B1D JUMP JUMPDEST PUSH2 0xF48 JUMP JUMPDEST PUSH1 0x40 MLOAD PUSH2 0x30F SWAP2 SWAP1 PUSH2 0x1A3F JUMP JUMPDEST PUSH1 0x40 MLOAD DUP1 SWAP2 SUB SWAP1 RETURN JUMPDEST PUSH2 0x320 PUSH2 0x134A JUMP JUMPDEST PUSH1 0x40 MLOAD PUSH2 0x32D SWAP2 SWAP1 PUSH2 0x1A3F JUMP JUMPDEST PUSH1 0x40 MLOAD DUP1 SWAP2 SUB SWAP1 RETURN JUMPDEST PUSH2 0x350 PUSH1 0x4 DUP1 CALLDATASIZE SUB DUP2 ADD SWAP1 PUSH2 0x34B SWAP2 SWAP1 PUSH2 0x1B94 JUMP JUMPDEST PUSH2 0x1350 JUMP JUMPDEST STOP JUMPDEST PUSH2 0x36C PUSH1 0x4 DUP1 CALLDATASIZE SUB DUP2 ADD SWAP1 PUSH2 0x367 SWAP2 SWAP1 PUSH2 0x1B94 JUMP JUMPDEST PUSH2 0x142B JUMP JUMPDEST PUSH1 0x40 MLOAD PUSH2 0x379 SWAP2 SWAP1 PUSH2 0x1A3F JUMP JUMPDEST PUSH1 0x40 MLOAD DUP1 SWAP2 SUB SWAP1 RETURN JUMPDEST PUSH2 0x38A PUSH2 0x14FF JUMP JUMPDEST PUSH1 0x40 MLOAD PUSH2 0x397 SWAP2 SWAP1 PUSH2 0x1A3F JUMP JUMPDEST PUSH1 0x40 MLOAD DUP1 SWAP2 SUB SWAP1 RETURN JUMPDEST PUSH2 0x3BA PUSH1 0x4 DUP1 CALLDATASIZE SUB DUP2 ADD SWAP1 PUSH2 0x3B5 SWAP2 SWAP1 PUSH2 0x1B94 JUMP JUMPDEST PUSH2 0x1505 JUMP JUMPDEST PUSH1 0x40 MLOAD PUSH2 0x3C7 SWAP2 SWAP1 PUSH2 0x1A3F JUMP JUMPDEST PUSH1 0x40 MLOAD DUP1 SWAP2 SUB SWAP1 RETURN JUMPDEST PUSH2 0x3D8 PUSH2 0x15CD JUMP JUMPDEST PUSH1 0x40 MLOAD PUSH2 0x3E5 SWAP2 SWAP1 PUSH2 0x1BCE JUMP JUMPDEST PUSH1 0x40 MLOAD DUP1 SWAP2 SUB SWAP1 RETURN JUMPDEST PUSH2 0x3F6 PUSH2 0x15F5 JUMP JUMPDEST PUSH1 0x40 MLOAD PUSH2 0x403 SWAP2 SWAP1 PUSH2 0x1A3F JUMP JUMPDEST PUSH1 0x40 MLOAD DUP1 SWAP2 SUB SWAP1 RETURN JUMPDEST PUSH2 0x426 PUSH1 0x4 DUP1 CALLDATASIZE SUB DUP2 ADD SWAP1 PUSH2 0x421 SWAP2 SWAP1 PUSH2 0x1B1D JUMP JUMPDEST PUSH2 0x15FB JUMP JUMPDEST PUSH1 0x40 MLOAD PUSH2 0x433 SWAP2 SWAP1 PUSH2 0x1A3F JUMP JUMPDEST PUSH1 0x40 MLOAD DUP1 SWAP2 SUB SWAP1 RETURN JUMPDEST PUSH0 PUSH1 0x2 PUSH0 SWAP1 SLOAD SWAP1 PUSH2 0x100 EXP SWAP1 DIV PUSH20 0xFFFFFFFFFFFFFFFFFFFFFFFFFFFFFFFFFFFFFFFF AND PUSH20 0xFFFFFFFFFFFFFFFFFFFFFFFFFFFFFFFFFFFFFFFF AND PUSH4 0x70A08231 DUP4 PUSH1 0x40 MLOAD DUP3 PUSH4 0xFFFFFFFF AND PUSH1 0xE0 SHL DUP2 MSTORE PUSH1 0x4 ADD PUSH2 0x497 SWAP2 SWAP1 PUSH2 0x1BCE JUMP JUMPDEST PUSH1 0x20 PUSH1 0x40 MLOAD DUP1 DUP4 SUB DUP2 DUP7 GAS STATICCALL ISZERO DUP1 ISZERO PUSH2 0x4B2 JUMPI RETURNDATASIZE PUSH0 DUP1 RETURNDATACOPY RETURNDATASIZE PUSH0 REVERT JUMPDEST POP POP POP POP PUSH1 0x40 MLOAD RETURNDATASIZE PUSH1 0x1F NOT PUSH1 0x1F DUP3 ADD AND DUP3 ADD DUP1 PUSH1 0x40 MSTORE POP DUP2 ADD SWAP1 PUSH2 0x4D6 SWAP2 SWAP1 PUSH2 0x1BFB JUMP JUMPDEST SWAP1 POP SWAP2 SWAP1 POP JUMP JUMPDEST PUSH0 DUP1 PUSH1 0x3 SLOAD PUSH1 0x4 SLOAD SWAP2 POP SWAP2 POP SWAP1 SWAP2 JUMP JUMPDEST PUSH0 DUP1 SLOAD SWAP1 PUSH2 0x100 EXP SWAP1 DIV PUSH20 0xFFFFFFFFFFFFFFFFFFFFFFFFFFFFFFFFFFFFFFFF AND DUP2 JUMP JUMPDEST PUSH1 0x4 SLOAD DUP2 JUMP JUMPDEST PUSH0 DUP1 DUP4 GT PUSH2 0x559 JUMPI PUSH1 0x40 MLOAD PUSH32 0x8C379A000000000000000000000000000000000000000000000000000000000 DUP2 MSTORE PUSH1 0x4 ADD PUSH2 0x550 SWAP1 PUSH2 0x1C80 JUMP JUMPDEST PUSH1 0x40 MLOAD DUP1 SWAP2 SUB SWAP1 REVERT JUMPDEST PUSH0 PUSH1 0x5 SLOAD GT PUSH2 0x59D JUMPI PUSH1 0x40 MLOAD PUSH32 0x8C379A000000000000000000000000000000000000000000000000000000000 DUP2 MSTORE PUSH1 0x4 ADD PUSH2 0x594 SWAP1 PUSH2 0x1CE8 JUMP JUMPDEST PUSH1 0x40 MLOAD DUP1 SWAP2 SUB SWAP1 REVERT JUMPDEST PUSH0 PUSH1 0x64 PUSH1 0x6 SLOAD DUP6 PUSH2 0x5AE SWAP2 SWAP1 PUSH2 0x1D33 JUMP JUMPDEST PUSH2 0x5B8 SWAP2 SWAP1 PUSH2 0x1DA1 JUMP JUMPDEST SWAP1 POP PUSH0 DUP2 DUP6 PUSH2 0x5C7 SWAP2 SWAP1 PUSH2 0x1DD1 JUMP JUMPDEST SWAP1 POP PUSH2 0x5D2 DUP2 PUSH2 0x1505 JUMP JUMPDEST DUP5 GT PUSH2 0x613 JUMPI PUSH1 0x40 MLOAD PUSH32 0x8C379A000000000000000000000000000000000000000000000000000000000 DUP2 MSTORE PUSH1 0x4 ADD PUSH2 0x60A SWAP1 PUSH2 0x1E4E JUMP JUMPDEST PUSH1 0x40 MLOAD DUP1 SWAP2 SUB SWAP1 REVERT JUMPDEST PUSH0 DUP2 PUSH1 0x4 SLOAD PUSH2 0x622 SWAP2 SWAP1 PUSH2 0x1E6C JUMP JUMPDEST SWAP1 POP PUSH0 PUSH1 0x4 SLOAD PUSH1 0x3 SLOAD PUSH2 0x635 SWAP2 SWAP1 PUSH2 0x1D33 JUMP JUMPDEST SWAP1 POP PUSH0 DUP3 DUP3 PUSH2 0x644 SWAP2 SWAP1 PUSH2 0x1DA1 JUMP JUMPDEST SWAP1 POP PUSH0 DUP2 PUSH1 0x3 SLOAD PUSH2 0x655 SWAP2 SWAP1 PUSH2 0x1DD1 JUMP JUMPDEST SWAP1 POP PUSH1 0x1 PUSH0 SWAP1 SLOAD SWAP1 PUSH2 0x100 EXP SWAP1 DIV PUSH20 0xFFFFFFFFFFFFFFFFFFFFFFFFFFFFFFFFFFFFFFFF AND PUSH20 0xFFFFFFFFFFFFFFFFFFFFFFFFFFFFFFFFFFFFFFFF AND PUSH4 0x23B872DD CALLER ADDRESS DUP13 PUSH1 0x40 MLOAD DUP5 PUSH4 0xFFFFFFFF AND PUSH1 0xE0 SHL DUP2 MSTORE PUSH1 0x4 ADD PUSH2 0x6B5 SWAP4 SWAP3 SWAP2 SWAP1 PUSH2 0x1E9F JUMP JUMPDEST PUSH1 0x20 PUSH1 0x40 MLOAD DUP1 DUP4 SUB DUP2 PUSH0 DUP8 GAS CALL ISZERO DUP1 ISZERO PUSH2 0x6D1 JUMPI RETURNDATASIZE PUSH0 DUP1 RETURNDATACOPY RETURNDATASIZE PUSH0 REVERT JUMPDEST POP POP POP POP PUSH1 0x40 MLOAD RETURNDATASIZE PUSH1 0x1F NOT PUSH1 0x1F DUP3 ADD AND DUP3 ADD DUP1 PUSH1 0x40 MSTORE POP DUP2 ADD SWAP1 PUSH2 0x6F5 SWAP2 SWAP1 PUSH2 0x1F09 JUMP JUMPDEST PUSH2 0x734 JUMPI PUSH1 0x40 MLOAD PUSH32 0x8C379A000000000000000000000000000000000000000000000000000000000 DUP2 MSTORE PUSH1 0x4 ADD PUSH2 0x72B SWAP1 PUSH2 0x1F7E JUMP JUMPDEST PUSH1 0x40 MLOAD DUP1 SWAP2 SUB SWAP1 REVERT JUMPDEST PUSH0 DUP1 SLOAD SWAP1 PUSH2 0x100 EXP SWAP1 DIV PUSH20 0xFFFFFFFFFFFFFFFFFFFFFFFFFFFFFFFFFFFFFFFF AND PUSH20 0xFFFFFFFFFFFFFFFFFFFFFFFFFFFFFFFFFFFFFFFF AND PUSH4 0xA9059CBB CALLER DUP4 PUSH1 0x40 MLOAD DUP4 PUSH4 0xFFFFFFFF AND PUSH1 0xE0 SHL DUP2 MSTORE PUSH1 0x4 ADD PUSH2 0x78E SWAP3 SWAP2 SWAP1 PUSH2 0x1F9C JUMP JUMPDEST PUSH1 0x20 PUSH1 0x40 MLOAD DUP1 DUP4 SUB DUP2 PUSH0 DUP8 GAS CALL ISZERO DUP1 ISZERO PUSH2 0x7AA JUMPI RETURNDATASIZE PUSH0 DUP1 RETURNDATACOPY RETURNDATASIZE PUSH0 REVERT JUMPDEST POP POP POP POP PUSH1 0x40 MLOAD RETURNDATASIZE PUSH1 0x1F NOT PUSH1 0x1F DUP3 ADD AND DUP3 ADD DUP1 PUSH1 0x40 MSTORE POP DUP2 ADD SWAP1 PUSH2 0x7CE SWAP2 SWAP1 PUSH2 0x1F09 JUMP JUMPDEST PUSH2 0x80D JUMPI PUSH1 0x40 MLOAD PUSH32 0x8C379A000000000000000000000000000000000000000000000000000000000 DUP2 MSTORE PUSH1 0x4 ADD PUSH2 0x804 SWAP1 PUSH2 0x200D JUMP JUMPDEST PUSH1 0x40 MLOAD DUP1 SWAP2 SUB SWAP1 REVERT JUMPDEST DUP2 PUSH1 0x3 DUP2 SWAP1 SSTORE POP DUP4 PUSH1 0x4 DUP2 SWAP1 SSTORE POP DUP1 SWAP7 POP POP POP POP POP POP POP SWAP3 SWAP2 POP POP JUMP JUMPDEST PUSH1 0x1 PUSH0 SWAP1 SLOAD SWAP1 PUSH2 0x100 EXP SWAP1 DIV PUSH20 0xFFFFFFFFFFFFFFFFFFFFFFFFFFFFFFFFFFFFFFFF AND DUP2 JUMP JUMPDEST PUSH1 0x2 PUSH0 SWAP1 SLOAD SWAP1 PUSH2 0x100 EXP SWAP1 DIV PUSH20 0xFFFFFFFFFFFFFFFFFFFFFFFFFFFFFFFFFFFFFFFF AND DUP2 JUMP JUMPDEST PUSH0 DUP1 DUP3 GT PUSH2 0x8B7 JUMPI PUSH1 0x40 MLOAD PUSH32 0x8C379A000000000000000000000000000000000000000000000000000000000 DUP2 MSTORE PUSH1 0x4 ADD PUSH2 0x8AE SWAP1 PUSH2 0x2075 JUMP JUMPDEST PUSH1 0x40 MLOAD DUP1 SWAP2 SUB SWAP1 REVERT JUMPDEST PUSH0 PUSH2 0x8C1 DUP4 PUSH2 0x93C JUMP JUMPDEST SWAP1 POP PUSH0 DUP4 PUSH1 0x3 SLOAD PUSH2 0x8D2 SWAP2 SWAP1 PUSH2 0x1E6C JUMP JUMPDEST SWAP1 POP PUSH0 PUSH1 0x4 SLOAD PUSH1 0x3 SLOAD PUSH2 0x8E5 SWAP2 SWAP1 PUSH2 0x1D33 JUMP JUMPDEST SWAP1 POP PUSH0 DUP3 DUP3 PUSH2 0x8F4 SWAP2 SWAP1 PUSH2 0x1DA1 JUMP JUMPDEST SWAP1 POP PUSH0 DUP2 PUSH1 0x4 SLOAD PUSH2 0x905 SWAP2 SWAP1 PUSH2 0x1DD1 JUMP JUMPDEST SWAP1 POP PUSH0 DUP6 PUSH1 0x64 DUP4 PUSH2 0x916 SWAP2 SWAP1 PUSH2 0x1D33 JUMP JUMPDEST PUSH2 0x920 SWAP2 SWAP1 PUSH2 0x1DA1 JUMP JUMPDEST PUSH1 0x64 PUSH2 0x92C SWAP2 SWAP1 PUSH2 0x1DD1 JUMP JUMPDEST SWAP1 POP DUP1 SWAP7 POP POP POP POP POP POP POP SWAP2 SWAP1 POP JUMP JUMPDEST PUSH0 DUP1 DUP3 GT PUSH2 0x97F JUMPI PUSH1 0x40 MLOAD PUSH32 0x8C379A000000000000000000000000000000000000000000000000000000000 DUP2 MSTORE PUSH1 0x4 ADD PUSH2 0x976 SWAP1 PUSH2 0x20DD JUMP JUMPDEST PUSH1 0x40 MLOAD DUP1 SWAP2 SUB SWAP1 REVERT JUMPDEST PUSH0 PUSH1 0x4 SLOAD GT PUSH2 0x9C3 JUMPI PUSH1 0x40 MLOAD PUSH32 0x8C379A000000000000000000000000000000000000000000000000000000000 DUP2 MSTORE PUSH1 0x4 ADD PUSH2 0x9BA SWAP1 PUSH2 0x2145 JUMP JUMPDEST PUSH1 0x40 MLOAD DUP1 SWAP2 SUB SWAP1 REVERT JUMPDEST PUSH0 PUSH1 0x4 SLOAD PUSH8 0xDE0B6B3A7640000 PUSH1 0x3 SLOAD PUSH2 0x9DD SWAP2 SWAP1 PUSH2 0x1D33 JUMP JUMPDEST PUSH2 0x9E7 SWAP2 SWAP1 PUSH2 0x1DA1 JUMP JUMPDEST SWAP1 POP DUP1 PUSH8 0xDE0B6B3A7640000 DUP5 PUSH2 0x9FE SWAP2 SWAP1 PUSH2 0x1D33 JUMP JUMPDEST PUSH2 0xA08 SWAP2 SWAP1 PUSH2 0x1DA1 JUMP JUMPDEST SWAP2 POP POP SWAP2 SWAP1 POP JUMP JUMPDEST PUSH1 0x7 PUSH0 SWAP1 SLOAD SWAP1 PUSH2 0x100 EXP SWAP1 DIV PUSH20 0xFFFFFFFFFFFFFFFFFFFFFFFFFFFFFFFFFFFFFFFF AND DUP2 JUMP JUMPDEST PUSH0 DUP1 PUSH1 0x4 SLOAD GT PUSH2 0xA7A JUMPI PUSH1 0x40 MLOAD PUSH32 0x8C379A000000000000000000000000000000000000000000000000000000000 DUP2 MSTORE PUSH1 0x4 ADD PUSH2 0xA71 SWAP1 PUSH2 0x21AD JUMP JUMPDEST PUSH1 0x40 MLOAD DUP1 SWAP2 SUB SWAP1 REVERT JUMPDEST PUSH1 0x4 SLOAD PUSH8 0xDE0B6B3A7640000 PUSH1 0x3 SLOAD PUSH2 0xA93 SWAP2 SWAP1 PUSH2 0x1D33 JUMP JUMPDEST PUSH2 0xA9D SWAP2 SWAP1 PUSH2 0x1DA1 JUMP JUMPDEST SWAP1 POP SWAP1 JUMP JUMPDEST PUSH0 DUP2 GT PUSH2 0xAE4 JUMPI PUSH1 0x40 MLOAD PUSH32 0x8C379A000000000000000000000000000000000000000000000000000000000 DUP2 MSTORE PUSH1 0x4 ADD PUSH2 0xADB SWAP1 PUSH2 0x2215 JUMP JUMPDEST PUSH1 0x40 MLOAD DUP1 SWAP2 SUB SWAP1 REVERT JUMPDEST DUP1 PUSH1 0x2 PUSH0 SWAP1 SLOAD SWAP1 PUSH2 0x100 EXP SWAP1 DIV PUSH20 0xFFFFFFFFFFFFFFFFFFFFFFFFFFFFFFFFFFFFFFFF AND PUSH20 0xFFFFFFFFFFFFFFFFFFFFFFFFFFFFFFFFFFFFFFFF AND PUSH4 0x70A08231 CALLER PUSH1 0x40 MLOAD DUP3 PUSH4 0xFFFFFFFF AND PUSH1 0xE0 SHL DUP2 MSTORE PUSH1 0x4 ADD PUSH2 0xB3F SWAP2 SWAP1 PUSH2 0x1BCE JUMP JUMPDEST PUSH1 0x20 PUSH1 0x40 MLOAD DUP1 DUP4 SUB DUP2 DUP7 GAS STATICCALL ISZERO DUP1 ISZERO PUSH2 0xB5A JUMPI RETURNDATASIZE PUSH0 DUP1 RETURNDATACOPY RETURNDATASIZE PUSH0 REVERT JUMPDEST POP POP POP POP PUSH1 0x40 MLOAD RETURNDATASIZE PUSH1 0x1F NOT PUSH1 0x1F DUP3 ADD AND DUP3 ADD DUP1 PUSH1 0x40 MSTORE POP DUP2 ADD SWAP1 PUSH2 0xB7E SWAP2 SWAP1 PUSH2 0x1BFB JUMP JUMPDEST LT ISZERO PUSH2 0xBBF JUMPI PUSH1 0x40 MLOAD PUSH32 0x8C379A000000000000000000000000000000000000000000000000000000000 DUP2 MSTORE PUSH1 0x4 ADD PUSH2 0xBB6 SWAP1 PUSH2 0x227D JUMP JUMPDEST PUSH1 0x40 MLOAD DUP1 SWAP2 SUB SWAP1 REVERT JUMPDEST PUSH0 PUSH1 0x2 PUSH0 SWAP1 SLOAD SWAP1 PUSH2 0x100 EXP SWAP1 DIV PUSH20 0xFFFFFFFFFFFFFFFFFFFFFFFFFFFFFFFFFFFFFFFF AND PUSH20 0xFFFFFFFFFFFFFFFFFFFFFFFFFFFFFFFFFFFFFFFF AND PUSH4 0x18160DDD PUSH1 0x40 MLOAD DUP2 PUSH4 0xFFFFFFFF AND PUSH1 0xE0 SHL DUP2 MSTORE PUSH1 0x4 ADD PUSH1 0x20 PUSH1 0x40 MLOAD DUP1 DUP4 SUB DUP2 DUP7 GAS STATICCALL ISZERO DUP1 ISZERO PUSH2 0xC2A JUMPI RETURNDATASIZE PUSH0 DUP1 RETURNDATACOPY RETURNDATASIZE PUSH0 REVERT JUMPDEST POP POP POP POP PUSH1 0x40 MLOAD RETURNDATASIZE PUSH1 0x1F NOT PUSH1 0x1F DUP3 ADD AND DUP3 ADD DUP1 PUSH1 0x40 MSTORE POP DUP2 ADD SWAP1 PUSH2 0xC4E SWAP2 SWAP1 PUSH2 0x1BFB JUMP JUMPDEST SWAP1 POP PUSH0 DUP2 PUSH1 0x3 SLOAD DUP5 PUSH2 0xC60 SWAP2 SWAP1 PUSH2 0x1D33 JUMP JUMPDEST PUSH2 0xC6A SWAP2 SWAP1 PUSH2 0x1DA1 JUMP JUMPDEST SWAP1 POP PUSH0 DUP3 PUSH1 0x4 SLOAD DUP6 PUSH2 0xC7C SWAP2 SWAP1 PUSH2 0x1D33 JUMP JUMPDEST PUSH2 0xC86 SWAP2 SWAP1 PUSH2 0x1DA1 JUMP JUMPDEST SWAP1 POP PUSH0 DUP3 GT DUP1 ISZERO PUSH2 0xC96 JUMPI POP PUSH0 DUP2 GT JUMPDEST PUSH2 0xCD5 JUMPI PUSH1 0x40 MLOAD PUSH32 0x8C379A000000000000000000000000000000000000000000000000000000000 DUP2 MSTORE PUSH1 0x4 ADD PUSH2 0xCCC SWAP1 PUSH2 0x22E5 JUMP JUMPDEST PUSH1 0x40 MLOAD DUP1 SWAP2 SUB SWAP1 REVERT JUMPDEST PUSH1 0x2 PUSH0 SWAP1 SLOAD SWAP1 PUSH2 0x100 EXP SWAP1 DIV PUSH20 0xFFFFFFFFFFFFFFFFFFFFFFFFFFFFFFFFFFFFFFFF AND PUSH20 0xFFFFFFFFFFFFFFFFFFFFFFFFFFFFFFFFFFFFFFFF AND PUSH4 0x9DC29FAC CALLER DUP7 PUSH1 0x40 MLOAD DUP4 PUSH4 0xFFFFFFFF AND PUSH1 0xE0 SHL DUP2 MSTORE PUSH1 0x4 ADD PUSH2 0xD31 SWAP3 SWAP2 SWAP1 PUSH2 0x1F9C JUMP JUMPDEST PUSH0 PUSH1 0x40 MLOAD DUP1 DUP4 SUB DUP2 PUSH0 DUP8 DUP1 EXTCODESIZE ISZERO DUP1 ISZERO PUSH2 0xD48 JUMPI PUSH0 DUP1 REVERT JUMPDEST POP GAS CALL ISZERO DUP1 ISZERO PUSH2 0xD5A JUMPI RETURNDATASIZE PUSH0 DUP1 RETURNDATACOPY RETURNDATASIZE PUSH0 REVERT JUMPDEST POP POP POP POP DUP2 PUSH1 0x3 PUSH0 DUP3 DUP3 SLOAD PUSH2 0xD6F SWAP2 SWAP1 PUSH2 0x1DD1 JUMP JUMPDEST SWAP3 POP POP DUP2 SWAP1 SSTORE POP DUP1 PUSH1 0x4 PUSH0 DUP3 DUP3 SLOAD PUSH2 0xD87 SWAP2 SWAP1 PUSH2 0x1DD1 JUMP JUMPDEST SWAP3 POP POP DUP2 SWAP1 SSTORE POP PUSH0 DUP1 SLOAD SWAP1 PUSH2 0x100 EXP SWAP1 DIV PUSH20 0xFFFFFFFFFFFFFFFFFFFFFFFFFFFFFFFFFFFFFFFF AND PUSH20 0xFFFFFFFFFFFFFFFFFFFFFFFFFFFFFFFFFFFFFFFF AND PUSH4 0xA9059CBB CALLER DUP5 PUSH1 0x40 MLOAD DUP4 PUSH4 0xFFFFFFFF AND PUSH1 0xE0 SHL DUP2 MSTORE PUSH1 0x4 ADD PUSH2 0xDE8 SWAP3 SWAP2 SWAP1 PUSH2 0x1F9C JUMP JUMPDEST PUSH1 0x20 PUSH1 0x40 MLOAD DUP1 DUP4 SUB DUP2 PUSH0 DUP8 GAS CALL ISZERO DUP1 ISZERO PUSH2 0xE04 JUMPI RETURNDATASIZE PUSH0 DUP1 RETURNDATACOPY RETURNDATASIZE PUSH0 REVERT JUMPDEST POP POP POP POP PUSH1 0x40 MLOAD RETURNDATASIZE PUSH1 0x1F NOT PUSH1 0x1F DUP3 ADD AND DUP3 ADD DUP1 PUSH1 0x40 MSTORE POP DUP2 ADD SWAP1 PUSH2 0xE28 SWAP2 SWAP1 PUSH2 0x1F09 JUMP JUMPDEST PUSH2 0xE67 JUMPI PUSH1 0x40 MLOAD PUSH32 0x8C379A000000000000000000000000000000000000000000000000000000000 DUP2 MSTORE PUSH1 0x4 ADD PUSH2 0xE5E SWAP1 PUSH2 0x200D JUMP JUMPDEST PUSH1 0x40 MLOAD DUP1 SWAP2 SUB SWAP1 REVERT JUMPDEST PUSH1 0x1 PUSH0 SWAP1 SLOAD SWAP1 PUSH2 0x100 EXP SWAP1 DIV PUSH20 0xFFFFFFFFFFFFFFFFFFFFFFFFFFFFFFFFFFFFFFFF AND PUSH20 0xFFFFFFFFFFFFFFFFFFFFFFFFFFFFFFFFFFFFFFFF AND PUSH4 0xA9059CBB CALLER DUP4 PUSH1 0x40 MLOAD DUP4 PUSH4 0xFFFFFFFF AND PUSH1 0xE0 SHL DUP2 MSTORE PUSH1 0x4 ADD PUSH2 0xEC3 SWAP3 SWAP2 SWAP1 PUSH2 0x1F9C JUMP JUMPDEST PUSH1 0x20 PUSH1 0x40 MLOAD DUP1 DUP4 SUB DUP2 PUSH0 DUP8 GAS CALL ISZERO DUP1 ISZERO PUSH2 0xEDF JUMPI RETURNDATASIZE PUSH0 DUP1 RETURNDATACOPY RETURNDATASIZE PUSH0 REVERT JUMPDEST POP POP POP POP PUSH1 0x40 MLOAD RETURNDATASIZE PUSH1 0x1F NOT PUSH1 0x1F DUP3 ADD AND DUP3 ADD DUP1 PUSH1 0x40 MSTORE POP DUP2 ADD SWAP1 PUSH2 0xF03 SWAP2 SWAP1 PUSH2 0x1F09 JUMP JUMPDEST PUSH2 0xF42 JUMPI PUSH1 0x40 MLOAD PUSH32 0x8C379A000000000000000000000000000000000000000000000000000000000 DUP2 MSTORE PUSH1 0x4 ADD PUSH2 0xF39 SWAP1 PUSH2 0x1F7E JUMP JUMPDEST PUSH1 0x40 MLOAD DUP1 SWAP2 SUB SWAP1 REVERT JUMPDEST POP POP POP POP JUMP JUMPDEST PUSH0 DUP1 DUP4 GT DUP1 ISZERO PUSH2 0xF57 JUMPI POP PUSH0 DUP3 GT JUMPDEST PUSH2 0xF96 JUMPI PUSH1 0x40 MLOAD PUSH32 0x8C379A000000000000000000000000000000000000000000000000000000000 DUP2 MSTORE PUSH1 0x4 ADD PUSH2 0xF8D SWAP1 PUSH2 0x234D JUMP JUMPDEST PUSH1 0x40 MLOAD DUP1 SWAP2 SUB SWAP1 REVERT JUMPDEST PUSH0 DUP1 SLOAD SWAP1 PUSH2 0x100 EXP SWAP1 DIV PUSH20 0xFFFFFFFFFFFFFFFFFFFFFFFFFFFFFFFFFFFFFFFF AND PUSH20 0xFFFFFFFFFFFFFFFFFFFFFFFFFFFFFFFFFFFFFFFF AND PUSH4 0x23B872DD CALLER ADDRESS DUP7 PUSH1 0x40 MLOAD DUP5 PUSH4 0xFFFFFFFF AND PUSH1 0xE0 SHL DUP2 MSTORE PUSH1 0x4 ADD PUSH2 0xFF2 SWAP4 SWAP3 SWAP2 SWAP1 PUSH2 0x1E9F JUMP JUMPDEST PUSH1 0x20 PUSH1 0x40 MLOAD DUP1 DUP4 SUB DUP2 PUSH0 DUP8 GAS CALL ISZERO DUP1 ISZERO PUSH2 0x100E JUMPI RETURNDATASIZE PUSH0 DUP1 RETURNDATACOPY RETURNDATASIZE PUSH0 REVERT JUMPDEST POP POP POP POP PUSH1 0x40 MLOAD RETURNDATASIZE PUSH1 0x1F NOT PUSH1 0x1F DUP3 ADD AND DUP3 ADD DUP1 PUSH1 0x40 MSTORE POP DUP2 ADD SWAP1 PUSH2 0x1032 SWAP2 SWAP1 PUSH2 0x1F09 JUMP JUMPDEST PUSH2 0x1071 JUMPI PUSH1 0x40 MLOAD PUSH32 0x8C379A000000000000000000000000000000000000000000000000000000000 DUP2 MSTORE PUSH1 0x4 ADD PUSH2 0x1068 SWAP1 PUSH2 0x23B5 JUMP JUMPDEST PUSH1 0x40 MLOAD DUP1 SWAP2 SUB SWAP1 REVERT JUMPDEST PUSH1 0x1 PUSH0 SWAP1 SLOAD SWAP1 PUSH2 0x100 EXP SWAP1 DIV PUSH20 0xFFFFFFFFFFFFFFFFFFFFFFFFFFFFFFFFFFFFFFFF AND PUSH20 0xFFFFFFFFFFFFFFFFFFFFFFFFFFFFFFFFFFFFFFFF AND PUSH4 0x23B872DD CALLER ADDRESS DUP6 PUSH1 0x40 MLOAD DUP5 PUSH4 0xFFFFFFFF AND PUSH1 0xE0 SHL DUP2 MSTORE PUSH1 0x4 ADD PUSH2 0x10CF SWAP4 SWAP3 SWAP2 SWAP1 PUSH2 0x1E9F JUMP JUMPDEST PUSH1 0x20 PUSH1 0x40 MLOAD DUP1 DUP4 SUB DUP2 PUSH0 DUP8 GAS CALL ISZERO DUP1 ISZERO PUSH2 0x10EB JUMPI RETURNDATASIZE PUSH0 DUP1 RETURNDATACOPY RETURNDATASIZE PUSH0 REVERT JUMPDEST POP POP POP POP PUSH1 0x40 MLOAD RETURNDATASIZE PUSH1 0x1F NOT PUSH1 0x1F DUP3 ADD AND DUP3 ADD DUP1 PUSH1 0x40 MSTORE POP DUP2 ADD SWAP1 PUSH2 0x110F SWAP2 SWAP1 PUSH2 0x1F09 JUMP JUMPDEST PUSH2 0x114E JUMPI PUSH1 0x40 MLOAD PUSH32 0x8C379A000000000000000000000000000000000000000000000000000000000 DUP2 MSTORE PUSH1 0x4 ADD PUSH2 0x1145 SWAP1 PUSH2 0x241D JUMP JUMPDEST PUSH1 0x40 MLOAD DUP1 SWAP2 SUB SWAP1 REVERT JUMPDEST PUSH0 PUSH1 0x2 PUSH0 SWAP1 SLOAD SWAP1 PUSH2 0x100 EXP SWAP1 DIV PUSH20 0xFFFFFFFFFFFFFFFFFFFFFFFFFFFFFFFFFFFFFFFF AND PUSH20 0xFFFFFFFFFFFFFFFFFFFFFFFFFFFFFFFFFFFFFFFF AND PUSH4 0x18160DDD PUSH1 0x40 MLOAD DUP2 PUSH4 0xFFFFFFFF AND PUSH1 0xE0 SHL DUP2 MSTORE PUSH1 0x4 ADD PUSH1 0x20 PUSH1 0x40 MLOAD DUP1 DUP4 SUB DUP2 DUP7 GAS STATICCALL ISZERO DUP1 ISZERO PUSH2 0x11B9 JUMPI RETURNDATASIZE PUSH0 DUP1 RETURNDATACOPY RETURNDATASIZE PUSH0 REVERT JUMPDEST POP POP POP POP PUSH1 0x40 MLOAD RETURNDATASIZE PUSH1 0x1F NOT PUSH1 0x1F DUP3 ADD AND DUP3 ADD DUP1 PUSH1 0x40 MSTORE POP DUP2 ADD SWAP1 PUSH2 0x11DD SWAP2 SWAP1 PUSH2 0x1BFB JUMP JUMPDEST SWAP1 POP PUSH0 DUP2 SUB PUSH2 0x1201 JUMPI PUSH2 0x11FA DUP4 DUP6 PUSH2 0x11F5 SWAP2 SWAP1 PUSH2 0x1D33 JUMP JUMPDEST PUSH2 0x190F JUMP JUMPDEST SWAP2 POP PUSH2 0x1248 JUMP JUMPDEST PUSH0 PUSH1 0x3 SLOAD DUP3 DUP7 PUSH2 0x1211 SWAP2 SWAP1 PUSH2 0x1D33 JUMP JUMPDEST PUSH2 0x121B SWAP2 SWAP1 PUSH2 0x1DA1 JUMP JUMPDEST SWAP1 POP PUSH0 PUSH1 0x4 SLOAD DUP4 DUP7 PUSH2 0x122D SWAP2 SWAP1 PUSH2 0x1D33 JUMP JUMPDEST PUSH2 0x1237 SWAP2 SWAP1 PUSH2 0x1DA1 JUMP JUMPDEST SWAP1 POP PUSH2 0x1243 DUP3 DUP3 PUSH2 0x1986 JUMP JUMPDEST SWAP4 POP POP POP JUMPDEST PUSH0 DUP3 GT PUSH2 0x128A JUMPI PUSH1 0x40 MLOAD PUSH32 0x8C379A000000000000000000000000000000000000000000000000000000000 DUP2 MSTORE PUSH1 0x4 ADD PUSH2 0x1281 SWAP1 PUSH2 0x2145 JUMP JUMPDEST PUSH1 0x40 MLOAD DUP1 SWAP2 SUB SWAP1 REVERT JUMPDEST PUSH1 0x2 PUSH0 SWAP1 SLOAD SWAP1 PUSH2 0x100 EXP SWAP1 DIV PUSH20 0xFFFFFFFFFFFFFFFFFFFFFFFFFFFFFFFFFFFFFFFF AND PUSH20 0xFFFFFFFFFFFFFFFFFFFFFFFFFFFFFFFFFFFFFFFF AND PUSH4 0x40C10F19 CALLER DUP5 PUSH1 0x40 MLOAD DUP4 PUSH4 0xFFFFFFFF AND PUSH1 0xE0 SHL DUP2 MSTORE PUSH1 0x4 ADD PUSH2 0x12E6 SWAP3 SWAP2 SWAP1 PUSH2 0x1F9C JUMP JUMPDEST PUSH0 PUSH1 0x40 MLOAD DUP1 DUP4 SUB DUP2 PUSH0 DUP8 DUP1 EXTCODESIZE ISZERO DUP1 ISZERO PUSH2 0x12FD JUMPI PUSH0 DUP1 REVERT JUMPDEST POP GAS CALL ISZERO DUP1 ISZERO PUSH2 0x130F JUMPI RETURNDATASIZE PUSH0 DUP1 RETURNDATACOPY RETURNDATASIZE PUSH0 REVERT JUMPDEST POP POP POP POP DUP4 PUSH1 0x3 PUSH0 DUP3 DUP3 SLOAD PUSH2 0x1324 SWAP2 SWAP1 PUSH2 0x1E6C JUMP JUMPDEST SWAP3 POP POP DUP2 SWAP1 SSTORE POP DUP3 PUSH1 0x4 PUSH0 DUP3 DUP3 SLOAD PUSH2 0x133C SWAP2 SWAP1 PUSH2 0x1E6C JUMP JUMPDEST SWAP3 POP POP DUP2 SWAP1 SSTORE POP POP SWAP3 SWAP2 POP POP JUMP JUMPDEST PUSH1 0x6 SLOAD DUP2 JUMP JUMPDEST PUSH1 0x7 PUSH0 SWAP1 SLOAD SWAP1 PUSH2 0x100 EXP SWAP1 DIV PUSH20 0xFFFFFFFFFFFFFFFFFFFFFFFFFFFFFFFFFFFFFFFF AND PUSH20 0xFFFFFFFFFFFFFFFFFFFFFFFFFFFFFFFFFFFFFFFF AND CALLER PUSH20 0xFFFFFFFFFFFFFFFFFFFFFFFFFFFFFFFFFFFFFFFF AND EQ PUSH2 0x13DF JUMPI PUSH1 0x40 MLOAD PUSH32 0x8C379A000000000000000000000000000000000000000000000000000000000 DUP2 MSTORE PUSH1 0x4 ADD PUSH2 0x13D6 SWAP1 PUSH2 0x2485 JUMP JUMPDEST PUSH1 0x40 MLOAD DUP1 SWAP2 SUB SWAP1 REVERT JUMPDEST PUSH0 DUP2 GT PUSH2 0x1421 JUMPI PUSH1 0x40 MLOAD PUSH32 0x8C379A000000000000000000000000000000000000000000000000000000000 DUP2 MSTORE PUSH1 0x4 ADD PUSH2 0x1418 SWAP1 PUSH2 0x24ED JUMP JUMPDEST PUSH1 0x40 MLOAD DUP1 SWAP2 SUB SWAP1 REVERT JUMPDEST DUP1 PUSH1 0x5 DUP2 SWAP1 SSTORE POP POP JUMP JUMPDEST PUSH0 DUP1 DUP3 GT PUSH2 0x146E JUMPI PUSH1 0x40 MLOAD PUSH32 0x8C379A000000000000000000000000000000000000000000000000000000000 DUP2 MSTORE PUSH1 0x4 ADD PUSH2 0x1465 SWAP1 PUSH2 0x20DD JUMP JUMPDEST PUSH1 0x40 MLOAD DUP1 SWAP2 SUB SWAP1 REVERT JUMPDEST PUSH0 PUSH1 0x3 SLOAD GT PUSH2 0x14B2 JUMPI PUSH1 0x40 MLOAD PUSH32 0x8C379A000000000000000000000000000000000000000000000000000000000 DUP2 MSTORE PUSH1 0x4 ADD PUSH2 0x14A9 SWAP1 PUSH2 0x2145 JUMP JUMPDEST PUSH1 0x40 MLOAD DUP1 SWAP2 SUB SWAP1 REVERT JUMPDEST PUSH0 PUSH1 0x3 SLOAD PUSH8 0xDE0B6B3A7640000 PUSH1 0x4 SLOAD PUSH2 0x14CC SWAP2 SWAP1 PUSH2 0x1D33 JUMP JUMPDEST PUSH2 0x14D6 SWAP2 SWAP1 PUSH2 0x1DA1 JUMP JUMPDEST SWAP1 POP DUP1 PUSH8 0xDE0B6B3A7640000 DUP5 PUSH2 0x14ED SWAP2 SWAP1 PUSH2 0x1D33 JUMP JUMPDEST PUSH2 0x14F7 SWAP2 SWAP1 PUSH2 0x1DA1 JUMP JUMPDEST SWAP2 POP POP SWAP2 SWAP1 POP JUMP JUMPDEST PUSH1 0x5 SLOAD DUP2 JUMP JUMPDEST PUSH0 DUP1 DUP3 GT PUSH2 0x1548 JUMPI PUSH1 0x40 MLOAD PUSH32 0x8C379A000000000000000000000000000000000000000000000000000000000 DUP2 MSTORE PUSH1 0x4 ADD PUSH2 0x153F SWAP1 PUSH2 0x2075 JUMP JUMPDEST PUSH1 0x40 MLOAD DUP1 SWAP2 SUB SWAP1 REVERT JUMPDEST PUSH0 PUSH2 0x1552 DUP4 PUSH2 0x142B JUMP JUMPDEST SWAP1 POP PUSH0 DUP4 PUSH1 0x4 SLOAD PUSH2 0x1563 SWAP2 SWAP1 PUSH2 0x1E6C JUMP JUMPDEST SWAP1 POP PUSH0 PUSH1 0x4 SLOAD PUSH1 0x3 SLOAD PUSH2 0x1576 SWAP2 SWAP1 PUSH2 0x1D33 JUMP JUMPDEST SWAP1 POP PUSH0 DUP3 DUP3 PUSH2 0x1585 SWAP2 SWAP1 PUSH2 0x1DA1 JUMP JUMPDEST SWAP1 POP PUSH0 DUP2 PUSH1 0x3 SLOAD PUSH2 0x1596 SWAP2 SWAP1 PUSH2 0x1DD1 JUMP JUMPDEST SWAP1 POP PUSH0 DUP6 PUSH1 0x64 DUP4 PUSH2 0x15A7 SWAP2 SWAP1 PUSH2 0x1D33 JUMP JUMPDEST PUSH2 0x15B1 SWAP2 SWAP1 PUSH2 0x1DA1 JUMP JUMPDEST PUSH1 0x64 PUSH2 0x15BD SWAP2 SWAP1 PUSH2 0x1DD1 JUMP JUMPDEST SWAP1 POP DUP1 SWAP7 POP POP POP POP POP POP POP SWAP2 SWAP1 POP JUMP JUMPDEST PUSH0 PUSH1 0x2 PUSH0 SWAP1 SLOAD SWAP1 PUSH2 0x100 EXP SWAP1 DIV PUSH20 0xFFFFFFFFFFFFFFFFFFFFFFFFFFFFFFFFFFFFFFFF AND SWAP1 POP SWAP1 JUMP JUMPDEST PUSH1 0x3 SLOAD DUP2 JUMP JUMPDEST PUSH0 DUP1 DUP4 GT PUSH2 0x163E JUMPI PUSH1 0x40 MLOAD PUSH32 0x8C379A000000000000000000000000000000000000000000000000000000000 DUP2 MSTORE PUSH1 0x4 ADD PUSH2 0x1635 SWAP1 PUSH2 0x1C80 JUMP JUMPDEST PUSH1 0x40 MLOAD DUP1 SWAP2 SUB SWAP1 REVERT JUMPDEST PUSH0 PUSH1 0x5 SLOAD GT PUSH2 0x1682 JUMPI PUSH1 0x40 MLOAD PUSH32 0x8C379A000000000000000000000000000000000000000000000000000000000 DUP2 MSTORE PUSH1 0x4 ADD PUSH2 0x1679 SWAP1 PUSH2 0x1CE8 JUMP JUMPDEST PUSH1 0x40 MLOAD DUP1 SWAP2 SUB SWAP1 REVERT JUMPDEST PUSH0 PUSH1 0x64 PUSH1 0x6 SLOAD DUP6 PUSH2 0x1693 SWAP2 SWAP1 PUSH2 0x1D33 JUMP JUMPDEST PUSH2 0x169D SWAP2 SWAP1 PUSH2 0x1DA1 JUMP JUMPDEST SWAP1 POP PUSH0 DUP2 DUP6 PUSH2 0x16AC SWAP2 SWAP1 PUSH2 0x1DD1 JUMP JUMPDEST SWAP1 POP PUSH2 0x16B7 DUP2 PUSH2 0x874 JUMP JUMPDEST DUP5 GT PUSH2 0x16F8 JUMPI PUSH1 0x40 MLOAD PUSH32 0x8C379A000000000000000000000000000000000000000000000000000000000 DUP2 MSTORE PUSH1 0x4 ADD PUSH2 0x16EF SWAP1 PUSH2 0x1E4E JUMP JUMPDEST PUSH1 0x40 MLOAD DUP1 SWAP2 SUB SWAP1 REVERT JUMPDEST PUSH0 DUP2 PUSH1 0x3 SLOAD PUSH2 0x1707 SWAP2 SWAP1 PUSH2 0x1E6C JUMP JUMPDEST SWAP1 POP PUSH0 PUSH1 0x4 SLOAD PUSH1 0x3 SLOAD PUSH2 0x171A SWAP2 SWAP1 PUSH2 0x1D33 JUMP JUMPDEST SWAP1 POP PUSH0 DUP3 DUP3 PUSH2 0x1729 SWAP2 SWAP1 PUSH2 0x1DA1 JUMP JUMPDEST SWAP1 POP PUSH0 DUP2 PUSH1 0x4 SLOAD PUSH2 0x173A SWAP2 SWAP1 PUSH2 0x1DD1 JUMP JUMPDEST SWAP1 POP PUSH0 DUP1 SLOAD SWAP1 PUSH2 0x100 EXP SWAP1 DIV PUSH20 0xFFFFFFFFFFFFFFFFFFFFFFFFFFFFFFFFFFFFFFFF AND PUSH20 0xFFFFFFFFFFFFFFFFFFFFFFFFFFFFFFFFFFFFFFFF AND PUSH4 0x23B872DD CALLER ADDRESS DUP13 PUSH1 0x40 MLOAD DUP5 PUSH4 0xFFFFFFFF AND PUSH1 0xE0 SHL DUP2 MSTORE PUSH1 0x4 ADD PUSH2 0x1798 SWAP4 SWAP3 SWAP2 SWAP1 PUSH2 0x1E9F JUMP JUMPDEST PUSH1 0x20 PUSH1 0x40 MLOAD DUP1 DUP4 SUB DUP2 PUSH0 DUP8 GAS CALL ISZERO DUP1 ISZERO PUSH2 0x17B4 JUMPI RETURNDATASIZE PUSH0 DUP1 RETURNDATACOPY RETURNDATASIZE PUSH0 REVERT JUMPDEST POP POP POP POP PUSH1 0x40 MLOAD RETURNDATASIZE PUSH1 0x1F NOT PUSH1 0x1F DUP3 ADD AND DUP3 ADD DUP1 PUSH1 0x40 MSTORE POP DUP2 ADD SWAP1 PUSH2 0x17D8 SWAP2 SWAP1 PUSH2 0x1F09 JUMP JUMPDEST PUSH2 0x1817 JUMPI PUSH1 0x40 MLOAD PUSH32 0x8C379A000000000000000000000000000000000000000000000000000000000 DUP2 MSTORE PUSH1 0x4 ADD PUSH2 0x180E SWAP1 PUSH2 0x200D JUMP JUMPDEST PUSH1 0x40 MLOAD DUP1 SWAP2 SUB SWAP1 REVERT JUMPDEST PUSH1 0x1 PUSH0 SWAP1 SLOAD SWAP1 PUSH2 0x100 EXP SWAP1 DIV PUSH20 0xFFFFFFFFFFFFFFFFFFFFFFFFFFFFFFFFFFFFFFFF AND PUSH20 0xFFFFFFFFFFFFFFFFFFFFFFFFFFFFFFFFFFFFFFFF AND PUSH4 0xA9059CBB CALLER DUP4 PUSH1 0x40 MLOAD DUP4 PUSH4 0xFFFFFFFF AND PUSH1 0xE0 SHL DUP2 MSTORE PUSH1 0x4 ADD PUSH2 0x1873 SWAP3 SWAP2 SWAP1 PUSH2 0x1F9C JUMP JUMPDEST PUSH1 0x20 PUSH1 0x40 MLOAD DUP1 DUP4 SUB DUP2 PUSH0 DUP8 GAS CALL ISZERO DUP1 ISZERO PUSH2 0x188F JUMPI RETURNDATASIZE PUSH0 DUP1 RETURNDATACOPY RETURNDATASIZE PUSH0 REVERT JUMPDEST POP POP POP POP PUSH1 0x40 MLOAD RETURNDATASIZE PUSH1 0x1F NOT PUSH1 0x1F DUP3 ADD AND DUP3 ADD DUP1 PUSH1 0x40 MSTORE POP DUP2 ADD SWAP1 PUSH2 0x18B3 SWAP2 SWAP1 PUSH2 0x1F09 JUMP JUMPDEST PUSH2 0x18F2 JUMPI PUSH1 0x40 MLOAD PUSH32 0x8C379A000000000000000000000000000000000000000000000000000000000 DUP2 MSTORE PUSH1 0x4 ADD PUSH2 0x18E9 SWAP1 PUSH2 0x1F7E JUMP JUMPDEST PUSH1 0x40 MLOAD DUP1 SWAP2 SUB SWAP1 REVERT JUMPDEST DUP4 PUSH1 0x3 DUP2 SWAP1 SSTORE POP DUP2 PUSH1 0x4 DUP2 SWAP1 SSTORE POP DUP1 SWAP7 POP POP POP POP POP POP POP SWAP3 SWAP2 POP POP JUMP JUMPDEST PUSH0 PUSH1 0x3 DUP3 GT ISZERO PUSH2 0x1974 JUMPI DUP2 SWAP1 POP PUSH0 PUSH1 0x1 PUSH1 0x2 DUP5 PUSH2 0x192C SWAP2 SWAP1 PUSH2 0x1DA1 JUMP JUMPDEST PUSH2 0x1936 SWAP2 SWAP1 PUSH2 0x1E6C JUMP JUMPDEST SWAP1 POP JUMPDEST DUP2 DUP2 LT ISZERO PUSH2 0x196E JUMPI DUP1 SWAP2 POP PUSH1 0x2 DUP2 DUP3 DUP6 PUSH2 0x1953 SWAP2 SWAP1 PUSH2 0x1DA1 JUMP JUMPDEST PUSH2 0x195D SWAP2 SWAP1 PUSH2 0x1E6C JUMP JUMPDEST PUSH2 0x1967 SWAP2 SWAP1 PUSH2 0x1DA1 JUMP JUMPDEST SWAP1 POP PUSH2 0x1939 JUMP JUMPDEST POP PUSH2 0x1981 JUMP JUMPDEST PUSH0 DUP3 EQ PUSH2 0x1980 JUMPI PUSH1 0x1 SWAP1 POP JUMPDEST JUMPDEST SWAP2 SWAP1 POP JUMP JUMPDEST PUSH0 DUP2 DUP4 LT PUSH2 0x1994 JUMPI DUP2 PUSH2 0x1996 JUMP JUMPDEST DUP3 JUMPDEST SWAP1 POP SWAP3 SWAP2 POP POP JUMP JUMPDEST PUSH0 DUP1 REVERT JUMPDEST PUSH0 PUSH20 0xFFFFFFFFFFFFFFFFFFFFFFFFFFFFFFFFFFFFFFFF DUP3 AND SWAP1 POP SWAP2 SWAP1 POP JUMP JUMPDEST PUSH0 PUSH2 0x19CB DUP3 PUSH2 0x19A2 JUMP JUMPDEST SWAP1 POP SWAP2 SWAP1 POP JUMP JUMPDEST PUSH2 0x19DB DUP2 PUSH2 0x19C1 JUMP JUMPDEST DUP2 EQ PUSH2 0x19E5 JUMPI PUSH0 DUP1 REVERT JUMPDEST POP JUMP JUMPDEST PUSH0 DUP2 CALLDATALOAD SWAP1 POP PUSH2 0x19F6 DUP2 PUSH2 0x19D2 JUMP JUMPDEST SWAP3 SWAP2 POP POP JUMP JUMPDEST PUSH0 PUSH1 0x20 DUP3 DUP5 SUB SLT ISZERO PUSH2 0x1A11 JUMPI PUSH2 0x1A10 PUSH2 0x199E JUMP JUMPDEST JUMPDEST PUSH0 PUSH2 0x1A1E DUP5 DUP3 DUP6 ADD PUSH2 0x19E8 JUMP JUMPDEST SWAP2 POP POP SWAP3 SWAP2 POP POP JUMP JUMPDEST PUSH0 DUP2 SWAP1 POP SWAP2 SWAP1 POP JUMP JUMPDEST PUSH2 0x1A39 DUP2 PUSH2 0x1A27 JUMP JUMPDEST DUP3 MSTORE POP POP JUMP JUMPDEST PUSH0 PUSH1 0x20 DUP3 ADD SWAP1 POP PUSH2 0x1A52 PUSH0 DUP4 ADD DUP5 PUSH2 0x1A30 JUMP JUMPDEST SWAP3 SWAP2 POP POP JUMP JUMPDEST PUSH0 PUSH1 0x40 DUP3 ADD SWAP1 POP PUSH2 0x1A6B PUSH0 DUP4 ADD DUP6 PUSH2 0x1A30 JUMP JUMPDEST PUSH2 0x1A78 PUSH1 0x20 DUP4 ADD DUP5 PUSH2 0x1A30 JUMP JUMPDEST SWAP4 SWAP3 POP POP POP JUMP JUMPDEST PUSH0 DUP2 SWAP1 POP SWAP2 SWAP1 POP JUMP JUMPDEST PUSH0 PUSH2 0x1AA2 PUSH2 0x1A9D PUSH2 0x1A98 DUP5 PUSH2 0x19A2 JUMP JUMPDEST PUSH2 0x1A7F JUMP JUMPDEST PUSH2 0x19A2 JUMP JUMPDEST SWAP1 POP SWAP2 SWAP1 POP JUMP JUMPDEST PUSH0 PUSH2 0x1AB3 DUP3 PUSH2 0x1A88 JUMP JUMPDEST SWAP1 POP SWAP2 SWAP1 POP JUMP JUMPDEST PUSH0 PUSH2 0x1AC4 DUP3 PUSH2 0x1AA9 JUMP JUMPDEST SWAP1 POP SWAP2 SWAP1 POP JUMP JUMPDEST PUSH2 0x1AD4 DUP2 PUSH2 0x1ABA JUMP JUMPDEST DUP3 MSTORE POP POP JUMP JUMPDEST PUSH0 PUSH1 0x20 DUP3 ADD SWAP1 POP PUSH2 0x1AED PUSH0 DUP4 ADD DUP5 PUSH2 0x1ACB JUMP JUMPDEST SWAP3 SWAP2 POP POP JUMP JUMPDEST PUSH2 0x1AFC DUP2 PUSH2 0x1A27 JUMP JUMPDEST DUP2 EQ PUSH2 0x1B06 JUMPI PUSH0 DUP1 REVERT JUMPDEST POP JUMP JUMPDEST PUSH0 DUP2 CALLDATALOAD SWAP1 POP PUSH2 0x1B17 DUP2 PUSH2 0x1AF3 JUMP JUMPDEST SWAP3 SWAP2 POP POP JUMP JUMPDEST PUSH0 DUP1 PUSH1 0x40 DUP4 DUP6 SUB SLT ISZERO PUSH2 0x1B33 JUMPI PUSH2 0x1B32 PUSH2 0x199E JUMP JUMPDEST JUMPDEST PUSH0 PUSH2 0x1B40 DUP6 DUP3 DUP7 ADD PUSH2 0x1B09 JUMP JUMPDEST SWAP3 POP POP PUSH1 0x20 PUSH2 0x1B51 DUP6 DUP3 DUP7 ADD PUSH2 0x1B09 JUMP JUMPDEST SWAP2 POP POP SWAP3 POP SWAP3 SWAP1 POP JUMP JUMPDEST PUSH0 PUSH2 0x1B65 DUP3 PUSH2 0x1AA9 JUMP JUMPDEST SWAP1 POP SWAP2 SWAP1 POP JUMP JUMPDEST PUSH2 0x1B75 DUP2 PUSH2 0x1B5B JUMP JUMPDEST DUP3 MSTORE POP POP JUMP JUMPDEST PUSH0 PUSH1 0x20 DUP3 ADD SWAP1 POP PUSH2 0x1B8E PUSH0 DUP4 ADD DUP5 PUSH2 0x1B6C JUMP JUMPDEST SWAP3 SWAP2 POP POP JUMP JUMPDEST PUSH0 PUSH1 0x20 DUP3 DUP5 SUB SLT ISZERO PUSH2 0x1BA9 JUMPI PUSH2 0x1BA8 PUSH2 0x199E JUMP JUMPDEST JUMPDEST PUSH0 PUSH2 0x1BB6 DUP5 DUP3 DUP6 ADD PUSH2 0x1B09 JUMP JUMPDEST SWAP2 POP POP SWAP3 SWAP2 POP POP JUMP JUMPDEST PUSH2 0x1BC8 DUP2 PUSH2 0x19C1 JUMP JUMPDEST DUP3 MSTORE POP POP JUMP JUMPDEST PUSH0 PUSH1 0x20 DUP3 ADD SWAP1 POP PUSH2 0x1BE1 PUSH0 DUP4 ADD DUP5 PUSH2 0x1BBF JUMP JUMPDEST SWAP3 SWAP2 POP POP JUMP JUMPDEST PUSH0 DUP2 MLOAD SWAP1 POP PUSH2 0x1BF5 DUP2 PUSH2 0x1AF3 JUMP JUMPDEST SWAP3 SWAP2 POP POP JUMP JUMPDEST PUSH0 PUSH1 0x20 DUP3 DUP5 SUB SLT ISZERO PUSH2 0x1C10 JUMPI PUSH2 0x1C0F PUSH2 0x199E JUMP JUMPDEST JUMPDEST PUSH0 PUSH2 0x1C1D DUP5 DUP3 DUP6 ADD PUSH2 0x1BE7 JUMP JUMPDEST SWAP2 POP POP SWAP3 SWAP2 POP POP JUMP JUMPDEST PUSH0 DUP3 DUP3 MSTORE PUSH1 0x20 DUP3 ADD SWAP1 POP SWAP3 SWAP2 POP POP JUMP JUMPDEST PUSH32 0x496E76616C696420696E70757420616D6F756E74000000000000000000000000 PUSH0 DUP3 ADD MSTORE POP JUMP JUMPDEST PUSH0 PUSH2 0x1C6A PUSH1 0x14 DUP4 PUSH2 0x1C26 JUMP JUMPDEST SWAP2 POP PUSH2 0x1C75 DUP3 PUSH2 0x1C36 JUMP JUMPDEST PUSH1 0x20 DUP3 ADD SWAP1 POP SWAP2 SWAP1 POP JUMP JUMPDEST PUSH0 PUSH1 0x20 DUP3 ADD SWAP1 POP DUP2 DUP2 SUB PUSH0 DUP4 ADD MSTORE PUSH2 0x1C97 DUP2 PUSH2 0x1C5E JUMP JUMPDEST SWAP1 POP SWAP2 SWAP1 POP JUMP JUMPDEST PUSH32 0x457870656374656420736C697070616765206E6F742073657400000000000000 PUSH0 DUP3 ADD MSTORE POP JUMP JUMPDEST PUSH0 PUSH2 0x1CD2 PUSH1 0x19 DUP4 PUSH2 0x1C26 JUMP JUMPDEST SWAP2 POP PUSH2 0x1CDD DUP3 PUSH2 0x1C9E JUMP JUMPDEST PUSH1 0x20 DUP3 ADD SWAP1 POP SWAP2 SWAP1 POP JUMP JUMPDEST PUSH0 PUSH1 0x20 DUP3 ADD SWAP1 POP DUP2 DUP2 SUB PUSH0 DUP4 ADD MSTORE PUSH2 0x1CFF DUP2 PUSH2 0x1CC6 JUMP JUMPDEST SWAP1 POP SWAP2 SWAP1 POP JUMP JUMPDEST PUSH32 0x4E487B7100000000000000000000000000000000000000000000000000000000 PUSH0 MSTORE PUSH1 0x11 PUSH1 0x4 MSTORE PUSH1 0x24 PUSH0 REVERT JUMPDEST PUSH0 PUSH2 0x1D3D DUP3 PUSH2 0x1A27 JUMP JUMPDEST SWAP2 POP PUSH2 0x1D48 DUP4 PUSH2 0x1A27 JUMP JUMPDEST SWAP3 POP DUP3 DUP3 MUL PUSH2 0x1D56 DUP2 PUSH2 0x1A27 JUMP JUMPDEST SWAP2 POP DUP3 DUP3 DIV DUP5 EQ DUP4 ISZERO OR PUSH2 0x1D6D JUMPI PUSH2 0x1D6C PUSH2 0x1D06 JUMP JUMPDEST JUMPDEST POP SWAP3 SWAP2 POP POP JUMP JUMPDEST PUSH32 0x4E487B7100000000000000000000000000000000000000000000000000000000 PUSH0 MSTORE PUSH1 0x12 PUSH1 0x4 MSTORE PUSH1 0x24 PUSH0 REVERT JUMPDEST PUSH0 PUSH2 0x1DAB DUP3 PUSH2 0x1A27 JUMP JUMPDEST SWAP2 POP PUSH2 0x1DB6 DUP4 PUSH2 0x1A27 JUMP JUMPDEST SWAP3 POP DUP3 PUSH2 0x1DC6 JUMPI PUSH2 0x1DC5 PUSH2 0x1D74 JUMP JUMPDEST JUMPDEST DUP3 DUP3 DIV SWAP1 POP SWAP3 SWAP2 POP POP JUMP JUMPDEST PUSH0 PUSH2 0x1DDB DUP3 PUSH2 0x1A27 JUMP JUMPDEST SWAP2 POP PUSH2 0x1DE6 DUP4 PUSH2 0x1A27 JUMP JUMPDEST SWAP3 POP DUP3 DUP3 SUB SWAP1 POP DUP2 DUP2 GT ISZERO PUSH2 0x1DFE JUMPI PUSH2 0x1DFD PUSH2 0x1D06 JUMP JUMPDEST JUMPDEST SWAP3 SWAP2 POP POP JUMP JUMPDEST PUSH32 0x61637475616C20736C69707061676520697320746F6F20686967680000000000 PUSH0 DUP3 ADD MSTORE POP JUMP JUMPDEST PUSH0 PUSH2 0x1E38 PUSH1 0x1B DUP4 PUSH2 0x1C26 JUMP JUMPDEST SWAP2 POP PUSH2 0x1E43 DUP3 PUSH2 0x1E04 JUMP JUMPDEST PUSH1 0x20 DUP3 ADD SWAP1 POP SWAP2 SWAP1 POP JUMP JUMPDEST PUSH0 PUSH1 0x20 DUP3 ADD SWAP1 POP DUP2 DUP2 SUB PUSH0 DUP4 ADD MSTORE PUSH2 0x1E65 DUP2 PUSH2 0x1E2C JUMP JUMPDEST SWAP1 POP SWAP2 SWAP1 POP JUMP JUMPDEST PUSH0 PUSH2 0x1E76 DUP3 PUSH2 0x1A27 JUMP JUMPDEST SWAP2 POP PUSH2 0x1E81 DUP4 PUSH2 0x1A27 JUMP JUMPDEST SWAP3 POP DUP3 DUP3 ADD SWAP1 POP DUP1 DUP3 GT ISZERO PUSH2 0x1E99 JUMPI PUSH2 0x1E98 PUSH2 0x1D06 JUMP JUMPDEST JUMPDEST SWAP3 SWAP2 POP POP JUMP JUMPDEST PUSH0 PUSH1 0x60 DUP3 ADD SWAP1 POP PUSH2 0x1EB2 PUSH0 DUP4 ADD DUP7 PUSH2 0x1BBF JUMP JUMPDEST PUSH2 0x1EBF PUSH1 0x20 DUP4 ADD DUP6 PUSH2 0x1BBF JUMP JUMPDEST PUSH2 0x1ECC PUSH1 0x40 DUP4 ADD DUP5 PUSH2 0x1A30 JUMP JUMPDEST SWAP5 SWAP4 POP POP POP POP JUMP JUMPDEST PUSH0 DUP2 ISZERO ISZERO SWAP1 POP SWAP2 SWAP1 POP JUMP JUMPDEST PUSH2 0x1EE8 DUP2 PUSH2 0x1ED4 JUMP JUMPDEST DUP2 EQ PUSH2 0x1EF2 JUMPI PUSH0 DUP1 REVERT JUMPDEST POP JUMP JUMPDEST PUSH0 DUP2 MLOAD SWAP1 POP PUSH2 0x1F03 DUP2 PUSH2 0x1EDF JUMP JUMPDEST SWAP3 SWAP2 POP POP JUMP JUMPDEST PUSH0 PUSH1 0x20 DUP3 DUP5 SUB SLT ISZERO PUSH2 0x1F1E JUMPI PUSH2 0x1F1D PUSH2 0x199E JUMP JUMPDEST JUMPDEST PUSH0 PUSH2 0x1F2B DUP5 DUP3 DUP6 ADD PUSH2 0x1EF5 JUMP JUMPDEST SWAP2 POP POP SWAP3 SWAP2 POP POP JUMP JUMPDEST PUSH32 0x546F6B656E2042207472616E73666572206661696C6564000000000000000000 PUSH0 DUP3 ADD MSTORE POP JUMP JUMPDEST PUSH0 PUSH2 0x1F68 PUSH1 0x17 DUP4 PUSH2 0x1C26 JUMP JUMPDEST SWAP2 POP PUSH2 0x1F73 DUP3 PUSH2 0x1F34 JUMP JUMPDEST PUSH1 0x20 DUP3 ADD SWAP1 POP SWAP2 SWAP1 POP JUMP JUMPDEST PUSH0 PUSH1 0x20 DUP3 ADD SWAP1 POP DUP2 DUP2 SUB PUSH0 DUP4 ADD MSTORE PUSH2 0x1F95 DUP2 PUSH2 0x1F5C JUMP JUMPDEST SWAP1 POP SWAP2 SWAP1 POP JUMP JUMPDEST PUSH0 PUSH1 0x40 DUP3 ADD SWAP1 POP PUSH2 0x1FAF PUSH0 DUP4 ADD DUP6 PUSH2 0x1BBF JUMP JUMPDEST PUSH2 0x1FBC PUSH1 0x20 DUP4 ADD DUP5 PUSH2 0x1A30 JUMP JUMPDEST SWAP4 SWAP3 POP POP POP JUMP JUMPDEST PUSH32 0x546F6B656E2041207472616E73666572206661696C6564000000000000000000 PUSH0 DUP3 ADD MSTORE POP JUMP JUMPDEST PUSH0 PUSH2 0x1FF7 PUSH1 0x17 DUP4 PUSH2 0x1C26 JUMP JUMPDEST SWAP2 POP PUSH2 0x2002 DUP3 PUSH2 0x1FC3 JUMP JUMPDEST PUSH1 0x20 DUP3 ADD SWAP1 POP SWAP2 SWAP1 POP JUMP JUMPDEST PUSH0 PUSH1 0x20 DUP3 ADD SWAP1 POP DUP2 DUP2 SUB PUSH0 DUP4 ADD MSTORE PUSH2 0x2024 DUP2 PUSH2 0x1FEB JUMP JUMPDEST SWAP1 POP SWAP2 SWAP1 POP JUMP JUMPDEST PUSH32 0x6769766520636F72726563742076616C75650000000000000000000000000000 PUSH0 DUP3 ADD MSTORE POP JUMP JUMPDEST PUSH0 PUSH2 0x205F PUSH1 0x12 DUP4 PUSH2 0x1C26 JUMP JUMPDEST SWAP2 POP PUSH2 0x206A DUP3 PUSH2 0x202B JUMP JUMPDEST PUSH1 0x20 DUP3 ADD SWAP1 POP SWAP2 SWAP1 POP JUMP JUMPDEST PUSH0 PUSH1 0x20 DUP3 ADD SWAP1 POP DUP2 DUP2 SUB PUSH0 DUP4 ADD MSTORE PUSH2 0x208C DUP2 PUSH2 0x2053 JUMP JUMPDEST SWAP1 POP SWAP2 SWAP1 POP JUMP JUMPDEST PUSH32 0x496E76616C696420616D6F756E74000000000000000000000000000000000000 PUSH0 DUP3 ADD MSTORE POP JUMP JUMPDEST PUSH0 PUSH2 0x20C7 PUSH1 0xE DUP4 PUSH2 0x1C26 JUMP JUMPDEST SWAP2 POP PUSH2 0x20D2 DUP3 PUSH2 0x2093 JUMP JUMPDEST PUSH1 0x20 DUP3 ADD SWAP1 POP SWAP2 SWAP1 POP JUMP JUMPDEST PUSH0 PUSH1 0x20 DUP3 ADD SWAP1 POP DUP2 DUP2 SUB PUSH0 DUP4 ADD MSTORE PUSH2 0x20F4 DUP2 PUSH2 0x20BB JUMP JUMPDEST SWAP1 POP SWAP2 SWAP1 POP JUMP JUMPDEST PUSH32 0x496E73756666696369656E74206C697175696469747900000000000000000000 PUSH0 DUP3 ADD MSTORE POP JUMP JUMPDEST PUSH0 PUSH2 0x212F PUSH1 0x16 DUP4 PUSH2 0x1C26 JUMP JUMPDEST SWAP2 POP PUSH2 0x213A DUP3 PUSH2 0x20FB JUMP JUMPDEST PUSH1 0x20 DUP3 ADD SWAP1 POP SWAP2 SWAP1 POP JUMP JUMPDEST PUSH0 PUSH1 0x20 DUP3 ADD SWAP1 POP DUP2 DUP2 SUB PUSH0 DUP4 ADD MSTORE PUSH2 0x215C DUP2 PUSH2 0x2123 JUMP JUMPDEST SWAP1 POP SWAP2 SWAP1 POP JUMP JUMPDEST PUSH32 0x4E6F206C69717569646974790000000000000000000000000000000000000000 PUSH0 DUP3 ADD MSTORE POP JUMP JUMPDEST PUSH0 PUSH2 0x2197 PUSH1 0xC DUP4 PUSH2 0x1C26 JUMP JUMPDEST SWAP2 POP PUSH2 0x21A2 DUP3 PUSH2 0x2163 JUMP JUMPDEST PUSH1 0x20 DUP3 ADD SWAP1 POP SWAP2 SWAP1 POP JUMP JUMPDEST PUSH0 PUSH1 0x20 DUP3 ADD SWAP1 POP DUP2 DUP2 SUB PUSH0 DUP4 ADD MSTORE PUSH2 0x21C4 DUP2 PUSH2 0x218B JUMP JUMPDEST SWAP1 POP SWAP2 SWAP1 POP JUMP JUMPDEST PUSH32 0x496E76616C6964206C697175696469747920616D6F756E740000000000000000 PUSH0 DUP3 ADD MSTORE POP JUMP JUMPDEST PUSH0 PUSH2 0x21FF PUSH1 0x18 DUP4 PUSH2 0x1C26 JUMP JUMPDEST SWAP2 POP PUSH2 0x220A DUP3 PUSH2 0x21CB JUMP JUMPDEST PUSH1 0x20 DUP3 ADD SWAP1 POP SWAP2 SWAP1 POP JUMP JUMPDEST PUSH0 PUSH1 0x20 DUP3 ADD SWAP1 POP DUP2 DUP2 SUB PUSH0 DUP4 ADD MSTORE PUSH2 0x222C DUP2 PUSH2 0x21F3 JUMP JUMPDEST SWAP1 POP SWAP2 SWAP1 POP JUMP JUMPDEST PUSH32 0x4E6F7420656E6F756768204C5020746F6B656E73000000000000000000000000 PUSH0 DUP3 ADD MSTORE POP JUMP JUMPDEST PUSH0 PUSH2 0x2267 PUSH1 0x14 DUP4 PUSH2 0x1C26 JUMP JUMPDEST SWAP2 POP PUSH2 0x2272 DUP3 PUSH2 0x2233 JUMP JUMPDEST PUSH1 0x20 DUP3 ADD SWAP1 POP SWAP2 SWAP1 POP JUMP JUMPDEST PUSH0 PUSH1 0x20 DUP3 ADD SWAP1 POP DUP2 DUP2 SUB PUSH0 DUP4 ADD MSTORE PUSH2 0x2294 DUP2 PUSH2 0x225B JUMP JUMPDEST SWAP1 POP SWAP2 SWAP1 POP JUMP JUMPDEST PUSH32 0x496E73756666696369656E7420616D6F756E7420746F20776974686472617700 PUSH0 DUP3 ADD MSTORE POP JUMP JUMPDEST PUSH0 PUSH2 0x22CF PUSH1 0x1F DUP4 PUSH2 0x1C26 JUMP JUMPDEST SWAP2 POP PUSH2 0x22DA DUP3 PUSH2 0x229B JUMP JUMPDEST PUSH1 0x20 DUP3 ADD SWAP1 POP SWAP2 SWAP1 POP JUMP JUMPDEST PUSH0 PUSH1 0x20 DUP3 ADD SWAP1 POP DUP2 DUP2 SUB PUSH0 DUP4 ADD MSTORE PUSH2 0x22FC DUP2 PUSH2 0x22C3 JUMP JUMPDEST SWAP1 POP SWAP2 SWAP1 POP JUMP JUMPDEST PUSH32 0x496E76616C696420616D6F756E74730000000000000000000000000000000000 PUSH0 DUP3 ADD MSTORE POP JUMP JUMPDEST PUSH0 PUSH2 0x2337 PUSH1 0xF DUP4 PUSH2 0x1C26 JUMP JUMPDEST SWAP2 POP PUSH2 0x2342 DUP3 PUSH2 0x2303 JUMP JUMPDEST PUSH1 0x20 DUP3 ADD SWAP1 POP SWAP2 SWAP1 POP JUMP JUMPDEST PUSH0 PUSH1 0x20 DUP3 ADD SWAP1 POP DUP2 DUP2 SUB PUSH0 DUP4 ADD MSTORE PUSH2 0x2364 DUP2 PUSH2 0x232B JUMP JUMPDEST SWAP1 POP SWAP2 SWAP1 POP JUMP JUMPDEST PUSH32 0x546F6B656E41207472616E73666572206661696C656400000000000000000000 PUSH0 DUP3 ADD MSTORE POP JUMP JUMPDEST PUSH0 PUSH2 0x239F PUSH1 0x16 DUP4 PUSH2 0x1C26 JUMP JUMPDEST SWAP2 POP PUSH2 0x23AA DUP3 PUSH2 0x236B JUMP JUMPDEST PUSH1 0x20 DUP3 ADD SWAP1 POP SWAP2 SWAP1 POP JUMP JUMPDEST PUSH0 PUSH1 0x20 DUP3 ADD SWAP1 POP DUP2 DUP2 SUB PUSH0 DUP4 ADD MSTORE PUSH2 0x23CC DUP2 PUSH2 0x2393 JUMP JUMPDEST SWAP1 POP SWAP2 SWAP1 POP JUMP JUMPDEST PUSH32 0x546F6B656E42207472616E73666572206661696C656400000000000000000000 PUSH0 DUP3 ADD MSTORE POP JUMP JUMPDEST PUSH0 PUSH2 0x2407 PUSH1 0x16 DUP4 PUSH2 0x1C26 JUMP JUMPDEST SWAP2 POP PUSH2 0x2412 DUP3 PUSH2 0x23D3 JUMP JUMPDEST PUSH1 0x20 DUP3 ADD SWAP1 POP SWAP2 SWAP1 POP JUMP JUMPDEST PUSH0 PUSH1 0x20 DUP3 ADD SWAP1 POP DUP2 DUP2 SUB PUSH0 DUP4 ADD MSTORE PUSH2 0x2434 DUP2 PUSH2 0x23FB JUMP JUMPDEST SWAP1 POP SWAP2 SWAP1 POP JUMP JUMPDEST PUSH32 0x4E6F7420617574686F72697A6564000000000000000000000000000000000000 PUSH0 DUP3 ADD MSTORE POP JUMP JUMPDEST PUSH0 PUSH2 0x246F PUSH1 0xE DUP4 PUSH2 0x1C26 JUMP JUMPDEST SWAP2 POP PUSH2 0x247A DUP3 PUSH2 0x243B JUMP JUMPDEST PUSH1 0x20 DUP3 ADD SWAP1 POP SWAP2 SWAP1 POP JUMP JUMPDEST PUSH0 PUSH1 0x20 DUP3 ADD SWAP1 POP DUP2 DUP2 SUB PUSH0 DUP4 ADD MSTORE PUSH2 0x249C DUP2 PUSH2 0x2463 JUMP JUMPDEST SWAP1 POP SWAP2 SWAP1 POP JUMP JUMPDEST PUSH32 0x696E76616C696420736C69707061676500000000000000000000000000000000 PUSH0 DUP3 ADD MSTORE POP JUMP JUMPDEST PUSH0 PUSH2 0x24D7 PUSH1 0x10 DUP4 PUSH2 0x1C26 JUMP JUMPDEST SWAP2 POP PUSH2 0x24E2 DUP3 PUSH2 0x24A3 JUMP JUMPDEST PUSH1 0x20 DUP3 ADD SWAP1 POP SWAP2 SWAP1 POP JUMP JUMPDEST PUSH0 PUSH1 0x20 DUP3 ADD SWAP1 POP DUP2 DUP2 SUB PUSH0 DUP4 ADD MSTORE PUSH2 0x2504 DUP2 PUSH2 0x24CB JUMP JUMPDEST SWAP1 POP SWAP2 SWAP1 POP JUMP INVALID LOG2 PUSH5 0x6970667358 0x22 SLT KECCAK256 SHL PUSH1 0xAB 0xC1 0xC9 0x4D CODESIZE 0x28 EXP SWAP16 0xDA DUP3 XOR LOG1 RETURNDATACOPY PUSH26 0x229F8B3D19BC521922FFD7EDD514B2B464736F6C634300081A00 CALLER PUSH1 0x80 PUSH1 0x40 MSTORE CALLVALUE DUP1 ISZERO PUSH2 0xF JUMPI PUSH0 DUP1 REVERT JUMPDEST POP PUSH1 0x40 MLOAD DUP1 PUSH1 0x40 ADD PUSH1 0x40 MSTORE DUP1 PUSH1 0x18 DUP2 MSTORE PUSH1 0x20 ADD PUSH32 0x4C69717569646974792050726F766964657220546F6B656E0000000000000000 DUP2 MSTORE POP PUSH1 0x40 MLOAD DUP1 PUSH1 0x40 ADD PUSH1 0x40 MSTORE DUP1 PUSH1 0x3 DUP2 MSTORE PUSH1 0x20 ADD PUSH32 0x4C50540000000000000000000000000000000000000000000000000000000000 DUP2 MSTORE POP DUP2 PUSH1 0x3 SWAP1 DUP2 PUSH2 0x8B SWAP2 SWAP1 PUSH2 0x31D JUMP JUMPDEST POP DUP1 PUSH1 0x4 SWAP1 DUP2 PUSH2 0x9B SWAP2 SWAP1 PUSH2 0x31D JUMP JUMPDEST POP POP POP CALLER PUSH1 0x5 PUSH0 PUSH2 0x100 EXP DUP2 SLOAD DUP2 PUSH20 0xFFFFFFFFFFFFFFFFFFFFFFFFFFFFFFFFFFFFFFFF MUL NOT AND SWAP1 DUP4 PUSH20 0xFFFFFFFFFFFFFFFFFFFFFFFFFFFFFFFFFFFFFFFF AND MUL OR SWAP1 SSTORE POP PUSH2 0x3EC JUMP JUMPDEST PUSH0 DUP2 MLOAD SWAP1 POP SWAP2 SWAP1 POP JUMP JUMPDEST PUSH32 0x4E487B7100000000000000000000000000000000000000000000000000000000 PUSH0 MSTORE PUSH1 0x41 PUSH1 0x4 MSTORE PUSH1 0x24 PUSH0 REVERT JUMPDEST PUSH32 0x4E487B7100000000000000000000000000000000000000000000000000000000 PUSH0 MSTORE PUSH1 0x22 PUSH1 0x4 MSTORE PUSH1 0x24 PUSH0 REVERT JUMPDEST PUSH0 PUSH1 0x2 DUP3 DIV SWAP1 POP PUSH1 0x1 DUP3 AND DUP1 PUSH2 0x15E JUMPI PUSH1 0x7F DUP3 AND SWAP2 POP JUMPDEST PUSH1 0x20 DUP3 LT DUP2 SUB PUSH2 0x171 JUMPI PUSH2 0x170 PUSH2 0x11A JUMP JUMPDEST JUMPDEST POP SWAP2 SWAP1 POP JUMP JUMPDEST PUSH0 DUP2 SWAP1 POP DUP2 PUSH0 MSTORE PUSH1 0x20 PUSH0 KECCAK256 SWAP1 POP SWAP2 SWAP1 POP JUMP JUMPDEST PUSH0 PUSH1 0x20 PUSH1 0x1F DUP4 ADD DIV SWAP1 POP SWAP2 SWAP1 POP JUMP JUMPDEST PUSH0 DUP3 DUP3 SHL SWAP1 POP SWAP3 SWAP2 POP POP JUMP JUMPDEST PUSH0 PUSH1 0x8 DUP4 MUL PUSH2 0x1D3 PUSH32 0xFFFFFFFFFFFFFFFFFFFFFFFFFFFFFFFFFFFFFFFFFFFFFFFFFFFFFFFFFFFFFFFF DUP3 PUSH2 0x198 JUMP JUMPDEST PUSH2 0x1DD DUP7 DUP4 PUSH2 0x198 JUMP JUMPDEST SWAP6 POP DUP1 NOT DUP5 AND SWAP4 POP DUP1 DUP7 AND DUP5 OR SWAP3 POP POP POP SWAP4 SWAP3 POP POP POP JUMP JUMPDEST PUSH0 DUP2 SWAP1 POP SWAP2 SWAP1 POP JUMP JUMPDEST PUSH0 DUP2 SWAP1 POP SWAP2 SWAP1 POP JUMP JUMPDEST PUSH0 PUSH2 0x221 PUSH2 0x21C PUSH2 0x217 DUP5 PUSH2 0x1F5 JUMP JUMPDEST PUSH2 0x1FE JUMP JUMPDEST PUSH2 0x1F5 JUMP JUMPDEST SWAP1 POP SWAP2 SWAP1 POP JUMP JUMPDEST PUSH0 DUP2 SWAP1 POP SWAP2 SWAP1 POP JUMP JUMPDEST PUSH2 0x23A DUP4 PUSH2 0x207 JUMP JUMPDEST PUSH2 0x24E PUSH2 0x246 DUP3 PUSH2 0x228 JUMP JUMPDEST DUP5 DUP5 SLOAD PUSH2 0x1A4 JUMP JUMPDEST DUP3 SSTORE POP POP POP POP JUMP JUMPDEST PUSH0 SWAP1 JUMP JUMPDEST PUSH2 0x262 PUSH2 0x256 JUMP JUMPDEST PUSH2 0x26D DUP2 DUP5 DUP5 PUSH2 0x231 JUMP JUMPDEST POP POP POP JUMP JUMPDEST JUMPDEST DUP2 DUP2 LT ISZERO PUSH2 0x290 JUMPI PUSH2 0x285 PUSH0 DUP3 PUSH2 0x25A JUMP JUMPDEST PUSH1 0x1 DUP2 ADD SWAP1 POP PUSH2 0x273 JUMP JUMPDEST POP POP JUMP JUMPDEST PUSH1 0x1F DUP3 GT ISZERO PUSH2 0x2D5 JUMPI PUSH2 0x2A6 DUP2 PUSH2 0x177 JUMP JUMPDEST PUSH2 0x2AF DUP5 PUSH2 0x189 JUMP JUMPDEST DUP2 ADD PUSH1 0x20 DUP6 LT ISZERO PUSH2 0x2BE JUMPI DUP2 SWAP1 POP JUMPDEST PUSH2 0x2D2 PUSH2 0x2CA DUP6 PUSH2 0x189 JUMP JUMPDEST DUP4 ADD DUP3 PUSH2 0x272 JUMP JUMPDEST POP POP JUMPDEST POP POP POP JUMP JUMPDEST PUSH0 DUP3 DUP3 SHR SWAP1 POP SWAP3 SWAP2 POP POP JUMP JUMPDEST PUSH0 PUSH2 0x2F5 PUSH0 NOT DUP5 PUSH1 0x8 MUL PUSH2 0x2DA JUMP JUMPDEST NOT DUP1 DUP4 AND SWAP2 POP POP SWAP3 SWAP2 POP POP JUMP JUMPDEST PUSH0 PUSH2 0x30D DUP4 DUP4 PUSH2 0x2E6 JUMP JUMPDEST SWAP2 POP DUP3 PUSH1 0x2 MUL DUP3 OR SWAP1 POP SWAP3 SWAP2 POP POP JUMP JUMPDEST PUSH2 0x326 DUP3 PUSH2 0xE3 JUMP JUMPDEST PUSH8 0xFFFFFFFFFFFFFFFF DUP2 GT ISZERO PUSH2 0x33F JUMPI PUSH2 0x33E PUSH2 0xED JUMP JUMPDEST JUMPDEST PUSH2 0x349 DUP3 SLOAD PUSH2 0x147 JUMP JUMPDEST PUSH2 0x354 DUP3 DUP3 DUP6 PUSH2 0x294 JUMP JUMPDEST PUSH0 PUSH1 0x20 SWAP1 POP PUSH1 0x1F DUP4 GT PUSH1 0x1 DUP2 EQ PUSH2 0x385 JUMPI PUSH0 DUP5 ISZERO PUSH2 0x373 JUMPI DUP3 DUP8 ADD MLOAD SWAP1 POP JUMPDEST PUSH2 0x37D DUP6 DUP3 PUSH2 0x302 JUMP JUMPDEST DUP7 SSTORE POP PUSH2 0x3E4 JUMP JUMPDEST PUSH1 0x1F NOT DUP5 AND PUSH2 0x393 DUP7 PUSH2 0x177 JUMP JUMPDEST PUSH0 JUMPDEST DUP3 DUP2 LT ISZERO PUSH2 0x3BA JUMPI DUP5 DUP10 ADD MLOAD DUP3 SSTORE PUSH1 0x1 DUP3 ADD SWAP2 POP PUSH1 0x20 DUP6 ADD SWAP5 POP PUSH1 0x20 DUP2 ADD SWAP1 POP PUSH2 0x395 JUMP JUMPDEST DUP7 DUP4 LT ISZERO PUSH2 0x3D7 JUMPI DUP5 DUP10 ADD MLOAD PUSH2 0x3D3 PUSH1 0x1F DUP10 AND DUP3 PUSH2 0x2E6 JUMP JUMPDEST DUP4 SSTORE POP JUMPDEST PUSH1 0x1 PUSH1 0x2 DUP9 MUL ADD DUP9 SSTORE POP POP POP JUMPDEST POP POP POP POP POP POP JUMP JUMPDEST PUSH2 0x1186 DUP1 PUSH2 0x3F9 PUSH0 CODECOPY PUSH0 RETURN INVALID PUSH1 0x80 PUSH1 0x40 MSTORE CALLVALUE DUP1 ISZERO PUSH2 0xF JUMPI PUSH0 DUP1 REVERT JUMPDEST POP PUSH1 0x4 CALLDATASIZE LT PUSH2 0xB2 JUMPI PUSH0 CALLDATALOAD PUSH1 0xE0 SHR DUP1 PUSH4 0x40C10F19 GT PUSH2 0x6F JUMPI DUP1 PUSH4 0x40C10F19 EQ PUSH2 0x18E JUMPI DUP1 PUSH4 0x70A08231 EQ PUSH2 0x1AA JUMPI DUP1 PUSH4 0x95D89B41 EQ PUSH2 0x1DA JUMPI DUP1 PUSH4 0x9DC29FAC EQ PUSH2 0x1F8 JUMPI DUP1 PUSH4 0xA9059CBB EQ PUSH2 0x214 JUMPI DUP1 PUSH4 0xDD62ED3E EQ PUSH2 0x244 JUMPI PUSH2 0xB2 JUMP JUMPDEST DUP1 PUSH4 0x6FDDE03 EQ PUSH2 0xB6 JUMPI DUP1 PUSH4 0x95EA7B3 EQ PUSH2 0xD4 JUMPI DUP1 PUSH4 0x16F0115B EQ PUSH2 0x104 JUMPI DUP1 PUSH4 0x18160DDD EQ PUSH2 0x122 JUMPI DUP1 PUSH4 0x23B872DD EQ PUSH2 0x140 JUMPI DUP1 PUSH4 0x313CE567 EQ PUSH2 0x170 JUMPI JUMPDEST PUSH0 DUP1 REVERT JUMPDEST PUSH2 0xBE PUSH2 0x274 JUMP JUMPDEST PUSH1 0x40 MLOAD PUSH2 0xCB SWAP2 SWAP1 PUSH2 0xD2F JUMP JUMPDEST PUSH1 0x40 MLOAD DUP1 SWAP2 SUB SWAP1 RETURN JUMPDEST PUSH2 0xEE PUSH1 0x4 DUP1 CALLDATASIZE SUB DUP2 ADD SWAP1 PUSH2 0xE9 SWAP2 SWAP1 PUSH2 0xDE0 JUMP JUMPDEST PUSH2 0x304 JUMP JUMPDEST PUSH1 0x40 MLOAD PUSH2 0xFB SWAP2 SWAP1 PUSH2 0xE38 JUMP JUMPDEST PUSH1 0x40 MLOAD DUP1 SWAP2 SUB SWAP1 RETURN JUMPDEST PUSH2 0x10C PUSH2 0x326 JUMP JUMPDEST PUSH1 0x40 MLOAD PUSH2 0x119 SWAP2 SWAP1 PUSH2 0xE60 JUMP JUMPDEST PUSH1 0x40 MLOAD DUP1 SWAP2 SUB SWAP1 RETURN JUMPDEST PUSH2 0x12A PUSH2 0x34B JUMP JUMPDEST PUSH1 0x40 MLOAD PUSH2 0x137 SWAP2 SWAP1 PUSH2 0xE88 JUMP JUMPDEST PUSH1 0x40 MLOAD DUP1 SWAP2 SUB SWAP1 RETURN JUMPDEST PUSH2 0x15A PUSH1 0x4 DUP1 CALLDATASIZE SUB DUP2 ADD SWAP1 PUSH2 0x155 SWAP2 SWAP1 PUSH2 0xEA1 JUMP JUMPDEST PUSH2 0x354 JUMP JUMPDEST PUSH1 0x40 MLOAD PUSH2 0x167 SWAP2 SWAP1 PUSH2 0xE38 JUMP JUMPDEST PUSH1 0x40 MLOAD DUP1 SWAP2 SUB SWAP1 RETURN JUMPDEST PUSH2 0x178 PUSH2 0x382 JUMP JUMPDEST PUSH1 0x40 MLOAD PUSH2 0x185 SWAP2 SWAP1 PUSH2 0xF0C JUMP JUMPDEST PUSH1 0x40 MLOAD DUP1 SWAP2 SUB SWAP1 RETURN JUMPDEST PUSH2 0x1A8 PUSH1 0x4 DUP1 CALLDATASIZE SUB DUP2 ADD SWAP1 PUSH2 0x1A3 SWAP2 SWAP1 PUSH2 0xDE0 JUMP JUMPDEST PUSH2 0x38A JUMP JUMPDEST STOP JUMPDEST PUSH2 0x1C4 PUSH1 0x4 DUP1 CALLDATASIZE SUB DUP2 ADD SWAP1 PUSH2 0x1BF SWAP2 SWAP1 PUSH2 0xF25 JUMP JUMPDEST PUSH2 0x427 JUMP JUMPDEST PUSH1 0x40 MLOAD PUSH2 0x1D1 SWAP2 SWAP1 PUSH2 0xE88 JUMP JUMPDEST PUSH1 0x40 MLOAD DUP1 SWAP2 SUB SWAP1 RETURN JUMPDEST PUSH2 0x1E2 PUSH2 0x46C JUMP JUMPDEST PUSH1 0x40 MLOAD PUSH2 0x1EF SWAP2 SWAP1 PUSH2 0xD2F JUMP JUMPDEST PUSH1 0x40 MLOAD DUP1 SWAP2 SUB SWAP1 RETURN JUMPDEST PUSH2 0x212 PUSH1 0x4 DUP1 CALLDATASIZE SUB DUP2 ADD SWAP1 PUSH2 0x20D SWAP2 SWAP1 PUSH2 0xDE0 JUMP JUMPDEST PUSH2 0x4FC JUMP JUMPDEST STOP JUMPDEST PUSH2 0x22E PUSH1 0x4 DUP1 CALLDATASIZE SUB DUP2 ADD SWAP1 PUSH2 0x229 SWAP2 SWAP1 PUSH2 0xDE0 JUMP JUMPDEST PUSH2 0x599 JUMP JUMPDEST PUSH1 0x40 MLOAD PUSH2 0x23B SWAP2 SWAP1 PUSH2 0xE38 JUMP JUMPDEST PUSH1 0x40 MLOAD DUP1 SWAP2 SUB SWAP1 RETURN JUMPDEST PUSH2 0x25E PUSH1 0x4 DUP1 CALLDATASIZE SUB DUP2 ADD SWAP1 PUSH2 0x259 SWAP2 SWAP1 PUSH2 0xF50 JUMP JUMPDEST PUSH2 0x5BB JUMP JUMPDEST PUSH1 0x40 MLOAD PUSH2 0x26B SWAP2 SWAP1 PUSH2 0xE88 JUMP JUMPDEST PUSH1 0x40 MLOAD DUP1 SWAP2 SUB SWAP1 RETURN JUMPDEST PUSH1 0x60 PUSH1 0x3 DUP1 SLOAD PUSH2 0x283 SWAP1 PUSH2 0xFBB JUMP JUMPDEST DUP1 PUSH1 0x1F ADD PUSH1 0x20 DUP1 SWAP2 DIV MUL PUSH1 0x20 ADD PUSH1 0x40 MLOAD SWAP1 DUP2 ADD PUSH1 0x40 MSTORE DUP1 SWAP3 SWAP2 SWAP1 DUP2 DUP2 MSTORE PUSH1 0x20 ADD DUP3 DUP1 SLOAD PUSH2 0x2AF SWAP1 PUSH2 0xFBB JUMP JUMPDEST DUP1 ISZERO PUSH2 0x2FA JUMPI DUP1 PUSH1 0x1F LT PUSH2 0x2D1 JUMPI PUSH2 0x100 DUP1 DUP4 SLOAD DIV MUL DUP4 MSTORE SWAP2 PUSH1 0x20 ADD SWAP2 PUSH2 0x2FA JUMP JUMPDEST DUP3 ADD SWAP2 SWAP1 PUSH0 MSTORE PUSH1 0x20 PUSH0 KECCAK256 SWAP1 JUMPDEST DUP2 SLOAD DUP2 MSTORE SWAP1 PUSH1 0x1 ADD SWAP1 PUSH1 0x20 ADD DUP1 DUP4 GT PUSH2 0x2DD JUMPI DUP3 SWAP1 SUB PUSH1 0x1F AND DUP3 ADD SWAP2 JUMPDEST POP POP POP POP POP SWAP1 POP SWAP1 JUMP JUMPDEST PUSH0 DUP1 PUSH2 0x30E PUSH2 0x63D JUMP JUMPDEST SWAP1 POP PUSH2 0x31B DUP2 DUP6 DUP6 PUSH2 0x644 JUMP JUMPDEST PUSH1 0x1 SWAP2 POP POP SWAP3 SWAP2 POP POP JUMP JUMPDEST PUSH1 0x5 PUSH0 SWAP1 SLOAD SWAP1 PUSH2 0x100 EXP SWAP1 DIV PUSH20 0xFFFFFFFFFFFFFFFFFFFFFFFFFFFFFFFFFFFFFFFF AND DUP2 JUMP JUMPDEST PUSH0 PUSH1 0x2 SLOAD SWAP1 POP SWAP1 JUMP JUMPDEST PUSH0 DUP1 PUSH2 0x35E PUSH2 0x63D JUMP JUMPDEST SWAP1 POP PUSH2 0x36B DUP6 DUP3 DUP6 PUSH2 0x656 JUMP JUMPDEST PUSH2 0x376 DUP6 DUP6 DUP6 PUSH2 0x6E9 JUMP JUMPDEST PUSH1 0x1 SWAP2 POP POP SWAP4 SWAP3 POP POP POP JUMP JUMPDEST PUSH0 PUSH1 0x12 SWAP1 POP SWAP1 JUMP JUMPDEST PUSH1 0x5 PUSH0 SWAP1 SLOAD SWAP1 PUSH2 0x100 EXP SWAP1 DIV PUSH20 0xFFFFFFFFFFFFFFFFFFFFFFFFFFFFFFFFFFFFFFFF AND PUSH20 0xFFFFFFFFFFFFFFFFFFFFFFFFFFFFFFFFFFFFFFFF AND CALLER PUSH20 0xFFFFFFFFFFFFFFFFFFFFFFFFFFFFFFFFFFFFFFFF AND EQ PUSH2 0x419 JUMPI PUSH1 0x40 MLOAD PUSH32 0x8C379A000000000000000000000000000000000000000000000000000000000 DUP2 MSTORE PUSH1 0x4 ADD PUSH2 0x410 SWAP1 PUSH2 0x1035 JUMP JUMPDEST PUSH1 0x40 MLOAD DUP1 SWAP2 SUB SWAP1 REVERT JUMPDEST PUSH2 0x423 DUP3 DUP3 PUSH2 0x7D9 JUMP JUMPDEST POP POP JUMP JUMPDEST PUSH0 DUP1 PUSH0 DUP4 PUSH20 0xFFFFFFFFFFFFFFFFFFFFFFFFFFFFFFFFFFFFFFFF AND PUSH20 0xFFFFFFFFFFFFFFFFFFFFFFFFFFFFFFFFFFFFFFFF AND DUP2 MSTORE PUSH1 0x20 ADD SWAP1 DUP2 MSTORE PUSH1 0x20 ADD PUSH0 KECCAK256 SLOAD SWAP1 POP SWAP2 SWAP1 POP JUMP JUMPDEST PUSH1 0x60 PUSH1 0x4 DUP1 SLOAD PUSH2 0x47B SWAP1 PUSH2 0xFBB JUMP JUMPDEST DUP1 PUSH1 0x1F ADD PUSH1 0x20 DUP1 SWAP2 DIV MUL PUSH1 0x20 ADD PUSH1 0x40 MLOAD SWAP1 DUP2 ADD PUSH1 0x40 MSTORE DUP1 SWAP3 SWAP2 SWAP1 DUP2 DUP2 MSTORE PUSH1 0x20 ADD DUP3 DUP1 SLOAD PUSH2 0x4A7 SWAP1 PUSH2 0xFBB JUMP JUMPDEST DUP1 ISZERO PUSH2 0x4F2 JUMPI DUP1 PUSH1 0x1F LT PUSH2 0x4C9 JUMPI PUSH2 0x100 DUP1 DUP4 SLOAD DIV MUL DUP4 MSTORE SWAP2 PUSH1 0x20 ADD SWAP2 PUSH2 0x4F2 JUMP JUMPDEST DUP3 ADD SWAP2 SWAP1 PUSH0 MSTORE PUSH1 0x20 PUSH0 KECCAK256 SWAP1 JUMPDEST DUP2 SLOAD DUP2 MSTORE SWAP1 PUSH1 0x1 ADD SWAP1 PUSH1 0x20 ADD DUP1 DUP4 GT PUSH2 0x4D5 JUMPI DUP3 SWAP1 SUB PUSH1 0x1F AND DUP3 ADD SWAP2 JUMPDEST POP POP POP POP POP SWAP1 POP SWAP1 JUMP JUMPDEST PUSH1 0x5 PUSH0 SWAP1 SLOAD SWAP1 PUSH2 0x100 EXP SWAP1 DIV PUSH20 0xFFFFFFFFFFFFFFFFFFFFFFFFFFFFFFFFFFFFFFFF AND PUSH20 0xFFFFFFFFFFFFFFFFFFFFFFFFFFFFFFFFFFFFFFFF AND CALLER PUSH20 0xFFFFFFFFFFFFFFFFFFFFFFFFFFFFFFFFFFFFFFFF AND EQ PUSH2 0x58B JUMPI PUSH1 0x40 MLOAD PUSH32 0x8C379A000000000000000000000000000000000000000000000000000000000 DUP2 MSTORE PUSH1 0x4 ADD PUSH2 0x582 SWAP1 PUSH2 0x109D JUMP JUMPDEST PUSH1 0x40 MLOAD DUP1 SWAP2 SUB SWAP1 REVERT JUMPDEST PUSH2 0x595 DUP3 DUP3 PUSH2 0x858 JUMP JUMPDEST POP POP JUMP JUMPDEST PUSH0 DUP1 PUSH2 0x5A3 PUSH2 0x63D JUMP JUMPDEST SWAP1 POP PUSH2 0x5B0 DUP2 DUP6 DUP6 PUSH2 0x6E9 JUMP JUMPDEST PUSH1 0x1 SWAP2 POP POP SWAP3 SWAP2 POP POP JUMP JUMPDEST PUSH0 PUSH1 0x1 PUSH0 DUP5 PUSH20 0xFFFFFFFFFFFFFFFFFFFFFFFFFFFFFFFFFFFFFFFF AND PUSH20 0xFFFFFFFFFFFFFFFFFFFFFFFFFFFFFFFFFFFFFFFF AND DUP2 MSTORE PUSH1 0x20 ADD SWAP1 DUP2 MSTORE PUSH1 0x20 ADD PUSH0 KECCAK256 PUSH0 DUP4 PUSH20 0xFFFFFFFFFFFFFFFFFFFFFFFFFFFFFFFFFFFFFFFF AND PUSH20 0xFFFFFFFFFFFFFFFFFFFFFFFFFFFFFFFFFFFFFFFF AND DUP2 MSTORE PUSH1 0x20 ADD SWAP1 DUP2 MSTORE PUSH1 0x20 ADD PUSH0 KECCAK256 SLOAD SWAP1 POP SWAP3 SWAP2 POP POP JUMP JUMPDEST PUSH0 CALLER SWAP1 POP SWAP1 JUMP JUMPDEST PUSH2 0x651 DUP4 DUP4 DUP4 PUSH1 0x1 PUSH2 0x8D7 JUMP JUMPDEST POP POP POP JUMP JUMPDEST PUSH0 PUSH2 0x661 DUP5 DUP5 PUSH2 0x5BB JUMP JUMPDEST SWAP1 POP PUSH32 0xFFFFFFFFFFFFFFFFFFFFFFFFFFFFFFFFFFFFFFFFFFFFFFFFFFFFFFFFFFFFFFFF DUP2 LT ISZERO PUSH2 0x6E3 JUMPI DUP2 DUP2 LT ISZERO PUSH2 0x6D4 JUMPI DUP3 DUP2 DUP4 PUSH1 0x40 MLOAD PUSH32 0xFB8F41B200000000000000000000000000000000000000000000000000000000 DUP2 MSTORE PUSH1 0x4 ADD PUSH2 0x6CB SWAP4 SWAP3 SWAP2 SWAP1 PUSH2 0x10BB JUMP JUMPDEST PUSH1 0x40 MLOAD DUP1 SWAP2 SUB SWAP1 REVERT JUMPDEST PUSH2 0x6E2 DUP5 DUP5 DUP5 DUP5 SUB PUSH0 PUSH2 0x8D7 JUMP JUMPDEST JUMPDEST POP POP POP POP JUMP JUMPDEST PUSH0 PUSH20 0xFFFFFFFFFFFFFFFFFFFFFFFFFFFFFFFFFFFFFFFF AND DUP4 PUSH20 0xFFFFFFFFFFFFFFFFFFFFFFFFFFFFFFFFFFFFFFFF AND SUB PUSH2 0x759 JUMPI PUSH0 PUSH1 0x40 MLOAD PUSH32 0x96C6FD1E00000000000000000000000000000000000000000000000000000000 DUP2 MSTORE PUSH1 0x4 ADD PUSH2 0x750 SWAP2 SWAP1 PUSH2 0xE60 JUMP JUMPDEST PUSH1 0x40 MLOAD DUP1 SWAP2 SUB SWAP1 REVERT JUMPDEST PUSH0 PUSH20 0xFFFFFFFFFFFFFFFFFFFFFFFFFFFFFFFFFFFFFFFF AND DUP3 PUSH20 0xFFFFFFFFFFFFFFFFFFFFFFFFFFFFFFFFFFFFFFFF AND SUB PUSH2 0x7C9 JUMPI PUSH0 PUSH1 0x40 MLOAD PUSH32 0xEC442F0500000000000000000000000000000000000000000000000000000000 DUP2 MSTORE PUSH1 0x4 ADD PUSH2 0x7C0 SWAP2 SWAP1 PUSH2 0xE60 JUMP JUMPDEST PUSH1 0x40 MLOAD DUP1 SWAP2 SUB SWAP1 REVERT JUMPDEST PUSH2 0x7D4 DUP4 DUP4 DUP4 PUSH2 0xAA6 JUMP JUMPDEST POP POP POP JUMP JUMPDEST PUSH0 PUSH20 0xFFFFFFFFFFFFFFFFFFFFFFFFFFFFFFFFFFFFFFFF AND DUP3 PUSH20 0xFFFFFFFFFFFFFFFFFFFFFFFFFFFFFFFFFFFFFFFF AND SUB PUSH2 0x849 JUMPI PUSH0 PUSH1 0x40 MLOAD PUSH32 0xEC442F0500000000000000000000000000000000000000000000000000000000 DUP2 MSTORE PUSH1 0x4 ADD PUSH2 0x840 SWAP2 SWAP1 PUSH2 0xE60 JUMP JUMPDEST PUSH1 0x40 MLOAD DUP1 SWAP2 SUB SWAP1 REVERT JUMPDEST PUSH2 0x854 PUSH0 DUP4 DUP4 PUSH2 0xAA6 JUMP JUMPDEST POP POP JUMP JUMPDEST PUSH0 PUSH20 0xFFFFFFFFFFFFFFFFFFFFFFFFFFFFFFFFFFFFFFFF AND DUP3 PUSH20 0xFFFFFFFFFFFFFFFFFFFFFFFFFFFFFFFFFFFFFFFF AND SUB PUSH2 0x8C8 JUMPI PUSH0 PUSH1 0x40 MLOAD PUSH32 0x96C6FD1E00000000000000000000000000000000000000000000000000000000 DUP2 MSTORE PUSH1 0x4 ADD PUSH2 0x8BF SWAP2 SWAP1 PUSH2 0xE60 JUMP JUMPDEST PUSH1 0x40 MLOAD DUP1 SWAP2 SUB SWAP1 REVERT JUMPDEST PUSH2 0x8D3 DUP3 PUSH0 DUP4 PUSH2 0xAA6 JUMP JUMPDEST POP POP JUMP JUMPDEST PUSH0 PUSH20 0xFFFFFFFFFFFFFFFFFFFFFFFFFFFFFFFFFFFFFFFF AND DUP5 PUSH20 0xFFFFFFFFFFFFFFFFFFFFFFFFFFFFFFFFFFFFFFFF AND SUB PUSH2 0x947 JUMPI PUSH0 PUSH1 0x40 MLOAD PUSH32 0xE602DF0500000000000000000000000000000000000000000000000000000000 DUP2 MSTORE PUSH1 0x4 ADD PUSH2 0x93E SWAP2 SWAP1 PUSH2 0xE60 JUMP JUMPDEST PUSH1 0x40 MLOAD DUP1 SWAP2 SUB SWAP1 REVERT JUMPDEST PUSH0 PUSH20 0xFFFFFFFFFFFFFFFFFFFFFFFFFFFFFFFFFFFFFFFF AND DUP4 PUSH20 0xFFFFFFFFFFFFFFFFFFFFFFFFFFFFFFFFFFFFFFFF AND SUB PUSH2 0x9B7 JUMPI PUSH0 PUSH1 0x40 MLOAD PUSH32 0x94280D6200000000000000000000000000000000000000000000000000000000 DUP2 MSTORE PUSH1 0x4 ADD PUSH2 0x9AE SWAP2 SWAP1 PUSH2 0xE60 JUMP JUMPDEST PUSH1 0x40 MLOAD DUP1 SWAP2 SUB SWAP1 REVERT JUMPDEST DUP2 PUSH1 0x1 PUSH0 DUP7 PUSH20 0xFFFFFFFFFFFFFFFFFFFFFFFFFFFFFFFFFFFFFFFF AND PUSH20 0xFFFFFFFFFFFFFFFFFFFFFFFFFFFFFFFFFFFFFFFF AND DUP2 MSTORE PUSH1 0x20 ADD SWAP1 DUP2 MSTORE PUSH1 0x20 ADD PUSH0 KECCAK256 PUSH0 DUP6 PUSH20 0xFFFFFFFFFFFFFFFFFFFFFFFFFFFFFFFFFFFFFFFF AND PUSH20 0xFFFFFFFFFFFFFFFFFFFFFFFFFFFFFFFFFFFFFFFF AND DUP2 MSTORE PUSH1 0x20 ADD SWAP1 DUP2 MSTORE PUSH1 0x20 ADD PUSH0 KECCAK256 DUP2 SWAP1 SSTORE POP DUP1 ISZERO PUSH2 0xAA0 JUMPI DUP3 PUSH20 0xFFFFFFFFFFFFFFFFFFFFFFFFFFFFFFFFFFFFFFFF AND DUP5 PUSH20 0xFFFFFFFFFFFFFFFFFFFFFFFFFFFFFFFFFFFFFFFF AND PUSH32 0x8C5BE1E5EBEC7D5BD14F71427D1E84F3DD0314C0F7B2291E5B200AC8C7C3B925 DUP5 PUSH1 0x40 MLOAD PUSH2 0xA97 SWAP2 SWAP1 PUSH2 0xE88 JUMP JUMPDEST PUSH1 0x40 MLOAD DUP1 SWAP2 SUB SWAP1 LOG3 JUMPDEST POP POP POP POP JUMP JUMPDEST PUSH0 PUSH20 0xFFFFFFFFFFFFFFFFFFFFFFFFFFFFFFFFFFFFFFFF AND DUP4 PUSH20 0xFFFFFFFFFFFFFFFFFFFFFFFFFFFFFFFFFFFFFFFF AND SUB PUSH2 0xAF6 JUMPI DUP1 PUSH1 0x2 PUSH0 DUP3 DUP3 SLOAD PUSH2 0xAEA SWAP2 SWAP1 PUSH2 0x111D JUMP JUMPDEST SWAP3 POP POP DUP2 SWAP1 SSTORE POP PUSH2 0xBC4 JUMP JUMPDEST PUSH0 DUP1 PUSH0 DUP6 PUSH20 0xFFFFFFFFFFFFFFFFFFFFFFFFFFFFFFFFFFFFFFFF AND PUSH20 0xFFFFFFFFFFFFFFFFFFFFFFFFFFFFFFFFFFFFFFFF AND DUP2 MSTORE PUSH1 0x20 ADD SWAP1 DUP2 MSTORE PUSH1 0x20 ADD PUSH0 KECCAK256 SLOAD SWAP1 POP DUP2 DUP2 LT ISZERO PUSH2 0xB7F JUMPI DUP4 DUP2 DUP4 PUSH1 0x40 MLOAD PUSH32 0xE450D38C00000000000000000000000000000000000000000000000000000000 DUP2 MSTORE PUSH1 0x4 ADD PUSH2 0xB76 SWAP4 SWAP3 SWAP2 SWAP1 PUSH2 0x10BB JUMP JUMPDEST PUSH1 0x40 MLOAD DUP1 SWAP2 SUB SWAP1 REVERT JUMPDEST DUP2 DUP2 SUB PUSH0 DUP1 DUP7 PUSH20 0xFFFFFFFFFFFFFFFFFFFFFFFFFFFFFFFFFFFFFFFF AND PUSH20 0xFFFFFFFFFFFFFFFFFFFFFFFFFFFFFFFFFFFFFFFF AND DUP2 MSTORE PUSH1 0x20 ADD SWAP1 DUP2 MSTORE PUSH1 0x20 ADD PUSH0 KECCAK256 DUP2 SWAP1 SSTORE POP POP JUMPDEST PUSH0 PUSH20 0xFFFFFFFFFFFFFFFFFFFFFFFFFFFFFFFFFFFFFFFF AND DUP3 PUSH20 0xFFFFFFFFFFFFFFFFFFFFFFFFFFFFFFFFFFFFFFFF AND SUB PUSH2 0xC0B JUMPI DUP1 PUSH1 0x2 PUSH0 DUP3 DUP3 SLOAD SUB SWAP3 POP POP DUP2 SWAP1 SSTORE POP PUSH2 0xC55 JUMP JUMPDEST DUP1 PUSH0 DUP1 DUP5 PUSH20 0xFFFFFFFFFFFFFFFFFFFFFFFFFFFFFFFFFFFFFFFF AND PUSH20 0xFFFFFFFFFFFFFFFFFFFFFFFFFFFFFFFFFFFFFFFF AND DUP2 MSTORE PUSH1 0x20 ADD SWAP1 DUP2 MSTORE PUSH1 0x20 ADD PUSH0 KECCAK256 PUSH0 DUP3 DUP3 SLOAD ADD SWAP3 POP POP DUP2 SWAP1 SSTORE POP JUMPDEST DUP2 PUSH20 0xFFFFFFFFFFFFFFFFFFFFFFFFFFFFFFFFFFFFFFFF AND DUP4 PUSH20 0xFFFFFFFFFFFFFFFFFFFFFFFFFFFFFFFFFFFFFFFF AND PUSH32 0xDDF252AD1BE2C89B69C2B068FC378DAA952BA7F163C4A11628F55A4DF523B3EF DUP4 PUSH1 0x40 MLOAD PUSH2 0xCB2 SWAP2 SWAP1 PUSH2 0xE88 JUMP JUMPDEST PUSH1 0x40 MLOAD DUP1 SWAP2 SUB SWAP1 LOG3 POP POP POP JUMP JUMPDEST PUSH0 DUP2 MLOAD SWAP1 POP SWAP2 SWAP1 POP JUMP JUMPDEST PUSH0 DUP3 DUP3 MSTORE PUSH1 0x20 DUP3 ADD SWAP1 POP SWAP3 SWAP2 POP POP JUMP JUMPDEST DUP3 DUP2 DUP4 MCOPY PUSH0 DUP4 DUP4 ADD MSTORE POP POP POP JUMP JUMPDEST PUSH0 PUSH1 0x1F NOT PUSH1 0x1F DUP4 ADD AND SWAP1 POP SWAP2 SWAP1 POP JUMP JUMPDEST PUSH0 PUSH2 0xD01 DUP3 PUSH2 0xCBF JUMP JUMPDEST PUSH2 0xD0B DUP2 DUP6 PUSH2 0xCC9 JUMP JUMPDEST SWAP4 POP PUSH2 0xD1B DUP2 DUP6 PUSH1 0x20 DUP7 ADD PUSH2 0xCD9 JUMP JUMPDEST PUSH2 0xD24 DUP2 PUSH2 0xCE7 JUMP JUMPDEST DUP5 ADD SWAP2 POP POP SWAP3 SWAP2 POP POP JUMP JUMPDEST PUSH0 PUSH1 0x20 DUP3 ADD SWAP1 POP DUP2 DUP2 SUB PUSH0 DUP4 ADD MSTORE PUSH2 0xD47 DUP2 DUP5 PUSH2 0xCF7 JUMP JUMPDEST SWAP1 POP SWAP3 SWAP2 POP POP JUMP JUMPDEST PUSH0 DUP1 REVERT JUMPDEST PUSH0 PUSH20 0xFFFFFFFFFFFFFFFFFFFFFFFFFFFFFFFFFFFFFFFF DUP3 AND SWAP1 POP SWAP2 SWAP1 POP JUMP JUMPDEST PUSH0 PUSH2 0xD7C DUP3 PUSH2 0xD53 JUMP JUMPDEST SWAP1 POP SWAP2 SWAP1 POP JUMP JUMPDEST PUSH2 0xD8C DUP2 PUSH2 0xD72 JUMP JUMPDEST DUP2 EQ PUSH2 0xD96 JUMPI PUSH0 DUP1 REVERT JUMPDEST POP JUMP JUMPDEST PUSH0 DUP2 CALLDATALOAD SWAP1 POP PUSH2 0xDA7 DUP2 PUSH2 0xD83 JUMP JUMPDEST SWAP3 SWAP2 POP POP JUMP JUMPDEST PUSH0 DUP2 SWAP1 POP SWAP2 SWAP1 POP JUMP JUMPDEST PUSH2 0xDBF DUP2 PUSH2 0xDAD JUMP JUMPDEST DUP2 EQ PUSH2 0xDC9 JUMPI PUSH0 DUP1 REVERT JUMPDEST POP JUMP JUMPDEST PUSH0 DUP2 CALLDATALOAD SWAP1 POP PUSH2 0xDDA DUP2 PUSH2 0xDB6 JUMP JUMPDEST SWAP3 SWAP2 POP POP JUMP JUMPDEST PUSH0 DUP1 PUSH1 0x40 DUP4 DUP6 SUB SLT ISZERO PUSH2 0xDF6 JUMPI PUSH2 0xDF5 PUSH2 0xD4F JUMP JUMPDEST JUMPDEST PUSH0 PUSH2 0xE03 DUP6 DUP3 DUP7 ADD PUSH2 0xD99 JUMP JUMPDEST SWAP3 POP POP PUSH1 0x20 PUSH2 0xE14 DUP6 DUP3 DUP7 ADD PUSH2 0xDCC JUMP JUMPDEST SWAP2 POP POP SWAP3 POP SWAP3 SWAP1 POP JUMP JUMPDEST PUSH0 DUP2 ISZERO ISZERO SWAP1 POP SWAP2 SWAP1 POP JUMP JUMPDEST PUSH2 0xE32 DUP2 PUSH2 0xE1E JUMP JUMPDEST DUP3 MSTORE POP POP JUMP JUMPDEST PUSH0 PUSH1 0x20 DUP3 ADD SWAP1 POP PUSH2 0xE4B PUSH0 DUP4 ADD DUP5 PUSH2 0xE29 JUMP JUMPDEST SWAP3 SWAP2 POP POP JUMP JUMPDEST PUSH2 0xE5A DUP2 PUSH2 0xD72 JUMP JUMPDEST DUP3 MSTORE POP POP JUMP JUMPDEST PUSH0 PUSH1 0x20 DUP3 ADD SWAP1 POP PUSH2 0xE73 PUSH0 DUP4 ADD DUP5 PUSH2 0xE51 JUMP JUMPDEST SWAP3 SWAP2 POP POP JUMP JUMPDEST PUSH2 0xE82 DUP2 PUSH2 0xDAD JUMP JUMPDEST DUP3 MSTORE POP POP JUMP JUMPDEST PUSH0 PUSH1 0x20 DUP3 ADD SWAP1 POP PUSH2 0xE9B PUSH0 DUP4 ADD DUP5 PUSH2 0xE79 JUMP JUMPDEST SWAP3 SWAP2 POP POP JUMP JUMPDEST PUSH0 DUP1 PUSH0 PUSH1 0x60 DUP5 DUP7 SUB SLT ISZERO PUSH2 0xEB8 JUMPI PUSH2 0xEB7 PUSH2 0xD4F JUMP JUMPDEST JUMPDEST PUSH0 PUSH2 0xEC5 DUP7 DUP3 DUP8 ADD PUSH2 0xD99 JUMP JUMPDEST SWAP4 POP POP PUSH1 0x20 PUSH2 0xED6 DUP7 DUP3 DUP8 ADD PUSH2 0xD99 JUMP JUMPDEST SWAP3 POP POP PUSH1 0x40 PUSH2 0xEE7 DUP7 DUP3 DUP8 ADD PUSH2 0xDCC JUMP JUMPDEST SWAP2 POP POP SWAP3 POP SWAP3 POP SWAP3 JUMP JUMPDEST PUSH0 PUSH1 0xFF DUP3 AND SWAP1 POP SWAP2 SWAP1 POP JUMP JUMPDEST PUSH2 0xF06 DUP2 PUSH2 0xEF1 JUMP JUMPDEST DUP3 MSTORE POP POP JUMP JUMPDEST PUSH0 PUSH1 0x20 DUP3 ADD SWAP1 POP PUSH2 0xF1F PUSH0 DUP4 ADD DUP5 PUSH2 0xEFD JUMP JUMPDEST SWAP3 SWAP2 POP POP JUMP JUMPDEST PUSH0 PUSH1 0x20 DUP3 DUP5 SUB SLT ISZERO PUSH2 0xF3A JUMPI PUSH2 0xF39 PUSH2 0xD4F JUMP JUMPDEST JUMPDEST PUSH0 PUSH2 0xF47 DUP5 DUP3 DUP6 ADD PUSH2 0xD99 JUMP JUMPDEST SWAP2 POP POP SWAP3 SWAP2 POP POP JUMP JUMPDEST PUSH0 DUP1 PUSH1 0x40 DUP4 DUP6 SUB SLT ISZERO PUSH2 0xF66 JUMPI PUSH2 0xF65 PUSH2 0xD4F JUMP JUMPDEST JUMPDEST PUSH0 PUSH2 0xF73 DUP6 DUP3 DUP7 ADD PUSH2 0xD99 JUMP JUMPDEST SWAP3 POP POP PUSH1 0x20 PUSH2 0xF84 DUP6 DUP3 DUP7 ADD PUSH2 0xD99 JUMP JUMPDEST SWAP2 POP POP SWAP3 POP SWAP3 SWAP1 POP JUMP JUMPDEST PUSH32 0x4E487B7100000000000000000000000000000000000000000000000000000000 PUSH0 MSTORE PUSH1 0x22 PUSH1 0x4 MSTORE PUSH1 0x24 PUSH0 REVERT JUMPDEST PUSH0 PUSH1 0x2 DUP3 DIV SWAP1 POP PUSH1 0x1 DUP3 AND DUP1 PUSH2 0xFD2 JUMPI PUSH1 0x7F DUP3 AND SWAP2 POP JUMPDEST PUSH1 0x20 DUP3 LT DUP2 SUB PUSH2 0xFE5 JUMPI PUSH2 0xFE4 PUSH2 0xF8E JUMP JUMPDEST JUMPDEST POP SWAP2 SWAP1 POP JUMP JUMPDEST PUSH32 0x4F6E6C7920706F6F6C2063616E206D696E740000000000000000000000000000 PUSH0 DUP3 ADD MSTORE POP JUMP JUMPDEST PUSH0 PUSH2 0x101F PUSH1 0x12 DUP4 PUSH2 0xCC9 JUMP JUMPDEST SWAP2 POP PUSH2 0x102A DUP3 PUSH2 0xFEB JUMP JUMPDEST PUSH1 0x20 DUP3 ADD SWAP1 POP SWAP2 SWAP1 POP JUMP JUMPDEST PUSH0 PUSH1 0x20 DUP3 ADD SWAP1 POP DUP2 DUP2 SUB PUSH0 DUP4 ADD MSTORE PUSH2 0x104C DUP2 PUSH2 0x1013 JUMP JUMPDEST SWAP1 POP SWAP2 SWAP1 POP JUMP JUMPDEST PUSH32 0x4F6E6C7920706F6F6C2063616E206275726E0000000000000000000000000000 PUSH0 DUP3 ADD MSTORE POP JUMP JUMPDEST PUSH0 PUSH2 0x1087 PUSH1 0x12 DUP4 PUSH2 0xCC9 JUMP JUMPDEST SWAP2 POP PUSH2 0x1092 DUP3 PUSH2 0x1053 JUMP JUMPDEST PUSH1 0x20 DUP3 ADD SWAP1 POP SWAP2 SWAP1 POP JUMP JUMPDEST PUSH0 PUSH1 0x20 DUP3 ADD SWAP1 POP DUP2 DUP2 SUB PUSH0 DUP4 ADD MSTORE PUSH2 0x10B4 DUP2 PUSH2 0x107B JUMP JUMPDEST SWAP1 POP SWAP2 SWAP1 POP JUMP JUMPDEST PUSH0 PUSH1 0x60 DUP3 ADD SWAP1 POP PUSH2 0x10CE PUSH0 DUP4 ADD DUP7 PUSH2 0xE51 JUMP JUMPDEST PUSH2 0x10DB PUSH1 0x20 DUP4 ADD DUP6 PUSH2 0xE79 JUMP JUMPDEST PUSH2 0x10E8 PUSH1 0x40 DUP4 ADD DUP5 PUSH2 0xE79 JUMP JUMPDEST SWAP5 SWAP4 POP POP POP POP JUMP JUMPDEST PUSH32 0x4E487B7100000000000000000000000000000000000000000000000000000000 PUSH0 MSTORE PUSH1 0x11 PUSH1 0x4 MSTORE PUSH1 0x24 PUSH0 REVERT JUMPDEST PUSH0 PUSH2 0x1127 DUP3 PUSH2 0xDAD JUMP JUMPDEST SWAP2 POP PUSH2 0x1132 DUP4 PUSH2 0xDAD JUMP JUMPDEST SWAP3 POP DUP3 DUP3 ADD SWAP1 POP DUP1 DUP3 GT ISZERO PUSH2 0x114A JUMPI PUSH2 0x1149 PUSH2 0x10F0 JUMP JUMPDEST JUMPDEST SWAP3 SWAP2 POP POP JUMP INVALID LOG2 PUSH5 0x6970667358 0x22 SLT KECCAK256 DUP13 0xAD 0x28 0xCB EXP 0xBE SIGNEXTEND 0xB5 GAS 0xB1 PUSH6 0x6D6369BF05CE 0xEB SGT CREATE EXTCODEHASH PUSH22 0x127A2B68560CB49227B364736F6C634300081A003300 "
		},
		"gasEstimates": {
			"creation": {
				"codeDepositCost": "1907400",
				"executionCost": "infinite",
				"totalCost": "infinite"
			},
			"external": {
				"addLiquidity(uint256,uint256)": "infinite",
				"checkSlippage(uint256)": "infinite",
				"checkSlippageB(uint256)": "infinite",
				"expextedSlippage()": "2469",
				"feePercentage()": "2514",
				"getExpectedTokenA(uint256)": "infinite",
				"getExpectedTokenB(uint256)": "infinite",
				"getLPTokenAddress()": "2603",
				"getPrice()": "infinite",
				"getReserves()": "infinite",
				"getUserLPBalance(address)": "infinite",
				"lpToken()": "infinite",
				"owner()": "2619",
				"removeLiquidity(uint256)": "infinite",
				"reserveA()": "2535",
				"reserveB()": "2515",
				"setSlipage(uint256)": "24817",
				"swapAtoB(uint256,uint256)": "infinite",
				"swapBtoA(uint256,uint256)": "infinite",
				"tokenA()": "infinite",
				"tokenB()": "infinite"
			},
			"internal": {
				"min(uint256,uint256)": "63",
				"sqrt(uint256)": "infinite"
			}
		},
		"methodIdentifiers": {
			"addLiquidity(uint256,uint256)": "9cd441da",
			"checkSlippage(uint256)": "670053c8",
			"checkSlippageB(uint256)": "c4604b33",
			"expextedSlippage()": "be8e89fc",
			"feePercentage()": "a001ecdd",
			"getExpectedTokenA(uint256)": "bae38d58",
			"getExpectedTokenB(uint256)": "7a88266a",
			"getLPTokenAddress()": "c9e57aa6",
			"getPrice()": "98d5fdca",
			"getReserves()": "0902f1ac",
			"getUserLPBalance(address)": "06ebcc6d",
			"lpToken()": "5fcbd285",
			"owner()": "8da5cb5b",
			"removeLiquidity(uint256)": "9c8f9f23",
			"reserveA()": "dc5fa6c5",
			"reserveB()": "19e36f3b",
			"setSlipage(uint256)": "b9c8c4ba",
			"swapAtoB(uint256,uint256)": "f0b456e9",
			"swapBtoA(uint256,uint256)": "4242ec52",
			"tokenA()": "0fc63d10",
			"tokenB()": "5f64b55b"
		}
	},
	"abi": [
		{
			"inputs": [
				{
					"internalType": "address",
					"name": "_tokenA",
					"type": "address"
				},
				{
					"internalType": "address",
					"name": "_tokenB",
					"type": "address"
				}
			],
			"stateMutability": "nonpayable",
			"type": "constructor"
		},
		{
			"inputs": [
				{
					"internalType": "uint256",
					"name": "amountA",
					"type": "uint256"
				},
				{
					"internalType": "uint256",
					"name": "amountB",
					"type": "uint256"
				}
			],
			"name": "addLiquidity",
			"outputs": [
				{
					"internalType": "uint256",
					"name": "liquidity",
					"type": "uint256"
				}
			],
			"stateMutability": "nonpayable",
			"type": "function"
		},
		{
			"inputs": [
				{
					"internalType": "uint256",
					"name": "amountIn",
					"type": "uint256"
				}
			],
			"name": "checkSlippage",
			"outputs": [
				{
					"internalType": "uint256",
					"name": "",
					"type": "uint256"
				}
			],
			"stateMutability": "view",
			"type": "function"
		},
		{
			"inputs": [
				{
					"internalType": "uint256",
					"name": "amountIn",
					"type": "uint256"
				}
			],
			"name": "checkSlippageB",
			"outputs": [
				{
					"internalType": "uint256",
					"name": "",
					"type": "uint256"
				}
			],
			"stateMutability": "view",
			"type": "function"
		},
		{
			"inputs": [],
			"name": "expextedSlippage",
			"outputs": [
				{
					"internalType": "uint256",
					"name": "",
					"type": "uint256"
				}
			],
			"stateMutability": "view",
			"type": "function"
		},
		{
			"inputs": [],
			"name": "feePercentage",
			"outputs": [
				{
					"internalType": "uint256",
					"name": "",
					"type": "uint256"
				}
			],
			"stateMutability": "view",
			"type": "function"
		},
		{
			"inputs": [
				{
					"internalType": "uint256",
					"name": "amountIn",
					"type": "uint256"
				}
			],
			"name": "getExpectedTokenA",
			"outputs": [
				{
					"internalType": "uint256",
					"name": "expectedOut",
					"type": "uint256"
				}
			],
			"stateMutability": "view",
			"type": "function"
		},
		{
			"inputs": [
				{
					"internalType": "uint256",
					"name": "amountIn",
					"type": "uint256"
				}
			],
			"name": "getExpectedTokenB",
			"outputs": [
				{
					"internalType": "uint256",
					"name": "expectedOut",
					"type": "uint256"
				}
			],
			"stateMutability": "view",
			"type": "function"
		},
		{
			"inputs": [],
			"name": "getLPTokenAddress",
			"outputs": [
				{
					"internalType": "address",
					"name": "",
					"type": "address"
				}
			],
			"stateMutability": "view",
			"type": "function"
		},
		{
			"inputs": [],
			"name": "getPrice",
			"outputs": [
				{
					"internalType": "uint256",
					"name": "",
					"type": "uint256"
				}
			],
			"stateMutability": "view",
			"type": "function"
		},
		{
			"inputs": [],
			"name": "getReserves",
			"outputs": [
				{
					"internalType": "uint256",
					"name": "",
					"type": "uint256"
				},
				{
					"internalType": "uint256",
					"name": "",
					"type": "uint256"
				}
			],
			"stateMutability": "view",
			"type": "function"
		},
		{
			"inputs": [
				{
					"internalType": "address",
					"name": "user",
					"type": "address"
				}
			],
			"name": "getUserLPBalance",
			"outputs": [
				{
					"internalType": "uint256",
					"name": "",
					"type": "uint256"
				}
			],
			"stateMutability": "view",
			"type": "function"
		},
		{
			"inputs": [],
			"name": "lpToken",
			"outputs": [
				{
					"internalType": "contract LPToken",
					"name": "",
					"type": "address"
				}
			],
			"stateMutability": "view",
			"type": "function"
		},
		{
			"inputs": [],
			"name": "owner",
			"outputs": [
				{
					"internalType": "address",
					"name": "",
					"type": "address"
				}
			],
			"stateMutability": "view",
			"type": "function"
		},
		{
			"inputs": [
				{
					"internalType": "uint256",
					"name": "liquidity",
					"type": "uint256"
				}
			],
			"name": "removeLiquidity",
			"outputs": [],
			"stateMutability": "nonpayable",
			"type": "function"
		},
		{
			"inputs": [],
			"name": "reserveA",
			"outputs": [
				{
					"internalType": "uint256",
					"name": "",
					"type": "uint256"
				}
			],
			"stateMutability": "view",
			"type": "function"
		},
		{
			"inputs": [],
			"name": "reserveB",
			"outputs": [
				{
					"internalType": "uint256",
					"name": "",
					"type": "uint256"
				}
			],
			"stateMutability": "view",
			"type": "function"
		},
		{
			"inputs": [
				{
					"internalType": "uint256",
					"name": "_expectedSlipage",
					"type": "uint256"
				}
			],
			"name": "setSlipage",
			"outputs": [],
			"stateMutability": "nonpayable",
			"type": "function"
		},
		{
			"inputs": [
				{
					"internalType": "uint256",
					"name": "amountIn",
					"type": "uint256"
				},
				{
					"internalType": "uint256",
					"name": "expectSlippage",
					"type": "uint256"
				}
			],
			"name": "swapAtoB",
			"outputs": [
				{
					"internalType": "uint256",
					"name": "",
					"type": "uint256"
				}
			],
			"stateMutability": "nonpayable",
			"type": "function"
		},
		{
			"inputs": [
				{
					"internalType": "uint256",
					"name": "amountIn",
					"type": "uint256"
				},
				{
					"internalType": "uint256",
					"name": "expectSlippage",
					"type": "uint256"
				}
			],
			"name": "swapBtoA",
			"outputs": [
				{
					"internalType": "uint256",
					"name": "",
					"type": "uint256"
				}
			],
			"stateMutability": "nonpayable",
			"type": "function"
		},
		{
			"inputs": [],
			"name": "tokenA",
			"outputs": [
				{
					"internalType": "contract IERC20",
					"name": "",
					"type": "address"
				}
			],
			"stateMutability": "view",
			"type": "function"
		},
		{
			"inputs": [],
			"name": "tokenB",
			"outputs": [
				{
					"internalType": "contract IERC20",
					"name": "",
					"type": "address"
				}
			],
			"stateMutability": "view",
			"type": "function"
		}
	]
}